{
  "compilerInput": "{\"language\":\"Solidity\",\"sources\":{\"DVMDBD.sol\":{\"content\":\"// // SPDX-License-Identifier: AGPL-3.0-only\\npragma solidity ^0.8.19;\\n\\n// External Libraries\\n\\n// OpenZeppelin Contracts (last updated v4.9.2) (utils/cryptography/MerkleProof.sol)\\n\\n/**\\n * @dev These functions deal with verification of Merkle Tree proofs.\\n *\\n * The tree and the proofs can be generated using our\\n * https://github.com/OpenZeppelin/merkle-tree[JavaScript library].\\n * You will find a quickstart guide in the readme.\\n *\\n * WARNING: You should avoid using leaf values that are 64 bytes long prior to\\n * hashing, or use a hash function other than keccak256 for hashing leaves.\\n * This is because the concatenation of a sorted pair of internal nodes in\\n * the merkle tree could be reinterpreted as a leaf value.\\n * OpenZeppelin's JavaScript library generates merkle trees that are safe\\n * against this attack out of the box.\\n */\\nlibrary MerkleProof {\\n    /**\\n     * @dev Returns true if a `leaf` can be proved to be a part of a Merkle tree\\n     * defined by `root`. For this, a `proof` must be provided, containing\\n     * sibling hashes on the branch from the leaf to the root of the tree. Each\\n     * pair of leaves and each pair of pre-images are assumed to be sorted.\\n     */\\n    function verify(bytes32[] memory proof, bytes32 root, bytes32 leaf) internal pure returns (bool) {\\n        return processProof(proof, leaf) == root;\\n    }\\n\\n    /**\\n     * @dev Calldata version of {verify}\\n     *\\n     * _Available since v4.7._\\n     */\\n    function verifyCalldata(bytes32[] calldata proof, bytes32 root, bytes32 leaf) internal pure returns (bool) {\\n        return processProofCalldata(proof, leaf) == root;\\n    }\\n\\n    /**\\n     * @dev Returns the rebuilt hash obtained by traversing a Merkle tree up\\n     * from `leaf` using `proof`. A `proof` is valid if and only if the rebuilt\\n     * hash matches the root of the tree. When processing the proof, the pairs\\n     * of leafs & pre-images are assumed to be sorted.\\n     *\\n     * _Available since v4.4._\\n     */\\n    function processProof(bytes32[] memory proof, bytes32 leaf) internal pure returns (bytes32) {\\n        bytes32 computedHash = leaf;\\n        for (uint256 i = 0; i < proof.length; i++) {\\n            computedHash = _hashPair(computedHash, proof[i]);\\n        }\\n        return computedHash;\\n    }\\n\\n    /**\\n     * @dev Calldata version of {processProof}\\n     *\\n     * _Available since v4.7._\\n     */\\n    function processProofCalldata(bytes32[] calldata proof, bytes32 leaf) internal pure returns (bytes32) {\\n        bytes32 computedHash = leaf;\\n        for (uint256 i = 0; i < proof.length; i++) {\\n            computedHash = _hashPair(computedHash, proof[i]);\\n        }\\n        return computedHash;\\n    }\\n\\n    /**\\n     * @dev Returns true if the `leaves` can be simultaneously proven to be a part of a merkle tree defined by\\n     * `root`, according to `proof` and `proofFlags` as described in {processMultiProof}.\\n     *\\n     * CAUTION: Not all merkle trees admit multiproofs. See {processMultiProof} for details.\\n     *\\n     * _Available since v4.7._\\n     */\\n    function multiProofVerify(\\n        bytes32[] memory proof,\\n        bool[] memory proofFlags,\\n        bytes32 root,\\n        bytes32[] memory leaves\\n    ) internal pure returns (bool) {\\n        return processMultiProof(proof, proofFlags, leaves) == root;\\n    }\\n\\n    /**\\n     * @dev Calldata version of {multiProofVerify}\\n     *\\n     * CAUTION: Not all merkle trees admit multiproofs. See {processMultiProof} for details.\\n     *\\n     * _Available since v4.7._\\n     */\\n    function multiProofVerifyCalldata(\\n        bytes32[] calldata proof,\\n        bool[] calldata proofFlags,\\n        bytes32 root,\\n        bytes32[] memory leaves\\n    ) internal pure returns (bool) {\\n        return processMultiProofCalldata(proof, proofFlags, leaves) == root;\\n    }\\n\\n    /**\\n     * @dev Returns the root of a tree reconstructed from `leaves` and sibling nodes in `proof`. The reconstruction\\n     * proceeds by incrementally reconstructing all inner nodes by combining a leaf/inner node with either another\\n     * leaf/inner node or a proof sibling node, depending on whether each `proofFlags` item is true or false\\n     * respectively.\\n     *\\n     * CAUTION: Not all merkle trees admit multiproofs. To use multiproofs, it is sufficient to ensure that: 1) the tree\\n     * is complete (but not necessarily perfect), 2) the leaves to be proven are in the opposite order they are in the\\n     * tree (i.e., as seen from right to left starting at the deepest layer and continuing at the next layer).\\n     *\\n     * _Available since v4.7._\\n     */\\n    function processMultiProof(\\n        bytes32[] memory proof,\\n        bool[] memory proofFlags,\\n        bytes32[] memory leaves\\n    ) internal pure returns (bytes32 merkleRoot) {\\n        // This function rebuilds the root hash by traversing the tree up from the leaves. The root is rebuilt by\\n        // consuming and producing values on a queue. The queue starts with the `leaves` array, then goes onto the\\n        // `hashes` array. At the end of the process, the last hash in the `hashes` array should contain the root of\\n        // the merkle tree.\\n        uint256 leavesLen = leaves.length;\\n        uint256 proofLen = proof.length;\\n        uint256 totalHashes = proofFlags.length;\\n\\n        // Check proof validity.\\n        require(leavesLen + proofLen - 1 == totalHashes, \\\"MerkleProof: invalid multiproof\\\");\\n\\n        // The xxxPos values are \\\"pointers\\\" to the next value to consume in each array. All accesses are done using\\n        // `xxx[xxxPos++]`, which return the current value and increment the pointer, thus mimicking a queue's \\\"pop\\\".\\n        bytes32[] memory hashes = new bytes32[](totalHashes);\\n        uint256 leafPos = 0;\\n        uint256 hashPos = 0;\\n        uint256 proofPos = 0;\\n        // At each step, we compute the next hash using two values:\\n        // - a value from the \\\"main queue\\\". If not all leaves have been consumed, we get the next leaf, otherwise we\\n        //   get the next hash.\\n        // - depending on the flag, either another value from the \\\"main queue\\\" (merging branches) or an element from the\\n        //   `proof` array.\\n        for (uint256 i = 0; i < totalHashes; i++) {\\n            bytes32 a = leafPos < leavesLen ? leaves[leafPos++] : hashes[hashPos++];\\n            bytes32 b = proofFlags[i]\\n                ? (leafPos < leavesLen ? leaves[leafPos++] : hashes[hashPos++])\\n                : proof[proofPos++];\\n            hashes[i] = _hashPair(a, b);\\n        }\\n\\n        if (totalHashes > 0) {\\n            require(proofPos == proofLen, \\\"MerkleProof: invalid multiproof\\\");\\n            unchecked {\\n                return hashes[totalHashes - 1];\\n            }\\n        } else if (leavesLen > 0) {\\n            return leaves[0];\\n        } else {\\n            return proof[0];\\n        }\\n    }\\n\\n    /**\\n     * @dev Calldata version of {processMultiProof}.\\n     *\\n     * CAUTION: Not all merkle trees admit multiproofs. See {processMultiProof} for details.\\n     *\\n     * _Available since v4.7._\\n     */\\n    function processMultiProofCalldata(\\n        bytes32[] calldata proof,\\n        bool[] calldata proofFlags,\\n        bytes32[] memory leaves\\n    ) internal pure returns (bytes32 merkleRoot) {\\n        // This function rebuilds the root hash by traversing the tree up from the leaves. The root is rebuilt by\\n        // consuming and producing values on a queue. The queue starts with the `leaves` array, then goes onto the\\n        // `hashes` array. At the end of the process, the last hash in the `hashes` array should contain the root of\\n        // the merkle tree.\\n        uint256 leavesLen = leaves.length;\\n        uint256 proofLen = proof.length;\\n        uint256 totalHashes = proofFlags.length;\\n\\n        // Check proof validity.\\n        require(leavesLen + proofLen - 1 == totalHashes, \\\"MerkleProof: invalid multiproof\\\");\\n\\n        // The xxxPos values are \\\"pointers\\\" to the next value to consume in each array. All accesses are done using\\n        // `xxx[xxxPos++]`, which return the current value and increment the pointer, thus mimicking a queue's \\\"pop\\\".\\n        bytes32[] memory hashes = new bytes32[](totalHashes);\\n        uint256 leafPos = 0;\\n        uint256 hashPos = 0;\\n        uint256 proofPos = 0;\\n        // At each step, we compute the next hash using two values:\\n        // - a value from the \\\"main queue\\\". If not all leaves have been consumed, we get the next leaf, otherwise we\\n        //   get the next hash.\\n        // - depending on the flag, either another value from the \\\"main queue\\\" (merging branches) or an element from the\\n        //   `proof` array.\\n        for (uint256 i = 0; i < totalHashes; i++) {\\n            bytes32 a = leafPos < leavesLen ? leaves[leafPos++] : hashes[hashPos++];\\n            bytes32 b = proofFlags[i]\\n                ? (leafPos < leavesLen ? leaves[leafPos++] : hashes[hashPos++])\\n                : proof[proofPos++];\\n            hashes[i] = _hashPair(a, b);\\n        }\\n\\n        if (totalHashes > 0) {\\n            require(proofPos == proofLen, \\\"MerkleProof: invalid multiproof\\\");\\n            unchecked {\\n                return hashes[totalHashes - 1];\\n            }\\n        } else if (leavesLen > 0) {\\n            return leaves[0];\\n        } else {\\n            return proof[0];\\n        }\\n    }\\n\\n    function _hashPair(bytes32 a, bytes32 b) private pure returns (bytes32) {\\n        return a < b ? _efficientHash(a, b) : _efficientHash(b, a);\\n    }\\n\\n    function _efficientHash(bytes32 a, bytes32 b) private pure returns (bytes32 value) {\\n        /// @solidity memory-safe-assembly\\n        assembly {\\n            mstore(0x00, a)\\n            mstore(0x20, b)\\n            value := keccak256(0x00, 0x40)\\n        }\\n    }\\n}\\n\\n// OpenZeppelin Contracts (last updated v4.9.0) (utils/Multicall.sol)\\n\\n// OpenZeppelin Contracts (last updated v4.9.0) (utils/Address.sol)\\n\\n/**\\n * @dev Collection of functions related to the address type\\n */\\nlibrary Address {\\n    /**\\n     * @dev Returns true if `account` is a contract.\\n     *\\n     * [IMPORTANT]\\n     * ====\\n     * It is unsafe to assume that an address for which this function returns\\n     * false is an externally-owned account (EOA) and not a contract.\\n     *\\n     * Among others, `isContract` will return false for the following\\n     * types of addresses:\\n     *\\n     *  - an externally-owned account\\n     *  - a contract in construction\\n     *  - an address where a contract will be created\\n     *  - an address where a contract lived, but was destroyed\\n     *\\n     * Furthermore, `isContract` will also return true if the target contract within\\n     * the same transaction is already scheduled for destruction by `SELFDESTRUCT`,\\n     * which only has an effect at the end of a transaction.\\n     * ====\\n     *\\n     * [IMPORTANT]\\n     * ====\\n     * You shouldn't rely on `isContract` to protect against flash loan attacks!\\n     *\\n     * Preventing calls from contracts is highly discouraged. It breaks composability, breaks support for smart wallets\\n     * like Gnosis Safe, and does not provide security since it can be circumvented by calling from a contract\\n     * constructor.\\n     * ====\\n     */\\n    function isContract(address account) internal view returns (bool) {\\n        // This method relies on extcodesize/address.code.length, which returns 0\\n        // for contracts in construction, since the code is only stored at the end\\n        // of the constructor execution.\\n\\n        return account.code.length > 0;\\n    }\\n\\n    /**\\n     * @dev Replacement for Solidity's `transfer`: sends `amount` wei to\\n     * `recipient`, forwarding all available gas and reverting on errors.\\n     *\\n     * https://eips.ethereum.org/EIPS/eip-1884[EIP1884] increases the gas cost\\n     * of certain opcodes, possibly making contracts go over the 2300 gas limit\\n     * imposed by `transfer`, making them unable to receive funds via\\n     * `transfer`. {sendValue} removes this limitation.\\n     *\\n     * https://consensys.net/diligence/blog/2019/09/stop-using-soliditys-transfer-now/[Learn more].\\n     *\\n     * IMPORTANT: because control is transferred to `recipient`, care must be\\n     * taken to not create reentrancy vulnerabilities. Consider using\\n     * {ReentrancyGuard} or the\\n     * https://solidity.readthedocs.io/en/v0.8.0/security-considerations.html#use-the-checks-effects-interactions-pattern[checks-effects-interactions pattern].\\n     */\\n    function sendValue(address payable recipient, uint256 amount) internal {\\n        require(address(this).balance >= amount, \\\"Address: insufficient balance\\\");\\n\\n        (bool success, ) = recipient.call{value: amount}(\\\"\\\");\\n        require(success, \\\"Address: unable to send value, recipient may have reverted\\\");\\n    }\\n\\n    /**\\n     * @dev Performs a Solidity function call using a low level `call`. A\\n     * plain `call` is an unsafe replacement for a function call: use this\\n     * function instead.\\n     *\\n     * If `target` reverts with a revert reason, it is bubbled up by this\\n     * function (like regular Solidity function calls).\\n     *\\n     * Returns the raw returned data. To convert to the expected return value,\\n     * use https://solidity.readthedocs.io/en/latest/units-and-global-variables.html?highlight=abi.decode#abi-encoding-and-decoding-functions[`abi.decode`].\\n     *\\n     * Requirements:\\n     *\\n     * - `target` must be a contract.\\n     * - calling `target` with `data` must not revert.\\n     *\\n     * _Available since v3.1._\\n     */\\n    function functionCall(address target, bytes memory data) internal returns (bytes memory) {\\n        return functionCallWithValue(target, data, 0, \\\"Address: low-level call failed\\\");\\n    }\\n\\n    /**\\n     * @dev Same as {xref-Address-functionCall-address-bytes-}[`functionCall`], but with\\n     * `errorMessage` as a fallback revert reason when `target` reverts.\\n     *\\n     * _Available since v3.1._\\n     */\\n    function functionCall(\\n        address target,\\n        bytes memory data,\\n        string memory errorMessage\\n    ) internal returns (bytes memory) {\\n        return functionCallWithValue(target, data, 0, errorMessage);\\n    }\\n\\n    /**\\n     * @dev Same as {xref-Address-functionCall-address-bytes-}[`functionCall`],\\n     * but also transferring `value` wei to `target`.\\n     *\\n     * Requirements:\\n     *\\n     * - the calling contract must have an ETH balance of at least `value`.\\n     * - the called Solidity function must be `payable`.\\n     *\\n     * _Available since v3.1._\\n     */\\n    function functionCallWithValue(address target, bytes memory data, uint256 value) internal returns (bytes memory) {\\n        return functionCallWithValue(target, data, value, \\\"Address: low-level call with value failed\\\");\\n    }\\n\\n    /**\\n     * @dev Same as {xref-Address-functionCallWithValue-address-bytes-uint256-}[`functionCallWithValue`], but\\n     * with `errorMessage` as a fallback revert reason when `target` reverts.\\n     *\\n     * _Available since v3.1._\\n     */\\n    function functionCallWithValue(\\n        address target,\\n        bytes memory data,\\n        uint256 value,\\n        string memory errorMessage\\n    ) internal returns (bytes memory) {\\n        require(address(this).balance >= value, \\\"Address: insufficient balance for call\\\");\\n        (bool success, bytes memory returndata) = target.call{value: value}(data);\\n        return verifyCallResultFromTarget(target, success, returndata, errorMessage);\\n    }\\n\\n    /**\\n     * @dev Same as {xref-Address-functionCall-address-bytes-}[`functionCall`],\\n     * but performing a static call.\\n     *\\n     * _Available since v3.3._\\n     */\\n    function functionStaticCall(address target, bytes memory data) internal view returns (bytes memory) {\\n        return functionStaticCall(target, data, \\\"Address: low-level static call failed\\\");\\n    }\\n\\n    /**\\n     * @dev Same as {xref-Address-functionCall-address-bytes-string-}[`functionCall`],\\n     * but performing a static call.\\n     *\\n     * _Available since v3.3._\\n     */\\n    function functionStaticCall(\\n        address target,\\n        bytes memory data,\\n        string memory errorMessage\\n    ) internal view returns (bytes memory) {\\n        (bool success, bytes memory returndata) = target.staticcall(data);\\n        return verifyCallResultFromTarget(target, success, returndata, errorMessage);\\n    }\\n\\n    /**\\n     * @dev Same as {xref-Address-functionCall-address-bytes-}[`functionCall`],\\n     * but performing a delegate call.\\n     *\\n     * _Available since v3.4._\\n     */\\n    function functionDelegateCall(address target, bytes memory data) internal returns (bytes memory) {\\n        return functionDelegateCall(target, data, \\\"Address: low-level delegate call failed\\\");\\n    }\\n\\n    /**\\n     * @dev Same as {xref-Address-functionCall-address-bytes-string-}[`functionCall`],\\n     * but performing a delegate call.\\n     *\\n     * _Available since v3.4._\\n     */\\n    function functionDelegateCall(\\n        address target,\\n        bytes memory data,\\n        string memory errorMessage\\n    ) internal returns (bytes memory) {\\n        (bool success, bytes memory returndata) = target.delegatecall(data);\\n        return verifyCallResultFromTarget(target, success, returndata, errorMessage);\\n    }\\n\\n    /**\\n     * @dev Tool to verify that a low level call to smart-contract was successful, and revert (either by bubbling\\n     * the revert reason or using the provided one) in case of unsuccessful call or if target was not a contract.\\n     *\\n     * _Available since v4.8._\\n     */\\n    function verifyCallResultFromTarget(\\n        address target,\\n        bool success,\\n        bytes memory returndata,\\n        string memory errorMessage\\n    ) internal view returns (bytes memory) {\\n        if (success) {\\n            if (returndata.length == 0) {\\n                // only check isContract if the call was successful and the return data is empty\\n                // otherwise we already know that it was a contract\\n                require(isContract(target), \\\"Address: call to non-contract\\\");\\n            }\\n            return returndata;\\n        } else {\\n            _revert(returndata, errorMessage);\\n        }\\n    }\\n\\n    /**\\n     * @dev Tool to verify that a low level call was successful, and revert if it wasn't, either by bubbling the\\n     * revert reason or using the provided one.\\n     *\\n     * _Available since v4.3._\\n     */\\n    function verifyCallResult(\\n        bool success,\\n        bytes memory returndata,\\n        string memory errorMessage\\n    ) internal pure returns (bytes memory) {\\n        if (success) {\\n            return returndata;\\n        } else {\\n            _revert(returndata, errorMessage);\\n        }\\n    }\\n\\n    function _revert(bytes memory returndata, string memory errorMessage) private pure {\\n        // Look for revert reason and bubble it up if present\\n        if (returndata.length > 0) {\\n            // The easiest way to bubble the revert reason is using memory via assembly\\n            /// @solidity memory-safe-assembly\\n            assembly {\\n                let returndata_size := mload(returndata)\\n                revert(add(32, returndata), returndata_size)\\n            }\\n        } else {\\n            revert(errorMessage);\\n        }\\n    }\\n}\\n\\n/**\\n * @dev Provides a function to batch together multiple calls in a single external call.\\n *\\n * _Available since v4.1._\\n */\\nabstract contract Multicall {\\n    /**\\n     * @dev Receives and executes a batch of function calls on this contract.\\n     * @custom:oz-upgrades-unsafe-allow-reachable delegatecall\\n     */\\n    function multicall(bytes[] calldata data) external virtual returns (bytes[] memory results) {\\n        results = new bytes[](data.length);\\n        for (uint256 i = 0; i < data.length; i++) {\\n            results[i] = Address.functionDelegateCall(address(this), data[i]);\\n        }\\n        return results;\\n    }\\n}\\n\\n// Interfaces\\n\\n// Interfaces\\n\\n// Internal Libraries\\n\\n// ⠀⠀⠀⠀⠀⠀⠀⠀⠀⠀⠀⠀⠀⠀⠀⠀⢀⣾⣿⣷⡀⠀⠀⠀⠀⠀⠀⠀⠀⠀⠀⠀⠀⠀⠀⠀⠀⠀⠀⠀⠀⠀⠀⠀⠀⠀⠀⠀⣼⣿⣿⣷⣄⠀⠀⠀⠀⠀⠀⠀⠀⠀⠀⠀⢸⣿⣿⣿⣗⠀⠀⠀⢸⣿⣿⣿⡯⠀⠀⠀⠀⠀⠀⠀⠀⠀⠀⠀⠀⠀⠀⠀⠀⠀⠀⠀⠀⠀⠀⠀\\n// ⠀⠀⠀⠀⠀⠀⠀⠀⠀⠀⠀⠀⠀⠀⠀⢀⣿⣿⣿⣿⣷⡀⠀⠀⠀⠀⠀⠀⠀⠀⠀⠀⠀⠀⠀⠀⠀⠀⠀⠀⠀⠀⠀⠀⠀⠀⠀⣼⣿⣿⣿⣿⣿⡄⠀⠀⠀⠀⠀⠀⠀⠀⠀⠀⢸⣿⣿⣿⣗⠀⠀⠀⢸⣿⣿⣿⡯⠀⠀⠀⠀⠀⠀⠀⠀⠀⠀⠀⠀⠀⠀⠀⠀⠀⠀⠀⠀⠀⠀⠀\\n// ⠀⠀⠀⠀⠀⠀⠀⠀⠀⠀⠀⠀⠀⠀⠀⢸⣿⣿⣿⣿⣿⣿⡄⠀⠀⠀⠀⠀⠀⠀⠀⠀⠀⠀⠀⠀⠀⠀⠀⠀⠀⠀⠀⠀⠀⠀⣸⣿⣿⣿⢿⣿⣿⣿⡀⠀⠀⠀⠀⠀⠀⠀⠀⠀⢸⣿⣿⣿⣗⠀⠀⠀⢸⣿⣿⣿⡯⠀⠀⠀⠀⠀⠀⠀⠀⠀⠀⠀⠀⠀⠀⠀⠀⠀⠀⠀⠀⠀⠀⠀\\n// ⠀⠀⠀⠀⠀⠀⠀⠀⠀⠀⠀⠀⠀⠀⠀⠘⣿⣿⣿⣿⣿⣿⣿⣄⠀⠀⠀⠀⠀⠀⠀⠀⠀⠀⠀⠀⠀⠀⠀⠀⠀⠀⠀⠀⠀⣰⣿⣿⣿⡟⠘⣿⣿⣿⣷⡀⠀⠀⠀⠀⠀⠀⠀⠀⢸⣿⣿⣿⣗⠀⠀⠀⢸⣿⣿⣿⡯⠀⠀⠀⠀⠀⠀⠀⠀⠀⠀⠀⠀⠀⠀⠀⠀⠀⠀⠀⠀⠀⠀⠀\\n// ⠀⠀⠀⠀⠀⠀⠀⠀⣀⣴⣾⣿⣿⣿⣿⣾⠻⣿⣿⣿⣿⣿⣿⣿⡆⠀⠀⠀⠀⠀⠀⠀⠀⠀⠀⠀⠀⠀⠀⠀⠀⠀⠀⠀⢠⣿⣿⣿⡿⠀⠀⠸⣿⣿⣿⣧⠀⠀⠀⠀⠀⠀⠀⠀⢸⣿⣿⣿⣗⠀⠀⠀⢸⣿⣿⣿⡯⠀⠀⠀⠀⠀⠀⢀⣠⣴⣴⣶⣶⣶⣦⣦⣀⡀⠀⠀⠀⠀⠀⠀\\n// ⠀⠀⠀⠀⠀⠀⠀⣴⣿⣿⣿⣿⣿⣿⡿⠃⠀⠙⣿⣿⣿⣿⣿⣿⣿⠀⠀⠀⠀⠀⠀⠀⠀⠀⠀⠀⠀⠀⠀⠀⠀⠀⠀⢠⣿⣿⣿⣿⠁⠀⠀⠀⢻⣿⣿⣿⣧⠀⠀⠀⠀⠀⠀⠀⢸⣿⣿⣿⣗⠀⠀⠀⢸⣿⣿⣿⡯⠀⠀⠀⠀⣠⣾⣿⣿⣿⣿⣿⣿⣿⣿⣿⣿⣿⣶⡀⠀⠀⠀⠀\\n// ⠀⠀⠀⠀⠀⢀⣾⣿⣿⣿⣿⣿⣿⡿⠁⠀⠀⠀⠘⣿⣿⣿⣿⣿⡿⠀⠀⠀⠀⠀⠀⠀⠀⠀⠀⠀⠀⠀⠀⠀⠀⠀⢀⣾⣿⣿⣿⠃⠀⠀⠀⠀⠈⢿⣿⣿⣿⣆⠀⠀⠀⠀⠀⠀⢸⣿⣿⣿⣗⠀⠀⠀⢸⣿⣿⣿⡯⠀⠀⠀⣰⣿⣿⣿⡿⠋⠁⠀⠀⠈⠘⠹⣿⣿⣿⣿⣆⠀⠀⠀\\n// ⠀⠀⠀⠀⢀⣾⣿⣿⣿⣿⣿⣿⡿⠀⠀⠀⠀⠀⠀⠈⢿⣿⣿⣿⠃⠀⠀⠀⠀⠀⠀⠀⠀⠀⠀⠀⠀⠀⠀⠀⠀⠀⣾⣿⣿⣿⠏⠀⠀⠀⠀⠀⠀⠘⣿⣿⣿⣿⡄⠀⠀⠀⠀⠀⢸⣿⣿⣿⣗⠀⠀⠀⢸⣿⣿⣿⡯⠀⠀⢰⣿⣿⣿⣿⠁⠀⠀⠀⠀⠀⠀⠀⠘⣿⣿⣿⣿⡀⠀⠀\\n// ⠀⠀⠀⢠⣿⣿⣿⣿⣿⣿⣿⣟⠀⡀⢀⠀⡀⢀⠀⡀⢈⢿⡟⠁⠀⠀⠀⠀⠀⠀⠀⠀⠀⠀⠀⠀⠀⠀⠀⠀⠀⣼⣿⣿⣿⣿⣿⣿⣿⣿⣿⣿⣿⣿⣿⣿⣿⣿⣿⡄⠀⠀⠀⠀⢸⣿⣿⣿⣗⠀⠀⠀⢸⣿⣿⣿⡯⠀⠀⢸⣿⣿⣿⣗⠀⠀⠀⠀⠀⠀⠀⠀⠀⣿⣿⣿⣿⡇⠀⠀\\n// ⠀⠀⣠⣿⣿⣿⣿⣿⣿⡿⠋⢻⣿⣿⣿⣿⣿⣿⣿⣿⣿⣿⣿⣷⣶⣄⡀⠀⠀⠀⠀⠀⠀⠀⠀⠀⠀⠀⠀⠀⣸⣿⣿⣿⡿⢿⠿⠿⠿⠿⠿⠿⠿⠿⠿⢿⣿⣿⣿⣷⡀⠀⠀⠀⢸⣿⣿⣿⣗⠀⠀⠀⢸⣿⣿⣿⡯⠀⠀⠸⣿⣿⣿⣷⡀⠀⠀⠀⠀⠀⠀⠀⢠⣿⣿⣿⣿⠂⠀⠀\\n// ⠀⠀⠙⠛⠿⠻⠻⠛⠉⠀⠀⠈⢿⣿⣿⣿⣿⣿⣿⣿⣿⣿⣿⣿⣿⣿⣷⣄⠀⠀⠀⠀⠀⠀⠀⠀⠀⠀⠀⣰⣿⣿⣿⣿⠁⠀⠀⠀⠀⠀⠀⠀⠀⠀⠀⠀⢿⣿⣿⣿⣧⠀⠀⠀⢸⣿⣿⣿⣗⠀⠀⠀⢸⣿⣿⣿⡯⠀⠀⠀⢻⣿⣿⣿⣷⣀⢀⠀⠀⠀⡀⣰⣾⣿⣿⣿⠏⠀⠀⠀\\n// ⠀⠀⠀⠀⠀⠀⠀⠀⠀⠀⠀⠀⠈⠛⣿⣿⣿⣿⣿⣿⣿⣿⣿⣿⣿⣿⣿⣿⡄⠀⠀⠀⠀⠀⠀⠀⠀⠀⢰⣿⣿⣿⣿⠃⠀⠀⠀⠀⠀⠀⠀⠀⠀⠀⠀⠀⠘⣿⣿⣿⣿⣧⠀⠀⢸⣿⣿⣿⣗⠀⠀⠀⢸⣿⣿⣿⡯⠀⠀⠀⠀⠹⢿⣿⣿⣿⣿⣾⣾⣷⣿⣿⣿⣿⡿⠋⠀⠀⠀⠀\\n// ⠀⠀⠀⠀⠀⠀⠀⠀⠀⠀⠀⠀⠀⠀⠀⠈⠙⠙⠋⠛⠙⠋⠛⠙⠋⠛⠙⠋⠃⠀⠀⠀⠀⠀⠀⠀⠀⠠⠿⠻⠟⠿⠃⠀⠀⠀⠀⠀⠀⠀⠀⠀⠀⠀⠀⠀⠀⠸⠟⠿⠟⠿⠆⠀⠸⠿⠿⠟⠯⠀⠀⠀⠸⠿⠿⠿⠏⠀⠀⠀⠀⠀⠈⠉⠻⠻⡿⣿⢿⡿⡿⠿⠛⠁⠀⠀⠀⠀⠀⠀\\n//                    allo.gitcoin.co\\n\\n/// @title Metadata\\n/// @author @thelostone-mc <aditya@gitcoin.co>, @0xKurt <kurt@gitcoin.co>, @codenamejason <jason@gitcoin.co>, @0xZakk <zakk@gitcoin.co>, @nfrgosselin <nate@gitcoin.co>\\n/// @notice Metadata is used to define the metadata for the protocol that is used throughout the system.\\nstruct Metadata {\\n    /// @notice Protocol ID corresponding to a specific protocol (currently using IPFS = 1)\\n    uint256 protocol;\\n    /// @notice Pointer (hash) to fetch metadata for the specified protocol\\n    string pointer;\\n}\\n\\n// ⠀⠀⠀⠀⠀⠀⠀⠀⠀⠀⠀⠀⠀⠀⠀⠀⢀⣾⣿⣷⡀⠀⠀⠀⠀⠀⠀⠀⠀⠀⠀⠀⠀⠀⠀⠀⠀⠀⠀⠀⠀⠀⠀⠀⠀⠀⠀⠀⣼⣿⣿⣷⣄⠀⠀⠀⠀⠀⠀⠀⠀⠀⠀⠀⢸⣿⣿⣿⣗⠀⠀⠀⢸⣿⣿⣿⡯⠀⠀⠀⠀⠀⠀⠀⠀⠀⠀⠀⠀⠀⠀⠀⠀⠀⠀⠀⠀⠀⠀⠀\\n// ⠀⠀⠀⠀⠀⠀⠀⠀⠀⠀⠀⠀⠀⠀⠀⢀⣿⣿⣿⣿⣷⡀⠀⠀⠀⠀⠀⠀⠀⠀⠀⠀⠀⠀⠀⠀⠀⠀⠀⠀⠀⠀⠀⠀⠀⠀⠀⣼⣿⣿⣿⣿⣿⡄⠀⠀⠀⠀⠀⠀⠀⠀⠀⠀⢸⣿⣿⣿⣗⠀⠀⠀⢸⣿⣿⣿⡯⠀⠀⠀⠀⠀⠀⠀⠀⠀⠀⠀⠀⠀⠀⠀⠀⠀⠀⠀⠀⠀⠀⠀\\n// ⠀⠀⠀⠀⠀⠀⠀⠀⠀⠀⠀⠀⠀⠀⠀⢸⣿⣿⣿⣿⣿⣿⡄⠀⠀⠀⠀⠀⠀⠀⠀⠀⠀⠀⠀⠀⠀⠀⠀⠀⠀⠀⠀⠀⠀⠀⣸⣿⣿⣿⢿⣿⣿⣿⡀⠀⠀⠀⠀⠀⠀⠀⠀⠀⢸⣿⣿⣿⣗⠀⠀⠀⢸⣿⣿⣿⡯⠀⠀⠀⠀⠀⠀⠀⠀⠀⠀⠀⠀⠀⠀⠀⠀⠀⠀⠀⠀⠀⠀⠀\\n// ⠀⠀⠀⠀⠀⠀⠀⠀⠀⠀⠀⠀⠀⠀⠀⠘⣿⣿⣿⣿⣿⣿⣿⣄⠀⠀⠀⠀⠀⠀⠀⠀⠀⠀⠀⠀⠀⠀⠀⠀⠀⠀⠀⠀⠀⣰⣿⣿⣿⡟⠘⣿⣿⣿⣷⡀⠀⠀⠀⠀⠀⠀⠀⠀⢸⣿⣿⣿⣗⠀⠀⠀⢸⣿⣿⣿⡯⠀⠀⠀⠀⠀⠀⠀⠀⠀⠀⠀⠀⠀⠀⠀⠀⠀⠀⠀⠀⠀⠀⠀\\n// ⠀⠀⠀⠀⠀⠀⠀⠀⣀⣴⣾⣿⣿⣿⣿⣾⠻⣿⣿⣿⣿⣿⣿⣿⡆⠀⠀⠀⠀⠀⠀⠀⠀⠀⠀⠀⠀⠀⠀⠀⠀⠀⠀⠀⢠⣿⣿⣿⡿⠀⠀⠸⣿⣿⣿⣧⠀⠀⠀⠀⠀⠀⠀⠀⢸⣿⣿⣿⣗⠀⠀⠀⢸⣿⣿⣿⡯⠀⠀⠀⠀⠀⠀⢀⣠⣴⣴⣶⣶⣶⣦⣦⣀⡀⠀⠀⠀⠀⠀⠀\\n// ⠀⠀⠀⠀⠀⠀⠀⣴⣿⣿⣿⣿⣿⣿⡿⠃⠀⠙⣿⣿⣿⣿⣿⣿⣿⠀⠀⠀⠀⠀⠀⠀⠀⠀⠀⠀⠀⠀⠀⠀⠀⠀⠀⢠⣿⣿⣿⣿⠁⠀⠀⠀⢻⣿⣿⣿⣧⠀⠀⠀⠀⠀⠀⠀⢸⣿⣿⣿⣗⠀⠀⠀⢸⣿⣿⣿⡯⠀⠀⠀⠀⣠⣾⣿⣿⣿⣿⣿⣿⣿⣿⣿⣿⣿⣶⡀⠀⠀⠀⠀\\n// ⠀⠀⠀⠀⠀⢀⣾⣿⣿⣿⣿⣿⣿⡿⠁⠀⠀⠀⠘⣿⣿⣿⣿⣿⡿⠀⠀⠀⠀⠀⠀⠀⠀⠀⠀⠀⠀⠀⠀⠀⠀⠀⢀⣾⣿⣿⣿⠃⠀⠀⠀⠀⠈⢿⣿⣿⣿⣆⠀⠀⠀⠀⠀⠀⢸⣿⣿⣿⣗⠀⠀⠀⢸⣿⣿⣿⡯⠀⠀⠀⣰⣿⣿⣿⡿⠋⠁⠀⠀⠈⠘⠹⣿⣿⣿⣿⣆⠀⠀⠀\\n// ⠀⠀⠀⠀⢀⣾⣿⣿⣿⣿⣿⣿⡿⠀⠀⠀⠀⠀⠀⠈⢿⣿⣿⣿⠃⠀⠀⠀⠀⠀⠀⠀⠀⠀⠀⠀⠀⠀⠀⠀⠀⠀⣾⣿⣿⣿⠏⠀⠀⠀⠀⠀⠀⠘⣿⣿⣿⣿⡄⠀⠀⠀⠀⠀⢸⣿⣿⣿⣗⠀⠀⠀⢸⣿⣿⣿⡯⠀⠀⢰⣿⣿⣿⣿⠁⠀⠀⠀⠀⠀⠀⠀⠘⣿⣿⣿⣿⡀⠀⠀\\n// ⠀⠀⠀⢠⣿⣿⣿⣿⣿⣿⣿⣟⠀⡀⢀⠀⡀⢀⠀⡀⢈⢿⡟⠁⠀⠀⠀⠀⠀⠀⠀⠀⠀⠀⠀⠀⠀⠀⠀⠀⠀⣼⣿⣿⣿⣿⣿⣿⣿⣿⣿⣿⣿⣿⣿⣿⣿⣿⣿⡄⠀⠀⠀⠀⢸⣿⣿⣿⣗⠀⠀⠀⢸⣿⣿⣿⡯⠀⠀⢸⣿⣿⣿⣗⠀⠀⠀⠀⠀⠀⠀⠀⠀⣿⣿⣿⣿⡇⠀⠀\\n// ⠀⠀⣠⣿⣿⣿⣿⣿⣿⡿⠋⢻⣿⣿⣿⣿⣿⣿⣿⣿⣿⣿⣿⣷⣶⣄⡀⠀⠀⠀⠀⠀⠀⠀⠀⠀⠀⠀⠀⠀⣸⣿⣿⣿⡿⢿⠿⠿⠿⠿⠿⠿⠿⠿⠿⢿⣿⣿⣿⣷⡀⠀⠀⠀⢸⣿⣿⣿⣗⠀⠀⠀⢸⣿⣿⣿⡯⠀⠀⠸⣿⣿⣿⣷⡀⠀⠀⠀⠀⠀⠀⠀⢠⣿⣿⣿⣿⠂⠀⠀\\n// ⠀⠀⠙⠛⠿⠻⠻⠛⠉⠀⠀⠈⢿⣿⣿⣿⣿⣿⣿⣿⣿⣿⣿⣿⣿⣿⣷⣄⠀⠀⠀⠀⠀⠀⠀⠀⠀⠀⠀⣰⣿⣿⣿⣿⠁⠀⠀⠀⠀⠀⠀⠀⠀⠀⠀⠀⢿⣿⣿⣿⣧⠀⠀⠀⢸⣿⣿⣿⣗⠀⠀⠀⢸⣿⣿⣿⡯⠀⠀⠀⢻⣿⣿⣿⣷⣀⢀⠀⠀⠀⡀⣰⣾⣿⣿⣿⠏⠀⠀⠀\\n// ⠀⠀⠀⠀⠀⠀⠀⠀⠀⠀⠀⠀⠈⠛⣿⣿⣿⣿⣿⣿⣿⣿⣿⣿⣿⣿⣿⣿⡄⠀⠀⠀⠀⠀⠀⠀⠀⠀⢰⣿⣿⣿⣿⠃⠀⠀⠀⠀⠀⠀⠀⠀⠀⠀⠀⠀⠘⣿⣿⣿⣿⣧⠀⠀⢸⣿⣿⣿⣗⠀⠀⠀⢸⣿⣿⣿⡯⠀⠀⠀⠀⠹⢿⣿⣿⣿⣿⣾⣾⣷⣿⣿⣿⣿⡿⠋⠀⠀⠀⠀\\n// ⠀⠀⠀⠀⠀⠀⠀⠀⠀⠀⠀⠀⠀⠀⠀⠈⠙⠙⠋⠛⠙⠋⠛⠙⠋⠛⠙⠋⠃⠀⠀⠀⠀⠀⠀⠀⠀⠠⠿⠻⠟⠿⠃⠀⠀⠀⠀⠀⠀⠀⠀⠀⠀⠀⠀⠀⠀⠸⠟⠿⠟⠿⠆⠀⠸⠿⠿⠟⠯⠀⠀⠀⠸⠿⠿⠿⠏⠀⠀⠀⠀⠀⠈⠉⠻⠻⡿⣿⢿⡿⡿⠿⠛⠁⠀⠀⠀⠀⠀⠀\\n//                    allo.gitcoin.co\\n\\n/// @title IRegistry Interface\\n/// @author @thelostone-mc <aditya@gitcoin.co>, @0xKurt <kurt@gitcoin.co>, @codenamejason <jason@gitcoin.co>, @0xZakk <zakk@gitcoin.co>, @nfrgosselin <nate@gitcoin.co>\\n/// @notice Interface for the Registry contract and exposes all functions needed to use the Registry\\n///         within the Allo protocol.\\n/// @dev The Registry Interface is used to interact with the Allo protocol and create profiles\\n///      that can be used to interact with the Allo protocol. The Registry is the main contract\\n///      that all other contracts interact with to get the 'Profile' information needed to\\n///      interact with the Allo protocol. The Registry is also used to create new profiles\\n///      and update existing profiles. The Registry is also used to add and remove members\\n///      from a profile. The Registry will not always be used in a strategy and will depend on\\n///      the strategy being used.\\ninterface IRegistry {\\n    /// ======================\\n    /// ======= Structs ======\\n    /// ======================\\n\\n    /// @dev The Profile struct that all profiles are based from\\n    struct Profile {\\n        bytes32 id;\\n        uint256 nonce;\\n        string name;\\n        Metadata metadata;\\n        address owner;\\n        address anchor;\\n    }\\n\\n    /// ======================\\n    /// ======= Events =======\\n    /// ======================\\n\\n    /// @dev Emitted when a profile is created. This will return your anchor address.\\n    event ProfileCreated(\\n        bytes32 indexed profileId, uint256 nonce, string name, Metadata metadata, address owner, address anchor\\n    );\\n\\n    /// @dev Emitted when a profile name is updated. This will update the anchor when the name is updated and return it.\\n    event ProfileNameUpdated(bytes32 indexed profileId, string name, address anchor);\\n\\n    /// @dev Emitted when a profile's metadata is updated.\\n    event ProfileMetadataUpdated(bytes32 indexed profileId, Metadata metadata);\\n\\n    /// @dev Emitted when a profile owner is updated.\\n    event ProfileOwnerUpdated(bytes32 indexed profileId, address owner);\\n\\n    /// @dev Emitted when a profile pending owner is updated.\\n    event ProfilePendingOwnerUpdated(bytes32 indexed profileId, address pendingOwner);\\n\\n    /// =========================\\n    /// ==== View Functions =====\\n    /// =========================\\n\\n    /// @dev Returns the 'Profile' for a '_profileId' passed\\n    /// @param _profileId The 'profileId' to return the 'Profile' for\\n    /// @return profile The 'Profile' for the '_profileId' passed\\n    function getProfileById(bytes32 _profileId) external view returns (Profile memory profile);\\n\\n    /// @dev Returns the 'Profile' for an '_anchor' passed\\n    /// @param _anchor The 'anchor' to return the 'Profile' for\\n    /// @return profile The 'Profile' for the '_anchor' passed\\n    function getProfileByAnchor(address _anchor) external view returns (Profile memory profile);\\n\\n    /// @dev Returns a boolean if the '_account' is a member or owner of the '_profileId' passed in\\n    /// @param _profileId The 'profileId' to check if the '_account' is a member or owner of\\n    /// @param _account The 'account' to check if they are a member or owner of the '_profileId' passed in\\n    /// @return isOwnerOrMemberOfProfile A boolean if the '_account' is a member or owner of the '_profileId' passed in\\n    function isOwnerOrMemberOfProfile(bytes32 _profileId, address _account)\\n        external\\n        view\\n        returns (bool isOwnerOrMemberOfProfile);\\n\\n    /// @dev Returns a boolean if the '_account' is an owner of the '_profileId' passed in\\n    /// @param _profileId The 'profileId' to check if the '_account' is an owner of\\n    /// @param _owner The 'owner' to check if they are an owner of the '_profileId' passed in\\n    /// @return isOwnerOfProfile A boolean if the '_account' is an owner of the '_profileId' passed in\\n    function isOwnerOfProfile(bytes32 _profileId, address _owner) external view returns (bool isOwnerOfProfile);\\n\\n    /// @dev Returns a boolean if the '_account' is a member of the '_profileId' passed in\\n    /// @param _profileId The 'profileId' to check if the '_account' is a member of\\n    /// @param _member The 'member' to check if they are a member of the '_profileId' passed in\\n    /// @return isMemberOfProfile A boolean if the '_account' is a member of the '_profileId' passed in\\n    function isMemberOfProfile(bytes32 _profileId, address _member) external view returns (bool isMemberOfProfile);\\n\\n    /// ====================================\\n    /// ==== External/Public Functions =====\\n    /// ====================================\\n\\n    /// @dev Creates a new 'Profile' and returns the 'profileId' of the new profile\\n    ///\\n    /// Note: The 'name' and 'nonce' are used to generate the 'anchor' address\\n    ///\\n    /// Requirements: None, anyone can create a new profile\\n    ///\\n    /// @param _nonce The nonce to use to generate the 'anchor' address\\n    /// @param _name The name to use to generate the 'anchor' address\\n    /// @param _metadata The 'Metadata' to use to generate the 'anchor' address\\n    /// @param _owner The 'owner' to use to generate the 'anchor' address\\n    /// @param _members The 'members' to use to generate the 'anchor' address\\n    /// @return profileId The 'profileId' of the new profile\\n    function createProfile(\\n        uint256 _nonce,\\n        string memory _name,\\n        Metadata memory _metadata,\\n        address _owner,\\n        address[] memory _members\\n    ) external returns (bytes32 profileId);\\n\\n    /// @dev Updates the 'name' of the '_profileId' passed in and returns the new 'anchor' address\\n    ///\\n    /// Requirements: Only the 'Profile' owner can update the name\\n    ///\\n    /// Note: The 'name' and 'nonce' are used to generate the 'anchor' address and this will update the 'anchor'\\n    ///       so please use caution. You can always recreate your 'anchor' address by updating the name back\\n    ///       to the original name used to create the profile.\\n    ///\\n    /// @param _profileId The 'profileId' to update the name for\\n    /// @param _name The new 'name' value\\n    /// @return anchor The new 'anchor' address\\n    function updateProfileName(bytes32 _profileId, string memory _name) external returns (address anchor);\\n\\n    /// @dev Updates the 'Metadata' of the '_profileId' passed in\\n    ///\\n    /// Requirements: Only the 'Profile' owner can update the metadata\\n    ///\\n    /// @param _profileId The 'profileId' to update the metadata for\\n    /// @param _metadata The new 'Metadata' value\\n    function updateProfileMetadata(bytes32 _profileId, Metadata memory _metadata) external;\\n\\n    /// @dev Updates the pending 'owner' of the '_profileId' passed in\\n    ///\\n    /// Requirements: Only the 'Profile' owner can update the pending owner\\n    ///\\n    /// @param _profileId The 'profileId' to update the pending owner for\\n    /// @param _pendingOwner The new pending 'owner' value\\n    function updateProfilePendingOwner(bytes32 _profileId, address _pendingOwner) external;\\n\\n    /// @dev Accepts the pending 'owner' of the '_profileId' passed in\\n    ///\\n    /// Requirements: Only the pending owner can accept the ownership\\n    ///\\n    /// @param _profileId The 'profileId' to accept the ownership for\\n    function acceptProfileOwnership(bytes32 _profileId) external;\\n\\n    /// @dev Adds members to the '_profileId' passed in\\n    ///\\n    /// Requirements: Only the 'Profile' owner can add members\\n    ///\\n    /// @param _profileId The 'profileId' to add members to\\n    /// @param _members The members to add to the '_profileId' passed in\\n    function addMembers(bytes32 _profileId, address[] memory _members) external;\\n\\n    /// @dev Removes members from the '_profileId' passed in\\n    ///\\n    /// Requirements: Only the 'Profile' owner can remove members\\n    ///\\n    /// @param _profileId The 'profileId' to remove members from\\n    /// @param _members The members to remove from the '_profileId' passed in\\n    function removeMembers(bytes32 _profileId, address[] memory _members) external;\\n\\n    /// @dev Recovers funds from the contract\\n    ///\\n    /// Requirements: Must be the Allo owner\\n    ///\\n    /// @param _token The token you want to use to recover funds\\n    /// @param _recipient The recipient of the recovered funds\\n    function recoverFunds(address _token, address _recipient) external;\\n}\\n\\n// Interfaces\\n\\n// ⠀⠀⠀⠀⠀⠀⠀⠀⠀⠀⠀⠀⠀⠀⠀⠀⢀⣾⣿⣷⡀⠀⠀⠀⠀⠀⠀⠀⠀⠀⠀⠀⠀⠀⠀⠀⠀⠀⠀⠀⠀⠀⠀⠀⠀⠀⠀⠀⣼⣿⣿⣷⣄⠀⠀⠀⠀⠀⠀⠀⠀⠀⠀⠀⢸⣿⣿⣿⣗⠀⠀⠀⢸⣿⣿⣿⡯⠀⠀⠀⠀⠀⠀⠀⠀⠀⠀⠀⠀⠀⠀⠀⠀⠀⠀⠀⠀⠀⠀⠀\\n// ⠀⠀⠀⠀⠀⠀⠀⠀⠀⠀⠀⠀⠀⠀⠀⢀⣿⣿⣿⣿⣷⡀⠀⠀⠀⠀⠀⠀⠀⠀⠀⠀⠀⠀⠀⠀⠀⠀⠀⠀⠀⠀⠀⠀⠀⠀⠀⣼⣿⣿⣿⣿⣿⡄⠀⠀⠀⠀⠀⠀⠀⠀⠀⠀⢸⣿⣿⣿⣗⠀⠀⠀⢸⣿⣿⣿⡯⠀⠀⠀⠀⠀⠀⠀⠀⠀⠀⠀⠀⠀⠀⠀⠀⠀⠀⠀⠀⠀⠀⠀\\n// ⠀⠀⠀⠀⠀⠀⠀⠀⠀⠀⠀⠀⠀⠀⠀⢸⣿⣿⣿⣿⣿⣿⡄⠀⠀⠀⠀⠀⠀⠀⠀⠀⠀⠀⠀⠀⠀⠀⠀⠀⠀⠀⠀⠀⠀⠀⣸⣿⣿⣿⢿⣿⣿⣿⡀⠀⠀⠀⠀⠀⠀⠀⠀⠀⢸⣿⣿⣿⣗⠀⠀⠀⢸⣿⣿⣿⡯⠀⠀⠀⠀⠀⠀⠀⠀⠀⠀⠀⠀⠀⠀⠀⠀⠀⠀⠀⠀⠀⠀⠀\\n// ⠀⠀⠀⠀⠀⠀⠀⠀⠀⠀⠀⠀⠀⠀⠀⠘⣿⣿⣿⣿⣿⣿⣿⣄⠀⠀⠀⠀⠀⠀⠀⠀⠀⠀⠀⠀⠀⠀⠀⠀⠀⠀⠀⠀⠀⣰⣿⣿⣿⡟⠘⣿⣿⣿⣷⡀⠀⠀⠀⠀⠀⠀⠀⠀⢸⣿⣿⣿⣗⠀⠀⠀⢸⣿⣿⣿⡯⠀⠀⠀⠀⠀⠀⠀⠀⠀⠀⠀⠀⠀⠀⠀⠀⠀⠀⠀⠀⠀⠀⠀\\n// ⠀⠀⠀⠀⠀⠀⠀⠀⣀⣴⣾⣿⣿⣿⣿⣾⠻⣿⣿⣿⣿⣿⣿⣿⡆⠀⠀⠀⠀⠀⠀⠀⠀⠀⠀⠀⠀⠀⠀⠀⠀⠀⠀⠀⢠⣿⣿⣿⡿⠀⠀⠸⣿⣿⣿⣧⠀⠀⠀⠀⠀⠀⠀⠀⢸⣿⣿⣿⣗⠀⠀⠀⢸⣿⣿⣿⡯⠀⠀⠀⠀⠀⠀⢀⣠⣴⣴⣶⣶⣶⣦⣦⣀⡀⠀⠀⠀⠀⠀⠀\\n// ⠀⠀⠀⠀⠀⠀⠀⣴⣿⣿⣿⣿⣿⣿⡿⠃⠀⠙⣿⣿⣿⣿⣿⣿⣿⠀⠀⠀⠀⠀⠀⠀⠀⠀⠀⠀⠀⠀⠀⠀⠀⠀⠀⢠⣿⣿⣿⣿⠁⠀⠀⠀⢻⣿⣿⣿⣧⠀⠀⠀⠀⠀⠀⠀⢸⣿⣿⣿⣗⠀⠀⠀⢸⣿⣿⣿⡯⠀⠀⠀⠀⣠⣾⣿⣿⣿⣿⣿⣿⣿⣿⣿⣿⣿⣶⡀⠀⠀⠀⠀\\n// ⠀⠀⠀⠀⠀⢀⣾⣿⣿⣿⣿⣿⣿⡿⠁⠀⠀⠀⠘⣿⣿⣿⣿⣿⡿⠀⠀⠀⠀⠀⠀⠀⠀⠀⠀⠀⠀⠀⠀⠀⠀⠀⢀⣾⣿⣿⣿⠃⠀⠀⠀⠀⠈⢿⣿⣿⣿⣆⠀⠀⠀⠀⠀⠀⢸⣿⣿⣿⣗⠀⠀⠀⢸⣿⣿⣿⡯⠀⠀⠀⣰⣿⣿⣿⡿⠋⠁⠀⠀⠈⠘⠹⣿⣿⣿⣿⣆⠀⠀⠀\\n// ⠀⠀⠀⠀⢀⣾⣿⣿⣿⣿⣿⣿⡿⠀⠀⠀⠀⠀⠀⠈⢿⣿⣿⣿⠃⠀⠀⠀⠀⠀⠀⠀⠀⠀⠀⠀⠀⠀⠀⠀⠀⠀⣾⣿⣿⣿⠏⠀⠀⠀⠀⠀⠀⠘⣿⣿⣿⣿⡄⠀⠀⠀⠀⠀⢸⣿⣿⣿⣗⠀⠀⠀⢸⣿⣿⣿⡯⠀⠀⢰⣿⣿⣿⣿⠁⠀⠀⠀⠀⠀⠀⠀⠘⣿⣿⣿⣿⡀⠀⠀\\n// ⠀⠀⠀⢠⣿⣿⣿⣿⣿⣿⣿⣟⠀⡀⢀⠀⡀⢀⠀⡀⢈⢿⡟⠁⠀⠀⠀⠀⠀⠀⠀⠀⠀⠀⠀⠀⠀⠀⠀⠀⠀⣼⣿⣿⣿⣿⣿⣿⣿⣿⣿⣿⣿⣿⣿⣿⣿⣿⣿⡄⠀⠀⠀⠀⢸⣿⣿⣿⣗⠀⠀⠀⢸⣿⣿⣿⡯⠀⠀⢸⣿⣿⣿⣗⠀⠀⠀⠀⠀⠀⠀⠀⠀⣿⣿⣿⣿⡇⠀⠀\\n// ⠀⠀⣠⣿⣿⣿⣿⣿⣿⡿⠋⢻⣿⣿⣿⣿⣿⣿⣿⣿⣿⣿⣿⣷⣶⣄⡀⠀⠀⠀⠀⠀⠀⠀⠀⠀⠀⠀⠀⠀⣸⣿⣿⣿⡿⢿⠿⠿⠿⠿⠿⠿⠿⠿⠿⢿⣿⣿⣿⣷⡀⠀⠀⠀⢸⣿⣿⣿⣗⠀⠀⠀⢸⣿⣿⣿⡯⠀⠀⠸⣿⣿⣿⣷⡀⠀⠀⠀⠀⠀⠀⠀⢠⣿⣿⣿⣿⠂⠀⠀\\n// ⠀⠀⠙⠛⠿⠻⠻⠛⠉⠀⠀⠈⢿⣿⣿⣿⣿⣿⣿⣿⣿⣿⣿⣿⣿⣿⣷⣄⠀⠀⠀⠀⠀⠀⠀⠀⠀⠀⠀⣰⣿⣿⣿⣿⠁⠀⠀⠀⠀⠀⠀⠀⠀⠀⠀⠀⢿⣿⣿⣿⣧⠀⠀⠀⢸⣿⣿⣿⣗⠀⠀⠀⢸⣿⣿⣿⡯⠀⠀⠀⢻⣿⣿⣿⣷⣀⢀⠀⠀⠀⡀⣰⣾⣿⣿⣿⠏⠀⠀⠀\\n// ⠀⠀⠀⠀⠀⠀⠀⠀⠀⠀⠀⠀⠈⠛⣿⣿⣿⣿⣿⣿⣿⣿⣿⣿⣿⣿⣿⣿⡄⠀⠀⠀⠀⠀⠀⠀⠀⠀⢰⣿⣿⣿⣿⠃⠀⠀⠀⠀⠀⠀⠀⠀⠀⠀⠀⠀⠘⣿⣿⣿⣿⣧⠀⠀⢸⣿⣿⣿⣗⠀⠀⠀⢸⣿⣿⣿⡯⠀⠀⠀⠀⠹⢿⣿⣿⣿⣿⣾⣾⣷⣿⣿⣿⣿⡿⠋⠀⠀⠀⠀\\n// ⠀⠀⠀⠀⠀⠀⠀⠀⠀⠀⠀⠀⠀⠀⠀⠈⠙⠙⠋⠛⠙⠋⠛⠙⠋⠛⠙⠋⠃⠀⠀⠀⠀⠀⠀⠀⠀⠠⠿⠻⠟⠿⠃⠀⠀⠀⠀⠀⠀⠀⠀⠀⠀⠀⠀⠀⠀⠸⠟⠿⠟⠿⠆⠀⠸⠿⠿⠟⠯⠀⠀⠀⠸⠿⠿⠿⠏⠀⠀⠀⠀⠀⠈⠉⠻⠻⡿⣿⢿⡿⡿⠿⠛⠁⠀⠀⠀⠀⠀⠀\\n//                    allo.gitcoin.co\\n\\n/// @title IStrategy Interface\\n/// @author @thelostone-mc <aditya@gitcoin.co>, @0xKurt <kurt@gitcoin.co>, @codenamejason <jason@gitcoin.co>, @0xZakk <zakk@gitcoin.co>, @nfrgosselin <nate@gitcoin.co> @0xZakk <zakk@gitcoin.co>, @nfrgosselin <nate@gitcoin.co>\\n/// @notice BaseStrategy is the base contract that all strategies should inherit from and uses this interface.\\n\\ninterface IStrategy {\\n    /// ======================\\n    /// ======= Storage ======\\n    /// ======================\\n\\n    /// @notice The Status enum that all recipients are based from\\n    enum Status {\\n        None,\\n        Pending,\\n        Accepted,\\n        Rejected,\\n        Appealed,\\n        InReview,\\n        Canceled\\n    }\\n\\n    /// @notice Payout summary struct to hold the payout data\\n    struct PayoutSummary {\\n        address recipientAddress;\\n        uint256 amount;\\n    }\\n\\n    /// ======================\\n    /// ======= Events =======\\n    /// ======================\\n\\n    /// @notice Emitted when strategy is initialized.\\n    /// @param poolId The ID of the pool\\n    /// @param data The data passed to the 'initialize' function\\n    event Initialized(uint256 poolId, bytes data);\\n\\n    /// @notice Emitted when a recipient is registered.\\n    /// @param recipientId The ID of the recipient\\n    /// @param data The data passed to the 'registerRecipient' function\\n    /// @param sender The sender\\n    event Registered(address indexed recipientId, bytes data, address sender);\\n\\n    /// @notice Emitted when a recipient is allocated to.\\n    /// @param recipientId The ID of the recipient\\n    /// @param amount The amount allocated\\n    /// @param token The token allocated\\n    event Allocated(address indexed recipientId, uint256 amount, address token, address sender);\\n\\n    /// @notice Emitted when tokens are distributed.\\n    /// @param recipientId The ID of the recipient\\n    /// @param recipientAddress The recipient\\n    /// @param amount The amount distributed\\n    /// @param sender The sender\\n    event Distributed(address indexed recipientId, address recipientAddress, uint256 amount, address sender);\\n\\n    /// @notice Emitted when pool is set to active status.\\n    /// @param active The status of the pool\\n    event PoolActive(bool active);\\n\\n    /// ======================\\n    /// ======= Views ========\\n    /// ======================\\n\\n    /// @notice Getter for the address of the Allo contract.\\n    /// @return The 'Allo' contract\\n    function getAllo() external view returns (IAllo);\\n\\n    /// @notice Getter for the 'poolId' for this strategy.\\n    /// @return The ID of the pool\\n    function getPoolId() external view returns (uint256);\\n\\n    /// @notice Getter for the 'id' of the strategy.\\n    /// @return The ID of the strategy\\n    function getStrategyId() external view returns (bytes32);\\n\\n    /// @notice Checks whether a allocator is valid or not, will usually be true for all strategies\\n    ///      and will depend on the strategy implementation.\\n    /// @param _allocator The allocator to check\\n    /// @return Whether the allocator is valid or not\\n    function isValidAllocator(address _allocator) external view returns (bool);\\n\\n    /// @notice whether pool is active.\\n    /// @return Whether the pool is active or not\\n    function isPoolActive() external returns (bool);\\n\\n    /// @notice Checks the amount of tokens in the pool.\\n    /// @return The balance of the pool\\n    function getPoolAmount() external view returns (uint256);\\n\\n    /// @notice Increases the balance of the pool.\\n    /// @param _amount The amount to increase the pool by\\n    function increasePoolAmount(uint256 _amount) external;\\n\\n    /// @notice Checks the status of a recipient probably tracked in a mapping, but will depend on the implementation\\n    ///      for example, the OpenSelfRegistration only maps users to bool, and then assumes Accepted for those\\n    ///      since there is no need for Pending or Rejected.\\n    /// @param _recipientId The ID of the recipient\\n    /// @return The status of the recipient\\n    function getRecipientStatus(address _recipientId) external view returns (Status);\\n\\n    /// @notice Checks the amount allocated to a recipient for distribution.\\n    /// @dev Input the values you would send to distribute(), get the amounts each recipient in the array would receive.\\n    ///      The encoded '_data' will be determined by the strategy, and will be used to determine the payout.\\n    /// @param _recipientIds The IDs of the recipients\\n    /// @param _data The encoded data\\n    function getPayouts(address[] memory _recipientIds, bytes[] memory _data)\\n        external\\n        view\\n        returns (PayoutSummary[] memory);\\n\\n    /// ======================\\n    /// ===== Functions ======\\n    /// ======================\\n\\n    /// @notice\\n    /// @dev The default BaseStrategy version will not use the data  if a strategy wants to use it, they will overwrite it,\\n    ///      use it, and then call super.initialize().\\n    /// @param _poolId The ID of the pool\\n    /// @param _data The encoded data\\n    function initialize(uint256 _poolId, bytes memory _data) external;\\n\\n    /// @notice This will register a recipient, set their status (and any other strategy specific values), and\\n    ///         return the ID of the recipient.\\n    /// @dev Able to change status all the way up to 'Accepted', or to 'Pending' and if there are more steps, additional\\n    ///      functions should be added to allow the owner to check this. The owner could also check attestations directly\\n    ///      and then accept for instance. The '_data' will be determined by the strategy implementation.\\n    /// @param _data The data to use to register the recipient\\n    /// @param _sender The address of the sender\\n    /// @return The ID of the recipient\\n    function registerRecipient(bytes memory _data, address _sender) external payable returns (address);\\n\\n    /// @notice This will allocate to a recipient.\\n    /// @dev The encoded '_data' will be determined by the strategy implementation.\\n    /// @param _data The data to use to allocate to the recipient\\n    /// @param _sender The address of the sender\\n    function allocate(bytes memory _data, address _sender) external payable;\\n\\n    /// @notice This will distribute funds (tokens) to recipients.\\n    /// @dev most strategies will track a TOTAL amount per recipient, and a PAID amount, and pay the difference\\n    /// this contract will need to track the amount paid already, so that it doesn't double pay.\\n    function distribute(address[] memory _recipientIds, bytes memory _data, address _sender) external;\\n}\\n\\n// Internal Libraries\\n\\n// ⠀⠀⠀⠀⠀⠀⠀⠀⠀⠀⠀⠀⠀⠀⠀⠀⢀⣾⣿⣷⡀⠀⠀⠀⠀⠀⠀⠀⠀⠀⠀⠀⠀⠀⠀⠀⠀⠀⠀⠀⠀⠀⠀⠀⠀⠀⠀⠀⣼⣿⣿⣷⣄⠀⠀⠀⠀⠀⠀⠀⠀⠀⠀⠀⢸⣿⣿⣿⣗⠀⠀⠀⢸⣿⣿⣿⡯⠀⠀⠀⠀⠀⠀⠀⠀⠀⠀⠀⠀⠀⠀⠀⠀⠀⠀⠀⠀⠀⠀⠀\\n// ⠀⠀⠀⠀⠀⠀⠀⠀⠀⠀⠀⠀⠀⠀⠀⢀⣿⣿⣿⣿⣷⡀⠀⠀⠀⠀⠀⠀⠀⠀⠀⠀⠀⠀⠀⠀⠀⠀⠀⠀⠀⠀⠀⠀⠀⠀⠀⣼⣿⣿⣿⣿⣿⡄⠀⠀⠀⠀⠀⠀⠀⠀⠀⠀⢸⣿⣿⣿⣗⠀⠀⠀⢸⣿⣿⣿⡯⠀⠀⠀⠀⠀⠀⠀⠀⠀⠀⠀⠀⠀⠀⠀⠀⠀⠀⠀⠀⠀⠀⠀\\n// ⠀⠀⠀⠀⠀⠀⠀⠀⠀⠀⠀⠀⠀⠀⠀⢸⣿⣿⣿⣿⣿⣿⡄⠀⠀⠀⠀⠀⠀⠀⠀⠀⠀⠀⠀⠀⠀⠀⠀⠀⠀⠀⠀⠀⠀⠀⣸⣿⣿⣿⢿⣿⣿⣿⡀⠀⠀⠀⠀⠀⠀⠀⠀⠀⢸⣿⣿⣿⣗⠀⠀⠀⢸⣿⣿⣿⡯⠀⠀⠀⠀⠀⠀⠀⠀⠀⠀⠀⠀⠀⠀⠀⠀⠀⠀⠀⠀⠀⠀⠀\\n// ⠀⠀⠀⠀⠀⠀⠀⠀⠀⠀⠀⠀⠀⠀⠀⠘⣿⣿⣿⣿⣿⣿⣿⣄⠀⠀⠀⠀⠀⠀⠀⠀⠀⠀⠀⠀⠀⠀⠀⠀⠀⠀⠀⠀⠀⣰⣿⣿⣿⡟⠘⣿⣿⣿⣷⡀⠀⠀⠀⠀⠀⠀⠀⠀⢸⣿⣿⣿⣗⠀⠀⠀⢸⣿⣿⣿⡯⠀⠀⠀⠀⠀⠀⠀⠀⠀⠀⠀⠀⠀⠀⠀⠀⠀⠀⠀⠀⠀⠀⠀\\n// ⠀⠀⠀⠀⠀⠀⠀⠀⣀⣴⣾⣿⣿⣿⣿⣾⠻⣿⣿⣿⣿⣿⣿⣿⡆⠀⠀⠀⠀⠀⠀⠀⠀⠀⠀⠀⠀⠀⠀⠀⠀⠀⠀⠀⢠⣿⣿⣿⡿⠀⠀⠸⣿⣿⣿⣧⠀⠀⠀⠀⠀⠀⠀⠀⢸⣿⣿⣿⣗⠀⠀⠀⢸⣿⣿⣿⡯⠀⠀⠀⠀⠀⠀⢀⣠⣴⣴⣶⣶⣶⣦⣦⣀⡀⠀⠀⠀⠀⠀⠀\\n// ⠀⠀⠀⠀⠀⠀⠀⣴⣿⣿⣿⣿⣿⣿⡿⠃⠀⠙⣿⣿⣿⣿⣿⣿⣿⠀⠀⠀⠀⠀⠀⠀⠀⠀⠀⠀⠀⠀⠀⠀⠀⠀⠀⢠⣿⣿⣿⣿⠁⠀⠀⠀⢻⣿⣿⣿⣧⠀⠀⠀⠀⠀⠀⠀⢸⣿⣿⣿⣗⠀⠀⠀⢸⣿⣿⣿⡯⠀⠀⠀⠀⣠⣾⣿⣿⣿⣿⣿⣿⣿⣿⣿⣿⣿⣶⡀⠀⠀⠀⠀\\n// ⠀⠀⠀⠀⠀⢀⣾⣿⣿⣿⣿⣿⣿⡿⠁⠀⠀⠀⠘⣿⣿⣿⣿⣿⡿⠀⠀⠀⠀⠀⠀⠀⠀⠀⠀⠀⠀⠀⠀⠀⠀⠀⢀⣾⣿⣿⣿⠃⠀⠀⠀⠀⠈⢿⣿⣿⣿⣆⠀⠀⠀⠀⠀⠀⢸⣿⣿⣿⣗⠀⠀⠀⢸⣿⣿⣿⡯⠀⠀⠀⣰⣿⣿⣿⡿⠋⠁⠀⠀⠈⠘⠹⣿⣿⣿⣿⣆⠀⠀⠀\\n// ⠀⠀⠀⠀⢀⣾⣿⣿⣿⣿⣿⣿⡿⠀⠀⠀⠀⠀⠀⠈⢿⣿⣿⣿⠃⠀⠀⠀⠀⠀⠀⠀⠀⠀⠀⠀⠀⠀⠀⠀⠀⠀⣾⣿⣿⣿⠏⠀⠀⠀⠀⠀⠀⠘⣿⣿⣿⣿⡄⠀⠀⠀⠀⠀⢸⣿⣿⣿⣗⠀⠀⠀⢸⣿⣿⣿⡯⠀⠀⢰⣿⣿⣿⣿⠁⠀⠀⠀⠀⠀⠀⠀⠘⣿⣿⣿⣿⡀⠀⠀\\n// ⠀⠀⠀⢠⣿⣿⣿⣿⣿⣿⣿⣟⠀⡀⢀⠀⡀⢀⠀⡀⢈⢿⡟⠁⠀⠀⠀⠀⠀⠀⠀⠀⠀⠀⠀⠀⠀⠀⠀⠀⠀⣼⣿⣿⣿⣿⣿⣿⣿⣿⣿⣿⣿⣿⣿⣿⣿⣿⣿⡄⠀⠀⠀⠀⢸⣿⣿⣿⣗⠀⠀⠀⢸⣿⣿⣿⡯⠀⠀⢸⣿⣿⣿⣗⠀⠀⠀⠀⠀⠀⠀⠀⠀⣿⣿⣿⣿⡇⠀⠀\\n// ⠀⠀⣠⣿⣿⣿⣿⣿⣿⡿⠋⢻⣿⣿⣿⣿⣿⣿⣿⣿⣿⣿⣿⣷⣶⣄⡀⠀⠀⠀⠀⠀⠀⠀⠀⠀⠀⠀⠀⠀⣸⣿⣿⣿⡿⢿⠿⠿⠿⠿⠿⠿⠿⠿⠿⢿⣿⣿⣿⣷⡀⠀⠀⠀⢸⣿⣿⣿⣗⠀⠀⠀⢸⣿⣿⣿⡯⠀⠀⠸⣿⣿⣿⣷⡀⠀⠀⠀⠀⠀⠀⠀⢠⣿⣿⣿⣿⠂⠀⠀\\n// ⠀⠀⠙⠛⠿⠻⠻⠛⠉⠀⠀⠈⢿⣿⣿⣿⣿⣿⣿⣿⣿⣿⣿⣿⣿⣿⣷⣄⠀⠀⠀⠀⠀⠀⠀⠀⠀⠀⠀⣰⣿⣿⣿⣿⠁⠀⠀⠀⠀⠀⠀⠀⠀⠀⠀⠀⢿⣿⣿⣿⣧⠀⠀⠀⢸⣿⣿⣿⣗⠀⠀⠀⢸⣿⣿⣿⡯⠀⠀⠀⢻⣿⣿⣿⣷⣀⢀⠀⠀⠀⡀⣰⣾⣿⣿⣿⠏⠀⠀⠀\\n// ⠀⠀⠀⠀⠀⠀⠀⠀⠀⠀⠀⠀⠈⠛⣿⣿⣿⣿⣿⣿⣿⣿⣿⣿⣿⣿⣿⣿⡄⠀⠀⠀⠀⠀⠀⠀⠀⠀⢰⣿⣿⣿⣿⠃⠀⠀⠀⠀⠀⠀⠀⠀⠀⠀⠀⠀⠘⣿⣿⣿⣿⣧⠀⠀⢸⣿⣿⣿⣗⠀⠀⠀⢸⣿⣿⣿⡯⠀⠀⠀⠀⠹⢿⣿⣿⣿⣿⣾⣾⣷⣿⣿⣿⣿⡿⠋⠀⠀⠀⠀\\n// ⠀⠀⠀⠀⠀⠀⠀⠀⠀⠀⠀⠀⠀⠀⠀⠈⠙⠙⠋⠛⠙⠋⠛⠙⠋⠛⠙⠋⠃⠀⠀⠀⠀⠀⠀⠀⠀⠠⠿⠻⠟⠿⠃⠀⠀⠀⠀⠀⠀⠀⠀⠀⠀⠀⠀⠀⠀⠸⠟⠿⠟⠿⠆⠀⠸⠿⠿⠟⠯⠀⠀⠀⠸⠿⠿⠿⠏⠀⠀⠀⠀⠀⠈⠉⠻⠻⡿⣿⢿⡿⡿⠿⠛⠁⠀⠀⠀⠀⠀⠀\\n//                    allo.gitcoin.co\\n\\n/// @title Allo Interface\\n/// @author @thelostone-mc <aditya@gitcoin.co>, @0xKurt <kurt@gitcoin.co>, @codenamejason <jason@gitcoin.co>, @0xZakk <zakk@gitcoin.co>, @nfrgosselin <nate@gitcoin.co>\\n/// @notice Interface for the Allo contract. It exposes all functions needed to use the Allo protocol.\\ninterface IAllo {\\n    /// ======================\\n    /// ======= Structs ======\\n    /// ======================\\n\\n    /// @notice the Pool struct that all strategy pools are based from\\n    struct Pool {\\n        bytes32 profileId;\\n        IStrategy strategy;\\n        address token;\\n        Metadata metadata;\\n        bytes32 managerRole;\\n        bytes32 adminRole;\\n    }\\n\\n    /// ======================\\n    /// ======= Events =======\\n    /// ======================\\n\\n    /// @notice Event emitted when a new pool is created\\n    /// @param poolId ID of the pool created\\n    /// @param profileId ID of the profile the pool is associated with\\n    /// @param strategy Address of the strategy contract\\n    /// @param token Address of the token pool was funded with when created\\n    /// @param amount Amount pool was funded with when created\\n    /// @param metadata Pool metadata\\n    event PoolCreated(\\n        uint256 indexed poolId,\\n        bytes32 indexed profileId,\\n        IStrategy strategy,\\n        address token,\\n        uint256 amount,\\n        Metadata metadata\\n    );\\n\\n    /// @notice Emitted when a pools metadata is updated\\n    /// @param poolId ID of the pool updated\\n    /// @param metadata Pool metadata that was updated\\n    event PoolMetadataUpdated(uint256 indexed poolId, Metadata metadata);\\n\\n    /// @notice Emitted when a pool is funded\\n    /// @param poolId ID of the pool funded\\n    /// @param amount Amount funded to the pool\\n    /// @param fee Amount of the fee paid to the treasury\\n    event PoolFunded(uint256 indexed poolId, uint256 amount, uint256 fee);\\n\\n    /// @notice Emitted when the base fee is paid\\n    /// @param poolId ID of the pool the base fee was paid for\\n    /// @param amount Amount of the base fee paid\\n    event BaseFeePaid(uint256 indexed poolId, uint256 amount);\\n\\n    /// @notice Emitted when the treasury address is updated\\n    /// @param treasury Address of the new treasury\\n    event TreasuryUpdated(address treasury);\\n\\n    /// @notice Emitted when the percent fee is updated\\n    /// @param percentFee New percentage for the fee\\n    event PercentFeeUpdated(uint256 percentFee);\\n\\n    /// @notice Emitted when the base fee is updated\\n    /// @param baseFee New base fee amount\\n    event BaseFeeUpdated(uint256 baseFee);\\n\\n    /// @notice Emitted when the registry address is updated\\n    /// @param registry Address of the new registry\\n    event RegistryUpdated(address registry);\\n\\n    /// @notice Emitted when a strategy is approved and added to the cloneable strategies\\n    /// @param strategy Address of the strategy approved\\n    event StrategyApproved(address strategy);\\n\\n    /// @notice Emitted when a strategy is removed from the cloneable strategies\\n    /// @param strategy Address of the strategy removed\\n    event StrategyRemoved(address strategy);\\n\\n    /// ====================================\\n    /// ==== External/Public Functions =====\\n    /// ====================================\\n\\n    /// @notice Initialize the Allo contract\\n    /// @param _registry Address of the registry contract\\n    /// @param _treasury Address of the treasury\\n    /// @param _percentFee Percentage for the fee\\n    /// @param _baseFee Base fee amount\\n    function initialize(address _registry, address payable _treasury, uint256 _percentFee, uint256 _baseFee) external;\\n\\n    /// @notice Updates a pools metadata.\\n    /// @dev 'msg.sender' must be a pool admin.\\n    /// @param _poolId The ID of the pool to update\\n    /// @param _metadata The new metadata to set\\n    function updatePoolMetadata(uint256 _poolId, Metadata memory _metadata) external;\\n\\n    /// @notice Update the registry address.\\n    /// @dev 'msg.sender' must be the Allo contract owner.\\n    /// @param _registry The new registry address\\n    function updateRegistry(address _registry) external;\\n\\n    /// @notice Updates the treasury address.\\n    /// @dev 'msg.sender' must be the Allo contract owner.\\n    /// @param _treasury The new treasury address\\n    function updateTreasury(address payable _treasury) external;\\n\\n    /// @notice Updates the percentage for the fee.\\n    /// @dev 'msg.sender' must be the Allo contract owner.\\n    /// @param _percentFee The new percentage for the fee\\n    function updatePercentFee(uint256 _percentFee) external;\\n\\n    /// @notice Updates the base fee.\\n    /// @dev 'msg.sender' must be the Allo contract owner.\\n    /// @param _baseFee The new base fee\\n    function updateBaseFee(uint256 _baseFee) external;\\n\\n    /// @notice Adds a strategy to the cloneable strategies.\\n    /// @dev 'msg.sender' must be the Allo contract owner.\\n    /// @param _strategy The address of the strategy to add\\n    function addToCloneableStrategies(address _strategy) external;\\n\\n    /// @notice Removes a strategy from the cloneable strategies.\\n    /// @dev 'msg.sender' must be the Allo contract owner.\\n    /// @param _strategy The address of the strategy to remove\\n    function removeFromCloneableStrategies(address _strategy) external;\\n\\n    /// @notice Adds a pool manager to the pool.\\n    /// @dev 'msg.sender' must be a pool admin.\\n    /// @param _poolId The ID of the pool to add the manager to\\n    /// @param _manager The address of the manager to add\\n    function addPoolManager(uint256 _poolId, address _manager) external;\\n\\n    /// @notice Removes a pool manager from the pool.\\n    /// @dev 'msg.sender' must be a pool admin.\\n    /// @param _poolId The ID of the pool to remove the manager from\\n    /// @param _manager The address of the manager to remove\\n    function removePoolManager(uint256 _poolId, address _manager) external;\\n\\n    /// @notice Recovers funds from a pool.\\n    /// @dev 'msg.sender' must be a pool admin.\\n    /// @param _token The token to recover\\n    /// @param _recipient The address to send the recovered funds to\\n    function recoverFunds(address _token, address _recipient) external;\\n\\n    /// @notice Registers a recipient and emits {Registered} event if successful and may be handled differently by each strategy.\\n    /// @param _poolId The ID of the pool to register the recipient for\\n    function registerRecipient(uint256 _poolId, bytes memory _data) external payable returns (address);\\n\\n    /// @notice Registers a batch of recipients.\\n    /// @param _poolIds The pool ID's to register the recipients for\\n    /// @param _data The data to pass to the strategy and may be handled differently by each strategy\\n    function batchRegisterRecipient(uint256[] memory _poolIds, bytes[] memory _data)\\n        external\\n        returns (address[] memory);\\n\\n    /// @notice Funds a pool.\\n    /// @dev 'msg.value' must be greater than 0 if the token is the native token\\n    ///       or '_amount' must be greater than 0 if the token is not the native token.\\n    /// @param _poolId The ID of the pool to fund\\n    /// @param _amount The amount to fund the pool with\\n    function fundPool(uint256 _poolId, uint256 _amount) external payable;\\n\\n    /// @notice Allocates funds to a recipient.\\n    /// @dev Each strategy will handle the allocation of funds differently.\\n    /// @param _poolId The ID of the pool to allocate funds from\\n    /// @param _data The data to pass to the strategy and may be handled differently by each strategy.\\n    function allocate(uint256 _poolId, bytes memory _data) external payable;\\n\\n    /// @notice Allocates funds to multiple recipients.\\n    /// @dev Each strategy will handle the allocation of funds differently\\n    function batchAllocate(uint256[] calldata _poolIds, bytes[] memory _datas) external;\\n\\n    /// @notice Distributes funds to recipients and emits {Distributed} event if successful\\n    /// @dev Each strategy will handle the distribution of funds differently\\n    /// @param _poolId The ID of the pool to distribute from\\n    /// @param _recipientIds The recipient ids to distribute to\\n    /// @param _data The data to pass to the strategy and may be handled differently by each strategy\\n    function distribute(uint256 _poolId, address[] memory _recipientIds, bytes memory _data) external;\\n\\n    /// =========================\\n    /// ==== View Functions =====\\n    /// =========================\\n\\n    /// @notice Checks if an address is a pool admin.\\n    /// @param _poolId The ID of the pool to check\\n    /// @param _address The address to check\\n    /// @return 'true' if the '_address' is a pool admin, otherwise 'false'\\n    function isPoolAdmin(uint256 _poolId, address _address) external view returns (bool);\\n\\n    /// @notice Checks if an address is a pool manager.\\n    /// @param _poolId The ID of the pool to check\\n    /// @param _address The address to check\\n    /// @return 'true' if the '_address' is a pool manager, otherwise 'false'\\n    function isPoolManager(uint256 _poolId, address _address) external view returns (bool);\\n\\n    /// @notice Checks if a strategy is cloneable (is in the cloneableStrategies mapping).\\n    /// @param _strategy The address of the strategy to check\\n    /// @return 'true' if the '_strategy' is cloneable, otherwise 'false'\\n    function isCloneableStrategy(address _strategy) external view returns (bool);\\n\\n    /// @notice Returns the address of the strategy for a given 'poolId'\\n    /// @param _poolId The ID of the pool to check\\n    /// @return strategy The address of the strategy for the ID of the pool passed in\\n    function getStrategy(uint256 _poolId) external view returns (address);\\n\\n    /// @notice Returns the current percent fee\\n    /// @return percentFee The current percentage for the fee\\n    function getPercentFee() external view returns (uint256);\\n\\n    /// @notice Returns the current base fee\\n    /// @return baseFee The current base fee\\n    function getBaseFee() external view returns (uint256);\\n\\n    /// @notice Returns the current treasury address\\n    /// @return treasury The current treasury address\\n    function getTreasury() external view returns (address payable);\\n\\n    /// @notice Returns the current registry address\\n    /// @return registry The current registry address\\n    function getRegistry() external view returns (IRegistry);\\n\\n    /// @notice Returns the 'Pool' struct for a given 'poolId'\\n    /// @param _poolId The ID of the pool to check\\n    /// @return pool The 'Pool' struct for the ID of the pool passed in\\n    function getPool(uint256 _poolId) external view returns (Pool memory);\\n\\n    /// @notice Returns the current fee denominator\\n    /// @dev 1e18 represents 100%\\n    /// @return feeDenominator The current fee denominator\\n    function getFeeDenominator() external view returns (uint256);\\n}\\n\\n// Core Contracts\\n\\n// Interfaces\\n\\n// Libraries\\n\\n// External Libraries\\n\\n/// @notice Safe ETH and ERC20 transfer library that gracefully handles missing return values.\\n/// @author Solady (https://github.com/vectorized/solady/blob/main/src/utils/SafeTransferLib.sol)\\n/// @author Modified from Solmate (https://github.com/transmissions11/solmate/blob/main/src/utils/SafeTransferLib.sol)\\n///\\n/// @dev Note:\\n/// - For ETH transfers, please use `forceSafeTransferETH` for gas griefing protection.\\n/// - For ERC20s, this implementation won't check that a token has code,\\n/// responsibility is delegated to the caller.\\nlibrary SafeTransferLib {\\n    /*´:°•.°+.*•´.*:˚.°*.˚•´.°:°•.°•.*•´.*:˚.°*.˚•´.°:°•.°+.*•´.*:*/\\n    /*                       CUSTOM ERRORS                        */\\n    /*.•°:°.´+˚.*°.˚:*.´•*.+°.•°:´*.´•*.•°.•°:°.´:•˚°.*°.˚:*.´+°.•*/\\n\\n    /// @dev The ETH transfer has failed.\\n    error ETHTransferFailed();\\n\\n    /// @dev The ERC20 `transferFrom` has failed.\\n    error TransferFromFailed();\\n\\n    /// @dev The ERC20 `transfer` has failed.\\n    error TransferFailed();\\n\\n    /// @dev The ERC20 `approve` has failed.\\n    error ApproveFailed();\\n\\n    /*´:°•.°+.*•´.*:˚.°*.˚•´.°:°•.°•.*•´.*:˚.°*.˚•´.°:°•.°+.*•´.*:*/\\n    /*                         CONSTANTS                          */\\n    /*.•°:°.´+˚.*°.˚:*.´•*.+°.•°:´*.´•*.•°.•°:°.´:•˚°.*°.˚:*.´+°.•*/\\n\\n    /// @dev Suggested gas stipend for contract receiving ETH\\n    /// that disallows any storage writes.\\n    uint256 internal constant GAS_STIPEND_NO_STORAGE_WRITES = 2300;\\n\\n    /// @dev Suggested gas stipend for contract receiving ETH to perform a few\\n    /// storage reads and writes, but low enough to prevent griefing.\\n    /// Multiply by a small constant (e.g. 2), if needed.\\n    uint256 internal constant GAS_STIPEND_NO_GRIEF = 100000;\\n\\n    /*´:°•.°+.*•´.*:˚.°*.˚•´.°:°•.°•.*•´.*:˚.°*.˚•´.°:°•.°+.*•´.*:*/\\n    /*                       ETH OPERATIONS                       */\\n    /*.•°:°.´+˚.*°.˚:*.´•*.+°.•°:´*.´•*.•°.•°:°.´:•˚°.*°.˚:*.´+°.•*/\\n\\n    /// @dev Sends `amount` (in wei) ETH to `to`.\\n    /// Reverts upon failure.\\n    ///\\n    /// Note: This implementation does NOT protect against gas griefing.\\n    /// Please use `forceSafeTransferETH` for gas griefing protection.\\n    function safeTransferETH(address to, uint256 amount) internal {\\n        /// @solidity memory-safe-assembly\\n        assembly {\\n            // Transfer the ETH and check if it succeeded or not.\\n            if iszero(call(gas(), to, amount, 0x00, 0x00, 0x00, 0x00)) {\\n                // Store the function selector of `ETHTransferFailed()`.\\n                mstore(0x00, 0xb12d13eb)\\n                // Revert with (offset, size).\\n                revert(0x1c, 0x04)\\n            }\\n        }\\n    }\\n\\n    /// @dev Force sends `amount` (in wei) ETH to `to`, with a `gasStipend`.\\n    /// The `gasStipend` can be set to a low enough value to prevent\\n    /// storage writes or gas griefing.\\n    ///\\n    /// If sending via the normal procedure fails, force sends the ETH by\\n    /// creating a temporary contract which uses `SELFDESTRUCT` to force send the ETH.\\n    ///\\n    /// Reverts if the current contract has insufficient balance.\\n    function forceSafeTransferETH(address to, uint256 amount, uint256 gasStipend) internal {\\n        /// @solidity memory-safe-assembly\\n        assembly {\\n            // If insufficient balance, revert.\\n            if lt(selfbalance(), amount) {\\n                // Store the function selector of `ETHTransferFailed()`.\\n                mstore(0x00, 0xb12d13eb)\\n                // Revert with (offset, size).\\n                revert(0x1c, 0x04)\\n            }\\n            // Transfer the ETH and check if it succeeded or not.\\n            if iszero(call(gasStipend, to, amount, 0x00, 0x00, 0x00, 0x00)) {\\n                mstore(0x00, to) // Store the address in scratch space.\\n                mstore8(0x0b, 0x73) // Opcode `PUSH20`.\\n                mstore8(0x20, 0xff) // Opcode `SELFDESTRUCT`.\\n                // We can directly use `SELFDESTRUCT` in the contract creation.\\n                // Compatible with `SENDALL`: https://eips.ethereum.org/EIPS/eip-4758\\n                if iszero(create(amount, 0x0b, 0x16)) {\\n                    // To coerce gas estimation to provide enough gas for the `create` above.\\n                    if iszero(gt(gas(), 1000000)) { revert(0x00, 0x00) }\\n                }\\n            }\\n        }\\n    }\\n\\n    /// @dev Force sends `amount` (in wei) ETH to `to`, with a gas stipend\\n    /// equal to `GAS_STIPEND_NO_GRIEF`. This gas stipend is a reasonable default\\n    /// for 99% of cases and can be overridden with the three-argument version of this\\n    /// function if necessary.\\n    ///\\n    /// If sending via the normal procedure fails, force sends the ETH by\\n    /// creating a temporary contract which uses `SELFDESTRUCT` to force send the ETH.\\n    ///\\n    /// Reverts if the current contract has insufficient balance.\\n    function forceSafeTransferETH(address to, uint256 amount) internal {\\n        // Manually inlined because the compiler doesn't inline functions with branches.\\n        /// @solidity memory-safe-assembly\\n        assembly {\\n            // If insufficient balance, revert.\\n            if lt(selfbalance(), amount) {\\n                // Store the function selector of `ETHTransferFailed()`.\\n                mstore(0x00, 0xb12d13eb)\\n                // Revert with (offset, size).\\n                revert(0x1c, 0x04)\\n            }\\n            // Transfer the ETH and check if it succeeded or not.\\n            if iszero(call(GAS_STIPEND_NO_GRIEF, to, amount, 0x00, 0x00, 0x00, 0x00)) {\\n                mstore(0x00, to) // Store the address in scratch space.\\n                mstore8(0x0b, 0x73) // Opcode `PUSH20`.\\n                mstore8(0x20, 0xff) // Opcode `SELFDESTRUCT`.\\n                // We can directly use `SELFDESTRUCT` in the contract creation.\\n                // Compatible with `SENDALL`: https://eips.ethereum.org/EIPS/eip-4758\\n                if iszero(create(amount, 0x0b, 0x16)) {\\n                    // To coerce gas estimation to provide enough gas for the `create` above.\\n                    if iszero(gt(gas(), 1000000)) { revert(0x00, 0x00) }\\n                }\\n            }\\n        }\\n    }\\n\\n    /// @dev Sends `amount` (in wei) ETH to `to`, with a `gasStipend`.\\n    /// The `gasStipend` can be set to a low enough value to prevent\\n    /// storage writes or gas griefing.\\n    ///\\n    /// Simply use `gasleft()` for `gasStipend` if you don't need a gas stipend.\\n    ///\\n    /// Note: Does NOT revert upon failure.\\n    /// Returns whether the transfer of ETH is successful instead.\\n    function trySafeTransferETH(address to, uint256 amount, uint256 gasStipend)\\n        internal\\n        returns (bool success)\\n    {\\n        /// @solidity memory-safe-assembly\\n        assembly {\\n            // Transfer the ETH and check if it succeeded or not.\\n            success := call(gasStipend, to, amount, 0x00, 0x00, 0x00, 0x00)\\n        }\\n    }\\n\\n    /*´:°•.°+.*•´.*:˚.°*.˚•´.°:°•.°•.*•´.*:˚.°*.˚•´.°:°•.°+.*•´.*:*/\\n    /*                      ERC20 OPERATIONS                      */\\n    /*.•°:°.´+˚.*°.˚:*.´•*.+°.•°:´*.´•*.•°.•°:°.´:•˚°.*°.˚:*.´+°.•*/\\n\\n    /// @dev Sends `amount` of ERC20 `token` from `from` to `to`.\\n    /// Reverts upon failure.\\n    ///\\n    /// The `from` account must have at least `amount` approved for\\n    /// the current contract to manage.\\n    function safeTransferFrom(address token, address from, address to, uint256 amount) internal {\\n        /// @solidity memory-safe-assembly\\n        assembly {\\n            let m := mload(0x40) // Cache the free memory pointer.\\n\\n            mstore(0x60, amount) // Store the `amount` argument.\\n            mstore(0x40, to) // Store the `to` argument.\\n            mstore(0x2c, shl(96, from)) // Store the `from` argument.\\n            // Store the function selector of `transferFrom(address,address,uint256)`.\\n            mstore(0x0c, 0x23b872dd000000000000000000000000)\\n\\n            if iszero(\\n                and( // The arguments of `and` are evaluated from right to left.\\n                    // Set success to whether the call reverted, if not we check it either\\n                    // returned exactly 1 (can't just be non-zero data), or had no return data.\\n                    or(eq(mload(0x00), 1), iszero(returndatasize())),\\n                    call(gas(), token, 0, 0x1c, 0x64, 0x00, 0x20)\\n                )\\n            ) {\\n                // Store the function selector of `TransferFromFailed()`.\\n                mstore(0x00, 0x7939f424)\\n                // Revert with (offset, size).\\n                revert(0x1c, 0x04)\\n            }\\n\\n            mstore(0x60, 0) // Restore the zero slot to zero.\\n            mstore(0x40, m) // Restore the free memory pointer.\\n        }\\n    }\\n\\n    /// @dev Sends all of ERC20 `token` from `from` to `to`.\\n    /// Reverts upon failure.\\n    ///\\n    /// The `from` account must have their entire balance approved for\\n    /// the current contract to manage.\\n    function safeTransferAllFrom(address token, address from, address to)\\n        internal\\n        returns (uint256 amount)\\n    {\\n        /// @solidity memory-safe-assembly\\n        assembly {\\n            let m := mload(0x40) // Cache the free memory pointer.\\n\\n            mstore(0x40, to) // Store the `to` argument.\\n            mstore(0x2c, shl(96, from)) // Store the `from` argument.\\n            // Store the function selector of `balanceOf(address)`.\\n            mstore(0x0c, 0x70a08231000000000000000000000000)\\n            if iszero(\\n                and( // The arguments of `and` are evaluated from right to left.\\n                    gt(returndatasize(), 0x1f), // At least 32 bytes returned.\\n                    staticcall(gas(), token, 0x1c, 0x24, 0x60, 0x20)\\n                )\\n            ) {\\n                // Store the function selector of `TransferFromFailed()`.\\n                mstore(0x00, 0x7939f424)\\n                // Revert with (offset, size).\\n                revert(0x1c, 0x04)\\n            }\\n\\n            // Store the function selector of `transferFrom(address,address,uint256)`.\\n            mstore(0x00, 0x23b872dd)\\n            // The `amount` is already at 0x60. Load it for the function's return value.\\n            amount := mload(0x60)\\n\\n            if iszero(\\n                and( // The arguments of `and` are evaluated from right to left.\\n                    // Set success to whether the call reverted, if not we check it either\\n                    // returned exactly 1 (can't just be non-zero data), or had no return data.\\n                    or(eq(mload(0x00), 1), iszero(returndatasize())),\\n                    call(gas(), token, 0, 0x1c, 0x64, 0x00, 0x20)\\n                )\\n            ) {\\n                // Store the function selector of `TransferFromFailed()`.\\n                mstore(0x00, 0x7939f424)\\n                // Revert with (offset, size).\\n                revert(0x1c, 0x04)\\n            }\\n\\n            mstore(0x60, 0) // Restore the zero slot to zero.\\n            mstore(0x40, m) // Restore the free memory pointer.\\n        }\\n    }\\n\\n    /// @dev Sends `amount` of ERC20 `token` from the current contract to `to`.\\n    /// Reverts upon failure.\\n    function safeTransfer(address token, address to, uint256 amount) internal {\\n        /// @solidity memory-safe-assembly\\n        assembly {\\n            mstore(0x14, to) // Store the `to` argument.\\n            mstore(0x34, amount) // Store the `amount` argument.\\n            // Store the function selector of `transfer(address,uint256)`.\\n            mstore(0x00, 0xa9059cbb000000000000000000000000)\\n\\n            if iszero(\\n                and( // The arguments of `and` are evaluated from right to left.\\n                    // Set success to whether the call reverted, if not we check it either\\n                    // returned exactly 1 (can't just be non-zero data), or had no return data.\\n                    or(eq(mload(0x00), 1), iszero(returndatasize())),\\n                    call(gas(), token, 0, 0x10, 0x44, 0x00, 0x20)\\n                )\\n            ) {\\n                // Store the function selector of `TransferFailed()`.\\n                mstore(0x00, 0x90b8ec18)\\n                // Revert with (offset, size).\\n                revert(0x1c, 0x04)\\n            }\\n            // Restore the part of the free memory pointer that was overwritten.\\n            mstore(0x34, 0)\\n        }\\n    }\\n\\n    /// @dev Sends all of ERC20 `token` from the current contract to `to`.\\n    /// Reverts upon failure.\\n    function safeTransferAll(address token, address to) internal returns (uint256 amount) {\\n        /// @solidity memory-safe-assembly\\n        assembly {\\n            mstore(0x00, 0x70a08231) // Store the function selector of `balanceOf(address)`.\\n            mstore(0x20, address()) // Store the address of the current contract.\\n            if iszero(\\n                and( // The arguments of `and` are evaluated from right to left.\\n                    gt(returndatasize(), 0x1f), // At least 32 bytes returned.\\n                    staticcall(gas(), token, 0x1c, 0x24, 0x34, 0x20)\\n                )\\n            ) {\\n                // Store the function selector of `TransferFailed()`.\\n                mstore(0x00, 0x90b8ec18)\\n                // Revert with (offset, size).\\n                revert(0x1c, 0x04)\\n            }\\n\\n            mstore(0x14, to) // Store the `to` argument.\\n            // The `amount` is already at 0x34. Load it for the function's return value.\\n            amount := mload(0x34)\\n            // Store the function selector of `transfer(address,uint256)`.\\n            mstore(0x00, 0xa9059cbb000000000000000000000000)\\n\\n            if iszero(\\n                and( // The arguments of `and` are evaluated from right to left.\\n                    // Set success to whether the call reverted, if not we check it either\\n                    // returned exactly 1 (can't just be non-zero data), or had no return data.\\n                    or(eq(mload(0x00), 1), iszero(returndatasize())),\\n                    call(gas(), token, 0, 0x10, 0x44, 0x00, 0x20)\\n                )\\n            ) {\\n                // Store the function selector of `TransferFailed()`.\\n                mstore(0x00, 0x90b8ec18)\\n                // Revert with (offset, size).\\n                revert(0x1c, 0x04)\\n            }\\n            // Restore the part of the free memory pointer that was overwritten.\\n            mstore(0x34, 0)\\n        }\\n    }\\n\\n    /// @dev Sets `amount` of ERC20 `token` for `to` to manage on behalf of the current contract.\\n    /// Reverts upon failure.\\n    function safeApprove(address token, address to, uint256 amount) internal {\\n        /// @solidity memory-safe-assembly\\n        assembly {\\n            mstore(0x14, to) // Store the `to` argument.\\n            mstore(0x34, amount) // Store the `amount` argument.\\n            // Store the function selector of `approve(address,uint256)`.\\n            mstore(0x00, 0x095ea7b3000000000000000000000000)\\n\\n            if iszero(\\n                and( // The arguments of `and` are evaluated from right to left.\\n                    // Set success to whether the call reverted, if not we check it either\\n                    // returned exactly 1 (can't just be non-zero data), or had no return data.\\n                    or(eq(mload(0x00), 1), iszero(returndatasize())),\\n                    call(gas(), token, 0, 0x10, 0x44, 0x00, 0x20)\\n                )\\n            ) {\\n                // Store the function selector of `ApproveFailed()`.\\n                mstore(0x00, 0x3e3f8f73)\\n                // Revert with (offset, size).\\n                revert(0x1c, 0x04)\\n            }\\n            // Restore the part of the free memory pointer that was overwritten.\\n            mstore(0x34, 0)\\n        }\\n    }\\n\\n    /// @dev Sets `amount` of ERC20 `token` for `to` to manage on behalf of the current contract.\\n    /// If the initial attempt to approve fails, attempts to reset the approved amount to zero,\\n    /// then retries the approval again (some tokens, e.g. USDT, requires this).\\n    /// Reverts upon failure.\\n    function safeApproveWithRetry(address token, address to, uint256 amount) internal {\\n        /// @solidity memory-safe-assembly\\n        assembly {\\n            mstore(0x14, to) // Store the `to` argument.\\n            mstore(0x34, amount) // Store the `amount` argument.\\n            // Store the function selector of `approve(address,uint256)`.\\n            mstore(0x00, 0x095ea7b3000000000000000000000000)\\n\\n            if iszero(\\n                and( // The arguments of `and` are evaluated from right to left.\\n                    // Set success to whether the call reverted, if not we check it either\\n                    // returned exactly 1 (can't just be non-zero data), or had no return data.\\n                    or(eq(mload(0x00), 1), iszero(returndatasize())),\\n                    call(gas(), token, 0, 0x10, 0x44, 0x00, 0x20)\\n                )\\n            ) {\\n                mstore(0x34, 0) // Store 0 for the `amount`.\\n                mstore(0x00, 0x095ea7b3000000000000000000000000) // Store the function selector.\\n                // We can ignore the result of this call. Just need to check the next call.\\n                pop(call(gas(), token, 0, 0x10, 0x44, 0x00, 0x00))\\n                mstore(0x34, amount) // Store back the original `amount`.\\n\\n                if iszero(\\n                    and(\\n                        or(eq(mload(0x00), 1), iszero(returndatasize())),\\n                        call(gas(), token, 0, 0x10, 0x44, 0x00, 0x20)\\n                    )\\n                ) {\\n                    // Store the function selector of `ApproveFailed()`.\\n                    mstore(0x00, 0x3e3f8f73)\\n                    // Revert with (offset, size).\\n                    revert(0x1c, 0x04)\\n                }\\n            }\\n            // Restore the part of the free memory pointer that was overwritten.\\n            mstore(0x34, 0)\\n        }\\n    }\\n\\n    /// @dev Returns the amount of ERC20 `token` owned by `account`.\\n    /// Returns zero if the `token` does not exist.\\n    function balanceOf(address token, address account) internal view returns (uint256 amount) {\\n        /// @solidity memory-safe-assembly\\n        assembly {\\n            mstore(0x14, account) // Store the `account` argument.\\n            // Store the function selector of `balanceOf(address)`.\\n            mstore(0x00, 0x70a08231000000000000000000000000)\\n            amount :=\\n                mul(\\n                    mload(0x20),\\n                    and( // The arguments of `and` are evaluated from right to left.\\n                        gt(returndatasize(), 0x1f), // At least 32 bytes returned.\\n                        staticcall(gas(), token, 0x10, 0x24, 0x20, 0x20)\\n                    )\\n                )\\n        }\\n    }\\n}\\n\\n// Internal Libraries\\n\\n// ⠀⠀⠀⠀⠀⠀⠀⠀⠀⠀⠀⠀⠀⠀⠀⠀⢀⣾⣿⣷⡀⠀⠀⠀⠀⠀⠀⠀⠀⠀⠀⠀⠀⠀⠀⠀⠀⠀⠀⠀⠀⠀⠀⠀⠀⠀⠀⠀⣼⣿⣿⣷⣄⠀⠀⠀⠀⠀⠀⠀⠀⠀⠀⠀⢸⣿⣿⣿⣗⠀⠀⠀⢸⣿⣿⣿⡯⠀⠀⠀⠀⠀⠀⠀⠀⠀⠀⠀⠀⠀⠀⠀⠀⠀⠀⠀⠀⠀⠀⠀\\n// ⠀⠀⠀⠀⠀⠀⠀⠀⠀⠀⠀⠀⠀⠀⠀⢀⣿⣿⣿⣿⣷⡀⠀⠀⠀⠀⠀⠀⠀⠀⠀⠀⠀⠀⠀⠀⠀⠀⠀⠀⠀⠀⠀⠀⠀⠀⠀⣼⣿⣿⣿⣿⣿⡄⠀⠀⠀⠀⠀⠀⠀⠀⠀⠀⢸⣿⣿⣿⣗⠀⠀⠀⢸⣿⣿⣿⡯⠀⠀⠀⠀⠀⠀⠀⠀⠀⠀⠀⠀⠀⠀⠀⠀⠀⠀⠀⠀⠀⠀⠀\\n// ⠀⠀⠀⠀⠀⠀⠀⠀⠀⠀⠀⠀⠀⠀⠀⢸⣿⣿⣿⣿⣿⣿⡄⠀⠀⠀⠀⠀⠀⠀⠀⠀⠀⠀⠀⠀⠀⠀⠀⠀⠀⠀⠀⠀⠀⠀⣸⣿⣿⣿⢿⣿⣿⣿⡀⠀⠀⠀⠀⠀⠀⠀⠀⠀⢸⣿⣿⣿⣗⠀⠀⠀⢸⣿⣿⣿⡯⠀⠀⠀⠀⠀⠀⠀⠀⠀⠀⠀⠀⠀⠀⠀⠀⠀⠀⠀⠀⠀⠀⠀\\n// ⠀⠀⠀⠀⠀⠀⠀⠀⠀⠀⠀⠀⠀⠀⠀⠘⣿⣿⣿⣿⣿⣿⣿⣄⠀⠀⠀⠀⠀⠀⠀⠀⠀⠀⠀⠀⠀⠀⠀⠀⠀⠀⠀⠀⠀⣰⣿⣿⣿⡟⠘⣿⣿⣿⣷⡀⠀⠀⠀⠀⠀⠀⠀⠀⢸⣿⣿⣿⣗⠀⠀⠀⢸⣿⣿⣿⡯⠀⠀⠀⠀⠀⠀⠀⠀⠀⠀⠀⠀⠀⠀⠀⠀⠀⠀⠀⠀⠀⠀⠀\\n// ⠀⠀⠀⠀⠀⠀⠀⠀⣀⣴⣾⣿⣿⣿⣿⣾⠻⣿⣿⣿⣿⣿⣿⣿⡆⠀⠀⠀⠀⠀⠀⠀⠀⠀⠀⠀⠀⠀⠀⠀⠀⠀⠀⠀⢠⣿⣿⣿⡿⠀⠀⠸⣿⣿⣿⣧⠀⠀⠀⠀⠀⠀⠀⠀⢸⣿⣿⣿⣗⠀⠀⠀⢸⣿⣿⣿⡯⠀⠀⠀⠀⠀⠀⢀⣠⣴⣴⣶⣶⣶⣦⣦⣀⡀⠀⠀⠀⠀⠀⠀\\n// ⠀⠀⠀⠀⠀⠀⠀⣴⣿⣿⣿⣿⣿⣿⡿⠃⠀⠙⣿⣿⣿⣿⣿⣿⣿⠀⠀⠀⠀⠀⠀⠀⠀⠀⠀⠀⠀⠀⠀⠀⠀⠀⠀⢠⣿⣿⣿⣿⠁⠀⠀⠀⢻⣿⣿⣿⣧⠀⠀⠀⠀⠀⠀⠀⢸⣿⣿⣿⣗⠀⠀⠀⢸⣿⣿⣿⡯⠀⠀⠀⠀⣠⣾⣿⣿⣿⣿⣿⣿⣿⣿⣿⣿⣿⣶⡀⠀⠀⠀⠀\\n// ⠀⠀⠀⠀⠀⢀⣾⣿⣿⣿⣿⣿⣿⡿⠁⠀⠀⠀⠘⣿⣿⣿⣿⣿⡿⠀⠀⠀⠀⠀⠀⠀⠀⠀⠀⠀⠀⠀⠀⠀⠀⠀⢀⣾⣿⣿⣿⠃⠀⠀⠀⠀⠈⢿⣿⣿⣿⣆⠀⠀⠀⠀⠀⠀⢸⣿⣿⣿⣗⠀⠀⠀⢸⣿⣿⣿⡯⠀⠀⠀⣰⣿⣿⣿⡿⠋⠁⠀⠀⠈⠘⠹⣿⣿⣿⣿⣆⠀⠀⠀\\n// ⠀⠀⠀⠀⢀⣾⣿⣿⣿⣿⣿⣿⡿⠀⠀⠀⠀⠀⠀⠈⢿⣿⣿⣿⠃⠀⠀⠀⠀⠀⠀⠀⠀⠀⠀⠀⠀⠀⠀⠀⠀⠀⣾⣿⣿⣿⠏⠀⠀⠀⠀⠀⠀⠘⣿⣿⣿⣿⡄⠀⠀⠀⠀⠀⢸⣿⣿⣿⣗⠀⠀⠀⢸⣿⣿⣿⡯⠀⠀⢰⣿⣿⣿⣿⠁⠀⠀⠀⠀⠀⠀⠀⠘⣿⣿⣿⣿⡀⠀⠀\\n// ⠀⠀⠀⢠⣿⣿⣿⣿⣿⣿⣿⣟⠀⡀⢀⠀⡀⢀⠀⡀⢈⢿⡟⠁⠀⠀⠀⠀⠀⠀⠀⠀⠀⠀⠀⠀⠀⠀⠀⠀⠀⣼⣿⣿⣿⣿⣿⣿⣿⣿⣿⣿⣿⣿⣿⣿⣿⣿⣿⡄⠀⠀⠀⠀⢸⣿⣿⣿⣗⠀⠀⠀⢸⣿⣿⣿⡯⠀⠀⢸⣿⣿⣿⣗⠀⠀⠀⠀⠀⠀⠀⠀⠀⣿⣿⣿⣿⡇⠀⠀\\n// ⠀⠀⣠⣿⣿⣿⣿⣿⣿⡿⠋⢻⣿⣿⣿⣿⣿⣿⣿⣿⣿⣿⣿⣷⣶⣄⡀⠀⠀⠀⠀⠀⠀⠀⠀⠀⠀⠀⠀⠀⣸⣿⣿⣿⡿⢿⠿⠿⠿⠿⠿⠿⠿⠿⠿⢿⣿⣿⣿⣷⡀⠀⠀⠀⢸⣿⣿⣿⣗⠀⠀⠀⢸⣿⣿⣿⡯⠀⠀⠸⣿⣿⣿⣷⡀⠀⠀⠀⠀⠀⠀⠀⢠⣿⣿⣿⣿⠂⠀⠀\\n// ⠀⠀⠙⠛⠿⠻⠻⠛⠉⠀⠀⠈⢿⣿⣿⣿⣿⣿⣿⣿⣿⣿⣿⣿⣿⣿⣷⣄⠀⠀⠀⠀⠀⠀⠀⠀⠀⠀⠀⣰⣿⣿⣿⣿⠁⠀⠀⠀⠀⠀⠀⠀⠀⠀⠀⠀⢿⣿⣿⣿⣧⠀⠀⠀⢸⣿⣿⣿⣗⠀⠀⠀⢸⣿⣿⣿⡯⠀⠀⠀⢻⣿⣿⣿⣷⣀⢀⠀⠀⠀⡀⣰⣾⣿⣿⣿⠏⠀⠀⠀\\n// ⠀⠀⠀⠀⠀⠀⠀⠀⠀⠀⠀⠀⠈⠛⣿⣿⣿⣿⣿⣿⣿⣿⣿⣿⣿⣿⣿⣿⡄⠀⠀⠀⠀⠀⠀⠀⠀⠀⢰⣿⣿⣿⣿⠃⠀⠀⠀⠀⠀⠀⠀⠀⠀⠀⠀⠀⠘⣿⣿⣿⣿⣧⠀⠀⢸⣿⣿⣿⣗⠀⠀⠀⢸⣿⣿⣿⡯⠀⠀⠀⠀⠹⢿⣿⣿⣿⣿⣾⣾⣷⣿⣿⣿⣿⡿⠋⠀⠀⠀⠀\\n// ⠀⠀⠀⠀⠀⠀⠀⠀⠀⠀⠀⠀⠀⠀⠀⠈⠙⠙⠋⠛⠙⠋⠛⠙⠋⠛⠙⠋⠃⠀⠀⠀⠀⠀⠀⠀⠀⠠⠿⠻⠟⠿⠃⠀⠀⠀⠀⠀⠀⠀⠀⠀⠀⠀⠀⠀⠀⠸⠟⠿⠟⠿⠆⠀⠸⠿⠿⠟⠯⠀⠀⠀⠸⠿⠿⠿⠏⠀⠀⠀⠀⠀⠈⠉⠻⠻⡿⣿⢿⡿⡿⠿⠛⠁⠀⠀⠀⠀⠀⠀\\n//                    allo.gitcoin.co\\n\\n/// @title Native token information\\n/// @author @thelostone-mc <aditya@gitcoin.co>, @0xKurt <kurt@gitcoin.co>, @codenamejason <jason@gitcoin.co>, @0xZakk <zakk@gitcoin.co>, @nfrgosselin <nate@gitcoin.co>\\n/// @notice This is used to define the address of the native token for the protocol\\ncontract Native {\\n    /// @notice Address of the native token\\n    address public constant NATIVE = 0xEeeeeEeeeEeEeeEeEeEeeEEEeeeeEeeeeeeeEEeE;\\n}\\n\\n// ⠀⠀⠀⠀⠀⠀⠀⠀⠀⠀⠀⠀⠀⠀⠀⠀⢀⣾⣿⣷⡀⠀⠀⠀⠀⠀⠀⠀⠀⠀⠀⠀⠀⠀⠀⠀⠀⠀⠀⠀⠀⠀⠀⠀⠀⠀⠀⠀⣼⣿⣿⣷⣄⠀⠀⠀⠀⠀⠀⠀⠀⠀⠀⠀⢸⣿⣿⣿⣗⠀⠀⠀⢸⣿⣿⣿⡯⠀⠀⠀⠀⠀⠀⠀⠀⠀⠀⠀⠀⠀⠀⠀⠀⠀⠀⠀⠀⠀⠀⠀\\n// ⠀⠀⠀⠀⠀⠀⠀⠀⠀⠀⠀⠀⠀⠀⠀⢀⣿⣿⣿⣿⣷⡀⠀⠀⠀⠀⠀⠀⠀⠀⠀⠀⠀⠀⠀⠀⠀⠀⠀⠀⠀⠀⠀⠀⠀⠀⠀⣼⣿⣿⣿⣿⣿⡄⠀⠀⠀⠀⠀⠀⠀⠀⠀⠀⢸⣿⣿⣿⣗⠀⠀⠀⢸⣿⣿⣿⡯⠀⠀⠀⠀⠀⠀⠀⠀⠀⠀⠀⠀⠀⠀⠀⠀⠀⠀⠀⠀⠀⠀⠀\\n// ⠀⠀⠀⠀⠀⠀⠀⠀⠀⠀⠀⠀⠀⠀⠀⢸⣿⣿⣿⣿⣿⣿⡄⠀⠀⠀⠀⠀⠀⠀⠀⠀⠀⠀⠀⠀⠀⠀⠀⠀⠀⠀⠀⠀⠀⠀⣸⣿⣿⣿⢿⣿⣿⣿⡀⠀⠀⠀⠀⠀⠀⠀⠀⠀⢸⣿⣿⣿⣗⠀⠀⠀⢸⣿⣿⣿⡯⠀⠀⠀⠀⠀⠀⠀⠀⠀⠀⠀⠀⠀⠀⠀⠀⠀⠀⠀⠀⠀⠀⠀\\n// ⠀⠀⠀⠀⠀⠀⠀⠀⠀⠀⠀⠀⠀⠀⠀⠘⣿⣿⣿⣿⣿⣿⣿⣄⠀⠀⠀⠀⠀⠀⠀⠀⠀⠀⠀⠀⠀⠀⠀⠀⠀⠀⠀⠀⠀⣰⣿⣿⣿⡟⠘⣿⣿⣿⣷⡀⠀⠀⠀⠀⠀⠀⠀⠀⢸⣿⣿⣿⣗⠀⠀⠀⢸⣿⣿⣿⡯⠀⠀⠀⠀⠀⠀⠀⠀⠀⠀⠀⠀⠀⠀⠀⠀⠀⠀⠀⠀⠀⠀⠀\\n// ⠀⠀⠀⠀⠀⠀⠀⠀⣀⣴⣾⣿⣿⣿⣿⣾⠻⣿⣿⣿⣿⣿⣿⣿⡆⠀⠀⠀⠀⠀⠀⠀⠀⠀⠀⠀⠀⠀⠀⠀⠀⠀⠀⠀⢠⣿⣿⣿⡿⠀⠀⠸⣿⣿⣿⣧⠀⠀⠀⠀⠀⠀⠀⠀⢸⣿⣿⣿⣗⠀⠀⠀⢸⣿⣿⣿⡯⠀⠀⠀⠀⠀⠀⢀⣠⣴⣴⣶⣶⣶⣦⣦⣀⡀⠀⠀⠀⠀⠀⠀\\n// ⠀⠀⠀⠀⠀⠀⠀⣴⣿⣿⣿⣿⣿⣿⡿⠃⠀⠙⣿⣿⣿⣿⣿⣿⣿⠀⠀⠀⠀⠀⠀⠀⠀⠀⠀⠀⠀⠀⠀⠀⠀⠀⠀⢠⣿⣿⣿⣿⠁⠀⠀⠀⢻⣿⣿⣿⣧⠀⠀⠀⠀⠀⠀⠀⢸⣿⣿⣿⣗⠀⠀⠀⢸⣿⣿⣿⡯⠀⠀⠀⠀⣠⣾⣿⣿⣿⣿⣿⣿⣿⣿⣿⣿⣿⣶⡀⠀⠀⠀⠀\\n// ⠀⠀⠀⠀⠀⢀⣾⣿⣿⣿⣿⣿⣿⡿⠁⠀⠀⠀⠘⣿⣿⣿⣿⣿⡿⠀⠀⠀⠀⠀⠀⠀⠀⠀⠀⠀⠀⠀⠀⠀⠀⠀⢀⣾⣿⣿⣿⠃⠀⠀⠀⠀⠈⢿⣿⣿⣿⣆⠀⠀⠀⠀⠀⠀⢸⣿⣿⣿⣗⠀⠀⠀⢸⣿⣿⣿⡯⠀⠀⠀⣰⣿⣿⣿⡿⠋⠁⠀⠀⠈⠘⠹⣿⣿⣿⣿⣆⠀⠀⠀\\n// ⠀⠀⠀⠀⢀⣾⣿⣿⣿⣿⣿⣿⡿⠀⠀⠀⠀⠀⠀⠈⢿⣿⣿⣿⠃⠀⠀⠀⠀⠀⠀⠀⠀⠀⠀⠀⠀⠀⠀⠀⠀⠀⣾⣿⣿⣿⠏⠀⠀⠀⠀⠀⠀⠘⣿⣿⣿⣿⡄⠀⠀⠀⠀⠀⢸⣿⣿⣿⣗⠀⠀⠀⢸⣿⣿⣿⡯⠀⠀⢰⣿⣿⣿⣿⠁⠀⠀⠀⠀⠀⠀⠀⠘⣿⣿⣿⣿⡀⠀⠀\\n// ⠀⠀⠀⢠⣿⣿⣿⣿⣿⣿⣿⣟⠀⡀⢀⠀⡀⢀⠀⡀⢈⢿⡟⠁⠀⠀⠀⠀⠀⠀⠀⠀⠀⠀⠀⠀⠀⠀⠀⠀⠀⣼⣿⣿⣿⣿⣿⣿⣿⣿⣿⣿⣿⣿⣿⣿⣿⣿⣿⡄⠀⠀⠀⠀⢸⣿⣿⣿⣗⠀⠀⠀⢸⣿⣿⣿⡯⠀⠀⢸⣿⣿⣿⣗⠀⠀⠀⠀⠀⠀⠀⠀⠀⣿⣿⣿⣿⡇⠀⠀\\n// ⠀⠀⣠⣿⣿⣿⣿⣿⣿⡿⠋⢻⣿⣿⣿⣿⣿⣿⣿⣿⣿⣿⣿⣷⣶⣄⡀⠀⠀⠀⠀⠀⠀⠀⠀⠀⠀⠀⠀⠀⣸⣿⣿⣿⡿⢿⠿⠿⠿⠿⠿⠿⠿⠿⠿⢿⣿⣿⣿⣷⡀⠀⠀⠀⢸⣿⣿⣿⣗⠀⠀⠀⢸⣿⣿⣿⡯⠀⠀⠸⣿⣿⣿⣷⡀⠀⠀⠀⠀⠀⠀⠀⢠⣿⣿⣿⣿⠂⠀⠀\\n// ⠀⠀⠙⠛⠿⠻⠻⠛⠉⠀⠀⠈⢿⣿⣿⣿⣿⣿⣿⣿⣿⣿⣿⣿⣿⣿⣷⣄⠀⠀⠀⠀⠀⠀⠀⠀⠀⠀⠀⣰⣿⣿⣿⣿⠁⠀⠀⠀⠀⠀⠀⠀⠀⠀⠀⠀⢿⣿⣿⣿⣧⠀⠀⠀⢸⣿⣿⣿⣗⠀⠀⠀⢸⣿⣿⣿⡯⠀⠀⠀⢻⣿⣿⣿⣷⣀⢀⠀⠀⠀⡀⣰⣾⣿⣿⣿⠏⠀⠀⠀\\n// ⠀⠀⠀⠀⠀⠀⠀⠀⠀⠀⠀⠀⠈⠛⣿⣿⣿⣿⣿⣿⣿⣿⣿⣿⣿⣿⣿⣿⡄⠀⠀⠀⠀⠀⠀⠀⠀⠀⢰⣿⣿⣿⣿⠃⠀⠀⠀⠀⠀⠀⠀⠀⠀⠀⠀⠀⠘⣿⣿⣿⣿⣧⠀⠀⢸⣿⣿⣿⣗⠀⠀⠀⢸⣿⣿⣿⡯⠀⠀⠀⠀⠹⢿⣿⣿⣿⣿⣾⣾⣷⣿⣿⣿⣿⡿⠋⠀⠀⠀⠀\\n// ⠀⠀⠀⠀⠀⠀⠀⠀⠀⠀⠀⠀⠀⠀⠀⠈⠙⠙⠋⠛⠙⠋⠛⠙⠋⠛⠙⠋⠃⠀⠀⠀⠀⠀⠀⠀⠀⠠⠿⠻⠟⠿⠃⠀⠀⠀⠀⠀⠀⠀⠀⠀⠀⠀⠀⠀⠀⠸⠟⠿⠟⠿⠆⠀⠸⠿⠿⠟⠯⠀⠀⠀⠸⠿⠿⠿⠏⠀⠀⠀⠀⠀⠈⠉⠻⠻⡿⣿⢿⡿⡿⠿⠛⠁⠀⠀⠀⠀⠀⠀\\n//                    allo.gitcoin.co\\n\\n/// @title Transfer contract\\n/// @author @thelostone-mc <aditya@gitcoin.co>, @0xKurt <kurt@gitcoin.co>, @codenamejason <jason@gitcoin.co>, @0xZakk <zakk@gitcoin.co>, @nfrgosselin <nate@gitcoin.co>\\n/// @notice A helper contract to transfer tokens within Allo protocol\\n/// @dev Handles the transfer of tokens to an address\\ncontract Transfer is Native {\\n    /// @notice Thrown when the amount of tokens sent does not match the amount of tokens expected\\n    error AMOUNT_MISMATCH();\\n\\n    /// @notice This holds the details for a transfer\\n    struct TransferData {\\n        address from;\\n        address to;\\n        uint256 amount;\\n    }\\n\\n    /// @notice Transfer an amount of a token to an array of addresses\\n    /// @param _token The address of the token\\n    /// @param _transferData TransferData[]\\n    /// @return Whether the transfer was successful or not\\n    function _transferAmountsFrom(address _token, TransferData[] memory _transferData) internal returns (bool) {\\n        uint256 msgValue = msg.value;\\n\\n        for (uint256 i; i < _transferData.length;) {\\n            TransferData memory transferData = _transferData[i];\\n\\n            if (_token == NATIVE) {\\n                msgValue -= transferData.amount;\\n                SafeTransferLib.safeTransferETH(transferData.to, transferData.amount);\\n            } else {\\n                SafeTransferLib.safeTransferFrom(_token, transferData.from, transferData.to, transferData.amount);\\n            }\\n\\n            unchecked {\\n                i++;\\n            }\\n        }\\n\\n        if (msgValue != 0) revert AMOUNT_MISMATCH();\\n\\n        return true;\\n    }\\n\\n    /// @notice Transfer an amount of a token to an address\\n    /// @param _token The address of the token\\n    /// @param _transferData Individual TransferData\\n    /// @return Whether the transfer was successful or not\\n    function _transferAmountFrom(address _token, TransferData memory _transferData) internal returns (bool) {\\n        uint256 amount = _transferData.amount;\\n        if (_token == NATIVE) {\\n            // Native Token\\n            if (msg.value < amount) revert AMOUNT_MISMATCH();\\n\\n            SafeTransferLib.safeTransferETH(_transferData.to, amount);\\n        } else {\\n            SafeTransferLib.safeTransferFrom(_token, _transferData.from, _transferData.to, amount);\\n        }\\n        return true;\\n    }\\n\\n    /// @notice Transfer an amount of a token to an address\\n    /// @param _token The token to transfer\\n    /// @param _to The address to transfer to\\n    /// @param _amount The amount to transfer\\n    function _transferAmount(address _token, address _to, uint256 _amount) internal {\\n        if (_token == NATIVE) {\\n            SafeTransferLib.safeTransferETH(_to, _amount);\\n        } else {\\n            SafeTransferLib.safeTransfer(_token, _to, _amount);\\n        }\\n    }\\n}\\n\\n// ⠀⠀⠀⠀⠀⠀⠀⠀⠀⠀⠀⠀⠀⠀⠀⠀⢀⣾⣿⣷⡀⠀⠀⠀⠀⠀⠀⠀⠀⠀⠀⠀⠀⠀⠀⠀⠀⠀⠀⠀⠀⠀⠀⠀⠀⠀⠀⠀⣼⣿⣿⣷⣄⠀⠀⠀⠀⠀⠀⠀⠀⠀⠀⠀⢸⣿⣿⣿⣗⠀⠀⠀⢸⣿⣿⣿⡯⠀⠀⠀⠀⠀⠀⠀⠀⠀⠀⠀⠀⠀⠀⠀⠀⠀⠀⠀⠀⠀⠀⠀\\n// ⠀⠀⠀⠀⠀⠀⠀⠀⠀⠀⠀⠀⠀⠀⠀⢀⣿⣿⣿⣿⣷⡀⠀⠀⠀⠀⠀⠀⠀⠀⠀⠀⠀⠀⠀⠀⠀⠀⠀⠀⠀⠀⠀⠀⠀⠀⠀⣼⣿⣿⣿⣿⣿⡄⠀⠀⠀⠀⠀⠀⠀⠀⠀⠀⢸⣿⣿⣿⣗⠀⠀⠀⢸⣿⣿⣿⡯⠀⠀⠀⠀⠀⠀⠀⠀⠀⠀⠀⠀⠀⠀⠀⠀⠀⠀⠀⠀⠀⠀⠀\\n// ⠀⠀⠀⠀⠀⠀⠀⠀⠀⠀⠀⠀⠀⠀⠀⢸⣿⣿⣿⣿⣿⣿⡄⠀⠀⠀⠀⠀⠀⠀⠀⠀⠀⠀⠀⠀⠀⠀⠀⠀⠀⠀⠀⠀⠀⠀⣸⣿⣿⣿⢿⣿⣿⣿⡀⠀⠀⠀⠀⠀⠀⠀⠀⠀⢸⣿⣿⣿⣗⠀⠀⠀⢸⣿⣿⣿⡯⠀⠀⠀⠀⠀⠀⠀⠀⠀⠀⠀⠀⠀⠀⠀⠀⠀⠀⠀⠀⠀⠀⠀\\n// ⠀⠀⠀⠀⠀⠀⠀⠀⠀⠀⠀⠀⠀⠀⠀⠘⣿⣿⣿⣿⣿⣿⣿⣄⠀⠀⠀⠀⠀⠀⠀⠀⠀⠀⠀⠀⠀⠀⠀⠀⠀⠀⠀⠀⠀⣰⣿⣿⣿⡟⠘⣿⣿⣿⣷⡀⠀⠀⠀⠀⠀⠀⠀⠀⢸⣿⣿⣿⣗⠀⠀⠀⢸⣿⣿⣿⡯⠀⠀⠀⠀⠀⠀⠀⠀⠀⠀⠀⠀⠀⠀⠀⠀⠀⠀⠀⠀⠀⠀⠀\\n// ⠀⠀⠀⠀⠀⠀⠀⠀⣀⣴⣾⣿⣿⣿⣿⣾⠻⣿⣿⣿⣿⣿⣿⣿⡆⠀⠀⠀⠀⠀⠀⠀⠀⠀⠀⠀⠀⠀⠀⠀⠀⠀⠀⠀⢠⣿⣿⣿⡿⠀⠀⠸⣿⣿⣿⣧⠀⠀⠀⠀⠀⠀⠀⠀⢸⣿⣿⣿⣗⠀⠀⠀⢸⣿⣿⣿⡯⠀⠀⠀⠀⠀⠀⢀⣠⣴⣴⣶⣶⣶⣦⣦⣀⡀⠀⠀⠀⠀⠀⠀\\n// ⠀⠀⠀⠀⠀⠀⠀⣴⣿⣿⣿⣿⣿⣿⡿⠃⠀⠙⣿⣿⣿⣿⣿⣿⣿⠀⠀⠀⠀⠀⠀⠀⠀⠀⠀⠀⠀⠀⠀⠀⠀⠀⠀⢠⣿⣿⣿⣿⠁⠀⠀⠀⢻⣿⣿⣿⣧⠀⠀⠀⠀⠀⠀⠀⢸⣿⣿⣿⣗⠀⠀⠀⢸⣿⣿⣿⡯⠀⠀⠀⠀⣠⣾⣿⣿⣿⣿⣿⣿⣿⣿⣿⣿⣿⣶⡀⠀⠀⠀⠀\\n// ⠀⠀⠀⠀⠀⢀⣾⣿⣿⣿⣿⣿⣿⡿⠁⠀⠀⠀⠘⣿⣿⣿⣿⣿⡿⠀⠀⠀⠀⠀⠀⠀⠀⠀⠀⠀⠀⠀⠀⠀⠀⠀⢀⣾⣿⣿⣿⠃⠀⠀⠀⠀⠈⢿⣿⣿⣿⣆⠀⠀⠀⠀⠀⠀⢸⣿⣿⣿⣗⠀⠀⠀⢸⣿⣿⣿⡯⠀⠀⠀⣰⣿⣿⣿⡿⠋⠁⠀⠀⠈⠘⠹⣿⣿⣿⣿⣆⠀⠀⠀\\n// ⠀⠀⠀⠀⢀⣾⣿⣿⣿⣿⣿⣿⡿⠀⠀⠀⠀⠀⠀⠈⢿⣿⣿⣿⠃⠀⠀⠀⠀⠀⠀⠀⠀⠀⠀⠀⠀⠀⠀⠀⠀⠀⣾⣿⣿⣿⠏⠀⠀⠀⠀⠀⠀⠘⣿⣿⣿⣿⡄⠀⠀⠀⠀⠀⢸⣿⣿⣿⣗⠀⠀⠀⢸⣿⣿⣿⡯⠀⠀⢰⣿⣿⣿⣿⠁⠀⠀⠀⠀⠀⠀⠀⠘⣿⣿⣿⣿⡀⠀⠀\\n// ⠀⠀⠀⢠⣿⣿⣿⣿⣿⣿⣿⣟⠀⡀⢀⠀⡀⢀⠀⡀⢈⢿⡟⠁⠀⠀⠀⠀⠀⠀⠀⠀⠀⠀⠀⠀⠀⠀⠀⠀⠀⣼⣿⣿⣿⣿⣿⣿⣿⣿⣿⣿⣿⣿⣿⣿⣿⣿⣿⡄⠀⠀⠀⠀⢸⣿⣿⣿⣗⠀⠀⠀⢸⣿⣿⣿⡯⠀⠀⢸⣿⣿⣿⣗⠀⠀⠀⠀⠀⠀⠀⠀⠀⣿⣿⣿⣿⡇⠀⠀\\n// ⠀⠀⣠⣿⣿⣿⣿⣿⣿⡿⠋⢻⣿⣿⣿⣿⣿⣿⣿⣿⣿⣿⣿⣷⣶⣄⡀⠀⠀⠀⠀⠀⠀⠀⠀⠀⠀⠀⠀⠀⣸⣿⣿⣿⡿⢿⠿⠿⠿⠿⠿⠿⠿⠿⠿⢿⣿⣿⣿⣷⡀⠀⠀⠀⢸⣿⣿⣿⣗⠀⠀⠀⢸⣿⣿⣿⡯⠀⠀⠸⣿⣿⣿⣷⡀⠀⠀⠀⠀⠀⠀⠀⢠⣿⣿⣿⣿⠂⠀⠀\\n// ⠀⠀⠙⠛⠿⠻⠻⠛⠉⠀⠀⠈⢿⣿⣿⣿⣿⣿⣿⣿⣿⣿⣿⣿⣿⣿⣷⣄⠀⠀⠀⠀⠀⠀⠀⠀⠀⠀⠀⣰⣿⣿⣿⣿⠁⠀⠀⠀⠀⠀⠀⠀⠀⠀⠀⠀⢿⣿⣿⣿⣧⠀⠀⠀⢸⣿⣿⣿⣗⠀⠀⠀⢸⣿⣿⣿⡯⠀⠀⠀⢻⣿⣿⣿⣷⣀⢀⠀⠀⠀⡀⣰⣾⣿⣿⣿⠏⠀⠀⠀\\n// ⠀⠀⠀⠀⠀⠀⠀⠀⠀⠀⠀⠀⠈⠛⣿⣿⣿⣿⣿⣿⣿⣿⣿⣿⣿⣿⣿⣿⡄⠀⠀⠀⠀⠀⠀⠀⠀⠀⢰⣿⣿⣿⣿⠃⠀⠀⠀⠀⠀⠀⠀⠀⠀⠀⠀⠀⠘⣿⣿⣿⣿⣧⠀⠀⢸⣿⣿⣿⣗⠀⠀⠀⢸⣿⣿⣿⡯⠀⠀⠀⠀⠹⢿⣿⣿⣿⣿⣾⣾⣷⣿⣿⣿⣿⡿⠋⠀⠀⠀⠀\\n// ⠀⠀⠀⠀⠀⠀⠀⠀⠀⠀⠀⠀⠀⠀⠀⠈⠙⠙⠋⠛⠙⠋⠛⠙⠋⠛⠙⠋⠃⠀⠀⠀⠀⠀⠀⠀⠀⠠⠿⠻⠟⠿⠃⠀⠀⠀⠀⠀⠀⠀⠀⠀⠀⠀⠀⠀⠀⠸⠟⠿⠟⠿⠆⠀⠸⠿⠿⠟⠯⠀⠀⠀⠸⠿⠿⠿⠏⠀⠀⠀⠀⠀⠈⠉⠻⠻⡿⣿⢿⡿⡿⠿⠛⠁⠀⠀⠀⠀⠀⠀\\n//                    allo.gitcoin.co\\n\\n/// @title Errors\\n/// @author @thelostone-mc <aditya@gitcoin.co>, @KurtMerbeth <kurt@gitcoin.co>, @codenamejason <jason@gitcoin.co>\\n/// @notice Library containing all custom errors the protocol may revert with.\\ncontract Errors {\\n    /// ======================\\n    /// ====== Generic =======\\n    /// ======================\\n\\n    /// @notice Thrown as a general error when input / data is invalid\\n    error INVALID();\\n\\n    /// @notice Thrown when mismatch in decoding data\\n    error MISMATCH();\\n\\n    /// @notice Thrown when not enough funds are available\\n    error NOT_ENOUGH_FUNDS();\\n\\n    /// @notice Thrown when user is not authorized\\n    error UNAUTHORIZED();\\n\\n    /// @notice Thrown when address is the zero address\\n    error ZERO_ADDRESS();\\n\\n    /// ======================\\n    /// ====== Registry ======\\n    /// ======================\\n\\n    /// @dev Thrown when the nonce passed has been used or not available\\n    error NONCE_NOT_AVAILABLE();\\n\\n    /// @dev Thrown when the 'msg.sender' is not the pending owner on ownership transfer\\n    error NOT_PENDING_OWNER();\\n\\n    /// @dev Thrown if the anchor creation fails\\n    error ANCHOR_ERROR();\\n\\n    /// ======================\\n    /// ======== Allo ========\\n    /// ======================\\n\\n    /// @notice Thrown when the strategy is not approved\\n    error NOT_APPROVED_STRATEGY();\\n\\n    /// @notice Thrown when the strategy is approved and should be cloned\\n    error IS_APPROVED_STRATEGY();\\n\\n    /// @notice Thrown when the fee is below 1e18 which is the fee percentage denominator\\n    error INVALID_FEE();\\n\\n    /// ======================\\n    /// ===== IStrategy ======\\n    /// ======================\\n\\n    /// @notice Thrown when data is already intialized\\n    error ALREADY_INITIALIZED();\\n\\n    /// @notice Thrown when data is yet to be initialized\\n    error NOT_INITIALIZED();\\n\\n    /// @notice Thrown when an invalid address is used\\n    error INVALID_ADDRESS();\\n\\n    /// @notice Thrown when a pool is inactive\\n    error POOL_INACTIVE();\\n\\n    /// @notice Thrown when a pool is already active\\n    error POOL_ACTIVE();\\n\\n    /// @notice Thrown when two arrays length are not equal\\n    error ARRAY_MISMATCH();\\n\\n    /// @notice Thrown when the registration is invalid.\\n    error INVALID_REGISTRATION();\\n\\n    /// @notice Thrown when the metadata is invalid.\\n    error INVALID_METADATA();\\n\\n    /// @notice Thrown when the recipient is not accepted.\\n    error RECIPIENT_NOT_ACCEPTED();\\n\\n    /// @notice Thrown when recipient is already accepted.\\n    error RECIPIENT_ALREADY_ACCEPTED();\\n\\n    /// @notice Thrown when registration is not active.\\n    error REGISTRATION_NOT_ACTIVE();\\n\\n    /// @notice Thrown when there is an error in recipient.\\n    error RECIPIENT_ERROR(address recipientId);\\n\\n    /// @notice Thrown when the allocation is not active.\\n    error ALLOCATION_NOT_ACTIVE();\\n\\n    /// @notice Thrown when the allocation is not ended.\\n    error ALLOCATION_NOT_ENDED();\\n\\n    /// @notice Thrown when the allocation is active.\\n    error ALLOCATION_ACTIVE();\\n}\\n\\n// ⠀⠀⠀⠀⠀⠀⠀⠀⠀⠀⠀⠀⠀⠀⠀⠀⢀⣾⣿⣷⡀⠀⠀⠀⠀⠀⠀⠀⠀⠀⠀⠀⠀⠀⠀⠀⠀⠀⠀⠀⠀⠀⠀⠀⠀⠀⠀⠀⣼⣿⣿⣷⣄⠀⠀⠀⠀⠀⠀⠀⠀⠀⠀⠀⢸⣿⣿⣿⣗⠀⠀⠀⢸⣿⣿⣿⡯⠀⠀⠀⠀⠀⠀⠀⠀⠀⠀⠀⠀⠀⠀⠀⠀⠀⠀⠀⠀⠀⠀⠀\\n// ⠀⠀⠀⠀⠀⠀⠀⠀⠀⠀⠀⠀⠀⠀⠀⢀⣿⣿⣿⣿⣷⡀⠀⠀⠀⠀⠀⠀⠀⠀⠀⠀⠀⠀⠀⠀⠀⠀⠀⠀⠀⠀⠀⠀⠀⠀⠀⣼⣿⣿⣿⣿⣿⡄⠀⠀⠀⠀⠀⠀⠀⠀⠀⠀⢸⣿⣿⣿⣗⠀⠀⠀⢸⣿⣿⣿⡯⠀⠀⠀⠀⠀⠀⠀⠀⠀⠀⠀⠀⠀⠀⠀⠀⠀⠀⠀⠀⠀⠀⠀\\n// ⠀⠀⠀⠀⠀⠀⠀⠀⠀⠀⠀⠀⠀⠀⠀⢸⣿⣿⣿⣿⣿⣿⡄⠀⠀⠀⠀⠀⠀⠀⠀⠀⠀⠀⠀⠀⠀⠀⠀⠀⠀⠀⠀⠀⠀⠀⣸⣿⣿⣿⢿⣿⣿⣿⡀⠀⠀⠀⠀⠀⠀⠀⠀⠀⢸⣿⣿⣿⣗⠀⠀⠀⢸⣿⣿⣿⡯⠀⠀⠀⠀⠀⠀⠀⠀⠀⠀⠀⠀⠀⠀⠀⠀⠀⠀⠀⠀⠀⠀⠀\\n// ⠀⠀⠀⠀⠀⠀⠀⠀⠀⠀⠀⠀⠀⠀⠀⠘⣿⣿⣿⣿⣿⣿⣿⣄⠀⠀⠀⠀⠀⠀⠀⠀⠀⠀⠀⠀⠀⠀⠀⠀⠀⠀⠀⠀⠀⣰⣿⣿⣿⡟⠘⣿⣿⣿⣷⡀⠀⠀⠀⠀⠀⠀⠀⠀⢸⣿⣿⣿⣗⠀⠀⠀⢸⣿⣿⣿⡯⠀⠀⠀⠀⠀⠀⠀⠀⠀⠀⠀⠀⠀⠀⠀⠀⠀⠀⠀⠀⠀⠀⠀\\n// ⠀⠀⠀⠀⠀⠀⠀⠀⣀⣴⣾⣿⣿⣿⣿⣾⠻⣿⣿⣿⣿⣿⣿⣿⡆⠀⠀⠀⠀⠀⠀⠀⠀⠀⠀⠀⠀⠀⠀⠀⠀⠀⠀⠀⢠⣿⣿⣿⡿⠀⠀⠸⣿⣿⣿⣧⠀⠀⠀⠀⠀⠀⠀⠀⢸⣿⣿⣿⣗⠀⠀⠀⢸⣿⣿⣿⡯⠀⠀⠀⠀⠀⠀⢀⣠⣴⣴⣶⣶⣶⣦⣦⣀⡀⠀⠀⠀⠀⠀⠀\\n// ⠀⠀⠀⠀⠀⠀⠀⣴⣿⣿⣿⣿⣿⣿⡿⠃⠀⠙⣿⣿⣿⣿⣿⣿⣿⠀⠀⠀⠀⠀⠀⠀⠀⠀⠀⠀⠀⠀⠀⠀⠀⠀⠀⢠⣿⣿⣿⣿⠁⠀⠀⠀⢻⣿⣿⣿⣧⠀⠀⠀⠀⠀⠀⠀⢸⣿⣿⣿⣗⠀⠀⠀⢸⣿⣿⣿⡯⠀⠀⠀⠀⣠⣾⣿⣿⣿⣿⣿⣿⣿⣿⣿⣿⣿⣶⡀⠀⠀⠀⠀\\n// ⠀⠀⠀⠀⠀⢀⣾⣿⣿⣿⣿⣿⣿⡿⠁⠀⠀⠀⠘⣿⣿⣿⣿⣿⡿⠀⠀⠀⠀⠀⠀⠀⠀⠀⠀⠀⠀⠀⠀⠀⠀⠀⢀⣾⣿⣿⣿⠃⠀⠀⠀⠀⠈⢿⣿⣿⣿⣆⠀⠀⠀⠀⠀⠀⢸⣿⣿⣿⣗⠀⠀⠀⢸⣿⣿⣿⡯⠀⠀⠀⣰⣿⣿⣿⡿⠋⠁⠀⠀⠈⠘⠹⣿⣿⣿⣿⣆⠀⠀⠀\\n// ⠀⠀⠀⠀⢀⣾⣿⣿⣿⣿⣿⣿⡿⠀⠀⠀⠀⠀⠀⠈⢿⣿⣿⣿⠃⠀⠀⠀⠀⠀⠀⠀⠀⠀⠀⠀⠀⠀⠀⠀⠀⠀⣾⣿⣿⣿⠏⠀⠀⠀⠀⠀⠀⠘⣿⣿⣿⣿⡄⠀⠀⠀⠀⠀⢸⣿⣿⣿⣗⠀⠀⠀⢸⣿⣿⣿⡯⠀⠀⢰⣿⣿⣿⣿⠁⠀⠀⠀⠀⠀⠀⠀⠘⣿⣿⣿⣿⡀⠀⠀\\n// ⠀⠀⠀⢠⣿⣿⣿⣿⣿⣿⣿⣟⠀⡀⢀⠀⡀⢀⠀⡀⢈⢿⡟⠁⠀⠀⠀⠀⠀⠀⠀⠀⠀⠀⠀⠀⠀⠀⠀⠀⠀⣼⣿⣿⣿⣿⣿⣿⣿⣿⣿⣿⣿⣿⣿⣿⣿⣿⣿⡄⠀⠀⠀⠀⢸⣿⣿⣿⣗⠀⠀⠀⢸⣿⣿⣿⡯⠀⠀⢸⣿⣿⣿⣗⠀⠀⠀⠀⠀⠀⠀⠀⠀⣿⣿⣿⣿⡇⠀⠀\\n// ⠀⠀⣠⣿⣿⣿⣿⣿⣿⡿⠋⢻⣿⣿⣿⣿⣿⣿⣿⣿⣿⣿⣿⣷⣶⣄⡀⠀⠀⠀⠀⠀⠀⠀⠀⠀⠀⠀⠀⠀⣸⣿⣿⣿⡿⢿⠿⠿⠿⠿⠿⠿⠿⠿⠿⢿⣿⣿⣿⣷⡀⠀⠀⠀⢸⣿⣿⣿⣗⠀⠀⠀⢸⣿⣿⣿⡯⠀⠀⠸⣿⣿⣿⣷⡀⠀⠀⠀⠀⠀⠀⠀⢠⣿⣿⣿⣿⠂⠀⠀\\n// ⠀⠀⠙⠛⠿⠻⠻⠛⠉⠀⠀⠈⢿⣿⣿⣿⣿⣿⣿⣿⣿⣿⣿⣿⣿⣿⣷⣄⠀⠀⠀⠀⠀⠀⠀⠀⠀⠀⠀⣰⣿⣿⣿⣿⠁⠀⠀⠀⠀⠀⠀⠀⠀⠀⠀⠀⢿⣿⣿⣿⣧⠀⠀⠀⢸⣿⣿⣿⣗⠀⠀⠀⢸⣿⣿⣿⡯⠀⠀⠀⢻⣿⣿⣿⣷⣀⢀⠀⠀⠀⡀⣰⣾⣿⣿⣿⠏⠀⠀⠀\\n// ⠀⠀⠀⠀⠀⠀⠀⠀⠀⠀⠀⠀⠈⠛⣿⣿⣿⣿⣿⣿⣿⣿⣿⣿⣿⣿⣿⣿⡄⠀⠀⠀⠀⠀⠀⠀⠀⠀⢰⣿⣿⣿⣿⠃⠀⠀⠀⠀⠀⠀⠀⠀⠀⠀⠀⠀⠘⣿⣿⣿⣿⣧⠀⠀⢸⣿⣿⣿⣗⠀⠀⠀⢸⣿⣿⣿⡯⠀⠀⠀⠀⠹⢿⣿⣿⣿⣿⣾⣾⣷⣿⣿⣿⣿⡿⠋⠀⠀⠀⠀\\n// ⠀⠀⠀⠀⠀⠀⠀⠀⠀⠀⠀⠀⠀⠀⠀⠈⠙⠙⠋⠛⠙⠋⠛⠙⠋⠛⠙⠋⠃⠀⠀⠀⠀⠀⠀⠀⠀⠠⠿⠻⠟⠿⠃⠀⠀⠀⠀⠀⠀⠀⠀⠀⠀⠀⠀⠀⠀⠸⠟⠿⠟⠿⠆⠀⠸⠿⠿⠟⠯⠀⠀⠀⠸⠿⠿⠿⠏⠀⠀⠀⠀⠀⠈⠉⠻⠻⡿⣿⢿⡿⡿⠿⠛⠁⠀⠀⠀⠀⠀⠀\\n//                    allo.gitcoin.co\\n\\n/// @title BaseStrategy Contract\\n/// @author @thelostone-mc <aditya@gitcoin.co>, @0xKurt <kurt@gitcoin.co>, @codenamejason <jason@gitcoin.co>, @0xZakk <zakk@gitcoin.co>, @nfrgosselin <nate@gitcoin.co>\\n/// @notice This contract is the base contract for all strategies\\n/// @dev This contract is implemented by all strategies.\\nabstract contract BaseStrategy is IStrategy, Transfer, Errors {\\n    /// ==========================\\n    /// === Storage Variables ====\\n    /// ==========================\\n\\n    IAllo internal immutable allo;\\n    bytes32 internal immutable strategyId;\\n    bool internal poolActive;\\n    uint256 internal poolId;\\n    uint256 internal poolAmount;\\n\\n    /// ====================================\\n    /// ========== Constructor =============\\n    /// ====================================\\n\\n    /// @notice Constructor to set the Allo contract and \\\"strategyId'.\\n    /// @param _allo Address of the Allo contract.\\n    /// @param _name Name of the strategy\\n    constructor(address _allo, string memory _name) {\\n        allo = IAllo(_allo);\\n        strategyId = keccak256(abi.encode(_name));\\n    }\\n\\n    /// ====================================\\n    /// =========== Modifiers ==============\\n    /// ====================================\\n\\n    /// @notice Modifier to check if the 'msg.sender' is the Allo contract.\\n    /// @dev Reverts if the 'msg.sender' is not the Allo contract.\\n    modifier onlyAllo() {\\n        _checkOnlyAllo();\\n        _;\\n    }\\n\\n    /// @notice Modifier to check if the '_sender' is a pool manager.\\n    /// @dev Reverts if the '_sender' is not a pool manager.\\n    /// @param _sender The address to check if they are a pool manager\\n    modifier onlyPoolManager(address _sender) {\\n        _checkOnlyPoolManager(_sender);\\n        _;\\n    }\\n\\n    /// @notice Modifier to check if the pool is active.\\n    /// @dev Reverts if the pool is not active.\\n    modifier onlyActivePool() {\\n        _checkOnlyActivePool();\\n        _;\\n    }\\n\\n    /// @notice Modifier to check if the pool is inactive.\\n    /// @dev Reverts if the pool is active.\\n    modifier onlyInactivePool() {\\n        _checkInactivePool();\\n        _;\\n    }\\n\\n    /// @notice Modifier to check if the pool is initialized.\\n    /// @dev Reverts if the pool is not initialized.\\n    modifier onlyInitialized() {\\n        _checkOnlyInitialized();\\n        _;\\n    }\\n\\n    /// ================================\\n    /// =========== Views ==============\\n    /// ================================\\n\\n    /// @notice Getter for the 'Allo' contract.\\n    /// @return The Allo contract\\n    function getAllo() external view override returns (IAllo) {\\n        return allo;\\n    }\\n\\n    /// @notice Getter for the 'poolId'.\\n    /// @return The ID of the pool\\n    function getPoolId() external view override returns (uint256) {\\n        return poolId;\\n    }\\n\\n    /// @notice Getter for the 'strategyId'.\\n    /// @return The ID of the strategy\\n    function getStrategyId() external view override returns (bytes32) {\\n        return strategyId;\\n    }\\n\\n    /// @notice Getter for the 'poolAmount'.\\n    /// @return The balance of the pool\\n    function getPoolAmount() external view virtual override returns (uint256) {\\n        return poolAmount;\\n    }\\n\\n    /// @notice Getter for whether or not the pool is active.\\n    /// @return 'true' if the pool is active, otherwise 'false'\\n    function isPoolActive() external view override returns (bool) {\\n        return _isPoolActive();\\n    }\\n\\n    /// @notice Getter for the status of a recipient.\\n    /// @param _recipientId The ID of the recipient\\n    /// @return The status of the recipient\\n    function getRecipientStatus(address _recipientId) external view virtual returns (Status) {\\n        return _getRecipientStatus(_recipientId);\\n    }\\n\\n    /// ====================================\\n    /// =========== Functions ==============\\n    /// ====================================\\n\\n    /// @notice Initializes the 'Basetrategy'.\\n    /// @dev Will revert if the poolId is invalid or already initialized\\n    /// @param _poolId ID of the pool\\n    function __BaseStrategy_init(uint256 _poolId) internal virtual onlyAllo {\\n        // check if pool ID is not initialized already, if it is, revert\\n        if (poolId != 0) revert ALREADY_INITIALIZED();\\n\\n        // check if pool ID is valid and not zero (0), if it is, revert\\n        if (_poolId == 0) revert INVALID();\\n        poolId = _poolId;\\n    }\\n\\n    /// @notice Increases the pool amount.\\n    /// @dev Increases the 'poolAmount' by '_amount'. Only 'Allo' contract can call this.\\n    /// @param _amount The amount to increase the pool by\\n    function increasePoolAmount(uint256 _amount) external override onlyAllo {\\n        _beforeIncreasePoolAmount(_amount);\\n        poolAmount += _amount;\\n        _afterIncreasePoolAmount(_amount);\\n    }\\n\\n    /// @notice Registers a recipient.\\n    /// @dev Registers a recipient and returns the ID of the recipient. The encoded '_data' will be determined by the\\n    ///      strategy implementation. Only 'Allo' contract can call this when it is initialized.\\n    /// @param _data The data to use to register the recipient\\n    /// @param _sender The address of the sender\\n    /// @return recipientId The recipientId\\n    function registerRecipient(bytes memory _data, address _sender)\\n        external\\n        payable\\n        onlyAllo\\n        onlyInitialized\\n        returns (address recipientId)\\n    {\\n        _beforeRegisterRecipient(_data, _sender);\\n        recipientId = _registerRecipient(_data, _sender);\\n        _afterRegisterRecipient(_data, _sender);\\n    }\\n\\n    /// @notice Allocates to a recipient.\\n    /// @dev The encoded '_data' will be determined by the strategy implementation. Only 'Allo' contract can\\n    ///      call this when it is initialized.\\n    /// @param _data The data to use to allocate to the recipient\\n    /// @param _sender The address of the sender\\n    function allocate(bytes memory _data, address _sender) external payable onlyAllo onlyInitialized {\\n        _beforeAllocate(_data, _sender);\\n        _allocate(_data, _sender);\\n        _afterAllocate(_data, _sender);\\n    }\\n\\n    /// @notice Distributes funds (tokens) to recipients.\\n    /// @dev The encoded '_data' will be determined by the strategy implementation. Only 'Allo' contract can\\n    ///      call this when it is initialized.\\n    /// @param _recipientIds The IDs of the recipients\\n    /// @param _data The data to use to distribute to the recipients\\n    /// @param _sender The address of the sender\\n    function distribute(address[] memory _recipientIds, bytes memory _data, address _sender)\\n        external\\n        onlyAllo\\n        onlyInitialized\\n    {\\n        _beforeDistribute(_recipientIds, _data, _sender);\\n        _distribute(_recipientIds, _data, _sender);\\n        _afterDistribute(_recipientIds, _data, _sender);\\n    }\\n\\n    /// @notice Gets the payout summary for recipients.\\n    /// @dev The encoded '_data' will be determined by the strategy implementation.\\n    /// @param _recipientIds The IDs of the recipients\\n    /// @param _data The data to use to get the payout summary for the recipients\\n    /// @return The payout summary for the recipients\\n    function getPayouts(address[] memory _recipientIds, bytes[] memory _data)\\n        external\\n        view\\n        virtual\\n        override\\n        returns (PayoutSummary[] memory)\\n    {\\n        uint256 recipientLength = _recipientIds.length;\\n        // check if the length of the recipient IDs and data arrays are equal, if they are not, revert\\n        if (recipientLength != _data.length) revert ARRAY_MISMATCH();\\n\\n        PayoutSummary[] memory payouts = new PayoutSummary[](recipientLength);\\n        for (uint256 i; i < recipientLength;) {\\n            payouts[i] = _getPayout(_recipientIds[i], _data[i]);\\n            unchecked {\\n                i++;\\n            }\\n        }\\n        return payouts;\\n    }\\n\\n    /// @notice Checks if the '_allocator' is a valid allocator.\\n    /// @dev How the allocator is determined is up to the strategy implementation.\\n    /// @param _allocator The address to check if it is a valid allocator for the strategy.\\n    /// @return 'true' if the address is a valid allocator, 'false' otherwise\\n    function isValidAllocator(address _allocator) external view virtual override returns (bool) {\\n        return _isValidAllocator(_allocator);\\n    }\\n\\n    /// ====================================\\n    /// ============ Internal ==============\\n    /// ====================================\\n\\n    /// @notice Checks if the 'msg.sender' is the Allo contract.\\n    /// @dev Reverts if the 'msg.sender' is not the Allo contract.\\n    function _checkOnlyAllo() internal view {\\n        if (msg.sender != address(allo)) revert UNAUTHORIZED();\\n    }\\n\\n    /// @notice Checks if the '_sender' is a pool manager.\\n    /// @dev Reverts if the '_sender' is not a pool manager.\\n    /// @param _sender The address to check if they are a pool manager\\n    function _checkOnlyPoolManager(address _sender) internal view {\\n        if (!allo.isPoolManager(poolId, _sender)) revert UNAUTHORIZED();\\n    }\\n\\n    /// @notice Checks if the pool is active.\\n    /// @dev Reverts if the pool is not active.\\n    function _checkOnlyActivePool() internal view {\\n        if (!poolActive) revert POOL_INACTIVE();\\n    }\\n\\n    /// @notice Checks if the pool is inactive.\\n    /// @dev Reverts if the pool is active.\\n    function _checkInactivePool() internal view {\\n        if (poolActive) revert POOL_ACTIVE();\\n    }\\n\\n    /// @notice Checks if the pool is initialized.\\n    /// @dev Reverts if the pool is not initialized.\\n    function _checkOnlyInitialized() internal view {\\n        if (poolId == 0) revert NOT_INITIALIZED();\\n    }\\n\\n    /// @notice Set the pool to active or inactive status.\\n    /// @dev This will emit a 'PoolActive()' event. Used by the strategy implementation.\\n    /// @param _active The status to set, 'true' means active, 'false' means inactive\\n    function _setPoolActive(bool _active) internal {\\n        poolActive = _active;\\n        emit PoolActive(_active);\\n    }\\n\\n    /// @notice Checks if the pool is active.\\n    /// @dev Used by the strategy implementation.\\n    /// @return 'true' if the pool is active, otherwise 'false'\\n    function _isPoolActive() internal view virtual returns (bool) {\\n        return poolActive;\\n    }\\n\\n    /// @notice Checks if the allocator is valid\\n    /// @param _allocator The allocator address\\n    /// @return 'true' if the allocator is valid, otherwise 'false'\\n    function _isValidAllocator(address _allocator) internal view virtual returns (bool);\\n\\n    /// @notice This will register a recipient, set their status (and any other strategy specific values), and\\n    ///         return the ID of the recipient.\\n    /// @dev Able to change status all the way up to Accepted, or to Pending and if there are more steps, additional\\n    ///      functions should be added to allow the owner to check this. The owner could also check attestations directly\\n    ///      and then Accept for instance.\\n    /// @param _data The data to use to register the recipient\\n    /// @param _sender The address of the sender\\n    /// @return The ID of the recipient\\n    function _registerRecipient(bytes memory _data, address _sender) internal virtual returns (address);\\n\\n    /// @notice This will allocate to a recipient.\\n    /// @dev The encoded '_data' will be determined by the strategy implementation.\\n    /// @param _data The data to use to allocate to the recipient\\n    /// @param _sender The address of the sender\\n    function _allocate(bytes memory _data, address _sender) internal virtual;\\n\\n    /// @notice This will distribute funds (tokens) to recipients.\\n    /// @dev most strategies will track a TOTAL amount per recipient, and a PAID amount, and pay the difference\\n    /// this contract will need to track the amount paid already, so that it doesn't double pay.\\n    /// @param _recipientIds The ids of the recipients to distribute to\\n    /// @param _data Data required will depend on the strategy implementation\\n    /// @param _sender The address of the sender\\n    function _distribute(address[] memory _recipientIds, bytes memory _data, address _sender) internal virtual;\\n\\n    /// @notice This will get the payout summary for a recipient.\\n    /// @dev The encoded '_data' will be determined by the strategy implementation.\\n    /// @param _recipientId The ID of the recipient\\n    /// @param _data The data to use to get the payout summary for the recipient\\n    /// @return The payout summary for the recipient\\n    function _getPayout(address _recipientId, bytes memory _data)\\n        internal\\n        view\\n        virtual\\n        returns (PayoutSummary memory);\\n\\n    /// @notice This will get the status of a recipient.\\n    /// @param _recipientId The ID of the recipient\\n    /// @return The status of the recipient\\n    function _getRecipientStatus(address _recipientId) internal view virtual returns (Status);\\n\\n    /// ===================================\\n    /// ============== Hooks ==============\\n    /// ===================================\\n\\n    /// @notice Hook called before increasing the pool amount.\\n    /// @param _amount The amount to increase the pool by\\n    function _beforeIncreasePoolAmount(uint256 _amount) internal virtual {}\\n\\n    /// @notice Hook called after increasing the pool amount.\\n    /// @param _amount The amount to increase the pool by\\n    function _afterIncreasePoolAmount(uint256 _amount) internal virtual {}\\n\\n    /// @notice Hook called before registering a recipient.\\n    /// @param _data The data to use to register the recipient\\n    /// @param _sender The address of the sender\\n    function _beforeRegisterRecipient(bytes memory _data, address _sender) internal virtual {}\\n\\n    /// @notice Hook called after registering a recipient.\\n    /// @param _data The data to use to register the recipient\\n    /// @param _sender The address of the sender\\n    function _afterRegisterRecipient(bytes memory _data, address _sender) internal virtual {}\\n\\n    /// @notice Hook called before allocating to a recipient.\\n    /// @param _data The data to use to allocate to the recipient\\n    /// @param _sender The address of the sender\\n    function _beforeAllocate(bytes memory _data, address _sender) internal virtual {}\\n\\n    /// @notice Hook called after allocating to a recipient.\\n    /// @param _data The data to use to allocate to the recipient\\n    /// @param _sender The address of the sender\\n    function _afterAllocate(bytes memory _data, address _sender) internal virtual {}\\n\\n    /// @notice Hook called before distributing funds (tokens) to recipients.\\n    /// @param _recipientIds The IDs of the recipients\\n    /// @param _data The data to use to distribute to the recipients\\n    /// @param _sender The address of the sender\\n    function _beforeDistribute(address[] memory _recipientIds, bytes memory _data, address _sender) internal virtual {}\\n\\n    /// @notice Hook called after distributing funds (tokens) to recipients.\\n    /// @param _recipientIds The IDs of the recipients\\n    /// @param _data The data to use to distribute to the recipients\\n    /// @param _sender The address of the sender\\n    function _afterDistribute(address[] memory _recipientIds, bytes memory _data, address _sender) internal virtual {}\\n}\\n\\n// Internal Libraries\\n\\n// ⠀⠀⠀⠀⠀⠀⠀⠀⠀⠀⠀⠀⠀⠀⠀⠀⠀⠀⣀⠀⠀⠀⠀⠀⠀⠀⠀⠀⠀⠀⠀⠀⠀⠀⠀⠀⠀⠀⠀⠀⠀⠀⠀⠀ ⠀⠀⠀⠀⢀⣀⡀⠀⠀⠀⠀⠀⠀⠀⠀⠀⠀⠀⠀⢀⡀⣀⡀⡀⠀⠀⠀⢀⡀⣀⡀⡀⠀⠀⠀⠀⠀⠀⠀⠀⠀⠀⠀⠀⠀⠀⠀⠀⠀⠀⠀⠀⠀⠀⠀\\n// ⠀⠀⠀⠀⠀⠀⠀⠀⠀⠀⠀⠀⠀⠀⠀⠀⢀⣮⣿⣷⡀⠀⠀⠀⠀⠀⠀⠀⠀⠀⠀⠀⠀⠀⠀⠀⠀⠀⠀⠀⠀⠀⠀⠀⠀⠀⠀⠀⣼⣿⣿⣷⣄⠀⠀⠀⠀⠀⠀⠀⠀⠀⠀⠀⢸⣿⣿⣿⡯⠀⠀⠀⢸⣿⣿⣿⡯⠀⠀⠀⠀⠀⠀⠀⠀⠀⠀⠀⠀⠀⠀⠀⠀⠀⠀⠀⠀⠀⠀⠀\\n// ⠀⠀⠀⠀⠀⠀⠀⠀⠀⠀⠀⠀⠀⠀⠀⢀⣿⣿⣿⣿⣷⡀⠀⠀⠀⠀⠀⠀⠀⠀⠀⠀⠀⠀⠀⠀⠀⠀⠀⠀⠀⠀⠀⠀⠀⠀⠀⣼⣿⣿⣿⣿⣿⡄⠀⠀⠀⠀⠀⠀⠀⠀⠀⠀⢸⣿⣿⣿⡯⠀⠀⠀⢸⣿⣿⣿⡯⠀⠀⠀⠀⠀⠀⠀⠀⠀⠀⠀⠀⠀⠀⠀⠀⠀⠀⠀⠀⠀⠀⠀\\n// ⠀⠀⠀⠀⠀⠀⠀⠀⠀⠀⠀⠀⠀⠀⠀⢸⣿⣿⣿⣿⣿⣿⡄⠀⠀⠀⠀⠀⠀⠀⠀⠀⠀⠀⠀⠀⠀⠀⠀⠀⠀⠀⠀⠀⠀⠀⣸⣿⣿⣿⢿⣿⣿⣿⡀⠀⠀⠀⠀⠀⠀⠀⠀⠀⢸⣿⣿⣿⡯⠀⠀⠀⢸⣿⣿⣿⡯⠀⠀⠀⠀⠀⠀⠀⠀⠀⠀⠀⠀⠀⠀⠀⠀⠀⠀⠀⠀⠀⠀⠀\\n// ⠀⠀⠀⠀⠀⠀⠀⠀⠀⠀⠀⠀ ⠀⠀⢸⣿⣿⣿⣿⣿⣿⣿⣄⠀⠀⠀⠀⠀⠀⠀⠀⠀⠀⠀⠀⠀⠀⠀⠀⠀⠀⠀⠀⠀⣰⣿⣿⣿⡏⠘⣿⣿⣿⣷⡀          ⢸⣿⣿⣿⡯⠀⠀⠀⢸⣿⣿⣿⡯⠀⠀⠀⠀⠀⠀⠀⠀⠀⠀⠀⠀⠀⠀⠀⠀⠀⠀⠀⠀⠀⠀⠀\\n// ⠀⠀⠀⠀⠀⠀⠀⠀⣀⣴⣾⣿⣿⣿⣿⣾⠻⣿⣿⣿⣿⣿⣿⣿⡆⠀⠀⠀⠀⠀⠀⠀⠀⠀⠀⠀⠀⠀⠀⠀⠀⠀⠀⠀⢠⣿⣿⣿⡿⠀⠀⠹⣿⣿⣿⣧⠀⠀⠀⠀⠀⠀⠀⠀⢸⣿⣿⣿⡯⠀⠀⠀⢸⣿⣿⣿⡯⠀⠀⠀⠀⠀⠀⢀⣠⣤⣶⣶⣶⣶⣦⣦⣀⡀⠀⠀⠀⠀⠀⠀\\n// ⠀⠀⠀⠀⠀⠀⠀⣴⣿⣿⣿⣿⣿⣿⡿⠁⠀⠙⣿⣿⣿⣿⣿⣿⣿⠀⠀⠀⠀⠀⠀⠀⠀⠀⠀⠀⠀⠀⠀⠀⠀⠀⠀⢠⣿⣿⣿⣿⠁⠀⠀⠀⢻⣿⣿⣿⣇⠀⠀⠀⠀⠀⠀⠀⢸⣿⣿⣿⡯⠀⠀⠀⢸⣿⣿⣿⡯⠀⠀⠀⠀⢠⣾⣿⣿⣿⣿⣿⣿⣿⣿⣿⣿⣿⣦⡄⠀⠀⠀⠀\\n// ⠀⠀⠀⠀⠀⢀⣾⣿⣿⣿⣿⣿⣿⡿⠁⠀⠀⠀⠘⣿⣿⣿⣿⣿⡿⠀⠀⠀⠀⠀⠀⠀⠀⠀⠀⠀⠀⠀⠀⠀⠀⠀⢀⣾⣿⣿⣿⠃⠀⠀⠀⠀⠈⢿⣿⣿⣿⣆⠀⠀⠀⠀⠀⠀⢸⣿⣿⣿⡯⠀⠀⠀⢸⣿⣿⣿⡯⠀⠀⠀⣴⣿⣿⣿⡿⠋⠁⠀⠀⠀⠉⠻⣿⣿⣿⣿⡆⠀⠀⠀\\n// ⠀⠀⠀⠀⢀⣾⣿⣿⣿⣿⣿⣿⡟⠀⠀⠀⠀⠀⠀⠈⢿⣿⣿⣿⠃⠀⠀⠀⠀⠀⠀⠀⠀⠀⠀⠀⠀⠀⠀⠀⠀⠀⣾⣿⣿⣿⠏⠀⠀⠀⠀⠀⠀⠘⣿⣿⣿⣿⡄⠀⠀⠀⠀⠀⢸⣿⣿⣿⡯⠀⠀⠀⢸⣿⣿⣿⡯⠀⠀⢰⣿⣿⣿⣿⠁⠀⠀⠀⠀⠀⠀⠀⠘⣿⣿⣿⣿⠄⠀⠀\\n// ⠀⠀⠀⢠⣿⣿⣿⣿⣿⣿⣿⣟⢀⢀⢀⢀⢀⢀⢀⢀⠈⣿⠟⠁⠀⠀⠀⠀⠀⠀⠀⠀⠀⠀⠀⠀⠀⠀⠀⠀⠀⣼⣿⣿⣿⣿⣿⣿⣿⣿⣿⣿⣿⣿⣿⣿⣿⣿⣿⡄⠀⠀⠀⠀⢸⣿⣿⣿⡯⠀⠀⠀⢸⣿⣿⣿⡯⠀⠀⢸⣿⣿⣿⣗⠀⠀⠀⠀⠀⠀⠀⠀⠀⣿⣿⣿⣿⡇⠀⠀\\n// ⠀⠀⣠⣿⣿⣿⣿⣿⣿⡿⠋⢻⣿⣿⣿⣿⣿⣿⣿⣿⣿⣿⣿⣷⣧⣤⠀⠀⠀⠀⠀⠀⠀⠀⠀⠀⠀⠀⠀⠀⣸⣿⣿⣿⡿⠿⠿⠿⠿⠿⠿⠿⠿⠿⠿⢿⣿⣿⣿⣷⡀⠀⠀⠀⢸⣿⣿⣿⡯⠀⠀⠀⢸⣿⣿⣿⡯⠀⠀⠸⣿⣿⣿⣷⡀⠀⠀⠀⠀⠀⠀⠀⢠⣿⣿⣿⣿⠂⠀⠀\\n// ⠀⠀⠙⠛⠟⠿⠻⠛⠉⠀⠀⠈⢿⣿⣿⣿⣿⣿⣿⣿⣿⣿⣿⣿⣿⣿⣿⡄⠀⠀⠀⠀⠀⠀⠀⠀⠀⠀⠀⣰⣿⣿⣿⡿⠁⠀          ⠀⠀⢿⣿⣿⣿⣧⠀ ⠀⢸⣿⣿⣿⡯⠀⠀⠀⢸⣿⣿⣿⡯⠀⠀⠀⢻⣿⣿⣿⣷⣀⢀⠀⠀⠀⣀⣰⣾⣿⣿⣿⠏⠀⠀⠀\\n// ⠀⠀⠀⠀⠀⠀⠀⠀⠀⠀⠀⠀⠈⠛⡿⣿⣿⣿⣿⣿⣿⣿⣿⣿⣿⣿⣿⣿⡄⠀⠀⠀⠀⠀⠀⠀⠀⠀⢰⣿⣿⣿⣿⠃⠀⠀⠀⠀⠀⠀⠀⠀⠀⠀⠀⠀⠘⣿⣿⣿⣿⣧⠀⠀⢸⣿⣿⣿⣯⠀⠀⠀⢸⣿⣿⣿⡯⠀⠀⠀⠀⠹⢿⣿⣿⣿⣿⣾⣾⣷⣿⣿⣿⣿⡿⠋⠀⠀⠀⠀\\n// ⠀⠀⠀⠀⠀⠀⠀⠀⠀⠀⠀⠀⠀⠀⠀⠉⠉⠋⠋⠋⠋⠋⠛⠙⠋⠛⠙⠋⠁⠀⠀⠀⠀⠀⠀⠀⠀⠠⠿⠻⠟⠿⠃            ⠀     ⠟⠿⠟⠿⠆⠀⠸⠿⠿⠻⠗⠀⠀⠀⠸⠿⠿⠿⠏⠀⠀⠀⠀⠀⠀⠙⠛⠿⢿⢿⡿⡿⡿⠟⠏⠃⠀⠀⠀⠀⠀\\n//                    allo.gitcoin.co\\n\\n/// @title Donation Voting Merkle Distribution Strategy\\n/// @author @thelostone-mc <aditya@gitcoin.co>, @0xKurt <kurt@gitcoin.co>, @codenamejason <jason@gitcoin.co>, @0xZakk <zakk@gitcoin.co>, @nfrgosselin <nate@gitcoin.co>\\n/// @notice Strategy for donation voting allocation with a merkle distribution\\nabstract contract DonationVotingMerkleDistributionBaseStrategy is Native, BaseStrategy, Multicall {\\n    /// ================================\\n    /// ========== Struct ==============\\n    /// ================================\\n\\n    /// @notice Struct to hold details of the application status\\n    /// @dev Application status is stored in a bitmap. Each 4 bits represents the status of a recipient,\\n    /// defined as 'index' here. The first 4 bits of the 256 bits represent the status of the first recipient,\\n    /// the second 4 bits represent the status of the second recipient, and so on.\\n    ///\\n    /// The 'rowIndex' is the index of the row in the bitmap, and the 'statusRow' is the value of the row.\\n    /// The 'statusRow' is updated when the status of a recipient changes.\\n    ///\\n    /// Note: Since we need 4 bits to store a status, one row of the bitmap can hold the status information of 256/4 recipients.\\n    ///\\n    /// For example, if we have 5 recipients, the bitmap will look like this:\\n    /// | recipient1 | recipient2 | recipient3 | recipient4 | recipient5 | 'rowIndex'\\n    /// |     0000   |    0001    |    0010    |    0011    |    0100    | 'statusRow'\\n    /// |     none   |   pending  |  accepted  |  rejected  |  appealed  | converted status (0, 1, 2, 3, 4)\\n    ///\\n    struct ApplicationStatus {\\n        uint256 index;\\n        uint256 statusRow;\\n    }\\n\\n    /// @notice Stores the details of the recipients.\\n    struct Recipient {\\n        // If false, the recipientAddress is the anchor of the profile\\n        bool useRegistryAnchor;\\n        address recipientAddress;\\n        Metadata metadata;\\n    }\\n\\n    /// @notice Stores the details of the distribution.\\n    struct Distribution {\\n        uint256 index;\\n        address recipientId;\\n        uint256 amount;\\n        bytes32[] merkleProof;\\n    }\\n\\n    /// @notice Stores the initialize data for the strategy\\n    struct InitializeData {\\n        bool useRegistryAnchor;\\n        bool metadataRequired;\\n        bool stream;\\n        uint64 registrationStartTime;\\n        uint64 registrationEndTime;\\n        uint64 allocationStartTime;\\n        uint64 allocationEndTime;\\n        address drips;\\n        address dripsCaller;\\n        address dripsAddressDriver;\\n        address[] allowedTokens;\\n    }\\n\\n    /// ===============================\\n    /// ========== Events =============\\n    /// ===============================\\n\\n    /// @notice Emitted when a recipient updates their registration\\n    /// @param recipientId Id of the recipient\\n    /// @param data The encoded data - (address recipientId, address recipientAddress, Metadata metadata)\\n    /// @param sender The sender of the transaction\\n    /// @param status The updated status of the recipient\\n    event UpdatedRegistration(address indexed recipientId, bytes data, address sender, uint8 status);\\n\\n    /// @notice Emitted when a recipient is registered and the status is updated\\n    /// @param rowIndex The index of the row in the bitmap\\n    /// @param fullRow The value of the row\\n    /// @param sender The sender of the transaction\\n    event RecipientStatusUpdated(uint256 indexed rowIndex, uint256 fullRow, address sender);\\n\\n    /// @notice Emitted when the timestamps are updated\\n    /// @param registrationStartTime The start time for the registration\\n    /// @param registrationEndTime The end time for the registration\\n    /// @param allocationStartTime The start time for the allocation\\n    /// @param allocationEndTime The end time for the allocation\\n    /// @param sender The sender of the transaction\\n    event TimestampsUpdated(\\n        uint64 registrationStartTime,\\n        uint64 registrationEndTime,\\n        uint64 allocationStartTime,\\n        uint64 allocationEndTime,\\n        address sender\\n    );\\n\\n    /// @notice Emitted when the distribution has been updated with a new merkle root or metadata\\n    /// @param merkleRoot The merkle root of the distribution\\n    /// @param metadata The metadata of the distribution\\n    event DistributionUpdated(bytes32 merkleRoot, Metadata metadata);\\n\\n    /// @notice Emitted when funds are distributed to a recipient\\n    /// @param amount The amount of tokens distributed\\n    /// @param grantee The address of the recipient\\n    /// @param token The address of the token\\n    /// @param recipientId The id of the recipient\\n    event FundsDistributed(uint256 amount, address grantee, address indexed token, address indexed recipientId);\\n\\n    /// @notice Emitted when a batch payout is successful\\n    /// @param sender The sender of the transaction\\n    event BatchPayoutSuccessful(address indexed sender);\\n\\n    /// ================================\\n    /// ========== Storage =============\\n    /// ================================\\n\\n    /// @notice Metadata containing the distribution data.\\n    Metadata public distributionMetadata;\\n\\n    /// @notice Flag to indicate whether to use the registry anchor or not.\\n    bool public useRegistryAnchor;\\n\\n    /// @notice Flag to indicate whether metadata is required or not.\\n    bool public metadataRequired;\\n\\n    /// @notice Flag to indicate whether the distribution has started or not.\\n    bool public distributionStarted;\\n\\n    /// @notice The timestamps in milliseconds for the start and end times.\\n    uint64 public registrationStartTime;\\n    uint64 public registrationEndTime;\\n    uint64 public allocationStartTime;\\n    uint64 public allocationEndTime;\\n\\n    /// @notice The total amount of tokens allocated to the payout.\\n    uint256 public totalPayoutAmount;\\n\\n    /// @notice The total number of recipients.\\n    uint256 public recipientsCounter;\\n\\n    /// @notice The registry contract interface.\\n    IRegistry private _registry;\\n\\n    /// @notice The merkle root of the distribution will be set by the pool manager.\\n    bytes32 public merkleRoot;\\n\\n    /// @notice This is a packed array of booleans, 'statuses[0]' is the first row of the bitmap and allows to\\n    /// store 256 bits to describe the status of 256 projects. 'statuses[1]' is the second row, and so on\\n    /// Instead of using 1 bit for each recipient status, we will use 4 bits for each status\\n    /// to allow 5 statuses:\\n    /// 0: none\\n    /// 1: pending\\n    /// 2: accepted\\n    /// 3: rejected\\n    /// 4: appealed\\n    /// Since it's a mapping the storage it's pre-allocated with zero values, so if we check the\\n    /// status of an existing recipient, the value is by default 0 (none).\\n    /// If we want to check the status of an recipient, we take its index from the `recipients` array\\n    /// and convert it to the 2-bits position in the bitmap.\\n    mapping(uint256 => uint256) public statusesBitMap;\\n\\n    /// @notice 'recipientId' => 'statusIndex'\\n    /// @dev 'statusIndex' is the index of the recipient in the 'statusesBitMap' bitmap.\\n    mapping(address => uint256) public recipientToStatusIndexes;\\n\\n    /// @notice This is a packed array of booleans to keep track of claims distributed.\\n    /// @dev _distributedBitMap[0] is the first row of the bitmap and allows to store 256 bits to describe\\n    /// the status of 256 claims\\n    mapping(uint256 => uint256) private _distributedBitMap;\\n\\n    /// @notice 'token' address => boolean (allowed = true).\\n    /// @dev This can be updated by the pool manager.\\n    mapping(address => bool) public allowedTokens;\\n\\n    /// @notice 'recipientId' => 'Recipient' struct.\\n    mapping(address => Recipient) internal _recipients;\\n\\n    /// ================================\\n    /// ========== Modifier ============\\n    /// ================================\\n\\n    /// @notice Modifier to check if the registration is active\\n    /// @dev This will revert if the registration has not started or if the registration has ended.\\n    modifier onlyActiveRegistration() {\\n        _checkOnlyActiveRegistration();\\n        _;\\n    }\\n\\n    /// @notice Modifier to check if the allocation is active\\n    /// @dev This will revert if the allocation has not started or if the allocation has ended.\\n    modifier onlyActiveAllocation() {\\n        _checkOnlyActiveAllocation();\\n        _;\\n    }\\n\\n    /// @notice Modifier to check if the allocation has ended\\n    /// @dev This will revert if the allocation has not ended.\\n    modifier onlyAfterAllocation() {\\n        _checkOnlyAfterAllocation();\\n        _;\\n    }\\n\\n    /// ===============================\\n    /// ======== Constructor ==========\\n    /// ===============================\\n\\n    /// @notice Constructor for the Donation Voting Merkle Distribution Strategy\\n    /// @param _allo The 'Allo' contract\\n    /// @param _name The name of the strategy\\n    constructor(address _allo, string memory _name) BaseStrategy(_allo, _name) {}\\n\\n    /// ===============================\\n    /// ========= Initialize ==========\\n    /// ===============================\\n\\n    /// @notice Initializes the strategy\\n    /// @dev This will revert if the strategy is already initialized and 'msg.sender' is not the 'Allo' contract.\\n    /// @param _poolId The 'poolId' to initialize\\n    /// @param _data The data to be decoded to initialize the strategy\\n    /// @custom:data InitializeData(bool _useRegistryAnchor, bool _metadataRequired, uint64 _registrationStartTime,\\n    ///               uint64 _registrationEndTime, uint64 _allocationStartTime, uint64 _allocationEndTime,\\n    ///               address _drips, address _dripsCaller, address _dripsAddressDriver, address[] memory _allowedTokens)\\n    function initialize(uint256 _poolId, bytes memory _data) external virtual override onlyAllo {\\n        (InitializeData memory initializeData) = abi.decode(_data, (InitializeData));\\n        _beforeInitialize(_poolId, initializeData);\\n        __donationVotingStrategyInit(_poolId, initializeData);\\n        _afterInitialize(_poolId, initializeData);\\n        emit Initialized(_poolId, _data);\\n    }\\n\\n    /// @notice Initializes this strategy as well as the BaseStrategy.\\n    /// @dev This will revert if the strategy is already initialized. Emits a 'TimestampsUpdated()' event.\\n    /// @param _poolId The 'poolId' to initialize\\n    /// @param _initializeData The data to be decoded to initialize the strategy\\n    function __donationVotingStrategyInit(uint256 _poolId, InitializeData memory _initializeData) internal {\\n        // Initialize the BaseStrategy with the '_poolId'\\n        __BaseStrategy_init(_poolId);\\n\\n        // Initialize required values\\n        useRegistryAnchor = _initializeData.useRegistryAnchor;\\n        metadataRequired = _initializeData.metadataRequired;\\n        _registry = allo.getRegistry();\\n\\n        // Set the updated timestamps\\n        registrationStartTime = _initializeData.registrationStartTime;\\n        registrationEndTime = _initializeData.registrationEndTime;\\n        allocationStartTime = _initializeData.allocationStartTime;\\n        allocationEndTime = _initializeData.allocationEndTime;\\n\\n        // If the timestamps are invalid this will revert - See details in '_isPoolTimestampValid'\\n        _isPoolTimestampValid(registrationStartTime, registrationEndTime, allocationStartTime, allocationEndTime);\\n\\n        // Emit that the timestamps have been updated with the updated values\\n        emit TimestampsUpdated(\\n            registrationStartTime, registrationEndTime, allocationStartTime, allocationEndTime, msg.sender\\n        );\\n\\n        uint256 allowedTokensLength = _initializeData.allowedTokens.length;\\n\\n        // If the length of the allowed tokens is zero, we will allow all tokens\\n        if (allowedTokensLength == 0) {\\n            // all tokens\\n            allowedTokens[address(0)] = true;\\n        }\\n\\n        // Loop through the allowed tokens and set them to true\\n        for (uint256 i; i < allowedTokensLength;) {\\n            allowedTokens[_initializeData.allowedTokens[i]] = true;\\n            unchecked {\\n                i++;\\n            }\\n        }\\n    }\\n\\n    /// ===============================\\n    /// ============ Views ============\\n    /// ===============================\\n\\n    /// @notice Get a recipient with a '_recipientId'\\n    /// @param _recipientId ID of the recipient\\n    /// @return recipient The recipient details\\n    function getRecipient(address _recipientId) external view returns (Recipient memory recipient) {\\n        return _getRecipient(_recipientId);\\n    }\\n\\n    /// @notice Get recipient status\\n    /// @dev This will return the 'Status' of the recipient, the 'Status' is used at the strategy\\n    ///      level and is different from the 'Status' which is used at the protocol level\\n    /// @param _recipientId ID of the recipient\\n    /// @return Status of the recipient\\n    function _getRecipientStatus(address _recipientId) internal view override returns (Status) {\\n        return Status(_getUintRecipientStatus(_recipientId));\\n    }\\n\\n    /// ===============================\\n    /// ======= External/Custom =======\\n    /// ===============================\\n\\n    /// @notice Sets recipient statuses.\\n    /// @dev The statuses are stored in a bitmap of 4 bits for each recipient. The first 4 bits of the 256 bits represent\\n    ///      the status of the first recipient, the second 4 bits represent the status of the second recipient, and so on.\\n    ///      'msg.sender' must be a pool manager and the registration must be active.\\n    /// Statuses:\\n    /// - 0: none\\n    /// - 1: pending\\n    /// - 2: accepted\\n    /// - 3: rejected\\n    /// - 4: appealed\\n    /// Emits the RecipientStatusUpdated() event.\\n    /// @param statuses new statuses\\n    function reviewRecipients(ApplicationStatus[] memory statuses)\\n        external\\n        onlyActiveRegistration\\n        onlyPoolManager(msg.sender)\\n    {\\n        // Loop through the statuses and set the status\\n        for (uint256 i; i < statuses.length;) {\\n            uint256 rowIndex = statuses[i].index;\\n            uint256 fullRow = statuses[i].statusRow;\\n\\n            statusesBitMap[rowIndex] = fullRow;\\n\\n            // Emit that the recipient status has been updated with the values\\n            emit RecipientStatusUpdated(rowIndex, fullRow, msg.sender);\\n\\n            unchecked {\\n                i++;\\n            }\\n        }\\n    }\\n\\n    /// @notice Sets the start and end dates.\\n    /// @dev The timestamps are in milliseconds for the start and end times. The 'msg.sender' must be a pool manager.\\n    ///      Emits a 'TimestampsUpdated()' event.\\n    /// @param _registrationStartTime The start time for the registration\\n    /// @param _registrationEndTime The end time for the registration\\n    /// @param _allocationStartTime The start time for the allocation\\n    /// @param _allocationEndTime The end time for the allocation\\n    function updatePoolTimestamps(\\n        uint64 _registrationStartTime,\\n        uint64 _registrationEndTime,\\n        uint64 _allocationStartTime,\\n        uint64 _allocationEndTime\\n    ) external onlyPoolManager(msg.sender) {\\n        // If the timestamps are invalid this will revert - See details in '_isPoolTimestampValid'\\n        _isPoolTimestampValid(_registrationStartTime, _registrationEndTime, _allocationStartTime, _allocationEndTime);\\n\\n        // Set the updated timestamps\\n        registrationStartTime = _registrationStartTime;\\n        registrationEndTime = _registrationEndTime;\\n        allocationStartTime = _allocationStartTime;\\n        allocationEndTime = _allocationEndTime;\\n\\n        // Emit that the timestamps have been updated with the updated values\\n        emit TimestampsUpdated(\\n            registrationStartTime, registrationEndTime, allocationStartTime, allocationEndTime, msg.sender\\n        );\\n    }\\n\\n    /// @notice Withdraw funds from pool\\n    /// @dev This can only be called after the allocation has ended and 30 days have passed. If the\\n    ///      '_amount' is greater than the pool amount or if 'msg.sender' is not a pool manager.\\n    /// @param _amount The amount to be withdrawn\\n    function withdraw(uint256 _amount) external onlyPoolManager(msg.sender) {\\n        if (block.timestamp <= allocationEndTime + 30 days) {\\n            revert INVALID();\\n        }\\n\\n        IAllo.Pool memory pool = allo.getPool(poolId);\\n\\n        if (_amount > poolAmount) {\\n            revert INVALID();\\n        }\\n\\n        poolAmount -= _amount;\\n\\n        // Transfer the tokens to the 'msg.sender' (pool manager calling function)\\n        _transferAmount(pool.token, msg.sender, _amount);\\n    }\\n\\n    /// ==================================\\n    /// ============ Merkle ==============\\n    /// ==================================\\n\\n    /// @notice Invoked by round operator to update the merkle root and distribution Metadata.\\n    /// @dev This can only be called after the allocation has ended and 'msg.sender' must be a pool manager and allocation must have ended.\\n    ///      Emits a 'DistributionUpdated()' event.\\n    /// @param _merkleRoot The merkle root of the distribution\\n    /// @param _distributionMetadata The metadata of the distribution\\n    function updateDistribution(bytes32 _merkleRoot, Metadata memory _distributionMetadata)\\n        external\\n        onlyAfterAllocation\\n        onlyPoolManager(msg.sender)\\n    {\\n        // If the distribution has already started this will revert, you can only\\n        // update the distribution before it has started\\n        if (distributionStarted) {\\n            revert INVALID();\\n        }\\n\\n        merkleRoot = _merkleRoot;\\n        distributionMetadata = _distributionMetadata;\\n\\n        // Emit that the distribution has been updated\\n        emit DistributionUpdated(merkleRoot, distributionMetadata);\\n    }\\n\\n    /// @notice Checks if distribution is set.\\n    /// @return 'true' if distribution is set, otherwise 'false'\\n    function isDistributionSet() external view returns (bool) {\\n        return merkleRoot != \\\"\\\";\\n    }\\n\\n    /// @notice Utility function to check if distribution is done.\\n    /// @param _index index of the distribution\\n    /// @return 'true' if distribution is completed, otherwise 'false'\\n    function hasBeenDistributed(uint256 _index) external view returns (bool) {\\n        return _hasBeenDistributed(_index);\\n    }\\n\\n    /// ====================================\\n    /// ============ Internal ==============\\n    /// ====================================\\n\\n    /// @notice Checks if the registration is active and reverts if not.\\n    /// @dev This will revert if the registration has not started or if the registration has ended.\\n    function _checkOnlyActiveRegistration() internal view {\\n        if (registrationStartTime > block.timestamp || block.timestamp > registrationEndTime) {\\n            revert REGISTRATION_NOT_ACTIVE();\\n        }\\n    }\\n\\n    /// @notice Checks if the allocation is active and reverts if not.\\n    /// @dev This will revert if the allocation has not started or if the allocation has ended.\\n    function _checkOnlyActiveAllocation() internal view {\\n        if (allocationStartTime > block.timestamp || block.timestamp > allocationEndTime) {\\n            revert ALLOCATION_NOT_ACTIVE();\\n        }\\n    }\\n\\n    /// @notice Checks if the allocation has ended and reverts if not.\\n    /// @dev This will revert if the allocation has not ended.\\n    function _checkOnlyAfterAllocation() internal view {\\n        if (block.timestamp < allocationEndTime) {\\n            revert ALLOCATION_NOT_ENDED();\\n        }\\n    }\\n\\n    /// @notice Checks if address is eligible allocator.\\n    /// @return Always returns true for this strategy\\n    function _isValidAllocator(address) internal pure override returns (bool) {\\n        return true;\\n    }\\n\\n    /// @notice Checks if the timestamps are valid.\\n    /// @dev This will revert if any of the timestamps are invalid. This is determined by the strategy\\n    /// and may vary from strategy to strategy. Checks if '_registrationStartTime' is less than the\\n    /// current 'block.timestamp' or if '_registrationStartTime' is greater than the '_registrationEndTime'\\n    /// or if '_registrationStartTime' is greater than the '_allocationStartTime' or if '_registrationEndTime'\\n    /// is greater than the '_allocationEndTime' or if '_allocationStartTime' is greater than the '_allocationEndTime'.\\n    /// If any of these conditions are true, this will revert.\\n    /// @param _registrationStartTime The start time for the registration\\n    /// @param _registrationEndTime The end time for the registration\\n    /// @param _allocationStartTime The start time for the allocation\\n    /// @param _allocationEndTime The end time for the allocation\\n    function _isPoolTimestampValid(\\n        uint64 _registrationStartTime,\\n        uint64 _registrationEndTime,\\n        uint64 _allocationStartTime,\\n        uint64 _allocationEndTime\\n    ) internal view {\\n        if (\\n            block.timestamp > _registrationStartTime || _registrationStartTime > _registrationEndTime\\n                || _registrationStartTime > _allocationStartTime || _allocationStartTime > _allocationEndTime\\n                || _registrationEndTime > _allocationEndTime\\n        ) {\\n            revert INVALID();\\n        }\\n    }\\n\\n    /// @notice Checks whether a pool is active or not.\\n    /// @dev This will return true if the current 'block timestamp' is greater than or equal to the\\n    /// 'registrationStartTime' and less than or equal to the 'registrationEndTime'.\\n    /// @return 'true' if pool is active, otherwise 'false'\\n    function _isPoolActive() internal view override returns (bool) {\\n        if (registrationStartTime <= block.timestamp && block.timestamp <= registrationEndTime) {\\n            return true;\\n        }\\n        return false;\\n    }\\n\\n    /// @notice Submit recipient to pool and set their status.\\n    /// @param _data The data to be decoded.\\n    /// @custom:data if 'useRegistryAnchor' is 'true' (address recipientId, address recipientAddress, Metadata metadata)\\n    /// @custom:data if 'useRegistryAnchor' is 'false' (address recipientAddress, address registryAnchor, Metadata metadata)\\n    /// @param _sender The sender of the transaction\\n    /// @return recipientId The ID of the recipient\\n    function _registerRecipient(bytes memory _data, address _sender)\\n        internal\\n        override\\n        onlyActiveRegistration\\n        returns (address recipientId)\\n    {\\n        bool isUsingRegistryAnchor;\\n        address recipientAddress;\\n        address registryAnchor;\\n        Metadata memory metadata;\\n\\n        // decode data custom to this strategy\\n        if (useRegistryAnchor) {\\n            (recipientId, recipientAddress, metadata) = abi.decode(_data, (address, address, Metadata));\\n\\n            // If the sender is not a profile member this will revert\\n            if (!_isProfileMember(recipientId, _sender)) {\\n                revert UNAUTHORIZED();\\n            }\\n        } else {\\n            (recipientAddress, registryAnchor, metadata) = abi.decode(_data, (address, address, Metadata));\\n\\n            // Set this to 'true' if the registry anchor is not the zero address\\n            isUsingRegistryAnchor = registryAnchor != address(0);\\n\\n            // If using the 'registryAnchor' we set the 'recipientId' to the 'registryAnchor', otherwise we set it to the 'msg.sender'\\n            recipientId = isUsingRegistryAnchor ? registryAnchor : _sender;\\n\\n            // Checks if the '_sender' is a member of the profile 'anchor' being used and reverts if not\\n            if (isUsingRegistryAnchor && !_isProfileMember(recipientId, _sender)) {\\n                revert UNAUTHORIZED();\\n            }\\n        }\\n\\n        // If the metadata is required and the metadata is invalid this will revert\\n        if (metadataRequired && (bytes(metadata.pointer).length == 0 || metadata.protocol == 0)) {\\n            revert INVALID_METADATA();\\n        }\\n\\n        // If the recipient address is the zero address this will revert\\n        if (recipientAddress == address(0)) {\\n            revert RECIPIENT_ERROR(recipientId);\\n        }\\n\\n        // Get the recipient\\n        Recipient storage recipient = _recipients[recipientId];\\n\\n        // update the recipients data\\n        recipient.recipientAddress = recipientAddress;\\n        recipient.metadata = metadata;\\n        recipient.useRegistryAnchor = useRegistryAnchor ? true : isUsingRegistryAnchor;\\n\\n        uint8 currentStatus = _getUintRecipientStatus(recipientId);\\n\\n        if (currentStatus == uint8(Status.None)) {\\n            // recipient registering new application\\n            recipientToStatusIndexes[recipientId] = recipientsCounter;\\n            _setRecipientStatus(recipientId, uint8(Status.Pending));\\n\\n            bytes memory extendedData = abi.encode(_data, recipientsCounter);\\n            emit Registered(recipientId, extendedData, _sender);\\n\\n            recipientsCounter++;\\n        } else {\\n            if (currentStatus == uint8(Status.Accepted)) {\\n                // recipient updating accepted application\\n                _setRecipientStatus(recipientId, uint8(Status.Pending));\\n            } else if (currentStatus == uint8(Status.Rejected)) {\\n                // recipient updating rejected application\\n                _setRecipientStatus(recipientId, uint8(Status.Appealed));\\n            }\\n            emit UpdatedRegistration(recipientId, _data, _sender, _getUintRecipientStatus(recipientId));\\n        }\\n    }\\n\\n    /// @notice Distribute funds to recipients.\\n    /// @dev 'distributionStarted' will be set to 'true' when called. Only the pool manager can call.\\n    ///      Emits a 'BatchPayoutSuccessful()' event.\\n    /// @param _data The data to be decoded\\n    /// @custom:data '(Distribution[] distributions)'\\n    /// @param _sender The sender of the transaction\\n    function _distribute(address[] memory, bytes memory _data, address _sender)\\n        internal\\n        virtual\\n        override\\n        onlyPoolManager(_sender)\\n    {\\n        if (!distributionStarted) {\\n            distributionStarted = true;\\n        }\\n\\n        // Decode the '_data' to get the distributions\\n        Distribution[] memory distributions = abi.decode(_data, (Distribution[]));\\n        uint256 length = distributions.length;\\n\\n        // Loop through the distributions and distribute the funds\\n        for (uint256 i; i < length;) {\\n            _distributeSingle(distributions[i]);\\n            unchecked {\\n                i++;\\n            }\\n        }\\n\\n        // Emit that the batch payout was successful\\n        emit BatchPayoutSuccessful(_sender);\\n    }\\n\\n    /// @notice Allocate tokens to recipient.\\n    /// @dev This can only be called during the allocation period. Emits an 'Allocated()' event.\\n    /// @param _data The data to be decoded\\n    /// @custom:data (address recipientId, uint256 amount, address token)\\n    /// @param _sender The sender of the transaction\\n    function _allocate(bytes memory _data, address _sender) internal virtual override onlyActiveAllocation {\\n        // Decode the '_data' to get the recipientId, amount and token\\n        (address recipientId, uint256 amount, address token) = abi.decode(_data, (address, uint256, address));\\n\\n        // If the recipient status is not 'Accepted' this will revert, the recipient must be accepted through registration\\n        if (Status(_getUintRecipientStatus(recipientId)) != Status.Accepted) {\\n            revert RECIPIENT_ERROR(recipientId);\\n        }\\n\\n        // The token must be in the allowed token list and not be native token or zero address\\n        if (!allowedTokens[token] && !allowedTokens[address(0)]) {\\n            revert INVALID();\\n        }\\n\\n        // If the token is native, the amount must be equal to the value sent, otherwise it reverts\\n        if (msg.value > 0 && token != NATIVE || token == NATIVE && msg.value != amount) {\\n            revert INVALID();\\n        }\\n\\n        // Emit that the amount has been allocated to the recipient by the sender\\n        emit Allocated(recipientId, amount, token, _sender);\\n    }\\n\\n    /// @notice Check if sender is profile owner or member.\\n    /// @param _anchor Anchor of the profile\\n    /// @param _sender The sender of the transaction\\n    /// @return 'true' if the '_sender' is a profile member, otherwise 'false'\\n    function _isProfileMember(address _anchor, address _sender) internal view virtual returns (bool) {\\n        IRegistry.Profile memory profile = _registry.getProfileByAnchor(_anchor);\\n        return _registry.isOwnerOrMemberOfProfile(profile.id, _sender);\\n    }\\n\\n    /// @notice Get the recipient details.\\n    /// @param _recipientId Id of the recipient\\n    /// @return Recipient details\\n    function _getRecipient(address _recipientId) internal view returns (Recipient memory) {\\n        return _recipients[_recipientId];\\n    }\\n\\n    /// @notice Returns the payout summary for the accepted recipient.\\n    /// @param _data The data to be decoded\\n    /// @custom:data '(Distribution)'\\n    /// @return 'PayoutSummary' for a recipient\\n    function _getPayout(address, bytes memory _data) internal view override returns (PayoutSummary memory) {\\n        // Decode the '_data' to get the distribution\\n        Distribution memory distribution = abi.decode(_data, (Distribution));\\n\\n        uint256 index = distribution.index;\\n        address recipientId = distribution.recipientId;\\n        uint256 amount = distribution.amount;\\n        bytes32[] memory merkleProof = distribution.merkleProof;\\n\\n        address recipientAddress = _getRecipient(recipientId).recipientAddress;\\n\\n        // Validate the distribution\\n        if (_validateDistribution(index, recipientId, recipientAddress, amount, merkleProof)) {\\n            // Return a 'PayoutSummary' with the 'recipientAddress' and 'amount'\\n            return PayoutSummary(recipientAddress, amount);\\n        }\\n\\n        // If the distribution is not valid, return a payout summary with the amount set to zero\\n        return PayoutSummary(recipientAddress, 0);\\n    }\\n\\n    /// @notice Validate the distribution for the payout.\\n    /// @param _index index of the distribution\\n    /// @param _recipientId Id of the recipient\\n    /// @param _recipientAddress Address of the recipient\\n    /// @param _amount Amount of tokens to be distributed\\n    /// @param _merkleProof Merkle proof of the distribution\\n    /// @return 'true' if the distribution is valid, otherwise 'false'\\n    function _validateDistribution(\\n        uint256 _index,\\n        address _recipientId,\\n        address _recipientAddress,\\n        uint256 _amount,\\n        bytes32[] memory _merkleProof\\n    ) internal view returns (bool) {\\n        // If the '_index' has been distributed this will return 'false'\\n        if (_hasBeenDistributed(_index)) {\\n            return false;\\n        }\\n\\n        // Generate the node that will be verified in the 'merkleRoot'\\n        bytes32 node = keccak256(bytes.concat(keccak256(abi.encode(_index, _recipientId, _recipientAddress, _amount))));\\n\\n        // If the node is not verified in the 'merkleRoot' this will return 'false'\\n        if (!MerkleProof.verify(_merkleProof, merkleRoot, node)) {\\n            return false;\\n        }\\n\\n        // Return 'true', the distribution is valid at this point\\n        return true;\\n    }\\n\\n    /// @notice Check if the distribution has been distributed.\\n    /// @param _index index of the distribution\\n    /// @return 'true' if the distribution has been distributed, otherwise 'false'\\n    function _hasBeenDistributed(uint256 _index) internal view returns (bool) {\\n        // Get the word index by dividing the '_index' by 256\\n        uint256 distributedWordIndex = _index / 256;\\n\\n        // Get the bit index by getting the remainder of the '_index' divided by 256\\n        uint256 distributedBitIndex = _index % 256;\\n\\n        // Get the word from the '_distributedBitMap' using the 'distributedWordIndex'\\n        uint256 distributedWord = _distributedBitMap[distributedWordIndex];\\n\\n        // Get the mask by shifting 1 to the left of the 'distributedBitIndex'\\n        uint256 mask = (1 << distributedBitIndex);\\n\\n        // Return 'true' if the 'distributedWord' and 'mask' are equal to the 'mask'\\n        return distributedWord & mask == mask;\\n    }\\n\\n    /// @notice Mark distribution as done.\\n    /// @param _index index of the distribution\\n    function _setDistributed(uint256 _index) internal {\\n        // Get the word index by dividing the '_index' by 256\\n        uint256 distributedWordIndex = _index / 256;\\n\\n        // Get the bit index by getting the remainder of the '_index' divided by 256\\n        uint256 distributedBitIndex = _index % 256;\\n\\n        // Set the bit in the '_distributedBitMap' shifting 1 to the left of the 'distributedBitIndex'\\n        _distributedBitMap[distributedWordIndex] |= (1 << distributedBitIndex);\\n    }\\n\\n    /// @notice Distribute funds to recipient.\\n    /// @dev Emits a 'FundsDistributed()' event\\n    /// @param _distribution Distribution to be distributed\\n    function _distributeSingle(Distribution memory _distribution) internal virtual {\\n        uint256 index = _distribution.index;\\n        address recipientId = _distribution.recipientId;\\n        uint256 amount = _distribution.amount;\\n        bytes32[] memory merkleProof = _distribution.merkleProof;\\n\\n        address recipientAddress = _recipients[recipientId].recipientAddress;\\n\\n        // Validate the distribution and transfer the funds to the recipient, otherwise revert if not valid\\n        if (_validateDistribution(index, recipientId, recipientAddress, amount, merkleProof)) {\\n            IAllo.Pool memory pool = allo.getPool(poolId);\\n\\n            // Set the distribution as distributed\\n            _setDistributed(index);\\n\\n            // Update the pool amount\\n            poolAmount -= amount;\\n\\n            // Transfer the amount to the recipient\\n            _transferAmount(pool.token, payable(recipientAddress), amount);\\n\\n            // Emit that the funds have been distributed to the recipient\\n            emit FundsDistributed(amount, recipientAddress, pool.token, recipientId);\\n        } else {\\n            revert RECIPIENT_ERROR(recipientId);\\n        }\\n    }\\n\\n    /// @notice Set the recipient status.\\n    /// @param _recipientId ID of the recipient\\n    /// @param _status Status of the recipient\\n    function _setRecipientStatus(address _recipientId, uint256 _status) internal {\\n        // Get the row index, column index and current row\\n        (uint256 rowIndex, uint256 colIndex, uint256 currentRow) = _getStatusRowColumn(_recipientId);\\n\\n        // Calculate the 'newRow'\\n        uint256 newRow = currentRow & ~(15 << colIndex);\\n\\n        // Add the status to the mapping\\n        statusesBitMap[rowIndex] = newRow | (_status << colIndex);\\n    }\\n\\n    /// @notice Get recipient status\\n    /// @param _recipientId ID of the recipient\\n    /// @return status The status of the recipient\\n    function _getUintRecipientStatus(address _recipientId) internal view returns (uint8 status) {\\n        // Get the column index and current row\\n        (, uint256 colIndex, uint256 currentRow) = _getStatusRowColumn(_recipientId);\\n\\n        // Get the status from the 'currentRow' shifting by the 'colIndex'\\n        status = uint8((currentRow >> colIndex) & 15);\\n\\n        // Return the status\\n        return status;\\n    }\\n\\n    /// @notice Get recipient status 'rowIndex', 'colIndex' and 'currentRow'.\\n    /// @param _recipientId ID of the recipient\\n    /// @return (rowIndex, colIndex, currentRow)\\n    function _getStatusRowColumn(address _recipientId) internal view returns (uint256, uint256, uint256) {\\n        uint256 recipientIndex = recipientToStatusIndexes[_recipientId];\\n\\n        uint256 rowIndex = recipientIndex / 64; // 256 / 4\\n        uint256 colIndex = (recipientIndex % 64) * 4;\\n\\n        return (rowIndex, colIndex, statusesBitMap[rowIndex]);\\n    }\\n\\n    /// @notice Contract should be able to receive ETH\\n    receive() external payable {}\\n\\n    /// ===================================\\n    /// ============== Hooks ==============\\n    /// ===================================\\n\\n    /// @notice Hook called before initializing the strategy.\\n    /// @param _poolId The 'poolId' to initialize\\n    /// @param _initializeData The data to be decoded to initialize the strategy\\n    function _beforeInitialize(uint256 _poolId, InitializeData memory _initializeData) internal virtual {}\\n\\n    /// @notice Hook called after initializing the strategy.\\n    /// @param _poolId The 'poolId' to initialize\\n    /// @param _initializeData The data to be decoded to initialize the strategy\\n    function _afterInitialize(uint256 _poolId, InitializeData memory _initializeData) internal virtual {}\\n}\\n\\n// \\n\\ninterface AddressDriver {\\n    type StreamConfig is uint256;\\n\\n    event AdminChanged(address previousAdmin, address newAdmin);\\n    event BeaconUpgraded(address indexed beacon);\\n    event NewAdminProposed(address indexed currentAdmin, address indexed newAdmin);\\n    event Paused(address indexed pauser);\\n    event PauserGranted(address indexed pauser, address indexed admin);\\n    event PauserRevoked(address indexed pauser, address indexed admin);\\n    event Unpaused(address indexed pauser);\\n    event Upgraded(address indexed implementation);\\n\\n    struct AccountMetadata {\\n        bytes32 key;\\n        bytes value;\\n    }\\n\\n    struct SplitsReceiver {\\n        uint256 accountId;\\n        uint32 weight;\\n    }\\n\\n    struct StreamReceiver {\\n        uint256 accountId;\\n        StreamConfig config;\\n    }\\n\\n    function acceptAdmin() external;\\n    function admin() external view returns (address);\\n    function allPausers() external view returns (address[] memory pausersList);\\n    function calcAccountId(address addr) external view returns (uint256 accountId);\\n    function collect(address erc20, address transferTo) external returns (uint128 amt);\\n    function drips() external view returns (address);\\n    function driverId() external view returns (uint32);\\n    function emitAccountMetadata(AccountMetadata[] memory accountMetadata) external;\\n    function give(uint256 receiver, address erc20, uint128 amt) external;\\n    function grantPauser(address pauser) external;\\n    function implementation() external view returns (address);\\n    function isPaused() external view returns (bool);\\n    function isPauser(address pauser) external view returns (bool isAddrPauser);\\n    function isTrustedForwarder(address forwarder) external view returns (bool);\\n    function pause() external;\\n    function proposeNewAdmin(address newAdmin) external;\\n    function proposedAdmin() external view returns (address);\\n    function proxiableUUID() external view returns (bytes32);\\n    function renounceAdmin() external;\\n    function revokePauser(address pauser) external;\\n    function setSplits(SplitsReceiver[] memory receivers) external;\\n    function setStreams(\\n        address erc20,\\n        StreamReceiver[] memory currReceivers,\\n        int128 balanceDelta,\\n        StreamReceiver[] memory newReceivers,\\n        uint32 maxEndHint1,\\n        uint32 maxEndHint2,\\n        address transferTo\\n    ) external returns (int128 realBalanceDelta);\\n    function unpause() external;\\n    function upgradeTo(address newImplementation) external;\\n    function upgradeToAndCall(address newImplementation, bytes memory data) external payable;\\n}\\n\\ninterface Caller {\\n    event Authorized(address indexed sender, address indexed authorized);\\n    event CalledAs(address indexed sender, address indexed authorized);\\n    event CalledSigned(address indexed sender, uint256 nonce);\\n    event EIP712DomainChanged();\\n    event NonceSet(address indexed sender, uint256 newNonce);\\n    event Unauthorized(address indexed sender, address indexed unauthorized);\\n    event UnauthorizedAll(address indexed sender);\\n\\n    struct Call {\\n        address target;\\n        bytes data;\\n        uint256 value;\\n    }\\n\\n    function MAX_NONCE_INCREASE() external view returns (uint256);\\n    function allAuthorized(address sender) external view returns (address[] memory authorized);\\n    function authorize(address user) external;\\n    function callAs(address sender, address target, bytes memory data)\\n        external\\n        payable\\n        returns (bytes memory returnData);\\n    function callBatched(Call[] memory calls) external payable returns (bytes[] memory returnData);\\n    function callSigned(address sender, address target, bytes memory data, uint256 deadline, bytes32 r, bytes32 sv)\\n        external\\n        payable\\n        returns (bytes memory returnData);\\n    function eip712Domain()\\n        external\\n        view\\n        returns (\\n            bytes1 fields,\\n            string memory name,\\n            string memory version,\\n            uint256 chainId,\\n            address verifyingContract,\\n            bytes32 salt,\\n            uint256[] memory extensions\\n        );\\n    function isAuthorized(address sender, address user) external view returns (bool authorized);\\n    function isTrustedForwarder(address forwarder) external view returns (bool);\\n    function nonce(address sender) external view returns (uint256);\\n    function setNonce(uint256 newNonce) external;\\n    function unauthorize(address user) external;\\n    function unauthorizeAll() external;\\n}\\n// \\n\\ninterface Drips {\\n    event AccountMetadataEmitted(uint256 indexed accountId, bytes32 indexed key, bytes value);\\n    event AdminChanged(address previousAdmin, address newAdmin);\\n    event BeaconUpgraded(address indexed beacon);\\n    event Collectable(uint256 indexed accountId, address indexed erc20, uint128 amt);\\n    event Collected(uint256 indexed accountId, address indexed erc20, uint128 collected);\\n    event DriverAddressUpdated(uint32 indexed driverId, address indexed oldDriverAddr, address indexed newDriverAddr);\\n    event DriverRegistered(uint32 indexed driverId, address indexed driverAddr);\\n    event Given(uint256 indexed accountId, uint256 indexed receiver, address indexed erc20, uint128 amt);\\n    event NewAdminProposed(address indexed currentAdmin, address indexed newAdmin);\\n    event Paused(address indexed pauser);\\n    event PauserGranted(address indexed pauser, address indexed admin);\\n    event PauserRevoked(address indexed pauser, address indexed admin);\\n    event ReceivedStreams(uint256 indexed accountId, address indexed erc20, uint128 amt, uint32 receivableCycles);\\n    event Split(uint256 indexed accountId, uint256 indexed receiver, address indexed erc20, uint128 amt);\\n    event SplitsReceiverSeen(bytes32 indexed receiversHash, uint256 indexed accountId, uint32 weight);\\n    event SplitsSet(uint256 indexed accountId, bytes32 indexed receiversHash);\\n    event SqueezedStreams(\\n        uint256 indexed accountId,\\n        address indexed erc20,\\n        uint256 indexed senderId,\\n        uint128 amt,\\n        bytes32[] streamsHistoryHashes\\n    );\\n    event StreamReceiverSeen(bytes32 indexed receiversHash, uint256 indexed accountId, uint256 config);\\n    event StreamsSet(\\n        uint256 indexed accountId,\\n        address indexed erc20,\\n        bytes32 indexed receiversHash,\\n        bytes32 streamsHistoryHash,\\n        uint128 balance,\\n        uint32 maxEnd\\n    );\\n    event Unpaused(address indexed pauser);\\n    event Upgraded(address indexed implementation);\\n    event Withdrawn(address indexed erc20, address indexed receiver, uint256 amt);\\n\\n    struct AccountMetadata {\\n        bytes32 key;\\n        bytes value;\\n    }\\n\\n    struct SplitsReceiver {\\n        uint256 accountId;\\n        uint32 weight;\\n    }\\n\\n    struct StreamReceiver {\\n        uint256 accountId;\\n        uint256 config;\\n    }\\n\\n    struct StreamsHistory {\\n        bytes32 streamsHash;\\n        StreamReceiver[] receivers;\\n        uint32 updateTime;\\n        uint32 maxEnd;\\n    }\\n\\n    function AMT_PER_SEC_EXTRA_DECIMALS() external view returns (uint8);\\n    function AMT_PER_SEC_MULTIPLIER() external view returns (uint160);\\n    function DRIVER_ID_OFFSET() external view returns (uint8);\\n    function MAX_SPLITS_RECEIVERS() external view returns (uint256);\\n    function MAX_STREAMS_RECEIVERS() external view returns (uint256);\\n    function MAX_TOTAL_BALANCE() external view returns (uint128);\\n    function TOTAL_SPLITS_WEIGHT() external view returns (uint32);\\n    function acceptAdmin() external;\\n    function admin() external view returns (address);\\n    function allPausers() external view returns (address[] memory pausersList);\\n    function balanceAt(uint256 accountId, address erc20, StreamReceiver[] memory currReceivers, uint32 timestamp)\\n        external\\n        view\\n        returns (uint128 balance);\\n    function balances(address erc20) external view returns (uint128 streamsBalance, uint128 splitsBalance);\\n    function collect(uint256 accountId, address erc20) external returns (uint128 amt);\\n    function collectable(uint256 accountId, address erc20) external view returns (uint128 amt);\\n    function cycleSecs() external view returns (uint32);\\n    function driverAddress(uint32 driverId) external view returns (address driverAddr);\\n    function emitAccountMetadata(uint256 accountId, AccountMetadata[] memory accountMetadata) external;\\n    function give(uint256 accountId, uint256 receiver, address erc20, uint128 amt) external;\\n    function grantPauser(address pauser) external;\\n    function hashSplits(SplitsReceiver[] memory receivers) external pure returns (bytes32 receiversHash);\\n    function hashStreams(StreamReceiver[] memory receivers) external pure returns (bytes32 streamsHash);\\n    function hashStreamsHistory(bytes32 oldStreamsHistoryHash, bytes32 streamsHash, uint32 updateTime, uint32 maxEnd)\\n        external\\n        pure\\n        returns (bytes32 streamsHistoryHash);\\n    function implementation() external view returns (address);\\n    function isPaused() external view returns (bool);\\n    function isPauser(address pauser) external view returns (bool isAddrPauser);\\n    function minAmtPerSec() external view returns (uint160);\\n    function nextDriverId() external view returns (uint32 driverId);\\n    function pause() external;\\n    function proposeNewAdmin(address newAdmin) external;\\n    function proposedAdmin() external view returns (address);\\n    function proxiableUUID() external view returns (bytes32);\\n    function receivableStreamsCycles(uint256 accountId, address erc20) external view returns (uint32 cycles);\\n    function receiveStreams(uint256 accountId, address erc20, uint32 maxCycles)\\n        external\\n        returns (uint128 receivedAmt);\\n    function receiveStreamsResult(uint256 accountId, address erc20, uint32 maxCycles)\\n        external\\n        view\\n        returns (uint128 receivableAmt);\\n    function registerDriver(address driverAddr) external returns (uint32 driverId);\\n    function renounceAdmin() external;\\n    function revokePauser(address pauser) external;\\n    function setSplits(uint256 accountId, SplitsReceiver[] memory receivers) external;\\n    function setStreams(\\n        uint256 accountId,\\n        address erc20,\\n        StreamReceiver[] memory currReceivers,\\n        int128 balanceDelta,\\n        StreamReceiver[] memory newReceivers,\\n        uint32 maxEndHint1,\\n        uint32 maxEndHint2\\n    ) external returns (int128 realBalanceDelta);\\n    function split(uint256 accountId, address erc20, SplitsReceiver[] memory currReceivers)\\n        external\\n        returns (uint128 collectableAmt, uint128 splitAmt);\\n    function splitResult(uint256 accountId, SplitsReceiver[] memory currReceivers, uint128 amount)\\n        external\\n        view\\n        returns (uint128 collectableAmt, uint128 splitAmt);\\n    function splitsHash(uint256 accountId) external view returns (bytes32 currSplitsHash);\\n    function splittable(uint256 accountId, address erc20) external view returns (uint128 amt);\\n    function squeezeStreams(\\n        uint256 accountId,\\n        address erc20,\\n        uint256 senderId,\\n        bytes32 historyHash,\\n        StreamsHistory[] memory streamsHistory\\n    ) external returns (uint128 amt);\\n    function squeezeStreamsResult(\\n        uint256 accountId,\\n        address erc20,\\n        uint256 senderId,\\n        bytes32 historyHash,\\n        StreamsHistory[] memory streamsHistory\\n    ) external view returns (uint128 amt);\\n    function streamsState(uint256 accountId, address erc20)\\n        external\\n        view\\n        returns (bytes32 streamsHash, bytes32 streamsHistoryHash, uint32 updateTime, uint128 balance, uint32 maxEnd);\\n    function unpause() external;\\n    function updateDriverAddress(uint32 driverId, address newDriverAddr) external;\\n    function upgradeTo(address newImplementation) external;\\n    function upgradeToAndCall(address newImplementation, bytes memory data) external payable;\\n    function withdraw(address erc20, address receiver, uint256 amt) external;\\n}\\n\\n// OpenZeppelin Contracts (last updated v4.9.0) (token/ERC20/IERC20.sol)\\n\\n/**\\n * @dev Interface of the ERC20 standard as defined in the EIP.\\n */\\ninterface IERC20 {\\n    /**\\n     * @dev Emitted when `value` tokens are moved from one account (`from`) to\\n     * another (`to`).\\n     *\\n     * Note that `value` may be zero.\\n     */\\n    event Transfer(address indexed from, address indexed to, uint256 value);\\n\\n    /**\\n     * @dev Emitted when the allowance of a `spender` for an `owner` is set by\\n     * a call to {approve}. `value` is the new allowance.\\n     */\\n    event Approval(address indexed owner, address indexed spender, uint256 value);\\n\\n    /**\\n     * @dev Returns the amount of tokens in existence.\\n     */\\n    function totalSupply() external view returns (uint256);\\n\\n    /**\\n     * @dev Returns the amount of tokens owned by `account`.\\n     */\\n    function balanceOf(address account) external view returns (uint256);\\n\\n    /**\\n     * @dev Moves `amount` tokens from the caller's account to `to`.\\n     *\\n     * Returns a boolean value indicating whether the operation succeeded.\\n     *\\n     * Emits a {Transfer} event.\\n     */\\n    function transfer(address to, uint256 amount) external returns (bool);\\n\\n    /**\\n     * @dev Returns the remaining number of tokens that `spender` will be\\n     * allowed to spend on behalf of `owner` through {transferFrom}. This is\\n     * zero by default.\\n     *\\n     * This value changes when {approve} or {transferFrom} are called.\\n     */\\n    function allowance(address owner, address spender) external view returns (uint256);\\n\\n    /**\\n     * @dev Sets `amount` as the allowance of `spender` over the caller's tokens.\\n     *\\n     * Returns a boolean value indicating whether the operation succeeded.\\n     *\\n     * IMPORTANT: Beware that changing an allowance with this method brings the risk\\n     * that someone may use both the old and the new allowance by unfortunate\\n     * transaction ordering. One possible solution to mitigate this race\\n     * condition is to first reduce the spender's allowance to 0 and set the\\n     * desired value afterwards:\\n     * https://github.com/ethereum/EIPs/issues/20#issuecomment-263524729\\n     *\\n     * Emits an {Approval} event.\\n     */\\n    function approve(address spender, uint256 amount) external returns (bool);\\n\\n    /**\\n     * @dev Moves `amount` tokens from `from` to `to` using the\\n     * allowance mechanism. `amount` is then deducted from the caller's\\n     * allowance.\\n     *\\n     * Returns a boolean value indicating whether the operation succeeded.\\n     *\\n     * Emits a {Transfer} event.\\n     */\\n    function transferFrom(address from, address to, uint256 amount) external returns (bool);\\n}\\n\\n// \\n\\n/// @notice Describes a streams configuration.\\n/// It's a 256-bit integer constructed by concatenating the configuration parameters:\\n/// `streamId (32 bits) | amtPerSec (160 bits) | start (32 bits) | duration (32 bits)`.\\n/// `streamId` is an arbitrary number used to identify a stream.\\n/// It's a part of the configuration but the protocol doesn't use it.\\n/// `amtPerSec` is the amount per second being streamed. Must never be zero.\\n/// It must have additional `Streams._AMT_PER_SEC_EXTRA_DECIMALS` decimals and can have fractions.\\n/// To achieve that its value must be multiplied by `Streams._AMT_PER_SEC_MULTIPLIER`.\\n/// `start` is the timestamp when streaming should start.\\n/// If zero, use the timestamp when the stream is configured.\\n/// `duration` is the duration of streaming.\\n/// If zero, stream until balance runs out.\\ntype StreamConfig is uint256;\\n\\nusing StreamConfigImpl for AddressDriver.StreamConfig;\\n\\nlibrary StreamConfigImpl {\\n    /// @notice Create a new StreamConfig.\\n    /// @param streamId_ An arbitrary number used to identify a stream.\\n    /// It's a part of the configuration but the protocol doesn't use it.\\n    /// @param amtPerSec_ The amount per second being streamed. Must never be zero.\\n    /// It must have additional `Streams._AMT_PER_SEC_EXTRA_DECIMALS`\\n    /// decimals and can have fractions.\\n    /// To achieve that the passed value must be multiplied by `Streams._AMT_PER_SEC_MULTIPLIER`.\\n    /// @param start_ The timestamp when streaming should start.\\n    /// If zero, use the timestamp when the stream is configured.\\n    /// @param duration_ The duration of streaming. If zero, stream until the balance runs out.\\n    function create(uint32 streamId_, uint160 amtPerSec_, uint32 start_, uint32 duration_)\\n        internal\\n        pure\\n        returns (AddressDriver.StreamConfig)\\n    {\\n        // By assignment we get `config` value:\\n        // `zeros (224 bits) | streamId (32 bits)`\\n        uint256 config = streamId_;\\n        // By bit shifting we get `config` value:\\n        // `zeros (64 bits) | streamId (32 bits) | zeros (160 bits)`\\n        // By bit masking we get `config` value:\\n        // `zeros (64 bits) | streamId (32 bits) | amtPerSec (160 bits)`\\n        config = (config << 160) | amtPerSec_;\\n        // By bit shifting we get `config` value:\\n        // `zeros (32 bits) | streamId (32 bits) | amtPerSec (160 bits) | zeros (32 bits)`\\n        // By bit masking we get `config` value:\\n        // `zeros (32 bits) | streamId (32 bits) | amtPerSec (160 bits) | start (32 bits)`\\n        config = (config << 32) | start_;\\n        // By bit shifting we get `config` value:\\n        // `streamId (32 bits) | amtPerSec (160 bits) | start (32 bits) | zeros (32 bits)`\\n        // By bit masking we get `config` value:\\n        // `streamId (32 bits) | amtPerSec (160 bits) | start (32 bits) | duration (32 bits)`\\n        config = (config << 32) | duration_;\\n        return AddressDriver.StreamConfig.wrap(config);\\n    }\\n\\n    /// @notice Extracts streamId from a `StreamConfig`\\n    function streamId(StreamConfig config) internal pure returns (uint32) {\\n        // `config` has value:\\n        // `streamId (32 bits) | amtPerSec (160 bits) | start (32 bits) | duration (32 bits)`\\n        // By bit shifting we get value:\\n        // `zeros (224 bits) | streamId (32 bits)`\\n        // By casting down we get value:\\n        // `streamId (32 bits)`\\n        return uint32(StreamConfig.unwrap(config) >> 224);\\n    }\\n\\n    /// @notice Extracts amtPerSec from a `StreamConfig`\\n    function amtPerSec(StreamConfig config) internal pure returns (uint160) {\\n        // `config` has value:\\n        // `streamId (32 bits) | amtPerSec (160 bits) | start (32 bits) | duration (32 bits)`\\n        // By bit shifting we get value:\\n        // `zeros (64 bits) | streamId (32 bits) | amtPerSec (160 bits)`\\n        // By casting down we get value:\\n        // `amtPerSec (160 bits)`\\n        return uint160(StreamConfig.unwrap(config) >> 64);\\n    }\\n\\n    /// @notice Extracts start from a `StreamConfig`\\n    function start(StreamConfig config) internal pure returns (uint32) {\\n        // `config` has value:\\n        // `streamId (32 bits) | amtPerSec (160 bits) | start (32 bits) | duration (32 bits)`\\n        // By bit shifting we get value:\\n        // `zeros (32 bits) | streamId (32 bits) | amtPerSec (160 bits) | start (32 bits)`\\n        // By casting down we get value:\\n        // `start (32 bits)`\\n        return uint32(StreamConfig.unwrap(config) >> 32);\\n    }\\n\\n    /// @notice Extracts duration from a `StreamConfig`\\n    function duration(StreamConfig config) internal pure returns (uint32) {\\n        // `config` has value:\\n        // `streamId (32 bits) | amtPerSec (160 bits) | start (32 bits) | duration (32 bits)`\\n        // By casting down we get value:\\n        // `duration (32 bits)`\\n        return uint32(StreamConfig.unwrap(config));\\n    }\\n\\n    /// @notice Compares two `StreamConfig`s.\\n    /// First compares `streamId`s, then `amtPerSec`s, then `start`s and finally `duration`s.\\n    /// @return isLower True if `config` is strictly lower than `otherConfig`.\\n    function lt(StreamConfig config, StreamConfig otherConfig) internal pure returns (bool isLower) {\\n        // Both configs have value:\\n        // `streamId (32 bits) | amtPerSec (160 bits) | start (32 bits) | duration (32 bits)`\\n        // Comparing them as integers is equivalent to comparing their fields from left to right.\\n        return StreamConfig.unwrap(config) < StreamConfig.unwrap(otherConfig);\\n    }\\n}\\n\\ncontract DonationVotingMerkleDistributionDrip is DonationVotingMerkleDistributionBaseStrategy {\\n    /// ================================\\n    /// ========== Struct ==============\\n    /// ================================\\n\\n    /// @notice Stores the details of the allocation\\n    struct Allocation {\\n        address recipientId;\\n        uint256 amount;\\n        address token;\\n    }\\n\\n    /// @notice Stores the details of the distribution when it's a stream.\\n    struct StreamDistribution {\\n        uint256 index;\\n        address recipientId;\\n        uint256 amount;\\n        bytes32[] merkleProof;\\n    }\\n\\n    /// ===============================\\n    /// ========== Events =============\\n    /// ===============================\\n\\n    /// @notice Emitted when a batch allocation is successful\\n    /// @param sender The sender of the transaction\\n    event BatchAllocationSuccessful(address indexed sender);\\n\\n    /// @notice Emitted when a batch stream distribution is successful\\n    /// @param sender The sender of the transaction\\n    event BatchSetStreamSuccessful(address indexed sender, int128 realBalanceDelta);\\n\\n    /// ================================\\n    /// ========== Storage =============\\n    /// ================================\\n    IERC20 public erc20;\\n\\n    Drips public drips;\\n    Caller public caller;\\n    AddressDriver public driver;\\n\\n    /// @notice Flag to indicate whether token streaming is required or not.\\n    bool public stream;\\n\\n    /// ===============================\\n    /// ======== Constructor ==========\\n    /// ===============================\\n\\n    /// @notice Constructor for the Donation Voting Merkle Distribution Strategy\\n    /// @param _allo The 'Allo' contract\\n    /// @param _name The name of the strategy\\n    constructor(address _allo, string memory _name) DonationVotingMerkleDistributionBaseStrategy(_allo, _name) {}\\n\\n    /// ===============================\\n    /// ========= Initialize ==========\\n    /// ===============================\\n\\n    /// @notice Hook called before initializing the strategy.\\n    /// @param _poolId The 'poolId' to initialize\\n    /// @param _initializeData The data to be decoded to initialize the strategy\\n    function _beforeInitialize(uint256 _poolId, InitializeData memory _initializeData) internal override {\\n        IAllo.Pool memory pool = allo.getPool(_poolId);\\n\\n        if (pool.token == NATIVE && _initializeData.stream) {\\n            revert INVALID();\\n        }\\n\\n        drips = Drips(_initializeData.drips);\\n        caller = Caller(_initializeData.dripsCaller);\\n        driver = AddressDriver(_initializeData.dripsAddressDriver);\\n        stream = _initializeData.stream;\\n\\n        if (pool.token != NATIVE) {\\n            erc20 = IERC20(pool.token);\\n            erc20.approve(address(driver), type(uint256).max);\\n        }\\n    }\\n\\n    /// ====================================\\n    /// ============ Internal ==============\\n    /// ====================================\\n\\n    /// @notice Allocate tokens to recipients, the Allocation[] max is usually 100.\\n    /// @dev This can only be called during the allocation period. Emits an 'BatchAllocationSuccessful()' event.\\n    /// @param _data The data to be decoded\\n    /// @custom:data '(Allocations[] allocations)'\\n    // /// @param _sender The sender of the transaction\\n    function _allocate(bytes memory _data, address _sender) internal virtual override onlyActiveAllocation {\\n        // Decode the '_data' to get the allocations\\n        Allocation[] memory allocations = abi.decode(_data, (Allocation[]));\\n        uint256 length = allocations.length;\\n\\n        // Loop through the allocations and allocate the funds\\n        for (uint8 i = 0; i < length; i++) {\\n            _allocateSingle(allocations[i], _sender);\\n        }\\n\\n        // Emit batch allocation successful\\n        emit BatchAllocationSuccessful(_sender);\\n    }\\n\\n    /// @notice Allocate funds to recipient.\\n    /// @dev Emits a 'FundsDistributed()' event\\n    /// @param _allocation Distribution to be distributed\\n    /// @param _sender The sender of the transaction\\n    function _allocateSingle(Allocation memory _allocation, address _sender) internal {\\n        address recipientId = _allocation.recipientId;\\n        uint256 amount = _allocation.amount;\\n        address token = _allocation.token;\\n\\n        // If the recipient status is not 'Accepted' this will revert, the recipient must be accepted through registration\\n        if (Status(_getUintRecipientStatus(recipientId)) != Status.Accepted) {\\n            revert RECIPIENT_ERROR(recipientId);\\n        }\\n\\n        //TODO: remove this once we can guarantee the safety of bulk native transfers\\n        // If the token is native reject,\\n        if (token == NATIVE) {\\n            revert INVALID();\\n        }\\n\\n        // The token must be in the allowed token list and not be native token or zero address\\n        if (!allowedTokens[token] && !allowedTokens[address(0)]) {\\n            revert INVALID();\\n        }\\n\\n        // If the token is native, the amount must be equal to the value sent, otherwise it reverts\\n        if (msg.value > 0 && token != NATIVE || token == NATIVE && msg.value != amount) {\\n            revert INVALID();\\n        }\\n\\n        // Transfer the amount to recipient\\n        if (\\n            _transferAmountFrom(\\n                token, TransferData({from: _sender, to: _recipients[recipientId].recipientAddress, amount: amount})\\n            )\\n        ) {\\n            // revert INVALID();\\n\\n            // Emit that the amount has been allocated to the recipient by the sender\\n            emit Allocated(recipientId, amount, token, _sender);\\n        }\\n    }\\n\\n    /// @notice Distribute funds to recipients, the Distribution[] max is usually 100.\\n    /// @dev 'distributionStarted' will be set to 'true' when called. Only the pool manager can call.\\n    ///      Emits a 'BatchPayoutSuccessful()' event.\\n    /// @param _data The data to be decoded\\n    ///  @custom:data if 'stream' is 'true' (AddressDriver.StreamReceiver[] prevStreamReceivers,\\n    ///                StreamDistribution[] streamDistributions, int128 amt, uint32 duration, uint32 hint1, uint32 hint2)\\n    ///  @custom:data if 'stream' is 'false'(Distribution[] distributions)\\n    /// @param _sender The sender of the transaction\\n    function _distribute(address[] memory, bytes memory _data, address _sender)\\n        internal\\n        virtual\\n        override\\n        onlyPoolManager(_sender)\\n    {\\n        if (!distributionStarted) {\\n            distributionStarted = true;\\n        }\\n\\n        if (stream) {\\n            AddressDriver.StreamReceiver[] memory prevStreamReceivers;\\n            StreamDistribution[] memory streamDistributions;\\n            int128 amt;\\n            uint32 duration;\\n            uint32 hint1;\\n            uint32 hint2;\\n\\n            // Decode the '_data' to get the streamDistributions\\n            (prevStreamReceivers, streamDistributions, amt, duration, hint1, hint2) = abi.decode(\\n                _data, (AddressDriver.StreamReceiver[], StreamDistribution[], int128, uint32, uint32, uint32)\\n            );\\n\\n            AddressDriver.StreamReceiver[] memory currentStreamReceivers =\\n                _buildStreamReceiver(streamDistributions, duration);\\n\\n            int128 realBalanceDelta = driver.setStreams(\\n                address(erc20), prevStreamReceivers, amt, currentStreamReceivers, hint1, hint2, address(this)\\n            );\\n\\n            // Emit that the batch payout was successful\\n            emit BatchSetStreamSuccessful(_sender, realBalanceDelta);\\n        } else {\\n            // Decode the '_data' to get the distributions\\n            Distribution[] memory distributions = abi.decode(_data, (Distribution[]));\\n            uint256 length = distributions.length;\\n\\n            // Loop through the distributions and distribute the funds\\n            for (uint256 i = 0; i < length; i++) {\\n                _distributeSingle(distributions[i]);\\n            }\\n\\n            // Emit that the batch payout was successful\\n            emit BatchPayoutSuccessful(_sender);\\n        }\\n    }\\n\\n    /// @notice Distribute funds to recipient.\\n    /// @dev Emits a 'FundsDistributed()' event\\n    /// @param _distribution Distribution to be distributed\\n    function _distributeSingle(Distribution memory _distribution) internal override {\\n        uint256 index = _distribution.index;\\n        address recipientId = _distribution.recipientId;\\n        uint256 amount = _distribution.amount;\\n        bytes32[] memory merkleProof = _distribution.merkleProof;\\n\\n        address recipientAddress = _recipients[recipientId].recipientAddress;\\n\\n        // Validate the distribution and transfer the funds to the recipient, otherwise revert if not valid\\n        if (_validateDistribution(index, recipientId, recipientAddress, amount, merkleProof)) {\\n            IAllo.Pool memory pool = allo.getPool(poolId);\\n\\n            // Set the distribution as distributed\\n            _setDistributed(index);\\n\\n            // Update the pool amount\\n            poolAmount -= amount;\\n\\n            // Transfer the amount to the recipient\\n            _transferAmount(pool.token, payable(recipientAddress), amount);\\n\\n            // Emit that the funds have been distributed to the recipient\\n            emit FundsDistributed(amount, recipientAddress, pool.token, recipientId);\\n        } else {\\n            revert RECIPIENT_ERROR(recipientId);\\n        }\\n    }\\n\\n    function _buildStreamReceiver(StreamDistribution[] memory _distributions, uint32 _duration)\\n        internal\\n        returns (AddressDriver.StreamReceiver[] memory)\\n    {\\n        uint256 length = _distributions.length;\\n\\n        AddressDriver.StreamReceiver[] memory receivers = new AddressDriver.StreamReceiver[](length);\\n\\n        for (uint256 i = 0; i < length; i++) {\\n            uint256 index = _distributions[i].index;\\n            address recipientId = _distributions[i].recipientId;\\n            uint256 amount = _distributions[i].amount;\\n            bytes32[] memory merkleProof = _distributions[i].merkleProof;\\n\\n            address recipientAddress = _recipients[recipientId].recipientAddress;\\n\\n            if (_validateDistribution(index, recipientId, recipientAddress, amount, merkleProof)) {\\n                // Set the distribution as distributed\\n                _setDistributed(index);\\n\\n                // Update the pool amount\\n                poolAmount -= amount;\\n\\n                receivers[i].accountId = driver.calcAccountId(recipientAddress);\\n                // TODO: use merkleRoot for id instead of 0\\n                receivers[i].config =\\n                    StreamConfigImpl.create(0, calculateFlowRate(uint128(amount), _duration), 0, _duration);\\n            } else {\\n                revert RECIPIENT_ERROR(recipientId);\\n            }\\n        }\\n\\n        return receivers;\\n    }\\n\\n    /// @notice Calculate Precision Token Unit flow rate per second\\n    /// @dev This function calculates the precision token unit flow rate per second based on the tokens to send\\n    ///      and the streaming duration in seconds.\\n    /// @param tokensToSend_ The number of tokens to be sent\\n    /// @param duration_ The duration of the streaming in seconds\\n    /// @return The calculated precision token unit flow rate per second\\n    function calculateFlowRate(uint128 tokensToSend_, uint32 duration_) public view returns (uint160) {\\n        uint160 flowRate = tokensToSend_ * 10 ** 9 / duration_;\\n        if (flowRate < drips.minAmtPerSec()) {\\n            return drips.minAmtPerSec();\\n        }\\n        return flowRate;\\n    }\\n}\\n\"}},\"settings\":{\"optimizer\":{\"enabled\":true,\"runs\":200},\"outputSelection\":{\"*\":{\"\":[\"ast\"],\"*\":[\"abi\",\"metadata\",\"devdoc\",\"userdoc\",\"storageLayout\",\"evm.legacyAssembly\",\"evm.bytecode\",\"evm.deployedBytecode\",\"evm.methodIdentifiers\",\"evm.gasEstimates\",\"evm.assembly\"]}},\"remappings\":[]}}",
  "name": "DonationVotingMerkleDistributionDrip",
  "bytecode": {
    "linkReferences": {},
    "object": "60c060405234801562000010575f80fd5b50604051620042fa380380620042fa8339810160408190526200003391620000bb565b6001600160a01b03821660805260405182908290829082906200005b90829060200162000190565b60408051601f19818403018152919052805160209091012060a05250620001c4945050505050565b634e487b7160e01b5f52604160045260245ffd5b5f5b83811015620000b357818101518382015260200162000099565b50505f910152565b5f8060408385031215620000cd575f80fd5b82516001600160a01b0381168114620000e4575f80fd5b60208401519092506001600160401b038082111562000101575f80fd5b818501915085601f83011262000115575f80fd5b8151818111156200012a576200012a62000083565b604051601f8201601f19908116603f0116810190838211818310171562000155576200015562000083565b816040528281528860208487010111156200016e575f80fd5b6200018183602083016020880162000097565b80955050505050509250929050565b602081525f8251806020840152620001b081604085016020870162000097565b601f01601f19169190910160400192915050565b60805160a0516140ea620002105f395f6103c901525f81816102c40152818161098701528181611040015281816112a101528181611a2801528181611c4601526121f601526140ea5ff3fe60806040526004361061024c575f3560e01c806373af345311610134578063d864089f116100b3578063eb11af9311610078578063eb11af9314610732578063edd146cc1461075e578063ef2920fc1461077d578063f5b0dfb714610790578063f6f25891146107af578063fc9c8d39146107da575f80fd5b8063d864089f14610696578063df868ed3146106b5578063dff7d2c7146106c9578063e744092e146106ef578063e7efcfc21461071d575f80fd5b8063a0cf0aea116100f9578063a0cf0aea146105d3578063ac9650d8146105fa578063b2b878d014610626578063cb0e85a614610652578063d2e17f5914610670575f80fd5b806373af34531461053b578063785e9e861461055a5780637c435d291461057957806395355b3b146105985780639af5c09d146105ad575f80fd5b806342fda9c7116101cb5780635708973911610190578063570897391461047657806359a3977b1461048f5780635f1b55f3146104b157806362812a39146104d05780636ecc5d62146104fc5780636f2a67911461051b575f80fd5b806342fda9c7146103bb5780634533d678146103ed578063465831cd146104245780634ab4ba42146104435780634d31d08714610457575f80fd5b80632bbe0cae116102115780632bbe0cae1461034a5780632d52eff21461035d5780632e1a7d4d146103735780632eb4a7ab1461039257806338fff2d0146103a7575f80fd5b806301fc1c64146102575780630a6f0ee91461029557806315cc481e146102b65780632143e92f146102fc578063217550881461031b575f80fd5b3661025357005b5f80fd5b348015610262575f80fd5b50610282610271366004612b5f565b600c6020525f908152604090205481565b6040519081526020015b60405180910390f35b3480156102a0575f80fd5b506102b46102af366004612d80565b6107f9565b005b3480156102c1575f80fd5b507f00000000000000000000000000000000000000000000000000000000000000005b6040516001600160a01b03909116815260200161028c565b348015610307575f80fd5b506102b4610316366004612e06565b610819565b348015610326575f80fd5b5060055461033a9062010000900460ff1681565b604051901515815260200161028c565b6102e4610358366004612e5f565b6108fc565b348015610368575f80fd5b50600a54151561033a565b34801561037e575f80fd5b506102b461038d366004612ead565b610920565b34801561039d575f80fd5b50610282600a5481565b3480156103b2575f80fd5b50600154610282565b3480156103c6575f80fd5b507f0000000000000000000000000000000000000000000000000000000000000000610282565b3480156103f8575f80fd5b5060065461040c906001600160401b031681565b6040516001600160401b03909116815260200161028c565b34801561042f575f80fd5b506102b461043e366004612ec4565b610a4a565b34801561044e575f80fd5b50600254610282565b348015610462575f80fd5b5061033a610471366004612b5f565b610b01565b348015610481575f80fd5b5060055461033a9060ff1681565b34801561049a575f80fd5b506104a3610b09565b60405161028c929190612fbf565b3480156104bc575f80fd5b5061033a6104cb366004612ead565b610b9e565b3480156104db575f80fd5b506104ef6104ea366004612b5f565b610ba8565b60405161028c9190612fd7565b348015610507575f80fd5b506013546102e4906001600160a01b031681565b348015610526575f80fd5b5060135461033a90600160a01b900460ff1681565b348015610546575f80fd5b506102b4610555366004613024565b610bb9565b348015610565575f80fd5b506010546102e4906001600160a01b031681565b348015610584575f80fd5b506011546102e4906001600160a01b031681565b3480156105a3575f80fd5b5061028260085481565b3480156105b8575f80fd5b5060055461040c90630100000090046001600160401b031681565b3480156105de575f80fd5b506102e473eeeeeeeeeeeeeeeeeeeeeeeeeeeeeeeeeeeeeeee81565b348015610605575f80fd5b506106196106143660046130b7565b610c5b565b60405161028c9190613125565b348015610631575f80fd5b50610645610640366004613187565b610d42565b60405161028c9190613253565b34801561065d575f80fd5b5060055461033a90610100900460ff1681565b34801561067b575f80fd5b5060055461040c90600160981b90046001600160401b031681565b3480156106a1575f80fd5b506102e46106b03660046132bb565b610e3d565b3480156106c0575f80fd5b5061033a610f72565b3480156106d4575f80fd5b5060055461040c90600160581b90046001600160401b031681565b3480156106fa575f80fd5b5061033a610709366004612b5f565b600e6020525f908152604090205460ff1681565b348015610728575f80fd5b5061028260075481565b34801561073d575f80fd5b5061075161074c366004612b5f565b610f80565b60405161028c9190613306565b348015610769575f80fd5b506102b461077836600461332c565b610f8a565b6102b461078b366004612e5f565b610fee565b34801561079b575f80fd5b506102b46107aa366004612ead565b61100c565b3480156107ba575f80fd5b506102826107c9366004612ead565b600b6020525f908152604090205481565b3480156107e5575f80fd5b506012546102e4906001600160a01b031681565b610801611035565b610809611080565b6108148383836110a2565b505050565b3361082381611277565b61082f85858585611327565b600580546301000000600160981b03191663010000006001600160401b03888116820267ffffffffffffffff60581b191692909217600160581b88841681029190911767ffffffffffffffff60981b1916600160981b888516810291909117948590556006805467ffffffffffffffff19168886169081179091556040517fcb0fb7a7b87db2f472ee8977444cfdbc51993ce660aca27a5969a724fae6dcf3966108ed9695810486169594810485169493900490921691339061336f565b60405180910390a15050505050565b5f610905611035565b61090d611080565b61091783836113c1565b90505b92915050565b3361092a81611277565b600654610943906001600160401b031662278d006133be565b6001600160401b0316421161096b57604051637fcce2a960e01b815260040160405180910390fd5b60015460405163068bcd8d60e01b81525f916001600160a01b037f0000000000000000000000000000000000000000000000000000000000000000169163068bcd8d916109be9160040190815260200190565b5f60405180830381865afa1580156109d8573d5f803e3d5ffd5b505050506040513d5f823e601f3d908101601f191682016040526109ff919081019061347e565b9050600254831115610a2457604051637fcce2a960e01b815260040160405180910390fd5b8260025f828254610a35919061352c565b909155505060408101516108149033856116e5565b610a5261171f565b33610a5c81611277565b5f5b8251811015610814575f838281518110610a7a57610a7a61353f565b60200260200101515f015190505f848381518110610a9a57610a9a61353f565b6020908102919091018101518101515f848152600b83526040908190208290558051828152339381019390935290925083917f941884a9a55191a7401466aaf8a0d2b7c8b082055a5a2b345b83c73940172ac4910160405180910390a25050600101610a5e565b5f600161091a565b6003805460048054919291610b1d90613553565b80601f0160208091040260200160405190810160405280929190818152602001828054610b4990613553565b8015610b945780601f10610b6b57610100808354040283529160200191610b94565b820191905f5260205f20905b815481529060010190602001808311610b7757829003601f168201915b5050505050905082565b5f61091a8261176f565b610bb0612b08565b61091a826117ad565b610bc16118a3565b33610bcb81611277565b60055462010000900460ff1615610bf557604051637fcce2a960e01b815260040160405180910390fd5b600a839055815160039081556020830151839190600490610c1690826135cf565b509050507fdc7180ca4affc84269428ed20ef950e745126f11691b010c4a7d49458421008f600a546003604051610c4e92919061368a565b60405180910390a1505050565b6060816001600160401b03811115610c7557610c75612b7a565b604051908082528060200260200182016040528015610ca857816020015b6060815260200190600190039081610c935790505b5090505f5b82811015610d3b57610d1630858584818110610ccb57610ccb61353f565b9050602002810190610cdd919061372f565b8080601f0160208091040260200160405190810160405280939291908181526020018383808284375f920191909152506118cf92505050565b828281518110610d2857610d2861353f565b6020908102919091010152600101610cad565b5092915050565b81518151606091908114610d6957604051633da4c02b60e11b815260040160405180910390fd5b5f816001600160401b03811115610d8257610d82612b7a565b604051908082528060200260200182016040528015610dc657816020015b604080518082019091525f8082526020820152815260200190600190039081610da05790505b5090505f5b82811015610e3457610e0f868281518110610de857610de861353f565b6020026020010151868381518110610e0257610e0261353f565b60200260200101516118f4565b828281518110610e2157610e2161353f565b6020908102919091010152600101610dcb565b50949350505050565b5f8063ffffffff8316610e5485633b9aca00613778565b610e5e91906137b7565b6001600160801b0316905060115f9054906101000a90046001600160a01b03166001600160a01b031663c82051dd6040518163ffffffff1660e01b8152600401602060405180830381865afa158015610eb9573d5f803e3d5ffd5b505050506040513d601f19601f82011682018060405250810190610edd91906137dc565b6001600160a01b0316816001600160a01b031610156109175760115f9054906101000a90046001600160a01b03166001600160a01b031663c82051dd6040518163ffffffff1660e01b8152600401602060405180830381865afa158015610f46573d5f803e3d5ffd5b505050506040513d601f19601f82011682018060405250810190610f6a91906137dc565b91505061091a565b5f610f7b6119ab565b905090565b5f61091a826119f2565b610f92611035565b5f81806020019051810190610fa79190613876565b9050610fb38382611a10565b610fbd8382611bff565b7f91efa3d50feccde0d0d202f8ae5c41ca0b2be614cebcb2bd2f4b019396e6568a8383604051610c4e929190612fbf565b610ff6611035565b610ffe611080565b6110088282611e86565b5050565b611014611035565b8060025f828254611025919061398e565b9091555061103290508181565b50565b336001600160a01b037f0000000000000000000000000000000000000000000000000000000000000000161461107e5760405163075fd2b160e01b815260040160405180910390fd5b565b6001545f0361107e57604051630f68fe6360e21b815260040160405180910390fd5b806110ac81611277565b60055462010000900460ff166110ce576005805462ff00001916620100001790555b601354600160a01b900460ff16156111ec576060805f805f80888060200190518101906110fb9190613b07565b949a509298509096509450925090505f6111158685611f27565b601354601054604051636ef2aa6360e11b81529293505f926001600160a01b039283169263dde554c69261115a929116908c908b9088908b908b903090600401613c63565b6020604051808303815f875af1158015611176573d5f803e3d5ffd5b505050506040513d601f19601f8201168201806040525081019061119a9190613cc9565b604051600f82900b81529091506001600160a01b038b16907f3701b4f70eb2cd5c342b79a3d54ffe5872bb7de314e3ba3ef6de34ed8a8733739060200160405180910390a25050505050505050611271565b5f838060200190518101906112019190613ce2565b80519091505f5b8181101561123a576112328382815181106112255761122561353f565b602002602001015161218f565b600101611208565b506040516001600160a01b038516907f7ec3272052827f7b50d9e84f98172cbb80c112df1e377c5b97ea77f1812db8d9905f90a250505b50505050565b6001546040516329e40d4b60e01b815260048101919091526001600160a01b0382811660248301527f000000000000000000000000000000000000000000000000000000000000000016906329e40d4b90604401602060405180830381865afa1580156112e6573d5f803e3d5ffd5b505050506040513d601f19601f8201168201806040525081019061130a9190613d26565b6110325760405163075fd2b160e01b815260040160405180910390fd5b836001600160401b031642118061134f5750826001600160401b0316846001600160401b0316115b8061136b5750816001600160401b0316846001600160401b0316115b806113875750806001600160401b0316826001600160401b0316115b806113a35750806001600160401b0316836001600160401b0316115b1561127157604051637fcce2a960e01b815260040160405180910390fd5b5f6113ca61171f565b5f805f6113e960405180604001604052805f8152602001606081525090565b60055460ff161561143b57868060200190518101906114089190613d3f565b9196509350905061141985876122f6565b6114365760405163075fd2b160e01b815260040160405180910390fd5b6114a5565b8680602001905181019061144f9190613d3f565b6001600160a01b03821615159650919450925090508361146f5785611471565b815b9450838015611487575061148585876122f6565b155b156114a55760405163075fd2b160e01b815260040160405180910390fd5b600554610100900460ff1680156114c8575060208101515115806114c857508051155b156114e65760405163c19e07c560e01b815260040160405180910390fd5b6001600160a01b03831661151d5760405163f4a513b960e01b81526001600160a01b03861660048201526024015b60405180910390fd5b6001600160a01b038086165f908152600f60209081526040909120805492861661010002610100600160a81b031990931692909217825582516001830190815590830151839190600284019061157390826135cf565b505060055460ff169050611587578461158a565b60015b815460ff19169015151781555f6115a0876123e7565b905060ff8116611658576008546001600160a01b0388165f908152600c60205260409020556115d48760015b60ff16612401565b5f896008546040516020016115ea929190613d9e565b6040516020818303038152906040529050876001600160a01b03167fa197306e3dd5494a61a695381aa809a53b8e377a685e84e404a85d5a8da6cc62828b604051611636929190613dbf565b60405180910390a260088054905f61164d83613de8565b9190505550506116d9565b60011960ff8216016116745761166f8760016115cc565b61168b565b60021960ff82160161168b5761168b8760046115cc565b866001600160a01b03167fcec1da3f7f0b8a344dd1025d06e2ddd48b14880395997ad97cbdb439acc761d48a8a6116c18b6123e7565b6040516116d093929190613e00565b60405180910390a25b50505050505092915050565b73eeeeeeeeeeeeeeeeeeeeeeeeeeeeeeeeeeeeeeed196001600160a01b03841601611714576108148282612431565b61081483838361244a565b6005544263010000009091046001600160401b031611806117515750600554600160581b90046001600160401b031642115b1561107e57604051635b04f6ad60e11b815260040160405180910390fd5b5f8061177d61010084613e35565b90505f61178c61010085613e48565b5f928352600d602052604090922054600190921b9182169091149392505050565b6117b5612b08565b6001600160a01b038083165f908152600f60209081526040918290208251606081018452815460ff81161515825261010090049094168483015282518084018452600182018054825260028301805493958701949293919284019161181990613553565b80601f016020809104026020016040519081016040528092919081815260200182805461184590613553565b80156118905780601f1061186757610100808354040283529160200191611890565b820191905f5260205f20905b81548152906001019060200180831161187357829003601f168201915b5050509190925250505090525092915050565b6006546001600160401b031642101561107e57604051634543ced160e11b815260040160405180910390fd5b6060610917838360405180606001604052806027815260200161408e6027913961248a565b604080518082019091525f80825260208201525f8280602001905181019061191c9190613e5b565b805160208201516040830151606084015193945091929091905f61193f846117ad565b60200151905061195285858386866124fe565b15611982576040518060400160405280826001600160a01b0316815260200184815250965050505050505061091a565b604080518082019091526001600160a01b0390911681525f602082015298975050505050505050565b6005545f904263010000009091046001600160401b0316118015906119e25750600554600160581b90046001600160401b03164211155b156119ed5750600190565b505f90565b5f6119fc826123e7565b60ff16600681111561091a5761091a6132f2565b60405163068bcd8d60e01b8152600481018390525f907f00000000000000000000000000000000000000000000000000000000000000006001600160a01b03169063068bcd8d906024015f60405180830381865afa158015611a74573d5f803e3d5ffd5b505050506040513d5f823e601f3d908101601f19168201604052611a9b919081019061347e565b60408101519091506001600160a01b031673eeeeeeeeeeeeeeeeeeeeeeeeeeeeeeeeeeeeeeee148015611acf575081604001515b15611aed57604051637fcce2a960e01b815260040160405180910390fd5b60e0820151601180546001600160a01b039283166001600160a01b0319918216179091556101008401516012805491841691909216179055610120830151601380546040808701511515600160a01b026001600160a81b0319909216938516939093171790558201511673eeeeeeeeeeeeeeeeeeeeeeeeeeeeeeeeeeeeeeee1461081457604081810151601080546001600160a01b0319166001600160a01b03928316908117909155601354925163095ea7b360e01b81529290911660048301525f1960248301529063095ea7b3906044016020604051808303815f875af1158015611bdb573d5f803e3d5ffd5b505050506040513d601f19601f820116820180604052508101906112719190613d26565b611c08826125a3565b80516005805460208085015161ffff1990921693151561ff001916939093176101009115159190910217905560408051635ab1bd5360e01b815290517f00000000000000000000000000000000000000000000000000000000000000006001600160a01b031692635ab1bd5392600480820193918290030181865afa158015611c93573d5f803e3d5ffd5b505050506040513d601f19601f82011682018060405250810190611cb791906137dc565b600980546001600160a01b0319166001600160a01b0392909216919091179055606081015160058054608084015160a08501516301000000600160981b031990921663010000006001600160401b03958616810267ffffffffffffffff60581b191691909117600160581b92861683021767ffffffffffffffff60981b1916600160981b9386168402179384905560c08601516006805467ffffffffffffffff19169187169182179055611d7b959185048216949283048216939092041690611327565b6005546006546040517fcb0fb7a7b87db2f472ee8977444cfdbc51993ce660aca27a5969a724fae6dcf392611ddb926001600160401b0363010000008304811693600160581b8404821693600160981b900482169290911690339061336f565b60405180910390a1610140810151515f819003611e27575f8052600e6020527fe710864318d4a32f37d6ce54cb3fadbef648dd12d8dbdf53973564d56b7f881c805460ff191660011790555b5f5b81811015611271576001600e5f8561014001518481518110611e4d57611e4d61353f565b6020908102919091018101516001600160a01b031682528101919091526040015f20805460ff1916911515919091179055600101611e29565b611e8e6125f1565b5f82806020019051810190611ea39190613e8c565b80519091505f5b818160ff161015611eed57611edb838260ff1681518110611ecd57611ecd61353f565b602002602001015185612639565b80611ee581613f54565b915050611eaa565b506040516001600160a01b038416907faf2aeb2d4fe57415a1bbc0422472fa1bd4ff48b36feb2e7d2d3ce40085558985905f90a250505050565b81516060905f816001600160401b03811115611f4557611f45612b7a565b604051908082528060200260200182016040528015611f8957816020015b604080518082019091525f8082526020820152815260200190600190039081611f635790505b5090505f5b82811015610e34575f868281518110611fa957611fa961353f565b60200260200101515f015190505f878381518110611fc957611fc961353f565b60200260200101516020015190505f888481518110611fea57611fea61353f565b60200260200101516040015190505f89858151811061200b5761200b61353f565b602090810291909101810151606001516001600160a01b038086165f908152600f90935260409092205490925061010090041661204b85858386866124fe565b1561215a576120598561287b565b8260025f82825461206a919061352c565b9091555050601354604051630a30a04f60e21b81526001600160a01b038381166004830152909116906328c2813c90602401602060405180830381865afa1580156120b7573d5f803e3d5ffd5b505050506040513d601f19601f820116820180604052508101906120db9190613f72565b8787815181106120ed576120ed61353f565b6020908102919091010151526121335f612107858d610e3d565b63ffffffff8d166001600160a01b0390911660a09290921b63ffffffff60a01b169190911760401b1790565b8787815181106121455761214561353f565b6020026020010151602001818152505061217e565b60405163f4a513b960e01b81526001600160a01b0385166004820152602401611514565b505060019093019250611f8e915050565b805160208083015160408085015160608601516001600160a01b038085165f908152600f9096529290942054929390929091610100909104166121d585858386866124fe565b1561215a5760015460405163068bcd8d60e01b81525f916001600160a01b037f0000000000000000000000000000000000000000000000000000000000000000169163068bcd8d9161222d9160040190815260200190565b5f60405180830381865afa158015612247573d5f803e3d5ffd5b505050506040513d5f823e601f3d908101601f1916820160405261226e919081019061347e565b90506122798661287b565b8360025f82825461228a919061352c565b9091555050604081015161229f9083866116e5565b60408082015181518681526001600160a01b038581166020830152808916939216917fa6b66f665010d2f7435f110111aaa34b56564074f66081bef606d996fc8caa6f910160405180910390a3505b505050505050565b60095460405163dd93da4360e01b81526001600160a01b0384811660048301525f92839291169063dd93da43906024015f60405180830381865afa158015612340573d5f803e3d5ffd5b505050506040513d5f823e601f3d908101601f191682016040526123679190810190613f89565b6009548151604051635e8a791560e01b815260048101919091526001600160a01b038681166024830152929350911690635e8a791590604401602060405180830381865afa1580156123bb573d5f803e3d5ffd5b505050506040513d601f19601f820116820180604052508101906123df9190613d26565b949350505050565b5f805f6123f3846128b6565b600f911c1695945050505050565b5f805f61240d856128b6565b5f928352600b602052604090922095811b600f90911b199091161790935550505050565b5f805f8084865af16110085763b12d13eb5f526004601cfd5b816014528060345263a9059cbb60601b5f5260205f604460105f875af13d1560015f51141716612481576390b8ec185f526004601cfd5b5f603452505050565b60605f80856001600160a01b0316856040516124a69190614049565b5f60405180830381855af49150503d805f81146124de576040519150601f19603f3d011682016040523d82523d5f602084013e6124e3565b606091505b50915091506124f486838387612917565b9695505050505050565b5f6125088661176f565b1561251457505f61259a565b60408051602081018890526001600160a01b03808816928201929092529085166060820152608081018490525f9060a00160408051601f198184030181528282528051602091820120908301520160405160208183030381529060405280519060200120905061258783600a548361298f565b612594575f91505061259a565b60019150505b95945050505050565b6125ab611035565b600154156125cc5760405163439a74c960e01b815260040160405180910390fd5b805f036125ec57604051637fcce2a960e01b815260040160405180910390fd5b600155565b60055442600160981b9091046001600160401b0316118061261c57506006546001600160401b031642115b1561107e5760405162b828c960e81b815260040160405180910390fd5b8151602083015160408401516002612650846123e7565b60ff166006811115612664576126646132f2565b6006811115612675576126756132f2565b1461269e5760405163f4a513b960e01b81526001600160a01b0384166004820152602401611514565b73eeeeeeeeeeeeeeeeeeeeeeeeeeeeeeeeeeeeeeed196001600160a01b038216016126dc57604051637fcce2a960e01b815260040160405180910390fd5b6001600160a01b0381165f908152600e602052604090205460ff1615801561272e57505f8052600e6020527fe710864318d4a32f37d6ce54cb3fadbef648dd12d8dbdf53973564d56b7f881c5460ff16155b1561274c57604051637fcce2a960e01b815260040160405180910390fd5b5f3411801561277857506001600160a01b03811673eeeeeeeeeeeeeeeeeeeeeeeeeeeeeeeeeeeeeeee14155b806127aa57506001600160a01b03811673eeeeeeeeeeeeeeeeeeeeeeeeeeeeeeeeeeeeeeee1480156127aa5750813414155b156127c857604051637fcce2a960e01b815260040160405180910390fd5b604080516060810182526001600160a01b0380871682528581165f908152600f6020908152908490205461010090049091169082015290810183905261280f9082906129a4565b1561287457826001600160a01b03167f463ffc2cf8b1596445c417388ed30e53eb67cf6668cb2be7f0addf8a78c8441b83838760405161286b939291909283526001600160a01b03918216602084015216604082015260600190565b60405180910390a25b5050505050565b5f61288861010083613e35565b90505f61289761010084613e48565b5f928352600d60205260409092208054600190931b9092179091555050565b6001600160a01b0381165f908152600c602052604080822054829182919082906128e09083613e35565b90505f6128ee604084613e48565b6128f9906004614064565b5f838152600b60205260409020549298909750919550909350505050565b606083156129855782515f0361297e576001600160a01b0385163b61297e5760405162461bcd60e51b815260206004820152601d60248201527f416464726573733a2063616c6c20746f206e6f6e2d636f6e74726163740000006044820152606401611514565b50816123df565b6123df8383612a21565b5f8261299b8584612a4b565b14949350505050565b60408101515f9073eeeeeeeeeeeeeeeeeeeeeeeeeeeeeeeeeeeeeeed196001600160a01b03851601612a0457803410156129f1576040516374c5672b60e01b815260040160405180910390fd5b6129ff836020015182612431565b612a17565b612a1784845f0151856020015184612a8d565b5060019392505050565b815115612a315781518083602001fd5b8060405162461bcd60e51b8152600401611514919061407b565b5f81815b8451811015612a8557612a7b82868381518110612a6e57612a6e61353f565b6020026020010151612adc565b9150600101612a4f565b509392505050565b60405181606052826040528360601b602c526323b872dd60601b600c5260205f6064601c5f895af13d1560015f51141716612acf57637939f4245f526004601cfd5b5f60605260405250505050565b5f818310612af6575f828152602084905260409020610917565b5f838152602083905260409020610917565b60405180606001604052805f151581526020015f6001600160a01b03168152602001612b4660405180604001604052805f8152602001606081525090565b905290565b6001600160a01b0381168114611032575f80fd5b5f60208284031215612b6f575f80fd5b813561091781612b4b565b634e487b7160e01b5f52604160045260245ffd5b604080519081016001600160401b0381118282101715612bb057612bb0612b7a565b60405290565b60405160c081016001600160401b0381118282101715612bb057612bb0612b7a565b60405161016081016001600160401b0381118282101715612bb057612bb0612b7a565b604051608081016001600160401b0381118282101715612bb057612bb0612b7a565b604051606081016001600160401b0381118282101715612bb057612bb0612b7a565b604051601f8201601f191681016001600160401b0381118282101715612c6757612c67612b7a565b604052919050565b5f6001600160401b03821115612c8757612c87612b7a565b5060051b60200190565b5f82601f830112612ca0575f80fd5b81356020612cb5612cb083612c6f565b612c3f565b8083825260208201915060208460051b870101935086841115612cd6575f80fd5b602086015b84811015612cfb578035612cee81612b4b565b8352918301918301612cdb565b509695505050505050565b5f6001600160401b03821115612d1e57612d1e612b7a565b50601f01601f191660200190565b5f612d39612cb084612d06565b9050828152838383011115612d4c575f80fd5b828260208301375f602084830101529392505050565b5f82601f830112612d71575f80fd5b61091783833560208501612d2c565b5f805f60608486031215612d92575f80fd5b83356001600160401b0380821115612da8575f80fd5b612db487838801612c91565b94506020860135915080821115612dc9575f80fd5b50612dd686828701612d62565b9250506040840135612de781612b4b565b809150509250925092565b6001600160401b0381168114611032575f80fd5b5f805f8060808587031215612e19575f80fd5b8435612e2481612df2565b93506020850135612e3481612df2565b92506040850135612e4481612df2565b91506060850135612e5481612df2565b939692955090935050565b5f8060408385031215612e70575f80fd5b82356001600160401b03811115612e85575f80fd5b612e9185828601612d62565b9250506020830135612ea281612b4b565b809150509250929050565b5f60208284031215612ebd575f80fd5b5035919050565b5f6020808385031215612ed5575f80fd5b82356001600160401b03811115612eea575f80fd5b8301601f81018513612efa575f80fd5b8035612f08612cb082612c6f565b81815260069190911b82018301908381019087831115612f26575f80fd5b928401925b82841015612f675760408489031215612f42575f80fd5b612f4a612b8e565b843581528585013586820152825260409093019290840190612f2b565b979650505050505050565b5f5b83811015612f8c578181015183820152602001612f74565b50505f910152565b5f8151808452612fab816020860160208601612f72565b601f01601f19169290920160200192915050565b828152604060208201525f6123df6040830184612f94565b6020815281511515602082015260018060a01b0360208301511660408201525f60408301516060808401528051608084015260208101519050604060a08401526123df60c0840182612f94565b5f8060408385031215613035575f80fd5b8235915060208301356001600160401b0380821115613052575f80fd5b9084019060408287031215613065575f80fd5b61306d612b8e565b82358152602083013582811115613082575f80fd5b80840193505086601f840112613096575f80fd5b6130a587843560208601612d2c565b60208201528093505050509250929050565b5f80602083850312156130c8575f80fd5b82356001600160401b03808211156130de575f80fd5b818501915085601f8301126130f1575f80fd5b8135818111156130ff575f80fd5b8660208260051b8501011115613113575f80fd5b60209290920196919550909350505050565b5f60208083016020845280855180835260408601915060408160051b8701019250602087015f5b8281101561317a57603f19888603018452613168858351612f94565b9450928501929085019060010161314c565b5092979650505050505050565b5f8060408385031215613198575f80fd5b82356001600160401b03808211156131ae575f80fd5b6131ba86838701612c91565b93506020915081850135818111156131d0575f80fd5b8501601f810187136131e0575f80fd5b80356131ee612cb082612c6f565b81815260059190911b8201840190848101908983111561320c575f80fd5b8584015b8381101561324257803586811115613226575f80fd5b6132348c8983890101612d62565b845250918601918601613210565b508096505050505050509250929050565b602080825282518282018190525f919060409081850190868401855b8281101561329d57815180516001600160a01b0316855286015186850152928401929085019060010161326f565b5091979650505050505050565b63ffffffff81168114611032575f80fd5b5f80604083850312156132cc575f80fd5b82356001600160801b03811681146132e2575f80fd5b91506020830135612ea2816132aa565b634e487b7160e01b5f52602160045260245ffd5b602081016007831061332657634e487b7160e01b5f52602160045260245ffd5b91905290565b5f806040838503121561333d575f80fd5b8235915060208301356001600160401b03811115613359575f80fd5b61336585828601612d62565b9150509250929050565b6001600160401b0395861681529385166020850152918416604084015290921660608201526001600160a01b03909116608082015260a00190565b634e487b7160e01b5f52601160045260245ffd5b6001600160401b03818116838216019080821115610d3b57610d3b6133aa565b80516133e981612b4b565b919050565b5f82601f8301126133fd575f80fd5b815161340b612cb082612d06565b81815284602083860101111561341f575f80fd5b6123df826020830160208701612f72565b5f60408284031215613440575f80fd5b613448612b8e565b90508151815260208201516001600160401b03811115613466575f80fd5b613472848285016133ee565b60208301525092915050565b5f6020828403121561348e575f80fd5b81516001600160401b03808211156134a4575f80fd5b9083019060c082860312156134b7575f80fd5b6134bf612bb6565b8251815260208301516134d181612b4b565b602082015260408301516134e481612b4b565b60408201526060830151828111156134fa575f80fd5b61350687828601613430565b6060830152506080830151608082015260a083015160a082015280935050505092915050565b8181038181111561091a5761091a6133aa565b634e487b7160e01b5f52603260045260245ffd5b600181811c9082168061356757607f821691505b60208210810361358557634e487b7160e01b5f52602260045260245ffd5b50919050565b601f82111561081457805f5260205f20601f840160051c810160208510156135b05750805b601f840160051c820191505b81811015612874575f81556001016135bc565b81516001600160401b038111156135e8576135e8612b7a565b6135fc816135f68454613553565b8461358b565b602080601f83116001811461362f575f84156136185750858301515b5f19600386901b1c1916600185901b1785556122ee565b5f85815260208120601f198616915b8281101561365d5788860151825594840194600190910190840161363e565b508582101561367a57878501515f19600388901b60f8161c191681555b5050505050600190811b01905550565b8281525f602060406020840152835460408401526001808501604060608601525f81546136b681613553565b80608089015260a0600183165f81146136d657600181146136f25761371f565b60ff19841660a08b015260a083151560051b8b0101945061371f565b855f5260205f205f5b848110156137165781548c82018501529088019089016136fb565b8b0160a0019550505b50929a9950505050505050505050565b5f808335601e19843603018112613744575f80fd5b8301803591506001600160401b0382111561375d575f80fd5b602001915036819003821315613771575f80fd5b9250929050565b6001600160801b0381811683821602808216919082811461379b5761379b6133aa565b505092915050565b634e487b7160e01b5f52601260045260245ffd5b5f6001600160801b03808416806137d0576137d06137a3565b92169190910492915050565b5f602082840312156137ec575f80fd5b815161091781612b4b565b805180151581146133e9575f80fd5b80516133e981612df2565b5f82601f830112613820575f80fd5b81516020613830612cb083612c6f565b8083825260208201915060208460051b870101935086841115613851575f80fd5b602086015b84811015612cfb57805161386981612b4b565b8352918301918301613856565b5f60208284031215613886575f80fd5b81516001600160401b038082111561389c575f80fd5b9083019061016082860312156138b0575f80fd5b6138b8612bd8565b6138c1836137f7565b81526138cf602084016137f7565b60208201526138e0604084016137f7565b60408201526138f160608401613806565b606082015261390260808401613806565b608082015261391360a08401613806565b60a082015261392460c08401613806565b60c082015261393560e084016133de565b60e08201526101006139488185016133de565b9082015261012061395a8482016133de565b908201526101408381015183811115613971575f80fd5b61397d88828701613811565b918301919091525095945050505050565b8082018082111561091a5761091a6133aa565b5f608082840312156139b1575f80fd5b6139b9612bfb565b9050815181526020808301516139ce81612b4b565b828201526040838101519083015260608301516001600160401b038111156139f4575f80fd5b8301601f81018513613a04575f80fd5b8051613a12612cb082612c6f565b81815260059190911b82018301908381019087831115613a30575f80fd5b928401925b82841015613a4e57835182529284019290840190613a35565b6060860152509295945050505050565b5f613a6b612cb084612c6f565b8381529050602080820190600585901b840186811115613a89575f80fd5b845b81811015613ac25780516001600160401b03811115613aa8575f80fd5b613ab4898289016139a1565b855250928201928201613a8b565b505050509392505050565b5f82601f830112613adc575f80fd5b61091783835160208501613a5e565b8051600f81900b81146133e9575f80fd5b80516133e9816132aa565b5f805f805f8060c08789031215613b1c575f80fd5b86516001600160401b0380821115613b32575f80fd5b818901915089601f830112613b45575f80fd5b81516020613b55612cb083612c6f565b82815260069290921b8401810191818101908d841115613b73575f80fd5b948201945b83861015613bb4576040868f031215613b8f575f80fd5b613b97612b8e565b865181528387015184820152825260409095019490820190613b78565b918c0151919a50909350505080821115613bcc575f80fd5b50613bd989828a01613acd565b955050613be860408801613aeb565b9350613bf660608801613afc565b9250613c0460808801613afc565b9150613c1260a08801613afc565b90509295509295509295565b5f815180845260208085019450602084015f5b83811015613c58578151805188528301518388015260409096019590820190600101613c31565b509495945050505050565b5f60018060a01b03808a16835260e06020840152613c8460e084018a613c1e565b88600f0b60408501528381036060850152613c9f8189613c1e565b63ffffffff97881660808601529590961660a08401529290921660c0909101525095945050505050565b5f60208284031215613cd9575f80fd5b61091782613aeb565b5f60208284031215613cf2575f80fd5b81516001600160401b03811115613d07575f80fd5b8201601f81018413613d17575f80fd5b6123df84825160208401613a5e565b5f60208284031215613d36575f80fd5b610917826137f7565b5f805f60608486031215613d51575f80fd5b8351613d5c81612b4b565b6020850151909350613d6d81612b4b565b60408501519092506001600160401b03811115613d88575f80fd5b613d9486828701613430565b9150509250925092565b604081525f613db06040830185612f94565b90508260208301529392505050565b604081525f613dd16040830185612f94565b905060018060a01b03831660208301529392505050565b5f60018201613df957613df96133aa565b5060010190565b606081525f613e126060830186612f94565b6001600160a01b039490941660208301525060ff91909116604090910152919050565b5f82613e4357613e436137a3565b500490565b5f82613e5657613e566137a3565b500690565b5f60208284031215613e6b575f80fd5b81516001600160401b03811115613e80575f80fd5b6123df848285016139a1565b5f6020808385031215613e9d575f80fd5b82516001600160401b03811115613eb2575f80fd5b8301601f81018513613ec2575f80fd5b8051613ed0612cb082612c6f565b81815260609182028301840191848201919088841115613eee575f80fd5b938501935b83851015613f485780858a031215613f09575f80fd5b613f11612c1d565b8551613f1c81612b4b565b81528587015187820152604080870151613f3581612b4b565b9082015283529384019391850191613ef3565b50979650505050505050565b5f60ff821660ff8103613f6957613f696133aa565b60010192915050565b5f60208284031215613f82575f80fd5b5051919050565b5f60208284031215613f99575f80fd5b81516001600160401b0380821115613faf575f80fd5b9083019060c08286031215613fc2575f80fd5b613fca612bb6565b8251815260208301516020820152604083015182811115613fe9575f80fd5b613ff5878286016133ee565b60408301525060608301518281111561400c575f80fd5b61401887828601613430565b60608301525061402a608084016133de565b608082015261403b60a084016133de565b60a082015295945050505050565b5f825161405a818460208701612f72565b9190910192915050565b808202811582820484141761091a5761091a6133aa565b602081525f6109176020830184612f9456fe416464726573733a206c6f772d6c6576656c2064656c65676174652063616c6c206661696c6564a2646970667358221220a990e16ea3e8a696f46cd70da7b910ced8303e756713e910819b24e9496fb98564736f6c63430008160033",
    "opcodes": "PUSH1 0xC0 PUSH1 0x40 MSTORE CALLVALUE DUP1 ISZERO PUSH3 0x10 JUMPI PUSH0 DUP1 REVERT JUMPDEST POP PUSH1 0x40 MLOAD PUSH3 0x42FA CODESIZE SUB DUP1 PUSH3 0x42FA DUP4 CODECOPY DUP2 ADD PUSH1 0x40 DUP2 SWAP1 MSTORE PUSH3 0x33 SWAP2 PUSH3 0xBB JUMP JUMPDEST PUSH1 0x1 PUSH1 0x1 PUSH1 0xA0 SHL SUB DUP3 AND PUSH1 0x80 MSTORE PUSH1 0x40 MLOAD DUP3 SWAP1 DUP3 SWAP1 DUP3 SWAP1 DUP3 SWAP1 PUSH3 0x5B SWAP1 DUP3 SWAP1 PUSH1 0x20 ADD PUSH3 0x190 JUMP JUMPDEST PUSH1 0x40 DUP1 MLOAD PUSH1 0x1F NOT DUP2 DUP5 SUB ADD DUP2 MSTORE SWAP2 SWAP1 MSTORE DUP1 MLOAD PUSH1 0x20 SWAP1 SWAP2 ADD KECCAK256 PUSH1 0xA0 MSTORE POP PUSH3 0x1C4 SWAP5 POP POP POP POP POP JUMP JUMPDEST PUSH4 0x4E487B71 PUSH1 0xE0 SHL PUSH0 MSTORE PUSH1 0x41 PUSH1 0x4 MSTORE PUSH1 0x24 PUSH0 REVERT JUMPDEST PUSH0 JUMPDEST DUP4 DUP2 LT ISZERO PUSH3 0xB3 JUMPI DUP2 DUP2 ADD MLOAD DUP4 DUP3 ADD MSTORE PUSH1 0x20 ADD PUSH3 0x99 JUMP JUMPDEST POP POP PUSH0 SWAP2 ADD MSTORE JUMP JUMPDEST PUSH0 DUP1 PUSH1 0x40 DUP4 DUP6 SUB SLT ISZERO PUSH3 0xCD JUMPI PUSH0 DUP1 REVERT JUMPDEST DUP3 MLOAD PUSH1 0x1 PUSH1 0x1 PUSH1 0xA0 SHL SUB DUP2 AND DUP2 EQ PUSH3 0xE4 JUMPI PUSH0 DUP1 REVERT JUMPDEST PUSH1 0x20 DUP5 ADD MLOAD SWAP1 SWAP3 POP PUSH1 0x1 PUSH1 0x1 PUSH1 0x40 SHL SUB DUP1 DUP3 GT ISZERO PUSH3 0x101 JUMPI PUSH0 DUP1 REVERT JUMPDEST DUP2 DUP6 ADD SWAP2 POP DUP6 PUSH1 0x1F DUP4 ADD SLT PUSH3 0x115 JUMPI PUSH0 DUP1 REVERT JUMPDEST DUP2 MLOAD DUP2 DUP2 GT ISZERO PUSH3 0x12A JUMPI PUSH3 0x12A PUSH3 0x83 JUMP JUMPDEST PUSH1 0x40 MLOAD PUSH1 0x1F DUP3 ADD PUSH1 0x1F NOT SWAP1 DUP2 AND PUSH1 0x3F ADD AND DUP2 ADD SWAP1 DUP4 DUP3 GT DUP2 DUP4 LT OR ISZERO PUSH3 0x155 JUMPI PUSH3 0x155 PUSH3 0x83 JUMP JUMPDEST DUP2 PUSH1 0x40 MSTORE DUP3 DUP2 MSTORE DUP9 PUSH1 0x20 DUP5 DUP8 ADD ADD GT ISZERO PUSH3 0x16E JUMPI PUSH0 DUP1 REVERT JUMPDEST PUSH3 0x181 DUP4 PUSH1 0x20 DUP4 ADD PUSH1 0x20 DUP9 ADD PUSH3 0x97 JUMP JUMPDEST DUP1 SWAP6 POP POP POP POP POP POP SWAP3 POP SWAP3 SWAP1 POP JUMP JUMPDEST PUSH1 0x20 DUP2 MSTORE PUSH0 DUP3 MLOAD DUP1 PUSH1 0x20 DUP5 ADD MSTORE PUSH3 0x1B0 DUP2 PUSH1 0x40 DUP6 ADD PUSH1 0x20 DUP8 ADD PUSH3 0x97 JUMP JUMPDEST PUSH1 0x1F ADD PUSH1 0x1F NOT AND SWAP2 SWAP1 SWAP2 ADD PUSH1 0x40 ADD SWAP3 SWAP2 POP POP JUMP JUMPDEST PUSH1 0x80 MLOAD PUSH1 0xA0 MLOAD PUSH2 0x40EA PUSH3 0x210 PUSH0 CODECOPY PUSH0 PUSH2 0x3C9 ADD MSTORE PUSH0 DUP2 DUP2 PUSH2 0x2C4 ADD MSTORE DUP2 DUP2 PUSH2 0x987 ADD MSTORE DUP2 DUP2 PUSH2 0x1040 ADD MSTORE DUP2 DUP2 PUSH2 0x12A1 ADD MSTORE DUP2 DUP2 PUSH2 0x1A28 ADD MSTORE DUP2 DUP2 PUSH2 0x1C46 ADD MSTORE PUSH2 0x21F6 ADD MSTORE PUSH2 0x40EA PUSH0 RETURN INVALID PUSH1 0x80 PUSH1 0x40 MSTORE PUSH1 0x4 CALLDATASIZE LT PUSH2 0x24C JUMPI PUSH0 CALLDATALOAD PUSH1 0xE0 SHR DUP1 PUSH4 0x73AF3453 GT PUSH2 0x134 JUMPI DUP1 PUSH4 0xD864089F GT PUSH2 0xB3 JUMPI DUP1 PUSH4 0xEB11AF93 GT PUSH2 0x78 JUMPI DUP1 PUSH4 0xEB11AF93 EQ PUSH2 0x732 JUMPI DUP1 PUSH4 0xEDD146CC EQ PUSH2 0x75E JUMPI DUP1 PUSH4 0xEF2920FC EQ PUSH2 0x77D JUMPI DUP1 PUSH4 0xF5B0DFB7 EQ PUSH2 0x790 JUMPI DUP1 PUSH4 0xF6F25891 EQ PUSH2 0x7AF JUMPI DUP1 PUSH4 0xFC9C8D39 EQ PUSH2 0x7DA JUMPI PUSH0 DUP1 REVERT JUMPDEST DUP1 PUSH4 0xD864089F EQ PUSH2 0x696 JUMPI DUP1 PUSH4 0xDF868ED3 EQ PUSH2 0x6B5 JUMPI DUP1 PUSH4 0xDFF7D2C7 EQ PUSH2 0x6C9 JUMPI DUP1 PUSH4 0xE744092E EQ PUSH2 0x6EF JUMPI DUP1 PUSH4 0xE7EFCFC2 EQ PUSH2 0x71D JUMPI PUSH0 DUP1 REVERT JUMPDEST DUP1 PUSH4 0xA0CF0AEA GT PUSH2 0xF9 JUMPI DUP1 PUSH4 0xA0CF0AEA EQ PUSH2 0x5D3 JUMPI DUP1 PUSH4 0xAC9650D8 EQ PUSH2 0x5FA JUMPI DUP1 PUSH4 0xB2B878D0 EQ PUSH2 0x626 JUMPI DUP1 PUSH4 0xCB0E85A6 EQ PUSH2 0x652 JUMPI DUP1 PUSH4 0xD2E17F59 EQ PUSH2 0x670 JUMPI PUSH0 DUP1 REVERT JUMPDEST DUP1 PUSH4 0x73AF3453 EQ PUSH2 0x53B JUMPI DUP1 PUSH4 0x785E9E86 EQ PUSH2 0x55A JUMPI DUP1 PUSH4 0x7C435D29 EQ PUSH2 0x579 JUMPI DUP1 PUSH4 0x95355B3B EQ PUSH2 0x598 JUMPI DUP1 PUSH4 0x9AF5C09D EQ PUSH2 0x5AD JUMPI PUSH0 DUP1 REVERT JUMPDEST DUP1 PUSH4 0x42FDA9C7 GT PUSH2 0x1CB JUMPI DUP1 PUSH4 0x57089739 GT PUSH2 0x190 JUMPI DUP1 PUSH4 0x57089739 EQ PUSH2 0x476 JUMPI DUP1 PUSH4 0x59A3977B EQ PUSH2 0x48F JUMPI DUP1 PUSH4 0x5F1B55F3 EQ PUSH2 0x4B1 JUMPI DUP1 PUSH4 0x62812A39 EQ PUSH2 0x4D0 JUMPI DUP1 PUSH4 0x6ECC5D62 EQ PUSH2 0x4FC JUMPI DUP1 PUSH4 0x6F2A6791 EQ PUSH2 0x51B JUMPI PUSH0 DUP1 REVERT JUMPDEST DUP1 PUSH4 0x42FDA9C7 EQ PUSH2 0x3BB JUMPI DUP1 PUSH4 0x4533D678 EQ PUSH2 0x3ED JUMPI DUP1 PUSH4 0x465831CD EQ PUSH2 0x424 JUMPI DUP1 PUSH4 0x4AB4BA42 EQ PUSH2 0x443 JUMPI DUP1 PUSH4 0x4D31D087 EQ PUSH2 0x457 JUMPI PUSH0 DUP1 REVERT JUMPDEST DUP1 PUSH4 0x2BBE0CAE GT PUSH2 0x211 JUMPI DUP1 PUSH4 0x2BBE0CAE EQ PUSH2 0x34A JUMPI DUP1 PUSH4 0x2D52EFF2 EQ PUSH2 0x35D JUMPI DUP1 PUSH4 0x2E1A7D4D EQ PUSH2 0x373 JUMPI DUP1 PUSH4 0x2EB4A7AB EQ PUSH2 0x392 JUMPI DUP1 PUSH4 0x38FFF2D0 EQ PUSH2 0x3A7 JUMPI PUSH0 DUP1 REVERT JUMPDEST DUP1 PUSH4 0x1FC1C64 EQ PUSH2 0x257 JUMPI DUP1 PUSH4 0xA6F0EE9 EQ PUSH2 0x295 JUMPI DUP1 PUSH4 0x15CC481E EQ PUSH2 0x2B6 JUMPI DUP1 PUSH4 0x2143E92F EQ PUSH2 0x2FC JUMPI DUP1 PUSH4 0x21755088 EQ PUSH2 0x31B JUMPI PUSH0 DUP1 REVERT JUMPDEST CALLDATASIZE PUSH2 0x253 JUMPI STOP JUMPDEST PUSH0 DUP1 REVERT JUMPDEST CALLVALUE DUP1 ISZERO PUSH2 0x262 JUMPI PUSH0 DUP1 REVERT JUMPDEST POP PUSH2 0x282 PUSH2 0x271 CALLDATASIZE PUSH1 0x4 PUSH2 0x2B5F JUMP JUMPDEST PUSH1 0xC PUSH1 0x20 MSTORE PUSH0 SWAP1 DUP2 MSTORE PUSH1 0x40 SWAP1 KECCAK256 SLOAD DUP2 JUMP JUMPDEST PUSH1 0x40 MLOAD SWAP1 DUP2 MSTORE PUSH1 0x20 ADD JUMPDEST PUSH1 0x40 MLOAD DUP1 SWAP2 SUB SWAP1 RETURN JUMPDEST CALLVALUE DUP1 ISZERO PUSH2 0x2A0 JUMPI PUSH0 DUP1 REVERT JUMPDEST POP PUSH2 0x2B4 PUSH2 0x2AF CALLDATASIZE PUSH1 0x4 PUSH2 0x2D80 JUMP JUMPDEST PUSH2 0x7F9 JUMP JUMPDEST STOP JUMPDEST CALLVALUE DUP1 ISZERO PUSH2 0x2C1 JUMPI PUSH0 DUP1 REVERT JUMPDEST POP PUSH32 0x0 JUMPDEST PUSH1 0x40 MLOAD PUSH1 0x1 PUSH1 0x1 PUSH1 0xA0 SHL SUB SWAP1 SWAP2 AND DUP2 MSTORE PUSH1 0x20 ADD PUSH2 0x28C JUMP JUMPDEST CALLVALUE DUP1 ISZERO PUSH2 0x307 JUMPI PUSH0 DUP1 REVERT JUMPDEST POP PUSH2 0x2B4 PUSH2 0x316 CALLDATASIZE PUSH1 0x4 PUSH2 0x2E06 JUMP JUMPDEST PUSH2 0x819 JUMP JUMPDEST CALLVALUE DUP1 ISZERO PUSH2 0x326 JUMPI PUSH0 DUP1 REVERT JUMPDEST POP PUSH1 0x5 SLOAD PUSH2 0x33A SWAP1 PUSH3 0x10000 SWAP1 DIV PUSH1 0xFF AND DUP2 JUMP JUMPDEST PUSH1 0x40 MLOAD SWAP1 ISZERO ISZERO DUP2 MSTORE PUSH1 0x20 ADD PUSH2 0x28C JUMP JUMPDEST PUSH2 0x2E4 PUSH2 0x358 CALLDATASIZE PUSH1 0x4 PUSH2 0x2E5F JUMP JUMPDEST PUSH2 0x8FC JUMP JUMPDEST CALLVALUE DUP1 ISZERO PUSH2 0x368 JUMPI PUSH0 DUP1 REVERT JUMPDEST POP PUSH1 0xA SLOAD ISZERO ISZERO PUSH2 0x33A JUMP JUMPDEST CALLVALUE DUP1 ISZERO PUSH2 0x37E JUMPI PUSH0 DUP1 REVERT JUMPDEST POP PUSH2 0x2B4 PUSH2 0x38D CALLDATASIZE PUSH1 0x4 PUSH2 0x2EAD JUMP JUMPDEST PUSH2 0x920 JUMP JUMPDEST CALLVALUE DUP1 ISZERO PUSH2 0x39D JUMPI PUSH0 DUP1 REVERT JUMPDEST POP PUSH2 0x282 PUSH1 0xA SLOAD DUP2 JUMP JUMPDEST CALLVALUE DUP1 ISZERO PUSH2 0x3B2 JUMPI PUSH0 DUP1 REVERT JUMPDEST POP PUSH1 0x1 SLOAD PUSH2 0x282 JUMP JUMPDEST CALLVALUE DUP1 ISZERO PUSH2 0x3C6 JUMPI PUSH0 DUP1 REVERT JUMPDEST POP PUSH32 0x0 PUSH2 0x282 JUMP JUMPDEST CALLVALUE DUP1 ISZERO PUSH2 0x3F8 JUMPI PUSH0 DUP1 REVERT JUMPDEST POP PUSH1 0x6 SLOAD PUSH2 0x40C SWAP1 PUSH1 0x1 PUSH1 0x1 PUSH1 0x40 SHL SUB AND DUP2 JUMP JUMPDEST PUSH1 0x40 MLOAD PUSH1 0x1 PUSH1 0x1 PUSH1 0x40 SHL SUB SWAP1 SWAP2 AND DUP2 MSTORE PUSH1 0x20 ADD PUSH2 0x28C JUMP JUMPDEST CALLVALUE DUP1 ISZERO PUSH2 0x42F JUMPI PUSH0 DUP1 REVERT JUMPDEST POP PUSH2 0x2B4 PUSH2 0x43E CALLDATASIZE PUSH1 0x4 PUSH2 0x2EC4 JUMP JUMPDEST PUSH2 0xA4A JUMP JUMPDEST CALLVALUE DUP1 ISZERO PUSH2 0x44E JUMPI PUSH0 DUP1 REVERT JUMPDEST POP PUSH1 0x2 SLOAD PUSH2 0x282 JUMP JUMPDEST CALLVALUE DUP1 ISZERO PUSH2 0x462 JUMPI PUSH0 DUP1 REVERT JUMPDEST POP PUSH2 0x33A PUSH2 0x471 CALLDATASIZE PUSH1 0x4 PUSH2 0x2B5F JUMP JUMPDEST PUSH2 0xB01 JUMP JUMPDEST CALLVALUE DUP1 ISZERO PUSH2 0x481 JUMPI PUSH0 DUP1 REVERT JUMPDEST POP PUSH1 0x5 SLOAD PUSH2 0x33A SWAP1 PUSH1 0xFF AND DUP2 JUMP JUMPDEST CALLVALUE DUP1 ISZERO PUSH2 0x49A JUMPI PUSH0 DUP1 REVERT JUMPDEST POP PUSH2 0x4A3 PUSH2 0xB09 JUMP JUMPDEST PUSH1 0x40 MLOAD PUSH2 0x28C SWAP3 SWAP2 SWAP1 PUSH2 0x2FBF JUMP JUMPDEST CALLVALUE DUP1 ISZERO PUSH2 0x4BC JUMPI PUSH0 DUP1 REVERT JUMPDEST POP PUSH2 0x33A PUSH2 0x4CB CALLDATASIZE PUSH1 0x4 PUSH2 0x2EAD JUMP JUMPDEST PUSH2 0xB9E JUMP JUMPDEST CALLVALUE DUP1 ISZERO PUSH2 0x4DB JUMPI PUSH0 DUP1 REVERT JUMPDEST POP PUSH2 0x4EF PUSH2 0x4EA CALLDATASIZE PUSH1 0x4 PUSH2 0x2B5F JUMP JUMPDEST PUSH2 0xBA8 JUMP JUMPDEST PUSH1 0x40 MLOAD PUSH2 0x28C SWAP2 SWAP1 PUSH2 0x2FD7 JUMP JUMPDEST CALLVALUE DUP1 ISZERO PUSH2 0x507 JUMPI PUSH0 DUP1 REVERT JUMPDEST POP PUSH1 0x13 SLOAD PUSH2 0x2E4 SWAP1 PUSH1 0x1 PUSH1 0x1 PUSH1 0xA0 SHL SUB AND DUP2 JUMP JUMPDEST CALLVALUE DUP1 ISZERO PUSH2 0x526 JUMPI PUSH0 DUP1 REVERT JUMPDEST POP PUSH1 0x13 SLOAD PUSH2 0x33A SWAP1 PUSH1 0x1 PUSH1 0xA0 SHL SWAP1 DIV PUSH1 0xFF AND DUP2 JUMP JUMPDEST CALLVALUE DUP1 ISZERO PUSH2 0x546 JUMPI PUSH0 DUP1 REVERT JUMPDEST POP PUSH2 0x2B4 PUSH2 0x555 CALLDATASIZE PUSH1 0x4 PUSH2 0x3024 JUMP JUMPDEST PUSH2 0xBB9 JUMP JUMPDEST CALLVALUE DUP1 ISZERO PUSH2 0x565 JUMPI PUSH0 DUP1 REVERT JUMPDEST POP PUSH1 0x10 SLOAD PUSH2 0x2E4 SWAP1 PUSH1 0x1 PUSH1 0x1 PUSH1 0xA0 SHL SUB AND DUP2 JUMP JUMPDEST CALLVALUE DUP1 ISZERO PUSH2 0x584 JUMPI PUSH0 DUP1 REVERT JUMPDEST POP PUSH1 0x11 SLOAD PUSH2 0x2E4 SWAP1 PUSH1 0x1 PUSH1 0x1 PUSH1 0xA0 SHL SUB AND DUP2 JUMP JUMPDEST CALLVALUE DUP1 ISZERO PUSH2 0x5A3 JUMPI PUSH0 DUP1 REVERT JUMPDEST POP PUSH2 0x282 PUSH1 0x8 SLOAD DUP2 JUMP JUMPDEST CALLVALUE DUP1 ISZERO PUSH2 0x5B8 JUMPI PUSH0 DUP1 REVERT JUMPDEST POP PUSH1 0x5 SLOAD PUSH2 0x40C SWAP1 PUSH4 0x1000000 SWAP1 DIV PUSH1 0x1 PUSH1 0x1 PUSH1 0x40 SHL SUB AND DUP2 JUMP JUMPDEST CALLVALUE DUP1 ISZERO PUSH2 0x5DE JUMPI PUSH0 DUP1 REVERT JUMPDEST POP PUSH2 0x2E4 PUSH20 0xEEEEEEEEEEEEEEEEEEEEEEEEEEEEEEEEEEEEEEEE DUP2 JUMP JUMPDEST CALLVALUE DUP1 ISZERO PUSH2 0x605 JUMPI PUSH0 DUP1 REVERT JUMPDEST POP PUSH2 0x619 PUSH2 0x614 CALLDATASIZE PUSH1 0x4 PUSH2 0x30B7 JUMP JUMPDEST PUSH2 0xC5B JUMP JUMPDEST PUSH1 0x40 MLOAD PUSH2 0x28C SWAP2 SWAP1 PUSH2 0x3125 JUMP JUMPDEST CALLVALUE DUP1 ISZERO PUSH2 0x631 JUMPI PUSH0 DUP1 REVERT JUMPDEST POP PUSH2 0x645 PUSH2 0x640 CALLDATASIZE PUSH1 0x4 PUSH2 0x3187 JUMP JUMPDEST PUSH2 0xD42 JUMP JUMPDEST PUSH1 0x40 MLOAD PUSH2 0x28C SWAP2 SWAP1 PUSH2 0x3253 JUMP JUMPDEST CALLVALUE DUP1 ISZERO PUSH2 0x65D JUMPI PUSH0 DUP1 REVERT JUMPDEST POP PUSH1 0x5 SLOAD PUSH2 0x33A SWAP1 PUSH2 0x100 SWAP1 DIV PUSH1 0xFF AND DUP2 JUMP JUMPDEST CALLVALUE DUP1 ISZERO PUSH2 0x67B JUMPI PUSH0 DUP1 REVERT JUMPDEST POP PUSH1 0x5 SLOAD PUSH2 0x40C SWAP1 PUSH1 0x1 PUSH1 0x98 SHL SWAP1 DIV PUSH1 0x1 PUSH1 0x1 PUSH1 0x40 SHL SUB AND DUP2 JUMP JUMPDEST CALLVALUE DUP1 ISZERO PUSH2 0x6A1 JUMPI PUSH0 DUP1 REVERT JUMPDEST POP PUSH2 0x2E4 PUSH2 0x6B0 CALLDATASIZE PUSH1 0x4 PUSH2 0x32BB JUMP JUMPDEST PUSH2 0xE3D JUMP JUMPDEST CALLVALUE DUP1 ISZERO PUSH2 0x6C0 JUMPI PUSH0 DUP1 REVERT JUMPDEST POP PUSH2 0x33A PUSH2 0xF72 JUMP JUMPDEST CALLVALUE DUP1 ISZERO PUSH2 0x6D4 JUMPI PUSH0 DUP1 REVERT JUMPDEST POP PUSH1 0x5 SLOAD PUSH2 0x40C SWAP1 PUSH1 0x1 PUSH1 0x58 SHL SWAP1 DIV PUSH1 0x1 PUSH1 0x1 PUSH1 0x40 SHL SUB AND DUP2 JUMP JUMPDEST CALLVALUE DUP1 ISZERO PUSH2 0x6FA JUMPI PUSH0 DUP1 REVERT JUMPDEST POP PUSH2 0x33A PUSH2 0x709 CALLDATASIZE PUSH1 0x4 PUSH2 0x2B5F JUMP JUMPDEST PUSH1 0xE PUSH1 0x20 MSTORE PUSH0 SWAP1 DUP2 MSTORE PUSH1 0x40 SWAP1 KECCAK256 SLOAD PUSH1 0xFF AND DUP2 JUMP JUMPDEST CALLVALUE DUP1 ISZERO PUSH2 0x728 JUMPI PUSH0 DUP1 REVERT JUMPDEST POP PUSH2 0x282 PUSH1 0x7 SLOAD DUP2 JUMP JUMPDEST CALLVALUE DUP1 ISZERO PUSH2 0x73D JUMPI PUSH0 DUP1 REVERT JUMPDEST POP PUSH2 0x751 PUSH2 0x74C CALLDATASIZE PUSH1 0x4 PUSH2 0x2B5F JUMP JUMPDEST PUSH2 0xF80 JUMP JUMPDEST PUSH1 0x40 MLOAD PUSH2 0x28C SWAP2 SWAP1 PUSH2 0x3306 JUMP JUMPDEST CALLVALUE DUP1 ISZERO PUSH2 0x769 JUMPI PUSH0 DUP1 REVERT JUMPDEST POP PUSH2 0x2B4 PUSH2 0x778 CALLDATASIZE PUSH1 0x4 PUSH2 0x332C JUMP JUMPDEST PUSH2 0xF8A JUMP JUMPDEST PUSH2 0x2B4 PUSH2 0x78B CALLDATASIZE PUSH1 0x4 PUSH2 0x2E5F JUMP JUMPDEST PUSH2 0xFEE JUMP JUMPDEST CALLVALUE DUP1 ISZERO PUSH2 0x79B JUMPI PUSH0 DUP1 REVERT JUMPDEST POP PUSH2 0x2B4 PUSH2 0x7AA CALLDATASIZE PUSH1 0x4 PUSH2 0x2EAD JUMP JUMPDEST PUSH2 0x100C JUMP JUMPDEST CALLVALUE DUP1 ISZERO PUSH2 0x7BA JUMPI PUSH0 DUP1 REVERT JUMPDEST POP PUSH2 0x282 PUSH2 0x7C9 CALLDATASIZE PUSH1 0x4 PUSH2 0x2EAD JUMP JUMPDEST PUSH1 0xB PUSH1 0x20 MSTORE PUSH0 SWAP1 DUP2 MSTORE PUSH1 0x40 SWAP1 KECCAK256 SLOAD DUP2 JUMP JUMPDEST CALLVALUE DUP1 ISZERO PUSH2 0x7E5 JUMPI PUSH0 DUP1 REVERT JUMPDEST POP PUSH1 0x12 SLOAD PUSH2 0x2E4 SWAP1 PUSH1 0x1 PUSH1 0x1 PUSH1 0xA0 SHL SUB AND DUP2 JUMP JUMPDEST PUSH2 0x801 PUSH2 0x1035 JUMP JUMPDEST PUSH2 0x809 PUSH2 0x1080 JUMP JUMPDEST PUSH2 0x814 DUP4 DUP4 DUP4 PUSH2 0x10A2 JUMP JUMPDEST POP POP POP JUMP JUMPDEST CALLER PUSH2 0x823 DUP2 PUSH2 0x1277 JUMP JUMPDEST PUSH2 0x82F DUP6 DUP6 DUP6 DUP6 PUSH2 0x1327 JUMP JUMPDEST PUSH1 0x5 DUP1 SLOAD PUSH4 0x1000000 PUSH1 0x1 PUSH1 0x98 SHL SUB NOT AND PUSH4 0x1000000 PUSH1 0x1 PUSH1 0x1 PUSH1 0x40 SHL SUB DUP9 DUP2 AND DUP3 MUL PUSH8 0xFFFFFFFFFFFFFFFF PUSH1 0x58 SHL NOT AND SWAP3 SWAP1 SWAP3 OR PUSH1 0x1 PUSH1 0x58 SHL DUP9 DUP5 AND DUP2 MUL SWAP2 SWAP1 SWAP2 OR PUSH8 0xFFFFFFFFFFFFFFFF PUSH1 0x98 SHL NOT AND PUSH1 0x1 PUSH1 0x98 SHL DUP9 DUP6 AND DUP2 MUL SWAP2 SWAP1 SWAP2 OR SWAP5 DUP6 SWAP1 SSTORE PUSH1 0x6 DUP1 SLOAD PUSH8 0xFFFFFFFFFFFFFFFF NOT AND DUP9 DUP7 AND SWAP1 DUP2 OR SWAP1 SWAP2 SSTORE PUSH1 0x40 MLOAD PUSH32 0xCB0FB7A7B87DB2F472EE8977444CFDBC51993CE660ACA27A5969A724FAE6DCF3 SWAP7 PUSH2 0x8ED SWAP7 SWAP6 DUP2 DIV DUP7 AND SWAP6 SWAP5 DUP2 DIV DUP6 AND SWAP5 SWAP4 SWAP1 DIV SWAP1 SWAP3 AND SWAP2 CALLER SWAP1 PUSH2 0x336F JUMP JUMPDEST PUSH1 0x40 MLOAD DUP1 SWAP2 SUB SWAP1 LOG1 POP POP POP POP POP JUMP JUMPDEST PUSH0 PUSH2 0x905 PUSH2 0x1035 JUMP JUMPDEST PUSH2 0x90D PUSH2 0x1080 JUMP JUMPDEST PUSH2 0x917 DUP4 DUP4 PUSH2 0x13C1 JUMP JUMPDEST SWAP1 POP JUMPDEST SWAP3 SWAP2 POP POP JUMP JUMPDEST CALLER PUSH2 0x92A DUP2 PUSH2 0x1277 JUMP JUMPDEST PUSH1 0x6 SLOAD PUSH2 0x943 SWAP1 PUSH1 0x1 PUSH1 0x1 PUSH1 0x40 SHL SUB AND PUSH3 0x278D00 PUSH2 0x33BE JUMP JUMPDEST PUSH1 0x1 PUSH1 0x1 PUSH1 0x40 SHL SUB AND TIMESTAMP GT PUSH2 0x96B JUMPI PUSH1 0x40 MLOAD PUSH4 0x7FCCE2A9 PUSH1 0xE0 SHL DUP2 MSTORE PUSH1 0x4 ADD PUSH1 0x40 MLOAD DUP1 SWAP2 SUB SWAP1 REVERT JUMPDEST PUSH1 0x1 SLOAD PUSH1 0x40 MLOAD PUSH4 0x68BCD8D PUSH1 0xE0 SHL DUP2 MSTORE PUSH0 SWAP2 PUSH1 0x1 PUSH1 0x1 PUSH1 0xA0 SHL SUB PUSH32 0x0 AND SWAP2 PUSH4 0x68BCD8D SWAP2 PUSH2 0x9BE SWAP2 PUSH1 0x4 ADD SWAP1 DUP2 MSTORE PUSH1 0x20 ADD SWAP1 JUMP JUMPDEST PUSH0 PUSH1 0x40 MLOAD DUP1 DUP4 SUB DUP2 DUP7 GAS STATICCALL ISZERO DUP1 ISZERO PUSH2 0x9D8 JUMPI RETURNDATASIZE PUSH0 DUP1 RETURNDATACOPY RETURNDATASIZE PUSH0 REVERT JUMPDEST POP POP POP POP PUSH1 0x40 MLOAD RETURNDATASIZE PUSH0 DUP3 RETURNDATACOPY PUSH1 0x1F RETURNDATASIZE SWAP1 DUP2 ADD PUSH1 0x1F NOT AND DUP3 ADD PUSH1 0x40 MSTORE PUSH2 0x9FF SWAP2 SWAP1 DUP2 ADD SWAP1 PUSH2 0x347E JUMP JUMPDEST SWAP1 POP PUSH1 0x2 SLOAD DUP4 GT ISZERO PUSH2 0xA24 JUMPI PUSH1 0x40 MLOAD PUSH4 0x7FCCE2A9 PUSH1 0xE0 SHL DUP2 MSTORE PUSH1 0x4 ADD PUSH1 0x40 MLOAD DUP1 SWAP2 SUB SWAP1 REVERT JUMPDEST DUP3 PUSH1 0x2 PUSH0 DUP3 DUP3 SLOAD PUSH2 0xA35 SWAP2 SWAP1 PUSH2 0x352C JUMP JUMPDEST SWAP1 SWAP2 SSTORE POP POP PUSH1 0x40 DUP2 ADD MLOAD PUSH2 0x814 SWAP1 CALLER DUP6 PUSH2 0x16E5 JUMP JUMPDEST PUSH2 0xA52 PUSH2 0x171F JUMP JUMPDEST CALLER PUSH2 0xA5C DUP2 PUSH2 0x1277 JUMP JUMPDEST PUSH0 JUMPDEST DUP3 MLOAD DUP2 LT ISZERO PUSH2 0x814 JUMPI PUSH0 DUP4 DUP3 DUP2 MLOAD DUP2 LT PUSH2 0xA7A JUMPI PUSH2 0xA7A PUSH2 0x353F JUMP JUMPDEST PUSH1 0x20 MUL PUSH1 0x20 ADD ADD MLOAD PUSH0 ADD MLOAD SWAP1 POP PUSH0 DUP5 DUP4 DUP2 MLOAD DUP2 LT PUSH2 0xA9A JUMPI PUSH2 0xA9A PUSH2 0x353F JUMP JUMPDEST PUSH1 0x20 SWAP1 DUP2 MUL SWAP2 SWAP1 SWAP2 ADD DUP2 ADD MLOAD DUP2 ADD MLOAD PUSH0 DUP5 DUP2 MSTORE PUSH1 0xB DUP4 MSTORE PUSH1 0x40 SWAP1 DUP2 SWAP1 KECCAK256 DUP3 SWAP1 SSTORE DUP1 MLOAD DUP3 DUP2 MSTORE CALLER SWAP4 DUP2 ADD SWAP4 SWAP1 SWAP4 MSTORE SWAP1 SWAP3 POP DUP4 SWAP2 PUSH32 0x941884A9A55191A7401466AAF8A0D2B7C8B082055A5A2B345B83C73940172AC4 SWAP2 ADD PUSH1 0x40 MLOAD DUP1 SWAP2 SUB SWAP1 LOG2 POP POP PUSH1 0x1 ADD PUSH2 0xA5E JUMP JUMPDEST PUSH0 PUSH1 0x1 PUSH2 0x91A JUMP JUMPDEST PUSH1 0x3 DUP1 SLOAD PUSH1 0x4 DUP1 SLOAD SWAP2 SWAP3 SWAP2 PUSH2 0xB1D SWAP1 PUSH2 0x3553 JUMP JUMPDEST DUP1 PUSH1 0x1F ADD PUSH1 0x20 DUP1 SWAP2 DIV MUL PUSH1 0x20 ADD PUSH1 0x40 MLOAD SWAP1 DUP2 ADD PUSH1 0x40 MSTORE DUP1 SWAP3 SWAP2 SWAP1 DUP2 DUP2 MSTORE PUSH1 0x20 ADD DUP3 DUP1 SLOAD PUSH2 0xB49 SWAP1 PUSH2 0x3553 JUMP JUMPDEST DUP1 ISZERO PUSH2 0xB94 JUMPI DUP1 PUSH1 0x1F LT PUSH2 0xB6B JUMPI PUSH2 0x100 DUP1 DUP4 SLOAD DIV MUL DUP4 MSTORE SWAP2 PUSH1 0x20 ADD SWAP2 PUSH2 0xB94 JUMP JUMPDEST DUP3 ADD SWAP2 SWAP1 PUSH0 MSTORE PUSH1 0x20 PUSH0 KECCAK256 SWAP1 JUMPDEST DUP2 SLOAD DUP2 MSTORE SWAP1 PUSH1 0x1 ADD SWAP1 PUSH1 0x20 ADD DUP1 DUP4 GT PUSH2 0xB77 JUMPI DUP3 SWAP1 SUB PUSH1 0x1F AND DUP3 ADD SWAP2 JUMPDEST POP POP POP POP POP SWAP1 POP DUP3 JUMP JUMPDEST PUSH0 PUSH2 0x91A DUP3 PUSH2 0x176F JUMP JUMPDEST PUSH2 0xBB0 PUSH2 0x2B08 JUMP JUMPDEST PUSH2 0x91A DUP3 PUSH2 0x17AD JUMP JUMPDEST PUSH2 0xBC1 PUSH2 0x18A3 JUMP JUMPDEST CALLER PUSH2 0xBCB DUP2 PUSH2 0x1277 JUMP JUMPDEST PUSH1 0x5 SLOAD PUSH3 0x10000 SWAP1 DIV PUSH1 0xFF AND ISZERO PUSH2 0xBF5 JUMPI PUSH1 0x40 MLOAD PUSH4 0x7FCCE2A9 PUSH1 0xE0 SHL DUP2 MSTORE PUSH1 0x4 ADD PUSH1 0x40 MLOAD DUP1 SWAP2 SUB SWAP1 REVERT JUMPDEST PUSH1 0xA DUP4 SWAP1 SSTORE DUP2 MLOAD PUSH1 0x3 SWAP1 DUP2 SSTORE PUSH1 0x20 DUP4 ADD MLOAD DUP4 SWAP2 SWAP1 PUSH1 0x4 SWAP1 PUSH2 0xC16 SWAP1 DUP3 PUSH2 0x35CF JUMP JUMPDEST POP SWAP1 POP POP PUSH32 0xDC7180CA4AFFC84269428ED20EF950E745126F11691B010C4A7D49458421008F PUSH1 0xA SLOAD PUSH1 0x3 PUSH1 0x40 MLOAD PUSH2 0xC4E SWAP3 SWAP2 SWAP1 PUSH2 0x368A JUMP JUMPDEST PUSH1 0x40 MLOAD DUP1 SWAP2 SUB SWAP1 LOG1 POP POP POP JUMP JUMPDEST PUSH1 0x60 DUP2 PUSH1 0x1 PUSH1 0x1 PUSH1 0x40 SHL SUB DUP2 GT ISZERO PUSH2 0xC75 JUMPI PUSH2 0xC75 PUSH2 0x2B7A JUMP JUMPDEST PUSH1 0x40 MLOAD SWAP1 DUP1 DUP3 MSTORE DUP1 PUSH1 0x20 MUL PUSH1 0x20 ADD DUP3 ADD PUSH1 0x40 MSTORE DUP1 ISZERO PUSH2 0xCA8 JUMPI DUP2 PUSH1 0x20 ADD JUMPDEST PUSH1 0x60 DUP2 MSTORE PUSH1 0x20 ADD SWAP1 PUSH1 0x1 SWAP1 SUB SWAP1 DUP2 PUSH2 0xC93 JUMPI SWAP1 POP JUMPDEST POP SWAP1 POP PUSH0 JUMPDEST DUP3 DUP2 LT ISZERO PUSH2 0xD3B JUMPI PUSH2 0xD16 ADDRESS DUP6 DUP6 DUP5 DUP2 DUP2 LT PUSH2 0xCCB JUMPI PUSH2 0xCCB PUSH2 0x353F JUMP JUMPDEST SWAP1 POP PUSH1 0x20 MUL DUP2 ADD SWAP1 PUSH2 0xCDD SWAP2 SWAP1 PUSH2 0x372F JUMP JUMPDEST DUP1 DUP1 PUSH1 0x1F ADD PUSH1 0x20 DUP1 SWAP2 DIV MUL PUSH1 0x20 ADD PUSH1 0x40 MLOAD SWAP1 DUP2 ADD PUSH1 0x40 MSTORE DUP1 SWAP4 SWAP3 SWAP2 SWAP1 DUP2 DUP2 MSTORE PUSH1 0x20 ADD DUP4 DUP4 DUP1 DUP3 DUP5 CALLDATACOPY PUSH0 SWAP3 ADD SWAP2 SWAP1 SWAP2 MSTORE POP PUSH2 0x18CF SWAP3 POP POP POP JUMP JUMPDEST DUP3 DUP3 DUP2 MLOAD DUP2 LT PUSH2 0xD28 JUMPI PUSH2 0xD28 PUSH2 0x353F JUMP JUMPDEST PUSH1 0x20 SWAP1 DUP2 MUL SWAP2 SWAP1 SWAP2 ADD ADD MSTORE PUSH1 0x1 ADD PUSH2 0xCAD JUMP JUMPDEST POP SWAP3 SWAP2 POP POP JUMP JUMPDEST DUP2 MLOAD DUP2 MLOAD PUSH1 0x60 SWAP2 SWAP1 DUP2 EQ PUSH2 0xD69 JUMPI PUSH1 0x40 MLOAD PUSH4 0x3DA4C02B PUSH1 0xE1 SHL DUP2 MSTORE PUSH1 0x4 ADD PUSH1 0x40 MLOAD DUP1 SWAP2 SUB SWAP1 REVERT JUMPDEST PUSH0 DUP2 PUSH1 0x1 PUSH1 0x1 PUSH1 0x40 SHL SUB DUP2 GT ISZERO PUSH2 0xD82 JUMPI PUSH2 0xD82 PUSH2 0x2B7A JUMP JUMPDEST PUSH1 0x40 MLOAD SWAP1 DUP1 DUP3 MSTORE DUP1 PUSH1 0x20 MUL PUSH1 0x20 ADD DUP3 ADD PUSH1 0x40 MSTORE DUP1 ISZERO PUSH2 0xDC6 JUMPI DUP2 PUSH1 0x20 ADD JUMPDEST PUSH1 0x40 DUP1 MLOAD DUP1 DUP3 ADD SWAP1 SWAP2 MSTORE PUSH0 DUP1 DUP3 MSTORE PUSH1 0x20 DUP3 ADD MSTORE DUP2 MSTORE PUSH1 0x20 ADD SWAP1 PUSH1 0x1 SWAP1 SUB SWAP1 DUP2 PUSH2 0xDA0 JUMPI SWAP1 POP JUMPDEST POP SWAP1 POP PUSH0 JUMPDEST DUP3 DUP2 LT ISZERO PUSH2 0xE34 JUMPI PUSH2 0xE0F DUP7 DUP3 DUP2 MLOAD DUP2 LT PUSH2 0xDE8 JUMPI PUSH2 0xDE8 PUSH2 0x353F JUMP JUMPDEST PUSH1 0x20 MUL PUSH1 0x20 ADD ADD MLOAD DUP7 DUP4 DUP2 MLOAD DUP2 LT PUSH2 0xE02 JUMPI PUSH2 0xE02 PUSH2 0x353F JUMP JUMPDEST PUSH1 0x20 MUL PUSH1 0x20 ADD ADD MLOAD PUSH2 0x18F4 JUMP JUMPDEST DUP3 DUP3 DUP2 MLOAD DUP2 LT PUSH2 0xE21 JUMPI PUSH2 0xE21 PUSH2 0x353F JUMP JUMPDEST PUSH1 0x20 SWAP1 DUP2 MUL SWAP2 SWAP1 SWAP2 ADD ADD MSTORE PUSH1 0x1 ADD PUSH2 0xDCB JUMP JUMPDEST POP SWAP5 SWAP4 POP POP POP POP JUMP JUMPDEST PUSH0 DUP1 PUSH4 0xFFFFFFFF DUP4 AND PUSH2 0xE54 DUP6 PUSH4 0x3B9ACA00 PUSH2 0x3778 JUMP JUMPDEST PUSH2 0xE5E SWAP2 SWAP1 PUSH2 0x37B7 JUMP JUMPDEST PUSH1 0x1 PUSH1 0x1 PUSH1 0x80 SHL SUB AND SWAP1 POP PUSH1 0x11 PUSH0 SWAP1 SLOAD SWAP1 PUSH2 0x100 EXP SWAP1 DIV PUSH1 0x1 PUSH1 0x1 PUSH1 0xA0 SHL SUB AND PUSH1 0x1 PUSH1 0x1 PUSH1 0xA0 SHL SUB AND PUSH4 0xC82051DD PUSH1 0x40 MLOAD DUP2 PUSH4 0xFFFFFFFF AND PUSH1 0xE0 SHL DUP2 MSTORE PUSH1 0x4 ADD PUSH1 0x20 PUSH1 0x40 MLOAD DUP1 DUP4 SUB DUP2 DUP7 GAS STATICCALL ISZERO DUP1 ISZERO PUSH2 0xEB9 JUMPI RETURNDATASIZE PUSH0 DUP1 RETURNDATACOPY RETURNDATASIZE PUSH0 REVERT JUMPDEST POP POP POP POP PUSH1 0x40 MLOAD RETURNDATASIZE PUSH1 0x1F NOT PUSH1 0x1F DUP3 ADD AND DUP3 ADD DUP1 PUSH1 0x40 MSTORE POP DUP2 ADD SWAP1 PUSH2 0xEDD SWAP2 SWAP1 PUSH2 0x37DC JUMP JUMPDEST PUSH1 0x1 PUSH1 0x1 PUSH1 0xA0 SHL SUB AND DUP2 PUSH1 0x1 PUSH1 0x1 PUSH1 0xA0 SHL SUB AND LT ISZERO PUSH2 0x917 JUMPI PUSH1 0x11 PUSH0 SWAP1 SLOAD SWAP1 PUSH2 0x100 EXP SWAP1 DIV PUSH1 0x1 PUSH1 0x1 PUSH1 0xA0 SHL SUB AND PUSH1 0x1 PUSH1 0x1 PUSH1 0xA0 SHL SUB AND PUSH4 0xC82051DD PUSH1 0x40 MLOAD DUP2 PUSH4 0xFFFFFFFF AND PUSH1 0xE0 SHL DUP2 MSTORE PUSH1 0x4 ADD PUSH1 0x20 PUSH1 0x40 MLOAD DUP1 DUP4 SUB DUP2 DUP7 GAS STATICCALL ISZERO DUP1 ISZERO PUSH2 0xF46 JUMPI RETURNDATASIZE PUSH0 DUP1 RETURNDATACOPY RETURNDATASIZE PUSH0 REVERT JUMPDEST POP POP POP POP PUSH1 0x40 MLOAD RETURNDATASIZE PUSH1 0x1F NOT PUSH1 0x1F DUP3 ADD AND DUP3 ADD DUP1 PUSH1 0x40 MSTORE POP DUP2 ADD SWAP1 PUSH2 0xF6A SWAP2 SWAP1 PUSH2 0x37DC JUMP JUMPDEST SWAP2 POP POP PUSH2 0x91A JUMP JUMPDEST PUSH0 PUSH2 0xF7B PUSH2 0x19AB JUMP JUMPDEST SWAP1 POP SWAP1 JUMP JUMPDEST PUSH0 PUSH2 0x91A DUP3 PUSH2 0x19F2 JUMP JUMPDEST PUSH2 0xF92 PUSH2 0x1035 JUMP JUMPDEST PUSH0 DUP2 DUP1 PUSH1 0x20 ADD SWAP1 MLOAD DUP2 ADD SWAP1 PUSH2 0xFA7 SWAP2 SWAP1 PUSH2 0x3876 JUMP JUMPDEST SWAP1 POP PUSH2 0xFB3 DUP4 DUP3 PUSH2 0x1A10 JUMP JUMPDEST PUSH2 0xFBD DUP4 DUP3 PUSH2 0x1BFF JUMP JUMPDEST PUSH32 0x91EFA3D50FECCDE0D0D202F8AE5C41CA0B2BE614CEBCB2BD2F4B019396E6568A DUP4 DUP4 PUSH1 0x40 MLOAD PUSH2 0xC4E SWAP3 SWAP2 SWAP1 PUSH2 0x2FBF JUMP JUMPDEST PUSH2 0xFF6 PUSH2 0x1035 JUMP JUMPDEST PUSH2 0xFFE PUSH2 0x1080 JUMP JUMPDEST PUSH2 0x1008 DUP3 DUP3 PUSH2 0x1E86 JUMP JUMPDEST POP POP JUMP JUMPDEST PUSH2 0x1014 PUSH2 0x1035 JUMP JUMPDEST DUP1 PUSH1 0x2 PUSH0 DUP3 DUP3 SLOAD PUSH2 0x1025 SWAP2 SWAP1 PUSH2 0x398E JUMP JUMPDEST SWAP1 SWAP2 SSTORE POP PUSH2 0x1032 SWAP1 POP DUP2 DUP2 JUMP JUMPDEST POP JUMP JUMPDEST CALLER PUSH1 0x1 PUSH1 0x1 PUSH1 0xA0 SHL SUB PUSH32 0x0 AND EQ PUSH2 0x107E JUMPI PUSH1 0x40 MLOAD PUSH4 0x75FD2B1 PUSH1 0xE0 SHL DUP2 MSTORE PUSH1 0x4 ADD PUSH1 0x40 MLOAD DUP1 SWAP2 SUB SWAP1 REVERT JUMPDEST JUMP JUMPDEST PUSH1 0x1 SLOAD PUSH0 SUB PUSH2 0x107E JUMPI PUSH1 0x40 MLOAD PUSH4 0xF68FE63 PUSH1 0xE2 SHL DUP2 MSTORE PUSH1 0x4 ADD PUSH1 0x40 MLOAD DUP1 SWAP2 SUB SWAP1 REVERT JUMPDEST DUP1 PUSH2 0x10AC DUP2 PUSH2 0x1277 JUMP JUMPDEST PUSH1 0x5 SLOAD PUSH3 0x10000 SWAP1 DIV PUSH1 0xFF AND PUSH2 0x10CE JUMPI PUSH1 0x5 DUP1 SLOAD PUSH3 0xFF0000 NOT AND PUSH3 0x10000 OR SWAP1 SSTORE JUMPDEST PUSH1 0x13 SLOAD PUSH1 0x1 PUSH1 0xA0 SHL SWAP1 DIV PUSH1 0xFF AND ISZERO PUSH2 0x11EC JUMPI PUSH1 0x60 DUP1 PUSH0 DUP1 PUSH0 DUP1 DUP9 DUP1 PUSH1 0x20 ADD SWAP1 MLOAD DUP2 ADD SWAP1 PUSH2 0x10FB SWAP2 SWAP1 PUSH2 0x3B07 JUMP JUMPDEST SWAP5 SWAP11 POP SWAP3 SWAP9 POP SWAP1 SWAP7 POP SWAP5 POP SWAP3 POP SWAP1 POP PUSH0 PUSH2 0x1115 DUP7 DUP6 PUSH2 0x1F27 JUMP JUMPDEST PUSH1 0x13 SLOAD PUSH1 0x10 SLOAD PUSH1 0x40 MLOAD PUSH4 0x6EF2AA63 PUSH1 0xE1 SHL DUP2 MSTORE SWAP3 SWAP4 POP PUSH0 SWAP3 PUSH1 0x1 PUSH1 0x1 PUSH1 0xA0 SHL SUB SWAP3 DUP4 AND SWAP3 PUSH4 0xDDE554C6 SWAP3 PUSH2 0x115A SWAP3 SWAP2 AND SWAP1 DUP13 SWAP1 DUP12 SWAP1 DUP9 SWAP1 DUP12 SWAP1 DUP12 SWAP1 ADDRESS SWAP1 PUSH1 0x4 ADD PUSH2 0x3C63 JUMP JUMPDEST PUSH1 0x20 PUSH1 0x40 MLOAD DUP1 DUP4 SUB DUP2 PUSH0 DUP8 GAS CALL ISZERO DUP1 ISZERO PUSH2 0x1176 JUMPI RETURNDATASIZE PUSH0 DUP1 RETURNDATACOPY RETURNDATASIZE PUSH0 REVERT JUMPDEST POP POP POP POP PUSH1 0x40 MLOAD RETURNDATASIZE PUSH1 0x1F NOT PUSH1 0x1F DUP3 ADD AND DUP3 ADD DUP1 PUSH1 0x40 MSTORE POP DUP2 ADD SWAP1 PUSH2 0x119A SWAP2 SWAP1 PUSH2 0x3CC9 JUMP JUMPDEST PUSH1 0x40 MLOAD PUSH1 0xF DUP3 SWAP1 SIGNEXTEND DUP2 MSTORE SWAP1 SWAP2 POP PUSH1 0x1 PUSH1 0x1 PUSH1 0xA0 SHL SUB DUP12 AND SWAP1 PUSH32 0x3701B4F70EB2CD5C342B79A3D54FFE5872BB7DE314E3BA3EF6DE34ED8A873373 SWAP1 PUSH1 0x20 ADD PUSH1 0x40 MLOAD DUP1 SWAP2 SUB SWAP1 LOG2 POP POP POP POP POP POP POP POP PUSH2 0x1271 JUMP JUMPDEST PUSH0 DUP4 DUP1 PUSH1 0x20 ADD SWAP1 MLOAD DUP2 ADD SWAP1 PUSH2 0x1201 SWAP2 SWAP1 PUSH2 0x3CE2 JUMP JUMPDEST DUP1 MLOAD SWAP1 SWAP2 POP PUSH0 JUMPDEST DUP2 DUP2 LT ISZERO PUSH2 0x123A JUMPI PUSH2 0x1232 DUP4 DUP3 DUP2 MLOAD DUP2 LT PUSH2 0x1225 JUMPI PUSH2 0x1225 PUSH2 0x353F JUMP JUMPDEST PUSH1 0x20 MUL PUSH1 0x20 ADD ADD MLOAD PUSH2 0x218F JUMP JUMPDEST PUSH1 0x1 ADD PUSH2 0x1208 JUMP JUMPDEST POP PUSH1 0x40 MLOAD PUSH1 0x1 PUSH1 0x1 PUSH1 0xA0 SHL SUB DUP6 AND SWAP1 PUSH32 0x7EC3272052827F7B50D9E84F98172CBB80C112DF1E377C5B97EA77F1812DB8D9 SWAP1 PUSH0 SWAP1 LOG2 POP POP JUMPDEST POP POP POP POP JUMP JUMPDEST PUSH1 0x1 SLOAD PUSH1 0x40 MLOAD PUSH4 0x29E40D4B PUSH1 0xE0 SHL DUP2 MSTORE PUSH1 0x4 DUP2 ADD SWAP2 SWAP1 SWAP2 MSTORE PUSH1 0x1 PUSH1 0x1 PUSH1 0xA0 SHL SUB DUP3 DUP2 AND PUSH1 0x24 DUP4 ADD MSTORE PUSH32 0x0 AND SWAP1 PUSH4 0x29E40D4B SWAP1 PUSH1 0x44 ADD PUSH1 0x20 PUSH1 0x40 MLOAD DUP1 DUP4 SUB DUP2 DUP7 GAS STATICCALL ISZERO DUP1 ISZERO PUSH2 0x12E6 JUMPI RETURNDATASIZE PUSH0 DUP1 RETURNDATACOPY RETURNDATASIZE PUSH0 REVERT JUMPDEST POP POP POP POP PUSH1 0x40 MLOAD RETURNDATASIZE PUSH1 0x1F NOT PUSH1 0x1F DUP3 ADD AND DUP3 ADD DUP1 PUSH1 0x40 MSTORE POP DUP2 ADD SWAP1 PUSH2 0x130A SWAP2 SWAP1 PUSH2 0x3D26 JUMP JUMPDEST PUSH2 0x1032 JUMPI PUSH1 0x40 MLOAD PUSH4 0x75FD2B1 PUSH1 0xE0 SHL DUP2 MSTORE PUSH1 0x4 ADD PUSH1 0x40 MLOAD DUP1 SWAP2 SUB SWAP1 REVERT JUMPDEST DUP4 PUSH1 0x1 PUSH1 0x1 PUSH1 0x40 SHL SUB AND TIMESTAMP GT DUP1 PUSH2 0x134F JUMPI POP DUP3 PUSH1 0x1 PUSH1 0x1 PUSH1 0x40 SHL SUB AND DUP5 PUSH1 0x1 PUSH1 0x1 PUSH1 0x40 SHL SUB AND GT JUMPDEST DUP1 PUSH2 0x136B JUMPI POP DUP2 PUSH1 0x1 PUSH1 0x1 PUSH1 0x40 SHL SUB AND DUP5 PUSH1 0x1 PUSH1 0x1 PUSH1 0x40 SHL SUB AND GT JUMPDEST DUP1 PUSH2 0x1387 JUMPI POP DUP1 PUSH1 0x1 PUSH1 0x1 PUSH1 0x40 SHL SUB AND DUP3 PUSH1 0x1 PUSH1 0x1 PUSH1 0x40 SHL SUB AND GT JUMPDEST DUP1 PUSH2 0x13A3 JUMPI POP DUP1 PUSH1 0x1 PUSH1 0x1 PUSH1 0x40 SHL SUB AND DUP4 PUSH1 0x1 PUSH1 0x1 PUSH1 0x40 SHL SUB AND GT JUMPDEST ISZERO PUSH2 0x1271 JUMPI PUSH1 0x40 MLOAD PUSH4 0x7FCCE2A9 PUSH1 0xE0 SHL DUP2 MSTORE PUSH1 0x4 ADD PUSH1 0x40 MLOAD DUP1 SWAP2 SUB SWAP1 REVERT JUMPDEST PUSH0 PUSH2 0x13CA PUSH2 0x171F JUMP JUMPDEST PUSH0 DUP1 PUSH0 PUSH2 0x13E9 PUSH1 0x40 MLOAD DUP1 PUSH1 0x40 ADD PUSH1 0x40 MSTORE DUP1 PUSH0 DUP2 MSTORE PUSH1 0x20 ADD PUSH1 0x60 DUP2 MSTORE POP SWAP1 JUMP JUMPDEST PUSH1 0x5 SLOAD PUSH1 0xFF AND ISZERO PUSH2 0x143B JUMPI DUP7 DUP1 PUSH1 0x20 ADD SWAP1 MLOAD DUP2 ADD SWAP1 PUSH2 0x1408 SWAP2 SWAP1 PUSH2 0x3D3F JUMP JUMPDEST SWAP2 SWAP7 POP SWAP4 POP SWAP1 POP PUSH2 0x1419 DUP6 DUP8 PUSH2 0x22F6 JUMP JUMPDEST PUSH2 0x1436 JUMPI PUSH1 0x40 MLOAD PUSH4 0x75FD2B1 PUSH1 0xE0 SHL DUP2 MSTORE PUSH1 0x4 ADD PUSH1 0x40 MLOAD DUP1 SWAP2 SUB SWAP1 REVERT JUMPDEST PUSH2 0x14A5 JUMP JUMPDEST DUP7 DUP1 PUSH1 0x20 ADD SWAP1 MLOAD DUP2 ADD SWAP1 PUSH2 0x144F SWAP2 SWAP1 PUSH2 0x3D3F JUMP JUMPDEST PUSH1 0x1 PUSH1 0x1 PUSH1 0xA0 SHL SUB DUP3 AND ISZERO ISZERO SWAP7 POP SWAP2 SWAP5 POP SWAP3 POP SWAP1 POP DUP4 PUSH2 0x146F JUMPI DUP6 PUSH2 0x1471 JUMP JUMPDEST DUP2 JUMPDEST SWAP5 POP DUP4 DUP1 ISZERO PUSH2 0x1487 JUMPI POP PUSH2 0x1485 DUP6 DUP8 PUSH2 0x22F6 JUMP JUMPDEST ISZERO JUMPDEST ISZERO PUSH2 0x14A5 JUMPI PUSH1 0x40 MLOAD PUSH4 0x75FD2B1 PUSH1 0xE0 SHL DUP2 MSTORE PUSH1 0x4 ADD PUSH1 0x40 MLOAD DUP1 SWAP2 SUB SWAP1 REVERT JUMPDEST PUSH1 0x5 SLOAD PUSH2 0x100 SWAP1 DIV PUSH1 0xFF AND DUP1 ISZERO PUSH2 0x14C8 JUMPI POP PUSH1 0x20 DUP2 ADD MLOAD MLOAD ISZERO DUP1 PUSH2 0x14C8 JUMPI POP DUP1 MLOAD ISZERO JUMPDEST ISZERO PUSH2 0x14E6 JUMPI PUSH1 0x40 MLOAD PUSH4 0xC19E07C5 PUSH1 0xE0 SHL DUP2 MSTORE PUSH1 0x4 ADD PUSH1 0x40 MLOAD DUP1 SWAP2 SUB SWAP1 REVERT JUMPDEST PUSH1 0x1 PUSH1 0x1 PUSH1 0xA0 SHL SUB DUP4 AND PUSH2 0x151D JUMPI PUSH1 0x40 MLOAD PUSH4 0xF4A513B9 PUSH1 0xE0 SHL DUP2 MSTORE PUSH1 0x1 PUSH1 0x1 PUSH1 0xA0 SHL SUB DUP7 AND PUSH1 0x4 DUP3 ADD MSTORE PUSH1 0x24 ADD JUMPDEST PUSH1 0x40 MLOAD DUP1 SWAP2 SUB SWAP1 REVERT JUMPDEST PUSH1 0x1 PUSH1 0x1 PUSH1 0xA0 SHL SUB DUP1 DUP7 AND PUSH0 SWAP1 DUP2 MSTORE PUSH1 0xF PUSH1 0x20 SWAP1 DUP2 MSTORE PUSH1 0x40 SWAP1 SWAP2 KECCAK256 DUP1 SLOAD SWAP3 DUP7 AND PUSH2 0x100 MUL PUSH2 0x100 PUSH1 0x1 PUSH1 0xA8 SHL SUB NOT SWAP1 SWAP4 AND SWAP3 SWAP1 SWAP3 OR DUP3 SSTORE DUP3 MLOAD PUSH1 0x1 DUP4 ADD SWAP1 DUP2 SSTORE SWAP1 DUP4 ADD MLOAD DUP4 SWAP2 SWAP1 PUSH1 0x2 DUP5 ADD SWAP1 PUSH2 0x1573 SWAP1 DUP3 PUSH2 0x35CF JUMP JUMPDEST POP POP PUSH1 0x5 SLOAD PUSH1 0xFF AND SWAP1 POP PUSH2 0x1587 JUMPI DUP5 PUSH2 0x158A JUMP JUMPDEST PUSH1 0x1 JUMPDEST DUP2 SLOAD PUSH1 0xFF NOT AND SWAP1 ISZERO ISZERO OR DUP2 SSTORE PUSH0 PUSH2 0x15A0 DUP8 PUSH2 0x23E7 JUMP JUMPDEST SWAP1 POP PUSH1 0xFF DUP2 AND PUSH2 0x1658 JUMPI PUSH1 0x8 SLOAD PUSH1 0x1 PUSH1 0x1 PUSH1 0xA0 SHL SUB DUP9 AND PUSH0 SWAP1 DUP2 MSTORE PUSH1 0xC PUSH1 0x20 MSTORE PUSH1 0x40 SWAP1 KECCAK256 SSTORE PUSH2 0x15D4 DUP8 PUSH1 0x1 JUMPDEST PUSH1 0xFF AND PUSH2 0x2401 JUMP JUMPDEST PUSH0 DUP10 PUSH1 0x8 SLOAD PUSH1 0x40 MLOAD PUSH1 0x20 ADD PUSH2 0x15EA SWAP3 SWAP2 SWAP1 PUSH2 0x3D9E JUMP JUMPDEST PUSH1 0x40 MLOAD PUSH1 0x20 DUP2 DUP4 SUB SUB DUP2 MSTORE SWAP1 PUSH1 0x40 MSTORE SWAP1 POP DUP8 PUSH1 0x1 PUSH1 0x1 PUSH1 0xA0 SHL SUB AND PUSH32 0xA197306E3DD5494A61A695381AA809A53B8E377A685E84E404A85D5A8DA6CC62 DUP3 DUP12 PUSH1 0x40 MLOAD PUSH2 0x1636 SWAP3 SWAP2 SWAP1 PUSH2 0x3DBF JUMP JUMPDEST PUSH1 0x40 MLOAD DUP1 SWAP2 SUB SWAP1 LOG2 PUSH1 0x8 DUP1 SLOAD SWAP1 PUSH0 PUSH2 0x164D DUP4 PUSH2 0x3DE8 JUMP JUMPDEST SWAP2 SWAP1 POP SSTORE POP POP PUSH2 0x16D9 JUMP JUMPDEST PUSH1 0x1 NOT PUSH1 0xFF DUP3 AND ADD PUSH2 0x1674 JUMPI PUSH2 0x166F DUP8 PUSH1 0x1 PUSH2 0x15CC JUMP JUMPDEST PUSH2 0x168B JUMP JUMPDEST PUSH1 0x2 NOT PUSH1 0xFF DUP3 AND ADD PUSH2 0x168B JUMPI PUSH2 0x168B DUP8 PUSH1 0x4 PUSH2 0x15CC JUMP JUMPDEST DUP7 PUSH1 0x1 PUSH1 0x1 PUSH1 0xA0 SHL SUB AND PUSH32 0xCEC1DA3F7F0B8A344DD1025D06E2DDD48B14880395997AD97CBDB439ACC761D4 DUP11 DUP11 PUSH2 0x16C1 DUP12 PUSH2 0x23E7 JUMP JUMPDEST PUSH1 0x40 MLOAD PUSH2 0x16D0 SWAP4 SWAP3 SWAP2 SWAP1 PUSH2 0x3E00 JUMP JUMPDEST PUSH1 0x40 MLOAD DUP1 SWAP2 SUB SWAP1 LOG2 JUMPDEST POP POP POP POP POP POP SWAP3 SWAP2 POP POP JUMP JUMPDEST PUSH20 0xEEEEEEEEEEEEEEEEEEEEEEEEEEEEEEEEEEEEEEED NOT PUSH1 0x1 PUSH1 0x1 PUSH1 0xA0 SHL SUB DUP5 AND ADD PUSH2 0x1714 JUMPI PUSH2 0x814 DUP3 DUP3 PUSH2 0x2431 JUMP JUMPDEST PUSH2 0x814 DUP4 DUP4 DUP4 PUSH2 0x244A JUMP JUMPDEST PUSH1 0x5 SLOAD TIMESTAMP PUSH4 0x1000000 SWAP1 SWAP2 DIV PUSH1 0x1 PUSH1 0x1 PUSH1 0x40 SHL SUB AND GT DUP1 PUSH2 0x1751 JUMPI POP PUSH1 0x5 SLOAD PUSH1 0x1 PUSH1 0x58 SHL SWAP1 DIV PUSH1 0x1 PUSH1 0x1 PUSH1 0x40 SHL SUB AND TIMESTAMP GT JUMPDEST ISZERO PUSH2 0x107E JUMPI PUSH1 0x40 MLOAD PUSH4 0x5B04F6AD PUSH1 0xE1 SHL DUP2 MSTORE PUSH1 0x4 ADD PUSH1 0x40 MLOAD DUP1 SWAP2 SUB SWAP1 REVERT JUMPDEST PUSH0 DUP1 PUSH2 0x177D PUSH2 0x100 DUP5 PUSH2 0x3E35 JUMP JUMPDEST SWAP1 POP PUSH0 PUSH2 0x178C PUSH2 0x100 DUP6 PUSH2 0x3E48 JUMP JUMPDEST PUSH0 SWAP3 DUP4 MSTORE PUSH1 0xD PUSH1 0x20 MSTORE PUSH1 0x40 SWAP1 SWAP3 KECCAK256 SLOAD PUSH1 0x1 SWAP1 SWAP3 SHL SWAP2 DUP3 AND SWAP1 SWAP2 EQ SWAP4 SWAP3 POP POP POP JUMP JUMPDEST PUSH2 0x17B5 PUSH2 0x2B08 JUMP JUMPDEST PUSH1 0x1 PUSH1 0x1 PUSH1 0xA0 SHL SUB DUP1 DUP4 AND PUSH0 SWAP1 DUP2 MSTORE PUSH1 0xF PUSH1 0x20 SWAP1 DUP2 MSTORE PUSH1 0x40 SWAP2 DUP3 SWAP1 KECCAK256 DUP3 MLOAD PUSH1 0x60 DUP2 ADD DUP5 MSTORE DUP2 SLOAD PUSH1 0xFF DUP2 AND ISZERO ISZERO DUP3 MSTORE PUSH2 0x100 SWAP1 DIV SWAP1 SWAP5 AND DUP5 DUP4 ADD MSTORE DUP3 MLOAD DUP1 DUP5 ADD DUP5 MSTORE PUSH1 0x1 DUP3 ADD DUP1 SLOAD DUP3 MSTORE PUSH1 0x2 DUP4 ADD DUP1 SLOAD SWAP4 SWAP6 DUP8 ADD SWAP5 SWAP3 SWAP4 SWAP2 SWAP3 DUP5 ADD SWAP2 PUSH2 0x1819 SWAP1 PUSH2 0x3553 JUMP JUMPDEST DUP1 PUSH1 0x1F ADD PUSH1 0x20 DUP1 SWAP2 DIV MUL PUSH1 0x20 ADD PUSH1 0x40 MLOAD SWAP1 DUP2 ADD PUSH1 0x40 MSTORE DUP1 SWAP3 SWAP2 SWAP1 DUP2 DUP2 MSTORE PUSH1 0x20 ADD DUP3 DUP1 SLOAD PUSH2 0x1845 SWAP1 PUSH2 0x3553 JUMP JUMPDEST DUP1 ISZERO PUSH2 0x1890 JUMPI DUP1 PUSH1 0x1F LT PUSH2 0x1867 JUMPI PUSH2 0x100 DUP1 DUP4 SLOAD DIV MUL DUP4 MSTORE SWAP2 PUSH1 0x20 ADD SWAP2 PUSH2 0x1890 JUMP JUMPDEST DUP3 ADD SWAP2 SWAP1 PUSH0 MSTORE PUSH1 0x20 PUSH0 KECCAK256 SWAP1 JUMPDEST DUP2 SLOAD DUP2 MSTORE SWAP1 PUSH1 0x1 ADD SWAP1 PUSH1 0x20 ADD DUP1 DUP4 GT PUSH2 0x1873 JUMPI DUP3 SWAP1 SUB PUSH1 0x1F AND DUP3 ADD SWAP2 JUMPDEST POP POP POP SWAP2 SWAP1 SWAP3 MSTORE POP POP POP SWAP1 MSTORE POP SWAP3 SWAP2 POP POP JUMP JUMPDEST PUSH1 0x6 SLOAD PUSH1 0x1 PUSH1 0x1 PUSH1 0x40 SHL SUB AND TIMESTAMP LT ISZERO PUSH2 0x107E JUMPI PUSH1 0x40 MLOAD PUSH4 0x4543CED1 PUSH1 0xE1 SHL DUP2 MSTORE PUSH1 0x4 ADD PUSH1 0x40 MLOAD DUP1 SWAP2 SUB SWAP1 REVERT JUMPDEST PUSH1 0x60 PUSH2 0x917 DUP4 DUP4 PUSH1 0x40 MLOAD DUP1 PUSH1 0x60 ADD PUSH1 0x40 MSTORE DUP1 PUSH1 0x27 DUP2 MSTORE PUSH1 0x20 ADD PUSH2 0x408E PUSH1 0x27 SWAP2 CODECOPY PUSH2 0x248A JUMP JUMPDEST PUSH1 0x40 DUP1 MLOAD DUP1 DUP3 ADD SWAP1 SWAP2 MSTORE PUSH0 DUP1 DUP3 MSTORE PUSH1 0x20 DUP3 ADD MSTORE PUSH0 DUP3 DUP1 PUSH1 0x20 ADD SWAP1 MLOAD DUP2 ADD SWAP1 PUSH2 0x191C SWAP2 SWAP1 PUSH2 0x3E5B JUMP JUMPDEST DUP1 MLOAD PUSH1 0x20 DUP3 ADD MLOAD PUSH1 0x40 DUP4 ADD MLOAD PUSH1 0x60 DUP5 ADD MLOAD SWAP4 SWAP5 POP SWAP2 SWAP3 SWAP1 SWAP2 SWAP1 PUSH0 PUSH2 0x193F DUP5 PUSH2 0x17AD JUMP JUMPDEST PUSH1 0x20 ADD MLOAD SWAP1 POP PUSH2 0x1952 DUP6 DUP6 DUP4 DUP7 DUP7 PUSH2 0x24FE JUMP JUMPDEST ISZERO PUSH2 0x1982 JUMPI PUSH1 0x40 MLOAD DUP1 PUSH1 0x40 ADD PUSH1 0x40 MSTORE DUP1 DUP3 PUSH1 0x1 PUSH1 0x1 PUSH1 0xA0 SHL SUB AND DUP2 MSTORE PUSH1 0x20 ADD DUP5 DUP2 MSTORE POP SWAP7 POP POP POP POP POP POP POP PUSH2 0x91A JUMP JUMPDEST PUSH1 0x40 DUP1 MLOAD DUP1 DUP3 ADD SWAP1 SWAP2 MSTORE PUSH1 0x1 PUSH1 0x1 PUSH1 0xA0 SHL SUB SWAP1 SWAP2 AND DUP2 MSTORE PUSH0 PUSH1 0x20 DUP3 ADD MSTORE SWAP9 SWAP8 POP POP POP POP POP POP POP POP JUMP JUMPDEST PUSH1 0x5 SLOAD PUSH0 SWAP1 TIMESTAMP PUSH4 0x1000000 SWAP1 SWAP2 DIV PUSH1 0x1 PUSH1 0x1 PUSH1 0x40 SHL SUB AND GT DUP1 ISZERO SWAP1 PUSH2 0x19E2 JUMPI POP PUSH1 0x5 SLOAD PUSH1 0x1 PUSH1 0x58 SHL SWAP1 DIV PUSH1 0x1 PUSH1 0x1 PUSH1 0x40 SHL SUB AND TIMESTAMP GT ISZERO JUMPDEST ISZERO PUSH2 0x19ED JUMPI POP PUSH1 0x1 SWAP1 JUMP JUMPDEST POP PUSH0 SWAP1 JUMP JUMPDEST PUSH0 PUSH2 0x19FC DUP3 PUSH2 0x23E7 JUMP JUMPDEST PUSH1 0xFF AND PUSH1 0x6 DUP2 GT ISZERO PUSH2 0x91A JUMPI PUSH2 0x91A PUSH2 0x32F2 JUMP JUMPDEST PUSH1 0x40 MLOAD PUSH4 0x68BCD8D PUSH1 0xE0 SHL DUP2 MSTORE PUSH1 0x4 DUP2 ADD DUP4 SWAP1 MSTORE PUSH0 SWAP1 PUSH32 0x0 PUSH1 0x1 PUSH1 0x1 PUSH1 0xA0 SHL SUB AND SWAP1 PUSH4 0x68BCD8D SWAP1 PUSH1 0x24 ADD PUSH0 PUSH1 0x40 MLOAD DUP1 DUP4 SUB DUP2 DUP7 GAS STATICCALL ISZERO DUP1 ISZERO PUSH2 0x1A74 JUMPI RETURNDATASIZE PUSH0 DUP1 RETURNDATACOPY RETURNDATASIZE PUSH0 REVERT JUMPDEST POP POP POP POP PUSH1 0x40 MLOAD RETURNDATASIZE PUSH0 DUP3 RETURNDATACOPY PUSH1 0x1F RETURNDATASIZE SWAP1 DUP2 ADD PUSH1 0x1F NOT AND DUP3 ADD PUSH1 0x40 MSTORE PUSH2 0x1A9B SWAP2 SWAP1 DUP2 ADD SWAP1 PUSH2 0x347E JUMP JUMPDEST PUSH1 0x40 DUP2 ADD MLOAD SWAP1 SWAP2 POP PUSH1 0x1 PUSH1 0x1 PUSH1 0xA0 SHL SUB AND PUSH20 0xEEEEEEEEEEEEEEEEEEEEEEEEEEEEEEEEEEEEEEEE EQ DUP1 ISZERO PUSH2 0x1ACF JUMPI POP DUP2 PUSH1 0x40 ADD MLOAD JUMPDEST ISZERO PUSH2 0x1AED JUMPI PUSH1 0x40 MLOAD PUSH4 0x7FCCE2A9 PUSH1 0xE0 SHL DUP2 MSTORE PUSH1 0x4 ADD PUSH1 0x40 MLOAD DUP1 SWAP2 SUB SWAP1 REVERT JUMPDEST PUSH1 0xE0 DUP3 ADD MLOAD PUSH1 0x11 DUP1 SLOAD PUSH1 0x1 PUSH1 0x1 PUSH1 0xA0 SHL SUB SWAP3 DUP4 AND PUSH1 0x1 PUSH1 0x1 PUSH1 0xA0 SHL SUB NOT SWAP2 DUP3 AND OR SWAP1 SWAP2 SSTORE PUSH2 0x100 DUP5 ADD MLOAD PUSH1 0x12 DUP1 SLOAD SWAP2 DUP5 AND SWAP2 SWAP1 SWAP3 AND OR SWAP1 SSTORE PUSH2 0x120 DUP4 ADD MLOAD PUSH1 0x13 DUP1 SLOAD PUSH1 0x40 DUP1 DUP8 ADD MLOAD ISZERO ISZERO PUSH1 0x1 PUSH1 0xA0 SHL MUL PUSH1 0x1 PUSH1 0x1 PUSH1 0xA8 SHL SUB NOT SWAP1 SWAP3 AND SWAP4 DUP6 AND SWAP4 SWAP1 SWAP4 OR OR SWAP1 SSTORE DUP3 ADD MLOAD AND PUSH20 0xEEEEEEEEEEEEEEEEEEEEEEEEEEEEEEEEEEEEEEEE EQ PUSH2 0x814 JUMPI PUSH1 0x40 DUP2 DUP2 ADD MLOAD PUSH1 0x10 DUP1 SLOAD PUSH1 0x1 PUSH1 0x1 PUSH1 0xA0 SHL SUB NOT AND PUSH1 0x1 PUSH1 0x1 PUSH1 0xA0 SHL SUB SWAP3 DUP4 AND SWAP1 DUP2 OR SWAP1 SWAP2 SSTORE PUSH1 0x13 SLOAD SWAP3 MLOAD PUSH4 0x95EA7B3 PUSH1 0xE0 SHL DUP2 MSTORE SWAP3 SWAP1 SWAP2 AND PUSH1 0x4 DUP4 ADD MSTORE PUSH0 NOT PUSH1 0x24 DUP4 ADD MSTORE SWAP1 PUSH4 0x95EA7B3 SWAP1 PUSH1 0x44 ADD PUSH1 0x20 PUSH1 0x40 MLOAD DUP1 DUP4 SUB DUP2 PUSH0 DUP8 GAS CALL ISZERO DUP1 ISZERO PUSH2 0x1BDB JUMPI RETURNDATASIZE PUSH0 DUP1 RETURNDATACOPY RETURNDATASIZE PUSH0 REVERT JUMPDEST POP POP POP POP PUSH1 0x40 MLOAD RETURNDATASIZE PUSH1 0x1F NOT PUSH1 0x1F DUP3 ADD AND DUP3 ADD DUP1 PUSH1 0x40 MSTORE POP DUP2 ADD SWAP1 PUSH2 0x1271 SWAP2 SWAP1 PUSH2 0x3D26 JUMP JUMPDEST PUSH2 0x1C08 DUP3 PUSH2 0x25A3 JUMP JUMPDEST DUP1 MLOAD PUSH1 0x5 DUP1 SLOAD PUSH1 0x20 DUP1 DUP6 ADD MLOAD PUSH2 0xFFFF NOT SWAP1 SWAP3 AND SWAP4 ISZERO ISZERO PUSH2 0xFF00 NOT AND SWAP4 SWAP1 SWAP4 OR PUSH2 0x100 SWAP2 ISZERO ISZERO SWAP2 SWAP1 SWAP2 MUL OR SWAP1 SSTORE PUSH1 0x40 DUP1 MLOAD PUSH4 0x5AB1BD53 PUSH1 0xE0 SHL DUP2 MSTORE SWAP1 MLOAD PUSH32 0x0 PUSH1 0x1 PUSH1 0x1 PUSH1 0xA0 SHL SUB AND SWAP3 PUSH4 0x5AB1BD53 SWAP3 PUSH1 0x4 DUP1 DUP3 ADD SWAP4 SWAP2 DUP3 SWAP1 SUB ADD DUP2 DUP7 GAS STATICCALL ISZERO DUP1 ISZERO PUSH2 0x1C93 JUMPI RETURNDATASIZE PUSH0 DUP1 RETURNDATACOPY RETURNDATASIZE PUSH0 REVERT JUMPDEST POP POP POP POP PUSH1 0x40 MLOAD RETURNDATASIZE PUSH1 0x1F NOT PUSH1 0x1F DUP3 ADD AND DUP3 ADD DUP1 PUSH1 0x40 MSTORE POP DUP2 ADD SWAP1 PUSH2 0x1CB7 SWAP2 SWAP1 PUSH2 0x37DC JUMP JUMPDEST PUSH1 0x9 DUP1 SLOAD PUSH1 0x1 PUSH1 0x1 PUSH1 0xA0 SHL SUB NOT AND PUSH1 0x1 PUSH1 0x1 PUSH1 0xA0 SHL SUB SWAP3 SWAP1 SWAP3 AND SWAP2 SWAP1 SWAP2 OR SWAP1 SSTORE PUSH1 0x60 DUP2 ADD MLOAD PUSH1 0x5 DUP1 SLOAD PUSH1 0x80 DUP5 ADD MLOAD PUSH1 0xA0 DUP6 ADD MLOAD PUSH4 0x1000000 PUSH1 0x1 PUSH1 0x98 SHL SUB NOT SWAP1 SWAP3 AND PUSH4 0x1000000 PUSH1 0x1 PUSH1 0x1 PUSH1 0x40 SHL SUB SWAP6 DUP7 AND DUP2 MUL PUSH8 0xFFFFFFFFFFFFFFFF PUSH1 0x58 SHL NOT AND SWAP2 SWAP1 SWAP2 OR PUSH1 0x1 PUSH1 0x58 SHL SWAP3 DUP7 AND DUP4 MUL OR PUSH8 0xFFFFFFFFFFFFFFFF PUSH1 0x98 SHL NOT AND PUSH1 0x1 PUSH1 0x98 SHL SWAP4 DUP7 AND DUP5 MUL OR SWAP4 DUP5 SWAP1 SSTORE PUSH1 0xC0 DUP7 ADD MLOAD PUSH1 0x6 DUP1 SLOAD PUSH8 0xFFFFFFFFFFFFFFFF NOT AND SWAP2 DUP8 AND SWAP2 DUP3 OR SWAP1 SSTORE PUSH2 0x1D7B SWAP6 SWAP2 DUP6 DIV DUP3 AND SWAP5 SWAP3 DUP4 DIV DUP3 AND SWAP4 SWAP1 SWAP3 DIV AND SWAP1 PUSH2 0x1327 JUMP JUMPDEST PUSH1 0x5 SLOAD PUSH1 0x6 SLOAD PUSH1 0x40 MLOAD PUSH32 0xCB0FB7A7B87DB2F472EE8977444CFDBC51993CE660ACA27A5969A724FAE6DCF3 SWAP3 PUSH2 0x1DDB SWAP3 PUSH1 0x1 PUSH1 0x1 PUSH1 0x40 SHL SUB PUSH4 0x1000000 DUP4 DIV DUP2 AND SWAP4 PUSH1 0x1 PUSH1 0x58 SHL DUP5 DIV DUP3 AND SWAP4 PUSH1 0x1 PUSH1 0x98 SHL SWAP1 DIV DUP3 AND SWAP3 SWAP1 SWAP2 AND SWAP1 CALLER SWAP1 PUSH2 0x336F JUMP JUMPDEST PUSH1 0x40 MLOAD DUP1 SWAP2 SUB SWAP1 LOG1 PUSH2 0x140 DUP2 ADD MLOAD MLOAD PUSH0 DUP2 SWAP1 SUB PUSH2 0x1E27 JUMPI PUSH0 DUP1 MSTORE PUSH1 0xE PUSH1 0x20 MSTORE PUSH32 0xE710864318D4A32F37D6CE54CB3FADBEF648DD12D8DBDF53973564D56B7F881C DUP1 SLOAD PUSH1 0xFF NOT AND PUSH1 0x1 OR SWAP1 SSTORE JUMPDEST PUSH0 JUMPDEST DUP2 DUP2 LT ISZERO PUSH2 0x1271 JUMPI PUSH1 0x1 PUSH1 0xE PUSH0 DUP6 PUSH2 0x140 ADD MLOAD DUP5 DUP2 MLOAD DUP2 LT PUSH2 0x1E4D JUMPI PUSH2 0x1E4D PUSH2 0x353F JUMP JUMPDEST PUSH1 0x20 SWAP1 DUP2 MUL SWAP2 SWAP1 SWAP2 ADD DUP2 ADD MLOAD PUSH1 0x1 PUSH1 0x1 PUSH1 0xA0 SHL SUB AND DUP3 MSTORE DUP2 ADD SWAP2 SWAP1 SWAP2 MSTORE PUSH1 0x40 ADD PUSH0 KECCAK256 DUP1 SLOAD PUSH1 0xFF NOT AND SWAP2 ISZERO ISZERO SWAP2 SWAP1 SWAP2 OR SWAP1 SSTORE PUSH1 0x1 ADD PUSH2 0x1E29 JUMP JUMPDEST PUSH2 0x1E8E PUSH2 0x25F1 JUMP JUMPDEST PUSH0 DUP3 DUP1 PUSH1 0x20 ADD SWAP1 MLOAD DUP2 ADD SWAP1 PUSH2 0x1EA3 SWAP2 SWAP1 PUSH2 0x3E8C JUMP JUMPDEST DUP1 MLOAD SWAP1 SWAP2 POP PUSH0 JUMPDEST DUP2 DUP2 PUSH1 0xFF AND LT ISZERO PUSH2 0x1EED JUMPI PUSH2 0x1EDB DUP4 DUP3 PUSH1 0xFF AND DUP2 MLOAD DUP2 LT PUSH2 0x1ECD JUMPI PUSH2 0x1ECD PUSH2 0x353F JUMP JUMPDEST PUSH1 0x20 MUL PUSH1 0x20 ADD ADD MLOAD DUP6 PUSH2 0x2639 JUMP JUMPDEST DUP1 PUSH2 0x1EE5 DUP2 PUSH2 0x3F54 JUMP JUMPDEST SWAP2 POP POP PUSH2 0x1EAA JUMP JUMPDEST POP PUSH1 0x40 MLOAD PUSH1 0x1 PUSH1 0x1 PUSH1 0xA0 SHL SUB DUP5 AND SWAP1 PUSH32 0xAF2AEB2D4FE57415A1BBC0422472FA1BD4FF48B36FEB2E7D2D3CE40085558985 SWAP1 PUSH0 SWAP1 LOG2 POP POP POP POP JUMP JUMPDEST DUP2 MLOAD PUSH1 0x60 SWAP1 PUSH0 DUP2 PUSH1 0x1 PUSH1 0x1 PUSH1 0x40 SHL SUB DUP2 GT ISZERO PUSH2 0x1F45 JUMPI PUSH2 0x1F45 PUSH2 0x2B7A JUMP JUMPDEST PUSH1 0x40 MLOAD SWAP1 DUP1 DUP3 MSTORE DUP1 PUSH1 0x20 MUL PUSH1 0x20 ADD DUP3 ADD PUSH1 0x40 MSTORE DUP1 ISZERO PUSH2 0x1F89 JUMPI DUP2 PUSH1 0x20 ADD JUMPDEST PUSH1 0x40 DUP1 MLOAD DUP1 DUP3 ADD SWAP1 SWAP2 MSTORE PUSH0 DUP1 DUP3 MSTORE PUSH1 0x20 DUP3 ADD MSTORE DUP2 MSTORE PUSH1 0x20 ADD SWAP1 PUSH1 0x1 SWAP1 SUB SWAP1 DUP2 PUSH2 0x1F63 JUMPI SWAP1 POP JUMPDEST POP SWAP1 POP PUSH0 JUMPDEST DUP3 DUP2 LT ISZERO PUSH2 0xE34 JUMPI PUSH0 DUP7 DUP3 DUP2 MLOAD DUP2 LT PUSH2 0x1FA9 JUMPI PUSH2 0x1FA9 PUSH2 0x353F JUMP JUMPDEST PUSH1 0x20 MUL PUSH1 0x20 ADD ADD MLOAD PUSH0 ADD MLOAD SWAP1 POP PUSH0 DUP8 DUP4 DUP2 MLOAD DUP2 LT PUSH2 0x1FC9 JUMPI PUSH2 0x1FC9 PUSH2 0x353F JUMP JUMPDEST PUSH1 0x20 MUL PUSH1 0x20 ADD ADD MLOAD PUSH1 0x20 ADD MLOAD SWAP1 POP PUSH0 DUP9 DUP5 DUP2 MLOAD DUP2 LT PUSH2 0x1FEA JUMPI PUSH2 0x1FEA PUSH2 0x353F JUMP JUMPDEST PUSH1 0x20 MUL PUSH1 0x20 ADD ADD MLOAD PUSH1 0x40 ADD MLOAD SWAP1 POP PUSH0 DUP10 DUP6 DUP2 MLOAD DUP2 LT PUSH2 0x200B JUMPI PUSH2 0x200B PUSH2 0x353F JUMP JUMPDEST PUSH1 0x20 SWAP1 DUP2 MUL SWAP2 SWAP1 SWAP2 ADD DUP2 ADD MLOAD PUSH1 0x60 ADD MLOAD PUSH1 0x1 PUSH1 0x1 PUSH1 0xA0 SHL SUB DUP1 DUP7 AND PUSH0 SWAP1 DUP2 MSTORE PUSH1 0xF SWAP1 SWAP4 MSTORE PUSH1 0x40 SWAP1 SWAP3 KECCAK256 SLOAD SWAP1 SWAP3 POP PUSH2 0x100 SWAP1 DIV AND PUSH2 0x204B DUP6 DUP6 DUP4 DUP7 DUP7 PUSH2 0x24FE JUMP JUMPDEST ISZERO PUSH2 0x215A JUMPI PUSH2 0x2059 DUP6 PUSH2 0x287B JUMP JUMPDEST DUP3 PUSH1 0x2 PUSH0 DUP3 DUP3 SLOAD PUSH2 0x206A SWAP2 SWAP1 PUSH2 0x352C JUMP JUMPDEST SWAP1 SWAP2 SSTORE POP POP PUSH1 0x13 SLOAD PUSH1 0x40 MLOAD PUSH4 0xA30A04F PUSH1 0xE2 SHL DUP2 MSTORE PUSH1 0x1 PUSH1 0x1 PUSH1 0xA0 SHL SUB DUP4 DUP2 AND PUSH1 0x4 DUP4 ADD MSTORE SWAP1 SWAP2 AND SWAP1 PUSH4 0x28C2813C SWAP1 PUSH1 0x24 ADD PUSH1 0x20 PUSH1 0x40 MLOAD DUP1 DUP4 SUB DUP2 DUP7 GAS STATICCALL ISZERO DUP1 ISZERO PUSH2 0x20B7 JUMPI RETURNDATASIZE PUSH0 DUP1 RETURNDATACOPY RETURNDATASIZE PUSH0 REVERT JUMPDEST POP POP POP POP PUSH1 0x40 MLOAD RETURNDATASIZE PUSH1 0x1F NOT PUSH1 0x1F DUP3 ADD AND DUP3 ADD DUP1 PUSH1 0x40 MSTORE POP DUP2 ADD SWAP1 PUSH2 0x20DB SWAP2 SWAP1 PUSH2 0x3F72 JUMP JUMPDEST DUP8 DUP8 DUP2 MLOAD DUP2 LT PUSH2 0x20ED JUMPI PUSH2 0x20ED PUSH2 0x353F JUMP JUMPDEST PUSH1 0x20 SWAP1 DUP2 MUL SWAP2 SWAP1 SWAP2 ADD ADD MLOAD MSTORE PUSH2 0x2133 PUSH0 PUSH2 0x2107 DUP6 DUP14 PUSH2 0xE3D JUMP JUMPDEST PUSH4 0xFFFFFFFF DUP14 AND PUSH1 0x1 PUSH1 0x1 PUSH1 0xA0 SHL SUB SWAP1 SWAP2 AND PUSH1 0xA0 SWAP3 SWAP1 SWAP3 SHL PUSH4 0xFFFFFFFF PUSH1 0xA0 SHL AND SWAP2 SWAP1 SWAP2 OR PUSH1 0x40 SHL OR SWAP1 JUMP JUMPDEST DUP8 DUP8 DUP2 MLOAD DUP2 LT PUSH2 0x2145 JUMPI PUSH2 0x2145 PUSH2 0x353F JUMP JUMPDEST PUSH1 0x20 MUL PUSH1 0x20 ADD ADD MLOAD PUSH1 0x20 ADD DUP2 DUP2 MSTORE POP POP PUSH2 0x217E JUMP JUMPDEST PUSH1 0x40 MLOAD PUSH4 0xF4A513B9 PUSH1 0xE0 SHL DUP2 MSTORE PUSH1 0x1 PUSH1 0x1 PUSH1 0xA0 SHL SUB DUP6 AND PUSH1 0x4 DUP3 ADD MSTORE PUSH1 0x24 ADD PUSH2 0x1514 JUMP JUMPDEST POP POP PUSH1 0x1 SWAP1 SWAP4 ADD SWAP3 POP PUSH2 0x1F8E SWAP2 POP POP JUMP JUMPDEST DUP1 MLOAD PUSH1 0x20 DUP1 DUP4 ADD MLOAD PUSH1 0x40 DUP1 DUP6 ADD MLOAD PUSH1 0x60 DUP7 ADD MLOAD PUSH1 0x1 PUSH1 0x1 PUSH1 0xA0 SHL SUB DUP1 DUP6 AND PUSH0 SWAP1 DUP2 MSTORE PUSH1 0xF SWAP1 SWAP7 MSTORE SWAP3 SWAP1 SWAP5 KECCAK256 SLOAD SWAP3 SWAP4 SWAP1 SWAP3 SWAP1 SWAP2 PUSH2 0x100 SWAP1 SWAP2 DIV AND PUSH2 0x21D5 DUP6 DUP6 DUP4 DUP7 DUP7 PUSH2 0x24FE JUMP JUMPDEST ISZERO PUSH2 0x215A JUMPI PUSH1 0x1 SLOAD PUSH1 0x40 MLOAD PUSH4 0x68BCD8D PUSH1 0xE0 SHL DUP2 MSTORE PUSH0 SWAP2 PUSH1 0x1 PUSH1 0x1 PUSH1 0xA0 SHL SUB PUSH32 0x0 AND SWAP2 PUSH4 0x68BCD8D SWAP2 PUSH2 0x222D SWAP2 PUSH1 0x4 ADD SWAP1 DUP2 MSTORE PUSH1 0x20 ADD SWAP1 JUMP JUMPDEST PUSH0 PUSH1 0x40 MLOAD DUP1 DUP4 SUB DUP2 DUP7 GAS STATICCALL ISZERO DUP1 ISZERO PUSH2 0x2247 JUMPI RETURNDATASIZE PUSH0 DUP1 RETURNDATACOPY RETURNDATASIZE PUSH0 REVERT JUMPDEST POP POP POP POP PUSH1 0x40 MLOAD RETURNDATASIZE PUSH0 DUP3 RETURNDATACOPY PUSH1 0x1F RETURNDATASIZE SWAP1 DUP2 ADD PUSH1 0x1F NOT AND DUP3 ADD PUSH1 0x40 MSTORE PUSH2 0x226E SWAP2 SWAP1 DUP2 ADD SWAP1 PUSH2 0x347E JUMP JUMPDEST SWAP1 POP PUSH2 0x2279 DUP7 PUSH2 0x287B JUMP JUMPDEST DUP4 PUSH1 0x2 PUSH0 DUP3 DUP3 SLOAD PUSH2 0x228A SWAP2 SWAP1 PUSH2 0x352C JUMP JUMPDEST SWAP1 SWAP2 SSTORE POP POP PUSH1 0x40 DUP2 ADD MLOAD PUSH2 0x229F SWAP1 DUP4 DUP7 PUSH2 0x16E5 JUMP JUMPDEST PUSH1 0x40 DUP1 DUP3 ADD MLOAD DUP2 MLOAD DUP7 DUP2 MSTORE PUSH1 0x1 PUSH1 0x1 PUSH1 0xA0 SHL SUB DUP6 DUP2 AND PUSH1 0x20 DUP4 ADD MSTORE DUP1 DUP10 AND SWAP4 SWAP3 AND SWAP2 PUSH32 0xA6B66F665010D2F7435F110111AAA34B56564074F66081BEF606D996FC8CAA6F SWAP2 ADD PUSH1 0x40 MLOAD DUP1 SWAP2 SUB SWAP1 LOG3 POP JUMPDEST POP POP POP POP POP POP JUMP JUMPDEST PUSH1 0x9 SLOAD PUSH1 0x40 MLOAD PUSH4 0xDD93DA43 PUSH1 0xE0 SHL DUP2 MSTORE PUSH1 0x1 PUSH1 0x1 PUSH1 0xA0 SHL SUB DUP5 DUP2 AND PUSH1 0x4 DUP4 ADD MSTORE PUSH0 SWAP3 DUP4 SWAP3 SWAP2 AND SWAP1 PUSH4 0xDD93DA43 SWAP1 PUSH1 0x24 ADD PUSH0 PUSH1 0x40 MLOAD DUP1 DUP4 SUB DUP2 DUP7 GAS STATICCALL ISZERO DUP1 ISZERO PUSH2 0x2340 JUMPI RETURNDATASIZE PUSH0 DUP1 RETURNDATACOPY RETURNDATASIZE PUSH0 REVERT JUMPDEST POP POP POP POP PUSH1 0x40 MLOAD RETURNDATASIZE PUSH0 DUP3 RETURNDATACOPY PUSH1 0x1F RETURNDATASIZE SWAP1 DUP2 ADD PUSH1 0x1F NOT AND DUP3 ADD PUSH1 0x40 MSTORE PUSH2 0x2367 SWAP2 SWAP1 DUP2 ADD SWAP1 PUSH2 0x3F89 JUMP JUMPDEST PUSH1 0x9 SLOAD DUP2 MLOAD PUSH1 0x40 MLOAD PUSH4 0x5E8A7915 PUSH1 0xE0 SHL DUP2 MSTORE PUSH1 0x4 DUP2 ADD SWAP2 SWAP1 SWAP2 MSTORE PUSH1 0x1 PUSH1 0x1 PUSH1 0xA0 SHL SUB DUP7 DUP2 AND PUSH1 0x24 DUP4 ADD MSTORE SWAP3 SWAP4 POP SWAP2 AND SWAP1 PUSH4 0x5E8A7915 SWAP1 PUSH1 0x44 ADD PUSH1 0x20 PUSH1 0x40 MLOAD DUP1 DUP4 SUB DUP2 DUP7 GAS STATICCALL ISZERO DUP1 ISZERO PUSH2 0x23BB JUMPI RETURNDATASIZE PUSH0 DUP1 RETURNDATACOPY RETURNDATASIZE PUSH0 REVERT JUMPDEST POP POP POP POP PUSH1 0x40 MLOAD RETURNDATASIZE PUSH1 0x1F NOT PUSH1 0x1F DUP3 ADD AND DUP3 ADD DUP1 PUSH1 0x40 MSTORE POP DUP2 ADD SWAP1 PUSH2 0x23DF SWAP2 SWAP1 PUSH2 0x3D26 JUMP JUMPDEST SWAP5 SWAP4 POP POP POP POP JUMP JUMPDEST PUSH0 DUP1 PUSH0 PUSH2 0x23F3 DUP5 PUSH2 0x28B6 JUMP JUMPDEST PUSH1 0xF SWAP2 SHR AND SWAP6 SWAP5 POP POP POP POP POP JUMP JUMPDEST PUSH0 DUP1 PUSH0 PUSH2 0x240D DUP6 PUSH2 0x28B6 JUMP JUMPDEST PUSH0 SWAP3 DUP4 MSTORE PUSH1 0xB PUSH1 0x20 MSTORE PUSH1 0x40 SWAP1 SWAP3 KECCAK256 SWAP6 DUP2 SHL PUSH1 0xF SWAP1 SWAP2 SHL NOT SWAP1 SWAP2 AND OR SWAP1 SWAP4 SSTORE POP POP POP POP JUMP JUMPDEST PUSH0 DUP1 PUSH0 DUP1 DUP5 DUP7 GAS CALL PUSH2 0x1008 JUMPI PUSH4 0xB12D13EB PUSH0 MSTORE PUSH1 0x4 PUSH1 0x1C REVERT JUMPDEST DUP2 PUSH1 0x14 MSTORE DUP1 PUSH1 0x34 MSTORE PUSH4 0xA9059CBB PUSH1 0x60 SHL PUSH0 MSTORE PUSH1 0x20 PUSH0 PUSH1 0x44 PUSH1 0x10 PUSH0 DUP8 GAS CALL RETURNDATASIZE ISZERO PUSH1 0x1 PUSH0 MLOAD EQ OR AND PUSH2 0x2481 JUMPI PUSH4 0x90B8EC18 PUSH0 MSTORE PUSH1 0x4 PUSH1 0x1C REVERT JUMPDEST PUSH0 PUSH1 0x34 MSTORE POP POP POP JUMP JUMPDEST PUSH1 0x60 PUSH0 DUP1 DUP6 PUSH1 0x1 PUSH1 0x1 PUSH1 0xA0 SHL SUB AND DUP6 PUSH1 0x40 MLOAD PUSH2 0x24A6 SWAP2 SWAP1 PUSH2 0x4049 JUMP JUMPDEST PUSH0 PUSH1 0x40 MLOAD DUP1 DUP4 SUB DUP2 DUP6 GAS DELEGATECALL SWAP2 POP POP RETURNDATASIZE DUP1 PUSH0 DUP2 EQ PUSH2 0x24DE JUMPI PUSH1 0x40 MLOAD SWAP2 POP PUSH1 0x1F NOT PUSH1 0x3F RETURNDATASIZE ADD AND DUP3 ADD PUSH1 0x40 MSTORE RETURNDATASIZE DUP3 MSTORE RETURNDATASIZE PUSH0 PUSH1 0x20 DUP5 ADD RETURNDATACOPY PUSH2 0x24E3 JUMP JUMPDEST PUSH1 0x60 SWAP2 POP JUMPDEST POP SWAP2 POP SWAP2 POP PUSH2 0x24F4 DUP7 DUP4 DUP4 DUP8 PUSH2 0x2917 JUMP JUMPDEST SWAP7 SWAP6 POP POP POP POP POP POP JUMP JUMPDEST PUSH0 PUSH2 0x2508 DUP7 PUSH2 0x176F JUMP JUMPDEST ISZERO PUSH2 0x2514 JUMPI POP PUSH0 PUSH2 0x259A JUMP JUMPDEST PUSH1 0x40 DUP1 MLOAD PUSH1 0x20 DUP2 ADD DUP9 SWAP1 MSTORE PUSH1 0x1 PUSH1 0x1 PUSH1 0xA0 SHL SUB DUP1 DUP9 AND SWAP3 DUP3 ADD SWAP3 SWAP1 SWAP3 MSTORE SWAP1 DUP6 AND PUSH1 0x60 DUP3 ADD MSTORE PUSH1 0x80 DUP2 ADD DUP5 SWAP1 MSTORE PUSH0 SWAP1 PUSH1 0xA0 ADD PUSH1 0x40 DUP1 MLOAD PUSH1 0x1F NOT DUP2 DUP5 SUB ADD DUP2 MSTORE DUP3 DUP3 MSTORE DUP1 MLOAD PUSH1 0x20 SWAP2 DUP3 ADD KECCAK256 SWAP1 DUP4 ADD MSTORE ADD PUSH1 0x40 MLOAD PUSH1 0x20 DUP2 DUP4 SUB SUB DUP2 MSTORE SWAP1 PUSH1 0x40 MSTORE DUP1 MLOAD SWAP1 PUSH1 0x20 ADD KECCAK256 SWAP1 POP PUSH2 0x2587 DUP4 PUSH1 0xA SLOAD DUP4 PUSH2 0x298F JUMP JUMPDEST PUSH2 0x2594 JUMPI PUSH0 SWAP2 POP POP PUSH2 0x259A JUMP JUMPDEST PUSH1 0x1 SWAP2 POP POP JUMPDEST SWAP6 SWAP5 POP POP POP POP POP JUMP JUMPDEST PUSH2 0x25AB PUSH2 0x1035 JUMP JUMPDEST PUSH1 0x1 SLOAD ISZERO PUSH2 0x25CC JUMPI PUSH1 0x40 MLOAD PUSH4 0x439A74C9 PUSH1 0xE0 SHL DUP2 MSTORE PUSH1 0x4 ADD PUSH1 0x40 MLOAD DUP1 SWAP2 SUB SWAP1 REVERT JUMPDEST DUP1 PUSH0 SUB PUSH2 0x25EC JUMPI PUSH1 0x40 MLOAD PUSH4 0x7FCCE2A9 PUSH1 0xE0 SHL DUP2 MSTORE PUSH1 0x4 ADD PUSH1 0x40 MLOAD DUP1 SWAP2 SUB SWAP1 REVERT JUMPDEST PUSH1 0x1 SSTORE JUMP JUMPDEST PUSH1 0x5 SLOAD TIMESTAMP PUSH1 0x1 PUSH1 0x98 SHL SWAP1 SWAP2 DIV PUSH1 0x1 PUSH1 0x1 PUSH1 0x40 SHL SUB AND GT DUP1 PUSH2 0x261C JUMPI POP PUSH1 0x6 SLOAD PUSH1 0x1 PUSH1 0x1 PUSH1 0x40 SHL SUB AND TIMESTAMP GT JUMPDEST ISZERO PUSH2 0x107E JUMPI PUSH1 0x40 MLOAD PUSH3 0xB828C9 PUSH1 0xE8 SHL DUP2 MSTORE PUSH1 0x4 ADD PUSH1 0x40 MLOAD DUP1 SWAP2 SUB SWAP1 REVERT JUMPDEST DUP2 MLOAD PUSH1 0x20 DUP4 ADD MLOAD PUSH1 0x40 DUP5 ADD MLOAD PUSH1 0x2 PUSH2 0x2650 DUP5 PUSH2 0x23E7 JUMP JUMPDEST PUSH1 0xFF AND PUSH1 0x6 DUP2 GT ISZERO PUSH2 0x2664 JUMPI PUSH2 0x2664 PUSH2 0x32F2 JUMP JUMPDEST PUSH1 0x6 DUP2 GT ISZERO PUSH2 0x2675 JUMPI PUSH2 0x2675 PUSH2 0x32F2 JUMP JUMPDEST EQ PUSH2 0x269E JUMPI PUSH1 0x40 MLOAD PUSH4 0xF4A513B9 PUSH1 0xE0 SHL DUP2 MSTORE PUSH1 0x1 PUSH1 0x1 PUSH1 0xA0 SHL SUB DUP5 AND PUSH1 0x4 DUP3 ADD MSTORE PUSH1 0x24 ADD PUSH2 0x1514 JUMP JUMPDEST PUSH20 0xEEEEEEEEEEEEEEEEEEEEEEEEEEEEEEEEEEEEEEED NOT PUSH1 0x1 PUSH1 0x1 PUSH1 0xA0 SHL SUB DUP3 AND ADD PUSH2 0x26DC JUMPI PUSH1 0x40 MLOAD PUSH4 0x7FCCE2A9 PUSH1 0xE0 SHL DUP2 MSTORE PUSH1 0x4 ADD PUSH1 0x40 MLOAD DUP1 SWAP2 SUB SWAP1 REVERT JUMPDEST PUSH1 0x1 PUSH1 0x1 PUSH1 0xA0 SHL SUB DUP2 AND PUSH0 SWAP1 DUP2 MSTORE PUSH1 0xE PUSH1 0x20 MSTORE PUSH1 0x40 SWAP1 KECCAK256 SLOAD PUSH1 0xFF AND ISZERO DUP1 ISZERO PUSH2 0x272E JUMPI POP PUSH0 DUP1 MSTORE PUSH1 0xE PUSH1 0x20 MSTORE PUSH32 0xE710864318D4A32F37D6CE54CB3FADBEF648DD12D8DBDF53973564D56B7F881C SLOAD PUSH1 0xFF AND ISZERO JUMPDEST ISZERO PUSH2 0x274C JUMPI PUSH1 0x40 MLOAD PUSH4 0x7FCCE2A9 PUSH1 0xE0 SHL DUP2 MSTORE PUSH1 0x4 ADD PUSH1 0x40 MLOAD DUP1 SWAP2 SUB SWAP1 REVERT JUMPDEST PUSH0 CALLVALUE GT DUP1 ISZERO PUSH2 0x2778 JUMPI POP PUSH1 0x1 PUSH1 0x1 PUSH1 0xA0 SHL SUB DUP2 AND PUSH20 0xEEEEEEEEEEEEEEEEEEEEEEEEEEEEEEEEEEEEEEEE EQ ISZERO JUMPDEST DUP1 PUSH2 0x27AA JUMPI POP PUSH1 0x1 PUSH1 0x1 PUSH1 0xA0 SHL SUB DUP2 AND PUSH20 0xEEEEEEEEEEEEEEEEEEEEEEEEEEEEEEEEEEEEEEEE EQ DUP1 ISZERO PUSH2 0x27AA JUMPI POP DUP2 CALLVALUE EQ ISZERO JUMPDEST ISZERO PUSH2 0x27C8 JUMPI PUSH1 0x40 MLOAD PUSH4 0x7FCCE2A9 PUSH1 0xE0 SHL DUP2 MSTORE PUSH1 0x4 ADD PUSH1 0x40 MLOAD DUP1 SWAP2 SUB SWAP1 REVERT JUMPDEST PUSH1 0x40 DUP1 MLOAD PUSH1 0x60 DUP2 ADD DUP3 MSTORE PUSH1 0x1 PUSH1 0x1 PUSH1 0xA0 SHL SUB DUP1 DUP8 AND DUP3 MSTORE DUP6 DUP2 AND PUSH0 SWAP1 DUP2 MSTORE PUSH1 0xF PUSH1 0x20 SWAP1 DUP2 MSTORE SWAP1 DUP5 SWAP1 KECCAK256 SLOAD PUSH2 0x100 SWAP1 DIV SWAP1 SWAP2 AND SWAP1 DUP3 ADD MSTORE SWAP1 DUP2 ADD DUP4 SWAP1 MSTORE PUSH2 0x280F SWAP1 DUP3 SWAP1 PUSH2 0x29A4 JUMP JUMPDEST ISZERO PUSH2 0x2874 JUMPI DUP3 PUSH1 0x1 PUSH1 0x1 PUSH1 0xA0 SHL SUB AND PUSH32 0x463FFC2CF8B1596445C417388ED30E53EB67CF6668CB2BE7F0ADDF8A78C8441B DUP4 DUP4 DUP8 PUSH1 0x40 MLOAD PUSH2 0x286B SWAP4 SWAP3 SWAP2 SWAP1 SWAP3 DUP4 MSTORE PUSH1 0x1 PUSH1 0x1 PUSH1 0xA0 SHL SUB SWAP2 DUP3 AND PUSH1 0x20 DUP5 ADD MSTORE AND PUSH1 0x40 DUP3 ADD MSTORE PUSH1 0x60 ADD SWAP1 JUMP JUMPDEST PUSH1 0x40 MLOAD DUP1 SWAP2 SUB SWAP1 LOG2 JUMPDEST POP POP POP POP POP JUMP JUMPDEST PUSH0 PUSH2 0x2888 PUSH2 0x100 DUP4 PUSH2 0x3E35 JUMP JUMPDEST SWAP1 POP PUSH0 PUSH2 0x2897 PUSH2 0x100 DUP5 PUSH2 0x3E48 JUMP JUMPDEST PUSH0 SWAP3 DUP4 MSTORE PUSH1 0xD PUSH1 0x20 MSTORE PUSH1 0x40 SWAP1 SWAP3 KECCAK256 DUP1 SLOAD PUSH1 0x1 SWAP1 SWAP4 SHL SWAP1 SWAP3 OR SWAP1 SWAP2 SSTORE POP POP JUMP JUMPDEST PUSH1 0x1 PUSH1 0x1 PUSH1 0xA0 SHL SUB DUP2 AND PUSH0 SWAP1 DUP2 MSTORE PUSH1 0xC PUSH1 0x20 MSTORE PUSH1 0x40 DUP1 DUP3 KECCAK256 SLOAD DUP3 SWAP2 DUP3 SWAP2 SWAP1 DUP3 SWAP1 PUSH2 0x28E0 SWAP1 DUP4 PUSH2 0x3E35 JUMP JUMPDEST SWAP1 POP PUSH0 PUSH2 0x28EE PUSH1 0x40 DUP5 PUSH2 0x3E48 JUMP JUMPDEST PUSH2 0x28F9 SWAP1 PUSH1 0x4 PUSH2 0x4064 JUMP JUMPDEST PUSH0 DUP4 DUP2 MSTORE PUSH1 0xB PUSH1 0x20 MSTORE PUSH1 0x40 SWAP1 KECCAK256 SLOAD SWAP3 SWAP9 SWAP1 SWAP8 POP SWAP2 SWAP6 POP SWAP1 SWAP4 POP POP POP POP JUMP JUMPDEST PUSH1 0x60 DUP4 ISZERO PUSH2 0x2985 JUMPI DUP3 MLOAD PUSH0 SUB PUSH2 0x297E JUMPI PUSH1 0x1 PUSH1 0x1 PUSH1 0xA0 SHL SUB DUP6 AND EXTCODESIZE PUSH2 0x297E JUMPI PUSH1 0x40 MLOAD PUSH3 0x461BCD PUSH1 0xE5 SHL DUP2 MSTORE PUSH1 0x20 PUSH1 0x4 DUP3 ADD MSTORE PUSH1 0x1D PUSH1 0x24 DUP3 ADD MSTORE PUSH32 0x416464726573733A2063616C6C20746F206E6F6E2D636F6E7472616374000000 PUSH1 0x44 DUP3 ADD MSTORE PUSH1 0x64 ADD PUSH2 0x1514 JUMP JUMPDEST POP DUP2 PUSH2 0x23DF JUMP JUMPDEST PUSH2 0x23DF DUP4 DUP4 PUSH2 0x2A21 JUMP JUMPDEST PUSH0 DUP3 PUSH2 0x299B DUP6 DUP5 PUSH2 0x2A4B JUMP JUMPDEST EQ SWAP5 SWAP4 POP POP POP POP JUMP JUMPDEST PUSH1 0x40 DUP2 ADD MLOAD PUSH0 SWAP1 PUSH20 0xEEEEEEEEEEEEEEEEEEEEEEEEEEEEEEEEEEEEEEED NOT PUSH1 0x1 PUSH1 0x1 PUSH1 0xA0 SHL SUB DUP6 AND ADD PUSH2 0x2A04 JUMPI DUP1 CALLVALUE LT ISZERO PUSH2 0x29F1 JUMPI PUSH1 0x40 MLOAD PUSH4 0x74C5672B PUSH1 0xE0 SHL DUP2 MSTORE PUSH1 0x4 ADD PUSH1 0x40 MLOAD DUP1 SWAP2 SUB SWAP1 REVERT JUMPDEST PUSH2 0x29FF DUP4 PUSH1 0x20 ADD MLOAD DUP3 PUSH2 0x2431 JUMP JUMPDEST PUSH2 0x2A17 JUMP JUMPDEST PUSH2 0x2A17 DUP5 DUP5 PUSH0 ADD MLOAD DUP6 PUSH1 0x20 ADD MLOAD DUP5 PUSH2 0x2A8D JUMP JUMPDEST POP PUSH1 0x1 SWAP4 SWAP3 POP POP POP JUMP JUMPDEST DUP2 MLOAD ISZERO PUSH2 0x2A31 JUMPI DUP2 MLOAD DUP1 DUP4 PUSH1 0x20 ADD REVERT JUMPDEST DUP1 PUSH1 0x40 MLOAD PUSH3 0x461BCD PUSH1 0xE5 SHL DUP2 MSTORE PUSH1 0x4 ADD PUSH2 0x1514 SWAP2 SWAP1 PUSH2 0x407B JUMP JUMPDEST PUSH0 DUP2 DUP2 JUMPDEST DUP5 MLOAD DUP2 LT ISZERO PUSH2 0x2A85 JUMPI PUSH2 0x2A7B DUP3 DUP7 DUP4 DUP2 MLOAD DUP2 LT PUSH2 0x2A6E JUMPI PUSH2 0x2A6E PUSH2 0x353F JUMP JUMPDEST PUSH1 0x20 MUL PUSH1 0x20 ADD ADD MLOAD PUSH2 0x2ADC JUMP JUMPDEST SWAP2 POP PUSH1 0x1 ADD PUSH2 0x2A4F JUMP JUMPDEST POP SWAP4 SWAP3 POP POP POP JUMP JUMPDEST PUSH1 0x40 MLOAD DUP2 PUSH1 0x60 MSTORE DUP3 PUSH1 0x40 MSTORE DUP4 PUSH1 0x60 SHL PUSH1 0x2C MSTORE PUSH4 0x23B872DD PUSH1 0x60 SHL PUSH1 0xC MSTORE PUSH1 0x20 PUSH0 PUSH1 0x64 PUSH1 0x1C PUSH0 DUP10 GAS CALL RETURNDATASIZE ISZERO PUSH1 0x1 PUSH0 MLOAD EQ OR AND PUSH2 0x2ACF JUMPI PUSH4 0x7939F424 PUSH0 MSTORE PUSH1 0x4 PUSH1 0x1C REVERT JUMPDEST PUSH0 PUSH1 0x60 MSTORE PUSH1 0x40 MSTORE POP POP POP POP JUMP JUMPDEST PUSH0 DUP2 DUP4 LT PUSH2 0x2AF6 JUMPI PUSH0 DUP3 DUP2 MSTORE PUSH1 0x20 DUP5 SWAP1 MSTORE PUSH1 0x40 SWAP1 KECCAK256 PUSH2 0x917 JUMP JUMPDEST PUSH0 DUP4 DUP2 MSTORE PUSH1 0x20 DUP4 SWAP1 MSTORE PUSH1 0x40 SWAP1 KECCAK256 PUSH2 0x917 JUMP JUMPDEST PUSH1 0x40 MLOAD DUP1 PUSH1 0x60 ADD PUSH1 0x40 MSTORE DUP1 PUSH0 ISZERO ISZERO DUP2 MSTORE PUSH1 0x20 ADD PUSH0 PUSH1 0x1 PUSH1 0x1 PUSH1 0xA0 SHL SUB AND DUP2 MSTORE PUSH1 0x20 ADD PUSH2 0x2B46 PUSH1 0x40 MLOAD DUP1 PUSH1 0x40 ADD PUSH1 0x40 MSTORE DUP1 PUSH0 DUP2 MSTORE PUSH1 0x20 ADD PUSH1 0x60 DUP2 MSTORE POP SWAP1 JUMP JUMPDEST SWAP1 MSTORE SWAP1 JUMP JUMPDEST PUSH1 0x1 PUSH1 0x1 PUSH1 0xA0 SHL SUB DUP2 AND DUP2 EQ PUSH2 0x1032 JUMPI PUSH0 DUP1 REVERT JUMPDEST PUSH0 PUSH1 0x20 DUP3 DUP5 SUB SLT ISZERO PUSH2 0x2B6F JUMPI PUSH0 DUP1 REVERT JUMPDEST DUP2 CALLDATALOAD PUSH2 0x917 DUP2 PUSH2 0x2B4B JUMP JUMPDEST PUSH4 0x4E487B71 PUSH1 0xE0 SHL PUSH0 MSTORE PUSH1 0x41 PUSH1 0x4 MSTORE PUSH1 0x24 PUSH0 REVERT JUMPDEST PUSH1 0x40 DUP1 MLOAD SWAP1 DUP2 ADD PUSH1 0x1 PUSH1 0x1 PUSH1 0x40 SHL SUB DUP2 GT DUP3 DUP3 LT OR ISZERO PUSH2 0x2BB0 JUMPI PUSH2 0x2BB0 PUSH2 0x2B7A JUMP JUMPDEST PUSH1 0x40 MSTORE SWAP1 JUMP JUMPDEST PUSH1 0x40 MLOAD PUSH1 0xC0 DUP2 ADD PUSH1 0x1 PUSH1 0x1 PUSH1 0x40 SHL SUB DUP2 GT DUP3 DUP3 LT OR ISZERO PUSH2 0x2BB0 JUMPI PUSH2 0x2BB0 PUSH2 0x2B7A JUMP JUMPDEST PUSH1 0x40 MLOAD PUSH2 0x160 DUP2 ADD PUSH1 0x1 PUSH1 0x1 PUSH1 0x40 SHL SUB DUP2 GT DUP3 DUP3 LT OR ISZERO PUSH2 0x2BB0 JUMPI PUSH2 0x2BB0 PUSH2 0x2B7A JUMP JUMPDEST PUSH1 0x40 MLOAD PUSH1 0x80 DUP2 ADD PUSH1 0x1 PUSH1 0x1 PUSH1 0x40 SHL SUB DUP2 GT DUP3 DUP3 LT OR ISZERO PUSH2 0x2BB0 JUMPI PUSH2 0x2BB0 PUSH2 0x2B7A JUMP JUMPDEST PUSH1 0x40 MLOAD PUSH1 0x60 DUP2 ADD PUSH1 0x1 PUSH1 0x1 PUSH1 0x40 SHL SUB DUP2 GT DUP3 DUP3 LT OR ISZERO PUSH2 0x2BB0 JUMPI PUSH2 0x2BB0 PUSH2 0x2B7A JUMP JUMPDEST PUSH1 0x40 MLOAD PUSH1 0x1F DUP3 ADD PUSH1 0x1F NOT AND DUP2 ADD PUSH1 0x1 PUSH1 0x1 PUSH1 0x40 SHL SUB DUP2 GT DUP3 DUP3 LT OR ISZERO PUSH2 0x2C67 JUMPI PUSH2 0x2C67 PUSH2 0x2B7A JUMP JUMPDEST PUSH1 0x40 MSTORE SWAP2 SWAP1 POP JUMP JUMPDEST PUSH0 PUSH1 0x1 PUSH1 0x1 PUSH1 0x40 SHL SUB DUP3 GT ISZERO PUSH2 0x2C87 JUMPI PUSH2 0x2C87 PUSH2 0x2B7A JUMP JUMPDEST POP PUSH1 0x5 SHL PUSH1 0x20 ADD SWAP1 JUMP JUMPDEST PUSH0 DUP3 PUSH1 0x1F DUP4 ADD SLT PUSH2 0x2CA0 JUMPI PUSH0 DUP1 REVERT JUMPDEST DUP2 CALLDATALOAD PUSH1 0x20 PUSH2 0x2CB5 PUSH2 0x2CB0 DUP4 PUSH2 0x2C6F JUMP JUMPDEST PUSH2 0x2C3F JUMP JUMPDEST DUP1 DUP4 DUP3 MSTORE PUSH1 0x20 DUP3 ADD SWAP2 POP PUSH1 0x20 DUP5 PUSH1 0x5 SHL DUP8 ADD ADD SWAP4 POP DUP7 DUP5 GT ISZERO PUSH2 0x2CD6 JUMPI PUSH0 DUP1 REVERT JUMPDEST PUSH1 0x20 DUP7 ADD JUMPDEST DUP5 DUP2 LT ISZERO PUSH2 0x2CFB JUMPI DUP1 CALLDATALOAD PUSH2 0x2CEE DUP2 PUSH2 0x2B4B JUMP JUMPDEST DUP4 MSTORE SWAP2 DUP4 ADD SWAP2 DUP4 ADD PUSH2 0x2CDB JUMP JUMPDEST POP SWAP7 SWAP6 POP POP POP POP POP POP JUMP JUMPDEST PUSH0 PUSH1 0x1 PUSH1 0x1 PUSH1 0x40 SHL SUB DUP3 GT ISZERO PUSH2 0x2D1E JUMPI PUSH2 0x2D1E PUSH2 0x2B7A JUMP JUMPDEST POP PUSH1 0x1F ADD PUSH1 0x1F NOT AND PUSH1 0x20 ADD SWAP1 JUMP JUMPDEST PUSH0 PUSH2 0x2D39 PUSH2 0x2CB0 DUP5 PUSH2 0x2D06 JUMP JUMPDEST SWAP1 POP DUP3 DUP2 MSTORE DUP4 DUP4 DUP4 ADD GT ISZERO PUSH2 0x2D4C JUMPI PUSH0 DUP1 REVERT JUMPDEST DUP3 DUP3 PUSH1 0x20 DUP4 ADD CALLDATACOPY PUSH0 PUSH1 0x20 DUP5 DUP4 ADD ADD MSTORE SWAP4 SWAP3 POP POP POP JUMP JUMPDEST PUSH0 DUP3 PUSH1 0x1F DUP4 ADD SLT PUSH2 0x2D71 JUMPI PUSH0 DUP1 REVERT JUMPDEST PUSH2 0x917 DUP4 DUP4 CALLDATALOAD PUSH1 0x20 DUP6 ADD PUSH2 0x2D2C JUMP JUMPDEST PUSH0 DUP1 PUSH0 PUSH1 0x60 DUP5 DUP7 SUB SLT ISZERO PUSH2 0x2D92 JUMPI PUSH0 DUP1 REVERT JUMPDEST DUP4 CALLDATALOAD PUSH1 0x1 PUSH1 0x1 PUSH1 0x40 SHL SUB DUP1 DUP3 GT ISZERO PUSH2 0x2DA8 JUMPI PUSH0 DUP1 REVERT JUMPDEST PUSH2 0x2DB4 DUP8 DUP4 DUP9 ADD PUSH2 0x2C91 JUMP JUMPDEST SWAP5 POP PUSH1 0x20 DUP7 ADD CALLDATALOAD SWAP2 POP DUP1 DUP3 GT ISZERO PUSH2 0x2DC9 JUMPI PUSH0 DUP1 REVERT JUMPDEST POP PUSH2 0x2DD6 DUP7 DUP3 DUP8 ADD PUSH2 0x2D62 JUMP JUMPDEST SWAP3 POP POP PUSH1 0x40 DUP5 ADD CALLDATALOAD PUSH2 0x2DE7 DUP2 PUSH2 0x2B4B JUMP JUMPDEST DUP1 SWAP2 POP POP SWAP3 POP SWAP3 POP SWAP3 JUMP JUMPDEST PUSH1 0x1 PUSH1 0x1 PUSH1 0x40 SHL SUB DUP2 AND DUP2 EQ PUSH2 0x1032 JUMPI PUSH0 DUP1 REVERT JUMPDEST PUSH0 DUP1 PUSH0 DUP1 PUSH1 0x80 DUP6 DUP8 SUB SLT ISZERO PUSH2 0x2E19 JUMPI PUSH0 DUP1 REVERT JUMPDEST DUP5 CALLDATALOAD PUSH2 0x2E24 DUP2 PUSH2 0x2DF2 JUMP JUMPDEST SWAP4 POP PUSH1 0x20 DUP6 ADD CALLDATALOAD PUSH2 0x2E34 DUP2 PUSH2 0x2DF2 JUMP JUMPDEST SWAP3 POP PUSH1 0x40 DUP6 ADD CALLDATALOAD PUSH2 0x2E44 DUP2 PUSH2 0x2DF2 JUMP JUMPDEST SWAP2 POP PUSH1 0x60 DUP6 ADD CALLDATALOAD PUSH2 0x2E54 DUP2 PUSH2 0x2DF2 JUMP JUMPDEST SWAP4 SWAP7 SWAP3 SWAP6 POP SWAP1 SWAP4 POP POP JUMP JUMPDEST PUSH0 DUP1 PUSH1 0x40 DUP4 DUP6 SUB SLT ISZERO PUSH2 0x2E70 JUMPI PUSH0 DUP1 REVERT JUMPDEST DUP3 CALLDATALOAD PUSH1 0x1 PUSH1 0x1 PUSH1 0x40 SHL SUB DUP2 GT ISZERO PUSH2 0x2E85 JUMPI PUSH0 DUP1 REVERT JUMPDEST PUSH2 0x2E91 DUP6 DUP3 DUP7 ADD PUSH2 0x2D62 JUMP JUMPDEST SWAP3 POP POP PUSH1 0x20 DUP4 ADD CALLDATALOAD PUSH2 0x2EA2 DUP2 PUSH2 0x2B4B JUMP JUMPDEST DUP1 SWAP2 POP POP SWAP3 POP SWAP3 SWAP1 POP JUMP JUMPDEST PUSH0 PUSH1 0x20 DUP3 DUP5 SUB SLT ISZERO PUSH2 0x2EBD JUMPI PUSH0 DUP1 REVERT JUMPDEST POP CALLDATALOAD SWAP2 SWAP1 POP JUMP JUMPDEST PUSH0 PUSH1 0x20 DUP1 DUP4 DUP6 SUB SLT ISZERO PUSH2 0x2ED5 JUMPI PUSH0 DUP1 REVERT JUMPDEST DUP3 CALLDATALOAD PUSH1 0x1 PUSH1 0x1 PUSH1 0x40 SHL SUB DUP2 GT ISZERO PUSH2 0x2EEA JUMPI PUSH0 DUP1 REVERT JUMPDEST DUP4 ADD PUSH1 0x1F DUP2 ADD DUP6 SGT PUSH2 0x2EFA JUMPI PUSH0 DUP1 REVERT JUMPDEST DUP1 CALLDATALOAD PUSH2 0x2F08 PUSH2 0x2CB0 DUP3 PUSH2 0x2C6F JUMP JUMPDEST DUP2 DUP2 MSTORE PUSH1 0x6 SWAP2 SWAP1 SWAP2 SHL DUP3 ADD DUP4 ADD SWAP1 DUP4 DUP2 ADD SWAP1 DUP8 DUP4 GT ISZERO PUSH2 0x2F26 JUMPI PUSH0 DUP1 REVERT JUMPDEST SWAP3 DUP5 ADD SWAP3 JUMPDEST DUP3 DUP5 LT ISZERO PUSH2 0x2F67 JUMPI PUSH1 0x40 DUP5 DUP10 SUB SLT ISZERO PUSH2 0x2F42 JUMPI PUSH0 DUP1 REVERT JUMPDEST PUSH2 0x2F4A PUSH2 0x2B8E JUMP JUMPDEST DUP5 CALLDATALOAD DUP2 MSTORE DUP6 DUP6 ADD CALLDATALOAD DUP7 DUP3 ADD MSTORE DUP3 MSTORE PUSH1 0x40 SWAP1 SWAP4 ADD SWAP3 SWAP1 DUP5 ADD SWAP1 PUSH2 0x2F2B JUMP JUMPDEST SWAP8 SWAP7 POP POP POP POP POP POP POP JUMP JUMPDEST PUSH0 JUMPDEST DUP4 DUP2 LT ISZERO PUSH2 0x2F8C JUMPI DUP2 DUP2 ADD MLOAD DUP4 DUP3 ADD MSTORE PUSH1 0x20 ADD PUSH2 0x2F74 JUMP JUMPDEST POP POP PUSH0 SWAP2 ADD MSTORE JUMP JUMPDEST PUSH0 DUP2 MLOAD DUP1 DUP5 MSTORE PUSH2 0x2FAB DUP2 PUSH1 0x20 DUP7 ADD PUSH1 0x20 DUP7 ADD PUSH2 0x2F72 JUMP JUMPDEST PUSH1 0x1F ADD PUSH1 0x1F NOT AND SWAP3 SWAP1 SWAP3 ADD PUSH1 0x20 ADD SWAP3 SWAP2 POP POP JUMP JUMPDEST DUP3 DUP2 MSTORE PUSH1 0x40 PUSH1 0x20 DUP3 ADD MSTORE PUSH0 PUSH2 0x23DF PUSH1 0x40 DUP4 ADD DUP5 PUSH2 0x2F94 JUMP JUMPDEST PUSH1 0x20 DUP2 MSTORE DUP2 MLOAD ISZERO ISZERO PUSH1 0x20 DUP3 ADD MSTORE PUSH1 0x1 DUP1 PUSH1 0xA0 SHL SUB PUSH1 0x20 DUP4 ADD MLOAD AND PUSH1 0x40 DUP3 ADD MSTORE PUSH0 PUSH1 0x40 DUP4 ADD MLOAD PUSH1 0x60 DUP1 DUP5 ADD MSTORE DUP1 MLOAD PUSH1 0x80 DUP5 ADD MSTORE PUSH1 0x20 DUP2 ADD MLOAD SWAP1 POP PUSH1 0x40 PUSH1 0xA0 DUP5 ADD MSTORE PUSH2 0x23DF PUSH1 0xC0 DUP5 ADD DUP3 PUSH2 0x2F94 JUMP JUMPDEST PUSH0 DUP1 PUSH1 0x40 DUP4 DUP6 SUB SLT ISZERO PUSH2 0x3035 JUMPI PUSH0 DUP1 REVERT JUMPDEST DUP3 CALLDATALOAD SWAP2 POP PUSH1 0x20 DUP4 ADD CALLDATALOAD PUSH1 0x1 PUSH1 0x1 PUSH1 0x40 SHL SUB DUP1 DUP3 GT ISZERO PUSH2 0x3052 JUMPI PUSH0 DUP1 REVERT JUMPDEST SWAP1 DUP5 ADD SWAP1 PUSH1 0x40 DUP3 DUP8 SUB SLT ISZERO PUSH2 0x3065 JUMPI PUSH0 DUP1 REVERT JUMPDEST PUSH2 0x306D PUSH2 0x2B8E JUMP JUMPDEST DUP3 CALLDATALOAD DUP2 MSTORE PUSH1 0x20 DUP4 ADD CALLDATALOAD DUP3 DUP2 GT ISZERO PUSH2 0x3082 JUMPI PUSH0 DUP1 REVERT JUMPDEST DUP1 DUP5 ADD SWAP4 POP POP DUP7 PUSH1 0x1F DUP5 ADD SLT PUSH2 0x3096 JUMPI PUSH0 DUP1 REVERT JUMPDEST PUSH2 0x30A5 DUP8 DUP5 CALLDATALOAD PUSH1 0x20 DUP7 ADD PUSH2 0x2D2C JUMP JUMPDEST PUSH1 0x20 DUP3 ADD MSTORE DUP1 SWAP4 POP POP POP POP SWAP3 POP SWAP3 SWAP1 POP JUMP JUMPDEST PUSH0 DUP1 PUSH1 0x20 DUP4 DUP6 SUB SLT ISZERO PUSH2 0x30C8 JUMPI PUSH0 DUP1 REVERT JUMPDEST DUP3 CALLDATALOAD PUSH1 0x1 PUSH1 0x1 PUSH1 0x40 SHL SUB DUP1 DUP3 GT ISZERO PUSH2 0x30DE JUMPI PUSH0 DUP1 REVERT JUMPDEST DUP2 DUP6 ADD SWAP2 POP DUP6 PUSH1 0x1F DUP4 ADD SLT PUSH2 0x30F1 JUMPI PUSH0 DUP1 REVERT JUMPDEST DUP2 CALLDATALOAD DUP2 DUP2 GT ISZERO PUSH2 0x30FF JUMPI PUSH0 DUP1 REVERT JUMPDEST DUP7 PUSH1 0x20 DUP3 PUSH1 0x5 SHL DUP6 ADD ADD GT ISZERO PUSH2 0x3113 JUMPI PUSH0 DUP1 REVERT JUMPDEST PUSH1 0x20 SWAP3 SWAP1 SWAP3 ADD SWAP7 SWAP2 SWAP6 POP SWAP1 SWAP4 POP POP POP POP JUMP JUMPDEST PUSH0 PUSH1 0x20 DUP1 DUP4 ADD PUSH1 0x20 DUP5 MSTORE DUP1 DUP6 MLOAD DUP1 DUP4 MSTORE PUSH1 0x40 DUP7 ADD SWAP2 POP PUSH1 0x40 DUP2 PUSH1 0x5 SHL DUP8 ADD ADD SWAP3 POP PUSH1 0x20 DUP8 ADD PUSH0 JUMPDEST DUP3 DUP2 LT ISZERO PUSH2 0x317A JUMPI PUSH1 0x3F NOT DUP9 DUP7 SUB ADD DUP5 MSTORE PUSH2 0x3168 DUP6 DUP4 MLOAD PUSH2 0x2F94 JUMP JUMPDEST SWAP5 POP SWAP3 DUP6 ADD SWAP3 SWAP1 DUP6 ADD SWAP1 PUSH1 0x1 ADD PUSH2 0x314C JUMP JUMPDEST POP SWAP3 SWAP8 SWAP7 POP POP POP POP POP POP POP JUMP JUMPDEST PUSH0 DUP1 PUSH1 0x40 DUP4 DUP6 SUB SLT ISZERO PUSH2 0x3198 JUMPI PUSH0 DUP1 REVERT JUMPDEST DUP3 CALLDATALOAD PUSH1 0x1 PUSH1 0x1 PUSH1 0x40 SHL SUB DUP1 DUP3 GT ISZERO PUSH2 0x31AE JUMPI PUSH0 DUP1 REVERT JUMPDEST PUSH2 0x31BA DUP7 DUP4 DUP8 ADD PUSH2 0x2C91 JUMP JUMPDEST SWAP4 POP PUSH1 0x20 SWAP2 POP DUP2 DUP6 ADD CALLDATALOAD DUP2 DUP2 GT ISZERO PUSH2 0x31D0 JUMPI PUSH0 DUP1 REVERT JUMPDEST DUP6 ADD PUSH1 0x1F DUP2 ADD DUP8 SGT PUSH2 0x31E0 JUMPI PUSH0 DUP1 REVERT JUMPDEST DUP1 CALLDATALOAD PUSH2 0x31EE PUSH2 0x2CB0 DUP3 PUSH2 0x2C6F JUMP JUMPDEST DUP2 DUP2 MSTORE PUSH1 0x5 SWAP2 SWAP1 SWAP2 SHL DUP3 ADD DUP5 ADD SWAP1 DUP5 DUP2 ADD SWAP1 DUP10 DUP4 GT ISZERO PUSH2 0x320C JUMPI PUSH0 DUP1 REVERT JUMPDEST DUP6 DUP5 ADD JUMPDEST DUP4 DUP2 LT ISZERO PUSH2 0x3242 JUMPI DUP1 CALLDATALOAD DUP7 DUP2 GT ISZERO PUSH2 0x3226 JUMPI PUSH0 DUP1 REVERT JUMPDEST PUSH2 0x3234 DUP13 DUP10 DUP4 DUP10 ADD ADD PUSH2 0x2D62 JUMP JUMPDEST DUP5 MSTORE POP SWAP2 DUP7 ADD SWAP2 DUP7 ADD PUSH2 0x3210 JUMP JUMPDEST POP DUP1 SWAP7 POP POP POP POP POP POP POP SWAP3 POP SWAP3 SWAP1 POP JUMP JUMPDEST PUSH1 0x20 DUP1 DUP3 MSTORE DUP3 MLOAD DUP3 DUP3 ADD DUP2 SWAP1 MSTORE PUSH0 SWAP2 SWAP1 PUSH1 0x40 SWAP1 DUP2 DUP6 ADD SWAP1 DUP7 DUP5 ADD DUP6 JUMPDEST DUP3 DUP2 LT ISZERO PUSH2 0x329D JUMPI DUP2 MLOAD DUP1 MLOAD PUSH1 0x1 PUSH1 0x1 PUSH1 0xA0 SHL SUB AND DUP6 MSTORE DUP7 ADD MLOAD DUP7 DUP6 ADD MSTORE SWAP3 DUP5 ADD SWAP3 SWAP1 DUP6 ADD SWAP1 PUSH1 0x1 ADD PUSH2 0x326F JUMP JUMPDEST POP SWAP2 SWAP8 SWAP7 POP POP POP POP POP POP POP JUMP JUMPDEST PUSH4 0xFFFFFFFF DUP2 AND DUP2 EQ PUSH2 0x1032 JUMPI PUSH0 DUP1 REVERT JUMPDEST PUSH0 DUP1 PUSH1 0x40 DUP4 DUP6 SUB SLT ISZERO PUSH2 0x32CC JUMPI PUSH0 DUP1 REVERT JUMPDEST DUP3 CALLDATALOAD PUSH1 0x1 PUSH1 0x1 PUSH1 0x80 SHL SUB DUP2 AND DUP2 EQ PUSH2 0x32E2 JUMPI PUSH0 DUP1 REVERT JUMPDEST SWAP2 POP PUSH1 0x20 DUP4 ADD CALLDATALOAD PUSH2 0x2EA2 DUP2 PUSH2 0x32AA JUMP JUMPDEST PUSH4 0x4E487B71 PUSH1 0xE0 SHL PUSH0 MSTORE PUSH1 0x21 PUSH1 0x4 MSTORE PUSH1 0x24 PUSH0 REVERT JUMPDEST PUSH1 0x20 DUP2 ADD PUSH1 0x7 DUP4 LT PUSH2 0x3326 JUMPI PUSH4 0x4E487B71 PUSH1 0xE0 SHL PUSH0 MSTORE PUSH1 0x21 PUSH1 0x4 MSTORE PUSH1 0x24 PUSH0 REVERT JUMPDEST SWAP2 SWAP1 MSTORE SWAP1 JUMP JUMPDEST PUSH0 DUP1 PUSH1 0x40 DUP4 DUP6 SUB SLT ISZERO PUSH2 0x333D JUMPI PUSH0 DUP1 REVERT JUMPDEST DUP3 CALLDATALOAD SWAP2 POP PUSH1 0x20 DUP4 ADD CALLDATALOAD PUSH1 0x1 PUSH1 0x1 PUSH1 0x40 SHL SUB DUP2 GT ISZERO PUSH2 0x3359 JUMPI PUSH0 DUP1 REVERT JUMPDEST PUSH2 0x3365 DUP6 DUP3 DUP7 ADD PUSH2 0x2D62 JUMP JUMPDEST SWAP2 POP POP SWAP3 POP SWAP3 SWAP1 POP JUMP JUMPDEST PUSH1 0x1 PUSH1 0x1 PUSH1 0x40 SHL SUB SWAP6 DUP7 AND DUP2 MSTORE SWAP4 DUP6 AND PUSH1 0x20 DUP6 ADD MSTORE SWAP2 DUP5 AND PUSH1 0x40 DUP5 ADD MSTORE SWAP1 SWAP3 AND PUSH1 0x60 DUP3 ADD MSTORE PUSH1 0x1 PUSH1 0x1 PUSH1 0xA0 SHL SUB SWAP1 SWAP2 AND PUSH1 0x80 DUP3 ADD MSTORE PUSH1 0xA0 ADD SWAP1 JUMP JUMPDEST PUSH4 0x4E487B71 PUSH1 0xE0 SHL PUSH0 MSTORE PUSH1 0x11 PUSH1 0x4 MSTORE PUSH1 0x24 PUSH0 REVERT JUMPDEST PUSH1 0x1 PUSH1 0x1 PUSH1 0x40 SHL SUB DUP2 DUP2 AND DUP4 DUP3 AND ADD SWAP1 DUP1 DUP3 GT ISZERO PUSH2 0xD3B JUMPI PUSH2 0xD3B PUSH2 0x33AA JUMP JUMPDEST DUP1 MLOAD PUSH2 0x33E9 DUP2 PUSH2 0x2B4B JUMP JUMPDEST SWAP2 SWAP1 POP JUMP JUMPDEST PUSH0 DUP3 PUSH1 0x1F DUP4 ADD SLT PUSH2 0x33FD JUMPI PUSH0 DUP1 REVERT JUMPDEST DUP2 MLOAD PUSH2 0x340B PUSH2 0x2CB0 DUP3 PUSH2 0x2D06 JUMP JUMPDEST DUP2 DUP2 MSTORE DUP5 PUSH1 0x20 DUP4 DUP7 ADD ADD GT ISZERO PUSH2 0x341F JUMPI PUSH0 DUP1 REVERT JUMPDEST PUSH2 0x23DF DUP3 PUSH1 0x20 DUP4 ADD PUSH1 0x20 DUP8 ADD PUSH2 0x2F72 JUMP JUMPDEST PUSH0 PUSH1 0x40 DUP3 DUP5 SUB SLT ISZERO PUSH2 0x3440 JUMPI PUSH0 DUP1 REVERT JUMPDEST PUSH2 0x3448 PUSH2 0x2B8E JUMP JUMPDEST SWAP1 POP DUP2 MLOAD DUP2 MSTORE PUSH1 0x20 DUP3 ADD MLOAD PUSH1 0x1 PUSH1 0x1 PUSH1 0x40 SHL SUB DUP2 GT ISZERO PUSH2 0x3466 JUMPI PUSH0 DUP1 REVERT JUMPDEST PUSH2 0x3472 DUP5 DUP3 DUP6 ADD PUSH2 0x33EE JUMP JUMPDEST PUSH1 0x20 DUP4 ADD MSTORE POP SWAP3 SWAP2 POP POP JUMP JUMPDEST PUSH0 PUSH1 0x20 DUP3 DUP5 SUB SLT ISZERO PUSH2 0x348E JUMPI PUSH0 DUP1 REVERT JUMPDEST DUP2 MLOAD PUSH1 0x1 PUSH1 0x1 PUSH1 0x40 SHL SUB DUP1 DUP3 GT ISZERO PUSH2 0x34A4 JUMPI PUSH0 DUP1 REVERT JUMPDEST SWAP1 DUP4 ADD SWAP1 PUSH1 0xC0 DUP3 DUP7 SUB SLT ISZERO PUSH2 0x34B7 JUMPI PUSH0 DUP1 REVERT JUMPDEST PUSH2 0x34BF PUSH2 0x2BB6 JUMP JUMPDEST DUP3 MLOAD DUP2 MSTORE PUSH1 0x20 DUP4 ADD MLOAD PUSH2 0x34D1 DUP2 PUSH2 0x2B4B JUMP JUMPDEST PUSH1 0x20 DUP3 ADD MSTORE PUSH1 0x40 DUP4 ADD MLOAD PUSH2 0x34E4 DUP2 PUSH2 0x2B4B JUMP JUMPDEST PUSH1 0x40 DUP3 ADD MSTORE PUSH1 0x60 DUP4 ADD MLOAD DUP3 DUP2 GT ISZERO PUSH2 0x34FA JUMPI PUSH0 DUP1 REVERT JUMPDEST PUSH2 0x3506 DUP8 DUP3 DUP7 ADD PUSH2 0x3430 JUMP JUMPDEST PUSH1 0x60 DUP4 ADD MSTORE POP PUSH1 0x80 DUP4 ADD MLOAD PUSH1 0x80 DUP3 ADD MSTORE PUSH1 0xA0 DUP4 ADD MLOAD PUSH1 0xA0 DUP3 ADD MSTORE DUP1 SWAP4 POP POP POP POP SWAP3 SWAP2 POP POP JUMP JUMPDEST DUP2 DUP2 SUB DUP2 DUP2 GT ISZERO PUSH2 0x91A JUMPI PUSH2 0x91A PUSH2 0x33AA JUMP JUMPDEST PUSH4 0x4E487B71 PUSH1 0xE0 SHL PUSH0 MSTORE PUSH1 0x32 PUSH1 0x4 MSTORE PUSH1 0x24 PUSH0 REVERT JUMPDEST PUSH1 0x1 DUP2 DUP2 SHR SWAP1 DUP3 AND DUP1 PUSH2 0x3567 JUMPI PUSH1 0x7F DUP3 AND SWAP2 POP JUMPDEST PUSH1 0x20 DUP3 LT DUP2 SUB PUSH2 0x3585 JUMPI PUSH4 0x4E487B71 PUSH1 0xE0 SHL PUSH0 MSTORE PUSH1 0x22 PUSH1 0x4 MSTORE PUSH1 0x24 PUSH0 REVERT JUMPDEST POP SWAP2 SWAP1 POP JUMP JUMPDEST PUSH1 0x1F DUP3 GT ISZERO PUSH2 0x814 JUMPI DUP1 PUSH0 MSTORE PUSH1 0x20 PUSH0 KECCAK256 PUSH1 0x1F DUP5 ADD PUSH1 0x5 SHR DUP2 ADD PUSH1 0x20 DUP6 LT ISZERO PUSH2 0x35B0 JUMPI POP DUP1 JUMPDEST PUSH1 0x1F DUP5 ADD PUSH1 0x5 SHR DUP3 ADD SWAP2 POP JUMPDEST DUP2 DUP2 LT ISZERO PUSH2 0x2874 JUMPI PUSH0 DUP2 SSTORE PUSH1 0x1 ADD PUSH2 0x35BC JUMP JUMPDEST DUP2 MLOAD PUSH1 0x1 PUSH1 0x1 PUSH1 0x40 SHL SUB DUP2 GT ISZERO PUSH2 0x35E8 JUMPI PUSH2 0x35E8 PUSH2 0x2B7A JUMP JUMPDEST PUSH2 0x35FC DUP2 PUSH2 0x35F6 DUP5 SLOAD PUSH2 0x3553 JUMP JUMPDEST DUP5 PUSH2 0x358B JUMP JUMPDEST PUSH1 0x20 DUP1 PUSH1 0x1F DUP4 GT PUSH1 0x1 DUP2 EQ PUSH2 0x362F JUMPI PUSH0 DUP5 ISZERO PUSH2 0x3618 JUMPI POP DUP6 DUP4 ADD MLOAD JUMPDEST PUSH0 NOT PUSH1 0x3 DUP7 SWAP1 SHL SHR NOT AND PUSH1 0x1 DUP6 SWAP1 SHL OR DUP6 SSTORE PUSH2 0x22EE JUMP JUMPDEST PUSH0 DUP6 DUP2 MSTORE PUSH1 0x20 DUP2 KECCAK256 PUSH1 0x1F NOT DUP7 AND SWAP2 JUMPDEST DUP3 DUP2 LT ISZERO PUSH2 0x365D JUMPI DUP9 DUP7 ADD MLOAD DUP3 SSTORE SWAP5 DUP5 ADD SWAP5 PUSH1 0x1 SWAP1 SWAP2 ADD SWAP1 DUP5 ADD PUSH2 0x363E JUMP JUMPDEST POP DUP6 DUP3 LT ISZERO PUSH2 0x367A JUMPI DUP8 DUP6 ADD MLOAD PUSH0 NOT PUSH1 0x3 DUP9 SWAP1 SHL PUSH1 0xF8 AND SHR NOT AND DUP2 SSTORE JUMPDEST POP POP POP POP POP PUSH1 0x1 SWAP1 DUP2 SHL ADD SWAP1 SSTORE POP JUMP JUMPDEST DUP3 DUP2 MSTORE PUSH0 PUSH1 0x20 PUSH1 0x40 PUSH1 0x20 DUP5 ADD MSTORE DUP4 SLOAD PUSH1 0x40 DUP5 ADD MSTORE PUSH1 0x1 DUP1 DUP6 ADD PUSH1 0x40 PUSH1 0x60 DUP7 ADD MSTORE PUSH0 DUP2 SLOAD PUSH2 0x36B6 DUP2 PUSH2 0x3553 JUMP JUMPDEST DUP1 PUSH1 0x80 DUP10 ADD MSTORE PUSH1 0xA0 PUSH1 0x1 DUP4 AND PUSH0 DUP2 EQ PUSH2 0x36D6 JUMPI PUSH1 0x1 DUP2 EQ PUSH2 0x36F2 JUMPI PUSH2 0x371F JUMP JUMPDEST PUSH1 0xFF NOT DUP5 AND PUSH1 0xA0 DUP12 ADD MSTORE PUSH1 0xA0 DUP4 ISZERO ISZERO PUSH1 0x5 SHL DUP12 ADD ADD SWAP5 POP PUSH2 0x371F JUMP JUMPDEST DUP6 PUSH0 MSTORE PUSH1 0x20 PUSH0 KECCAK256 PUSH0 JUMPDEST DUP5 DUP2 LT ISZERO PUSH2 0x3716 JUMPI DUP2 SLOAD DUP13 DUP3 ADD DUP6 ADD MSTORE SWAP1 DUP9 ADD SWAP1 DUP10 ADD PUSH2 0x36FB JUMP JUMPDEST DUP12 ADD PUSH1 0xA0 ADD SWAP6 POP POP JUMPDEST POP SWAP3 SWAP11 SWAP10 POP POP POP POP POP POP POP POP POP POP JUMP JUMPDEST PUSH0 DUP1 DUP4 CALLDATALOAD PUSH1 0x1E NOT DUP5 CALLDATASIZE SUB ADD DUP2 SLT PUSH2 0x3744 JUMPI PUSH0 DUP1 REVERT JUMPDEST DUP4 ADD DUP1 CALLDATALOAD SWAP2 POP PUSH1 0x1 PUSH1 0x1 PUSH1 0x40 SHL SUB DUP3 GT ISZERO PUSH2 0x375D JUMPI PUSH0 DUP1 REVERT JUMPDEST PUSH1 0x20 ADD SWAP2 POP CALLDATASIZE DUP2 SWAP1 SUB DUP3 SGT ISZERO PUSH2 0x3771 JUMPI PUSH0 DUP1 REVERT JUMPDEST SWAP3 POP SWAP3 SWAP1 POP JUMP JUMPDEST PUSH1 0x1 PUSH1 0x1 PUSH1 0x80 SHL SUB DUP2 DUP2 AND DUP4 DUP3 AND MUL DUP1 DUP3 AND SWAP2 SWAP1 DUP3 DUP2 EQ PUSH2 0x379B JUMPI PUSH2 0x379B PUSH2 0x33AA JUMP JUMPDEST POP POP SWAP3 SWAP2 POP POP JUMP JUMPDEST PUSH4 0x4E487B71 PUSH1 0xE0 SHL PUSH0 MSTORE PUSH1 0x12 PUSH1 0x4 MSTORE PUSH1 0x24 PUSH0 REVERT JUMPDEST PUSH0 PUSH1 0x1 PUSH1 0x1 PUSH1 0x80 SHL SUB DUP1 DUP5 AND DUP1 PUSH2 0x37D0 JUMPI PUSH2 0x37D0 PUSH2 0x37A3 JUMP JUMPDEST SWAP3 AND SWAP2 SWAP1 SWAP2 DIV SWAP3 SWAP2 POP POP JUMP JUMPDEST PUSH0 PUSH1 0x20 DUP3 DUP5 SUB SLT ISZERO PUSH2 0x37EC JUMPI PUSH0 DUP1 REVERT JUMPDEST DUP2 MLOAD PUSH2 0x917 DUP2 PUSH2 0x2B4B JUMP JUMPDEST DUP1 MLOAD DUP1 ISZERO ISZERO DUP2 EQ PUSH2 0x33E9 JUMPI PUSH0 DUP1 REVERT JUMPDEST DUP1 MLOAD PUSH2 0x33E9 DUP2 PUSH2 0x2DF2 JUMP JUMPDEST PUSH0 DUP3 PUSH1 0x1F DUP4 ADD SLT PUSH2 0x3820 JUMPI PUSH0 DUP1 REVERT JUMPDEST DUP2 MLOAD PUSH1 0x20 PUSH2 0x3830 PUSH2 0x2CB0 DUP4 PUSH2 0x2C6F JUMP JUMPDEST DUP1 DUP4 DUP3 MSTORE PUSH1 0x20 DUP3 ADD SWAP2 POP PUSH1 0x20 DUP5 PUSH1 0x5 SHL DUP8 ADD ADD SWAP4 POP DUP7 DUP5 GT ISZERO PUSH2 0x3851 JUMPI PUSH0 DUP1 REVERT JUMPDEST PUSH1 0x20 DUP7 ADD JUMPDEST DUP5 DUP2 LT ISZERO PUSH2 0x2CFB JUMPI DUP1 MLOAD PUSH2 0x3869 DUP2 PUSH2 0x2B4B JUMP JUMPDEST DUP4 MSTORE SWAP2 DUP4 ADD SWAP2 DUP4 ADD PUSH2 0x3856 JUMP JUMPDEST PUSH0 PUSH1 0x20 DUP3 DUP5 SUB SLT ISZERO PUSH2 0x3886 JUMPI PUSH0 DUP1 REVERT JUMPDEST DUP2 MLOAD PUSH1 0x1 PUSH1 0x1 PUSH1 0x40 SHL SUB DUP1 DUP3 GT ISZERO PUSH2 0x389C JUMPI PUSH0 DUP1 REVERT JUMPDEST SWAP1 DUP4 ADD SWAP1 PUSH2 0x160 DUP3 DUP7 SUB SLT ISZERO PUSH2 0x38B0 JUMPI PUSH0 DUP1 REVERT JUMPDEST PUSH2 0x38B8 PUSH2 0x2BD8 JUMP JUMPDEST PUSH2 0x38C1 DUP4 PUSH2 0x37F7 JUMP JUMPDEST DUP2 MSTORE PUSH2 0x38CF PUSH1 0x20 DUP5 ADD PUSH2 0x37F7 JUMP JUMPDEST PUSH1 0x20 DUP3 ADD MSTORE PUSH2 0x38E0 PUSH1 0x40 DUP5 ADD PUSH2 0x37F7 JUMP JUMPDEST PUSH1 0x40 DUP3 ADD MSTORE PUSH2 0x38F1 PUSH1 0x60 DUP5 ADD PUSH2 0x3806 JUMP JUMPDEST PUSH1 0x60 DUP3 ADD MSTORE PUSH2 0x3902 PUSH1 0x80 DUP5 ADD PUSH2 0x3806 JUMP JUMPDEST PUSH1 0x80 DUP3 ADD MSTORE PUSH2 0x3913 PUSH1 0xA0 DUP5 ADD PUSH2 0x3806 JUMP JUMPDEST PUSH1 0xA0 DUP3 ADD MSTORE PUSH2 0x3924 PUSH1 0xC0 DUP5 ADD PUSH2 0x3806 JUMP JUMPDEST PUSH1 0xC0 DUP3 ADD MSTORE PUSH2 0x3935 PUSH1 0xE0 DUP5 ADD PUSH2 0x33DE JUMP JUMPDEST PUSH1 0xE0 DUP3 ADD MSTORE PUSH2 0x100 PUSH2 0x3948 DUP2 DUP6 ADD PUSH2 0x33DE JUMP JUMPDEST SWAP1 DUP3 ADD MSTORE PUSH2 0x120 PUSH2 0x395A DUP5 DUP3 ADD PUSH2 0x33DE JUMP JUMPDEST SWAP1 DUP3 ADD MSTORE PUSH2 0x140 DUP4 DUP2 ADD MLOAD DUP4 DUP2 GT ISZERO PUSH2 0x3971 JUMPI PUSH0 DUP1 REVERT JUMPDEST PUSH2 0x397D DUP9 DUP3 DUP8 ADD PUSH2 0x3811 JUMP JUMPDEST SWAP2 DUP4 ADD SWAP2 SWAP1 SWAP2 MSTORE POP SWAP6 SWAP5 POP POP POP POP POP JUMP JUMPDEST DUP1 DUP3 ADD DUP1 DUP3 GT ISZERO PUSH2 0x91A JUMPI PUSH2 0x91A PUSH2 0x33AA JUMP JUMPDEST PUSH0 PUSH1 0x80 DUP3 DUP5 SUB SLT ISZERO PUSH2 0x39B1 JUMPI PUSH0 DUP1 REVERT JUMPDEST PUSH2 0x39B9 PUSH2 0x2BFB JUMP JUMPDEST SWAP1 POP DUP2 MLOAD DUP2 MSTORE PUSH1 0x20 DUP1 DUP4 ADD MLOAD PUSH2 0x39CE DUP2 PUSH2 0x2B4B JUMP JUMPDEST DUP3 DUP3 ADD MSTORE PUSH1 0x40 DUP4 DUP2 ADD MLOAD SWAP1 DUP4 ADD MSTORE PUSH1 0x60 DUP4 ADD MLOAD PUSH1 0x1 PUSH1 0x1 PUSH1 0x40 SHL SUB DUP2 GT ISZERO PUSH2 0x39F4 JUMPI PUSH0 DUP1 REVERT JUMPDEST DUP4 ADD PUSH1 0x1F DUP2 ADD DUP6 SGT PUSH2 0x3A04 JUMPI PUSH0 DUP1 REVERT JUMPDEST DUP1 MLOAD PUSH2 0x3A12 PUSH2 0x2CB0 DUP3 PUSH2 0x2C6F JUMP JUMPDEST DUP2 DUP2 MSTORE PUSH1 0x5 SWAP2 SWAP1 SWAP2 SHL DUP3 ADD DUP4 ADD SWAP1 DUP4 DUP2 ADD SWAP1 DUP8 DUP4 GT ISZERO PUSH2 0x3A30 JUMPI PUSH0 DUP1 REVERT JUMPDEST SWAP3 DUP5 ADD SWAP3 JUMPDEST DUP3 DUP5 LT ISZERO PUSH2 0x3A4E JUMPI DUP4 MLOAD DUP3 MSTORE SWAP3 DUP5 ADD SWAP3 SWAP1 DUP5 ADD SWAP1 PUSH2 0x3A35 JUMP JUMPDEST PUSH1 0x60 DUP7 ADD MSTORE POP SWAP3 SWAP6 SWAP5 POP POP POP POP POP JUMP JUMPDEST PUSH0 PUSH2 0x3A6B PUSH2 0x2CB0 DUP5 PUSH2 0x2C6F JUMP JUMPDEST DUP4 DUP2 MSTORE SWAP1 POP PUSH1 0x20 DUP1 DUP3 ADD SWAP1 PUSH1 0x5 DUP6 SWAP1 SHL DUP5 ADD DUP7 DUP2 GT ISZERO PUSH2 0x3A89 JUMPI PUSH0 DUP1 REVERT JUMPDEST DUP5 JUMPDEST DUP2 DUP2 LT ISZERO PUSH2 0x3AC2 JUMPI DUP1 MLOAD PUSH1 0x1 PUSH1 0x1 PUSH1 0x40 SHL SUB DUP2 GT ISZERO PUSH2 0x3AA8 JUMPI PUSH0 DUP1 REVERT JUMPDEST PUSH2 0x3AB4 DUP10 DUP3 DUP10 ADD PUSH2 0x39A1 JUMP JUMPDEST DUP6 MSTORE POP SWAP3 DUP3 ADD SWAP3 DUP3 ADD PUSH2 0x3A8B JUMP JUMPDEST POP POP POP POP SWAP4 SWAP3 POP POP POP JUMP JUMPDEST PUSH0 DUP3 PUSH1 0x1F DUP4 ADD SLT PUSH2 0x3ADC JUMPI PUSH0 DUP1 REVERT JUMPDEST PUSH2 0x917 DUP4 DUP4 MLOAD PUSH1 0x20 DUP6 ADD PUSH2 0x3A5E JUMP JUMPDEST DUP1 MLOAD PUSH1 0xF DUP2 SWAP1 SIGNEXTEND DUP2 EQ PUSH2 0x33E9 JUMPI PUSH0 DUP1 REVERT JUMPDEST DUP1 MLOAD PUSH2 0x33E9 DUP2 PUSH2 0x32AA JUMP JUMPDEST PUSH0 DUP1 PUSH0 DUP1 PUSH0 DUP1 PUSH1 0xC0 DUP8 DUP10 SUB SLT ISZERO PUSH2 0x3B1C JUMPI PUSH0 DUP1 REVERT JUMPDEST DUP7 MLOAD PUSH1 0x1 PUSH1 0x1 PUSH1 0x40 SHL SUB DUP1 DUP3 GT ISZERO PUSH2 0x3B32 JUMPI PUSH0 DUP1 REVERT JUMPDEST DUP2 DUP10 ADD SWAP2 POP DUP10 PUSH1 0x1F DUP4 ADD SLT PUSH2 0x3B45 JUMPI PUSH0 DUP1 REVERT JUMPDEST DUP2 MLOAD PUSH1 0x20 PUSH2 0x3B55 PUSH2 0x2CB0 DUP4 PUSH2 0x2C6F JUMP JUMPDEST DUP3 DUP2 MSTORE PUSH1 0x6 SWAP3 SWAP1 SWAP3 SHL DUP5 ADD DUP2 ADD SWAP2 DUP2 DUP2 ADD SWAP1 DUP14 DUP5 GT ISZERO PUSH2 0x3B73 JUMPI PUSH0 DUP1 REVERT JUMPDEST SWAP5 DUP3 ADD SWAP5 JUMPDEST DUP4 DUP7 LT ISZERO PUSH2 0x3BB4 JUMPI PUSH1 0x40 DUP7 DUP16 SUB SLT ISZERO PUSH2 0x3B8F JUMPI PUSH0 DUP1 REVERT JUMPDEST PUSH2 0x3B97 PUSH2 0x2B8E JUMP JUMPDEST DUP7 MLOAD DUP2 MSTORE DUP4 DUP8 ADD MLOAD DUP5 DUP3 ADD MSTORE DUP3 MSTORE PUSH1 0x40 SWAP1 SWAP6 ADD SWAP5 SWAP1 DUP3 ADD SWAP1 PUSH2 0x3B78 JUMP JUMPDEST SWAP2 DUP13 ADD MLOAD SWAP2 SWAP11 POP SWAP1 SWAP4 POP POP POP DUP1 DUP3 GT ISZERO PUSH2 0x3BCC JUMPI PUSH0 DUP1 REVERT JUMPDEST POP PUSH2 0x3BD9 DUP10 DUP3 DUP11 ADD PUSH2 0x3ACD JUMP JUMPDEST SWAP6 POP POP PUSH2 0x3BE8 PUSH1 0x40 DUP9 ADD PUSH2 0x3AEB JUMP JUMPDEST SWAP4 POP PUSH2 0x3BF6 PUSH1 0x60 DUP9 ADD PUSH2 0x3AFC JUMP JUMPDEST SWAP3 POP PUSH2 0x3C04 PUSH1 0x80 DUP9 ADD PUSH2 0x3AFC JUMP JUMPDEST SWAP2 POP PUSH2 0x3C12 PUSH1 0xA0 DUP9 ADD PUSH2 0x3AFC JUMP JUMPDEST SWAP1 POP SWAP3 SWAP6 POP SWAP3 SWAP6 POP SWAP3 SWAP6 JUMP JUMPDEST PUSH0 DUP2 MLOAD DUP1 DUP5 MSTORE PUSH1 0x20 DUP1 DUP6 ADD SWAP5 POP PUSH1 0x20 DUP5 ADD PUSH0 JUMPDEST DUP4 DUP2 LT ISZERO PUSH2 0x3C58 JUMPI DUP2 MLOAD DUP1 MLOAD DUP9 MSTORE DUP4 ADD MLOAD DUP4 DUP9 ADD MSTORE PUSH1 0x40 SWAP1 SWAP7 ADD SWAP6 SWAP1 DUP3 ADD SWAP1 PUSH1 0x1 ADD PUSH2 0x3C31 JUMP JUMPDEST POP SWAP5 SWAP6 SWAP5 POP POP POP POP POP JUMP JUMPDEST PUSH0 PUSH1 0x1 DUP1 PUSH1 0xA0 SHL SUB DUP1 DUP11 AND DUP4 MSTORE PUSH1 0xE0 PUSH1 0x20 DUP5 ADD MSTORE PUSH2 0x3C84 PUSH1 0xE0 DUP5 ADD DUP11 PUSH2 0x3C1E JUMP JUMPDEST DUP9 PUSH1 0xF SIGNEXTEND PUSH1 0x40 DUP6 ADD MSTORE DUP4 DUP2 SUB PUSH1 0x60 DUP6 ADD MSTORE PUSH2 0x3C9F DUP2 DUP10 PUSH2 0x3C1E JUMP JUMPDEST PUSH4 0xFFFFFFFF SWAP8 DUP9 AND PUSH1 0x80 DUP7 ADD MSTORE SWAP6 SWAP1 SWAP7 AND PUSH1 0xA0 DUP5 ADD MSTORE SWAP3 SWAP1 SWAP3 AND PUSH1 0xC0 SWAP1 SWAP2 ADD MSTORE POP SWAP6 SWAP5 POP POP POP POP POP JUMP JUMPDEST PUSH0 PUSH1 0x20 DUP3 DUP5 SUB SLT ISZERO PUSH2 0x3CD9 JUMPI PUSH0 DUP1 REVERT JUMPDEST PUSH2 0x917 DUP3 PUSH2 0x3AEB JUMP JUMPDEST PUSH0 PUSH1 0x20 DUP3 DUP5 SUB SLT ISZERO PUSH2 0x3CF2 JUMPI PUSH0 DUP1 REVERT JUMPDEST DUP2 MLOAD PUSH1 0x1 PUSH1 0x1 PUSH1 0x40 SHL SUB DUP2 GT ISZERO PUSH2 0x3D07 JUMPI PUSH0 DUP1 REVERT JUMPDEST DUP3 ADD PUSH1 0x1F DUP2 ADD DUP5 SGT PUSH2 0x3D17 JUMPI PUSH0 DUP1 REVERT JUMPDEST PUSH2 0x23DF DUP5 DUP3 MLOAD PUSH1 0x20 DUP5 ADD PUSH2 0x3A5E JUMP JUMPDEST PUSH0 PUSH1 0x20 DUP3 DUP5 SUB SLT ISZERO PUSH2 0x3D36 JUMPI PUSH0 DUP1 REVERT JUMPDEST PUSH2 0x917 DUP3 PUSH2 0x37F7 JUMP JUMPDEST PUSH0 DUP1 PUSH0 PUSH1 0x60 DUP5 DUP7 SUB SLT ISZERO PUSH2 0x3D51 JUMPI PUSH0 DUP1 REVERT JUMPDEST DUP4 MLOAD PUSH2 0x3D5C DUP2 PUSH2 0x2B4B JUMP JUMPDEST PUSH1 0x20 DUP6 ADD MLOAD SWAP1 SWAP4 POP PUSH2 0x3D6D DUP2 PUSH2 0x2B4B JUMP JUMPDEST PUSH1 0x40 DUP6 ADD MLOAD SWAP1 SWAP3 POP PUSH1 0x1 PUSH1 0x1 PUSH1 0x40 SHL SUB DUP2 GT ISZERO PUSH2 0x3D88 JUMPI PUSH0 DUP1 REVERT JUMPDEST PUSH2 0x3D94 DUP7 DUP3 DUP8 ADD PUSH2 0x3430 JUMP JUMPDEST SWAP2 POP POP SWAP3 POP SWAP3 POP SWAP3 JUMP JUMPDEST PUSH1 0x40 DUP2 MSTORE PUSH0 PUSH2 0x3DB0 PUSH1 0x40 DUP4 ADD DUP6 PUSH2 0x2F94 JUMP JUMPDEST SWAP1 POP DUP3 PUSH1 0x20 DUP4 ADD MSTORE SWAP4 SWAP3 POP POP POP JUMP JUMPDEST PUSH1 0x40 DUP2 MSTORE PUSH0 PUSH2 0x3DD1 PUSH1 0x40 DUP4 ADD DUP6 PUSH2 0x2F94 JUMP JUMPDEST SWAP1 POP PUSH1 0x1 DUP1 PUSH1 0xA0 SHL SUB DUP4 AND PUSH1 0x20 DUP4 ADD MSTORE SWAP4 SWAP3 POP POP POP JUMP JUMPDEST PUSH0 PUSH1 0x1 DUP3 ADD PUSH2 0x3DF9 JUMPI PUSH2 0x3DF9 PUSH2 0x33AA JUMP JUMPDEST POP PUSH1 0x1 ADD SWAP1 JUMP JUMPDEST PUSH1 0x60 DUP2 MSTORE PUSH0 PUSH2 0x3E12 PUSH1 0x60 DUP4 ADD DUP7 PUSH2 0x2F94 JUMP JUMPDEST PUSH1 0x1 PUSH1 0x1 PUSH1 0xA0 SHL SUB SWAP5 SWAP1 SWAP5 AND PUSH1 0x20 DUP4 ADD MSTORE POP PUSH1 0xFF SWAP2 SWAP1 SWAP2 AND PUSH1 0x40 SWAP1 SWAP2 ADD MSTORE SWAP2 SWAP1 POP JUMP JUMPDEST PUSH0 DUP3 PUSH2 0x3E43 JUMPI PUSH2 0x3E43 PUSH2 0x37A3 JUMP JUMPDEST POP DIV SWAP1 JUMP JUMPDEST PUSH0 DUP3 PUSH2 0x3E56 JUMPI PUSH2 0x3E56 PUSH2 0x37A3 JUMP JUMPDEST POP MOD SWAP1 JUMP JUMPDEST PUSH0 PUSH1 0x20 DUP3 DUP5 SUB SLT ISZERO PUSH2 0x3E6B JUMPI PUSH0 DUP1 REVERT JUMPDEST DUP2 MLOAD PUSH1 0x1 PUSH1 0x1 PUSH1 0x40 SHL SUB DUP2 GT ISZERO PUSH2 0x3E80 JUMPI PUSH0 DUP1 REVERT JUMPDEST PUSH2 0x23DF DUP5 DUP3 DUP6 ADD PUSH2 0x39A1 JUMP JUMPDEST PUSH0 PUSH1 0x20 DUP1 DUP4 DUP6 SUB SLT ISZERO PUSH2 0x3E9D JUMPI PUSH0 DUP1 REVERT JUMPDEST DUP3 MLOAD PUSH1 0x1 PUSH1 0x1 PUSH1 0x40 SHL SUB DUP2 GT ISZERO PUSH2 0x3EB2 JUMPI PUSH0 DUP1 REVERT JUMPDEST DUP4 ADD PUSH1 0x1F DUP2 ADD DUP6 SGT PUSH2 0x3EC2 JUMPI PUSH0 DUP1 REVERT JUMPDEST DUP1 MLOAD PUSH2 0x3ED0 PUSH2 0x2CB0 DUP3 PUSH2 0x2C6F JUMP JUMPDEST DUP2 DUP2 MSTORE PUSH1 0x60 SWAP2 DUP3 MUL DUP4 ADD DUP5 ADD SWAP2 DUP5 DUP3 ADD SWAP2 SWAP1 DUP9 DUP5 GT ISZERO PUSH2 0x3EEE JUMPI PUSH0 DUP1 REVERT JUMPDEST SWAP4 DUP6 ADD SWAP4 JUMPDEST DUP4 DUP6 LT ISZERO PUSH2 0x3F48 JUMPI DUP1 DUP6 DUP11 SUB SLT ISZERO PUSH2 0x3F09 JUMPI PUSH0 DUP1 REVERT JUMPDEST PUSH2 0x3F11 PUSH2 0x2C1D JUMP JUMPDEST DUP6 MLOAD PUSH2 0x3F1C DUP2 PUSH2 0x2B4B JUMP JUMPDEST DUP2 MSTORE DUP6 DUP8 ADD MLOAD DUP8 DUP3 ADD MSTORE PUSH1 0x40 DUP1 DUP8 ADD MLOAD PUSH2 0x3F35 DUP2 PUSH2 0x2B4B JUMP JUMPDEST SWAP1 DUP3 ADD MSTORE DUP4 MSTORE SWAP4 DUP5 ADD SWAP4 SWAP2 DUP6 ADD SWAP2 PUSH2 0x3EF3 JUMP JUMPDEST POP SWAP8 SWAP7 POP POP POP POP POP POP POP JUMP JUMPDEST PUSH0 PUSH1 0xFF DUP3 AND PUSH1 0xFF DUP2 SUB PUSH2 0x3F69 JUMPI PUSH2 0x3F69 PUSH2 0x33AA JUMP JUMPDEST PUSH1 0x1 ADD SWAP3 SWAP2 POP POP JUMP JUMPDEST PUSH0 PUSH1 0x20 DUP3 DUP5 SUB SLT ISZERO PUSH2 0x3F82 JUMPI PUSH0 DUP1 REVERT JUMPDEST POP MLOAD SWAP2 SWAP1 POP JUMP JUMPDEST PUSH0 PUSH1 0x20 DUP3 DUP5 SUB SLT ISZERO PUSH2 0x3F99 JUMPI PUSH0 DUP1 REVERT JUMPDEST DUP2 MLOAD PUSH1 0x1 PUSH1 0x1 PUSH1 0x40 SHL SUB DUP1 DUP3 GT ISZERO PUSH2 0x3FAF JUMPI PUSH0 DUP1 REVERT JUMPDEST SWAP1 DUP4 ADD SWAP1 PUSH1 0xC0 DUP3 DUP7 SUB SLT ISZERO PUSH2 0x3FC2 JUMPI PUSH0 DUP1 REVERT JUMPDEST PUSH2 0x3FCA PUSH2 0x2BB6 JUMP JUMPDEST DUP3 MLOAD DUP2 MSTORE PUSH1 0x20 DUP4 ADD MLOAD PUSH1 0x20 DUP3 ADD MSTORE PUSH1 0x40 DUP4 ADD MLOAD DUP3 DUP2 GT ISZERO PUSH2 0x3FE9 JUMPI PUSH0 DUP1 REVERT JUMPDEST PUSH2 0x3FF5 DUP8 DUP3 DUP7 ADD PUSH2 0x33EE JUMP JUMPDEST PUSH1 0x40 DUP4 ADD MSTORE POP PUSH1 0x60 DUP4 ADD MLOAD DUP3 DUP2 GT ISZERO PUSH2 0x400C JUMPI PUSH0 DUP1 REVERT JUMPDEST PUSH2 0x4018 DUP8 DUP3 DUP7 ADD PUSH2 0x3430 JUMP JUMPDEST PUSH1 0x60 DUP4 ADD MSTORE POP PUSH2 0x402A PUSH1 0x80 DUP5 ADD PUSH2 0x33DE JUMP JUMPDEST PUSH1 0x80 DUP3 ADD MSTORE PUSH2 0x403B PUSH1 0xA0 DUP5 ADD PUSH2 0x33DE JUMP JUMPDEST PUSH1 0xA0 DUP3 ADD MSTORE SWAP6 SWAP5 POP POP POP POP POP JUMP JUMPDEST PUSH0 DUP3 MLOAD PUSH2 0x405A DUP2 DUP5 PUSH1 0x20 DUP8 ADD PUSH2 0x2F72 JUMP JUMPDEST SWAP2 SWAP1 SWAP2 ADD SWAP3 SWAP2 POP POP JUMP JUMPDEST DUP1 DUP3 MUL DUP2 ISZERO DUP3 DUP3 DIV DUP5 EQ OR PUSH2 0x91A JUMPI PUSH2 0x91A PUSH2 0x33AA JUMP JUMPDEST PUSH1 0x20 DUP2 MSTORE PUSH0 PUSH2 0x917 PUSH1 0x20 DUP4 ADD DUP5 PUSH2 0x2F94 JUMP INVALID COINBASE PUSH5 0x6472657373 GASPRICE KECCAK256 PUSH13 0x6F772D6C6576656C2064656C65 PUSH8 0x6174652063616C6C KECCAK256 PUSH7 0x61696C6564A264 PUSH10 0x70667358221220A990E1 PUSH15 0xA3E8A696F46CD70DA7B910CED8303E PUSH22 0x6713E910819B24E9496FB98564736F6C634300081600 CALLER "
  },
  "abi": [
    {
      "inputs": [
        {
          "internalType": "address",
          "name": "_allo",
          "type": "address"
        },
        {
          "internalType": "string",
          "name": "_name",
          "type": "string"
        }
      ],
      "stateMutability": "nonpayable",
      "type": "constructor"
    },
    {
      "inputs": [],
      "name": "ALLOCATION_ACTIVE",
      "type": "error"
    },
    {
      "inputs": [],
      "name": "ALLOCATION_NOT_ACTIVE",
      "type": "error"
    },
    {
      "inputs": [],
      "name": "ALLOCATION_NOT_ENDED",
      "type": "error"
    },
    {
      "inputs": [],
      "name": "ALREADY_INITIALIZED",
      "type": "error"
    },
    {
      "inputs": [],
      "name": "AMOUNT_MISMATCH",
      "type": "error"
    },
    {
      "inputs": [],
      "name": "ANCHOR_ERROR",
      "type": "error"
    },
    {
      "inputs": [],
      "name": "ARRAY_MISMATCH",
      "type": "error"
    },
    {
      "inputs": [],
      "name": "INVALID",
      "type": "error"
    },
    {
      "inputs": [],
      "name": "INVALID_ADDRESS",
      "type": "error"
    },
    {
      "inputs": [],
      "name": "INVALID_FEE",
      "type": "error"
    },
    {
      "inputs": [],
      "name": "INVALID_METADATA",
      "type": "error"
    },
    {
      "inputs": [],
      "name": "INVALID_REGISTRATION",
      "type": "error"
    },
    {
      "inputs": [],
      "name": "IS_APPROVED_STRATEGY",
      "type": "error"
    },
    {
      "inputs": [],
      "name": "MISMATCH",
      "type": "error"
    },
    {
      "inputs": [],
      "name": "NONCE_NOT_AVAILABLE",
      "type": "error"
    },
    {
      "inputs": [],
      "name": "NOT_APPROVED_STRATEGY",
      "type": "error"
    },
    {
      "inputs": [],
      "name": "NOT_ENOUGH_FUNDS",
      "type": "error"
    },
    {
      "inputs": [],
      "name": "NOT_INITIALIZED",
      "type": "error"
    },
    {
      "inputs": [],
      "name": "NOT_PENDING_OWNER",
      "type": "error"
    },
    {
      "inputs": [],
      "name": "POOL_ACTIVE",
      "type": "error"
    },
    {
      "inputs": [],
      "name": "POOL_INACTIVE",
      "type": "error"
    },
    {
      "inputs": [],
      "name": "RECIPIENT_ALREADY_ACCEPTED",
      "type": "error"
    },
    {
      "inputs": [
        {
          "internalType": "address",
          "name": "recipientId",
          "type": "address"
        }
      ],
      "name": "RECIPIENT_ERROR",
      "type": "error"
    },
    {
      "inputs": [],
      "name": "RECIPIENT_NOT_ACCEPTED",
      "type": "error"
    },
    {
      "inputs": [],
      "name": "REGISTRATION_NOT_ACTIVE",
      "type": "error"
    },
    {
      "inputs": [],
      "name": "UNAUTHORIZED",
      "type": "error"
    },
    {
      "inputs": [],
      "name": "ZERO_ADDRESS",
      "type": "error"
    },
    {
      "anonymous": false,
      "inputs": [
        {
          "indexed": true,
          "internalType": "address",
          "name": "recipientId",
          "type": "address"
        },
        {
          "indexed": false,
          "internalType": "uint256",
          "name": "amount",
          "type": "uint256"
        },
        {
          "indexed": false,
          "internalType": "address",
          "name": "token",
          "type": "address"
        },
        {
          "indexed": false,
          "internalType": "address",
          "name": "sender",
          "type": "address"
        }
      ],
      "name": "Allocated",
      "type": "event"
    },
    {
      "anonymous": false,
      "inputs": [
        {
          "indexed": true,
          "internalType": "address",
          "name": "sender",
          "type": "address"
        }
      ],
      "name": "BatchAllocationSuccessful",
      "type": "event"
    },
    {
      "anonymous": false,
      "inputs": [
        {
          "indexed": true,
          "internalType": "address",
          "name": "sender",
          "type": "address"
        }
      ],
      "name": "BatchPayoutSuccessful",
      "type": "event"
    },
    {
      "anonymous": false,
      "inputs": [
        {
          "indexed": true,
          "internalType": "address",
          "name": "sender",
          "type": "address"
        },
        {
          "indexed": false,
          "internalType": "int128",
          "name": "realBalanceDelta",
          "type": "int128"
        }
      ],
      "name": "BatchSetStreamSuccessful",
      "type": "event"
    },
    {
      "anonymous": false,
      "inputs": [
        {
          "indexed": true,
          "internalType": "address",
          "name": "recipientId",
          "type": "address"
        },
        {
          "indexed": false,
          "internalType": "address",
          "name": "recipientAddress",
          "type": "address"
        },
        {
          "indexed": false,
          "internalType": "uint256",
          "name": "amount",
          "type": "uint256"
        },
        {
          "indexed": false,
          "internalType": "address",
          "name": "sender",
          "type": "address"
        }
      ],
      "name": "Distributed",
      "type": "event"
    },
    {
      "anonymous": false,
      "inputs": [
        {
          "indexed": false,
          "internalType": "bytes32",
          "name": "merkleRoot",
          "type": "bytes32"
        },
        {
          "components": [
            {
              "internalType": "uint256",
              "name": "protocol",
              "type": "uint256"
            },
            {
              "internalType": "string",
              "name": "pointer",
              "type": "string"
            }
          ],
          "indexed": false,
          "internalType": "struct Metadata",
          "name": "metadata",
          "type": "tuple"
        }
      ],
      "name": "DistributionUpdated",
      "type": "event"
    },
    {
      "anonymous": false,
      "inputs": [
        {
          "indexed": false,
          "internalType": "uint256",
          "name": "amount",
          "type": "uint256"
        },
        {
          "indexed": false,
          "internalType": "address",
          "name": "grantee",
          "type": "address"
        },
        {
          "indexed": true,
          "internalType": "address",
          "name": "token",
          "type": "address"
        },
        {
          "indexed": true,
          "internalType": "address",
          "name": "recipientId",
          "type": "address"
        }
      ],
      "name": "FundsDistributed",
      "type": "event"
    },
    {
      "anonymous": false,
      "inputs": [
        {
          "indexed": false,
          "internalType": "uint256",
          "name": "poolId",
          "type": "uint256"
        },
        {
          "indexed": false,
          "internalType": "bytes",
          "name": "data",
          "type": "bytes"
        }
      ],
      "name": "Initialized",
      "type": "event"
    },
    {
      "anonymous": false,
      "inputs": [
        {
          "indexed": false,
          "internalType": "bool",
          "name": "active",
          "type": "bool"
        }
      ],
      "name": "PoolActive",
      "type": "event"
    },
    {
      "anonymous": false,
      "inputs": [
        {
          "indexed": true,
          "internalType": "uint256",
          "name": "rowIndex",
          "type": "uint256"
        },
        {
          "indexed": false,
          "internalType": "uint256",
          "name": "fullRow",
          "type": "uint256"
        },
        {
          "indexed": false,
          "internalType": "address",
          "name": "sender",
          "type": "address"
        }
      ],
      "name": "RecipientStatusUpdated",
      "type": "event"
    },
    {
      "anonymous": false,
      "inputs": [
        {
          "indexed": true,
          "internalType": "address",
          "name": "recipientId",
          "type": "address"
        },
        {
          "indexed": false,
          "internalType": "bytes",
          "name": "data",
          "type": "bytes"
        },
        {
          "indexed": false,
          "internalType": "address",
          "name": "sender",
          "type": "address"
        }
      ],
      "name": "Registered",
      "type": "event"
    },
    {
      "anonymous": false,
      "inputs": [
        {
          "indexed": false,
          "internalType": "uint64",
          "name": "registrationStartTime",
          "type": "uint64"
        },
        {
          "indexed": false,
          "internalType": "uint64",
          "name": "registrationEndTime",
          "type": "uint64"
        },
        {
          "indexed": false,
          "internalType": "uint64",
          "name": "allocationStartTime",
          "type": "uint64"
        },
        {
          "indexed": false,
          "internalType": "uint64",
          "name": "allocationEndTime",
          "type": "uint64"
        },
        {
          "indexed": false,
          "internalType": "address",
          "name": "sender",
          "type": "address"
        }
      ],
      "name": "TimestampsUpdated",
      "type": "event"
    },
    {
      "anonymous": false,
      "inputs": [
        {
          "indexed": true,
          "internalType": "address",
          "name": "recipientId",
          "type": "address"
        },
        {
          "indexed": false,
          "internalType": "bytes",
          "name": "data",
          "type": "bytes"
        },
        {
          "indexed": false,
          "internalType": "address",
          "name": "sender",
          "type": "address"
        },
        {
          "indexed": false,
          "internalType": "uint8",
          "name": "status",
          "type": "uint8"
        }
      ],
      "name": "UpdatedRegistration",
      "type": "event"
    },
    {
      "inputs": [],
      "name": "NATIVE",
      "outputs": [
        {
          "internalType": "address",
          "name": "",
          "type": "address"
        }
      ],
      "stateMutability": "view",
      "type": "function"
    },
    {
      "inputs": [
        {
          "internalType": "bytes",
          "name": "_data",
          "type": "bytes"
        },
        {
          "internalType": "address",
          "name": "_sender",
          "type": "address"
        }
      ],
      "name": "allocate",
      "outputs": [],
      "stateMutability": "payable",
      "type": "function"
    },
    {
      "inputs": [],
      "name": "allocationEndTime",
      "outputs": [
        {
          "internalType": "uint64",
          "name": "",
          "type": "uint64"
        }
      ],
      "stateMutability": "view",
      "type": "function"
    },
    {
      "inputs": [],
      "name": "allocationStartTime",
      "outputs": [
        {
          "internalType": "uint64",
          "name": "",
          "type": "uint64"
        }
      ],
      "stateMutability": "view",
      "type": "function"
    },
    {
      "inputs": [
        {
          "internalType": "address",
          "name": "",
          "type": "address"
        }
      ],
      "name": "allowedTokens",
      "outputs": [
        {
          "internalType": "bool",
          "name": "",
          "type": "bool"
        }
      ],
      "stateMutability": "view",
      "type": "function"
    },
    {
      "inputs": [
        {
          "internalType": "uint128",
          "name": "tokensToSend_",
          "type": "uint128"
        },
        {
          "internalType": "uint32",
          "name": "duration_",
          "type": "uint32"
        }
      ],
      "name": "calculateFlowRate",
      "outputs": [
        {
          "internalType": "uint160",
          "name": "",
          "type": "uint160"
        }
      ],
      "stateMutability": "view",
      "type": "function"
    },
    {
      "inputs": [],
      "name": "caller",
      "outputs": [
        {
          "internalType": "contract Caller",
          "name": "",
          "type": "address"
        }
      ],
      "stateMutability": "view",
      "type": "function"
    },
    {
      "inputs": [
        {
          "internalType": "address[]",
          "name": "_recipientIds",
          "type": "address[]"
        },
        {
          "internalType": "bytes",
          "name": "_data",
          "type": "bytes"
        },
        {
          "internalType": "address",
          "name": "_sender",
          "type": "address"
        }
      ],
      "name": "distribute",
      "outputs": [],
      "stateMutability": "nonpayable",
      "type": "function"
    },
    {
      "inputs": [],
      "name": "distributionMetadata",
      "outputs": [
        {
          "internalType": "uint256",
          "name": "protocol",
          "type": "uint256"
        },
        {
          "internalType": "string",
          "name": "pointer",
          "type": "string"
        }
      ],
      "stateMutability": "view",
      "type": "function"
    },
    {
      "inputs": [],
      "name": "distributionStarted",
      "outputs": [
        {
          "internalType": "bool",
          "name": "",
          "type": "bool"
        }
      ],
      "stateMutability": "view",
      "type": "function"
    },
    {
      "inputs": [],
      "name": "drips",
      "outputs": [
        {
          "internalType": "contract Drips",
          "name": "",
          "type": "address"
        }
      ],
      "stateMutability": "view",
      "type": "function"
    },
    {
      "inputs": [],
      "name": "driver",
      "outputs": [
        {
          "internalType": "contract AddressDriver",
          "name": "",
          "type": "address"
        }
      ],
      "stateMutability": "view",
      "type": "function"
    },
    {
      "inputs": [],
      "name": "erc20",
      "outputs": [
        {
          "internalType": "contract IERC20",
          "name": "",
          "type": "address"
        }
      ],
      "stateMutability": "view",
      "type": "function"
    },
    {
      "inputs": [],
      "name": "getAllo",
      "outputs": [
        {
          "internalType": "contract IAllo",
          "name": "",
          "type": "address"
        }
      ],
      "stateMutability": "view",
      "type": "function"
    },
    {
      "inputs": [
        {
          "internalType": "address[]",
          "name": "_recipientIds",
          "type": "address[]"
        },
        {
          "internalType": "bytes[]",
          "name": "_data",
          "type": "bytes[]"
        }
      ],
      "name": "getPayouts",
      "outputs": [
        {
          "components": [
            {
              "internalType": "address",
              "name": "recipientAddress",
              "type": "address"
            },
            {
              "internalType": "uint256",
              "name": "amount",
              "type": "uint256"
            }
          ],
          "internalType": "struct IStrategy.PayoutSummary[]",
          "name": "",
          "type": "tuple[]"
        }
      ],
      "stateMutability": "view",
      "type": "function"
    },
    {
      "inputs": [],
      "name": "getPoolAmount",
      "outputs": [
        {
          "internalType": "uint256",
          "name": "",
          "type": "uint256"
        }
      ],
      "stateMutability": "view",
      "type": "function"
    },
    {
      "inputs": [],
      "name": "getPoolId",
      "outputs": [
        {
          "internalType": "uint256",
          "name": "",
          "type": "uint256"
        }
      ],
      "stateMutability": "view",
      "type": "function"
    },
    {
      "inputs": [
        {
          "internalType": "address",
          "name": "_recipientId",
          "type": "address"
        }
      ],
      "name": "getRecipient",
      "outputs": [
        {
          "components": [
            {
              "internalType": "bool",
              "name": "useRegistryAnchor",
              "type": "bool"
            },
            {
              "internalType": "address",
              "name": "recipientAddress",
              "type": "address"
            },
            {
              "components": [
                {
                  "internalType": "uint256",
                  "name": "protocol",
                  "type": "uint256"
                },
                {
                  "internalType": "string",
                  "name": "pointer",
                  "type": "string"
                }
              ],
              "internalType": "struct Metadata",
              "name": "metadata",
              "type": "tuple"
            }
          ],
          "internalType": "struct DonationVotingMerkleDistributionBaseStrategy.Recipient",
          "name": "recipient",
          "type": "tuple"
        }
      ],
      "stateMutability": "view",
      "type": "function"
    },
    {
      "inputs": [
        {
          "internalType": "address",
          "name": "_recipientId",
          "type": "address"
        }
      ],
      "name": "getRecipientStatus",
      "outputs": [
        {
          "internalType": "enum IStrategy.Status",
          "name": "",
          "type": "uint8"
        }
      ],
      "stateMutability": "view",
      "type": "function"
    },
    {
      "inputs": [],
      "name": "getStrategyId",
      "outputs": [
        {
          "internalType": "bytes32",
          "name": "",
          "type": "bytes32"
        }
      ],
      "stateMutability": "view",
      "type": "function"
    },
    {
      "inputs": [
        {
          "internalType": "uint256",
          "name": "_index",
          "type": "uint256"
        }
      ],
      "name": "hasBeenDistributed",
      "outputs": [
        {
          "internalType": "bool",
          "name": "",
          "type": "bool"
        }
      ],
      "stateMutability": "view",
      "type": "function"
    },
    {
      "inputs": [
        {
          "internalType": "uint256",
          "name": "_amount",
          "type": "uint256"
        }
      ],
      "name": "increasePoolAmount",
      "outputs": [],
      "stateMutability": "nonpayable",
      "type": "function"
    },
    {
      "inputs": [
        {
          "internalType": "uint256",
          "name": "_poolId",
          "type": "uint256"
        },
        {
          "internalType": "bytes",
          "name": "_data",
          "type": "bytes"
        }
      ],
      "name": "initialize",
      "outputs": [],
      "stateMutability": "nonpayable",
      "type": "function"
    },
    {
      "inputs": [],
      "name": "isDistributionSet",
      "outputs": [
        {
          "internalType": "bool",
          "name": "",
          "type": "bool"
        }
      ],
      "stateMutability": "view",
      "type": "function"
    },
    {
      "inputs": [],
      "name": "isPoolActive",
      "outputs": [
        {
          "internalType": "bool",
          "name": "",
          "type": "bool"
        }
      ],
      "stateMutability": "view",
      "type": "function"
    },
    {
      "inputs": [
        {
          "internalType": "address",
          "name": "_allocator",
          "type": "address"
        }
      ],
      "name": "isValidAllocator",
      "outputs": [
        {
          "internalType": "bool",
          "name": "",
          "type": "bool"
        }
      ],
      "stateMutability": "view",
      "type": "function"
    },
    {
      "inputs": [],
      "name": "merkleRoot",
      "outputs": [
        {
          "internalType": "bytes32",
          "name": "",
          "type": "bytes32"
        }
      ],
      "stateMutability": "view",
      "type": "function"
    },
    {
      "inputs": [],
      "name": "metadataRequired",
      "outputs": [
        {
          "internalType": "bool",
          "name": "",
          "type": "bool"
        }
      ],
      "stateMutability": "view",
      "type": "function"
    },
    {
      "inputs": [
        {
          "internalType": "bytes[]",
          "name": "data",
          "type": "bytes[]"
        }
      ],
      "name": "multicall",
      "outputs": [
        {
          "internalType": "bytes[]",
          "name": "results",
          "type": "bytes[]"
        }
      ],
      "stateMutability": "nonpayable",
      "type": "function"
    },
    {
      "inputs": [
        {
          "internalType": "address",
          "name": "",
          "type": "address"
        }
      ],
      "name": "recipientToStatusIndexes",
      "outputs": [
        {
          "internalType": "uint256",
          "name": "",
          "type": "uint256"
        }
      ],
      "stateMutability": "view",
      "type": "function"
    },
    {
      "inputs": [],
      "name": "recipientsCounter",
      "outputs": [
        {
          "internalType": "uint256",
          "name": "",
          "type": "uint256"
        }
      ],
      "stateMutability": "view",
      "type": "function"
    },
    {
      "inputs": [
        {
          "internalType": "bytes",
          "name": "_data",
          "type": "bytes"
        },
        {
          "internalType": "address",
          "name": "_sender",
          "type": "address"
        }
      ],
      "name": "registerRecipient",
      "outputs": [
        {
          "internalType": "address",
          "name": "recipientId",
          "type": "address"
        }
      ],
      "stateMutability": "payable",
      "type": "function"
    },
    {
      "inputs": [],
      "name": "registrationEndTime",
      "outputs": [
        {
          "internalType": "uint64",
          "name": "",
          "type": "uint64"
        }
      ],
      "stateMutability": "view",
      "type": "function"
    },
    {
      "inputs": [],
      "name": "registrationStartTime",
      "outputs": [
        {
          "internalType": "uint64",
          "name": "",
          "type": "uint64"
        }
      ],
      "stateMutability": "view",
      "type": "function"
    },
    {
      "inputs": [
        {
          "components": [
            {
              "internalType": "uint256",
              "name": "index",
              "type": "uint256"
            },
            {
              "internalType": "uint256",
              "name": "statusRow",
              "type": "uint256"
            }
          ],
          "internalType": "struct DonationVotingMerkleDistributionBaseStrategy.ApplicationStatus[]",
          "name": "statuses",
          "type": "tuple[]"
        }
      ],
      "name": "reviewRecipients",
      "outputs": [],
      "stateMutability": "nonpayable",
      "type": "function"
    },
    {
      "inputs": [
        {
          "internalType": "uint256",
          "name": "",
          "type": "uint256"
        }
      ],
      "name": "statusesBitMap",
      "outputs": [
        {
          "internalType": "uint256",
          "name": "",
          "type": "uint256"
        }
      ],
      "stateMutability": "view",
      "type": "function"
    },
    {
      "inputs": [],
      "name": "stream",
      "outputs": [
        {
          "internalType": "bool",
          "name": "",
          "type": "bool"
        }
      ],
      "stateMutability": "view",
      "type": "function"
    },
    {
      "inputs": [],
      "name": "totalPayoutAmount",
      "outputs": [
        {
          "internalType": "uint256",
          "name": "",
          "type": "uint256"
        }
      ],
      "stateMutability": "view",
      "type": "function"
    },
    {
      "inputs": [
        {
          "internalType": "bytes32",
          "name": "_merkleRoot",
          "type": "bytes32"
        },
        {
          "components": [
            {
              "internalType": "uint256",
              "name": "protocol",
              "type": "uint256"
            },
            {
              "internalType": "string",
              "name": "pointer",
              "type": "string"
            }
          ],
          "internalType": "struct Metadata",
          "name": "_distributionMetadata",
          "type": "tuple"
        }
      ],
      "name": "updateDistribution",
      "outputs": [],
      "stateMutability": "nonpayable",
      "type": "function"
    },
    {
      "inputs": [
        {
          "internalType": "uint64",
          "name": "_registrationStartTime",
          "type": "uint64"
        },
        {
          "internalType": "uint64",
          "name": "_registrationEndTime",
          "type": "uint64"
        },
        {
          "internalType": "uint64",
          "name": "_allocationStartTime",
          "type": "uint64"
        },
        {
          "internalType": "uint64",
          "name": "_allocationEndTime",
          "type": "uint64"
        }
      ],
      "name": "updatePoolTimestamps",
      "outputs": [],
      "stateMutability": "nonpayable",
      "type": "function"
    },
    {
      "inputs": [],
      "name": "useRegistryAnchor",
      "outputs": [
        {
          "internalType": "bool",
          "name": "",
          "type": "bool"
        }
      ],
      "stateMutability": "view",
      "type": "function"
    },
    {
      "inputs": [
        {
          "internalType": "uint256",
          "name": "_amount",
          "type": "uint256"
        }
      ],
      "name": "withdraw",
      "outputs": [],
      "stateMutability": "nonpayable",
      "type": "function"
    },
    {
      "stateMutability": "payable",
      "type": "receive"
    }
  ],
  "storageLayout": {
    "storage": [
      {
        "astId": 2012,
        "contract": "DVMDBD.sol:DonationVotingMerkleDistributionDrip",
        "label": "poolActive",
        "offset": 0,
        "slot": "0",
        "type": "t_bool"
      },
      {
        "astId": 2014,
        "contract": "DVMDBD.sol:DonationVotingMerkleDistributionDrip",
        "label": "poolId",
        "offset": 0,
        "slot": "1",
        "type": "t_uint256"
      },
      {
        "astId": 2016,
        "contract": "DVMDBD.sol:DonationVotingMerkleDistributionDrip",
        "label": "poolAmount",
        "offset": 0,
        "slot": "2",
        "type": "t_uint256"
      },
      {
        "astId": 2715,
        "contract": "DVMDBD.sol:DonationVotingMerkleDistributionDrip",
        "label": "distributionMetadata",
        "offset": 0,
        "slot": "3",
        "type": "t_struct(Metadata)915_storage"
      },
      {
        "astId": 2718,
        "contract": "DVMDBD.sol:DonationVotingMerkleDistributionDrip",
        "label": "useRegistryAnchor",
        "offset": 0,
        "slot": "5",
        "type": "t_bool"
      },
      {
        "astId": 2721,
        "contract": "DVMDBD.sol:DonationVotingMerkleDistributionDrip",
        "label": "metadataRequired",
        "offset": 1,
        "slot": "5",
        "type": "t_bool"
      },
      {
        "astId": 2724,
        "contract": "DVMDBD.sol:DonationVotingMerkleDistributionDrip",
        "label": "distributionStarted",
        "offset": 2,
        "slot": "5",
        "type": "t_bool"
      },
      {
        "astId": 2727,
        "contract": "DVMDBD.sol:DonationVotingMerkleDistributionDrip",
        "label": "registrationStartTime",
        "offset": 3,
        "slot": "5",
        "type": "t_uint64"
      },
      {
        "astId": 2729,
        "contract": "DVMDBD.sol:DonationVotingMerkleDistributionDrip",
        "label": "registrationEndTime",
        "offset": 11,
        "slot": "5",
        "type": "t_uint64"
      },
      {
        "astId": 2731,
        "contract": "DVMDBD.sol:DonationVotingMerkleDistributionDrip",
        "label": "allocationStartTime",
        "offset": 19,
        "slot": "5",
        "type": "t_uint64"
      },
      {
        "astId": 2733,
        "contract": "DVMDBD.sol:DonationVotingMerkleDistributionDrip",
        "label": "allocationEndTime",
        "offset": 0,
        "slot": "6",
        "type": "t_uint64"
      },
      {
        "astId": 2736,
        "contract": "DVMDBD.sol:DonationVotingMerkleDistributionDrip",
        "label": "totalPayoutAmount",
        "offset": 0,
        "slot": "7",
        "type": "t_uint256"
      },
      {
        "astId": 2739,
        "contract": "DVMDBD.sol:DonationVotingMerkleDistributionDrip",
        "label": "recipientsCounter",
        "offset": 0,
        "slot": "8",
        "type": "t_uint256"
      },
      {
        "astId": 2743,
        "contract": "DVMDBD.sol:DonationVotingMerkleDistributionDrip",
        "label": "_registry",
        "offset": 0,
        "slot": "9",
        "type": "t_contract(IRegistry)1104"
      },
      {
        "astId": 2746,
        "contract": "DVMDBD.sol:DonationVotingMerkleDistributionDrip",
        "label": "merkleRoot",
        "offset": 0,
        "slot": "10",
        "type": "t_bytes32"
      },
      {
        "astId": 2751,
        "contract": "DVMDBD.sol:DonationVotingMerkleDistributionDrip",
        "label": "statusesBitMap",
        "offset": 0,
        "slot": "11",
        "type": "t_mapping(t_uint256,t_uint256)"
      },
      {
        "astId": 2756,
        "contract": "DVMDBD.sol:DonationVotingMerkleDistributionDrip",
        "label": "recipientToStatusIndexes",
        "offset": 0,
        "slot": "12",
        "type": "t_mapping(t_address,t_uint256)"
      },
      {
        "astId": 2761,
        "contract": "DVMDBD.sol:DonationVotingMerkleDistributionDrip",
        "label": "_distributedBitMap",
        "offset": 0,
        "slot": "13",
        "type": "t_mapping(t_uint256,t_uint256)"
      },
      {
        "astId": 2766,
        "contract": "DVMDBD.sol:DonationVotingMerkleDistributionDrip",
        "label": "allowedTokens",
        "offset": 0,
        "slot": "14",
        "type": "t_mapping(t_address,t_bool)"
      },
      {
        "astId": 2772,
        "contract": "DVMDBD.sol:DonationVotingMerkleDistributionDrip",
        "label": "_recipients",
        "offset": 0,
        "slot": "15",
        "type": "t_mapping(t_address,t_struct(Recipient)2618_storage)"
      },
      {
        "astId": 5447,
        "contract": "DVMDBD.sol:DonationVotingMerkleDistributionDrip",
        "label": "erc20",
        "offset": 0,
        "slot": "16",
        "type": "t_contract(IERC20)5249"
      },
      {
        "astId": 5450,
        "contract": "DVMDBD.sol:DonationVotingMerkleDistributionDrip",
        "label": "drips",
        "offset": 0,
        "slot": "17",
        "type": "t_contract(Drips)5173"
      },
      {
        "astId": 5453,
        "contract": "DVMDBD.sol:DonationVotingMerkleDistributionDrip",
        "label": "caller",
        "offset": 0,
        "slot": "18",
        "type": "t_contract(Caller)4571"
      },
      {
        "astId": 5456,
        "contract": "DVMDBD.sol:DonationVotingMerkleDistributionDrip",
        "label": "driver",
        "offset": 0,
        "slot": "19",
        "type": "t_contract(AddressDriver)4417"
      },
      {
        "astId": 5459,
        "contract": "DVMDBD.sol:DonationVotingMerkleDistributionDrip",
        "label": "stream",
        "offset": 20,
        "slot": "19",
        "type": "t_bool"
      }
    ],
    "types": {
      "t_address": {
        "encoding": "inplace",
        "label": "address",
        "numberOfBytes": "20"
      },
      "t_bool": {
        "encoding": "inplace",
        "label": "bool",
        "numberOfBytes": "1"
      },
      "t_bytes32": {
        "encoding": "inplace",
        "label": "bytes32",
        "numberOfBytes": "32"
      },
      "t_contract(AddressDriver)4417": {
        "encoding": "inplace",
        "label": "contract AddressDriver",
        "numberOfBytes": "20"
      },
      "t_contract(Caller)4571": {
        "encoding": "inplace",
        "label": "contract Caller",
        "numberOfBytes": "20"
      },
      "t_contract(Drips)5173": {
        "encoding": "inplace",
        "label": "contract Drips",
        "numberOfBytes": "20"
      },
      "t_contract(IERC20)5249": {
        "encoding": "inplace",
        "label": "contract IERC20",
        "numberOfBytes": "20"
      },
      "t_contract(IRegistry)1104": {
        "encoding": "inplace",
        "label": "contract IRegistry",
        "numberOfBytes": "20"
      },
      "t_mapping(t_address,t_bool)": {
        "encoding": "mapping",
        "key": "t_address",
        "label": "mapping(address => bool)",
        "numberOfBytes": "32",
        "value": "t_bool"
      },
      "t_mapping(t_address,t_struct(Recipient)2618_storage)": {
        "encoding": "mapping",
        "key": "t_address",
        "label": "mapping(address => struct DonationVotingMerkleDistributionBaseStrategy.Recipient)",
        "numberOfBytes": "32",
        "value": "t_struct(Recipient)2618_storage"
      },
      "t_mapping(t_address,t_uint256)": {
        "encoding": "mapping",
        "key": "t_address",
        "label": "mapping(address => uint256)",
        "numberOfBytes": "32",
        "value": "t_uint256"
      },
      "t_mapping(t_uint256,t_uint256)": {
        "encoding": "mapping",
        "key": "t_uint256",
        "label": "mapping(uint256 => uint256)",
        "numberOfBytes": "32",
        "value": "t_uint256"
      },
      "t_string_storage": {
        "encoding": "bytes",
        "label": "string",
        "numberOfBytes": "32"
      },
      "t_struct(Metadata)915_storage": {
        "encoding": "inplace",
        "label": "struct Metadata",
        "members": [
          {
            "astId": 911,
            "contract": "DVMDBD.sol:DonationVotingMerkleDistributionDrip",
            "label": "protocol",
            "offset": 0,
            "slot": "0",
            "type": "t_uint256"
          },
          {
            "astId": 914,
            "contract": "DVMDBD.sol:DonationVotingMerkleDistributionDrip",
            "label": "pointer",
            "offset": 0,
            "slot": "1",
            "type": "t_string_storage"
          }
        ],
        "numberOfBytes": "64"
      },
      "t_struct(Recipient)2618_storage": {
        "encoding": "inplace",
        "label": "struct DonationVotingMerkleDistributionBaseStrategy.Recipient",
        "members": [
          {
            "astId": 2612,
            "contract": "DVMDBD.sol:DonationVotingMerkleDistributionDrip",
            "label": "useRegistryAnchor",
            "offset": 0,
            "slot": "0",
            "type": "t_bool"
          },
          {
            "astId": 2614,
            "contract": "DVMDBD.sol:DonationVotingMerkleDistributionDrip",
            "label": "recipientAddress",
            "offset": 1,
            "slot": "0",
            "type": "t_address"
          },
          {
            "astId": 2617,
            "contract": "DVMDBD.sol:DonationVotingMerkleDistributionDrip",
            "label": "metadata",
            "offset": 0,
            "slot": "1",
            "type": "t_struct(Metadata)915_storage"
          }
        ],
        "numberOfBytes": "96"
      },
      "t_uint256": {
        "encoding": "inplace",
        "label": "uint256",
        "numberOfBytes": "32"
      },
      "t_uint64": {
        "encoding": "inplace",
        "label": "uint64",
        "numberOfBytes": "8"
      }
    }
  },
  "web3Deploy": "var _allo = /* var of type address here */ ;\nvar _name = /* var of type string here */ ;\nvar donationvotingmerkledistributiondripContract = new web3.eth.Contract([{\"inputs\":[{\"internalType\":\"address\",\"name\":\"_allo\",\"type\":\"address\"},{\"internalType\":\"string\",\"name\":\"_name\",\"type\":\"string\"}],\"stateMutability\":\"nonpayable\",\"type\":\"constructor\"},{\"inputs\":[],\"name\":\"ALLOCATION_ACTIVE\",\"type\":\"error\"},{\"inputs\":[],\"name\":\"ALLOCATION_NOT_ACTIVE\",\"type\":\"error\"},{\"inputs\":[],\"name\":\"ALLOCATION_NOT_ENDED\",\"type\":\"error\"},{\"inputs\":[],\"name\":\"ALREADY_INITIALIZED\",\"type\":\"error\"},{\"inputs\":[],\"name\":\"AMOUNT_MISMATCH\",\"type\":\"error\"},{\"inputs\":[],\"name\":\"ANCHOR_ERROR\",\"type\":\"error\"},{\"inputs\":[],\"name\":\"ARRAY_MISMATCH\",\"type\":\"error\"},{\"inputs\":[],\"name\":\"INVALID\",\"type\":\"error\"},{\"inputs\":[],\"name\":\"INVALID_ADDRESS\",\"type\":\"error\"},{\"inputs\":[],\"name\":\"INVALID_FEE\",\"type\":\"error\"},{\"inputs\":[],\"name\":\"INVALID_METADATA\",\"type\":\"error\"},{\"inputs\":[],\"name\":\"INVALID_REGISTRATION\",\"type\":\"error\"},{\"inputs\":[],\"name\":\"IS_APPROVED_STRATEGY\",\"type\":\"error\"},{\"inputs\":[],\"name\":\"MISMATCH\",\"type\":\"error\"},{\"inputs\":[],\"name\":\"NONCE_NOT_AVAILABLE\",\"type\":\"error\"},{\"inputs\":[],\"name\":\"NOT_APPROVED_STRATEGY\",\"type\":\"error\"},{\"inputs\":[],\"name\":\"NOT_ENOUGH_FUNDS\",\"type\":\"error\"},{\"inputs\":[],\"name\":\"NOT_INITIALIZED\",\"type\":\"error\"},{\"inputs\":[],\"name\":\"NOT_PENDING_OWNER\",\"type\":\"error\"},{\"inputs\":[],\"name\":\"POOL_ACTIVE\",\"type\":\"error\"},{\"inputs\":[],\"name\":\"POOL_INACTIVE\",\"type\":\"error\"},{\"inputs\":[],\"name\":\"RECIPIENT_ALREADY_ACCEPTED\",\"type\":\"error\"},{\"inputs\":[{\"internalType\":\"address\",\"name\":\"recipientId\",\"type\":\"address\"}],\"name\":\"RECIPIENT_ERROR\",\"type\":\"error\"},{\"inputs\":[],\"name\":\"RECIPIENT_NOT_ACCEPTED\",\"type\":\"error\"},{\"inputs\":[],\"name\":\"REGISTRATION_NOT_ACTIVE\",\"type\":\"error\"},{\"inputs\":[],\"name\":\"UNAUTHORIZED\",\"type\":\"error\"},{\"inputs\":[],\"name\":\"ZERO_ADDRESS\",\"type\":\"error\"},{\"anonymous\":false,\"inputs\":[{\"indexed\":true,\"internalType\":\"address\",\"name\":\"recipientId\",\"type\":\"address\"},{\"indexed\":false,\"internalType\":\"uint256\",\"name\":\"amount\",\"type\":\"uint256\"},{\"indexed\":false,\"internalType\":\"address\",\"name\":\"token\",\"type\":\"address\"},{\"indexed\":false,\"internalType\":\"address\",\"name\":\"sender\",\"type\":\"address\"}],\"name\":\"Allocated\",\"type\":\"event\"},{\"anonymous\":false,\"inputs\":[{\"indexed\":true,\"internalType\":\"address\",\"name\":\"sender\",\"type\":\"address\"}],\"name\":\"BatchAllocationSuccessful\",\"type\":\"event\"},{\"anonymous\":false,\"inputs\":[{\"indexed\":true,\"internalType\":\"address\",\"name\":\"sender\",\"type\":\"address\"}],\"name\":\"BatchPayoutSuccessful\",\"type\":\"event\"},{\"anonymous\":false,\"inputs\":[{\"indexed\":true,\"internalType\":\"address\",\"name\":\"sender\",\"type\":\"address\"},{\"indexed\":false,\"internalType\":\"int128\",\"name\":\"realBalanceDelta\",\"type\":\"int128\"}],\"name\":\"BatchSetStreamSuccessful\",\"type\":\"event\"},{\"anonymous\":false,\"inputs\":[{\"indexed\":true,\"internalType\":\"address\",\"name\":\"recipientId\",\"type\":\"address\"},{\"indexed\":false,\"internalType\":\"address\",\"name\":\"recipientAddress\",\"type\":\"address\"},{\"indexed\":false,\"internalType\":\"uint256\",\"name\":\"amount\",\"type\":\"uint256\"},{\"indexed\":false,\"internalType\":\"address\",\"name\":\"sender\",\"type\":\"address\"}],\"name\":\"Distributed\",\"type\":\"event\"},{\"anonymous\":false,\"inputs\":[{\"indexed\":false,\"internalType\":\"bytes32\",\"name\":\"merkleRoot\",\"type\":\"bytes32\"},{\"components\":[{\"internalType\":\"uint256\",\"name\":\"protocol\",\"type\":\"uint256\"},{\"internalType\":\"string\",\"name\":\"pointer\",\"type\":\"string\"}],\"indexed\":false,\"internalType\":\"struct Metadata\",\"name\":\"metadata\",\"type\":\"tuple\"}],\"name\":\"DistributionUpdated\",\"type\":\"event\"},{\"anonymous\":false,\"inputs\":[{\"indexed\":false,\"internalType\":\"uint256\",\"name\":\"amount\",\"type\":\"uint256\"},{\"indexed\":false,\"internalType\":\"address\",\"name\":\"grantee\",\"type\":\"address\"},{\"indexed\":true,\"internalType\":\"address\",\"name\":\"token\",\"type\":\"address\"},{\"indexed\":true,\"internalType\":\"address\",\"name\":\"recipientId\",\"type\":\"address\"}],\"name\":\"FundsDistributed\",\"type\":\"event\"},{\"anonymous\":false,\"inputs\":[{\"indexed\":false,\"internalType\":\"uint256\",\"name\":\"poolId\",\"type\":\"uint256\"},{\"indexed\":false,\"internalType\":\"bytes\",\"name\":\"data\",\"type\":\"bytes\"}],\"name\":\"Initialized\",\"type\":\"event\"},{\"anonymous\":false,\"inputs\":[{\"indexed\":false,\"internalType\":\"bool\",\"name\":\"active\",\"type\":\"bool\"}],\"name\":\"PoolActive\",\"type\":\"event\"},{\"anonymous\":false,\"inputs\":[{\"indexed\":true,\"internalType\":\"uint256\",\"name\":\"rowIndex\",\"type\":\"uint256\"},{\"indexed\":false,\"internalType\":\"uint256\",\"name\":\"fullRow\",\"type\":\"uint256\"},{\"indexed\":false,\"internalType\":\"address\",\"name\":\"sender\",\"type\":\"address\"}],\"name\":\"RecipientStatusUpdated\",\"type\":\"event\"},{\"anonymous\":false,\"inputs\":[{\"indexed\":true,\"internalType\":\"address\",\"name\":\"recipientId\",\"type\":\"address\"},{\"indexed\":false,\"internalType\":\"bytes\",\"name\":\"data\",\"type\":\"bytes\"},{\"indexed\":false,\"internalType\":\"address\",\"name\":\"sender\",\"type\":\"address\"}],\"name\":\"Registered\",\"type\":\"event\"},{\"anonymous\":false,\"inputs\":[{\"indexed\":false,\"internalType\":\"uint64\",\"name\":\"registrationStartTime\",\"type\":\"uint64\"},{\"indexed\":false,\"internalType\":\"uint64\",\"name\":\"registrationEndTime\",\"type\":\"uint64\"},{\"indexed\":false,\"internalType\":\"uint64\",\"name\":\"allocationStartTime\",\"type\":\"uint64\"},{\"indexed\":false,\"internalType\":\"uint64\",\"name\":\"allocationEndTime\",\"type\":\"uint64\"},{\"indexed\":false,\"internalType\":\"address\",\"name\":\"sender\",\"type\":\"address\"}],\"name\":\"TimestampsUpdated\",\"type\":\"event\"},{\"anonymous\":false,\"inputs\":[{\"indexed\":true,\"internalType\":\"address\",\"name\":\"recipientId\",\"type\":\"address\"},{\"indexed\":false,\"internalType\":\"bytes\",\"name\":\"data\",\"type\":\"bytes\"},{\"indexed\":false,\"internalType\":\"address\",\"name\":\"sender\",\"type\":\"address\"},{\"indexed\":false,\"internalType\":\"uint8\",\"name\":\"status\",\"type\":\"uint8\"}],\"name\":\"UpdatedRegistration\",\"type\":\"event\"},{\"inputs\":[],\"name\":\"NATIVE\",\"outputs\":[{\"internalType\":\"address\",\"name\":\"\",\"type\":\"address\"}],\"stateMutability\":\"view\",\"type\":\"function\"},{\"inputs\":[{\"internalType\":\"bytes\",\"name\":\"_data\",\"type\":\"bytes\"},{\"internalType\":\"address\",\"name\":\"_sender\",\"type\":\"address\"}],\"name\":\"allocate\",\"outputs\":[],\"stateMutability\":\"payable\",\"type\":\"function\"},{\"inputs\":[],\"name\":\"allocationEndTime\",\"outputs\":[{\"internalType\":\"uint64\",\"name\":\"\",\"type\":\"uint64\"}],\"stateMutability\":\"view\",\"type\":\"function\"},{\"inputs\":[],\"name\":\"allocationStartTime\",\"outputs\":[{\"internalType\":\"uint64\",\"name\":\"\",\"type\":\"uint64\"}],\"stateMutability\":\"view\",\"type\":\"function\"},{\"inputs\":[{\"internalType\":\"address\",\"name\":\"\",\"type\":\"address\"}],\"name\":\"allowedTokens\",\"outputs\":[{\"internalType\":\"bool\",\"name\":\"\",\"type\":\"bool\"}],\"stateMutability\":\"view\",\"type\":\"function\"},{\"inputs\":[{\"internalType\":\"uint128\",\"name\":\"tokensToSend_\",\"type\":\"uint128\"},{\"internalType\":\"uint32\",\"name\":\"duration_\",\"type\":\"uint32\"}],\"name\":\"calculateFlowRate\",\"outputs\":[{\"internalType\":\"uint160\",\"name\":\"\",\"type\":\"uint160\"}],\"stateMutability\":\"view\",\"type\":\"function\"},{\"inputs\":[],\"name\":\"caller\",\"outputs\":[{\"internalType\":\"contract Caller\",\"name\":\"\",\"type\":\"address\"}],\"stateMutability\":\"view\",\"type\":\"function\"},{\"inputs\":[{\"internalType\":\"address[]\",\"name\":\"_recipientIds\",\"type\":\"address[]\"},{\"internalType\":\"bytes\",\"name\":\"_data\",\"type\":\"bytes\"},{\"internalType\":\"address\",\"name\":\"_sender\",\"type\":\"address\"}],\"name\":\"distribute\",\"outputs\":[],\"stateMutability\":\"nonpayable\",\"type\":\"function\"},{\"inputs\":[],\"name\":\"distributionMetadata\",\"outputs\":[{\"internalType\":\"uint256\",\"name\":\"protocol\",\"type\":\"uint256\"},{\"internalType\":\"string\",\"name\":\"pointer\",\"type\":\"string\"}],\"stateMutability\":\"view\",\"type\":\"function\"},{\"inputs\":[],\"name\":\"distributionStarted\",\"outputs\":[{\"internalType\":\"bool\",\"name\":\"\",\"type\":\"bool\"}],\"stateMutability\":\"view\",\"type\":\"function\"},{\"inputs\":[],\"name\":\"drips\",\"outputs\":[{\"internalType\":\"contract Drips\",\"name\":\"\",\"type\":\"address\"}],\"stateMutability\":\"view\",\"type\":\"function\"},{\"inputs\":[],\"name\":\"driver\",\"outputs\":[{\"internalType\":\"contract AddressDriver\",\"name\":\"\",\"type\":\"address\"}],\"stateMutability\":\"view\",\"type\":\"function\"},{\"inputs\":[],\"name\":\"erc20\",\"outputs\":[{\"internalType\":\"contract IERC20\",\"name\":\"\",\"type\":\"address\"}],\"stateMutability\":\"view\",\"type\":\"function\"},{\"inputs\":[],\"name\":\"getAllo\",\"outputs\":[{\"internalType\":\"contract IAllo\",\"name\":\"\",\"type\":\"address\"}],\"stateMutability\":\"view\",\"type\":\"function\"},{\"inputs\":[{\"internalType\":\"address[]\",\"name\":\"_recipientIds\",\"type\":\"address[]\"},{\"internalType\":\"bytes[]\",\"name\":\"_data\",\"type\":\"bytes[]\"}],\"name\":\"getPayouts\",\"outputs\":[{\"components\":[{\"internalType\":\"address\",\"name\":\"recipientAddress\",\"type\":\"address\"},{\"internalType\":\"uint256\",\"name\":\"amount\",\"type\":\"uint256\"}],\"internalType\":\"struct IStrategy.PayoutSummary[]\",\"name\":\"\",\"type\":\"tuple[]\"}],\"stateMutability\":\"view\",\"type\":\"function\"},{\"inputs\":[],\"name\":\"getPoolAmount\",\"outputs\":[{\"internalType\":\"uint256\",\"name\":\"\",\"type\":\"uint256\"}],\"stateMutability\":\"view\",\"type\":\"function\"},{\"inputs\":[],\"name\":\"getPoolId\",\"outputs\":[{\"internalType\":\"uint256\",\"name\":\"\",\"type\":\"uint256\"}],\"stateMutability\":\"view\",\"type\":\"function\"},{\"inputs\":[{\"internalType\":\"address\",\"name\":\"_recipientId\",\"type\":\"address\"}],\"name\":\"getRecipient\",\"outputs\":[{\"components\":[{\"internalType\":\"bool\",\"name\":\"useRegistryAnchor\",\"type\":\"bool\"},{\"internalType\":\"address\",\"name\":\"recipientAddress\",\"type\":\"address\"},{\"components\":[{\"internalType\":\"uint256\",\"name\":\"protocol\",\"type\":\"uint256\"},{\"internalType\":\"string\",\"name\":\"pointer\",\"type\":\"string\"}],\"internalType\":\"struct Metadata\",\"name\":\"metadata\",\"type\":\"tuple\"}],\"internalType\":\"struct DonationVotingMerkleDistributionBaseStrategy.Recipient\",\"name\":\"recipient\",\"type\":\"tuple\"}],\"stateMutability\":\"view\",\"type\":\"function\"},{\"inputs\":[{\"internalType\":\"address\",\"name\":\"_recipientId\",\"type\":\"address\"}],\"name\":\"getRecipientStatus\",\"outputs\":[{\"internalType\":\"enum IStrategy.Status\",\"name\":\"\",\"type\":\"uint8\"}],\"stateMutability\":\"view\",\"type\":\"function\"},{\"inputs\":[],\"name\":\"getStrategyId\",\"outputs\":[{\"internalType\":\"bytes32\",\"name\":\"\",\"type\":\"bytes32\"}],\"stateMutability\":\"view\",\"type\":\"function\"},{\"inputs\":[{\"internalType\":\"uint256\",\"name\":\"_index\",\"type\":\"uint256\"}],\"name\":\"hasBeenDistributed\",\"outputs\":[{\"internalType\":\"bool\",\"name\":\"\",\"type\":\"bool\"}],\"stateMutability\":\"view\",\"type\":\"function\"},{\"inputs\":[{\"internalType\":\"uint256\",\"name\":\"_amount\",\"type\":\"uint256\"}],\"name\":\"increasePoolAmount\",\"outputs\":[],\"stateMutability\":\"nonpayable\",\"type\":\"function\"},{\"inputs\":[{\"internalType\":\"uint256\",\"name\":\"_poolId\",\"type\":\"uint256\"},{\"internalType\":\"bytes\",\"name\":\"_data\",\"type\":\"bytes\"}],\"name\":\"initialize\",\"outputs\":[],\"stateMutability\":\"nonpayable\",\"type\":\"function\"},{\"inputs\":[],\"name\":\"isDistributionSet\",\"outputs\":[{\"internalType\":\"bool\",\"name\":\"\",\"type\":\"bool\"}],\"stateMutability\":\"view\",\"type\":\"function\"},{\"inputs\":[],\"name\":\"isPoolActive\",\"outputs\":[{\"internalType\":\"bool\",\"name\":\"\",\"type\":\"bool\"}],\"stateMutability\":\"view\",\"type\":\"function\"},{\"inputs\":[{\"internalType\":\"address\",\"name\":\"_allocator\",\"type\":\"address\"}],\"name\":\"isValidAllocator\",\"outputs\":[{\"internalType\":\"bool\",\"name\":\"\",\"type\":\"bool\"}],\"stateMutability\":\"view\",\"type\":\"function\"},{\"inputs\":[],\"name\":\"merkleRoot\",\"outputs\":[{\"internalType\":\"bytes32\",\"name\":\"\",\"type\":\"bytes32\"}],\"stateMutability\":\"view\",\"type\":\"function\"},{\"inputs\":[],\"name\":\"metadataRequired\",\"outputs\":[{\"internalType\":\"bool\",\"name\":\"\",\"type\":\"bool\"}],\"stateMutability\":\"view\",\"type\":\"function\"},{\"inputs\":[{\"internalType\":\"bytes[]\",\"name\":\"data\",\"type\":\"bytes[]\"}],\"name\":\"multicall\",\"outputs\":[{\"internalType\":\"bytes[]\",\"name\":\"results\",\"type\":\"bytes[]\"}],\"stateMutability\":\"nonpayable\",\"type\":\"function\"},{\"inputs\":[{\"internalType\":\"address\",\"name\":\"\",\"type\":\"address\"}],\"name\":\"recipientToStatusIndexes\",\"outputs\":[{\"internalType\":\"uint256\",\"name\":\"\",\"type\":\"uint256\"}],\"stateMutability\":\"view\",\"type\":\"function\"},{\"inputs\":[],\"name\":\"recipientsCounter\",\"outputs\":[{\"internalType\":\"uint256\",\"name\":\"\",\"type\":\"uint256\"}],\"stateMutability\":\"view\",\"type\":\"function\"},{\"inputs\":[{\"internalType\":\"bytes\",\"name\":\"_data\",\"type\":\"bytes\"},{\"internalType\":\"address\",\"name\":\"_sender\",\"type\":\"address\"}],\"name\":\"registerRecipient\",\"outputs\":[{\"internalType\":\"address\",\"name\":\"recipientId\",\"type\":\"address\"}],\"stateMutability\":\"payable\",\"type\":\"function\"},{\"inputs\":[],\"name\":\"registrationEndTime\",\"outputs\":[{\"internalType\":\"uint64\",\"name\":\"\",\"type\":\"uint64\"}],\"stateMutability\":\"view\",\"type\":\"function\"},{\"inputs\":[],\"name\":\"registrationStartTime\",\"outputs\":[{\"internalType\":\"uint64\",\"name\":\"\",\"type\":\"uint64\"}],\"stateMutability\":\"view\",\"type\":\"function\"},{\"inputs\":[{\"components\":[{\"internalType\":\"uint256\",\"name\":\"index\",\"type\":\"uint256\"},{\"internalType\":\"uint256\",\"name\":\"statusRow\",\"type\":\"uint256\"}],\"internalType\":\"struct DonationVotingMerkleDistributionBaseStrategy.ApplicationStatus[]\",\"name\":\"statuses\",\"type\":\"tuple[]\"}],\"name\":\"reviewRecipients\",\"outputs\":[],\"stateMutability\":\"nonpayable\",\"type\":\"function\"},{\"inputs\":[{\"internalType\":\"uint256\",\"name\":\"\",\"type\":\"uint256\"}],\"name\":\"statusesBitMap\",\"outputs\":[{\"internalType\":\"uint256\",\"name\":\"\",\"type\":\"uint256\"}],\"stateMutability\":\"view\",\"type\":\"function\"},{\"inputs\":[],\"name\":\"stream\",\"outputs\":[{\"internalType\":\"bool\",\"name\":\"\",\"type\":\"bool\"}],\"stateMutability\":\"view\",\"type\":\"function\"},{\"inputs\":[],\"name\":\"totalPayoutAmount\",\"outputs\":[{\"internalType\":\"uint256\",\"name\":\"\",\"type\":\"uint256\"}],\"stateMutability\":\"view\",\"type\":\"function\"},{\"inputs\":[{\"internalType\":\"bytes32\",\"name\":\"_merkleRoot\",\"type\":\"bytes32\"},{\"components\":[{\"internalType\":\"uint256\",\"name\":\"protocol\",\"type\":\"uint256\"},{\"internalType\":\"string\",\"name\":\"pointer\",\"type\":\"string\"}],\"internalType\":\"struct Metadata\",\"name\":\"_distributionMetadata\",\"type\":\"tuple\"}],\"name\":\"updateDistribution\",\"outputs\":[],\"stateMutability\":\"nonpayable\",\"type\":\"function\"},{\"inputs\":[{\"internalType\":\"uint64\",\"name\":\"_registrationStartTime\",\"type\":\"uint64\"},{\"internalType\":\"uint64\",\"name\":\"_registrationEndTime\",\"type\":\"uint64\"},{\"internalType\":\"uint64\",\"name\":\"_allocationStartTime\",\"type\":\"uint64\"},{\"internalType\":\"uint64\",\"name\":\"_allocationEndTime\",\"type\":\"uint64\"}],\"name\":\"updatePoolTimestamps\",\"outputs\":[],\"stateMutability\":\"nonpayable\",\"type\":\"function\"},{\"inputs\":[],\"name\":\"useRegistryAnchor\",\"outputs\":[{\"internalType\":\"bool\",\"name\":\"\",\"type\":\"bool\"}],\"stateMutability\":\"view\",\"type\":\"function\"},{\"inputs\":[{\"internalType\":\"uint256\",\"name\":\"_amount\",\"type\":\"uint256\"}],\"name\":\"withdraw\",\"outputs\":[],\"stateMutability\":\"nonpayable\",\"type\":\"function\"},{\"stateMutability\":\"payable\",\"type\":\"receive\"}]);\nvar donationvotingmerkledistributiondrip = donationvotingmerkledistributiondripContract.deploy({\n     data: '0x60c060405234801562000010575f80fd5b50604051620042fa380380620042fa8339810160408190526200003391620000bb565b6001600160a01b03821660805260405182908290829082906200005b90829060200162000190565b60408051601f19818403018152919052805160209091012060a05250620001c4945050505050565b634e487b7160e01b5f52604160045260245ffd5b5f5b83811015620000b357818101518382015260200162000099565b50505f910152565b5f8060408385031215620000cd575f80fd5b82516001600160a01b0381168114620000e4575f80fd5b60208401519092506001600160401b038082111562000101575f80fd5b818501915085601f83011262000115575f80fd5b8151818111156200012a576200012a62000083565b604051601f8201601f19908116603f0116810190838211818310171562000155576200015562000083565b816040528281528860208487010111156200016e575f80fd5b6200018183602083016020880162000097565b80955050505050509250929050565b602081525f8251806020840152620001b081604085016020870162000097565b601f01601f19169190910160400192915050565b60805160a0516140ea620002105f395f6103c901525f81816102c40152818161098701528181611040015281816112a101528181611a2801528181611c4601526121f601526140ea5ff3fe60806040526004361061024c575f3560e01c806373af345311610134578063d864089f116100b3578063eb11af9311610078578063eb11af9314610732578063edd146cc1461075e578063ef2920fc1461077d578063f5b0dfb714610790578063f6f25891146107af578063fc9c8d39146107da575f80fd5b8063d864089f14610696578063df868ed3146106b5578063dff7d2c7146106c9578063e744092e146106ef578063e7efcfc21461071d575f80fd5b8063a0cf0aea116100f9578063a0cf0aea146105d3578063ac9650d8146105fa578063b2b878d014610626578063cb0e85a614610652578063d2e17f5914610670575f80fd5b806373af34531461053b578063785e9e861461055a5780637c435d291461057957806395355b3b146105985780639af5c09d146105ad575f80fd5b806342fda9c7116101cb5780635708973911610190578063570897391461047657806359a3977b1461048f5780635f1b55f3146104b157806362812a39146104d05780636ecc5d62146104fc5780636f2a67911461051b575f80fd5b806342fda9c7146103bb5780634533d678146103ed578063465831cd146104245780634ab4ba42146104435780634d31d08714610457575f80fd5b80632bbe0cae116102115780632bbe0cae1461034a5780632d52eff21461035d5780632e1a7d4d146103735780632eb4a7ab1461039257806338fff2d0146103a7575f80fd5b806301fc1c64146102575780630a6f0ee91461029557806315cc481e146102b65780632143e92f146102fc578063217550881461031b575f80fd5b3661025357005b5f80fd5b348015610262575f80fd5b50610282610271366004612b5f565b600c6020525f908152604090205481565b6040519081526020015b60405180910390f35b3480156102a0575f80fd5b506102b46102af366004612d80565b6107f9565b005b3480156102c1575f80fd5b507f00000000000000000000000000000000000000000000000000000000000000005b6040516001600160a01b03909116815260200161028c565b348015610307575f80fd5b506102b4610316366004612e06565b610819565b348015610326575f80fd5b5060055461033a9062010000900460ff1681565b604051901515815260200161028c565b6102e4610358366004612e5f565b6108fc565b348015610368575f80fd5b50600a54151561033a565b34801561037e575f80fd5b506102b461038d366004612ead565b610920565b34801561039d575f80fd5b50610282600a5481565b3480156103b2575f80fd5b50600154610282565b3480156103c6575f80fd5b507f0000000000000000000000000000000000000000000000000000000000000000610282565b3480156103f8575f80fd5b5060065461040c906001600160401b031681565b6040516001600160401b03909116815260200161028c565b34801561042f575f80fd5b506102b461043e366004612ec4565b610a4a565b34801561044e575f80fd5b50600254610282565b348015610462575f80fd5b5061033a610471366004612b5f565b610b01565b348015610481575f80fd5b5060055461033a9060ff1681565b34801561049a575f80fd5b506104a3610b09565b60405161028c929190612fbf565b3480156104bc575f80fd5b5061033a6104cb366004612ead565b610b9e565b3480156104db575f80fd5b506104ef6104ea366004612b5f565b610ba8565b60405161028c9190612fd7565b348015610507575f80fd5b506013546102e4906001600160a01b031681565b348015610526575f80fd5b5060135461033a90600160a01b900460ff1681565b348015610546575f80fd5b506102b4610555366004613024565b610bb9565b348015610565575f80fd5b506010546102e4906001600160a01b031681565b348015610584575f80fd5b506011546102e4906001600160a01b031681565b3480156105a3575f80fd5b5061028260085481565b3480156105b8575f80fd5b5060055461040c90630100000090046001600160401b031681565b3480156105de575f80fd5b506102e473eeeeeeeeeeeeeeeeeeeeeeeeeeeeeeeeeeeeeeee81565b348015610605575f80fd5b506106196106143660046130b7565b610c5b565b60405161028c9190613125565b348015610631575f80fd5b50610645610640366004613187565b610d42565b60405161028c9190613253565b34801561065d575f80fd5b5060055461033a90610100900460ff1681565b34801561067b575f80fd5b5060055461040c90600160981b90046001600160401b031681565b3480156106a1575f80fd5b506102e46106b03660046132bb565b610e3d565b3480156106c0575f80fd5b5061033a610f72565b3480156106d4575f80fd5b5060055461040c90600160581b90046001600160401b031681565b3480156106fa575f80fd5b5061033a610709366004612b5f565b600e6020525f908152604090205460ff1681565b348015610728575f80fd5b5061028260075481565b34801561073d575f80fd5b5061075161074c366004612b5f565b610f80565b60405161028c9190613306565b348015610769575f80fd5b506102b461077836600461332c565b610f8a565b6102b461078b366004612e5f565b610fee565b34801561079b575f80fd5b506102b46107aa366004612ead565b61100c565b3480156107ba575f80fd5b506102826107c9366004612ead565b600b6020525f908152604090205481565b3480156107e5575f80fd5b506012546102e4906001600160a01b031681565b610801611035565b610809611080565b6108148383836110a2565b505050565b3361082381611277565b61082f85858585611327565b600580546301000000600160981b03191663010000006001600160401b03888116820267ffffffffffffffff60581b191692909217600160581b88841681029190911767ffffffffffffffff60981b1916600160981b888516810291909117948590556006805467ffffffffffffffff19168886169081179091556040517fcb0fb7a7b87db2f472ee8977444cfdbc51993ce660aca27a5969a724fae6dcf3966108ed9695810486169594810485169493900490921691339061336f565b60405180910390a15050505050565b5f610905611035565b61090d611080565b61091783836113c1565b90505b92915050565b3361092a81611277565b600654610943906001600160401b031662278d006133be565b6001600160401b0316421161096b57604051637fcce2a960e01b815260040160405180910390fd5b60015460405163068bcd8d60e01b81525f916001600160a01b037f0000000000000000000000000000000000000000000000000000000000000000169163068bcd8d916109be9160040190815260200190565b5f60405180830381865afa1580156109d8573d5f803e3d5ffd5b505050506040513d5f823e601f3d908101601f191682016040526109ff919081019061347e565b9050600254831115610a2457604051637fcce2a960e01b815260040160405180910390fd5b8260025f828254610a35919061352c565b909155505060408101516108149033856116e5565b610a5261171f565b33610a5c81611277565b5f5b8251811015610814575f838281518110610a7a57610a7a61353f565b60200260200101515f015190505f848381518110610a9a57610a9a61353f565b6020908102919091018101518101515f848152600b83526040908190208290558051828152339381019390935290925083917f941884a9a55191a7401466aaf8a0d2b7c8b082055a5a2b345b83c73940172ac4910160405180910390a25050600101610a5e565b5f600161091a565b6003805460048054919291610b1d90613553565b80601f0160208091040260200160405190810160405280929190818152602001828054610b4990613553565b8015610b945780601f10610b6b57610100808354040283529160200191610b94565b820191905f5260205f20905b815481529060010190602001808311610b7757829003601f168201915b5050505050905082565b5f61091a8261176f565b610bb0612b08565b61091a826117ad565b610bc16118a3565b33610bcb81611277565b60055462010000900460ff1615610bf557604051637fcce2a960e01b815260040160405180910390fd5b600a839055815160039081556020830151839190600490610c1690826135cf565b509050507fdc7180ca4affc84269428ed20ef950e745126f11691b010c4a7d49458421008f600a546003604051610c4e92919061368a565b60405180910390a1505050565b6060816001600160401b03811115610c7557610c75612b7a565b604051908082528060200260200182016040528015610ca857816020015b6060815260200190600190039081610c935790505b5090505f5b82811015610d3b57610d1630858584818110610ccb57610ccb61353f565b9050602002810190610cdd919061372f565b8080601f0160208091040260200160405190810160405280939291908181526020018383808284375f920191909152506118cf92505050565b828281518110610d2857610d2861353f565b6020908102919091010152600101610cad565b5092915050565b81518151606091908114610d6957604051633da4c02b60e11b815260040160405180910390fd5b5f816001600160401b03811115610d8257610d82612b7a565b604051908082528060200260200182016040528015610dc657816020015b604080518082019091525f8082526020820152815260200190600190039081610da05790505b5090505f5b82811015610e3457610e0f868281518110610de857610de861353f565b6020026020010151868381518110610e0257610e0261353f565b60200260200101516118f4565b828281518110610e2157610e2161353f565b6020908102919091010152600101610dcb565b50949350505050565b5f8063ffffffff8316610e5485633b9aca00613778565b610e5e91906137b7565b6001600160801b0316905060115f9054906101000a90046001600160a01b03166001600160a01b031663c82051dd6040518163ffffffff1660e01b8152600401602060405180830381865afa158015610eb9573d5f803e3d5ffd5b505050506040513d601f19601f82011682018060405250810190610edd91906137dc565b6001600160a01b0316816001600160a01b031610156109175760115f9054906101000a90046001600160a01b03166001600160a01b031663c82051dd6040518163ffffffff1660e01b8152600401602060405180830381865afa158015610f46573d5f803e3d5ffd5b505050506040513d601f19601f82011682018060405250810190610f6a91906137dc565b91505061091a565b5f610f7b6119ab565b905090565b5f61091a826119f2565b610f92611035565b5f81806020019051810190610fa79190613876565b9050610fb38382611a10565b610fbd8382611bff565b7f91efa3d50feccde0d0d202f8ae5c41ca0b2be614cebcb2bd2f4b019396e6568a8383604051610c4e929190612fbf565b610ff6611035565b610ffe611080565b6110088282611e86565b5050565b611014611035565b8060025f828254611025919061398e565b9091555061103290508181565b50565b336001600160a01b037f0000000000000000000000000000000000000000000000000000000000000000161461107e5760405163075fd2b160e01b815260040160405180910390fd5b565b6001545f0361107e57604051630f68fe6360e21b815260040160405180910390fd5b806110ac81611277565b60055462010000900460ff166110ce576005805462ff00001916620100001790555b601354600160a01b900460ff16156111ec576060805f805f80888060200190518101906110fb9190613b07565b949a509298509096509450925090505f6111158685611f27565b601354601054604051636ef2aa6360e11b81529293505f926001600160a01b039283169263dde554c69261115a929116908c908b9088908b908b903090600401613c63565b6020604051808303815f875af1158015611176573d5f803e3d5ffd5b505050506040513d601f19601f8201168201806040525081019061119a9190613cc9565b604051600f82900b81529091506001600160a01b038b16907f3701b4f70eb2cd5c342b79a3d54ffe5872bb7de314e3ba3ef6de34ed8a8733739060200160405180910390a25050505050505050611271565b5f838060200190518101906112019190613ce2565b80519091505f5b8181101561123a576112328382815181106112255761122561353f565b602002602001015161218f565b600101611208565b506040516001600160a01b038516907f7ec3272052827f7b50d9e84f98172cbb80c112df1e377c5b97ea77f1812db8d9905f90a250505b50505050565b6001546040516329e40d4b60e01b815260048101919091526001600160a01b0382811660248301527f000000000000000000000000000000000000000000000000000000000000000016906329e40d4b90604401602060405180830381865afa1580156112e6573d5f803e3d5ffd5b505050506040513d601f19601f8201168201806040525081019061130a9190613d26565b6110325760405163075fd2b160e01b815260040160405180910390fd5b836001600160401b031642118061134f5750826001600160401b0316846001600160401b0316115b8061136b5750816001600160401b0316846001600160401b0316115b806113875750806001600160401b0316826001600160401b0316115b806113a35750806001600160401b0316836001600160401b0316115b1561127157604051637fcce2a960e01b815260040160405180910390fd5b5f6113ca61171f565b5f805f6113e960405180604001604052805f8152602001606081525090565b60055460ff161561143b57868060200190518101906114089190613d3f565b9196509350905061141985876122f6565b6114365760405163075fd2b160e01b815260040160405180910390fd5b6114a5565b8680602001905181019061144f9190613d3f565b6001600160a01b03821615159650919450925090508361146f5785611471565b815b9450838015611487575061148585876122f6565b155b156114a55760405163075fd2b160e01b815260040160405180910390fd5b600554610100900460ff1680156114c8575060208101515115806114c857508051155b156114e65760405163c19e07c560e01b815260040160405180910390fd5b6001600160a01b03831661151d5760405163f4a513b960e01b81526001600160a01b03861660048201526024015b60405180910390fd5b6001600160a01b038086165f908152600f60209081526040909120805492861661010002610100600160a81b031990931692909217825582516001830190815590830151839190600284019061157390826135cf565b505060055460ff169050611587578461158a565b60015b815460ff19169015151781555f6115a0876123e7565b905060ff8116611658576008546001600160a01b0388165f908152600c60205260409020556115d48760015b60ff16612401565b5f896008546040516020016115ea929190613d9e565b6040516020818303038152906040529050876001600160a01b03167fa197306e3dd5494a61a695381aa809a53b8e377a685e84e404a85d5a8da6cc62828b604051611636929190613dbf565b60405180910390a260088054905f61164d83613de8565b9190505550506116d9565b60011960ff8216016116745761166f8760016115cc565b61168b565b60021960ff82160161168b5761168b8760046115cc565b866001600160a01b03167fcec1da3f7f0b8a344dd1025d06e2ddd48b14880395997ad97cbdb439acc761d48a8a6116c18b6123e7565b6040516116d093929190613e00565b60405180910390a25b50505050505092915050565b73eeeeeeeeeeeeeeeeeeeeeeeeeeeeeeeeeeeeeeed196001600160a01b03841601611714576108148282612431565b61081483838361244a565b6005544263010000009091046001600160401b031611806117515750600554600160581b90046001600160401b031642115b1561107e57604051635b04f6ad60e11b815260040160405180910390fd5b5f8061177d61010084613e35565b90505f61178c61010085613e48565b5f928352600d602052604090922054600190921b9182169091149392505050565b6117b5612b08565b6001600160a01b038083165f908152600f60209081526040918290208251606081018452815460ff81161515825261010090049094168483015282518084018452600182018054825260028301805493958701949293919284019161181990613553565b80601f016020809104026020016040519081016040528092919081815260200182805461184590613553565b80156118905780601f1061186757610100808354040283529160200191611890565b820191905f5260205f20905b81548152906001019060200180831161187357829003601f168201915b5050509190925250505090525092915050565b6006546001600160401b031642101561107e57604051634543ced160e11b815260040160405180910390fd5b6060610917838360405180606001604052806027815260200161408e6027913961248a565b604080518082019091525f80825260208201525f8280602001905181019061191c9190613e5b565b805160208201516040830151606084015193945091929091905f61193f846117ad565b60200151905061195285858386866124fe565b15611982576040518060400160405280826001600160a01b0316815260200184815250965050505050505061091a565b604080518082019091526001600160a01b0390911681525f602082015298975050505050505050565b6005545f904263010000009091046001600160401b0316118015906119e25750600554600160581b90046001600160401b03164211155b156119ed5750600190565b505f90565b5f6119fc826123e7565b60ff16600681111561091a5761091a6132f2565b60405163068bcd8d60e01b8152600481018390525f907f00000000000000000000000000000000000000000000000000000000000000006001600160a01b03169063068bcd8d906024015f60405180830381865afa158015611a74573d5f803e3d5ffd5b505050506040513d5f823e601f3d908101601f19168201604052611a9b919081019061347e565b60408101519091506001600160a01b031673eeeeeeeeeeeeeeeeeeeeeeeeeeeeeeeeeeeeeeee148015611acf575081604001515b15611aed57604051637fcce2a960e01b815260040160405180910390fd5b60e0820151601180546001600160a01b039283166001600160a01b0319918216179091556101008401516012805491841691909216179055610120830151601380546040808701511515600160a01b026001600160a81b0319909216938516939093171790558201511673eeeeeeeeeeeeeeeeeeeeeeeeeeeeeeeeeeeeeeee1461081457604081810151601080546001600160a01b0319166001600160a01b03928316908117909155601354925163095ea7b360e01b81529290911660048301525f1960248301529063095ea7b3906044016020604051808303815f875af1158015611bdb573d5f803e3d5ffd5b505050506040513d601f19601f820116820180604052508101906112719190613d26565b611c08826125a3565b80516005805460208085015161ffff1990921693151561ff001916939093176101009115159190910217905560408051635ab1bd5360e01b815290517f00000000000000000000000000000000000000000000000000000000000000006001600160a01b031692635ab1bd5392600480820193918290030181865afa158015611c93573d5f803e3d5ffd5b505050506040513d601f19601f82011682018060405250810190611cb791906137dc565b600980546001600160a01b0319166001600160a01b0392909216919091179055606081015160058054608084015160a08501516301000000600160981b031990921663010000006001600160401b03958616810267ffffffffffffffff60581b191691909117600160581b92861683021767ffffffffffffffff60981b1916600160981b9386168402179384905560c08601516006805467ffffffffffffffff19169187169182179055611d7b959185048216949283048216939092041690611327565b6005546006546040517fcb0fb7a7b87db2f472ee8977444cfdbc51993ce660aca27a5969a724fae6dcf392611ddb926001600160401b0363010000008304811693600160581b8404821693600160981b900482169290911690339061336f565b60405180910390a1610140810151515f819003611e27575f8052600e6020527fe710864318d4a32f37d6ce54cb3fadbef648dd12d8dbdf53973564d56b7f881c805460ff191660011790555b5f5b81811015611271576001600e5f8561014001518481518110611e4d57611e4d61353f565b6020908102919091018101516001600160a01b031682528101919091526040015f20805460ff1916911515919091179055600101611e29565b611e8e6125f1565b5f82806020019051810190611ea39190613e8c565b80519091505f5b818160ff161015611eed57611edb838260ff1681518110611ecd57611ecd61353f565b602002602001015185612639565b80611ee581613f54565b915050611eaa565b506040516001600160a01b038416907faf2aeb2d4fe57415a1bbc0422472fa1bd4ff48b36feb2e7d2d3ce40085558985905f90a250505050565b81516060905f816001600160401b03811115611f4557611f45612b7a565b604051908082528060200260200182016040528015611f8957816020015b604080518082019091525f8082526020820152815260200190600190039081611f635790505b5090505f5b82811015610e34575f868281518110611fa957611fa961353f565b60200260200101515f015190505f878381518110611fc957611fc961353f565b60200260200101516020015190505f888481518110611fea57611fea61353f565b60200260200101516040015190505f89858151811061200b5761200b61353f565b602090810291909101810151606001516001600160a01b038086165f908152600f90935260409092205490925061010090041661204b85858386866124fe565b1561215a576120598561287b565b8260025f82825461206a919061352c565b9091555050601354604051630a30a04f60e21b81526001600160a01b038381166004830152909116906328c2813c90602401602060405180830381865afa1580156120b7573d5f803e3d5ffd5b505050506040513d601f19601f820116820180604052508101906120db9190613f72565b8787815181106120ed576120ed61353f565b6020908102919091010151526121335f612107858d610e3d565b63ffffffff8d166001600160a01b0390911660a09290921b63ffffffff60a01b169190911760401b1790565b8787815181106121455761214561353f565b6020026020010151602001818152505061217e565b60405163f4a513b960e01b81526001600160a01b0385166004820152602401611514565b505060019093019250611f8e915050565b805160208083015160408085015160608601516001600160a01b038085165f908152600f9096529290942054929390929091610100909104166121d585858386866124fe565b1561215a5760015460405163068bcd8d60e01b81525f916001600160a01b037f0000000000000000000000000000000000000000000000000000000000000000169163068bcd8d9161222d9160040190815260200190565b5f60405180830381865afa158015612247573d5f803e3d5ffd5b505050506040513d5f823e601f3d908101601f1916820160405261226e919081019061347e565b90506122798661287b565b8360025f82825461228a919061352c565b9091555050604081015161229f9083866116e5565b60408082015181518681526001600160a01b038581166020830152808916939216917fa6b66f665010d2f7435f110111aaa34b56564074f66081bef606d996fc8caa6f910160405180910390a3505b505050505050565b60095460405163dd93da4360e01b81526001600160a01b0384811660048301525f92839291169063dd93da43906024015f60405180830381865afa158015612340573d5f803e3d5ffd5b505050506040513d5f823e601f3d908101601f191682016040526123679190810190613f89565b6009548151604051635e8a791560e01b815260048101919091526001600160a01b038681166024830152929350911690635e8a791590604401602060405180830381865afa1580156123bb573d5f803e3d5ffd5b505050506040513d601f19601f820116820180604052508101906123df9190613d26565b949350505050565b5f805f6123f3846128b6565b600f911c1695945050505050565b5f805f61240d856128b6565b5f928352600b602052604090922095811b600f90911b199091161790935550505050565b5f805f8084865af16110085763b12d13eb5f526004601cfd5b816014528060345263a9059cbb60601b5f5260205f604460105f875af13d1560015f51141716612481576390b8ec185f526004601cfd5b5f603452505050565b60605f80856001600160a01b0316856040516124a69190614049565b5f60405180830381855af49150503d805f81146124de576040519150601f19603f3d011682016040523d82523d5f602084013e6124e3565b606091505b50915091506124f486838387612917565b9695505050505050565b5f6125088661176f565b1561251457505f61259a565b60408051602081018890526001600160a01b03808816928201929092529085166060820152608081018490525f9060a00160408051601f198184030181528282528051602091820120908301520160405160208183030381529060405280519060200120905061258783600a548361298f565b612594575f91505061259a565b60019150505b95945050505050565b6125ab611035565b600154156125cc5760405163439a74c960e01b815260040160405180910390fd5b805f036125ec57604051637fcce2a960e01b815260040160405180910390fd5b600155565b60055442600160981b9091046001600160401b0316118061261c57506006546001600160401b031642115b1561107e5760405162b828c960e81b815260040160405180910390fd5b8151602083015160408401516002612650846123e7565b60ff166006811115612664576126646132f2565b6006811115612675576126756132f2565b1461269e5760405163f4a513b960e01b81526001600160a01b0384166004820152602401611514565b73eeeeeeeeeeeeeeeeeeeeeeeeeeeeeeeeeeeeeeed196001600160a01b038216016126dc57604051637fcce2a960e01b815260040160405180910390fd5b6001600160a01b0381165f908152600e602052604090205460ff1615801561272e57505f8052600e6020527fe710864318d4a32f37d6ce54cb3fadbef648dd12d8dbdf53973564d56b7f881c5460ff16155b1561274c57604051637fcce2a960e01b815260040160405180910390fd5b5f3411801561277857506001600160a01b03811673eeeeeeeeeeeeeeeeeeeeeeeeeeeeeeeeeeeeeeee14155b806127aa57506001600160a01b03811673eeeeeeeeeeeeeeeeeeeeeeeeeeeeeeeeeeeeeeee1480156127aa5750813414155b156127c857604051637fcce2a960e01b815260040160405180910390fd5b604080516060810182526001600160a01b0380871682528581165f908152600f6020908152908490205461010090049091169082015290810183905261280f9082906129a4565b1561287457826001600160a01b03167f463ffc2cf8b1596445c417388ed30e53eb67cf6668cb2be7f0addf8a78c8441b83838760405161286b939291909283526001600160a01b03918216602084015216604082015260600190565b60405180910390a25b5050505050565b5f61288861010083613e35565b90505f61289761010084613e48565b5f928352600d60205260409092208054600190931b9092179091555050565b6001600160a01b0381165f908152600c602052604080822054829182919082906128e09083613e35565b90505f6128ee604084613e48565b6128f9906004614064565b5f838152600b60205260409020549298909750919550909350505050565b606083156129855782515f0361297e576001600160a01b0385163b61297e5760405162461bcd60e51b815260206004820152601d60248201527f416464726573733a2063616c6c20746f206e6f6e2d636f6e74726163740000006044820152606401611514565b50816123df565b6123df8383612a21565b5f8261299b8584612a4b565b14949350505050565b60408101515f9073eeeeeeeeeeeeeeeeeeeeeeeeeeeeeeeeeeeeeeed196001600160a01b03851601612a0457803410156129f1576040516374c5672b60e01b815260040160405180910390fd5b6129ff836020015182612431565b612a17565b612a1784845f0151856020015184612a8d565b5060019392505050565b815115612a315781518083602001fd5b8060405162461bcd60e51b8152600401611514919061407b565b5f81815b8451811015612a8557612a7b82868381518110612a6e57612a6e61353f565b6020026020010151612adc565b9150600101612a4f565b509392505050565b60405181606052826040528360601b602c526323b872dd60601b600c5260205f6064601c5f895af13d1560015f51141716612acf57637939f4245f526004601cfd5b5f60605260405250505050565b5f818310612af6575f828152602084905260409020610917565b5f838152602083905260409020610917565b60405180606001604052805f151581526020015f6001600160a01b03168152602001612b4660405180604001604052805f8152602001606081525090565b905290565b6001600160a01b0381168114611032575f80fd5b5f60208284031215612b6f575f80fd5b813561091781612b4b565b634e487b7160e01b5f52604160045260245ffd5b604080519081016001600160401b0381118282101715612bb057612bb0612b7a565b60405290565b60405160c081016001600160401b0381118282101715612bb057612bb0612b7a565b60405161016081016001600160401b0381118282101715612bb057612bb0612b7a565b604051608081016001600160401b0381118282101715612bb057612bb0612b7a565b604051606081016001600160401b0381118282101715612bb057612bb0612b7a565b604051601f8201601f191681016001600160401b0381118282101715612c6757612c67612b7a565b604052919050565b5f6001600160401b03821115612c8757612c87612b7a565b5060051b60200190565b5f82601f830112612ca0575f80fd5b81356020612cb5612cb083612c6f565b612c3f565b8083825260208201915060208460051b870101935086841115612cd6575f80fd5b602086015b84811015612cfb578035612cee81612b4b565b8352918301918301612cdb565b509695505050505050565b5f6001600160401b03821115612d1e57612d1e612b7a565b50601f01601f191660200190565b5f612d39612cb084612d06565b9050828152838383011115612d4c575f80fd5b828260208301375f602084830101529392505050565b5f82601f830112612d71575f80fd5b61091783833560208501612d2c565b5f805f60608486031215612d92575f80fd5b83356001600160401b0380821115612da8575f80fd5b612db487838801612c91565b94506020860135915080821115612dc9575f80fd5b50612dd686828701612d62565b9250506040840135612de781612b4b565b809150509250925092565b6001600160401b0381168114611032575f80fd5b5f805f8060808587031215612e19575f80fd5b8435612e2481612df2565b93506020850135612e3481612df2565b92506040850135612e4481612df2565b91506060850135612e5481612df2565b939692955090935050565b5f8060408385031215612e70575f80fd5b82356001600160401b03811115612e85575f80fd5b612e9185828601612d62565b9250506020830135612ea281612b4b565b809150509250929050565b5f60208284031215612ebd575f80fd5b5035919050565b5f6020808385031215612ed5575f80fd5b82356001600160401b03811115612eea575f80fd5b8301601f81018513612efa575f80fd5b8035612f08612cb082612c6f565b81815260069190911b82018301908381019087831115612f26575f80fd5b928401925b82841015612f675760408489031215612f42575f80fd5b612f4a612b8e565b843581528585013586820152825260409093019290840190612f2b565b979650505050505050565b5f5b83811015612f8c578181015183820152602001612f74565b50505f910152565b5f8151808452612fab816020860160208601612f72565b601f01601f19169290920160200192915050565b828152604060208201525f6123df6040830184612f94565b6020815281511515602082015260018060a01b0360208301511660408201525f60408301516060808401528051608084015260208101519050604060a08401526123df60c0840182612f94565b5f8060408385031215613035575f80fd5b8235915060208301356001600160401b0380821115613052575f80fd5b9084019060408287031215613065575f80fd5b61306d612b8e565b82358152602083013582811115613082575f80fd5b80840193505086601f840112613096575f80fd5b6130a587843560208601612d2c565b60208201528093505050509250929050565b5f80602083850312156130c8575f80fd5b82356001600160401b03808211156130de575f80fd5b818501915085601f8301126130f1575f80fd5b8135818111156130ff575f80fd5b8660208260051b8501011115613113575f80fd5b60209290920196919550909350505050565b5f60208083016020845280855180835260408601915060408160051b8701019250602087015f5b8281101561317a57603f19888603018452613168858351612f94565b9450928501929085019060010161314c565b5092979650505050505050565b5f8060408385031215613198575f80fd5b82356001600160401b03808211156131ae575f80fd5b6131ba86838701612c91565b93506020915081850135818111156131d0575f80fd5b8501601f810187136131e0575f80fd5b80356131ee612cb082612c6f565b81815260059190911b8201840190848101908983111561320c575f80fd5b8584015b8381101561324257803586811115613226575f80fd5b6132348c8983890101612d62565b845250918601918601613210565b508096505050505050509250929050565b602080825282518282018190525f919060409081850190868401855b8281101561329d57815180516001600160a01b0316855286015186850152928401929085019060010161326f565b5091979650505050505050565b63ffffffff81168114611032575f80fd5b5f80604083850312156132cc575f80fd5b82356001600160801b03811681146132e2575f80fd5b91506020830135612ea2816132aa565b634e487b7160e01b5f52602160045260245ffd5b602081016007831061332657634e487b7160e01b5f52602160045260245ffd5b91905290565b5f806040838503121561333d575f80fd5b8235915060208301356001600160401b03811115613359575f80fd5b61336585828601612d62565b9150509250929050565b6001600160401b0395861681529385166020850152918416604084015290921660608201526001600160a01b03909116608082015260a00190565b634e487b7160e01b5f52601160045260245ffd5b6001600160401b03818116838216019080821115610d3b57610d3b6133aa565b80516133e981612b4b565b919050565b5f82601f8301126133fd575f80fd5b815161340b612cb082612d06565b81815284602083860101111561341f575f80fd5b6123df826020830160208701612f72565b5f60408284031215613440575f80fd5b613448612b8e565b90508151815260208201516001600160401b03811115613466575f80fd5b613472848285016133ee565b60208301525092915050565b5f6020828403121561348e575f80fd5b81516001600160401b03808211156134a4575f80fd5b9083019060c082860312156134b7575f80fd5b6134bf612bb6565b8251815260208301516134d181612b4b565b602082015260408301516134e481612b4b565b60408201526060830151828111156134fa575f80fd5b61350687828601613430565b6060830152506080830151608082015260a083015160a082015280935050505092915050565b8181038181111561091a5761091a6133aa565b634e487b7160e01b5f52603260045260245ffd5b600181811c9082168061356757607f821691505b60208210810361358557634e487b7160e01b5f52602260045260245ffd5b50919050565b601f82111561081457805f5260205f20601f840160051c810160208510156135b05750805b601f840160051c820191505b81811015612874575f81556001016135bc565b81516001600160401b038111156135e8576135e8612b7a565b6135fc816135f68454613553565b8461358b565b602080601f83116001811461362f575f84156136185750858301515b5f19600386901b1c1916600185901b1785556122ee565b5f85815260208120601f198616915b8281101561365d5788860151825594840194600190910190840161363e565b508582101561367a57878501515f19600388901b60f8161c191681555b5050505050600190811b01905550565b8281525f602060406020840152835460408401526001808501604060608601525f81546136b681613553565b80608089015260a0600183165f81146136d657600181146136f25761371f565b60ff19841660a08b015260a083151560051b8b0101945061371f565b855f5260205f205f5b848110156137165781548c82018501529088019089016136fb565b8b0160a0019550505b50929a9950505050505050505050565b5f808335601e19843603018112613744575f80fd5b8301803591506001600160401b0382111561375d575f80fd5b602001915036819003821315613771575f80fd5b9250929050565b6001600160801b0381811683821602808216919082811461379b5761379b6133aa565b505092915050565b634e487b7160e01b5f52601260045260245ffd5b5f6001600160801b03808416806137d0576137d06137a3565b92169190910492915050565b5f602082840312156137ec575f80fd5b815161091781612b4b565b805180151581146133e9575f80fd5b80516133e981612df2565b5f82601f830112613820575f80fd5b81516020613830612cb083612c6f565b8083825260208201915060208460051b870101935086841115613851575f80fd5b602086015b84811015612cfb57805161386981612b4b565b8352918301918301613856565b5f60208284031215613886575f80fd5b81516001600160401b038082111561389c575f80fd5b9083019061016082860312156138b0575f80fd5b6138b8612bd8565b6138c1836137f7565b81526138cf602084016137f7565b60208201526138e0604084016137f7565b60408201526138f160608401613806565b606082015261390260808401613806565b608082015261391360a08401613806565b60a082015261392460c08401613806565b60c082015261393560e084016133de565b60e08201526101006139488185016133de565b9082015261012061395a8482016133de565b908201526101408381015183811115613971575f80fd5b61397d88828701613811565b918301919091525095945050505050565b8082018082111561091a5761091a6133aa565b5f608082840312156139b1575f80fd5b6139b9612bfb565b9050815181526020808301516139ce81612b4b565b828201526040838101519083015260608301516001600160401b038111156139f4575f80fd5b8301601f81018513613a04575f80fd5b8051613a12612cb082612c6f565b81815260059190911b82018301908381019087831115613a30575f80fd5b928401925b82841015613a4e57835182529284019290840190613a35565b6060860152509295945050505050565b5f613a6b612cb084612c6f565b8381529050602080820190600585901b840186811115613a89575f80fd5b845b81811015613ac25780516001600160401b03811115613aa8575f80fd5b613ab4898289016139a1565b855250928201928201613a8b565b505050509392505050565b5f82601f830112613adc575f80fd5b61091783835160208501613a5e565b8051600f81900b81146133e9575f80fd5b80516133e9816132aa565b5f805f805f8060c08789031215613b1c575f80fd5b86516001600160401b0380821115613b32575f80fd5b818901915089601f830112613b45575f80fd5b81516020613b55612cb083612c6f565b82815260069290921b8401810191818101908d841115613b73575f80fd5b948201945b83861015613bb4576040868f031215613b8f575f80fd5b613b97612b8e565b865181528387015184820152825260409095019490820190613b78565b918c0151919a50909350505080821115613bcc575f80fd5b50613bd989828a01613acd565b955050613be860408801613aeb565b9350613bf660608801613afc565b9250613c0460808801613afc565b9150613c1260a08801613afc565b90509295509295509295565b5f815180845260208085019450602084015f5b83811015613c58578151805188528301518388015260409096019590820190600101613c31565b509495945050505050565b5f60018060a01b03808a16835260e06020840152613c8460e084018a613c1e565b88600f0b60408501528381036060850152613c9f8189613c1e565b63ffffffff97881660808601529590961660a08401529290921660c0909101525095945050505050565b5f60208284031215613cd9575f80fd5b61091782613aeb565b5f60208284031215613cf2575f80fd5b81516001600160401b03811115613d07575f80fd5b8201601f81018413613d17575f80fd5b6123df84825160208401613a5e565b5f60208284031215613d36575f80fd5b610917826137f7565b5f805f60608486031215613d51575f80fd5b8351613d5c81612b4b565b6020850151909350613d6d81612b4b565b60408501519092506001600160401b03811115613d88575f80fd5b613d9486828701613430565b9150509250925092565b604081525f613db06040830185612f94565b90508260208301529392505050565b604081525f613dd16040830185612f94565b905060018060a01b03831660208301529392505050565b5f60018201613df957613df96133aa565b5060010190565b606081525f613e126060830186612f94565b6001600160a01b039490941660208301525060ff91909116604090910152919050565b5f82613e4357613e436137a3565b500490565b5f82613e5657613e566137a3565b500690565b5f60208284031215613e6b575f80fd5b81516001600160401b03811115613e80575f80fd5b6123df848285016139a1565b5f6020808385031215613e9d575f80fd5b82516001600160401b03811115613eb2575f80fd5b8301601f81018513613ec2575f80fd5b8051613ed0612cb082612c6f565b81815260609182028301840191848201919088841115613eee575f80fd5b938501935b83851015613f485780858a031215613f09575f80fd5b613f11612c1d565b8551613f1c81612b4b565b81528587015187820152604080870151613f3581612b4b565b9082015283529384019391850191613ef3565b50979650505050505050565b5f60ff821660ff8103613f6957613f696133aa565b60010192915050565b5f60208284031215613f82575f80fd5b5051919050565b5f60208284031215613f99575f80fd5b81516001600160401b0380821115613faf575f80fd5b9083019060c08286031215613fc2575f80fd5b613fca612bb6565b8251815260208301516020820152604083015182811115613fe9575f80fd5b613ff5878286016133ee565b60408301525060608301518281111561400c575f80fd5b61401887828601613430565b60608301525061402a608084016133de565b608082015261403b60a084016133de565b60a082015295945050505050565b5f825161405a818460208701612f72565b9190910192915050565b808202811582820484141761091a5761091a6133aa565b602081525f6109176020830184612f9456fe416464726573733a206c6f772d6c6576656c2064656c65676174652063616c6c206661696c6564a2646970667358221220a990e16ea3e8a696f46cd70da7b910ced8303e756713e910819b24e9496fb98564736f6c63430008160033', \n     arguments: [\n          _allo,\n          _name,\n     ]\n}).send({\n     from: web3.eth.accounts[0], \n     gas: '4700000'\n   }, function (e, contract){\n    console.log(e, contract);\n    if (typeof contract.address !== 'undefined') {\n         console.log('Contract mined! address: ' + contract.address + ' transactionHash: ' + contract.transactionHash);\n    }\n })",
  "functionHashes": {
    "21755088": "distributionStarted()",
    "57089739": "useRegistryAnchor()",
    "a0cf0aea": "NATIVE()",
    "ef2920fc": "allocate(bytes,address)",
    "4533d678": "allocationEndTime()",
    "d2e17f59": "allocationStartTime()",
    "e744092e": "allowedTokens(address)",
    "d864089f": "calculateFlowRate(uint128,uint32)",
    "fc9c8d39": "caller()",
    "0a6f0ee9": "distribute(address[],bytes,address)",
    "59a3977b": "distributionMetadata()",
    "7c435d29": "drips()",
    "6ecc5d62": "driver()",
    "785e9e86": "erc20()",
    "15cc481e": "getAllo()",
    "b2b878d0": "getPayouts(address[],bytes[])",
    "4ab4ba42": "getPoolAmount()",
    "38fff2d0": "getPoolId()",
    "62812a39": "getRecipient(address)",
    "eb11af93": "getRecipientStatus(address)",
    "42fda9c7": "getStrategyId()",
    "5f1b55f3": "hasBeenDistributed(uint256)",
    "f5b0dfb7": "increasePoolAmount(uint256)",
    "edd146cc": "initialize(uint256,bytes)",
    "2d52eff2": "isDistributionSet()",
    "df868ed3": "isPoolActive()",
    "4d31d087": "isValidAllocator(address)",
    "2eb4a7ab": "merkleRoot()",
    "cb0e85a6": "metadataRequired()",
    "ac9650d8": "multicall(bytes[])",
    "01fc1c64": "recipientToStatusIndexes(address)",
    "95355b3b": "recipientsCounter()",
    "2bbe0cae": "registerRecipient(bytes,address)",
    "dff7d2c7": "registrationEndTime()",
    "9af5c09d": "registrationStartTime()",
    "465831cd": "reviewRecipients((uint256,uint256)[])",
    "f6f25891": "statusesBitMap(uint256)",
    "6f2a6791": "stream()",
    "e7efcfc2": "totalPayoutAmount()",
    "73af3453": "updateDistribution(bytes32,(uint256,string))",
    "2143e92f": "updatePoolTimestamps(uint64,uint64,uint64,uint64)",
    "2e1a7d4d": "withdraw(uint256)"
  },
  "gasEstimates": {
    "Creation": {
      "codeDepositCost": "3323600",
      "executionCost": "infinite",
      "totalCost": "infinite"
    },
    "External": {
      "NATIVE()": "260",
      "allocate(bytes,address)": "infinite",
      "allocationEndTime()": "2404",
      "allocationStartTime()": "2486",
      "allowedTokens(address)": "2637",
      "calculateFlowRate(uint128,uint32)": "infinite",
      "caller()": "2490",
      "distribute(address[],bytes,address)": "infinite",
      "distributionMetadata()": "infinite",
      "distributionStarted()": "2455",
      "drips()": "2426",
      "driver()": "2469",
      "erc20()": "2404",
      "getAllo()": "infinite",
      "getPayouts(address[],bytes[])": "infinite",
      "getPoolAmount()": "2392",
      "getPoolId()": "2414",
      "getRecipient(address)": "infinite",
      "getRecipientStatus(address)": "infinite",
      "getStrategyId()": "infinite",
      "hasBeenDistributed(uint256)": "2753",
      "increasePoolAmount(uint256)": "infinite",
      "initialize(uint256,bytes)": "infinite",
      "isDistributionSet()": "2371",
      "isPoolActive()": "4647",
      "isValidAllocator(address)": "infinite",
      "merkleRoot()": "2395",
      "metadataRequired()": "2431",
      "multicall(bytes[])": "infinite",
      "recipientToStatusIndexes(address)": "2550",
      "recipientsCounter()": "2395",
      "registerRecipient(bytes,address)": "infinite",
      "registrationEndTime()": "2442",
      "registrationStartTime()": "2481",
      "reviewRecipients((uint256,uint256)[])": "infinite",
      "statusesBitMap(uint256)": "2556",
      "stream()": "2481",
      "totalPayoutAmount()": "2416",
      "updateDistribution(bytes32,(uint256,string))": "infinite",
      "updatePoolTimestamps(uint64,uint64,uint64,uint64)": "infinite",
      "useRegistryAnchor()": "2354",
      "withdraw(uint256)": "infinite"
    },
    "Internal": {
      "_allocate(bytes memory,address)": "infinite",
      "_allocateSingle(struct DonationVotingMerkleDistributionDrip.Allocation memory,address)": "infinite",
      "_beforeInitialize(uint256,struct DonationVotingMerkleDistributionBaseStrategy.InitializeData memory)": "infinite",
      "_buildStreamReceiver(struct DonationVotingMerkleDistributionDrip.StreamDistribution memory[] memory,uint32)": "infinite",
      "_distribute(address[] memory,bytes memory,address)": "infinite",
      "_distributeSingle(struct DonationVotingMerkleDistributionBaseStrategy.Distribution memory)": "infinite"
    }
  },
  "devdoc": {
    "errors": {
      "ANCHOR_ERROR()": [
        {
          "details": "Thrown if the anchor creation fails"
        }
      ],
      "NONCE_NOT_AVAILABLE()": [
        {
          "details": "Thrown when the nonce passed has been used or not available"
        }
      ],
      "NOT_PENDING_OWNER()": [
        {
          "details": "Thrown when the 'msg.sender' is not the pending owner on ownership transfer"
        }
      ]
    },
    "events": {
      "Allocated(address,uint256,address,address)": {
        "params": {
          "amount": "The amount allocated",
          "recipientId": "The ID of the recipient",
          "token": "The token allocated"
        }
      },
      "BatchAllocationSuccessful(address)": {
        "params": {
          "sender": "The sender of the transaction"
        }
      },
      "BatchPayoutSuccessful(address)": {
        "params": {
          "sender": "The sender of the transaction"
        }
      },
      "BatchSetStreamSuccessful(address,int128)": {
        "params": {
          "sender": "The sender of the transaction"
        }
      },
      "Distributed(address,address,uint256,address)": {
        "params": {
          "amount": "The amount distributed",
          "recipientAddress": "The recipient",
          "recipientId": "The ID of the recipient",
          "sender": "The sender"
        }
      },
      "DistributionUpdated(bytes32,(uint256,string))": {
        "params": {
          "merkleRoot": "The merkle root of the distribution",
          "metadata": "The metadata of the distribution"
        }
      },
      "FundsDistributed(uint256,address,address,address)": {
        "params": {
          "amount": "The amount of tokens distributed",
          "grantee": "The address of the recipient",
          "recipientId": "The id of the recipient",
          "token": "The address of the token"
        }
      },
      "Initialized(uint256,bytes)": {
        "params": {
          "data": "The data passed to the 'initialize' function",
          "poolId": "The ID of the pool"
        }
      },
      "PoolActive(bool)": {
        "params": {
          "active": "The status of the pool"
        }
      },
      "RecipientStatusUpdated(uint256,uint256,address)": {
        "params": {
          "fullRow": "The value of the row",
          "rowIndex": "The index of the row in the bitmap",
          "sender": "The sender of the transaction"
        }
      },
      "Registered(address,bytes,address)": {
        "params": {
          "data": "The data passed to the 'registerRecipient' function",
          "recipientId": "The ID of the recipient",
          "sender": "The sender"
        }
      },
      "TimestampsUpdated(uint64,uint64,uint64,uint64,address)": {
        "params": {
          "allocationEndTime": "The end time for the allocation",
          "allocationStartTime": "The start time for the allocation",
          "registrationEndTime": "The end time for the registration",
          "registrationStartTime": "The start time for the registration",
          "sender": "The sender of the transaction"
        }
      },
      "UpdatedRegistration(address,bytes,address,uint8)": {
        "params": {
          "data": "The encoded data - (address recipientId, address recipientAddress, Metadata metadata)",
          "recipientId": "Id of the recipient",
          "sender": "The sender of the transaction",
          "status": "The updated status of the recipient"
        }
      }
    },
    "kind": "dev",
    "methods": {
      "allocate(bytes,address)": {
        "details": "The encoded '_data' will be determined by the strategy implementation. Only 'Allo' contract can      call this when it is initialized.",
        "params": {
          "_data": "The data to use to allocate to the recipient",
          "_sender": "The address of the sender"
        }
      },
      "calculateFlowRate(uint128,uint32)": {
        "details": "This function calculates the precision token unit flow rate per second based on the tokens to send      and the streaming duration in seconds.",
        "params": {
          "duration_": "The duration of the streaming in seconds",
          "tokensToSend_": "The number of tokens to be sent"
        },
        "returns": {
          "_0": "The calculated precision token unit flow rate per second"
        }
      },
      "constructor": {
        "params": {
          "_allo": "The 'Allo' contract",
          "_name": "The name of the strategy"
        }
      },
      "distribute(address[],bytes,address)": {
        "details": "The encoded '_data' will be determined by the strategy implementation. Only 'Allo' contract can      call this when it is initialized.",
        "params": {
          "_data": "The data to use to distribute to the recipients",
          "_recipientIds": "The IDs of the recipients",
          "_sender": "The address of the sender"
        }
      },
      "getAllo()": {
        "returns": {
          "_0": "The Allo contract"
        }
      },
      "getPayouts(address[],bytes[])": {
        "details": "The encoded '_data' will be determined by the strategy implementation.",
        "params": {
          "_data": "The data to use to get the payout summary for the recipients",
          "_recipientIds": "The IDs of the recipients"
        },
        "returns": {
          "_0": "The payout summary for the recipients"
        }
      },
      "getPoolAmount()": {
        "returns": {
          "_0": "The balance of the pool"
        }
      },
      "getPoolId()": {
        "returns": {
          "_0": "The ID of the pool"
        }
      },
      "getRecipient(address)": {
        "params": {
          "_recipientId": "ID of the recipient"
        },
        "returns": {
          "recipient": "The recipient details"
        }
      },
      "getRecipientStatus(address)": {
        "params": {
          "_recipientId": "The ID of the recipient"
        },
        "returns": {
          "_0": "The status of the recipient"
        }
      },
      "getStrategyId()": {
        "returns": {
          "_0": "The ID of the strategy"
        }
      },
      "hasBeenDistributed(uint256)": {
        "params": {
          "_index": "index of the distribution"
        },
        "returns": {
          "_0": "'true' if distribution is completed, otherwise 'false'"
        }
      },
      "increasePoolAmount(uint256)": {
        "details": "Increases the 'poolAmount' by '_amount'. Only 'Allo' contract can call this.",
        "params": {
          "_amount": "The amount to increase the pool by"
        }
      },
      "initialize(uint256,bytes)": {
        "custom:data": "InitializeData(bool _useRegistryAnchor, bool _metadataRequired, uint64 _registrationStartTime,               uint64 _registrationEndTime, uint64 _allocationStartTime, uint64 _allocationEndTime,               address _drips, address _dripsCaller, address _dripsAddressDriver, address[] memory _allowedTokens)",
        "details": "This will revert if the strategy is already initialized and 'msg.sender' is not the 'Allo' contract.",
        "params": {
          "_data": "The data to be decoded to initialize the strategy",
          "_poolId": "The 'poolId' to initialize"
        }
      },
      "isDistributionSet()": {
        "returns": {
          "_0": "'true' if distribution is set, otherwise 'false'"
        }
      },
      "isPoolActive()": {
        "returns": {
          "_0": "'true' if the pool is active, otherwise 'false'"
        }
      },
      "isValidAllocator(address)": {
        "details": "How the allocator is determined is up to the strategy implementation.",
        "params": {
          "_allocator": "The address to check if it is a valid allocator for the strategy."
        },
        "returns": {
          "_0": "'true' if the address is a valid allocator, 'false' otherwise"
        }
      },
      "multicall(bytes[])": {
        "custom:oz-upgrades-unsafe-allow-reachable": "delegatecall",
        "details": "Receives and executes a batch of function calls on this contract."
      },
      "registerRecipient(bytes,address)": {
        "details": "Registers a recipient and returns the ID of the recipient. The encoded '_data' will be determined by the      strategy implementation. Only 'Allo' contract can call this when it is initialized.",
        "params": {
          "_data": "The data to use to register the recipient",
          "_sender": "The address of the sender"
        },
        "returns": {
          "recipientId": "The recipientId"
        }
      },
      "reviewRecipients((uint256,uint256)[])": {
        "details": "The statuses are stored in a bitmap of 4 bits for each recipient. The first 4 bits of the 256 bits represent      the status of the first recipient, the second 4 bits represent the status of the second recipient, and so on.      'msg.sender' must be a pool manager and the registration must be active. Statuses: - 0: none - 1: pending - 2: accepted - 3: rejected - 4: appealed Emits the RecipientStatusUpdated() event.",
        "params": {
          "statuses": "new statuses"
        }
      },
      "updateDistribution(bytes32,(uint256,string))": {
        "details": "This can only be called after the allocation has ended and 'msg.sender' must be a pool manager and allocation must have ended.      Emits a 'DistributionUpdated()' event.",
        "params": {
          "_distributionMetadata": "The metadata of the distribution",
          "_merkleRoot": "The merkle root of the distribution"
        }
      },
      "updatePoolTimestamps(uint64,uint64,uint64,uint64)": {
        "details": "The timestamps are in milliseconds for the start and end times. The 'msg.sender' must be a pool manager.      Emits a 'TimestampsUpdated()' event.",
        "params": {
          "_allocationEndTime": "The end time for the allocation",
          "_allocationStartTime": "The start time for the allocation",
          "_registrationEndTime": "The end time for the registration",
          "_registrationStartTime": "The start time for the registration"
        }
      },
      "withdraw(uint256)": {
        "details": "This can only be called after the allocation has ended and 30 days have passed. If the      '_amount' is greater than the pool amount or if 'msg.sender' is not a pool manager.",
        "params": {
          "_amount": "The amount to be withdrawn"
        }
      }
    },
    "version": 1
  },
  "userdoc": {
    "errors": {
      "ALLOCATION_ACTIVE()": [
        {
          "notice": "Thrown when the allocation is active."
        }
      ],
      "ALLOCATION_NOT_ACTIVE()": [
        {
          "notice": "Thrown when the allocation is not active."
        }
      ],
      "ALLOCATION_NOT_ENDED()": [
        {
          "notice": "Thrown when the allocation is not ended."
        }
      ],
      "ALREADY_INITIALIZED()": [
        {
          "notice": "Thrown when data is already intialized"
        }
      ],
      "AMOUNT_MISMATCH()": [
        {
          "notice": "Thrown when the amount of tokens sent does not match the amount of tokens expected"
        }
      ],
      "ARRAY_MISMATCH()": [
        {
          "notice": "Thrown when two arrays length are not equal"
        }
      ],
      "INVALID()": [
        {
          "notice": "Thrown as a general error when input / data is invalid"
        }
      ],
      "INVALID_ADDRESS()": [
        {
          "notice": "Thrown when an invalid address is used"
        }
      ],
      "INVALID_FEE()": [
        {
          "notice": "Thrown when the fee is below 1e18 which is the fee percentage denominator"
        }
      ],
      "INVALID_METADATA()": [
        {
          "notice": "Thrown when the metadata is invalid."
        }
      ],
      "INVALID_REGISTRATION()": [
        {
          "notice": "Thrown when the registration is invalid."
        }
      ],
      "IS_APPROVED_STRATEGY()": [
        {
          "notice": "Thrown when the strategy is approved and should be cloned"
        }
      ],
      "MISMATCH()": [
        {
          "notice": "Thrown when mismatch in decoding data"
        }
      ],
      "NOT_APPROVED_STRATEGY()": [
        {
          "notice": "Thrown when the strategy is not approved"
        }
      ],
      "NOT_ENOUGH_FUNDS()": [
        {
          "notice": "Thrown when not enough funds are available"
        }
      ],
      "NOT_INITIALIZED()": [
        {
          "notice": "Thrown when data is yet to be initialized"
        }
      ],
      "POOL_ACTIVE()": [
        {
          "notice": "Thrown when a pool is already active"
        }
      ],
      "POOL_INACTIVE()": [
        {
          "notice": "Thrown when a pool is inactive"
        }
      ],
      "RECIPIENT_ALREADY_ACCEPTED()": [
        {
          "notice": "Thrown when recipient is already accepted."
        }
      ],
      "RECIPIENT_ERROR(address)": [
        {
          "notice": "Thrown when there is an error in recipient."
        }
      ],
      "RECIPIENT_NOT_ACCEPTED()": [
        {
          "notice": "Thrown when the recipient is not accepted."
        }
      ],
      "REGISTRATION_NOT_ACTIVE()": [
        {
          "notice": "Thrown when registration is not active."
        }
      ],
      "UNAUTHORIZED()": [
        {
          "notice": "Thrown when user is not authorized"
        }
      ],
      "ZERO_ADDRESS()": [
        {
          "notice": "Thrown when address is the zero address"
        }
      ]
    },
    "events": {
      "Allocated(address,uint256,address,address)": {
        "notice": "Emitted when a recipient is allocated to."
      },
      "BatchAllocationSuccessful(address)": {
        "notice": "Emitted when a batch allocation is successful"
      },
      "BatchPayoutSuccessful(address)": {
        "notice": "Emitted when a batch payout is successful"
      },
      "BatchSetStreamSuccessful(address,int128)": {
        "notice": "Emitted when a batch stream distribution is successful"
      },
      "Distributed(address,address,uint256,address)": {
        "notice": "Emitted when tokens are distributed."
      },
      "DistributionUpdated(bytes32,(uint256,string))": {
        "notice": "Emitted when the distribution has been updated with a new merkle root or metadata"
      },
      "FundsDistributed(uint256,address,address,address)": {
        "notice": "Emitted when funds are distributed to a recipient"
      },
      "Initialized(uint256,bytes)": {
        "notice": "Emitted when strategy is initialized."
      },
      "PoolActive(bool)": {
        "notice": "Emitted when pool is set to active status."
      },
      "RecipientStatusUpdated(uint256,uint256,address)": {
        "notice": "Emitted when a recipient is registered and the status is updated"
      },
      "Registered(address,bytes,address)": {
        "notice": "Emitted when a recipient is registered."
      },
      "TimestampsUpdated(uint64,uint64,uint64,uint64,address)": {
        "notice": "Emitted when the timestamps are updated"
      },
      "UpdatedRegistration(address,bytes,address,uint8)": {
        "notice": "Emitted when a recipient updates their registration"
      }
    },
    "kind": "user",
    "methods": {
      "NATIVE()": {
        "notice": "Address of the native token"
      },
      "allocate(bytes,address)": {
        "notice": "Allocates to a recipient."
      },
      "allowedTokens(address)": {
        "notice": "'token' address => boolean (allowed = true)."
      },
      "calculateFlowRate(uint128,uint32)": {
        "notice": "Calculate Precision Token Unit flow rate per second"
      },
      "constructor": {
        "notice": "Constructor for the Donation Voting Merkle Distribution Strategy"
      },
      "distribute(address[],bytes,address)": {
        "notice": "Distributes funds (tokens) to recipients."
      },
      "distributionMetadata()": {
        "notice": "Metadata containing the distribution data."
      },
      "distributionStarted()": {
        "notice": "Flag to indicate whether the distribution has started or not."
      },
      "erc20()": {
        "notice": "================================ ========== Storage ============= ================================"
      },
      "getAllo()": {
        "notice": "Getter for the 'Allo' contract."
      },
      "getPayouts(address[],bytes[])": {
        "notice": "Gets the payout summary for recipients."
      },
      "getPoolAmount()": {
        "notice": "Getter for the 'poolAmount'."
      },
      "getPoolId()": {
        "notice": "Getter for the 'poolId'."
      },
      "getRecipient(address)": {
        "notice": "Get a recipient with a '_recipientId'"
      },
      "getRecipientStatus(address)": {
        "notice": "Getter for the status of a recipient."
      },
      "getStrategyId()": {
        "notice": "Getter for the 'strategyId'."
      },
      "hasBeenDistributed(uint256)": {
        "notice": "Utility function to check if distribution is done."
      },
      "increasePoolAmount(uint256)": {
        "notice": "Increases the pool amount."
      },
      "initialize(uint256,bytes)": {
        "notice": "Initializes the strategy"
      },
      "isDistributionSet()": {
        "notice": "Checks if distribution is set."
      },
      "isPoolActive()": {
        "notice": "Getter for whether or not the pool is active."
      },
      "isValidAllocator(address)": {
        "notice": "Checks if the '_allocator' is a valid allocator."
      },
      "merkleRoot()": {
        "notice": "The merkle root of the distribution will be set by the pool manager."
      },
      "metadataRequired()": {
        "notice": "Flag to indicate whether metadata is required or not."
      },
      "recipientToStatusIndexes(address)": {
        "notice": "'recipientId' => 'statusIndex'"
      },
      "recipientsCounter()": {
        "notice": "The total number of recipients."
      },
      "registerRecipient(bytes,address)": {
        "notice": "Registers a recipient."
      },
      "registrationStartTime()": {
        "notice": "The timestamps in milliseconds for the start and end times."
      },
      "reviewRecipients((uint256,uint256)[])": {
        "notice": "Sets recipient statuses."
      },
      "statusesBitMap(uint256)": {
        "notice": "This is a packed array of booleans, 'statuses[0]' is the first row of the bitmap and allows to store 256 bits to describe the status of 256 projects. 'statuses[1]' is the second row, and so on Instead of using 1 bit for each recipient status, we will use 4 bits for each status to allow 5 statuses: 0: none 1: pending 2: accepted 3: rejected 4: appealed Since it's a mapping the storage it's pre-allocated with zero values, so if we check the status of an existing recipient, the value is by default 0 (none). If we want to check the status of an recipient, we take its index from the `recipients` array and convert it to the 2-bits position in the bitmap."
      },
      "stream()": {
        "notice": "Flag to indicate whether token streaming is required or not."
      },
      "totalPayoutAmount()": {
        "notice": "The total amount of tokens allocated to the payout."
      },
      "updateDistribution(bytes32,(uint256,string))": {
        "notice": "Invoked by round operator to update the merkle root and distribution Metadata."
      },
      "updatePoolTimestamps(uint64,uint64,uint64,uint64)": {
        "notice": "Sets the start and end dates."
      },
      "useRegistryAnchor()": {
        "notice": "Flag to indicate whether to use the registry anchor or not."
      },
      "withdraw(uint256)": {
        "notice": "Withdraw funds from pool"
      }
    },
    "version": 1
  },
  "Runtime Bytecode": {
    "immutableReferences": {
      "2008": [
        {
          "length": 32,
          "start": 708
        },
        {
          "length": 32,
          "start": 2439
        },
        {
          "length": 32,
          "start": 4160
        },
        {
          "length": 32,
          "start": 4769
        },
        {
          "length": 32,
          "start": 6696
        },
        {
          "length": 32,
          "start": 7238
        },
        {
          "length": 32,
          "start": 8694
        }
      ],
      "2010": [
        {
          "length": 32,
          "start": 969
        }
      ]
    },
    "linkReferences": {},
    "object": "60806040526004361061024c575f3560e01c806373af345311610134578063d864089f116100b3578063eb11af9311610078578063eb11af9314610732578063edd146cc1461075e578063ef2920fc1461077d578063f5b0dfb714610790578063f6f25891146107af578063fc9c8d39146107da575f80fd5b8063d864089f14610696578063df868ed3146106b5578063dff7d2c7146106c9578063e744092e146106ef578063e7efcfc21461071d575f80fd5b8063a0cf0aea116100f9578063a0cf0aea146105d3578063ac9650d8146105fa578063b2b878d014610626578063cb0e85a614610652578063d2e17f5914610670575f80fd5b806373af34531461053b578063785e9e861461055a5780637c435d291461057957806395355b3b146105985780639af5c09d146105ad575f80fd5b806342fda9c7116101cb5780635708973911610190578063570897391461047657806359a3977b1461048f5780635f1b55f3146104b157806362812a39146104d05780636ecc5d62146104fc5780636f2a67911461051b575f80fd5b806342fda9c7146103bb5780634533d678146103ed578063465831cd146104245780634ab4ba42146104435780634d31d08714610457575f80fd5b80632bbe0cae116102115780632bbe0cae1461034a5780632d52eff21461035d5780632e1a7d4d146103735780632eb4a7ab1461039257806338fff2d0146103a7575f80fd5b806301fc1c64146102575780630a6f0ee91461029557806315cc481e146102b65780632143e92f146102fc578063217550881461031b575f80fd5b3661025357005b5f80fd5b348015610262575f80fd5b50610282610271366004612b5f565b600c6020525f908152604090205481565b6040519081526020015b60405180910390f35b3480156102a0575f80fd5b506102b46102af366004612d80565b6107f9565b005b3480156102c1575f80fd5b507f00000000000000000000000000000000000000000000000000000000000000005b6040516001600160a01b03909116815260200161028c565b348015610307575f80fd5b506102b4610316366004612e06565b610819565b348015610326575f80fd5b5060055461033a9062010000900460ff1681565b604051901515815260200161028c565b6102e4610358366004612e5f565b6108fc565b348015610368575f80fd5b50600a54151561033a565b34801561037e575f80fd5b506102b461038d366004612ead565b610920565b34801561039d575f80fd5b50610282600a5481565b3480156103b2575f80fd5b50600154610282565b3480156103c6575f80fd5b507f0000000000000000000000000000000000000000000000000000000000000000610282565b3480156103f8575f80fd5b5060065461040c906001600160401b031681565b6040516001600160401b03909116815260200161028c565b34801561042f575f80fd5b506102b461043e366004612ec4565b610a4a565b34801561044e575f80fd5b50600254610282565b348015610462575f80fd5b5061033a610471366004612b5f565b610b01565b348015610481575f80fd5b5060055461033a9060ff1681565b34801561049a575f80fd5b506104a3610b09565b60405161028c929190612fbf565b3480156104bc575f80fd5b5061033a6104cb366004612ead565b610b9e565b3480156104db575f80fd5b506104ef6104ea366004612b5f565b610ba8565b60405161028c9190612fd7565b348015610507575f80fd5b506013546102e4906001600160a01b031681565b348015610526575f80fd5b5060135461033a90600160a01b900460ff1681565b348015610546575f80fd5b506102b4610555366004613024565b610bb9565b348015610565575f80fd5b506010546102e4906001600160a01b031681565b348015610584575f80fd5b506011546102e4906001600160a01b031681565b3480156105a3575f80fd5b5061028260085481565b3480156105b8575f80fd5b5060055461040c90630100000090046001600160401b031681565b3480156105de575f80fd5b506102e473eeeeeeeeeeeeeeeeeeeeeeeeeeeeeeeeeeeeeeee81565b348015610605575f80fd5b506106196106143660046130b7565b610c5b565b60405161028c9190613125565b348015610631575f80fd5b50610645610640366004613187565b610d42565b60405161028c9190613253565b34801561065d575f80fd5b5060055461033a90610100900460ff1681565b34801561067b575f80fd5b5060055461040c90600160981b90046001600160401b031681565b3480156106a1575f80fd5b506102e46106b03660046132bb565b610e3d565b3480156106c0575f80fd5b5061033a610f72565b3480156106d4575f80fd5b5060055461040c90600160581b90046001600160401b031681565b3480156106fa575f80fd5b5061033a610709366004612b5f565b600e6020525f908152604090205460ff1681565b348015610728575f80fd5b5061028260075481565b34801561073d575f80fd5b5061075161074c366004612b5f565b610f80565b60405161028c9190613306565b348015610769575f80fd5b506102b461077836600461332c565b610f8a565b6102b461078b366004612e5f565b610fee565b34801561079b575f80fd5b506102b46107aa366004612ead565b61100c565b3480156107ba575f80fd5b506102826107c9366004612ead565b600b6020525f908152604090205481565b3480156107e5575f80fd5b506012546102e4906001600160a01b031681565b610801611035565b610809611080565b6108148383836110a2565b505050565b3361082381611277565b61082f85858585611327565b600580546301000000600160981b03191663010000006001600160401b03888116820267ffffffffffffffff60581b191692909217600160581b88841681029190911767ffffffffffffffff60981b1916600160981b888516810291909117948590556006805467ffffffffffffffff19168886169081179091556040517fcb0fb7a7b87db2f472ee8977444cfdbc51993ce660aca27a5969a724fae6dcf3966108ed9695810486169594810485169493900490921691339061336f565b60405180910390a15050505050565b5f610905611035565b61090d611080565b61091783836113c1565b90505b92915050565b3361092a81611277565b600654610943906001600160401b031662278d006133be565b6001600160401b0316421161096b57604051637fcce2a960e01b815260040160405180910390fd5b60015460405163068bcd8d60e01b81525f916001600160a01b037f0000000000000000000000000000000000000000000000000000000000000000169163068bcd8d916109be9160040190815260200190565b5f60405180830381865afa1580156109d8573d5f803e3d5ffd5b505050506040513d5f823e601f3d908101601f191682016040526109ff919081019061347e565b9050600254831115610a2457604051637fcce2a960e01b815260040160405180910390fd5b8260025f828254610a35919061352c565b909155505060408101516108149033856116e5565b610a5261171f565b33610a5c81611277565b5f5b8251811015610814575f838281518110610a7a57610a7a61353f565b60200260200101515f015190505f848381518110610a9a57610a9a61353f565b6020908102919091018101518101515f848152600b83526040908190208290558051828152339381019390935290925083917f941884a9a55191a7401466aaf8a0d2b7c8b082055a5a2b345b83c73940172ac4910160405180910390a25050600101610a5e565b5f600161091a565b6003805460048054919291610b1d90613553565b80601f0160208091040260200160405190810160405280929190818152602001828054610b4990613553565b8015610b945780601f10610b6b57610100808354040283529160200191610b94565b820191905f5260205f20905b815481529060010190602001808311610b7757829003601f168201915b5050505050905082565b5f61091a8261176f565b610bb0612b08565b61091a826117ad565b610bc16118a3565b33610bcb81611277565b60055462010000900460ff1615610bf557604051637fcce2a960e01b815260040160405180910390fd5b600a839055815160039081556020830151839190600490610c1690826135cf565b509050507fdc7180ca4affc84269428ed20ef950e745126f11691b010c4a7d49458421008f600a546003604051610c4e92919061368a565b60405180910390a1505050565b6060816001600160401b03811115610c7557610c75612b7a565b604051908082528060200260200182016040528015610ca857816020015b6060815260200190600190039081610c935790505b5090505f5b82811015610d3b57610d1630858584818110610ccb57610ccb61353f565b9050602002810190610cdd919061372f565b8080601f0160208091040260200160405190810160405280939291908181526020018383808284375f920191909152506118cf92505050565b828281518110610d2857610d2861353f565b6020908102919091010152600101610cad565b5092915050565b81518151606091908114610d6957604051633da4c02b60e11b815260040160405180910390fd5b5f816001600160401b03811115610d8257610d82612b7a565b604051908082528060200260200182016040528015610dc657816020015b604080518082019091525f8082526020820152815260200190600190039081610da05790505b5090505f5b82811015610e3457610e0f868281518110610de857610de861353f565b6020026020010151868381518110610e0257610e0261353f565b60200260200101516118f4565b828281518110610e2157610e2161353f565b6020908102919091010152600101610dcb565b50949350505050565b5f8063ffffffff8316610e5485633b9aca00613778565b610e5e91906137b7565b6001600160801b0316905060115f9054906101000a90046001600160a01b03166001600160a01b031663c82051dd6040518163ffffffff1660e01b8152600401602060405180830381865afa158015610eb9573d5f803e3d5ffd5b505050506040513d601f19601f82011682018060405250810190610edd91906137dc565b6001600160a01b0316816001600160a01b031610156109175760115f9054906101000a90046001600160a01b03166001600160a01b031663c82051dd6040518163ffffffff1660e01b8152600401602060405180830381865afa158015610f46573d5f803e3d5ffd5b505050506040513d601f19601f82011682018060405250810190610f6a91906137dc565b91505061091a565b5f610f7b6119ab565b905090565b5f61091a826119f2565b610f92611035565b5f81806020019051810190610fa79190613876565b9050610fb38382611a10565b610fbd8382611bff565b7f91efa3d50feccde0d0d202f8ae5c41ca0b2be614cebcb2bd2f4b019396e6568a8383604051610c4e929190612fbf565b610ff6611035565b610ffe611080565b6110088282611e86565b5050565b611014611035565b8060025f828254611025919061398e565b9091555061103290508181565b50565b336001600160a01b037f0000000000000000000000000000000000000000000000000000000000000000161461107e5760405163075fd2b160e01b815260040160405180910390fd5b565b6001545f0361107e57604051630f68fe6360e21b815260040160405180910390fd5b806110ac81611277565b60055462010000900460ff166110ce576005805462ff00001916620100001790555b601354600160a01b900460ff16156111ec576060805f805f80888060200190518101906110fb9190613b07565b949a509298509096509450925090505f6111158685611f27565b601354601054604051636ef2aa6360e11b81529293505f926001600160a01b039283169263dde554c69261115a929116908c908b9088908b908b903090600401613c63565b6020604051808303815f875af1158015611176573d5f803e3d5ffd5b505050506040513d601f19601f8201168201806040525081019061119a9190613cc9565b604051600f82900b81529091506001600160a01b038b16907f3701b4f70eb2cd5c342b79a3d54ffe5872bb7de314e3ba3ef6de34ed8a8733739060200160405180910390a25050505050505050611271565b5f838060200190518101906112019190613ce2565b80519091505f5b8181101561123a576112328382815181106112255761122561353f565b602002602001015161218f565b600101611208565b506040516001600160a01b038516907f7ec3272052827f7b50d9e84f98172cbb80c112df1e377c5b97ea77f1812db8d9905f90a250505b50505050565b6001546040516329e40d4b60e01b815260048101919091526001600160a01b0382811660248301527f000000000000000000000000000000000000000000000000000000000000000016906329e40d4b90604401602060405180830381865afa1580156112e6573d5f803e3d5ffd5b505050506040513d601f19601f8201168201806040525081019061130a9190613d26565b6110325760405163075fd2b160e01b815260040160405180910390fd5b836001600160401b031642118061134f5750826001600160401b0316846001600160401b0316115b8061136b5750816001600160401b0316846001600160401b0316115b806113875750806001600160401b0316826001600160401b0316115b806113a35750806001600160401b0316836001600160401b0316115b1561127157604051637fcce2a960e01b815260040160405180910390fd5b5f6113ca61171f565b5f805f6113e960405180604001604052805f8152602001606081525090565b60055460ff161561143b57868060200190518101906114089190613d3f565b9196509350905061141985876122f6565b6114365760405163075fd2b160e01b815260040160405180910390fd5b6114a5565b8680602001905181019061144f9190613d3f565b6001600160a01b03821615159650919450925090508361146f5785611471565b815b9450838015611487575061148585876122f6565b155b156114a55760405163075fd2b160e01b815260040160405180910390fd5b600554610100900460ff1680156114c8575060208101515115806114c857508051155b156114e65760405163c19e07c560e01b815260040160405180910390fd5b6001600160a01b03831661151d5760405163f4a513b960e01b81526001600160a01b03861660048201526024015b60405180910390fd5b6001600160a01b038086165f908152600f60209081526040909120805492861661010002610100600160a81b031990931692909217825582516001830190815590830151839190600284019061157390826135cf565b505060055460ff169050611587578461158a565b60015b815460ff19169015151781555f6115a0876123e7565b905060ff8116611658576008546001600160a01b0388165f908152600c60205260409020556115d48760015b60ff16612401565b5f896008546040516020016115ea929190613d9e565b6040516020818303038152906040529050876001600160a01b03167fa197306e3dd5494a61a695381aa809a53b8e377a685e84e404a85d5a8da6cc62828b604051611636929190613dbf565b60405180910390a260088054905f61164d83613de8565b9190505550506116d9565b60011960ff8216016116745761166f8760016115cc565b61168b565b60021960ff82160161168b5761168b8760046115cc565b866001600160a01b03167fcec1da3f7f0b8a344dd1025d06e2ddd48b14880395997ad97cbdb439acc761d48a8a6116c18b6123e7565b6040516116d093929190613e00565b60405180910390a25b50505050505092915050565b73eeeeeeeeeeeeeeeeeeeeeeeeeeeeeeeeeeeeeeed196001600160a01b03841601611714576108148282612431565b61081483838361244a565b6005544263010000009091046001600160401b031611806117515750600554600160581b90046001600160401b031642115b1561107e57604051635b04f6ad60e11b815260040160405180910390fd5b5f8061177d61010084613e35565b90505f61178c61010085613e48565b5f928352600d602052604090922054600190921b9182169091149392505050565b6117b5612b08565b6001600160a01b038083165f908152600f60209081526040918290208251606081018452815460ff81161515825261010090049094168483015282518084018452600182018054825260028301805493958701949293919284019161181990613553565b80601f016020809104026020016040519081016040528092919081815260200182805461184590613553565b80156118905780601f1061186757610100808354040283529160200191611890565b820191905f5260205f20905b81548152906001019060200180831161187357829003601f168201915b5050509190925250505090525092915050565b6006546001600160401b031642101561107e57604051634543ced160e11b815260040160405180910390fd5b6060610917838360405180606001604052806027815260200161408e6027913961248a565b604080518082019091525f80825260208201525f8280602001905181019061191c9190613e5b565b805160208201516040830151606084015193945091929091905f61193f846117ad565b60200151905061195285858386866124fe565b15611982576040518060400160405280826001600160a01b0316815260200184815250965050505050505061091a565b604080518082019091526001600160a01b0390911681525f602082015298975050505050505050565b6005545f904263010000009091046001600160401b0316118015906119e25750600554600160581b90046001600160401b03164211155b156119ed5750600190565b505f90565b5f6119fc826123e7565b60ff16600681111561091a5761091a6132f2565b60405163068bcd8d60e01b8152600481018390525f907f00000000000000000000000000000000000000000000000000000000000000006001600160a01b03169063068bcd8d906024015f60405180830381865afa158015611a74573d5f803e3d5ffd5b505050506040513d5f823e601f3d908101601f19168201604052611a9b919081019061347e565b60408101519091506001600160a01b031673eeeeeeeeeeeeeeeeeeeeeeeeeeeeeeeeeeeeeeee148015611acf575081604001515b15611aed57604051637fcce2a960e01b815260040160405180910390fd5b60e0820151601180546001600160a01b039283166001600160a01b0319918216179091556101008401516012805491841691909216179055610120830151601380546040808701511515600160a01b026001600160a81b0319909216938516939093171790558201511673eeeeeeeeeeeeeeeeeeeeeeeeeeeeeeeeeeeeeeee1461081457604081810151601080546001600160a01b0319166001600160a01b03928316908117909155601354925163095ea7b360e01b81529290911660048301525f1960248301529063095ea7b3906044016020604051808303815f875af1158015611bdb573d5f803e3d5ffd5b505050506040513d601f19601f820116820180604052508101906112719190613d26565b611c08826125a3565b80516005805460208085015161ffff1990921693151561ff001916939093176101009115159190910217905560408051635ab1bd5360e01b815290517f00000000000000000000000000000000000000000000000000000000000000006001600160a01b031692635ab1bd5392600480820193918290030181865afa158015611c93573d5f803e3d5ffd5b505050506040513d601f19601f82011682018060405250810190611cb791906137dc565b600980546001600160a01b0319166001600160a01b0392909216919091179055606081015160058054608084015160a08501516301000000600160981b031990921663010000006001600160401b03958616810267ffffffffffffffff60581b191691909117600160581b92861683021767ffffffffffffffff60981b1916600160981b9386168402179384905560c08601516006805467ffffffffffffffff19169187169182179055611d7b959185048216949283048216939092041690611327565b6005546006546040517fcb0fb7a7b87db2f472ee8977444cfdbc51993ce660aca27a5969a724fae6dcf392611ddb926001600160401b0363010000008304811693600160581b8404821693600160981b900482169290911690339061336f565b60405180910390a1610140810151515f819003611e27575f8052600e6020527fe710864318d4a32f37d6ce54cb3fadbef648dd12d8dbdf53973564d56b7f881c805460ff191660011790555b5f5b81811015611271576001600e5f8561014001518481518110611e4d57611e4d61353f565b6020908102919091018101516001600160a01b031682528101919091526040015f20805460ff1916911515919091179055600101611e29565b611e8e6125f1565b5f82806020019051810190611ea39190613e8c565b80519091505f5b818160ff161015611eed57611edb838260ff1681518110611ecd57611ecd61353f565b602002602001015185612639565b80611ee581613f54565b915050611eaa565b506040516001600160a01b038416907faf2aeb2d4fe57415a1bbc0422472fa1bd4ff48b36feb2e7d2d3ce40085558985905f90a250505050565b81516060905f816001600160401b03811115611f4557611f45612b7a565b604051908082528060200260200182016040528015611f8957816020015b604080518082019091525f8082526020820152815260200190600190039081611f635790505b5090505f5b82811015610e34575f868281518110611fa957611fa961353f565b60200260200101515f015190505f878381518110611fc957611fc961353f565b60200260200101516020015190505f888481518110611fea57611fea61353f565b60200260200101516040015190505f89858151811061200b5761200b61353f565b602090810291909101810151606001516001600160a01b038086165f908152600f90935260409092205490925061010090041661204b85858386866124fe565b1561215a576120598561287b565b8260025f82825461206a919061352c565b9091555050601354604051630a30a04f60e21b81526001600160a01b038381166004830152909116906328c2813c90602401602060405180830381865afa1580156120b7573d5f803e3d5ffd5b505050506040513d601f19601f820116820180604052508101906120db9190613f72565b8787815181106120ed576120ed61353f565b6020908102919091010151526121335f612107858d610e3d565b63ffffffff8d166001600160a01b0390911660a09290921b63ffffffff60a01b169190911760401b1790565b8787815181106121455761214561353f565b6020026020010151602001818152505061217e565b60405163f4a513b960e01b81526001600160a01b0385166004820152602401611514565b505060019093019250611f8e915050565b805160208083015160408085015160608601516001600160a01b038085165f908152600f9096529290942054929390929091610100909104166121d585858386866124fe565b1561215a5760015460405163068bcd8d60e01b81525f916001600160a01b037f0000000000000000000000000000000000000000000000000000000000000000169163068bcd8d9161222d9160040190815260200190565b5f60405180830381865afa158015612247573d5f803e3d5ffd5b505050506040513d5f823e601f3d908101601f1916820160405261226e919081019061347e565b90506122798661287b565b8360025f82825461228a919061352c565b9091555050604081015161229f9083866116e5565b60408082015181518681526001600160a01b038581166020830152808916939216917fa6b66f665010d2f7435f110111aaa34b56564074f66081bef606d996fc8caa6f910160405180910390a3505b505050505050565b60095460405163dd93da4360e01b81526001600160a01b0384811660048301525f92839291169063dd93da43906024015f60405180830381865afa158015612340573d5f803e3d5ffd5b505050506040513d5f823e601f3d908101601f191682016040526123679190810190613f89565b6009548151604051635e8a791560e01b815260048101919091526001600160a01b038681166024830152929350911690635e8a791590604401602060405180830381865afa1580156123bb573d5f803e3d5ffd5b505050506040513d601f19601f820116820180604052508101906123df9190613d26565b949350505050565b5f805f6123f3846128b6565b600f911c1695945050505050565b5f805f61240d856128b6565b5f928352600b602052604090922095811b600f90911b199091161790935550505050565b5f805f8084865af16110085763b12d13eb5f526004601cfd5b816014528060345263a9059cbb60601b5f5260205f604460105f875af13d1560015f51141716612481576390b8ec185f526004601cfd5b5f603452505050565b60605f80856001600160a01b0316856040516124a69190614049565b5f60405180830381855af49150503d805f81146124de576040519150601f19603f3d011682016040523d82523d5f602084013e6124e3565b606091505b50915091506124f486838387612917565b9695505050505050565b5f6125088661176f565b1561251457505f61259a565b60408051602081018890526001600160a01b03808816928201929092529085166060820152608081018490525f9060a00160408051601f198184030181528282528051602091820120908301520160405160208183030381529060405280519060200120905061258783600a548361298f565b612594575f91505061259a565b60019150505b95945050505050565b6125ab611035565b600154156125cc5760405163439a74c960e01b815260040160405180910390fd5b805f036125ec57604051637fcce2a960e01b815260040160405180910390fd5b600155565b60055442600160981b9091046001600160401b0316118061261c57506006546001600160401b031642115b1561107e5760405162b828c960e81b815260040160405180910390fd5b8151602083015160408401516002612650846123e7565b60ff166006811115612664576126646132f2565b6006811115612675576126756132f2565b1461269e5760405163f4a513b960e01b81526001600160a01b0384166004820152602401611514565b73eeeeeeeeeeeeeeeeeeeeeeeeeeeeeeeeeeeeeeed196001600160a01b038216016126dc57604051637fcce2a960e01b815260040160405180910390fd5b6001600160a01b0381165f908152600e602052604090205460ff1615801561272e57505f8052600e6020527fe710864318d4a32f37d6ce54cb3fadbef648dd12d8dbdf53973564d56b7f881c5460ff16155b1561274c57604051637fcce2a960e01b815260040160405180910390fd5b5f3411801561277857506001600160a01b03811673eeeeeeeeeeeeeeeeeeeeeeeeeeeeeeeeeeeeeeee14155b806127aa57506001600160a01b03811673eeeeeeeeeeeeeeeeeeeeeeeeeeeeeeeeeeeeeeee1480156127aa5750813414155b156127c857604051637fcce2a960e01b815260040160405180910390fd5b604080516060810182526001600160a01b0380871682528581165f908152600f6020908152908490205461010090049091169082015290810183905261280f9082906129a4565b1561287457826001600160a01b03167f463ffc2cf8b1596445c417388ed30e53eb67cf6668cb2be7f0addf8a78c8441b83838760405161286b939291909283526001600160a01b03918216602084015216604082015260600190565b60405180910390a25b5050505050565b5f61288861010083613e35565b90505f61289761010084613e48565b5f928352600d60205260409092208054600190931b9092179091555050565b6001600160a01b0381165f908152600c602052604080822054829182919082906128e09083613e35565b90505f6128ee604084613e48565b6128f9906004614064565b5f838152600b60205260409020549298909750919550909350505050565b606083156129855782515f0361297e576001600160a01b0385163b61297e5760405162461bcd60e51b815260206004820152601d60248201527f416464726573733a2063616c6c20746f206e6f6e2d636f6e74726163740000006044820152606401611514565b50816123df565b6123df8383612a21565b5f8261299b8584612a4b565b14949350505050565b60408101515f9073eeeeeeeeeeeeeeeeeeeeeeeeeeeeeeeeeeeeeeed196001600160a01b03851601612a0457803410156129f1576040516374c5672b60e01b815260040160405180910390fd5b6129ff836020015182612431565b612a17565b612a1784845f0151856020015184612a8d565b5060019392505050565b815115612a315781518083602001fd5b8060405162461bcd60e51b8152600401611514919061407b565b5f81815b8451811015612a8557612a7b82868381518110612a6e57612a6e61353f565b6020026020010151612adc565b9150600101612a4f565b509392505050565b60405181606052826040528360601b602c526323b872dd60601b600c5260205f6064601c5f895af13d1560015f51141716612acf57637939f4245f526004601cfd5b5f60605260405250505050565b5f818310612af6575f828152602084905260409020610917565b5f838152602083905260409020610917565b60405180606001604052805f151581526020015f6001600160a01b03168152602001612b4660405180604001604052805f8152602001606081525090565b905290565b6001600160a01b0381168114611032575f80fd5b5f60208284031215612b6f575f80fd5b813561091781612b4b565b634e487b7160e01b5f52604160045260245ffd5b604080519081016001600160401b0381118282101715612bb057612bb0612b7a565b60405290565b60405160c081016001600160401b0381118282101715612bb057612bb0612b7a565b60405161016081016001600160401b0381118282101715612bb057612bb0612b7a565b604051608081016001600160401b0381118282101715612bb057612bb0612b7a565b604051606081016001600160401b0381118282101715612bb057612bb0612b7a565b604051601f8201601f191681016001600160401b0381118282101715612c6757612c67612b7a565b604052919050565b5f6001600160401b03821115612c8757612c87612b7a565b5060051b60200190565b5f82601f830112612ca0575f80fd5b81356020612cb5612cb083612c6f565b612c3f565b8083825260208201915060208460051b870101935086841115612cd6575f80fd5b602086015b84811015612cfb578035612cee81612b4b565b8352918301918301612cdb565b509695505050505050565b5f6001600160401b03821115612d1e57612d1e612b7a565b50601f01601f191660200190565b5f612d39612cb084612d06565b9050828152838383011115612d4c575f80fd5b828260208301375f602084830101529392505050565b5f82601f830112612d71575f80fd5b61091783833560208501612d2c565b5f805f60608486031215612d92575f80fd5b83356001600160401b0380821115612da8575f80fd5b612db487838801612c91565b94506020860135915080821115612dc9575f80fd5b50612dd686828701612d62565b9250506040840135612de781612b4b565b809150509250925092565b6001600160401b0381168114611032575f80fd5b5f805f8060808587031215612e19575f80fd5b8435612e2481612df2565b93506020850135612e3481612df2565b92506040850135612e4481612df2565b91506060850135612e5481612df2565b939692955090935050565b5f8060408385031215612e70575f80fd5b82356001600160401b03811115612e85575f80fd5b612e9185828601612d62565b9250506020830135612ea281612b4b565b809150509250929050565b5f60208284031215612ebd575f80fd5b5035919050565b5f6020808385031215612ed5575f80fd5b82356001600160401b03811115612eea575f80fd5b8301601f81018513612efa575f80fd5b8035612f08612cb082612c6f565b81815260069190911b82018301908381019087831115612f26575f80fd5b928401925b82841015612f675760408489031215612f42575f80fd5b612f4a612b8e565b843581528585013586820152825260409093019290840190612f2b565b979650505050505050565b5f5b83811015612f8c578181015183820152602001612f74565b50505f910152565b5f8151808452612fab816020860160208601612f72565b601f01601f19169290920160200192915050565b828152604060208201525f6123df6040830184612f94565b6020815281511515602082015260018060a01b0360208301511660408201525f60408301516060808401528051608084015260208101519050604060a08401526123df60c0840182612f94565b5f8060408385031215613035575f80fd5b8235915060208301356001600160401b0380821115613052575f80fd5b9084019060408287031215613065575f80fd5b61306d612b8e565b82358152602083013582811115613082575f80fd5b80840193505086601f840112613096575f80fd5b6130a587843560208601612d2c565b60208201528093505050509250929050565b5f80602083850312156130c8575f80fd5b82356001600160401b03808211156130de575f80fd5b818501915085601f8301126130f1575f80fd5b8135818111156130ff575f80fd5b8660208260051b8501011115613113575f80fd5b60209290920196919550909350505050565b5f60208083016020845280855180835260408601915060408160051b8701019250602087015f5b8281101561317a57603f19888603018452613168858351612f94565b9450928501929085019060010161314c565b5092979650505050505050565b5f8060408385031215613198575f80fd5b82356001600160401b03808211156131ae575f80fd5b6131ba86838701612c91565b93506020915081850135818111156131d0575f80fd5b8501601f810187136131e0575f80fd5b80356131ee612cb082612c6f565b81815260059190911b8201840190848101908983111561320c575f80fd5b8584015b8381101561324257803586811115613226575f80fd5b6132348c8983890101612d62565b845250918601918601613210565b508096505050505050509250929050565b602080825282518282018190525f919060409081850190868401855b8281101561329d57815180516001600160a01b0316855286015186850152928401929085019060010161326f565b5091979650505050505050565b63ffffffff81168114611032575f80fd5b5f80604083850312156132cc575f80fd5b82356001600160801b03811681146132e2575f80fd5b91506020830135612ea2816132aa565b634e487b7160e01b5f52602160045260245ffd5b602081016007831061332657634e487b7160e01b5f52602160045260245ffd5b91905290565b5f806040838503121561333d575f80fd5b8235915060208301356001600160401b03811115613359575f80fd5b61336585828601612d62565b9150509250929050565b6001600160401b0395861681529385166020850152918416604084015290921660608201526001600160a01b03909116608082015260a00190565b634e487b7160e01b5f52601160045260245ffd5b6001600160401b03818116838216019080821115610d3b57610d3b6133aa565b80516133e981612b4b565b919050565b5f82601f8301126133fd575f80fd5b815161340b612cb082612d06565b81815284602083860101111561341f575f80fd5b6123df826020830160208701612f72565b5f60408284031215613440575f80fd5b613448612b8e565b90508151815260208201516001600160401b03811115613466575f80fd5b613472848285016133ee565b60208301525092915050565b5f6020828403121561348e575f80fd5b81516001600160401b03808211156134a4575f80fd5b9083019060c082860312156134b7575f80fd5b6134bf612bb6565b8251815260208301516134d181612b4b565b602082015260408301516134e481612b4b565b60408201526060830151828111156134fa575f80fd5b61350687828601613430565b6060830152506080830151608082015260a083015160a082015280935050505092915050565b8181038181111561091a5761091a6133aa565b634e487b7160e01b5f52603260045260245ffd5b600181811c9082168061356757607f821691505b60208210810361358557634e487b7160e01b5f52602260045260245ffd5b50919050565b601f82111561081457805f5260205f20601f840160051c810160208510156135b05750805b601f840160051c820191505b81811015612874575f81556001016135bc565b81516001600160401b038111156135e8576135e8612b7a565b6135fc816135f68454613553565b8461358b565b602080601f83116001811461362f575f84156136185750858301515b5f19600386901b1c1916600185901b1785556122ee565b5f85815260208120601f198616915b8281101561365d5788860151825594840194600190910190840161363e565b508582101561367a57878501515f19600388901b60f8161c191681555b5050505050600190811b01905550565b8281525f602060406020840152835460408401526001808501604060608601525f81546136b681613553565b80608089015260a0600183165f81146136d657600181146136f25761371f565b60ff19841660a08b015260a083151560051b8b0101945061371f565b855f5260205f205f5b848110156137165781548c82018501529088019089016136fb565b8b0160a0019550505b50929a9950505050505050505050565b5f808335601e19843603018112613744575f80fd5b8301803591506001600160401b0382111561375d575f80fd5b602001915036819003821315613771575f80fd5b9250929050565b6001600160801b0381811683821602808216919082811461379b5761379b6133aa565b505092915050565b634e487b7160e01b5f52601260045260245ffd5b5f6001600160801b03808416806137d0576137d06137a3565b92169190910492915050565b5f602082840312156137ec575f80fd5b815161091781612b4b565b805180151581146133e9575f80fd5b80516133e981612df2565b5f82601f830112613820575f80fd5b81516020613830612cb083612c6f565b8083825260208201915060208460051b870101935086841115613851575f80fd5b602086015b84811015612cfb57805161386981612b4b565b8352918301918301613856565b5f60208284031215613886575f80fd5b81516001600160401b038082111561389c575f80fd5b9083019061016082860312156138b0575f80fd5b6138b8612bd8565b6138c1836137f7565b81526138cf602084016137f7565b60208201526138e0604084016137f7565b60408201526138f160608401613806565b606082015261390260808401613806565b608082015261391360a08401613806565b60a082015261392460c08401613806565b60c082015261393560e084016133de565b60e08201526101006139488185016133de565b9082015261012061395a8482016133de565b908201526101408381015183811115613971575f80fd5b61397d88828701613811565b918301919091525095945050505050565b8082018082111561091a5761091a6133aa565b5f608082840312156139b1575f80fd5b6139b9612bfb565b9050815181526020808301516139ce81612b4b565b828201526040838101519083015260608301516001600160401b038111156139f4575f80fd5b8301601f81018513613a04575f80fd5b8051613a12612cb082612c6f565b81815260059190911b82018301908381019087831115613a30575f80fd5b928401925b82841015613a4e57835182529284019290840190613a35565b6060860152509295945050505050565b5f613a6b612cb084612c6f565b8381529050602080820190600585901b840186811115613a89575f80fd5b845b81811015613ac25780516001600160401b03811115613aa8575f80fd5b613ab4898289016139a1565b855250928201928201613a8b565b505050509392505050565b5f82601f830112613adc575f80fd5b61091783835160208501613a5e565b8051600f81900b81146133e9575f80fd5b80516133e9816132aa565b5f805f805f8060c08789031215613b1c575f80fd5b86516001600160401b0380821115613b32575f80fd5b818901915089601f830112613b45575f80fd5b81516020613b55612cb083612c6f565b82815260069290921b8401810191818101908d841115613b73575f80fd5b948201945b83861015613bb4576040868f031215613b8f575f80fd5b613b97612b8e565b865181528387015184820152825260409095019490820190613b78565b918c0151919a50909350505080821115613bcc575f80fd5b50613bd989828a01613acd565b955050613be860408801613aeb565b9350613bf660608801613afc565b9250613c0460808801613afc565b9150613c1260a08801613afc565b90509295509295509295565b5f815180845260208085019450602084015f5b83811015613c58578151805188528301518388015260409096019590820190600101613c31565b509495945050505050565b5f60018060a01b03808a16835260e06020840152613c8460e084018a613c1e565b88600f0b60408501528381036060850152613c9f8189613c1e565b63ffffffff97881660808601529590961660a08401529290921660c0909101525095945050505050565b5f60208284031215613cd9575f80fd5b61091782613aeb565b5f60208284031215613cf2575f80fd5b81516001600160401b03811115613d07575f80fd5b8201601f81018413613d17575f80fd5b6123df84825160208401613a5e565b5f60208284031215613d36575f80fd5b610917826137f7565b5f805f60608486031215613d51575f80fd5b8351613d5c81612b4b565b6020850151909350613d6d81612b4b565b60408501519092506001600160401b03811115613d88575f80fd5b613d9486828701613430565b9150509250925092565b604081525f613db06040830185612f94565b90508260208301529392505050565b604081525f613dd16040830185612f94565b905060018060a01b03831660208301529392505050565b5f60018201613df957613df96133aa565b5060010190565b606081525f613e126060830186612f94565b6001600160a01b039490941660208301525060ff91909116604090910152919050565b5f82613e4357613e436137a3565b500490565b5f82613e5657613e566137a3565b500690565b5f60208284031215613e6b575f80fd5b81516001600160401b03811115613e80575f80fd5b6123df848285016139a1565b5f6020808385031215613e9d575f80fd5b82516001600160401b03811115613eb2575f80fd5b8301601f81018513613ec2575f80fd5b8051613ed0612cb082612c6f565b81815260609182028301840191848201919088841115613eee575f80fd5b938501935b83851015613f485780858a031215613f09575f80fd5b613f11612c1d565b8551613f1c81612b4b565b81528587015187820152604080870151613f3581612b4b565b9082015283529384019391850191613ef3565b50979650505050505050565b5f60ff821660ff8103613f6957613f696133aa565b60010192915050565b5f60208284031215613f82575f80fd5b5051919050565b5f60208284031215613f99575f80fd5b81516001600160401b0380821115613faf575f80fd5b9083019060c08286031215613fc2575f80fd5b613fca612bb6565b8251815260208301516020820152604083015182811115613fe9575f80fd5b613ff5878286016133ee565b60408301525060608301518281111561400c575f80fd5b61401887828601613430565b60608301525061402a608084016133de565b608082015261403b60a084016133de565b60a082015295945050505050565b5f825161405a818460208701612f72565b9190910192915050565b808202811582820484141761091a5761091a6133aa565b602081525f6109176020830184612f9456fe416464726573733a206c6f772d6c6576656c2064656c65676174652063616c6c206661696c6564a2646970667358221220a990e16ea3e8a696f46cd70da7b910ced8303e756713e910819b24e9496fb98564736f6c63430008160033",
    "opcodes": "PUSH1 0x80 PUSH1 0x40 MSTORE PUSH1 0x4 CALLDATASIZE LT PUSH2 0x24C JUMPI PUSH0 CALLDATALOAD PUSH1 0xE0 SHR DUP1 PUSH4 0x73AF3453 GT PUSH2 0x134 JUMPI DUP1 PUSH4 0xD864089F GT PUSH2 0xB3 JUMPI DUP1 PUSH4 0xEB11AF93 GT PUSH2 0x78 JUMPI DUP1 PUSH4 0xEB11AF93 EQ PUSH2 0x732 JUMPI DUP1 PUSH4 0xEDD146CC EQ PUSH2 0x75E JUMPI DUP1 PUSH4 0xEF2920FC EQ PUSH2 0x77D JUMPI DUP1 PUSH4 0xF5B0DFB7 EQ PUSH2 0x790 JUMPI DUP1 PUSH4 0xF6F25891 EQ PUSH2 0x7AF JUMPI DUP1 PUSH4 0xFC9C8D39 EQ PUSH2 0x7DA JUMPI PUSH0 DUP1 REVERT JUMPDEST DUP1 PUSH4 0xD864089F EQ PUSH2 0x696 JUMPI DUP1 PUSH4 0xDF868ED3 EQ PUSH2 0x6B5 JUMPI DUP1 PUSH4 0xDFF7D2C7 EQ PUSH2 0x6C9 JUMPI DUP1 PUSH4 0xE744092E EQ PUSH2 0x6EF JUMPI DUP1 PUSH4 0xE7EFCFC2 EQ PUSH2 0x71D JUMPI PUSH0 DUP1 REVERT JUMPDEST DUP1 PUSH4 0xA0CF0AEA GT PUSH2 0xF9 JUMPI DUP1 PUSH4 0xA0CF0AEA EQ PUSH2 0x5D3 JUMPI DUP1 PUSH4 0xAC9650D8 EQ PUSH2 0x5FA JUMPI DUP1 PUSH4 0xB2B878D0 EQ PUSH2 0x626 JUMPI DUP1 PUSH4 0xCB0E85A6 EQ PUSH2 0x652 JUMPI DUP1 PUSH4 0xD2E17F59 EQ PUSH2 0x670 JUMPI PUSH0 DUP1 REVERT JUMPDEST DUP1 PUSH4 0x73AF3453 EQ PUSH2 0x53B JUMPI DUP1 PUSH4 0x785E9E86 EQ PUSH2 0x55A JUMPI DUP1 PUSH4 0x7C435D29 EQ PUSH2 0x579 JUMPI DUP1 PUSH4 0x95355B3B EQ PUSH2 0x598 JUMPI DUP1 PUSH4 0x9AF5C09D EQ PUSH2 0x5AD JUMPI PUSH0 DUP1 REVERT JUMPDEST DUP1 PUSH4 0x42FDA9C7 GT PUSH2 0x1CB JUMPI DUP1 PUSH4 0x57089739 GT PUSH2 0x190 JUMPI DUP1 PUSH4 0x57089739 EQ PUSH2 0x476 JUMPI DUP1 PUSH4 0x59A3977B EQ PUSH2 0x48F JUMPI DUP1 PUSH4 0x5F1B55F3 EQ PUSH2 0x4B1 JUMPI DUP1 PUSH4 0x62812A39 EQ PUSH2 0x4D0 JUMPI DUP1 PUSH4 0x6ECC5D62 EQ PUSH2 0x4FC JUMPI DUP1 PUSH4 0x6F2A6791 EQ PUSH2 0x51B JUMPI PUSH0 DUP1 REVERT JUMPDEST DUP1 PUSH4 0x42FDA9C7 EQ PUSH2 0x3BB JUMPI DUP1 PUSH4 0x4533D678 EQ PUSH2 0x3ED JUMPI DUP1 PUSH4 0x465831CD EQ PUSH2 0x424 JUMPI DUP1 PUSH4 0x4AB4BA42 EQ PUSH2 0x443 JUMPI DUP1 PUSH4 0x4D31D087 EQ PUSH2 0x457 JUMPI PUSH0 DUP1 REVERT JUMPDEST DUP1 PUSH4 0x2BBE0CAE GT PUSH2 0x211 JUMPI DUP1 PUSH4 0x2BBE0CAE EQ PUSH2 0x34A JUMPI DUP1 PUSH4 0x2D52EFF2 EQ PUSH2 0x35D JUMPI DUP1 PUSH4 0x2E1A7D4D EQ PUSH2 0x373 JUMPI DUP1 PUSH4 0x2EB4A7AB EQ PUSH2 0x392 JUMPI DUP1 PUSH4 0x38FFF2D0 EQ PUSH2 0x3A7 JUMPI PUSH0 DUP1 REVERT JUMPDEST DUP1 PUSH4 0x1FC1C64 EQ PUSH2 0x257 JUMPI DUP1 PUSH4 0xA6F0EE9 EQ PUSH2 0x295 JUMPI DUP1 PUSH4 0x15CC481E EQ PUSH2 0x2B6 JUMPI DUP1 PUSH4 0x2143E92F EQ PUSH2 0x2FC JUMPI DUP1 PUSH4 0x21755088 EQ PUSH2 0x31B JUMPI PUSH0 DUP1 REVERT JUMPDEST CALLDATASIZE PUSH2 0x253 JUMPI STOP JUMPDEST PUSH0 DUP1 REVERT JUMPDEST CALLVALUE DUP1 ISZERO PUSH2 0x262 JUMPI PUSH0 DUP1 REVERT JUMPDEST POP PUSH2 0x282 PUSH2 0x271 CALLDATASIZE PUSH1 0x4 PUSH2 0x2B5F JUMP JUMPDEST PUSH1 0xC PUSH1 0x20 MSTORE PUSH0 SWAP1 DUP2 MSTORE PUSH1 0x40 SWAP1 KECCAK256 SLOAD DUP2 JUMP JUMPDEST PUSH1 0x40 MLOAD SWAP1 DUP2 MSTORE PUSH1 0x20 ADD JUMPDEST PUSH1 0x40 MLOAD DUP1 SWAP2 SUB SWAP1 RETURN JUMPDEST CALLVALUE DUP1 ISZERO PUSH2 0x2A0 JUMPI PUSH0 DUP1 REVERT JUMPDEST POP PUSH2 0x2B4 PUSH2 0x2AF CALLDATASIZE PUSH1 0x4 PUSH2 0x2D80 JUMP JUMPDEST PUSH2 0x7F9 JUMP JUMPDEST STOP JUMPDEST CALLVALUE DUP1 ISZERO PUSH2 0x2C1 JUMPI PUSH0 DUP1 REVERT JUMPDEST POP PUSH32 0x0 JUMPDEST PUSH1 0x40 MLOAD PUSH1 0x1 PUSH1 0x1 PUSH1 0xA0 SHL SUB SWAP1 SWAP2 AND DUP2 MSTORE PUSH1 0x20 ADD PUSH2 0x28C JUMP JUMPDEST CALLVALUE DUP1 ISZERO PUSH2 0x307 JUMPI PUSH0 DUP1 REVERT JUMPDEST POP PUSH2 0x2B4 PUSH2 0x316 CALLDATASIZE PUSH1 0x4 PUSH2 0x2E06 JUMP JUMPDEST PUSH2 0x819 JUMP JUMPDEST CALLVALUE DUP1 ISZERO PUSH2 0x326 JUMPI PUSH0 DUP1 REVERT JUMPDEST POP PUSH1 0x5 SLOAD PUSH2 0x33A SWAP1 PUSH3 0x10000 SWAP1 DIV PUSH1 0xFF AND DUP2 JUMP JUMPDEST PUSH1 0x40 MLOAD SWAP1 ISZERO ISZERO DUP2 MSTORE PUSH1 0x20 ADD PUSH2 0x28C JUMP JUMPDEST PUSH2 0x2E4 PUSH2 0x358 CALLDATASIZE PUSH1 0x4 PUSH2 0x2E5F JUMP JUMPDEST PUSH2 0x8FC JUMP JUMPDEST CALLVALUE DUP1 ISZERO PUSH2 0x368 JUMPI PUSH0 DUP1 REVERT JUMPDEST POP PUSH1 0xA SLOAD ISZERO ISZERO PUSH2 0x33A JUMP JUMPDEST CALLVALUE DUP1 ISZERO PUSH2 0x37E JUMPI PUSH0 DUP1 REVERT JUMPDEST POP PUSH2 0x2B4 PUSH2 0x38D CALLDATASIZE PUSH1 0x4 PUSH2 0x2EAD JUMP JUMPDEST PUSH2 0x920 JUMP JUMPDEST CALLVALUE DUP1 ISZERO PUSH2 0x39D JUMPI PUSH0 DUP1 REVERT JUMPDEST POP PUSH2 0x282 PUSH1 0xA SLOAD DUP2 JUMP JUMPDEST CALLVALUE DUP1 ISZERO PUSH2 0x3B2 JUMPI PUSH0 DUP1 REVERT JUMPDEST POP PUSH1 0x1 SLOAD PUSH2 0x282 JUMP JUMPDEST CALLVALUE DUP1 ISZERO PUSH2 0x3C6 JUMPI PUSH0 DUP1 REVERT JUMPDEST POP PUSH32 0x0 PUSH2 0x282 JUMP JUMPDEST CALLVALUE DUP1 ISZERO PUSH2 0x3F8 JUMPI PUSH0 DUP1 REVERT JUMPDEST POP PUSH1 0x6 SLOAD PUSH2 0x40C SWAP1 PUSH1 0x1 PUSH1 0x1 PUSH1 0x40 SHL SUB AND DUP2 JUMP JUMPDEST PUSH1 0x40 MLOAD PUSH1 0x1 PUSH1 0x1 PUSH1 0x40 SHL SUB SWAP1 SWAP2 AND DUP2 MSTORE PUSH1 0x20 ADD PUSH2 0x28C JUMP JUMPDEST CALLVALUE DUP1 ISZERO PUSH2 0x42F JUMPI PUSH0 DUP1 REVERT JUMPDEST POP PUSH2 0x2B4 PUSH2 0x43E CALLDATASIZE PUSH1 0x4 PUSH2 0x2EC4 JUMP JUMPDEST PUSH2 0xA4A JUMP JUMPDEST CALLVALUE DUP1 ISZERO PUSH2 0x44E JUMPI PUSH0 DUP1 REVERT JUMPDEST POP PUSH1 0x2 SLOAD PUSH2 0x282 JUMP JUMPDEST CALLVALUE DUP1 ISZERO PUSH2 0x462 JUMPI PUSH0 DUP1 REVERT JUMPDEST POP PUSH2 0x33A PUSH2 0x471 CALLDATASIZE PUSH1 0x4 PUSH2 0x2B5F JUMP JUMPDEST PUSH2 0xB01 JUMP JUMPDEST CALLVALUE DUP1 ISZERO PUSH2 0x481 JUMPI PUSH0 DUP1 REVERT JUMPDEST POP PUSH1 0x5 SLOAD PUSH2 0x33A SWAP1 PUSH1 0xFF AND DUP2 JUMP JUMPDEST CALLVALUE DUP1 ISZERO PUSH2 0x49A JUMPI PUSH0 DUP1 REVERT JUMPDEST POP PUSH2 0x4A3 PUSH2 0xB09 JUMP JUMPDEST PUSH1 0x40 MLOAD PUSH2 0x28C SWAP3 SWAP2 SWAP1 PUSH2 0x2FBF JUMP JUMPDEST CALLVALUE DUP1 ISZERO PUSH2 0x4BC JUMPI PUSH0 DUP1 REVERT JUMPDEST POP PUSH2 0x33A PUSH2 0x4CB CALLDATASIZE PUSH1 0x4 PUSH2 0x2EAD JUMP JUMPDEST PUSH2 0xB9E JUMP JUMPDEST CALLVALUE DUP1 ISZERO PUSH2 0x4DB JUMPI PUSH0 DUP1 REVERT JUMPDEST POP PUSH2 0x4EF PUSH2 0x4EA CALLDATASIZE PUSH1 0x4 PUSH2 0x2B5F JUMP JUMPDEST PUSH2 0xBA8 JUMP JUMPDEST PUSH1 0x40 MLOAD PUSH2 0x28C SWAP2 SWAP1 PUSH2 0x2FD7 JUMP JUMPDEST CALLVALUE DUP1 ISZERO PUSH2 0x507 JUMPI PUSH0 DUP1 REVERT JUMPDEST POP PUSH1 0x13 SLOAD PUSH2 0x2E4 SWAP1 PUSH1 0x1 PUSH1 0x1 PUSH1 0xA0 SHL SUB AND DUP2 JUMP JUMPDEST CALLVALUE DUP1 ISZERO PUSH2 0x526 JUMPI PUSH0 DUP1 REVERT JUMPDEST POP PUSH1 0x13 SLOAD PUSH2 0x33A SWAP1 PUSH1 0x1 PUSH1 0xA0 SHL SWAP1 DIV PUSH1 0xFF AND DUP2 JUMP JUMPDEST CALLVALUE DUP1 ISZERO PUSH2 0x546 JUMPI PUSH0 DUP1 REVERT JUMPDEST POP PUSH2 0x2B4 PUSH2 0x555 CALLDATASIZE PUSH1 0x4 PUSH2 0x3024 JUMP JUMPDEST PUSH2 0xBB9 JUMP JUMPDEST CALLVALUE DUP1 ISZERO PUSH2 0x565 JUMPI PUSH0 DUP1 REVERT JUMPDEST POP PUSH1 0x10 SLOAD PUSH2 0x2E4 SWAP1 PUSH1 0x1 PUSH1 0x1 PUSH1 0xA0 SHL SUB AND DUP2 JUMP JUMPDEST CALLVALUE DUP1 ISZERO PUSH2 0x584 JUMPI PUSH0 DUP1 REVERT JUMPDEST POP PUSH1 0x11 SLOAD PUSH2 0x2E4 SWAP1 PUSH1 0x1 PUSH1 0x1 PUSH1 0xA0 SHL SUB AND DUP2 JUMP JUMPDEST CALLVALUE DUP1 ISZERO PUSH2 0x5A3 JUMPI PUSH0 DUP1 REVERT JUMPDEST POP PUSH2 0x282 PUSH1 0x8 SLOAD DUP2 JUMP JUMPDEST CALLVALUE DUP1 ISZERO PUSH2 0x5B8 JUMPI PUSH0 DUP1 REVERT JUMPDEST POP PUSH1 0x5 SLOAD PUSH2 0x40C SWAP1 PUSH4 0x1000000 SWAP1 DIV PUSH1 0x1 PUSH1 0x1 PUSH1 0x40 SHL SUB AND DUP2 JUMP JUMPDEST CALLVALUE DUP1 ISZERO PUSH2 0x5DE JUMPI PUSH0 DUP1 REVERT JUMPDEST POP PUSH2 0x2E4 PUSH20 0xEEEEEEEEEEEEEEEEEEEEEEEEEEEEEEEEEEEEEEEE DUP2 JUMP JUMPDEST CALLVALUE DUP1 ISZERO PUSH2 0x605 JUMPI PUSH0 DUP1 REVERT JUMPDEST POP PUSH2 0x619 PUSH2 0x614 CALLDATASIZE PUSH1 0x4 PUSH2 0x30B7 JUMP JUMPDEST PUSH2 0xC5B JUMP JUMPDEST PUSH1 0x40 MLOAD PUSH2 0x28C SWAP2 SWAP1 PUSH2 0x3125 JUMP JUMPDEST CALLVALUE DUP1 ISZERO PUSH2 0x631 JUMPI PUSH0 DUP1 REVERT JUMPDEST POP PUSH2 0x645 PUSH2 0x640 CALLDATASIZE PUSH1 0x4 PUSH2 0x3187 JUMP JUMPDEST PUSH2 0xD42 JUMP JUMPDEST PUSH1 0x40 MLOAD PUSH2 0x28C SWAP2 SWAP1 PUSH2 0x3253 JUMP JUMPDEST CALLVALUE DUP1 ISZERO PUSH2 0x65D JUMPI PUSH0 DUP1 REVERT JUMPDEST POP PUSH1 0x5 SLOAD PUSH2 0x33A SWAP1 PUSH2 0x100 SWAP1 DIV PUSH1 0xFF AND DUP2 JUMP JUMPDEST CALLVALUE DUP1 ISZERO PUSH2 0x67B JUMPI PUSH0 DUP1 REVERT JUMPDEST POP PUSH1 0x5 SLOAD PUSH2 0x40C SWAP1 PUSH1 0x1 PUSH1 0x98 SHL SWAP1 DIV PUSH1 0x1 PUSH1 0x1 PUSH1 0x40 SHL SUB AND DUP2 JUMP JUMPDEST CALLVALUE DUP1 ISZERO PUSH2 0x6A1 JUMPI PUSH0 DUP1 REVERT JUMPDEST POP PUSH2 0x2E4 PUSH2 0x6B0 CALLDATASIZE PUSH1 0x4 PUSH2 0x32BB JUMP JUMPDEST PUSH2 0xE3D JUMP JUMPDEST CALLVALUE DUP1 ISZERO PUSH2 0x6C0 JUMPI PUSH0 DUP1 REVERT JUMPDEST POP PUSH2 0x33A PUSH2 0xF72 JUMP JUMPDEST CALLVALUE DUP1 ISZERO PUSH2 0x6D4 JUMPI PUSH0 DUP1 REVERT JUMPDEST POP PUSH1 0x5 SLOAD PUSH2 0x40C SWAP1 PUSH1 0x1 PUSH1 0x58 SHL SWAP1 DIV PUSH1 0x1 PUSH1 0x1 PUSH1 0x40 SHL SUB AND DUP2 JUMP JUMPDEST CALLVALUE DUP1 ISZERO PUSH2 0x6FA JUMPI PUSH0 DUP1 REVERT JUMPDEST POP PUSH2 0x33A PUSH2 0x709 CALLDATASIZE PUSH1 0x4 PUSH2 0x2B5F JUMP JUMPDEST PUSH1 0xE PUSH1 0x20 MSTORE PUSH0 SWAP1 DUP2 MSTORE PUSH1 0x40 SWAP1 KECCAK256 SLOAD PUSH1 0xFF AND DUP2 JUMP JUMPDEST CALLVALUE DUP1 ISZERO PUSH2 0x728 JUMPI PUSH0 DUP1 REVERT JUMPDEST POP PUSH2 0x282 PUSH1 0x7 SLOAD DUP2 JUMP JUMPDEST CALLVALUE DUP1 ISZERO PUSH2 0x73D JUMPI PUSH0 DUP1 REVERT JUMPDEST POP PUSH2 0x751 PUSH2 0x74C CALLDATASIZE PUSH1 0x4 PUSH2 0x2B5F JUMP JUMPDEST PUSH2 0xF80 JUMP JUMPDEST PUSH1 0x40 MLOAD PUSH2 0x28C SWAP2 SWAP1 PUSH2 0x3306 JUMP JUMPDEST CALLVALUE DUP1 ISZERO PUSH2 0x769 JUMPI PUSH0 DUP1 REVERT JUMPDEST POP PUSH2 0x2B4 PUSH2 0x778 CALLDATASIZE PUSH1 0x4 PUSH2 0x332C JUMP JUMPDEST PUSH2 0xF8A JUMP JUMPDEST PUSH2 0x2B4 PUSH2 0x78B CALLDATASIZE PUSH1 0x4 PUSH2 0x2E5F JUMP JUMPDEST PUSH2 0xFEE JUMP JUMPDEST CALLVALUE DUP1 ISZERO PUSH2 0x79B JUMPI PUSH0 DUP1 REVERT JUMPDEST POP PUSH2 0x2B4 PUSH2 0x7AA CALLDATASIZE PUSH1 0x4 PUSH2 0x2EAD JUMP JUMPDEST PUSH2 0x100C JUMP JUMPDEST CALLVALUE DUP1 ISZERO PUSH2 0x7BA JUMPI PUSH0 DUP1 REVERT JUMPDEST POP PUSH2 0x282 PUSH2 0x7C9 CALLDATASIZE PUSH1 0x4 PUSH2 0x2EAD JUMP JUMPDEST PUSH1 0xB PUSH1 0x20 MSTORE PUSH0 SWAP1 DUP2 MSTORE PUSH1 0x40 SWAP1 KECCAK256 SLOAD DUP2 JUMP JUMPDEST CALLVALUE DUP1 ISZERO PUSH2 0x7E5 JUMPI PUSH0 DUP1 REVERT JUMPDEST POP PUSH1 0x12 SLOAD PUSH2 0x2E4 SWAP1 PUSH1 0x1 PUSH1 0x1 PUSH1 0xA0 SHL SUB AND DUP2 JUMP JUMPDEST PUSH2 0x801 PUSH2 0x1035 JUMP JUMPDEST PUSH2 0x809 PUSH2 0x1080 JUMP JUMPDEST PUSH2 0x814 DUP4 DUP4 DUP4 PUSH2 0x10A2 JUMP JUMPDEST POP POP POP JUMP JUMPDEST CALLER PUSH2 0x823 DUP2 PUSH2 0x1277 JUMP JUMPDEST PUSH2 0x82F DUP6 DUP6 DUP6 DUP6 PUSH2 0x1327 JUMP JUMPDEST PUSH1 0x5 DUP1 SLOAD PUSH4 0x1000000 PUSH1 0x1 PUSH1 0x98 SHL SUB NOT AND PUSH4 0x1000000 PUSH1 0x1 PUSH1 0x1 PUSH1 0x40 SHL SUB DUP9 DUP2 AND DUP3 MUL PUSH8 0xFFFFFFFFFFFFFFFF PUSH1 0x58 SHL NOT AND SWAP3 SWAP1 SWAP3 OR PUSH1 0x1 PUSH1 0x58 SHL DUP9 DUP5 AND DUP2 MUL SWAP2 SWAP1 SWAP2 OR PUSH8 0xFFFFFFFFFFFFFFFF PUSH1 0x98 SHL NOT AND PUSH1 0x1 PUSH1 0x98 SHL DUP9 DUP6 AND DUP2 MUL SWAP2 SWAP1 SWAP2 OR SWAP5 DUP6 SWAP1 SSTORE PUSH1 0x6 DUP1 SLOAD PUSH8 0xFFFFFFFFFFFFFFFF NOT AND DUP9 DUP7 AND SWAP1 DUP2 OR SWAP1 SWAP2 SSTORE PUSH1 0x40 MLOAD PUSH32 0xCB0FB7A7B87DB2F472EE8977444CFDBC51993CE660ACA27A5969A724FAE6DCF3 SWAP7 PUSH2 0x8ED SWAP7 SWAP6 DUP2 DIV DUP7 AND SWAP6 SWAP5 DUP2 DIV DUP6 AND SWAP5 SWAP4 SWAP1 DIV SWAP1 SWAP3 AND SWAP2 CALLER SWAP1 PUSH2 0x336F JUMP JUMPDEST PUSH1 0x40 MLOAD DUP1 SWAP2 SUB SWAP1 LOG1 POP POP POP POP POP JUMP JUMPDEST PUSH0 PUSH2 0x905 PUSH2 0x1035 JUMP JUMPDEST PUSH2 0x90D PUSH2 0x1080 JUMP JUMPDEST PUSH2 0x917 DUP4 DUP4 PUSH2 0x13C1 JUMP JUMPDEST SWAP1 POP JUMPDEST SWAP3 SWAP2 POP POP JUMP JUMPDEST CALLER PUSH2 0x92A DUP2 PUSH2 0x1277 JUMP JUMPDEST PUSH1 0x6 SLOAD PUSH2 0x943 SWAP1 PUSH1 0x1 PUSH1 0x1 PUSH1 0x40 SHL SUB AND PUSH3 0x278D00 PUSH2 0x33BE JUMP JUMPDEST PUSH1 0x1 PUSH1 0x1 PUSH1 0x40 SHL SUB AND TIMESTAMP GT PUSH2 0x96B JUMPI PUSH1 0x40 MLOAD PUSH4 0x7FCCE2A9 PUSH1 0xE0 SHL DUP2 MSTORE PUSH1 0x4 ADD PUSH1 0x40 MLOAD DUP1 SWAP2 SUB SWAP1 REVERT JUMPDEST PUSH1 0x1 SLOAD PUSH1 0x40 MLOAD PUSH4 0x68BCD8D PUSH1 0xE0 SHL DUP2 MSTORE PUSH0 SWAP2 PUSH1 0x1 PUSH1 0x1 PUSH1 0xA0 SHL SUB PUSH32 0x0 AND SWAP2 PUSH4 0x68BCD8D SWAP2 PUSH2 0x9BE SWAP2 PUSH1 0x4 ADD SWAP1 DUP2 MSTORE PUSH1 0x20 ADD SWAP1 JUMP JUMPDEST PUSH0 PUSH1 0x40 MLOAD DUP1 DUP4 SUB DUP2 DUP7 GAS STATICCALL ISZERO DUP1 ISZERO PUSH2 0x9D8 JUMPI RETURNDATASIZE PUSH0 DUP1 RETURNDATACOPY RETURNDATASIZE PUSH0 REVERT JUMPDEST POP POP POP POP PUSH1 0x40 MLOAD RETURNDATASIZE PUSH0 DUP3 RETURNDATACOPY PUSH1 0x1F RETURNDATASIZE SWAP1 DUP2 ADD PUSH1 0x1F NOT AND DUP3 ADD PUSH1 0x40 MSTORE PUSH2 0x9FF SWAP2 SWAP1 DUP2 ADD SWAP1 PUSH2 0x347E JUMP JUMPDEST SWAP1 POP PUSH1 0x2 SLOAD DUP4 GT ISZERO PUSH2 0xA24 JUMPI PUSH1 0x40 MLOAD PUSH4 0x7FCCE2A9 PUSH1 0xE0 SHL DUP2 MSTORE PUSH1 0x4 ADD PUSH1 0x40 MLOAD DUP1 SWAP2 SUB SWAP1 REVERT JUMPDEST DUP3 PUSH1 0x2 PUSH0 DUP3 DUP3 SLOAD PUSH2 0xA35 SWAP2 SWAP1 PUSH2 0x352C JUMP JUMPDEST SWAP1 SWAP2 SSTORE POP POP PUSH1 0x40 DUP2 ADD MLOAD PUSH2 0x814 SWAP1 CALLER DUP6 PUSH2 0x16E5 JUMP JUMPDEST PUSH2 0xA52 PUSH2 0x171F JUMP JUMPDEST CALLER PUSH2 0xA5C DUP2 PUSH2 0x1277 JUMP JUMPDEST PUSH0 JUMPDEST DUP3 MLOAD DUP2 LT ISZERO PUSH2 0x814 JUMPI PUSH0 DUP4 DUP3 DUP2 MLOAD DUP2 LT PUSH2 0xA7A JUMPI PUSH2 0xA7A PUSH2 0x353F JUMP JUMPDEST PUSH1 0x20 MUL PUSH1 0x20 ADD ADD MLOAD PUSH0 ADD MLOAD SWAP1 POP PUSH0 DUP5 DUP4 DUP2 MLOAD DUP2 LT PUSH2 0xA9A JUMPI PUSH2 0xA9A PUSH2 0x353F JUMP JUMPDEST PUSH1 0x20 SWAP1 DUP2 MUL SWAP2 SWAP1 SWAP2 ADD DUP2 ADD MLOAD DUP2 ADD MLOAD PUSH0 DUP5 DUP2 MSTORE PUSH1 0xB DUP4 MSTORE PUSH1 0x40 SWAP1 DUP2 SWAP1 KECCAK256 DUP3 SWAP1 SSTORE DUP1 MLOAD DUP3 DUP2 MSTORE CALLER SWAP4 DUP2 ADD SWAP4 SWAP1 SWAP4 MSTORE SWAP1 SWAP3 POP DUP4 SWAP2 PUSH32 0x941884A9A55191A7401466AAF8A0D2B7C8B082055A5A2B345B83C73940172AC4 SWAP2 ADD PUSH1 0x40 MLOAD DUP1 SWAP2 SUB SWAP1 LOG2 POP POP PUSH1 0x1 ADD PUSH2 0xA5E JUMP JUMPDEST PUSH0 PUSH1 0x1 PUSH2 0x91A JUMP JUMPDEST PUSH1 0x3 DUP1 SLOAD PUSH1 0x4 DUP1 SLOAD SWAP2 SWAP3 SWAP2 PUSH2 0xB1D SWAP1 PUSH2 0x3553 JUMP JUMPDEST DUP1 PUSH1 0x1F ADD PUSH1 0x20 DUP1 SWAP2 DIV MUL PUSH1 0x20 ADD PUSH1 0x40 MLOAD SWAP1 DUP2 ADD PUSH1 0x40 MSTORE DUP1 SWAP3 SWAP2 SWAP1 DUP2 DUP2 MSTORE PUSH1 0x20 ADD DUP3 DUP1 SLOAD PUSH2 0xB49 SWAP1 PUSH2 0x3553 JUMP JUMPDEST DUP1 ISZERO PUSH2 0xB94 JUMPI DUP1 PUSH1 0x1F LT PUSH2 0xB6B JUMPI PUSH2 0x100 DUP1 DUP4 SLOAD DIV MUL DUP4 MSTORE SWAP2 PUSH1 0x20 ADD SWAP2 PUSH2 0xB94 JUMP JUMPDEST DUP3 ADD SWAP2 SWAP1 PUSH0 MSTORE PUSH1 0x20 PUSH0 KECCAK256 SWAP1 JUMPDEST DUP2 SLOAD DUP2 MSTORE SWAP1 PUSH1 0x1 ADD SWAP1 PUSH1 0x20 ADD DUP1 DUP4 GT PUSH2 0xB77 JUMPI DUP3 SWAP1 SUB PUSH1 0x1F AND DUP3 ADD SWAP2 JUMPDEST POP POP POP POP POP SWAP1 POP DUP3 JUMP JUMPDEST PUSH0 PUSH2 0x91A DUP3 PUSH2 0x176F JUMP JUMPDEST PUSH2 0xBB0 PUSH2 0x2B08 JUMP JUMPDEST PUSH2 0x91A DUP3 PUSH2 0x17AD JUMP JUMPDEST PUSH2 0xBC1 PUSH2 0x18A3 JUMP JUMPDEST CALLER PUSH2 0xBCB DUP2 PUSH2 0x1277 JUMP JUMPDEST PUSH1 0x5 SLOAD PUSH3 0x10000 SWAP1 DIV PUSH1 0xFF AND ISZERO PUSH2 0xBF5 JUMPI PUSH1 0x40 MLOAD PUSH4 0x7FCCE2A9 PUSH1 0xE0 SHL DUP2 MSTORE PUSH1 0x4 ADD PUSH1 0x40 MLOAD DUP1 SWAP2 SUB SWAP1 REVERT JUMPDEST PUSH1 0xA DUP4 SWAP1 SSTORE DUP2 MLOAD PUSH1 0x3 SWAP1 DUP2 SSTORE PUSH1 0x20 DUP4 ADD MLOAD DUP4 SWAP2 SWAP1 PUSH1 0x4 SWAP1 PUSH2 0xC16 SWAP1 DUP3 PUSH2 0x35CF JUMP JUMPDEST POP SWAP1 POP POP PUSH32 0xDC7180CA4AFFC84269428ED20EF950E745126F11691B010C4A7D49458421008F PUSH1 0xA SLOAD PUSH1 0x3 PUSH1 0x40 MLOAD PUSH2 0xC4E SWAP3 SWAP2 SWAP1 PUSH2 0x368A JUMP JUMPDEST PUSH1 0x40 MLOAD DUP1 SWAP2 SUB SWAP1 LOG1 POP POP POP JUMP JUMPDEST PUSH1 0x60 DUP2 PUSH1 0x1 PUSH1 0x1 PUSH1 0x40 SHL SUB DUP2 GT ISZERO PUSH2 0xC75 JUMPI PUSH2 0xC75 PUSH2 0x2B7A JUMP JUMPDEST PUSH1 0x40 MLOAD SWAP1 DUP1 DUP3 MSTORE DUP1 PUSH1 0x20 MUL PUSH1 0x20 ADD DUP3 ADD PUSH1 0x40 MSTORE DUP1 ISZERO PUSH2 0xCA8 JUMPI DUP2 PUSH1 0x20 ADD JUMPDEST PUSH1 0x60 DUP2 MSTORE PUSH1 0x20 ADD SWAP1 PUSH1 0x1 SWAP1 SUB SWAP1 DUP2 PUSH2 0xC93 JUMPI SWAP1 POP JUMPDEST POP SWAP1 POP PUSH0 JUMPDEST DUP3 DUP2 LT ISZERO PUSH2 0xD3B JUMPI PUSH2 0xD16 ADDRESS DUP6 DUP6 DUP5 DUP2 DUP2 LT PUSH2 0xCCB JUMPI PUSH2 0xCCB PUSH2 0x353F JUMP JUMPDEST SWAP1 POP PUSH1 0x20 MUL DUP2 ADD SWAP1 PUSH2 0xCDD SWAP2 SWAP1 PUSH2 0x372F JUMP JUMPDEST DUP1 DUP1 PUSH1 0x1F ADD PUSH1 0x20 DUP1 SWAP2 DIV MUL PUSH1 0x20 ADD PUSH1 0x40 MLOAD SWAP1 DUP2 ADD PUSH1 0x40 MSTORE DUP1 SWAP4 SWAP3 SWAP2 SWAP1 DUP2 DUP2 MSTORE PUSH1 0x20 ADD DUP4 DUP4 DUP1 DUP3 DUP5 CALLDATACOPY PUSH0 SWAP3 ADD SWAP2 SWAP1 SWAP2 MSTORE POP PUSH2 0x18CF SWAP3 POP POP POP JUMP JUMPDEST DUP3 DUP3 DUP2 MLOAD DUP2 LT PUSH2 0xD28 JUMPI PUSH2 0xD28 PUSH2 0x353F JUMP JUMPDEST PUSH1 0x20 SWAP1 DUP2 MUL SWAP2 SWAP1 SWAP2 ADD ADD MSTORE PUSH1 0x1 ADD PUSH2 0xCAD JUMP JUMPDEST POP SWAP3 SWAP2 POP POP JUMP JUMPDEST DUP2 MLOAD DUP2 MLOAD PUSH1 0x60 SWAP2 SWAP1 DUP2 EQ PUSH2 0xD69 JUMPI PUSH1 0x40 MLOAD PUSH4 0x3DA4C02B PUSH1 0xE1 SHL DUP2 MSTORE PUSH1 0x4 ADD PUSH1 0x40 MLOAD DUP1 SWAP2 SUB SWAP1 REVERT JUMPDEST PUSH0 DUP2 PUSH1 0x1 PUSH1 0x1 PUSH1 0x40 SHL SUB DUP2 GT ISZERO PUSH2 0xD82 JUMPI PUSH2 0xD82 PUSH2 0x2B7A JUMP JUMPDEST PUSH1 0x40 MLOAD SWAP1 DUP1 DUP3 MSTORE DUP1 PUSH1 0x20 MUL PUSH1 0x20 ADD DUP3 ADD PUSH1 0x40 MSTORE DUP1 ISZERO PUSH2 0xDC6 JUMPI DUP2 PUSH1 0x20 ADD JUMPDEST PUSH1 0x40 DUP1 MLOAD DUP1 DUP3 ADD SWAP1 SWAP2 MSTORE PUSH0 DUP1 DUP3 MSTORE PUSH1 0x20 DUP3 ADD MSTORE DUP2 MSTORE PUSH1 0x20 ADD SWAP1 PUSH1 0x1 SWAP1 SUB SWAP1 DUP2 PUSH2 0xDA0 JUMPI SWAP1 POP JUMPDEST POP SWAP1 POP PUSH0 JUMPDEST DUP3 DUP2 LT ISZERO PUSH2 0xE34 JUMPI PUSH2 0xE0F DUP7 DUP3 DUP2 MLOAD DUP2 LT PUSH2 0xDE8 JUMPI PUSH2 0xDE8 PUSH2 0x353F JUMP JUMPDEST PUSH1 0x20 MUL PUSH1 0x20 ADD ADD MLOAD DUP7 DUP4 DUP2 MLOAD DUP2 LT PUSH2 0xE02 JUMPI PUSH2 0xE02 PUSH2 0x353F JUMP JUMPDEST PUSH1 0x20 MUL PUSH1 0x20 ADD ADD MLOAD PUSH2 0x18F4 JUMP JUMPDEST DUP3 DUP3 DUP2 MLOAD DUP2 LT PUSH2 0xE21 JUMPI PUSH2 0xE21 PUSH2 0x353F JUMP JUMPDEST PUSH1 0x20 SWAP1 DUP2 MUL SWAP2 SWAP1 SWAP2 ADD ADD MSTORE PUSH1 0x1 ADD PUSH2 0xDCB JUMP JUMPDEST POP SWAP5 SWAP4 POP POP POP POP JUMP JUMPDEST PUSH0 DUP1 PUSH4 0xFFFFFFFF DUP4 AND PUSH2 0xE54 DUP6 PUSH4 0x3B9ACA00 PUSH2 0x3778 JUMP JUMPDEST PUSH2 0xE5E SWAP2 SWAP1 PUSH2 0x37B7 JUMP JUMPDEST PUSH1 0x1 PUSH1 0x1 PUSH1 0x80 SHL SUB AND SWAP1 POP PUSH1 0x11 PUSH0 SWAP1 SLOAD SWAP1 PUSH2 0x100 EXP SWAP1 DIV PUSH1 0x1 PUSH1 0x1 PUSH1 0xA0 SHL SUB AND PUSH1 0x1 PUSH1 0x1 PUSH1 0xA0 SHL SUB AND PUSH4 0xC82051DD PUSH1 0x40 MLOAD DUP2 PUSH4 0xFFFFFFFF AND PUSH1 0xE0 SHL DUP2 MSTORE PUSH1 0x4 ADD PUSH1 0x20 PUSH1 0x40 MLOAD DUP1 DUP4 SUB DUP2 DUP7 GAS STATICCALL ISZERO DUP1 ISZERO PUSH2 0xEB9 JUMPI RETURNDATASIZE PUSH0 DUP1 RETURNDATACOPY RETURNDATASIZE PUSH0 REVERT JUMPDEST POP POP POP POP PUSH1 0x40 MLOAD RETURNDATASIZE PUSH1 0x1F NOT PUSH1 0x1F DUP3 ADD AND DUP3 ADD DUP1 PUSH1 0x40 MSTORE POP DUP2 ADD SWAP1 PUSH2 0xEDD SWAP2 SWAP1 PUSH2 0x37DC JUMP JUMPDEST PUSH1 0x1 PUSH1 0x1 PUSH1 0xA0 SHL SUB AND DUP2 PUSH1 0x1 PUSH1 0x1 PUSH1 0xA0 SHL SUB AND LT ISZERO PUSH2 0x917 JUMPI PUSH1 0x11 PUSH0 SWAP1 SLOAD SWAP1 PUSH2 0x100 EXP SWAP1 DIV PUSH1 0x1 PUSH1 0x1 PUSH1 0xA0 SHL SUB AND PUSH1 0x1 PUSH1 0x1 PUSH1 0xA0 SHL SUB AND PUSH4 0xC82051DD PUSH1 0x40 MLOAD DUP2 PUSH4 0xFFFFFFFF AND PUSH1 0xE0 SHL DUP2 MSTORE PUSH1 0x4 ADD PUSH1 0x20 PUSH1 0x40 MLOAD DUP1 DUP4 SUB DUP2 DUP7 GAS STATICCALL ISZERO DUP1 ISZERO PUSH2 0xF46 JUMPI RETURNDATASIZE PUSH0 DUP1 RETURNDATACOPY RETURNDATASIZE PUSH0 REVERT JUMPDEST POP POP POP POP PUSH1 0x40 MLOAD RETURNDATASIZE PUSH1 0x1F NOT PUSH1 0x1F DUP3 ADD AND DUP3 ADD DUP1 PUSH1 0x40 MSTORE POP DUP2 ADD SWAP1 PUSH2 0xF6A SWAP2 SWAP1 PUSH2 0x37DC JUMP JUMPDEST SWAP2 POP POP PUSH2 0x91A JUMP JUMPDEST PUSH0 PUSH2 0xF7B PUSH2 0x19AB JUMP JUMPDEST SWAP1 POP SWAP1 JUMP JUMPDEST PUSH0 PUSH2 0x91A DUP3 PUSH2 0x19F2 JUMP JUMPDEST PUSH2 0xF92 PUSH2 0x1035 JUMP JUMPDEST PUSH0 DUP2 DUP1 PUSH1 0x20 ADD SWAP1 MLOAD DUP2 ADD SWAP1 PUSH2 0xFA7 SWAP2 SWAP1 PUSH2 0x3876 JUMP JUMPDEST SWAP1 POP PUSH2 0xFB3 DUP4 DUP3 PUSH2 0x1A10 JUMP JUMPDEST PUSH2 0xFBD DUP4 DUP3 PUSH2 0x1BFF JUMP JUMPDEST PUSH32 0x91EFA3D50FECCDE0D0D202F8AE5C41CA0B2BE614CEBCB2BD2F4B019396E6568A DUP4 DUP4 PUSH1 0x40 MLOAD PUSH2 0xC4E SWAP3 SWAP2 SWAP1 PUSH2 0x2FBF JUMP JUMPDEST PUSH2 0xFF6 PUSH2 0x1035 JUMP JUMPDEST PUSH2 0xFFE PUSH2 0x1080 JUMP JUMPDEST PUSH2 0x1008 DUP3 DUP3 PUSH2 0x1E86 JUMP JUMPDEST POP POP JUMP JUMPDEST PUSH2 0x1014 PUSH2 0x1035 JUMP JUMPDEST DUP1 PUSH1 0x2 PUSH0 DUP3 DUP3 SLOAD PUSH2 0x1025 SWAP2 SWAP1 PUSH2 0x398E JUMP JUMPDEST SWAP1 SWAP2 SSTORE POP PUSH2 0x1032 SWAP1 POP DUP2 DUP2 JUMP JUMPDEST POP JUMP JUMPDEST CALLER PUSH1 0x1 PUSH1 0x1 PUSH1 0xA0 SHL SUB PUSH32 0x0 AND EQ PUSH2 0x107E JUMPI PUSH1 0x40 MLOAD PUSH4 0x75FD2B1 PUSH1 0xE0 SHL DUP2 MSTORE PUSH1 0x4 ADD PUSH1 0x40 MLOAD DUP1 SWAP2 SUB SWAP1 REVERT JUMPDEST JUMP JUMPDEST PUSH1 0x1 SLOAD PUSH0 SUB PUSH2 0x107E JUMPI PUSH1 0x40 MLOAD PUSH4 0xF68FE63 PUSH1 0xE2 SHL DUP2 MSTORE PUSH1 0x4 ADD PUSH1 0x40 MLOAD DUP1 SWAP2 SUB SWAP1 REVERT JUMPDEST DUP1 PUSH2 0x10AC DUP2 PUSH2 0x1277 JUMP JUMPDEST PUSH1 0x5 SLOAD PUSH3 0x10000 SWAP1 DIV PUSH1 0xFF AND PUSH2 0x10CE JUMPI PUSH1 0x5 DUP1 SLOAD PUSH3 0xFF0000 NOT AND PUSH3 0x10000 OR SWAP1 SSTORE JUMPDEST PUSH1 0x13 SLOAD PUSH1 0x1 PUSH1 0xA0 SHL SWAP1 DIV PUSH1 0xFF AND ISZERO PUSH2 0x11EC JUMPI PUSH1 0x60 DUP1 PUSH0 DUP1 PUSH0 DUP1 DUP9 DUP1 PUSH1 0x20 ADD SWAP1 MLOAD DUP2 ADD SWAP1 PUSH2 0x10FB SWAP2 SWAP1 PUSH2 0x3B07 JUMP JUMPDEST SWAP5 SWAP11 POP SWAP3 SWAP9 POP SWAP1 SWAP7 POP SWAP5 POP SWAP3 POP SWAP1 POP PUSH0 PUSH2 0x1115 DUP7 DUP6 PUSH2 0x1F27 JUMP JUMPDEST PUSH1 0x13 SLOAD PUSH1 0x10 SLOAD PUSH1 0x40 MLOAD PUSH4 0x6EF2AA63 PUSH1 0xE1 SHL DUP2 MSTORE SWAP3 SWAP4 POP PUSH0 SWAP3 PUSH1 0x1 PUSH1 0x1 PUSH1 0xA0 SHL SUB SWAP3 DUP4 AND SWAP3 PUSH4 0xDDE554C6 SWAP3 PUSH2 0x115A SWAP3 SWAP2 AND SWAP1 DUP13 SWAP1 DUP12 SWAP1 DUP9 SWAP1 DUP12 SWAP1 DUP12 SWAP1 ADDRESS SWAP1 PUSH1 0x4 ADD PUSH2 0x3C63 JUMP JUMPDEST PUSH1 0x20 PUSH1 0x40 MLOAD DUP1 DUP4 SUB DUP2 PUSH0 DUP8 GAS CALL ISZERO DUP1 ISZERO PUSH2 0x1176 JUMPI RETURNDATASIZE PUSH0 DUP1 RETURNDATACOPY RETURNDATASIZE PUSH0 REVERT JUMPDEST POP POP POP POP PUSH1 0x40 MLOAD RETURNDATASIZE PUSH1 0x1F NOT PUSH1 0x1F DUP3 ADD AND DUP3 ADD DUP1 PUSH1 0x40 MSTORE POP DUP2 ADD SWAP1 PUSH2 0x119A SWAP2 SWAP1 PUSH2 0x3CC9 JUMP JUMPDEST PUSH1 0x40 MLOAD PUSH1 0xF DUP3 SWAP1 SIGNEXTEND DUP2 MSTORE SWAP1 SWAP2 POP PUSH1 0x1 PUSH1 0x1 PUSH1 0xA0 SHL SUB DUP12 AND SWAP1 PUSH32 0x3701B4F70EB2CD5C342B79A3D54FFE5872BB7DE314E3BA3EF6DE34ED8A873373 SWAP1 PUSH1 0x20 ADD PUSH1 0x40 MLOAD DUP1 SWAP2 SUB SWAP1 LOG2 POP POP POP POP POP POP POP POP PUSH2 0x1271 JUMP JUMPDEST PUSH0 DUP4 DUP1 PUSH1 0x20 ADD SWAP1 MLOAD DUP2 ADD SWAP1 PUSH2 0x1201 SWAP2 SWAP1 PUSH2 0x3CE2 JUMP JUMPDEST DUP1 MLOAD SWAP1 SWAP2 POP PUSH0 JUMPDEST DUP2 DUP2 LT ISZERO PUSH2 0x123A JUMPI PUSH2 0x1232 DUP4 DUP3 DUP2 MLOAD DUP2 LT PUSH2 0x1225 JUMPI PUSH2 0x1225 PUSH2 0x353F JUMP JUMPDEST PUSH1 0x20 MUL PUSH1 0x20 ADD ADD MLOAD PUSH2 0x218F JUMP JUMPDEST PUSH1 0x1 ADD PUSH2 0x1208 JUMP JUMPDEST POP PUSH1 0x40 MLOAD PUSH1 0x1 PUSH1 0x1 PUSH1 0xA0 SHL SUB DUP6 AND SWAP1 PUSH32 0x7EC3272052827F7B50D9E84F98172CBB80C112DF1E377C5B97EA77F1812DB8D9 SWAP1 PUSH0 SWAP1 LOG2 POP POP JUMPDEST POP POP POP POP JUMP JUMPDEST PUSH1 0x1 SLOAD PUSH1 0x40 MLOAD PUSH4 0x29E40D4B PUSH1 0xE0 SHL DUP2 MSTORE PUSH1 0x4 DUP2 ADD SWAP2 SWAP1 SWAP2 MSTORE PUSH1 0x1 PUSH1 0x1 PUSH1 0xA0 SHL SUB DUP3 DUP2 AND PUSH1 0x24 DUP4 ADD MSTORE PUSH32 0x0 AND SWAP1 PUSH4 0x29E40D4B SWAP1 PUSH1 0x44 ADD PUSH1 0x20 PUSH1 0x40 MLOAD DUP1 DUP4 SUB DUP2 DUP7 GAS STATICCALL ISZERO DUP1 ISZERO PUSH2 0x12E6 JUMPI RETURNDATASIZE PUSH0 DUP1 RETURNDATACOPY RETURNDATASIZE PUSH0 REVERT JUMPDEST POP POP POP POP PUSH1 0x40 MLOAD RETURNDATASIZE PUSH1 0x1F NOT PUSH1 0x1F DUP3 ADD AND DUP3 ADD DUP1 PUSH1 0x40 MSTORE POP DUP2 ADD SWAP1 PUSH2 0x130A SWAP2 SWAP1 PUSH2 0x3D26 JUMP JUMPDEST PUSH2 0x1032 JUMPI PUSH1 0x40 MLOAD PUSH4 0x75FD2B1 PUSH1 0xE0 SHL DUP2 MSTORE PUSH1 0x4 ADD PUSH1 0x40 MLOAD DUP1 SWAP2 SUB SWAP1 REVERT JUMPDEST DUP4 PUSH1 0x1 PUSH1 0x1 PUSH1 0x40 SHL SUB AND TIMESTAMP GT DUP1 PUSH2 0x134F JUMPI POP DUP3 PUSH1 0x1 PUSH1 0x1 PUSH1 0x40 SHL SUB AND DUP5 PUSH1 0x1 PUSH1 0x1 PUSH1 0x40 SHL SUB AND GT JUMPDEST DUP1 PUSH2 0x136B JUMPI POP DUP2 PUSH1 0x1 PUSH1 0x1 PUSH1 0x40 SHL SUB AND DUP5 PUSH1 0x1 PUSH1 0x1 PUSH1 0x40 SHL SUB AND GT JUMPDEST DUP1 PUSH2 0x1387 JUMPI POP DUP1 PUSH1 0x1 PUSH1 0x1 PUSH1 0x40 SHL SUB AND DUP3 PUSH1 0x1 PUSH1 0x1 PUSH1 0x40 SHL SUB AND GT JUMPDEST DUP1 PUSH2 0x13A3 JUMPI POP DUP1 PUSH1 0x1 PUSH1 0x1 PUSH1 0x40 SHL SUB AND DUP4 PUSH1 0x1 PUSH1 0x1 PUSH1 0x40 SHL SUB AND GT JUMPDEST ISZERO PUSH2 0x1271 JUMPI PUSH1 0x40 MLOAD PUSH4 0x7FCCE2A9 PUSH1 0xE0 SHL DUP2 MSTORE PUSH1 0x4 ADD PUSH1 0x40 MLOAD DUP1 SWAP2 SUB SWAP1 REVERT JUMPDEST PUSH0 PUSH2 0x13CA PUSH2 0x171F JUMP JUMPDEST PUSH0 DUP1 PUSH0 PUSH2 0x13E9 PUSH1 0x40 MLOAD DUP1 PUSH1 0x40 ADD PUSH1 0x40 MSTORE DUP1 PUSH0 DUP2 MSTORE PUSH1 0x20 ADD PUSH1 0x60 DUP2 MSTORE POP SWAP1 JUMP JUMPDEST PUSH1 0x5 SLOAD PUSH1 0xFF AND ISZERO PUSH2 0x143B JUMPI DUP7 DUP1 PUSH1 0x20 ADD SWAP1 MLOAD DUP2 ADD SWAP1 PUSH2 0x1408 SWAP2 SWAP1 PUSH2 0x3D3F JUMP JUMPDEST SWAP2 SWAP7 POP SWAP4 POP SWAP1 POP PUSH2 0x1419 DUP6 DUP8 PUSH2 0x22F6 JUMP JUMPDEST PUSH2 0x1436 JUMPI PUSH1 0x40 MLOAD PUSH4 0x75FD2B1 PUSH1 0xE0 SHL DUP2 MSTORE PUSH1 0x4 ADD PUSH1 0x40 MLOAD DUP1 SWAP2 SUB SWAP1 REVERT JUMPDEST PUSH2 0x14A5 JUMP JUMPDEST DUP7 DUP1 PUSH1 0x20 ADD SWAP1 MLOAD DUP2 ADD SWAP1 PUSH2 0x144F SWAP2 SWAP1 PUSH2 0x3D3F JUMP JUMPDEST PUSH1 0x1 PUSH1 0x1 PUSH1 0xA0 SHL SUB DUP3 AND ISZERO ISZERO SWAP7 POP SWAP2 SWAP5 POP SWAP3 POP SWAP1 POP DUP4 PUSH2 0x146F JUMPI DUP6 PUSH2 0x1471 JUMP JUMPDEST DUP2 JUMPDEST SWAP5 POP DUP4 DUP1 ISZERO PUSH2 0x1487 JUMPI POP PUSH2 0x1485 DUP6 DUP8 PUSH2 0x22F6 JUMP JUMPDEST ISZERO JUMPDEST ISZERO PUSH2 0x14A5 JUMPI PUSH1 0x40 MLOAD PUSH4 0x75FD2B1 PUSH1 0xE0 SHL DUP2 MSTORE PUSH1 0x4 ADD PUSH1 0x40 MLOAD DUP1 SWAP2 SUB SWAP1 REVERT JUMPDEST PUSH1 0x5 SLOAD PUSH2 0x100 SWAP1 DIV PUSH1 0xFF AND DUP1 ISZERO PUSH2 0x14C8 JUMPI POP PUSH1 0x20 DUP2 ADD MLOAD MLOAD ISZERO DUP1 PUSH2 0x14C8 JUMPI POP DUP1 MLOAD ISZERO JUMPDEST ISZERO PUSH2 0x14E6 JUMPI PUSH1 0x40 MLOAD PUSH4 0xC19E07C5 PUSH1 0xE0 SHL DUP2 MSTORE PUSH1 0x4 ADD PUSH1 0x40 MLOAD DUP1 SWAP2 SUB SWAP1 REVERT JUMPDEST PUSH1 0x1 PUSH1 0x1 PUSH1 0xA0 SHL SUB DUP4 AND PUSH2 0x151D JUMPI PUSH1 0x40 MLOAD PUSH4 0xF4A513B9 PUSH1 0xE0 SHL DUP2 MSTORE PUSH1 0x1 PUSH1 0x1 PUSH1 0xA0 SHL SUB DUP7 AND PUSH1 0x4 DUP3 ADD MSTORE PUSH1 0x24 ADD JUMPDEST PUSH1 0x40 MLOAD DUP1 SWAP2 SUB SWAP1 REVERT JUMPDEST PUSH1 0x1 PUSH1 0x1 PUSH1 0xA0 SHL SUB DUP1 DUP7 AND PUSH0 SWAP1 DUP2 MSTORE PUSH1 0xF PUSH1 0x20 SWAP1 DUP2 MSTORE PUSH1 0x40 SWAP1 SWAP2 KECCAK256 DUP1 SLOAD SWAP3 DUP7 AND PUSH2 0x100 MUL PUSH2 0x100 PUSH1 0x1 PUSH1 0xA8 SHL SUB NOT SWAP1 SWAP4 AND SWAP3 SWAP1 SWAP3 OR DUP3 SSTORE DUP3 MLOAD PUSH1 0x1 DUP4 ADD SWAP1 DUP2 SSTORE SWAP1 DUP4 ADD MLOAD DUP4 SWAP2 SWAP1 PUSH1 0x2 DUP5 ADD SWAP1 PUSH2 0x1573 SWAP1 DUP3 PUSH2 0x35CF JUMP JUMPDEST POP POP PUSH1 0x5 SLOAD PUSH1 0xFF AND SWAP1 POP PUSH2 0x1587 JUMPI DUP5 PUSH2 0x158A JUMP JUMPDEST PUSH1 0x1 JUMPDEST DUP2 SLOAD PUSH1 0xFF NOT AND SWAP1 ISZERO ISZERO OR DUP2 SSTORE PUSH0 PUSH2 0x15A0 DUP8 PUSH2 0x23E7 JUMP JUMPDEST SWAP1 POP PUSH1 0xFF DUP2 AND PUSH2 0x1658 JUMPI PUSH1 0x8 SLOAD PUSH1 0x1 PUSH1 0x1 PUSH1 0xA0 SHL SUB DUP9 AND PUSH0 SWAP1 DUP2 MSTORE PUSH1 0xC PUSH1 0x20 MSTORE PUSH1 0x40 SWAP1 KECCAK256 SSTORE PUSH2 0x15D4 DUP8 PUSH1 0x1 JUMPDEST PUSH1 0xFF AND PUSH2 0x2401 JUMP JUMPDEST PUSH0 DUP10 PUSH1 0x8 SLOAD PUSH1 0x40 MLOAD PUSH1 0x20 ADD PUSH2 0x15EA SWAP3 SWAP2 SWAP1 PUSH2 0x3D9E JUMP JUMPDEST PUSH1 0x40 MLOAD PUSH1 0x20 DUP2 DUP4 SUB SUB DUP2 MSTORE SWAP1 PUSH1 0x40 MSTORE SWAP1 POP DUP8 PUSH1 0x1 PUSH1 0x1 PUSH1 0xA0 SHL SUB AND PUSH32 0xA197306E3DD5494A61A695381AA809A53B8E377A685E84E404A85D5A8DA6CC62 DUP3 DUP12 PUSH1 0x40 MLOAD PUSH2 0x1636 SWAP3 SWAP2 SWAP1 PUSH2 0x3DBF JUMP JUMPDEST PUSH1 0x40 MLOAD DUP1 SWAP2 SUB SWAP1 LOG2 PUSH1 0x8 DUP1 SLOAD SWAP1 PUSH0 PUSH2 0x164D DUP4 PUSH2 0x3DE8 JUMP JUMPDEST SWAP2 SWAP1 POP SSTORE POP POP PUSH2 0x16D9 JUMP JUMPDEST PUSH1 0x1 NOT PUSH1 0xFF DUP3 AND ADD PUSH2 0x1674 JUMPI PUSH2 0x166F DUP8 PUSH1 0x1 PUSH2 0x15CC JUMP JUMPDEST PUSH2 0x168B JUMP JUMPDEST PUSH1 0x2 NOT PUSH1 0xFF DUP3 AND ADD PUSH2 0x168B JUMPI PUSH2 0x168B DUP8 PUSH1 0x4 PUSH2 0x15CC JUMP JUMPDEST DUP7 PUSH1 0x1 PUSH1 0x1 PUSH1 0xA0 SHL SUB AND PUSH32 0xCEC1DA3F7F0B8A344DD1025D06E2DDD48B14880395997AD97CBDB439ACC761D4 DUP11 DUP11 PUSH2 0x16C1 DUP12 PUSH2 0x23E7 JUMP JUMPDEST PUSH1 0x40 MLOAD PUSH2 0x16D0 SWAP4 SWAP3 SWAP2 SWAP1 PUSH2 0x3E00 JUMP JUMPDEST PUSH1 0x40 MLOAD DUP1 SWAP2 SUB SWAP1 LOG2 JUMPDEST POP POP POP POP POP POP SWAP3 SWAP2 POP POP JUMP JUMPDEST PUSH20 0xEEEEEEEEEEEEEEEEEEEEEEEEEEEEEEEEEEEEEEED NOT PUSH1 0x1 PUSH1 0x1 PUSH1 0xA0 SHL SUB DUP5 AND ADD PUSH2 0x1714 JUMPI PUSH2 0x814 DUP3 DUP3 PUSH2 0x2431 JUMP JUMPDEST PUSH2 0x814 DUP4 DUP4 DUP4 PUSH2 0x244A JUMP JUMPDEST PUSH1 0x5 SLOAD TIMESTAMP PUSH4 0x1000000 SWAP1 SWAP2 DIV PUSH1 0x1 PUSH1 0x1 PUSH1 0x40 SHL SUB AND GT DUP1 PUSH2 0x1751 JUMPI POP PUSH1 0x5 SLOAD PUSH1 0x1 PUSH1 0x58 SHL SWAP1 DIV PUSH1 0x1 PUSH1 0x1 PUSH1 0x40 SHL SUB AND TIMESTAMP GT JUMPDEST ISZERO PUSH2 0x107E JUMPI PUSH1 0x40 MLOAD PUSH4 0x5B04F6AD PUSH1 0xE1 SHL DUP2 MSTORE PUSH1 0x4 ADD PUSH1 0x40 MLOAD DUP1 SWAP2 SUB SWAP1 REVERT JUMPDEST PUSH0 DUP1 PUSH2 0x177D PUSH2 0x100 DUP5 PUSH2 0x3E35 JUMP JUMPDEST SWAP1 POP PUSH0 PUSH2 0x178C PUSH2 0x100 DUP6 PUSH2 0x3E48 JUMP JUMPDEST PUSH0 SWAP3 DUP4 MSTORE PUSH1 0xD PUSH1 0x20 MSTORE PUSH1 0x40 SWAP1 SWAP3 KECCAK256 SLOAD PUSH1 0x1 SWAP1 SWAP3 SHL SWAP2 DUP3 AND SWAP1 SWAP2 EQ SWAP4 SWAP3 POP POP POP JUMP JUMPDEST PUSH2 0x17B5 PUSH2 0x2B08 JUMP JUMPDEST PUSH1 0x1 PUSH1 0x1 PUSH1 0xA0 SHL SUB DUP1 DUP4 AND PUSH0 SWAP1 DUP2 MSTORE PUSH1 0xF PUSH1 0x20 SWAP1 DUP2 MSTORE PUSH1 0x40 SWAP2 DUP3 SWAP1 KECCAK256 DUP3 MLOAD PUSH1 0x60 DUP2 ADD DUP5 MSTORE DUP2 SLOAD PUSH1 0xFF DUP2 AND ISZERO ISZERO DUP3 MSTORE PUSH2 0x100 SWAP1 DIV SWAP1 SWAP5 AND DUP5 DUP4 ADD MSTORE DUP3 MLOAD DUP1 DUP5 ADD DUP5 MSTORE PUSH1 0x1 DUP3 ADD DUP1 SLOAD DUP3 MSTORE PUSH1 0x2 DUP4 ADD DUP1 SLOAD SWAP4 SWAP6 DUP8 ADD SWAP5 SWAP3 SWAP4 SWAP2 SWAP3 DUP5 ADD SWAP2 PUSH2 0x1819 SWAP1 PUSH2 0x3553 JUMP JUMPDEST DUP1 PUSH1 0x1F ADD PUSH1 0x20 DUP1 SWAP2 DIV MUL PUSH1 0x20 ADD PUSH1 0x40 MLOAD SWAP1 DUP2 ADD PUSH1 0x40 MSTORE DUP1 SWAP3 SWAP2 SWAP1 DUP2 DUP2 MSTORE PUSH1 0x20 ADD DUP3 DUP1 SLOAD PUSH2 0x1845 SWAP1 PUSH2 0x3553 JUMP JUMPDEST DUP1 ISZERO PUSH2 0x1890 JUMPI DUP1 PUSH1 0x1F LT PUSH2 0x1867 JUMPI PUSH2 0x100 DUP1 DUP4 SLOAD DIV MUL DUP4 MSTORE SWAP2 PUSH1 0x20 ADD SWAP2 PUSH2 0x1890 JUMP JUMPDEST DUP3 ADD SWAP2 SWAP1 PUSH0 MSTORE PUSH1 0x20 PUSH0 KECCAK256 SWAP1 JUMPDEST DUP2 SLOAD DUP2 MSTORE SWAP1 PUSH1 0x1 ADD SWAP1 PUSH1 0x20 ADD DUP1 DUP4 GT PUSH2 0x1873 JUMPI DUP3 SWAP1 SUB PUSH1 0x1F AND DUP3 ADD SWAP2 JUMPDEST POP POP POP SWAP2 SWAP1 SWAP3 MSTORE POP POP POP SWAP1 MSTORE POP SWAP3 SWAP2 POP POP JUMP JUMPDEST PUSH1 0x6 SLOAD PUSH1 0x1 PUSH1 0x1 PUSH1 0x40 SHL SUB AND TIMESTAMP LT ISZERO PUSH2 0x107E JUMPI PUSH1 0x40 MLOAD PUSH4 0x4543CED1 PUSH1 0xE1 SHL DUP2 MSTORE PUSH1 0x4 ADD PUSH1 0x40 MLOAD DUP1 SWAP2 SUB SWAP1 REVERT JUMPDEST PUSH1 0x60 PUSH2 0x917 DUP4 DUP4 PUSH1 0x40 MLOAD DUP1 PUSH1 0x60 ADD PUSH1 0x40 MSTORE DUP1 PUSH1 0x27 DUP2 MSTORE PUSH1 0x20 ADD PUSH2 0x408E PUSH1 0x27 SWAP2 CODECOPY PUSH2 0x248A JUMP JUMPDEST PUSH1 0x40 DUP1 MLOAD DUP1 DUP3 ADD SWAP1 SWAP2 MSTORE PUSH0 DUP1 DUP3 MSTORE PUSH1 0x20 DUP3 ADD MSTORE PUSH0 DUP3 DUP1 PUSH1 0x20 ADD SWAP1 MLOAD DUP2 ADD SWAP1 PUSH2 0x191C SWAP2 SWAP1 PUSH2 0x3E5B JUMP JUMPDEST DUP1 MLOAD PUSH1 0x20 DUP3 ADD MLOAD PUSH1 0x40 DUP4 ADD MLOAD PUSH1 0x60 DUP5 ADD MLOAD SWAP4 SWAP5 POP SWAP2 SWAP3 SWAP1 SWAP2 SWAP1 PUSH0 PUSH2 0x193F DUP5 PUSH2 0x17AD JUMP JUMPDEST PUSH1 0x20 ADD MLOAD SWAP1 POP PUSH2 0x1952 DUP6 DUP6 DUP4 DUP7 DUP7 PUSH2 0x24FE JUMP JUMPDEST ISZERO PUSH2 0x1982 JUMPI PUSH1 0x40 MLOAD DUP1 PUSH1 0x40 ADD PUSH1 0x40 MSTORE DUP1 DUP3 PUSH1 0x1 PUSH1 0x1 PUSH1 0xA0 SHL SUB AND DUP2 MSTORE PUSH1 0x20 ADD DUP5 DUP2 MSTORE POP SWAP7 POP POP POP POP POP POP POP PUSH2 0x91A JUMP JUMPDEST PUSH1 0x40 DUP1 MLOAD DUP1 DUP3 ADD SWAP1 SWAP2 MSTORE PUSH1 0x1 PUSH1 0x1 PUSH1 0xA0 SHL SUB SWAP1 SWAP2 AND DUP2 MSTORE PUSH0 PUSH1 0x20 DUP3 ADD MSTORE SWAP9 SWAP8 POP POP POP POP POP POP POP POP JUMP JUMPDEST PUSH1 0x5 SLOAD PUSH0 SWAP1 TIMESTAMP PUSH4 0x1000000 SWAP1 SWAP2 DIV PUSH1 0x1 PUSH1 0x1 PUSH1 0x40 SHL SUB AND GT DUP1 ISZERO SWAP1 PUSH2 0x19E2 JUMPI POP PUSH1 0x5 SLOAD PUSH1 0x1 PUSH1 0x58 SHL SWAP1 DIV PUSH1 0x1 PUSH1 0x1 PUSH1 0x40 SHL SUB AND TIMESTAMP GT ISZERO JUMPDEST ISZERO PUSH2 0x19ED JUMPI POP PUSH1 0x1 SWAP1 JUMP JUMPDEST POP PUSH0 SWAP1 JUMP JUMPDEST PUSH0 PUSH2 0x19FC DUP3 PUSH2 0x23E7 JUMP JUMPDEST PUSH1 0xFF AND PUSH1 0x6 DUP2 GT ISZERO PUSH2 0x91A JUMPI PUSH2 0x91A PUSH2 0x32F2 JUMP JUMPDEST PUSH1 0x40 MLOAD PUSH4 0x68BCD8D PUSH1 0xE0 SHL DUP2 MSTORE PUSH1 0x4 DUP2 ADD DUP4 SWAP1 MSTORE PUSH0 SWAP1 PUSH32 0x0 PUSH1 0x1 PUSH1 0x1 PUSH1 0xA0 SHL SUB AND SWAP1 PUSH4 0x68BCD8D SWAP1 PUSH1 0x24 ADD PUSH0 PUSH1 0x40 MLOAD DUP1 DUP4 SUB DUP2 DUP7 GAS STATICCALL ISZERO DUP1 ISZERO PUSH2 0x1A74 JUMPI RETURNDATASIZE PUSH0 DUP1 RETURNDATACOPY RETURNDATASIZE PUSH0 REVERT JUMPDEST POP POP POP POP PUSH1 0x40 MLOAD RETURNDATASIZE PUSH0 DUP3 RETURNDATACOPY PUSH1 0x1F RETURNDATASIZE SWAP1 DUP2 ADD PUSH1 0x1F NOT AND DUP3 ADD PUSH1 0x40 MSTORE PUSH2 0x1A9B SWAP2 SWAP1 DUP2 ADD SWAP1 PUSH2 0x347E JUMP JUMPDEST PUSH1 0x40 DUP2 ADD MLOAD SWAP1 SWAP2 POP PUSH1 0x1 PUSH1 0x1 PUSH1 0xA0 SHL SUB AND PUSH20 0xEEEEEEEEEEEEEEEEEEEEEEEEEEEEEEEEEEEEEEEE EQ DUP1 ISZERO PUSH2 0x1ACF JUMPI POP DUP2 PUSH1 0x40 ADD MLOAD JUMPDEST ISZERO PUSH2 0x1AED JUMPI PUSH1 0x40 MLOAD PUSH4 0x7FCCE2A9 PUSH1 0xE0 SHL DUP2 MSTORE PUSH1 0x4 ADD PUSH1 0x40 MLOAD DUP1 SWAP2 SUB SWAP1 REVERT JUMPDEST PUSH1 0xE0 DUP3 ADD MLOAD PUSH1 0x11 DUP1 SLOAD PUSH1 0x1 PUSH1 0x1 PUSH1 0xA0 SHL SUB SWAP3 DUP4 AND PUSH1 0x1 PUSH1 0x1 PUSH1 0xA0 SHL SUB NOT SWAP2 DUP3 AND OR SWAP1 SWAP2 SSTORE PUSH2 0x100 DUP5 ADD MLOAD PUSH1 0x12 DUP1 SLOAD SWAP2 DUP5 AND SWAP2 SWAP1 SWAP3 AND OR SWAP1 SSTORE PUSH2 0x120 DUP4 ADD MLOAD PUSH1 0x13 DUP1 SLOAD PUSH1 0x40 DUP1 DUP8 ADD MLOAD ISZERO ISZERO PUSH1 0x1 PUSH1 0xA0 SHL MUL PUSH1 0x1 PUSH1 0x1 PUSH1 0xA8 SHL SUB NOT SWAP1 SWAP3 AND SWAP4 DUP6 AND SWAP4 SWAP1 SWAP4 OR OR SWAP1 SSTORE DUP3 ADD MLOAD AND PUSH20 0xEEEEEEEEEEEEEEEEEEEEEEEEEEEEEEEEEEEEEEEE EQ PUSH2 0x814 JUMPI PUSH1 0x40 DUP2 DUP2 ADD MLOAD PUSH1 0x10 DUP1 SLOAD PUSH1 0x1 PUSH1 0x1 PUSH1 0xA0 SHL SUB NOT AND PUSH1 0x1 PUSH1 0x1 PUSH1 0xA0 SHL SUB SWAP3 DUP4 AND SWAP1 DUP2 OR SWAP1 SWAP2 SSTORE PUSH1 0x13 SLOAD SWAP3 MLOAD PUSH4 0x95EA7B3 PUSH1 0xE0 SHL DUP2 MSTORE SWAP3 SWAP1 SWAP2 AND PUSH1 0x4 DUP4 ADD MSTORE PUSH0 NOT PUSH1 0x24 DUP4 ADD MSTORE SWAP1 PUSH4 0x95EA7B3 SWAP1 PUSH1 0x44 ADD PUSH1 0x20 PUSH1 0x40 MLOAD DUP1 DUP4 SUB DUP2 PUSH0 DUP8 GAS CALL ISZERO DUP1 ISZERO PUSH2 0x1BDB JUMPI RETURNDATASIZE PUSH0 DUP1 RETURNDATACOPY RETURNDATASIZE PUSH0 REVERT JUMPDEST POP POP POP POP PUSH1 0x40 MLOAD RETURNDATASIZE PUSH1 0x1F NOT PUSH1 0x1F DUP3 ADD AND DUP3 ADD DUP1 PUSH1 0x40 MSTORE POP DUP2 ADD SWAP1 PUSH2 0x1271 SWAP2 SWAP1 PUSH2 0x3D26 JUMP JUMPDEST PUSH2 0x1C08 DUP3 PUSH2 0x25A3 JUMP JUMPDEST DUP1 MLOAD PUSH1 0x5 DUP1 SLOAD PUSH1 0x20 DUP1 DUP6 ADD MLOAD PUSH2 0xFFFF NOT SWAP1 SWAP3 AND SWAP4 ISZERO ISZERO PUSH2 0xFF00 NOT AND SWAP4 SWAP1 SWAP4 OR PUSH2 0x100 SWAP2 ISZERO ISZERO SWAP2 SWAP1 SWAP2 MUL OR SWAP1 SSTORE PUSH1 0x40 DUP1 MLOAD PUSH4 0x5AB1BD53 PUSH1 0xE0 SHL DUP2 MSTORE SWAP1 MLOAD PUSH32 0x0 PUSH1 0x1 PUSH1 0x1 PUSH1 0xA0 SHL SUB AND SWAP3 PUSH4 0x5AB1BD53 SWAP3 PUSH1 0x4 DUP1 DUP3 ADD SWAP4 SWAP2 DUP3 SWAP1 SUB ADD DUP2 DUP7 GAS STATICCALL ISZERO DUP1 ISZERO PUSH2 0x1C93 JUMPI RETURNDATASIZE PUSH0 DUP1 RETURNDATACOPY RETURNDATASIZE PUSH0 REVERT JUMPDEST POP POP POP POP PUSH1 0x40 MLOAD RETURNDATASIZE PUSH1 0x1F NOT PUSH1 0x1F DUP3 ADD AND DUP3 ADD DUP1 PUSH1 0x40 MSTORE POP DUP2 ADD SWAP1 PUSH2 0x1CB7 SWAP2 SWAP1 PUSH2 0x37DC JUMP JUMPDEST PUSH1 0x9 DUP1 SLOAD PUSH1 0x1 PUSH1 0x1 PUSH1 0xA0 SHL SUB NOT AND PUSH1 0x1 PUSH1 0x1 PUSH1 0xA0 SHL SUB SWAP3 SWAP1 SWAP3 AND SWAP2 SWAP1 SWAP2 OR SWAP1 SSTORE PUSH1 0x60 DUP2 ADD MLOAD PUSH1 0x5 DUP1 SLOAD PUSH1 0x80 DUP5 ADD MLOAD PUSH1 0xA0 DUP6 ADD MLOAD PUSH4 0x1000000 PUSH1 0x1 PUSH1 0x98 SHL SUB NOT SWAP1 SWAP3 AND PUSH4 0x1000000 PUSH1 0x1 PUSH1 0x1 PUSH1 0x40 SHL SUB SWAP6 DUP7 AND DUP2 MUL PUSH8 0xFFFFFFFFFFFFFFFF PUSH1 0x58 SHL NOT AND SWAP2 SWAP1 SWAP2 OR PUSH1 0x1 PUSH1 0x58 SHL SWAP3 DUP7 AND DUP4 MUL OR PUSH8 0xFFFFFFFFFFFFFFFF PUSH1 0x98 SHL NOT AND PUSH1 0x1 PUSH1 0x98 SHL SWAP4 DUP7 AND DUP5 MUL OR SWAP4 DUP5 SWAP1 SSTORE PUSH1 0xC0 DUP7 ADD MLOAD PUSH1 0x6 DUP1 SLOAD PUSH8 0xFFFFFFFFFFFFFFFF NOT AND SWAP2 DUP8 AND SWAP2 DUP3 OR SWAP1 SSTORE PUSH2 0x1D7B SWAP6 SWAP2 DUP6 DIV DUP3 AND SWAP5 SWAP3 DUP4 DIV DUP3 AND SWAP4 SWAP1 SWAP3 DIV AND SWAP1 PUSH2 0x1327 JUMP JUMPDEST PUSH1 0x5 SLOAD PUSH1 0x6 SLOAD PUSH1 0x40 MLOAD PUSH32 0xCB0FB7A7B87DB2F472EE8977444CFDBC51993CE660ACA27A5969A724FAE6DCF3 SWAP3 PUSH2 0x1DDB SWAP3 PUSH1 0x1 PUSH1 0x1 PUSH1 0x40 SHL SUB PUSH4 0x1000000 DUP4 DIV DUP2 AND SWAP4 PUSH1 0x1 PUSH1 0x58 SHL DUP5 DIV DUP3 AND SWAP4 PUSH1 0x1 PUSH1 0x98 SHL SWAP1 DIV DUP3 AND SWAP3 SWAP1 SWAP2 AND SWAP1 CALLER SWAP1 PUSH2 0x336F JUMP JUMPDEST PUSH1 0x40 MLOAD DUP1 SWAP2 SUB SWAP1 LOG1 PUSH2 0x140 DUP2 ADD MLOAD MLOAD PUSH0 DUP2 SWAP1 SUB PUSH2 0x1E27 JUMPI PUSH0 DUP1 MSTORE PUSH1 0xE PUSH1 0x20 MSTORE PUSH32 0xE710864318D4A32F37D6CE54CB3FADBEF648DD12D8DBDF53973564D56B7F881C DUP1 SLOAD PUSH1 0xFF NOT AND PUSH1 0x1 OR SWAP1 SSTORE JUMPDEST PUSH0 JUMPDEST DUP2 DUP2 LT ISZERO PUSH2 0x1271 JUMPI PUSH1 0x1 PUSH1 0xE PUSH0 DUP6 PUSH2 0x140 ADD MLOAD DUP5 DUP2 MLOAD DUP2 LT PUSH2 0x1E4D JUMPI PUSH2 0x1E4D PUSH2 0x353F JUMP JUMPDEST PUSH1 0x20 SWAP1 DUP2 MUL SWAP2 SWAP1 SWAP2 ADD DUP2 ADD MLOAD PUSH1 0x1 PUSH1 0x1 PUSH1 0xA0 SHL SUB AND DUP3 MSTORE DUP2 ADD SWAP2 SWAP1 SWAP2 MSTORE PUSH1 0x40 ADD PUSH0 KECCAK256 DUP1 SLOAD PUSH1 0xFF NOT AND SWAP2 ISZERO ISZERO SWAP2 SWAP1 SWAP2 OR SWAP1 SSTORE PUSH1 0x1 ADD PUSH2 0x1E29 JUMP JUMPDEST PUSH2 0x1E8E PUSH2 0x25F1 JUMP JUMPDEST PUSH0 DUP3 DUP1 PUSH1 0x20 ADD SWAP1 MLOAD DUP2 ADD SWAP1 PUSH2 0x1EA3 SWAP2 SWAP1 PUSH2 0x3E8C JUMP JUMPDEST DUP1 MLOAD SWAP1 SWAP2 POP PUSH0 JUMPDEST DUP2 DUP2 PUSH1 0xFF AND LT ISZERO PUSH2 0x1EED JUMPI PUSH2 0x1EDB DUP4 DUP3 PUSH1 0xFF AND DUP2 MLOAD DUP2 LT PUSH2 0x1ECD JUMPI PUSH2 0x1ECD PUSH2 0x353F JUMP JUMPDEST PUSH1 0x20 MUL PUSH1 0x20 ADD ADD MLOAD DUP6 PUSH2 0x2639 JUMP JUMPDEST DUP1 PUSH2 0x1EE5 DUP2 PUSH2 0x3F54 JUMP JUMPDEST SWAP2 POP POP PUSH2 0x1EAA JUMP JUMPDEST POP PUSH1 0x40 MLOAD PUSH1 0x1 PUSH1 0x1 PUSH1 0xA0 SHL SUB DUP5 AND SWAP1 PUSH32 0xAF2AEB2D4FE57415A1BBC0422472FA1BD4FF48B36FEB2E7D2D3CE40085558985 SWAP1 PUSH0 SWAP1 LOG2 POP POP POP POP JUMP JUMPDEST DUP2 MLOAD PUSH1 0x60 SWAP1 PUSH0 DUP2 PUSH1 0x1 PUSH1 0x1 PUSH1 0x40 SHL SUB DUP2 GT ISZERO PUSH2 0x1F45 JUMPI PUSH2 0x1F45 PUSH2 0x2B7A JUMP JUMPDEST PUSH1 0x40 MLOAD SWAP1 DUP1 DUP3 MSTORE DUP1 PUSH1 0x20 MUL PUSH1 0x20 ADD DUP3 ADD PUSH1 0x40 MSTORE DUP1 ISZERO PUSH2 0x1F89 JUMPI DUP2 PUSH1 0x20 ADD JUMPDEST PUSH1 0x40 DUP1 MLOAD DUP1 DUP3 ADD SWAP1 SWAP2 MSTORE PUSH0 DUP1 DUP3 MSTORE PUSH1 0x20 DUP3 ADD MSTORE DUP2 MSTORE PUSH1 0x20 ADD SWAP1 PUSH1 0x1 SWAP1 SUB SWAP1 DUP2 PUSH2 0x1F63 JUMPI SWAP1 POP JUMPDEST POP SWAP1 POP PUSH0 JUMPDEST DUP3 DUP2 LT ISZERO PUSH2 0xE34 JUMPI PUSH0 DUP7 DUP3 DUP2 MLOAD DUP2 LT PUSH2 0x1FA9 JUMPI PUSH2 0x1FA9 PUSH2 0x353F JUMP JUMPDEST PUSH1 0x20 MUL PUSH1 0x20 ADD ADD MLOAD PUSH0 ADD MLOAD SWAP1 POP PUSH0 DUP8 DUP4 DUP2 MLOAD DUP2 LT PUSH2 0x1FC9 JUMPI PUSH2 0x1FC9 PUSH2 0x353F JUMP JUMPDEST PUSH1 0x20 MUL PUSH1 0x20 ADD ADD MLOAD PUSH1 0x20 ADD MLOAD SWAP1 POP PUSH0 DUP9 DUP5 DUP2 MLOAD DUP2 LT PUSH2 0x1FEA JUMPI PUSH2 0x1FEA PUSH2 0x353F JUMP JUMPDEST PUSH1 0x20 MUL PUSH1 0x20 ADD ADD MLOAD PUSH1 0x40 ADD MLOAD SWAP1 POP PUSH0 DUP10 DUP6 DUP2 MLOAD DUP2 LT PUSH2 0x200B JUMPI PUSH2 0x200B PUSH2 0x353F JUMP JUMPDEST PUSH1 0x20 SWAP1 DUP2 MUL SWAP2 SWAP1 SWAP2 ADD DUP2 ADD MLOAD PUSH1 0x60 ADD MLOAD PUSH1 0x1 PUSH1 0x1 PUSH1 0xA0 SHL SUB DUP1 DUP7 AND PUSH0 SWAP1 DUP2 MSTORE PUSH1 0xF SWAP1 SWAP4 MSTORE PUSH1 0x40 SWAP1 SWAP3 KECCAK256 SLOAD SWAP1 SWAP3 POP PUSH2 0x100 SWAP1 DIV AND PUSH2 0x204B DUP6 DUP6 DUP4 DUP7 DUP7 PUSH2 0x24FE JUMP JUMPDEST ISZERO PUSH2 0x215A JUMPI PUSH2 0x2059 DUP6 PUSH2 0x287B JUMP JUMPDEST DUP3 PUSH1 0x2 PUSH0 DUP3 DUP3 SLOAD PUSH2 0x206A SWAP2 SWAP1 PUSH2 0x352C JUMP JUMPDEST SWAP1 SWAP2 SSTORE POP POP PUSH1 0x13 SLOAD PUSH1 0x40 MLOAD PUSH4 0xA30A04F PUSH1 0xE2 SHL DUP2 MSTORE PUSH1 0x1 PUSH1 0x1 PUSH1 0xA0 SHL SUB DUP4 DUP2 AND PUSH1 0x4 DUP4 ADD MSTORE SWAP1 SWAP2 AND SWAP1 PUSH4 0x28C2813C SWAP1 PUSH1 0x24 ADD PUSH1 0x20 PUSH1 0x40 MLOAD DUP1 DUP4 SUB DUP2 DUP7 GAS STATICCALL ISZERO DUP1 ISZERO PUSH2 0x20B7 JUMPI RETURNDATASIZE PUSH0 DUP1 RETURNDATACOPY RETURNDATASIZE PUSH0 REVERT JUMPDEST POP POP POP POP PUSH1 0x40 MLOAD RETURNDATASIZE PUSH1 0x1F NOT PUSH1 0x1F DUP3 ADD AND DUP3 ADD DUP1 PUSH1 0x40 MSTORE POP DUP2 ADD SWAP1 PUSH2 0x20DB SWAP2 SWAP1 PUSH2 0x3F72 JUMP JUMPDEST DUP8 DUP8 DUP2 MLOAD DUP2 LT PUSH2 0x20ED JUMPI PUSH2 0x20ED PUSH2 0x353F JUMP JUMPDEST PUSH1 0x20 SWAP1 DUP2 MUL SWAP2 SWAP1 SWAP2 ADD ADD MLOAD MSTORE PUSH2 0x2133 PUSH0 PUSH2 0x2107 DUP6 DUP14 PUSH2 0xE3D JUMP JUMPDEST PUSH4 0xFFFFFFFF DUP14 AND PUSH1 0x1 PUSH1 0x1 PUSH1 0xA0 SHL SUB SWAP1 SWAP2 AND PUSH1 0xA0 SWAP3 SWAP1 SWAP3 SHL PUSH4 0xFFFFFFFF PUSH1 0xA0 SHL AND SWAP2 SWAP1 SWAP2 OR PUSH1 0x40 SHL OR SWAP1 JUMP JUMPDEST DUP8 DUP8 DUP2 MLOAD DUP2 LT PUSH2 0x2145 JUMPI PUSH2 0x2145 PUSH2 0x353F JUMP JUMPDEST PUSH1 0x20 MUL PUSH1 0x20 ADD ADD MLOAD PUSH1 0x20 ADD DUP2 DUP2 MSTORE POP POP PUSH2 0x217E JUMP JUMPDEST PUSH1 0x40 MLOAD PUSH4 0xF4A513B9 PUSH1 0xE0 SHL DUP2 MSTORE PUSH1 0x1 PUSH1 0x1 PUSH1 0xA0 SHL SUB DUP6 AND PUSH1 0x4 DUP3 ADD MSTORE PUSH1 0x24 ADD PUSH2 0x1514 JUMP JUMPDEST POP POP PUSH1 0x1 SWAP1 SWAP4 ADD SWAP3 POP PUSH2 0x1F8E SWAP2 POP POP JUMP JUMPDEST DUP1 MLOAD PUSH1 0x20 DUP1 DUP4 ADD MLOAD PUSH1 0x40 DUP1 DUP6 ADD MLOAD PUSH1 0x60 DUP7 ADD MLOAD PUSH1 0x1 PUSH1 0x1 PUSH1 0xA0 SHL SUB DUP1 DUP6 AND PUSH0 SWAP1 DUP2 MSTORE PUSH1 0xF SWAP1 SWAP7 MSTORE SWAP3 SWAP1 SWAP5 KECCAK256 SLOAD SWAP3 SWAP4 SWAP1 SWAP3 SWAP1 SWAP2 PUSH2 0x100 SWAP1 SWAP2 DIV AND PUSH2 0x21D5 DUP6 DUP6 DUP4 DUP7 DUP7 PUSH2 0x24FE JUMP JUMPDEST ISZERO PUSH2 0x215A JUMPI PUSH1 0x1 SLOAD PUSH1 0x40 MLOAD PUSH4 0x68BCD8D PUSH1 0xE0 SHL DUP2 MSTORE PUSH0 SWAP2 PUSH1 0x1 PUSH1 0x1 PUSH1 0xA0 SHL SUB PUSH32 0x0 AND SWAP2 PUSH4 0x68BCD8D SWAP2 PUSH2 0x222D SWAP2 PUSH1 0x4 ADD SWAP1 DUP2 MSTORE PUSH1 0x20 ADD SWAP1 JUMP JUMPDEST PUSH0 PUSH1 0x40 MLOAD DUP1 DUP4 SUB DUP2 DUP7 GAS STATICCALL ISZERO DUP1 ISZERO PUSH2 0x2247 JUMPI RETURNDATASIZE PUSH0 DUP1 RETURNDATACOPY RETURNDATASIZE PUSH0 REVERT JUMPDEST POP POP POP POP PUSH1 0x40 MLOAD RETURNDATASIZE PUSH0 DUP3 RETURNDATACOPY PUSH1 0x1F RETURNDATASIZE SWAP1 DUP2 ADD PUSH1 0x1F NOT AND DUP3 ADD PUSH1 0x40 MSTORE PUSH2 0x226E SWAP2 SWAP1 DUP2 ADD SWAP1 PUSH2 0x347E JUMP JUMPDEST SWAP1 POP PUSH2 0x2279 DUP7 PUSH2 0x287B JUMP JUMPDEST DUP4 PUSH1 0x2 PUSH0 DUP3 DUP3 SLOAD PUSH2 0x228A SWAP2 SWAP1 PUSH2 0x352C JUMP JUMPDEST SWAP1 SWAP2 SSTORE POP POP PUSH1 0x40 DUP2 ADD MLOAD PUSH2 0x229F SWAP1 DUP4 DUP7 PUSH2 0x16E5 JUMP JUMPDEST PUSH1 0x40 DUP1 DUP3 ADD MLOAD DUP2 MLOAD DUP7 DUP2 MSTORE PUSH1 0x1 PUSH1 0x1 PUSH1 0xA0 SHL SUB DUP6 DUP2 AND PUSH1 0x20 DUP4 ADD MSTORE DUP1 DUP10 AND SWAP4 SWAP3 AND SWAP2 PUSH32 0xA6B66F665010D2F7435F110111AAA34B56564074F66081BEF606D996FC8CAA6F SWAP2 ADD PUSH1 0x40 MLOAD DUP1 SWAP2 SUB SWAP1 LOG3 POP JUMPDEST POP POP POP POP POP POP JUMP JUMPDEST PUSH1 0x9 SLOAD PUSH1 0x40 MLOAD PUSH4 0xDD93DA43 PUSH1 0xE0 SHL DUP2 MSTORE PUSH1 0x1 PUSH1 0x1 PUSH1 0xA0 SHL SUB DUP5 DUP2 AND PUSH1 0x4 DUP4 ADD MSTORE PUSH0 SWAP3 DUP4 SWAP3 SWAP2 AND SWAP1 PUSH4 0xDD93DA43 SWAP1 PUSH1 0x24 ADD PUSH0 PUSH1 0x40 MLOAD DUP1 DUP4 SUB DUP2 DUP7 GAS STATICCALL ISZERO DUP1 ISZERO PUSH2 0x2340 JUMPI RETURNDATASIZE PUSH0 DUP1 RETURNDATACOPY RETURNDATASIZE PUSH0 REVERT JUMPDEST POP POP POP POP PUSH1 0x40 MLOAD RETURNDATASIZE PUSH0 DUP3 RETURNDATACOPY PUSH1 0x1F RETURNDATASIZE SWAP1 DUP2 ADD PUSH1 0x1F NOT AND DUP3 ADD PUSH1 0x40 MSTORE PUSH2 0x2367 SWAP2 SWAP1 DUP2 ADD SWAP1 PUSH2 0x3F89 JUMP JUMPDEST PUSH1 0x9 SLOAD DUP2 MLOAD PUSH1 0x40 MLOAD PUSH4 0x5E8A7915 PUSH1 0xE0 SHL DUP2 MSTORE PUSH1 0x4 DUP2 ADD SWAP2 SWAP1 SWAP2 MSTORE PUSH1 0x1 PUSH1 0x1 PUSH1 0xA0 SHL SUB DUP7 DUP2 AND PUSH1 0x24 DUP4 ADD MSTORE SWAP3 SWAP4 POP SWAP2 AND SWAP1 PUSH4 0x5E8A7915 SWAP1 PUSH1 0x44 ADD PUSH1 0x20 PUSH1 0x40 MLOAD DUP1 DUP4 SUB DUP2 DUP7 GAS STATICCALL ISZERO DUP1 ISZERO PUSH2 0x23BB JUMPI RETURNDATASIZE PUSH0 DUP1 RETURNDATACOPY RETURNDATASIZE PUSH0 REVERT JUMPDEST POP POP POP POP PUSH1 0x40 MLOAD RETURNDATASIZE PUSH1 0x1F NOT PUSH1 0x1F DUP3 ADD AND DUP3 ADD DUP1 PUSH1 0x40 MSTORE POP DUP2 ADD SWAP1 PUSH2 0x23DF SWAP2 SWAP1 PUSH2 0x3D26 JUMP JUMPDEST SWAP5 SWAP4 POP POP POP POP JUMP JUMPDEST PUSH0 DUP1 PUSH0 PUSH2 0x23F3 DUP5 PUSH2 0x28B6 JUMP JUMPDEST PUSH1 0xF SWAP2 SHR AND SWAP6 SWAP5 POP POP POP POP POP JUMP JUMPDEST PUSH0 DUP1 PUSH0 PUSH2 0x240D DUP6 PUSH2 0x28B6 JUMP JUMPDEST PUSH0 SWAP3 DUP4 MSTORE PUSH1 0xB PUSH1 0x20 MSTORE PUSH1 0x40 SWAP1 SWAP3 KECCAK256 SWAP6 DUP2 SHL PUSH1 0xF SWAP1 SWAP2 SHL NOT SWAP1 SWAP2 AND OR SWAP1 SWAP4 SSTORE POP POP POP POP JUMP JUMPDEST PUSH0 DUP1 PUSH0 DUP1 DUP5 DUP7 GAS CALL PUSH2 0x1008 JUMPI PUSH4 0xB12D13EB PUSH0 MSTORE PUSH1 0x4 PUSH1 0x1C REVERT JUMPDEST DUP2 PUSH1 0x14 MSTORE DUP1 PUSH1 0x34 MSTORE PUSH4 0xA9059CBB PUSH1 0x60 SHL PUSH0 MSTORE PUSH1 0x20 PUSH0 PUSH1 0x44 PUSH1 0x10 PUSH0 DUP8 GAS CALL RETURNDATASIZE ISZERO PUSH1 0x1 PUSH0 MLOAD EQ OR AND PUSH2 0x2481 JUMPI PUSH4 0x90B8EC18 PUSH0 MSTORE PUSH1 0x4 PUSH1 0x1C REVERT JUMPDEST PUSH0 PUSH1 0x34 MSTORE POP POP POP JUMP JUMPDEST PUSH1 0x60 PUSH0 DUP1 DUP6 PUSH1 0x1 PUSH1 0x1 PUSH1 0xA0 SHL SUB AND DUP6 PUSH1 0x40 MLOAD PUSH2 0x24A6 SWAP2 SWAP1 PUSH2 0x4049 JUMP JUMPDEST PUSH0 PUSH1 0x40 MLOAD DUP1 DUP4 SUB DUP2 DUP6 GAS DELEGATECALL SWAP2 POP POP RETURNDATASIZE DUP1 PUSH0 DUP2 EQ PUSH2 0x24DE JUMPI PUSH1 0x40 MLOAD SWAP2 POP PUSH1 0x1F NOT PUSH1 0x3F RETURNDATASIZE ADD AND DUP3 ADD PUSH1 0x40 MSTORE RETURNDATASIZE DUP3 MSTORE RETURNDATASIZE PUSH0 PUSH1 0x20 DUP5 ADD RETURNDATACOPY PUSH2 0x24E3 JUMP JUMPDEST PUSH1 0x60 SWAP2 POP JUMPDEST POP SWAP2 POP SWAP2 POP PUSH2 0x24F4 DUP7 DUP4 DUP4 DUP8 PUSH2 0x2917 JUMP JUMPDEST SWAP7 SWAP6 POP POP POP POP POP POP JUMP JUMPDEST PUSH0 PUSH2 0x2508 DUP7 PUSH2 0x176F JUMP JUMPDEST ISZERO PUSH2 0x2514 JUMPI POP PUSH0 PUSH2 0x259A JUMP JUMPDEST PUSH1 0x40 DUP1 MLOAD PUSH1 0x20 DUP2 ADD DUP9 SWAP1 MSTORE PUSH1 0x1 PUSH1 0x1 PUSH1 0xA0 SHL SUB DUP1 DUP9 AND SWAP3 DUP3 ADD SWAP3 SWAP1 SWAP3 MSTORE SWAP1 DUP6 AND PUSH1 0x60 DUP3 ADD MSTORE PUSH1 0x80 DUP2 ADD DUP5 SWAP1 MSTORE PUSH0 SWAP1 PUSH1 0xA0 ADD PUSH1 0x40 DUP1 MLOAD PUSH1 0x1F NOT DUP2 DUP5 SUB ADD DUP2 MSTORE DUP3 DUP3 MSTORE DUP1 MLOAD PUSH1 0x20 SWAP2 DUP3 ADD KECCAK256 SWAP1 DUP4 ADD MSTORE ADD PUSH1 0x40 MLOAD PUSH1 0x20 DUP2 DUP4 SUB SUB DUP2 MSTORE SWAP1 PUSH1 0x40 MSTORE DUP1 MLOAD SWAP1 PUSH1 0x20 ADD KECCAK256 SWAP1 POP PUSH2 0x2587 DUP4 PUSH1 0xA SLOAD DUP4 PUSH2 0x298F JUMP JUMPDEST PUSH2 0x2594 JUMPI PUSH0 SWAP2 POP POP PUSH2 0x259A JUMP JUMPDEST PUSH1 0x1 SWAP2 POP POP JUMPDEST SWAP6 SWAP5 POP POP POP POP POP JUMP JUMPDEST PUSH2 0x25AB PUSH2 0x1035 JUMP JUMPDEST PUSH1 0x1 SLOAD ISZERO PUSH2 0x25CC JUMPI PUSH1 0x40 MLOAD PUSH4 0x439A74C9 PUSH1 0xE0 SHL DUP2 MSTORE PUSH1 0x4 ADD PUSH1 0x40 MLOAD DUP1 SWAP2 SUB SWAP1 REVERT JUMPDEST DUP1 PUSH0 SUB PUSH2 0x25EC JUMPI PUSH1 0x40 MLOAD PUSH4 0x7FCCE2A9 PUSH1 0xE0 SHL DUP2 MSTORE PUSH1 0x4 ADD PUSH1 0x40 MLOAD DUP1 SWAP2 SUB SWAP1 REVERT JUMPDEST PUSH1 0x1 SSTORE JUMP JUMPDEST PUSH1 0x5 SLOAD TIMESTAMP PUSH1 0x1 PUSH1 0x98 SHL SWAP1 SWAP2 DIV PUSH1 0x1 PUSH1 0x1 PUSH1 0x40 SHL SUB AND GT DUP1 PUSH2 0x261C JUMPI POP PUSH1 0x6 SLOAD PUSH1 0x1 PUSH1 0x1 PUSH1 0x40 SHL SUB AND TIMESTAMP GT JUMPDEST ISZERO PUSH2 0x107E JUMPI PUSH1 0x40 MLOAD PUSH3 0xB828C9 PUSH1 0xE8 SHL DUP2 MSTORE PUSH1 0x4 ADD PUSH1 0x40 MLOAD DUP1 SWAP2 SUB SWAP1 REVERT JUMPDEST DUP2 MLOAD PUSH1 0x20 DUP4 ADD MLOAD PUSH1 0x40 DUP5 ADD MLOAD PUSH1 0x2 PUSH2 0x2650 DUP5 PUSH2 0x23E7 JUMP JUMPDEST PUSH1 0xFF AND PUSH1 0x6 DUP2 GT ISZERO PUSH2 0x2664 JUMPI PUSH2 0x2664 PUSH2 0x32F2 JUMP JUMPDEST PUSH1 0x6 DUP2 GT ISZERO PUSH2 0x2675 JUMPI PUSH2 0x2675 PUSH2 0x32F2 JUMP JUMPDEST EQ PUSH2 0x269E JUMPI PUSH1 0x40 MLOAD PUSH4 0xF4A513B9 PUSH1 0xE0 SHL DUP2 MSTORE PUSH1 0x1 PUSH1 0x1 PUSH1 0xA0 SHL SUB DUP5 AND PUSH1 0x4 DUP3 ADD MSTORE PUSH1 0x24 ADD PUSH2 0x1514 JUMP JUMPDEST PUSH20 0xEEEEEEEEEEEEEEEEEEEEEEEEEEEEEEEEEEEEEEED NOT PUSH1 0x1 PUSH1 0x1 PUSH1 0xA0 SHL SUB DUP3 AND ADD PUSH2 0x26DC JUMPI PUSH1 0x40 MLOAD PUSH4 0x7FCCE2A9 PUSH1 0xE0 SHL DUP2 MSTORE PUSH1 0x4 ADD PUSH1 0x40 MLOAD DUP1 SWAP2 SUB SWAP1 REVERT JUMPDEST PUSH1 0x1 PUSH1 0x1 PUSH1 0xA0 SHL SUB DUP2 AND PUSH0 SWAP1 DUP2 MSTORE PUSH1 0xE PUSH1 0x20 MSTORE PUSH1 0x40 SWAP1 KECCAK256 SLOAD PUSH1 0xFF AND ISZERO DUP1 ISZERO PUSH2 0x272E JUMPI POP PUSH0 DUP1 MSTORE PUSH1 0xE PUSH1 0x20 MSTORE PUSH32 0xE710864318D4A32F37D6CE54CB3FADBEF648DD12D8DBDF53973564D56B7F881C SLOAD PUSH1 0xFF AND ISZERO JUMPDEST ISZERO PUSH2 0x274C JUMPI PUSH1 0x40 MLOAD PUSH4 0x7FCCE2A9 PUSH1 0xE0 SHL DUP2 MSTORE PUSH1 0x4 ADD PUSH1 0x40 MLOAD DUP1 SWAP2 SUB SWAP1 REVERT JUMPDEST PUSH0 CALLVALUE GT DUP1 ISZERO PUSH2 0x2778 JUMPI POP PUSH1 0x1 PUSH1 0x1 PUSH1 0xA0 SHL SUB DUP2 AND PUSH20 0xEEEEEEEEEEEEEEEEEEEEEEEEEEEEEEEEEEEEEEEE EQ ISZERO JUMPDEST DUP1 PUSH2 0x27AA JUMPI POP PUSH1 0x1 PUSH1 0x1 PUSH1 0xA0 SHL SUB DUP2 AND PUSH20 0xEEEEEEEEEEEEEEEEEEEEEEEEEEEEEEEEEEEEEEEE EQ DUP1 ISZERO PUSH2 0x27AA JUMPI POP DUP2 CALLVALUE EQ ISZERO JUMPDEST ISZERO PUSH2 0x27C8 JUMPI PUSH1 0x40 MLOAD PUSH4 0x7FCCE2A9 PUSH1 0xE0 SHL DUP2 MSTORE PUSH1 0x4 ADD PUSH1 0x40 MLOAD DUP1 SWAP2 SUB SWAP1 REVERT JUMPDEST PUSH1 0x40 DUP1 MLOAD PUSH1 0x60 DUP2 ADD DUP3 MSTORE PUSH1 0x1 PUSH1 0x1 PUSH1 0xA0 SHL SUB DUP1 DUP8 AND DUP3 MSTORE DUP6 DUP2 AND PUSH0 SWAP1 DUP2 MSTORE PUSH1 0xF PUSH1 0x20 SWAP1 DUP2 MSTORE SWAP1 DUP5 SWAP1 KECCAK256 SLOAD PUSH2 0x100 SWAP1 DIV SWAP1 SWAP2 AND SWAP1 DUP3 ADD MSTORE SWAP1 DUP2 ADD DUP4 SWAP1 MSTORE PUSH2 0x280F SWAP1 DUP3 SWAP1 PUSH2 0x29A4 JUMP JUMPDEST ISZERO PUSH2 0x2874 JUMPI DUP3 PUSH1 0x1 PUSH1 0x1 PUSH1 0xA0 SHL SUB AND PUSH32 0x463FFC2CF8B1596445C417388ED30E53EB67CF6668CB2BE7F0ADDF8A78C8441B DUP4 DUP4 DUP8 PUSH1 0x40 MLOAD PUSH2 0x286B SWAP4 SWAP3 SWAP2 SWAP1 SWAP3 DUP4 MSTORE PUSH1 0x1 PUSH1 0x1 PUSH1 0xA0 SHL SUB SWAP2 DUP3 AND PUSH1 0x20 DUP5 ADD MSTORE AND PUSH1 0x40 DUP3 ADD MSTORE PUSH1 0x60 ADD SWAP1 JUMP JUMPDEST PUSH1 0x40 MLOAD DUP1 SWAP2 SUB SWAP1 LOG2 JUMPDEST POP POP POP POP POP JUMP JUMPDEST PUSH0 PUSH2 0x2888 PUSH2 0x100 DUP4 PUSH2 0x3E35 JUMP JUMPDEST SWAP1 POP PUSH0 PUSH2 0x2897 PUSH2 0x100 DUP5 PUSH2 0x3E48 JUMP JUMPDEST PUSH0 SWAP3 DUP4 MSTORE PUSH1 0xD PUSH1 0x20 MSTORE PUSH1 0x40 SWAP1 SWAP3 KECCAK256 DUP1 SLOAD PUSH1 0x1 SWAP1 SWAP4 SHL SWAP1 SWAP3 OR SWAP1 SWAP2 SSTORE POP POP JUMP JUMPDEST PUSH1 0x1 PUSH1 0x1 PUSH1 0xA0 SHL SUB DUP2 AND PUSH0 SWAP1 DUP2 MSTORE PUSH1 0xC PUSH1 0x20 MSTORE PUSH1 0x40 DUP1 DUP3 KECCAK256 SLOAD DUP3 SWAP2 DUP3 SWAP2 SWAP1 DUP3 SWAP1 PUSH2 0x28E0 SWAP1 DUP4 PUSH2 0x3E35 JUMP JUMPDEST SWAP1 POP PUSH0 PUSH2 0x28EE PUSH1 0x40 DUP5 PUSH2 0x3E48 JUMP JUMPDEST PUSH2 0x28F9 SWAP1 PUSH1 0x4 PUSH2 0x4064 JUMP JUMPDEST PUSH0 DUP4 DUP2 MSTORE PUSH1 0xB PUSH1 0x20 MSTORE PUSH1 0x40 SWAP1 KECCAK256 SLOAD SWAP3 SWAP9 SWAP1 SWAP8 POP SWAP2 SWAP6 POP SWAP1 SWAP4 POP POP POP POP JUMP JUMPDEST PUSH1 0x60 DUP4 ISZERO PUSH2 0x2985 JUMPI DUP3 MLOAD PUSH0 SUB PUSH2 0x297E JUMPI PUSH1 0x1 PUSH1 0x1 PUSH1 0xA0 SHL SUB DUP6 AND EXTCODESIZE PUSH2 0x297E JUMPI PUSH1 0x40 MLOAD PUSH3 0x461BCD PUSH1 0xE5 SHL DUP2 MSTORE PUSH1 0x20 PUSH1 0x4 DUP3 ADD MSTORE PUSH1 0x1D PUSH1 0x24 DUP3 ADD MSTORE PUSH32 0x416464726573733A2063616C6C20746F206E6F6E2D636F6E7472616374000000 PUSH1 0x44 DUP3 ADD MSTORE PUSH1 0x64 ADD PUSH2 0x1514 JUMP JUMPDEST POP DUP2 PUSH2 0x23DF JUMP JUMPDEST PUSH2 0x23DF DUP4 DUP4 PUSH2 0x2A21 JUMP JUMPDEST PUSH0 DUP3 PUSH2 0x299B DUP6 DUP5 PUSH2 0x2A4B JUMP JUMPDEST EQ SWAP5 SWAP4 POP POP POP POP JUMP JUMPDEST PUSH1 0x40 DUP2 ADD MLOAD PUSH0 SWAP1 PUSH20 0xEEEEEEEEEEEEEEEEEEEEEEEEEEEEEEEEEEEEEEED NOT PUSH1 0x1 PUSH1 0x1 PUSH1 0xA0 SHL SUB DUP6 AND ADD PUSH2 0x2A04 JUMPI DUP1 CALLVALUE LT ISZERO PUSH2 0x29F1 JUMPI PUSH1 0x40 MLOAD PUSH4 0x74C5672B PUSH1 0xE0 SHL DUP2 MSTORE PUSH1 0x4 ADD PUSH1 0x40 MLOAD DUP1 SWAP2 SUB SWAP1 REVERT JUMPDEST PUSH2 0x29FF DUP4 PUSH1 0x20 ADD MLOAD DUP3 PUSH2 0x2431 JUMP JUMPDEST PUSH2 0x2A17 JUMP JUMPDEST PUSH2 0x2A17 DUP5 DUP5 PUSH0 ADD MLOAD DUP6 PUSH1 0x20 ADD MLOAD DUP5 PUSH2 0x2A8D JUMP JUMPDEST POP PUSH1 0x1 SWAP4 SWAP3 POP POP POP JUMP JUMPDEST DUP2 MLOAD ISZERO PUSH2 0x2A31 JUMPI DUP2 MLOAD DUP1 DUP4 PUSH1 0x20 ADD REVERT JUMPDEST DUP1 PUSH1 0x40 MLOAD PUSH3 0x461BCD PUSH1 0xE5 SHL DUP2 MSTORE PUSH1 0x4 ADD PUSH2 0x1514 SWAP2 SWAP1 PUSH2 0x407B JUMP JUMPDEST PUSH0 DUP2 DUP2 JUMPDEST DUP5 MLOAD DUP2 LT ISZERO PUSH2 0x2A85 JUMPI PUSH2 0x2A7B DUP3 DUP7 DUP4 DUP2 MLOAD DUP2 LT PUSH2 0x2A6E JUMPI PUSH2 0x2A6E PUSH2 0x353F JUMP JUMPDEST PUSH1 0x20 MUL PUSH1 0x20 ADD ADD MLOAD PUSH2 0x2ADC JUMP JUMPDEST SWAP2 POP PUSH1 0x1 ADD PUSH2 0x2A4F JUMP JUMPDEST POP SWAP4 SWAP3 POP POP POP JUMP JUMPDEST PUSH1 0x40 MLOAD DUP2 PUSH1 0x60 MSTORE DUP3 PUSH1 0x40 MSTORE DUP4 PUSH1 0x60 SHL PUSH1 0x2C MSTORE PUSH4 0x23B872DD PUSH1 0x60 SHL PUSH1 0xC MSTORE PUSH1 0x20 PUSH0 PUSH1 0x64 PUSH1 0x1C PUSH0 DUP10 GAS CALL RETURNDATASIZE ISZERO PUSH1 0x1 PUSH0 MLOAD EQ OR AND PUSH2 0x2ACF JUMPI PUSH4 0x7939F424 PUSH0 MSTORE PUSH1 0x4 PUSH1 0x1C REVERT JUMPDEST PUSH0 PUSH1 0x60 MSTORE PUSH1 0x40 MSTORE POP POP POP POP JUMP JUMPDEST PUSH0 DUP2 DUP4 LT PUSH2 0x2AF6 JUMPI PUSH0 DUP3 DUP2 MSTORE PUSH1 0x20 DUP5 SWAP1 MSTORE PUSH1 0x40 SWAP1 KECCAK256 PUSH2 0x917 JUMP JUMPDEST PUSH0 DUP4 DUP2 MSTORE PUSH1 0x20 DUP4 SWAP1 MSTORE PUSH1 0x40 SWAP1 KECCAK256 PUSH2 0x917 JUMP JUMPDEST PUSH1 0x40 MLOAD DUP1 PUSH1 0x60 ADD PUSH1 0x40 MSTORE DUP1 PUSH0 ISZERO ISZERO DUP2 MSTORE PUSH1 0x20 ADD PUSH0 PUSH1 0x1 PUSH1 0x1 PUSH1 0xA0 SHL SUB AND DUP2 MSTORE PUSH1 0x20 ADD PUSH2 0x2B46 PUSH1 0x40 MLOAD DUP1 PUSH1 0x40 ADD PUSH1 0x40 MSTORE DUP1 PUSH0 DUP2 MSTORE PUSH1 0x20 ADD PUSH1 0x60 DUP2 MSTORE POP SWAP1 JUMP JUMPDEST SWAP1 MSTORE SWAP1 JUMP JUMPDEST PUSH1 0x1 PUSH1 0x1 PUSH1 0xA0 SHL SUB DUP2 AND DUP2 EQ PUSH2 0x1032 JUMPI PUSH0 DUP1 REVERT JUMPDEST PUSH0 PUSH1 0x20 DUP3 DUP5 SUB SLT ISZERO PUSH2 0x2B6F JUMPI PUSH0 DUP1 REVERT JUMPDEST DUP2 CALLDATALOAD PUSH2 0x917 DUP2 PUSH2 0x2B4B JUMP JUMPDEST PUSH4 0x4E487B71 PUSH1 0xE0 SHL PUSH0 MSTORE PUSH1 0x41 PUSH1 0x4 MSTORE PUSH1 0x24 PUSH0 REVERT JUMPDEST PUSH1 0x40 DUP1 MLOAD SWAP1 DUP2 ADD PUSH1 0x1 PUSH1 0x1 PUSH1 0x40 SHL SUB DUP2 GT DUP3 DUP3 LT OR ISZERO PUSH2 0x2BB0 JUMPI PUSH2 0x2BB0 PUSH2 0x2B7A JUMP JUMPDEST PUSH1 0x40 MSTORE SWAP1 JUMP JUMPDEST PUSH1 0x40 MLOAD PUSH1 0xC0 DUP2 ADD PUSH1 0x1 PUSH1 0x1 PUSH1 0x40 SHL SUB DUP2 GT DUP3 DUP3 LT OR ISZERO PUSH2 0x2BB0 JUMPI PUSH2 0x2BB0 PUSH2 0x2B7A JUMP JUMPDEST PUSH1 0x40 MLOAD PUSH2 0x160 DUP2 ADD PUSH1 0x1 PUSH1 0x1 PUSH1 0x40 SHL SUB DUP2 GT DUP3 DUP3 LT OR ISZERO PUSH2 0x2BB0 JUMPI PUSH2 0x2BB0 PUSH2 0x2B7A JUMP JUMPDEST PUSH1 0x40 MLOAD PUSH1 0x80 DUP2 ADD PUSH1 0x1 PUSH1 0x1 PUSH1 0x40 SHL SUB DUP2 GT DUP3 DUP3 LT OR ISZERO PUSH2 0x2BB0 JUMPI PUSH2 0x2BB0 PUSH2 0x2B7A JUMP JUMPDEST PUSH1 0x40 MLOAD PUSH1 0x60 DUP2 ADD PUSH1 0x1 PUSH1 0x1 PUSH1 0x40 SHL SUB DUP2 GT DUP3 DUP3 LT OR ISZERO PUSH2 0x2BB0 JUMPI PUSH2 0x2BB0 PUSH2 0x2B7A JUMP JUMPDEST PUSH1 0x40 MLOAD PUSH1 0x1F DUP3 ADD PUSH1 0x1F NOT AND DUP2 ADD PUSH1 0x1 PUSH1 0x1 PUSH1 0x40 SHL SUB DUP2 GT DUP3 DUP3 LT OR ISZERO PUSH2 0x2C67 JUMPI PUSH2 0x2C67 PUSH2 0x2B7A JUMP JUMPDEST PUSH1 0x40 MSTORE SWAP2 SWAP1 POP JUMP JUMPDEST PUSH0 PUSH1 0x1 PUSH1 0x1 PUSH1 0x40 SHL SUB DUP3 GT ISZERO PUSH2 0x2C87 JUMPI PUSH2 0x2C87 PUSH2 0x2B7A JUMP JUMPDEST POP PUSH1 0x5 SHL PUSH1 0x20 ADD SWAP1 JUMP JUMPDEST PUSH0 DUP3 PUSH1 0x1F DUP4 ADD SLT PUSH2 0x2CA0 JUMPI PUSH0 DUP1 REVERT JUMPDEST DUP2 CALLDATALOAD PUSH1 0x20 PUSH2 0x2CB5 PUSH2 0x2CB0 DUP4 PUSH2 0x2C6F JUMP JUMPDEST PUSH2 0x2C3F JUMP JUMPDEST DUP1 DUP4 DUP3 MSTORE PUSH1 0x20 DUP3 ADD SWAP2 POP PUSH1 0x20 DUP5 PUSH1 0x5 SHL DUP8 ADD ADD SWAP4 POP DUP7 DUP5 GT ISZERO PUSH2 0x2CD6 JUMPI PUSH0 DUP1 REVERT JUMPDEST PUSH1 0x20 DUP7 ADD JUMPDEST DUP5 DUP2 LT ISZERO PUSH2 0x2CFB JUMPI DUP1 CALLDATALOAD PUSH2 0x2CEE DUP2 PUSH2 0x2B4B JUMP JUMPDEST DUP4 MSTORE SWAP2 DUP4 ADD SWAP2 DUP4 ADD PUSH2 0x2CDB JUMP JUMPDEST POP SWAP7 SWAP6 POP POP POP POP POP POP JUMP JUMPDEST PUSH0 PUSH1 0x1 PUSH1 0x1 PUSH1 0x40 SHL SUB DUP3 GT ISZERO PUSH2 0x2D1E JUMPI PUSH2 0x2D1E PUSH2 0x2B7A JUMP JUMPDEST POP PUSH1 0x1F ADD PUSH1 0x1F NOT AND PUSH1 0x20 ADD SWAP1 JUMP JUMPDEST PUSH0 PUSH2 0x2D39 PUSH2 0x2CB0 DUP5 PUSH2 0x2D06 JUMP JUMPDEST SWAP1 POP DUP3 DUP2 MSTORE DUP4 DUP4 DUP4 ADD GT ISZERO PUSH2 0x2D4C JUMPI PUSH0 DUP1 REVERT JUMPDEST DUP3 DUP3 PUSH1 0x20 DUP4 ADD CALLDATACOPY PUSH0 PUSH1 0x20 DUP5 DUP4 ADD ADD MSTORE SWAP4 SWAP3 POP POP POP JUMP JUMPDEST PUSH0 DUP3 PUSH1 0x1F DUP4 ADD SLT PUSH2 0x2D71 JUMPI PUSH0 DUP1 REVERT JUMPDEST PUSH2 0x917 DUP4 DUP4 CALLDATALOAD PUSH1 0x20 DUP6 ADD PUSH2 0x2D2C JUMP JUMPDEST PUSH0 DUP1 PUSH0 PUSH1 0x60 DUP5 DUP7 SUB SLT ISZERO PUSH2 0x2D92 JUMPI PUSH0 DUP1 REVERT JUMPDEST DUP4 CALLDATALOAD PUSH1 0x1 PUSH1 0x1 PUSH1 0x40 SHL SUB DUP1 DUP3 GT ISZERO PUSH2 0x2DA8 JUMPI PUSH0 DUP1 REVERT JUMPDEST PUSH2 0x2DB4 DUP8 DUP4 DUP9 ADD PUSH2 0x2C91 JUMP JUMPDEST SWAP5 POP PUSH1 0x20 DUP7 ADD CALLDATALOAD SWAP2 POP DUP1 DUP3 GT ISZERO PUSH2 0x2DC9 JUMPI PUSH0 DUP1 REVERT JUMPDEST POP PUSH2 0x2DD6 DUP7 DUP3 DUP8 ADD PUSH2 0x2D62 JUMP JUMPDEST SWAP3 POP POP PUSH1 0x40 DUP5 ADD CALLDATALOAD PUSH2 0x2DE7 DUP2 PUSH2 0x2B4B JUMP JUMPDEST DUP1 SWAP2 POP POP SWAP3 POP SWAP3 POP SWAP3 JUMP JUMPDEST PUSH1 0x1 PUSH1 0x1 PUSH1 0x40 SHL SUB DUP2 AND DUP2 EQ PUSH2 0x1032 JUMPI PUSH0 DUP1 REVERT JUMPDEST PUSH0 DUP1 PUSH0 DUP1 PUSH1 0x80 DUP6 DUP8 SUB SLT ISZERO PUSH2 0x2E19 JUMPI PUSH0 DUP1 REVERT JUMPDEST DUP5 CALLDATALOAD PUSH2 0x2E24 DUP2 PUSH2 0x2DF2 JUMP JUMPDEST SWAP4 POP PUSH1 0x20 DUP6 ADD CALLDATALOAD PUSH2 0x2E34 DUP2 PUSH2 0x2DF2 JUMP JUMPDEST SWAP3 POP PUSH1 0x40 DUP6 ADD CALLDATALOAD PUSH2 0x2E44 DUP2 PUSH2 0x2DF2 JUMP JUMPDEST SWAP2 POP PUSH1 0x60 DUP6 ADD CALLDATALOAD PUSH2 0x2E54 DUP2 PUSH2 0x2DF2 JUMP JUMPDEST SWAP4 SWAP7 SWAP3 SWAP6 POP SWAP1 SWAP4 POP POP JUMP JUMPDEST PUSH0 DUP1 PUSH1 0x40 DUP4 DUP6 SUB SLT ISZERO PUSH2 0x2E70 JUMPI PUSH0 DUP1 REVERT JUMPDEST DUP3 CALLDATALOAD PUSH1 0x1 PUSH1 0x1 PUSH1 0x40 SHL SUB DUP2 GT ISZERO PUSH2 0x2E85 JUMPI PUSH0 DUP1 REVERT JUMPDEST PUSH2 0x2E91 DUP6 DUP3 DUP7 ADD PUSH2 0x2D62 JUMP JUMPDEST SWAP3 POP POP PUSH1 0x20 DUP4 ADD CALLDATALOAD PUSH2 0x2EA2 DUP2 PUSH2 0x2B4B JUMP JUMPDEST DUP1 SWAP2 POP POP SWAP3 POP SWAP3 SWAP1 POP JUMP JUMPDEST PUSH0 PUSH1 0x20 DUP3 DUP5 SUB SLT ISZERO PUSH2 0x2EBD JUMPI PUSH0 DUP1 REVERT JUMPDEST POP CALLDATALOAD SWAP2 SWAP1 POP JUMP JUMPDEST PUSH0 PUSH1 0x20 DUP1 DUP4 DUP6 SUB SLT ISZERO PUSH2 0x2ED5 JUMPI PUSH0 DUP1 REVERT JUMPDEST DUP3 CALLDATALOAD PUSH1 0x1 PUSH1 0x1 PUSH1 0x40 SHL SUB DUP2 GT ISZERO PUSH2 0x2EEA JUMPI PUSH0 DUP1 REVERT JUMPDEST DUP4 ADD PUSH1 0x1F DUP2 ADD DUP6 SGT PUSH2 0x2EFA JUMPI PUSH0 DUP1 REVERT JUMPDEST DUP1 CALLDATALOAD PUSH2 0x2F08 PUSH2 0x2CB0 DUP3 PUSH2 0x2C6F JUMP JUMPDEST DUP2 DUP2 MSTORE PUSH1 0x6 SWAP2 SWAP1 SWAP2 SHL DUP3 ADD DUP4 ADD SWAP1 DUP4 DUP2 ADD SWAP1 DUP8 DUP4 GT ISZERO PUSH2 0x2F26 JUMPI PUSH0 DUP1 REVERT JUMPDEST SWAP3 DUP5 ADD SWAP3 JUMPDEST DUP3 DUP5 LT ISZERO PUSH2 0x2F67 JUMPI PUSH1 0x40 DUP5 DUP10 SUB SLT ISZERO PUSH2 0x2F42 JUMPI PUSH0 DUP1 REVERT JUMPDEST PUSH2 0x2F4A PUSH2 0x2B8E JUMP JUMPDEST DUP5 CALLDATALOAD DUP2 MSTORE DUP6 DUP6 ADD CALLDATALOAD DUP7 DUP3 ADD MSTORE DUP3 MSTORE PUSH1 0x40 SWAP1 SWAP4 ADD SWAP3 SWAP1 DUP5 ADD SWAP1 PUSH2 0x2F2B JUMP JUMPDEST SWAP8 SWAP7 POP POP POP POP POP POP POP JUMP JUMPDEST PUSH0 JUMPDEST DUP4 DUP2 LT ISZERO PUSH2 0x2F8C JUMPI DUP2 DUP2 ADD MLOAD DUP4 DUP3 ADD MSTORE PUSH1 0x20 ADD PUSH2 0x2F74 JUMP JUMPDEST POP POP PUSH0 SWAP2 ADD MSTORE JUMP JUMPDEST PUSH0 DUP2 MLOAD DUP1 DUP5 MSTORE PUSH2 0x2FAB DUP2 PUSH1 0x20 DUP7 ADD PUSH1 0x20 DUP7 ADD PUSH2 0x2F72 JUMP JUMPDEST PUSH1 0x1F ADD PUSH1 0x1F NOT AND SWAP3 SWAP1 SWAP3 ADD PUSH1 0x20 ADD SWAP3 SWAP2 POP POP JUMP JUMPDEST DUP3 DUP2 MSTORE PUSH1 0x40 PUSH1 0x20 DUP3 ADD MSTORE PUSH0 PUSH2 0x23DF PUSH1 0x40 DUP4 ADD DUP5 PUSH2 0x2F94 JUMP JUMPDEST PUSH1 0x20 DUP2 MSTORE DUP2 MLOAD ISZERO ISZERO PUSH1 0x20 DUP3 ADD MSTORE PUSH1 0x1 DUP1 PUSH1 0xA0 SHL SUB PUSH1 0x20 DUP4 ADD MLOAD AND PUSH1 0x40 DUP3 ADD MSTORE PUSH0 PUSH1 0x40 DUP4 ADD MLOAD PUSH1 0x60 DUP1 DUP5 ADD MSTORE DUP1 MLOAD PUSH1 0x80 DUP5 ADD MSTORE PUSH1 0x20 DUP2 ADD MLOAD SWAP1 POP PUSH1 0x40 PUSH1 0xA0 DUP5 ADD MSTORE PUSH2 0x23DF PUSH1 0xC0 DUP5 ADD DUP3 PUSH2 0x2F94 JUMP JUMPDEST PUSH0 DUP1 PUSH1 0x40 DUP4 DUP6 SUB SLT ISZERO PUSH2 0x3035 JUMPI PUSH0 DUP1 REVERT JUMPDEST DUP3 CALLDATALOAD SWAP2 POP PUSH1 0x20 DUP4 ADD CALLDATALOAD PUSH1 0x1 PUSH1 0x1 PUSH1 0x40 SHL SUB DUP1 DUP3 GT ISZERO PUSH2 0x3052 JUMPI PUSH0 DUP1 REVERT JUMPDEST SWAP1 DUP5 ADD SWAP1 PUSH1 0x40 DUP3 DUP8 SUB SLT ISZERO PUSH2 0x3065 JUMPI PUSH0 DUP1 REVERT JUMPDEST PUSH2 0x306D PUSH2 0x2B8E JUMP JUMPDEST DUP3 CALLDATALOAD DUP2 MSTORE PUSH1 0x20 DUP4 ADD CALLDATALOAD DUP3 DUP2 GT ISZERO PUSH2 0x3082 JUMPI PUSH0 DUP1 REVERT JUMPDEST DUP1 DUP5 ADD SWAP4 POP POP DUP7 PUSH1 0x1F DUP5 ADD SLT PUSH2 0x3096 JUMPI PUSH0 DUP1 REVERT JUMPDEST PUSH2 0x30A5 DUP8 DUP5 CALLDATALOAD PUSH1 0x20 DUP7 ADD PUSH2 0x2D2C JUMP JUMPDEST PUSH1 0x20 DUP3 ADD MSTORE DUP1 SWAP4 POP POP POP POP SWAP3 POP SWAP3 SWAP1 POP JUMP JUMPDEST PUSH0 DUP1 PUSH1 0x20 DUP4 DUP6 SUB SLT ISZERO PUSH2 0x30C8 JUMPI PUSH0 DUP1 REVERT JUMPDEST DUP3 CALLDATALOAD PUSH1 0x1 PUSH1 0x1 PUSH1 0x40 SHL SUB DUP1 DUP3 GT ISZERO PUSH2 0x30DE JUMPI PUSH0 DUP1 REVERT JUMPDEST DUP2 DUP6 ADD SWAP2 POP DUP6 PUSH1 0x1F DUP4 ADD SLT PUSH2 0x30F1 JUMPI PUSH0 DUP1 REVERT JUMPDEST DUP2 CALLDATALOAD DUP2 DUP2 GT ISZERO PUSH2 0x30FF JUMPI PUSH0 DUP1 REVERT JUMPDEST DUP7 PUSH1 0x20 DUP3 PUSH1 0x5 SHL DUP6 ADD ADD GT ISZERO PUSH2 0x3113 JUMPI PUSH0 DUP1 REVERT JUMPDEST PUSH1 0x20 SWAP3 SWAP1 SWAP3 ADD SWAP7 SWAP2 SWAP6 POP SWAP1 SWAP4 POP POP POP POP JUMP JUMPDEST PUSH0 PUSH1 0x20 DUP1 DUP4 ADD PUSH1 0x20 DUP5 MSTORE DUP1 DUP6 MLOAD DUP1 DUP4 MSTORE PUSH1 0x40 DUP7 ADD SWAP2 POP PUSH1 0x40 DUP2 PUSH1 0x5 SHL DUP8 ADD ADD SWAP3 POP PUSH1 0x20 DUP8 ADD PUSH0 JUMPDEST DUP3 DUP2 LT ISZERO PUSH2 0x317A JUMPI PUSH1 0x3F NOT DUP9 DUP7 SUB ADD DUP5 MSTORE PUSH2 0x3168 DUP6 DUP4 MLOAD PUSH2 0x2F94 JUMP JUMPDEST SWAP5 POP SWAP3 DUP6 ADD SWAP3 SWAP1 DUP6 ADD SWAP1 PUSH1 0x1 ADD PUSH2 0x314C JUMP JUMPDEST POP SWAP3 SWAP8 SWAP7 POP POP POP POP POP POP POP JUMP JUMPDEST PUSH0 DUP1 PUSH1 0x40 DUP4 DUP6 SUB SLT ISZERO PUSH2 0x3198 JUMPI PUSH0 DUP1 REVERT JUMPDEST DUP3 CALLDATALOAD PUSH1 0x1 PUSH1 0x1 PUSH1 0x40 SHL SUB DUP1 DUP3 GT ISZERO PUSH2 0x31AE JUMPI PUSH0 DUP1 REVERT JUMPDEST PUSH2 0x31BA DUP7 DUP4 DUP8 ADD PUSH2 0x2C91 JUMP JUMPDEST SWAP4 POP PUSH1 0x20 SWAP2 POP DUP2 DUP6 ADD CALLDATALOAD DUP2 DUP2 GT ISZERO PUSH2 0x31D0 JUMPI PUSH0 DUP1 REVERT JUMPDEST DUP6 ADD PUSH1 0x1F DUP2 ADD DUP8 SGT PUSH2 0x31E0 JUMPI PUSH0 DUP1 REVERT JUMPDEST DUP1 CALLDATALOAD PUSH2 0x31EE PUSH2 0x2CB0 DUP3 PUSH2 0x2C6F JUMP JUMPDEST DUP2 DUP2 MSTORE PUSH1 0x5 SWAP2 SWAP1 SWAP2 SHL DUP3 ADD DUP5 ADD SWAP1 DUP5 DUP2 ADD SWAP1 DUP10 DUP4 GT ISZERO PUSH2 0x320C JUMPI PUSH0 DUP1 REVERT JUMPDEST DUP6 DUP5 ADD JUMPDEST DUP4 DUP2 LT ISZERO PUSH2 0x3242 JUMPI DUP1 CALLDATALOAD DUP7 DUP2 GT ISZERO PUSH2 0x3226 JUMPI PUSH0 DUP1 REVERT JUMPDEST PUSH2 0x3234 DUP13 DUP10 DUP4 DUP10 ADD ADD PUSH2 0x2D62 JUMP JUMPDEST DUP5 MSTORE POP SWAP2 DUP7 ADD SWAP2 DUP7 ADD PUSH2 0x3210 JUMP JUMPDEST POP DUP1 SWAP7 POP POP POP POP POP POP POP SWAP3 POP SWAP3 SWAP1 POP JUMP JUMPDEST PUSH1 0x20 DUP1 DUP3 MSTORE DUP3 MLOAD DUP3 DUP3 ADD DUP2 SWAP1 MSTORE PUSH0 SWAP2 SWAP1 PUSH1 0x40 SWAP1 DUP2 DUP6 ADD SWAP1 DUP7 DUP5 ADD DUP6 JUMPDEST DUP3 DUP2 LT ISZERO PUSH2 0x329D JUMPI DUP2 MLOAD DUP1 MLOAD PUSH1 0x1 PUSH1 0x1 PUSH1 0xA0 SHL SUB AND DUP6 MSTORE DUP7 ADD MLOAD DUP7 DUP6 ADD MSTORE SWAP3 DUP5 ADD SWAP3 SWAP1 DUP6 ADD SWAP1 PUSH1 0x1 ADD PUSH2 0x326F JUMP JUMPDEST POP SWAP2 SWAP8 SWAP7 POP POP POP POP POP POP POP JUMP JUMPDEST PUSH4 0xFFFFFFFF DUP2 AND DUP2 EQ PUSH2 0x1032 JUMPI PUSH0 DUP1 REVERT JUMPDEST PUSH0 DUP1 PUSH1 0x40 DUP4 DUP6 SUB SLT ISZERO PUSH2 0x32CC JUMPI PUSH0 DUP1 REVERT JUMPDEST DUP3 CALLDATALOAD PUSH1 0x1 PUSH1 0x1 PUSH1 0x80 SHL SUB DUP2 AND DUP2 EQ PUSH2 0x32E2 JUMPI PUSH0 DUP1 REVERT JUMPDEST SWAP2 POP PUSH1 0x20 DUP4 ADD CALLDATALOAD PUSH2 0x2EA2 DUP2 PUSH2 0x32AA JUMP JUMPDEST PUSH4 0x4E487B71 PUSH1 0xE0 SHL PUSH0 MSTORE PUSH1 0x21 PUSH1 0x4 MSTORE PUSH1 0x24 PUSH0 REVERT JUMPDEST PUSH1 0x20 DUP2 ADD PUSH1 0x7 DUP4 LT PUSH2 0x3326 JUMPI PUSH4 0x4E487B71 PUSH1 0xE0 SHL PUSH0 MSTORE PUSH1 0x21 PUSH1 0x4 MSTORE PUSH1 0x24 PUSH0 REVERT JUMPDEST SWAP2 SWAP1 MSTORE SWAP1 JUMP JUMPDEST PUSH0 DUP1 PUSH1 0x40 DUP4 DUP6 SUB SLT ISZERO PUSH2 0x333D JUMPI PUSH0 DUP1 REVERT JUMPDEST DUP3 CALLDATALOAD SWAP2 POP PUSH1 0x20 DUP4 ADD CALLDATALOAD PUSH1 0x1 PUSH1 0x1 PUSH1 0x40 SHL SUB DUP2 GT ISZERO PUSH2 0x3359 JUMPI PUSH0 DUP1 REVERT JUMPDEST PUSH2 0x3365 DUP6 DUP3 DUP7 ADD PUSH2 0x2D62 JUMP JUMPDEST SWAP2 POP POP SWAP3 POP SWAP3 SWAP1 POP JUMP JUMPDEST PUSH1 0x1 PUSH1 0x1 PUSH1 0x40 SHL SUB SWAP6 DUP7 AND DUP2 MSTORE SWAP4 DUP6 AND PUSH1 0x20 DUP6 ADD MSTORE SWAP2 DUP5 AND PUSH1 0x40 DUP5 ADD MSTORE SWAP1 SWAP3 AND PUSH1 0x60 DUP3 ADD MSTORE PUSH1 0x1 PUSH1 0x1 PUSH1 0xA0 SHL SUB SWAP1 SWAP2 AND PUSH1 0x80 DUP3 ADD MSTORE PUSH1 0xA0 ADD SWAP1 JUMP JUMPDEST PUSH4 0x4E487B71 PUSH1 0xE0 SHL PUSH0 MSTORE PUSH1 0x11 PUSH1 0x4 MSTORE PUSH1 0x24 PUSH0 REVERT JUMPDEST PUSH1 0x1 PUSH1 0x1 PUSH1 0x40 SHL SUB DUP2 DUP2 AND DUP4 DUP3 AND ADD SWAP1 DUP1 DUP3 GT ISZERO PUSH2 0xD3B JUMPI PUSH2 0xD3B PUSH2 0x33AA JUMP JUMPDEST DUP1 MLOAD PUSH2 0x33E9 DUP2 PUSH2 0x2B4B JUMP JUMPDEST SWAP2 SWAP1 POP JUMP JUMPDEST PUSH0 DUP3 PUSH1 0x1F DUP4 ADD SLT PUSH2 0x33FD JUMPI PUSH0 DUP1 REVERT JUMPDEST DUP2 MLOAD PUSH2 0x340B PUSH2 0x2CB0 DUP3 PUSH2 0x2D06 JUMP JUMPDEST DUP2 DUP2 MSTORE DUP5 PUSH1 0x20 DUP4 DUP7 ADD ADD GT ISZERO PUSH2 0x341F JUMPI PUSH0 DUP1 REVERT JUMPDEST PUSH2 0x23DF DUP3 PUSH1 0x20 DUP4 ADD PUSH1 0x20 DUP8 ADD PUSH2 0x2F72 JUMP JUMPDEST PUSH0 PUSH1 0x40 DUP3 DUP5 SUB SLT ISZERO PUSH2 0x3440 JUMPI PUSH0 DUP1 REVERT JUMPDEST PUSH2 0x3448 PUSH2 0x2B8E JUMP JUMPDEST SWAP1 POP DUP2 MLOAD DUP2 MSTORE PUSH1 0x20 DUP3 ADD MLOAD PUSH1 0x1 PUSH1 0x1 PUSH1 0x40 SHL SUB DUP2 GT ISZERO PUSH2 0x3466 JUMPI PUSH0 DUP1 REVERT JUMPDEST PUSH2 0x3472 DUP5 DUP3 DUP6 ADD PUSH2 0x33EE JUMP JUMPDEST PUSH1 0x20 DUP4 ADD MSTORE POP SWAP3 SWAP2 POP POP JUMP JUMPDEST PUSH0 PUSH1 0x20 DUP3 DUP5 SUB SLT ISZERO PUSH2 0x348E JUMPI PUSH0 DUP1 REVERT JUMPDEST DUP2 MLOAD PUSH1 0x1 PUSH1 0x1 PUSH1 0x40 SHL SUB DUP1 DUP3 GT ISZERO PUSH2 0x34A4 JUMPI PUSH0 DUP1 REVERT JUMPDEST SWAP1 DUP4 ADD SWAP1 PUSH1 0xC0 DUP3 DUP7 SUB SLT ISZERO PUSH2 0x34B7 JUMPI PUSH0 DUP1 REVERT JUMPDEST PUSH2 0x34BF PUSH2 0x2BB6 JUMP JUMPDEST DUP3 MLOAD DUP2 MSTORE PUSH1 0x20 DUP4 ADD MLOAD PUSH2 0x34D1 DUP2 PUSH2 0x2B4B JUMP JUMPDEST PUSH1 0x20 DUP3 ADD MSTORE PUSH1 0x40 DUP4 ADD MLOAD PUSH2 0x34E4 DUP2 PUSH2 0x2B4B JUMP JUMPDEST PUSH1 0x40 DUP3 ADD MSTORE PUSH1 0x60 DUP4 ADD MLOAD DUP3 DUP2 GT ISZERO PUSH2 0x34FA JUMPI PUSH0 DUP1 REVERT JUMPDEST PUSH2 0x3506 DUP8 DUP3 DUP7 ADD PUSH2 0x3430 JUMP JUMPDEST PUSH1 0x60 DUP4 ADD MSTORE POP PUSH1 0x80 DUP4 ADD MLOAD PUSH1 0x80 DUP3 ADD MSTORE PUSH1 0xA0 DUP4 ADD MLOAD PUSH1 0xA0 DUP3 ADD MSTORE DUP1 SWAP4 POP POP POP POP SWAP3 SWAP2 POP POP JUMP JUMPDEST DUP2 DUP2 SUB DUP2 DUP2 GT ISZERO PUSH2 0x91A JUMPI PUSH2 0x91A PUSH2 0x33AA JUMP JUMPDEST PUSH4 0x4E487B71 PUSH1 0xE0 SHL PUSH0 MSTORE PUSH1 0x32 PUSH1 0x4 MSTORE PUSH1 0x24 PUSH0 REVERT JUMPDEST PUSH1 0x1 DUP2 DUP2 SHR SWAP1 DUP3 AND DUP1 PUSH2 0x3567 JUMPI PUSH1 0x7F DUP3 AND SWAP2 POP JUMPDEST PUSH1 0x20 DUP3 LT DUP2 SUB PUSH2 0x3585 JUMPI PUSH4 0x4E487B71 PUSH1 0xE0 SHL PUSH0 MSTORE PUSH1 0x22 PUSH1 0x4 MSTORE PUSH1 0x24 PUSH0 REVERT JUMPDEST POP SWAP2 SWAP1 POP JUMP JUMPDEST PUSH1 0x1F DUP3 GT ISZERO PUSH2 0x814 JUMPI DUP1 PUSH0 MSTORE PUSH1 0x20 PUSH0 KECCAK256 PUSH1 0x1F DUP5 ADD PUSH1 0x5 SHR DUP2 ADD PUSH1 0x20 DUP6 LT ISZERO PUSH2 0x35B0 JUMPI POP DUP1 JUMPDEST PUSH1 0x1F DUP5 ADD PUSH1 0x5 SHR DUP3 ADD SWAP2 POP JUMPDEST DUP2 DUP2 LT ISZERO PUSH2 0x2874 JUMPI PUSH0 DUP2 SSTORE PUSH1 0x1 ADD PUSH2 0x35BC JUMP JUMPDEST DUP2 MLOAD PUSH1 0x1 PUSH1 0x1 PUSH1 0x40 SHL SUB DUP2 GT ISZERO PUSH2 0x35E8 JUMPI PUSH2 0x35E8 PUSH2 0x2B7A JUMP JUMPDEST PUSH2 0x35FC DUP2 PUSH2 0x35F6 DUP5 SLOAD PUSH2 0x3553 JUMP JUMPDEST DUP5 PUSH2 0x358B JUMP JUMPDEST PUSH1 0x20 DUP1 PUSH1 0x1F DUP4 GT PUSH1 0x1 DUP2 EQ PUSH2 0x362F JUMPI PUSH0 DUP5 ISZERO PUSH2 0x3618 JUMPI POP DUP6 DUP4 ADD MLOAD JUMPDEST PUSH0 NOT PUSH1 0x3 DUP7 SWAP1 SHL SHR NOT AND PUSH1 0x1 DUP6 SWAP1 SHL OR DUP6 SSTORE PUSH2 0x22EE JUMP JUMPDEST PUSH0 DUP6 DUP2 MSTORE PUSH1 0x20 DUP2 KECCAK256 PUSH1 0x1F NOT DUP7 AND SWAP2 JUMPDEST DUP3 DUP2 LT ISZERO PUSH2 0x365D JUMPI DUP9 DUP7 ADD MLOAD DUP3 SSTORE SWAP5 DUP5 ADD SWAP5 PUSH1 0x1 SWAP1 SWAP2 ADD SWAP1 DUP5 ADD PUSH2 0x363E JUMP JUMPDEST POP DUP6 DUP3 LT ISZERO PUSH2 0x367A JUMPI DUP8 DUP6 ADD MLOAD PUSH0 NOT PUSH1 0x3 DUP9 SWAP1 SHL PUSH1 0xF8 AND SHR NOT AND DUP2 SSTORE JUMPDEST POP POP POP POP POP PUSH1 0x1 SWAP1 DUP2 SHL ADD SWAP1 SSTORE POP JUMP JUMPDEST DUP3 DUP2 MSTORE PUSH0 PUSH1 0x20 PUSH1 0x40 PUSH1 0x20 DUP5 ADD MSTORE DUP4 SLOAD PUSH1 0x40 DUP5 ADD MSTORE PUSH1 0x1 DUP1 DUP6 ADD PUSH1 0x40 PUSH1 0x60 DUP7 ADD MSTORE PUSH0 DUP2 SLOAD PUSH2 0x36B6 DUP2 PUSH2 0x3553 JUMP JUMPDEST DUP1 PUSH1 0x80 DUP10 ADD MSTORE PUSH1 0xA0 PUSH1 0x1 DUP4 AND PUSH0 DUP2 EQ PUSH2 0x36D6 JUMPI PUSH1 0x1 DUP2 EQ PUSH2 0x36F2 JUMPI PUSH2 0x371F JUMP JUMPDEST PUSH1 0xFF NOT DUP5 AND PUSH1 0xA0 DUP12 ADD MSTORE PUSH1 0xA0 DUP4 ISZERO ISZERO PUSH1 0x5 SHL DUP12 ADD ADD SWAP5 POP PUSH2 0x371F JUMP JUMPDEST DUP6 PUSH0 MSTORE PUSH1 0x20 PUSH0 KECCAK256 PUSH0 JUMPDEST DUP5 DUP2 LT ISZERO PUSH2 0x3716 JUMPI DUP2 SLOAD DUP13 DUP3 ADD DUP6 ADD MSTORE SWAP1 DUP9 ADD SWAP1 DUP10 ADD PUSH2 0x36FB JUMP JUMPDEST DUP12 ADD PUSH1 0xA0 ADD SWAP6 POP POP JUMPDEST POP SWAP3 SWAP11 SWAP10 POP POP POP POP POP POP POP POP POP POP JUMP JUMPDEST PUSH0 DUP1 DUP4 CALLDATALOAD PUSH1 0x1E NOT DUP5 CALLDATASIZE SUB ADD DUP2 SLT PUSH2 0x3744 JUMPI PUSH0 DUP1 REVERT JUMPDEST DUP4 ADD DUP1 CALLDATALOAD SWAP2 POP PUSH1 0x1 PUSH1 0x1 PUSH1 0x40 SHL SUB DUP3 GT ISZERO PUSH2 0x375D JUMPI PUSH0 DUP1 REVERT JUMPDEST PUSH1 0x20 ADD SWAP2 POP CALLDATASIZE DUP2 SWAP1 SUB DUP3 SGT ISZERO PUSH2 0x3771 JUMPI PUSH0 DUP1 REVERT JUMPDEST SWAP3 POP SWAP3 SWAP1 POP JUMP JUMPDEST PUSH1 0x1 PUSH1 0x1 PUSH1 0x80 SHL SUB DUP2 DUP2 AND DUP4 DUP3 AND MUL DUP1 DUP3 AND SWAP2 SWAP1 DUP3 DUP2 EQ PUSH2 0x379B JUMPI PUSH2 0x379B PUSH2 0x33AA JUMP JUMPDEST POP POP SWAP3 SWAP2 POP POP JUMP JUMPDEST PUSH4 0x4E487B71 PUSH1 0xE0 SHL PUSH0 MSTORE PUSH1 0x12 PUSH1 0x4 MSTORE PUSH1 0x24 PUSH0 REVERT JUMPDEST PUSH0 PUSH1 0x1 PUSH1 0x1 PUSH1 0x80 SHL SUB DUP1 DUP5 AND DUP1 PUSH2 0x37D0 JUMPI PUSH2 0x37D0 PUSH2 0x37A3 JUMP JUMPDEST SWAP3 AND SWAP2 SWAP1 SWAP2 DIV SWAP3 SWAP2 POP POP JUMP JUMPDEST PUSH0 PUSH1 0x20 DUP3 DUP5 SUB SLT ISZERO PUSH2 0x37EC JUMPI PUSH0 DUP1 REVERT JUMPDEST DUP2 MLOAD PUSH2 0x917 DUP2 PUSH2 0x2B4B JUMP JUMPDEST DUP1 MLOAD DUP1 ISZERO ISZERO DUP2 EQ PUSH2 0x33E9 JUMPI PUSH0 DUP1 REVERT JUMPDEST DUP1 MLOAD PUSH2 0x33E9 DUP2 PUSH2 0x2DF2 JUMP JUMPDEST PUSH0 DUP3 PUSH1 0x1F DUP4 ADD SLT PUSH2 0x3820 JUMPI PUSH0 DUP1 REVERT JUMPDEST DUP2 MLOAD PUSH1 0x20 PUSH2 0x3830 PUSH2 0x2CB0 DUP4 PUSH2 0x2C6F JUMP JUMPDEST DUP1 DUP4 DUP3 MSTORE PUSH1 0x20 DUP3 ADD SWAP2 POP PUSH1 0x20 DUP5 PUSH1 0x5 SHL DUP8 ADD ADD SWAP4 POP DUP7 DUP5 GT ISZERO PUSH2 0x3851 JUMPI PUSH0 DUP1 REVERT JUMPDEST PUSH1 0x20 DUP7 ADD JUMPDEST DUP5 DUP2 LT ISZERO PUSH2 0x2CFB JUMPI DUP1 MLOAD PUSH2 0x3869 DUP2 PUSH2 0x2B4B JUMP JUMPDEST DUP4 MSTORE SWAP2 DUP4 ADD SWAP2 DUP4 ADD PUSH2 0x3856 JUMP JUMPDEST PUSH0 PUSH1 0x20 DUP3 DUP5 SUB SLT ISZERO PUSH2 0x3886 JUMPI PUSH0 DUP1 REVERT JUMPDEST DUP2 MLOAD PUSH1 0x1 PUSH1 0x1 PUSH1 0x40 SHL SUB DUP1 DUP3 GT ISZERO PUSH2 0x389C JUMPI PUSH0 DUP1 REVERT JUMPDEST SWAP1 DUP4 ADD SWAP1 PUSH2 0x160 DUP3 DUP7 SUB SLT ISZERO PUSH2 0x38B0 JUMPI PUSH0 DUP1 REVERT JUMPDEST PUSH2 0x38B8 PUSH2 0x2BD8 JUMP JUMPDEST PUSH2 0x38C1 DUP4 PUSH2 0x37F7 JUMP JUMPDEST DUP2 MSTORE PUSH2 0x38CF PUSH1 0x20 DUP5 ADD PUSH2 0x37F7 JUMP JUMPDEST PUSH1 0x20 DUP3 ADD MSTORE PUSH2 0x38E0 PUSH1 0x40 DUP5 ADD PUSH2 0x37F7 JUMP JUMPDEST PUSH1 0x40 DUP3 ADD MSTORE PUSH2 0x38F1 PUSH1 0x60 DUP5 ADD PUSH2 0x3806 JUMP JUMPDEST PUSH1 0x60 DUP3 ADD MSTORE PUSH2 0x3902 PUSH1 0x80 DUP5 ADD PUSH2 0x3806 JUMP JUMPDEST PUSH1 0x80 DUP3 ADD MSTORE PUSH2 0x3913 PUSH1 0xA0 DUP5 ADD PUSH2 0x3806 JUMP JUMPDEST PUSH1 0xA0 DUP3 ADD MSTORE PUSH2 0x3924 PUSH1 0xC0 DUP5 ADD PUSH2 0x3806 JUMP JUMPDEST PUSH1 0xC0 DUP3 ADD MSTORE PUSH2 0x3935 PUSH1 0xE0 DUP5 ADD PUSH2 0x33DE JUMP JUMPDEST PUSH1 0xE0 DUP3 ADD MSTORE PUSH2 0x100 PUSH2 0x3948 DUP2 DUP6 ADD PUSH2 0x33DE JUMP JUMPDEST SWAP1 DUP3 ADD MSTORE PUSH2 0x120 PUSH2 0x395A DUP5 DUP3 ADD PUSH2 0x33DE JUMP JUMPDEST SWAP1 DUP3 ADD MSTORE PUSH2 0x140 DUP4 DUP2 ADD MLOAD DUP4 DUP2 GT ISZERO PUSH2 0x3971 JUMPI PUSH0 DUP1 REVERT JUMPDEST PUSH2 0x397D DUP9 DUP3 DUP8 ADD PUSH2 0x3811 JUMP JUMPDEST SWAP2 DUP4 ADD SWAP2 SWAP1 SWAP2 MSTORE POP SWAP6 SWAP5 POP POP POP POP POP JUMP JUMPDEST DUP1 DUP3 ADD DUP1 DUP3 GT ISZERO PUSH2 0x91A JUMPI PUSH2 0x91A PUSH2 0x33AA JUMP JUMPDEST PUSH0 PUSH1 0x80 DUP3 DUP5 SUB SLT ISZERO PUSH2 0x39B1 JUMPI PUSH0 DUP1 REVERT JUMPDEST PUSH2 0x39B9 PUSH2 0x2BFB JUMP JUMPDEST SWAP1 POP DUP2 MLOAD DUP2 MSTORE PUSH1 0x20 DUP1 DUP4 ADD MLOAD PUSH2 0x39CE DUP2 PUSH2 0x2B4B JUMP JUMPDEST DUP3 DUP3 ADD MSTORE PUSH1 0x40 DUP4 DUP2 ADD MLOAD SWAP1 DUP4 ADD MSTORE PUSH1 0x60 DUP4 ADD MLOAD PUSH1 0x1 PUSH1 0x1 PUSH1 0x40 SHL SUB DUP2 GT ISZERO PUSH2 0x39F4 JUMPI PUSH0 DUP1 REVERT JUMPDEST DUP4 ADD PUSH1 0x1F DUP2 ADD DUP6 SGT PUSH2 0x3A04 JUMPI PUSH0 DUP1 REVERT JUMPDEST DUP1 MLOAD PUSH2 0x3A12 PUSH2 0x2CB0 DUP3 PUSH2 0x2C6F JUMP JUMPDEST DUP2 DUP2 MSTORE PUSH1 0x5 SWAP2 SWAP1 SWAP2 SHL DUP3 ADD DUP4 ADD SWAP1 DUP4 DUP2 ADD SWAP1 DUP8 DUP4 GT ISZERO PUSH2 0x3A30 JUMPI PUSH0 DUP1 REVERT JUMPDEST SWAP3 DUP5 ADD SWAP3 JUMPDEST DUP3 DUP5 LT ISZERO PUSH2 0x3A4E JUMPI DUP4 MLOAD DUP3 MSTORE SWAP3 DUP5 ADD SWAP3 SWAP1 DUP5 ADD SWAP1 PUSH2 0x3A35 JUMP JUMPDEST PUSH1 0x60 DUP7 ADD MSTORE POP SWAP3 SWAP6 SWAP5 POP POP POP POP POP JUMP JUMPDEST PUSH0 PUSH2 0x3A6B PUSH2 0x2CB0 DUP5 PUSH2 0x2C6F JUMP JUMPDEST DUP4 DUP2 MSTORE SWAP1 POP PUSH1 0x20 DUP1 DUP3 ADD SWAP1 PUSH1 0x5 DUP6 SWAP1 SHL DUP5 ADD DUP7 DUP2 GT ISZERO PUSH2 0x3A89 JUMPI PUSH0 DUP1 REVERT JUMPDEST DUP5 JUMPDEST DUP2 DUP2 LT ISZERO PUSH2 0x3AC2 JUMPI DUP1 MLOAD PUSH1 0x1 PUSH1 0x1 PUSH1 0x40 SHL SUB DUP2 GT ISZERO PUSH2 0x3AA8 JUMPI PUSH0 DUP1 REVERT JUMPDEST PUSH2 0x3AB4 DUP10 DUP3 DUP10 ADD PUSH2 0x39A1 JUMP JUMPDEST DUP6 MSTORE POP SWAP3 DUP3 ADD SWAP3 DUP3 ADD PUSH2 0x3A8B JUMP JUMPDEST POP POP POP POP SWAP4 SWAP3 POP POP POP JUMP JUMPDEST PUSH0 DUP3 PUSH1 0x1F DUP4 ADD SLT PUSH2 0x3ADC JUMPI PUSH0 DUP1 REVERT JUMPDEST PUSH2 0x917 DUP4 DUP4 MLOAD PUSH1 0x20 DUP6 ADD PUSH2 0x3A5E JUMP JUMPDEST DUP1 MLOAD PUSH1 0xF DUP2 SWAP1 SIGNEXTEND DUP2 EQ PUSH2 0x33E9 JUMPI PUSH0 DUP1 REVERT JUMPDEST DUP1 MLOAD PUSH2 0x33E9 DUP2 PUSH2 0x32AA JUMP JUMPDEST PUSH0 DUP1 PUSH0 DUP1 PUSH0 DUP1 PUSH1 0xC0 DUP8 DUP10 SUB SLT ISZERO PUSH2 0x3B1C JUMPI PUSH0 DUP1 REVERT JUMPDEST DUP7 MLOAD PUSH1 0x1 PUSH1 0x1 PUSH1 0x40 SHL SUB DUP1 DUP3 GT ISZERO PUSH2 0x3B32 JUMPI PUSH0 DUP1 REVERT JUMPDEST DUP2 DUP10 ADD SWAP2 POP DUP10 PUSH1 0x1F DUP4 ADD SLT PUSH2 0x3B45 JUMPI PUSH0 DUP1 REVERT JUMPDEST DUP2 MLOAD PUSH1 0x20 PUSH2 0x3B55 PUSH2 0x2CB0 DUP4 PUSH2 0x2C6F JUMP JUMPDEST DUP3 DUP2 MSTORE PUSH1 0x6 SWAP3 SWAP1 SWAP3 SHL DUP5 ADD DUP2 ADD SWAP2 DUP2 DUP2 ADD SWAP1 DUP14 DUP5 GT ISZERO PUSH2 0x3B73 JUMPI PUSH0 DUP1 REVERT JUMPDEST SWAP5 DUP3 ADD SWAP5 JUMPDEST DUP4 DUP7 LT ISZERO PUSH2 0x3BB4 JUMPI PUSH1 0x40 DUP7 DUP16 SUB SLT ISZERO PUSH2 0x3B8F JUMPI PUSH0 DUP1 REVERT JUMPDEST PUSH2 0x3B97 PUSH2 0x2B8E JUMP JUMPDEST DUP7 MLOAD DUP2 MSTORE DUP4 DUP8 ADD MLOAD DUP5 DUP3 ADD MSTORE DUP3 MSTORE PUSH1 0x40 SWAP1 SWAP6 ADD SWAP5 SWAP1 DUP3 ADD SWAP1 PUSH2 0x3B78 JUMP JUMPDEST SWAP2 DUP13 ADD MLOAD SWAP2 SWAP11 POP SWAP1 SWAP4 POP POP POP DUP1 DUP3 GT ISZERO PUSH2 0x3BCC JUMPI PUSH0 DUP1 REVERT JUMPDEST POP PUSH2 0x3BD9 DUP10 DUP3 DUP11 ADD PUSH2 0x3ACD JUMP JUMPDEST SWAP6 POP POP PUSH2 0x3BE8 PUSH1 0x40 DUP9 ADD PUSH2 0x3AEB JUMP JUMPDEST SWAP4 POP PUSH2 0x3BF6 PUSH1 0x60 DUP9 ADD PUSH2 0x3AFC JUMP JUMPDEST SWAP3 POP PUSH2 0x3C04 PUSH1 0x80 DUP9 ADD PUSH2 0x3AFC JUMP JUMPDEST SWAP2 POP PUSH2 0x3C12 PUSH1 0xA0 DUP9 ADD PUSH2 0x3AFC JUMP JUMPDEST SWAP1 POP SWAP3 SWAP6 POP SWAP3 SWAP6 POP SWAP3 SWAP6 JUMP JUMPDEST PUSH0 DUP2 MLOAD DUP1 DUP5 MSTORE PUSH1 0x20 DUP1 DUP6 ADD SWAP5 POP PUSH1 0x20 DUP5 ADD PUSH0 JUMPDEST DUP4 DUP2 LT ISZERO PUSH2 0x3C58 JUMPI DUP2 MLOAD DUP1 MLOAD DUP9 MSTORE DUP4 ADD MLOAD DUP4 DUP9 ADD MSTORE PUSH1 0x40 SWAP1 SWAP7 ADD SWAP6 SWAP1 DUP3 ADD SWAP1 PUSH1 0x1 ADD PUSH2 0x3C31 JUMP JUMPDEST POP SWAP5 SWAP6 SWAP5 POP POP POP POP POP JUMP JUMPDEST PUSH0 PUSH1 0x1 DUP1 PUSH1 0xA0 SHL SUB DUP1 DUP11 AND DUP4 MSTORE PUSH1 0xE0 PUSH1 0x20 DUP5 ADD MSTORE PUSH2 0x3C84 PUSH1 0xE0 DUP5 ADD DUP11 PUSH2 0x3C1E JUMP JUMPDEST DUP9 PUSH1 0xF SIGNEXTEND PUSH1 0x40 DUP6 ADD MSTORE DUP4 DUP2 SUB PUSH1 0x60 DUP6 ADD MSTORE PUSH2 0x3C9F DUP2 DUP10 PUSH2 0x3C1E JUMP JUMPDEST PUSH4 0xFFFFFFFF SWAP8 DUP9 AND PUSH1 0x80 DUP7 ADD MSTORE SWAP6 SWAP1 SWAP7 AND PUSH1 0xA0 DUP5 ADD MSTORE SWAP3 SWAP1 SWAP3 AND PUSH1 0xC0 SWAP1 SWAP2 ADD MSTORE POP SWAP6 SWAP5 POP POP POP POP POP JUMP JUMPDEST PUSH0 PUSH1 0x20 DUP3 DUP5 SUB SLT ISZERO PUSH2 0x3CD9 JUMPI PUSH0 DUP1 REVERT JUMPDEST PUSH2 0x917 DUP3 PUSH2 0x3AEB JUMP JUMPDEST PUSH0 PUSH1 0x20 DUP3 DUP5 SUB SLT ISZERO PUSH2 0x3CF2 JUMPI PUSH0 DUP1 REVERT JUMPDEST DUP2 MLOAD PUSH1 0x1 PUSH1 0x1 PUSH1 0x40 SHL SUB DUP2 GT ISZERO PUSH2 0x3D07 JUMPI PUSH0 DUP1 REVERT JUMPDEST DUP3 ADD PUSH1 0x1F DUP2 ADD DUP5 SGT PUSH2 0x3D17 JUMPI PUSH0 DUP1 REVERT JUMPDEST PUSH2 0x23DF DUP5 DUP3 MLOAD PUSH1 0x20 DUP5 ADD PUSH2 0x3A5E JUMP JUMPDEST PUSH0 PUSH1 0x20 DUP3 DUP5 SUB SLT ISZERO PUSH2 0x3D36 JUMPI PUSH0 DUP1 REVERT JUMPDEST PUSH2 0x917 DUP3 PUSH2 0x37F7 JUMP JUMPDEST PUSH0 DUP1 PUSH0 PUSH1 0x60 DUP5 DUP7 SUB SLT ISZERO PUSH2 0x3D51 JUMPI PUSH0 DUP1 REVERT JUMPDEST DUP4 MLOAD PUSH2 0x3D5C DUP2 PUSH2 0x2B4B JUMP JUMPDEST PUSH1 0x20 DUP6 ADD MLOAD SWAP1 SWAP4 POP PUSH2 0x3D6D DUP2 PUSH2 0x2B4B JUMP JUMPDEST PUSH1 0x40 DUP6 ADD MLOAD SWAP1 SWAP3 POP PUSH1 0x1 PUSH1 0x1 PUSH1 0x40 SHL SUB DUP2 GT ISZERO PUSH2 0x3D88 JUMPI PUSH0 DUP1 REVERT JUMPDEST PUSH2 0x3D94 DUP7 DUP3 DUP8 ADD PUSH2 0x3430 JUMP JUMPDEST SWAP2 POP POP SWAP3 POP SWAP3 POP SWAP3 JUMP JUMPDEST PUSH1 0x40 DUP2 MSTORE PUSH0 PUSH2 0x3DB0 PUSH1 0x40 DUP4 ADD DUP6 PUSH2 0x2F94 JUMP JUMPDEST SWAP1 POP DUP3 PUSH1 0x20 DUP4 ADD MSTORE SWAP4 SWAP3 POP POP POP JUMP JUMPDEST PUSH1 0x40 DUP2 MSTORE PUSH0 PUSH2 0x3DD1 PUSH1 0x40 DUP4 ADD DUP6 PUSH2 0x2F94 JUMP JUMPDEST SWAP1 POP PUSH1 0x1 DUP1 PUSH1 0xA0 SHL SUB DUP4 AND PUSH1 0x20 DUP4 ADD MSTORE SWAP4 SWAP3 POP POP POP JUMP JUMPDEST PUSH0 PUSH1 0x1 DUP3 ADD PUSH2 0x3DF9 JUMPI PUSH2 0x3DF9 PUSH2 0x33AA JUMP JUMPDEST POP PUSH1 0x1 ADD SWAP1 JUMP JUMPDEST PUSH1 0x60 DUP2 MSTORE PUSH0 PUSH2 0x3E12 PUSH1 0x60 DUP4 ADD DUP7 PUSH2 0x2F94 JUMP JUMPDEST PUSH1 0x1 PUSH1 0x1 PUSH1 0xA0 SHL SUB SWAP5 SWAP1 SWAP5 AND PUSH1 0x20 DUP4 ADD MSTORE POP PUSH1 0xFF SWAP2 SWAP1 SWAP2 AND PUSH1 0x40 SWAP1 SWAP2 ADD MSTORE SWAP2 SWAP1 POP JUMP JUMPDEST PUSH0 DUP3 PUSH2 0x3E43 JUMPI PUSH2 0x3E43 PUSH2 0x37A3 JUMP JUMPDEST POP DIV SWAP1 JUMP JUMPDEST PUSH0 DUP3 PUSH2 0x3E56 JUMPI PUSH2 0x3E56 PUSH2 0x37A3 JUMP JUMPDEST POP MOD SWAP1 JUMP JUMPDEST PUSH0 PUSH1 0x20 DUP3 DUP5 SUB SLT ISZERO PUSH2 0x3E6B JUMPI PUSH0 DUP1 REVERT JUMPDEST DUP2 MLOAD PUSH1 0x1 PUSH1 0x1 PUSH1 0x40 SHL SUB DUP2 GT ISZERO PUSH2 0x3E80 JUMPI PUSH0 DUP1 REVERT JUMPDEST PUSH2 0x23DF DUP5 DUP3 DUP6 ADD PUSH2 0x39A1 JUMP JUMPDEST PUSH0 PUSH1 0x20 DUP1 DUP4 DUP6 SUB SLT ISZERO PUSH2 0x3E9D JUMPI PUSH0 DUP1 REVERT JUMPDEST DUP3 MLOAD PUSH1 0x1 PUSH1 0x1 PUSH1 0x40 SHL SUB DUP2 GT ISZERO PUSH2 0x3EB2 JUMPI PUSH0 DUP1 REVERT JUMPDEST DUP4 ADD PUSH1 0x1F DUP2 ADD DUP6 SGT PUSH2 0x3EC2 JUMPI PUSH0 DUP1 REVERT JUMPDEST DUP1 MLOAD PUSH2 0x3ED0 PUSH2 0x2CB0 DUP3 PUSH2 0x2C6F JUMP JUMPDEST DUP2 DUP2 MSTORE PUSH1 0x60 SWAP2 DUP3 MUL DUP4 ADD DUP5 ADD SWAP2 DUP5 DUP3 ADD SWAP2 SWAP1 DUP9 DUP5 GT ISZERO PUSH2 0x3EEE JUMPI PUSH0 DUP1 REVERT JUMPDEST SWAP4 DUP6 ADD SWAP4 JUMPDEST DUP4 DUP6 LT ISZERO PUSH2 0x3F48 JUMPI DUP1 DUP6 DUP11 SUB SLT ISZERO PUSH2 0x3F09 JUMPI PUSH0 DUP1 REVERT JUMPDEST PUSH2 0x3F11 PUSH2 0x2C1D JUMP JUMPDEST DUP6 MLOAD PUSH2 0x3F1C DUP2 PUSH2 0x2B4B JUMP JUMPDEST DUP2 MSTORE DUP6 DUP8 ADD MLOAD DUP8 DUP3 ADD MSTORE PUSH1 0x40 DUP1 DUP8 ADD MLOAD PUSH2 0x3F35 DUP2 PUSH2 0x2B4B JUMP JUMPDEST SWAP1 DUP3 ADD MSTORE DUP4 MSTORE SWAP4 DUP5 ADD SWAP4 SWAP2 DUP6 ADD SWAP2 PUSH2 0x3EF3 JUMP JUMPDEST POP SWAP8 SWAP7 POP POP POP POP POP POP POP JUMP JUMPDEST PUSH0 PUSH1 0xFF DUP3 AND PUSH1 0xFF DUP2 SUB PUSH2 0x3F69 JUMPI PUSH2 0x3F69 PUSH2 0x33AA JUMP JUMPDEST PUSH1 0x1 ADD SWAP3 SWAP2 POP POP JUMP JUMPDEST PUSH0 PUSH1 0x20 DUP3 DUP5 SUB SLT ISZERO PUSH2 0x3F82 JUMPI PUSH0 DUP1 REVERT JUMPDEST POP MLOAD SWAP2 SWAP1 POP JUMP JUMPDEST PUSH0 PUSH1 0x20 DUP3 DUP5 SUB SLT ISZERO PUSH2 0x3F99 JUMPI PUSH0 DUP1 REVERT JUMPDEST DUP2 MLOAD PUSH1 0x1 PUSH1 0x1 PUSH1 0x40 SHL SUB DUP1 DUP3 GT ISZERO PUSH2 0x3FAF JUMPI PUSH0 DUP1 REVERT JUMPDEST SWAP1 DUP4 ADD SWAP1 PUSH1 0xC0 DUP3 DUP7 SUB SLT ISZERO PUSH2 0x3FC2 JUMPI PUSH0 DUP1 REVERT JUMPDEST PUSH2 0x3FCA PUSH2 0x2BB6 JUMP JUMPDEST DUP3 MLOAD DUP2 MSTORE PUSH1 0x20 DUP4 ADD MLOAD PUSH1 0x20 DUP3 ADD MSTORE PUSH1 0x40 DUP4 ADD MLOAD DUP3 DUP2 GT ISZERO PUSH2 0x3FE9 JUMPI PUSH0 DUP1 REVERT JUMPDEST PUSH2 0x3FF5 DUP8 DUP3 DUP7 ADD PUSH2 0x33EE JUMP JUMPDEST PUSH1 0x40 DUP4 ADD MSTORE POP PUSH1 0x60 DUP4 ADD MLOAD DUP3 DUP2 GT ISZERO PUSH2 0x400C JUMPI PUSH0 DUP1 REVERT JUMPDEST PUSH2 0x4018 DUP8 DUP3 DUP7 ADD PUSH2 0x3430 JUMP JUMPDEST PUSH1 0x60 DUP4 ADD MSTORE POP PUSH2 0x402A PUSH1 0x80 DUP5 ADD PUSH2 0x33DE JUMP JUMPDEST PUSH1 0x80 DUP3 ADD MSTORE PUSH2 0x403B PUSH1 0xA0 DUP5 ADD PUSH2 0x33DE JUMP JUMPDEST PUSH1 0xA0 DUP3 ADD MSTORE SWAP6 SWAP5 POP POP POP POP POP JUMP JUMPDEST PUSH0 DUP3 MLOAD PUSH2 0x405A DUP2 DUP5 PUSH1 0x20 DUP8 ADD PUSH2 0x2F72 JUMP JUMPDEST SWAP2 SWAP1 SWAP2 ADD SWAP3 SWAP2 POP POP JUMP JUMPDEST DUP1 DUP3 MUL DUP2 ISZERO DUP3 DUP3 DIV DUP5 EQ OR PUSH2 0x91A JUMPI PUSH2 0x91A PUSH2 0x33AA JUMP JUMPDEST PUSH1 0x20 DUP2 MSTORE PUSH0 PUSH2 0x917 PUSH1 0x20 DUP4 ADD DUP5 PUSH2 0x2F94 JUMP INVALID COINBASE PUSH5 0x6472657373 GASPRICE KECCAK256 PUSH13 0x6F772D6C6576656C2064656C65 PUSH8 0x6174652063616C6C KECCAK256 PUSH7 0x61696C6564A264 PUSH10 0x70667358221220A990E1 PUSH15 0xA3E8A696F46CD70DA7B910CED8303E PUSH22 0x6713E910819B24E9496FB98564736F6C634300081600 CALLER "
  },
  "Assembly": ".code\n  PUSH C0\t\t\t\n  PUSH 40\t\t\t\n  MSTORE \t\t\t\n  CALLVALUE \t\t\t\n  DUP1 \t\t\t\n  ISZERO \t\t\t\n  PUSH [tag] 1\t\t\t\n  JUMPI \t\t\t\n  PUSH 0\t\t\t\n  DUP1 \t\t\t\n  REVERT \t\t\t\ntag 1\t\t\t\n  JUMPDEST \t\t\t\n  POP \t\t\t\n  PUSH 40\t\t\t\n  MLOAD \t\t\t\n  PUSHSIZE \t\t\t\n  CODESIZE \t\t\t\n  SUB \t\t\t\n  DUP1 \t\t\t\n  PUSHSIZE \t\t\t\n  DUP4 \t\t\t\n  CODECOPY \t\t\t\n  DUP2 \t\t\t\n  ADD \t\t\t\n  PUSH 40\t\t\t\n  DUP2 \t\t\t\n  SWAP1 \t\t\t\n  MSTORE \t\t\t\n  PUSH [tag] 2\t\t\t\n  SWAP2 \t\t\t\n  PUSH [tag] 3\t\t\t\n  JUMP \t\t\t\ntag 2\t\t\t\n  JUMPDEST \t\t\t\n  PUSH 1\t\t\t\n  PUSH 1\t\t\t\n  PUSH A0\t\t\t\n  SHL \t\t\t\n  SUB \t\t\t\n  DUP3 \t\t\t bool public distri\n  AND \t\t\t bool public distri\n  PUSH 80\t\t\t bool public distri\n  MSTORE \t\t\t bool public distri\n  PUSH 40\t\t\the timestamps in \n  MLOAD \t\t\the timestamps in \n  DUP3 \t\t\t\n  SWAP1 \t\t\t\n  DUP3 \t\t\t\n  SWAP1 \t\t\t\n  DUP3 \t\t\t\n  SWAP1 \t\t\t\n  DUP3 \t\t\t\n  SWAP1 \t\t\t\n  PUSH [tag] 8\t\t\the timestamps in \n  SWAP1 \t\t\the timestamps in \n  DUP3 \t\t\t\n  SWAP1 \t\t\t\n  PUSH 20\t\t\the timestamps in \n  ADD \t\t\the timestamps in \n  PUSH [tag] 9\t\t\the timestamps in \n  JUMP \t\t\the timestamps in \ntag 8\t\t\the timestamps in \n  JUMPDEST \t\t\the timestamps in \n  PUSH 40\t\t\the timestamps in \n  DUP1 \t\t\the timestamps in \n  MLOAD \t\t\the timestamps in \n  PUSH 1F\t\t\t\n  NOT \t\t\t\n  DUP2 \t\t\the timestamps in \n  DUP5 \t\t\the timestamps in \n  SUB \t\t\the timestamps in \n  ADD \t\t\the timestamps in \n  DUP2 \t\t\the timestamps in \n  MSTORE \t\t\the timestamps in \n  SWAP2 \t\t\the timestamps in \n  SWAP1 \t\t\the timestamps in \n  MSTORE \t\t\the timestamps in \n  DUP1 \t\t\t @notice The timestamps in m\n  MLOAD \t\t\t @notice The timestamps in m\n  PUSH 20\t\t\the timestamps in \n  SWAP1 \t\t\t @notice The timestamps in m\n  SWAP2 \t\t\t @notice The timestamps in m\n  ADD \t\t\t @notice The timestamps in m\n  KECCAK256 \t\t\t @notice The timestamps in m\n  PUSH A0\t\t\tted;\\n\\n    /// @notice The ti...\n  MSTORE \t\t\tted;\\n\\n    /// @notice The ti...\n  POP \t\t\t\n  PUSH [tag] 15\t\t\t\n  SWAP5 \t\t\t\n  POP \t\t\t\n  POP \t\t\t\n  POP \t\t\t\n  POP \t\t\t\n  POP \t\t\t\n  JUMP \t\t\t\ntag 13\t\t\tense-Identifier: AGPL-3.0-only...\n  JUMPDEST \t\t\tense-Identifier: AGPL-3.0-only...\n  PUSH 4E487B71\t\t\txternal Li\n  PUSH E0\t\t\t\\n//\n  SHL \t\t\t19;\\n\\n// External Lib\n  PUSH 0\t\t\t.\n  MSTORE \t\t\tdity ^0.8.19;\\n\\n// External L...\n  PUSH 41\t\t\tlin \n  PUSH 4\t\t\tp\n  MSTORE \t\t\t OpenZeppelin C\n  PUSH 24\t\t\tted \n  PUSH 0\t\t\tp\n  REVERT \t\t\t(last updated v\ntag 14\t\t\tls/cryptography/MerkleProof.so...\n  JUMPDEST \t\t\tls/cryptography/MerkleProof.so...\n  PUSH 0\t\t\to\ntag 18\t\t\tTree proofs.\\n *\\n * The tree ...\n  JUMPDEST \t\t\tTree proofs.\\n *\\n * The tree ...\n  DUP4 \t\t\t*\\n * T\n  DUP2 \t\t\t.\n  LT \t\t\tofs.\\n *\\n * Th\n  ISZERO \t\t\tTree proofs.\\n *\\n * The tree ...\n  PUSH [tag] 20\t\t\tTree proofs.\\n *\\n * The tree ...\n  JUMPI \t\t\tTree proofs.\\n *\\n * The tree ...\n  DUP2 \t\t\tm/OpenZeppe\n  DUP2 \t\t\tm/OpenZeppe\n  ADD \t\t\tm/OpenZeppe\n  MLOAD \t\t\thub.com/OpenZeppel\n  DUP4 \t\t\t* https://g\n  DUP3 \t\t\t* https://g\n  ADD \t\t\t* https://g\n  MSTORE \t\t\tg our\\n * https://github.com/O...\n  PUSH 20\t\t\tpr\n  ADD \t\t\tnd the pro\n  PUSH [tag] 18\t\t\tTree proofs.\\n *\\n * The tree ...\n  JUMP \t\t\tTree proofs.\\n *\\n * The tree ...\ntag 20\t\t\tTree proofs.\\n *\\n * The tree ...\n  JUMPDEST \t\t\tTree proofs.\\n *\\n * The tree ...\n  POP \t\t\t\n  POP \t\t\t\n  PUSH 0\t\t\tl\n  SWAP2 \t\t\tibrary].\\n * You \n  ADD \t\t\tibrary].\\n * You \n  MSTORE \t\t\tcript library].\\n * You will\n  JUMP \t\t\tls/cryptography/MerkleProof.so...\ntag 3\t\t\tckstart guide in the readme.\\n...\n  JUMPDEST \t\t\tckstart guide in the readme.\\n...\n  PUSH 0\t\t\t4 byte\n  DUP1 \t\t\tlong p\n  PUSH 40\t\t\tr \n  DUP4 \t\t\tunction o\n  DUP6 \t\t\t a hash\n  SUB \t\t\t use a hash function ot\n  SLT \t\t\t, or use a hash function other...\n  ISZERO \t\t\ting, or use a hash function ot...\n  PUSH [tag] 22\t\t\ting, or use a hash function ot...\n  JUMPI \t\t\ting, or use a hash function ot...\n  PUSH 0\t\t\t \n  DUP1 \t\t\t2\n  REVERT \t\t\t keccak256 f\ntag 22\t\t\ting, or use a hash function ot...\n  JUMPDEST \t\t\ting, or use a hash function ot...\n  DUP3 \t\t\tis is because th\n  MLOAD \t\t\tis is because th\n  PUSH 1\t\t\t\n  PUSH 1\t\t\t\n  PUSH A0\t\t\t\n  SHL \t\t\t\n  SUB \t\t\t\n  DUP2 \t\t\tair of internal nodes in\\n * t...\n  AND \t\t\tair of internal nodes in\\n * t...\n  DUP2 \t\t\ta sorted pair of internal node...\n  EQ \t\t\ta sorted pair of internal node...\n  PUSH [tag] 23\t\t\tnation of a sorted pair of int...\n  JUMPI \t\t\tnation of a sorted pair of int...\n  PUSH 0\t\t\tu\n  DUP1 \t\t\t \n  REVERT \t\t\tle tree coul\ntag 23\t\t\tnation of a sorted pair of int...\n  JUMPDEST \t\t\tnation of a sorted pair of int...\n  PUSH 20\t\t\try\n  DUP5 \t\t\tavaScript library \n  ADD \t\t\tavaScript library \n  MLOAD \t\t\tin's JavaScript library g\n  SWAP1 \t\t\t a le\n  SWAP3 \t\t\t a le\n  POP \t\t\t\n  PUSH 1\t\t\t\n  PUSH 1\t\t\t\n  PUSH 40\t\t\t\n  SHL \t\t\t\n  SUB \t\t\t\n  DUP1 \t\t\tis attack out \n  DUP3 \t\t\tis attack out \n  GT \t\t\tis attack out \n  ISZERO \t\t\t this attack out of the box.\\n...\n  PUSH [tag] 24\t\t\t this attack out of the box.\\n...\n  JUMPI \t\t\t this attack out of the box.\\n...\n  PUSH 0\t\t\t*\n  DUP1 \t\t\t.\n  REVERT \t\t\tthe box.\\n */\ntag 24\t\t\t this attack out of the box.\\n...\n  JUMPDEST \t\t\t this attack out of the box.\\n...\n  DUP2 \t\t\t* @dev\n  DUP6 \t\t\t  /**\\n   \n  ADD \t\t\t{\\n    /**\\n     * @dev \n  SWAP2 \t\t\trkleProof {\\n    /**\\n     * @...\n  POP \t\t\trkleProof {\\n    /**\\n     * @...\n  DUP6 \t\t\t to be \n  PUSH 1F\t\t\t pro\n  DUP4 \t\t\tn \n  ADD \t\t\t` can be prov\n  SLT \t\t\tleaf` can be proved to be a\n  PUSH [tag] 25\t\t\true if a `leaf` can be proved ...\n  JUMPI \t\t\true if a `leaf` can be proved ...\n  PUSH 0\t\t\tk\n  DUP1 \t\t\tM\n  REVERT \t\t\tt of a Merkl\ntag 25\t\t\true if a `leaf` can be proved ...\n  JUMPDEST \t\t\true if a `leaf` can be proved ...\n  DUP2 \t\t\too\n  MLOAD \t\t\t by `root\n  DUP2 \t\t\tof\n  DUP2 \t\t\t`p\n  GT \t\t\t a `proof`\n  ISZERO \t\t\tis, a `proof` must be provided...\n  PUSH [tag] 27\t\t\tis, a `proof` must be provided...\n  JUMPI \t\t\tis, a `proof` must be provided...\n  PUSH [tag] 27\t\t\tst be provided, co\n  PUSH [tag] 13\t\t\tst be provided, co\n  JUMP \t\t\tst be provided, co\ntag 27\t\t\tst be provided, co\n  JUMPDEST \t\t\tst be provided, co\n  PUSH 40\t\t\tf \n  MLOAD \t\t\the leaf t\n  PUSH 1F\t\t\tas\n  DUP3 \t\t\tand each pair\n  ADD \t\t\tand each pair\n  PUSH 1F\t\t\t\n  NOT \t\t\t\n  SWAP1 \t\t\tves and each pair of p\n  DUP2 \t\t\tves and each pair of p\n  AND \t\t\tves and each pair of p\n  PUSH 3F\t\t\t-i\n  ADD \t\t\t leaves and each pair of pre-i...\n  AND \t\t\tr of leaves and each pair of p...\n  DUP2 \t\t\th\\n     * pair of leaves and e...\n  ADD \t\t\th\\n     * pair of leaves and e...\n  SWAP1 \t\t\th\\n     * pair of leaves and e...\n  DUP4 \t\t\te sorted.\\n     */\\n\n  DUP3 \t\t\te sorted.\\n     */\\n\n  GT \t\t\te sorted.\\n     */\\n\n  DUP2 \t\t\t  function verify(byte\n  DUP4 \t\t\t  function verify(byte\n  LT \t\t\t  function verify(byte\n  OR \t\t\to be sorted.\\n     */\\n    fun...\n  ISZERO \t\t\td to be sorted.\\n     */\\n    ...\n  PUSH [tag] 29\t\t\td to be sorted.\\n     */\\n    ...\n  JUMPI \t\t\td to be sorted.\\n     */\\n    ...\n  PUSH [tag] 29\t\t\t] memory proof, by\n  PUSH [tag] 13\t\t\t] memory proof, by\n  JUMP \t\t\t] memory proof, by\ntag 29\t\t\t] memory proof, by\n  JUMPDEST \t\t\t] memory proof, by\n  DUP2 \t\t\taf) intern\n  PUSH 40\t\t\t2 \n  MSTORE \t\t\t bytes32 leaf) interna\n  DUP3 \t\t\t  \n  DUP2 \t\t\tbool) \n  MSTORE \t\t\tturns (bool) {\\n   \n  DUP9 \t\t\t == roo\n  PUSH 20\t\t\tle\n  DUP5 \t\t\too\n  DUP8 \t\t\tf(\n  ADD \t\t\tProof(proof\n  ADD \t\t\tcessProof(proof, lea\n  GT \t\t\tprocessProof(proof, leaf) == r...\n  ISZERO \t\t\trn processProof(proof, leaf) =...\n  PUSH [tag] 30\t\t\trn processProof(proof, leaf) =...\n  JUMPI \t\t\trn processProof(proof, leaf) =...\n  PUSH 0\t\t\t/\n  DUP1 \t\t\t \n  REVERT \t\t\t   }\\n\\n    /*\ntag 30\t\t\trn processProof(proof, leaf) =...\n  JUMPDEST \t\t\trn processProof(proof, leaf) =...\n  PUSH [tag] 31\t\t\tev Calldata version of {verify...\n  DUP4 \t\t\t.7\n  PUSH 20\t\t\tce\n  DUP4 \t\t\table s\n  ADD \t\t\tvailable since \n  PUSH 20\t\t\t *\n  DUP9 \t\t\t  \n  ADD \t\t\t  *\\n     * \n  PUSH [tag] 14\t\t\tev Calldata version of {verify...\n  JUMP \t\t\tev Calldata version of {verify...\ntag 31\t\t\tev Calldata version of {verify...\n  JUMPDEST \t\t\tev Calldata version of {verify...\n  DUP1 \t\t\tion ve\n  SWAP6 \t\t\t\\n    function ve\n  POP \t\t\t\\n    function ve\n  POP \t\t\t\\n    function ve\n  POP \t\t\t\\n    function ve\n  POP \t\t\t\\n    function ve\n  POP \t\t\t\\n    function ve\n  POP \t\t\t\\n    function ve\n  SWAP3 \t\t\tckstart guide in the readme.\\n...\n  POP \t\t\tckstart guide in the readme.\\n...\n  SWAP3 \t\t\tckstart guide in the readme.\\n...\n  SWAP1 \t\t\tckstart guide in the readme.\\n...\n  POP \t\t\tckstart guide in the readme.\\n...\n  JUMP \t\t\tckstart guide in the readme.\\n...\ntag 9\t\t\ta(bytes32[] calldata proof, by...\n  JUMPDEST \t\t\ta(bytes32[] calldata proof, by...\n  PUSH 20\t\t\t}\\n\n  DUP2 \t\t\t root;\\n  \n  MSTORE \t\t\teaf) == root;\\n    }\\n\\n\n  PUSH 0\t\t\tofCa\n  DUP3 \t\t\the reb\n  MLOAD \t\t\turns the rebu\n  DUP1 \t\t\trkle t\n  PUSH 20\t\t\t a\n  DUP5 \t\t\t traversi\n  ADD \t\t\td by traversing a \n  MSTORE \t\t\tobtained by traversing a Merkl...\n  PUSH [tag] 33\t\t\t  * from `leaf` using `proof`....\n  DUP2 \t\t\tuilt\\n \n  PUSH 40\t\t\te \n  DUP6 \t\t\t only if \n  ADD \t\t\t and only if the r\n  PUSH 20\t\t\tid\n  DUP8 \t\t\t` is v\n  ADD \t\t\troof` is valid \n  PUSH [tag] 14\t\t\t  * from `leaf` using `proof`....\n  JUMP \t\t\t  * from `leaf` using `proof`....\ntag 33\t\t\t  * from `leaf` using `proof`....\n  JUMPDEST \t\t\t  * from `leaf` using `proof`....\n  PUSH 1F\t\t\tro\n  ADD \t\t\tWhen processing\n  PUSH 1F\t\t\t\n  NOT \t\t\t\n  AND \t\t\tee. When processing the proof\n  SWAP2 \t\t\t root of the tree. When proces...\n  SWAP1 \t\t\t root of the tree. When proces...\n  SWAP2 \t\t\t root of the tree. When proces...\n  ADD \t\t\t root of the tree. When proces...\n  PUSH 40\t\t\the\n  ADD \t\t\t the root of the tree. When pr...\n  SWAP3 \t\t\t the root of the tree. When pr...\n  SWAP2 \t\t\ta(bytes32[] calldata proof, by...\n  POP \t\t\t\n  POP \t\t\t\n  JUMP \t\t\ta(bytes32[] calldata proof, by...\ntag 15\t\t\ta(bytes32[] calldata proof, by...\n  JUMPDEST \t\t\ta(bytes32[] calldata proof, by...\n  PUSH 80\t\t\t\n  MLOAD \t\t\t\n  PUSH A0\t\t\t\n  MLOAD \t\t\t\n  PUSH #[$] 0000000000000000000000000000000000000000000000000000000000000000\t\t\t\n  PUSH [$] 0000000000000000000000000000000000000000000000000000000000000000\t\t\t\n  PUSH 0\t\t\t\n  CODECOPY \t\t\t\n  PUSH 0\t\t\t\n  ASSIGNIMMUTABLE 2010\t\t\t\n  PUSH 0\t\t\t\n  ASSIGNIMMUTABLE 2008\t\t\t\n  PUSH #[$] 0000000000000000000000000000000000000000000000000000000000000000\t\t\t\n  PUSH 0\t\t\t\n  RETURN \t\t\t\n.data\n  0:\n    .code\n      PUSH 80\t\t\t\n      PUSH 40\t\t\t\n      MSTORE \t\t\t\n      PUSH 4\t\t\t\n      CALLDATASIZE \t\t\t\n      LT \t\t\t\n      PUSH [tag] 1\t\t\t\n      JUMPI \t\t\t\n      PUSH 0\t\t\t\n      CALLDATALOAD \t\t\t\n      PUSH E0\t\t\t\n      SHR \t\t\t\n      DUP1 \t\t\t\n      PUSH 73AF3453\t\t\t\n      GT \t\t\t\n      PUSH [tag] 45\t\t\t\n      JUMPI \t\t\t\n      DUP1 \t\t\t\n      PUSH D864089F\t\t\t\n      GT \t\t\t\n      PUSH [tag] 46\t\t\t\n      JUMPI \t\t\t\n      DUP1 \t\t\t\n      PUSH EB11AF93\t\t\t\n      GT \t\t\t\n      PUSH [tag] 47\t\t\t\n      JUMPI \t\t\t\n      DUP1 \t\t\t\n      PUSH EB11AF93\t\t\t\n      EQ \t\t\t\n      PUSH [tag] 39\t\t\t\n      JUMPI \t\t\t\n      DUP1 \t\t\t\n      PUSH EDD146CC\t\t\t\n      EQ \t\t\t\n      PUSH [tag] 40\t\t\t\n      JUMPI \t\t\t\n      DUP1 \t\t\t\n      PUSH EF2920FC\t\t\t\n      EQ \t\t\t\n      PUSH [tag] 41\t\t\t\n      JUMPI \t\t\t\n      DUP1 \t\t\t\n      PUSH F5B0DFB7\t\t\t\n      EQ \t\t\t\n      PUSH [tag] 42\t\t\t\n      JUMPI \t\t\t\n      DUP1 \t\t\t\n      PUSH F6F25891\t\t\t\n      EQ \t\t\t\n      PUSH [tag] 43\t\t\t\n      JUMPI \t\t\t\n      DUP1 \t\t\t\n      PUSH FC9C8D39\t\t\t\n      EQ \t\t\t\n      PUSH [tag] 44\t\t\t\n      JUMPI \t\t\t\n      PUSH 0\t\t\t\n      DUP1 \t\t\t\n      REVERT \t\t\t\n    tag 47\t\t\t\n      JUMPDEST \t\t\t\n      DUP1 \t\t\t\n      PUSH D864089F\t\t\t\n      EQ \t\t\t\n      PUSH [tag] 34\t\t\t\n      JUMPI \t\t\t\n      DUP1 \t\t\t\n      PUSH DF868ED3\t\t\t\n      EQ \t\t\t\n      PUSH [tag] 35\t\t\t\n      JUMPI \t\t\t\n      DUP1 \t\t\t\n      PUSH DFF7D2C7\t\t\t\n      EQ \t\t\t\n      PUSH [tag] 36\t\t\t\n      JUMPI \t\t\t\n      DUP1 \t\t\t\n      PUSH E744092E\t\t\t\n      EQ \t\t\t\n      PUSH [tag] 37\t\t\t\n      JUMPI \t\t\t\n      DUP1 \t\t\t\n      PUSH E7EFCFC2\t\t\t\n      EQ \t\t\t\n      PUSH [tag] 38\t\t\t\n      JUMPI \t\t\t\n      PUSH 0\t\t\t\n      DUP1 \t\t\t\n      REVERT \t\t\t\n    tag 46\t\t\t\n      JUMPDEST \t\t\t\n      DUP1 \t\t\t\n      PUSH A0CF0AEA\t\t\t\n      GT \t\t\t\n      PUSH [tag] 48\t\t\t\n      JUMPI \t\t\t\n      DUP1 \t\t\t\n      PUSH A0CF0AEA\t\t\t\n      EQ \t\t\t\n      PUSH [tag] 29\t\t\t\n      JUMPI \t\t\t\n      DUP1 \t\t\t\n      PUSH AC9650D8\t\t\t\n      EQ \t\t\t\n      PUSH [tag] 30\t\t\t\n      JUMPI \t\t\t\n      DUP1 \t\t\t\n      PUSH B2B878D0\t\t\t\n      EQ \t\t\t\n      PUSH [tag] 31\t\t\t\n      JUMPI \t\t\t\n      DUP1 \t\t\t\n      PUSH CB0E85A6\t\t\t\n      EQ \t\t\t\n      PUSH [tag] 32\t\t\t\n      JUMPI \t\t\t\n      DUP1 \t\t\t\n      PUSH D2E17F59\t\t\t\n      EQ \t\t\t\n      PUSH [tag] 33\t\t\t\n      JUMPI \t\t\t\n      PUSH 0\t\t\t\n      DUP1 \t\t\t\n      REVERT \t\t\t\n    tag 48\t\t\t\n      JUMPDEST \t\t\t\n      DUP1 \t\t\t\n      PUSH 73AF3453\t\t\t\n      EQ \t\t\t\n      PUSH [tag] 24\t\t\t\n      JUMPI \t\t\t\n      DUP1 \t\t\t\n      PUSH 785E9E86\t\t\t\n      EQ \t\t\t\n      PUSH [tag] 25\t\t\t\n      JUMPI \t\t\t\n      DUP1 \t\t\t\n      PUSH 7C435D29\t\t\t\n      EQ \t\t\t\n      PUSH [tag] 26\t\t\t\n      JUMPI \t\t\t\n      DUP1 \t\t\t\n      PUSH 95355B3B\t\t\t\n      EQ \t\t\t\n      PUSH [tag] 27\t\t\t\n      JUMPI \t\t\t\n      DUP1 \t\t\t\n      PUSH 9AF5C09D\t\t\t\n      EQ \t\t\t\n      PUSH [tag] 28\t\t\t\n      JUMPI \t\t\t\n      PUSH 0\t\t\t\n      DUP1 \t\t\t\n      REVERT \t\t\t\n    tag 45\t\t\t\n      JUMPDEST \t\t\t\n      DUP1 \t\t\t\n      PUSH 42FDA9C7\t\t\t\n      GT \t\t\t\n      PUSH [tag] 49\t\t\t\n      JUMPI \t\t\t\n      DUP1 \t\t\t\n      PUSH 57089739\t\t\t\n      GT \t\t\t\n      PUSH [tag] 50\t\t\t\n      JUMPI \t\t\t\n      DUP1 \t\t\t\n      PUSH 57089739\t\t\t\n      EQ \t\t\t\n      PUSH [tag] 18\t\t\t\n      JUMPI \t\t\t\n      DUP1 \t\t\t\n      PUSH 59A3977B\t\t\t\n      EQ \t\t\t\n      PUSH [tag] 19\t\t\t\n      JUMPI \t\t\t\n      DUP1 \t\t\t\n      PUSH 5F1B55F3\t\t\t\n      EQ \t\t\t\n      PUSH [tag] 20\t\t\t\n      JUMPI \t\t\t\n      DUP1 \t\t\t\n      PUSH 62812A39\t\t\t\n      EQ \t\t\t\n      PUSH [tag] 21\t\t\t\n      JUMPI \t\t\t\n      DUP1 \t\t\t\n      PUSH 6ECC5D62\t\t\t\n      EQ \t\t\t\n      PUSH [tag] 22\t\t\t\n      JUMPI \t\t\t\n      DUP1 \t\t\t\n      PUSH 6F2A6791\t\t\t\n      EQ \t\t\t\n      PUSH [tag] 23\t\t\t\n      JUMPI \t\t\t\n      PUSH 0\t\t\t\n      DUP1 \t\t\t\n      REVERT \t\t\t\n    tag 50\t\t\t\n      JUMPDEST \t\t\t\n      DUP1 \t\t\t\n      PUSH 42FDA9C7\t\t\t\n      EQ \t\t\t\n      PUSH [tag] 13\t\t\t\n      JUMPI \t\t\t\n      DUP1 \t\t\t\n      PUSH 4533D678\t\t\t\n      EQ \t\t\t\n      PUSH [tag] 14\t\t\t\n      JUMPI \t\t\t\n      DUP1 \t\t\t\n      PUSH 465831CD\t\t\t\n      EQ \t\t\t\n      PUSH [tag] 15\t\t\t\n      JUMPI \t\t\t\n      DUP1 \t\t\t\n      PUSH 4AB4BA42\t\t\t\n      EQ \t\t\t\n      PUSH [tag] 16\t\t\t\n      JUMPI \t\t\t\n      DUP1 \t\t\t\n      PUSH 4D31D087\t\t\t\n      EQ \t\t\t\n      PUSH [tag] 17\t\t\t\n      JUMPI \t\t\t\n      PUSH 0\t\t\t\n      DUP1 \t\t\t\n      REVERT \t\t\t\n    tag 49\t\t\t\n      JUMPDEST \t\t\t\n      DUP1 \t\t\t\n      PUSH 2BBE0CAE\t\t\t\n      GT \t\t\t\n      PUSH [tag] 51\t\t\t\n      JUMPI \t\t\t\n      DUP1 \t\t\t\n      PUSH 2BBE0CAE\t\t\t\n      EQ \t\t\t\n      PUSH [tag] 8\t\t\t\n      JUMPI \t\t\t\n      DUP1 \t\t\t\n      PUSH 2D52EFF2\t\t\t\n      EQ \t\t\t\n      PUSH [tag] 9\t\t\t\n      JUMPI \t\t\t\n      DUP1 \t\t\t\n      PUSH 2E1A7D4D\t\t\t\n      EQ \t\t\t\n      PUSH [tag] 10\t\t\t\n      JUMPI \t\t\t\n      DUP1 \t\t\t\n      PUSH 2EB4A7AB\t\t\t\n      EQ \t\t\t\n      PUSH [tag] 11\t\t\t\n      JUMPI \t\t\t\n      DUP1 \t\t\t\n      PUSH 38FFF2D0\t\t\t\n      EQ \t\t\t\n      PUSH [tag] 12\t\t\t\n      JUMPI \t\t\t\n      PUSH 0\t\t\t\n      DUP1 \t\t\t\n      REVERT \t\t\t\n    tag 51\t\t\t\n      JUMPDEST \t\t\t\n      DUP1 \t\t\t\n      PUSH 1FC1C64\t\t\t\n      EQ \t\t\t\n      PUSH [tag] 3\t\t\t\n      JUMPI \t\t\t\n      DUP1 \t\t\t\n      PUSH A6F0EE9\t\t\t\n      EQ \t\t\t\n      PUSH [tag] 4\t\t\t\n      JUMPI \t\t\t\n      DUP1 \t\t\t\n      PUSH 15CC481E\t\t\t\n      EQ \t\t\t\n      PUSH [tag] 5\t\t\t\n      JUMPI \t\t\t\n      DUP1 \t\t\t\n      PUSH 2143E92F\t\t\t\n      EQ \t\t\t\n      PUSH [tag] 6\t\t\t\n      JUMPI \t\t\t\n      DUP1 \t\t\t\n      PUSH 21755088\t\t\t\n      EQ \t\t\t\n      PUSH [tag] 7\t\t\t\n      JUMPI \t\t\t\n      PUSH 0\t\t\t\n      DUP1 \t\t\t\n      REVERT \t\t\t\n    tag 1\t\t\t\n      JUMPDEST \t\t\t\n      CALLDATASIZE \t\t\t\n      PUSH [tag] 2\t\t\t\n      JUMPI \t\t\t\n      STOP \t\t\t\n    tag 2\t\t\t\n      JUMPDEST \t\t\t\n      PUSH 0\t\t\t\n      DUP1 \t\t\t\n      REVERT \t\t\t\n    tag 3\t\t\tMerkleProof.verify(_merkleProo...\n      JUMPDEST \t\t\tMerkleProof.verify(_merkleProo...\n      CALLVALUE \t\t\tMerkleProof.verify(_merkleProo...\n      DUP1 \t\t\tMerkleProof.verify(_merkleProo...\n      ISZERO \t\t\tMerkleProof.verify(_merkleProo...\n      PUSH [tag] 54\t\t\tMerkleProof.verify(_merkleProo...\n      JUMPI \t\t\tMerkleProof.verify(_merkleProo...\n      PUSH 0\t\t\tMerkleProof.verify(_merkleProo...\n      DUP1 \t\t\tMerkleProof.verify(_merkleProo...\n      REVERT \t\t\tMerkleProof.verify(_merkleProo...\n    tag 54\t\t\tMerkleProof.verify(_merkleProo...\n      JUMPDEST \t\t\tMerkleProof.verify(_merkleProo...\n      POP \t\t\t\n      PUSH [tag] 55\t\t\tMerkleProof.verify(_merkleProo...\n      PUSH [tag] 56\t\t\tMerkleProof.verify(_merkleProo...\n      CALLDATASIZE \t\t\tMerkleProof.verify(_merkleProo...\n      PUSH 4\t\t\tMerkleProof.verify(_merkleProo...\n      PUSH [tag] 57\t\t\tMerkleProof.verify(_merkleProo...\n      JUMP \t\t\tMerkleProof.verify(_merkleProo...\n    tag 56\t\t\tMerkleProof.verify(_merkleProo...\n      JUMPDEST \t\t\tMerkleProof.verify(_merkleProo...\n      PUSH C\t\t\tMerkleProof.verify(_merkleProo...\n      PUSH 20\t\t\tMerkleProof.verify(_merkleProo...\n      MSTORE \t\t\tMerkleProof.verify(_merkleProo...\n      PUSH 0\t\t\tMerkleProof.verify(_merkleProo...\n      SWAP1 \t\t\tMerkleProof.verify(_merkleProo...\n      DUP2 \t\t\tMerkleProof.verify(_merkleProo...\n      MSTORE \t\t\tMerkleProof.verify(_merkleProo...\n      PUSH 40\t\t\tMerkleProof.verify(_merkleProo...\n      SWAP1 \t\t\tMerkleProof.verify(_merkleProo...\n      KECCAK256 \t\t\tMerkleProof.verify(_merkleProo...\n      SLOAD \t\t\tMerkleProof.verify(_merkleProo...\n      DUP2 \t\t\tMerkleProof.verify(_merkleProo...\n      JUMP \t\t\tMerkleProof.verify(_merkleProo...\n    tag 55\t\t\tMerkleProof.verify(_merkleProo...\n      JUMPDEST \t\t\tMerkleProof.verify(_merkleProo...\n      PUSH 40\t\t\tMerkleProof.verify(_merkleProo...\n      MLOAD \t\t\tMerkleProof.verify(_merkleProo...\n      SWAP1 \t\t\tther than keccak256 for h\n      DUP2 \t\t\tther than keccak256 for h\n      MSTORE \t\t\tther than keccak256 for h\n      PUSH 20\t\t\th \n      ADD \t\t\tg, or use a hash f\n    tag 59\t\t\tMerkleProof.verify(_merkleProo...\n      JUMPDEST \t\t\tMerkleProof.verify(_merkleProo...\n      PUSH 40\t\t\tMerkleProof.verify(_merkleProo...\n      MLOAD \t\t\tMerkleProof.verify(_merkleProo...\n      DUP1 \t\t\tMerkleProof.verify(_merkleProo...\n      SWAP2 \t\t\tMerkleProof.verify(_merkleProo...\n      SUB \t\t\tMerkleProof.verify(_merkleProo...\n      SWAP1 \t\t\tMerkleProof.verify(_merkleProo...\n      RETURN \t\t\tMerkleProof.verify(_merkleProo...\n    tag 4\t\t\tonStartTime;\\n        registra...\n      JUMPDEST \t\t\tonStartTime;\\n        registra...\n      CALLVALUE \t\t\tonStartTime;\\n        registra...\n      DUP1 \t\t\tonStartTime;\\n        registra...\n      ISZERO \t\t\tonStartTime;\\n        registra...\n      PUSH [tag] 61\t\t\tonStartTime;\\n        registra...\n      JUMPI \t\t\tonStartTime;\\n        registra...\n      PUSH 0\t\t\tonStartTime;\\n        registra...\n      DUP1 \t\t\tonStartTime;\\n        registra...\n      REVERT \t\t\tonStartTime;\\n        registra...\n    tag 61\t\t\tonStartTime;\\n        registra...\n      JUMPDEST \t\t\tonStartTime;\\n        registra...\n      POP \t\t\t\n      PUSH [tag] 62\t\t\tonStartTime;\\n        registra...\n      PUSH [tag] 63\t\t\tonStartTime;\\n        registra...\n      CALLDATASIZE \t\t\tonStartTime;\\n        registra...\n      PUSH 4\t\t\tonStartTime;\\n        registra...\n      PUSH [tag] 64\t\t\tonStartTime;\\n        registra...\n      JUMP \t\t\tonStartTime;\\n        registra...\n    tag 63\t\t\tonStartTime;\\n        registra...\n      JUMPDEST \t\t\tonStartTime;\\n        registra...\n      PUSH [tag] 65\t\t\tonStartTime;\\n        registra...\n      JUMP \t\t\tonStartTime;\\n        registra...\n    tag 62\t\t\tonStartTime;\\n        registra...\n      JUMPDEST \t\t\tonStartTime;\\n        registra...\n      STOP \t\t\tonStartTime;\\n        registra...\n    tag 5\t\t\t=> 'statusIndex'\\n    /// @dev...\n      JUMPDEST \t\t\t=> 'statusIndex'\\n    /// @dev...\n      CALLVALUE \t\t\t=> 'statusIndex'\\n    /// @dev...\n      DUP1 \t\t\t=> 'statusIndex'\\n    /// @dev...\n      ISZERO \t\t\t=> 'statusIndex'\\n    /// @dev...\n      PUSH [tag] 66\t\t\t=> 'statusIndex'\\n    /// @dev...\n      JUMPI \t\t\t=> 'statusIndex'\\n    /// @dev...\n      PUSH 0\t\t\t=> 'statusIndex'\\n    /// @dev...\n      DUP1 \t\t\t=> 'statusIndex'\\n    /// @dev...\n      REVERT \t\t\t=> 'statusIndex'\\n    /// @dev...\n    tag 66\t\t\t=> 'statusIndex'\\n    /// @dev...\n      JUMPDEST \t\t\t=> 'statusIndex'\\n    /// @dev...\n      POP \t\t\t\n      PUSHIMMUTABLE 2008\t\t\tn th\n    tag 67\t\t\t=> 'statusIndex'\\n    /// @dev...\n      JUMPDEST \t\t\t=> 'statusIndex'\\n    /// @dev...\n      PUSH 40\t\t\t=> 'statusIndex'\\n    /// @dev...\n      MLOAD \t\t\t=> 'statusIndex'\\n    /// @dev...\n      PUSH 1\t\t\t\n      PUSH 1\t\t\t\n      PUSH A0\t\t\t\n      SHL \t\t\t\n      SUB \t\t\t\n      SWAP1 \t\t\t producing values on a queue. ...\n      SWAP2 \t\t\t producing values on a queue. ...\n      AND \t\t\t producing values on a queue. ...\n      DUP2 \t\t\t  // consuming and producing v...\n      MSTORE \t\t\t  // consuming and producing v...\n      PUSH 20\t\t\tlt\n      ADD \t\t\te root is rebuilt \n      PUSH [tag] 59\t\t\t=> 'statusIndex'\\n    /// @dev...\n      JUMP \t\t\tnal pure returns (bytes32 merk...\n    tag 6\t\t\t    StreamReceiver[] memory cu...\n      JUMPDEST \t\t\t    StreamReceiver[] memory cu...\n      CALLVALUE \t\t\t    StreamReceiver[] memory cu...\n      DUP1 \t\t\t    StreamReceiver[] memory cu...\n      ISZERO \t\t\t    StreamReceiver[] memory cu...\n      PUSH [tag] 71\t\t\t    StreamReceiver[] memory cu...\n      JUMPI \t\t\t    StreamReceiver[] memory cu...\n      PUSH 0\t\t\t    StreamReceiver[] memory cu...\n      DUP1 \t\t\t    StreamReceiver[] memory cu...\n      REVERT \t\t\t    StreamReceiver[] memory cu...\n    tag 71\t\t\t    StreamReceiver[] memory cu...\n      JUMPDEST \t\t\t    StreamReceiver[] memory cu...\n      POP \t\t\t\n      PUSH [tag] 62\t\t\t    StreamReceiver[] memory cu...\n      PUSH [tag] 73\t\t\t    StreamReceiver[] memory cu...\n      CALLDATASIZE \t\t\t    StreamReceiver[] memory cu...\n      PUSH 4\t\t\t    StreamReceiver[] memory cu...\n      PUSH [tag] 74\t\t\t    StreamReceiver[] memory cu...\n      JUMP \t\t\t    StreamReceiver[] memory cu...\n    tag 73\t\t\t    StreamReceiver[] memory cu...\n      JUMPDEST \t\t\t    StreamReceiver[] memory cu...\n      PUSH [tag] 75\t\t\t    StreamReceiver[] memory cu...\n      JUMP \t\t\t    StreamReceiver[] memory cu...\n    tag 7\t\t\tProof = distribution.merklePro...\n      JUMPDEST \t\t\tProof = distribution.merklePro...\n      CALLVALUE \t\t\tProof = distribution.merklePro...\n      DUP1 \t\t\tProof = distribution.merklePro...\n      ISZERO \t\t\tProof = distribution.merklePro...\n      PUSH [tag] 76\t\t\tProof = distribution.merklePro...\n      JUMPI \t\t\tProof = distribution.merklePro...\n      PUSH 0\t\t\tProof = distribution.merklePro...\n      DUP1 \t\t\tProof = distribution.merklePro...\n      REVERT \t\t\tProof = distribution.merklePro...\n    tag 76\t\t\tProof = distribution.merklePro...\n      JUMPDEST \t\t\tProof = distribution.merklePro...\n      POP \t\t\t\n      PUSH 5\t\t\tProof = distribution.merklePro...\n      SLOAD \t\t\tProof = distribution.merklePro...\n      PUSH [tag] 77\t\t\tProof = distribution.merklePro...\n      SWAP1 \t\t\tProof = distribution.merklePro...\n      PUSH 10000\t\t\tProof = distribution.merklePro...\n      SWAP1 \t\t\tProof = distribution.merklePro...\n      DIV \t\t\tProof = distribution.merklePro...\n      PUSH FF\t\t\tProof = distribution.merklePro...\n      AND \t\t\tProof = distribution.merklePro...\n      DUP2 \t\t\tProof = distribution.merklePro...\n      JUMP \t\t\tProof = distribution.merklePro...\n    tag 77\t\t\tProof = distribution.merklePro...\n      JUMPDEST \t\t\tProof = distribution.merklePro...\n      PUSH 40\t\t\tProof = distribution.merklePro...\n      MLOAD \t\t\tProof = distribution.merklePro...\n      SWAP1 \t\t\thave been cons\n      ISZERO \t\t\thave been cons\n      ISZERO \t\t\tleaves have been consu\n      DUP2 \t\t\tueue\". If not all leaves have ...\n      MSTORE \t\t\tueue\". If not all leaves have ...\n      PUSH 20\t\t\t t\n      ADD \t\t\t - a value from th\n      PUSH [tag] 59\t\t\tProof = distribution.merklePro...\n      JUMP \t\t\t= 0;\\n        uint256 proofPos...\n    tag 8\t\t\t address _dripsAddressDriver, ...\n      JUMPDEST \t\t\t address _dripsAddressDriver, ...\n      PUSH [tag] 67\t\t\t address _dripsAddressDriver, ...\n      PUSH [tag] 82\t\t\t address _dripsAddressDriver, ...\n      CALLDATASIZE \t\t\t address _dripsAddressDriver, ...\n      PUSH 4\t\t\t address _dripsAddressDriver, ...\n      PUSH [tag] 83\t\t\t address _dripsAddressDriver, ...\n      JUMP \t\t\t address _dripsAddressDriver, ...\n    tag 82\t\t\t address _dripsAddressDriver, ...\n      JUMPDEST \t\t\t address _dripsAddressDriver, ...\n      PUSH [tag] 84\t\t\t address _dripsAddressDriver, ...\n      JUMP \t\t\t address _dripsAddressDriver, ...\n    tag 9\t\t\tId, uint256 indexed receiver, ...\n      JUMPDEST \t\t\tId, uint256 indexed receiver, ...\n      CALLVALUE \t\t\tId, uint256 indexed receiver, ...\n      DUP1 \t\t\tId, uint256 indexed receiver, ...\n      ISZERO \t\t\tId, uint256 indexed receiver, ...\n      PUSH [tag] 87\t\t\tId, uint256 indexed receiver, ...\n      JUMPI \t\t\tId, uint256 indexed receiver, ...\n      PUSH 0\t\t\tId, uint256 indexed receiver, ...\n      DUP1 \t\t\tId, uint256 indexed receiver, ...\n      REVERT \t\t\tId, uint256 indexed receiver, ...\n    tag 87\t\t\tId, uint256 indexed receiver, ...\n      JUMPDEST \t\t\tId, uint256 indexed receiver, ...\n      POP \t\t\t\n      PUSH A\t\t\tt NewAdmin\n      SLOAD \t\t\tt NewAdmin\n      ISZERO \t\t\tt NewAdminPropos\n      ISZERO \t\t\tt NewAdminPropos\n      PUSH [tag] 77\t\t\tId, uint256 indexed receiver, ...\n      JUMP \t\t\tId, uint256 indexed receiver, ...\n    tag 10\t\t\taddress sender, address target...\n      JUMPDEST \t\t\taddress sender, address target...\n      CALLVALUE \t\t\taddress sender, address target...\n      DUP1 \t\t\taddress sender, address target...\n      ISZERO \t\t\taddress sender, address target...\n      PUSH [tag] 91\t\t\taddress sender, address target...\n      JUMPI \t\t\taddress sender, address target...\n      PUSH 0\t\t\taddress sender, address target...\n      DUP1 \t\t\taddress sender, address target...\n      REVERT \t\t\taddress sender, address target...\n    tag 91\t\t\taddress sender, address target...\n      JUMPDEST \t\t\taddress sender, address target...\n      POP \t\t\t\n      PUSH [tag] 62\t\t\taddress sender, address target...\n      PUSH [tag] 93\t\t\taddress sender, address target...\n      CALLDATASIZE \t\t\taddress sender, address target...\n      PUSH 4\t\t\taddress sender, address target...\n      PUSH [tag] 94\t\t\taddress sender, address target...\n      JUMP \t\t\taddress sender, address target...\n    tag 93\t\t\taddress sender, address target...\n      JUMPDEST \t\t\taddress sender, address target...\n      PUSH [tag] 95\t\t\taddress sender, address target...\n      JUMP \t\t\taddress sender, address target...\n    tag 11\t\t\tex index of the distribut\n      JUMPDEST \t\t\tex index of the distribut\n      CALLVALUE \t\t\tex index of the distribut\n      DUP1 \t\t\tex index of the distribut\n      ISZERO \t\t\tex index of the distribut\n      PUSH [tag] 96\t\t\tex index of the distribut\n      JUMPI \t\t\tex index of the distribut\n      PUSH 0\t\t\tex index of the distribut\n      DUP1 \t\t\tex index of the distribut\n      REVERT \t\t\tex index of the distribut\n    tag 96\t\t\tex index of the distribut\n      JUMPDEST \t\t\tex index of the distribut\n      POP \t\t\tex index of the distribut\n      PUSH [tag] 55\t\t\tex index of the distribut\n      PUSH A\t\t\tex index of the distribut\n      SLOAD \t\t\tex index of the distribut\n      DUP2 \t\t\tex index of the distribut\n      JUMP \t\t\tex index of the distribut\n    tag 12\t\t\ts;\\n\\n    /// @notice This is ...\n      JUMPDEST \t\t\ts;\\n\\n    /// @notice This is ...\n      CALLVALUE \t\t\ts;\\n\\n    /// @notice This is ...\n      DUP1 \t\t\ts;\\n\\n    /// @notice This is ...\n      ISZERO \t\t\ts;\\n\\n    /// @notice This is ...\n      PUSH [tag] 101\t\t\ts;\\n\\n    /// @notice This is ...\n      JUMPI \t\t\ts;\\n\\n    /// @notice This is ...\n      PUSH 0\t\t\ts;\\n\\n    /// @notice This is ...\n      DUP1 \t\t\ts;\\n\\n    /// @notice This is ...\n      REVERT \t\t\ts;\\n\\n    /// @notice This is ...\n    tag 101\t\t\ts;\\n\\n    /// @notice This is ...\n      JUMPDEST \t\t\ts;\\n\\n    /// @notice This is ...\n      POP \t\t\t\n      PUSH 1\t\t\tdistri\n      SLOAD \t\t\tdistri\n      PUSH [tag] 55\t\t\ts;\\n\\n    /// @notice This is ...\n      JUMP \t\t\ts;\\n\\n    /// @notice This is ...\n    tag 13\t\t\tbits to describe\\n    /// the ...\n      JUMPDEST \t\t\tbits to describe\\n    /// the ...\n      CALLVALUE \t\t\tbits to describe\\n    /// the ...\n      DUP1 \t\t\tbits to describe\\n    /// the ...\n      ISZERO \t\t\tbits to describe\\n    /// the ...\n      PUSH [tag] 105\t\t\tbits to describe\\n    /// the ...\n      JUMPI \t\t\tbits to describe\\n    /// the ...\n      PUSH 0\t\t\tbits to describe\\n    /// the ...\n      DUP1 \t\t\tbits to describe\\n    /// the ...\n      REVERT \t\t\tbits to describe\\n    /// the ...\n    tag 105\t\t\tbits to describe\\n    /// the ...\n      JUMPDEST \t\t\tbits to describe\\n    /// the ...\n      POP \t\t\t\n      PUSHIMMUTABLE 2010\t\t\trivate _di\n      PUSH [tag] 55\t\t\tbits to describe\\n    /// the ...\n      JUMP \t\t\tbits to describe\\n    /// the ...\n    tag 14\t\t\tmerkleProof)) {\\n            /...\n      JUMPDEST \t\t\tmerkleProof)) {\\n            /...\n      CALLVALUE \t\t\tmerkleProof)) {\\n            /...\n      DUP1 \t\t\tmerkleProof)) {\\n            /...\n      ISZERO \t\t\tmerkleProof)) {\\n            /...\n      PUSH [tag] 109\t\t\tmerkleProof)) {\\n            /...\n      JUMPI \t\t\tmerkleProof)) {\\n            /...\n      PUSH 0\t\t\tmerkleProof)) {\\n            /...\n      DUP1 \t\t\tmerkleProof)) {\\n            /...\n      REVERT \t\t\tmerkleProof)) {\\n            /...\n    tag 109\t\t\tmerkleProof)) {\\n            /...\n      JUMPDEST \t\t\tmerkleProof)) {\\n            /...\n      POP \t\t\t\n      PUSH 6\t\t\tmerkleProof)) {\\n            /...\n      SLOAD \t\t\tmerkleProof)) {\\n            /...\n      PUSH [tag] 110\t\t\tmerkleProof)) {\\n            /...\n      SWAP1 \t\t\tmerkleProof)) {\\n            /...\n      PUSH 1\t\t\t\n      PUSH 1\t\t\t\n      PUSH 40\t\t\t\n      SHL \t\t\t\n      SUB \t\t\t\n      AND \t\t\tmerkleProof)) {\\n            /...\n      DUP2 \t\t\tmerkleProof)) {\\n            /...\n      JUMP \t\t\tmerkleProof)) {\\n            /...\n    tag 110\t\t\tmerkleProof)) {\\n            /...\n      JUMPDEST \t\t\tmerkleProof)) {\\n            /...\n      PUSH 40\t\t\tmerkleProof)) {\\n            /...\n      MLOAD \t\t\tmerkleProof)) {\\n            /...\n      PUSH 1\t\t\t\n      PUSH 1\t\t\t\n      PUSH 40\t\t\t\n      SHL \t\t\t\n      SUB \t\t\t\n      SWAP1 \t\t\t     bytes32[] memory leaves\\n...\n      SWAP2 \t\t\t     bytes32[] memory leaves\\n...\n      AND \t\t\t     bytes32[] memory leaves\\n...\n      DUP2 \t\t\tta proofFlags,\\n        bytes3...\n      MSTORE \t\t\tta proofFlags,\\n        bytes3...\n      PUSH 20\t\t\too\n      ADD \t\t\troof,\\n        bool\n      PUSH [tag] 59\t\t\tmerkleProof)) {\\n            /...\n      JUMP \t\t\ts.\\n     *\\n     * _Available ...\n    tag 15\t\t\turns (uint256 accountId);\\n   ...\n      JUMPDEST \t\t\turns (uint256 accountId);\\n   ...\n      CALLVALUE \t\t\turns (uint256 accountId);\\n   ...\n      DUP1 \t\t\turns (uint256 accountId);\\n   ...\n      ISZERO \t\t\turns (uint256 accountId);\\n   ...\n      PUSH [tag] 114\t\t\turns (uint256 accountId);\\n   ...\n      JUMPI \t\t\turns (uint256 accountId);\\n   ...\n      PUSH 0\t\t\turns (uint256 accountId);\\n   ...\n      DUP1 \t\t\turns (uint256 accountId);\\n   ...\n      REVERT \t\t\turns (uint256 accountId);\\n   ...\n    tag 114\t\t\turns (uint256 accountId);\\n   ...\n      JUMPDEST \t\t\turns (uint256 accountId);\\n   ...\n      POP \t\t\t\n      PUSH [tag] 62\t\t\turns (uint256 accountId);\\n   ...\n      PUSH [tag] 116\t\t\turns (uint256 accountId);\\n   ...\n      CALLDATASIZE \t\t\turns (uint256 accountId);\\n   ...\n      PUSH 4\t\t\turns (uint256 accountId);\\n   ...\n      PUSH [tag] 117\t\t\turns (uint256 accountId);\\n   ...\n      JUMP \t\t\turns (uint256 accountId);\\n   ...\n    tag 116\t\t\turns (uint256 accountId);\\n   ...\n      JUMPDEST \t\t\turns (uint256 accountId);\\n   ...\n      PUSH [tag] 118\t\t\turns (uint256 accountId);\\n   ...\n      JUMP \t\t\turns (uint256 accountId);\\n   ...\n    tag 16\t\t\tan be updated by the pool mana...\n      JUMPDEST \t\t\tan be updated by the pool mana...\n      CALLVALUE \t\t\tan be updated by the pool mana...\n      DUP1 \t\t\tan be updated by the pool mana...\n      ISZERO \t\t\tan be updated by the pool mana...\n      PUSH [tag] 119\t\t\tan be updated by the pool mana...\n      JUMPI \t\t\tan be updated by the pool mana...\n      PUSH 0\t\t\tan be updated by the pool mana...\n      DUP1 \t\t\tan be updated by the pool mana...\n      REVERT \t\t\tan be updated by the pool mana...\n    tag 119\t\t\tan be updated by the pool mana...\n      JUMPDEST \t\t\tan be updated by the pool mana...\n      POP \t\t\t\n      PUSH 2\t\t\t/// @notic\n      SLOAD \t\t\t/// @notic\n      PUSH [tag] 55\t\t\tan be updated by the pool mana...\n      JUMP \t\t\tan be updated by the pool mana...\n    tag 17\t\t\t'Status' of the recipient, the...\n      JUMPDEST \t\t\t'Status' of the recipient, the...\n      CALLVALUE \t\t\t'Status' of the recipient, the...\n      DUP1 \t\t\t'Status' of the recipient, the...\n      ISZERO \t\t\t'Status' of the recipient, the...\n      PUSH [tag] 123\t\t\t'Status' of the recipient, the...\n      JUMPI \t\t\t'Status' of the recipient, the...\n      PUSH 0\t\t\t'Status' of the recipient, the...\n      DUP1 \t\t\t'Status' of the recipient, the...\n      REVERT \t\t\t'Status' of the recipient, the...\n    tag 123\t\t\t'Status' of the recipient, the...\n      JUMPDEST \t\t\t'Status' of the recipient, the...\n      POP \t\t\t\n      PUSH [tag] 77\t\t\t'Status' of the recipient, the...\n      PUSH [tag] 125\t\t\t'Status' of the recipient, the...\n      CALLDATASIZE \t\t\t'Status' of the recipient, the...\n      PUSH 4\t\t\t'Status' of the recipient, the...\n      PUSH [tag] 57\t\t\t'Status' of the recipient, the...\n      JUMP \t\t\t'Status' of the recipient, the...\n    tag 125\t\t\t'Status' of the recipient, the...\n      JUMPDEST \t\t\t'Status' of the recipient, the...\n      PUSH [tag] 126\t\t\t'Status' of the recipient, the...\n      JUMP \t\t\t'Status' of the recipient, the...\n    tag 18\t\t\tion = abi.decode(_data, (Dist\n      JUMPDEST \t\t\tion = abi.decode(_data, (Dist\n      CALLVALUE \t\t\tion = abi.decode(_data, (Dist\n      DUP1 \t\t\tion = abi.decode(_data, (Dist\n      ISZERO \t\t\tion = abi.decode(_data, (Dist\n      PUSH [tag] 128\t\t\tion = abi.decode(_data, (Dist\n      JUMPI \t\t\tion = abi.decode(_data, (Dist\n      PUSH 0\t\t\tion = abi.decode(_data, (Dist\n      DUP1 \t\t\tion = abi.decode(_data, (Dist\n      REVERT \t\t\tion = abi.decode(_data, (Dist\n    tag 128\t\t\tion = abi.decode(_data, (Dist\n      JUMPDEST \t\t\tion = abi.decode(_data, (Dist\n      POP \t\t\t\n      PUSH 5\t\t\tion = abi.decode(_data, (Dist\n      SLOAD \t\t\tion = abi.decode(_data, (Dist\n      PUSH [tag] 77\t\t\tion = abi.decode(_data, (Dist\n      SWAP1 \t\t\tion = abi.decode(_data, (Dist\n      PUSH FF\t\t\tion = abi.decode(_data, (Dist\n      AND \t\t\tion = abi.decode(_data, (Dist\n      DUP2 \t\t\tion = abi.decode(_data, (Dist\n      JUMP \t\t\tion = abi.decode(_data, (Dist\n    tag 19\t\t\tns (PayoutSummary memory) {\\n ...\n      JUMPDEST \t\t\tns (PayoutSummary memory) {\\n ...\n      CALLVALUE \t\t\tns (PayoutSummary memory) {\\n ...\n      DUP1 \t\t\tns (PayoutSummary memory) {\\n ...\n      ISZERO \t\t\tns (PayoutSummary memory) {\\n ...\n      PUSH [tag] 132\t\t\tns (PayoutSummary memory) {\\n ...\n      JUMPI \t\t\tns (PayoutSummary memory) {\\n ...\n      PUSH 0\t\t\tns (PayoutSummary memory) {\\n ...\n      DUP1 \t\t\tns (PayoutSummary memory) {\\n ...\n      REVERT \t\t\tns (PayoutSummary memory) {\\n ...\n    tag 132\t\t\tns (PayoutSummary memory) {\\n ...\n      JUMPDEST \t\t\tns (PayoutSummary memory) {\\n ...\n      POP \t\t\tns (PayoutSummary memory) {\\n ...\n      PUSH [tag] 133\t\t\tns (PayoutSummary memory) {\\n ...\n      PUSH [tag] 134\t\t\tns (PayoutSummary memory) {\\n ...\n      JUMP \t\t\tns (PayoutSummary memory) {\\n ...\n    tag 133\t\t\tns (PayoutSummary memory) {\\n ...\n      JUMPDEST \t\t\tns (PayoutSummary memory) {\\n ...\n      PUSH 40\t\t\tns (PayoutSummary memory) {\\n ...\n      MLOAD \t\t\tns (PayoutSummary memory) {\\n ...\n      PUSH [tag] 59\t\t\tns (PayoutSummary memory) {\\n ...\n      SWAP3 \t\t\tns (PayoutSummary memory) {\\n ...\n      SWAP2 \t\t\tns (PayoutSummary memory) {\\n ...\n      SWAP1 \t\t\tns (PayoutSummary memory) {\\n ...\n      PUSH [tag] 136\t\t\tns (PayoutSummary memory) {\\n ...\n      JUMP \t\t\tns (PayoutSummary memory) {\\n ...\n    tag 20\t\t\tddress indexed pauser, address...\n      JUMPDEST \t\t\tddress indexed pauser, address...\n      CALLVALUE \t\t\tddress indexed pauser, address...\n      DUP1 \t\t\tddress indexed pauser, address...\n      ISZERO \t\t\tddress indexed pauser, address...\n      PUSH [tag] 137\t\t\tddress indexed pauser, address...\n      JUMPI \t\t\tddress indexed pauser, address...\n      PUSH 0\t\t\tddress indexed pauser, address...\n      DUP1 \t\t\tddress indexed pauser, address...\n      REVERT \t\t\tddress indexed pauser, address...\n    tag 137\t\t\tddress indexed pauser, address...\n      JUMPDEST \t\t\tddress indexed pauser, address...\n      POP \t\t\t\n      PUSH [tag] 77\t\t\tddress indexed pauser, address...\n      PUSH [tag] 139\t\t\tddress indexed pauser, address...\n      CALLDATASIZE \t\t\tddress indexed pauser, address...\n      PUSH 4\t\t\tddress indexed pauser, address...\n      PUSH [tag] 94\t\t\tddress indexed pauser, address...\n      JUMP \t\t\tddress indexed pauser, address...\n    tag 139\t\t\tddress indexed pauser, address...\n      JUMPDEST \t\t\tddress indexed pauser, address...\n      PUSH [tag] 140\t\t\tddress indexed pauser, address...\n      JUMP \t\t\tddress indexed pauser, address...\n    tag 21\t\t\t\\n\\n    /// @notice Hook calle...\n      JUMPDEST \t\t\t\\n\\n    /// @notice Hook calle...\n      CALLVALUE \t\t\t\\n\\n    /// @notice Hook calle...\n      DUP1 \t\t\t\\n\\n    /// @notice Hook calle...\n      ISZERO \t\t\t\\n\\n    /// @notice Hook calle...\n      PUSH [tag] 142\t\t\t\\n\\n    /// @notice Hook calle...\n      JUMPI \t\t\t\\n\\n    /// @notice Hook calle...\n      PUSH 0\t\t\t\\n\\n    /// @notice Hook calle...\n      DUP1 \t\t\t\\n\\n    /// @notice Hook calle...\n      REVERT \t\t\t\\n\\n    /// @notice Hook calle...\n    tag 142\t\t\t\\n\\n    /// @notice Hook calle...\n      JUMPDEST \t\t\t\\n\\n    /// @notice Hook calle...\n      POP \t\t\t\n      PUSH [tag] 143\t\t\t\\n\\n    /// @notice Hook calle...\n      PUSH [tag] 144\t\t\t\\n\\n    /// @notice Hook calle...\n      CALLDATASIZE \t\t\t\\n\\n    /// @notice Hook calle...\n      PUSH 4\t\t\t\\n\\n    /// @notice Hook calle...\n      PUSH [tag] 57\t\t\t\\n\\n    /// @notice Hook calle...\n      JUMP \t\t\t\\n\\n    /// @notice Hook calle...\n    tag 144\t\t\t\\n\\n    /// @notice Hook calle...\n      JUMPDEST \t\t\t\\n\\n    /// @notice Hook calle...\n      PUSH [tag] 145\t\t\t\\n\\n    /// @notice Hook calle...\n      JUMP \t\t\t\\n\\n    /// @notice Hook calle...\n    tag 143\t\t\t\\n\\n    /// @notice Hook calle...\n      JUMPDEST \t\t\t\\n\\n    /// @notice Hook calle...\n      PUSH 40\t\t\t\\n\\n    /// @notice Hook calle...\n      MLOAD \t\t\t\\n\\n    /// @notice Hook calle...\n      PUSH [tag] 59\t\t\t\\n\\n    /// @notice Hook calle...\n      SWAP2 \t\t\t\\n\\n    /// @notice Hook calle...\n      SWAP1 \t\t\t\\n\\n    /// @notice Hook calle...\n      PUSH [tag] 147\t\t\t\\n\\n    /// @notice Hook calle...\n      JUMP \t\t\t\\n\\n    /// @notice Hook calle...\n    tag 22\t\t\t\n      JUMPDEST \t\t\t\n      CALLVALUE \t\t\t\n      DUP1 \t\t\t\n      ISZERO \t\t\t\n      PUSH [tag] 148\t\t\t\n      JUMPI \t\t\t\n      PUSH 0\t\t\t\n      DUP1 \t\t\t\n      REVERT \t\t\t\n    tag 148\t\t\t\n      JUMPDEST \t\t\t\n      POP \t\t\t\n      PUSH 13\t\t\t\n      SLOAD \t\t\t\n      PUSH [tag] 67\t\t\t\n      SWAP1 \t\t\t\n      PUSH 1\t\t\t\n      PUSH 1\t\t\t\n      PUSH A0\t\t\t\n      SHL \t\t\t\n      SUB \t\t\t\n      AND \t\t\t\n      DUP2 \t\t\t\n      JUMP \t\t\t\n    tag 23\t\t\t\n      JUMPDEST \t\t\t\n      CALLVALUE \t\t\t\n      DUP1 \t\t\t\n      ISZERO \t\t\t\n      PUSH [tag] 153\t\t\t\n      JUMPI \t\t\t\n      PUSH 0\t\t\t\n      DUP1 \t\t\t\n      REVERT \t\t\t\n    tag 153\t\t\t\n      JUMPDEST \t\t\t\n      POP \t\t\t\n      PUSH 13\t\t\t\n      SLOAD \t\t\t\n      PUSH [tag] 77\t\t\t\n      SWAP1 \t\t\t\n      PUSH 1\t\t\t\n      PUSH A0\t\t\t\n      SHL \t\t\t\n      SWAP1 \t\t\t\n      DIV \t\t\t\n      PUSH FF\t\t\t\n      AND \t\t\t\n      DUP2 \t\t\t\n      JUMP \t\t\t\n    tag 24\t\t\tnauthorize(address user) exter...\n      JUMPDEST \t\t\tnauthorize(address user) exter...\n      CALLVALUE \t\t\tnauthorize(address user) exter...\n      DUP1 \t\t\tnauthorize(address user) exter...\n      ISZERO \t\t\tnauthorize(address user) exter...\n      PUSH [tag] 157\t\t\tnauthorize(address user) exter...\n      JUMPI \t\t\tnauthorize(address user) exter...\n      PUSH 0\t\t\tnauthorize(address user) exter...\n      DUP1 \t\t\tnauthorize(address user) exter...\n      REVERT \t\t\tnauthorize(address user) exter...\n    tag 157\t\t\tnauthorize(address user) exter...\n      JUMPDEST \t\t\tnauthorize(address user) exter...\n      POP \t\t\t\n      PUSH [tag] 62\t\t\tnauthorize(address user) exter...\n      PUSH [tag] 159\t\t\tnauthorize(address user) exter...\n      CALLDATASIZE \t\t\tnauthorize(address user) exter...\n      PUSH 4\t\t\tnauthorize(address user) exter...\n      PUSH [tag] 160\t\t\tnauthorize(address user) exter...\n      JUMP \t\t\tnauthorize(address user) exter...\n    tag 159\t\t\tnauthorize(address user) exter...\n      JUMPDEST \t\t\tnauthorize(address user) exter...\n      PUSH [tag] 161\t\t\tnauthorize(address user) exter...\n      JUMP \t\t\tnauthorize(address user) exter...\n    tag 25\t\t\t\n      JUMPDEST \t\t\t\n      CALLVALUE \t\t\t\n      DUP1 \t\t\t\n      ISZERO \t\t\t\n      PUSH [tag] 162\t\t\t\n      JUMPI \t\t\t\n      PUSH 0\t\t\t\n      DUP1 \t\t\t\n      REVERT \t\t\t\n    tag 162\t\t\t\n      JUMPDEST \t\t\t\n      POP \t\t\t\n      PUSH 10\t\t\t\n      SLOAD \t\t\t\n      PUSH [tag] 67\t\t\t\n      SWAP1 \t\t\t\n      PUSH 1\t\t\t\n      PUSH 1\t\t\t\n      PUSH A0\t\t\t\n      SHL \t\t\t\n      SUB \t\t\t\n      AND \t\t\t\n      DUP2 \t\t\t\n      JUMP \t\t\t\n    tag 26\t\t\t\n      JUMPDEST \t\t\t\n      CALLVALUE \t\t\t\n      DUP1 \t\t\t\n      ISZERO \t\t\t\n      PUSH [tag] 167\t\t\t\n      JUMPI \t\t\t\n      PUSH 0\t\t\t\n      DUP1 \t\t\t\n      REVERT \t\t\t\n    tag 167\t\t\t\n      JUMPDEST \t\t\t\n      POP \t\t\t\n      PUSH 11\t\t\t\n      SLOAD \t\t\t\n      PUSH [tag] 67\t\t\t\n      SWAP1 \t\t\t\n      PUSH 1\t\t\t\n      PUSH 1\t\t\t\n      PUSH A0\t\t\t\n      SHL \t\t\t\n      SUB \t\t\t\n      AND \t\t\t\n      DUP2 \t\t\t\n      JUMP \t\t\t\n    tag 27\t\t\tution is not valid, return a p...\n      JUMPDEST \t\t\tution is not valid, return a p...\n      CALLVALUE \t\t\tution is not valid, return a p...\n      DUP1 \t\t\tution is not valid, return a p...\n      ISZERO \t\t\tution is not valid, return a p...\n      PUSH [tag] 172\t\t\tution is not valid, return a p...\n      JUMPI \t\t\tution is not valid, return a p...\n      PUSH 0\t\t\tution is not valid, return a p...\n      DUP1 \t\t\tution is not valid, return a p...\n      REVERT \t\t\tution is not valid, return a p...\n    tag 172\t\t\tution is not valid, return a p...\n      JUMPDEST \t\t\tution is not valid, return a p...\n      POP \t\t\tution is not valid, return a p...\n      PUSH [tag] 55\t\t\tution is not valid, return a p...\n      PUSH 8\t\t\tution is not valid, return a p...\n      SLOAD \t\t\tution is not valid, return a p...\n      DUP2 \t\t\tution is not valid, return a p...\n      JUMP \t\t\tution is not valid, return a p...\n    tag 28\t\t\t\\n\\n        // Validate the di...\n      JUMPDEST \t\t\t\\n\\n        // Validate the di...\n      CALLVALUE \t\t\t\\n\\n        // Validate the di...\n      DUP1 \t\t\t\\n\\n        // Validate the di...\n      ISZERO \t\t\t\\n\\n        // Validate the di...\n      PUSH [tag] 176\t\t\t\\n\\n        // Validate the di...\n      JUMPI \t\t\t\\n\\n        // Validate the di...\n      PUSH 0\t\t\t\\n\\n        // Validate the di...\n      DUP1 \t\t\t\\n\\n        // Validate the di...\n      REVERT \t\t\t\\n\\n        // Validate the di...\n    tag 176\t\t\t\\n\\n        // Validate the di...\n      JUMPDEST \t\t\t\\n\\n        // Validate the di...\n      POP \t\t\t\n      PUSH 5\t\t\t\\n\\n        // Validate the di...\n      SLOAD \t\t\t\\n\\n        // Validate the di...\n      PUSH [tag] 110\t\t\t\\n\\n        // Validate the di...\n      SWAP1 \t\t\t\\n\\n        // Validate the di...\n      PUSH 1000000\t\t\t\\n\\n        // Validate the di...\n      SWAP1 \t\t\t\\n\\n        // Validate the di...\n      DIV \t\t\t\\n\\n        // Validate the di...\n      PUSH 1\t\t\t\n      PUSH 1\t\t\t\n      PUSH 40\t\t\t\n      SHL \t\t\t\n      SUB \t\t\t\n      AND \t\t\t\\n\\n        // Validate the di...\n      DUP2 \t\t\t\\n\\n        // Validate the di...\n      JUMP \t\t\t\\n\\n        // Validate the di...\n    tag 29\t\t\ts active.\\n    /// @return 'tr...\n      JUMPDEST \t\t\ts active.\\n    /// @return 'tr...\n      CALLVALUE \t\t\ts active.\\n    /// @return 'tr...\n      DUP1 \t\t\ts active.\\n    /// @return 'tr...\n      ISZERO \t\t\ts active.\\n    /// @return 'tr...\n      PUSH [tag] 180\t\t\ts active.\\n    /// @return 'tr...\n      JUMPI \t\t\ts active.\\n    /// @return 'tr...\n      PUSH 0\t\t\ts active.\\n    /// @return 'tr...\n      DUP1 \t\t\ts active.\\n    /// @return 'tr...\n      REVERT \t\t\ts active.\\n    /// @return 'tr...\n    tag 180\t\t\ts active.\\n    /// @return 'tr...\n      JUMPDEST \t\t\ts active.\\n    /// @return 'tr...\n      POP \t\t\ts active.\\n    /// @return 'tr...\n      PUSH [tag] 67\t\t\ts active.\\n    /// @return 'tr...\n      PUSH EEEEEEEEEEEEEEEEEEEEEEEEEEEEEEEEEEEEEEEE\t\t\tif the pool is active, otherwi...\n      DUP2 \t\t\ts active.\\n    /// @return 'tr...\n      JUMP \t\t\ts active.\\n    /// @return 'tr...\n    tag 30\t\t\tfunction multicall(bytes[] cal...\n      JUMPDEST \t\t\tfunction multicall(bytes[] cal...\n      CALLVALUE \t\t\tfunction multicall(bytes[] cal...\n      DUP1 \t\t\tfunction multicall(bytes[] cal...\n      ISZERO \t\t\tfunction multicall(bytes[] cal...\n      PUSH [tag] 184\t\t\tfunction multicall(bytes[] cal...\n      JUMPI \t\t\tfunction multicall(bytes[] cal...\n      PUSH 0\t\t\tfunction multicall(bytes[] cal...\n      DUP1 \t\t\tfunction multicall(bytes[] cal...\n      REVERT \t\t\tfunction multicall(bytes[] cal...\n    tag 184\t\t\tfunction multicall(bytes[] cal...\n      JUMPDEST \t\t\tfunction multicall(bytes[] cal...\n      POP \t\t\t\n      PUSH [tag] 185\t\t\tfunction multicall(bytes[] cal...\n      PUSH [tag] 186\t\t\tfunction multicall(bytes[] cal...\n      CALLDATASIZE \t\t\tfunction multicall(bytes[] cal...\n      PUSH 4\t\t\tfunction multicall(bytes[] cal...\n      PUSH [tag] 187\t\t\tfunction multicall(bytes[] cal...\n      JUMP \t\t\tfunction multicall(bytes[] cal...\n    tag 186\t\t\tfunction multicall(bytes[] cal...\n      JUMPDEST \t\t\tfunction multicall(bytes[] cal...\n      PUSH [tag] 188\t\t\tfunction multicall(bytes[] cal...\n      JUMP \t\t\tfunction multicall(bytes[] cal...\n    tag 185\t\t\tfunction multicall(bytes[] cal...\n      JUMPDEST \t\t\tfunction multicall(bytes[] cal...\n      PUSH 40\t\t\tfunction multicall(bytes[] cal...\n      MLOAD \t\t\tfunction multicall(bytes[] cal...\n      PUSH [tag] 59\t\t\tfunction multicall(bytes[] cal...\n      SWAP2 \t\t\tfunction multicall(bytes[] cal...\n      SWAP1 \t\t\tfunction multicall(bytes[] cal...\n      PUSH [tag] 190\t\t\tfunction multicall(bytes[] cal...\n      JUMP \t\t\tfunction multicall(bytes[] cal...\n    tag 31\t\t\t uint256 allowedTokensLength =...\n      JUMPDEST \t\t\t uint256 allowedTokensLength =...\n      CALLVALUE \t\t\t uint256 allowedTokensLength =...\n      DUP1 \t\t\t uint256 allowedTokensLength =...\n      ISZERO \t\t\t uint256 allowedTokensLength =...\n      PUSH [tag] 191\t\t\t uint256 allowedTokensLength =...\n      JUMPI \t\t\t uint256 allowedTokensLength =...\n      PUSH 0\t\t\t uint256 allowedTokensLength =...\n      DUP1 \t\t\t uint256 allowedTokensLength =...\n      REVERT \t\t\t uint256 allowedTokensLength =...\n    tag 191\t\t\t uint256 allowedTokensLength =...\n      JUMPDEST \t\t\t uint256 allowedTokensLength =...\n      POP \t\t\t\n      PUSH [tag] 192\t\t\t uint256 allowedTokensLength =...\n      PUSH [tag] 193\t\t\t uint256 allowedTokensLength =...\n      CALLDATASIZE \t\t\t uint256 allowedTokensLength =...\n      PUSH 4\t\t\t uint256 allowedTokensLength =...\n      PUSH [tag] 194\t\t\t uint256 allowedTokensLength =...\n      JUMP \t\t\t uint256 allowedTokensLength =...\n    tag 193\t\t\t uint256 allowedTokensLength =...\n      JUMPDEST \t\t\t uint256 allowedTokensLength =...\n      PUSH [tag] 195\t\t\t uint256 allowedTokensLength =...\n      JUMP \t\t\t uint256 allowedTokensLength =...\n    tag 192\t\t\t uint256 allowedTokensLength =...\n      JUMPDEST \t\t\t uint256 allowedTokensLength =...\n      PUSH 40\t\t\t uint256 allowedTokensLength =...\n      MLOAD \t\t\t uint256 allowedTokensLength =...\n      PUSH [tag] 59\t\t\t uint256 allowedTokensLength =...\n      SWAP2 \t\t\t uint256 allowedTokensLength =...\n      SWAP1 \t\t\t uint256 allowedTokensLength =...\n      PUSH [tag] 197\t\t\t uint256 allowedTokensLength =...\n      JUMP \t\t\t uint256 allowedTokensLength =...\n    tag 32\t\t\tpientId = distribution.recip\n      JUMPDEST \t\t\tpientId = distribution.recip\n      CALLVALUE \t\t\tpientId = distribution.recip\n      DUP1 \t\t\tpientId = distribution.recip\n      ISZERO \t\t\tpientId = distribution.recip\n      PUSH [tag] 198\t\t\tpientId = distribution.recip\n      JUMPI \t\t\tpientId = distribution.recip\n      PUSH 0\t\t\tpientId = distribution.recip\n      DUP1 \t\t\tpientId = distribution.recip\n      REVERT \t\t\tpientId = distribution.recip\n    tag 198\t\t\tpientId = distribution.recip\n      JUMPDEST \t\t\tpientId = distribution.recip\n      POP \t\t\t\n      PUSH 5\t\t\tpientId = distribution.recip\n      SLOAD \t\t\tpientId = distribution.recip\n      PUSH [tag] 77\t\t\tpientId = distribution.recip\n      SWAP1 \t\t\tpientId = distribution.recip\n      PUSH 100\t\t\tpientId = distribution.recip\n      SWAP1 \t\t\tpientId = distribution.recip\n      DIV \t\t\tpientId = distribution.recip\n      PUSH FF\t\t\tpientId = distribution.recip\n      AND \t\t\tpientId = distribution.recip\n      DUP2 \t\t\tpientId = distribution.recip\n      JUMP \t\t\tpientId = distribution.recip\n    tag 33\t\t\trecipientId, recipientAddress,...\n      JUMPDEST \t\t\trecipientId, recipientAddress,...\n      CALLVALUE \t\t\trecipientId, recipientAddress,...\n      DUP1 \t\t\trecipientId, recipientAddress,...\n      ISZERO \t\t\trecipientId, recipientAddress,...\n      PUSH [tag] 202\t\t\trecipientId, recipientAddress,...\n      JUMPI \t\t\trecipientId, recipientAddress,...\n      PUSH 0\t\t\trecipientId, recipientAddress,...\n      DUP1 \t\t\trecipientId, recipientAddress,...\n      REVERT \t\t\trecipientId, recipientAddress,...\n    tag 202\t\t\trecipientId, recipientAddress,...\n      JUMPDEST \t\t\trecipientId, recipientAddress,...\n      POP \t\t\t\n      PUSH 5\t\t\trecipientId, recipientAddress,...\n      SLOAD \t\t\trecipientId, recipientAddress,...\n      PUSH [tag] 110\t\t\trecipientId, recipientAddress,...\n      SWAP1 \t\t\trecipientId, recipientAddress,...\n      PUSH 1\t\t\t\n      PUSH 98\t\t\t\n      SHL \t\t\t\n      SWAP1 \t\t\trecipientId, recipientAddress,...\n      DIV \t\t\trecipientId, recipientAddress,...\n      PUSH 1\t\t\t\n      PUSH 1\t\t\t\n      PUSH 40\t\t\t\n      SHL \t\t\t\n      SUB \t\t\t\n      AND \t\t\trecipientId, recipientAddress,...\n      DUP2 \t\t\trecipientId, recipientAddress,...\n      JUMP \t\t\trecipientId, recipientAddress,...\n    tag 34\t\t\t\n      JUMPDEST \t\t\t\n      CALLVALUE \t\t\t\n      DUP1 \t\t\t\n      ISZERO \t\t\t\n      PUSH [tag] 206\t\t\t\n      JUMPI \t\t\t\n      PUSH 0\t\t\t\n      DUP1 \t\t\t\n      REVERT \t\t\t\n    tag 206\t\t\t\n      JUMPDEST \t\t\t\n      POP \t\t\t\n      PUSH [tag] 67\t\t\t\n      PUSH [tag] 208\t\t\t\n      CALLDATASIZE \t\t\t\n      PUSH 4\t\t\t\n      PUSH [tag] 209\t\t\t\n      JUMP \t\t\t\n    tag 208\t\t\t\n      JUMPDEST \t\t\t\n      PUSH [tag] 210\t\t\t\n      JUMP \t\t\t\n    tag 35\t\t\t  /// ========== Modifier ====...\n      JUMPDEST \t\t\t  /// ========== Modifier ====...\n      CALLVALUE \t\t\t  /// ========== Modifier ====...\n      DUP1 \t\t\t  /// ========== Modifier ====...\n      ISZERO \t\t\t  /// ========== Modifier ====...\n      PUSH [tag] 213\t\t\t  /// ========== Modifier ====...\n      JUMPI \t\t\t  /// ========== Modifier ====...\n      PUSH 0\t\t\t  /// ========== Modifier ====...\n      DUP1 \t\t\t  /// ========== Modifier ====...\n      REVERT \t\t\t  /// ========== Modifier ====...\n    tag 213\t\t\t  /// ========== Modifier ====...\n      JUMPDEST \t\t\t  /// ========== Modifier ====...\n      POP \t\t\t  /// ========== Modifier ====...\n      PUSH [tag] 77\t\t\t  /// ========== Modifier ====...\n      PUSH [tag] 215\t\t\t  /// ========== Modifier ====...\n      JUMP \t\t\t  /// ========== Modifier ====...\n    tag 36\t\t\t      if (_validateDistributio...\n      JUMPDEST \t\t\t      if (_validateDistributio...\n      CALLVALUE \t\t\t      if (_validateDistributio...\n      DUP1 \t\t\t      if (_validateDistributio...\n      ISZERO \t\t\t      if (_validateDistributio...\n      PUSH [tag] 217\t\t\t      if (_validateDistributio...\n      JUMPI \t\t\t      if (_validateDistributio...\n      PUSH 0\t\t\t      if (_validateDistributio...\n      DUP1 \t\t\t      if (_validateDistributio...\n      REVERT \t\t\t      if (_validateDistributio...\n    tag 217\t\t\t      if (_validateDistributio...\n      JUMPDEST \t\t\t      if (_validateDistributio...\n      POP \t\t\t\n      PUSH 5\t\t\t      if (_validateDistributio...\n      SLOAD \t\t\t      if (_validateDistributio...\n      PUSH [tag] 110\t\t\t      if (_validateDistributio...\n      SWAP1 \t\t\t      if (_validateDistributio...\n      PUSH 1\t\t\t\n      PUSH 58\t\t\t\n      SHL \t\t\t\n      SWAP1 \t\t\t      if (_validateDistributio...\n      DIV \t\t\t      if (_validateDistributio...\n      PUSH 1\t\t\t\n      PUSH 1\t\t\t\n      PUSH 40\t\t\t\n      SHL \t\t\t\n      SUB \t\t\t\n      AND \t\t\t      if (_validateDistributio...\n      DUP2 \t\t\t      if (_validateDistributio...\n      JUMP \t\t\t      if (_validateDistributio...\n    tag 37\t\t\t Get the word index by dividin...\n      JUMPDEST \t\t\t Get the word index by dividin...\n      CALLVALUE \t\t\t Get the word index by dividin...\n      DUP1 \t\t\t Get the word index by dividin...\n      ISZERO \t\t\t Get the word index by dividin...\n      PUSH [tag] 221\t\t\t Get the word index by dividin...\n      JUMPI \t\t\t Get the word index by dividin...\n      PUSH 0\t\t\t Get the word index by dividin...\n      DUP1 \t\t\t Get the word index by dividin...\n      REVERT \t\t\t Get the word index by dividin...\n    tag 221\t\t\t Get the word index by dividin...\n      JUMPDEST \t\t\t Get the word index by dividin...\n      POP \t\t\t\n      PUSH [tag] 77\t\t\t Get the word index by dividin...\n      PUSH [tag] 223\t\t\t Get the word index by dividin...\n      CALLDATASIZE \t\t\t Get the word index by dividin...\n      PUSH 4\t\t\t Get the word index by dividin...\n      PUSH [tag] 57\t\t\t Get the word index by dividin...\n      JUMP \t\t\t Get the word index by dividin...\n    tag 223\t\t\t Get the word index by dividin...\n      JUMPDEST \t\t\t Get the word index by dividin...\n      PUSH E\t\t\t Get the word index by dividin...\n      PUSH 20\t\t\t Get the word index by dividin...\n      MSTORE \t\t\t Get the word index by dividin...\n      PUSH 0\t\t\t Get the word index by dividin...\n      SWAP1 \t\t\t Get the word index by dividin...\n      DUP2 \t\t\t Get the word index by dividin...\n      MSTORE \t\t\t Get the word index by dividin...\n      PUSH 40\t\t\t Get the word index by dividin...\n      SWAP1 \t\t\t Get the word index by dividin...\n      KECCAK256 \t\t\t Get the word index by dividin...\n      SLOAD \t\t\t Get the word index by dividin...\n      PUSH FF\t\t\t Get the word index by dividin...\n      AND \t\t\t Get the word index by dividin...\n      DUP2 \t\t\t Get the word index by dividin...\n      JUMP \t\t\t Get the word index by dividin...\n    tag 38\t\t\t   return PayoutSummary(recipi...\n      JUMPDEST \t\t\t   return PayoutSummary(recipi...\n      CALLVALUE \t\t\t   return PayoutSummary(recipi...\n      DUP1 \t\t\t   return PayoutSummary(recipi...\n      ISZERO \t\t\t   return PayoutSummary(recipi...\n      PUSH [tag] 226\t\t\t   return PayoutSummary(recipi...\n      JUMPI \t\t\t   return PayoutSummary(recipi...\n      PUSH 0\t\t\t   return PayoutSummary(recipi...\n      DUP1 \t\t\t   return PayoutSummary(recipi...\n      REVERT \t\t\t   return PayoutSummary(recipi...\n    tag 226\t\t\t   return PayoutSummary(recipi...\n      JUMPDEST \t\t\t   return PayoutSummary(recipi...\n      POP \t\t\t   return PayoutSummary(recipi...\n      PUSH [tag] 55\t\t\t   return PayoutSummary(recipi...\n      PUSH 7\t\t\t   return PayoutSummary(recipi...\n      SLOAD \t\t\t   return PayoutSummary(recipi...\n      DUP2 \t\t\t   return PayoutSummary(recipi...\n      JUMP \t\t\t   return PayoutSummary(recipi...\n    tag 39\t\t\t onlyActiveRegistration() {\\n ...\n      JUMPDEST \t\t\t onlyActiveRegistration() {\\n ...\n      CALLVALUE \t\t\t onlyActiveRegistration() {\\n ...\n      DUP1 \t\t\t onlyActiveRegistration() {\\n ...\n      ISZERO \t\t\t onlyActiveRegistration() {\\n ...\n      PUSH [tag] 230\t\t\t onlyActiveRegistration() {\\n ...\n      JUMPI \t\t\t onlyActiveRegistration() {\\n ...\n      PUSH 0\t\t\t onlyActiveRegistration() {\\n ...\n      DUP1 \t\t\t onlyActiveRegistration() {\\n ...\n      REVERT \t\t\t onlyActiveRegistration() {\\n ...\n    tag 230\t\t\t onlyActiveRegistration() {\\n ...\n      JUMPDEST \t\t\t onlyActiveRegistration() {\\n ...\n      POP \t\t\t\n      PUSH [tag] 231\t\t\t onlyActiveRegistration() {\\n ...\n      PUSH [tag] 232\t\t\t onlyActiveRegistration() {\\n ...\n      CALLDATASIZE \t\t\t onlyActiveRegistration() {\\n ...\n      PUSH 4\t\t\t onlyActiveRegistration() {\\n ...\n      PUSH [tag] 57\t\t\t onlyActiveRegistration() {\\n ...\n      JUMP \t\t\t onlyActiveRegistration() {\\n ...\n    tag 232\t\t\t onlyActiveRegistration() {\\n ...\n      JUMPDEST \t\t\t onlyActiveRegistration() {\\n ...\n      PUSH [tag] 233\t\t\t onlyActiveRegistration() {\\n ...\n      JUMP \t\t\t onlyActiveRegistration() {\\n ...\n    tag 231\t\t\t onlyActiveRegistration() {\\n ...\n      JUMPDEST \t\t\t onlyActiveRegistration() {\\n ...\n      PUSH 40\t\t\t onlyActiveRegistration() {\\n ...\n      MLOAD \t\t\t onlyActiveRegistration() {\\n ...\n      PUSH [tag] 59\t\t\t onlyActiveRegistration() {\\n ...\n      SWAP2 \t\t\t onlyActiveRegistration() {\\n ...\n      SWAP1 \t\t\t onlyActiveRegistration() {\\n ...\n      PUSH [tag] 235\t\t\t onlyActiveRegistration() {\\n ...\n      JUMP \t\t\t onlyActiveRegistration() {\\n ...\n    tag 40\t\t\t_setDistributed(index);\\n\\n   ...\n      JUMPDEST \t\t\t_setDistributed(index);\\n\\n   ...\n      CALLVALUE \t\t\t_setDistributed(index);\\n\\n   ...\n      DUP1 \t\t\t_setDistributed(index);\\n\\n   ...\n      ISZERO \t\t\t_setDistributed(index);\\n\\n   ...\n      PUSH [tag] 236\t\t\t_setDistributed(index);\\n\\n   ...\n      JUMPI \t\t\t_setDistributed(index);\\n\\n   ...\n      PUSH 0\t\t\t_setDistributed(index);\\n\\n   ...\n      DUP1 \t\t\t_setDistributed(index);\\n\\n   ...\n      REVERT \t\t\t_setDistributed(index);\\n\\n   ...\n    tag 236\t\t\t_setDistributed(index);\\n\\n   ...\n      JUMPDEST \t\t\t_setDistributed(index);\\n\\n   ...\n      POP \t\t\t\n      PUSH [tag] 62\t\t\t_setDistributed(index);\\n\\n   ...\n      PUSH [tag] 238\t\t\t_setDistributed(index);\\n\\n   ...\n      CALLDATASIZE \t\t\t_setDistributed(index);\\n\\n   ...\n      PUSH 4\t\t\t_setDistributed(index);\\n\\n   ...\n      PUSH [tag] 239\t\t\t_setDistributed(index);\\n\\n   ...\n      JUMP \t\t\t_setDistributed(index);\\n\\n   ...\n    tag 238\t\t\t_setDistributed(index);\\n\\n   ...\n      JUMPDEST \t\t\t_setDistributed(index);\\n\\n   ...\n      PUSH [tag] 240\t\t\t_setDistributed(index);\\n\\n   ...\n      JUMP \t\t\t_setDistributed(index);\\n\\n   ...\n    tag 41\t\t\tThe 'poolId' to initialize\\n  ...\n      JUMPDEST \t\t\tThe 'poolId' to initialize\\n  ...\n      PUSH [tag] 62\t\t\tThe 'poolId' to initialize\\n  ...\n      PUSH [tag] 242\t\t\tThe 'poolId' to initialize\\n  ...\n      CALLDATASIZE \t\t\tThe 'poolId' to initialize\\n  ...\n      PUSH 4\t\t\tThe 'poolId' to initialize\\n  ...\n      PUSH [tag] 83\t\t\tThe 'poolId' to initialize\\n  ...\n      JUMP \t\t\tThe 'poolId' to initialize\\n  ...\n    tag 242\t\t\tThe 'poolId' to initialize\\n  ...\n      JUMPDEST \t\t\tThe 'poolId' to initialize\\n  ...\n      PUSH [tag] 243\t\t\tThe 'poolId' to initialize\\n  ...\n      JUMP \t\t\tThe 'poolId' to initialize\\n  ...\n    tag 42\t\t\tze ==========\\n    /// =======...\n      JUMPDEST \t\t\tze ==========\\n    /// =======...\n      CALLVALUE \t\t\tze ==========\\n    /// =======...\n      DUP1 \t\t\tze ==========\\n    /// =======...\n      ISZERO \t\t\tze ==========\\n    /// =======...\n      PUSH [tag] 244\t\t\tze ==========\\n    /// =======...\n      JUMPI \t\t\tze ==========\\n    /// =======...\n      PUSH 0\t\t\tze ==========\\n    /// =======...\n      DUP1 \t\t\tze ==========\\n    /// =======...\n      REVERT \t\t\tze ==========\\n    /// =======...\n    tag 244\t\t\tze ==========\\n    /// =======...\n      JUMPDEST \t\t\tze ==========\\n    /// =======...\n      POP \t\t\t\n      PUSH [tag] 62\t\t\tze ==========\\n    /// =======...\n      PUSH [tag] 246\t\t\tze ==========\\n    /// =======...\n      CALLDATASIZE \t\t\tze ==========\\n    /// =======...\n      PUSH 4\t\t\tze ==========\\n    /// =======...\n      PUSH [tag] 94\t\t\tze ==========\\n    /// =======...\n      JUMP \t\t\tze ==========\\n    /// =======...\n    tag 246\t\t\tze ==========\\n    /// =======...\n      JUMPDEST \t\t\tze ==========\\n    /// =======...\n      PUSH [tag] 247\t\t\tze ==========\\n    /// =======...\n      JUMP \t\t\tze ==========\\n    /// =======...\n    tag 43\t\t\tak256(bytes.concat(keccak256(a...\n      JUMPDEST \t\t\tak256(bytes.concat(keccak256(a...\n      CALLVALUE \t\t\tak256(bytes.concat(keccak256(a...\n      DUP1 \t\t\tak256(bytes.concat(keccak256(a...\n      ISZERO \t\t\tak256(bytes.concat(keccak256(a...\n      PUSH [tag] 248\t\t\tak256(bytes.concat(keccak256(a...\n      JUMPI \t\t\tak256(bytes.concat(keccak256(a...\n      PUSH 0\t\t\tak256(bytes.concat(keccak256(a...\n      DUP1 \t\t\tak256(bytes.concat(keccak256(a...\n      REVERT \t\t\tak256(bytes.concat(keccak256(a...\n    tag 248\t\t\tak256(bytes.concat(keccak256(a...\n      JUMPDEST \t\t\tak256(bytes.concat(keccak256(a...\n      POP \t\t\t\n      PUSH [tag] 55\t\t\tak256(bytes.concat(keccak256(a...\n      PUSH [tag] 250\t\t\tak256(bytes.concat(keccak256(a...\n      CALLDATASIZE \t\t\tak256(bytes.concat(keccak256(a...\n      PUSH 4\t\t\tak256(bytes.concat(keccak256(a...\n      PUSH [tag] 94\t\t\tak256(bytes.concat(keccak256(a...\n      JUMP \t\t\tak256(bytes.concat(keccak256(a...\n    tag 250\t\t\tak256(bytes.concat(keccak256(a...\n      JUMPDEST \t\t\tak256(bytes.concat(keccak256(a...\n      PUSH B\t\t\tak256(bytes.concat(keccak256(a...\n      PUSH 20\t\t\tak256(bytes.concat(keccak256(a...\n      MSTORE \t\t\tak256(bytes.concat(keccak256(a...\n      PUSH 0\t\t\tak256(bytes.concat(keccak256(a...\n      SWAP1 \t\t\tak256(bytes.concat(keccak256(a...\n      DUP2 \t\t\tak256(bytes.concat(keccak256(a...\n      MSTORE \t\t\tak256(bytes.concat(keccak256(a...\n      PUSH 40\t\t\tak256(bytes.concat(keccak256(a...\n      SWAP1 \t\t\tak256(bytes.concat(keccak256(a...\n      KECCAK256 \t\t\tak256(bytes.concat(keccak256(a...\n      SLOAD \t\t\tak256(bytes.concat(keccak256(a...\n      DUP2 \t\t\tak256(bytes.concat(keccak256(a...\n      JUMP \t\t\tak256(bytes.concat(keccak256(a...\n    tag 44\t\t\t\n      JUMPDEST \t\t\t\n      CALLVALUE \t\t\t\n      DUP1 \t\t\t\n      ISZERO \t\t\t\n      PUSH [tag] 253\t\t\t\n      JUMPI \t\t\t\n      PUSH 0\t\t\t\n      DUP1 \t\t\t\n      REVERT \t\t\t\n    tag 253\t\t\t\n      JUMPDEST \t\t\t\n      POP \t\t\t\n      PUSH 12\t\t\t\n      SLOAD \t\t\t\n      PUSH [tag] 67\t\t\t\n      SWAP1 \t\t\t\n      PUSH 1\t\t\t\n      PUSH 1\t\t\t\n      PUSH A0\t\t\t\n      SHL \t\t\t\n      SUB \t\t\t\n      AND \t\t\t\n      DUP2 \t\t\t\n      JUMP \t\t\t\n    tag 65\t\t\tonStartTime;\\n        registra...\n      JUMPDEST \t\t\tonStartTime;\\n        registra...\n      PUSH [tag] 259\t\t\the total number \n      PUSH [tag] 260\t\t\the total numbe\n      JUMP \t\t\the total number \n    tag 259\t\t\the total number \n      JUMPDEST \t\t\the total number \n      PUSH [tag] 262\t\t\te).\\n    /// If we want \n      PUSH [tag] 263\t\t\te).\\n    /// If we wan\n      JUMP \t\t\te).\\n    /// If we want \n    tag 262\t\t\te).\\n    /// If we want \n      JUMPDEST \t\t\te).\\n    /// If we want \n      PUSH [tag] 267\t\t\t// If the timestamps are inval...\n      DUP4 \t\t\tmestamps are \n      DUP4 \t\t\tvalid\n      DUP4 \t\t\this wil\n      PUSH [tag] 268\t\t\t// If the t\n      JUMP \t\t\t// If the timestamps are inval...\n    tag 267\t\t\t// If the timestamps are inval...\n      JUMPDEST \t\t\t// If the timestamps are inval...\n      POP \t\t\tonStartTime;\\n        registra...\n      POP \t\t\tonStartTime;\\n        registra...\n      POP \t\t\tonStartTime;\\n        registra...\n      JUMP \t\t\tonStartTime;\\n        registra...\n    tag 75\t\t\t    StreamReceiver[] memory cu...\n      JUMPDEST \t\t\t    StreamReceiver[] memory cu...\n      CALLER \t\t\tternal ret\n      PUSH [tag] 273\t\t\ta packed array of booleans, 's\n      DUP2 \t\t\teans, '\n      PUSH [tag] 274\t\t\ta packed array of boo\n      JUMP \t\t\ta packed array of booleans, 's\n    tag 273\t\t\ta packed array of booleans, 's\n      JUMPDEST \t\t\ta packed array of booleans, 's\n      PUSH [tag] 276\t\t\ton) external;\\n    function up...\n      DUP6 \t\t\ttion upgradeToAndCall(\n      DUP6 \t\t\tdress newImplementat\n      DUP6 \t\t\tn, bytes memory data\n      DUP6 \t\t\texternal payable;\\n\n      PUSH [tag] 277\t\t\ton) external;\\n    fun\n      JUMP \t\t\ton) external;\\n    function up...\n    tag 276\t\t\ton) external;\\n    function up...\n      JUMPDEST \t\t\ton) external;\\n    function up...\n      PUSH 5\t\t\t indexed sender, addr\n      DUP1 \t\t\t indexed sender, address index...\n      SLOAD \t\t\t indexed sender, address index...\n      PUSH 1000000\t\t\t\n      PUSH 1\t\t\t\n      PUSH 98\t\t\t\n      SHL \t\t\t\n      SUB \t\t\t\n      NOT \t\t\t\n      AND \t\t\tCalledAs(address indexed sende...\n      PUSH 1000000\t\t\t indexed sender, address index...\n      PUSH 1\t\t\t\n      PUSH 1\t\t\t\n      PUSH 40\t\t\t\n      SHL \t\t\t\n      SUB \t\t\t\n      DUP9 \t\t\t indexed sender, address index...\n      DUP2 \t\t\t indexed sender, address index...\n      AND \t\t\t indexed sender, address index...\n      DUP3 \t\t\t indexed sender, address index...\n      MUL \t\t\t indexed sender, address index...\n      PUSH FFFFFFFFFFFFFFFF\t\t\t\n      PUSH 58\t\t\t\n      SHL \t\t\t\n      NOT \t\t\t\n      AND \t\t\tCalledAs(address indexed sende...\n      SWAP3 \t\t\tCalledAs(address indexed sende...\n      SWAP1 \t\t\tCalledAs(address indexed sende...\n      SWAP3 \t\t\tCalledAs(address indexed sende...\n      OR \t\t\tCalledAs(address indexed sende...\n      PUSH 1\t\t\t\n      PUSH 58\t\t\t\n      SHL \t\t\t\n      DUP9 \t\t\tCalledAs(address indexed sende...\n      DUP5 \t\t\tCalledAs(address indexed sende...\n      AND \t\t\tCalledAs(address indexed sende...\n      DUP2 \t\t\tCalledAs(address indexed sende...\n      MUL \t\t\tCalledAs(address indexed sende...\n      SWAP2 \t\t\tCalledAs(address indexed sende...\n      SWAP1 \t\t\tCalledAs(address indexed sende...\n      SWAP2 \t\t\tCalledAs(address indexed sende...\n      OR \t\t\tCalledAs(address indexed sende...\n      PUSH FFFFFFFFFFFFFFFF\t\t\t\n      PUSH 98\t\t\t\n      SHL \t\t\t\n      NOT \t\t\t\n      AND \t\t\thorized);\\n    event CalledSig...\n      PUSH 1\t\t\t\n      PUSH 98\t\t\t\n      SHL \t\t\t\n      DUP9 \t\t\thorized);\\n    event CalledSig...\n      DUP6 \t\t\thorized);\\n    event CalledSig...\n      AND \t\t\thorized);\\n    event CalledSig...\n      DUP2 \t\t\thorized);\\n    event CalledSig...\n      MUL \t\t\thorized);\\n    event CalledSig...\n      SWAP2 \t\t\thorized);\\n    event CalledSig...\n      SWAP1 \t\t\thorized);\\n    event CalledSig...\n      SWAP2 \t\t\thorized);\\n    event CalledSig...\n      OR \t\t\thorized);\\n    event CalledSig...\n      SWAP5 \t\t\thorized);\\n    event CalledSig...\n      DUP6 \t\t\thorized);\\n    event CalledSig...\n      SWAP1 \t\t\thorized);\\n    event CalledSig...\n      SSTORE \t\t\thorized);\\n    event CalledSig...\n      PUSH 6\t\t\tder, uint256 nonc\n      DUP1 \t\t\tder, uint256 nonce);\\n    even...\n      SLOAD \t\t\tder, uint256 nonce);\\n    even...\n      PUSH FFFFFFFFFFFFFFFF\t\t\t\n      NOT \t\t\t\n      AND \t\t\tder, uint256 nonce);\\n    even...\n      DUP9 \t\t\tder, uint256 nonce);\\n    even...\n      DUP7 \t\t\tder, uint256 nonce);\\n    even...\n      AND \t\t\tder, uint256 nonce);\\n    even...\n      SWAP1 \t\t\tder, uint256 nonce);\\n    even...\n      DUP2 \t\t\tder, uint256 nonce);\\n    even...\n      OR \t\t\tder, uint256 nonce);\\n    even...\n      SWAP1 \t\t\tder, uint256 nonce);\\n    even...\n      SWAP2 \t\t\tder, uint256 nonce);\\n    even...\n      SSTORE \t\t\tder, uint256 nonce);\\n    even...\n      PUSH 40\t\t\torized(address indexed sender,...\n      MLOAD \t\t\torized(address indexed sender,...\n      PUSH CB0FB7A7B87DB2F472EE8977444CFDBC51993CE660ACA27A5969A724FAE6DCF3\t\t\torized(address indexed sender,...\n      SWAP7 \t\t\torized(address indexed sender,...\n      PUSH [tag] 278\t\t\torized(address indexed sender,...\n      SWAP7 \t\t\torized(address indexed sender,...\n      SWAP6 \t\t\taddress indexed unaut\n      DUP2 \t\t\taddress indexed unaut\n      DIV \t\t\taddress indexed unaut\n      DUP7 \t\t\taddress indexed unaut\n      AND \t\t\taddress indexed unaut\n      SWAP6 \t\t\taddress indexed unaut\n      SWAP5 \t\t\trized);\\n    event U\n      DUP2 \t\t\trized);\\n    event U\n      DIV \t\t\trized);\\n    event U\n      DUP6 \t\t\trized);\\n    event U\n      AND \t\t\trized);\\n    event U\n      SWAP5 \t\t\trized);\\n    event U\n      SWAP4 \t\t\tuthorizedAll(addres\n      SWAP1 \t\t\tuthorizedAll(addres\n      DIV \t\t\tuthorizedAll(addres\n      SWAP1 \t\t\tuthorizedAll(addres\n      SWAP3 \t\t\tuthorizedAll(addres\n      AND \t\t\tuthorizedAll(addres\n      SWAP2 \t\t\tuthorizedAll(addres\n      CALLER \t\t\t   struct \n      SWAP1 \t\t\t   struct \n      PUSH [tag] 279\t\t\torized(address indexed sender,...\n      JUMP \t\t\torized(address indexed sender,...\n    tag 278\t\t\torized(address indexed sender,...\n      JUMPDEST \t\t\torized(address indexed sender,...\n      PUSH 40\t\t\torized(address indexed sender,...\n      MLOAD \t\t\torized(address indexed sender,...\n      DUP1 \t\t\torized(address indexed sender,...\n      SWAP2 \t\t\torized(address indexed sender,...\n      SUB \t\t\torized(address indexed sender,...\n      SWAP1 \t\t\torized(address indexed sender,...\n      LOG1 \t\t\torized(address indexed sender,...\n      POP \t\t\t    StreamReceiver[] memory cu...\n      POP \t\t\t    StreamReceiver[] memory cu...\n      POP \t\t\t    StreamReceiver[] memory cu...\n      POP \t\t\t    StreamReceiver[] memory cu...\n      POP \t\t\t    StreamReceiver[] memory cu...\n      JUMP \t\t\t    StreamReceiver[] memory cu...\n    tag 84\t\t\t address _dripsAddressDriver, ...\n      JUMPDEST \t\t\t address _dripsAddressDriver, ...\n      PUSH 0\t\t\tllo {\\n        (Init\n      PUSH [tag] 281\t\t\the total number \n      PUSH [tag] 260\t\t\the total numbe\n      JUMP \t\t\the total number \n    tag 281\t\t\the total number \n      JUMPDEST \t\t\the total number \n      PUSH [tag] 283\t\t\te).\\n    /// If we want \n      PUSH [tag] 263\t\t\te).\\n    /// If we wan\n      JUMP \t\t\te).\\n    /// If we want \n    tag 283\t\t\te).\\n    /// If we want \n      JUMPDEST \t\t\te).\\n    /// If we want \n      PUSH [tag] 287\t\t\t _beforeInitialize(_poolId, in...\n      DUP4 \t\t\t_pool\n      DUP4 \t\t\t, initi\n      PUSH [tag] 288\t\t\t _beforeInitialize\n      JUMP \t\t\t _beforeInitialize(_poolId, in...\n    tag 287\t\t\t _beforeInitialize(_poolId, in...\n      JUMPDEST \t\t\t _beforeInitialize(_poolId, in...\n      SWAP1 \t\t\tata));\\n        _beforeInitial...\n      POP \t\t\tata));\\n        _beforeInitial...\n    tag 289\t\t\t\\n        __donationVotingStra...\n      JUMPDEST \t\t\t\\n        __donationVotingStra...\n      SWAP3 \t\t\t address _dripsAddressDriver, ...\n      SWAP2 \t\t\t address _dripsAddressDriver, ...\n      POP \t\t\t address _dripsAddressDriver, ...\n      POP \t\t\t address _dripsAddressDriver, ...\n      JUMP \t\t\t address _dripsAddressDriver, ...\n    tag 95\t\t\taddress sender, address target...\n      JUMPDEST \t\t\taddress sender, address target...\n      CALLER \t\t\txternal\\n  \n      PUSH [tag] 293\t\t\ta packed array of booleans, 's\n      DUP2 \t\t\teans, '\n      PUSH [tag] 274\t\t\ta packed array of boo\n      JUMP \t\t\ta packed array of booleans, 's\n    tag 293\t\t\ta packed array of booleans, 's\n      JUMPDEST \t\t\ta packed array of booleans, 's\n      PUSH 6\t\t\ts memory returnDa\n      SLOAD \t\t\ts memory returnDa\n      PUSH [tag] 295\t\t\ts memory returnData);\\n    f\n      SWAP1 \t\t\ts memory returnData);\\n    f\n      PUSH 1\t\t\t\n      PUSH 1\t\t\t\n      PUSH 40\t\t\t\n      SHL \t\t\t\n      SUB \t\t\t\n      AND \t\t\ts memory returnDa\n      PUSH 278D00\t\t\t;\\n    f\n      PUSH [tag] 296\t\t\ts memory returnData);\\n    f\n      JUMP \t\t\ts memory returnData);\\n    f\n    tag 295\t\t\ts memory returnData);\\n    f\n      JUMPDEST \t\t\ts memory returnData);\\n    f\n      PUSH 1\t\t\t\n      PUSH 1\t\t\t\n      PUSH 40\t\t\t\n      SHL \t\t\t\n      SUB \t\t\t\n      AND \t\t\t      returns (bytes memory re...\n      TIMESTAMP \t\t\t      returns (\n      GT \t\t\t      returns (bytes memory re...\n      PUSH [tag] 297\t\t\te\\n        returns (bytes memo...\n      JUMPI \t\t\te\\n        returns (bytes memo...\n      PUSH 40\t\t\tl[] memor\n      MLOAD \t\t\tl[] memor\n      PUSH 7FCCE2A9\t\t\t\n      PUSH E0\t\t\t\n      SHL \t\t\t\n      DUP2 \t\t\tl[] memor\n      MSTORE \t\t\tl[] memor\n      PUSH 4\t\t\tl[] memor\n      ADD \t\t\tl[] memor\n      PUSH 40\t\t\tl[] memor\n      MLOAD \t\t\tl[] memor\n      DUP1 \t\t\tl[] memor\n      SWAP2 \t\t\tl[] memor\n      SUB \t\t\tl[] memor\n      SWAP1 \t\t\tl[] memor\n      REVERT \t\t\tl[] memor\n    tag 297\t\t\te\\n        returns (bytes memo...\n      JUMPDEST \t\t\te\\n        returns (bytes memo...\n      PUSH 1\t\t\ta);\\n  \n      SLOAD \t\t\ta);\\n  \n      PUSH 40\t\t\tory returnData);\\n   \n      MLOAD \t\t\tory returnData);\\n   \n      PUSH 68BCD8D\t\t\t\n      PUSH E0\t\t\t\n      SHL \t\t\t\n      DUP2 \t\t\tory returnData);\\n   \n      MSTORE \t\t\tory returnData);\\n   \n      PUSH 0\t\t\table returns (bytes[] \n      SWAP2 \t\t\table returns (bytes[] \n      PUSH 1\t\t\t\n      PUSH 1\t\t\t\n      PUSH A0\t\t\t\n      SHL \t\t\t\n      SUB \t\t\t\n      PUSHIMMUTABLE 2008\t\t\tory \n      AND \t\t\tory returnDa\n      SWAP2 \t\t\tory returnDa\n      PUSH 68BCD8D\t\t\tory returnDa\n      SWAP2 \t\t\tory returnDa\n      PUSH [tag] 298\t\t\tory returnData);\\n   \n      SWAP2 \t\t\tory returnData);\\n   \n      PUSH 4\t\t\tory returnData);\\n   \n      ADD \t\t\tory returnData);\\n   \n      SWAP1 \t\t\tther than keccak256 for h\n      DUP2 \t\t\tther than keccak256 for h\n      MSTORE \t\t\tther than keccak256 for h\n      PUSH 20\t\t\th \n      ADD \t\t\tg, or use a hash f\n      SWAP1 \t\t\tg, or use a hash f\n      JUMP \t\t\tkstart guide in the readme.\\n ...\n    tag 298\t\t\tory returnData);\\n   \n      JUMPDEST \t\t\tory returnData);\\n   \n      PUSH 0\t\t\tory returnData);\\n   \n      PUSH 40\t\t\tory returnData);\\n   \n      MLOAD \t\t\tory returnData);\\n   \n      DUP1 \t\t\tory returnData);\\n   \n      DUP4 \t\t\tory returnData);\\n   \n      SUB \t\t\tory returnData);\\n   \n      DUP2 \t\t\tory returnData);\\n   \n      DUP7 \t\t\tory returnData);\\n   \n      GAS \t\t\tory returnData);\\n   \n      STATICCALL \t\t\tory returnData);\\n   \n      ISZERO \t\t\tory returnData);\\n   \n      DUP1 \t\t\tory returnData);\\n   \n      ISZERO \t\t\tory returnData);\\n   \n      PUSH [tag] 300\t\t\tory returnData);\\n   \n      JUMPI \t\t\tory returnData);\\n   \n      RETURNDATASIZE \t\t\tory returnData);\\n   \n      PUSH 0\t\t\tory returnData);\\n   \n      DUP1 \t\t\tory returnData);\\n   \n      RETURNDATACOPY \t\t\tory returnData);\\n   \n      RETURNDATASIZE \t\t\tory returnData);\\n   \n      PUSH 0\t\t\tory returnData);\\n   \n      REVERT \t\t\tory returnData);\\n   \n    tag 300\t\t\tory returnData);\\n   \n      JUMPDEST \t\t\tory returnData);\\n   \n      POP \t\t\tory returnData);\\n   \n      POP \t\t\tory returnData);\\n   \n      POP \t\t\tory returnData);\\n   \n      POP \t\t\tory returnData);\\n   \n      PUSH 40\t\t\tory returnData);\\n   \n      MLOAD \t\t\tory returnData);\\n   \n      RETURNDATASIZE \t\t\tory returnData);\\n   \n      PUSH 0\t\t\tory returnData);\\n   \n      DUP3 \t\t\tory returnData);\\n   \n      RETURNDATACOPY \t\t\tory returnData);\\n   \n      PUSH 1F\t\t\tory returnData);\\n   \n      RETURNDATASIZE \t\t\tory returnData);\\n   \n      SWAP1 \t\t\tory returnData);\\n   \n      DUP2 \t\t\tory returnData);\\n   \n      ADD \t\t\tory returnData);\\n   \n      PUSH 1F\t\t\t\n      NOT \t\t\t\n      AND \t\t\tory returnData);\\n   \n      DUP3 \t\t\tory returnData);\\n   \n      ADD \t\t\tory returnData);\\n   \n      PUSH 40\t\t\tory returnData);\\n   \n      MSTORE \t\t\tory returnData);\\n   \n      PUSH [tag] 301\t\t\tory returnData);\\n   \n      SWAP2 \t\t\tory returnData);\\n   \n      SWAP1 \t\t\tory returnData);\\n   \n      DUP2 \t\t\tory returnData);\\n   \n      ADD \t\t\tory returnData);\\n   \n      SWAP1 \t\t\tory returnData);\\n   \n      PUSH [tag] 302\t\t\tory returnData);\\n   \n      JUMP \t\t\tory returnData);\\n   \n    tag 301\t\t\tory returnData);\\n   \n      JUMPDEST \t\t\tory returnData);\\n   \n      SWAP1 \t\t\table returns (bytes[] memory r...\n      POP \t\t\table returns (bytes[] memory r...\n      PUSH 2\t\t\tess sender\n      SLOAD \t\t\tess sender\n      DUP4 \t\t\tigned(a\n      GT \t\t\tigned(address sender\n      ISZERO \t\t\tallSigned(address sender, addr...\n      PUSH [tag] 303\t\t\tallSigned(address sender, addr...\n      JUMPI \t\t\tallSigned(address sender, addr...\n      PUSH 40\t\t\t memory d\n      MLOAD \t\t\t memory d\n      PUSH 7FCCE2A9\t\t\t\n      PUSH E0\t\t\t\n      SHL \t\t\t\n      DUP2 \t\t\t memory d\n      MSTORE \t\t\t memory d\n      PUSH 4\t\t\t memory d\n      ADD \t\t\t memory d\n      PUSH 40\t\t\t memory d\n      MLOAD \t\t\t memory d\n      DUP1 \t\t\t memory d\n      SWAP2 \t\t\t memory d\n      SUB \t\t\t memory d\n      SWAP1 \t\t\t memory d\n      REVERT \t\t\t memory d\n    tag 303\t\t\tallSigned(address sender, addr...\n      JUMPDEST \t\t\tallSigned(address sender, addr...\n      DUP3 \t\t\tytes32 \n      PUSH 2\t\t\t, bytes32 \n      PUSH 0\t\t\t, bytes32 \n      DUP3 \t\t\t, bytes32 r, bytes32 \n      DUP3 \t\t\t, bytes32 r, bytes32 \n      SLOAD \t\t\t, bytes32 r, bytes32 \n      PUSH [tag] 304\t\t\t, bytes32 r, bytes32 \n      SWAP2 \t\t\t, bytes32 r, bytes32 \n      SWAP1 \t\t\t, bytes32 r, bytes32 \n      PUSH [tag] 305\t\t\t, bytes32 r, bytes32 \n      JUMP \t\t\t, bytes32 r, bytes32 \n    tag 304\t\t\t, bytes32 r, bytes32 \n      JUMPDEST \t\t\t, bytes32 r, bytes32 \n      SWAP1 \t\t\t, bytes32 r, bytes32 \n      SWAP2 \t\t\t, bytes32 r, bytes32 \n      SSTORE \t\t\t, bytes32 r, bytes32 \n      POP \t\t\t\n      POP \t\t\t\n      PUSH 40\t\t\t      exte\n      DUP2 \t\t\t      exte\n      ADD \t\t\t      exte\n      MLOAD \t\t\t      exte\n      PUSH [tag] 267\t\t\tip712Domain()\\n        externa...\n      SWAP1 \t\t\tip712Domain()\\n        externa...\n      CALLER \t\t\tal\\n       \n      DUP6 \t\t\tiew\\n   \n      PUSH [tag] 307\t\t\tip712Domain()\\n \n      JUMP \t\t\tip712Domain()\\n        externa...\n    tag 118\t\t\turns (uint256 accountId);\\n   ...\n      JUMPDEST \t\t\turns (uint256 accountId);\\n   ...\n      PUSH [tag] 311\t\t\t uint256 mask = (1 << distribu\n      PUSH [tag] 312\t\t\t uint256 mask = (1 << distri\n      JUMP \t\t\t uint256 mask = (1 << distribu\n    tag 311\t\t\t uint256 mask = (1 << distribu\n      JUMPDEST \t\t\t uint256 mask = (1 << distribu\n      CALLER \t\t\texternal v\n      PUSH [tag] 314\t\t\ta packed array of booleans, 's\n      DUP2 \t\t\teans, '\n      PUSH [tag] 274\t\t\ta packed array of boo\n      JUMP \t\t\ta packed array of booleans, 's\n    tag 314\t\t\ta packed array of booleans, 's\n      JUMPDEST \t\t\ta packed array of booleans, 's\n      PUSH 0\t\t\t;\\n    fun\n    tag 316\t\t\tnt32);\\n    function emitAccou...\n      JUMPDEST \t\t\tnt32);\\n    function emitAccou...\n      DUP3 \t\t\temitAcco\n      MLOAD \t\t\temitAccountMeta\n      DUP2 \t\t\ti\n      LT \t\t\tion emitAccountMeta\n      ISZERO \t\t\tnt32);\\n    function emitAccou...\n      PUSH [tag] 267\t\t\tnt32);\\n    function emitAccou...\n      JUMPI \t\t\tnt32);\\n    function emitAccou...\n      PUSH 0\t\t\tata[] memory acc\n      DUP4 \t\t\ttMetadat\n      DUP3 \t\t\t)\n      DUP2 \t\t\ttMetadata) \n      MLOAD \t\t\ttMetadata) \n      DUP2 \t\t\ttMetadata) \n      LT \t\t\ttMetadata) \n      PUSH [tag] 320\t\t\ttMetadata) \n      JUMPI \t\t\ttMetadata) \n      PUSH [tag] 320\t\t\ttMetadata) \n      PUSH [tag] 321\t\t\ttMetadata) \n      JUMP \t\t\ttMetadata) \n    tag 320\t\t\ttMetadata) \n      JUMPDEST \t\t\ttMetadata) \n      PUSH 20\t\t\ttMetadata) \n      MUL \t\t\ttMetadata) \n      PUSH 20\t\t\ttMetadata) \n      ADD \t\t\ttMetadata) \n      ADD \t\t\ttMetadata) \n      MLOAD \t\t\ttMetadata) \n      PUSH 0\t\t\ttMetadata) extern\n      ADD \t\t\ttMetadata) extern\n      MLOAD \t\t\ttMetadata) extern\n      SWAP1 \t\t\tata[] memory accountMetadata) ...\n      POP \t\t\tata[] memory accountMetadata) ...\n      PUSH 0\t\t\ton give(uint256\n      DUP5 \t\t\tceiver, \n      DUP4 \t\t\td\n      DUP2 \t\t\tceiver, add\n      MLOAD \t\t\tceiver, add\n      DUP2 \t\t\tceiver, add\n      LT \t\t\tceiver, add\n      PUSH [tag] 323\t\t\tceiver, add\n      JUMPI \t\t\tceiver, add\n      PUSH [tag] 323\t\t\tceiver, add\n      PUSH [tag] 321\t\t\tceiver, add\n      JUMP \t\t\tceiver, add\n    tag 323\t\t\tceiver, add\n      JUMPDEST \t\t\tceiver, add\n      PUSH 20\t\t\tceiver, add\n      SWAP1 \t\t\tceiver, add\n      DUP2 \t\t\tceiver, add\n      MUL \t\t\tceiver, add\n      SWAP2 \t\t\tceiver, add\n      SWAP1 \t\t\tceiver, add\n      SWAP2 \t\t\tceiver, add\n      ADD \t\t\tceiver, add\n      DUP2 \t\t\tceiver, add\n      ADD \t\t\tceiver, add\n      MLOAD \t\t\tceiver, add\n      DUP2 \t\t\tceiver, address erc20\n      ADD \t\t\tceiver, address erc20\n      MLOAD \t\t\tceiver, address erc20\n      PUSH 0\t\t\texternal;\\n    function g\n      DUP5 \t\t\texternal;\\n    function g\n      DUP2 \t\t\texternal;\\n    function g\n      MSTORE \t\t\texternal;\\n    function g\n      PUSH B\t\t\texternal;\\n    \n      DUP4 \t\t\texternal;\\n    function g\n      MSTORE \t\t\texternal;\\n    function g\n      PUSH 40\t\t\texternal;\\n    function g\n      SWAP1 \t\t\texternal;\\n    function g\n      DUP2 \t\t\texternal;\\n    function g\n      SWAP1 \t\t\texternal;\\n    function g\n      KECCAK256 \t\t\texternal;\\n    function g\n      DUP3 \t\t\texternal;\\n    function grantP...\n      SWAP1 \t\t\texternal;\\n    function grantP...\n      SSTORE \t\t\texternal;\\n    function grantP...\n      DUP1 \t\t\tion isPaused() external view r...\n      MLOAD \t\t\tion isPaused() external view r...\n      DUP3 \t\t\t⠀⠀⠀⠀⠀⠀⠀⠀⠀⠀⠀⠀⠀⠀⠀⠀⠀⠀⠀⠀\\n// ⠀\n      DUP2 \t\t\t⠀⠀⠀⠀⠀⠀⠀⠀⠀⠀⠀⠀⠀⠀⠀⠀⠀⠀⠀⠀\\n// ⠀\n      MSTORE \t\t\t⠀⠀⠀⠀⠀⠀⠀⠀⠀⠀⠀⠀⠀⠀⠀⠀⠀⠀⠀⠀\\n// ⠀\n      CALLER \t\t\t);\\n    fun\n      SWAP4 \t\t\t⣿⣿⣿⣿⣿⣿⣿⡆⠀⠀⠀⠀⠀⠀⠀⠀⠀⠀\n      DUP2 \t\t\t⣿⣿⣿⣿⣿⣿⣿⡆⠀⠀⠀⠀⠀⠀⠀⠀⠀⠀\n      ADD \t\t\t⣿⣿⣿⣿⣿⣿⣿⡆⠀⠀⠀⠀⠀⠀⠀⠀⠀⠀\n      SWAP4 \t\t\t⣾⣿⣿⣿⣿⣾⠻⣿⣿⣿⣿⣿⣿⣿⡆⠀⠀⠀⠀⠀⠀⠀⠀⠀⠀⠀⠀⠀⠀⠀...\n      SWAP1 \t\t\t⣾⣿⣿⣿⣿⣾⠻⣿⣿⣿⣿⣿⣿⣿⡆⠀⠀⠀⠀⠀⠀⠀⠀⠀⠀⠀⠀⠀⠀⠀...\n      SWAP4 \t\t\t⣾⣿⣿⣿⣿⣾⠻⣿⣿⣿⣿⣿⣿⣿⡆⠀⠀⠀⠀⠀⠀⠀⠀⠀⠀⠀⠀⠀⠀⠀...\n      MSTORE \t\t\t⣾⣿⣿⣿⣿⣾⠻⣿⣿⣿⣿⣿⣿⣿⡆⠀⠀⠀⠀⠀⠀⠀⠀⠀⠀⠀⠀⠀⠀⠀...\n      SWAP1 \t\t\tceiver, address erc20\n      SWAP3 \t\t\tceiver, address erc20\n      POP \t\t\t\n      DUP4 \t\t\tunction \n      SWAP2 \t\t\tunction \n      PUSH 941884A9A55191A7401466AAF8A0D2B7C8B082055A5A2B345B83C73940172AC4\t\t\tion isPaused() external view r...\n      SWAP2 \t\t\tion isPaused() external view r...\n      ADD \t\t\t⣿⣷⡀⠀⠀⠀⠀⠀⠀⠀⠀⢸⣿⣿⣿⣗⠀⠀\n      PUSH 40\t\t\tion isPaused() external view r...\n      MLOAD \t\t\tion isPaused() external view r...\n      DUP1 \t\t\tion isPaused() external view r...\n      SWAP2 \t\t\tion isPaused() external view r...\n      SUB \t\t\tion isPaused() external view r...\n      SWAP1 \t\t\tion isPaused() external view r...\n      LOG2 \t\t\tion isPaused() external view r...\n      POP \t\t\t\n      POP \t\t\t\n      PUSH 1\t\t\t re\n      ADD \t\t\t re\n      PUSH [tag] 316\t\t\tnt32);\\n    function emitAccou...\n      JUMP \t\t\tnt32);\\n    function emitAccou...\n    tag 126\t\t\t'Status' of the recipient, the...\n      JUMPDEST \t\t\t'Status' of the recipient, the...\n      PUSH 0\t\t\t is \n      PUSH 1\t\t\t }\\n\\n\n      PUSH [tag] 289\t\t\t'Status' which is used at the\n      JUMP \t\t\t;\\n        StreamReceiver[] re...\n    tag 134\t\t\tns (PayoutSummary memory) {\\n ...\n      JUMPDEST \t\t\tns (PayoutSummary memory) {\\n ...\n      PUSH 3\t\t\tns (PayoutSummary memory) {\\n ...\n      DUP1 \t\t\tns (PayoutSummary memory) {\\n ...\n      SLOAD \t\t\tns (PayoutSummary memory) {\\n ...\n      PUSH 4\t\t\tns (PayoutSummary memory) {\\n ...\n      DUP1 \t\t\tns (PayoutSummary memory) {\\n ...\n      SLOAD \t\t\tns (PayoutSummary memory) {\\n ...\n      SWAP2 \t\t\tns (PayoutSummary memory) {\\n ...\n      SWAP3 \t\t\tns (PayoutSummary memory) {\\n ...\n      SWAP2 \t\t\tns (PayoutSummary memory) {\\n ...\n      PUSH [tag] 330\t\t\tns (PayoutSummary memory) {\\n ...\n      SWAP1 \t\t\tns (PayoutSummary memory) {\\n ...\n      PUSH [tag] 331\t\t\tns (PayoutSummary memory) {\\n ...\n      JUMP \t\t\tns (PayoutSummary memory) {\\n ...\n    tag 330\t\t\tns (PayoutSummary memory) {\\n ...\n      JUMPDEST \t\t\tns (PayoutSummary memory) {\\n ...\n      DUP1 \t\t\tns (PayoutSummary memory) {\\n ...\n      PUSH 1F\t\t\tns (PayoutSummary memory) {\\n ...\n      ADD \t\t\tns (PayoutSummary memory) {\\n ...\n      PUSH 20\t\t\tns (PayoutSummary memory) {\\n ...\n      DUP1 \t\t\tns (PayoutSummary memory) {\\n ...\n      SWAP2 \t\t\tns (PayoutSummary memory) {\\n ...\n      DIV \t\t\tns (PayoutSummary memory) {\\n ...\n      MUL \t\t\tns (PayoutSummary memory) {\\n ...\n      PUSH 20\t\t\tns (PayoutSummary memory) {\\n ...\n      ADD \t\t\tns (PayoutSummary memory) {\\n ...\n      PUSH 40\t\t\tns (PayoutSummary memory) {\\n ...\n      MLOAD \t\t\tns (PayoutSummary memory) {\\n ...\n      SWAP1 \t\t\tns (PayoutSummary memory) {\\n ...\n      DUP2 \t\t\tns (PayoutSummary memory) {\\n ...\n      ADD \t\t\tns (PayoutSummary memory) {\\n ...\n      PUSH 40\t\t\tns (PayoutSummary memory) {\\n ...\n      MSTORE \t\t\tns (PayoutSummary memory) {\\n ...\n      DUP1 \t\t\tns (PayoutSummary memory) {\\n ...\n      SWAP3 \t\t\tns (PayoutSummary memory) {\\n ...\n      SWAP2 \t\t\tns (PayoutSummary memory) {\\n ...\n      SWAP1 \t\t\tns (PayoutSummary memory) {\\n ...\n      DUP2 \t\t\tns (PayoutSummary memory) {\\n ...\n      DUP2 \t\t\tns (PayoutSummary memory) {\\n ...\n      MSTORE \t\t\tns (PayoutSummary memory) {\\n ...\n      PUSH 20\t\t\tns (PayoutSummary memory) {\\n ...\n      ADD \t\t\tns (PayoutSummary memory) {\\n ...\n      DUP3 \t\t\tns (PayoutSummary memory) {\\n ...\n      DUP1 \t\t\tns (PayoutSummary memory) {\\n ...\n      SLOAD \t\t\tns (PayoutSummary memory) {\\n ...\n      PUSH [tag] 332\t\t\tns (PayoutSummary memory) {\\n ...\n      SWAP1 \t\t\tns (PayoutSummary memory) {\\n ...\n      PUSH [tag] 331\t\t\tns (PayoutSummary memory) {\\n ...\n      JUMP \t\t\tns (PayoutSummary memory) {\\n ...\n    tag 332\t\t\tns (PayoutSummary memory) {\\n ...\n      JUMPDEST \t\t\tns (PayoutSummary memory) {\\n ...\n      DUP1 \t\t\tns (PayoutSummary memory) {\\n ...\n      ISZERO \t\t\tns (PayoutSummary memory) {\\n ...\n      PUSH [tag] 333\t\t\tns (PayoutSummary memory) {\\n ...\n      JUMPI \t\t\tns (PayoutSummary memory) {\\n ...\n      DUP1 \t\t\tns (PayoutSummary memory) {\\n ...\n      PUSH 1F\t\t\tns (PayoutSummary memory) {\\n ...\n      LT \t\t\tns (PayoutSummary memory) {\\n ...\n      PUSH [tag] 334\t\t\tns (PayoutSummary memory) {\\n ...\n      JUMPI \t\t\tns (PayoutSummary memory) {\\n ...\n      PUSH 100\t\t\tns (PayoutSummary memory) {\\n ...\n      DUP1 \t\t\tns (PayoutSummary memory) {\\n ...\n      DUP4 \t\t\tns (PayoutSummary memory) {\\n ...\n      SLOAD \t\t\tns (PayoutSummary memory) {\\n ...\n      DIV \t\t\tns (PayoutSummary memory) {\\n ...\n      MUL \t\t\tns (PayoutSummary memory) {\\n ...\n      DUP4 \t\t\tns (PayoutSummary memory) {\\n ...\n      MSTORE \t\t\tns (PayoutSummary memory) {\\n ...\n      SWAP2 \t\t\tns (PayoutSummary memory) {\\n ...\n      PUSH 20\t\t\tns (PayoutSummary memory) {\\n ...\n      ADD \t\t\tns (PayoutSummary memory) {\\n ...\n      SWAP2 \t\t\tns (PayoutSummary memory) {\\n ...\n      PUSH [tag] 333\t\t\tns (PayoutSummary memory) {\\n ...\n      JUMP \t\t\tns (PayoutSummary memory) {\\n ...\n    tag 334\t\t\tns (PayoutSummary memory) {\\n ...\n      JUMPDEST \t\t\tns (PayoutSummary memory) {\\n ...\n      DUP3 \t\t\tns (PayoutSummary memory) {\\n ...\n      ADD \t\t\tns (PayoutSummary memory) {\\n ...\n      SWAP2 \t\t\tns (PayoutSummary memory) {\\n ...\n      SWAP1 \t\t\tns (PayoutSummary memory) {\\n ...\n      PUSH 0\t\t\tns (PayoutSummary memory) {\\n ...\n      MSTORE \t\t\tns (PayoutSummary memory) {\\n ...\n      PUSH 20\t\t\tns (PayoutSummary memory) {\\n ...\n      PUSH 0\t\t\tns (PayoutSummary memory) {\\n ...\n      KECCAK256 \t\t\tns (PayoutSummary memory) {\\n ...\n      SWAP1 \t\t\tns (PayoutSummary memory) {\\n ...\n    tag 335\t\t\tns (PayoutSummary memory) {\\n ...\n      JUMPDEST \t\t\tns (PayoutSummary memory) {\\n ...\n      DUP2 \t\t\tns (PayoutSummary memory) {\\n ...\n      SLOAD \t\t\tns (PayoutSummary memory) {\\n ...\n      DUP2 \t\t\tns (PayoutSummary memory) {\\n ...\n      MSTORE \t\t\tns (PayoutSummary memory) {\\n ...\n      SWAP1 \t\t\tns (PayoutSummary memory) {\\n ...\n      PUSH 1\t\t\tns (PayoutSummary memory) {\\n ...\n      ADD \t\t\tns (PayoutSummary memory) {\\n ...\n      SWAP1 \t\t\tns (PayoutSummary memory) {\\n ...\n      PUSH 20\t\t\tns (PayoutSummary memory) {\\n ...\n      ADD \t\t\tns (PayoutSummary memory) {\\n ...\n      DUP1 \t\t\tns (PayoutSummary memory) {\\n ...\n      DUP4 \t\t\tns (PayoutSummary memory) {\\n ...\n      GT \t\t\tns (PayoutSummary memory) {\\n ...\n      PUSH [tag] 335\t\t\tns (PayoutSummary memory) {\\n ...\n      JUMPI \t\t\tns (PayoutSummary memory) {\\n ...\n      DUP3 \t\t\tns (PayoutSummary memory) {\\n ...\n      SWAP1 \t\t\tns (PayoutSummary memory) {\\n ...\n      SUB \t\t\tns (PayoutSummary memory) {\\n ...\n      PUSH 1F\t\t\tns (PayoutSummary memory) {\\n ...\n      AND \t\t\tns (PayoutSummary memory) {\\n ...\n      DUP3 \t\t\tns (PayoutSummary memory) {\\n ...\n      ADD \t\t\tns (PayoutSummary memory) {\\n ...\n      SWAP2 \t\t\tns (PayoutSummary memory) {\\n ...\n    tag 333\t\t\tns (PayoutSummary memory) {\\n ...\n      JUMPDEST \t\t\tns (PayoutSummary memory) {\\n ...\n      POP \t\t\tns (PayoutSummary memory) {\\n ...\n      POP \t\t\tns (PayoutSummary memory) {\\n ...\n      POP \t\t\tns (PayoutSummary memory) {\\n ...\n      POP \t\t\tns (PayoutSummary memory) {\\n ...\n      POP \t\t\tns (PayoutSummary memory) {\\n ...\n      SWAP1 \t\t\tns (PayoutSummary memory) {\\n ...\n      POP \t\t\tns (PayoutSummary memory) {\\n ...\n      DUP3 \t\t\tns (PayoutSummary memory) {\\n ...\n      JUMP \t\t\tns (PayoutSummary memory) {\\n ...\n    tag 140\t\t\tddress indexed pauser, address...\n      JUMPDEST \t\t\tddress indexed pauser, address...\n      PUSH 0\t\t\tream\n      PUSH [tag] 289\t\t\tccountId, address indexed e\n      DUP3 \t\t\tdexed \n      PUSH [tag] 338\t\t\tccountId, address i\n      JUMP \t\t\tccountId, address indexed e\n    tag 145\t\t\t\\n\\n    /// @notice Hook calle...\n      JUMPDEST \t\t\t\\n\\n    /// @notice Hook calle...\n      PUSH [tag] 339\t\t\t/// @param _poolId The 'po\n      PUSH [tag] 340\t\t\t/// @param _poolId The 'po\n      JUMP \t\t\t/// @param _poolId The 'po\n    tag 339\t\t\t/// @param _poolId The 'po\n      JUMPDEST \t\t\t/// @param _poolId The 'po\n      PUSH [tag] 289\t\t\t\\n    /// @param _initialize\n      DUP3 \t\t\tm _initializ\n      PUSH [tag] 343\t\t\t\\n    /// @par\n      JUMP \t\t\t\\n    /// @param _initialize\n    tag 161\t\t\tnauthorize(address user) exter...\n      JUMPDEST \t\t\tnauthorize(address user) exter...\n      PUSH [tag] 345\t\t\tdex by getting the remainde\n      PUSH [tag] 346\t\t\tdex by getting the remain\n      JUMP \t\t\tdex by getting the remainde\n    tag 345\t\t\tdex by getting the remainde\n      JUMPDEST \t\t\tdex by getting the remainde\n      CALLER \t\t\td, bytes32\n      PUSH [tag] 348\t\t\ta packed array of booleans, 's\n      DUP2 \t\t\teans, '\n      PUSH [tag] 274\t\t\ta packed array of boo\n      JUMP \t\t\ta packed array of booleans, 's\n    tag 348\t\t\ta packed array of booleans, 's\n      JUMPDEST \t\t\ta packed array of booleans, 's\n      PUSH 5\t\t\ttable(uint256 index\n      SLOAD \t\t\ttable(uint256 index\n      PUSH 10000\t\t\ttable(uint256 index\n      SWAP1 \t\t\ttable(uint256 index\n      DIV \t\t\ttable(uint256 index\n      PUSH FF\t\t\ttable(uint256 index\n      AND \t\t\ttable(uint256 index\n      ISZERO \t\t\tllectable(uint256 indexed acco...\n      PUSH [tag] 350\t\t\tllectable(uint256 indexed acco...\n      JUMPI \t\t\tllectable(uint256 indexed acco...\n      PUSH 40\t\t\tndexed er\n      MLOAD \t\t\tndexed er\n      PUSH 7FCCE2A9\t\t\t\n      PUSH E0\t\t\t\n      SHL \t\t\t\n      DUP2 \t\t\tndexed er\n      MSTORE \t\t\tndexed er\n      PUSH 4\t\t\tndexed er\n      ADD \t\t\tndexed er\n      PUSH 40\t\t\tndexed er\n      MLOAD \t\t\tndexed er\n      DUP1 \t\t\tndexed er\n      SWAP2 \t\t\tndexed er\n      SUB \t\t\tndexed er\n      SWAP1 \t\t\tndexed er\n      REVERT \t\t\tndexed er\n    tag 350\t\t\tllectable(uint256 indexed acco...\n      JUMPDEST \t\t\tllectable(uint256 indexed acco...\n      PUSH A\t\t\t  event Co\n      DUP4 \t\t\t  event Collected(uint25\n      SWAP1 \t\t\t  event Collected(uint25\n      SSTORE \t\t\t  event Collected(uint25\n      DUP2 \t\t\taccountId, address indexed erc...\n      MLOAD \t\t\taccountId, address indexed erc...\n      PUSH 3\t\t\taccountId, address i\n      SWAP1 \t\t\taccountId, address indexed erc...\n      DUP2 \t\t\taccountId, address indexed erc...\n      SSTORE \t\t\taccountId, address indexed erc...\n      PUSH 20\t\t\taccountId, address indexed erc...\n      DUP4 \t\t\taccountId, address indexed erc...\n      ADD \t\t\taccountId, address indexed erc...\n      MLOAD \t\t\taccountId, address indexed erc...\n      DUP4 \t\t\txed erc20, uint128 co\n      SWAP2 \t\t\txed erc20, uint128 co\n      SWAP1 \t\t\taccountId, address i\n      PUSH 4\t\t\taccountId, address indexed erc...\n      SWAP1 \t\t\taccountId, address indexed erc...\n      PUSH [tag] 351\t\t\taccountId, address indexed erc...\n      SWAP1 \t\t\taccountId, address indexed erc...\n      DUP3 \t\t\taccountId, address indexed erc...\n      PUSH [tag] 352\t\t\taccountId, address indexed erc...\n      JUMP \t\t\taccountId, address indexed erc...\n    tag 351\t\t\taccountId, address indexed erc...\n      JUMPDEST \t\t\taccountId, address indexed erc...\n      POP \t\t\taccountId, address indexed erc...\n      SWAP1 \t\t\taccountId, address indexed erc...\n      POP \t\t\taccountId, address indexed erc...\n      POP \t\t\taccountId, address indexed erc...\n      PUSH DC7180CA4AFFC84269428ED20EF950E745126F11691B010C4A7D49458421008F\t\t\tss indexed oldDriverAddr, addr...\n      PUSH A\t\t\tAddr, addr\n      SLOAD \t\t\tAddr, addr\n      PUSH 3\t\t\ts indexed newDriverA\n      PUSH 40\t\t\tss indexed oldDriverAddr, addr...\n      MLOAD \t\t\tss indexed oldDriverAddr, addr...\n      PUSH [tag] 353\t\t\tss indexed oldDriverAddr, addr...\n      SWAP3 \t\t\tss indexed oldDriverAddr, addr...\n      SWAP2 \t\t\tss indexed oldDriverAddr, addr...\n      SWAP1 \t\t\tss indexed oldDriverAddr, addr...\n      PUSH [tag] 354\t\t\tss indexed oldDriverAddr, addr...\n      JUMP \t\t\tss indexed oldDriverAddr, addr...\n    tag 353\t\t\tss indexed oldDriverAddr, addr...\n      JUMPDEST \t\t\tss indexed oldDriverAddr, addr...\n      PUSH 40\t\t\tss indexed oldDriverAddr, addr...\n      MLOAD \t\t\tss indexed oldDriverAddr, addr...\n      DUP1 \t\t\tss indexed oldDriverAddr, addr...\n      SWAP2 \t\t\tss indexed oldDriverAddr, addr...\n      SUB \t\t\tss indexed oldDriverAddr, addr...\n      SWAP1 \t\t\tss indexed oldDriverAddr, addr...\n      LOG1 \t\t\tss indexed oldDriverAddr, addr...\n      POP \t\t\t_\n      POP \t\t\tnauthorize(address user) exter...\n      POP \t\t\tnauthorize(address user) exter...\n      JUMP \t\t\tnauthorize(address user) exter...\n    tag 188\t\t\tfunction multicall(bytes[] cal...\n      JUMPDEST \t\t\tfunction multicall(bytes[] cal...\n      PUSH 60\t\t\tbytes[] memory results\n      DUP2 \t\t\tdata\n      PUSH 1\t\t\t\n      PUSH 1\t\t\t\n      PUSH 40\t\t\t\n      SHL \t\t\t\n      SUB \t\t\t\n      DUP2 \t\t\tnew bytes[](data.length)\n      GT \t\t\tnew bytes[](data.length)\n      ISZERO \t\t\tnew bytes[](data.length)\n      PUSH [tag] 357\t\t\tnew bytes[](data.length)\n      JUMPI \t\t\tnew bytes[](data.length)\n      PUSH [tag] 357\t\t\tnew bytes[](data.length)\n      PUSH [tag] 358\t\t\tnew bytes[](data.length)\n      JUMP \t\t\tnew bytes[](data.length)\n    tag 357\t\t\tnew bytes[](data.length)\n      JUMPDEST \t\t\tnew bytes[](data.length)\n      PUSH 40\t\t\tnew bytes[](data.length)\n      MLOAD \t\t\tnew bytes[](data.length)\n      SWAP1 \t\t\tnew bytes[](data.length)\n      DUP1 \t\t\tnew bytes[](data.length)\n      DUP3 \t\t\tnew bytes[](data.length)\n      MSTORE \t\t\tnew bytes[](data.length)\n      DUP1 \t\t\tnew bytes[](data.length)\n      PUSH 20\t\t\tnew bytes[](data.length)\n      MUL \t\t\tnew bytes[](data.length)\n      PUSH 20\t\t\tnew bytes[](data.length)\n      ADD \t\t\tnew bytes[](data.length)\n      DUP3 \t\t\tnew bytes[](data.length)\n      ADD \t\t\tnew bytes[](data.length)\n      PUSH 40\t\t\tnew bytes[](data.length)\n      MSTORE \t\t\tnew bytes[](data.length)\n      DUP1 \t\t\tnew bytes[](data.length)\n      ISZERO \t\t\tnew bytes[](data.length)\n      PUSH [tag] 359\t\t\tnew bytes[](data.length)\n      JUMPI \t\t\tnew bytes[](data.length)\n      DUP2 \t\t\tnew bytes[](data.length)\n      PUSH 20\t\t\tnew bytes[](data.length)\n      ADD \t\t\tnew bytes[](data.length)\n    tag 360\t\t\tnew bytes[](data.length)\n      JUMPDEST \t\t\tnew bytes[](data.length)\n      PUSH 60\t\t\tnew bytes[](data.length)\n      DUP2 \t\t\tnew bytes[](data.length)\n      MSTORE \t\t\tnew bytes[](data.length)\n      PUSH 20\t\t\tnew bytes[](data.length)\n      ADD \t\t\tnew bytes[](data.length)\n      SWAP1 \t\t\tnew bytes[](data.length)\n      PUSH 1\t\t\tnew bytes[](data.length)\n      SWAP1 \t\t\tnew bytes[](data.length)\n      SUB \t\t\tnew bytes[](data.length)\n      SWAP1 \t\t\tnew bytes[](data.length)\n      DUP2 \t\t\tnew bytes[](data.length)\n      PUSH [tag] 360\t\t\tnew bytes[](data.length)\n      JUMPI \t\t\tnew bytes[](data.length)\n      SWAP1 \t\t\tnew bytes[](data.length)\n      POP \t\t\tnew bytes[](data.length)\n    tag 359\t\t\tnew bytes[](data.length)\n      JUMPDEST \t\t\tnew bytes[](data.length)\n      POP \t\t\tnew bytes[](data.length)\n      SWAP1 \t\t\tresults = new bytes[](data.len...\n      POP \t\t\tresults = new bytes[](data.len...\n      PUSH 0\t\t\tuint256 i\n    tag 361\t\t\tfor (uint256 i = 0; i < data.l...\n      JUMPDEST \t\t\tfor (uint256 i = 0; i < data.l...\n      DUP3 \t\t\ti < data.length\n      DUP2 \t\t\ti < data.length\n      LT \t\t\ti < data.length\n      ISZERO \t\t\tfor (uint256 i = 0; i < data.l...\n      PUSH [tag] 362\t\t\tfor (uint256 i = 0; i < data.l...\n      JUMPI \t\t\tfor (uint256 i = 0; i < data.l...\n      PUSH [tag] 364\t\t\tAddress.functionDelegateCall(a...\n      ADDRESS \t\t\tthis\n      DUP6 \t\t\tdata\n      DUP6 \t\t\tdata\n      DUP5 \t\t\ti\n      DUP2 \t\t\tdata[i]\n      DUP2 \t\t\tdata[i]\n      LT \t\t\tdata[i]\n      PUSH [tag] 366\t\t\tdata[i]\n      JUMPI \t\t\tdata[i]\n      PUSH [tag] 366\t\t\tdata[i]\n      PUSH [tag] 321\t\t\tdata[i]\n      JUMP \t\t\tdata[i]\n    tag 366\t\t\tdata[i]\n      JUMPDEST \t\t\tdata[i]\n      SWAP1 \t\t\tdata[i]\n      POP \t\t\tdata[i]\n      PUSH 20\t\t\tdata[i]\n      MUL \t\t\tdata[i]\n      DUP2 \t\t\tdata[i]\n      ADD \t\t\tdata[i]\n      SWAP1 \t\t\tdata[i]\n      PUSH [tag] 367\t\t\tdata[i]\n      SWAP2 \t\t\tdata[i]\n      SWAP1 \t\t\tdata[i]\n      PUSH [tag] 368\t\t\tdata[i]\n      JUMP \t\t\tdata[i]\n    tag 367\t\t\tdata[i]\n      JUMPDEST \t\t\tdata[i]\n      DUP1 \t\t\tAddress.functionDelegateCall(a...\n      DUP1 \t\t\tAddress.functionDelegateCall(a...\n      PUSH 1F\t\t\tAddress.functionDelegateCall(a...\n      ADD \t\t\tAddress.functionDelegateCall(a...\n      PUSH 20\t\t\tAddress.functionDelegateCall(a...\n      DUP1 \t\t\tAddress.functionDelegateCall(a...\n      SWAP2 \t\t\tAddress.functionDelegateCall(a...\n      DIV \t\t\tAddress.functionDelegateCall(a...\n      MUL \t\t\tAddress.functionDelegateCall(a...\n      PUSH 20\t\t\tAddress.functionDelegateCall(a...\n      ADD \t\t\tAddress.functionDelegateCall(a...\n      PUSH 40\t\t\tAddress.functionDelegateCall(a...\n      MLOAD \t\t\tAddress.functionDelegateCall(a...\n      SWAP1 \t\t\tAddress.functionDelegateCall(a...\n      DUP2 \t\t\tAddress.functionDelegateCall(a...\n      ADD \t\t\tAddress.functionDelegateCall(a...\n      PUSH 40\t\t\tAddress.functionDelegateCall(a...\n      MSTORE \t\t\tAddress.functionDelegateCall(a...\n      DUP1 \t\t\tAddress.functionDelegateCall(a...\n      SWAP4 \t\t\tAddress.functionDelegateCall(a...\n      SWAP3 \t\t\tAddress.functionDelegateCall(a...\n      SWAP2 \t\t\tAddress.functionDelegateCall(a...\n      SWAP1 \t\t\tAddress.functionDelegateCall(a...\n      DUP2 \t\t\tAddress.functionDelegateCall(a...\n      DUP2 \t\t\tAddress.functionDelegateCall(a...\n      MSTORE \t\t\tAddress.functionDelegateCall(a...\n      PUSH 20\t\t\tAddress.functionDelegateCall(a...\n      ADD \t\t\tAddress.functionDelegateCall(a...\n      DUP4 \t\t\tAddress.functionDelegateCall(a...\n      DUP4 \t\t\tAddress.functionDelegateCall(a...\n      DUP1 \t\t\tAddress.functionDelegateCall(a...\n      DUP3 \t\t\tAddress.functionDelegateCall(a...\n      DUP5 \t\t\tAddress.functionDelegateCall(a...\n      CALLDATACOPY \t\t\tAddress.functionDelegateCall(a...\n      PUSH 0\t\t\tAddress.functionDelegateCall(a...\n      SWAP3 \t\t\tAddress.functionDelegateCall(a...\n      ADD \t\t\tAddress.functionDelegateCall(a...\n      SWAP2 \t\t\tAddress.functionDelegateCall(a...\n      SWAP1 \t\t\tAddress.functionDelegateCall(a...\n      SWAP2 \t\t\tAddress.functionDelegateCall(a...\n      MSTORE \t\t\tAddress.functionDelegateCall(a...\n      POP \t\t\t\n      PUSH [tag] 369\t\t\tAddress.functionDelegateCall\n      SWAP3 \t\t\tAddress.functionDelegateCall\n      POP \t\t\t\n      POP \t\t\t\n      POP \t\t\t\n      JUMP \t\t\tAddress.functionDelegateCall(a...\n    tag 364\t\t\tAddress.functionDelegateCall(a...\n      JUMPDEST \t\t\tAddress.functionDelegateCall(a...\n      DUP3 \t\t\tresults\n      DUP3 \t\t\ti\n      DUP2 \t\t\tresults[i]\n      MLOAD \t\t\tresults[i]\n      DUP2 \t\t\tresults[i]\n      LT \t\t\tresults[i]\n      PUSH [tag] 371\t\t\tresults[i]\n      JUMPI \t\t\tresults[i]\n      PUSH [tag] 371\t\t\tresults[i]\n      PUSH [tag] 321\t\t\tresults[i]\n      JUMP \t\t\tresults[i]\n    tag 371\t\t\tresults[i]\n      JUMPDEST \t\t\tresults[i]\n      PUSH 20\t\t\tresults[i]\n      SWAP1 \t\t\tresults[i]\n      DUP2 \t\t\tresults[i]\n      MUL \t\t\tresults[i]\n      SWAP2 \t\t\tresults[i]\n      SWAP1 \t\t\tresults[i]\n      SWAP2 \t\t\tresults[i]\n      ADD \t\t\tresults[i]\n      ADD \t\t\tresults[i]\n      MSTORE \t\t\tresults[i] = Address.functionD...\n      PUSH 1\t\t\ti++\n      ADD \t\t\ti++\n      PUSH [tag] 361\t\t\tfor (uint256 i = 0; i < data.l...\n      JUMP \t\t\tfor (uint256 i = 0; i < data.l...\n    tag 362\t\t\tfor (uint256 i = 0; i < data.l...\n      JUMPDEST \t\t\tfor (uint256 i = 0; i < data.l...\n      POP \t\t\tfor (uint256 i = 0; i < data.l...\n      SWAP3 \t\t\tfunction multicall(bytes[] cal...\n      SWAP2 \t\t\tfunction multicall(bytes[] cal...\n      POP \t\t\tfunction multicall(bytes[] cal...\n      POP \t\t\tfunction multicall(bytes[] cal...\n      JUMP \t\t\tfunction multicall(bytes[] cal...\n    tag 195\t\t\t uint256 allowedTokensLength =...\n      JUMPDEST \t\t\t uint256 allowedTokensLength =...\n      DUP2 \t\t\t           allowedTo\n      MLOAD \t\t\t           allowedTo\n      DUP2 \t\t\tokensLength;\n      MLOAD \t\t\tokensLength;\n      PUSH 60\t\t\t     if (allowedTokens\n      SWAP2 \t\t\t     if (allowedTokens\n      SWAP1 \t\t\t           allowedTo\n      DUP2 \t\t\t256 i; i < allowedTokensLength...\n      EQ \t\t\t256 i; i < allowedTokensLength...\n      PUSH [tag] 373\t\t\tuint256 i; i < allowedTokensLe...\n      JUMPI \t\t\tuint256 i; i < allowedTokensLe...\n      PUSH 40\t\t\t       allowedTo\n      MLOAD \t\t\t       allowedTo\n      PUSH 3DA4C02B\t\t\t\n      PUSH E1\t\t\t\n      SHL \t\t\t\n      DUP2 \t\t\t       allowedTo\n      MSTORE \t\t\t       allowedTo\n      PUSH 4\t\t\t       allowedTo\n      ADD \t\t\t       allowedTo\n      PUSH 40\t\t\t       allowedTo\n      MLOAD \t\t\t       allowedTo\n      DUP1 \t\t\t       allowedTo\n      SWAP2 \t\t\t       allowedTo\n      SUB \t\t\t       allowedTo\n      SWAP1 \t\t\t       allowedTo\n      REVERT \t\t\t       allowedTo\n    tag 373\t\t\tuint256 i; i < allowedTokensLe...\n      JUMPDEST \t\t\tuint256 i; i < allowedTokensLe...\n      PUSH 0\t\t\talizeData.allowedTokens[i]] = \n      DUP2 \t\t\tcked {\\n        \n      PUSH 1\t\t\t\n      PUSH 1\t\t\t\n      PUSH 40\t\t\t\n      SHL \t\t\t\n      SUB \t\t\t\n      DUP2 \t\t\te;\\n            unchecked {\\n ...\n      GT \t\t\te;\\n            unchecked {\\n ...\n      ISZERO \t\t\te;\\n            unchecked {\\n ...\n      PUSH [tag] 375\t\t\te;\\n            unchecked {\\n ...\n      JUMPI \t\t\te;\\n            unchecked {\\n ...\n      PUSH [tag] 375\t\t\te;\\n            unchecked {\\n ...\n      PUSH [tag] 358\t\t\te;\\n            unchecked {\\n ...\n      JUMP \t\t\te;\\n            unchecked {\\n ...\n    tag 375\t\t\te;\\n            unchecked {\\n ...\n      JUMPDEST \t\t\te;\\n            unchecked {\\n ...\n      PUSH 40\t\t\te;\\n            unchecked {\\n ...\n      MLOAD \t\t\te;\\n            unchecked {\\n ...\n      SWAP1 \t\t\te;\\n            unchecked {\\n ...\n      DUP1 \t\t\te;\\n            unchecked {\\n ...\n      DUP3 \t\t\te;\\n            unchecked {\\n ...\n      MSTORE \t\t\te;\\n            unchecked {\\n ...\n      DUP1 \t\t\te;\\n            unchecked {\\n ...\n      PUSH 20\t\t\te;\\n            unchecked {\\n ...\n      MUL \t\t\te;\\n            unchecked {\\n ...\n      PUSH 20\t\t\te;\\n            unchecked {\\n ...\n      ADD \t\t\te;\\n            unchecked {\\n ...\n      DUP3 \t\t\te;\\n            unchecked {\\n ...\n      ADD \t\t\te;\\n            unchecked {\\n ...\n      PUSH 40\t\t\te;\\n            unchecked {\\n ...\n      MSTORE \t\t\te;\\n            unchecked {\\n ...\n      DUP1 \t\t\te;\\n            unchecked {\\n ...\n      ISZERO \t\t\te;\\n            unchecked {\\n ...\n      PUSH [tag] 376\t\t\te;\\n            unchecked {\\n ...\n      JUMPI \t\t\te;\\n            unchecked {\\n ...\n      DUP2 \t\t\te;\\n            unchecked {\\n ...\n      PUSH 20\t\t\te;\\n            unchecked {\\n ...\n      ADD \t\t\te;\\n            unchecked {\\n ...\n    tag 377\t\t\te;\\n            unchecked {\\n ...\n      JUMPDEST \t\t\te;\\n            unchecked {\\n ...\n      PUSH 40\t\t\t\n      DUP1 \t\t\t\n      MLOAD \t\t\t\n      DUP1 \t\t\t\n      DUP3 \t\t\t\n      ADD \t\t\t\n      SWAP1 \t\t\t\n      SWAP2 \t\t\t\n      MSTORE \t\t\t\n      PUSH 0\t\t\t\n      DUP1 \t\t\t\n      DUP3 \t\t\t\n      MSTORE \t\t\t\n      PUSH 20\t\t\t\n      DUP3 \t\t\t\n      ADD \t\t\t\n      MSTORE \t\t\t\n      DUP2 \t\t\te;\\n            unchecked {\\n ...\n      MSTORE \t\t\te;\\n            unchecked {\\n ...\n      PUSH 20\t\t\te;\\n            unchecked {\\n ...\n      ADD \t\t\te;\\n            unchecked {\\n ...\n      SWAP1 \t\t\te;\\n            unchecked {\\n ...\n      PUSH 1\t\t\te;\\n            unchecked {\\n ...\n      SWAP1 \t\t\te;\\n            unchecked {\\n ...\n      SUB \t\t\te;\\n            unchecked {\\n ...\n      SWAP1 \t\t\te;\\n            unchecked {\\n ...\n      DUP2 \t\t\te;\\n            unchecked {\\n ...\n      PUSH [tag] 377\t\t\te;\\n            unchecked {\\n ...\n      JUMPI \t\t\te;\\n            unchecked {\\n ...\n      SWAP1 \t\t\te;\\n            unchecked {\\n ...\n      POP \t\t\te;\\n            unchecked {\\n ...\n    tag 376\t\t\te;\\n            unchecked {\\n ...\n      JUMPDEST \t\t\te;\\n            unchecked {\\n ...\n      POP \t\t\te;\\n            unchecked {\\n ...\n      SWAP1 \t\t\talizeData.allowedTokens[i]] = ...\n      POP \t\t\talizeData.allowedTokens[i]] = ...\n      PUSH 0\t\t\t         \n    tag 380\t\t\t;\\n            }\\n        }\\n ...\n      JUMPDEST \t\t\t;\\n            }\\n        }\\n ...\n      DUP3 \t\t\t    }\\n    }\\n\\n  \n      DUP2 \t\t\t \n      LT \t\t\t        }\\n    }\\n\\n  \n      ISZERO \t\t\t;\\n            }\\n        }\\n ...\n      PUSH [tag] 381\t\t\t;\\n            }\\n        }\\n ...\n      JUMPI \t\t\t;\\n            }\\n        }\\n ...\n      PUSH [tag] 383\t\t\t=======\\n    /// ============ ...\n      DUP7 \t\t\t /// ========\n      DUP3 \t\t\t=\n      DUP2 \t\t\t /// ===========\n      MLOAD \t\t\t /// ===========\n      DUP2 \t\t\t /// ===========\n      LT \t\t\t /// ===========\n      PUSH [tag] 385\t\t\t /// ===========\n      JUMPI \t\t\t /// ===========\n      PUSH [tag] 385\t\t\t /// ===========\n      PUSH [tag] 321\t\t\t /// ===========\n      JUMP \t\t\t /// ===========\n    tag 385\t\t\t /// ===========\n      JUMPDEST \t\t\t /// ===========\n      PUSH 20\t\t\t /// ===========\n      MUL \t\t\t /// ===========\n      PUSH 20\t\t\t /// ===========\n      ADD \t\t\t /// ===========\n      ADD \t\t\t /// ===========\n      MLOAD \t\t\t /// ===========\n      DUP7 \t\t\tViews\n      DUP4 \t\t\t=\n      DUP2 \t\t\tViews ==\n      MLOAD \t\t\tViews ==\n      DUP2 \t\t\tViews ==\n      LT \t\t\tViews ==\n      PUSH [tag] 387\t\t\tViews ==\n      JUMPI \t\t\tViews ==\n      PUSH [tag] 387\t\t\tViews ==\n      PUSH [tag] 321\t\t\tViews ==\n      JUMP \t\t\tViews ==\n    tag 387\t\t\tViews ==\n      JUMPDEST \t\t\tViews ==\n      PUSH 20\t\t\tViews ==\n      MUL \t\t\tViews ==\n      PUSH 20\t\t\tViews ==\n      ADD \t\t\tViews ==\n      ADD \t\t\tViews ==\n      MLOAD \t\t\tViews ==\n      PUSH [tag] 388\t\t\t=======\\n  \n      JUMP \t\t\t=======\\n    /// ============ ...\n    tag 383\t\t\t=======\\n    /// ============ ...\n      JUMPDEST \t\t\t=======\\n    /// ============ ...\n      DUP3 \t\t\t=======\n      DUP3 \t\t\t=\n      DUP2 \t\t\t==========\n      MLOAD \t\t\t==========\n      DUP2 \t\t\t==========\n      LT \t\t\t==========\n      PUSH [tag] 390\t\t\t==========\n      JUMPI \t\t\t==========\n      PUSH [tag] 390\t\t\t==========\n      PUSH [tag] 321\t\t\t==========\n      JUMP \t\t\t==========\n    tag 390\t\t\t==========\n      JUMPDEST \t\t\t==========\n      PUSH 20\t\t\t==========\n      SWAP1 \t\t\t==========\n      DUP2 \t\t\t==========\n      MUL \t\t\t==========\n      SWAP2 \t\t\t==========\n      SWAP1 \t\t\t==========\n      SWAP2 \t\t\t==========\n      ADD \t\t\t==========\n      ADD \t\t\t==========\n      MSTORE \t\t\t====================\\n    /// ...\n      PUSH 1\t\t\t===\n      ADD \t\t\t===\n      PUSH [tag] 380\t\t\t;\\n            }\\n        }\\n ...\n      JUMP \t\t\t;\\n            }\\n        }\\n ...\n    tag 381\t\t\t;\\n            }\\n        }\\n ...\n      JUMPDEST \t\t\t;\\n            }\\n        }\\n ...\n      POP \t\t\t\n      SWAP5 \t\t\th a '_r\n      SWAP4 \t\t\t uint256 allowedTokensLength =...\n      POP \t\t\t\n      POP \t\t\t\n      POP \t\t\t\n      POP \t\t\t\n      JUMP \t\t\t uint256 allowedTokensLength =...\n    tag 210\t\t\t\n      JUMPDEST \t\t\t\n      PUSH 0\t\t\t\n      DUP1 \t\t\t\n      PUSH FFFFFFFF\t\t\t\n      DUP4 \t\t\t\n      AND \t\t\t\n      PUSH [tag] 392\t\t\t\n      DUP6 \t\t\t\n      PUSH 3B9ACA00\t\t\t\n      PUSH [tag] 393\t\t\t\n      JUMP \t\t\t\n    tag 392\t\t\t\n      JUMPDEST \t\t\t\n      PUSH [tag] 394\t\t\t\n      SWAP2 \t\t\t\n      SWAP1 \t\t\t\n      PUSH [tag] 395\t\t\t\n      JUMP \t\t\t\n    tag 394\t\t\t\n      JUMPDEST \t\t\t\n      PUSH 1\t\t\t\n      PUSH 1\t\t\t\n      PUSH 80\t\t\t\n      SHL \t\t\t\n      SUB \t\t\t\n      AND \t\t\t\n      SWAP1 \t\t\t\n      POP \t\t\t\n      PUSH 11\t\t\t\n      PUSH 0\t\t\t\n      SWAP1 \t\t\t\n      SLOAD \t\t\t\n      SWAP1 \t\t\t\n      PUSH 100\t\t\t\n      EXP \t\t\t\n      SWAP1 \t\t\t\n      DIV \t\t\t\n      PUSH 1\t\t\t\n      PUSH 1\t\t\t\n      PUSH A0\t\t\t\n      SHL \t\t\t\n      SUB \t\t\t\n      AND \t\t\t\n      PUSH 1\t\t\t\n      PUSH 1\t\t\t\n      PUSH A0\t\t\t\n      SHL \t\t\t\n      SUB \t\t\t\n      AND \t\t\t\n      PUSH C82051DD\t\t\t\n      PUSH 40\t\t\t\n      MLOAD \t\t\t\n      DUP2 \t\t\t\n      PUSH FFFFFFFF\t\t\t\n      AND \t\t\t\n      PUSH E0\t\t\t\n      SHL \t\t\t\n      DUP2 \t\t\t\n      MSTORE \t\t\t\n      PUSH 4\t\t\t\n      ADD \t\t\t\n      PUSH 20\t\t\t\n      PUSH 40\t\t\t\n      MLOAD \t\t\t\n      DUP1 \t\t\t\n      DUP4 \t\t\t\n      SUB \t\t\t\n      DUP2 \t\t\t\n      DUP7 \t\t\t\n      GAS \t\t\t\n      STATICCALL \t\t\t\n      ISZERO \t\t\t\n      DUP1 \t\t\t\n      ISZERO \t\t\t\n      PUSH [tag] 397\t\t\t\n      JUMPI \t\t\t\n      RETURNDATASIZE \t\t\t\n      PUSH 0\t\t\t\n      DUP1 \t\t\t\n      RETURNDATACOPY \t\t\t\n      RETURNDATASIZE \t\t\t\n      PUSH 0\t\t\t\n      REVERT \t\t\t\n    tag 397\t\t\t\n      JUMPDEST \t\t\t\n      POP \t\t\t\n      POP \t\t\t\n      POP \t\t\t\n      POP \t\t\t\n      PUSH 40\t\t\t\n      MLOAD \t\t\t\n      RETURNDATASIZE \t\t\t\n      PUSH 1F\t\t\t\n      NOT \t\t\t\n      PUSH 1F\t\t\t\n      DUP3 \t\t\t\n      ADD \t\t\t\n      AND \t\t\t\n      DUP3 \t\t\t\n      ADD \t\t\t\n      DUP1 \t\t\t\n      PUSH 40\t\t\t\n      MSTORE \t\t\t\n      POP \t\t\t\n      DUP2 \t\t\t\n      ADD \t\t\t\n      SWAP1 \t\t\t\n      PUSH [tag] 398\t\t\t\n      SWAP2 \t\t\t\n      SWAP1 \t\t\t\n      PUSH [tag] 399\t\t\t\n      JUMP \t\t\t\n    tag 398\t\t\t\n      JUMPDEST \t\t\t\n      PUSH 1\t\t\t\n      PUSH 1\t\t\t\n      PUSH A0\t\t\t\n      SHL \t\t\t\n      SUB \t\t\t\n      AND \t\t\t\n      DUP2 \t\t\t\n      PUSH 1\t\t\t\n      PUSH 1\t\t\t\n      PUSH A0\t\t\t\n      SHL \t\t\t\n      SUB \t\t\t\n      AND \t\t\t\n      LT \t\t\t\n      ISZERO \t\t\t\n      PUSH [tag] 287\t\t\t\n      JUMPI \t\t\t\n      PUSH 11\t\t\t\n      PUSH 0\t\t\t\n      SWAP1 \t\t\t\n      SLOAD \t\t\t\n      SWAP1 \t\t\t\n      PUSH 100\t\t\t\n      EXP \t\t\t\n      SWAP1 \t\t\t\n      DIV \t\t\t\n      PUSH 1\t\t\t\n      PUSH 1\t\t\t\n      PUSH A0\t\t\t\n      SHL \t\t\t\n      SUB \t\t\t\n      AND \t\t\t\n      PUSH 1\t\t\t\n      PUSH 1\t\t\t\n      PUSH A0\t\t\t\n      SHL \t\t\t\n      SUB \t\t\t\n      AND \t\t\t\n      PUSH C82051DD\t\t\t\n      PUSH 40\t\t\t\n      MLOAD \t\t\t\n      DUP2 \t\t\t\n      PUSH FFFFFFFF\t\t\t\n      AND \t\t\t\n      PUSH E0\t\t\t\n      SHL \t\t\t\n      DUP2 \t\t\t\n      MSTORE \t\t\t\n      PUSH 4\t\t\t\n      ADD \t\t\t\n      PUSH 20\t\t\t\n      PUSH 40\t\t\t\n      MLOAD \t\t\t\n      DUP1 \t\t\t\n      DUP4 \t\t\t\n      SUB \t\t\t\n      DUP2 \t\t\t\n      DUP7 \t\t\t\n      GAS \t\t\t\n      STATICCALL \t\t\t\n      ISZERO \t\t\t\n      DUP1 \t\t\t\n      ISZERO \t\t\t\n      PUSH [tag] 402\t\t\t\n      JUMPI \t\t\t\n      RETURNDATASIZE \t\t\t\n      PUSH 0\t\t\t\n      DUP1 \t\t\t\n      RETURNDATACOPY \t\t\t\n      RETURNDATASIZE \t\t\t\n      PUSH 0\t\t\t\n      REVERT \t\t\t\n    tag 402\t\t\t\n      JUMPDEST \t\t\t\n      POP \t\t\t\n      POP \t\t\t\n      POP \t\t\t\n      POP \t\t\t\n      PUSH 40\t\t\t\n      MLOAD \t\t\t\n      RETURNDATASIZE \t\t\t\n      PUSH 1F\t\t\t\n      NOT \t\t\t\n      PUSH 1F\t\t\t\n      DUP3 \t\t\t\n      ADD \t\t\t\n      AND \t\t\t\n      DUP3 \t\t\t\n      ADD \t\t\t\n      DUP1 \t\t\t\n      PUSH 40\t\t\t\n      MSTORE \t\t\t\n      POP \t\t\t\n      DUP2 \t\t\t\n      ADD \t\t\t\n      SWAP1 \t\t\t\n      PUSH [tag] 403\t\t\t\n      SWAP2 \t\t\t\n      SWAP1 \t\t\t\n      PUSH [tag] 399\t\t\t\n      JUMP \t\t\t\n    tag 403\t\t\t\n      JUMPDEST \t\t\t\n      SWAP2 \t\t\t\n      POP \t\t\t\n      POP \t\t\t\n      PUSH [tag] 289\t\t\t\n      JUMP \t\t\t\n    tag 215\t\t\t  /// ========== Modifier ====...\n      JUMPDEST \t\t\t  /// ========== Modifier ====...\n      PUSH 0\t\t\t====\n      PUSH [tag] 405\t\t\t\\n\\n    /// @noti\n      PUSH [tag] 406\t\t\t\\n\\n    /// @no\n      JUMP \t\t\t\\n\\n    /// @noti\n    tag 405\t\t\t\\n\\n    /// @noti\n      JUMPDEST \t\t\t\\n\\n    /// @noti\n      SWAP1 \t\t\t=======\\n\\n    /// @noti\n      POP \t\t\t=======\\n\\n    /// @noti\n      SWAP1 \t\t\t  /// ========== Modifier ====...\n      JUMP \t\t\t  /// ========== Modifier ====...\n    tag 233\t\t\t onlyActiveRegistration() {\\n ...\n      JUMPDEST \t\t\t onlyActiveRegistration() {\\n ...\n      PUSH 0\t\t\t  }\\n\\n \n      PUSH [tag] 289\t\t\tfier to check if the allocatio...\n      DUP3 \t\t\t allocation \n      PUSH [tag] 409\t\t\tfier to check if th\n      JUMP \t\t\tfier to check if the allocatio...\n    tag 240\t\t\t_setDistributed(index);\\n\\n   ...\n      JUMPDEST \t\t\t_setDistributed(index);\\n\\n   ...\n      PUSH [tag] 411\t\t\the total number \n      PUSH [tag] 260\t\t\the total numbe\n      JUMP \t\t\the total number \n    tag 411\t\t\the total number \n      JUMPDEST \t\t\the total number \n      PUSH 0\t\t\t       // Transfer the amount ...\n      DUP2 \t\t\t     \n      DUP1 \t\t\tipient\\n            _transferA...\n      PUSH 20\t\t\tipient\\n            _transferA...\n      ADD \t\t\tipient\\n            _transferA...\n      SWAP1 \t\t\tipient\\n            _transferA...\n      MLOAD \t\t\tipient\\n            _transferA...\n      DUP2 \t\t\tipient\\n            _transferA...\n      ADD \t\t\tipient\\n            _transferA...\n      SWAP1 \t\t\tipient\\n            _transferA...\n      PUSH [tag] 413\t\t\tipient\\n            _transferA...\n      SWAP2 \t\t\tipient\\n            _transferA...\n      SWAP1 \t\t\tipient\\n            _transferA...\n      PUSH [tag] 414\t\t\tipient\\n            _transferA...\n      JUMP \t\t\tipient\\n            _transferA...\n    tag 413\t\t\tipient\\n            _transferA...\n      JUMPDEST \t\t\tipient\\n            _transferA...\n      SWAP1 \t\t\t        // Transfer the amount...\n      POP \t\t\t        // Transfer the amount...\n      PUSH [tag] 415\t\t\t, payable(recipientAddress), a...\n      DUP4 \t\t\ttAddres\n      DUP3 \t\t\t, amount);\\n\\n  \n      PUSH [tag] 416\t\t\t, payable(recipie\n      JUMP \t\t\t, payable(recipientAddress), a...\n    tag 415\t\t\t, payable(recipientAddress), a...\n      JUMPDEST \t\t\t, payable(recipientAddress), a...\n      PUSH [tag] 417\t\t\t/ Emit that the funds have bee...\n      DUP4 \t\t\ten dist\n      DUP3 \t\t\tbuted to the r\n      PUSH [tag] 418\t\t\t/ Emit that the funds have b\n      JUMP \t\t\t/ Emit that the funds have bee...\n    tag 417\t\t\t/ Emit that the funds have bee...\n      JUMPDEST \t\t\t/ Emit that the funds have bee...\n      PUSH 91EFA3D50FECCDE0D0D202F8AE5C41CA0B2BE614CEBCB2BD2F4B019396E6568A\t\t\t, pool.token, recipientId);\n      DUP4 \t\t\t, recip\n      DUP4 \t\t\tntId)\n      PUSH 40\t\t\t, pool.token, recipientId);\n      MLOAD \t\t\t, pool.token, recipientId);\n      PUSH [tag] 353\t\t\t, pool.token, recipientId);\n      SWAP3 \t\t\t, pool.token, recipientId);\n      SWAP2 \t\t\t, pool.token, recipientId);\n      SWAP1 \t\t\t, pool.token, recipientId);\n      PUSH [tag] 136\t\t\t, pool.token, recipientId);\n      JUMP \t\t\t, pool.token, recipientId);\n    tag 243\t\t\tThe 'poolId' to initialize\\n  ...\n      JUMPDEST \t\t\tThe 'poolId' to initialize\\n  ...\n      PUSH [tag] 424\t\t\the total number \n      PUSH [tag] 260\t\t\the total numbe\n      JUMP \t\t\the total number \n    tag 424\t\t\the total number \n      JUMPDEST \t\t\the total number \n      PUSH [tag] 426\t\t\te).\\n    /// If we want \n      PUSH [tag] 263\t\t\te).\\n    /// If we wan\n      JUMP \t\t\te).\\n    /// If we want \n    tag 426\t\t\te).\\n    /// If we want \n      JUMPDEST \t\t\te).\\n    /// If we want \n      PUSH [tag] 430\t\t\tt(uint256 _poolId, Initia\n      DUP3 \t\t\t_pool\n      DUP3 \t\t\t, Initi\n      PUSH [tag] 431\t\t\tt(uint256\n      JUMP \t\t\tt(uint256 _poolId, Initia\n    tag 430\t\t\tt(uint256 _poolId, Initia\n      JUMPDEST \t\t\tt(uint256 _poolId, Initia\n      POP \t\t\tThe 'poolId' to initialize\\n  ...\n      POP \t\t\tThe 'poolId' to initialize\\n  ...\n      JUMP \t\t\tThe 'poolId' to initialize\\n  ...\n    tag 247\t\t\tze ==========\\n    /// =======...\n      JUMPDEST \t\t\tze ==========\\n    /// =======...\n      PUSH [tag] 435\t\t\the total number \n      PUSH [tag] 260\t\t\the total numbe\n      JUMP \t\t\the total number \n    tag 435\t\t\the total number \n      JUMPDEST \t\t\the total number \n      DUP1 \t\t\ty is al\n      PUSH 2\t\t\tif the str\n      PUSH 0\t\t\tif the str\n      DUP3 \t\t\tif the strategy is al\n      DUP3 \t\t\tif the strategy is al\n      SLOAD \t\t\tif the strategy is al\n      PUSH [tag] 439\t\t\tif the strategy is al\n      SWAP2 \t\t\tif the strategy is al\n      SWAP1 \t\t\tif the strategy is al\n      PUSH [tag] 440\t\t\tif the strategy is al\n      JUMP \t\t\tif the strategy is al\n    tag 439\t\t\tif the strategy is al\n      JUMPDEST \t\t\tif the strategy is al\n      SWAP1 \t\t\tif the strategy is al\n      SWAP2 \t\t\tif the strategy is al\n      SSTORE \t\t\tif the strategy is al\n      POP \t\t\t\n      PUSH [tag] 441\t\t\tialized and 'msg.sender' is no...\n      SWAP1 \t\t\tialized and 'msg.sender' is no...\n      POP \t\t\t\n      DUP2 \t\t\tis not \n      DUP2 \t\t\tialized and 'msg.sender' is no...\n      JUMP \t\t\tialized and 'msg.sender' is no...\n    tag 441\t\t\tialized and 'msg.sender' is no...\n      JUMPDEST \t\t\tialized and 'msg.sender' is no...\n      POP \t\t\tze ==========\\n    /// =======...\n      JUMP \t\t\tze ==========\\n    /// =======...\n    tag 260\t\t\t============================\\n...\n      JUMPDEST \t\t\t============================\\n...\n      CALLER \t\t\tCustom ===\n      PUSH 1\t\t\t\n      PUSH 1\t\t\t\n      PUSH A0\t\t\t\n      SHL \t\t\t\n      SUB \t\t\t\n      PUSHIMMUTABLE 2008\t\t\t ===\n      AND \t\t\tCustom =======\\n    /// ====\n      EQ \t\t\tCustom =======\\n    /// ====\n      PUSH [tag] 444\t\t\tnal/Custom =======\\n    /// ==...\n      JUMPI \t\t\tnal/Custom =======\\n    /// ==...\n      PUSH 40\t\t\t==============\n      MLOAD \t\t\t==============\n      PUSH 75FD2B1\t\t\t\n      PUSH E0\t\t\t\n      SHL \t\t\t\n      DUP2 \t\t\t==============\n      MSTORE \t\t\t==============\n      PUSH 4\t\t\t==============\n      ADD \t\t\t==============\n      PUSH 40\t\t\t==============\n      MLOAD \t\t\t==============\n      DUP1 \t\t\t==============\n      SWAP2 \t\t\t==============\n      SUB \t\t\t==============\n      SWAP1 \t\t\t==============\n      REVERT \t\t\t==============\n    tag 444\t\t\tnal/Custom =======\\n    /// ==...\n      JUMPDEST \t\t\tnal/Custom =======\\n    /// ==...\n      JUMP \t\t\t============================\\n...\n    tag 263\t\t\t        uint256 rowIndex = sta...\n      JUMPDEST \t\t\t        uint256 rowIndex = sta...\n      PUSH 1\t\t\tt256 f\n      SLOAD \t\t\tt256 f\n      PUSH 0\t\t\to\n      SUB \t\t\tt256 fullRo\n      PUSH [tag] 444\t\t\t uint256 fullRow = statuses[i]...\n      JUMPI \t\t\t uint256 fullRow = statuses[i]...\n      PUSH 40\t\t\tses[i].statusRow;\n      MLOAD \t\t\tses[i].statusRow;\n      PUSH F68FE63\t\t\t\n      PUSH E2\t\t\t\n      SHL \t\t\t\n      DUP2 \t\t\tses[i].statusRow;\n      MSTORE \t\t\tses[i].statusRow;\n      PUSH 4\t\t\tses[i].statusRow;\n      ADD \t\t\tses[i].statusRow;\n      PUSH 40\t\t\tses[i].statusRow;\n      MLOAD \t\t\tses[i].statusRow;\n      DUP1 \t\t\tses[i].statusRow;\n      SWAP2 \t\t\tses[i].statusRow;\n      SUB \t\t\tses[i].statusRow;\n      SWAP1 \t\t\tses[i].statusRow;\n      REVERT \t\t\tses[i].statusRow;\n    tag 268\t\t\t\n      JUMPDEST \t\t\t\n      DUP1 \t\t\t\n      PUSH [tag] 449\t\t\ta packed array of booleans, 's\n      DUP2 \t\t\teans, '\n      PUSH [tag] 274\t\t\ta packed array of boo\n      JUMP \t\t\ta packed array of booleans, 's\n    tag 449\t\t\ta packed array of booleans, 's\n      JUMPDEST \t\t\ta packed array of booleans, 's\n      PUSH 5\t\t\t\n      SLOAD \t\t\t\n      PUSH 10000\t\t\t\n      SWAP1 \t\t\t\n      DIV \t\t\t\n      PUSH FF\t\t\t\n      AND \t\t\t\n      PUSH [tag] 451\t\t\t\n      JUMPI \t\t\t\n      PUSH 5\t\t\t\n      DUP1 \t\t\t\n      SLOAD \t\t\t\n      PUSH FF0000\t\t\t\n      NOT \t\t\t\n      AND \t\t\t\n      PUSH 10000\t\t\t\n      OR \t\t\t\n      SWAP1 \t\t\t\n      SSTORE \t\t\t\n    tag 451\t\t\t\n      JUMPDEST \t\t\t\n      PUSH 13\t\t\t\n      SLOAD \t\t\t\n      PUSH 1\t\t\t\n      PUSH A0\t\t\t\n      SHL \t\t\t\n      SWAP1 \t\t\t\n      DIV \t\t\t\n      PUSH FF\t\t\t\n      AND \t\t\t\n      ISZERO \t\t\t\n      PUSH [tag] 452\t\t\t\n      JUMPI \t\t\t\n      PUSH 60\t\t\t\n      DUP1 \t\t\t\n      PUSH 0\t\t\t\n      DUP1 \t\t\t\n      PUSH 0\t\t\t\n      DUP1 \t\t\t\n      DUP9 \t\t\t\n      DUP1 \t\t\t\n      PUSH 20\t\t\t\n      ADD \t\t\t\n      SWAP1 \t\t\t\n      MLOAD \t\t\t\n      DUP2 \t\t\t\n      ADD \t\t\t\n      SWAP1 \t\t\t\n      PUSH [tag] 453\t\t\t\n      SWAP2 \t\t\t\n      SWAP1 \t\t\t\n      PUSH [tag] 454\t\t\t\n      JUMP \t\t\t\n    tag 453\t\t\t\n      JUMPDEST \t\t\t\n      SWAP5 \t\t\t\n      SWAP11 \t\t\t\n      POP \t\t\t\n      SWAP3 \t\t\t\n      SWAP9 \t\t\t\n      POP \t\t\t\n      SWAP1 \t\t\t\n      SWAP7 \t\t\t\n      POP \t\t\t\n      SWAP5 \t\t\t\n      POP \t\t\t\n      SWAP3 \t\t\t\n      POP \t\t\t\n      SWAP1 \t\t\t\n      POP \t\t\t\n      PUSH 0\t\t\t\n      PUSH [tag] 455\t\t\t\n      DUP7 \t\t\t\n      DUP6 \t\t\t\n      PUSH [tag] 456\t\t\t\n      JUMP \t\t\t\n    tag 455\t\t\t\n      JUMPDEST \t\t\t\n      PUSH 13\t\t\t\n      SLOAD \t\t\t\n      PUSH 10\t\t\t\n      SLOAD \t\t\t\n      PUSH 40\t\t\t\n      MLOAD \t\t\t\n      PUSH 6EF2AA63\t\t\t\n      PUSH E1\t\t\t\n      SHL \t\t\t\n      DUP2 \t\t\t\n      MSTORE \t\t\t\n      SWAP3 \t\t\t\n      SWAP4 \t\t\t\n      POP \t\t\t\n      PUSH 0\t\t\t\n      SWAP3 \t\t\t\n      PUSH 1\t\t\t\n      PUSH 1\t\t\t\n      PUSH A0\t\t\t\n      SHL \t\t\t\n      SUB \t\t\t\n      SWAP3 \t\t\t\n      DUP4 \t\t\t\n      AND \t\t\t\n      SWAP3 \t\t\t\n      PUSH DDE554C6\t\t\t\n      SWAP3 \t\t\t\n      PUSH [tag] 457\t\t\t\n      SWAP3 \t\t\t\n      SWAP2 \t\t\t\n      AND \t\t\t\n      SWAP1 \t\t\t\n      DUP13 \t\t\t\n      SWAP1 \t\t\t\n      DUP12 \t\t\t\n      SWAP1 \t\t\t\n      DUP9 \t\t\t\n      SWAP1 \t\t\t\n      DUP12 \t\t\t\n      SWAP1 \t\t\t\n      DUP12 \t\t\t\n      SWAP1 \t\t\t\n      ADDRESS \t\t\t\n      SWAP1 \t\t\t\n      PUSH 4\t\t\t\n      ADD \t\t\t\n      PUSH [tag] 458\t\t\t\n      JUMP \t\t\t\n    tag 457\t\t\t\n      JUMPDEST \t\t\t\n      PUSH 20\t\t\t\n      PUSH 40\t\t\t\n      MLOAD \t\t\t\n      DUP1 \t\t\t\n      DUP4 \t\t\t\n      SUB \t\t\t\n      DUP2 \t\t\t\n      PUSH 0\t\t\t\n      DUP8 \t\t\t\n      GAS \t\t\t\n      CALL \t\t\t\n      ISZERO \t\t\t\n      DUP1 \t\t\t\n      ISZERO \t\t\t\n      PUSH [tag] 460\t\t\t\n      JUMPI \t\t\t\n      RETURNDATASIZE \t\t\t\n      PUSH 0\t\t\t\n      DUP1 \t\t\t\n      RETURNDATACOPY \t\t\t\n      RETURNDATASIZE \t\t\t\n      PUSH 0\t\t\t\n      REVERT \t\t\t\n    tag 460\t\t\t\n      JUMPDEST \t\t\t\n      POP \t\t\t\n      POP \t\t\t\n      POP \t\t\t\n      POP \t\t\t\n      PUSH 40\t\t\t\n      MLOAD \t\t\t\n      RETURNDATASIZE \t\t\t\n      PUSH 1F\t\t\t\n      NOT \t\t\t\n      PUSH 1F\t\t\t\n      DUP3 \t\t\t\n      ADD \t\t\t\n      AND \t\t\t\n      DUP3 \t\t\t\n      ADD \t\t\t\n      DUP1 \t\t\t\n      PUSH 40\t\t\t\n      MSTORE \t\t\t\n      POP \t\t\t\n      DUP2 \t\t\t\n      ADD \t\t\t\n      SWAP1 \t\t\t\n      PUSH [tag] 461\t\t\t\n      SWAP2 \t\t\t\n      SWAP1 \t\t\t\n      PUSH [tag] 462\t\t\t\n      JUMP \t\t\t\n    tag 461\t\t\t\n      JUMPDEST \t\t\t\n      PUSH 40\t\t\t\n      MLOAD \t\t\t\n      PUSH F\t\t\tt \n      DUP3 \t\t\tparam amount The amoun\n      SWAP1 \t\t\tparam amount The amoun\n      SIGNEXTEND \t\t\tparam amount The amoun\n      DUP2 \t\t\tecipient\\n    /// @param amoun...\n      MSTORE \t\t\tecipient\\n    /// @param amoun...\n      SWAP1 \t\t\t\n      SWAP2 \t\t\t\n      POP \t\t\t\n      PUSH 1\t\t\t\n      PUSH 1\t\t\t\n      PUSH A0\t\t\t\n      SHL \t\t\t\n      SUB \t\t\t\n      DUP12 \t\t\t\n      AND \t\t\t\n      SWAP1 \t\t\t\n      PUSH 3701B4F70EB2CD5C342B79A3D54FFE5872BB7DE314E3BA3EF6DE34ED8A873373\t\t\t\n      SWAP1 \t\t\t\n      PUSH 20\t\t\tdd\n      ADD \t\t\taram recipientAddr\n      PUSH 40\t\t\t\n      MLOAD \t\t\t\n      DUP1 \t\t\t\n      SWAP2 \t\t\t\n      SUB \t\t\t\n      SWAP1 \t\t\t\n      LOG2 \t\t\t\n      POP \t\t\t\n      POP \t\t\t\n      POP \t\t\t\n      POP \t\t\t\n      POP \t\t\t\n      POP \t\t\t\n      POP \t\t\t\n      POP \t\t\t\n      PUSH [tag] 465\t\t\t\n      JUMP \t\t\t\n    tag 452\t\t\t\n      JUMPDEST \t\t\t\n      PUSH 0\t\t\t\n      DUP4 \t\t\t\n      DUP1 \t\t\t\n      PUSH 20\t\t\t\n      ADD \t\t\t\n      SWAP1 \t\t\t\n      MLOAD \t\t\t\n      DUP2 \t\t\t\n      ADD \t\t\t\n      SWAP1 \t\t\t\n      PUSH [tag] 466\t\t\t\n      SWAP2 \t\t\t\n      SWAP1 \t\t\t\n      PUSH [tag] 467\t\t\t\n      JUMP \t\t\t\n    tag 466\t\t\t\n      JUMPDEST \t\t\t\n      DUP1 \t\t\t\n      MLOAD \t\t\t\n      SWAP1 \t\t\t\n      SWAP2 \t\t\t\n      POP \t\t\t\n      PUSH 0\t\t\t\n    tag 468\t\t\t\n      JUMPDEST \t\t\t\n      DUP2 \t\t\t\n      DUP2 \t\t\t\n      LT \t\t\t\n      ISZERO \t\t\t\n      PUSH [tag] 469\t\t\t\n      JUMPI \t\t\t\n      PUSH [tag] 471\t\t\t\n      DUP4 \t\t\t\n      DUP3 \t\t\t\n      DUP2 \t\t\t\n      MLOAD \t\t\t\n      DUP2 \t\t\t\n      LT \t\t\t\n      PUSH [tag] 473\t\t\t\n      JUMPI \t\t\t\n      PUSH [tag] 473\t\t\t\n      PUSH [tag] 321\t\t\t\n      JUMP \t\t\t\n    tag 473\t\t\t\n      JUMPDEST \t\t\t\n      PUSH 20\t\t\t\n      MUL \t\t\t\n      PUSH 20\t\t\t\n      ADD \t\t\t\n      ADD \t\t\t\n      MLOAD \t\t\t\n      PUSH [tag] 474\t\t\t\n      JUMP \t\t\t\n    tag 471\t\t\t\n      JUMPDEST \t\t\t\n      PUSH 1\t\t\t\n      ADD \t\t\t\n      PUSH [tag] 468\t\t\t\n      JUMP \t\t\t\n    tag 469\t\t\t\n      JUMPDEST \t\t\t\n      POP \t\t\t\n      PUSH 40\t\t\t\n      MLOAD \t\t\t\n      PUSH 1\t\t\t\n      PUSH 1\t\t\t\n      PUSH A0\t\t\t\n      SHL \t\t\t\n      SUB \t\t\t\n      DUP6 \t\t\t\n      AND \t\t\t\n      SWAP1 \t\t\t\n      PUSH 7EC3272052827F7B50D9E84F98172CBB80C112DF1E377C5B97EA77F1812DB8D9\t\t\t\n      SWAP1 \t\t\t\n      PUSH 0\t\t\t\n      SWAP1 \t\t\t\n      LOG2 \t\t\t\n      POP \t\t\t\n      POP \t\t\t\n    tag 465\t\t\t\n      JUMPDEST \t\t\t\n      POP \t\t\t\n      POP \t\t\t\n      POP \t\t\t\n      POP \t\t\t\n      JUMP \t\t\t\n    tag 274\t\t\tt recipient, the second 4 bits...\n      JUMPDEST \t\t\tt recipient, the second 4 bits...\n      PUSH 1\t\t\t     '\n      SLOAD \t\t\t     '\n      PUSH 40\t\t\tand so on.\\n    ///      'msg....\n      MLOAD \t\t\tand so on.\\n    ///      'msg....\n      PUSH 29E40D4B\t\t\t\n      PUSH E0\t\t\t\n      SHL \t\t\t\n      DUP2 \t\t\tand so on.\\n    ///      'msg....\n      MSTORE \t\t\tand so on.\\n    ///      'msg....\n      PUSH 4\t\t\tand so on.\\n    ///      'msg....\n      DUP2 \t\t\tand so on.\\n    ///      'msg....\n      ADD \t\t\tand so on.\\n    ///      'msg....\n      SWAP2 \t\t\t⠀⠀⠀⠀⠀⠀⠀⠀⠀⠀⠀⠀⠀⠀⠀⠀⠀⠀⠀⠀\\n// ⠀\n      SWAP1 \t\t\t⠀⠀⠀⠀⠀⠀⠀⠀⠀⠀⠀⠀⠀⠀⠀⠀⠀⠀⠀⠀\\n// ⠀\n      SWAP2 \t\t\t⠀⠀⠀⠀⠀⠀⠀⠀⠀⠀⠀⠀⠀⠀⠀⠀⠀⠀⠀⠀\\n// ⠀\n      MSTORE \t\t\t⠀⠀⠀⠀⠀⠀⠀⠀⠀⠀⠀⠀⠀⠀⠀⠀⠀⠀⠀⠀\\n// ⠀\n      PUSH 1\t\t\t\n      PUSH 1\t\t\t\n      PUSH A0\t\t\t\n      SHL \t\t\t\n      SUB \t\t\t\n      DUP3 \t\t\t⠀⠀⠀⠀⠀⠀⠀⢠⣿⣿⣿⡿⠀⠀⠸⣿⣿⣿⣧⠀⠀⠀⠀⠀⠀⠀⠀⢸⣿⣿...\n      DUP2 \t\t\t⠀⠀⠀⠀⠀⠀⠀⢠⣿⣿⣿⡿⠀⠀⠸⣿⣿⣿⣧⠀⠀⠀⠀⠀⠀⠀⠀⢸⣿⣿...\n      AND \t\t\t⠀⠀⠀⠀⠀⠀⠀⢠⣿⣿⣿⡿⠀⠀⠸⣿⣿⣿⣧⠀⠀⠀⠀⠀⠀⠀⠀⢸⣿⣿...\n      PUSH 24\t\t\t⣿⣿⣿⣿⣿⣿⣿⡆⠀⠀⠀⠀⠀⠀⠀⠀⠀⠀\n      DUP4 \t\t\t⣿⣿⣿⣿⣿⣿⣿⡆⠀⠀⠀⠀⠀⠀⠀⠀⠀⠀\n      ADD \t\t\t⣿⣿⣿⣿⣿⣿⣿⡆⠀⠀⠀⠀⠀⠀⠀⠀⠀⠀\n      MSTORE \t\t\t⣾⣿⣿⣿⣿⣾⠻⣿⣿⣿⣿⣿⣿⣿⡆⠀⠀⠀⠀⠀⠀⠀⠀⠀⠀⠀⠀⠀⠀⠀...\n      PUSHIMMUTABLE 2008\t\t\tand \n      AND \t\t\tand so on.\\n    ///\n      SWAP1 \t\t\tand so on.\\n    ///\n      PUSH 29E40D4B\t\t\tand so on.\\n    ///\n      SWAP1 \t\t\tand so on.\\n    ///\n      PUSH 44\t\t\t⣿⣷⡀⠀⠀⠀⠀⠀⠀⠀⠀⢸⣿⣿⣿⣗⠀⠀\n      ADD \t\t\t⣿⣷⡀⠀⠀⠀⠀⠀⠀⠀⠀⢸⣿⣿⣿⣗⠀⠀\n      PUSH 20\t\t\tand so on.\\n    ///      'msg....\n      PUSH 40\t\t\tand so on.\\n    ///      'msg....\n      MLOAD \t\t\tand so on.\\n    ///      'msg....\n      DUP1 \t\t\tand so on.\\n    ///      'msg....\n      DUP4 \t\t\tand so on.\\n    ///      'msg....\n      SUB \t\t\tand so on.\\n    ///      'msg....\n      DUP2 \t\t\tand so on.\\n    ///      'msg....\n      DUP7 \t\t\tand so on.\\n    ///      'msg....\n      GAS \t\t\tand so on.\\n    ///      'msg....\n      STATICCALL \t\t\tand so on.\\n    ///      'msg....\n      ISZERO \t\t\tand so on.\\n    ///      'msg....\n      DUP1 \t\t\tand so on.\\n    ///      'msg....\n      ISZERO \t\t\tand so on.\\n    ///      'msg....\n      PUSH [tag] 479\t\t\tand so on.\\n    ///      'msg....\n      JUMPI \t\t\tand so on.\\n    ///      'msg....\n      RETURNDATASIZE \t\t\tand so on.\\n    ///      'msg....\n      PUSH 0\t\t\tand so on.\\n    ///      'msg....\n      DUP1 \t\t\tand so on.\\n    ///      'msg....\n      RETURNDATACOPY \t\t\tand so on.\\n    ///      'msg....\n      RETURNDATASIZE \t\t\tand so on.\\n    ///      'msg....\n      PUSH 0\t\t\tand so on.\\n    ///      'msg....\n      REVERT \t\t\tand so on.\\n    ///      'msg....\n    tag 479\t\t\tand so on.\\n    ///      'msg....\n      JUMPDEST \t\t\tand so on.\\n    ///      'msg....\n      POP \t\t\tand so on.\\n    ///      'msg....\n      POP \t\t\tand so on.\\n    ///      'msg....\n      POP \t\t\tand so on.\\n    ///      'msg....\n      POP \t\t\tand so on.\\n    ///      'msg....\n      PUSH 40\t\t\tand so on.\\n    ///      'msg....\n      MLOAD \t\t\tand so on.\\n    ///      'msg....\n      RETURNDATASIZE \t\t\tand so on.\\n    ///      'msg....\n      PUSH 1F\t\t\tand so on.\\n    ///      'msg....\n      NOT \t\t\tand so on.\\n    ///      'msg....\n      PUSH 1F\t\t\tand so on.\\n    ///      'msg....\n      DUP3 \t\t\tand so on.\\n    ///      'msg....\n      ADD \t\t\tand so on.\\n    ///      'msg....\n      AND \t\t\tand so on.\\n    ///      'msg....\n      DUP3 \t\t\tand so on.\\n    ///      'msg....\n      ADD \t\t\tand so on.\\n    ///      'msg....\n      DUP1 \t\t\tand so on.\\n    ///      'msg....\n      PUSH 40\t\t\tand so on.\\n    ///      'msg....\n      MSTORE \t\t\tand so on.\\n    ///      'msg....\n      POP \t\t\tand so on.\\n    ///      'msg....\n      DUP2 \t\t\tand so on.\\n    ///      'msg....\n      ADD \t\t\tand so on.\\n    ///      'msg....\n      SWAP1 \t\t\tand so on.\\n    ///      'msg....\n      PUSH [tag] 480\t\t\tand so on.\\n    ///      'msg....\n      SWAP2 \t\t\tand so on.\\n    ///      'msg....\n      SWAP1 \t\t\tand so on.\\n    ///      'msg....\n      PUSH [tag] 481\t\t\tand so on.\\n    ///      'msg....\n      JUMP \t\t\tand so on.\\n    ///      'msg....\n    tag 480\t\t\tand so on.\\n    ///      'msg....\n      JUMPDEST \t\t\tand so on.\\n    ///      'msg....\n      PUSH [tag] 441\t\t\tent, and so on.\\n    ///      ...\n      JUMPI \t\t\tent, and so on.\\n    ///      ...\n      PUSH 40\t\t\t a pool manage\n      MLOAD \t\t\t a pool manage\n      PUSH 75FD2B1\t\t\t\n      PUSH E0\t\t\t\n      SHL \t\t\t\n      DUP2 \t\t\t a pool manage\n      MSTORE \t\t\t a pool manage\n      PUSH 4\t\t\t a pool manage\n      ADD \t\t\t a pool manage\n      PUSH 40\t\t\t a pool manage\n      MLOAD \t\t\t a pool manage\n      DUP1 \t\t\t a pool manage\n      SWAP2 \t\t\t a pool manage\n      SUB \t\t\t a pool manage\n      SWAP1 \t\t\t a pool manage\n      REVERT \t\t\t a pool manage\n    tag 277\t\t\tcollect(uint256 accountId, add...\n      JUMPDEST \t\t\tcollect(uint256 accountId, add...\n      DUP4 \t\t\terAddress(uint32 drive\n      PUSH 1\t\t\t\n      PUSH 1\t\t\t\n      PUSH 40\t\t\t\n      SHL \t\t\t\n      SUB \t\t\t\n      AND \t\t\t\\n    function driverAddress(u...\n      TIMESTAMP \t\t\t\\n    function d\n      GT \t\t\t\\n    function driverAddress(u...\n      DUP1 \t\t\t\\n    function driverAddress(u...\n      PUSH [tag] 484\t\t\t\\n    function driverAddress(u...\n      JUMPI \t\t\t\\n    function driverAddress(u...\n      POP \t\t\t\\n    function driverAddress(u...\n      DUP3 \t\t\tddress driverAddr);\\n\n      PUSH 1\t\t\t\n      PUSH 1\t\t\t\n      PUSH 40\t\t\t\n      SHL \t\t\t\n      SUB \t\t\t\n      AND \t\t\t external view returns (addres...\n      DUP5 \t\t\t external view returns\n      PUSH 1\t\t\t\n      PUSH 1\t\t\t\n      PUSH 40\t\t\t\n      SHL \t\t\t\n      SUB \t\t\t\n      AND \t\t\t external view returns (addres...\n      GT \t\t\t external view returns (addres...\n    tag 484\t\t\t\\n    function driverAddress(u...\n      JUMPDEST \t\t\t\\n    function driverAddress(u...\n      DUP1 \t\t\t\\n    function driverAddress(u...\n      PUSH [tag] 485\t\t\t\\n    function driverAddress(u...\n      JUMPI \t\t\t\\n    function driverAddress(u...\n      POP \t\t\t\\n    function driverAddress(u...\n      DUP2 \t\t\tuntId, AccountMetada\n      PUSH 1\t\t\t\n      PUSH 1\t\t\t\n      PUSH 40\t\t\t\n      SHL \t\t\t\n      SUB \t\t\t\n      AND \t\t\tountMetadata(uint256 accountId...\n      DUP5 \t\t\tountMetadata(uint256 a\n      PUSH 1\t\t\t\n      PUSH 1\t\t\t\n      PUSH 40\t\t\t\n      SHL \t\t\t\n      SUB \t\t\t\n      AND \t\t\tountMetadata(uint256 accountId...\n      GT \t\t\tountMetadata(uint256 accountId...\n    tag 485\t\t\t\\n    function driverAddress(u...\n      JUMPDEST \t\t\t\\n    function driverAddress(u...\n      DUP1 \t\t\t\\n    function driverAddress(u...\n      PUSH [tag] 486\t\t\t\\n    function driverAddress(u...\n      JUMPI \t\t\t\\n    function driverAddress(u...\n      POP \t\t\t\\n    function driverAddress(u...\n      DUP1 \t\t\t) external;\\n    fu\n      PUSH 1\t\t\t\n      PUSH 1\t\t\t\n      PUSH 40\t\t\t\n      SHL \t\t\t\n      SUB \t\t\t\n      AND \t\t\t memory accountMetadata) exter...\n      DUP3 \t\t\t memory accountMetad\n      PUSH 1\t\t\t\n      PUSH 1\t\t\t\n      PUSH 40\t\t\t\n      SHL \t\t\t\n      SUB \t\t\t\n      AND \t\t\t memory accountMetadata) exter...\n      GT \t\t\t memory accountMetadata) exter...\n    tag 486\t\t\t\\n    function driverAddress(u...\n      JUMPDEST \t\t\t\\n    function driverAddress(u...\n      DUP1 \t\t\t\\n    function driverAddress(u...\n      PUSH [tag] 487\t\t\t\\n    function driverAddress(u...\n      JUMPI \t\t\t\\n    function driverAddress(u...\n      POP \t\t\t\\n    function driverAddress(u...\n      DUP1 \t\t\tiver, address erc2\n      PUSH 1\t\t\t\n      PUSH 1\t\t\t\n      PUSH 40\t\t\t\n      SHL \t\t\t\n      SUB \t\t\t\n      AND \t\t\taccountId, uint256 receiver, a...\n      DUP4 \t\t\taccountId, uint256 r\n      PUSH 1\t\t\t\n      PUSH 1\t\t\t\n      PUSH 40\t\t\t\n      SHL \t\t\t\n      SUB \t\t\t\n      AND \t\t\taccountId, uint256 receiver, a...\n      GT \t\t\taccountId, uint256 receiver, a...\n    tag 487\t\t\t\\n    function driverAddress(u...\n      JUMPDEST \t\t\t\\n    function driverAddress(u...\n      ISZERO \t\t\treturns (uint32);\\n    functio...\n      PUSH [tag] 465\t\t\treturns (uint32);\\n    functio...\n      JUMPI \t\t\treturns (uint32);\\n    functio...\n      PUSH 40\t\t\tnction gr\n      MLOAD \t\t\tnction gr\n      PUSH 7FCCE2A9\t\t\t\n      PUSH E0\t\t\t\n      SHL \t\t\t\n      DUP2 \t\t\tnction gr\n      MSTORE \t\t\tnction gr\n      PUSH 4\t\t\tnction gr\n      ADD \t\t\tnction gr\n      PUSH 40\t\t\tnction gr\n      MLOAD \t\t\tnction gr\n      DUP1 \t\t\tnction gr\n      SWAP2 \t\t\tnction gr\n      SUB \t\t\tnction gr\n      SWAP1 \t\t\tnction gr\n      REVERT \t\t\tnction gr\n    tag 288\t\t\tles(uint256 accountId, address...\n      JUMPDEST \t\t\tles(uint256 accountId, address...\n      PUSH 0\t\t\taxCycles)\\n        e\n      PUSH [tag] 491\t\t\t uint256 mask = (1 << distribu\n      PUSH [tag] 312\t\t\t uint256 mask = (1 << distri\n      JUMP \t\t\t uint256 mask = (1 << distribu\n    tag 491\t\t\t uint256 mask = (1 << distribu\n      JUMPDEST \t\t\t uint256 mask = (1 << distribu\n      PUSH 0\t\t\treturns (uint128 receivedA\n      DUP1 \t\t\tunction receiveStreamsRe\n      PUSH 0\t\t\t56 accountId, address \n      PUSH [tag] 493\t\t\tt32 maxCycles)\\n        e\n      PUSH 40\t\t\t\n      MLOAD \t\t\t\n      DUP1 \t\t\t\n      PUSH 40\t\t\t\n      ADD \t\t\t\n      PUSH 40\t\t\t\n      MSTORE \t\t\t\n      DUP1 \t\t\t\n      PUSH 0\t\t\t\n      DUP2 \t\t\t\n      MSTORE \t\t\t\n      PUSH 20\t\t\t\n      ADD \t\t\t\n      PUSH 60\t\t\t\n      DUP2 \t\t\t\n      MSTORE \t\t\t\n      POP \t\t\t\n      SWAP1 \t\t\t\n      JUMP \t\t\t\n    tag 493\t\t\tt32 maxCycles)\\n        e\n      JUMPDEST \t\t\tt32 maxCycles)\\n        e\n      PUSH 5\t\t\t    function regi\n      SLOAD \t\t\t    function regi\n      PUSH FF\t\t\t    function regi\n      AND \t\t\t    function regi\n      ISZERO \t\t\tt);\\n    function registerDriv...\n      PUSH [tag] 495\t\t\tt);\\n    function registerDriv...\n      JUMPI \t\t\tt);\\n    function registerDriv...\n      DUP7 \t\t\tfunct\n      DUP1 \t\t\terId);\\n    function renounceA...\n      PUSH 20\t\t\terId);\\n    function renounceA...\n      ADD \t\t\terId);\\n    function renounceA...\n      SWAP1 \t\t\terId);\\n    function renounceA...\n      MLOAD \t\t\terId);\\n    function renounceA...\n      DUP2 \t\t\terId);\\n    function renounceA...\n      ADD \t\t\terId);\\n    function renounceA...\n      SWAP1 \t\t\terId);\\n    function renounceA...\n      PUSH [tag] 496\t\t\terId);\\n    function renounceA...\n      SWAP2 \t\t\terId);\\n    function renounceA...\n      SWAP1 \t\t\terId);\\n    function renounceA...\n      PUSH [tag] 497\t\t\terId);\\n    function renounceA...\n      JUMP \t\t\terId);\\n    function renounceA...\n    tag 496\t\t\terId);\\n    function renounceA...\n      JUMPDEST \t\t\terId);\\n    function renounceA...\n      SWAP2 \t\t\tss driverAddr) external return...\n      SWAP7 \t\t\tss driverAddr) external return...\n      POP \t\t\t\n      SWAP4 \t\t\tss driverAddr) external return...\n      POP \t\t\t\n      SWAP1 \t\t\tss driverAddr) external return...\n      POP \t\t\t\n      PUSH [tag] 498\t\t\td, SplitsReceiver[] memory rec...\n      DUP6 \t\t\tss driverAddr) external return...\n      DUP8 \t\t\teivers)\n      PUSH [tag] 499\t\t\td, SplitsReceive\n      JUMP \t\t\td, SplitsReceiver[] memory rec...\n    tag 498\t\t\td, SplitsReceiver[] memory rec...\n      JUMPDEST \t\t\td, SplitsReceiver[] memory rec...\n      PUSH [tag] 500\t\t\tountId, SplitsReceiver[] memor...\n      JUMPI \t\t\tountId, SplitsReceiver[] memor...\n      PUSH 40\t\t\ttreams(\\n      \n      MLOAD \t\t\ttreams(\\n      \n      PUSH 75FD2B1\t\t\t\n      PUSH E0\t\t\t\n      SHL \t\t\t\n      DUP2 \t\t\ttreams(\\n      \n      MSTORE \t\t\ttreams(\\n      \n      PUSH 4\t\t\ttreams(\\n      \n      ADD \t\t\ttreams(\\n      \n      PUSH 40\t\t\ttreams(\\n      \n      MLOAD \t\t\ttreams(\\n      \n      DUP1 \t\t\ttreams(\\n      \n      SWAP2 \t\t\ttreams(\\n      \n      SUB \t\t\ttreams(\\n      \n      SWAP1 \t\t\ttreams(\\n      \n      REVERT \t\t\ttreams(\\n      \n    tag 500\t\t\tountId, SplitsReceiver[] memor...\n      JUMPDEST \t\t\tountId, SplitsReceiver[] memor...\n      PUSH [tag] 507\t\t\tt);\\n    function registerDriv...\n      JUMP \t\t\tt);\\n    function registerDriv...\n    tag 495\t\t\tt);\\n    function registerDriv...\n      JUMPDEST \t\t\tt);\\n    function registerDriv...\n      DUP7 \t\t\t28 ba\n      DUP1 \t\t\t       int128 balanceDelta,\\n ...\n      PUSH 20\t\t\t       int128 balanceDelta,\\n ...\n      ADD \t\t\t       int128 balanceDelta,\\n ...\n      SWAP1 \t\t\t       int128 balanceDelta,\\n ...\n      MLOAD \t\t\t       int128 balanceDelta,\\n ...\n      DUP2 \t\t\t       int128 balanceDelta,\\n ...\n      ADD \t\t\t       int128 balanceDelta,\\n ...\n      SWAP1 \t\t\t       int128 balanceDelta,\\n ...\n      PUSH [tag] 502\t\t\t       int128 balanceDelta,\\n ...\n      SWAP2 \t\t\t       int128 balanceDelta,\\n ...\n      SWAP1 \t\t\t       int128 balanceDelta,\\n ...\n      PUSH [tag] 497\t\t\t       int128 balanceDelta,\\n ...\n      JUMP \t\t\t       int128 balanceDelta,\\n ...\n    tag 502\t\t\t       int128 balanceDelta,\\n ...\n      JUMPDEST \t\t\t       int128 balanceDelta,\\n ...\n      PUSH 1\t\t\t\n      PUSH 1\t\t\t\n      PUSH A0\t\t\t\n      SHL \t\t\t\n      SUB \t\t\t\n      DUP3 \t\t\tanceDelta);\\n    function spl\n      AND \t\t\tanceDelta);\\n    function spl\n      ISZERO \t\t\tanceDelta);\\n    function spl\n      ISZERO \t\t\tanceDelta);\\n    function spl\n      SWAP7 \t\t\tanceDelta);\\n    function spl\n      POP \t\t\t\n      SWAP2 \t\t\t       StreamReceiver[] memory...\n      SWAP5 \t\t\t       StreamReceiver[] memory...\n      POP \t\t\t\n      SWAP3 \t\t\t       StreamReceiver[] memory...\n      POP \t\t\t\n      SWAP1 \t\t\t       StreamReceiver[] memory...\n      POP \t\t\t\n      DUP4 \t\t\tanceDelta);\\n    function spl\n      PUSH [tag] 503\t\t\tn splitResult(uint256 accountI...\n      JUMPI \t\t\tn splitResult(uint256 accountI...\n      DUP6 \t\t\tceiver[\n      PUSH [tag] 504\t\t\tn splitResult(uint256 accountI...\n      JUMP \t\t\tn splitResult(uint256 accountI...\n    tag 503\t\t\tn splitResult(uint256 accountI...\n      JUMPDEST \t\t\tn splitResult(uint256 accountI...\n      DUP2 \t\t\tcountId, Split\n    tag 504\t\t\tn splitResult(uint256 accountI...\n      JUMPDEST \t\t\tn splitResult(uint256 accountI...\n      SWAP5 \t\t\t);\\n    function splitResult(u...\n      POP \t\t\t);\\n    function splitResult(u...\n      DUP4 \t\t\tAmt);\\n    function sp\n      DUP1 \t\t\tAmt);\\n    function splitsHash...\n      ISZERO \t\t\tAmt);\\n    function splitsHash...\n      PUSH [tag] 505\t\t\tAmt);\\n    function splitsHash...\n      JUMPI \t\t\tAmt);\\n    function splitsHash...\n      POP \t\t\tAmt);\\n    function splitsHash...\n      PUSH [tag] 506\t\t\tash(uint256 accountId) externa...\n      DUP6 \t\t\tntId) exter\n      DUP8 \t\t\tl view \n      PUSH [tag] 499\t\t\tash(uint256 acco\n      JUMP \t\t\tash(uint256 accountId) externa...\n    tag 506\t\t\tash(uint256 accountId) externa...\n      JUMPDEST \t\t\tash(uint256 accountId) externa...\n      ISZERO \t\t\tHash(uint256 accountId) extern...\n    tag 505\t\t\tAmt);\\n    function splitsHash...\n      JUMPDEST \t\t\tAmt);\\n    function splitsHash...\n      ISZERO \t\t\tplitAmt);\\n    function splits...\n      PUSH [tag] 507\t\t\tplitAmt);\\n    function splits...\n      JUMPI \t\t\tplitAmt);\\n    function splits...\n      PUSH 40\t\t\tash);\\n    func\n      MLOAD \t\t\tash);\\n    func\n      PUSH 75FD2B1\t\t\t\n      PUSH E0\t\t\t\n      SHL \t\t\t\n      DUP2 \t\t\tash);\\n    func\n      MSTORE \t\t\tash);\\n    func\n      PUSH 4\t\t\tash);\\n    func\n      ADD \t\t\tash);\\n    func\n      PUSH 40\t\t\tash);\\n    func\n      MLOAD \t\t\tash);\\n    func\n      DUP1 \t\t\tash);\\n    func\n      SWAP2 \t\t\tash);\\n    func\n      SUB \t\t\tash);\\n    func\n      SWAP1 \t\t\tash);\\n    func\n      REVERT \t\t\tash);\\n    func\n    tag 507\t\t\tplitAmt);\\n    function splits...\n      JUMPDEST \t\t\tplitAmt);\\n    function splits...\n      PUSH 5\t\t\t uint256 account\n      SLOAD \t\t\t uint256 account\n      PUSH 100\t\t\t uint256 account\n      SWAP1 \t\t\t uint256 account\n      DIV \t\t\t uint256 account\n      PUSH FF\t\t\t uint256 account\n      AND \t\t\t uint256 account\n      DUP1 \t\t\t uint256 accountId,\\n        a...\n      ISZERO \t\t\t uint256 accountId,\\n        a...\n      PUSH [tag] 509\t\t\t uint256 accountId,\\n        a...\n      JUMPI \t\t\t uint256 accountId,\\n        a...\n      POP \t\t\t\n      PUSH 20\t\t\t address erc20,\\n\n      DUP2 \t\t\t address erc20,\\n\n      ADD \t\t\t address erc20,\\n\n      MLOAD \t\t\t address erc20,\\n\n      MLOAD \t\t\t       address erc20,\\n       ...\n      ISZERO \t\t\t       address erc20,\\n       ...\n      DUP1 \t\t\t       address erc20,\\n       ...\n      PUSH [tag] 509\t\t\t       address erc20,\\n       ...\n      JUMPI \t\t\t       address erc20,\\n       ...\n      POP \t\t\t\n      DUP1 \t\t\tenderId,\\n        \n      MLOAD \t\t\tenderId,\\n        \n      ISZERO \t\t\tenderId,\\n        bytes\n    tag 509\t\t\t       address erc20,\\n       ...\n      JUMPDEST \t\t\t       address erc20,\\n       ...\n      ISZERO \t\t\t     uint256 accountId,\\n     ...\n      PUSH [tag] 510\t\t\t     uint256 accountId,\\n     ...\n      JUMPI \t\t\t     uint256 accountId,\\n     ...\n      PUSH 40\t\t\tStreamsHistory[] m\n      MLOAD \t\t\tStreamsHistory[] m\n      PUSH C19E07C5\t\t\t\n      PUSH E0\t\t\t\n      SHL \t\t\t\n      DUP2 \t\t\tStreamsHistory[] m\n      MSTORE \t\t\tStreamsHistory[] m\n      PUSH 4\t\t\tStreamsHistory[] m\n      ADD \t\t\tStreamsHistory[] m\n      PUSH 40\t\t\tStreamsHistory[] m\n      MLOAD \t\t\tStreamsHistory[] m\n      DUP1 \t\t\tStreamsHistory[] m\n      SWAP2 \t\t\tStreamsHistory[] m\n      SUB \t\t\tStreamsHistory[] m\n      SWAP1 \t\t\tStreamsHistory[] m\n      REVERT \t\t\tStreamsHistory[] m\n    tag 510\t\t\t     uint256 accountId,\\n     ...\n      JUMPDEST \t\t\t     uint256 accountId,\\n     ...\n      PUSH 1\t\t\t\n      PUSH 1\t\t\t\n      PUSH A0\t\t\t\n      SHL \t\t\t\n      SUB \t\t\t\n      DUP4 \t\t\t    uint256 accountId,\\n      ...\n      AND \t\t\t    uint256 accountId,\\n      ...\n      PUSH [tag] 511\t\t\t        uint256 accountId,\\n  ...\n      JUMPI \t\t\t        uint256 accountId,\\n  ...\n      PUSH 40\t\t\t uint256 senderId,\\n        b\n      MLOAD \t\t\t uint256 senderId,\\n        b\n      PUSH F4A513B9\t\t\t\n      PUSH E0\t\t\t\n      SHL \t\t\t\n      DUP2 \t\t\t uint256 senderId,\\n        b\n      MSTORE \t\t\t uint256 senderId,\\n        b\n      PUSH 1\t\t\t\n      PUSH 1\t\t\t\n      PUSH A0\t\t\t\n      SHL \t\t\t\n      SUB \t\t\t\n      DUP7 \t\t\t producing values on a queue. ...\n      AND \t\t\t producing values on a queue. ...\n      PUSH 4\t\t\t uint256 senderId,\\n        b\n      DUP3 \t\t\t uint256 senderId,\\n        b\n      ADD \t\t\t uint256 senderId,\\n        b\n      MSTORE \t\t\t  // consuming and producing v...\n      PUSH 24\t\t\te root is rebuilt \n      ADD \t\t\te root is rebuilt \n    tag 512\t\t\t uint256 senderId,\\n        b\n      JUMPDEST \t\t\t uint256 senderId,\\n        b\n      PUSH 40\t\t\t uint256 senderId,\\n        b\n      MLOAD \t\t\t uint256 senderId,\\n        b\n      DUP1 \t\t\t uint256 senderId,\\n        b\n      SWAP2 \t\t\t uint256 senderId,\\n        b\n      SUB \t\t\t uint256 senderId,\\n        b\n      SWAP1 \t\t\t uint256 senderId,\\n        b\n      REVERT \t\t\t uint256 senderId,\\n        b\n    tag 511\t\t\t        uint256 accountId,\\n  ...\n      JUMPDEST \t\t\t        uint256 accountId,\\n  ...\n      PUSH 1\t\t\t\n      PUSH 1\t\t\t\n      PUSH A0\t\t\t\n      SHL \t\t\t\n      SUB \t\t\t\n      DUP1 \t\t\tl view returns (uint128 \n      DUP7 \t\t\tl view returns (uint128 \n      AND \t\t\tl view returns (uint128 \n      PUSH 0\t\t\ty streamsHistory\\n    ) exte\n      SWAP1 \t\t\tl view returns (uint128 \n      DUP2 \t\t\tl view returns (uint128 \n      MSTORE \t\t\tl view returns (uint128 \n      PUSH F\t\t\tl view retu\n      PUSH 20\t\t\tl view returns (uint128 \n      SWAP1 \t\t\tl view returns (uint128 \n      DUP2 \t\t\tl view returns (uint128 \n      MSTORE \t\t\tl view returns (uint128 \n      PUSH 40\t\t\tl view returns (uint128 \n      SWAP1 \t\t\tl view returns (uint128 \n      SWAP2 \t\t\tl view returns (uint128 \n      KECCAK256 \t\t\tl view returns (uint128 \n      DUP1 \t\t\t, address erc20)\\n        exte...\n      SLOAD \t\t\t, address erc20)\\n        exte...\n      SWAP3 \t\t\t, address erc20)\\n        exte...\n      DUP7 \t\t\t, address erc20)\\n        exte...\n      AND \t\t\t, address erc20)\\n        exte...\n      PUSH 100\t\t\t, address erc20)\\n        exte...\n      MUL \t\t\t, address erc20)\\n        exte...\n      PUSH 100\t\t\t\n      PUSH 1\t\t\t\n      PUSH A8\t\t\t\n      SHL \t\t\t\n      SUB \t\t\t\n      NOT \t\t\t\n      SWAP1 \t\t\t, address erc20)\\n        exte...\n      SWAP4 \t\t\t, address erc20)\\n        exte...\n      AND \t\t\t, address erc20)\\n        exte...\n      SWAP3 \t\t\t, address erc20)\\n        exte...\n      SWAP1 \t\t\t, address erc20)\\n        exte...\n      SWAP3 \t\t\t, address erc20)\\n        exte...\n      OR \t\t\t, address erc20)\\n        exte...\n      DUP3 \t\t\t, address erc20)\\n        exte...\n      SSTORE \t\t\t, address erc20)\\n        exte...\n      DUP3 \t\t\treturns (bytes32 streamsHash,\n      MLOAD \t\t\treturns (bytes32 streamsHash,\n      PUSH 1\t\t\t, address erc20)\\n        e\n      DUP4 \t\t\treturns (bytes32 s\n      ADD \t\t\treturns (bytes32 s\n      SWAP1 \t\t\treturns (bytes32 streamsHash,\n      DUP2 \t\t\treturns (bytes32 streamsHash,\n      SSTORE \t\t\treturns (bytes32 streamsHash,\n      SWAP1 \t\t\treturns (bytes32 streamsHash,\n      DUP4 \t\t\treturns (bytes32 streamsHash,\n      ADD \t\t\treturns (bytes32 streamsHash,\n      MLOAD \t\t\treturns (bytes32 streamsHash,\n      DUP4 \t\t\tamsHash,\n      SWAP2 \t\t\tamsHash,\n      SWAP1 \t\t\treturns (bytes32 s\n      PUSH 2\t\t\treturns (bytes32 streamsHash,\n      DUP5 \t\t\treturns (bytes32 streamsHash,\n      ADD \t\t\treturns (bytes32 streamsHash,\n      SWAP1 \t\t\treturns (bytes32 streamsHash,\n      PUSH [tag] 513\t\t\treturns (bytes32 streamsHash,\n      SWAP1 \t\t\treturns (bytes32 streamsHash,\n      DUP3 \t\t\treturns (bytes32 streamsHash,\n      PUSH [tag] 352\t\t\treturns (bytes32 streamsHash,\n      JUMP \t\t\treturns (bytes32 streamsHash,\n    tag 513\t\t\treturns (bytes32 streamsHash,\n      JUMPDEST \t\t\treturns (bytes32 streamsHash,\n      POP \t\t\t\n      POP \t\t\t\n      PUSH 5\t\t\tteTime, uint128 b\n      SLOAD \t\t\tteTime, uint128 b\n      PUSH FF\t\t\tteTime, uint128 b\n      AND \t\t\tteTime, uint128 b\n      SWAP1 \t\t\tteTime, uint128 b\n      POP \t\t\t\n      PUSH [tag] 514\t\t\tteTime, uint128 balance, uint3...\n      JUMPI \t\t\tteTime, uint128 balance, uint3...\n      DUP5 \t\t\tnt32 maxEnd);\\n    fun\n      PUSH [tag] 515\t\t\tteTime, uint128 balance, uint3...\n      JUMP \t\t\tteTime, uint128 balance, uint3...\n    tag 514\t\t\tteTime, uint128 balance, uint3...\n      JUMPDEST \t\t\tteTime, uint128 balance, uint3...\n      PUSH 1\t\t\tnce,\n    tag 515\t\t\tteTime, uint128 balance, uint3...\n      JUMPDEST \t\t\tteTime, uint128 balance, uint3...\n      DUP2 \t\t\ttreamsHistoryHash, uint32 upda...\n      SLOAD \t\t\ttreamsHistoryHash, uint32 upda...\n      PUSH FF\t\t\t\n      NOT \t\t\t\n      AND \t\t\ttreamsHistoryHash, uint32 upda...\n      SWAP1 \t\t\ttreamsHistoryHash, uint32 upda...\n      ISZERO \t\t\ttreamsHistoryHash, uint32 upda...\n      ISZERO \t\t\ttreamsHistoryHash, uint32 upda...\n      OR \t\t\ttreamsHistoryHash, uint32 upda...\n      DUP2 \t\t\ttreamsHistoryHash, uint32 upda...\n      SSTORE \t\t\ttreamsHistoryHash, uint32 upda...\n      PUSH 0\t\t\t\n      PUSH [tag] 516\t\t\tction updateDriverAddress(uint...\n      DUP8 \t\t\ts(uint32 dr\n      PUSH [tag] 517\t\t\tction updateDriverAddre\n      JUMP \t\t\tction updateDriverAddress(uint...\n    tag 516\t\t\tction updateDriverAddress(uint...\n      JUMPDEST \t\t\tction updateDriverAddress(uint...\n      SWAP1 \t\t\tse() external;\\n    function u...\n      POP \t\t\t\n      PUSH FF\t\t\tnewDriverAddr) external;\\n    ...\n      DUP2 \t\t\tnewDriverAddr) external;\\n    ...\n      AND \t\t\tnewDriverAddr) external;\\n    ...\n      PUSH [tag] 521\t\t\tess newDriverAddr) external;\\n...\n      JUMPI \t\t\tess newDriverAddr) external;\\n...\n      PUSH 8\t\t\ttes memory data) \n      SLOAD \t\t\ttes memory data) \n      PUSH 1\t\t\t\n      PUSH 1\t\t\t\n      PUSH A0\t\t\t\n      SHL \t\t\t\n      SUB \t\t\t\n      DUP9 \t\t\teToAndCall(address newImplemen...\n      AND \t\t\teToAndCall(address newImplemen...\n      PUSH 0\t\t\teToAndCall(address newImplemen...\n      SWAP1 \t\t\teToAndCall(address newImplemen...\n      DUP2 \t\t\teToAndCall(address newImplemen...\n      MSTORE \t\t\teToAndCall(address newImplemen...\n      PUSH C\t\t\teToAndCall(address newIm\n      PUSH 20\t\t\teToAndCall(address newImplemen...\n      MSTORE \t\t\teToAndCall(address newImplemen...\n      PUSH 40\t\t\teToAndCall(address newImplemen...\n      SWAP1 \t\t\teToAndCall(address newImplemen...\n      KECCAK256 \t\t\teToAndCall(address newImplemen...\n      SSTORE \t\t\teToAndCall(address newImplemen...\n      PUSH [tag] 522\t\t\tle;\\n    function withdraw(add...\n      DUP8 \t\t\tlementation\n      PUSH 1\t\t\t, address rece\n    tag 524\t\t\t erc20, address recei\n      JUMPDEST \t\t\t erc20, address recei\n      PUSH FF\t\t\tle;\\n    function withdraw(add...\n      AND \t\t\tle;\\n    function withdraw(add...\n      PUSH [tag] 525\t\t\tle;\\n    function wi\n      JUMP \t\t\tle;\\n    function withdraw(add...\n    tag 522\t\t\tle;\\n    function withdraw(add...\n      JUMPDEST \t\t\tle;\\n    function withdraw(add...\n      PUSH 0\t\t\t) external;\\n}\\n\\n// OpenZep\n      DUP10 \t\t\ts (la\n      PUSH 8\t\t\t updated v4.9.0) \n      SLOAD \t\t\t updated v4.9.0) \n      PUSH 40\t\t\tin Contracts (last updated v4....\n      MLOAD \t\t\tin Contracts (last updated v4....\n      PUSH 20\t\t\tin Contracts (last updated v4....\n      ADD \t\t\tin Contracts (last updated v4....\n      PUSH [tag] 526\t\t\tin Contracts (last updated v4....\n      SWAP3 \t\t\tin Contracts (last updated v4....\n      SWAP2 \t\t\tin Contracts (last updated v4....\n      SWAP1 \t\t\tin Contracts (last updated v4....\n      PUSH [tag] 527\t\t\tin Contracts (last updated v4....\n      JUMP \t\t\tin Contracts (last updated v4....\n    tag 526\t\t\tin Contracts (last updated v4....\n      JUMPDEST \t\t\tin Contracts (last updated v4....\n      PUSH 40\t\t\tin Contracts (last updated v4....\n      MLOAD \t\t\tin Contracts (last updated v4....\n      PUSH 20\t\t\tin Contracts (last updated v4....\n      DUP2 \t\t\tin Contracts (last updated v4....\n      DUP4 \t\t\tin Contracts (last updated v4....\n      SUB \t\t\tin Contracts (last updated v4....\n      SUB \t\t\tin Contracts (last updated v4....\n      DUP2 \t\t\tin Contracts (last updated v4....\n      MSTORE \t\t\tin Contracts (last updated v4....\n      SWAP1 \t\t\tin Contracts (last updated v4....\n      PUSH 40\t\t\tin Contracts (last updated v4....\n      MSTORE \t\t\tin Contracts (last updated v4....\n      SWAP1 \t\t\t) external;\\n}\\n\\n// OpenZeppe...\n      POP \t\t\t) external;\\n}\\n\\n// OpenZeppe...\n      DUP8 \t\t\t* @dev Inte\n      PUSH 1\t\t\t\n      PUSH 1\t\t\t\n      PUSH A0\t\t\t\n      SHL \t\t\t\n      SUB \t\t\t\n      AND \t\t\tsol)\\n\\n/**\\n * @dev Interface...\n      PUSH A197306E3DD5494A61A695381AA809A53B8E377A685E84E404A85D5A8DA6CC62\t\t\tsol)\\n\\n/**\\n * @dev Interface...\n      DUP3 \t\t\tace of the E\n      DUP12 \t\t\t20 stan\n      PUSH 40\t\t\tsol)\\n\\n/**\\n * @dev Interface...\n      MLOAD \t\t\tsol)\\n\\n/**\\n * @dev Interface...\n      PUSH [tag] 528\t\t\tsol)\\n\\n/**\\n * @dev Interface...\n      SWAP3 \t\t\tsol)\\n\\n/**\\n * @dev Interface...\n      SWAP2 \t\t\tsol)\\n\\n/**\\n * @dev Interface...\n      SWAP1 \t\t\tsol)\\n\\n/**\\n * @dev Interface...\n      PUSH [tag] 529\t\t\tsol)\\n\\n/**\\n * @dev Interface...\n      JUMP \t\t\tsol)\\n\\n/**\\n * @dev Interface...\n    tag 528\t\t\tsol)\\n\\n/**\\n * @dev Interface...\n      JUMPDEST \t\t\tsol)\\n\\n/**\\n * @dev Interface...\n      PUSH 40\t\t\tsol)\\n\\n/**\\n * @dev Interface...\n      MLOAD \t\t\tsol)\\n\\n/**\\n * @dev Interface...\n      DUP1 \t\t\tsol)\\n\\n/**\\n * @dev Interface...\n      SWAP2 \t\t\tsol)\\n\\n/**\\n * @dev Interface...\n      SUB \t\t\tsol)\\n\\n/**\\n * @dev Interface...\n      SWAP1 \t\t\tsol)\\n\\n/**\\n * @dev Interface...\n      LOG2 \t\t\tsol)\\n\\n/**\\n * @dev Interface...\n      PUSH 8\t\t\tin the EIP.\\n */\\ni\n      DUP1 \t\t\tin the EIP.\\n */\\nint\n      SLOAD \t\t\tin the EIP.\\n */\\nint\n      SWAP1 \t\t\tin the EIP.\\n */\\nint\n      PUSH 0\t\t\tin the EIP.\\n */\\ni\n      PUSH [tag] 530\t\t\tin the EIP.\\n */\\nint\n      DUP4 \t\t\tin the EIP.\\n */\\nint\n      PUSH [tag] 531\t\t\tin the EIP.\\n */\\nint\n      JUMP \t\t\tin the EIP.\\n */\\nint\n    tag 530\t\t\tin the EIP.\\n */\\nint\n      JUMPDEST \t\t\tin the EIP.\\n */\\nint\n      SWAP2 \t\t\tin the EIP.\\n */\\nint\n      SWAP1 \t\t\tin the EIP.\\n */\\nint\n      POP \t\t\tin the EIP.\\n */\\nint\n      SSTORE \t\t\tin the EIP.\\n */\\nint\n      POP \t\t\tin the EIP.\\n */\\nint\n      POP \t\t\t upgradeTo(address newImplemen...\n      PUSH [tag] 532\t\t\tess newDriverAddr) external;\\n...\n      JUMP \t\t\tess newDriverAddr) external;\\n...\n    tag 521\t\t\tess newDriverAddr) external;\\n...\n      JUMPDEST \t\t\tess newDriverAddr) external;\\n...\n      PUSH 1\t\t\t\n      NOT \t\t\t\n      PUSH FF\t\t\t Emitted when `value` tokens a...\n      DUP3 \t\t\t Emitted when `value` tokens a...\n      AND \t\t\t Emitted when `value` tokens a...\n      ADD \t\t\t Emitted when `value` tokens a...\n      PUSH [tag] 535\t\t\t@dev Emitted when `value` toke...\n      JUMPI \t\t\t@dev Emitted when `value` toke...\n      PUSH [tag] 536\t\t\tlue` may be zero.\\n     */\\n  ...\n      DUP8 \t\t\t   */\\n    e\n      PUSH 1\t\t\tnsfer(address \n      PUSH [tag] 524\t\t\tnt Transfer(address i\n      JUMP \t\t\tnt Transfer(address i\n    tag 536\t\t\tlue` may be zero.\\n     */\\n  ...\n      JUMPDEST \t\t\tlue` may be zero.\\n     */\\n  ...\n      PUSH [tag] 543\t\t\t@dev Emitted when `value` toke...\n      JUMP \t\t\t@dev Emitted when `value` toke...\n    tag 535\t\t\t@dev Emitted when `value` toke...\n      JUMPDEST \t\t\t@dev Emitted when `value` toke...\n      PUSH 2\t\t\t\n      NOT \t\t\t\n      PUSH FF\t\t\ted to, uint256 value);\\n\\n    ...\n      DUP3 \t\t\ted to, uint256 value);\\n\\n    ...\n      AND \t\t\ted to, uint256 value);\\n\\n    ...\n      ADD \t\t\ted to, uint256 value);\\n\\n    ...\n      PUSH [tag] 543\t\t\tndexed to, uint256 value);\\n\\n...\n      JUMPI \t\t\tndexed to, uint256 value);\\n\\n...\n      PUSH [tag] 543\t\t\ta call to {approve}. `value` i...\n      DUP8 \t\t\t `value` is\n      PUSH 4\t\t\t allowance.\\n   \n      PUSH [tag] 524\t\t\the new allowance.\\n    \n      JUMP \t\t\the new allowance.\\n    \n    tag 543\t\t\ta call to {approve}. `value` i...\n      JUMPDEST \t\t\ta call to {approve}. `value` i...\n      DUP7 \t\t\tindexed spe\n      PUSH 1\t\t\t\n      PUSH 1\t\t\t\n      PUSH A0\t\t\t\n      SHL \t\t\t\n      SUB \t\t\t\n      AND \t\t\texed owner, address indexed sp...\n      PUSH CEC1DA3F7F0B8A344DD1025D06E2DDD48B14880395997AD97CBDB439ACC761D4\t\t\texed owner, address indexed sp...\n      DUP11 \t\t\ter, u\n      DUP11 \t\t\tt256 va\n      PUSH [tag] 546\t\t\te);\\n\\n    /**\\n     * @dev Re...\n      DUP12 \t\t\t Returns th\n      PUSH [tag] 517\t\t\te);\\n\\n    /**\\n     * @de\n      JUMP \t\t\te);\\n\\n    /**\\n     * @dev Re...\n    tag 546\t\t\te);\\n\\n    /**\\n     * @dev Re...\n      JUMPDEST \t\t\te);\\n\\n    /**\\n     * @dev Re...\n      PUSH 40\t\t\texed owner, address indexed sp...\n      MLOAD \t\t\texed owner, address indexed sp...\n      PUSH [tag] 547\t\t\texed owner, address indexed sp...\n      SWAP4 \t\t\texed owner, address indexed sp...\n      SWAP3 \t\t\texed owner, address indexed sp...\n      SWAP2 \t\t\texed owner, address indexed sp...\n      SWAP1 \t\t\texed owner, address indexed sp...\n      PUSH [tag] 548\t\t\texed owner, address indexed sp...\n      JUMP \t\t\texed owner, address indexed sp...\n    tag 547\t\t\texed owner, address indexed sp...\n      JUMPDEST \t\t\texed owner, address indexed sp...\n      PUSH 40\t\t\texed owner, address indexed sp...\n      MLOAD \t\t\texed owner, address indexed sp...\n      DUP1 \t\t\texed owner, address indexed sp...\n      SWAP2 \t\t\texed owner, address indexed sp...\n      SUB \t\t\texed owner, address indexed sp...\n      SWAP1 \t\t\texed owner, address indexed sp...\n      LOG2 \t\t\texed owner, address indexed sp...\n    tag 532\t\t\tess newDriverAddr) external;\\n...\n      JUMPDEST \t\t\tess newDriverAddr) external;\\n...\n      POP \t\t\tl\\n        returns (uint128 re...\n      POP \t\t\tl\\n        returns (uint128 re...\n      POP \t\t\tl\\n        returns (uint128 re...\n      POP \t\t\tl\\n        returns (uint128 re...\n      POP \t\t\tl\\n        returns (uint128 re...\n      POP \t\t\tl\\n        returns (uint128 re...\n      SWAP3 \t\t\tles(uint256 accountId, address...\n      SWAP2 \t\t\tles(uint256 accountId, address...\n      POP \t\t\tles(uint256 accountId, address...\n      POP \t\t\tles(uint256 accountId, address...\n      JUMP \t\t\tles(uint256 accountId, address...\n    tag 307\t\t\tive, 'false' means inactive\\n ...\n      JUMPDEST \t\t\tive, 'false' means inactive\\n ...\n      PUSH EEEEEEEEEEEEEEEEEEEEEEEEEEEEEEEEEEEEEEED\t\t\t\n      NOT \t\t\t\n      PUSH 1\t\t\t\n      PUSH 1\t\t\t\n      PUSH A0\t\t\t\n      SHL \t\t\t\n      SUB \t\t\t\n      DUP5 \t\t\tctive = _active;\n      AND \t\t\tctive = _active;\n      ADD \t\t\tctive = _active;\n      PUSH [tag] 551\t\t\toolActive = _active;\\n        ...\n      JUMPI \t\t\toolActive = _active;\\n        ...\n      PUSH [tag] 267\t\t\tolActive(_active);\\n    }\\n\\n ...\n      DUP3 \t\t\t/ @\n      DUP3 \t\t\ttice Ch\n      PUSH [tag] 553\t\t\tolActive(_active);\\n    }\\n\\n ...\n      JUMP \t\t\tolActive(_active);\\n    }\\n\\n ...\n    tag 551\t\t\toolActive = _active;\\n        ...\n      JUMPDEST \t\t\toolActive = _active;\\n        ...\n      PUSH [tag] 267\t\t\t/// @dev Used by the strategy ...\n      DUP4 \t\t\t imple\n      DUP4 \t\t\tnta\n      DUP4 \t\t\ton.\\n   \n      PUSH [tag] 556\t\t\t/// @dev Used by the strateg\n      JUMP \t\t\t/// @dev Used by the strategy ...\n    tag 312\t\t\tversHash);\\n    event Squeezed...\n      JUMPDEST \t\t\tversHash);\\n    event Squeezed...\n      PUSH 5\t\t\ttId,\\n        address \n      SLOAD \t\t\ttId,\\n        address \n      TIMESTAMP \t\t\texed erc20,\\n   \n      PUSH 1000000\t\t\ttId,\\n        address \n      SWAP1 \t\t\ttId,\\n        address \n      SWAP2 \t\t\ttId,\\n        address \n      DIV \t\t\ttId,\\n        address \n      PUSH 1\t\t\t\n      PUSH 1\t\t\t\n      PUSH 40\t\t\t\n      SHL \t\t\t\n      SUB \t\t\t\n      AND \t\t\ttId,\\n        address \n      GT \t\t\ttId,\\n        address indexed ...\n      DUP1 \t\t\ttId,\\n        address indexed ...\n      PUSH [tag] 558\t\t\ttId,\\n        address indexed ...\n      JUMPI \t\t\ttId,\\n        address indexed ...\n      POP \t\t\t\n      PUSH 5\t\t\tenderId,\\n        ui\n      SLOAD \t\t\tenderId,\\n        ui\n      PUSH 1\t\t\t\n      PUSH 58\t\t\t\n      SHL \t\t\t\n      SWAP1 \t\t\tenderId,\\n        ui\n      DIV \t\t\tenderId,\\n        ui\n      PUSH 1\t\t\t\n      PUSH 1\t\t\t\n      PUSH 40\t\t\t\n      SHL \t\t\t\n      SUB \t\t\t\n      AND \t\t\tenderId,\\n        ui\n      TIMESTAMP \t\t\t uint256 indexe\n      GT \t\t\t uint256 indexed senderId,\\n  ...\n    tag 558\t\t\ttId,\\n        address indexed ...\n      JUMPDEST \t\t\ttId,\\n        address indexed ...\n      ISZERO \t\t\tcountId,\\n        address inde...\n      PUSH [tag] 444\t\t\tcountId,\\n        address inde...\n      JUMPI \t\t\tcountId,\\n        address inde...\n      PUSH 40\t\t\ts32[] streamsHistoryHashe\n      MLOAD \t\t\ts32[] streamsHistoryHashe\n      PUSH 5B04F6AD\t\t\t\n      PUSH E1\t\t\t\n      SHL \t\t\t\n      DUP2 \t\t\ts32[] streamsHistoryHashe\n      MSTORE \t\t\ts32[] streamsHistoryHashe\n      PUSH 4\t\t\ts32[] streamsHistoryHashe\n      ADD \t\t\ts32[] streamsHistoryHashe\n      PUSH 40\t\t\ts32[] streamsHistoryHashe\n      MLOAD \t\t\ts32[] streamsHistoryHashe\n      DUP1 \t\t\ts32[] streamsHistoryHashe\n      SWAP2 \t\t\ts32[] streamsHistoryHashe\n      SUB \t\t\ts32[] streamsHistoryHashe\n      SWAP1 \t\t\ts32[] streamsHistoryHashe\n      REVERT \t\t\ts32[] streamsHistoryHashe\n    tag 338\t\t\tracts start from a `StreamConf...\n      JUMPDEST \t\t\tracts start from a `StreamConf...\n      PUSH 0\t\t\tnfig\n      DUP1 \t\t\tnfig\n      PUSH [tag] 562\t\t\tSec (160 bit\n      PUSH 100\t\t\tbit\n      DUP5 \t\t\tSec (1\n      PUSH [tag] 563\t\t\tSec (160 bit\n      JUMP \t\t\tSec (160 bit\n    tag 562\t\t\tSec (160 bit\n      JUMPDEST \t\t\tSec (160 bit\n      SWAP1 \t\t\t// `streamId (32 bits) | amtPe...\n      POP \t\t\t\n      PUSH 0\t\t\tzeros (32 bits) | streamId \n      PUSH [tag] 564\t\t\t bits) | amt\n      PUSH 100\t\t\tamt\n      DUP6 \t\t\t bits)\n      PUSH [tag] 565\t\t\t bits) | amt\n      JUMP \t\t\t bits) | amt\n    tag 564\t\t\t bits) | amt\n      JUMPDEST \t\t\t bits) | amt\n      PUSH 0\t\t\t2 bits)`\\n        return\n      SWAP3 \t\t\tnt32(StreamConfig.unwrap(confi...\n      DUP4 \t\t\tnt32(StreamConfig.unwrap(confi...\n      MSTORE \t\t\tnt32(StreamConfig.unwrap(confi...\n      PUSH D\t\t\tnt32(StreamConfig.\n      PUSH 20\t\t\tnt32(StreamConfig.unwrap(confi...\n      MSTORE \t\t\tnt32(StreamConfig.unwrap(confi...\n      PUSH 40\t\t\tnt32(StreamConfig.unwrap(confi...\n      SWAP1 \t\t\tnt32(StreamConfig.unwrap(confi...\n      SWAP3 \t\t\tnt32(StreamConfig.unwrap(confi...\n      KECCAK256 \t\t\tnt32(StreamConfig.unwrap(confi...\n      SLOAD \t\t\tnt32(StreamConfig.unwrap(confi...\n      PUSH 1\t\t\t \n      SWAP1 \t\t\t internal pure returns (\n      SWAP3 \t\t\t internal pure returns (\n      SHL \t\t\t internal pure returns (\n      SWAP2 \t\t\t32 bits) | duration (3\n      DUP3 \t\t\t32 bits) | duration (3\n      AND \t\t\t32 bits) | duration (3\n      SWAP1 \t\t\t32 bits) | duration (32 bits)`\n      SWAP2 \t\t\t32 bits) | duration (32 bits)`\n      EQ \t\t\t32 bits) | duration (32 bits)`\n      SWAP4 \t\t\t32 bits) | duration (32 bits)`\n      SWAP3 \t\t\tracts start from a `StreamConf...\n      POP \t\t\t\n      POP \t\t\t\n      POP \t\t\t\n      JUMP \t\t\tracts start from a `StreamConf...\n    tag 343\t\t\t   /// It must have additional...\n      JUMPDEST \t\t\t   /// It must have additional...\n      PUSH [tag] 566\t\t\t\\n    /// decimal\n      PUSH [tag] 340\t\t\t\\n    /// decimal\n      JUMP \t\t\t\\n    /// decimal\n    tag 566\t\t\t\\n    /// decimal\n      JUMPDEST \t\t\t\\n    /// decimal\n      PUSH 1\t\t\t\n      PUSH 1\t\t\t\n      PUSH A0\t\t\t\n      SHL \t\t\t\n      SUB \t\t\t\n      DUP1 \t\t\ttions.\\n    /// To achieve\n      DUP4 \t\t\ttions.\\n    /// To achieve\n      AND \t\t\ttions.\\n    /// To achieve\n      PUSH 0\t\t\ttions.\\n    /// To achieve\n      SWAP1 \t\t\ttions.\\n    /// To achieve\n      DUP2 \t\t\ttions.\\n    /// To achieve\n      MSTORE \t\t\ttions.\\n    /// To achieve\n      PUSH F\t\t\ttions.\\n    \n      PUSH 20\t\t\ttions.\\n    /// To achieve\n      SWAP1 \t\t\ttions.\\n    /// To achieve\n      DUP2 \t\t\ttions.\\n    /// To achieve\n      MSTORE \t\t\ttions.\\n    /// To achieve\n      PUSH 40\t\t\ttions.\\n    /// To achieve\n      SWAP2 \t\t\ttions.\\n    /// To achieve\n      DUP3 \t\t\ttions.\\n    /// To achieve\n      SWAP1 \t\t\ttions.\\n    /// To achieve\n      KECCAK256 \t\t\ttions.\\n    /// To achieve\n      DUP3 \t\t\tve fractions.\\n    /// To achi...\n      MLOAD \t\t\tve fractions.\\n    /// To achi...\n      PUSH 60\t\t\tve fractions.\\n    /// To achi...\n      DUP2 \t\t\tve fractions.\\n    /// To achi...\n      ADD \t\t\tve fractions.\\n    /// To achi...\n      DUP5 \t\t\tve fractions.\\n    /// To achi...\n      MSTORE \t\t\tve fractions.\\n    /// To achi...\n      DUP2 \t\t\tve fractions.\\n    /// To achi...\n      SLOAD \t\t\tve fractions.\\n    /// To achi...\n      PUSH FF\t\t\tve fractions.\\n    /// To achi...\n      DUP2 \t\t\tve fractions.\\n    /// To achi...\n      AND \t\t\tve fractions.\\n    /// To achi...\n      ISZERO \t\t\tve fractions.\\n    /// To achi...\n      ISZERO \t\t\tve fractions.\\n    /// To achi...\n      DUP3 \t\t\tve fractions.\\n    /// To achi...\n      MSTORE \t\t\tve fractions.\\n    /// To achi...\n      PUSH 100\t\t\tve fractions.\\n    /// To achi...\n      SWAP1 \t\t\tve fractions.\\n    /// To achi...\n      DIV \t\t\tve fractions.\\n    /// To achi...\n      SWAP1 \t\t\tve fractions.\\n    /// To achi...\n      SWAP5 \t\t\tve fractions.\\n    /// To achi...\n      AND \t\t\tve fractions.\\n    /// To achi...\n      DUP5 \t\t\tve fractions.\\n    /// To achi...\n      DUP4 \t\t\tve fractions.\\n    /// To achi...\n      ADD \t\t\tve fractions.\\n    /// To achi...\n      MSTORE \t\t\tve fractions.\\n    /// To achi...\n      DUP3 \t\t\tve fractions.\\n    /// To achi...\n      MLOAD \t\t\tve fractions.\\n    /// To achi...\n      DUP1 \t\t\tve fractions.\\n    /// To achi...\n      DUP5 \t\t\tve fractions.\\n    /// To achi...\n      ADD \t\t\tve fractions.\\n    /// To achi...\n      DUP5 \t\t\tve fractions.\\n    /// To achi...\n      MSTORE \t\t\tve fractions.\\n    /// To achi...\n      PUSH 1\t\t\tve fractions.\\n    /// To achi...\n      DUP3 \t\t\tve fractions.\\n    /// To achi...\n      ADD \t\t\tve fractions.\\n    /// To achi...\n      DUP1 \t\t\tve fractions.\\n    /// To achi...\n      SLOAD \t\t\tve fractions.\\n    /// To achi...\n      DUP3 \t\t\tve fractions.\\n    /// To achi...\n      MSTORE \t\t\tve fractions.\\n    /// To achi...\n      PUSH 2\t\t\tve fractions.\\n    /// To achi...\n      DUP4 \t\t\tve fractions.\\n    /// To achi...\n      ADD \t\t\tve fractions.\\n    /// To achi...\n      DUP1 \t\t\tve fractions.\\n    /// To achi...\n      SLOAD \t\t\tve fractions.\\n    /// To achi...\n      SWAP4 \t\t\ttions.\\n    /// To achieve\n      SWAP6 \t\t\ttions.\\n    /// To achieve\n      DUP8 \t\t\tve fractions.\\n    /// To achi...\n      ADD \t\t\tve fractions.\\n    /// To achi...\n      SWAP5 \t\t\tve fractions.\\n    /// To achi...\n      SWAP3 \t\t\tve fractions.\\n    /// To achi...\n      SWAP4 \t\t\tve fractions.\\n    /// To achi...\n      SWAP2 \t\t\tve fractions.\\n    /// To achi...\n      SWAP3 \t\t\tve fractions.\\n    /// To achi...\n      DUP5 \t\t\tve fractions.\\n    /// To achi...\n      ADD \t\t\tve fractions.\\n    /// To achi...\n      SWAP2 \t\t\tve fractions.\\n    /// To achi...\n      PUSH [tag] 568\t\t\tve fractions.\\n    /// To achi...\n      SWAP1 \t\t\tve fractions.\\n    /// To achi...\n      PUSH [tag] 331\t\t\tve fractions.\\n    /// To achi...\n      JUMP \t\t\tve fractions.\\n    /// To achi...\n    tag 568\t\t\tve fractions.\\n    /// To achi...\n      JUMPDEST \t\t\tve fractions.\\n    /// To achi...\n      DUP1 \t\t\tve fractions.\\n    /// To achi...\n      PUSH 1F\t\t\tve fractions.\\n    /// To achi...\n      ADD \t\t\tve fractions.\\n    /// To achi...\n      PUSH 20\t\t\tve fractions.\\n    /// To achi...\n      DUP1 \t\t\tve fractions.\\n    /// To achi...\n      SWAP2 \t\t\tve fractions.\\n    /// To achi...\n      DIV \t\t\tve fractions.\\n    /// To achi...\n      MUL \t\t\tve fractions.\\n    /// To achi...\n      PUSH 20\t\t\tve fractions.\\n    /// To achi...\n      ADD \t\t\tve fractions.\\n    /// To achi...\n      PUSH 40\t\t\tve fractions.\\n    /// To achi...\n      MLOAD \t\t\tve fractions.\\n    /// To achi...\n      SWAP1 \t\t\tve fractions.\\n    /// To achi...\n      DUP2 \t\t\tve fractions.\\n    /// To achi...\n      ADD \t\t\tve fractions.\\n    /// To achi...\n      PUSH 40\t\t\tve fractions.\\n    /// To achi...\n      MSTORE \t\t\tve fractions.\\n    /// To achi...\n      DUP1 \t\t\tve fractions.\\n    /// To achi...\n      SWAP3 \t\t\tve fractions.\\n    /// To achi...\n      SWAP2 \t\t\tve fractions.\\n    /// To achi...\n      SWAP1 \t\t\tve fractions.\\n    /// To achi...\n      DUP2 \t\t\tve fractions.\\n    /// To achi...\n      DUP2 \t\t\tve fractions.\\n    /// To achi...\n      MSTORE \t\t\tve fractions.\\n    /// To achi...\n      PUSH 20\t\t\tve fractions.\\n    /// To achi...\n      ADD \t\t\tve fractions.\\n    /// To achi...\n      DUP3 \t\t\tve fractions.\\n    /// To achi...\n      DUP1 \t\t\tve fractions.\\n    /// To achi...\n      SLOAD \t\t\tve fractions.\\n    /// To achi...\n      PUSH [tag] 569\t\t\tve fractions.\\n    /// To achi...\n      SWAP1 \t\t\tve fractions.\\n    /// To achi...\n      PUSH [tag] 331\t\t\tve fractions.\\n    /// To achi...\n      JUMP \t\t\tve fractions.\\n    /// To achi...\n    tag 569\t\t\tve fractions.\\n    /// To achi...\n      JUMPDEST \t\t\tve fractions.\\n    /// To achi...\n      DUP1 \t\t\tve fractions.\\n    /// To achi...\n      ISZERO \t\t\tve fractions.\\n    /// To achi...\n      PUSH [tag] 570\t\t\tve fractions.\\n    /// To achi...\n      JUMPI \t\t\tve fractions.\\n    /// To achi...\n      DUP1 \t\t\tve fractions.\\n    /// To achi...\n      PUSH 1F\t\t\tve fractions.\\n    /// To achi...\n      LT \t\t\tve fractions.\\n    /// To achi...\n      PUSH [tag] 571\t\t\tve fractions.\\n    /// To achi...\n      JUMPI \t\t\tve fractions.\\n    /// To achi...\n      PUSH 100\t\t\tve fractions.\\n    /// To achi...\n      DUP1 \t\t\tve fractions.\\n    /// To achi...\n      DUP4 \t\t\tve fractions.\\n    /// To achi...\n      SLOAD \t\t\tve fractions.\\n    /// To achi...\n      DIV \t\t\tve fractions.\\n    /// To achi...\n      MUL \t\t\tve fractions.\\n    /// To achi...\n      DUP4 \t\t\tve fractions.\\n    /// To achi...\n      MSTORE \t\t\tve fractions.\\n    /// To achi...\n      SWAP2 \t\t\tve fractions.\\n    /// To achi...\n      PUSH 20\t\t\tve fractions.\\n    /// To achi...\n      ADD \t\t\tve fractions.\\n    /// To achi...\n      SWAP2 \t\t\tve fractions.\\n    /// To achi...\n      PUSH [tag] 570\t\t\tve fractions.\\n    /// To achi...\n      JUMP \t\t\tve fractions.\\n    /// To achi...\n    tag 571\t\t\tve fractions.\\n    /// To achi...\n      JUMPDEST \t\t\tve fractions.\\n    /// To achi...\n      DUP3 \t\t\tve fractions.\\n    /// To achi...\n      ADD \t\t\tve fractions.\\n    /// To achi...\n      SWAP2 \t\t\tve fractions.\\n    /// To achi...\n      SWAP1 \t\t\tve fractions.\\n    /// To achi...\n      PUSH 0\t\t\tve fractions.\\n    /// To achi...\n      MSTORE \t\t\tve fractions.\\n    /// To achi...\n      PUSH 20\t\t\tve fractions.\\n    /// To achi...\n      PUSH 0\t\t\tve fractions.\\n    /// To achi...\n      KECCAK256 \t\t\tve fractions.\\n    /// To achi...\n      SWAP1 \t\t\tve fractions.\\n    /// To achi...\n    tag 572\t\t\tve fractions.\\n    /// To achi...\n      JUMPDEST \t\t\tve fractions.\\n    /// To achi...\n      DUP2 \t\t\tve fractions.\\n    /// To achi...\n      SLOAD \t\t\tve fractions.\\n    /// To achi...\n      DUP2 \t\t\tve fractions.\\n    /// To achi...\n      MSTORE \t\t\tve fractions.\\n    /// To achi...\n      SWAP1 \t\t\tve fractions.\\n    /// To achi...\n      PUSH 1\t\t\tve fractions.\\n    /// To achi...\n      ADD \t\t\tve fractions.\\n    /// To achi...\n      SWAP1 \t\t\tve fractions.\\n    /// To achi...\n      PUSH 20\t\t\tve fractions.\\n    /// To achi...\n      ADD \t\t\tve fractions.\\n    /// To achi...\n      DUP1 \t\t\tve fractions.\\n    /// To achi...\n      DUP4 \t\t\tve fractions.\\n    /// To achi...\n      GT \t\t\tve fractions.\\n    /// To achi...\n      PUSH [tag] 572\t\t\tve fractions.\\n    /// To achi...\n      JUMPI \t\t\tve fractions.\\n    /// To achi...\n      DUP3 \t\t\tve fractions.\\n    /// To achi...\n      SWAP1 \t\t\tve fractions.\\n    /// To achi...\n      SUB \t\t\tve fractions.\\n    /// To achi...\n      PUSH 1F\t\t\tve fractions.\\n    /// To achi...\n      AND \t\t\tve fractions.\\n    /// To achi...\n      DUP3 \t\t\tve fractions.\\n    /// To achi...\n      ADD \t\t\tve fractions.\\n    /// To achi...\n      SWAP2 \t\t\tve fractions.\\n    /// To achi...\n    tag 570\t\t\tve fractions.\\n    /// To achi...\n      JUMPDEST \t\t\tve fractions.\\n    /// To achi...\n      POP \t\t\t\n      POP \t\t\t\n      POP \t\t\t\n      SWAP2 \t\t\tve fractions.\\n    /// To achi...\n      SWAP1 \t\t\tve fractions.\\n    /// To achi...\n      SWAP3 \t\t\tve fractions.\\n    /// To achi...\n      MSTORE \t\t\tve fractions.\\n    /// To achi...\n      POP \t\t\t\n      POP \t\t\t\n      POP \t\t\t\n      SWAP1 \t\t\tve fractions.\\n    /// To achi...\n      MSTORE \t\t\tve fractions.\\n    /// To achi...\n      POP \t\t\t\n      SWAP3 \t\t\tve fractions.\\n    /// To achi...\n      SWAP2 \t\t\t   /// It must have additional...\n      POP \t\t\t\n      POP \t\t\t\n      JUMP \t\t\t   /// It must have additional...\n    tag 346\t\t\ta {\\n        bytes32 key;\\n   ...\n      JUMPDEST \t\t\ta {\\n        bytes32 key;\\n   ...\n      PUSH 6\t\t\t      uint256 acc\n      SLOAD \t\t\t      uint256 acc\n      PUSH 1\t\t\t\n      PUSH 1\t\t\t\n      PUSH 40\t\t\t\n      SHL \t\t\t\n      SUB \t\t\t\n      AND \t\t\t      uint256 acc\n      TIMESTAMP \t\t\tplitsReceiver {\n      LT \t\t\tplitsReceiver {\\n        uint2...\n      ISZERO \t\t\tct SplitsReceiver {\\n        u...\n      PUSH [tag] 444\t\t\tct SplitsReceiver {\\n        u...\n      JUMPI \t\t\tct SplitsReceiver {\\n        u...\n      PUSH 40\t\t\tweight;\\n    }\\n\\n    str\n      MLOAD \t\t\tweight;\\n    }\\n\\n    str\n      PUSH 4543CED1\t\t\t\n      PUSH E1\t\t\t\n      SHL \t\t\t\n      DUP2 \t\t\tweight;\\n    }\\n\\n    str\n      MSTORE \t\t\tweight;\\n    }\\n\\n    str\n      PUSH 4\t\t\tweight;\\n    }\\n\\n    str\n      ADD \t\t\tweight;\\n    }\\n\\n    str\n      PUSH 40\t\t\tweight;\\n    }\\n\\n    str\n      MLOAD \t\t\tweight;\\n    }\\n\\n    str\n      DUP1 \t\t\tweight;\\n    }\\n\\n    str\n      SWAP2 \t\t\tweight;\\n    }\\n\\n    str\n      SUB \t\t\tweight;\\n    }\\n\\n    str\n      SWAP1 \t\t\tweight;\\n    }\\n\\n    str\n      REVERT \t\t\tweight;\\n    }\\n\\n    str\n    tag 369\t\t\tfunction functionDelegateCall(...\n      JUMPDEST \t\t\tfunction functionDelegateCall(...\n      PUSH 60\t\t\tbytes memory\n      PUSH [tag] 287\t\t\tfunctionDelegateCall(target, d...\n      DUP4 \t\t\ttarget\n      DUP4 \t\t\tdata\n      PUSH 40\t\t\tfunctionDelegateCall(target, d...\n      MLOAD \t\t\tfunctionDelegateCall(target, d...\n      DUP1 \t\t\tfunctionDelegateCall(target, d...\n      PUSH 60\t\t\tfunctionDelegateCall(target, d...\n      ADD \t\t\tfunctionDelegateCall(target, d...\n      PUSH 40\t\t\tfunctionDelegateCall(target, d...\n      MSTORE \t\t\tfunctionDelegateCall(target, d...\n      DUP1 \t\t\tfunctionDelegateCall(target, d...\n      PUSH 27\t\t\tfunctionDelegateCall(target, d...\n      DUP2 \t\t\tfunctionDelegateCall(target, d...\n      MSTORE \t\t\tfunctionDelegateCall(target, d...\n      PUSH 20\t\t\tfunctionDelegateCall(target, d...\n      ADD \t\t\tfunctionDelegateCall(target, d...\n      PUSH data 9FDCD12E4B726339B32A442B0A448365D5D85C96B2D2CFF917B4F66C63110398\t\t\tfunctionDelegateCall(target, d...\n      PUSH 27\t\t\tfunctionDelegateCall(target, d...\n      SWAP2 \t\t\tfunctionDelegateCall(target, d...\n      CODECOPY \t\t\tfunctionDelegateCall(target, d...\n      PUSH [tag] 577\t\t\tfunctionDelegateCall\n      JUMP \t\t\tfunctionDelegateCall(target, d...\n    tag 388\t\t\t /// @param duration_ The dura...\n      JUMPDEST \t\t\t /// @param duration_ The dura...\n      PUSH 40\t\t\t\n      DUP1 \t\t\t\n      MLOAD \t\t\t\n      DUP1 \t\t\t\n      DUP3 \t\t\t\n      ADD \t\t\t\n      SWAP1 \t\t\t\n      SWAP2 \t\t\t\n      MSTORE \t\t\t\n      PUSH 0\t\t\t\n      DUP1 \t\t\t\n      DUP3 \t\t\t\n      MSTORE \t\t\t\n      PUSH 20\t\t\t\n      DUP3 \t\t\t\n      ADD \t\t\t\n      MSTORE \t\t\t\n      PUSH 0\t\t\tint32 duration_)\\n        inte...\n      DUP3 \t\t\t\\n    \n      DUP1 \t\t\t       pure\\n        returns (...\n      PUSH 20\t\t\t       pure\\n        returns (...\n      ADD \t\t\t       pure\\n        returns (...\n      SWAP1 \t\t\t       pure\\n        returns (...\n      MLOAD \t\t\t       pure\\n        returns (...\n      DUP2 \t\t\t       pure\\n        returns (...\n      ADD \t\t\t       pure\\n        returns (...\n      SWAP1 \t\t\t       pure\\n        returns (...\n      PUSH [tag] 580\t\t\t       pure\\n        returns (...\n      SWAP2 \t\t\t       pure\\n        returns (...\n      SWAP1 \t\t\t       pure\\n        returns (...\n      PUSH [tag] 581\t\t\t       pure\\n        returns (...\n      JUMP \t\t\t       pure\\n        returns (...\n    tag 580\t\t\t       pure\\n        returns (...\n      JUMPDEST \t\t\t       pure\\n        returns (...\n      DUP1 \t\t\t {\\n        // By a\n      MLOAD \t\t\t {\\n        // By a\n      PUSH 20\t\t\t\\n        // `zeros (224 \n      DUP3 \t\t\t\\n        // `zeros (224 \n      ADD \t\t\t\\n        // `zeros (224 \n      MLOAD \t\t\t\\n        // `zeros (224 \n      PUSH 40\t\t\t\\n        uint256 co\n      DUP4 \t\t\t\\n        uint256 co\n      ADD \t\t\t\\n        uint256 co\n      MLOAD \t\t\t\\n        uint256 co\n      PUSH 60\t\t\ting we get `config` valu\n      DUP5 \t\t\ting we get `config` valu\n      ADD \t\t\ting we get `config` valu\n      MLOAD \t\t\ting we get `config` valu\n      SWAP4 \t\t\tint32 duration_)\\n        inte...\n      SWAP5 \t\t\tint32 duration_)\\n        inte...\n      POP \t\t\t\n      SWAP2 \t\t\t {\\n        // By a\n      SWAP3 \t\t\t {\\n        // By a\n      SWAP1 \t\t\t\\n        // `zeros (224 \n      SWAP2 \t\t\t\\n        // `zeros (224 \n      SWAP1 \t\t\t\\n        uint256 co\n      PUSH 0\t\t\ttreamConfig)\\n\n      PUSH [tag] 582\t\t\tmId (32 bits) | zeros (160\n      DUP5 \t\t\t\\n        // `zeros (224 \n      PUSH [tag] 343\t\t\tmId (32 bits)\n      JUMP \t\t\tmId (32 bits) | zeros (160\n    tag 582\t\t\tmId (32 bits) | zeros (160\n      JUMPDEST \t\t\tmId (32 bits) | zeros (160\n      PUSH 20\t\t\tmId (32 bits) | zeros (160 bit...\n      ADD \t\t\tmId (32 bits) | zeros (160 bit...\n      MLOAD \t\t\tmId (32 bits) | zeros (160 bit...\n      SWAP1 \t\t\t// `zeros (64 bits) | streamId...\n      POP \t\t\t// `zeros (64 bits) | streamId...\n      PUSH [tag] 583\t\t\tzeros (64 bits) | streamId (32...\n      DUP6 \t\t\tamId \n      DUP6 \t\t\t2 bits) | a\n      DUP4 \t\t\tPerSec (160 bits\n      DUP7 \t\t\t\\n     \n      DUP7 \t\t\t config = (\n      PUSH [tag] 584\t\t\tzeros (64 bits) | str\n      JUMP \t\t\tzeros (64 bits) | streamId (32...\n    tag 583\t\t\tzeros (64 bits) | streamId (32...\n      JUMPDEST \t\t\tzeros (64 bits) | streamId (32...\n      ISZERO \t\t\t// `zeros (64 bits) | streamId...\n      PUSH [tag] 585\t\t\t// `zeros (64 bits) | streamId...\n      JUMPI \t\t\t// `zeros (64 bits) | streamId...\n      PUSH 40\t\t\t) | streamId (32 bits) | amtPe...\n      MLOAD \t\t\t) | streamId (32 bits) | amtPe...\n      DUP1 \t\t\t) | streamId (32 bits) | amtPe...\n      PUSH 40\t\t\t) | streamId (32 bits) | amtPe...\n      ADD \t\t\t) | streamId (32 bits) | amtPe...\n      PUSH 40\t\t\t) | streamId (32 bits) | amtPe...\n      MSTORE \t\t\t) | streamId (32 bits) | amtPe...\n      DUP1 \t\t\t) | streamId (32 bits) | amtPe...\n      DUP3 \t\t\t32 bits) | amtPe\n      PUSH 1\t\t\t\n      PUSH 1\t\t\t\n      PUSH A0\t\t\t\n      SHL \t\t\t\n      SUB \t\t\t\n      AND \t\t\t) | streamId (32 bits) | amtPe...\n      DUP2 \t\t\t) | streamId (32 bits) | amtPe...\n      MSTORE \t\t\t) | streamId (32 bits) | amtPe...\n      PUSH 20\t\t\t) | streamId (32 bits) | amtPe...\n      ADD \t\t\t) | streamId (32 bits) | amtPe...\n      DUP5 \t\t\tec (16\n      DUP2 \t\t\t) | streamId (32 bits) | amtPe...\n      MSTORE \t\t\t) | streamId (32 bits) | amtPe...\n      POP \t\t\t) | streamId (32 bits) | amtPe...\n      SWAP7 \t\t\t32 bits) | streamId (32 bits) ...\n      POP \t\t\t32 bits) | streamId (32 bits) ...\n      POP \t\t\t32 bits) | streamId (32 bits) ...\n      POP \t\t\t32 bits) | streamId (32 bits) ...\n      POP \t\t\t32 bits) | streamId (32 bits) ...\n      POP \t\t\t32 bits) | streamId (32 bits) ...\n      POP \t\t\t32 bits) | streamId (32 bits) ...\n      POP \t\t\t32 bits) | streamId (32 bits) ...\n      PUSH [tag] 289\t\t\t32 bits) | streamId (32 bits) ...\n      JUMP \t\t\t32 bits) | streamId (32 bits) ...\n    tag 585\t\t\t// `zeros (64 bits) | streamId...\n      JUMPDEST \t\t\t// `zeros (64 bits) | streamId...\n      PUSH 40\t\t\t amtPerSec (160 bits) | start ...\n      DUP1 \t\t\t amtPerSec (160 bits) | start ...\n      MLOAD \t\t\t amtPerSec (160 bits) | start ...\n      DUP1 \t\t\t amtPerSec (160 bits) | start ...\n      DUP3 \t\t\t amtPerSec (160 bits) | start ...\n      ADD \t\t\t amtPerSec (160 bits) | start ...\n      SWAP1 \t\t\t amtPerSec (160 bits) | start ...\n      SWAP2 \t\t\t amtPerSec (160 bits) | start ...\n      MSTORE \t\t\t amtPerSec (160 bits) | start ...\n      PUSH 1\t\t\t\n      PUSH 1\t\t\t\n      PUSH A0\t\t\t\n      SHL \t\t\t\n      SUB \t\t\t\n      SWAP1 \t\t\t amtPerSec (160 bits) | start ...\n      SWAP2 \t\t\t amtPerSec (160 bits) | start ...\n      AND \t\t\t amtPerSec (160 bits) | start ...\n      DUP2 \t\t\t amtPerSec (160 bits) | start ...\n      MSTORE \t\t\t amtPerSec (160 bits) | start ...\n      PUSH 0\t\t\t\n      PUSH 20\t\t\t amtPerSec (160 bits) | start ...\n      DUP3 \t\t\t amtPerSec (160 bits) | start ...\n      ADD \t\t\t amtPerSec (160 bits) | start ...\n      MSTORE \t\t\t amtPerSec (160 bits) | start ...\n      SWAP9 \t\t\t amtPerSec (160 bits) | start ...\n      SWAP8 \t\t\t /// @param duration_ The dura...\n      POP \t\t\t\n      POP \t\t\t\n      POP \t\t\t\n      POP \t\t\t\n      POP \t\t\t\n      POP \t\t\t\n      POP \t\t\t\n      POP \t\t\t\n      JUMP \t\t\t /// @param duration_ The dura...\n    tag 406\t\t\tsHash, uint32 updateTime, uint...\n      JUMPDEST \t\t\tsHash, uint32 updateTime, uint...\n      PUSH 5\t\t\t  returns (bytes32 st\n      SLOAD \t\t\t  returns (bytes32 st\n      PUSH 0\t\t\t\\n   \n      SWAP1 \t\t\t\\n   \n      TIMESTAMP \t\t\tsHistoryHash);\\n\n      PUSH 1000000\t\t\t  returns (bytes32 st\n      SWAP1 \t\t\t  returns (bytes32 st\n      SWAP2 \t\t\t  returns (bytes32 st\n      DIV \t\t\t  returns (bytes32 st\n      PUSH 1\t\t\t\n      PUSH 1\t\t\t\n      PUSH 40\t\t\t\n      SHL \t\t\t\n      SUB \t\t\t\n      AND \t\t\t  returns (bytes32 st\n      GT \t\t\t  returns (bytes32 streamsHist...\n      DUP1 \t\t\t  returns (bytes32 streamsHist...\n      ISZERO \t\t\t  returns (bytes32 streamsHist...\n      SWAP1 \t\t\t  returns (bytes32 streamsHist...\n      PUSH [tag] 587\t\t\t  returns (bytes32 streamsHist...\n      JUMPI \t\t\t  returns (bytes32 streamsHist...\n      POP \t\t\t\n      PUSH 5\t\t\ttion() external vie\n      SLOAD \t\t\ttion() external vie\n      PUSH 1\t\t\t\n      PUSH 58\t\t\t\n      SHL \t\t\t\n      SWAP1 \t\t\ttion() external vie\n      DIV \t\t\ttion() external vie\n      PUSH 1\t\t\t\n      PUSH 1\t\t\t\n      PUSH 40\t\t\t\n      SHL \t\t\t\n      SUB \t\t\t\n      AND \t\t\ttion() external vie\n      TIMESTAMP \t\t\tfunction implem\n      GT \t\t\tfunction implementation() exte...\n      ISZERO \t\t\tfunction implementation() exte...\n    tag 587\t\t\t  returns (bytes32 streamsHist...\n      JUMPDEST \t\t\t  returns (bytes32 streamsHist...\n      ISZERO \t\t\t      returns (bytes32 streams...\n      PUSH [tag] 588\t\t\t      returns (bytes32 streams...\n      JUMPI \t\t\t      returns (bytes32 streams...\n      POP \t\t\t\n      PUSH 1\t\t\t  fu\n      SWAP1 \t\t\t  fu\n      JUMP \t\t\tsHash, uint32 updateTime, uint...\n    tag 588\t\t\t      returns (bytes32 streams...\n      JUMPDEST \t\t\t      returns (bytes32 streams...\n      POP \t\t\t\n      PUSH 0\t\t\tview \n      SWAP1 \t\t\tview \n      JUMP \t\t\tsHash, uint32 updateTime, uint...\n    tag 409\t\t\ts indexed beacon);\\n    event ...\n      JUMPDEST \t\t\ts indexed beacon);\\n    event ...\n      PUSH 0\t\t\t index\n      PUSH [tag] 590\t\t\tused(address indexed pauser);\\...\n      DUP3 \t\t\tser);\\n    ev\n      PUSH [tag] 517\t\t\tused(address indexed pa\n      JUMP \t\t\tused(address indexed pauser);\\...\n    tag 590\t\t\tused(address indexed pauser);\\...\n      JUMPDEST \t\t\tused(address indexed pauser);\\...\n      PUSH FF\t\t\tvent Paused(address indexed pa...\n      AND \t\t\tvent Paused(address indexed pa...\n      PUSH 6\t\t\tvent Paused(address indexed pa...\n      DUP2 \t\t\tvent Paused(address indexed pa...\n      GT \t\t\tvent Paused(address indexed pa...\n      ISZERO \t\t\tvent Paused(address indexed pa...\n      PUSH [tag] 289\t\t\tvent Paused(address indexed pa...\n      JUMPI \t\t\tvent Paused(address indexed pa...\n      PUSH [tag] 289\t\t\tvent Paused(address indexed pa...\n      PUSH [tag] 520\t\t\tvent Paused(address indexed pa...\n      JUMP \t\t\tvent Paused(address indexed pa...\n    tag 416\t\t\t\n      JUMPDEST \t\t\t\n      PUSH 40\t\t\t\n      MLOAD \t\t\t\n      PUSH 68BCD8D\t\t\t\n      PUSH E0\t\t\t\n      SHL \t\t\t\n      DUP2 \t\t\t\n      MSTORE \t\t\t\n      PUSH 4\t\t\t\n      DUP2 \t\t\t\n      ADD \t\t\t\n      DUP4 \t\t\tther than keccak256 for h\n      SWAP1 \t\t\tther than keccak256 for h\n      MSTORE \t\t\tther than keccak256 for h\n      PUSH 0\t\t\t\n      SWAP1 \t\t\t\n      PUSHIMMUTABLE 2008\t\t\t\n      PUSH 1\t\t\t\n      PUSH 1\t\t\t\n      PUSH A0\t\t\t\n      SHL \t\t\t\n      SUB \t\t\t\n      AND \t\t\t\n      SWAP1 \t\t\t\n      PUSH 68BCD8D\t\t\t\n      SWAP1 \t\t\t\n      PUSH 24\t\t\tg, or use a hash f\n      ADD \t\t\tg, or use a hash f\n      PUSH 0\t\t\t\n      PUSH 40\t\t\t\n      MLOAD \t\t\t\n      DUP1 \t\t\t\n      DUP4 \t\t\t\n      SUB \t\t\t\n      DUP2 \t\t\t\n      DUP7 \t\t\t\n      GAS \t\t\t\n      STATICCALL \t\t\t\n      ISZERO \t\t\t\n      DUP1 \t\t\t\n      ISZERO \t\t\t\n      PUSH [tag] 596\t\t\t\n      JUMPI \t\t\t\n      RETURNDATASIZE \t\t\t\n      PUSH 0\t\t\t\n      DUP1 \t\t\t\n      RETURNDATACOPY \t\t\t\n      RETURNDATASIZE \t\t\t\n      PUSH 0\t\t\t\n      REVERT \t\t\t\n    tag 596\t\t\t\n      JUMPDEST \t\t\t\n      POP \t\t\t\n      POP \t\t\t\n      POP \t\t\t\n      POP \t\t\t\n      PUSH 40\t\t\t\n      MLOAD \t\t\t\n      RETURNDATASIZE \t\t\t\n      PUSH 0\t\t\t\n      DUP3 \t\t\t\n      RETURNDATACOPY \t\t\t\n      PUSH 1F\t\t\t\n      RETURNDATASIZE \t\t\t\n      SWAP1 \t\t\t\n      DUP2 \t\t\t\n      ADD \t\t\t\n      PUSH 1F\t\t\t\n      NOT \t\t\t\n      AND \t\t\t\n      DUP3 \t\t\t\n      ADD \t\t\t\n      PUSH 40\t\t\t\n      MSTORE \t\t\t\n      PUSH [tag] 597\t\t\t\n      SWAP2 \t\t\t\n      SWAP1 \t\t\t\n      DUP2 \t\t\t\n      ADD \t\t\t\n      SWAP1 \t\t\t\n      PUSH [tag] 302\t\t\t\n      JUMP \t\t\t\n    tag 597\t\t\t\n      JUMPDEST \t\t\t\n      PUSH 40\t\t\t\n      DUP2 \t\t\t\n      ADD \t\t\t\n      MLOAD \t\t\t\n      SWAP1 \t\t\t\n      SWAP2 \t\t\t\n      POP \t\t\t\n      PUSH 1\t\t\t\n      PUSH 1\t\t\t\n      PUSH A0\t\t\t\n      SHL \t\t\t\n      SUB \t\t\t\n      AND \t\t\t\n      PUSH EEEEEEEEEEEEEEEEEEEEEEEEEEEEEEEEEEEEEEEE\t\t\tif the pool is active, otherwi...\n      EQ \t\t\t\n      DUP1 \t\t\t\n      ISZERO \t\t\t\n      PUSH [tag] 598\t\t\t\n      JUMPI \t\t\t\n      POP \t\t\t\n      DUP2 \t\t\t\n      PUSH 40\t\t\t\n      ADD \t\t\t\n      MLOAD \t\t\t\n    tag 598\t\t\t\n      JUMPDEST \t\t\t\n      ISZERO \t\t\t\n      PUSH [tag] 599\t\t\t\n      JUMPI \t\t\t\n      PUSH 40\t\t\t\n      MLOAD \t\t\t\n      PUSH 7FCCE2A9\t\t\t\n      PUSH E0\t\t\t\n      SHL \t\t\t\n      DUP2 \t\t\t\n      MSTORE \t\t\t\n      PUSH 4\t\t\t\n      ADD \t\t\t\n      PUSH 40\t\t\t\n      MLOAD \t\t\t\n      DUP1 \t\t\t\n      SWAP2 \t\t\t\n      SUB \t\t\t\n      SWAP1 \t\t\t\n      REVERT \t\t\t\n    tag 599\t\t\t\n      JUMPDEST \t\t\t\n      PUSH E0\t\t\t\n      DUP3 \t\t\t\n      ADD \t\t\t\n      MLOAD \t\t\t\n      PUSH 11\t\t\t\n      DUP1 \t\t\t\n      SLOAD \t\t\t\n      PUSH 1\t\t\t\n      PUSH 1\t\t\t\n      PUSH A0\t\t\t\n      SHL \t\t\t\n      SUB \t\t\t\n      SWAP3 \t\t\t\n      DUP4 \t\t\t\n      AND \t\t\t\n      PUSH 1\t\t\t\n      PUSH 1\t\t\t\n      PUSH A0\t\t\t\n      SHL \t\t\t\n      SUB \t\t\t\n      NOT \t\t\t\n      SWAP2 \t\t\t\n      DUP3 \t\t\t\n      AND \t\t\t\n      OR \t\t\t\n      SWAP1 \t\t\t\n      SWAP2 \t\t\t\n      SSTORE \t\t\t\n      PUSH 100\t\t\t\n      DUP5 \t\t\t\n      ADD \t\t\t\n      MLOAD \t\t\t\n      PUSH 12\t\t\t\n      DUP1 \t\t\t\n      SLOAD \t\t\t\n      SWAP2 \t\t\t\n      DUP5 \t\t\t\n      AND \t\t\t\n      SWAP2 \t\t\t\n      SWAP1 \t\t\t\n      SWAP3 \t\t\t\n      AND \t\t\t\n      OR \t\t\t\n      SWAP1 \t\t\t\n      SSTORE \t\t\t\n      PUSH 120\t\t\t\n      DUP4 \t\t\t\n      ADD \t\t\t\n      MLOAD \t\t\t\n      PUSH 13\t\t\t\n      DUP1 \t\t\t\n      SLOAD \t\t\t\n      PUSH 40\t\t\t\n      DUP1 \t\t\t\n      DUP8 \t\t\t\n      ADD \t\t\t\n      MLOAD \t\t\t\n      ISZERO \t\t\t\n      ISZERO \t\t\t\n      PUSH 1\t\t\t\n      PUSH A0\t\t\t\n      SHL \t\t\t\n      MUL \t\t\t\n      PUSH 1\t\t\t\n      PUSH 1\t\t\t\n      PUSH A8\t\t\t\n      SHL \t\t\t\n      SUB \t\t\t\n      NOT \t\t\t\n      SWAP1 \t\t\t\n      SWAP3 \t\t\t\n      AND \t\t\t\n      SWAP4 \t\t\t\n      DUP6 \t\t\t\n      AND \t\t\t\n      SWAP4 \t\t\t\n      SWAP1 \t\t\t\n      SWAP4 \t\t\t\n      OR \t\t\t\n      OR \t\t\t\n      SWAP1 \t\t\t\n      SSTORE \t\t\t\n      DUP3 \t\t\t\n      ADD \t\t\t\n      MLOAD \t\t\t\n      AND \t\t\t\n      PUSH EEEEEEEEEEEEEEEEEEEEEEEEEEEEEEEEEEEEEEEE\t\t\tif the pool is active, otherwi...\n      EQ \t\t\t\n      PUSH [tag] 267\t\t\t\n      JUMPI \t\t\t\n      PUSH 40\t\t\t\n      DUP2 \t\t\t\n      DUP2 \t\t\t\n      ADD \t\t\t\n      MLOAD \t\t\t\n      PUSH 10\t\t\t\n      DUP1 \t\t\t\n      SLOAD \t\t\t\n      PUSH 1\t\t\t\n      PUSH 1\t\t\t\n      PUSH A0\t\t\t\n      SHL \t\t\t\n      SUB \t\t\t\n      NOT \t\t\t\n      AND \t\t\t\n      PUSH 1\t\t\t\n      PUSH 1\t\t\t\n      PUSH A0\t\t\t\n      SHL \t\t\t\n      SUB \t\t\t\n      SWAP3 \t\t\t\n      DUP4 \t\t\t\n      AND \t\t\t\n      SWAP1 \t\t\t\n      DUP2 \t\t\t\n      OR \t\t\t\n      SWAP1 \t\t\t\n      SWAP2 \t\t\t\n      SSTORE \t\t\t\n      PUSH 13\t\t\t\n      SLOAD \t\t\t\n      SWAP3 \t\t\t\n      MLOAD \t\t\t\n      PUSH 95EA7B3\t\t\t\n      PUSH E0\t\t\t\n      SHL \t\t\t\n      DUP2 \t\t\t\n      MSTORE \t\t\t\n      SWAP3 \t\t\t\n      SWAP1 \t\t\t\n      SWAP2 \t\t\t\n      AND \t\t\t\n      PUSH 4\t\t\t\n      DUP4 \t\t\t\n      ADD \t\t\t\n      MSTORE \t\t\t'Accepted', or to 'Pending' an...\n      PUSH 0\t\t\t\n      NOT \t\t\t\n      PUSH 24\t\t\t\\n    ///      func\n      DUP4 \t\t\t\\n    ///      func\n      ADD \t\t\t\\n    ///      func\n      MSTORE \t\t\titional\\n    ///      function...\n      SWAP1 \t\t\t\n      PUSH 95EA7B3\t\t\t\n      SWAP1 \t\t\t\n      PUSH 44\t\t\te status all the w\n      ADD \t\t\te status all the w\n      PUSH 20\t\t\t\n      PUSH 40\t\t\t\n      MLOAD \t\t\t\n      DUP1 \t\t\t\n      DUP4 \t\t\t\n      SUB \t\t\t\n      DUP2 \t\t\t\n      PUSH 0\t\t\t\n      DUP8 \t\t\t\n      GAS \t\t\t\n      CALL \t\t\t\n      ISZERO \t\t\t\n      DUP1 \t\t\t\n      ISZERO \t\t\t\n      PUSH [tag] 604\t\t\t\n      JUMPI \t\t\t\n      RETURNDATASIZE \t\t\t\n      PUSH 0\t\t\t\n      DUP1 \t\t\t\n      RETURNDATACOPY \t\t\t\n      RETURNDATASIZE \t\t\t\n      PUSH 0\t\t\t\n      REVERT \t\t\t\n    tag 604\t\t\t\n      JUMPDEST \t\t\t\n      POP \t\t\t\n      POP \t\t\t\n      POP \t\t\t\n      POP \t\t\t\n      PUSH 40\t\t\t\n      MLOAD \t\t\t\n      RETURNDATASIZE \t\t\t\n      PUSH 1F\t\t\t\n      NOT \t\t\t\n      PUSH 1F\t\t\t\n      DUP3 \t\t\t\n      ADD \t\t\t\n      AND \t\t\t\n      DUP3 \t\t\t\n      ADD \t\t\t\n      DUP1 \t\t\t\n      PUSH 40\t\t\t\n      MSTORE \t\t\t\n      POP \t\t\t\n      DUP2 \t\t\t\n      ADD \t\t\t\n      SWAP1 \t\t\t\n      PUSH [tag] 465\t\t\t\n      SWAP2 \t\t\t\n      SWAP1 \t\t\t\n      PUSH [tag] 481\t\t\t\n      JUMP \t\t\t\n    tag 418\t\t\t row index, column index and c...\n      JUMPDEST \t\t\t row index, column index and c...\n      PUSH [tag] 607\t\t\tewRow'\\n        uint256 newRo\n      DUP3 \t\t\t56 newR\n      PUSH [tag] 608\t\t\tewRow'\\n        uint\n      JUMP \t\t\tewRow'\\n        uint256 newRo\n    tag 607\t\t\tewRow'\\n        uint256 newRo\n      JUMPDEST \t\t\tewRow'\\n        uint256 newRo\n      DUP1 \t\t\t mapping\\n        statusesBitM...\n      MLOAD \t\t\t mapping\\n        statusesBitM...\n      PUSH 5\t\t\tdd the status to \n      DUP1 \t\t\tdd the status to the mapping\\n...\n      SLOAD \t\t\tdd the status to the mapping\\n...\n      PUSH 20\t\t\t<< colIndex);\\n    }\\n\\n    //...\n      DUP1 \t\t\t<< colIndex);\\n    }\\n\\n    //...\n      DUP6 \t\t\t<< colIndex);\\n    }\\n\\n    //...\n      ADD \t\t\t<< colIndex);\\n    }\\n\\n    //...\n      MLOAD \t\t\t<< colIndex);\\n    }\\n\\n    //...\n      PUSH FFFF\t\t\t\n      NOT \t\t\t\n      SWAP1 \t\t\t newRow | (_status << colIndex...\n      SWAP3 \t\t\t newRow | (_status << colIndex...\n      AND \t\t\t newRow | (_status << colIndex...\n      SWAP4 \t\t\tdd the status to the mapping\\n...\n      ISZERO \t\t\tdd the status to the mapping\\n...\n      ISZERO \t\t\tdd the status to the mapping\\n...\n      PUSH FF00\t\t\t\n      NOT \t\t\t\n      AND \t\t\t newRow | (_status << colIndex...\n      SWAP4 \t\t\t newRow | (_status << colIndex...\n      SWAP1 \t\t\t newRow | (_status << colIndex...\n      SWAP4 \t\t\t newRow | (_status << colIndex...\n      OR \t\t\t newRow | (_status << colIndex...\n      PUSH 100\t\t\tdd the status to the mapping\\n...\n      SWAP2 \t\t\t newRow | (_status << colIndex...\n      ISZERO \t\t\t newRow | (_status << colIndex...\n      ISZERO \t\t\t newRow | (_status << colIndex...\n      SWAP2 \t\t\t newRow | (_status << colIndex...\n      SWAP1 \t\t\t newRow | (_status << colIndex...\n      SWAP2 \t\t\t newRow | (_status << colIndex...\n      MUL \t\t\t newRow | (_status << colIndex...\n      OR \t\t\t newRow | (_status << colIndex...\n      SWAP1 \t\t\t newRow | (_status << colIndex...\n      SSTORE \t\t\t newRow | (_status << colIndex...\n      PUSH 40\t\t\ttus\\n    /// @param\n      DUP1 \t\t\ttus\\n    /// @param\n      MLOAD \t\t\ttus\\n    /// @param\n      PUSH 5AB1BD53\t\t\t\n      PUSH E0\t\t\t\n      SHL \t\t\t\n      DUP2 \t\t\ttus\\n    /// @param\n      MSTORE \t\t\ttus\\n    /// @param\n      SWAP1 \t\t\ttus\\n    /// @param\n      MLOAD \t\t\ttus\\n    /// @param\n      PUSHIMMUTABLE 2008\t\t\ttus\\n\n      PUSH 1\t\t\t\n      PUSH 1\t\t\t\n      PUSH A0\t\t\t\n      SHL \t\t\t\n      SUB \t\t\t\n      AND \t\t\ttus\\n    /// @par\n      SWAP3 \t\t\ttus\\n    /// @par\n      PUSH 5AB1BD53\t\t\ttus\\n    /// @par\n      SWAP3 \t\t\ttus\\n    /// @par\n      PUSH 4\t\t\ttus\\n    /// @param\n      DUP1 \t\t\ttus\\n    /// @param\n      DUP3 \t\t\ttus\\n    /// @param\n      ADD \t\t\ttus\\n    /// @param\n      SWAP4 \t\t\ttus\\n    /// @param\n      SWAP2 \t\t\ttus\\n    /// @param\n      DUP3 \t\t\ttus\\n    /// @param\n      SWAP1 \t\t\ttus\\n    /// @param\n      SUB \t\t\ttus\\n    /// @param\n      ADD \t\t\ttus\\n    /// @param\n      DUP2 \t\t\ttus\\n    /// @param\n      DUP7 \t\t\ttus\\n    /// @par\n      GAS \t\t\ttus\\n    /// @param\n      STATICCALL \t\t\ttus\\n    /// @param\n      ISZERO \t\t\ttus\\n    /// @param\n      DUP1 \t\t\ttus\\n    /// @param\n      ISZERO \t\t\ttus\\n    /// @param\n      PUSH [tag] 610\t\t\ttus\\n    /// @param\n      JUMPI \t\t\ttus\\n    /// @param\n      RETURNDATASIZE \t\t\ttus\\n    /// @param\n      PUSH 0\t\t\ttus\\n    /// @param\n      DUP1 \t\t\ttus\\n    /// @param\n      RETURNDATACOPY \t\t\ttus\\n    /// @param\n      RETURNDATASIZE \t\t\ttus\\n    /// @param\n      PUSH 0\t\t\ttus\\n    /// @param\n      REVERT \t\t\ttus\\n    /// @param\n    tag 610\t\t\ttus\\n    /// @param\n      JUMPDEST \t\t\ttus\\n    /// @param\n      POP \t\t\ttus\\n    /// @param\n      POP \t\t\ttus\\n    /// @param\n      POP \t\t\ttus\\n    /// @param\n      POP \t\t\ttus\\n    /// @param\n      PUSH 40\t\t\ttus\\n    /// @param\n      MLOAD \t\t\ttus\\n    /// @param\n      RETURNDATASIZE \t\t\ttus\\n    /// @param\n      PUSH 1F\t\t\ttus\\n    /// @param\n      NOT \t\t\ttus\\n    /// @param\n      PUSH 1F\t\t\ttus\\n    /// @param\n      DUP3 \t\t\ttus\\n    /// @param\n      ADD \t\t\ttus\\n    /// @param\n      AND \t\t\ttus\\n    /// @param\n      DUP3 \t\t\ttus\\n    /// @param\n      ADD \t\t\ttus\\n    /// @param\n      DUP1 \t\t\ttus\\n    /// @param\n      PUSH 40\t\t\ttus\\n    /// @param\n      MSTORE \t\t\ttus\\n    /// @param\n      POP \t\t\ttus\\n    /// @param\n      DUP2 \t\t\ttus\\n    /// @param\n      ADD \t\t\ttus\\n    /// @param\n      SWAP1 \t\t\ttus\\n    /// @param\n      PUSH [tag] 611\t\t\ttus\\n    /// @param\n      SWAP2 \t\t\ttus\\n    /// @param\n      SWAP1 \t\t\ttus\\n    /// @param\n      PUSH [tag] 399\t\t\ttus\\n    /// @param\n      JUMP \t\t\ttus\\n    /// @param\n    tag 611\t\t\ttus\\n    /// @param\n      JUMPDEST \t\t\ttus\\n    /// @param\n      PUSH 9\t\t\tecipient \n      DUP1 \t\t\tecipient status\\n    /// @para...\n      SLOAD \t\t\tecipient status\\n    /// @para...\n      PUSH 1\t\t\t\n      PUSH 1\t\t\t\n      PUSH A0\t\t\t\n      SHL \t\t\t\n      SUB \t\t\t\n      NOT \t\t\t\n      AND \t\t\tecipient status\\n    /// @para...\n      PUSH 1\t\t\t\n      PUSH 1\t\t\t\n      PUSH A0\t\t\t\n      SHL \t\t\t\n      SUB \t\t\t\n      SWAP3 \t\t\tecipient status\\n    /// @para...\n      SWAP1 \t\t\tecipient status\\n    /// @para...\n      SWAP3 \t\t\tecipient status\\n    /// @para...\n      AND \t\t\tecipient status\\n    /// @para...\n      SWAP2 \t\t\tecipient status\\n    /// @para...\n      SWAP1 \t\t\tecipient status\\n    /// @para...\n      SWAP2 \t\t\tecipient status\\n    /// @para...\n      OR \t\t\tecipient status\\n    /// @para...\n      SWAP1 \t\t\tecipient status\\n    /// @para...\n      SSTORE \t\t\tecipient status\\n    /// @para...\n      PUSH 60\t\t\te recipient\\n    function _get...\n      DUP2 \t\t\te recipient\\n    function _get...\n      ADD \t\t\te recipient\\n    function _get...\n      MLOAD \t\t\te recipient\\n    function _get...\n      PUSH 5\t\t\t status The status of\n      DUP1 \t\t\t status The status of the reci...\n      SLOAD \t\t\t status The status of the reci...\n      PUSH 80\t\t\t) internal view returns (uint8...\n      DUP5 \t\t\t) internal view returns (uint8...\n      ADD \t\t\t) internal view returns (uint8...\n      MLOAD \t\t\t) internal view returns (uint8...\n      PUSH A0\t\t\tindex and current row\\n       ...\n      DUP6 \t\t\tindex and current row\\n       ...\n      ADD \t\t\tindex and current row\\n       ...\n      MLOAD \t\t\tindex and current row\\n       ...\n      PUSH 1000000\t\t\t\n      PUSH 1\t\t\t\n      PUSH 98\t\t\t\n      SHL \t\t\t\n      SUB \t\t\t\n      NOT \t\t\t\n      SWAP1 \t\t\ts(address _recipientId) intern...\n      SWAP3 \t\t\ts(address _recipientId) intern...\n      AND \t\t\ts(address _recipientId) intern...\n      PUSH 1000000\t\t\t status The status of the reci...\n      PUSH 1\t\t\t\n      PUSH 1\t\t\t\n      PUSH 40\t\t\t\n      SHL \t\t\t\n      SUB \t\t\t\n      SWAP6 \t\t\t status The status of the reci...\n      DUP7 \t\t\t status The status of the reci...\n      AND \t\t\t status The status of the reci...\n      DUP2 \t\t\t status The status of the reci...\n      MUL \t\t\t status The status of the reci...\n      PUSH FFFFFFFFFFFFFFFF\t\t\t\n      PUSH 58\t\t\t\n      SHL \t\t\t\n      NOT \t\t\t\n      AND \t\t\ts(address _recipientId) intern...\n      SWAP2 \t\t\ts(address _recipientId) intern...\n      SWAP1 \t\t\ts(address _recipientId) intern...\n      SWAP2 \t\t\ts(address _recipientId) intern...\n      OR \t\t\ts(address _recipientId) intern...\n      PUSH 1\t\t\t\n      PUSH 58\t\t\t\n      SHL \t\t\t\n      SWAP3 \t\t\ts(address _recipientId) intern...\n      DUP7 \t\t\ts(address _recipientId) intern...\n      AND \t\t\ts(address _recipientId) intern...\n      DUP4 \t\t\ts(address _recipientId) intern...\n      MUL \t\t\ts(address _recipientId) intern...\n      OR \t\t\ts(address _recipientId) intern...\n      PUSH FFFFFFFFFFFFFFFF\t\t\t\n      PUSH 98\t\t\t\n      SHL \t\t\t\n      NOT \t\t\t\n      AND \t\t\t    // Get the column index an...\n      PUSH 1\t\t\t\n      PUSH 98\t\t\t\n      SHL \t\t\t\n      SWAP4 \t\t\t    // Get the column index an...\n      DUP7 \t\t\t    // Get the column index an...\n      AND \t\t\t    // Get the column index an...\n      DUP5 \t\t\t    // Get the column index an...\n      MUL \t\t\t    // Get the column index an...\n      OR \t\t\t    // Get the column index an...\n      SWAP4 \t\t\t    // Get the column index an...\n      DUP5 \t\t\t    // Get the column index an...\n      SWAP1 \t\t\t    // Get the column index an...\n      SSTORE \t\t\t    // Get the column index an...\n      PUSH C0\t\t\ttRow) = _getStatusRowColumn(_r...\n      DUP7 \t\t\ttRow) = _getStatusRowColumn(_r...\n      ADD \t\t\ttRow) = _getStatusRowColumn(_r...\n      MLOAD \t\t\ttRow) = _getStatusRowColumn(_r...\n      PUSH 6\t\t\tndex, uint256 cur\n      DUP1 \t\t\tndex, uint256 currentRow) = _g...\n      SLOAD \t\t\tndex, uint256 currentRow) = _g...\n      PUSH FFFFFFFFFFFFFFFF\t\t\t\n      NOT \t\t\t\n      AND \t\t\tndex, uint256 currentRow) = _g...\n      SWAP2 \t\t\tndex, uint256 currentRow) = _g...\n      DUP8 \t\t\tndex, uint256 currentRow) = _g...\n      AND \t\t\tndex, uint256 currentRow) = _g...\n      SWAP2 \t\t\tndex, uint256 currentRow) = _g...\n      DUP3 \t\t\tndex, uint256 currentRow) = _g...\n      OR \t\t\tndex, uint256 currentRow) = _g...\n      SWAP1 \t\t\tndex, uint256 currentRow) = _g...\n      SSTORE \t\t\tndex, uint256 currentRow) = _g...\n      PUSH [tag] 613\t\t\tcurrentRow >> colIndex) & 15);...\n      SWAP6 \t\t\tcurrentRow >> colIndex) & 15);...\n      SWAP2 \t\t\t) & 15);\\n\\n        // \n      DUP6 \t\t\t) & 15);\\n\\n        // \n      DIV \t\t\t) & 15);\\n\\n        // \n      DUP3 \t\t\t) & 15);\\n\\n        // \n      AND \t\t\t) & 15);\\n\\n        // \n      SWAP5 \t\t\t) & 15);\\n\\n        // \n      SWAP3 \t\t\tturn the status\\n   \n      DUP4 \t\t\tturn the status\\n   \n      DIV \t\t\tturn the status\\n   \n      DUP3 \t\t\tturn the status\\n   \n      AND \t\t\tturn the status\\n   \n      SWAP4 \t\t\tturn the status\\n   \n      SWAP1 \t\t\t   return status;\\n \n      SWAP3 \t\t\t   return status;\\n \n      DIV \t\t\t   return status;\\n \n      AND \t\t\t   return status;\\n \n      SWAP1 \t\t\t   return status;\\n \n      PUSH [tag] 277\t\t\tcurrentRow >> colInde\n      JUMP \t\t\tcurrentRow >> colIndex) & 15);...\n    tag 613\t\t\tcurrentRow >> colIndex) & 15);...\n      JUMPDEST \t\t\tcurrentRow >> colIndex) & 15);...\n      PUSH 5\t\t\trn (rowIndex, colInde\n      SLOAD \t\t\trn (rowIndex, colInde\n      PUSH 6\t\t\tumn(address _reci\n      SLOAD \t\t\tumn(address _reci\n      PUSH 40\t\t\t of the recipient\\n    /// @re...\n      MLOAD \t\t\t of the recipient\\n    /// @re...\n      PUSH CB0FB7A7B87DB2F472EE8977444CFDBC51993CE660ACA27A5969A724FAE6DCF3\t\t\t of the recipient\\n    /// @re...\n      SWAP3 \t\t\t of the recipient\\n    /// @re...\n      PUSH [tag] 614\t\t\t of the recipient\\n    /// @re...\n      SWAP3 \t\t\t of the recipient\\n    /// @re...\n      PUSH 1\t\t\t\n      PUSH 1\t\t\t\n      PUSH 40\t\t\t\n      SHL \t\t\t\n      SUB \t\t\t\n      PUSH 1000000\t\t\trn (rowIndex, colInde\n      DUP4 \t\t\trn (rowIndex, colInde\n      DIV \t\t\trn (rowIndex, colInde\n      DUP2 \t\t\trn (rowIndex, colInde\n      AND \t\t\trn (rowIndex, colInde\n      SWAP4 \t\t\trn (rowIndex, colInde\n      PUSH 1\t\t\t\n      PUSH 58\t\t\t\n      SHL \t\t\t\n      DUP5 \t\t\t currentRow)\\n    fu\n      DIV \t\t\t currentRow)\\n    fu\n      DUP3 \t\t\t currentRow)\\n    fu\n      AND \t\t\t currentRow)\\n    fu\n      SWAP4 \t\t\t currentRow)\\n    fu\n      PUSH 1\t\t\t\n      PUSH 98\t\t\t\n      SHL \t\t\t\n      SWAP1 \t\t\ttion _getStatusRowC\n      DIV \t\t\ttion _getStatusRowC\n      DUP3 \t\t\ttion _getStatusRowC\n      AND \t\t\ttion _getStatusRowC\n      SWAP3 \t\t\ttion _getStatusRowC\n      SWAP1 \t\t\tumn(address _reci\n      SWAP2 \t\t\tumn(address _reci\n      AND \t\t\tumn(address _reci\n      SWAP1 \t\t\tumn(address _reci\n      CALLER \t\t\tentId) int\n      SWAP1 \t\t\tentId) int\n      PUSH [tag] 279\t\t\t of the recipient\\n    /// @re...\n      JUMP \t\t\t of the recipient\\n    /// @re...\n    tag 614\t\t\t of the recipient\\n    /// @re...\n      JUMPDEST \t\t\t of the recipient\\n    /// @re...\n      PUSH 40\t\t\t of the recipient\\n    /// @re...\n      MLOAD \t\t\t of the recipient\\n    /// @re...\n      DUP1 \t\t\t of the recipient\\n    /// @re...\n      SWAP2 \t\t\t of the recipient\\n    /// @re...\n      SUB \t\t\t of the recipient\\n    /// @re...\n      SWAP1 \t\t\t of the recipient\\n    /// @re...\n      LOG1 \t\t\t of the recipient\\n    /// @re...\n      PUSH 140\t\t\t      uint256 recipientIndex \n      DUP2 \t\t\t      uint256 recipientIndex \n      ADD \t\t\t      uint256 recipientIndex \n      MLOAD \t\t\t      uint256 recipientIndex \n      MLOAD \t\t\t      uint256 recipientIndex =...\n      PUSH 0\t\t\tint256, uint256, uint256) {\n      DUP2 \t\t\t       uint256 colIndex \n      SWAP1 \t\t\t       uint256 colIndex \n      SUB \t\t\t       uint256 colIndex \n      PUSH [tag] 615\t\t\t 4\\n        uint256 colIndex =...\n      JUMPI \t\t\t 4\\n        uint256 colIndex =...\n      PUSH 0\t\t\trn (rowIndex, colIndex, s\n      DUP1 \t\t\trn (rowIndex, colIndex, s\n      MSTORE \t\t\trn (rowIndex, colIndex, s\n      PUSH E\t\t\trn (rowIndex,\n      PUSH 20\t\t\trn (rowIndex, colIndex, s\n      MSTORE \t\t\trn (rowIndex, colIndex, s\n      PUSH E710864318D4A32F37D6CE54CB3FADBEF648DD12D8DBDF53973564D56B7F881C\t\t\trn (rowIndex, colIndex, s\n      DUP1 \t\t\trn (rowIndex, colIndex, status...\n      SLOAD \t\t\trn (rowIndex, colIndex, status...\n      PUSH FF\t\t\t\n      NOT \t\t\t\n      AND \t\t\trn (rowIndex, colIndex, status...\n      PUSH 1\t\t\tuses\n      OR \t\t\trn (rowIndex, colIndex, status...\n      SWAP1 \t\t\trn (rowIndex, colIndex, status...\n      SSTORE \t\t\trn (rowIndex, colIndex, status...\n    tag 615\t\t\t 4\\n        uint256 colIndex =...\n      JUMPDEST \t\t\t 4\\n        uint256 colIndex =...\n      PUSH 0\t\t\tve() exte\n    tag 616\t\t\treceive() external payable {}\\...\n      JUMPDEST \t\t\treceive() external payable {}\\...\n      DUP2 \t\t\tayable {}\\n\\n    /// \n      DUP2 \t\t\ta\n      LT \t\t\tal payable {}\\n\\n    /// \n      ISZERO \t\t\treceive() external payable {}\\...\n      PUSH [tag] 465\t\t\treceive() external payable {}\\...\n      JUMPI \t\t\treceive() external payable {}\\...\n      PUSH 1\t\t\t====\n      PUSH E\t\t\t=============\n      PUSH 0\t\t\t==================\\n    /// ==...\n      DUP6 \t\t\t====\\n    /// ==\n      PUSH 140\t\t\t====\\n    /// ============== H\n      ADD \t\t\t====\\n    /// ============== H\n      MLOAD \t\t\t====\\n    /// ============== H\n      DUP5 \t\t\to\n      DUP2 \t\t\t====\\n    /// ============== H...\n      MLOAD \t\t\t====\\n    /// ============== H...\n      DUP2 \t\t\t====\\n    /// ============== H...\n      LT \t\t\t====\\n    /// ============== H...\n      PUSH [tag] 620\t\t\t====\\n    /// ============== H...\n      JUMPI \t\t\t====\\n    /// ============== H...\n      PUSH [tag] 620\t\t\t====\\n    /// ============== H...\n      PUSH [tag] 321\t\t\t====\\n    /// ============== H...\n      JUMP \t\t\t====\\n    /// ============== H...\n    tag 620\t\t\t====\\n    /// ============== H...\n      JUMPDEST \t\t\t====\\n    /// ============== H...\n      PUSH 20\t\t\t====\\n    /// ============== H...\n      SWAP1 \t\t\t====\\n    /// ============== H...\n      DUP2 \t\t\t====\\n    /// ============== H...\n      MUL \t\t\t====\\n    /// ============== H...\n      SWAP2 \t\t\t====\\n    /// ============== H...\n      SWAP1 \t\t\t====\\n    /// ============== H...\n      SWAP2 \t\t\t====\\n    /// ============== H...\n      ADD \t\t\t====\\n    /// ============== H...\n      DUP2 \t\t\t====\\n    /// ============== H...\n      ADD \t\t\t====\\n    /// ============== H...\n      MLOAD \t\t\t====\\n    /// ============== H...\n      PUSH 1\t\t\t\n      PUSH 1\t\t\t\n      PUSH A0\t\t\t\n      SHL \t\t\t\n      SUB \t\t\t\n      AND \t\t\t==================\\n    /// ==...\n      DUP3 \t\t\t==================\\n    /// ==...\n      MSTORE \t\t\t==================\\n    /// ==...\n      DUP2 \t\t\t==================\\n    /// ==...\n      ADD \t\t\t==================\\n    /// ==...\n      SWAP2 \t\t\t==================\\n    /// ==...\n      SWAP1 \t\t\t==================\\n    /// ==...\n      SWAP2 \t\t\t==================\\n    /// ==...\n      MSTORE \t\t\t==================\\n    /// ==...\n      PUSH 40\t\t\t==================\\n    /// ==...\n      ADD \t\t\t==================\\n    /// ==...\n      PUSH 0\t\t\t\n      KECCAK256 \t\t\t==================\\n    /// ==...\n      DUP1 \t\t\t==================\\n    /// ==...\n      SLOAD \t\t\t==================\\n    /// ==...\n      PUSH FF\t\t\t\n      NOT \t\t\t\n      AND \t\t\t==================\\n    /// ==...\n      SWAP2 \t\t\t==================\\n    /// ==...\n      ISZERO \t\t\t==================\\n    /// ==...\n      ISZERO \t\t\t==================\\n    /// ==...\n      SWAP2 \t\t\t==================\\n    /// ==...\n      SWAP1 \t\t\t==================\\n    /// ==...\n      SWAP2 \t\t\t==================\\n    /// ==...\n      OR \t\t\t==================\\n    /// ==...\n      SWAP1 \t\t\t==================\\n    /// ==...\n      SSTORE \t\t\t==================\\n    /// ==...\n      PUSH 1\t\t\t\n      ADD \t\t\t===\n      PUSH [tag] 616\t\t\treceive() external payable {}\\...\n      JUMP \t\t\treceive() external payable {}\\...\n    tag 431\t\t\t\n      JUMPDEST \t\t\t\n      PUSH [tag] 624\t\t\t of the distribution\\n    fun\n      PUSH [tag] 625\t\t\t of the distribution\\n    f\n      JUMP \t\t\t of the distribution\\n    fun\n    tag 624\t\t\t of the distribution\\n    fun\n      JUMPDEST \t\t\t of the distribution\\n    fun\n      PUSH 0\t\t\t\n      DUP3 \t\t\t\n      DUP1 \t\t\t\n      PUSH 20\t\t\t\n      ADD \t\t\t\n      SWAP1 \t\t\t\n      MLOAD \t\t\t\n      DUP2 \t\t\t\n      ADD \t\t\t\n      SWAP1 \t\t\t\n      PUSH [tag] 627\t\t\t\n      SWAP2 \t\t\t\n      SWAP1 \t\t\t\n      PUSH [tag] 628\t\t\t\n      JUMP \t\t\t\n    tag 627\t\t\t\n      JUMPDEST \t\t\t\n      DUP1 \t\t\t\n      MLOAD \t\t\t\n      SWAP1 \t\t\t\n      SWAP2 \t\t\t\n      POP \t\t\t\n      PUSH 0\t\t\t\n    tag 629\t\t\t\n      JUMPDEST \t\t\t\n      DUP2 \t\t\t\n      DUP2 \t\t\t\n      PUSH FF\t\t\t\n      AND \t\t\t\n      LT \t\t\t\n      ISZERO \t\t\t\n      PUSH [tag] 630\t\t\t\n      JUMPI \t\t\t\n      PUSH [tag] 632\t\t\t\n      DUP4 \t\t\t\n      DUP3 \t\t\t\n      PUSH FF\t\t\t\n      AND \t\t\t\n      DUP2 \t\t\t\n      MLOAD \t\t\t\n      DUP2 \t\t\t\n      LT \t\t\t\n      PUSH [tag] 634\t\t\t\n      JUMPI \t\t\t\n      PUSH [tag] 634\t\t\t\n      PUSH [tag] 321\t\t\t\n      JUMP \t\t\t\n    tag 634\t\t\t\n      JUMPDEST \t\t\t\n      PUSH 20\t\t\t\n      MUL \t\t\t\n      PUSH 20\t\t\t\n      ADD \t\t\t\n      ADD \t\t\t\n      MLOAD \t\t\t\n      DUP6 \t\t\t\n      PUSH [tag] 635\t\t\t\n      JUMP \t\t\t\n    tag 632\t\t\t\n      JUMPDEST \t\t\t\n      DUP1 \t\t\t\n      PUSH [tag] 636\t\t\t\n      DUP2 \t\t\t\n      PUSH [tag] 637\t\t\t\n      JUMP \t\t\t\n    tag 636\t\t\t\n      JUMPDEST \t\t\t\n      SWAP2 \t\t\t\n      POP \t\t\t\n      POP \t\t\t\n      PUSH [tag] 629\t\t\t\n      JUMP \t\t\t\n    tag 630\t\t\t\n      JUMPDEST \t\t\t\n      POP \t\t\t\n      PUSH 40\t\t\t\n      MLOAD \t\t\t\n      PUSH 1\t\t\t\n      PUSH 1\t\t\t\n      PUSH A0\t\t\t\n      SHL \t\t\t\n      SUB \t\t\t\n      DUP5 \t\t\t\n      AND \t\t\t\n      SWAP1 \t\t\t\n      PUSH AF2AEB2D4FE57415A1BBC0422472FA1BD4FF48B36FEB2E7D2D3CE40085558985\t\t\t\n      SWAP1 \t\t\t\n      PUSH 0\t\t\t\n      SWAP1 \t\t\t\n      LOG2 \t\t\t\n      POP \t\t\t\n      POP \t\t\t\n      POP \t\t\t\n      POP \t\t\t\n      JUMP \t\t\t\n    tag 456\t\t\t\n      JUMPDEST \t\t\t\n      DUP2 \t\t\t\n      MLOAD \t\t\t\n      PUSH 60\t\t\t\n      SWAP1 \t\t\t\n      PUSH 0\t\t\t\n      DUP2 \t\t\t\n      PUSH 1\t\t\t\n      PUSH 1\t\t\t\n      PUSH 40\t\t\t\n      SHL \t\t\t\n      SUB \t\t\t\n      DUP2 \t\t\t\n      GT \t\t\t\n      ISZERO \t\t\t\n      PUSH [tag] 643\t\t\t\n      JUMPI \t\t\t\n      PUSH [tag] 643\t\t\t\n      PUSH [tag] 358\t\t\t\n      JUMP \t\t\t\n    tag 643\t\t\t\n      JUMPDEST \t\t\t\n      PUSH 40\t\t\t\n      MLOAD \t\t\t\n      SWAP1 \t\t\t\n      DUP1 \t\t\t\n      DUP3 \t\t\t\n      MSTORE \t\t\t\n      DUP1 \t\t\t\n      PUSH 20\t\t\t\n      MUL \t\t\t\n      PUSH 20\t\t\t\n      ADD \t\t\t\n      DUP3 \t\t\t\n      ADD \t\t\t\n      PUSH 40\t\t\t\n      MSTORE \t\t\t\n      DUP1 \t\t\t\n      ISZERO \t\t\t\n      PUSH [tag] 644\t\t\t\n      JUMPI \t\t\t\n      DUP2 \t\t\t\n      PUSH 20\t\t\t\n      ADD \t\t\t\n    tag 645\t\t\t\n      JUMPDEST \t\t\t\n      PUSH 40\t\t\t\n      DUP1 \t\t\t\n      MLOAD \t\t\t\n      DUP1 \t\t\t\n      DUP3 \t\t\t\n      ADD \t\t\t\n      SWAP1 \t\t\t\n      SWAP2 \t\t\t\n      MSTORE \t\t\t\n      PUSH 0\t\t\t\n      DUP1 \t\t\t\n      DUP3 \t\t\t\n      MSTORE \t\t\t\n      PUSH 20\t\t\t\n      DUP3 \t\t\t\n      ADD \t\t\t\n      MSTORE \t\t\t\n      DUP2 \t\t\t\n      MSTORE \t\t\t\n      PUSH 20\t\t\t\n      ADD \t\t\t\n      SWAP1 \t\t\t\n      PUSH 1\t\t\t\n      SWAP1 \t\t\t\n      SUB \t\t\t\n      SWAP1 \t\t\t\n      DUP2 \t\t\t\n      PUSH [tag] 645\t\t\t\n      JUMPI \t\t\t\n      SWAP1 \t\t\t\n      POP \t\t\t\n    tag 644\t\t\t\n      JUMPDEST \t\t\t\n      POP \t\t\t\n      SWAP1 \t\t\t\n      POP \t\t\t\n      PUSH 0\t\t\t\n    tag 648\t\t\t\n      JUMPDEST \t\t\t\n      DUP3 \t\t\t\n      DUP2 \t\t\t\n      LT \t\t\t\n      ISZERO \t\t\t\n      PUSH [tag] 381\t\t\t\n      JUMPI \t\t\t\n      PUSH 0\t\t\t\n      DUP7 \t\t\t\n      DUP3 \t\t\t\n      DUP2 \t\t\t\n      MLOAD \t\t\t\n      DUP2 \t\t\t\n      LT \t\t\t\n      PUSH [tag] 652\t\t\t\n      JUMPI \t\t\t\n      PUSH [tag] 652\t\t\t\n      PUSH [tag] 321\t\t\t\n      JUMP \t\t\t\n    tag 652\t\t\t\n      JUMPDEST \t\t\t\n      PUSH 20\t\t\t\n      MUL \t\t\t\n      PUSH 20\t\t\t\n      ADD \t\t\t\n      ADD \t\t\t\n      MLOAD \t\t\t\n      PUSH 0\t\t\t\n      ADD \t\t\t\n      MLOAD \t\t\t\n      SWAP1 \t\t\t\n      POP \t\t\t\n      PUSH 0\t\t\t\n      DUP8 \t\t\t\n      DUP4 \t\t\t\n      DUP2 \t\t\t\n      MLOAD \t\t\t\n      DUP2 \t\t\t\n      LT \t\t\t\n      PUSH [tag] 654\t\t\t\n      JUMPI \t\t\t\n      PUSH [tag] 654\t\t\t\n      PUSH [tag] 321\t\t\t\n      JUMP \t\t\t\n    tag 654\t\t\t\n      JUMPDEST \t\t\t\n      PUSH 20\t\t\t\n      MUL \t\t\t\n      PUSH 20\t\t\t\n      ADD \t\t\t\n      ADD \t\t\t\n      MLOAD \t\t\t\n      PUSH 20\t\t\t\n      ADD \t\t\t\n      MLOAD \t\t\t\n      SWAP1 \t\t\t\n      POP \t\t\t\n      PUSH 0\t\t\t\n      DUP9 \t\t\t\n      DUP5 \t\t\t\n      DUP2 \t\t\t\n      MLOAD \t\t\t\n      DUP2 \t\t\t\n      LT \t\t\t\n      PUSH [tag] 656\t\t\t\n      JUMPI \t\t\t\n      PUSH [tag] 656\t\t\t\n      PUSH [tag] 321\t\t\t\n      JUMP \t\t\t\n    tag 656\t\t\t\n      JUMPDEST \t\t\t\n      PUSH 20\t\t\t\n      MUL \t\t\t\n      PUSH 20\t\t\t\n      ADD \t\t\t\n      ADD \t\t\t\n      MLOAD \t\t\t\n      PUSH 40\t\t\t\n      ADD \t\t\t\n      MLOAD \t\t\t\n      SWAP1 \t\t\t\n      POP \t\t\t\n      PUSH 0\t\t\t\n      DUP10 \t\t\t\n      DUP6 \t\t\t\n      DUP2 \t\t\t\n      MLOAD \t\t\t\n      DUP2 \t\t\t\n      LT \t\t\t\n      PUSH [tag] 658\t\t\t\n      JUMPI \t\t\t\n      PUSH [tag] 658\t\t\t\n      PUSH [tag] 321\t\t\t\n      JUMP \t\t\t\n    tag 658\t\t\t\n      JUMPDEST \t\t\t\n      PUSH 20\t\t\t\n      SWAP1 \t\t\t\n      DUP2 \t\t\t\n      MUL \t\t\t\n      SWAP2 \t\t\t\n      SWAP1 \t\t\t\n      SWAP2 \t\t\t\n      ADD \t\t\t\n      DUP2 \t\t\t\n      ADD \t\t\t\n      MLOAD \t\t\t\n      PUSH 60\t\t\t\n      ADD \t\t\t\n      MLOAD \t\t\t\n      PUSH 1\t\t\t\n      PUSH 1\t\t\t\n      PUSH A0\t\t\t\n      SHL \t\t\t\n      SUB \t\t\t\n      DUP1 \t\t\t\n      DUP7 \t\t\t\n      AND \t\t\t\n      PUSH 0\t\t\t\n      SWAP1 \t\t\t\n      DUP2 \t\t\t\n      MSTORE \t\t\t\n      PUSH F\t\t\t\n      SWAP1 \t\t\t\n      SWAP4 \t\t\t\n      MSTORE \t\t\t\n      PUSH 40\t\t\t\n      SWAP1 \t\t\t\n      SWAP3 \t\t\t\n      KECCAK256 \t\t\t\n      SLOAD \t\t\t\n      SWAP1 \t\t\t\n      SWAP3 \t\t\t\n      POP \t\t\t\n      PUSH 100\t\t\t\n      SWAP1 \t\t\t\n      DIV \t\t\t\n      AND \t\t\t\n      PUSH [tag] 659\t\t\t\n      DUP6 \t\t\t\n      DUP6 \t\t\t\n      DUP4 \t\t\t\n      DUP7 \t\t\t\n      DUP7 \t\t\t\n      PUSH [tag] 584\t\t\t\n      JUMP \t\t\t\n    tag 659\t\t\t\n      JUMPDEST \t\t\t\n      ISZERO \t\t\t\n      PUSH [tag] 660\t\t\t\n      JUMPI \t\t\t\n      PUSH [tag] 661\t\t\t\n      DUP6 \t\t\t\n      PUSH [tag] 662\t\t\t\n      JUMP \t\t\t\n    tag 661\t\t\t\n      JUMPDEST \t\t\t\n      DUP3 \t\t\t\n      PUSH 2\t\t\t\n      PUSH 0\t\t\t\n      DUP3 \t\t\t\n      DUP3 \t\t\t\n      SLOAD \t\t\t\n      PUSH [tag] 663\t\t\t\n      SWAP2 \t\t\t\n      SWAP1 \t\t\t\n      PUSH [tag] 305\t\t\t\n      JUMP \t\t\t\n    tag 663\t\t\t\n      JUMPDEST \t\t\t\n      SWAP1 \t\t\t\n      SWAP2 \t\t\t\n      SSTORE \t\t\t\n      POP \t\t\t\n      POP \t\t\t\n      PUSH 13\t\t\t\n      SLOAD \t\t\t\n      PUSH 40\t\t\t\n      MLOAD \t\t\t\n      PUSH A30A04F\t\t\t\n      PUSH E2\t\t\t\n      SHL \t\t\t\n      DUP2 \t\t\t\n      MSTORE \t\t\t\n      PUSH 1\t\t\t\n      PUSH 1\t\t\t\n      PUSH A0\t\t\t\n      SHL \t\t\t\n      SUB \t\t\t\n      DUP4 \t\t\t producing values on a queue. ...\n      DUP2 \t\t\t producing values on a queue. ...\n      AND \t\t\t producing values on a queue. ...\n      PUSH 4\t\t\t\n      DUP4 \t\t\t\n      ADD \t\t\t\n      MSTORE \t\t\t  // consuming and producing v...\n      SWAP1 \t\t\t\n      SWAP2 \t\t\t\n      AND \t\t\t\n      SWAP1 \t\t\t\n      PUSH 28C2813C\t\t\t\n      SWAP1 \t\t\t\n      PUSH 24\t\t\te root is rebuilt \n      ADD \t\t\te root is rebuilt \n      PUSH 20\t\t\t\n      PUSH 40\t\t\t\n      MLOAD \t\t\t\n      DUP1 \t\t\t\n      DUP4 \t\t\t\n      SUB \t\t\t\n      DUP2 \t\t\t\n      DUP7 \t\t\t\n      GAS \t\t\t\n      STATICCALL \t\t\t\n      ISZERO \t\t\t\n      DUP1 \t\t\t\n      ISZERO \t\t\t\n      PUSH [tag] 666\t\t\t\n      JUMPI \t\t\t\n      RETURNDATASIZE \t\t\t\n      PUSH 0\t\t\t\n      DUP1 \t\t\t\n      RETURNDATACOPY \t\t\t\n      RETURNDATASIZE \t\t\t\n      PUSH 0\t\t\t\n      REVERT \t\t\t\n    tag 666\t\t\t\n      JUMPDEST \t\t\t\n      POP \t\t\t\n      POP \t\t\t\n      POP \t\t\t\n      POP \t\t\t\n      PUSH 40\t\t\t\n      MLOAD \t\t\t\n      RETURNDATASIZE \t\t\t\n      PUSH 1F\t\t\t\n      NOT \t\t\t\n      PUSH 1F\t\t\t\n      DUP3 \t\t\t\n      ADD \t\t\t\n      AND \t\t\t\n      DUP3 \t\t\t\n      ADD \t\t\t\n      DUP1 \t\t\t\n      PUSH 40\t\t\t\n      MSTORE \t\t\t\n      POP \t\t\t\n      DUP2 \t\t\t\n      ADD \t\t\t\n      SWAP1 \t\t\t\n      PUSH [tag] 667\t\t\t\n      SWAP2 \t\t\t\n      SWAP1 \t\t\t\n      PUSH [tag] 668\t\t\t\n      JUMP \t\t\t\n    tag 667\t\t\t\n      JUMPDEST \t\t\t\n      DUP8 \t\t\t\n      DUP8 \t\t\t\n      DUP2 \t\t\t\n      MLOAD \t\t\t\n      DUP2 \t\t\t\n      LT \t\t\t\n      PUSH [tag] 670\t\t\t\n      JUMPI \t\t\t\n      PUSH [tag] 670\t\t\t\n      PUSH [tag] 321\t\t\t\n      JUMP \t\t\t\n    tag 670\t\t\t\n      JUMPDEST \t\t\t\n      PUSH 20\t\t\t\n      SWAP1 \t\t\t\n      DUP2 \t\t\t\n      MUL \t\t\t\n      SWAP2 \t\t\t\n      SWAP1 \t\t\t\n      SWAP2 \t\t\t\n      ADD \t\t\t\n      ADD \t\t\t\n      MLOAD \t\t\t\n      MSTORE \t\t\t\n      PUSH [tag] 671\t\t\t\n      PUSH 0\t\t\t\n      PUSH [tag] 672\t\t\t\n      DUP6 \t\t\t\n      DUP14 \t\t\t\n      PUSH [tag] 210\t\t\t\n      JUMP \t\t\t\n    tag 672\t\t\t\n      JUMPDEST \t\t\t\n      PUSH FFFFFFFF\t\t\t\n      DUP14 \t\t\t\n      AND \t\t\t\n      PUSH 1\t\t\t\n      PUSH 1\t\t\t\n      PUSH A0\t\t\t\n      SHL \t\t\t\n      SUB \t\t\t\n      SWAP1 \t\t\t\n      SWAP2 \t\t\t\n      AND \t\t\t\n      PUSH A0\t\t\t\n      SWAP3 \t\t\t\n      SWAP1 \t\t\t\n      SWAP3 \t\t\t\n      SHL \t\t\t\n      PUSH FFFFFFFF\t\t\t\n      PUSH A0\t\t\t\n      SHL \t\t\t\n      AND \t\t\t\n      SWAP2 \t\t\t\n      SWAP1 \t\t\t\n      SWAP2 \t\t\t\n      OR \t\t\t\n      PUSH 40\t\t\t\n      SHL \t\t\t\n      OR \t\t\t\n      SWAP1 \t\t\t\n      JUMP \t\t\t\n    tag 671\t\t\t\n      JUMPDEST \t\t\t\n      DUP8 \t\t\t\n      DUP8 \t\t\t\n      DUP2 \t\t\t\n      MLOAD \t\t\t\n      DUP2 \t\t\t\n      LT \t\t\t\n      PUSH [tag] 675\t\t\t\n      JUMPI \t\t\t\n      PUSH [tag] 675\t\t\t\n      PUSH [tag] 321\t\t\t\n      JUMP \t\t\t\n    tag 675\t\t\t\n      JUMPDEST \t\t\t\n      PUSH 20\t\t\t\n      MUL \t\t\t\n      PUSH 20\t\t\t\n      ADD \t\t\t\n      ADD \t\t\t\n      MLOAD \t\t\t\n      PUSH 20\t\t\t\n      ADD \t\t\t\n      DUP2 \t\t\t\n      DUP2 \t\t\t\n      MSTORE \t\t\t\n      POP \t\t\t\n      POP \t\t\t\n      PUSH [tag] 676\t\t\t\n      JUMP \t\t\t\n    tag 660\t\t\t\n      JUMPDEST \t\t\t\n      PUSH 40\t\t\t\n      MLOAD \t\t\t\n      PUSH F4A513B9\t\t\t\n      PUSH E0\t\t\t\n      SHL \t\t\t\n      DUP2 \t\t\t\n      MSTORE \t\t\t\n      PUSH 1\t\t\t\n      PUSH 1\t\t\t\n      PUSH A0\t\t\t\n      SHL \t\t\t\n      SUB \t\t\t\n      DUP6 \t\t\t producing values on a queue. ...\n      AND \t\t\t producing values on a queue. ...\n      PUSH 4\t\t\t\n      DUP3 \t\t\t\n      ADD \t\t\t\n      MSTORE \t\t\t  // consuming and producing v...\n      PUSH 24\t\t\te root is rebuilt \n      ADD \t\t\te root is rebuilt \n      PUSH [tag] 512\t\t\t\n      JUMP \t\t\tnal pure returns (bytes32 merk...\n    tag 676\t\t\t\n      JUMPDEST \t\t\t\n      POP \t\t\t\n      POP \t\t\t\n      PUSH 1\t\t\t\n      SWAP1 \t\t\t\n      SWAP4 \t\t\t\n      ADD \t\t\t\n      SWAP3 \t\t\t\n      POP \t\t\t\n      PUSH [tag] 648\t\t\t\n      SWAP2 \t\t\t\n      POP \t\t\t\n      POP \t\t\t\n      JUMP \t\t\t\n    tag 474\t\t\t\n      JUMPDEST \t\t\t\n      DUP1 \t\t\t\n      MLOAD \t\t\t\n      PUSH 20\t\t\t\n      DUP1 \t\t\t\n      DUP4 \t\t\t\n      ADD \t\t\t\n      MLOAD \t\t\t\n      PUSH 40\t\t\t\n      DUP1 \t\t\t\n      DUP6 \t\t\t\n      ADD \t\t\t\n      MLOAD \t\t\t\n      PUSH 60\t\t\t\n      DUP7 \t\t\t\n      ADD \t\t\t\n      MLOAD \t\t\t\n      PUSH 1\t\t\t\n      PUSH 1\t\t\t\n      PUSH A0\t\t\t\n      SHL \t\t\t\n      SUB \t\t\t\n      DUP1 \t\t\t\n      DUP6 \t\t\t\n      AND \t\t\t\n      PUSH 0\t\t\t\n      SWAP1 \t\t\t\n      DUP2 \t\t\t\n      MSTORE \t\t\t\n      PUSH F\t\t\t\n      SWAP1 \t\t\t\n      SWAP7 \t\t\t\n      MSTORE \t\t\t\n      SWAP3 \t\t\t\n      SWAP1 \t\t\t\n      SWAP5 \t\t\t\n      KECCAK256 \t\t\t\n      SLOAD \t\t\t\n      SWAP3 \t\t\t\n      SWAP4 \t\t\t\n      SWAP1 \t\t\t\n      SWAP3 \t\t\t\n      SWAP1 \t\t\t\n      SWAP2 \t\t\t\n      PUSH 100\t\t\t\n      SWAP1 \t\t\t\n      SWAP2 \t\t\t\n      DIV \t\t\t\n      AND \t\t\t\n      PUSH [tag] 679\t\t\t\n      DUP6 \t\t\t\n      DUP6 \t\t\t\n      DUP4 \t\t\t\n      DUP7 \t\t\t\n      DUP7 \t\t\t\n      PUSH [tag] 584\t\t\t\n      JUMP \t\t\t\n    tag 679\t\t\t\n      JUMPDEST \t\t\t\n      ISZERO \t\t\t\n      PUSH [tag] 660\t\t\t\n      JUMPI \t\t\t\n      PUSH 1\t\t\t\n      SLOAD \t\t\t\n      PUSH 40\t\t\t\n      MLOAD \t\t\t\n      PUSH 68BCD8D\t\t\t\n      PUSH E0\t\t\t\n      SHL \t\t\t\n      DUP2 \t\t\t\n      MSTORE \t\t\t\n      PUSH 0\t\t\t\n      SWAP2 \t\t\t\n      PUSH 1\t\t\t\n      PUSH 1\t\t\t\n      PUSH A0\t\t\t\n      SHL \t\t\t\n      SUB \t\t\t\n      PUSHIMMUTABLE 2008\t\t\t\n      AND \t\t\t\n      SWAP2 \t\t\t\n      PUSH 68BCD8D\t\t\t\n      SWAP2 \t\t\t\n      PUSH [tag] 681\t\t\t\n      SWAP2 \t\t\t\n      PUSH 4\t\t\t\n      ADD \t\t\t\n      SWAP1 \t\t\tther than keccak256 for h\n      DUP2 \t\t\tther than keccak256 for h\n      MSTORE \t\t\tther than keccak256 for h\n      PUSH 20\t\t\th \n      ADD \t\t\tg, or use a hash f\n      SWAP1 \t\t\tg, or use a hash f\n      JUMP \t\t\tkstart guide in the readme.\\n ...\n    tag 681\t\t\t\n      JUMPDEST \t\t\t\n      PUSH 0\t\t\t\n      PUSH 40\t\t\t\n      MLOAD \t\t\t\n      DUP1 \t\t\t\n      DUP4 \t\t\t\n      SUB \t\t\t\n      DUP2 \t\t\t\n      DUP7 \t\t\t\n      GAS \t\t\t\n      STATICCALL \t\t\t\n      ISZERO \t\t\t\n      DUP1 \t\t\t\n      ISZERO \t\t\t\n      PUSH [tag] 683\t\t\t\n      JUMPI \t\t\t\n      RETURNDATASIZE \t\t\t\n      PUSH 0\t\t\t\n      DUP1 \t\t\t\n      RETURNDATACOPY \t\t\t\n      RETURNDATASIZE \t\t\t\n      PUSH 0\t\t\t\n      REVERT \t\t\t\n    tag 683\t\t\t\n      JUMPDEST \t\t\t\n      POP \t\t\t\n      POP \t\t\t\n      POP \t\t\t\n      POP \t\t\t\n      PUSH 40\t\t\t\n      MLOAD \t\t\t\n      RETURNDATASIZE \t\t\t\n      PUSH 0\t\t\t\n      DUP3 \t\t\t\n      RETURNDATACOPY \t\t\t\n      PUSH 1F\t\t\t\n      RETURNDATASIZE \t\t\t\n      SWAP1 \t\t\t\n      DUP2 \t\t\t\n      ADD \t\t\t\n      PUSH 1F\t\t\t\n      NOT \t\t\t\n      AND \t\t\t\n      DUP3 \t\t\t\n      ADD \t\t\t\n      PUSH 40\t\t\t\n      MSTORE \t\t\t\n      PUSH [tag] 684\t\t\t\n      SWAP2 \t\t\t\n      SWAP1 \t\t\t\n      DUP2 \t\t\t\n      ADD \t\t\t\n      SWAP1 \t\t\t\n      PUSH [tag] 302\t\t\t\n      JUMP \t\t\t\n    tag 684\t\t\t\n      JUMPDEST \t\t\t\n      SWAP1 \t\t\t\n      POP \t\t\t\n      PUSH [tag] 685\t\t\t\n      DUP7 \t\t\t\n      PUSH [tag] 662\t\t\t\n      JUMP \t\t\t\n    tag 685\t\t\t\n      JUMPDEST \t\t\t\n      DUP4 \t\t\t\n      PUSH 2\t\t\t\n      PUSH 0\t\t\t\n      DUP3 \t\t\t\n      DUP3 \t\t\t\n      SLOAD \t\t\t\n      PUSH [tag] 686\t\t\t\n      SWAP2 \t\t\t\n      SWAP1 \t\t\t\n      PUSH [tag] 305\t\t\t\n      JUMP \t\t\t\n    tag 686\t\t\t\n      JUMPDEST \t\t\t\n      SWAP1 \t\t\t\n      SWAP2 \t\t\t\n      SSTORE \t\t\t\n      POP \t\t\t\n      POP \t\t\t\n      PUSH 40\t\t\t\n      DUP2 \t\t\t\n      ADD \t\t\t\n      MLOAD \t\t\t\n      PUSH [tag] 687\t\t\t\n      SWAP1 \t\t\t\n      DUP4 \t\t\t\n      DUP7 \t\t\t\n      PUSH [tag] 307\t\t\t\n      JUMP \t\t\t\n    tag 687\t\t\t\n      JUMPDEST \t\t\t\n      PUSH 40\t\t\t\n      DUP1 \t\t\t\n      DUP3 \t\t\t\n      ADD \t\t\t\n      MLOAD \t\t\t\n      DUP2 \t\t\t\n      MLOAD \t\t\t\n      DUP7 \t\t\t⠀⠀⠀⠀⠀⠀⠀⠀⠀⠀⠀⠀⠀⠀⠀⠀⠀⠀⠀⠀\\n// ⠀\n      DUP2 \t\t\t⠀⠀⠀⠀⠀⠀⠀⠀⠀⠀⠀⠀⠀⠀⠀⠀⠀⠀⠀⠀\\n// ⠀\n      MSTORE \t\t\t⠀⠀⠀⠀⠀⠀⠀⠀⠀⠀⠀⠀⠀⠀⠀⠀⠀⠀⠀⠀\\n// ⠀\n      PUSH 1\t\t\t\n      PUSH 1\t\t\t\n      PUSH A0\t\t\t\n      SHL \t\t\t\n      SUB \t\t\t\n      DUP6 \t\t\t⠀⠀⠀⠀⠀⠀⠀⢠⣿⣿⣿⡿⠀⠀⠸⣿⣿⣿⣧⠀⠀⠀⠀⠀⠀⠀⠀⢸⣿⣿...\n      DUP2 \t\t\t⠀⠀⠀⠀⠀⠀⠀⢠⣿⣿⣿⡿⠀⠀⠸⣿⣿⣿⣧⠀⠀⠀⠀⠀⠀⠀⠀⢸⣿⣿...\n      AND \t\t\t⠀⠀⠀⠀⠀⠀⠀⢠⣿⣿⣿⡿⠀⠀⠸⣿⣿⣿⣧⠀⠀⠀⠀⠀⠀⠀⠀⢸⣿⣿...\n      PUSH 20\t\t\t⠀⠀\n      DUP4 \t\t\t⣿⣿⣿⣿⣿⣿⣿⡆⠀⠀⠀⠀⠀⠀⠀⠀⠀⠀\n      ADD \t\t\t⣿⣿⣿⣿⣿⣿⣿⡆⠀⠀⠀⠀⠀⠀⠀⠀⠀⠀\n      MSTORE \t\t\t⣾⣿⣿⣿⣿⣾⠻⣿⣿⣿⣿⣿⣿⣿⡆⠀⠀⠀⠀⠀⠀⠀⠀⠀⠀⠀⠀⠀⠀⠀...\n      DUP1 \t\t\t\n      DUP10 \t\t\t\n      AND \t\t\t\n      SWAP4 \t\t\t\n      SWAP3 \t\t\t\n      AND \t\t\t\n      SWAP2 \t\t\t\n      PUSH A6B66F665010D2F7435F110111AAA34B56564074F66081BEF606D996FC8CAA6F\t\t\t\n      SWAP2 \t\t\t\n      ADD \t\t\t⣿⣷⡀⠀⠀⠀⠀⠀⠀⠀⠀⢸⣿⣿⣿⣗⠀⠀\n      PUSH 40\t\t\t\n      MLOAD \t\t\t\n      DUP1 \t\t\t\n      SWAP2 \t\t\t\n      SUB \t\t\t\n      SWAP1 \t\t\t\n      LOG3 \t\t\t\n      POP \t\t\t\n    tag 689\t\t\t\n      JUMPDEST \t\t\t\n      POP \t\t\t\n      POP \t\t\t\n      POP \t\t\t\n      POP \t\t\t\n      POP \t\t\t\n      POP \t\t\t\n      JUMP \t\t\t\n    tag 499\t\t\t\\ntype StreamConfig is uint256...\n      JUMPDEST \t\t\t\\ntype StreamConfig is uint256...\n      PUSH 9\t\t\tw StreamC\n      SLOAD \t\t\tw StreamC\n      PUSH 40\t\t\tw StreamConfig.\\n    /// @para...\n      MLOAD \t\t\tw StreamConfig.\\n    /// @para...\n      PUSH DD93DA43\t\t\t\n      PUSH E0\t\t\t\n      SHL \t\t\t\n      DUP2 \t\t\tw StreamConfig.\\n    /// @para...\n      MSTORE \t\t\tw StreamConfig.\\n    /// @para...\n      PUSH 1\t\t\t\n      PUSH 1\t\t\t\n      PUSH A0\t\t\t\n      SHL \t\t\t\n      SUB \t\t\t\n      DUP5 \t\t\t producing values on a queue. ...\n      DUP2 \t\t\t producing values on a queue. ...\n      AND \t\t\t producing values on a queue. ...\n      PUSH 4\t\t\tw StreamConfig.\\n    /// @para...\n      DUP4 \t\t\tw StreamConfig.\\n    /// @para...\n      ADD \t\t\tw StreamConfig.\\n    /// @para...\n      MSTORE \t\t\t  // consuming and producing v...\n      PUSH 0\t\t\trary\n      SWAP3 \t\t\trary\n      DUP4 \t\t\trary\n      SWAP3 \t\t\trary\n      SWAP2 \t\t\tw StreamC\n      AND \t\t\tw StreamC\n      SWAP1 \t\t\tw StreamC\n      PUSH DD93DA43\t\t\tw StreamConfig.\\n    /// @par\n      SWAP1 \t\t\tw StreamConfig.\\n    /// @par\n      PUSH 24\t\t\te root is rebuilt \n      ADD \t\t\te root is rebuilt \n      PUSH 0\t\t\tw StreamConfig.\\n    /// @para...\n      PUSH 40\t\t\tw StreamConfig.\\n    /// @para...\n      MLOAD \t\t\tw StreamConfig.\\n    /// @para...\n      DUP1 \t\t\tw StreamConfig.\\n    /// @para...\n      DUP4 \t\t\tw StreamConfig.\\n    /// @para...\n      SUB \t\t\tw StreamConfig.\\n    /// @para...\n      DUP2 \t\t\tw StreamConfig.\\n    /// @para...\n      DUP7 \t\t\tw StreamConfig.\\n    /// @para...\n      GAS \t\t\tw StreamConfig.\\n    /// @para...\n      STATICCALL \t\t\tw StreamConfig.\\n    /// @para...\n      ISZERO \t\t\tw StreamConfig.\\n    /// @para...\n      DUP1 \t\t\tw StreamConfig.\\n    /// @para...\n      ISZERO \t\t\tw StreamConfig.\\n    /// @para...\n      PUSH [tag] 694\t\t\tw StreamConfig.\\n    /// @para...\n      JUMPI \t\t\tw StreamConfig.\\n    /// @para...\n      RETURNDATASIZE \t\t\tw StreamConfig.\\n    /// @para...\n      PUSH 0\t\t\tw StreamConfig.\\n    /// @para...\n      DUP1 \t\t\tw StreamConfig.\\n    /// @para...\n      RETURNDATACOPY \t\t\tw StreamConfig.\\n    /// @para...\n      RETURNDATASIZE \t\t\tw StreamConfig.\\n    /// @para...\n      PUSH 0\t\t\tw StreamConfig.\\n    /// @para...\n      REVERT \t\t\tw StreamConfig.\\n    /// @para...\n    tag 694\t\t\tw StreamConfig.\\n    /// @para...\n      JUMPDEST \t\t\tw StreamConfig.\\n    /// @para...\n      POP \t\t\tw StreamConfig.\\n    /// @para...\n      POP \t\t\tw StreamConfig.\\n    /// @para...\n      POP \t\t\tw StreamConfig.\\n    /// @para...\n      POP \t\t\tw StreamConfig.\\n    /// @para...\n      PUSH 40\t\t\tw StreamConfig.\\n    /// @para...\n      MLOAD \t\t\tw StreamConfig.\\n    /// @para...\n      RETURNDATASIZE \t\t\tw StreamConfig.\\n    /// @para...\n      PUSH 0\t\t\tw StreamConfig.\\n    /// @para...\n      DUP3 \t\t\tw StreamConfig.\\n    /// @para...\n      RETURNDATACOPY \t\t\tw StreamConfig.\\n    /// @para...\n      PUSH 1F\t\t\tw StreamConfig.\\n    /// @para...\n      RETURNDATASIZE \t\t\tw StreamConfig.\\n    /// @para...\n      SWAP1 \t\t\tw StreamConfig.\\n    /// @para...\n      DUP2 \t\t\tw StreamConfig.\\n    /// @para...\n      ADD \t\t\tw StreamConfig.\\n    /// @para...\n      PUSH 1F\t\t\t\n      NOT \t\t\t\n      AND \t\t\tw StreamConfig.\\n    /// @para...\n      DUP3 \t\t\tw StreamConfig.\\n    /// @para...\n      ADD \t\t\tw StreamConfig.\\n    /// @para...\n      PUSH 40\t\t\tw StreamConfig.\\n    /// @para...\n      MSTORE \t\t\tw StreamConfig.\\n    /// @para...\n      PUSH [tag] 695\t\t\tw StreamConfig.\\n    /// @para...\n      SWAP2 \t\t\tw StreamConfig.\\n    /// @para...\n      SWAP1 \t\t\tw StreamConfig.\\n    /// @para...\n      DUP2 \t\t\tw StreamConfig.\\n    /// @para...\n      ADD \t\t\tw StreamConfig.\\n    /// @para...\n      SWAP1 \t\t\tw StreamConfig.\\n    /// @para...\n      PUSH [tag] 696\t\t\tw StreamConfig.\\n    /// @para...\n      JUMP \t\t\tw StreamConfig.\\n    /// @para...\n    tag 695\t\t\tw StreamConfig.\\n    /// @para...\n      JUMPDEST \t\t\tw StreamConfig.\\n    /// @para...\n      PUSH 9\t\t\tnumber us\n      SLOAD \t\t\tnumber us\n      DUP2 \t\t\t   /// It'\n      MLOAD \t\t\t   /// It'\n      PUSH 40\t\t\tnumber used to identify a stre...\n      MLOAD \t\t\tnumber used to identify a stre...\n      PUSH 5E8A7915\t\t\t\n      PUSH E0\t\t\t\n      SHL \t\t\t\n      DUP2 \t\t\tnumber used to identify a stre...\n      MSTORE \t\t\tnumber used to identify a stre...\n      PUSH 4\t\t\tnumber used to identify a stre...\n      DUP2 \t\t\tnumber used to identify a stre...\n      ADD \t\t\tnumber used to identify a stre...\n      SWAP2 \t\t\t⠀⠀⠀⠀⠀⠀⠀⠀⠀⠀⠀⠀⠀⠀⠀⠀⠀⠀⠀⠀\\n// ⠀\n      SWAP1 \t\t\t⠀⠀⠀⠀⠀⠀⠀⠀⠀⠀⠀⠀⠀⠀⠀⠀⠀⠀⠀⠀\\n// ⠀\n      SWAP2 \t\t\t⠀⠀⠀⠀⠀⠀⠀⠀⠀⠀⠀⠀⠀⠀⠀⠀⠀⠀⠀⠀\\n// ⠀\n      MSTORE \t\t\t⠀⠀⠀⠀⠀⠀⠀⠀⠀⠀⠀⠀⠀⠀⠀⠀⠀⠀⠀⠀\\n// ⠀\n      PUSH 1\t\t\t\n      PUSH 1\t\t\t\n      PUSH A0\t\t\t\n      SHL \t\t\t\n      SUB \t\t\t\n      DUP7 \t\t\t⠀⠀⠀⠀⠀⠀⠀⢠⣿⣿⣿⡿⠀⠀⠸⣿⣿⣿⣧⠀⠀⠀⠀⠀⠀⠀⠀⢸⣿⣿...\n      DUP2 \t\t\t⠀⠀⠀⠀⠀⠀⠀⢠⣿⣿⣿⡿⠀⠀⠸⣿⣿⣿⣧⠀⠀⠀⠀⠀⠀⠀⠀⢸⣿⣿...\n      AND \t\t\t⠀⠀⠀⠀⠀⠀⠀⢠⣿⣿⣿⡿⠀⠀⠸⣿⣿⣿⣧⠀⠀⠀⠀⠀⠀⠀⠀⢸⣿⣿...\n      PUSH 24\t\t\t⣿⣿⣿⣿⣿⣿⣿⡆⠀⠀⠀⠀⠀⠀⠀⠀⠀⠀\n      DUP4 \t\t\t⣿⣿⣿⣿⣿⣿⣿⡆⠀⠀⠀⠀⠀⠀⠀⠀⠀⠀\n      ADD \t\t\t⣿⣿⣿⣿⣿⣿⣿⡆⠀⠀⠀⠀⠀⠀⠀⠀⠀⠀\n      MSTORE \t\t\t⣾⣿⣿⣿⣿⣾⠻⣿⣿⣿⣿⣿⣿⣿⡆⠀⠀⠀⠀⠀⠀⠀⠀⠀⠀⠀⠀⠀⠀⠀...\n      SWAP3 \t\t\t   /// It'\n      SWAP4 \t\t\t   /// It'\n      POP \t\t\t\n      SWAP2 \t\t\tnumber us\n      AND \t\t\tnumber us\n      SWAP1 \t\t\tnumber us\n      PUSH 5E8A7915\t\t\tnumber used to identify a stre...\n      SWAP1 \t\t\tnumber used to identify a stre...\n      PUSH 44\t\t\t⣿⣷⡀⠀⠀⠀⠀⠀⠀⠀⠀⢸⣿⣿⣿⣗⠀⠀\n      ADD \t\t\t⣿⣷⡀⠀⠀⠀⠀⠀⠀⠀⠀⢸⣿⣿⣿⣗⠀⠀\n      PUSH 20\t\t\tnumber used to identify a stre...\n      PUSH 40\t\t\tnumber used to identify a stre...\n      MLOAD \t\t\tnumber used to identify a stre...\n      DUP1 \t\t\tnumber used to identify a stre...\n      DUP4 \t\t\tnumber used to identify a stre...\n      SUB \t\t\tnumber used to identify a stre...\n      DUP2 \t\t\tnumber used to identify a stre...\n      DUP7 \t\t\tnumber used to identify a stre...\n      GAS \t\t\tnumber used to identify a stre...\n      STATICCALL \t\t\tnumber used to identify a stre...\n      ISZERO \t\t\tnumber used to identify a stre...\n      DUP1 \t\t\tnumber used to identify a stre...\n      ISZERO \t\t\tnumber used to identify a stre...\n      PUSH [tag] 700\t\t\tnumber used to identify a stre...\n      JUMPI \t\t\tnumber used to identify a stre...\n      RETURNDATASIZE \t\t\tnumber used to identify a stre...\n      PUSH 0\t\t\tnumber used to identify a stre...\n      DUP1 \t\t\tnumber used to identify a stre...\n      RETURNDATACOPY \t\t\tnumber used to identify a stre...\n      RETURNDATASIZE \t\t\tnumber used to identify a stre...\n      PUSH 0\t\t\tnumber used to identify a stre...\n      REVERT \t\t\tnumber used to identify a stre...\n    tag 700\t\t\tnumber used to identify a stre...\n      JUMPDEST \t\t\tnumber used to identify a stre...\n      POP \t\t\tnumber used to identify a stre...\n      POP \t\t\tnumber used to identify a stre...\n      POP \t\t\tnumber used to identify a stre...\n      POP \t\t\tnumber used to identify a stre...\n      PUSH 40\t\t\tnumber used to identify a stre...\n      MLOAD \t\t\tnumber used to identify a stre...\n      RETURNDATASIZE \t\t\tnumber used to identify a stre...\n      PUSH 1F\t\t\tnumber used to identify a stre...\n      NOT \t\t\tnumber used to identify a stre...\n      PUSH 1F\t\t\tnumber used to identify a stre...\n      DUP3 \t\t\tnumber used to identify a stre...\n      ADD \t\t\tnumber used to identify a stre...\n      AND \t\t\tnumber used to identify a stre...\n      DUP3 \t\t\tnumber used to identify a stre...\n      ADD \t\t\tnumber used to identify a stre...\n      DUP1 \t\t\tnumber used to identify a stre...\n      PUSH 40\t\t\tnumber used to identify a stre...\n      MSTORE \t\t\tnumber used to identify a stre...\n      POP \t\t\tnumber used to identify a stre...\n      DUP2 \t\t\tnumber used to identify a stre...\n      ADD \t\t\tnumber used to identify a stre...\n      SWAP1 \t\t\tnumber used to identify a stre...\n      PUSH [tag] 701\t\t\tnumber used to identify a stre...\n      SWAP2 \t\t\tnumber used to identify a stre...\n      SWAP1 \t\t\tnumber used to identify a stre...\n      PUSH [tag] 481\t\t\tnumber used to identify a stre...\n      JUMP \t\t\tnumber used to identify a stre...\n    tag 701\t\t\tnumber used to identify a stre...\n      JUMPDEST \t\t\tnumber used to identify a stre...\n      SWAP5 \t\t\titrary number used to identify...\n      SWAP4 \t\t\t\\ntype StreamConfig is uint256...\n      POP \t\t\t\n      POP \t\t\t\n      POP \t\t\t\n      POP \t\t\t\n      JUMP \t\t\t\\ntype StreamConfig is uint256...\n    tag 517\t\t\t// ========= Initialize ======...\n      JUMPDEST \t\t\t// ========= Initialize ======...\n      PUSH 0\t\t\t  /// @notic\n      DUP1 \t\t\t_poolId The 'poo\n      PUSH 0\t\t\td' to initialize\\n \n      PUSH [tag] 703\t\t\t// @param _initializeData The ...\n      DUP5 \t\t\teData The da\n      PUSH [tag] 704\t\t\t// @param _initiali\n      JUMP \t\t\t// @param _initializeData The ...\n    tag 703\t\t\t// @param _initializeData The ...\n      JUMPDEST \t\t\t// @param _initializeData The ...\n      PUSH F\t\t\t) \n      SWAP2 \t\t\tata memory _initialize\n      SHR \t\t\tata memory _initialize\n      AND \t\t\tData memory _initializeData) \n      SWAP6 \t\t\tData memory _initializeData) \n      SWAP5 \t\t\t// ========= Initialize ======...\n      POP \t\t\t\n      POP \t\t\t\n      POP \t\t\t\n      POP \t\t\t\n      POP \t\t\t\n      JUMP \t\t\t// ========= Initialize ======...\n    tag 525\t\t\tr;\\n    AddressDriver public d...\n      JUMPDEST \t\t\tr;\\n    AddressDriver public d...\n      PUSH 0\t\t\t================\n      DUP1 \t\t\t=============\\n  \n      PUSH 0\t\t\t/// ======== Const\n      PUSH [tag] 706\t\t\tor ==========\\n    /// =======...\n      DUP6 \t\t\t/ ==========\n      PUSH [tag] 704\t\t\tor ==========\\n    /\n      JUMP \t\t\tor ==========\\n    /// =======...\n    tag 706\t\t\tor ==========\\n    /// =======...\n      JUMPDEST \t\t\tor ==========\\n    /// =======...\n      PUSH 0\t\t\tctor for the D\n      SWAP3 \t\t\t    /// @param _name The\n      DUP4 \t\t\t    /// @param _name The\n      MSTORE \t\t\t    /// @param _name The\n      PUSH B\t\t\t    /// @param\n      PUSH 20\t\t\t    /// @param _name The\n      MSTORE \t\t\t    /// @param _name The\n      PUSH 40\t\t\t    /// @param _name The\n      SWAP1 \t\t\t    /// @param _name The\n      SWAP3 \t\t\t    /// @param _name The\n      KECCAK256 \t\t\t    /// @param _name The\n      SWAP6 \t\t\tstrategy\\n    constr\n      DUP2 \t\t\tstrategy\\n    constr\n      SHL \t\t\tstrategy\\n    constr\n      PUSH F\t\t\tkl\n      SWAP1 \t\t\tkle Distributi\n      SWAP2 \t\t\tkle Distributi\n      SHL \t\t\tkle Distributi\n      NOT \t\t\terkle Distributio\n      SWAP1 \t\t\ttion Voting Merkle Distributio\n      SWAP2 \t\t\ttion Voting Merkle Distributio\n      AND \t\t\ttion Voting Merkle Distributio\n      OR \t\t\tme of the strategy\\n    constr...\n      SWAP1 \t\t\t    /// @param _name The name ...\n      SWAP4 \t\t\t    /// @param _name The name ...\n      SSTORE \t\t\t    /// @param _name The name ...\n      POP \t\t\t\n      POP \t\t\t\n      POP \t\t\t\n      POP \t\t\t\n      JUMP \t\t\tr;\\n    AddressDriver public d...\n    tag 553\t\t\taluated from right to left.\\n ...\n      JUMPDEST \t\t\taluated from right to left.\\n ...\n      PUSH 0\t\t\t of \n      DUP1 \t\t\tlect\n      PUSH 0\t\t\tion \n      DUP1 \t\t\t fun\n      DUP5 \t\t\ttore t\n      DUP7 \t\t\t//\n      GAS \t\t\t     \n      CALL \t\t\t            // Store the funct...\n      PUSH [tag] 430\t\t\t  ) {\\n                // Stor...\n      JUMPI \t\t\t  ) {\\n                // Stor...\n      PUSH B12D13EB\t\t\t\\n         \n      PUSH 0\t\t\tsize\n      MSTORE \t\t\tffset, size).\\n          \n      PUSH 4\t\t\t the\n      PUSH 1C\t\t\t Sto\n      REVERT \t\t\t to) // Store the \n    tag 556\t\t\t⠀⠀⠀⠀⠀⠀⠀⠠⠿⠻⠟⠿⠃⠀⠀⠀⠀⠀⠀⠀⠀⠀⠀⠀⠀⠀⠀⠸⠟⠿...\n      JUMPDEST \t\t\t⠀⠀⠀⠀⠀⠀⠀⠠⠿⠻⠟⠿⠃⠀⠀⠀⠀⠀⠀⠀⠀⠀⠀⠀⠀⠀⠀⠸⠟⠿...\n      DUP2 \t\t\tmc\n      PUSH 14\t\t\tston\n      MSTORE \t\t\t @thelostone-mc \n      DUP1 \t\t\tamejas\n      PUSH 34\t\t\t@cod\n      MSTORE \t\t\tn.co>, @codenamejaso\n      PUSH A9059CBB\t\t\t\n      PUSH 60\t\t\t\n      SHL \t\t\t\n      PUSH 0\t\t\ts wi\n      MSTORE \t\t\tr tokens within Allo protocol\\...\n      PUSH 20\t\t\t/// \n      PUSH 0\t\t\ts\\n  \n      PUSH 44\t\t\tdres\n      PUSH 10\t\t\t of \n      PUSH 0\t\t\tr\n      DUP8 \t\t\to an \n      GAS \t\t\ttoken\n      CALL \t\t\tof a token to an array of addr...\n      RETURNDATASIZE \t\t\t  }\\n\\n    /// @no\n      ISZERO \t\t\tunt;\\n    }\\n\\n    /// @not\n      PUSH 1\t\t\t \n      PUSH 0\t\t\tuint\n      MLOAD \t\t\t      uint2\n      EQ \t\t\t\\n        uint256 a\n      OR \t\t\tto;\\n        uint256 amount;\\n...\n      AND \t\t\tact Transfer is Native {\\n    ...\n      PUSH [tag] 710\t\t\t tokens to an address\\ncontrac...\n      JUMPI \t\t\t tokens to an address\\ncontrac...\n      PUSH 90B8EC18\t\t\tor not\\n   \n      PUSH 0\t\t\tssfu\n      MSTORE \t\t\ts successful or not\\n    \n      PUSH 4\t\t\tData\n      PUSH 1C\t\t\tansf\n      REVERT \t\t\tory _transferData)\n    tag 710\t\t\t tokens to an address\\ncontrac...\n      JUMPDEST \t\t\t tokens to an address\\ncontrac...\n      PUSH 0\t\t\t \n      PUSH 34\t\t\t) {\\n\n      MSTORE \t\t\tlength;) {\\n    \n      POP \t\t\t⠀⠀⠀⠀⠀⠀⠀⠠⠿⠻⠟⠿⠃⠀⠀⠀⠀⠀⠀⠀⠀⠀⠀⠀⠀⠀⠀⠸⠟⠿...\n      POP \t\t\t⠀⠀⠀⠀⠀⠀⠀⠠⠿⠻⠟⠿⠃⠀⠀⠀⠀⠀⠀⠀⠀⠀⠀⠀⠀⠀⠀⠸⠟⠿...\n      POP \t\t\t⠀⠀⠀⠀⠀⠀⠀⠠⠿⠻⠟⠿⠃⠀⠀⠀⠀⠀⠀⠀⠀⠀⠀⠀⠀⠀⠀⠸⠟⠿...\n      JUMP \t\t\t⠀⠀⠀⠀⠀⠀⠀⠠⠿⠻⠟⠿⠃⠀⠀⠀⠀⠀⠀⠀⠀⠀⠀⠀⠀⠀⠀⠸⠟⠿...\n    tag 577\t\t\tfunction functionDelegateCall(...\n      JUMPDEST \t\t\tfunction functionDelegateCall(...\n      PUSH 60\t\t\tbytes memory\n      PUSH 0\t\t\tbool success\n      DUP1 \t\t\tbytes memory returndata\n      DUP6 \t\t\ttarget\n      PUSH 1\t\t\t\n      PUSH 1\t\t\t\n      PUSH A0\t\t\t\n      SHL \t\t\t\n      SUB \t\t\t\n      AND \t\t\ttarget.delegatecall\n      DUP6 \t\t\tdata\n      PUSH 40\t\t\ttarget.delegatecall(data)\n      MLOAD \t\t\ttarget.delegatecall(data)\n      PUSH [tag] 712\t\t\ttarget.delegatecall(data)\n      SWAP2 \t\t\ttarget.delegatecall(data)\n      SWAP1 \t\t\ttarget.delegatecall(data)\n      PUSH [tag] 713\t\t\ttarget.delegatecall(data)\n      JUMP \t\t\ttarget.delegatecall(data)\n    tag 712\t\t\ttarget.delegatecall(data)\n      JUMPDEST \t\t\ttarget.delegatecall(data)\n      PUSH 0\t\t\ttarget.delegatecall(data)\n      PUSH 40\t\t\ttarget.delegatecall(data)\n      MLOAD \t\t\ttarget.delegatecall(data)\n      DUP1 \t\t\ttarget.delegatecall(data)\n      DUP4 \t\t\ttarget.delegatecall(data)\n      SUB \t\t\ttarget.delegatecall(data)\n      DUP2 \t\t\ttarget.delegatecall(data)\n      DUP6 \t\t\ttarget.delegatecall(data)\n      GAS \t\t\ttarget.delegatecall(data)\n      DELEGATECALL \t\t\ttarget.delegatecall(data)\n      SWAP2 \t\t\ttarget.delegatecall(data)\n      POP \t\t\ttarget.delegatecall(data)\n      POP \t\t\ttarget.delegatecall(data)\n      RETURNDATASIZE \t\t\ttarget.delegatecall(data)\n      DUP1 \t\t\ttarget.delegatecall(data)\n      PUSH 0\t\t\ttarget.delegatecall(data)\n      DUP2 \t\t\ttarget.delegatecall(data)\n      EQ \t\t\ttarget.delegatecall(data)\n      PUSH [tag] 716\t\t\ttarget.delegatecall(data)\n      JUMPI \t\t\ttarget.delegatecall(data)\n      PUSH 40\t\t\ttarget.delegatecall(data)\n      MLOAD \t\t\ttarget.delegatecall(data)\n      SWAP2 \t\t\ttarget.delegatecall(data)\n      POP \t\t\ttarget.delegatecall(data)\n      PUSH 1F\t\t\ttarget.delegatecall(data)\n      NOT \t\t\ttarget.delegatecall(data)\n      PUSH 3F\t\t\ttarget.delegatecall(data)\n      RETURNDATASIZE \t\t\ttarget.delegatecall(data)\n      ADD \t\t\ttarget.delegatecall(data)\n      AND \t\t\ttarget.delegatecall(data)\n      DUP3 \t\t\ttarget.delegatecall(data)\n      ADD \t\t\ttarget.delegatecall(data)\n      PUSH 40\t\t\ttarget.delegatecall(data)\n      MSTORE \t\t\ttarget.delegatecall(data)\n      RETURNDATASIZE \t\t\ttarget.delegatecall(data)\n      DUP3 \t\t\ttarget.delegatecall(data)\n      MSTORE \t\t\ttarget.delegatecall(data)\n      RETURNDATASIZE \t\t\ttarget.delegatecall(data)\n      PUSH 0\t\t\ttarget.delegatecall(data)\n      PUSH 20\t\t\ttarget.delegatecall(data)\n      DUP5 \t\t\ttarget.delegatecall(data)\n      ADD \t\t\ttarget.delegatecall(data)\n      RETURNDATACOPY \t\t\ttarget.delegatecall(data)\n      PUSH [tag] 715\t\t\ttarget.delegatecall(data)\n      JUMP \t\t\ttarget.delegatecall(data)\n    tag 716\t\t\ttarget.delegatecall(data)\n      JUMPDEST \t\t\ttarget.delegatecall(data)\n      PUSH 60\t\t\ttarget.delegatecall(data)\n      SWAP2 \t\t\ttarget.delegatecall(data)\n      POP \t\t\ttarget.delegatecall(data)\n    tag 715\t\t\ttarget.delegatecall(data)\n      JUMPDEST \t\t\ttarget.delegatecall(data)\n      POP \t\t\ttarget.delegatecall(data)\n      SWAP2 \t\t\t(bool success, bytes memory re...\n      POP \t\t\t(bool success, bytes memory re...\n      SWAP2 \t\t\t(bool success, bytes memory re...\n      POP \t\t\t(bool success, bytes memory re...\n      PUSH [tag] 717\t\t\tverifyCallResultFromTarget(tar...\n      DUP7 \t\t\ttarget\n      DUP4 \t\t\tsuccess\n      DUP4 \t\t\treturndata\n      DUP8 \t\t\terrorMessage\n      PUSH [tag] 718\t\t\tverifyCallResultFromTarget\n      JUMP \t\t\tverifyCallResultFromTarget(tar...\n    tag 717\t\t\tverifyCallResultFromTarget(tar...\n      JUMPDEST \t\t\tverifyCallResultFromTarget(tar...\n      SWAP7 \t\t\treturn verifyCallResultFromTar...\n      SWAP6 \t\t\tfunction functionDelegateCall(...\n      POP \t\t\t\n      POP \t\t\t\n      POP \t\t\t\n      POP \t\t\t\n      POP \t\t\t\n      POP \t\t\t\n      JUMP \t\t\tfunction functionDelegateCall(...\n    tag 584\t\t\tnfig.wrap(config);\\n    }\\n\\n ...\n      JUMPDEST \t\t\tnfig.wrap(config);\\n    }\\n\\n ...\n      PUSH 0\t\t\t bit\n      PUSH [tag] 720\t\t\ting we get value:\\n        /\n      DUP7 \t\t\t      \n      PUSH [tag] 338\t\t\ting we get value:\\n \n      JUMP \t\t\ting we get value:\\n        /\n    tag 720\t\t\ting we get value:\\n        /\n      JUMPDEST \t\t\ting we get value:\\n        /\n      ISZERO \t\t\thifting we get value:\\n       ...\n      PUSH [tag] 721\t\t\thifting we get value:\\n       ...\n      JUMPI \t\t\thifting we get value:\\n       ...\n      POP \t\t\t\n      PUSH 0\t\t\ttream\n      PUSH [tag] 719\t\t\tts) | stream\n      JUMP \t\t\tts) | stream\n    tag 721\t\t\thifting we get value:\\n       ...\n      JUMPDEST \t\t\thifting we get value:\\n       ...\n      PUSH 40\t\t\t224);\\n    }\\n\\n    /// @notic...\n      DUP1 \t\t\t224);\\n    }\\n\\n    /// @notic...\n      MLOAD \t\t\t224);\\n    }\\n\\n    /// @notic...\n      PUSH 20\t\t\t224);\\n    }\\n\\n    /// @notic...\n      DUP2 \t\t\t224);\\n    }\\n\\n    /// @notic...\n      ADD \t\t\t224);\\n    }\\n\\n    /// @notic...\n      DUP9 \t\t\t uint256 amount,\\n        \n      SWAP1 \t\t\t uint256 amount,\\n        \n      MSTORE \t\t\t uint256 amount,\\n        \n      PUSH 1\t\t\t\n      PUSH 1\t\t\t\n      PUSH A0\t\t\t\n      SHL \t\t\t\n      SUB \t\t\t\n      DUP1 \t\t\t updated\\n    //\n      DUP9 \t\t\t updated\\n    //\n      AND \t\t\t updated\\n    //\n      SWAP3 \t\t\t a pools metadata \n      DUP3 \t\t\t a pools metadata \n      ADD \t\t\t a pools metadata \n      SWAP3 \t\t\ted when a pools metadata is up...\n      SWAP1 \t\t\ted when a pools metadata is up...\n      SWAP3 \t\t\ted when a pools metadata is up...\n      MSTORE \t\t\ted when a pools metadata is up...\n      SWAP1 \t\t\td\\n    /// @para\n      DUP6 \t\t\td\\n    /// @para\n      AND \t\t\td\\n    /// @para\n      PUSH 60\t\t\tD of the pool upda\n      DUP3 \t\t\tD of the pool upda\n      ADD \t\t\tD of the pool upda\n      MSTORE \t\t\toolId ID of the pool updated\\n...\n      PUSH 80\t\t\tetadata that was u\n      DUP2 \t\t\tetadata that was u\n      ADD \t\t\tetadata that was u\n      DUP5 \t\t\t Pool metadata that was update...\n      SWAP1 \t\t\t Pool metadata that was update...\n      MSTORE \t\t\t Pool metadata that was update...\n      PUSH 0\t\t\t   return ui\n      SWAP1 \t\t\t   return ui\n      PUSH A0\t\t\t      address token\n      ADD \t\t\t      address token\n      PUSH 40\t\t\t224);\\n    }\\n\\n    /// @notic...\n      DUP1 \t\t\t224);\\n    }\\n\\n    /// @notic...\n      MLOAD \t\t\t224);\\n    }\\n\\n    /// @notic...\n      PUSH 1F\t\t\t\n      NOT \t\t\t\n      DUP2 \t\t\t224);\\n    }\\n\\n    /// @notic...\n      DUP5 \t\t\t224);\\n    }\\n\\n    /// @notic...\n      SUB \t\t\t224);\\n    }\\n\\n    /// @notic...\n      ADD \t\t\t224);\\n    }\\n\\n    /// @notic...\n      DUP2 \t\t\t224);\\n    }\\n\\n    /// @notic...\n      MSTORE \t\t\t224);\\n    }\\n\\n    /// @notic...\n      DUP3 \t\t\t224);\\n    }\\n\\n    /// @notic...\n      DUP3 \t\t\t224);\\n    }\\n\\n    /// @notic...\n      MSTORE \t\t\t224);\\n    }\\n\\n    /// @notic...\n      DUP1 \t\t\tonfig) >> 224);\\n    }\\n\\n    ...\n      MLOAD \t\t\tonfig) >> 224);\\n    }\\n\\n    ...\n      PUSH 20\t\t\t224);\\n    }\\n\\n    /// @notic...\n      SWAP2 \t\t\tonfig) >> 224);\\n    }\\n\\n    ...\n      DUP3 \t\t\tonfig) >> 224);\\n    }\\n\\n    ...\n      ADD \t\t\tonfig) >> 224);\\n    }\\n\\n    ...\n      KECCAK256 \t\t\tonfig) >> 224);\\n    }\\n\\n    ...\n      SWAP1 \t\t\tnfig.unwrap(config) >> 224);\\n...\n      DUP4 \t\t\tnfig.unwrap(config) >> 224);\\n...\n      ADD \t\t\tnfig.unwrap(config) >> 224);\\n...\n      MSTORE \t\t\t ID of the pool fun\n      ADD \t\t\tam amount Am\n      PUSH 40\t\t\tnfig.unwrap(config) >> 224);\\n...\n      MLOAD \t\t\tnfig.unwrap(config) >> 224);\\n...\n      PUSH 20\t\t\tnfig.unwrap(config) >> 224);\\n...\n      DUP2 \t\t\tnfig.unwrap(config) >> 224);\\n...\n      DUP4 \t\t\tnfig.unwrap(config) >> 224);\\n...\n      SUB \t\t\tnfig.unwrap(config) >> 224);\\n...\n      SUB \t\t\tnfig.unwrap(config) >> 224);\\n...\n      DUP2 \t\t\tnfig.unwrap(config) >> 224);\\n...\n      MSTORE \t\t\tnfig.unwrap(config) >> 224);\\n...\n      SWAP1 \t\t\tnfig.unwrap(config) >> 224);\\n...\n      PUSH 40\t\t\tnfig.unwrap(config) >> 224);\\n...\n      MSTORE \t\t\tnfig.unwrap(config) >> 224);\\n...\n      DUP1 \t\t\t2(StreamConfig.unwrap(config) ...\n      MLOAD \t\t\t2(StreamConfig.unwrap(config) ...\n      SWAP1 \t\t\t2(StreamConfig.unwrap(config) ...\n      PUSH 20\t\t\t2(StreamConfig.unwrap(config) ...\n      ADD \t\t\t2(StreamConfig.unwrap(config) ...\n      KECCAK256 \t\t\t2(StreamConfig.unwrap(config) ...\n      SWAP1 \t\t\t   return uint32(StreamConfig....\n      POP \t\t\t   return uint32(StreamConfig....\n      PUSH [tag] 726\t\t\tfig` has value:\\n        // `s...\n      DUP4 \t\t\t     // `str\n      PUSH A\t\t\tmId (32 bi\n      SLOAD \t\t\tmId (32 bi\n      DUP4 \t\t\t) | \n      PUSH [tag] 727\t\t\tfig` has value:\\n  \n      JUMP \t\t\tfig` has value:\\n        // `s...\n    tag 726\t\t\tfig` has value:\\n        // `s...\n      JUMPDEST \t\t\tfig` has value:\\n        // `s...\n      PUSH [tag] 728\t\t\t `config` has value:\\n        ...\n      JUMPI \t\t\t `config` has value:\\n        ...\n      PUSH 0\t\t\ttart \n      SWAP2 \t\t\tts) | start \n      POP \t\t\tts) | start \n      POP \t\t\tts) | start \n      PUSH [tag] 719\t\t\tts) | start \n      JUMP \t\t\tts) | start \n    tag 728\t\t\t `config` has value:\\n        ...\n      JUMPDEST \t\t\t `config` has value:\\n        ...\n      PUSH 1\t\t\t bit\n      SWAP2 \t\t\tros (64 bit\n      POP \t\t\tros (64 bit\n      POP \t\t\tros (64 bit\n    tag 719\t\t\tnfig.wrap(config);\\n    }\\n\\n ...\n      JUMPDEST \t\t\tnfig.wrap(config);\\n    }\\n\\n ...\n      SWAP6 \t\t\tnfig.wrap(config);\\n    }\\n\\n ...\n      SWAP5 \t\t\tnfig.wrap(config);\\n    }\\n\\n ...\n      POP \t\t\tnfig.wrap(config);\\n    }\\n\\n ...\n      POP \t\t\tnfig.wrap(config);\\n    }\\n\\n ...\n      POP \t\t\tnfig.wrap(config);\\n    }\\n\\n ...\n      POP \t\t\tnfig.wrap(config);\\n    }\\n\\n ...\n      POP \t\t\tnfig.wrap(config);\\n    }\\n\\n ...\n      JUMP \t\t\tnfig.wrap(config);\\n    }\\n\\n ...\n    tag 608\t\t\tn has not ended.\\n    modifier...\n      JUMPDEST \t\t\tn has not ended.\\n    modifier...\n      PUSH [tag] 730\t\t\the total number \n      PUSH [tag] 260\t\t\the total numbe\n      JUMP \t\t\the total number \n    tag 730\t\t\the total number \n      JUMPDEST \t\t\the total number \n      PUSH 1\t\t\t======\n      SLOAD \t\t\t======\n      ISZERO \t\t\t====== Cons\n      PUSH [tag] 732\t\t\t/ ======== Constructor =======...\n      JUMPI \t\t\t/ ======== Constructor =======...\n      PUSH 40\t\t\t=========\\n    /// ===\n      MLOAD \t\t\t=========\\n    /// ===\n      PUSH 439A74C9\t\t\t\n      PUSH E0\t\t\t\n      SHL \t\t\t\n      DUP2 \t\t\t=========\\n    /// ===\n      MSTORE \t\t\t=========\\n    /// ===\n      PUSH 4\t\t\t=========\\n    /// ===\n      ADD \t\t\t=========\\n    /// ===\n      PUSH 40\t\t\t=========\\n    /// ===\n      MLOAD \t\t\t=========\\n    /// ===\n      DUP1 \t\t\t=========\\n    /// ===\n      SWAP2 \t\t\t=========\\n    /// ===\n      SUB \t\t\t=========\\n    /// ===\n      SWAP1 \t\t\t=========\\n    /// ===\n      REVERT \t\t\t=========\\n    /// ===\n    tag 732\t\t\t/ ======== Constructor =======...\n      JUMPDEST \t\t\t/ ======== Constructor =======...\n      DUP1 \t\t\te Distr\n      PUSH 0\t\t\ti\n      SUB \t\t\te Distributi\n      PUSH [tag] 733\t\t\terkle Distribution Strategy\\n ...\n      JUMPI \t\t\terkle Distribution Strategy\\n ...\n      PUSH 40\t\t\tgy\\n    //\n      MLOAD \t\t\tgy\\n    //\n      PUSH 7FCCE2A9\t\t\t\n      PUSH E0\t\t\t\n      SHL \t\t\t\n      DUP2 \t\t\tgy\\n    //\n      MSTORE \t\t\tgy\\n    //\n      PUSH 4\t\t\tgy\\n    //\n      ADD \t\t\tgy\\n    //\n      PUSH 40\t\t\tgy\\n    //\n      MLOAD \t\t\tgy\\n    //\n      DUP1 \t\t\tgy\\n    //\n      SWAP2 \t\t\tgy\\n    //\n      SUB \t\t\tgy\\n    //\n      SWAP1 \t\t\tgy\\n    //\n      REVERT \t\t\tgy\\n    //\n    tag 733\t\t\terkle Distribution Strategy\\n ...\n      JUMPDEST \t\t\terkle Distribution Strategy\\n ...\n      PUSH 1\t\t\tallo T\n      SSTORE \t\t\tallo The 'Allo' \n      JUMP \t\t\tn has not ended.\\n    modifier...\n    tag 625\t\t\txed erc20,\\n        bytes32 in...\n      JUMPDEST \t\t\txed erc20,\\n        bytes32 in...\n      PUSH 5\t\t\tstreamsHistoryHash,\n      SLOAD \t\t\tstreamsHistoryHash,\n      TIMESTAMP \t\t\t      uint128 b\n      PUSH 1\t\t\t\n      PUSH 98\t\t\t\n      SHL \t\t\t\n      SWAP1 \t\t\tstreamsHistoryHash,\n      SWAP2 \t\t\tstreamsHistoryHash,\n      DIV \t\t\tstreamsHistoryHash,\n      PUSH 1\t\t\t\n      PUSH 1\t\t\t\n      PUSH 40\t\t\t\n      SHL \t\t\t\n      SUB \t\t\t\n      AND \t\t\tstreamsHistoryHash,\n      GT \t\t\tstreamsHistoryHash,\\n        u...\n      DUP1 \t\t\tstreamsHistoryHash,\\n        u...\n      PUSH [tag] 735\t\t\tstreamsHistoryHash,\\n        u...\n      JUMPI \t\t\tstreamsHistoryHash,\\n        u...\n      POP \t\t\t\n      PUSH 6\t\t\t maxEnd\\n    );\\n  \n      SLOAD \t\t\t maxEnd\\n    );\\n  \n      PUSH 1\t\t\t\n      PUSH 1\t\t\t\n      PUSH 40\t\t\t\n      SHL \t\t\t\n      SUB \t\t\t\n      AND \t\t\t maxEnd\\n    );\\n  \n      TIMESTAMP \t\t\tce,\\n        uin\n      GT \t\t\tce,\\n        uint32 maxEnd\\n  ...\n    tag 735\t\t\tstreamsHistoryHash,\\n        u...\n      JUMPDEST \t\t\tstreamsHistoryHash,\\n        u...\n      ISZERO \t\t\ts32 streamsHistoryHash,\\n     ...\n      PUSH [tag] 444\t\t\ts32 streamsHistoryHash,\\n     ...\n      JUMPI \t\t\ts32 streamsHistoryHash,\\n     ...\n      PUSH 40\t\t\ts indexed pauser);\\n    \n      MLOAD \t\t\ts indexed pauser);\\n    \n      PUSH B828C9\t\t\t\n      PUSH E8\t\t\t\n      SHL \t\t\t\n      DUP2 \t\t\ts indexed pauser);\\n    \n      MSTORE \t\t\ts indexed pauser);\\n    \n      PUSH 4\t\t\ts indexed pauser);\\n    \n      ADD \t\t\ts indexed pauser);\\n    \n      PUSH 40\t\t\ts indexed pauser);\\n    \n      MLOAD \t\t\ts indexed pauser);\\n    \n      DUP1 \t\t\ts indexed pauser);\\n    \n      SWAP2 \t\t\ts indexed pauser);\\n    \n      SUB \t\t\ts indexed pauser);\\n    \n      SWAP1 \t\t\ts indexed pauser);\\n    \n      REVERT \t\t\ts indexed pauser);\\n    \n    tag 635\t\t\t\n      JUMPDEST \t\t\t\n      DUP2 \t\t\t\n      MLOAD \t\t\t\n      PUSH 20\t\t\t\n      DUP4 \t\t\t\n      ADD \t\t\t\n      MLOAD \t\t\t\n      PUSH 40\t\t\t\n      DUP5 \t\t\t\n      ADD \t\t\t\n      MLOAD \t\t\t\n      PUSH 2\t\t\t\n      PUSH [tag] 740\t\t\t\n      DUP5 \t\t\t\n      PUSH [tag] 517\t\t\t\n      JUMP \t\t\t\n    tag 740\t\t\t\n      JUMPDEST \t\t\t\n      PUSH FF\t\t\t\n      AND \t\t\t\n      PUSH 6\t\t\t\n      DUP2 \t\t\t\n      GT \t\t\t\n      ISZERO \t\t\t\n      PUSH [tag] 742\t\t\t\n      JUMPI \t\t\t\n      PUSH [tag] 742\t\t\t\n      PUSH [tag] 520\t\t\t\n      JUMP \t\t\t\n    tag 742\t\t\t\n      JUMPDEST \t\t\t\n      PUSH 6\t\t\t\n      DUP2 \t\t\t\n      GT \t\t\t\n      ISZERO \t\t\t\n      PUSH [tag] 744\t\t\t\n      JUMPI \t\t\t\n      PUSH [tag] 744\t\t\t\n      PUSH [tag] 520\t\t\t\n      JUMP \t\t\t\n    tag 744\t\t\t\n      JUMPDEST \t\t\t\n      EQ \t\t\t\n      PUSH [tag] 745\t\t\t\n      JUMPI \t\t\t\n      PUSH 40\t\t\t\n      MLOAD \t\t\t\n      PUSH F4A513B9\t\t\t\n      PUSH E0\t\t\t\n      SHL \t\t\t\n      DUP2 \t\t\t\n      MSTORE \t\t\t\n      PUSH 1\t\t\t\n      PUSH 1\t\t\t\n      PUSH A0\t\t\t\n      SHL \t\t\t\n      SUB \t\t\t\n      DUP5 \t\t\t producing values on a queue. ...\n      AND \t\t\t producing values on a queue. ...\n      PUSH 4\t\t\t\n      DUP3 \t\t\t\n      ADD \t\t\t\n      MSTORE \t\t\t  // consuming and producing v...\n      PUSH 24\t\t\te root is rebuilt \n      ADD \t\t\te root is rebuilt \n      PUSH [tag] 512\t\t\t\n      JUMP \t\t\tnal pure returns (bytes32 merk...\n    tag 745\t\t\t\n      JUMPDEST \t\t\t\n      PUSH EEEEEEEEEEEEEEEEEEEEEEEEEEEEEEEEEEEEEEED\t\t\t\n      NOT \t\t\t\n      PUSH 1\t\t\t\n      PUSH 1\t\t\t\n      PUSH A0\t\t\t\n      SHL \t\t\t\n      SUB \t\t\t\n      DUP3 \t\t\t\n      AND \t\t\t\n      ADD \t\t\t\n      PUSH [tag] 747\t\t\t\n      JUMPI \t\t\t\n      PUSH 40\t\t\t\n      MLOAD \t\t\t\n      PUSH 7FCCE2A9\t\t\t\n      PUSH E0\t\t\t\n      SHL \t\t\t\n      DUP2 \t\t\t\n      MSTORE \t\t\t\n      PUSH 4\t\t\t\n      ADD \t\t\t\n      PUSH 40\t\t\t\n      MLOAD \t\t\t\n      DUP1 \t\t\t\n      SWAP2 \t\t\t\n      SUB \t\t\t\n      SWAP1 \t\t\t\n      REVERT \t\t\t\n    tag 747\t\t\t\n      JUMPDEST \t\t\t\n      PUSH 1\t\t\t\n      PUSH 1\t\t\t\n      PUSH A0\t\t\t\n      SHL \t\t\t\n      SUB \t\t\t\n      DUP2 \t\t\t\n      AND \t\t\t\n      PUSH 0\t\t\t\n      SWAP1 \t\t\t\n      DUP2 \t\t\t\n      MSTORE \t\t\t\n      PUSH E\t\t\t\n      PUSH 20\t\t\t\n      MSTORE \t\t\t\n      PUSH 40\t\t\t\n      SWAP1 \t\t\t\n      KECCAK256 \t\t\t\n      SLOAD \t\t\t\n      PUSH FF\t\t\t\n      AND \t\t\t\n      ISZERO \t\t\t\n      DUP1 \t\t\t\n      ISZERO \t\t\t\n      PUSH [tag] 748\t\t\t\n      JUMPI \t\t\t\n      POP \t\t\t\n      PUSH 0\t\t\t\n      DUP1 \t\t\t\n      MSTORE \t\t\t\n      PUSH E\t\t\t\n      PUSH 20\t\t\t\n      MSTORE \t\t\t\n      PUSH E710864318D4A32F37D6CE54CB3FADBEF648DD12D8DBDF53973564D56B7F881C\t\t\t\n      SLOAD \t\t\t\n      PUSH FF\t\t\t\n      AND \t\t\t\n      ISZERO \t\t\t\n    tag 748\t\t\t\n      JUMPDEST \t\t\t\n      ISZERO \t\t\t\n      PUSH [tag] 749\t\t\t\n      JUMPI \t\t\t\n      PUSH 40\t\t\t\n      MLOAD \t\t\t\n      PUSH 7FCCE2A9\t\t\t\n      PUSH E0\t\t\t\n      SHL \t\t\t\n      DUP2 \t\t\t\n      MSTORE \t\t\t\n      PUSH 4\t\t\t\n      ADD \t\t\t\n      PUSH 40\t\t\t\n      MLOAD \t\t\t\n      DUP1 \t\t\t\n      SWAP2 \t\t\t\n      SUB \t\t\t\n      SWAP1 \t\t\t\n      REVERT \t\t\t\n    tag 749\t\t\t\n      JUMPDEST \t\t\t\n      PUSH 0\t\t\t\n      CALLVALUE \t\t\t\n      GT \t\t\t\n      DUP1 \t\t\t\n      ISZERO \t\t\t\n      PUSH [tag] 750\t\t\t\n      JUMPI \t\t\t\n      POP \t\t\t\n      PUSH 1\t\t\t\n      PUSH 1\t\t\t\n      PUSH A0\t\t\t\n      SHL \t\t\t\n      SUB \t\t\t\n      DUP2 \t\t\t\n      AND \t\t\t\n      PUSH EEEEEEEEEEEEEEEEEEEEEEEEEEEEEEEEEEEEEEEE\t\t\tif the pool is active, otherwi...\n      EQ \t\t\t\n      ISZERO \t\t\t\n    tag 750\t\t\t\n      JUMPDEST \t\t\t\n      DUP1 \t\t\t\n      PUSH [tag] 752\t\t\t\n      JUMPI \t\t\t\n      POP \t\t\t\n      PUSH 1\t\t\t\n      PUSH 1\t\t\t\n      PUSH A0\t\t\t\n      SHL \t\t\t\n      SUB \t\t\t\n      DUP2 \t\t\t\n      AND \t\t\t\n      PUSH EEEEEEEEEEEEEEEEEEEEEEEEEEEEEEEEEEEEEEEE\t\t\tif the pool is active, otherwi...\n      EQ \t\t\t\n      DUP1 \t\t\t\n      ISZERO \t\t\t\n      PUSH [tag] 752\t\t\t\n      JUMPI \t\t\t\n      POP \t\t\t\n      DUP2 \t\t\t\n      CALLVALUE \t\t\t\n      EQ \t\t\t\n      ISZERO \t\t\t\n    tag 752\t\t\t\n      JUMPDEST \t\t\t\n      ISZERO \t\t\t\n      PUSH [tag] 753\t\t\t\n      JUMPI \t\t\t\n      PUSH 40\t\t\t\n      MLOAD \t\t\t\n      PUSH 7FCCE2A9\t\t\t\n      PUSH E0\t\t\t\n      SHL \t\t\t\n      DUP2 \t\t\t\n      MSTORE \t\t\t\n      PUSH 4\t\t\t\n      ADD \t\t\t\n      PUSH 40\t\t\t\n      MLOAD \t\t\t\n      DUP1 \t\t\t\n      SWAP2 \t\t\t\n      SUB \t\t\t\n      SWAP1 \t\t\t\n      REVERT \t\t\t\n    tag 753\t\t\t\n      JUMPDEST \t\t\t\n      PUSH 40\t\t\t\n      DUP1 \t\t\t\n      MLOAD \t\t\t\n      PUSH 60\t\t\t\n      DUP2 \t\t\t\n      ADD \t\t\t\n      DUP3 \t\t\t\n      MSTORE \t\t\t\n      PUSH 1\t\t\t\n      PUSH 1\t\t\t\n      PUSH A0\t\t\t\n      SHL \t\t\t\n      SUB \t\t\t\n      DUP1 \t\t\t\n      DUP8 \t\t\t\n      AND \t\t\t\n      DUP3 \t\t\t\n      MSTORE \t\t\t\n      DUP6 \t\t\t\n      DUP2 \t\t\t\n      AND \t\t\t\n      PUSH 0\t\t\t\n      SWAP1 \t\t\t\n      DUP2 \t\t\t\n      MSTORE \t\t\t\n      PUSH F\t\t\t\n      PUSH 20\t\t\t\n      SWAP1 \t\t\t\n      DUP2 \t\t\t\n      MSTORE \t\t\t\n      SWAP1 \t\t\t\n      DUP5 \t\t\t\n      SWAP1 \t\t\t\n      KECCAK256 \t\t\t\n      SLOAD \t\t\t\n      PUSH 100\t\t\t\n      SWAP1 \t\t\t\n      DIV \t\t\t\n      SWAP1 \t\t\t\n      SWAP2 \t\t\t\n      AND \t\t\t\n      SWAP1 \t\t\t\n      DUP3 \t\t\t\n      ADD \t\t\t\n      MSTORE \t\t\t\n      SWAP1 \t\t\t\n      DUP2 \t\t\t\n      ADD \t\t\t\n      DUP4 \t\t\t\n      SWAP1 \t\t\t\n      MSTORE \t\t\t\n      PUSH [tag] 754\t\t\t\n      SWAP1 \t\t\t\n      DUP3 \t\t\t\n      SWAP1 \t\t\t\n      PUSH [tag] 755\t\t\t\n      JUMP \t\t\t\n    tag 754\t\t\t\n      JUMPDEST \t\t\t\n      ISZERO \t\t\t\n      PUSH [tag] 756\t\t\t\n      JUMPI \t\t\t\n      DUP3 \t\t\t\n      PUSH 1\t\t\t\n      PUSH 1\t\t\t\n      PUSH A0\t\t\t\n      SHL \t\t\t\n      SUB \t\t\t\n      AND \t\t\t\n      PUSH 463FFC2CF8B1596445C417388ED30E53EB67CF6668CB2BE7F0ADDF8A78C8441B\t\t\t\n      DUP4 \t\t\t\n      DUP4 \t\t\t\n      DUP8 \t\t\t\n      PUSH 40\t\t\t\n      MLOAD \t\t\t\n      PUSH [tag] 757\t\t\t\n      SWAP4 \t\t\t\n      SWAP3 \t\t\t\n      SWAP2 \t\t\t\n      SWAP1 \t\t\t\n      SWAP3 \t\t\t// @param poolId ID of th\n      DUP4 \t\t\t// @param poolId ID of th\n      MSTORE \t\t\t// @param poolId ID of th\n      PUSH 1\t\t\t\n      PUSH 1\t\t\t\n      PUSH A0\t\t\t\n      SHL \t\t\t\n      SUB \t\t\t\n      SWAP2 \t\t\tfee paid\\n    ev\n      DUP3 \t\t\tfee paid\\n    ev\n      AND \t\t\tfee paid\\n    ev\n      PUSH 20\t\t\tba\n      DUP5 \t\t\t Amount of the bas\n      ADD \t\t\t Amount of the bas\n      MSTORE \t\t\t amount Amount of the base fee...\n      AND \t\t\td, uint256 amou\n      PUSH 40\t\t\tpo\n      DUP3 \t\t\tint256 indexed poo\n      ADD \t\t\tint256 indexed poo\n      MSTORE \t\t\tePaid(uint256 indexed poolId, ...\n      PUSH 60\t\t\ts \n      ADD \t\t\t the base fee is p\n      SWAP1 \t\t\t the base fee is p\n      JUMP \t\t\t to the pool\\n    /// @param f...\n    tag 757\t\t\t\n      JUMPDEST \t\t\t\n      PUSH 40\t\t\t\n      MLOAD \t\t\t\n      DUP1 \t\t\t\n      SWAP2 \t\t\t\n      SUB \t\t\t\n      SWAP1 \t\t\t\n      LOG2 \t\t\t\n    tag 756\t\t\t\n      JUMPDEST \t\t\t\n      POP \t\t\t\n      POP \t\t\t\n      POP \t\t\t\n      POP \t\t\t\n      POP \t\t\t\n      JUMP \t\t\t\n    tag 662\t\t\tnfig.unwrap(config));\\n    }\\n...\n      JUMPDEST \t\t\tnfig.unwrap(config));\\n    }\\n...\n      PUSH 0\t\t\trSec`s, then `start`s and fi\n      PUSH [tag] 760\t\t\tly `duration\n      PUSH 100\t\t\tion\n      DUP4 \t\t\tly `du\n      PUSH [tag] 563\t\t\tly `duration\n      JUMP \t\t\tly `duration\n    tag 760\t\t\tly `duration\n      JUMPDEST \t\t\tly `duration\n      SWAP1 \t\t\trSec`s, then `start`s and fina...\n      POP \t\t\t\n      PUSH 0\t\t\tlt(StreamConfig config, Str\n      PUSH [tag] 761\t\t\tConfig other\n      PUSH 100\t\t\ther\n      DUP5 \t\t\tConfig\n      PUSH [tag] 565\t\t\tConfig other\n      JUMP \t\t\tConfig other\n    tag 761\t\t\tConfig other\n      JUMPDEST \t\t\tConfig other\n      PUSH 0\t\t\t| amtPerSec (160 bits) | start...\n      SWAP3 \t\t\t| amtPerSec (160 bits) | start...\n      DUP4 \t\t\t| amtPerSec (160 bits) | start...\n      MSTORE \t\t\t| amtPerSec (160 bits) | start...\n      PUSH D\t\t\t| amtPerSec (160 b\n      PUSH 20\t\t\t| amtPerSec (160 bits) | start...\n      MSTORE \t\t\t| amtPerSec (160 bits) | start...\n      PUSH 40\t\t\t| amtPerSec (160 bits) | start...\n      SWAP1 \t\t\t| amtPerSec (160 bits) | start...\n      SWAP3 \t\t\t| amtPerSec (160 bits) | start...\n      KECCAK256 \t\t\t| amtPerSec (160 bits) | start...\n      DUP1 \t\t\t| amtPerSec (160 bits) | start...\n      SLOAD \t\t\t| amtPerSec (160 bits) | start...\n      PUSH 1\t\t\tr\n      SWAP1 \t\t\tration (32 bits)`\\n      \n      SWAP4 \t\t\tration (32 bits)`\\n      \n      SHL \t\t\tration (32 bits)`\\n      \n      SWAP1 \t\t\t| amtPerSec (160 bits) | start...\n      SWAP3 \t\t\t| amtPerSec (160 bits) | start...\n      OR \t\t\t| amtPerSec (160 bits) | start...\n      SWAP1 \t\t\t| amtPerSec (160 bits) | start...\n      SWAP2 \t\t\t| amtPerSec (160 bits) | start...\n      SSTORE \t\t\t| amtPerSec (160 bits) | start...\n      POP \t\t\t\n      POP \t\t\t\n      JUMP \t\t\tnfig.unwrap(config));\\n    }\\n...\n    tag 704\t\t\t Caller(_initializeData.dripsC...\n      JUMPDEST \t\t\t Caller(_initializeData.dripsC...\n      PUSH 1\t\t\t\n      PUSH 1\t\t\t\n      PUSH A0\t\t\t\n      SHL \t\t\t\n      SUB \t\t\t\n      DUP2 \t\t\tta.stream;\\n\\n        if (pool...\n      AND \t\t\tta.stream;\\n\\n        if (pool...\n      PUSH 0\t\t\tializeD\n      SWAP1 \t\t\tta.stream;\\n\\n        if (pool...\n      DUP2 \t\t\tta.stream;\\n\\n        if (pool...\n      MSTORE \t\t\tta.stream;\\n\\n        if (pool...\n      PUSH C\t\t\tta.stream;\\n\\n        if (\n      PUSH 20\t\t\tta.stream;\\n\\n        if (pool...\n      MSTORE \t\t\tta.stream;\\n\\n        if (pool...\n      PUSH 40\t\t\tta.stream;\\n\\n        if (pool...\n      DUP1 \t\t\tta.stream;\\n\\n        if (pool...\n      DUP3 \t\t\tta.stream;\\n\\n        if (pool...\n      KECCAK256 \t\t\tta.stream;\\n\\n        if (pool...\n      SLOAD \t\t\tta.stream;\\n\\n        if (pool...\n      DUP3 \t\t\tializeD\n      SWAP2 \t\t\tializeD\n      DUP3 \t\t\tializeD\n      SWAP2 \t\t\tializeD\n      SWAP1 \t\t\tta.stream;\\n\\n        if (pool...\n      DUP3 \t\t\tializeD\n      SWAP1 \t\t\tializeD\n      PUSH [tag] 764\t\t\tIERC20(pool.token);\n      SWAP1 \t\t\tIERC20(pool.token);\n      DUP4 \t\t\tta.stream;\\n\\n        if (pool...\n      PUSH [tag] 563\t\t\tIERC20(pool.token);\n      JUMP \t\t\tIERC20(pool.token);\n    tag 764\t\t\tIERC20(pool.token);\n      JUMPDEST \t\t\tIERC20(pool.token);\n      SWAP1 \t\t\t           erc20 = IERC20(pool...\n      POP \t\t\t\n      PUSH 0\t\t\tprove(address(dr\n      PUSH [tag] 765\t\t\t), type(uint256).ma\n      PUSH 40\t\t\tma\n      DUP5 \t\t\t), type(uint25\n      PUSH [tag] 565\t\t\t), type(uint256).ma\n      JUMP \t\t\t), type(uint256).ma\n    tag 765\t\t\t), type(uint256).ma\n      JUMPDEST \t\t\t), type(uint256).ma\n      PUSH [tag] 766\t\t\tr), type(uint256).max);\\n \n      SWAP1 \t\t\tr), type(uint256).max);\\n \n      PUSH 4\t\t\t \n      PUSH [tag] 767\t\t\tr), type(uint256).max);\\n \n      JUMP \t\t\tr), type(uint256).max);\\n \n    tag 766\t\t\tr), type(uint256).max);\\n \n      JUMPDEST \t\t\tr), type(uint256).max);\\n \n      PUSH 0\t\t\t=====================\\n  \n      DUP4 \t\t\t=====================\\n  \n      DUP2 \t\t\t=====================\\n  \n      MSTORE \t\t\t=====================\\n  \n      PUSH B\t\t\t==============\n      PUSH 20\t\t\t=====================\\n  \n      MSTORE \t\t\t=====================\\n  \n      PUSH 40\t\t\t=====================\\n  \n      SWAP1 \t\t\t=====================\\n  \n      KECCAK256 \t\t\t=====================\\n  \n      SLOAD \t\t\t=====================\\n  \n      SWAP3 \t\t\t=====================\\n  \n      SWAP9 \t\t\t=====================\\n  \n      SWAP1 \t\t\tprove(address(driver), type(ui...\n      SWAP8 \t\t\tprove(address(driver), type(ui...\n      POP \t\t\t\n      SWAP2 \t\t\t=====================\\n  \n      SWAP6 \t\t\t=====================\\n  \n      POP \t\t\t\n      SWAP1 \t\t\t Caller(_initializeData.dripsC...\n      SWAP4 \t\t\t Caller(_initializeData.dripsC...\n      POP \t\t\t\n      POP \t\t\t\n      POP \t\t\t\n      POP \t\t\t\n      JUMP \t\t\t Caller(_initializeData.dripsC...\n    tag 718\t\t\tfunction verifyCallResultFromT...\n      JUMPDEST \t\t\tfunction verifyCallResultFromT...\n      PUSH 60\t\t\tbytes memory\n      DUP4 \t\t\tsuccess\n      ISZERO \t\t\tif (success) {\\n            if...\n      PUSH [tag] 769\t\t\tif (success) {\\n            if...\n      JUMPI \t\t\tif (success) {\\n            if...\n      DUP3 \t\t\treturndata\n      MLOAD \t\t\treturndata.length\n      PUSH 0\t\t\t0\n      SUB \t\t\treturndata.length == 0\n      PUSH [tag] 773\t\t\tif (returndata.length == 0) {\\...\n      JUMPI \t\t\tif (returndata.length == 0) {\\...\n      PUSH 1\t\t\t\n      PUSH 1\t\t\t\n      PUSH A0\t\t\t\n      SHL \t\t\t\n      SUB \t\t\t\n      DUP6 \t\t\taccount.code.length\n      AND \t\t\taccount.code.length\n      EXTCODESIZE \t\t\taccount.code.length\n      PUSH [tag] 773\t\t\trequire(isContract(target), \"A...\n      JUMPI \t\t\trequire(isContract(target), \"A...\n      PUSH 40\t\t\trequire(isContract(target), \"A...\n      MLOAD \t\t\trequire(isContract(target), \"A...\n      PUSH 461BCD\t\t\t\n      PUSH E5\t\t\t\n      SHL \t\t\t\n      DUP2 \t\t\trequire(isContract(target), \"A...\n      MSTORE \t\t\trequire(isContract(target), \"A...\n      PUSH 20\t\t\tar\n      PUSH 4\t\t\trequire(isContract(target), \"A...\n      DUP3 \t\t\trequire(isContract(target), \"A...\n      ADD \t\t\trequire(isContract(target), \"A...\n      MSTORE \t\t\tupdated\\n    /// @para\n      PUSH 1D\t\t\ten\n      PUSH 24\t\t\tse fee amount\\n    \n      DUP3 \t\t\tse fee amount\\n    \n      ADD \t\t\tse fee amount\\n    \n      MSTORE \t\t\t New base fee amount\\n    even...\n      PUSH 416464726573733A2063616C6C20746F206E6F6E2D636F6E7472616374000000\t\t\t   /// @notice Emitted when th...\n      PUSH 44\t\t\tuint256 baseFee);\\n\n      DUP3 \t\t\tuint256 baseFee);\\n\n      ADD \t\t\tuint256 baseFee);\\n\n      MSTORE \t\t\tpdated(uint256 baseFee);\\n\\n  ...\n      PUSH 64\t\t\tis updated\\n    ///\n      ADD \t\t\tis updated\\n    ///\n      PUSH [tag] 512\t\t\trequire(isContract(target), \"A...\n      JUMP \t\t\tted when the percent fee is up...\n    tag 773\t\t\trequire(isContract(target), \"A...\n      JUMPDEST \t\t\trequire(isContract(target), \"A...\n      POP \t\t\t\n      DUP2 \t\t\treturndata\n      PUSH [tag] 701\t\t\treturn returndata\n      JUMP \t\t\treturn returndata\n    tag 769\t\t\tif (success) {\\n            if...\n      JUMPDEST \t\t\tif (success) {\\n            if...\n      PUSH [tag] 701\t\t\t_revert(returndata, errorMessa...\n      DUP4 \t\t\treturndata\n      DUP4 \t\t\terrorMessage\n      PUSH [tag] 778\t\t\t_revert\n      JUMP \t\t\t_revert(returndata, errorMessa...\n    tag 727\t\t\tfunction verify(bytes32[] memo...\n      JUMPDEST \t\t\tfunction verify(bytes32[] memo...\n      PUSH 0\t\t\tbool\n      DUP3 \t\t\troot\n      PUSH [tag] 780\t\t\tprocessProof(proof, leaf)\n      DUP6 \t\t\tproof\n      DUP5 \t\t\tleaf\n      PUSH [tag] 781\t\t\tprocessProof\n      JUMP \t\t\tprocessProof(proof, leaf)\n    tag 780\t\t\tprocessProof(proof, leaf)\n      JUMPDEST \t\t\tprocessProof(proof, leaf)\n      EQ \t\t\tprocessProof(proof, leaf) == r...\n      SWAP5 \t\t\tprocessProof(proof, leaf) == r...\n      SWAP4 \t\t\tfunction verify(bytes32[] memo...\n      POP \t\t\t\n      POP \t\t\t\n      POP \t\t\t\n      POP \t\t\t\n      JUMP \t\t\tfunction verify(bytes32[] memo...\n    tag 755\t\t\tyActivePool() internal view {\\...\n      JUMPDEST \t\t\tyActivePool() internal view {\\...\n      PUSH 40\t\t\te.\\n    /// @dev Reve\n      DUP2 \t\t\te.\\n    /// @dev Reve\n      ADD \t\t\te.\\n    /// @dev Reve\n      MLOAD \t\t\te.\\n    /// @dev Reve\n      PUSH 0\t\t\tice \n      SWAP1 \t\t\tice \n      PUSH EEEEEEEEEEEEEEEEEEEEEEEEEEEEEEEEEEEEEEED\t\t\t\n      NOT \t\t\t\n      PUSH 1\t\t\t\n      PUSH 1\t\t\t\n      PUSH A0\t\t\t\n      SHL \t\t\t\n      SUB \t\t\t\n      DUP6 \t\t\tl is active.\\n   \n      AND \t\t\tl is active.\\n   \n      ADD \t\t\tl is active.\\n   \n      PUSH [tag] 783\t\t\t pool is active.\\n    function...\n      JUMPI \t\t\t pool is active.\\n    function...\n      DUP1 \t\t\toolAct\n      CALLVALUE \t\t\t       if\n      LT \t\t\t       if (poolAct\n      ISZERO \t\t\t {\\n        if (poolActive) re...\n      PUSH [tag] 784\t\t\t {\\n        if (poolActive) re...\n      JUMPI \t\t\t {\\n        if (poolActive) re...\n      PUSH 40\t\t\trt POOL_ACTIVE();\n      MLOAD \t\t\trt POOL_ACTIVE();\n      PUSH 74C5672B\t\t\t\n      PUSH E0\t\t\t\n      SHL \t\t\t\n      DUP2 \t\t\trt POOL_ACTIVE();\n      MSTORE \t\t\trt POOL_ACTIVE();\n      PUSH 4\t\t\trt POOL_ACTIVE();\n      ADD \t\t\trt POOL_ACTIVE();\n      PUSH 40\t\t\trt POOL_ACTIVE();\n      MLOAD \t\t\trt POOL_ACTIVE();\n      DUP1 \t\t\trt POOL_ACTIVE();\n      SWAP2 \t\t\trt POOL_ACTIVE();\n      SUB \t\t\trt POOL_ACTIVE();\n      SWAP1 \t\t\trt POOL_ACTIVE();\n      REVERT \t\t\trt POOL_ACTIVE();\n    tag 784\t\t\t {\\n        if (poolActive) re...\n      JUMPDEST \t\t\t {\\n        if (poolActive) re...\n      PUSH [tag] 785\t\t\t @notice Checks if the pool is...\n      DUP4 \t\t\tnitialized.\\n \n      PUSH 20\t\t\tnitialized.\\n    \n      ADD \t\t\tnitialized.\\n    \n      MLOAD \t\t\tnitialized.\\n    \n      DUP3 \t\t\t/ @dev\n      PUSH [tag] 553\t\t\t @notice Checks if the pool is...\n      JUMP \t\t\t @notice Checks if the pool is...\n    tag 785\t\t\t @notice Checks if the pool is...\n      JUMPDEST \t\t\t @notice Checks if the pool is...\n      PUSH [tag] 787\t\t\t pool is active.\\n    function...\n      JUMP \t\t\t pool is active.\\n    function...\n    tag 783\t\t\t pool is active.\\n    function...\n      JUMPDEST \t\t\t pool is active.\\n    function...\n      PUSH [tag] 787\t\t\tialized.\\n    function _checkO...\n      DUP5 \t\t\tnitial\n      DUP5 \t\t\ted() internal\n      PUSH 0\t\t\ted() internal view\n      ADD \t\t\ted() internal view\n      MLOAD \t\t\ted() internal view\n      DUP6 \t\t\t\\n        if (\n      PUSH 20\t\t\t\\n        if (poo\n      ADD \t\t\t\\n        if (poo\n      MLOAD \t\t\t\\n        if (poo\n      DUP5 \t\t\td == 0\n      PUSH [tag] 788\t\t\tialized.\\n    function _checkO...\n      JUMP \t\t\tialized.\\n    function _checkO...\n    tag 787\t\t\tialized.\\n    function _checkO...\n      JUMPDEST \t\t\tialized.\\n    function _checkO...\n      POP \t\t\t\n      PUSH 1\t\t\t    \n      SWAP4 \t\t\t    \n      SWAP3 \t\t\tyActivePool() internal view {\\...\n      POP \t\t\t\n      POP \t\t\t\n      POP \t\t\t\n      JUMP \t\t\tyActivePool() internal view {\\...\n    tag 778\t\t\tfunction _revert(bytes memory ...\n      JUMPDEST \t\t\tfunction _revert(bytes memory ...\n      DUP2 \t\t\treturndata.length\n      MLOAD \t\t\treturndata.length\n      ISZERO \t\t\treturndata.length > 0\n      PUSH [tag] 791\t\t\tif (returndata.length > 0) {\\n...\n      JUMPI \t\t\tif (returndata.length > 0) {\\n...\n      DUP2 \t\t\treturndata\n      MLOAD \t\t\tmload(returndata)\n      DUP1 \t\t\treturndata_size\n      DUP4 \t\t\treturndata\n      PUSH 20\t\t\t32\n      ADD \t\t\tadd(32, returndata)\n      REVERT \t\t\trevert(add(32, returndata), re...\n    tag 791\t\t\tif (returndata.length > 0) {\\n...\n      JUMPDEST \t\t\tif (returndata.length > 0) {\\n...\n      DUP1 \t\t\terrorMessage\n      PUSH 40\t\t\trevert(errorMessage)\n      MLOAD \t\t\trevert(errorMessage)\n      PUSH 461BCD\t\t\t\n      PUSH E5\t\t\t\n      SHL \t\t\t\n      DUP2 \t\t\trevert(errorMessage)\n      MSTORE \t\t\trevert(errorMessage)\n      PUSH 4\t\t\trevert(errorMessage)\n      ADD \t\t\trevert(errorMessage)\n      PUSH [tag] 512\t\t\trevert(errorMessage)\n      SWAP2 \t\t\trevert(errorMessage)\n      SWAP1 \t\t\trevert(errorMessage)\n      PUSH [tag] 794\t\t\trevert(errorMessage)\n      JUMP \t\t\trevert(errorMessage)\n    tag 781\t\t\tfunction processProof(bytes32[...\n      JUMPDEST \t\t\tfunction processProof(bytes32[...\n      PUSH 0\t\t\tbytes32\n      DUP2 \t\t\tleaf\n      DUP2 \t\t\tbytes32\n    tag 796\t\t\tfor (uint256 i = 0; i < proof....\n      JUMPDEST \t\t\tfor (uint256 i = 0; i < proof....\n      DUP5 \t\t\tproof\n      MLOAD \t\t\tproof.length\n      DUP2 \t\t\ti\n      LT \t\t\ti < proof.length\n      ISZERO \t\t\tfor (uint256 i = 0; i < proof....\n      PUSH [tag] 797\t\t\tfor (uint256 i = 0; i < proof....\n      JUMPI \t\t\tfor (uint256 i = 0; i < proof....\n      PUSH [tag] 799\t\t\t_hashPair(computedHash, proof[...\n      DUP3 \t\t\tcomputedHash\n      DUP7 \t\t\tproof\n      DUP4 \t\t\ti\n      DUP2 \t\t\tproof[i]\n      MLOAD \t\t\tproof[i]\n      DUP2 \t\t\tproof[i]\n      LT \t\t\tproof[i]\n      PUSH [tag] 801\t\t\tproof[i]\n      JUMPI \t\t\tproof[i]\n      PUSH [tag] 801\t\t\tproof[i]\n      PUSH [tag] 321\t\t\tproof[i]\n      JUMP \t\t\tproof[i]\n    tag 801\t\t\tproof[i]\n      JUMPDEST \t\t\tproof[i]\n      PUSH 20\t\t\tproof[i]\n      MUL \t\t\tproof[i]\n      PUSH 20\t\t\tproof[i]\n      ADD \t\t\tproof[i]\n      ADD \t\t\tproof[i]\n      MLOAD \t\t\tproof[i]\n      PUSH [tag] 802\t\t\t_hashPair\n      JUMP \t\t\t_hashPair(computedHash, proof[...\n    tag 799\t\t\t_hashPair(computedHash, proof[...\n      JUMPDEST \t\t\t_hashPair(computedHash, proof[...\n      SWAP2 \t\t\tcomputedHash = _hashPair(compu...\n      POP \t\t\t\n      PUSH 1\t\t\ti++\n      ADD \t\t\ti++\n      PUSH [tag] 796\t\t\tfor (uint256 i = 0; i < proof....\n      JUMP \t\t\tfor (uint256 i = 0; i < proof....\n    tag 797\t\t\tfor (uint256 i = 0; i < proof....\n      JUMPDEST \t\t\tfor (uint256 i = 0; i < proof....\n      POP \t\t\t\n      SWAP4 \t\t\tcomputedHash\n      SWAP3 \t\t\tfunction processProof(bytes32[...\n      POP \t\t\t\n      POP \t\t\t\n      POP \t\t\t\n      JUMP \t\t\tfunction processProof(bytes32[...\n    tag 788\t\t\t (uint256 amount) {\\n        /...\n      JUMPDEST \t\t\t (uint256 amount) {\\n        /...\n      PUSH 40\t\t\tsele\n      MLOAD \t\t\tction selec\n      DUP2 \t\t\t231000\n      PUSH 60\t\t\tx70a\n      MSTORE \t\t\t0x00, 0x70a082310000\n      DUP3 \t\t\t  \n      PUSH 40\t\t\t    \n      MSTORE \t\t\t               m\n      DUP4 \t\t\t// T\n      PUSH 60\t\t\tnd\n      SHL \t\t\t   and( // Th\n      PUSH 2C\t\t\t    \n      MSTORE \t\t\t                and( // The\n      PUSH 23B872DD\t\t\t\n      PUSH 60\t\t\t\n      SHL \t\t\t\n      PUSH C\t\t\t    \n      MSTORE \t\t\turned.\\n                      ...\n      PUSH 20\t\t\t⠀⠀\\n/\n      PUSH 0\t\t\t⠀⠀⠀⠀\n      PUSH 64\t\t\t⠀⠀⠀⠀\n      PUSH 1C\t\t\t⠀⠀⠀⠀\n      PUSH 0\t\t\t⠀\n      DUP10 \t\t\t⠀⠀⢸⣿⣿\n      GAS \t\t\t⠀⢸⣿⣿⣿\n      CALL \t\t\t⠀⠀⠀⠀⠀⠀⢸⣿⣿⣿⣗⠀⠀⠀⢸⣿⣿⣿⡯⠀⠀⠀⠀⠀⠀⠀⠀⠀⠀⠀...\n      RETURNDATASIZE \t\t\t⣿⣿⣿⣿⡄⠀⠀⠀⠀⠀⠀⠀⠀⠀⠀⠀\n      ISZERO \t\t\t⠀⠀⠀⠀⢸⣿⣿⣿⣿⣿⣿⡄⠀⠀⠀⠀⠀⠀⠀⠀⠀⠀⠀⠀\n      PUSH 1\t\t\t⠀\n      PUSH 0\t\t\t⠀⠀⠀⠀\n      MLOAD \t\t\t⠀⠀\\n// ⠀⠀⠀⠀⠀\n      EQ \t\t\t⠀⠀⠀⠀⠀\\n// ⠀⠀⠀⠀⠀⠀⠀⠀⠀\n      OR \t\t\t⠀⠀⠀⠀⠀⠀⠀⠀\\n// ⠀⠀⠀⠀⠀⠀⠀⠀⠀⠀⠀⠀⠀⠀⠀⢸⣿...\n      AND \t\t\t           )\\n                ...\n      PUSH [tag] 804\t\t\t0x24, 0x20, 0x20)\\n           ...\n      JUMPI \t\t\t0x24, 0x20, 0x20)\\n           ...\n      PUSH 7939F424\t\t\t⠀⠀⠀⠀⠀⠀⠀⠀⠀⠀\n      PUSH 0\t\t\t⠀⠀⠀⠀\n      MSTORE \t\t\t⣿⣿⣿⣿⡆⠀⠀⠀⠀⠀⠀⠀⠀⠀⠀⠀⠀⠀⠀⠀⠀⠀⠀⠀\n      PUSH 4\t\t\t⠙⣿⣿⣿\n      PUSH 1C\t\t\t⣿⣿⣿⡿\n      REVERT \t\t\t⠀⠀⠀⣴⣿⣿⣿⣿⣿⣿⡿⠃⠀⠙⣿⣿⣿⣿\n    tag 804\t\t\t0x24, 0x20, 0x20)\\n           ...\n      JUMPDEST \t\t\t0x24, 0x20, 0x20)\\n           ...\n      PUSH 0\t\t\t⠀\n      PUSH 60\t\t\t⠀⠀⠀⠀\n      MSTORE \t\t\t⠀⠀⢻⣿⣿⣿⣧⠀⠀⠀⠀⠀⠀⠀⢸\n      PUSH 40\t\t\t⠀⠀⠀⠘\n      MSTORE \t\t\t⣿⣿⣿⣿⣿⡿⠁⠀⠀⠀⠘⣿⣿⣿⣿\n      POP \t\t\t\n      POP \t\t\t\n      POP \t\t\t\n      POP \t\t\t\n      JUMP \t\t\t (uint256 amount) {\\n        /...\n    tag 802\t\t\tfunction _hashPair(bytes32 a, ...\n      JUMPDEST \t\t\tfunction _hashPair(bytes32 a, ...\n      PUSH 0\t\t\tbytes32\n      DUP2 \t\t\tb\n      DUP4 \t\t\ta\n      LT \t\t\ta < b\n      PUSH [tag] 806\t\t\ta < b ? _efficientHash(a, b) :...\n      JUMPI \t\t\ta < b ? _efficientHash(a, b) :...\n      PUSH 0\t\t\tbytes32 value\n      DUP3 \t\t\tmstore(0x00, a)\n      DUP2 \t\t\tmstore(0x00, a)\n      MSTORE \t\t\tmstore(0x00, a)\n      PUSH 20\t\t\t0x20\n      DUP5 \t\t\tmstore(0x20, b)\n      SWAP1 \t\t\tmstore(0x20, b)\n      MSTORE \t\t\tmstore(0x20, b)\n      PUSH 40\t\t\t0x40\n      SWAP1 \t\t\tkeccak256(0x00, 0x40)\n      KECCAK256 \t\t\tkeccak256(0x00, 0x40)\n      PUSH [tag] 287\t\t\ta < b ? _efficientHash(a, b) :...\n      JUMP \t\t\ta < b ? _efficientHash(a, b) :...\n    tag 806\t\t\ta < b ? _efficientHash(a, b) :...\n      JUMPDEST \t\t\ta < b ? _efficientHash(a, b) :...\n      PUSH 0\t\t\tbytes32 value\n      DUP4 \t\t\tmstore(0x00, a)\n      DUP2 \t\t\tmstore(0x00, a)\n      MSTORE \t\t\tmstore(0x00, a)\n      PUSH 20\t\t\t0x20\n      DUP4 \t\t\tmstore(0x20, b)\n      SWAP1 \t\t\tmstore(0x20, b)\n      MSTORE \t\t\tmstore(0x20, b)\n      PUSH 40\t\t\t0x40\n      SWAP1 \t\t\tkeccak256(0x00, 0x40)\n      KECCAK256 \t\t\tkeccak256(0x00, 0x40)\n      PUSH [tag] 287\t\t\t_efficientHash(a, b)\n      JUMP \t\t\tfunction _efficientHash(bytes3...\n    tag 340\t\t\t\n      JUMPDEST \t\t\t\n      PUSH 40\t\t\t\n      MLOAD \t\t\t\n      DUP1 \t\t\t\n      PUSH 60\t\t\t\n      ADD \t\t\t\n      PUSH 40\t\t\t\n      MSTORE \t\t\t\n      DUP1 \t\t\t\n      PUSH 0\t\t\t\n      ISZERO \t\t\t\n      ISZERO \t\t\t\n      DUP2 \t\t\t\n      MSTORE \t\t\t\n      PUSH 20\t\t\t\n      ADD \t\t\t\n      PUSH 0\t\t\t\n      PUSH 1\t\t\t\n      PUSH 1\t\t\t\n      PUSH A0\t\t\t\n      SHL \t\t\t\n      SUB \t\t\t\n      AND \t\t\t\n      DUP2 \t\t\t\n      MSTORE \t\t\t\n      PUSH 20\t\t\t\n      ADD \t\t\t\n      PUSH [tag] 812\t\t\t\n      PUSH 40\t\t\t\n      MLOAD \t\t\t\n      DUP1 \t\t\t\n      PUSH 40\t\t\t\n      ADD \t\t\t\n      PUSH 40\t\t\t\n      MSTORE \t\t\t\n      DUP1 \t\t\t\n      PUSH 0\t\t\t\n      DUP2 \t\t\t\n      MSTORE \t\t\t\n      PUSH 20\t\t\t\n      ADD \t\t\t\n      PUSH 60\t\t\t\n      DUP2 \t\t\t\n      MSTORE \t\t\t\n      POP \t\t\t\n      SWAP1 \t\t\t\n      JUMP \t\t\t\n    tag 812\t\t\t\n      JUMPDEST \t\t\t\n      SWAP1 \t\t\t\n      MSTORE \t\t\t\n      SWAP1 \t\t\t\n      JUMP \t\t\t\n    tag 813\t\t\tense-Identifier: AGPL-3.0-only...\n      JUMPDEST \t\t\tense-Identifier: AGPL-3.0-only...\n      PUSH 1\t\t\t\n      PUSH 1\t\t\t\n      PUSH A0\t\t\t\n      SHL \t\t\t\n      SUB \t\t\t\n      DUP2 \t\t\ties\\n\\n// OpenZeppelin Contrac...\n      AND \t\t\ties\\n\\n// OpenZeppelin Contrac...\n      DUP2 \t\t\tnal Libraries\\n\\n// OpenZeppel...\n      EQ \t\t\tnal Libraries\\n\\n// OpenZeppel...\n      PUSH [tag] 441\t\t\t\\n\\n// External Libraries\\n\\n/...\n      JUMPI \t\t\t\\n\\n// External Libraries\\n\\n/...\n      PUSH 0\t\t\t4\n      DUP1 \t\t\td\n      REVERT \t\t\t updated v4.\n    tag 57\t\t\tryptography/MerkleProof.sol)\\n...\n      JUMPDEST \t\t\tryptography/MerkleProof.sol)\\n...\n      PUSH 0\t\t\teal wi\n      PUSH 20\t\t\te \n      DUP3 \t\t\tfs.\\n *\\n *\n      DUP5 \t\t\tTree pr\n      SUB \t\t\tkle Tree proofs.\\n *\\n * \n      SLT \t\t\t Merkle Tree proofs.\\n *\\n * T...\n      ISZERO \t\t\t of Merkle Tree proofs.\\n *\\n ...\n      PUSH [tag] 850\t\t\t of Merkle Tree proofs.\\n *\\n ...\n      JUMPI \t\t\t of Merkle Tree proofs.\\n *\\n ...\n      PUSH 0\t\t\tr\n      DUP1 \t\t\te\n      REVERT \t\t\t and the pro\n    tag 850\t\t\t of Merkle Tree proofs.\\n *\\n ...\n      JUMPDEST \t\t\t of Merkle Tree proofs.\\n *\\n ...\n      DUP2 \t\t\tps://gith\n      CALLDATALOAD \t\t\tng our\\n * https://githu\n      PUSH [tag] 287\t\t\tnZeppelin/merkle-tree[JavaScri...\n      DUP2 \t\t\taScri\n      PUSH [tag] 813\t\t\tnZeppelin/merkle-tree[JavaScri...\n      JUMP \t\t\tnZeppelin/merkle-tree[JavaScri...\n    tag 358\t\t\tes.\\n * This is because the co...\n      JUMPDEST \t\t\tes.\\n * This is because the co...\n      PUSH 4E487B71\t\t\tinternal n\n      PUSH E0\t\t\tr o\n      SHL \t\t\t pair of internal no\n      PUSH 0\t\t\tt\n      MSTORE \t\t\tf a sorted pair of internal no...\n      PUSH 41\t\t\t tre\n      PUSH 4\t\t\tk\n      MSTORE \t\t\tthe merkle tree\n      PUSH 24\t\t\teted\n      PUSH 0\t\t\tr\n      REVERT \t\t\t reinterpreted \n    tag 814\t\t\talue.\\n * OpenZeppelin's JavaS...\n      JUMPDEST \t\t\talue.\\n * OpenZeppelin's JavaS...\n      PUSH 40\t\t\tre s\n      DUP1 \t\t\tthat are sa\n      MLOAD \t\t\tthat are sa\n      SWAP1 \t\t\tthat are sa\n      DUP2 \t\t\tut of the box.\\n *\n      ADD \t\t\tut of the box.\\n *\n      PUSH 1\t\t\t\n      PUSH 1\t\t\t\n      PUSH 40\t\t\t\n      SHL \t\t\t\n      SUB \t\t\t\n      DUP2 \t\t\teProof {\\n    /**\\n     * @dev...\n      GT \t\t\teProof {\\n    /**\\n     * @dev...\n      DUP3 \t\t\t true if a `leaf` can \n      DUP3 \t\t\t true if a `leaf` can \n      LT \t\t\t true if a `leaf` can \n      OR \t\t\trkleProof {\\n    /**\\n     * @...\n      ISZERO \t\t\t MerkleProof {\\n    /**\\n     ...\n      PUSH [tag] 856\t\t\t MerkleProof {\\n    /**\\n     ...\n      JUMPI \t\t\t MerkleProof {\\n    /**\\n     ...\n      PUSH [tag] 856\t\t\troved to be a part\n      PUSH [tag] 358\t\t\troved to be a part\n      JUMP \t\t\troved to be a part\n    tag 856\t\t\troved to be a part\n      JUMPDEST \t\t\troved to be a part\n      PUSH 40\t\t\t    \n      MSTORE \t\t\te tree\\n     * defined by\n      SWAP1 \t\t\talue.\\n * OpenZeppelin's JavaS...\n      JUMP \t\t\talue.\\n * OpenZeppelin's JavaS...\n    tag 815\t\t\tr this, a `proof` must be prov...\n      JUMPDEST \t\t\tr this, a `proof` must be prov...\n      PUSH 40\t\t\tth\n      MLOAD \t\t\tes on the\n      PUSH C0\t\t\te tr\n      DUP2 \t\t\te root of the tre\n      ADD \t\t\te root of the tre\n      PUSH 1\t\t\t\n      PUSH 1\t\t\t\n      PUSH 40\t\t\t\n      SHL \t\t\t\n      SUB \t\t\t\n      DUP2 \t\t\tpair of leaves and each pair o...\n      GT \t\t\tpair of leaves and each pair o...\n      DUP3 \t\t\timages are assumed to \n      DUP3 \t\t\timages are assumed to \n      LT \t\t\timages are assumed to \n      OR \t\t\t * pair of leaves and each pai...\n      ISZERO \t\t\t    * pair of leaves and each ...\n      PUSH [tag] 856\t\t\t    * pair of leaves and each ...\n      JUMPI \t\t\t    * pair of leaves and each ...\n      PUSH [tag] 856\t\t\torted.\\n     */\\n   \n      PUSH [tag] 358\t\t\torted.\\n     */\\n   \n      JUMP \t\t\torted.\\n     */\\n   \n    tag 816\t\t\tes32 root, bytes32 leaf) inter...\n      JUMPDEST \t\t\tes32 root, bytes32 leaf) inter...\n      PUSH 40\t\t\tro\n      MLOAD \t\t\tturn proc\n      PUSH 160\t\t\t   /**\n      DUP2 \t\t\tot;\\n    }\\n\\n    /**\\n\n      ADD \t\t\tot;\\n    }\\n\\n    /**\\n\n      PUSH 1\t\t\t\n      PUSH 1\t\t\t\n      PUSH 40\t\t\t\n      SHL \t\t\t\n      SUB \t\t\t\n      DUP2 \t\t\tldata version of {verify}\\n   ...\n      GT \t\t\tldata version of {verify}\\n   ...\n      DUP3 \t\t\t  * _Available since v\n      DUP3 \t\t\t  * _Available since v\n      LT \t\t\t  * _Available since v\n      OR \t\t\tCalldata version of {verify}\\n...\n      ISZERO \t\t\tev Calldata version of {verify...\n      PUSH [tag] 856\t\t\tev Calldata version of {verify...\n      JUMPI \t\t\tev Calldata version of {verify...\n      PUSH [tag] 856\t\t\t_\\n     */\\n    func\n      PUSH [tag] 358\t\t\t_\\n     */\\n    func\n      JUMP \t\t\t_\\n     */\\n    func\n    tag 817\t\t\t, bytes32 root, bytes32 leaf) ...\n      JUMPDEST \t\t\t, bytes32 root, bytes32 leaf) ...\n      PUSH 40\t\t\tur\n      MLOAD \t\t\t   return\n      PUSH 80\t\t\toot;\n      DUP2 \t\t\t, leaf) == root;\\n\n      ADD \t\t\t, leaf) == root;\\n\n      PUSH 1\t\t\t\n      PUSH 1\t\t\t\n      PUSH 40\t\t\t\n      SHL \t\t\t\n      SUB \t\t\t\n      DUP2 \t\t\t     * @dev Returns the rebuil...\n      GT \t\t\t     * @dev Returns the rebuil...\n      DUP3 \t\t\t obtained by traversin\n      DUP3 \t\t\t obtained by traversin\n      LT \t\t\t obtained by traversin\n      OR \t\t\t**\\n     * @dev Returns the re...\n      ISZERO \t\t\t  /**\\n     * @dev Returns the...\n      PUSH [tag] 856\t\t\t  /**\\n     * @dev Returns the...\n      JUMPI \t\t\t  /**\\n     * @dev Returns the...\n      PUSH [tag] 856\t\t\tMerkle tree up\\n   \n      PUSH [tag] 358\t\t\tMerkle tree up\\n   \n      JUMP \t\t\tMerkle tree up\\n   \n    tag 818\t\t\tvalid if and only if the rebui...\n      JUMPDEST \t\t\tvalid if and only if the rebui...\n      PUSH 40\t\t\te.\n      MLOAD \t\t\the tree. \n      PUSH 60\t\t\t   *\n      DUP2 \t\t\tthe pairs\\n     * \n      ADD \t\t\tthe pairs\\n     * \n      PUSH 1\t\t\t\n      PUSH 1\t\t\t\n      PUSH 40\t\t\t\n      SHL \t\t\t\n      SUB \t\t\t\n      DUP2 \t\t\timages are assumed to be sorte...\n      GT \t\t\timages are assumed to be sorte...\n      DUP3 \t\t\t  *\\n     * _Available \n      DUP3 \t\t\t  *\\n     * _Available \n      LT \t\t\t  *\\n     * _Available \n      OR \t\t\tre-images are assumed to be so...\n      ISZERO \t\t\t& pre-images are assumed to be...\n      PUSH [tag] 856\t\t\t& pre-images are assumed to be...\n      JUMPI \t\t\t& pre-images are assumed to be...\n      PUSH [tag] 856\t\t\te v4.4._\\n     */\\n \n      PUSH [tag] 358\t\t\te v4.4._\\n     */\\n \n      JUMP \t\t\te v4.4._\\n     */\\n \n    tag 819\t\t\toof, bytes32 leaf) internal pu...\n      JUMPDEST \t\t\toof, bytes32 leaf) internal pu...\n      PUSH 40\t\t\tmp\n      MLOAD \t\t\ts32 compu\n      PUSH 1F\t\t\ti+\n      DUP3 \t\t\t i < proof.le\n      ADD \t\t\t i < proof.le\n      PUSH 1F\t\t\t\n      NOT \t\t\t\n      AND \t\t\t= 0; i < proof.length; i++)\n      DUP2 \t\t\t (uint256 i = 0; i < proof.len...\n      ADD \t\t\t (uint256 i = 0; i < proof.len...\n      PUSH 1\t\t\t\n      PUSH 1\t\t\t\n      PUSH 40\t\t\t\n      SHL \t\t\t\n      SUB \t\t\t\n      DUP2 \t\t\tomputedHash = _hashPair(comput...\n      GT \t\t\tomputedHash = _hashPair(comput...\n      DUP3 \t\t\t, proof[i]);\\n        }\n      DUP3 \t\t\t, proof[i]);\\n        }\n      LT \t\t\t, proof[i]);\\n        }\n      OR \t\t\t  computedHash = _hashPair(com...\n      ISZERO \t\t\t     computedHash = _hashPair(...\n      PUSH [tag] 871\t\t\t     computedHash = _hashPair(...\n      JUMPI \t\t\t     computedHash = _hashPair(...\n      PUSH [tag] 871\t\t\t     return comput\n      PUSH [tag] 358\t\t\t     return comput\n      JUMP \t\t\t     return comput\n    tag 871\t\t\t     return comput\n      JUMPDEST \t\t\t     return comput\n      PUSH 40\t\t\t /\n      MSTORE \t\t\t }\\n\\n    /**\\n     * @de\n      SWAP2 \t\t\toof, bytes32 leaf) internal pu...\n      SWAP1 \t\t\toof, bytes32 leaf) internal pu...\n      POP \t\t\t\n      JUMP \t\t\toof, bytes32 leaf) internal pu...\n    tag 820\t\t\tversion of {processProof}\\n   ...\n      JUMPDEST \t\t\tversion of {processProof}\\n   ...\n      PUSH 0\t\t\t7._\\n\n      PUSH 1\t\t\t\n      PUSH 1\t\t\t\n      PUSH 40\t\t\t\n      SHL \t\t\t\n      SUB \t\t\t\n      DUP3 \t\t\tproces\n      GT \t\t\ton processProofCalldata(bytes3\n      ISZERO \t\t\tction processProofCalldata(byt...\n      PUSH [tag] 874\t\t\tction processProofCalldata(byt...\n      JUMPI \t\t\tction processProofCalldata(byt...\n      PUSH [tag] 874\t\t\t calldata proof, b\n      PUSH [tag] 358\t\t\t calldata proof, b\n      JUMP \t\t\t calldata proof, b\n    tag 874\t\t\t calldata proof, b\n      JUMPDEST \t\t\t calldata proof, b\n      POP \t\t\t\n      PUSH 5\t\t\tr\n      SHL \t\t\ture returns (b\n      PUSH 20\t\t\tes32\n      ADD \t\t\tal pure returns (bytes32)\n      SWAP1 \t\t\tal pure returns (bytes32)\n      JUMP \t\t\tversion of {processProof}\\n   ...\n    tag 821\t\t\tbytes32 computedHash = leaf;\\n...\n      JUMPDEST \t\t\tbytes32 computedHash = leaf;\\n...\n      PUSH 0\t\t\t0; i \n      DUP3 \t\t\t= _\n      PUSH 1F\t\t\tedHa\n      DUP4 \t\t\t  comp\n      ADD \t\t\t      computedHas\n      SLT \t\t\t          computedHash = _h\n      PUSH [tag] 876\t\t\t i++) {\\n            computedH...\n      JUMPI \t\t\t i++) {\\n            computedH...\n      PUSH 0\t\t\te\n      DUP1 \t\t\tp\n      REVERT \t\t\tair(computed\n    tag 876\t\t\t i++) {\\n            computedH...\n      JUMPDEST \t\t\t i++) {\\n            computedH...\n      DUP2 \t\t\t retur\n      CALLDATALOAD \t\t\t    }\\n        return\n      PUSH 20\t\t\t}\\n\\n \n      PUSH [tag] 877\t\t\teturns true if the `leaves` ca...\n      PUSH [tag] 878\t\t\the `leaves` can be simultaneou...\n      DUP4 \t\t\t t\n      PUSH [tag] 820\t\t\the `leaves` can be simultaneou...\n      JUMP \t\t\the `leaves` can be simultaneou...\n    tag 878\t\t\the `leaves` can be simultaneou...\n      JUMPDEST \t\t\the `leaves` can be simultaneou...\n      PUSH [tag] 819\t\t\teturns true if the `leaves` ca...\n      JUMP \t\t\teturns true if the `leaves` ca...\n    tag 877\t\t\teturns true if the `leaves` ca...\n      JUMPDEST \t\t\teturns true if the `leaves` ca...\n      DUP1 \t\t\ttre\n      DUP4 \t\t\tro\n      DUP3 \t\t\t  *\n      MSTORE \t\t\t by\\n     * `roo\n      PUSH 20\t\t\tand \n      DUP3 \t\t\toof\n      ADD \t\t\t `proof` and `\n      SWAP2 \t\t\tding to `proof` and `\n      POP \t\t\tding to `proof` and `\n      PUSH 20\t\t\t  *\\n\n      DUP5 \t\t\t}.\n      PUSH 5\t\t\to\n      SHL \t\t\ttiProof}.\\n\n      DUP8 \t\t\tocessM\n      ADD \t\t\t {processMultiProof}.\\n \n      ADD \t\t\td in {processMultiProof}.\\n   ...\n      SWAP4 \t\t\ts` as described in {processMul...\n      POP \t\t\ts` as described in {processMul...\n      DUP7 \t\t\tmer\n      DUP5 \t\t\tNot al\n      GT \t\t\tN: Not all merk\n      ISZERO \t\t\tTION: Not all merkle trees adm...\n      PUSH [tag] 879\t\t\tTION: Not all merkle trees adm...\n      JUMPI \t\t\tTION: Not all merkle trees adm...\n      PUSH 0\t\t\tt\n      DUP1 \t\t\td\n      REVERT \t\t\ttrees admit \n    tag 879\t\t\tTION: Not all merkle trees adm...\n      JUMPDEST \t\t\tTION: Not all merkle trees adm...\n      PUSH 20\t\t\tf} f\n      DUP7 \t\t\tultiPr\n      ADD \t\t\tessMultiProof} fo\n    tag 880\t\t\t.\\n     *\\n     * _Available s...\n      JUMPDEST \t\t\t.\\n     *\\n     * _Available s...\n      DUP5 \t\t\t_Avail\n      DUP2 \t\t\t   \n      LT \t\t\t\\n     * _Availa\n      ISZERO \t\t\t.\\n     *\\n     * _Available s...\n      PUSH [tag] 882\t\t\t.\\n     *\\n     * _Available s...\n      JUMPI \t\t\t.\\n     *\\n     * _Available s...\n      DUP1 \t\t\t me\n      CALLDATALOAD \t\t\t    bytes32[] mem\n      PUSH [tag] 883\t\t\t      bool[] memory proofFlags...\n      DUP2 \t\t\tFlags\n      PUSH [tag] 813\t\t\t      bool[] memory proofFlags...\n      JUMP \t\t\t      bool[] memory proofFlags...\n    tag 883\t\t\t      bool[] memory proofFlags...\n      JUMPDEST \t\t\t      bool[] memory proofFlags...\n      DUP4 \t\t\ts32 root,\\n        \n      MSTORE \t\t\ts32 root,\\n        \n      SWAP2 \t\t\tves\\n    ) in\n      DUP4 \t\t\tves\\n    ) in\n      ADD \t\t\tves\\n    ) in\n      SWAP2 \t\t\tves\\n    ) in\n      DUP4 \t\t\tv4.7._\\n     \n      ADD \t\t\tv4.7._\\n     \n      PUSH [tag] 880\t\t\t.\\n     *\\n     * _Available s...\n      JUMP \t\t\t.\\n     *\\n     * _Available s...\n    tag 882\t\t\t.\\n     *\\n     * _Available s...\n      JUMPDEST \t\t\t.\\n     *\\n     * _Available s...\n      POP \t\t\t\n      SWAP7 \t\t\t\\n    \n      SWAP6 \t\t\tbytes32 computedHash = leaf;\\n...\n      POP \t\t\t\n      POP \t\t\t\n      POP \t\t\t\n      POP \t\t\t\n      POP \t\t\t\n      POP \t\t\t\n      JUMP \t\t\tbytes32 computedHash = leaf;\\n...\n    tag 822\t\t\tprocessMultiProof(proof, proof...\n      JUMPDEST \t\t\tprocessMultiProof(proof, proof...\n      PUSH 0\t\t\troot\n      PUSH 1\t\t\t\n      PUSH 1\t\t\t\n      PUSH 40\t\t\t\n      SHL \t\t\t\n      SUB \t\t\t\n      DUP3 \t\t\t * @de\n      GT \t\t\t    * @dev Calldata version of\n      ISZERO \t\t\t*\\n     * @dev Calldata versio...\n      PUSH [tag] 886\t\t\t*\\n     * @dev Calldata versio...\n      JUMPI \t\t\t*\\n     * @dev Calldata versio...\n      PUSH [tag] 886\t\t\tultiProofVerify}\\n \n      PUSH [tag] 358\t\t\tultiProofVerify}\\n \n      JUMP \t\t\tultiProofVerify}\\n \n    tag 886\t\t\tultiProofVerify}\\n \n      JUMPDEST \t\t\tultiProofVerify}\\n \n      POP \t\t\t\n      PUSH 1F\t\t\t m\n      ADD \t\t\tll merkle trees\n      PUSH 1F\t\t\t\n      NOT \t\t\t\n      AND \t\t\tot all merkle trees admit mul\n      PUSH 20\t\t\tproo\n      ADD \t\t\tN: Not all merkle trees admit ...\n      SWAP1 \t\t\tN: Not all merkle trees admit ...\n      JUMP \t\t\tprocessMultiProof(proof, proof...\n    tag 823\t\t\tcessMultiProof} for details.\\n...\n      JUMPDEST \t\t\tcessMultiProof} for details.\\n...\n      PUSH 0\t\t\t._\\n  \n      PUSH [tag] 888\t\t\tProofVerifyCalldata(\\n        ...\n      PUSH [tag] 878\t\t\tata(\\n        bytes32[] callda...\n      DUP5 \t\t\tata pr\n      PUSH [tag] 822\t\t\tata(\\n        bytes32[] callda...\n      JUMP \t\t\tata(\\n        bytes32[] callda...\n    tag 888\t\t\tProofVerifyCalldata(\\n        ...\n      JUMPDEST \t\t\tProofVerifyCalldata(\\n        ...\n      SWAP1 \t\t\tion multiProofVerifyCalldata(\\...\n      POP \t\t\tion multiProofVerifyCalldata(\\...\n      DUP3 \t\t\tata pr\n      DUP2 \t\t\t] cal\n      MSTORE \t\t\t  bool[] calldata pro\n      DUP4 \t\t\t   \n      DUP4 \t\t\t root,\n      DUP4 \t\t\ttes\n      ADD \t\t\t  bytes32 root,\\n\n      GT \t\t\t     bytes32 root,\\n      \n      ISZERO \t\t\t        bytes32 root,\\n       ...\n      PUSH [tag] 890\t\t\t        bytes32 root,\\n       ...\n      JUMPI \t\t\t        bytes32 root,\\n       ...\n      PUSH 0\t\t\te\n      DUP1 \t\t\t]\n      REVERT \t\t\tytes32[] mem\n    tag 890\t\t\t        bytes32 root,\\n       ...\n      JUMPDEST \t\t\t        bytes32 root,\\n       ...\n      DUP3 \t\t\t\\n     \n      DUP3 \t\t\tol)\n      PUSH 20\t\t\trns \n      DUP4 \t\t\tre re\n      ADD \t\t\tl pure returns (\n      CALLDATACOPY \t\t\t    ) internal pure returns (b...\n      PUSH 0\t\t\tF\n      PUSH 20\t\t\t, pr\n      DUP5 \t\t\tata(pr\n      DUP4 \t\t\tofCal\n      ADD \t\t\tiProofCalldata(pro\n      ADD \t\t\tMultiProofCalldata(proof, pro\n      MSTORE \t\t\tprocessMultiProofCalldata(proo...\n      SWAP4 \t\t\tcessMultiProof} for details.\\n...\n      SWAP3 \t\t\tcessMultiProof} for details.\\n...\n      POP \t\t\tcessMultiProof} for details.\\n...\n      POP \t\t\tcessMultiProof} for details.\\n...\n      POP \t\t\tcessMultiProof} for details.\\n...\n      JUMP \t\t\tcessMultiProof} for details.\\n...\n    tag 824\t\t\t) == root;\\n    }\\n\\n    /**\\n...\n      JUMPDEST \t\t\t) == root;\\n    }\\n\\n    /**\\n...\n      PUSH 0\t\t\trns t\n      DUP3 \t\t\td s\n      PUSH 1F\t\t\tves`\n      DUP4 \t\t\trom `l\n      ADD \t\t\ted from `leaves` \n      SLT \t\t\tructed from `leaves` and si\n      PUSH [tag] 892\t\t\tee reconstructed from `leaves`...\n      JUMPI \t\t\tee reconstructed from `leaves`...\n      PUSH 0\t\t\t \n      DUP1 \t\t\t \n      REVERT \t\t\tg nodes in `\n    tag 892\t\t\tee reconstructed from `leaves`...\n      JUMPDEST \t\t\tee reconstructed from `leaves`...\n      PUSH [tag] 287\t\t\tuction\\n     * proceeds by inc...\n      DUP4 \t\t\tomb\n      DUP4 \t\t\todes b\n      CALLDATALOAD \t\t\tg all inner nodes by\n      PUSH 20\t\t\ttruc\n      DUP6 \t\t\ty reco\n      ADD \t\t\ttally reconstruct\n      PUSH [tag] 823\t\t\tuction\\n     * proceeds by inc...\n      JUMP \t\t\tuction\\n     * proceeds by inc...\n    tag 64\t\t\t/inner node with either anothe...\n      JUMPDEST \t\t\t/inner node with either anothe...\n      PUSH 0\t\t\tfFlags\n      DUP1 \t\t\titem i\n      PUSH 0\t\t\ttrue o\n      PUSH 60\t\t\tIO\n      DUP5 \t\t\t\\n     * C\n      DUP7 \t\t\ty.\\n    \n      SUB \t\t\tively.\\n     *\\n     * CA\n      SLT \t\t\tpectively.\\n     *\\n     * CAU...\n      ISZERO \t\t\trespectively.\\n     *\\n     * ...\n      PUSH [tag] 895\t\t\trespectively.\\n     *\\n     * ...\n      JUMPI \t\t\trespectively.\\n     *\\n     * ...\n      PUSH 0\t\t\tk\n      DUP1 \t\t\tm\n      REVERT \t\t\tot all merkl\n    tag 895\t\t\trespectively.\\n     *\\n     * ...\n      JUMPDEST \t\t\trespectively.\\n     *\\n     * ...\n      DUP4 \t\t\tiproofs, \n      CALLDATALOAD \t\t\t. To use multiproofs, i\n      PUSH 1\t\t\t\n      PUSH 1\t\t\t\n      PUSH 40\t\t\t\n      SHL \t\t\t\n      SUB \t\t\t\n      DUP1 \t\t\tte\n      DUP3 \t\t\ts comp\n      GT \t\t\t* is complete \n      ISZERO \t\t\t   * is complete (but not nece...\n      PUSH [tag] 896\t\t\t   * is complete (but not nece...\n      JUMPI \t\t\t   * is complete (but not nece...\n      PUSH 0\t\t\ts\n      DUP1 \t\t\te\n      REVERT \t\t\tt not necess\n    tag 896\t\t\t   * is complete (but not nece...\n      JUMPDEST \t\t\t   * is complete (but not nece...\n      PUSH [tag] 897\t\t\te leaves to be proven are in t...\n      DUP8 \t\t\tare in \n      DUP4 \t\t\tder th\n      DUP9 \t\t\topposite \n      ADD \t\t\tthe opposite order the\n      PUSH [tag] 821\t\t\te leaves to be proven are in t...\n      JUMP \t\t\te leaves to be proven are in t...\n    tag 897\t\t\te leaves to be proven are in t...\n      JUMPDEST \t\t\te leaves to be proven are in t...\n      SWAP5 \t\t\tct), 2) the leaves to be prove...\n      POP \t\t\tct), 2) the leaves to be prove...\n      PUSH 20\t\t\tti\n      DUP7 \t\t\to left st\n      ADD \t\t\tht to left startin\n      CALLDATALOAD \t\t\tseen from right to left starti...\n      SWAP2 \t\t\t tree (i.e., as seen from righ...\n      POP \t\t\t tree (i.e., as seen from righ...\n      DUP1 \t\t\t c\n      DUP3 \t\t\t layer a\n      GT \t\t\test layer and co\n      ISZERO \t\t\teepest layer and continuing at...\n      PUSH [tag] 898\t\t\teepest layer and continuing at...\n      JUMPI \t\t\teepest layer and continuing at...\n      PUSH 0\t\t\th\n      DUP1 \t\t\tt\n      REVERT \t\t\tnuing at the\n    tag 898\t\t\teepest layer and continuing at...\n      JUMPDEST \t\t\teepest layer and continuing at...\n      POP \t\t\teepest layer and continuing at...\n      PUSH [tag] 899\t\t\t     * _Available since v4.7._...\n      DUP7 \t\t\tfunctio\n      DUP3 \t\t\t    */\\n \n      DUP8 \t\t\tce v4.7._\n      ADD \t\t\t since v4.7._\\n     */\\n  \n      PUSH [tag] 824\t\t\t     * _Available since v4.7._...\n      JUMP \t\t\t     * _Available since v4.7._...\n    tag 899\t\t\t     * _Available since v4.7._...\n      JUMPDEST \t\t\t     * _Available since v4.7._...\n      SWAP3 \t\t\t).\\n     *\\n     * _Available ...\n      POP \t\t\t).\\n     *\\n     * _Available ...\n      POP \t\t\t).\\n     *\\n     * _Available ...\n      PUSH 40\t\t\t,\\n\n      DUP5 \t\t\temory pro\n      ADD \t\t\t[] memory proof,\\n \n      CALLDATALOAD \t\t\t      bytes32[] memory proof,\\...\n      PUSH [tag] 900\t\t\tl[] memory proofFlags,\\n      ...\n      DUP2 \t\t\t     \n      PUSH [tag] 813\t\t\tl[] memory proofFlags,\\n      ...\n      JUMP \t\t\tl[] memory proofFlags,\\n      ...\n    tag 900\t\t\tl[] memory proofFlags,\\n      ...\n      JUMPDEST \t\t\tl[] memory proofFlags,\\n      ...\n      DUP1 \t\t\taves\\n\n      SWAP2 \t\t\t memory leaves\\n\n      POP \t\t\t memory leaves\\n\n      POP \t\t\t memory leaves\\n\n      SWAP3 \t\t\t/inner node with either anothe...\n      POP \t\t\t/inner node with either anothe...\n      SWAP3 \t\t\t/inner node with either anothe...\n      POP \t\t\t/inner node with either anothe...\n      SWAP3 \t\t\t/inner node with either anothe...\n      JUMP \t\t\t/inner node with either anothe...\n    tag 825\t\t\tts with the `leaves` array, th...\n      JUMPDEST \t\t\tts with the `leaves` array, th...\n      PUSH 1\t\t\t\n      PUSH 1\t\t\t\n      PUSH 40\t\t\t\n      SHL \t\t\t\n      SUB \t\t\t\n      DUP2 \t\t\the en\n      AND \t\t\tAt the end of the process, the\n      DUP2 \t\t\tarray\n      EQ \t\t\ts` array. At the end of the pr...\n      PUSH [tag] 441\t\t\t // `hashes` array. At the end...\n      JUMPI \t\t\t // `hashes` array. At the end...\n      PUSH 0\t\t\th\n      DUP1 \t\t\tn\n      REVERT \t\t\t hash in the\n    tag 74\t\t\tay should contain the root of\\...\n      JUMPDEST \t\t\tay should contain the root of\\...\n      PUSH 0\t\t\tn = le\n      DUP1 \t\t\tes.len\n      PUSH 0\t\t\th;\\n   \n      DUP1 \t\t\t   uin\n      PUSH 80\t\t\tota\n      DUP6 \t\t\t   uint25\n      DUP8 \t\t\tth;\\n   \n      SUB \t\t\tlength;\\n        uint256\n      SLT \t\t\toof.length;\\n        uint256 t...\n      ISZERO \t\t\t proof.length;\\n        uint25...\n      PUSH [tag] 905\t\t\t proof.length;\\n        uint25...\n      JUMPI \t\t\t proof.length;\\n        uint25...\n      PUSH 0\t\t\tf\n      DUP1 \t\t\tr\n      REVERT \t\t\thes = proofF\n    tag 905\t\t\t proof.length;\\n        uint25...\n      JUMPDEST \t\t\t proof.length;\\n        uint25...\n      DUP5 \t\t\tvalidity.\n      CALLDATALOAD \t\t\t Check proof validity.\\n\n      PUSH [tag] 906\t\t\tequire(leavesLen + proofLen - \n      DUP2 \t\t\tLen -\n      PUSH [tag] 825\t\t\tequire(leavesLen + proofLen - \n      JUMP \t\t\tequire(leavesLen + proofLen - \n    tag 906\t\t\tequire(leavesLen + proofLen - \n      JUMPDEST \t\t\tequire(leavesLen + proofLen - \n      SWAP4 \t\t\tMerkl\n      POP \t\t\t\n      PUSH 20\t\t\t v\n      DUP6 \t\t\t  // The xxxPos va\n      ADD \t\t\t  // The xxxPos va\n      CALLDATALOAD \t\t\tof\");\\n\\n        // The xxxPos...\n      PUSH [tag] 907\t\t\tpointers\" to the next value to...\n      DUP2 \t\t\tof\");\\n\\n        // The xxxPos...\n      PUSH [tag] 825\t\t\tpointers\" to the next value to...\n      JUMP \t\t\tpointers\" to the next value to...\n    tag 907\t\t\tpointers\" to the next value to...\n      JUMPDEST \t\t\tpointers\" to the next value to...\n      SWAP3 \t\t\ty. All \n      POP \t\t\t\n      PUSH 40\t\t\twh\n      DUP6 \t\t\txx[xxxPos++]`, whi\n      ADD \t\t\txx[xxxPos++]`, whi\n      CALLDATALOAD \t\t\t        // `xxx[xxxPos++]`, wh...\n      PUSH [tag] 908\t\t\tthe current value and incremen...\n      DUP2 \t\t\t        // `xxx[xxxPos++]`, wh...\n      PUSH [tag] 825\t\t\tthe current value and incremen...\n      JUMP \t\t\tthe current value and incremen...\n    tag 908\t\t\tthe current value and incremen...\n      JUMPDEST \t\t\tthe current value and incremen...\n      SWAP2 \t\t\timickin\n      POP \t\t\t\n      PUSH 60\t\t\t n\n      DUP6 \t\t\tmemory hashes = ne\n      ADD \t\t\tmemory hashes = ne\n      CALLDATALOAD \t\t\t   bytes32[] memory hashes = n...\n      PUSH [tag] 909\t\t\t](totalHashes);\\n        uint2...\n      DUP2 \t\t\t   bytes32[] memory hashes = n...\n      PUSH [tag] 825\t\t\t](totalHashes);\\n        uint2...\n      JUMP \t\t\t](totalHashes);\\n        uint2...\n    tag 909\t\t\t](totalHashes);\\n        uint2...\n      JUMPDEST \t\t\t](totalHashes);\\n        uint2...\n      SWAP4 \t\t\tay should contain the root of\\...\n      SWAP7 \t\t\tay should contain the root of\\...\n      SWAP3 \t\t\tay should contain the root of\\...\n      SWAP6 \t\t\tay should contain the root of\\...\n      POP \t\t\t\n      SWAP1 \t\t\tay should contain the root of\\...\n      SWAP4 \t\t\tay should contain the root of\\...\n      POP \t\t\t\n      POP \t\t\t\n      JUMP \t\t\tay should contain the root of\\...\n    tag 83\t\t\tthe next leaf, otherwise we\\n ...\n      JUMPDEST \t\t\tthe next leaf, otherwise we\\n ...\n      PUSH 0\t\t\tnding \n      DUP1 \t\t\t the f\n      PUSH 40\t\t\t (\n      DUP4 \t\t\t\"main que\n      DUP6 \t\t\tfrom th\n      SUB \t\t\tlue from the \"main queu\n      SLT \t\t\tr value from the \"main queue\" ...\n      ISZERO \t\t\tther value from the \"main queu...\n      PUSH [tag] 912\t\t\tther value from the \"main queu...\n      JUMPI \t\t\tther value from the \"main queu...\n      PUSH 0\t\t\te\n      DUP1 \t\t\tn\n      REVERT \t\t\ting branches\n    tag 912\t\t\tther value from the \"main queu...\n      JUMPDEST \t\t\tther value from the \"main queu...\n      DUP3 \t\t\t`proof` a\n      CALLDATALOAD \t\t\t        //   `proof` ar\n      PUSH 1\t\t\t\n      PUSH 1\t\t\t\n      PUSH 40\t\t\t\n      SHL \t\t\t\n      SUB \t\t\t\n      DUP2 \t\t\tr (uin\n      GT \t\t\t for (uint256 i = 0; i < total\n      ISZERO \t\t\t    for (uint256 i = 0; i < to...\n      PUSH [tag] 913\t\t\t    for (uint256 i = 0; i < to...\n      JUMPI \t\t\t    for (uint256 i = 0; i < to...\n      PUSH 0\t\t\t{\n      DUP1 \t\t\t+\n      REVERT \t\t\thes; i++) {\\n\n    tag 913\t\t\t    for (uint256 i = 0; i < to...\n      JUMPDEST \t\t\t    for (uint256 i = 0; i < to...\n      PUSH [tag] 914\t\t\t = leafPos < leavesLen ? leave...\n      DUP6 \t\t\t] : has\n      DUP3 \t\t\tleafPo\n      DUP7 \t\t\tn ? leave\n      ADD \t\t\tesLen ? leaves[leafPos\n      PUSH [tag] 824\t\t\t = leafPos < leavesLen ? leave...\n      JUMP \t\t\t = leafPos < leavesLen ? leave...\n    tag 914\t\t\t = leafPos < leavesLen ? leave...\n      JUMPDEST \t\t\t = leafPos < leavesLen ? leave...\n      SWAP3 \t\t\t bytes32 a = leafPos < leavesL...\n      POP \t\t\t bytes32 a = leafPos < leavesL...\n      POP \t\t\t bytes32 a = leafPos < leavesL...\n      PUSH 20\t\t\ti]\n      DUP4 \t\t\tproofFlag\n      ADD \t\t\tb = proofFlags[i]\\n\n      CALLDATALOAD \t\t\t     bytes32 b = proofFlags[i]...\n      PUSH [tag] 915\t\t\t      ? (leafPos < leavesLen ?...\n      DUP2 \t\t\tLen ?\n      PUSH [tag] 813\t\t\t      ? (leafPos < leavesLen ?...\n      JUMP \t\t\t      ? (leafPos < leavesLen ?...\n    tag 915\t\t\t      ? (leafPos < leavesLen ?...\n      JUMPDEST \t\t\t      ? (leafPos < leavesLen ?...\n      DUP1 \t\t\t hash\n      SWAP2 \t\t\tafPos++] : hash\n      POP \t\t\tafPos++] : hash\n      POP \t\t\tafPos++] : hash\n      SWAP3 \t\t\tthe next leaf, otherwise we\\n ...\n      POP \t\t\tthe next leaf, otherwise we\\n ...\n      SWAP3 \t\t\tthe next leaf, otherwise we\\n ...\n      SWAP1 \t\t\tthe next leaf, otherwise we\\n ...\n      POP \t\t\tthe next leaf, otherwise we\\n ...\n      JUMP \t\t\tthe next leaf, otherwise we\\n ...\n    tag 94\t\t\t      unchecked {\\n           ...\n      JUMPDEST \t\t\t      unchecked {\\n           ...\n      PUSH 0\t\t\t - 1];\n      PUSH 20\t\t\t) \n      DUP3 \t\t\teavesLen \n      DUP5 \t\t\tlse if \n      SUB \t\t\t } else if (leavesLen >\n      SLT \t\t\t     } else if (leavesLen > 0)...\n      ISZERO \t\t\t        } else if (leavesLen >...\n      PUSH [tag] 918\t\t\t        } else if (leavesLen >...\n      JUMPI \t\t\t        } else if (leavesLen >...\n      PUSH 0\t\t\tr\n      DUP1 \t\t\t \n      REVERT \t\t\t          re\n    tag 918\t\t\t        } else if (leavesLen >...\n      JUMPDEST \t\t\t        } else if (leavesLen >...\n      POP \t\t\t\n      CALLDATALOAD \t\t\t   } else {\\n           \n      SWAP2 \t\t\t   } else {\\n           \n      SWAP1 \t\t\t      unchecked {\\n           ...\n      POP \t\t\t\n      JUMP \t\t\t      unchecked {\\n           ...\n    tag 117\t\t\t pure returns (bytes32 merkleR...\n      JUMPDEST \t\t\t pure returns (bytes32 merkleR...\n      PUSH 0\t\t\t leave\n      PUSH 20\t\t\t\\n \n      DUP1 \t\t\ton\n      DUP4 \t\t\tcing valu\n      DUP6 \t\t\tand pro\n      SUB \t\t\ting and producing value\n      SLT \t\t\tnsuming and producing values o...\n      ISZERO \t\t\t consuming and producing value...\n      PUSH [tag] 922\t\t\t consuming and producing value...\n      JUMPI \t\t\t consuming and producing value...\n      PUSH 0\t\t\tq\n      DUP1 \t\t\th\n      REVERT \t\t\tueue. The qu\n    tag 922\t\t\t consuming and producing value...\n      JUMPDEST \t\t\t consuming and producing value...\n      DUP3 \t\t\ten goes o\n      CALLDATALOAD \t\t\tes` array, then goes on\n      PUSH 1\t\t\t\n      PUSH 1\t\t\t\n      PUSH 40\t\t\t\n      SHL \t\t\t\n      SUB \t\t\t\n      DUP2 \t\t\t// `ha\n      GT \t\t\t   // `hashes` array. At the e\n      ISZERO \t\t\t      // `hashes` array. At th...\n      PUSH [tag] 923\t\t\t      // `hashes` array. At th...\n      JUMPI \t\t\t      // `hashes` array. At th...\n      PUSH 0\t\t\tc\n      DUP1 \t\t\tp\n      REVERT \t\t\tof the proce\n    tag 923\t\t\t      // `hashes` array. At th...\n      JUMPDEST \t\t\t      // `hashes` array. At th...\n      DUP4 \t\t\tthe `hashes` array sho\n      ADD \t\t\tthe `hashes` array sho\n      PUSH 1F\t\t\t // \n      DUP2 \t\t\t\\n        // t\n      ADD \t\t\t\\n        // t\n      DUP6 \t\t\tt of\\n        // the merkle \n      SGT \t\t\t\n      PUSH [tag] 924\t\t\tin the root of\\n        // the...\n      JUMPI \t\t\tin the root of\\n        // the...\n      PUSH 0\t\t\tu\n      DUP1 \t\t\t \n      REVERT \t\t\t.\\n        ui\n    tag 924\t\t\tin the root of\\n        // the...\n      JUMPDEST \t\t\tin the root of\\n        // the...\n      DUP1 \t\t\t  \n      CALLDATALOAD \t\t\tves.length;\\n    \n      PUSH [tag] 925\t\t\t = proof.length;\\n        uint...\n      PUSH [tag] 878\t\t\t\\n        uint256 totalHashes ...\n      DUP3 \t\t\ts.\n      PUSH [tag] 820\t\t\t\\n        uint256 totalHashes ...\n      JUMP \t\t\t\\n        uint256 totalHashes ...\n    tag 925\t\t\t = proof.length;\\n        uint...\n      JUMPDEST \t\t\t = proof.length;\\n        uint...\n      DUP2 \t\t\tdity.\\n        r\n      DUP2 \t\t\tdity.\\n        r\n      MSTORE \t\t\tdity.\\n        r\n      PUSH 6\t\t\ti\n      SWAP2 \t\t\tnvalid mul\n      SWAP1 \t\t\tnvalid mul\n      SWAP2 \t\t\tnvalid mul\n      SHL \t\t\tnvalid mul\n      DUP3 \t\t\tProof: invalid mult\n      ADD \t\t\tProof: invalid mult\n      DUP4 \t\t\trkleProof: invalid multiproo\n      ADD \t\t\trkleProof: invalid multiproo\n      SWAP1 \t\t\trkleProof: invalid multiproo\n      DUP4 \t\t\t + proofLen \n      DUP2 \t\t\t + proofLen \n      ADD \t\t\t + proofLen \n      SWAP1 \t\t\t + proofLen \n      DUP8 \t\t\t  // The xxxPos val\n      DUP4 \t\t\t  // The xxxPos val\n      GT \t\t\t  // The xxxPos val\n      ISZERO \t\t\t     // The xxxPos values are ...\n      PUSH [tag] 927\t\t\t     // The xxxPos values are ...\n      JUMPI \t\t\t     // The xxxPos values are ...\n      PUSH 0\t\t\tt\n      DUP1 \t\t\to\n      REVERT \t\t\t are \"pointe\n    tag 927\t\t\t     // The xxxPos values are ...\n      JUMPDEST \t\t\t     // The xxxPos values are ...\n      SWAP3 \t\t\tto consume \n      DUP5 \t\t\tto consume \n      ADD \t\t\tto consume \n      SWAP3 \t\t\tto consume \n    tag 928\t\t\trray. All accesses are done us...\n      JUMPDEST \t\t\trray. All accesses are done us...\n      DUP3 \t\t\tes are\n      DUP5 \t\t\tcce\n      LT \t\t\tl accesses are \n      ISZERO \t\t\trray. All accesses are done us...\n      PUSH [tag] 930\t\t\trray. All accesses are done us...\n      JUMPI \t\t\trray. All accesses are done us...\n      PUSH 40\t\t\tncre\n      DUP5 \t\t\t an\n      DUP10 \t\t\tent val\n      SUB \t\t\tcurrent value and\n      SLT \t\t\tthe current value and increm\n      ISZERO \t\t\trn the current value and incre...\n      PUSH [tag] 931\t\t\trn the current value and incre...\n      JUMPI \t\t\trn the current value and incre...\n      PUSH 0\t\t\te\n      DUP1 \t\t\ti\n      REVERT \t\t\t the pointer\n    tag 931\t\t\trn the current value and incre...\n      JUMPDEST \t\t\trn the current value and incre...\n      PUSH [tag] 932\t\t\tpop\".\\n        bytes32[\n      PUSH [tag] 814\t\t\tpop\".\\n        bytes32[\n      JUMP \t\t\tpop\".\\n        bytes32[\n    tag 932\t\t\tpop\".\\n        bytes32[\n      JUMPDEST \t\t\tpop\".\\n        bytes32[\n      DUP5 \t\t\t32[](totalHashes)\n      CALLDATALOAD \t\t\t32[](totalHashes)\n      DUP2 \t\t\tes = new bytes32[](totalHashes...\n      MSTORE \t\t\tes = new bytes32[](totalHashes...\n      DUP6 \t\t\thPos = 0;\\n  \n      DUP6 \t\t\thPos = 0;\\n  \n      ADD \t\t\thPos = 0;\\n  \n      CALLDATALOAD \t\t\t  uint256 hashPos = 0;\\n   \n      DUP7 \t\t\tfPos = 0;\\n    \n      DUP3 \t\t\tfPos = 0;\\n    \n      ADD \t\t\tfPos = 0;\\n    \n      MSTORE \t\t\t256 leafPos = 0;\\n        uint...\n      DUP3 \t\t\troofPos = 0;\\n     \n      MSTORE \t\t\troofPos = 0;\\n     \n      PUSH 40\t\t\t// `\n      SWAP1 \t\t\t\\n        // `x\n      SWAP4 \t\t\t\\n        // `x\n      ADD \t\t\t\\n        // `x\n      SWAP3 \t\t\t\\n        // `x\n      SWAP1 \t\t\twe compute t\n      DUP5 \t\t\twe compute t\n      ADD \t\t\twe compute t\n      SWAP1 \t\t\twe compute t\n      PUSH [tag] 928\t\t\trray. All accesses are done us...\n      JUMP \t\t\trray. All accesses are done us...\n    tag 930\t\t\trray. All accesses are done us...\n      JUMPDEST \t\t\trray. All accesses are done us...\n      SWAP8 \t\t\t:\\n   \n      SWAP7 \t\t\t pure returns (bytes32 merkleR...\n      POP \t\t\t\n      POP \t\t\t\n      POP \t\t\t\n      POP \t\t\t\n      POP \t\t\t\n      POP \t\t\t\n      POP \t\t\t\n      JUMP \t\t\t pure returns (bytes32 merkleR...\n    tag 826\t\t\t value from the \"main queue\". ...\n      JUMPDEST \t\t\t value from the \"main queue\". ...\n      PUSH 0\t\t\te\n    tag 934\t\t\twise we\\n        //   get the ...\n      JUMPDEST \t\t\twise we\\n        //   get the ...\n      DUP4 \t\t\t  //  \n      DUP2 \t\t\t \n      LT \t\t\t        //   \n      ISZERO \t\t\twise we\\n        //   get the ...\n      PUSH [tag] 936\t\t\twise we\\n        //   get the ...\n      JUMPI \t\t\twise we\\n        //   get the ...\n      DUP2 \t\t\t value from\n      DUP2 \t\t\t value from\n      ADD \t\t\t value from\n      MLOAD \t\t\tnother value from \n      DUP4 \t\t\tlag, either\n      DUP3 \t\t\tlag, either\n      ADD \t\t\tlag, either\n      MSTORE \t\t\tn the flag, either another val...\n      PUSH 20\t\t\tsh\n      ADD \t\t\tnext hash.\n      PUSH [tag] 934\t\t\twise we\\n        //   get the ...\n      JUMP \t\t\twise we\\n        //   get the ...\n    tag 936\t\t\twise we\\n        //   get the ...\n      JUMPDEST \t\t\twise we\\n        //   get the ...\n      POP \t\t\t\n      POP \t\t\t\n      PUSH 0\t\t\tm\n      SWAP2 \t\t\tranches) or an e\n      ADD \t\t\tranches) or an e\n      MSTORE \t\t\trging branches) or an eleme\n      JUMP \t\t\t value from the \"main queue\". ...\n    tag 827\t\t\t\\n        //   `proof` array.\\...\n      JUMPDEST \t\t\t\\n        //   `proof` array.\\...\n      PUSH 0\t\t\tuin\n      DUP2 \t\t\t\\n    \n      MLOAD \t\t\ti++) {\\n     \n      DUP1 \t\t\tafPos \n      DUP5 \t\t\t = \n      MSTORE \t\t\ttes32 a = leafPos <\n      PUSH [tag] 938\t\t\tn ? leaves[leafPos++] : hashes...\n      DUP2 \t\t\toofFla\n      PUSH 20\t\t\t b =\n      DUP7 \t\t\ttes\n      ADD \t\t\t  bytes32 b = \n      PUSH 20\t\t\t    \n      DUP7 \t\t\t+];\\n \n      ADD \t\t\tPos++];\\n        \n      PUSH [tag] 826\t\t\tn ? leaves[leafPos++] : hashes...\n      JUMP \t\t\tn ? leaves[leafPos++] : hashes...\n    tag 938\t\t\tn ? leaves[leafPos++] : hashes...\n      JUMPDEST \t\t\tn ? leaves[leafPos++] : hashes...\n      PUSH 1F\t\t\tea\n      ADD \t\t\t leavesLen ? le\n      PUSH 1F\t\t\t\n      NOT \t\t\t\n      AND \t\t\tos < leavesLen ? leaves[leafP\n      SWAP3 \t\t\t ? (leafPos < leavesLen ? leav...\n      SWAP1 \t\t\t ? (leafPos < leavesLen ? leav...\n      SWAP3 \t\t\t ? (leafPos < leavesLen ? leav...\n      ADD \t\t\t ? (leafPos < leavesLen ? leav...\n      PUSH 20\t\t\t+] :\n      ADD \t\t\t     ? (leafPos < leavesLen ? ...\n      SWAP3 \t\t\t     ? (leafPos < leavesLen ? ...\n      SWAP2 \t\t\t\\n        //   `proof` array.\\...\n      POP \t\t\t\n      POP \t\t\t\n      JUMP \t\t\t\\n        //   `proof` array.\\...\n    tag 136\t\t\tPos++])\\n                : pro...\n      JUMPDEST \t\t\tPos++])\\n                : pro...\n      DUP3 \t\t\tProof:\n      DUP2 \t\t\ten, \"Merk\n      MSTORE \t\t\t proofLen, \"MerkleProof: \n      PUSH 40\t\t\tch\n      PUSH 20\t\t\t  \n      DUP3 \t\t\t;\\n       \n      ADD \t\t\tof\");\\n            \n      MSTORE \t\t\tultiproof\");\\n            unch...\n      PUSH 0\t\t\trequ\n      PUSH [tag] 701\t\t\t      return hashes[totalHashe...\n      PUSH 40\t\t\t  \n      DUP4 \t\t\ts - 1];\\n \n      ADD \t\t\tashes - 1];\\n      \n      DUP5 \t\t\ts[tota\n      PUSH [tag] 827\t\t\t      return hashes[totalHashe...\n      JUMP \t\t\t      return hashes[totalHashe...\n    tag 147\t\t\t    } else if (leavesLen > 0) ...\n      JUMPDEST \t\t\t    } else if (leavesLen > 0) ...\n      PUSH 20\t\t\tre\n      DUP2 \t\t\tivate pur\n      MSTORE \t\t\t2 b) private pure ret\n      DUP2 \t\t\t, b) :\n      MLOAD \t\t\tHash(a, b) : \n      ISZERO \t\t\tficientHash(a, b) : _\n      ISZERO \t\t\tb ? _efficientHash(a, b) : _e\n      PUSH 20\t\t\t a\n      DUP3 \t\t\t     retu\n      ADD \t\t\t\\n        return a \n      MSTORE \t\t\tes32) {\\n        return a < b ...\n      PUSH 1\t\t\tt\n      DUP1 \t\t\tr\n      PUSH A0\t\t\t b)\n      SHL \t\t\tes32 b) pri\n      SUB \t\t\t bytes32 b) private\n      PUSH 20\t\t\ts3\n      DUP4 \t\t\tash(by\n      ADD \t\t\tentHash(bytes32\n      MLOAD \t\t\tefficientHash(bytes32 \n      AND \t\t\ton _efficientHash(bytes32 a, b...\n      PUSH 40\t\t\tun\n      DUP3 \t\t\t   }\\n\\n   \n      ADD \t\t\t);\\n    }\\n\\n    func\n      MSTORE \t\t\tsh(b, a);\\n    }\\n\\n    functi...\n      PUSH 0\t\t\tr(by\n      PUSH 40\t\t\tdi\n      DUP4 \t\t\t// @so\n      ADD \t\t\t   /// @solidit\n      MLOAD \t\t\t\\n        /// @solidity\n      PUSH 60\t\t\t {\\n \n      DUP1 \t\t\tssem\n      DUP5 \t\t\ty\\n       \n      ADD \t\t\tembly\\n        assemb\n      MSTORE \t\t\tafe-assembly\\n        assembly...\n      DUP1 \t\t\te(0x20, b)\\n \n      MLOAD \t\t\t mstore(0x20, b)\\n  \n      PUSH 80\t\t\t   \n      DUP5 \t\t\t0, a)\\n   \n      ADD \t\t\t(0x00, a)\\n         \n      MSTORE \t\t\t mstore(0x00, a)\\n            ...\n      PUSH 20\t\t\t\\n}\n      DUP2 \t\t\t       }\\n   \n      ADD \t\t\t0)\\n        }\\n    }\\n}\\n\n      MLOAD \t\t\t0, 0x40)\\n        }\\n    }\\n}\\...\n      SWAP1 \t\t\tvalue := keccak256(0x00, 0x40)...\n      POP \t\t\tvalue := keccak256(0x00, 0x40)...\n      PUSH 40\t\t\ted\n      PUSH A0\t\t\t up\n      DUP5 \t\t\tracts (la\n      ADD \t\t\tContracts (last upd\n      MSTORE \t\t\tppelin Contracts (last updated...\n      PUSH [tag] 701\t\t\tlticall.sol)\\n\\n// OpenZeppeli...\n      PUSH C0\t\t\tate\n      DUP5 \t\t\ts (last u\n      ADD \t\t\tracts (last updated\n      DUP3 \t\t\tpenZeppelin Co\n      PUSH [tag] 827\t\t\tlticall.sol)\\n\\n// OpenZeppeli...\n      JUMP \t\t\tlticall.sol)\\n\\n// OpenZeppeli...\n    tag 160\t\t\tme that an address for which t...\n      JUMPDEST \t\t\tme that an address for which t...\n      PUSH 0\t\t\tt (EOA\n      DUP1 \t\t\tand no\n      PUSH 40\t\t\tnt\n      DUP4 \t\t\tthers, `i\n      DUP6 \t\t\t* Among\n      SUB \t\t\t    * Among others, `is\n      SLT \t\t\t *\\n     * Among others, `isCo...\n      ISZERO \t\t\t    *\\n     * Among others, `i...\n      PUSH [tag] 945\t\t\t    *\\n     * Among others, `i...\n      JUMPI \t\t\t    *\\n     * Among others, `i...\n      PUSH 0\t\t\tu\n      DUP1 \t\t\tr\n      REVERT \t\t\t` will retur\n    tag 945\t\t\t    *\\n     * Among others, `i...\n      JUMPDEST \t\t\t    *\\n     * Among others, `i...\n      DUP3 \t\t\types of a\n      CALLDATALOAD \t\t\twing\\n     * types of ad\n      SWAP2 \t\t\t the following\\n     * types o...\n      POP \t\t\t the following\\n     * types o...\n      PUSH 20\t\t\tnt\n      DUP4 \t\t\towned acc\n      ADD \t\t\tlly-owned account\\n\n      CALLDATALOAD \t\t\t - an externally-owned account...\n      PUSH 1\t\t\t\n      PUSH 1\t\t\t\n      PUSH 40\t\t\t\n      SHL \t\t\t\n      SUB \t\t\t\n      DUP1 \t\t\tre\n      DUP3 \t\t\tress w\n      GT \t\t\taddress where \n      ISZERO \t\t\tan address where a contract wi...\n      PUSH [tag] 946\t\t\tan address where a contract wi...\n      JUMPI \t\t\tan address where a contract wi...\n      PUSH 0\t\t\tl\n      DUP1 \t\t\t \n      REVERT \t\t\tontract will\n    tag 946\t\t\tan address where a contract wi...\n      JUMPDEST \t\t\tan address where a contract wi...\n      SWAP1 \t\t\t an address where a co\n      DUP5 \t\t\t an address where a co\n      ADD \t\t\t an address where a co\n      SWAP1 \t\t\t an address where a co\n      PUSH 40\t\t\t  \n      DUP3 \t\t\tt was destroyed\\n\n      DUP8 \t\t\tt was destroyed\\n\n      SUB \t\t\tt was destroyed\\n\n      SLT \t\t\t, but was destroyed\\n     \n      ISZERO \t\t\tved, but was destroyed\\n     *...\n      PUSH [tag] 947\t\t\tved, but was destroyed\\n     *...\n      JUMPI \t\t\tved, but was destroyed\\n     *...\n      PUSH 0\t\t\th\n      DUP1 \t\t\tu\n      REVERT \t\t\t    * Furthe\n    tag 947\t\t\tved, but was destroyed\\n     *...\n      JUMPDEST \t\t\tved, but was destroyed\\n     *...\n      PUSH [tag] 948\t\t\t also return true if t\n      PUSH [tag] 814\t\t\t also return true if t\n      JUMP \t\t\t also return true if t\n    tag 948\t\t\t also return true if t\n      JUMPDEST \t\t\t also return true if t\n      DUP3 \t\t\t s\n      CALLDATALOAD \t\t\tin\\n     * the sa\n      DUP2 \t\t\tct wi\n      MSTORE \t\t\t contract within\\n     * the s...\n      PUSH 20\t\t\tti\n      DUP4 \t\t\ttr\n      ADD \t\t\t destructio\n      CALLDATALOAD \t\t\tscheduled for destruction\n      DUP3 \t\t\t* \n      DUP2 \t\t\tCT`,\\n   \n      GT \t\t\tTRUCT`,\\n     * w\n      ISZERO \t\t\tDESTRUCT`,\\n     * which only ...\n      PUSH [tag] 949\t\t\tDESTRUCT`,\\n     * which only ...\n      JUMPI \t\t\tDESTRUCT`,\\n     * which only ...\n      PUSH 0\t\t\t \n      DUP1 \t\t\th\n      REVERT \t\t\th only has a\n    tag 949\t\t\tDESTRUCT`,\\n     * which only ...\n      JUMPDEST \t\t\tDESTRUCT`,\\n     * which only ...\n      DUP1 \t\t\tsaction.\n      DUP5 \t\t\ttr\n      ADD \t\t\tf a transaction.\\n\n      SWAP4 \t\t\t the end of a transaction.\\n\n      POP \t\t\t the end of a transaction.\\n\n      POP \t\t\t the end of a transaction.\\n\n      DUP7 \t\t\t     * \n      PUSH 1F\t\t\tRTAN\n      DUP5 \t\t\tIM\n      ADD \t\t\t * [IMPORTANT\n      SLT \t\t\t     * [IMPORTANT]\\n     * =\n      PUSH [tag] 950\t\t\t==\\n     *\\n     * [IMPORTANT]...\n      JUMPI \t\t\t==\\n     *\\n     * [IMPORTANT]...\n      PUSH 0\t\t\t \n      DUP1 \t\t\tY\n      REVERT \t\t\t     * You s\n    tag 950\t\t\t==\\n     *\\n     * [IMPORTANT]...\n      JUMPDEST \t\t\t==\\n     *\\n     * [IMPORTANT]...\n      PUSH [tag] 951\t\t\trotect against flash loan atta...\n      DUP8 \t\t\t from c\n      DUP5 \t\t\tca\n      CALLDATALOAD \t\t\t* Preventing cal\n      PUSH 20\t\t\t  \n      DUP7 \t\t\t  \n      ADD \t\t\t\\n     *\\n   \n      PUSH [tag] 823\t\t\trotect against flash loan atta...\n      JUMP \t\t\trotect against flash loan atta...\n    tag 951\t\t\trotect against flash loan atta...\n      JUMPDEST \t\t\trotect against flash loan atta...\n      PUSH 20\t\t\t t\n      DUP3 \t\t\tntrac\n      ADD \t\t\tisContract` to\n      MSTORE \t\t\tly on `isContract` to protect ...\n      DUP1 \t\t\tscour\n      SWAP4 \t\t\t highly discour\n      POP \t\t\t highly discour\n      POP \t\t\t highly discour\n      POP \t\t\t highly discour\n      POP \t\t\t highly discour\n      SWAP3 \t\t\tme that an address for which t...\n      POP \t\t\tme that an address for which t...\n      SWAP3 \t\t\tme that an address for which t...\n      SWAP1 \t\t\tme that an address for which t...\n      POP \t\t\tme that an address for which t...\n      JUMP \t\t\tme that an address for which t...\n    tag 187\t\t\t    // of the constructor exec...\n      JUMPDEST \t\t\t    // of the constructor exec...\n      PUSH 0\t\t\t * @de\n      DUP1 \t\t\tReplac\n      PUSH 20\t\t\t w\n      DUP4 \t\t\tnds `amou\n      DUP6 \t\t\tsfer`: \n      SUB \t\t\ttransfer`: sends `amoun\n      SLT \t\t\t's `transfer`: sends `amount` ...\n      ISZERO \t\t\tity's `transfer`: sends `amoun...\n      PUSH [tag] 955\t\t\tity's `transfer`: sends `amoun...\n      JUMPI \t\t\tity's `transfer`: sends `amoun...\n      PUSH 0\t\t\tr\n      DUP1 \t\t\t*\n      REVERT \t\t\to\\n     * `re\n    tag 955\t\t\tity's `transfer`: sends `amoun...\n      JUMPDEST \t\t\tity's `transfer`: sends `amoun...\n      DUP3 \t\t\t and reve\n      CALLDATALOAD \t\t\tavailable gas and rever\n      PUSH 1\t\t\t\n      PUSH 1\t\t\t\n      PUSH 40\t\t\t\n      SHL \t\t\t\n      SUB \t\t\t\n      DUP1 \t\t\t/e\n      DUP3 \t\t\torg/EI\n      GT \t\t\tum.org/EIPS/ei\n      ISZERO \t\t\tereum.org/EIPS/eip-1884[EIP188...\n      PUSH [tag] 956\t\t\tereum.org/EIPS/eip-1884[EIP188...\n      JUMPI \t\t\tereum.org/EIPS/eip-1884[EIP188...\n      PUSH 0\t\t\t4\n      DUP1 \t\t\t1\n      REVERT \t\t\t884[EIP1884]\n    tag 956\t\t\tereum.org/EIPS/eip-1884[EIP188...\n      JUMPDEST \t\t\tereum.org/EIPS/eip-1884[EIP188...\n      DUP2 \t\t\trtain \n      DUP6 \t\t\t    * of \n      ADD \t\t\tst\\n     * of certain o\n      SWAP2 \t\t\tthe gas cost\\n     * of certai...\n      POP \t\t\tthe gas cost\\n     * of certai...\n      DUP6 \t\t\tver the\n      PUSH 1F\t\t\tts g\n      DUP4 \t\t\ttr\n      ADD \t\t\t contracts go\n      SLT \t\t\tking contracts go over the \n      PUSH [tag] 957\t\t\tossibly making contracts go ov...\n      JUMPI \t\t\tossibly making contracts go ov...\n      PUSH 0\t\t\t\\n\n      DUP1 \t\t\tm\n      REVERT \t\t\t gas limit\\n \n    tag 957\t\t\tossibly making contracts go ov...\n      JUMPDEST \t\t\tossibly making contracts go ov...\n      DUP2 \t\t\tem\n      CALLDATALOAD \t\t\tr`, making them \n      DUP2 \t\t\t v\n      DUP2 \t\t\tve fun\n      GT \t\t\tceive funds vi\n      ISZERO \t\t\t receive funds via\\n     * `tr...\n      PUSH [tag] 958\t\t\t receive funds via\\n     * `tr...\n      JUMPI \t\t\t receive funds via\\n     * `tr...\n      PUSH 0\t\t\tn\n      DUP1 \t\t\tt\n      REVERT \t\t\t    * `trans\n    tag 958\t\t\t receive funds via\\n     * `tr...\n      JUMPDEST \t\t\t receive funds via\\n     * `tr...\n      DUP7 \t\t\t    * h\n      PUSH 20\t\t\t  \n      DUP3 \t\t\tation.\n      PUSH 5\t\t\tm\n      SHL \t\t\ts limitation.\\n\n      DUP6 \t\t\t t\n      ADD \t\t\toves this limitation.\\n \n      ADD \t\t\t removes this limitation.\\n   ...\n      GT \t\t\tue} removes this limitation.\\n...\n      ISZERO \t\t\tValue} removes this limitation...\n      PUSH [tag] 959\t\t\tValue} removes this limitation...\n      JUMPI \t\t\tValue} removes this limitation...\n      PUSH 0\t\t\ty\n      DUP1 \t\t\te\n      REVERT \t\t\t://consensys\n    tag 959\t\t\tValue} removes this limitation...\n      JUMPDEST \t\t\tValue} removes this limitation...\n      PUSH 20\t\t\tto\n      SWAP3 \t\t\t019/09/stop\n      SWAP1 \t\t\t019/09/stop\n      SWAP3 \t\t\t019/09/stop\n      ADD \t\t\t019/09/stop\n      SWAP7 \t\t\t019/09/stop\n      SWAP2 \t\t\tansfer\n      SWAP6 \t\t\tansfer\n      POP \t\t\t\n      SWAP1 \t\t\t    // of the constructor exec...\n      SWAP4 \t\t\t    // of the constructor exec...\n      POP \t\t\t\n      POP \t\t\t\n      POP \t\t\t\n      POP \t\t\t\n      JUMP \t\t\t    // of the constructor exec...\n    tag 190\t\t\t more].\\n     *\\n     * IMPORT...\n      JUMPDEST \t\t\t more].\\n     *\\n     * IMPORT...\n      PUSH 0\t\t\tng\\n \n      PUSH 20\t\t\tr \n      DUP1 \t\t\ts.\n      DUP4 \t\t\t.readthed\n      ADD \t\t\tdity.readthedocs.i\n      PUSH 20\t\t\ter\n      DUP5 \t\t\trity-cons\n      MSTORE \t\t\t.0/security-considera\n      DUP1 \t\t\thecks-\n      DUP6 \t\t\tchecks\n      MLOAD \t\t\tttern[checks-\n      DUP1 \t\t\ttern].\n      DUP4 \t\t\tions p\n      MSTORE \t\t\tnteractions pattern].\\n\n      PUSH 40\t\t\tad\n      DUP7 \t\t\t sendValu\n      ADD \t\t\ttion sendValue(add\n      SWAP2 \t\t\t   function sendValue(add\n      POP \t\t\t   function sendValue(add\n      PUSH 40\t\t\tre\n      DUP2 \t\t\t{\\n    \n      PUSH 5\t\t\ta\n      SHL \t\t\tternal {\\n     \n      DUP8 \t\t\t amount) \n      ADD \t\t\tt256 amount) internal {\\n     ...\n      ADD \t\t\t uint256 amount) internal {\\n ...\n      SWAP3 \t\t\tble recipient, uint256 amount)...\n      POP \t\t\tble recipient, uint256 amount)...\n      PUSH 20\t\t\tt,\n      DUP8 \t\t\t>= amo\n      ADD \t\t\tnce >= amount, \n      PUSH 0\t\t\ti\n    tag 961\t\t\tce\");\\n\\n        (bool success...\n      JUMPDEST \t\t\tce\");\\n\\n        (bool success...\n      DUP3 \t\t\t (bool\n      DUP2 \t\t\t \n      LT \t\t\t       (bool \n      ISZERO \t\t\tce\");\\n\\n        (bool success...\n      PUSH [tag] 963\t\t\tce\");\\n\\n        (bool success...\n      JUMPI \t\t\tce\");\\n\\n        (bool success...\n      PUSH 3F\t\t\tbl\n      NOT \t\t\t unable\n      DUP9 \t\t\ts, \"Addre\n      DUP7 \t\t\te(succ\n      SUB \t\t\tquire(success, \"Addres\n      ADD \t\t\t  require(success, \"Address: u...\n      DUP5 \t\t\t   \n      MSTORE \t\t\t(\"\");\\n        require(success...\n      PUSH [tag] 964\t\t\t may have reverted\");\\n    }\\n...\n      DUP6 \t\t\t/**\\n  \n      DUP4 \t\t\t  }\\n\\n \n      MLOAD \t\t\t\");\\n    }\\n\\n  \n      PUSH [tag] 827\t\t\t may have reverted\");\\n    }\\n...\n      JUMP \t\t\t may have reverted\");\\n    }\\n...\n    tag 964\t\t\t may have reverted\");\\n    }\\n...\n      JUMPDEST \t\t\t may have reverted\");\\n    }\\n...\n      SWAP5 \t\t\t recipient may have reverted\")...\n      POP \t\t\t\n      SWAP3 \t\t\tel `call`. A\n      DUP6 \t\t\tel `call`. A\n      ADD \t\t\tel `call`. A\n      SWAP3 \t\t\tel `call`. A\n      SWAP1 \t\t\tidity function \n      DUP6 \t\t\tidity function \n      ADD \t\t\tidity function \n      SWAP1 \t\t\tidity function \n      PUSH 1\t\t\tc\n      ADD \t\t\t ) = reci\n      PUSH [tag] 961\t\t\tce\");\\n\\n        (bool success...\n      JUMP \t\t\tce\");\\n\\n        (bool success...\n    tag 963\t\t\tce\");\\n\\n        (bool success...\n      JUMPDEST \t\t\tce\");\\n\\n        (bool success...\n      POP \t\t\t\n      SWAP3 \t\t\tunsafe\n      SWAP8 \t\t\tunsafe\n      SWAP7 \t\t\t more].\\n     *\\n     * IMPORT...\n      POP \t\t\t\n      POP \t\t\t\n      POP \t\t\t\n      POP \t\t\t\n      POP \t\t\t\n      POP \t\t\t\n      POP \t\t\t\n      JUMP \t\t\t more].\\n     *\\n     * IMPORT...\n    tag 194\t\t\tt for a function call: use thi...\n      JUMPDEST \t\t\tt for a function call: use thi...\n      PUSH 0\t\t\tup by \n      DUP1 \t\t\tis\\n   \n      PUSH 40\t\t\tll\n      DUP4 \t\t\t function\n      DUP6 \t\t\t Solidi\n      SUB \t\t\tular Solidity function \n      SLT \t\t\t regular Solidity function cal...\n      ISZERO \t\t\tike regular Solidity function ...\n      PUSH [tag] 966\t\t\tike regular Solidity function ...\n      JUMPI \t\t\tike regular Solidity function ...\n      PUSH 0\t\t\t \n      DUP1 \t\t\t \n      REVERT \t\t\t     *\\n     \n    tag 966\t\t\tike regular Solidity function ...\n      JUMPDEST \t\t\tike regular Solidity function ...\n      DUP3 \t\t\tnvert to \n      CALLDATALOAD \t\t\td data. To convert to t\n      PUSH 1\t\t\t\n      PUSH 1\t\t\t\n      PUSH 40\t\t\t\n      SHL \t\t\t\n      SUB \t\t\t\n      DUP1 \t\t\ted\n      DUP3 \t\t\ty.read\n      GT \t\t\tdity.readthedo\n      ISZERO \t\t\tolidity.readthedocs.io/en/late...\n      PUSH [tag] 967\t\t\tolidity.readthedocs.io/en/late...\n      JUMPI \t\t\tolidity.readthedocs.io/en/late...\n      PUSH 0\t\t\ts\n      DUP1 \t\t\ta\n      REVERT \t\t\tio/en/latest\n    tag 967\t\t\tolidity.readthedocs.io/en/late...\n      JUMPDEST \t\t\tolidity.readthedocs.io/en/late...\n      PUSH [tag] 968\t\t\tiables.html?highlight=abi.deco...\n      DUP7 \t\t\toding-f\n      DUP4 \t\t\tg-and-\n      DUP8 \t\t\tabi-encod\n      ADD \t\t\tode#abi-encoding-and-d\n      PUSH [tag] 821\t\t\tiables.html?highlight=abi.deco...\n      JUMP \t\t\tiables.html?highlight=abi.deco...\n    tag 968\t\t\tiables.html?highlight=abi.deco...\n      JUMPDEST \t\t\tiables.html?highlight=abi.deco...\n      SWAP4 \t\t\tglobal-variables.html?highligh...\n      POP \t\t\tglobal-variables.html?highligh...\n      PUSH 20\t\t\t`]\n      SWAP2 \t\t\tabi.decode`]\n      POP \t\t\tabi.decode`]\n      DUP2 \t\t\t` \n      DUP6 \t\t\t* - `targ\n      ADD \t\t\t    * - `target` m\n      CALLDATALOAD \t\t\tnts:\\n     *\\n     * - `target...\n      DUP2 \t\t\t- \n      DUP2 \t\t\tt.\\n     \n      GT \t\t\tract.\\n     * - c\n      ISZERO \t\t\tontract.\\n     * - calling `ta...\n      PUSH [tag] 969\t\t\tontract.\\n     * - calling `ta...\n      JUMPI \t\t\tontract.\\n     * - calling `ta...\n      PUSH 0\t\t\tt\n      DUP1 \t\t\tr\n      REVERT \t\t\ting `target`\n    tag 969\t\t\tontract.\\n     * - calling `ta...\n      JUMPDEST \t\t\tontract.\\n     * - calling `ta...\n      DUP6 \t\t\t revert.\\n     *\\n     * _\n      ADD \t\t\t revert.\\n     *\\n     * _\n      PUSH 1F\t\t\t    \n      DUP2 \t\t\t     */\\n    f\n      ADD \t\t\t     */\\n    f\n      DUP8 \t\t\t1._\\n     */\\n    function fu\n      SGT \t\t\t\n      PUSH [tag] 970\t\t\t since v3.1._\\n     */\\n    fu...\n      JUMPI \t\t\t since v3.1._\\n     */\\n    fu...\n      PUSH 0\t\t\tr\n      DUP1 \t\t\ta\n      REVERT \t\t\tonCall(addre\n    tag 970\t\t\t since v3.1._\\n     */\\n    fu...\n      JUMPDEST \t\t\t since v3.1._\\n     */\\n    fu...\n      DUP1 \t\t\trn\n      CALLDATALOAD \t\t\try data) interna\n      PUSH [tag] 971\t\t\tory) {\\n        return functio...\n      PUSH [tag] 878\t\t\teturn functionCallWithValue(ta...\n      DUP3 \t\t\t, \n      PUSH [tag] 820\t\t\teturn functionCallWithValue(ta...\n      JUMP \t\t\teturn functionCallWithValue(ta...\n    tag 971\t\t\tory) {\\n        return functio...\n      JUMPDEST \t\t\tory) {\\n        return functio...\n      DUP2 \t\t\t;\\n    }\\n\\n    /*\n      DUP2 \t\t\t;\\n    }\\n\\n    /*\n      MSTORE \t\t\t;\\n    }\\n\\n    /*\n      PUSH 5\t\t\tu\n      SWAP2 \t\t\t}[`functio\n      SWAP1 \t\t\t}[`functio\n      SWAP2 \t\t\t}[`functio\n      SHL \t\t\t}[`functio\n      DUP3 \t\t\ts-bytes-}[`function\n      ADD \t\t\ts-bytes-}[`function\n      DUP5 \t\t\tdress-bytes-}[`functionCall`\n      ADD \t\t\tdress-bytes-}[`functionCall`\n      SWAP1 \t\t\tdress-bytes-}[`functionCall`\n      DUP5 \t\t\tme as {xref-\n      DUP2 \t\t\tme as {xref-\n      ADD \t\t\tme as {xref-\n      SWAP1 \t\t\tme as {xref-\n      DUP10 \t\t\t     * `errorMessag\n      DUP4 \t\t\t     * `errorMessag\n      GT \t\t\t     * `errorMessag\n      ISZERO \t\t\tth\\n     * `errorMessage` as a...\n      PUSH [tag] 973\t\t\tth\\n     * `errorMessage` as a...\n      JUMPI \t\t\tth\\n     * `errorMessage` as a...\n      PUSH 0\t\t\ta\n      DUP1 \t\t\tl\n      REVERT \t\t\tas a fallbac\n    tag 973\t\t\tth\\n     * `errorMessage` as a...\n      JUMPDEST \t\t\tth\\n     * `errorMessage` as a...\n      DUP6 \t\t\tre\n      DUP5 \t\t\tet\n      ADD \t\t\ttarget` rev\n    tag 974\t\t\t  *\\n     * _Available since v...\n      JUMPDEST \t\t\t  *\\n     * _Available since v...\n      DUP4 \t\t\tlable \n      DUP2 \t\t\t_Av\n      LT \t\t\t * _Available s\n      ISZERO \t\t\t  *\\n     * _Available since v...\n      PUSH [tag] 976\t\t\t  *\\n     * _Available since v...\n      JUMPI \t\t\t  *\\n     * _Available since v...\n      DUP1 \t\t\tbyt\n      CALLDATALOAD \t\t\tget,\\n        byte\n      DUP7 \t\t\tmo\n      DUP2 \t\t\t    string \n      GT \t\t\t       string memor\n      ISZERO \t\t\t,\\n        string memory error...\n      PUSH [tag] 977\t\t\t,\\n        string memory error...\n      JUMPI \t\t\t,\\n        string memory error...\n      PUSH 0\t\t\te\n      DUP1 \t\t\ts\n      REVERT \t\t\trrorMessage\\n\n    tag 977\t\t\t,\\n        string memory error...\n      JUMPDEST \t\t\t,\\n        string memory error...\n      PUSH [tag] 978\t\t\tes memory) {\\n        return f...\n      DUP13 \t\t\te(targe\n      DUP10 \t\t\thV\n      DUP4 \t\t\tunctionCall\n      DUP10 \t\t\trn\n      ADD \t\t\treturn functionCallW\n      ADD \t\t\t    return functionCallWithVa\n      PUSH [tag] 824\t\t\tes memory) {\\n        return f...\n      JUMP \t\t\tes memory) {\\n        return f...\n    tag 978\t\t\tes memory) {\\n        return f...\n      JUMPDEST \t\t\tes memory) {\\n        return f...\n      DUP5 \t\t\treturns (bytes memory) {\\n    ...\n      MSTORE \t\t\treturns (bytes memory) {\\n    ...\n      POP \t\t\t\n      SWAP2 \t\t\tge);\\n    }\\n\\n\n      DUP7 \t\t\tge);\\n    }\\n\\n\n      ADD \t\t\tge);\\n    }\\n\\n\n      SWAP2 \t\t\tge);\\n    }\\n\\n\n      DUP7 \t\t\t_\\n     */\\n  \n      ADD \t\t\t_\\n     */\\n  \n      PUSH [tag] 974\t\t\t  *\\n     * _Available since v...\n      JUMP \t\t\t  *\\n     * _Available since v...\n    tag 976\t\t\t  *\\n     * _Available since v...\n      JUMPDEST \t\t\t  *\\n     * _Available since v...\n      POP \t\t\t   \n      DUP1 \t\t\txref-\n      SWAP7 \t\t\t Same as {xref-\n      POP \t\t\t Same as {xref-\n      POP \t\t\t Same as {xref-\n      POP \t\t\t Same as {xref-\n      POP \t\t\t Same as {xref-\n      POP \t\t\t Same as {xref-\n      POP \t\t\t Same as {xref-\n      POP \t\t\t Same as {xref-\n      SWAP3 \t\t\tt for a function call: use thi...\n      POP \t\t\tt for a function call: use thi...\n      SWAP3 \t\t\tt for a function call: use thi...\n      SWAP1 \t\t\tt for a function call: use thi...\n      POP \t\t\tt for a function call: use thi...\n      JUMP \t\t\tt for a function call: use thi...\n    tag 197\t\t\tctionCall-address-bytes-}[`fun...\n      JUMPDEST \t\t\tctionCall-address-bytes-}[`fun...\n      PUSH 20\t\t\tit\n      DUP1 \t\t\table since v3.1._\\n   \n      DUP3 \t\t\table since v3.1._\\n   \n      MSTORE \t\t\table since v3.1._\\n   \n      DUP3 \t\t\target, bytes \n      MLOAD \t\t\target, bytes \n      DUP3 \t\t\table`.\\n     *\\n    \n      DUP3 \t\t\table`.\\n     *\\n    \n      ADD \t\t\table`.\\n     *\\n    \n      DUP2 \t\t\tta, uint256 value) int\n      SWAP1 \t\t\tta, uint256 value) int\n      MSTORE \t\t\tta, uint256 value) int\n      PUSH 0\t\t\te`.\\n\n      SWAP2 \t\t\te`.\\n\n      SWAP1 \t\t\tit\n      PUSH 40\t\t\ts \n      SWAP1 \t\t\ts \n      DUP2 \t\t\t  return functionC\n      DUP6 \t\t\t  return functionC\n      ADD \t\t\t  return functionC\n      SWAP1 \t\t\t  return functionC\n      DUP7 \t\t\tta, value, \"Add\n      DUP5 \t\t\tta, value, \"Add\n      ADD \t\t\tta, value, \"Add\n      DUP6 \t\t\te`.\\n\n    tag 980\t\t\tlue failed\");\\n    }\\n\\n    /*...\n      JUMPDEST \t\t\tlue failed\");\\n    }\\n\\n    /*...\n      DUP3 \t\t\t    }\\n\n      DUP2 \t\t\t)\n      LT \t\t\ted\");\\n    }\\n\\n\n      ISZERO \t\t\tlue failed\");\\n    }\\n\\n    /*...\n      PUSH [tag] 982\t\t\tlue failed\");\\n    }\\n\\n    /*...\n      JUMPI \t\t\tlue failed\");\\n    }\\n\\n    /*...\n      DUP2 \t\t\tllWithValue-a\n      MLOAD \t\t\tllWithValue-a\n      DUP1 \t\t\tionCallWi\n      MLOAD \t\t\tionCallWi\n      PUSH 1\t\t\t\n      PUSH 1\t\t\t\n      PUSH A0\t\t\t\n      SHL \t\t\t\n      SUB \t\t\t\n      AND \t\t\tunctionCallWithValue`], but\\n ...\n      DUP6 \t\t\tuint256-}[`functionCallWithVal...\n      MSTORE \t\t\tuint256-}[`functionCallWithVal...\n      DUP7 \t\t\treason when\n      ADD \t\t\treason when\n      MLOAD \t\t\tevert reason when \n      DUP7 \t\t\ts a fallback\n      DUP6 \t\t\ts a fallback\n      ADD \t\t\ts a fallback\n      MSTORE \t\t\tsage` as a fallback revert rea...\n      SWAP3 \t\t\t  *\\n     * _\n      DUP5 \t\t\t  *\\n     * _\n      ADD \t\t\t  *\\n     * _\n      SWAP3 \t\t\t  *\\n     * _\n      SWAP1 \t\t\t     */\\n    fun\n      DUP6 \t\t\t     */\\n    fun\n      ADD \t\t\t     */\\n    fun\n      SWAP1 \t\t\t     */\\n    fun\n      PUSH 1\t\t\t \n      ADD \t\t\t     * @d\n      PUSH [tag] 980\t\t\tlue failed\");\\n    }\\n\\n    /*...\n      JUMP \t\t\tlue failed\");\\n    }\\n\\n    /*...\n    tag 982\t\t\tlue failed\");\\n    }\\n\\n    /*...\n      JUMPDEST \t\t\tlue failed\");\\n    }\\n\\n    /*...\n      POP \t\t\t\n      SWAP2 \t\t\t(\\n \n      SWAP8 \t\t\t(\\n \n      SWAP7 \t\t\tctionCall-address-bytes-}[`fun...\n      POP \t\t\t\n      POP \t\t\t\n      POP \t\t\t\n      POP \t\t\t\n      POP \t\t\t\n      POP \t\t\t\n      POP \t\t\t\n      JUMP \t\t\tctionCall-address-bytes-}[`fun...\n    tag 828\t\t\tess target,\\n        bytes mem...\n      JUMPDEST \t\t\tess target,\\n        bytes mem...\n      PUSH FFFFFFFF\t\t\trrorMessag\n      DUP2 \t\t\temory\n      AND \t\t\tng memory errorMessage\n      DUP2 \t\t\t   st\n      EQ \t\t\t      string memory errorMessa...\n      PUSH [tag] 441\t\t\t value,\\n        string memory...\n      JUMPI \t\t\t value,\\n        string memory...\n      PUSH 0\t\t\t \n      DUP1 \t\t\tn\n      REVERT \t\t\t) internal r\n    tag 209\t\t\t memory) {\\n        require(ad...\n      JUMPDEST \t\t\t memory) {\\n        require(ad...\n      PUSH 0\t\t\t: insu\n      DUP1 \t\t\ticient\n      PUSH 40\t\t\tes\n      DUP4 \t\t\tsuccess, \n      DUP6 \t\t\t   (boo\n      SUB \t\t\t       (bool success, b\n      SLT \t\t\t);\\n        (bool success, byt...\n      ISZERO \t\t\tll\");\\n        (bool success, ...\n      PUSH [tag] 986\t\t\tll\");\\n        (bool success, ...\n      JUMPI \t\t\tll\");\\n        (bool success, ...\n      PUSH 0\t\t\td\n      DUP1 \t\t\tu\n      REVERT \t\t\tory returnda\n    tag 986\t\t\tll\");\\n        (bool success, ...\n      JUMPDEST \t\t\tll\");\\n        (bool success, ...\n      DUP3 \t\t\t;\\n       \n      CALLDATALOAD \t\t\t value}(data);\\n        \n      PUSH 1\t\t\t\n      PUSH 1\t\t\t\n      PUSH 80\t\t\t\n      SHL \t\t\t\n      SUB \t\t\t\n      DUP2 \t\t\t(targ\n      AND \t\t\trget(target, success, returnda...\n      DUP2 \t\t\ttFrom\n      EQ \t\t\tsultFromTarget(target, success...\n      PUSH [tag] 987\t\t\trifyCallResultFromTarget(targe...\n      JUMPI \t\t\trifyCallResultFromTarget(targe...\n      PUSH 0\t\t\t*\n      DUP1 \t\t\t \n      REVERT \t\t\t  }\\n\\n    /**\n    tag 987\t\t\trifyCallResultFromTarget(targe...\n      JUMPDEST \t\t\trifyCallResultFromTarget(targe...\n      SWAP2 \t\t\t{xref\n      POP \t\t\t\n      PUSH 20\t\t\t],\n      DUP4 \t\t\t[`functionCall`],\\n\n      ADD \t\t\t[`functionCall`],\\n\n      CALLDATALOAD \t\t\tdress-bytes-}[`functionCall`],...\n      PUSH [tag] 915\t\t\t performing a static call.\\n  ...\n      DUP2 \t\t\tdress-bytes-}[`functionCall`],...\n      PUSH [tag] 828\t\t\t performing a static call.\\n  ...\n      JUMP \t\t\t performing a static call.\\n  ...\n    tag 520\t\t\t   /**\\n     * @dev Same as {x...\n      JUMPDEST \t\t\t   /**\\n     * @dev Same as {x...\n      PUSH 4E487B71\t\t\t-bytes-str\n      PUSH E0\t\t\tdre\n      SHL \t\t\tl-address-bytes-stri\n      PUSH 0\t\t\tC\n      MSTORE \t\t\tunctionCall-address-bytes-stri...\n      PUSH 21\t\t\t,\\n  \n      PUSH 4\t\t\tl\n      MSTORE \t\t\ttionCall`],\\n   \n      PUSH 24\t\t\ta st\n      PUSH 0\t\t\tn\n      REVERT \t\t\terforming a sta\n    tag 235\t\t\t    *\\n     * _Available since...\n      JUMPDEST \t\t\t    *\\n     * _Available since...\n      PUSH 20\t\t\t m\n      DUP2 \t\t\t\\n        string me\n      ADD \t\t\t\\n        string me\n      PUSH 7\t\t\ta\n      DUP4 \t\t\t   ) internal\n      LT \t\t\t   ) internal\n      PUSH [tag] 992\t\t\trMessage\\n    ) internal view ...\n      JUMPI \t\t\trMessage\\n    ) internal view ...\n      PUSH 4E487B71\t\t\tl success,\n      PUSH E0\t\t\t (b\n      SHL \t\t\t     (bool success, \n      PUSH 0\t\t\t \n      MSTORE \t\t\tory) {\\n        (bool success,...\n      PUSH 21\t\t\t = t\n      PUSH 4\t\t\tt\n      MSTORE \t\t\teturndata) = ta\n      PUSH 24\t\t\t    \n      PUSH 0\t\t\t)\n      REVERT \t\t\tll(data);\\n     \n    tag 992\t\t\trMessage\\n    ) internal view ...\n      JUMPDEST \t\t\trMessage\\n    ) internal view ...\n      SWAP2 \t\t\tlResultFromTarget(target,\n      SWAP1 \t\t\tlResultFromTarget(target,\n      MSTORE \t\t\tlResultFromTarget(target,\n      SWAP1 \t\t\t    *\\n     * _Available since...\n      JUMP \t\t\t    *\\n     * _Available since...\n    tag 239\t\t\teturndata, errorMessage);\\n   ...\n      JUMPDEST \t\t\teturndata, errorMessage);\\n   ...\n      PUSH 0\t\t\tnction\n      DUP1 \t\t\tll-add\n      PUSH 40\t\t\tmi\n      DUP4 \t\t\t* but per\n      DUP6 \t\t\t`],\\n   \n      SUB \t\t\tCall`],\\n     * but perf\n      SLT \t\t\ttionCall`],\\n     * but perfor...\n      ISZERO \t\t\tunctionCall`],\\n     * but per...\n      PUSH [tag] 994\t\t\tunctionCall`],\\n     * but per...\n      JUMPI \t\t\tunctionCall`],\\n     * but per...\n      PUSH 0\t\t\tc\n      DUP1 \t\t\tt\n      REVERT \t\t\t delegate ca\n    tag 994\t\t\tunctionCall`],\\n     * but per...\n      JUMPDEST \t\t\tunctionCall`],\\n     * but per...\n      DUP3 \t\t\t v3.4._\\n \n      CALLDATALOAD \t\t\tailable since v3.4._\\n  \n      SWAP2 \t\t\t     * _Available since v3.4._...\n      POP \t\t\t     * _Available since v3.4._...\n      PUSH 20\t\t\tge\n      DUP4 \t\t\taddress t\n      ADD \t\t\tall(address target\n      CALLDATALOAD \t\t\ttionDelegateCall(address targe...\n      PUSH 1\t\t\t\n      PUSH 1\t\t\t\n      PUSH 40\t\t\t\n      SHL \t\t\t\n      SUB \t\t\t\n      DUP2 \t\t\tata) i\n      GT \t\t\ty data) internal returns (byte\n      ISZERO \t\t\tmory data) internal returns (b...\n      PUSH [tag] 995\t\t\tmory data) internal returns (b...\n      JUMPI \t\t\tmory data) internal returns (b...\n      PUSH 0\t\t\t \n      DUP1 \t\t\t{\n      REVERT \t\t\temory) {\\n   \n    tag 995\t\t\tmory data) internal returns (b...\n      JUMPDEST \t\t\tmory data) internal returns (b...\n      PUSH [tag] 996\t\t\telegateCall(target, data, \"Add...\n      DUP6 \t\t\tevel de\n      DUP3 \t\t\tss: lo\n      DUP7 \t\t\tata, \"Add\n      ADD \t\t\tt, data, \"Address: low\n      PUSH [tag] 824\t\t\telegateCall(target, data, \"Add...\n      JUMP \t\t\telegateCall(target, data, \"Add...\n    tag 996\t\t\telegateCall(target, data, \"Add...\n      JUMPDEST \t\t\telegateCall(target, data, \"Add...\n      SWAP2 \t\t\t functionDelegateCall(target, ...\n      POP \t\t\t functionDelegateCall(target, ...\n      POP \t\t\t functionDelegateCall(target, ...\n      SWAP3 \t\t\teturndata, errorMessage);\\n   ...\n      POP \t\t\teturndata, errorMessage);\\n   ...\n      SWAP3 \t\t\teturndata, errorMessage);\\n   ...\n      SWAP1 \t\t\teturndata, errorMessage);\\n   ...\n      POP \t\t\teturndata, errorMessage);\\n   ...\n      JUMP \t\t\teturndata, errorMessage);\\n   ...\n    tag 279\t\t\tateCall(\\n        address targ...\n      JUMPDEST \t\t\tateCall(\\n        address targ...\n      PUSH 1\t\t\t\n      PUSH 1\t\t\t\n      PUSH 40\t\t\t\n      SHL \t\t\t\n      SUB \t\t\t\n      SWAP6 \t\t\t   /**\\n     * @\n      DUP7 \t\t\t   /**\\n     * @\n      AND \t\t\t   /**\\n     * @\n      DUP2 \t\t\tMessage);\\n    }\\n\\n    /**\\n ...\n      MSTORE \t\t\tMessage);\\n    }\\n\\n    /**\\n ...\n      SWAP4 \t\t\tall to smart-co\n      DUP6 \t\t\tall to smart-co\n      AND \t\t\tall to smart-co\n      PUSH 20\t\t\tve\n      DUP6 \t\t\ty that a low level\n      ADD \t\t\ty that a low level\n      MSTORE \t\t\to verify that a low level call...\n      SWAP2 \t\t\tther by bubblin\n      DUP5 \t\t\tther by bubblin\n      AND \t\t\tther by bubblin\n      PUSH 40\t\t\tt \n      DUP5 \t\t\tsful, and revert (\n      ADD \t\t\tsful, and revert (\n      MSTORE \t\t\t successful, and revert (eithe...\n      SWAP1 \t\t\the provided one\n      SWAP3 \t\t\the provided one\n      AND \t\t\the provided one\n      PUSH 60\t\t\tin\n      DUP3 \t\t\trt reason or using\n      ADD \t\t\trt reason or using\n      MSTORE \t\t\the revert reason or using the ...\n      PUSH 1\t\t\t\n      PUSH 1\t\t\t\n      PUSH A0\t\t\t\n      SHL \t\t\t\n      SUB \t\t\t\n      SWAP1 \t\t\target was not a contract.\\n   ...\n      SWAP2 \t\t\target was not a contract.\\n   ...\n      AND \t\t\target was not a contract.\\n   ...\n      PUSH 80\t\t\tr i\n      DUP3 \t\t\tccessful call or if\n      ADD \t\t\tccessful call or if\n      MSTORE \t\t\tof unsuccessful call or if tar...\n      PUSH A0\t\t\tesu\n      ADD \t\t\turn verifyCallResul\n      SWAP1 \t\t\turn verifyCallResul\n      JUMP \t\t\tateCall(\\n        address targ...\n    tag 829\t\t\tilable since v4.8._\\n     */\\n...\n      JUMPDEST \t\t\tilable since v4.8._\\n     */\\n...\n      PUSH 4E487B71\t\t\tTarget(\\n  \n      PUSH E0\t\t\ttFr\n      SHL \t\t\tesultFromTarget(\\n   \n      PUSH 0\t\t\tl\n      MSTORE \t\t\terifyCallResultFromTarget(\\n  ...\n      PUSH 11\t\t\t\\n   \n      PUSH 4\t\t\te\n      MSTORE \t\t\tss target,\\n    \n      PUSH 24\t\t\t    \n      PUSH 0\t\t\t,\n      REVERT \t\t\tsuccess,\\n      \n    tag 296\t\t\tory returndata,\\n        strin...\n      JUMPDEST \t\t\tory returndata,\\n        strin...\n      PUSH 1\t\t\t\n      PUSH 1\t\t\t\n      PUSH 40\t\t\t\n      SHL \t\t\t\n      SUB \t\t\t\n      DUP2 \t\t\tf (success\n      DUP2 \t\t\tf (success\n      AND \t\t\tf (success\n      DUP4 \t\t\t{\\n        \n      DUP3 \t\t\t{\\n        \n      AND \t\t\t{\\n        \n      ADD \t\t\t   if (success) {\\n         \n      SWAP1 \t\t\t   if (success) {\\n         \n      DUP1 \t\t\tndata.lengt\n      DUP3 \t\t\tndata.lengt\n      GT \t\t\tndata.lengt\n      ISZERO \t\t\tturndata.length == 0) {\\n     ...\n      PUSH [tag] 362\t\t\tturndata.length == 0) {\\n     ...\n      JUMPI \t\t\tturndata.length == 0) {\\n     ...\n      PUSH [tag] 362\t\t\t= 0) {\\n           \n      PUSH [tag] 829\t\t\t= 0) {\\n           \n      JUMP \t\t\t= 0) {\\n           \n    tag 830\t\t\tcheck isContract if the call w...\n      JUMPDEST \t\t\tcheck isContract if the call w...\n      DUP1 \t\t\t          // \n      MLOAD \t\t\t          // \n      PUSH [tag] 1004\t\t\t we already know that it was a...\n      DUP2 \t\t\t          // \n      PUSH [tag] 813\t\t\t we already know that it was a...\n      JUMP \t\t\t we already know that it was a...\n    tag 1004\t\t\t we already know that it was a...\n      JUMPDEST \t\t\t we already know that it was a...\n      SWAP2 \t\t\tcheck isContract if the call w...\n      SWAP1 \t\t\tcheck isContract if the call w...\n      POP \t\t\tcheck isContract if the call w...\n      JUMP \t\t\tcheck isContract if the call w...\n    tag 831\t\t\t              require(isContra...\n      JUMPDEST \t\t\t              require(isContra...\n      PUSH 0\t\t\tll to\n      DUP3 \t\t\tn r\n      PUSH 1F\t\t\t  re\n      DUP4 \t\t\t      \n      ADD \t\t\t}\\n            ret\n      SLT \t\t\t    }\\n            return re\n      PUSH [tag] 1006\t\t\t;\\n            }\\n            ...\n      JUMPI \t\t\t;\\n            }\\n            ...\n      PUSH 0\t\t\t \n      DUP1 \t\t\t \n      REVERT \t\t\tdata;\\n      \n    tag 1006\t\t\t;\\n            }\\n            ...\n      JUMPDEST \t\t\t;\\n            }\\n            ...\n      DUP2 \t\t\tert(re\n      MLOAD \t\t\t  _revert(ret\n      PUSH [tag] 1007\t\t\t        }\\n    }\\n\\n    /**\\n ...\n      PUSH [tag] 878\t\t\t\\n    /**\\n     * @dev Tool to...\n      DUP3 \t\t\t v\n      PUSH [tag] 822\t\t\t\\n    /**\\n     * @dev Tool to...\n      JUMP \t\t\t\\n    /**\\n     * @dev Tool to...\n    tag 1007\t\t\t        }\\n    }\\n\\n    /**\\n ...\n      JUMPDEST \t\t\t        }\\n    }\\n\\n    /**\\n ...\n      DUP2 \t\t\t w\n      DUP2 \t\t\tevel ca\n      MSTORE \t\t\ta low level call wa\n      DUP5 \t\t\ter \n      PUSH 20\t\t\tt, e\n      DUP4 \t\t\twa\n      DUP7 \t\t\tt if i\n      ADD \t\t\tevert if it was\n      ADD \t\t\tnd revert if it wasn't, ei\n      GT \t\t\t, and revert if it wasn't, eit...\n      ISZERO \t\t\tful, and revert if it wasn't, ...\n      PUSH [tag] 1009\t\t\tful, and revert if it wasn't, ...\n      JUMPI \t\t\tful, and revert if it wasn't, ...\n      PUSH 0\t\t\te\n      DUP1 \t\t\t \n      REVERT \t\t\tubbling the\\n\n    tag 1009\t\t\tful, and revert if it wasn't, ...\n      JUMPDEST \t\t\tful, and revert if it wasn't, ...\n      PUSH [tag] 701\t\t\trt reason or using the provide...\n      DUP3 \t\t\t\\n \n      PUSH 20\t\t\t v4.\n      DUP4 \t\t\tble sin\n      ADD \t\t\tailable since v4.3\n      PUSH 20\t\t\t  * \n      DUP8 \t\t\t   *\\n \n      ADD \t\t\t.\\n     *\\n     * _\n      PUSH [tag] 826\t\t\trt reason or using the provide...\n      JUMP \t\t\trt reason or using the provide...\n    tag 832\t\t\t\\n        bool success,\\n     ...\n      JUMPDEST \t\t\t\\n        bool success,\\n     ...\n      PUSH 0\t\t\tring \n      PUSH 40\t\t\turns\n      DUP3 \t\t\tnal pure \n      DUP5 \t\t\tint\n      SUB \t\t\t  ) internal pure r\n      SLT \t\t\te\\n    ) internal pure returns...\n      ISZERO \t\t\tsage\\n    ) internal pure retu...\n      PUSH [tag] 1012\t\t\tsage\\n    ) internal pure retu...\n      JUMPI \t\t\tsage\\n    ) internal pure retu...\n      PUSH 0\t\t\t)\n      DUP1 \t\t\to\n      REVERT \t\t\ttes memory) \n    tag 1012\t\t\tsage\\n    ) internal pure retu...\n      JUMPDEST \t\t\tsage\\n    ) internal pure retu...\n      PUSH [tag] 1013\t\t\ts) {\\n            retur\n      PUSH [tag] 814\t\t\ts) {\\n            retur\n      JUMP \t\t\ts) {\\n            retur\n    tag 1013\t\t\ts) {\\n            retur\n      JUMPDEST \t\t\ts) {\\n            retur\n      SWAP1 \t\t\tf (success) {\\n            ret...\n      POP \t\t\tf (success) {\\n            ret...\n      DUP2 \t\t\t{\\n       \n      MLOAD \t\t\t else {\\n        \n      DUP2 \t\t\t     \n      MSTORE \t\t\tata;\\n        } else {\\n      ...\n      PUSH 20\t\t\t  \n      DUP3 \t\t\tge);\\n    \n      ADD \t\t\tessage);\\n        }\n      MLOAD \t\t\terrorMessage);\\n        }\\n\n      PUSH 1\t\t\t\n      PUSH 1\t\t\t\n      PUSH 40\t\t\t\n      SHL \t\t\t\n      SUB \t\t\t\n      DUP2 \t\t\ttion _\n      GT \t\t\tunction _revert(bytes memory r\n      ISZERO \t\t\t  function _revert(bytes memor...\n      PUSH [tag] 1014\t\t\t  function _revert(bytes memor...\n      JUMPI \t\t\t  function _revert(bytes memor...\n      PUSH 0\t\t\tr\n      DUP1 \t\t\t \n      REVERT \t\t\trndata, stri\n    tag 1014\t\t\t  function _revert(bytes memor...\n      JUMPDEST \t\t\t  function _revert(bytes memor...\n      PUSH [tag] 1015\t\t\tre {\\n        // Look for reve...\n      DUP5 \t\t\tup \n      DUP3 \t\t\tubble \n      DUP6 \t\t\teason and\n      ADD \t\t\trt reason and bubble i\n      PUSH [tag] 831\t\t\tre {\\n        // Look for reve...\n      JUMP \t\t\tre {\\n        // Look for reve...\n    tag 1015\t\t\tre {\\n        // Look for reve...\n      JUMPDEST \t\t\tre {\\n        // Look for reve...\n      PUSH 20\t\t\tte\n      DUP4 \t\t\t) pri\n      ADD \t\t\tsage) private \n      MSTORE \t\t\trrorMessage) private pure {\\n ...\n      POP \t\t\trrorMessage) private pure {\\n ...\n      SWAP3 \t\t\t\\n        bool success,\\n     ...\n      SWAP2 \t\t\t\\n        bool success,\\n     ...\n      POP \t\t\t\\n        bool success,\\n     ...\n      POP \t\t\t\\n        bool success,\\n     ...\n      JUMP \t\t\t\\n        bool success,\\n     ...\n    tag 302\t\t\t      if (returndata.length > ...\n      JUMPDEST \t\t\t      if (returndata.length > ...\n      PUSH 0\t\t\tn is u\n      PUSH 20\t\t\tit\n      DUP3 \t\t\t  /// @so\n      DUP5 \t\t\t       \n      SUB \t\t\tly\\n            /// @sol\n      SLT \t\t\tsembly\\n            /// @solid...\n      ISZERO \t\t\t assembly\\n            /// @so...\n      PUSH [tag] 1017\t\t\t assembly\\n            /// @so...\n      JUMPI \t\t\t assembly\\n            /// @so...\n      PUSH 0\t\t\ta\n      DUP1 \t\t\tf\n      REVERT \t\t\tmory-safe-as\n    tag 1017\t\t\t assembly\\n            /// @so...\n      JUMPDEST \t\t\t assembly\\n            /// @so...\n      DUP2 \t\t\t         \n      MLOAD \t\t\tly {\\n           \n      PUSH 1\t\t\t\n      PUSH 1\t\t\t\n      PUSH 40\t\t\t\n      SHL \t\t\t\n      SUB \t\t\t\n      DUP1 \t\t\t  \n      DUP3 \t\t\t      \n      GT \t\t\t             r\n      ISZERO \t\t\t                revert(add(32,...\n      PUSH [tag] 1018\t\t\t                revert(add(32,...\n      JUMPI \t\t\t                revert(add(32,...\n      PUSH 0\t\t\t \n      DUP1 \t\t\t3\n      REVERT \t\t\trt(add(32, r\n    tag 1018\t\t\t                revert(add(32,...\n      JUMPDEST \t\t\t                revert(add(32,...\n      SWAP1 \t\t\ta_size)\\n            }\\n\n      DUP4 \t\t\ta_size)\\n            }\\n\n      ADD \t\t\ta_size)\\n            }\\n\n      SWAP1 \t\t\ta_size)\\n            }\\n\n      PUSH C0\t\t\tt(er\n      DUP3 \t\t\t\\n            rev\n      DUP7 \t\t\t\\n            rev\n      SUB \t\t\t\\n            rev\n      SLT \t\t\tse {\\n            revert(err\n      ISZERO \t\t\t else {\\n            revert(er...\n      PUSH [tag] 1019\t\t\t else {\\n            revert(er...\n      JUMPI \t\t\t else {\\n            revert(er...\n      PUSH 0\t\t\t \n      DUP1 \t\t\t;\n      REVERT \t\t\tessage);\\n   \n    tag 1019\t\t\t else {\\n            revert(er...\n      JUMPDEST \t\t\t else {\\n            revert(er...\n      PUSH [tag] 1020\t\t\tdev Provides a functio\n      PUSH [tag] 815\t\t\tdev Provides a functio\n      JUMP \t\t\tdev Provides a functio\n    tag 1020\t\t\tdev Provides a functio\n      JUMPDEST \t\t\tdev Provides a functio\n      DUP3 \t\t\tca\n      MLOAD \t\t\ttiple cal\n      DUP2 \t\t\ther m\n      MSTORE \t\t\th together multiple call\n      PUSH 20\t\t\tai\n      DUP4 \t\t\t _\n      ADD \t\t\t*\\n * _Avail\n      MLOAD \t\t\tall.\\n *\\n * _Availa\n      PUSH [tag] 1021\t\t\t v4.1._\\n */\\nabstract contrac...\n      DUP2 \t\t\tract Mu\n      PUSH [tag] 813\t\t\t v4.1._\\n */\\nabstract contrac...\n      JUMP \t\t\t v4.1._\\n */\\nabstract contrac...\n    tag 1021\t\t\t v4.1._\\n */\\nabstract contrac...\n      JUMPDEST \t\t\t v4.1._\\n */\\nabstract contrac...\n      PUSH 20\t\t\tv \n      DUP3 \t\t\t\\n     * @dev R\n      ADD \t\t\t\\n     * @dev R\n      MSTORE \t\t\t    /**\\n     * @dev Receives ...\n      PUSH 40\t\t\tn \n      DUP4 \t\t\t calls on t\n      ADD \t\t\t calls on t\n      MLOAD \t\t\tnction calls on th\n      PUSH [tag] 1022\t\t\tct.\\n     * @custom:oz-upgrade...\n      DUP2 \t\t\tnction calls on th\n      PUSH [tag] 813\t\t\tct.\\n     * @custom:oz-upgrade...\n      JUMP \t\t\tct.\\n     * @custom:oz-upgrade...\n    tag 1022\t\t\tct.\\n     * @custom:oz-upgrade...\n      JUMPDEST \t\t\tct.\\n     * @custom:oz-upgrade...\n      PUSH 40\t\t\tte\n      DUP3 \t\t\table delegatec\n      ADD \t\t\table delegatec\n      MSTORE \t\t\tw-reachable delegatecall\\n    ...\n      PUSH 60\t\t\tta\n      DUP4 \t\t\t] calldata \n      ADD \t\t\t] calldata \n      MLOAD \t\t\tbytes[] calldata d\n      DUP3 \t\t\tl virtual return\n      DUP2 \t\t\tl virtual return\n      GT \t\t\tl virtual return\n      ISZERO \t\t\trnal virtual returns (bytes[] ...\n      PUSH [tag] 1023\t\t\trnal virtual returns (bytes[] ...\n      JUMPI \t\t\trnal virtual returns (bytes[] ...\n      PUSH 0\t\t\tm\n      DUP1 \t\t\t \n      REVERT \t\t\tbytes[] memo\n    tag 1023\t\t\trnal virtual returns (bytes[] ...\n      JUMPDEST \t\t\trnal virtual returns (bytes[] ...\n      PUSH [tag] 1024\t\t\tw bytes[](data.length);\\n     ...\n      DUP8 \t\t\tata.len\n      DUP3 \t\t\t = 0; i \n      DUP7 \t\t\t56\n      ADD \t\t\tint256 i = 0; i <\n      PUSH [tag] 832\t\t\tw bytes[](data.length);\\n     ...\n      JUMP \t\t\tw bytes[](data.length);\\n     ...\n    tag 1024\t\t\tw bytes[](data.length);\\n     ...\n      JUMPDEST \t\t\tw bytes[](data.length);\\n     ...\n      PUSH 60\t\t\t =\n      DUP4 \t\t\tresul\n      ADD \t\t\t    results = \n      MSTORE \t\t\t {\\n        results = new byte...\n      POP \t\t\t {\\n        results = new byte...\n      PUSH 80\t\t\ttio\n      DUP4 \t\t\tfu\n      ADD \t\t\tess.function\n      MLOAD \t\t\t= Address.functionD\n      PUSH 80\t\t\tts[\n      DUP3 \t\t\t  res\n      ADD \t\t\t      results[i\n      MSTORE \t\t\t\\n            results[i] = Add...\n      PUSH A0\t\t\t   \n      DUP4 \t\t\t }\n      ADD \t\t\t     }\\n     \n      MLOAD \t\t\t);\\n        }\\n      \n      PUSH A0\t\t\tata\n      DUP3 \t\t\this),\n      ADD \t\t\tss(this), data[\n      MSTORE \t\t\tl(address(this), data[i]);\\n  ...\n      DUP1 \t\t\t  }\\n}\n      SWAP4 \t\t\tesults;\\n    }\\n}\n      POP \t\t\tesults;\\n    }\\n}\n      POP \t\t\tesults;\\n    }\\n}\n      POP \t\t\tesults;\\n    }\\n}\n      POP \t\t\tesults;\\n    }\\n}\n      SWAP3 \t\t\t      if (returndata.length > ...\n      SWAP2 \t\t\t      if (returndata.length > ...\n      POP \t\t\t      if (returndata.length > ...\n      POP \t\t\t      if (returndata.length > ...\n      JUMP \t\t\t      if (returndata.length > ...\n    tag 305\t\t\taces\\n\\n// Interfaces\\n\\n// In...\n      JUMPDEST \t\t\taces\\n\\n// Interfaces\\n\\n// In...\n      DUP2 \t\t\t⡀⠀⠀⠀⠀⠀⠀⠀⠀\n      DUP2 \t\t\t⡀⠀⠀⠀⠀⠀⠀⠀⠀\n      SUB \t\t\t⡀⠀⠀⠀⠀⠀⠀⠀⠀\n      DUP2 \t\t\t⠀⠀⠀⠀⠀⠀⠀⣼⣿⣿⣷\n      DUP2 \t\t\t⠀⠀⠀⠀⠀⠀⠀⣼⣿⣿⣷\n      GT \t\t\t⠀⠀⠀⠀⠀⠀⠀⣼⣿⣿⣷\n      ISZERO \t\t\t⠀⠀⠀⠀⠀⠀⠀⠀⠀⠀⣼⣿⣿⣷⣄⠀⠀⠀⠀⠀⠀⠀⠀⠀⠀⠀⢸⣿⣿⣿...\n      PUSH [tag] 289\t\t\t⠀⠀⠀⠀⠀⠀⠀⠀⠀⠀⣼⣿⣿⣷⣄⠀⠀⠀⠀⠀⠀⠀⠀⠀⠀⠀⢸⣿⣿⣿...\n      JUMPI \t\t\t⠀⠀⠀⠀⠀⠀⠀⠀⠀⠀⣼⣿⣿⣷⣄⠀⠀⠀⠀⠀⠀⠀⠀⠀⠀⠀⢸⣿⣿⣿...\n      PUSH [tag] 289\t\t\t⠀⠀⠀⠀⠀⠀⠀⠀⠀⢸⣿⣿⣿⣗⠀⠀⠀⢸\n      PUSH [tag] 829\t\t\t⠀⠀⠀⠀⠀⠀⠀⠀⠀⢸⣿⣿⣿⣗⠀⠀⠀⢸\n      JUMP \t\t\t⠀⠀⠀⠀⠀⠀⠀⠀⠀⢸⣿⣿⣿⣗⠀⠀⠀⢸\n    tag 321\t\t\t⠀⠀⠀⠀⠀⠀⠀⠀⠀⠀⠀⠀⠀⠀\\n// ⠀⠀⠀⠀⠀⠀⠀⠀⠀⠀⠀...\n      JUMPDEST \t\t\t⠀⠀⠀⠀⠀⠀⠀⠀⠀⠀⠀⠀⠀⠀\\n// ⠀⠀⠀⠀⠀⠀⠀⠀⠀⠀⠀...\n      PUSH 4E487B71\t\t\t⠀⠀⠀⠀⣼⣿⣿⣿⣿⣿\n      PUSH E0\t\t\t⠀⠀⠀\n      SHL \t\t\t⠀⠀⠀⠀⠀⠀⠀⠀⠀⠀⠀⠀⠀⣼⣿⣿⣿⣿⣿⡄\n      PUSH 0\t\t\t⠀\n      MSTORE \t\t\t⠀⠀⠀⠀⠀⠀⠀⠀⠀⠀⠀⠀⠀⠀⠀⠀⠀⠀⠀⠀⠀⠀⠀⣼⣿⣿⣿⣿⣿⡄...\n      PUSH 32\t\t\t⣿⣿⡯⠀\n      PUSH 4\t\t\t⠀\n      MSTORE \t\t\t⢸⣿⣿⣿⣗⠀⠀⠀⢸⣿⣿⣿⡯⠀⠀\n      PUSH 24\t\t\t⠀⠀\\n/\n      PUSH 0\t\t\t⠀\n      REVERT \t\t\t⠀⠀⠀⠀⠀⠀⠀⠀⠀⠀⠀⠀\\n//\n    tag 331\t\t\t⠀⠀⢀⣠⣴⣴⣶⣶⣶⣦⣦⣀⡀⠀⠀⠀⠀⠀⠀\\n// ⠀⠀⠀⠀⠀⠀...\n      JUMPDEST \t\t\t⠀⠀⢀⣠⣴⣴⣶⣶⣶⣦⣦⣀⡀⠀⠀⠀⠀⠀⠀\\n// ⠀⠀⠀⠀⠀⠀...\n      PUSH 1\t\t\t⣧\n      DUP2 \t\t\t⢻⣿⣿⣿⣧⠀⠀⠀⠀⠀⠀⠀\n      DUP2 \t\t\t⢻⣿⣿⣿⣧⠀⠀⠀⠀⠀⠀⠀\n      SHR \t\t\t⢻⣿⣿⣿⣧⠀⠀⠀⠀⠀⠀⠀\n      SWAP1 \t\t\t⢻⣿⣿⣿⣧⠀⠀⠀⠀⠀⠀⠀\n      DUP3 \t\t\t⠀\\n// ⠀⠀⠀⠀⠀⢀⣾\n      AND \t\t\t⠀\\n// ⠀⠀⠀⠀⠀⢀⣾\n      DUP1 \t\t\t⠀\\n// ⠀⠀⠀⠀⠀⢀⣾\n      PUSH [tag] 1031\t\t\t⠀⠀⠘⣿⣿⣿⣿⣿⡿⠀⠀⠀⠀⠀⠀⠀⠀⠀⠀⠀⠀⠀⠀⠀⠀⠀⢀⣾⣿⣿...\n      JUMPI \t\t\t⠀⠀⠘⣿⣿⣿⣿⣿⡿⠀⠀⠀⠀⠀⠀⠀⠀⠀⠀⠀⠀⠀⠀⠀⠀⠀⢀⣾⣿⣿...\n      PUSH 7F\t\t\t⠀⠀⢸⣿\n      DUP3 \t\t\t⠀⠀⢸⣿⣿⣿\n      AND \t\t\t⠀⠀⠀⠀⠀⠀⢸⣿⣿⣿⣗⠀⠀⠀⢸⣿⣿\n      SWAP2 \t\t\t⠀⠀⠀⠀⠈⢿⣿⣿⣿⣆⠀⠀⠀⠀⠀⠀⢸⣿⣿⣿⣗⠀⠀⠀⢸⣿⣿\n      POP \t\t\t⠀⠀⠀⠀⠈⢿⣿⣿⣿⣆⠀⠀⠀⠀⠀⠀⢸⣿⣿⣿⣗⠀⠀⠀⢸⣿⣿\n    tag 1031\t\t\t⠀⠀⠘⣿⣿⣿⣿⣿⡿⠀⠀⠀⠀⠀⠀⠀⠀⠀⠀⠀⠀⠀⠀⠀⠀⠀⢀⣾⣿⣿...\n      JUMPDEST \t\t\t⠀⠀⠘⣿⣿⣿⣿⣿⡿⠀⠀⠀⠀⠀⠀⠀⠀⠀⠀⠀⠀⠀⠀⠀⠀⠀⢀⣾⣿⣿...\n      PUSH 20\t\t\t⠈⢿\n      DUP3 \t\t\t⣿⡿⠀⠀⠀⠀\n      LT \t\t\t⣿⣿⣿⣿⡿⠀⠀⠀⠀⠀⠀⠈⢿⣿\n      DUP2 \t\t\t⣿⣿⣿⣿⣆⠀⠀⠀\\n// ⠀⠀⠀⠀⢀⣾\n      SUB \t\t\t⠈⠘⠹⣿⣿⣿⣿⣆⠀⠀⠀\\n// ⠀⠀⠀⠀⢀⣾⣿⣿⣿⣿⣿⣿⡿⠀...\n      PUSH [tag] 1032\t\t\t⠁⠀⠀⠈⠘⠹⣿⣿⣿⣿⣆⠀⠀⠀\\n// ⠀⠀⠀⠀⢀⣾⣿⣿⣿⣿⣿...\n      JUMPI \t\t\t⠁⠀⠀⠈⠘⠹⣿⣿⣿⣿⣆⠀⠀⠀\\n// ⠀⠀⠀⠀⢀⣾⣿⣿⣿⣿⣿...\n      PUSH 4E487B71\t\t\t⣿⣿⣿⣗⠀⠀⠀⢸⣿⣿\n      PUSH E0\t\t\t⠀⠀⠀\n      SHL \t\t\t⣿⣿⡄⠀⠀⠀⠀⠀⢸⣿⣿⣿⣗⠀⠀⠀⢸⣿⣿⣿\n      PUSH 0\t\t\t⠘\n      MSTORE \t\t\t⠏⠀⠀⠀⠀⠀⠀⠘⣿⣿⣿⣿⡄⠀⠀⠀⠀⠀⢸⣿⣿⣿⣗⠀⠀⠀⢸⣿⣿⣿...\n      PUSH 22\t\t\t\\n// \n      PUSH 4\t\t\t⡀\n      MSTORE \t\t\t⠀⠀⠘⣿⣿⣿⣿⡀⠀⠀\\n// ⠀\n      PUSH 24\t\t\t⠀⠀⠀⠀\n      PUSH 0\t\t\t⢿\n      REVERT \t\t\t⢀⠀⡀⢀⠀⡀⢈⢿⡟⠁⠀⠀⠀⠀⠀\n    tag 1032\t\t\t⠁⠀⠀⠈⠘⠹⣿⣿⣿⣿⣆⠀⠀⠀\\n// ⠀⠀⠀⠀⢀⣾⣿⣿⣿⣿⣿...\n      JUMPDEST \t\t\t⠁⠀⠀⠈⠘⠹⣿⣿⣿⣿⣆⠀⠀⠀\\n// ⠀⠀⠀⠀⢀⣾⣿⣿⣿⣿⣿...\n      POP \t\t\t⠁⠀⠀⠈⠘⠹⣿⣿⣿⣿⣆⠀⠀⠀\\n// ⠀⠀⠀⠀⢀⣾⣿⣿⣿⣿⣿...\n      SWAP2 \t\t\t⠀⠀⢀⣠⣴⣴⣶⣶⣶⣦⣦⣀⡀⠀⠀⠀⠀⠀⠀\\n// ⠀⠀⠀⠀⠀⠀...\n      SWAP1 \t\t\t⠀⠀⢀⣠⣴⣴⣶⣶⣶⣦⣦⣀⡀⠀⠀⠀⠀⠀⠀\\n// ⠀⠀⠀⠀⠀⠀...\n      POP \t\t\t⠀⠀⢀⣠⣴⣴⣶⣶⣶⣦⣦⣀⡀⠀⠀⠀⠀⠀⠀\\n// ⠀⠀⠀⠀⠀⠀...\n      JUMP \t\t\t⠀⠀⢀⣠⣴⣴⣶⣶⣶⣦⣦⣀⡀⠀⠀⠀⠀⠀⠀\\n// ⠀⠀⠀⠀⠀⠀...\n    tag 834\t\t\t⢸⣿⣿⣿⡯⠀⠀⠸⣿⣿⣿⣷⡀⠀⠀⠀⠀⠀⠀⠀⢠⣿⣿⣿⣿⠂⠀⠀\\n...\n      JUMPDEST \t\t\t⢸⣿⣿⣿⡯⠀⠀⠸⣿⣿⣿⣷⡀⠀⠀⠀⠀⠀⠀⠀⢠⣿⣿⣿⣿⠂⠀⠀\\n...\n      PUSH 1F\t\t\t⠀⠀\n      DUP3 \t\t\t⣿⣿⣿\n      GT \t\t\t⠀⠀⢸⣿⣿⣿⣗⠀⠀⠀⢸\n      ISZERO \t\t\t⣿⣧⠀⠀⠀⢸⣿⣿⣿⣗⠀⠀⠀⢸⣿⣿⣿⡯⠀⠀⠀⢻⣿⣿⣿⣷⣀⢀⠀⠀...\n      PUSH [tag] 267\t\t\t⣿⣧⠀⠀⠀⢸⣿⣿⣿⣗⠀⠀⠀⢸⣿⣿⣿⡯⠀⠀⠀⢻⣿⣿⣿⣷⣀⢀⠀⠀...\n      JUMPI \t\t\t⣿⣧⠀⠀⠀⢸⣿⣿⣿⣗⠀⠀⠀⢸⣿⣿⣿⡯⠀⠀⠀⢻⣿⣿⣿⣷⣀⢀⠀⠀...\n      DUP1 \t\t\t⠀⠀⠀⠀⠀\n      PUSH 0\t\t\t \n      MSTORE \t\t\t⠏⠀⠀⠀\\n// ⠀⠀⠀⠀⠀⠀⠀⠀\n      PUSH 20\t\t\t⠀⠀⠀⠀\n      PUSH 0\t\t\t⠃\n      KECCAK256 \t\t\t⠀⠀⠀⠀⠀⢰⣿⣿⣿⣿⠃⠀⠀⠀⠀⠀⠀⠀\n      PUSH 1F\t\t\t⠀⠀\n      DUP5 \t\t\t⠀⠀⠀⠀⠀⠀⠀⠀⠀⠀\n      ADD \t\t\t\\n// ⠀⠀⠀⠀⠀⠀⠀⠀⠀⠀⠀⠀⠀⠀⠀\n      PUSH 5\t\t\t⠀\n      SHR \t\t\t⣿⡿⠋⠀⠀⠀⠀\\n// ⠀⠀⠀⠀⠀⠀⠀⠀⠀⠀⠀⠀⠀⠀⠀⠈\n      DUP2 \t\t\t⣾⣾⣷⣿\n      ADD \t\t\t⣿⣿⣿⣿⣾⣾⣷⣿⣿⣿⣿⡿⠋⠀⠀⠀⠀\\n// ⠀⠀⠀⠀⠀⠀⠀⠀...\n      PUSH 20\t\t\t⠀⠀⠀⠀\n      DUP6 \t\t\t⠀⠠⠿⠻⠟⠿⠃⠀⠀⠀\n      LT \t\t\t⠀⠀⠀⠀⠠⠿⠻⠟⠿⠃⠀⠀⠀⠀⠀⠀⠀⠀⠀⠀\n      ISZERO \t\t\t⠀⠀⠀⠀⠀⠀⠀⠠⠿⠻⠟⠿⠃⠀⠀⠀⠀⠀⠀⠀⠀⠀⠀⠀⠀⠀⠀⠸⠟⠿...\n      PUSH [tag] 1036\t\t\t⠀⠀⠀⠀⠀⠀⠀⠠⠿⠻⠟⠿⠃⠀⠀⠀⠀⠀⠀⠀⠀⠀⠀⠀⠀⠀⠀⠸⠟⠿...\n      JUMPI \t\t\t⠀⠀⠀⠀⠀⠀⠀⠠⠿⠻⠟⠿⠃⠀⠀⠀⠀⠀⠀⠀⠀⠀⠀⠀⠀⠀⠀⠸⠟⠿...\n      POP \t\t\t\n      DUP1 \t\t\t⠀⠸⠿⠿\n    tag 1036\t\t\t⠀⠀⠀⠀⠀⠀⠀⠠⠿⠻⠟⠿⠃⠀⠀⠀⠀⠀⠀⠀⠀⠀⠀⠀⠀⠀⠀⠸⠟⠿...\n      JUMPDEST \t\t\t⠀⠀⠀⠀⠀⠀⠀⠠⠿⠻⠟⠿⠃⠀⠀⠀⠀⠀⠀⠀⠀⠀⠀⠀⠀⠀⠀⠸⠟⠿...\n      PUSH 1F\t\t\to.\n      DUP5 \t\t\t  a\n      ADD \t\t\t      allo.g\n      PUSH 5\t\t\t \n      SHR \t\t\t             allo.gi\n      DUP3 \t\t\t    \n      ADD \t\t\t\\n//                    allo.g...\n      SWAP2 \t\t\t⡿⠿⠛⠁⠀⠀⠀⠀⠀⠀\\n//                ...\n      POP \t\t\t⡿⠿⠛⠁⠀⠀⠀⠀⠀⠀\\n//                ...\n    tag 1037\t\t\tne-mc <aditya@gitcoin.co>, @0x...\n      JUMPDEST \t\t\tne-mc <aditya@gitcoin.co>, @0x...\n      DUP2 \t\t\toi\n      DUP2 \t\t\tya@gi\n      LT \t\t\tditya@gitcoin\n      ISZERO \t\t\tne-mc <aditya@gitcoin.co>, @0x...\n      PUSH [tag] 756\t\t\tne-mc <aditya@gitcoin.co>, @0x...\n      JUMPI \t\t\tne-mc <aditya@gitcoin.co>, @0x...\n      PUSH 0\t\t\ti\n      DUP2 \t\t\tjason <jason@git\n      SSTORE \t\t\tjason <jason@git\n      PUSH 1\t\t\tc\n      ADD \t\t\tt <kurt@gitco\n      PUSH [tag] 1037\t\t\tne-mc <aditya@gitcoin.co>, @0x...\n      JUMP \t\t\tne-mc <aditya@gitcoin.co>, @0x...\n    tag 352\t\t\t /// @notice Protocol ID corre...\n      JUMPDEST \t\t\t /// @notice Protocol ID corre...\n      DUP2 \t\t\t Po\n      MLOAD \t\t\tnotice Poi\n      PUSH 1\t\t\t\n      PUSH 1\t\t\t\n      PUSH 40\t\t\t\n      SHL \t\t\t\n      SUB \t\t\t\n      DUP2 \t\t\tfetch \n      GT \t\t\tto fetch metadata for the spec\n      ISZERO \t\t\th) to fetch metadata for the s...\n      PUSH [tag] 1043\t\t\th) to fetch metadata for the s...\n      JUMPI \t\t\th) to fetch metadata for the s...\n      PUSH [tag] 1043\t\t\ted protocol\\n    st\n      PUSH [tag] 358\t\t\ted protocol\\n    st\n      JUMP \t\t\ted protocol\\n    st\n    tag 1043\t\t\ted protocol\\n    st\n      JUMPDEST \t\t\ted protocol\\n    st\n      PUSH [tag] 1044\t\t\tr;\\n}\\n\\n// ⠀⠀⠀⠀⠀⠀⠀⠀⠀⠀⠀⠀⠀⠀⠀⠀⢀⣾...\n      DUP2 \t\t\t⠀⠀⠀⠀⠀⠀\n      PUSH [tag] 1045\t\t\t⠀⠀⠀⠀⠀⠀⠀⣼⣿⣿⣷⣄⠀⠀⠀⠀⠀⠀⠀⠀⠀⠀⠀⢸⣿⣿⣿⣗⠀⠀...\n      DUP5 \t\t\t⣿⣿⣿⡯\n      SLOAD \t\t\t⣿⣗⠀⠀⠀⢸⣿⣿⣿⡯⠀\n      PUSH [tag] 331\t\t\t⠀⠀⠀⠀⠀⠀⠀⣼⣿⣿⣷⣄⠀⠀⠀⠀⠀⠀⠀⠀⠀⠀⠀⢸⣿⣿⣿⣗⠀⠀...\n      JUMP \t\t\t⠀⠀⠀⠀⠀⠀⠀⣼⣿⣿⣷⣄⠀⠀⠀⠀⠀⠀⠀⠀⠀⠀⠀⢸⣿⣿⣿⣗⠀⠀...\n    tag 1045\t\t\t⠀⠀⠀⠀⠀⠀⠀⣼⣿⣿⣷⣄⠀⠀⠀⠀⠀⠀⠀⠀⠀⠀⠀⢸⣿⣿⣿⣗⠀⠀...\n      JUMPDEST \t\t\t⠀⠀⠀⠀⠀⠀⠀⣼⣿⣿⣷⣄⠀⠀⠀⠀⠀⠀⠀⠀⠀⠀⠀⢸⣿⣿⣿⣗⠀⠀...\n      DUP5 \t\t\t⠀⠀⠀⠀\n      PUSH [tag] 834\t\t\tr;\\n}\\n\\n// ⠀⠀⠀⠀⠀⠀⠀⠀⠀⠀⠀⠀⠀⠀⠀⠀⢀⣾...\n      JUMP \t\t\tr;\\n}\\n\\n// ⠀⠀⠀⠀⠀⠀⠀⠀⠀⠀⠀⠀⠀⠀⠀⠀⢀⣾...\n    tag 1044\t\t\tr;\\n}\\n\\n// ⠀⠀⠀⠀⠀⠀⠀⠀⠀⠀⠀⠀⠀⠀⠀⠀⢀⣾...\n      JUMPDEST \t\t\tr;\\n}\\n\\n// ⠀⠀⠀⠀⠀⠀⠀⠀⠀⠀⠀⠀⠀⠀⠀⠀⢀⣾...\n      PUSH 20\t\t\t⠀⠀⠀⠀\n      DUP1 \t\t\t⠀⠀⠀⠀\n      PUSH 1F\t\t\t⠀⠀\n      DUP4 \t\t\t⠀⠀⠀⠀⠀⠀⠀⠀⠀⠀⠀⠀⠀⠀\n      GT \t\t\t⠀⠀⠀⠀⠀⠀⠀⠀⠀⠀⠀⠀⠀⠀\n      PUSH 1\t\t\t⠀\n      DUP2 \t\t\t⠀⠀⠀⠀⠀⠀⠀⠀⠀⠀⠀⢸⣿⣿⣿⣿⣿⣿⡄⠀⠀⠀⠀⠀⠀⠀⠀⠀⠀⠀...\n      EQ \t\t\t⠀⠀⠀⠀⠀⠀⠀⠀⠀⠀⠀⢸⣿⣿⣿⣿⣿⣿⡄⠀⠀⠀⠀⠀⠀⠀⠀⠀⠀⠀...\n      PUSH [tag] 1047\t\t\t⠀⠀⠀⠀⠀⠀⠀⠀⠀⠀⠀⢸⣿⣿⣿⣿⣿⣿⡄⠀⠀⠀⠀⠀⠀⠀⠀⠀⠀⠀...\n      JUMPI \t\t\t⠀⠀⠀⠀⠀⠀⠀⠀⠀⠀⠀⢸⣿⣿⣿⣿⣿⣿⡄⠀⠀⠀⠀⠀⠀⠀⠀⠀⠀⠀...\n      PUSH 0\t\t\t⠀\n      DUP5 \t\t\t⠀⠀⣠⣿⣿⣿\n      ISZERO \t\t\t// ⠀⠀⣠⣿⣿⣿⣿⣿⣿⡿⠋⢻⣿⣿⣿⣿⣿⣿⣿⣿⣿⣿⣿⣷⣶⣄⡀...\n      PUSH [tag] 1048\t\t\t// ⠀⠀⣠⣿⣿⣿⣿⣿⣿⡿⠋⢻⣿⣿⣿⣿⣿⣿⣿⣿⣿⣿⣿⣷⣶⣄⡀...\n      JUMPI \t\t\t// ⠀⠀⣠⣿⣿⣿⣿⣿⣿⡿⠋⢻⣿⣿⣿⣿⣿⣿⣿⣿⣿⣿⣿⣷⣶⣄⡀...\n      POP \t\t\t\n      DUP6 \t\t\t⠿⠿⠿⢿⣿⣿⣿⣷⡀⠀⠀⠀⢸⣿⣿⣿⣗⠀⠀\n      DUP4 \t\t\t⠿⠿⠿⢿⣿⣿⣿⣷⡀⠀⠀⠀⢸⣿⣿⣿⣗⠀⠀\n      ADD \t\t\t⠿⠿⠿⢿⣿⣿⣿⣷⡀⠀⠀⠀⢸⣿⣿⣿⣗⠀⠀\n      MLOAD \t\t\t⠿⠿⠿⠿⠿⠿⠿⠿⠿⢿⣿⣿⣿⣷⡀⠀⠀⠀⢸⣿⣿⣿⣗⠀⠀⠀\n    tag 1048\t\t\t// ⠀⠀⣠⣿⣿⣿⣿⣿⣿⡿⠋⢻⣿⣿⣿⣿⣿⣿⣿⣿⣿⣿⣿⣷⣶⣄⡀...\n      JUMPDEST \t\t\t// ⠀⠀⣠⣿⣿⣿⣿⣿⣿⡿⠋⢻⣿⣿⣿⣿⣿⣿⣿⣿⣿⣿⣿⣷⣶⣄⡀...\n      PUSH 0\t\t\t\n      NOT \t\t\t\n      PUSH 3\t\t\th\n      DUP7 \t\t\ted througho\n      SWAP1 \t\t\ted througho\n      SHL \t\t\ted througho\n      SHR \t\t\ts used throughout the sy\n      NOT \t\t\tat is used throughout the sys\n      AND \t\t\trotocol that is used throughou...\n      PUSH 1\t\t\tr\n      DUP6 \t\t\t.\\nstruct Me\n      SWAP1 \t\t\t.\\nstruct Me\n      SHL \t\t\t.\\nstruct Me\n      OR \t\t\te protocol that is used throug...\n      DUP6 \t\t\t⠀\\n// ⠀⠀⠙⠛⠿⠻⠻⠛⠉⠀⠀⠈⢿⣿⣿⣿⣿⣿⣿⣿⣿⣿⣿⣿...\n      SSTORE \t\t\t⠀\\n// ⠀⠀⠙⠛⠿⠻⠻⠛⠉⠀⠀⠈⢿⣿⣿⣿⣿⣿⣿⣿⣿⣿⣿⣿...\n      PUSH [tag] 689\t\t\t⠀⠀⠀⠀⠀⠀⠀⠀⠀⠀⠀⠀⠀⠀⠀⠀⠀⠀⠀⠀⠀⠀\\n// ⠀⠀⠀...\n      JUMP \t\t\t⠀⠀⠀⠀⠀⠀⠀⠀⠀⠀⠀⠀⠀⠀⠀⠀⠀⠀⠀⠀⠀⠀\\n// ⠀⠀⠀...\n    tag 1047\t\t\t⠀⠀⠀⠀⠀⠀⠀⠀⠀⠀⠀⢸⣿⣿⣿⣿⣿⣿⡄⠀⠀⠀⠀⠀⠀⠀⠀⠀⠀⠀...\n      JUMPDEST \t\t\t⠀⠀⠀⠀⠀⠀⠀⠀⠀⠀⠀⢸⣿⣿⣿⣿⣿⣿⡄⠀⠀⠀⠀⠀⠀⠀⠀⠀⠀⠀...\n      PUSH 0\t\t\t⣿\n      DUP6 \t\t\t⣿⣿⣿⣿⣿⣿⣿⣿⣿⣿⣿⣷⣶⣄\n      DUP2 \t\t\t⣿⣿⣿⣿⣿⣿⣿⣿⣿⣿⣿⣷⣶⣄\n      MSTORE \t\t\t⣿⣿⣿⣿⣿⣿⣿⣿⣿⣿⣿⣷⣶⣄\n      PUSH 20\t\t\t⣿⣿⣿⣷\n      DUP2 \t\t\t⣿⡿⢿⠿⠿⠿⠿⠿⠿⠿⠿⠿⢿⣿⣿⣿⣷⡀\n      KECCAK256 \t\t\t⣿⡿⢿⠿⠿⠿⠿⠿⠿⠿⠿⠿⢿⣿⣿⣿⣷⡀\n      PUSH 1F\t\t\t\n      NOT \t\t\t\n      DUP7 \t\t\t⠀⠀⠀⠀⠀⠀⣸⣿⣿⣿⢿⣿⣿⣿⡀⠀⠀⠀⠀⠀\n      AND \t\t\t⠀⠀⠀⠀⠀⠀⣸⣿⣿⣿⢿⣿⣿⣿⡀⠀⠀⠀⠀⠀\n      SWAP2 \t\t\t⠀⠀⠀⠀⠀⠀⣸⣿⣿⣿⢿⣿⣿⣿⡀⠀⠀⠀⠀⠀\n    tag 1051\t\t\t⣷⡀⠀⠀⠀⠀⠀⠀⠀⠀⢸⣿⣿⣿⣗⠀⠀⠀⢸⣿⣿⣿⡯⠀⠀⠀⠀⠀⠀⠀...\n      JUMPDEST \t\t\t⣷⡀⠀⠀⠀⠀⠀⠀⠀⠀⢸⣿⣿⣿⣗⠀⠀⠀⢸⣿⣿⣿⡯⠀⠀⠀⠀⠀⠀⠀...\n      DUP3 \t\t\t⣗⠀⠀⠀⢸⣿⣿\n      DUP2 \t\t\t⣿\n      LT \t\t\t⠀⠀⢸⣿⣿⣿⣗⠀⠀⠀⢸⣿⣿⣿\n      ISZERO \t\t\t⣷⡀⠀⠀⠀⠀⠀⠀⠀⠀⢸⣿⣿⣿⣗⠀⠀⠀⢸⣿⣿⣿⡯⠀⠀⠀⠀⠀⠀⠀...\n      PUSH [tag] 1053\t\t\t⣷⡀⠀⠀⠀⠀⠀⠀⠀⠀⢸⣿⣿⣿⣗⠀⠀⠀⢸⣿⣿⣿⡯⠀⠀⠀⠀⠀⠀⠀...\n      JUMPI \t\t\t⣷⡀⠀⠀⠀⠀⠀⠀⠀⠀⢸⣿⣿⣿⣗⠀⠀⠀⢸⣿⣿⣿⡯⠀⠀⠀⠀⠀⠀⠀...\n      DUP9 \t\t\t⣿⣿⣧⠀⠀⠀⠀⠀⠀⠀⠀⢸⣿⣿⣿⣗⠀⠀⠀\n      DUP7 \t\t\t⣿⣿⣧⠀⠀⠀⠀⠀⠀⠀⠀⢸⣿⣿⣿⣗⠀⠀⠀\n      ADD \t\t\t⣿⣿⣧⠀⠀⠀⠀⠀⠀⠀⠀⢸⣿⣿⣿⣗⠀⠀⠀\n      MLOAD \t\t\t⣿⡿⠀⠀⠸⣿⣿⣿⣧⠀⠀⠀⠀⠀⠀⠀⠀⢸⣿⣿⣿⣗⠀⠀⠀⢸\n      DUP3 \t\t\t⠀⠀⠀⠀⠀⠀⠀⠀⠀⠀⠀⠀⢠⣿⣿⣿⡿⠀⠀⠸⣿⣿⣿⣧⠀⠀⠀⠀⠀⠀...\n      SSTORE \t\t\t⠀⠀⠀⠀⠀⠀⠀⠀⠀⠀⠀⠀⢠⣿⣿⣿⡿⠀⠀⠸⣿⣿⣿⣧⠀⠀⠀⠀⠀⠀...\n      SWAP5 \t\t\t⠀⠀⢠⣿⣿⣿⣿⠁⠀⠀⠀⢻⣿⣿⣿⣧⠀⠀⠀⠀⠀⠀⠀⢸⣿⣿⣿\n      DUP5 \t\t\t⠀⠀⢠⣿⣿⣿⣿⠁⠀⠀⠀⢻⣿⣿⣿⣧⠀⠀⠀⠀⠀⠀⠀⢸⣿⣿⣿\n      ADD \t\t\t⠀⠀⢠⣿⣿⣿⣿⠁⠀⠀⠀⢻⣿⣿⣿⣧⠀⠀⠀⠀⠀⠀⠀⢸⣿⣿⣿\n      SWAP5 \t\t\t⠀⠀⢠⣿⣿⣿⣿⠁⠀⠀⠀⢻⣿⣿⣿⣧⠀⠀⠀⠀⠀⠀⠀⢸⣿⣿⣿\n      PUSH 1\t\t\t⣿\n      SWAP1 \t\t\t// ⠀⠀⠀⠀⠀⠀⠀⣴⣿⣿⣿\n      SWAP2 \t\t\t// ⠀⠀⠀⠀⠀⠀⠀⣴⣿⣿⣿\n      ADD \t\t\t// ⠀⠀⠀⠀⠀⠀⠀⣴⣿⣿⣿\n      SWAP1 \t\t\t// ⠀⠀⠀⠀⠀⠀⠀⣴⣿⣿⣿\n      DUP5 \t\t\t⠀⠀⠀⠀⠀⠀⠀⠀⠀⠀⠀⠀⠀⠀⠀⠀\\n//\n      ADD \t\t\t⠀⠀⠀⠀⠀⠀⠀⠀⠀⠀⠀⠀⠀⠀⠀⠀\\n//\n      PUSH [tag] 1051\t\t\t⣷⡀⠀⠀⠀⠀⠀⠀⠀⠀⢸⣿⣿⣿⣗⠀⠀⠀⢸⣿⣿⣿⡯⠀⠀⠀⠀⠀⠀⠀...\n      JUMP \t\t\t⣷⡀⠀⠀⠀⠀⠀⠀⠀⠀⢸⣿⣿⣿⣗⠀⠀⠀⢸⣿⣿⣿⡯⠀⠀⠀⠀⠀⠀⠀...\n    tag 1053\t\t\t⣷⡀⠀⠀⠀⠀⠀⠀⠀⠀⢸⣿⣿⣿⣗⠀⠀⠀⢸⣿⣿⣿⡯⠀⠀⠀⠀⠀⠀⠀...\n      JUMPDEST \t\t\t⣷⡀⠀⠀⠀⠀⠀⠀⠀⠀⢸⣿⣿⣿⣗⠀⠀⠀⢸⣿⣿⣿⡯⠀⠀⠀⠀⠀⠀⠀...\n      POP \t\t\t⠀⠀⠀\n      DUP6 \t\t\t⣾⣿⣿⣿⣿⣿\n      DUP3 \t\t\t// ⠀⠀⠀⠀\n      LT \t\t\t⠀⠀\\n// ⠀⠀⠀⠀⠀⢀⣾⣿⣿⣿⣿⣿⣿\n      ISZERO \t\t\t⡀⠀⠀⠀⠀\\n// ⠀⠀⠀⠀⠀⢀⣾⣿⣿⣿⣿⣿⣿⡿⠁⠀⠀⠀⠘⣿...\n      PUSH [tag] 1054\t\t\t⡀⠀⠀⠀⠀\\n// ⠀⠀⠀⠀⠀⢀⣾⣿⣿⣿⣿⣿⣿⡿⠁⠀⠀⠀⠘⣿...\n      JUMPI \t\t\t⡀⠀⠀⠀⠀\\n// ⠀⠀⠀⠀⠀⢀⣾⣿⣿⣿⣿⣿⣿⡿⠁⠀⠀⠀⠘⣿...\n      DUP8 \t\t\t⣿⣗⠀⠀⠀⢸⣿⣿⣿⡯⠀⠀⠀⣰⣿⣿⣿⡿⠋\n      DUP6 \t\t\t⣿⣗⠀⠀⠀⢸⣿⣿⣿⡯⠀⠀⠀⣰⣿⣿⣿⡿⠋\n      ADD \t\t\t⣿⣗⠀⠀⠀⢸⣿⣿⣿⡯⠀⠀⠀⣰⣿⣿⣿⡿⠋\n      MLOAD \t\t\t⠀⠀⠀⢸⣿⣿⣿⣗⠀⠀⠀⢸⣿⣿⣿⡯⠀⠀⠀⣰⣿⣿⣿⡿⠋⠁\n      PUSH 0\t\t\t\n      NOT \t\t\t\n      PUSH 3\t\t\t⠏\n      DUP9 \t\t\t⣾⣿⣿⣿⠏⠀⠀⠀⠀⠀⠀⠘⣿⣿\n      SWAP1 \t\t\t⣾⣿⣿⣿⠏⠀⠀⠀⠀⠀⠀⠘⣿⣿\n      SHL \t\t\t⣾⣿⣿⣿⠏⠀⠀⠀⠀⠀⠀⠘⣿⣿\n      PUSH F8\t\t\t⡄⠀⠀\n      AND \t\t\t⠀⠀⠀⠀⣾⣿⣿⣿⠏⠀⠀⠀⠀⠀⠀⠘⣿⣿⣿⣿⡄⠀⠀⠀\n      SHR \t\t\t⠀⠀⠀⠀⠀⠀⠀⠀⣾⣿⣿⣿⠏⠀⠀⠀⠀⠀⠀⠘⣿⣿⣿⣿⡄⠀⠀⠀⠀⠀...\n      NOT \t\t\t⠀⠀⠀⠀⠀⠀⠀⠀⠀⠀⠀⠀⣾⣿⣿⣿⠏⠀⠀⠀⠀⠀⠀⠘⣿⣿⣿⣿⡄⠀...\n      AND \t\t\t⠀⠀⠀⠀⠈⢿⣿⣿⣿⠃⠀⠀⠀⠀⠀⠀⠀⠀⠀⠀⠀⠀⠀⠀⠀⠀⠀⣾⣿⣿...\n      DUP2 \t\t\t⠀⠀⠀⠀⢀⣾⣿⣿⣿⣿⣿⣿⡿⠀⠀⠀⠀⠀⠀⠈⢿⣿⣿⣿⠃⠀⠀⠀⠀⠀...\n      SSTORE \t\t\t⠀⠀⠀⠀⢀⣾⣿⣿⣿⣿⣿⣿⡿⠀⠀⠀⠀⠀⠀⠈⢿⣿⣿⣿⠃⠀⠀⠀⠀⠀...\n    tag 1054\t\t\t⡀⠀⠀⠀⠀\\n// ⠀⠀⠀⠀⠀⢀⣾⣿⣿⣿⣿⣿⣿⡿⠁⠀⠀⠀⠘⣿...\n      JUMPDEST \t\t\t⡀⠀⠀⠀⠀\\n// ⠀⠀⠀⠀⠀⢀⣾⣿⣿⣿⣿⣿⣿⡿⠁⠀⠀⠀⠘⣿...\n      POP \t\t\t\n      POP \t\t\t\n      POP \t\t\t\n      POP \t\t\t\n      POP \t\t\t\n      PUSH 1\t\t\t⠀\n      SWAP1 \t\t\t⢀⠀⡀⢀⠀⡀⢈⢿⡟⠁⠀⠀⠀⠀\n      DUP2 \t\t\t⢀⠀⡀⢀⠀⡀⢈⢿⡟⠁⠀⠀⠀⠀\n      SHL \t\t\t⢀⠀⡀⢀⠀⡀⢈⢿⡟⠁⠀⠀⠀⠀\n      ADD \t\t\t⣿⣟⠀⡀⢀⠀⡀⢀⠀⡀⢈⢿⡟⠁⠀⠀⠀⠀⠀⠀⠀⠀\n      SWAP1 \t\t\t// ⠀⠀⠀⢠⣿⣿⣿⣿⣿⣿⣿⣟⠀⡀⢀⠀⡀⢀⠀⡀⢈⢿⡟⠁⠀⠀⠀...\n      SSTORE \t\t\t// ⠀⠀⠀⢠⣿⣿⣿⣿⣿⣿⣿⣟⠀⡀⢀⠀⡀⢀⠀⡀⢈⢿⡟⠁⠀⠀⠀...\n      POP \t\t\t\n      JUMP \t\t\t /// @notice Protocol ID corre...\n    tag 354\t\t\t⠀⠀⠀\\n// ⠀⠀⠀⠀⠀⠀⠀⠀⠀⠀⠀⠀⠈⠛⣿⣿⣿⣿⣿⣿⣿⣿...\n      JUMPDEST \t\t\t⠀⠀⠀\\n// ⠀⠀⠀⠀⠀⠀⠀⠀⠀⠀⠀⠀⠈⠛⣿⣿⣿⣿⣿⣿⣿⣿...\n      DUP3 \t\t\t⠁⠀⠀⠀⠀⠀\n      DUP2 \t\t\t⠈⠉⠻⠻⡿⣿⢿⡿⡿\n      MSTORE \t\t\t⠿⠏⠀⠀⠀⠀⠀⠈⠉⠻⠻⡿⣿⢿⡿⡿⠿⠛⠁⠀⠀⠀⠀⠀⠀\n      PUSH 0\t\t\t⠀⠸⠟⠿\n      PUSH 20\t\t\t  \n      PUSH 40\t\t\ttr\n      PUSH 20\t\t\tRe\n      DUP5 \t\t\t// @title\n      ADD \t\t\to\\n\\n/// @title IReg\n      MSTORE \t\t\ttcoin.co\\n\\n/// @title IRegist...\n      DUP4 \t\t\ttya@gi\n      SLOAD \t\t\tc <aditya@git\n      PUSH 40\t\t\ton\n      DUP5 \t\t\tor @thelo\n      ADD \t\t\tauthor @thelostone\n      MSTORE \t\t\te\\n/// @author @thelostone-mc ...\n      PUSH 1\t\t\turt@\n      DUP1 \t\t\tn.co\n      DUP6 \t\t\tn@gitc\n      ADD \t\t\tjason@gitcoin.co>\n      PUSH 40\t\t\tse\n      PUSH 60\t\t\tfr\n      DUP7 \t\t\toin.co>, \n      ADD \t\t\tgitcoin.co>, @nfrg\n      MSTORE \t\t\t <zakk@gitcoin.co>, @nfrgossel\n      PUSH 0\t\t\t\\n\n      DUP2 \t\t\tgistry contr\n      SLOAD \t\t\tthe Registry contra\n      PUSH [tag] 1056\t\t\ttions needed to use the Regist...\n      DUP2 \t\t\tgistry\\n//\n      PUSH [tag] 331\t\t\ttions needed to use the Regist...\n      JUMP \t\t\ttions needed to use the Regist...\n    tag 1056\t\t\ttions needed to use the Regist...\n      JUMPDEST \t\t\ttions needed to use the Regist...\n      DUP1 \t\t\t/ @dev\n      PUSH 80\t\t\tol.\n      DUP10 \t\t\tAllo prot\n      ADD \t\t\tthe Allo protocol.\\n\n      MSTORE \t\t\twithin the Allo protocol.\\n///...\n      PUSH A0\t\t\tace\n      PUSH 1\t\t\tllo \n      DUP4 \t\t\t with the\n      AND \t\t\tract with the Allo p\n      PUSH 0\t\t\te\n      DUP2 \t\t\tnd create profiles\\n///      t...\n      EQ \t\t\tnd create profiles\\n///      t...\n      PUSH [tag] 1058\t\t\tnd create profiles\\n///      t...\n      JUMPI \t\t\tnd create profiles\\n///      t...\n      PUSH 1\t\t\t'\n      DUP2 \t\t\t the 'Profile' information nee...\n      EQ \t\t\t the 'Profile' information nee...\n      PUSH [tag] 1059\t\t\t the 'Profile' information nee...\n      JUMPI \t\t\t the 'Profile' information nee...\n      PUSH [tag] 1057\t\t\tto interact with the Allo prot...\n      JUMP \t\t\tto interact with the Allo prot...\n    tag 1058\t\t\tnd create profiles\\n///      t...\n      JUMPDEST \t\t\tnd create profiles\\n///      t...\n      PUSH FF\t\t\tlo \n      NOT \t\t\te Allo p\n      DUP5 \t\t\tact with \n      AND \t\t\tnteract with the Allo pr\n      PUSH A0\t\t\td t\n      DUP12 \t\t\t can be u\n      ADD \t\t\tthat can be used to\n      MSTORE \t\t\t/      that can be used to int...\n      PUSH A0\t\t\tts \n      DUP4 \t\t\tther c\n      ISZERO \t\t\tt all other co\n      ISZERO \t\t\t    that all other con\n      PUSH 5\t\t\t/\n      SHL \t\t\tt\\n///      that all other con...\n      DUP12 \t\t\tain contr\n      ADD \t\t\the main contract\\n///      tha...\n      ADD \t\t\tis the main contract\\n///     ...\n      SWAP5 \t\t\tgistry is the main contract\\n/...\n      POP \t\t\tgistry is the main contract\\n/...\n      PUSH [tag] 1057\t\t\tnd create profiles\\n///      t...\n      JUMP \t\t\tnd create profiles\\n///      t...\n    tag 1059\t\t\t the 'Profile' information nee...\n      JUMPDEST \t\t\t the 'Profile' information nee...\n      DUP6 \t\t\ted to\\n///   \n      PUSH 0\t\t\te\n      MSTORE \t\t\tation needed to\\n///    \n      PUSH 20\t\t\tgi\n      PUSH 0\t\t\t \n      KECCAK256 \t\t\ttocol. The Regis\n      PUSH 0\t\t\te\n    tag 1060\t\t\tles\\n///      and update exist...\n      JUMPDEST \t\t\tles\\n///      and update exist...\n      DUP5 \t\t\tnd upd\n      DUP2 \t\t\t \n      LT \t\t\t     and upda\n      ISZERO \t\t\tles\\n///      and update exist...\n      PUSH [tag] 1062\t\t\tles\\n///      and update exist...\n      JUMPI \t\t\tles\\n///      and update exist...\n      DUP2 \t\t\tm a profile. T\n      SLOAD \t\t\tm a profile. T\n      DUP13 \t\t\tove members\\n///  \n      DUP3 \t\t\tove members\\n///  \n      ADD \t\t\tove members\\n///  \n      DUP6 \t\t\t remove members\\n///      f\n      ADD \t\t\t remove members\\n///      f\n      MSTORE \t\t\tadd and remove members\\n///   ...\n      SWAP1 \t\t\te used in a stra\n      DUP9 \t\t\te used in a stra\n      ADD \t\t\te used in a stra\n      SWAP1 \t\t\te used in a stra\n      DUP10 \t\t\ting profil\n      ADD \t\t\ting profil\n      PUSH [tag] 1060\t\t\tles\\n///      and update exist...\n      JUMP \t\t\tles\\n///      and update exist...\n    tag 1062\t\t\tles\\n///      and update exist...\n      JUMPDEST \t\t\tles\\n///      and update exist...\n      DUP12 \t\t\ttrategy being use\n      ADD \t\t\ttrategy being use\n      PUSH A0\t\t\t\\nin\n      ADD \t\t\the strategy being used.\\nint\n      SWAP6 \t\t\the strategy being used.\\nint\n      POP \t\t\t\n      POP \t\t\t\n    tag 1057\t\t\tto interact with the Allo prot...\n      JUMPDEST \t\t\tto interact with the Allo prot...\n      POP \t\t\t\n      SWAP3 \t\t\t===\n      SWAP11 \t\t\t===\n      SWAP10 \t\t\t⠀⠀⠀\\n// ⠀⠀⠀⠀⠀⠀⠀⠀⠀⠀⠀⠀⠈⠛⣿⣿⣿⣿⣿⣿⣿⣿...\n      POP \t\t\t\n      POP \t\t\t\n      POP \t\t\t\n      POP \t\t\t\n      POP \t\t\t\n      POP \t\t\t\n      POP \t\t\t\n      POP \t\t\t\n      POP \t\t\t\n      POP \t\t\t\n      JUMP \t\t\t⠀⠀⠀\\n// ⠀⠀⠀⠀⠀⠀⠀⠀⠀⠀⠀⠀⠈⠛⣿⣿⣿⣿⣿⣿⣿⣿...\n    tag 368\t\t\t========\\n    /// ======= Stru...\n      JUMPDEST \t\t\t========\\n    /// ======= Stru...\n      PUSH 0\t\t\t// @\n      DUP1 \t\t\tv The \n      DUP4 \t\t\truct Profil\n      CALLDATALOAD \t\t\td from\\n    struct Profile\n      PUSH 1E\t\t\ta \n      NOT \t\t\tadata m\n      DUP5 \t\t\t        \n      CALLDATASIZE \t\t\t   string name\n      SUB \t\t\t       string name;\\n        M\n      ADD \t\t\te;\\n        string name;\\n    ...\n      DUP2 \t\t\t        uint256 no\n      SLT \t\t\tid;\\n        uint256 nonce;\\n ...\n      PUSH [tag] 1064\t\t\t  bytes32 id;\\n        uint256...\n      JUMPI \t\t\t  bytes32 id;\\n        uint256...\n      PUSH 0\t\t\t \n      DUP1 \t\t\t \n      REVERT \t\t\ta;\\n        a\n    tag 1064\t\t\t  bytes32 id;\\n        uint256...\n      JUMPDEST \t\t\t  bytes32 id;\\n        uint256...\n      DUP4 \t\t\tress anchor;\\n    }\\n\\n    ///...\n      ADD \t\t\tress anchor;\\n    }\\n\\n    ///...\n      DUP1 \t\t\t   /// ======= Event\n      CALLDATALOAD \t\t\t   /// ======= Event\n      SWAP2 \t\t\t   /// ======= Event\n      POP \t\t\t\n      PUSH 1\t\t\t\n      PUSH 1\t\t\t\n      PUSH 40\t\t\t\n      SHL \t\t\t\n      SUB \t\t\t\n      DUP3 \t\t\t  /// ======================\\n...\n      GT \t\t\t  /// ======================\\n...\n      ISZERO \t\t\t\\n    /// ====================...\n      PUSH [tag] 1065\t\t\t\\n    /// ====================...\n      JUMPI \t\t\t\\n    /// ====================...\n      PUSH 0\t\t\tE\n      DUP1 \t\t\te\n      REVERT \t\t\t /// @dev Em\n    tag 1065\t\t\t\\n    /// ====================...\n      JUMPDEST \t\t\t\\n    /// ====================...\n      PUSH 20\t\t\t. Th\n      ADD \t\t\te is created. Thi\n      SWAP2 \t\t\te is created. Thi\n      POP \t\t\t\n      CALLDATASIZE \t\t\taddress.\\n    e\n      DUP2 \t\t\thor address.\\n    event Prof\n      SWAP1 \t\t\thor address.\\n    event Prof\n      SUB \t\t\thor address.\\n    event Prof\n      DUP3 \t\t\tn your anchor address.\\n    ev...\n      SGT \t\t\tn your anchor address.\\n    ev...\n      ISZERO \t\t\tturn your anchor address.\\n   ...\n      PUSH [tag] 1066\t\t\tturn your anchor address.\\n   ...\n      JUMPI \t\t\tturn your anchor address.\\n   ...\n      PUSH 0\t\t\t \n      DUP1 \t\t\t\\n\n      REVERT \t\t\treated(\\n    \n    tag 1066\t\t\tturn your anchor address.\\n   ...\n      JUMPDEST \t\t\tturn your anchor address.\\n   ...\n      SWAP3 \t\t\t========\\n    /// ======= Stru...\n      POP \t\t\t========\\n    /// ======= Stru...\n      SWAP3 \t\t\t========\\n    /// ======= Stru...\n      SWAP1 \t\t\t========\\n    /// ======= Stru...\n      POP \t\t\t========\\n    /// ======= Stru...\n      JUMP \t\t\t========\\n    /// ======= Stru...\n    tag 393\t\t\tndexed profileId, uint256 nonc...\n      JUMPDEST \t\t\tndexed profileId, uint256 nonc...\n      PUSH 1\t\t\t\n      PUSH 1\t\t\t\n      PUSH 80\t\t\t\n      SHL \t\t\t\n      SUB \t\t\t\n      DUP2 \t\t\t name is u\n      DUP2 \t\t\t name is u\n      AND \t\t\t name is u\n      DUP4 \t\t\tated. This\n      DUP3 \t\t\tated. This\n      AND \t\t\tated. This\n      MUL \t\t\tfile name is updated. This \n      DUP1 \t\t\tor when the name is \n      DUP3 \t\t\tor when the name is \n      AND \t\t\tor when the name is \n      SWAP2 \t\t\tor when the name is \n      SWAP1 \t\t\t owner, address anchor\\n    );...\n      DUP3 \t\t\tit.\\n    event ProfileNam\n      DUP2 \t\t\tit.\\n    event ProfileNam\n      EQ \t\t\tit.\\n    event ProfileNam\n      PUSH [tag] 1069\t\t\tnd return it.\\n    event Profi...\n      JUMPI \t\t\tnd return it.\\n    event Profi...\n      PUSH [tag] 1069\t\t\tated(bytes32 index\n      PUSH [tag] 829\t\t\tated(bytes32 index\n      JUMP \t\t\tated(bytes32 index\n    tag 1069\t\t\tated(bytes32 index\n      JUMPDEST \t\t\tated(bytes32 index\n      POP \t\t\tnd return it.\\n    event Profi...\n      POP \t\t\tnd return it.\\n    event Profi...\n      SWAP3 \t\t\tndexed profileId, uint256 nonc...\n      SWAP2 \t\t\tndexed profileId, uint256 nonc...\n      POP \t\t\tndexed profileId, uint256 nonc...\n      POP \t\t\tndexed profileId, uint256 nonc...\n      JUMP \t\t\tndexed profileId, uint256 nonc...\n    tag 836\t\t\t string name, address anchor);...\n      JUMPDEST \t\t\t string name, address anchor);...\n      PUSH 4E487B71\t\t\trofile's m\n      PUSH E0\t\t\tn a\n      SHL \t\t\t when a profile's me\n      PUSH 0\t\t\tt\n      MSTORE \t\t\tev Emitted when a profile's me...\n      PUSH 12\t\t\t   e\n      PUSH 4\t\t\t.\n      MSTORE \t\t\tupdated.\\n    ev\n      PUSH 24\t\t\tUpda\n      PUSH 0\t\t\ta\n      REVERT \t\t\tleMetadataUpdat\n    tag 395\t\t\tindexed profileId, Metadata me...\n      JUMPDEST \t\t\tindexed profileId, Metadata me...\n      PUSH 0\t\t\t \n      PUSH 1\t\t\t\n      PUSH 1\t\t\t\n      PUSH 80\t\t\t\n      SHL \t\t\t\n      SUB \t\t\t\n      DUP1 \t\t\tes\n      DUP5 \t\t\tb\n      AND \t\t\tted(bytes3\n      DUP1 \t\t\t, a\n      PUSH [tag] 1073\t\t\t profileId, address owner);\\n\\...\n      JUMPI \t\t\t profileId, address owner);\\n\\...\n      PUSH [tag] 1073\t\t\tss owner);\\n\\n    //\n      PUSH [tag] 836\t\t\tss owner);\\n\\n    //\n      JUMP \t\t\tss owner);\\n\\n    //\n    tag 1073\t\t\tss owner);\\n\\n    //\n      JUMPDEST \t\t\tss owner);\\n\\n    //\n      SWAP3 \t\t\ta profile \n      AND \t\t\ta profile \n      SWAP2 \t\t\then a profile pendin\n      SWAP1 \t\t\then a profile pendin\n      SWAP2 \t\t\then a profile pendin\n      DIV \t\t\then a profile pendin\n      SWAP3 \t\t\then a profile pendin\n      SWAP2 \t\t\tindexed profileId, Metadata me...\n      POP \t\t\t\n      POP \t\t\t\n      JUMP \t\t\tindexed profileId, Metadata me...\n    tag 399\t\t\tupdated.\\n    event ProfilePen...\n      JUMPDEST \t\t\tupdated.\\n    event ProfilePen...\n      PUSH 0\t\t\td, add\n      PUSH 20\t\t\t==\n      DUP3 \t\t\t=========\n      DUP5 \t\t\t// ====\n      SUB \t\t\t   /// ================\n      SLT \t\t\t;\\n\\n    /// =================...\n      ISZERO \t\t\ter);\\n\\n    /// ==============...\n      PUSH [tag] 1075\t\t\ter);\\n\\n    /// ==============...\n      JUMPI \t\t\ter);\\n\\n    /// ==============...\n      PUSH 0\t\t\t=\n      DUP1 \t\t\t/\n      REVERT \t\t\t=\\n    /// ==\n    tag 1075\t\t\ter);\\n\\n    /// ==============...\n      JUMPDEST \t\t\ter);\\n\\n    /// ==============...\n      DUP2 \t\t\t/ =======\n      MLOAD \t\t\t    /// ========\n      PUSH [tag] 287\t\t\t========\\n\\n    /// @dev Retur...\n      DUP2 \t\t\tturns\n      PUSH [tag] 813\t\t\t========\\n\\n    /// @dev Retur...\n      JUMP \t\t\t========\\n\\n    /// @dev Retur...\n    tag 837\t\t\tssed\\n    /// @param _profileI...\n      JUMPDEST \t\t\tssed\\n    /// @param _profileI...\n      DUP1 \t\t\t   /// @retur\n      MLOAD \t\t\t   /// @retur\n      DUP1 \t\t\tofileId' pass\n      ISZERO \t\t\tofileId' pass\n      ISZERO \t\t\the '_profileId' passe\n      DUP2 \t\t\tile' for the '_profileId' pass...\n      EQ \t\t\tile' for the '_profileId' pass...\n      PUSH [tag] 1004\t\t\t The 'Profile' for the '_profi...\n      JUMPI \t\t\t The 'Profile' for the '_profi...\n      PUSH 0\t\t\tg\n      DUP1 \t\t\to\n      REVERT \t\t\t function ge\n    tag 838\t\t\tbytes32 _profileId) external v...\n      JUMPDEST \t\t\tbytes32 _profileId) external v...\n      DUP1 \t\t\tdev Returns t\n      MLOAD \t\t\tdev Returns t\n      PUSH [tag] 1004\t\t\tle' for an '_anchor' passed\\n ...\n      DUP2 \t\t\tdev Returns t\n      PUSH [tag] 825\t\t\tle' for an '_anchor' passed\\n ...\n      JUMP \t\t\tle' for an '_anchor' passed\\n ...\n    tag 839\t\t\tm _anchor The 'anchor' to retu...\n      JUMPDEST \t\t\tm _anchor The 'anchor' to retu...\n      PUSH 0\t\t\tn pro\n      DUP3 \t\t\tfun\n      PUSH 1F\t\t\ted\\n \n      DUP4 \t\t\tor' pa\n      ADD \t\t\tanchor' passed\\n  \n      SLT \t\t\te '_anchor' passed\\n    func\n      PUSH [tag] 1082\t\t\tle' for the '_anchor' passed\\n...\n      JUMPI \t\t\tle' for the '_anchor' passed\\n...\n      PUSH 0\t\t\te\n      DUP1 \t\t\tf\n      REVERT \t\t\t getProfileB\n    tag 1082\t\t\tle' for the '_anchor' passed\\n...\n      JUMPDEST \t\t\tle' for the '_anchor' passed\\n...\n      DUP2 \t\t\tternal\n      MLOAD \t\t\tor) external \n      PUSH 20\t\t\tle m\n      PUSH [tag] 1083\t\t\t /// @dev Returns a boolean if...\n      PUSH [tag] 878\t\t\ts a boolean if the '_account' ...\n      DUP4 \t\t\tr \n      PUSH [tag] 820\t\t\ts a boolean if the '_account' ...\n      JUMP \t\t\ts a boolean if the '_account' ...\n    tag 1083\t\t\t /// @dev Returns a boolean if...\n      JUMPDEST \t\t\t /// @dev Returns a boolean if...\n      DUP1 \t\t\teId\n      DUP4 \t\t\tpa\n      DUP3 \t\t\t///\n      MSTORE \t\t\tin\\n    /// @par\n      PUSH 20\t\t\teId'\n      DUP3 \t\t\trof\n      ADD \t\t\te 'profileId' \n      SWAP2 \t\t\tleId The 'profileId' \n      POP \t\t\tleId The 'profileId' \n      PUSH 20\t\t\t   /\n      DUP5 \t\t\tr \n      PUSH 5\t\t\tw\n      SHL \t\t\tor owner o\n      DUP8 \t\t\t membe\n      ADD \t\t\tis a member or owner of\n      ADD \t\t\tnt' is a member or owner of\\n ...\n      SWAP4 \t\t\tif the '_account' is a member ...\n      POP \t\t\tif the '_account' is a member ...\n      DUP7 \t\t\tacc\n      DUP5 \t\t\tnt The\n      GT \t\t\tcount The 'acco\n      ISZERO \t\t\t_account The 'account' to chec...\n      PUSH [tag] 1085\t\t\t_account The 'account' to chec...\n      JUMPI \t\t\t_account The 'account' to chec...\n      PUSH 0\t\t\t \n      DUP1 \t\t\te\n      REVERT \t\t\t' to check i\n    tag 1085\t\t\t_account The 'account' to chec...\n      JUMPDEST \t\t\t_account The 'account' to chec...\n      PUSH 20\t\t\te '_\n      DUP7 \t\t\ter of \n      ADD \t\t\t owner of the '_p\n    tag 1086\t\t\t passed in\\n    /// @return is...\n      JUMPDEST \t\t\t passed in\\n    /// @return is...\n      DUP5 \t\t\t// @re\n      DUP2 \t\t\t   \n      LT \t\t\tin\\n    /// @ret\n      ISZERO \t\t\t passed in\\n    /// @return is...\n      PUSH [tag] 882\t\t\t passed in\\n    /// @return is...\n      JUMPI \t\t\t passed in\\n    /// @return is...\n      DUP1 \t\t\ter \n      MLOAD \t\t\ta member o\n      PUSH [tag] 1089\t\t\te '_profileId' passed in\\n    ...\n      DUP2 \t\t\t    f\n      PUSH [tag] 813\t\t\te '_profileId' passed in\\n    ...\n      JUMP \t\t\te '_profileId' passed in\\n    ...\n    tag 1089\t\t\te '_profileId' passed in\\n    ...\n      JUMPDEST \t\t\te '_profileId' passed in\\n    ...\n      DUP4 \t\t\trOrMemberOfProfile\n      MSTORE \t\t\trOrMemberOfProfile\n      SWAP2 \t\t\t address _ac\n      DUP4 \t\t\t address _ac\n      ADD \t\t\t address _ac\n      SWAP2 \t\t\t address _ac\n      DUP4 \t\t\trOrMemberOfP\n      ADD \t\t\trOrMemberOfP\n      PUSH [tag] 1086\t\t\t passed in\\n    /// @return is...\n      JUMP \t\t\t passed in\\n    /// @return is...\n    tag 414\t\t\t returns (bool isOwnerOrMember...\n      JUMPDEST \t\t\t returns (bool isOwnerOrMember...\n      PUSH 0\t\t\tr of t\n      PUSH 20\t\t\tle\n      DUP3 \t\t\tparam _pr\n      DUP5 \t\t\t    ///\n      SUB \t\t\t in\\n    /// @param _pro\n      SLT \t\t\tssed in\\n    /// @param _profi...\n      ISZERO \t\t\t passed in\\n    /// @param _pr...\n      PUSH [tag] 1091\t\t\t passed in\\n    /// @param _pr...\n      JUMPI \t\t\t passed in\\n    /// @param _pr...\n      PUSH 0\t\t\te\n      DUP1 \t\t\tf\n      REVERT \t\t\the 'profileI\n    tag 1091\t\t\t passed in\\n    /// @param _pr...\n      JUMPDEST \t\t\t passed in\\n    /// @param _pr...\n      DUP2 \t\t\ts an owne\n      MLOAD \t\t\tunt' is an owner\n      PUSH 1\t\t\t\n      PUSH 1\t\t\t\n      PUSH 40\t\t\t\n      SHL \t\t\t\n      SUB \t\t\t\n      DUP1 \t\t\tn \n      DUP3 \t\t\tey are\n      GT \t\t\t they are an o\n      ISZERO \t\t\t if they are an owner of the '...\n      PUSH [tag] 1092\t\t\t if they are an owner of the '...\n      JUMPI \t\t\t if they are an owner of the '...\n      PUSH 0\t\t\t_\n      DUP1 \t\t\te\n      REVERT \t\t\tr of the '_p\n    tag 1092\t\t\t if they are an owner of the '...\n      JUMPDEST \t\t\t if they are an owner of the '...\n      SWAP1 \t\t\t   /// @return isOwner\n      DUP4 \t\t\t   /// @return isOwner\n      ADD \t\t\t   /// @return isOwner\n      SWAP1 \t\t\t   /// @return isOwner\n      PUSH 160\t\t\tnt' is\n      DUP3 \t\t\tean if the '_acc\n      DUP7 \t\t\tean if the '_acc\n      SUB \t\t\tean if the '_acc\n      SLT \t\t\tboolean if the '_account' is \n      ISZERO \t\t\t A boolean if the '_account' i...\n      PUSH [tag] 1093\t\t\t A boolean if the '_account' i...\n      JUMPI \t\t\t A boolean if the '_account' i...\n      PUSH 0\t\t\th\n      DUP1 \t\t\tf\n      REVERT \t\t\towner of the\n    tag 1093\t\t\t A boolean if the '_account' i...\n      JUMPDEST \t\t\t A boolean if the '_account' i...\n      PUSH [tag] 1094\t\t\t    function isOwnerOf\n      PUSH [tag] 816\t\t\t    function isOwnerOf\n      JUMP \t\t\t    function isOwnerOf\n    tag 1094\t\t\t    function isOwnerOf\n      JUMPDEST \t\t\t    function isOwnerOf\n      PUSH [tag] 1095\t\t\teId, address _owner) external \n      DUP4 \t\t\tal\n      PUSH [tag] 837\t\t\teId, address _owner) external \n      JUMP \t\t\teId, address _owner) external \n    tag 1095\t\t\teId, address _owner) external \n      JUMPDEST \t\t\teId, address _owner) external \n      DUP2 \t\t\t_prof\n      MSTORE \t\t\tytes32 _profileId, address _ow...\n      PUSH [tag] 1096\t\t\tle);\\n\\n    /// @dev Returns a...\n      PUSH 20\t\t\tn \n      DUP5 \t\t\tol\n      ADD \t\t\ta boolean i\n      PUSH [tag] 837\t\t\tle);\\n\\n    /// @dev Returns a...\n      JUMP \t\t\tle);\\n\\n    /// @dev Returns a...\n    tag 1096\t\t\tle);\\n\\n    /// @dev Returns a...\n      JUMPDEST \t\t\tle);\\n\\n    /// @dev Returns a...\n      PUSH 20\t\t\tPr\n      DUP3 \t\t\tOwner\n      ADD \t\t\tl isOwnerOfPro\n      MSTORE \t\t\tns (bool isOwnerOfProfile);\\n\\...\n      PUSH [tag] 1097\t\t\te '_profileId' passed in\\n    ...\n      PUSH 40\t\t\tar\n      DUP5 \t\t\t/ \n      ADD \t\t\t  /// @para\n      PUSH [tag] 837\t\t\te '_profileId' passed in\\n    ...\n      JUMP \t\t\te '_profileId' passed in\\n    ...\n    tag 1097\t\t\te '_profileId' passed in\\n    ...\n      JUMPDEST \t\t\te '_profileId' passed in\\n    ...\n      PUSH 40\t\t\tof\n      DUP3 \t\t\tmembe\n      ADD \t\t\ts a member of \n      MSTORE \t\t\tount' is a member of the '_pro...\n      PUSH [tag] 1098\t\t\teck if the '_account' is a mem...\n      PUSH 60\t\t\t  \n      DUP5 \t\t\t o\n      ADD \t\t\tmber of\\n   \n      PUSH [tag] 838\t\t\teck if the '_account' is a mem...\n      JUMP \t\t\teck if the '_account' is a mem...\n    tag 1098\t\t\teck if the '_account' is a mem...\n      JUMPDEST \t\t\teck if the '_account' is a mem...\n      PUSH 60\t\t\tto\n      DUP3 \t\t\tileId\n      ADD \t\t\tprofileId' to \n      MSTORE \t\t\td The 'profileId' to check if ...\n      PUSH [tag] 1099\t\t\t check if they are a member of...\n      PUSH 80\t\t\tpro\n      DUP5 \t\t\te \n      ADD \t\t\tf the '_prof\n      PUSH [tag] 838\t\t\t check if they are a member of...\n      JUMP \t\t\t check if they are a member of...\n    tag 1099\t\t\t check if they are a member of...\n      JUMPDEST \t\t\t check if they are a member of...\n      PUSH 80\t\t\ter'\n      DUP3 \t\t\te 'me\n      ADD \t\t\tr The 'member' \n      MSTORE \t\t\t _member The 'member' to check...\n      PUSH [tag] 1100\t\t\tMemberOfProfile A boolean if t...\n      PUSH A0\t\t\tcou\n      DUP5 \t\t\t'_\n      ADD \t\t\tthe '_accoun\n      PUSH [tag] 838\t\t\tMemberOfProfile A boolean if t...\n      JUMP \t\t\tMemberOfProfile A boolean if t...\n    tag 1100\t\t\tMemberOfProfile A boolean if t...\n      JUMPDEST \t\t\tMemberOfProfile A boolean if t...\n      PUSH A0\t\t\turn\n      DUP3 \t\t\t// @r\n      ADD \t\t\t   /// @return \n      MSTORE \t\t\ted in\\n    /// @return isMembe...\n      PUSH [tag] 1101\t\t\tpassed in\\n    function isMemb...\n      PUSH C0\t\t\tile\n      DUP5 \t\t\tPr\n      ADD \t\t\terOfProfile(\n      PUSH [tag] 838\t\t\tpassed in\\n    function isMemb...\n      JUMP \t\t\tpassed in\\n    function isMemb...\n    tag 1101\t\t\tpassed in\\n    function isMemb...\n      JUMPDEST \t\t\tpassed in\\n    function isMemb...\n      PUSH C0\t\t\tleI\n      DUP3 \t\t\t'_pro\n      ADD \t\t\tthe '_profileId\n      MSTORE \t\t\tber of the '_profileId' passed...\n      PUSH [tag] 1102\t\t\t) external view returns (bool ...\n      PUSH E0\t\t\tOfP\n      DUP5 \t\t\tmb\n      ADD \t\t\tisMemberOfPr\n      PUSH [tag] 830\t\t\t) external view returns (bool ...\n      JUMP \t\t\t) external view returns (bool ...\n    tag 1102\t\t\t) external view returns (bool ...\n      JUMPDEST \t\t\t) external view returns (bool ...\n      PUSH E0\t\t\tmem\n      DUP3 \t\t\tdress\n      ADD \t\t\t, address _memb\n      MSTORE \t\t\tofileId, address _member) exte...\n      PUSH 100\t\t\t===\n      PUSH [tag] 1103\t\t\t  /// ==== External/Public Fun...\n      DUP2 \t\t\t==\n      DUP6 \t\t\tns\n      ADD \t\t\tctions ====\n      PUSH [tag] 830\t\t\t  /// ==== External/Public Fun...\n      JUMP \t\t\t  /// ==== External/Public Fun...\n    tag 1103\t\t\t  /// ==== External/Public Fun...\n      JUMPDEST \t\t\t  /// ==== External/Public Fun...\n      SWAP1 \t\t\t=============\\n\n      DUP3 \t\t\t=============\\n\n      ADD \t\t\t=============\\n\n      MSTORE \t\t\t====================\\n    /// ...\n      PUSH 120\t\t\t===\n      PUSH [tag] 1104\t\t\t@dev Creates a new 'Profile' a...\n      DUP5 \t\t\tnd returns \n      DUP3 \t\t\tnd returns \n      ADD \t\t\tnd returns \n      PUSH [tag] 830\t\t\t@dev Creates a new 'Profile' a...\n      JUMP \t\t\t@dev Creates a new 'Profile' a...\n    tag 1104\t\t\t@dev Creates a new 'Profile' a...\n      JUMPDEST \t\t\t@dev Creates a new 'Profile' a...\n      SWAP1 \t\t\t======\\n\\n    //\n      DUP3 \t\t\t======\\n\\n    //\n      ADD \t\t\t======\\n\\n    //\n      MSTORE \t\t\t=============\\n\\n    /// @dev ...\n      PUSH 140\t\t\te n\n      DUP4 \t\t\t: The 'name\n      DUP2 \t\t\t: The 'name\n      ADD \t\t\t: The 'name\n      MLOAD \t\t\t/ Note: The 'name'\n      DUP4 \t\t\t are used to gen\n      DUP2 \t\t\t are used to gen\n      GT \t\t\t are used to gen\n      ISZERO \t\t\tce' are used to generate the '...\n      PUSH [tag] 1105\t\t\tce' are used to generate the '...\n      JUMPI \t\t\tce' are used to generate the '...\n      PUSH 0\t\t\tc\n      DUP1 \t\t\t'\n      REVERT \t\t\tte the 'anch\n    tag 1105\t\t\tce' are used to generate the '...\n      JUMPDEST \t\t\tce' are used to generate the '...\n      PUSH [tag] 1106\t\t\tements: None, anyone can creat...\n      DUP9 \t\t\t// @par\n      DUP3 \t\t\t  ///\\n  \n      DUP8 \t\t\te\\n\n      ADD \t\t\tofile\\n    ///\\n   \n      PUSH [tag] 839\t\t\tements: None, anyone can creat...\n      JUMP \t\t\tements: None, anyone can creat...\n    tag 1106\t\t\tements: None, anyone can creat...\n      JUMPDEST \t\t\tements: None, anyone can creat...\n      SWAP2 \t\t\t/\\n    /// Requ\n      DUP4 \t\t\t/\\n    /// Requ\n      ADD \t\t\t/\\n    /// Requ\n      SWAP2 \t\t\t\\n    ///\\n    /// Requirement...\n      SWAP1 \t\t\t\\n    ///\\n    /// Requirement...\n      SWAP2 \t\t\t\\n    ///\\n    /// Requirement...\n      MSTORE \t\t\t\\n    ///\\n    /// Requirement...\n      POP \t\t\t\n      SWAP6 \t\t\t  ///\n      SWAP5 \t\t\t returns (bool isOwnerOrMember...\n      POP \t\t\t\n      POP \t\t\t\n      POP \t\t\t\n      POP \t\t\t\n      POP \t\t\t\n      JUMP \t\t\t returns (bool isOwnerOrMember...\n    tag 440\t\t\t generate the 'anchor' address...\n      JUMPDEST \t\t\t generate the 'anchor' address...\n      DUP1 \t\t\tfileId' o\n      DUP3 \t\t\tfileId' o\n      ADD \t\t\tfileId' o\n      DUP1 \t\t\tofile\\n    \n      DUP3 \t\t\tofile\\n    \n      GT \t\t\tofile\\n    \n      ISZERO \t\t\t profile\\n    function createP...\n      PUSH [tag] 289\t\t\t profile\\n    function createP...\n      JUMPI \t\t\t profile\\n    function createP...\n      PUSH [tag] 289\t\t\tction createProfil\n      PUSH [tag] 829\t\t\tction createProfil\n      JUMP \t\t\tction createProfil\n    tag 840\t\t\tnt256 _nonce,\\n        string ...\n      JUMPDEST \t\t\tnt256 _nonce,\\n        string ...\n      PUSH 0\t\t\t,\\n   \n      PUSH 80\t\t\try _\n      DUP3 \t\t\tdress[] m\n      DUP5 \t\t\t   \n      SUB \t\t\t       address[] me\n      SLT \t\t\tr,\\n        address[] memory _...\n      ISZERO \t\t\twner,\\n        address[] memor...\n      PUSH [tag] 1113\t\t\twner,\\n        address[] memor...\n      JUMPI \t\t\twner,\\n        address[] memor...\n      PUSH 0\t\t\te\n      DUP1 \t\t\t \n      REVERT \t\t\ters\\n    ) ex\n    tag 1113\t\t\twner,\\n        address[] memor...\n      JUMPDEST \t\t\twner,\\n        address[] memor...\n      PUSH [tag] 1114\t\t\ts32 profileId);\\n\\n    /\n      PUSH [tag] 817\t\t\ts32 profileId);\\n\\n    /\n      JUMP \t\t\ts32 profileId);\\n\\n    /\n    tag 1114\t\t\ts32 profileId);\\n\\n    /\n      JUMPDEST \t\t\ts32 profileId);\\n\\n    /\n      SWAP1 \t\t\trns (bytes32 profileId);\\n\\n  ...\n      POP \t\t\trns (bytes32 profileId);\\n\\n  ...\n      DUP2 \t\t\t the '_pr\n      MLOAD \t\t\tme' of the '_pro\n      DUP2 \t\t\tthe '\n      MSTORE \t\t\tpdates the 'name' of the '_pro...\n      PUSH 20\t\t\td \n      DUP1 \t\t\t//\n      DUP4 \t\t\t   ///\\n  \n      ADD \t\t\tss\\n    ///\\n    ///\n      MLOAD \t\t\t address\\n    ///\\n    /// \n      PUSH [tag] 1115\t\t\tnts: Only the 'Profile' owner ...\n      DUP2 \t\t\twner ca\n      PUSH [tag] 813\t\t\tnts: Only the 'Profile' owner ...\n      JUMP \t\t\tnts: Only the 'Profile' owner ...\n    tag 1115\t\t\tnts: Only the 'Profile' owner ...\n      JUMPDEST \t\t\tnts: Only the 'Profile' owner ...\n      DUP3 \t\t\t\\n    ///\\n    /\n      DUP3 \t\t\t\\n    ///\\n    /\n      ADD \t\t\t\\n    ///\\n    /\n      MSTORE \t\t\the name\\n    ///\\n    /// Note...\n      PUSH 40\t\t\tr'\n      DUP4 \t\t\trate the 'anchor' \n      DUP2 \t\t\trate the 'anchor' \n      ADD \t\t\trate the 'anchor' \n      MLOAD \t\t\to generate the 'anchor' a\n      SWAP1 \t\t\tonce' are used\n      DUP4 \t\t\tonce' are used\n      ADD \t\t\tonce' are used\n      MSTORE \t\t\t and 'nonce' are used to gener...\n      PUSH 60\t\t\t//\n      DUP4 \t\t\te 'anchor'\\n    ///\n      ADD \t\t\te 'anchor'\\n    ///\n      MLOAD \t\t\tate the 'anchor'\\n    /// \n      PUSH 1\t\t\t\n      PUSH 1\t\t\t\n      PUSH 40\t\t\t\n      SHL \t\t\t\n      SUB \t\t\t\n      DUP2 \t\t\tase use caution. You can alway\n      GT \t\t\tase use caution. You can alway\n      ISZERO \t\t\tplease use caution. You can al...\n      PUSH [tag] 1116\t\t\tplease use caution. You can al...\n      JUMPI \t\t\tplease use caution. You can al...\n      PUSH 0\t\t\tu\n      DUP1 \t\t\t \n      REVERT \t\t\tecreate your\n    tag 1116\t\t\tplease use caution. You can al...\n      JUMPDEST \t\t\tplease use caution. You can al...\n      DUP4 \t\t\tupdating the name back\n      ADD \t\t\tupdating the name back\n      PUSH 1F\t\t\tname\n      DUP2 \t\t\triginal name \n      ADD \t\t\triginal name \n      DUP6 \t\t\the original name used t\n      SGT \t\t\t\n      PUSH [tag] 1117\t\t\t      to the original name use...\n      JUMPI \t\t\t      to the original name use...\n      PUSH 0\t\t\tr\n      DUP1 \t\t\te\n      REVERT \t\t\teate the pro\n    tag 1117\t\t\t      to the original name use...\n      JUMPDEST \t\t\t      to the original name use...\n      DUP1 \t\t\tm \n      MLOAD \t\t\t @param _\n      PUSH [tag] 1118\t\t\tleId' to update the name for\\n...\n      PUSH [tag] 878\t\t\tthe name for\\n    /// @param _...\n      DUP3 \t\t\tw \n      PUSH [tag] 820\t\t\tthe name for\\n    /// @param _...\n      JUMP \t\t\tthe name for\\n    /// @param _...\n    tag 1118\t\t\tleId' to update the name for\\n...\n      JUMPDEST \t\t\tleId' to update the name for\\n...\n      DUP2 \t\t\tThe new 'anchor\n      DUP2 \t\t\tThe new 'anchor\n      MSTORE \t\t\tThe new 'anchor\n      PUSH 5\t\t\t \n      SWAP2 \t\t\tring memor\n      SWAP1 \t\t\tring memor\n      SWAP2 \t\t\tring memor\n      SHL \t\t\tring memor\n      DUP3 \t\t\tleId, string memory\n      ADD \t\t\tleId, string memory\n      DUP4 \t\t\trofileId, string memory _nam\n      ADD \t\t\trofileId, string memory _nam\n      SWAP1 \t\t\trofileId, string memory _nam\n      DUP4 \t\t\tnction updat\n      DUP2 \t\t\tnction updat\n      ADD \t\t\tnction updat\n      SWAP1 \t\t\tnction updat\n      DUP8 \t\t\treturns (addres\n      DUP4 \t\t\treturns (addres\n      GT \t\t\treturns (addres\n      ISZERO \t\t\tal returns (address anchor);\\n...\n      PUSH [tag] 1120\t\t\tal returns (address anchor);\\n...\n      JUMPI \t\t\tal returns (address anchor);\\n...\n      PUSH 0\t\t\t \n      DUP1 \t\t\t\\n\n      REVERT \t\t\tnchor);\\n\\n   \n    tag 1120\t\t\tal returns (address anchor);\\n...\n      JUMPDEST \t\t\tal returns (address anchor);\\n...\n      SWAP3 \t\t\t'Metadata' \n      DUP5 \t\t\t'Metadata' \n      ADD \t\t\t'Metadata' \n      SWAP3 \t\t\t'Metadata' \n    tag 1121\t\t\tprofileId' passed in\\n    ///\\...\n      JUMPDEST \t\t\tprofileId' passed in\\n    ///\\...\n      DUP3 \t\t\td in\\n \n      DUP5 \t\t\tpas\n      LT \t\t\td' passed in\\n  \n      ISZERO \t\t\tprofileId' passed in\\n    ///\\...\n      PUSH [tag] 1123\t\t\tprofileId' passed in\\n    ///\\...\n      JUMPI \t\t\tprofileId' passed in\\n    ///\\...\n      DUP4 \t\t\tdate the m\n      MLOAD \t\t\tdate the m\n      DUP3 \t\t\towner can update the me\n      MSTORE \t\t\towner can update the me\n      SWAP3 \t\t\t/// Requirem\n      DUP5 \t\t\t/// Requirem\n      ADD \t\t\t/// Requirem\n      SWAP3 \t\t\t/// Requirem\n      SWAP1 \t\t\t// @param _p\n      DUP5 \t\t\t// @param _p\n      ADD \t\t\t// @param _p\n      SWAP1 \t\t\t// @param _p\n      PUSH [tag] 1121\t\t\tprofileId' passed in\\n    ///\\...\n      JUMP \t\t\tprofileId' passed in\\n    ///\\...\n    tag 1123\t\t\tprofileId' passed in\\n    ///\\...\n      JUMPDEST \t\t\tprofileId' passed in\\n    ///\\...\n      PUSH 60\t\t\te \n      DUP7 \t\t\to update the m\n      ADD \t\t\to update the m\n      MSTORE \t\t\tleId' to update the metadata \n      POP \t\t\t\n      SWAP3 \t\t\tdate \n      SWAP6 \t\t\tdate \n      SWAP5 \t\t\tnt256 _nonce,\\n        string ...\n      POP \t\t\t\n      POP \t\t\t\n      POP \t\t\t\n      POP \t\t\t\n      POP \t\t\t\n      JUMP \t\t\tnt256 _nonce,\\n        string ...\n    tag 841\t\t\t @param _metadata The new 'Met...\n      JUMPDEST \t\t\t @param _metadata The new 'Met...\n      PUSH 0\t\t\temory\n      PUSH [tag] 1125\t\t\t   /// @dev Updates the pendin...\n      PUSH [tag] 878\t\t\ttes the pending 'owner' of the...\n      DUP5 \t\t\tId' pa\n      PUSH [tag] 820\t\t\ttes the pending 'owner' of the...\n      JUMP \t\t\ttes the pending 'owner' of the...\n    tag 1125\t\t\t   /// @dev Updates the pendin...\n      JUMPDEST \t\t\t   /// @dev Updates the pendin...\n      DUP4 \t\t\t: Only the 'Profile' \n      DUP2 \t\t\t: Only the 'Profile' \n      MSTORE \t\t\t: Only the 'Profile' \n      SWAP1 \t\t\ternal;\\n\\n    /// @dev Updates...\n      POP \t\t\t\n      PUSH 20\t\t\te pe\n      DUP1 \t\t\t///\\n    /// @par\n      DUP3 \t\t\t///\\n    /// @par\n      ADD \t\t\t///\\n    /// @par\n      SWAP1 \t\t\t///\\n    /// @par\n      PUSH 5\t\t\t \n      DUP6 \t\t\tdate the pendi\n      SWAP1 \t\t\tdate the pendi\n      SHL \t\t\tdate the pendi\n      DUP5 \t\t\tileId' to update the pendin\n      ADD \t\t\tileId' to update the pendin\n      DUP7 \t\t\t    /// @param \n      DUP2 \t\t\t    /// @param \n      GT \t\t\t    /// @param \n      ISZERO \t\t\tor\\n    /// @param _pendingOwn...\n      PUSH [tag] 1127\t\t\tor\\n    /// @param _pendingOwn...\n      JUMPI \t\t\tor\\n    /// @param _pendingOwn...\n      PUSH 0\t\t\t \n      DUP1 \t\t\tn\n      REVERT \t\t\tndingOwner T\n    tag 1127\t\t\tor\\n    /// @param _pendingOwn...\n      JUMPDEST \t\t\tor\\n    /// @param _pendingOwn...\n      DUP5 \t\t\t value\n    tag 1128\t\t\ttion updateProfilePendingOwner...\n      JUMPDEST \t\t\ttion updateProfilePendingOwner...\n      DUP2 \t\t\tlePend\n      DUP2 \t\t\tPro\n      LT \t\t\tateProfilePendi\n      ISZERO \t\t\ttion updateProfilePendingOwner...\n      PUSH [tag] 1130\t\t\ttion updateProfilePendingOwner...\n      JUMPI \t\t\ttion updateProfilePendingOwner...\n      DUP1 \t\t\tev \n      MLOAD \t\t\t/// @dev A\n      PUSH 1\t\t\t\n      PUSH 1\t\t\t\n      PUSH 40\t\t\t\n      SHL \t\t\t\n      SUB \t\t\t\n      DUP2 \t\t\t'owner' of \n      GT \t\t\tng 'owner' of the '_profileId'...\n      ISZERO \t\t\tnding 'owner' of the '_profile...\n      PUSH [tag] 1131\t\t\tnding 'owner' of the '_profile...\n      JUMPI \t\t\tnding 'owner' of the '_profile...\n      PUSH 0\t\t\t\\n\n      DUP1 \t\t\t/\n      REVERT \t\t\tin\\n    ///\\n \n    tag 1131\t\t\tnding 'owner' of the '_profile...\n      JUMPDEST \t\t\tnding 'owner' of the '_profile...\n      PUSH [tag] 1132\t\t\the pending owner can accept th...\n      DUP10 \t\t\td T\n      DUP3 \t\t\taram _profi\n      DUP10 \t\t\t  /// \n      ADD \t\t\t/\\n    /// @param _profil\n      PUSH [tag] 840\t\t\the pending owner can accept th...\n      JUMP \t\t\the pending owner can accept th...\n    tag 1132\t\t\the pending owner can accept th...\n      JUMPDEST \t\t\the pending owner can accept th...\n      DUP6 \t\t\tents: Only the pending owner c...\n      MSTORE \t\t\tents: Only the pending owner c...\n      POP \t\t\t\n      SWAP3 \t\t\tpt the owner\n      DUP3 \t\t\tpt the owner\n      ADD \t\t\tpt the owner\n      SWAP3 \t\t\tpt the owner\n      DUP3 \t\t\ttes32 _profi\n      ADD \t\t\ttes32 _profi\n      PUSH [tag] 1128\t\t\ttion updateProfilePendingOwner...\n      JUMP \t\t\ttion updateProfilePendingOwner...\n    tag 1130\t\t\ttion updateProfilePendingOwner...\n      JUMPDEST \t\t\ttion updateProfilePendingOwner...\n      POP \t\t\t up\n      POP \t\t\t up\n      POP \t\t\t up\n      POP \t\t\t up\n      SWAP4 \t\t\t @param _metadata The new 'Met...\n      SWAP3 \t\t\t @param _metadata The new 'Met...\n      POP \t\t\t @param _metadata The new 'Met...\n      POP \t\t\t @param _metadata The new 'Met...\n      POP \t\t\t @param _metadata The new 'Met...\n      JUMP \t\t\t @param _metadata The new 'Met...\n    tag 842\t\t\t acceptProfileOwnership(bytes3...\n      JUMPDEST \t\t\t acceptProfileOwnership(bytes3...\n      PUSH 0\t\t\t the \n      DUP3 \t\t\tnts\n      PUSH 1F\t\t\tquir\n      DUP4 \t\t\t  /// \n      ADD \t\t\t/\\n    /// Require\n      SLT \t\t\t  ///\\n    /// Requirements:\n      PUSH [tag] 1134\t\t\tssed in\\n    ///\\n    /// Requ...\n      JUMPI \t\t\tssed in\\n    ///\\n    /// Requ...\n      PUSH 0\t\t\tf\n      DUP1 \t\t\tP\n      REVERT \t\t\ty the 'Profi\n    tag 1134\t\t\tssed in\\n    ///\\n    /// Requ...\n      JUMPDEST \t\t\tssed in\\n    ///\\n    /// Requ...\n      PUSH [tag] 287\t\t\tmbers\\n    ///\\n    /// @param...\n      DUP4 \t\t\t to\n      DUP4 \t\t\te memb\n      MLOAD \t\t\ters The membe\n      PUSH 20\t\t\tm _m\n      DUP6 \t\t\t// @pa\n      ADD \t\t\t   /// @param _me\n      PUSH [tag] 841\t\t\tmbers\\n    ///\\n    /// @param...\n      JUMP \t\t\tmbers\\n    ///\\n    /// @param...\n    tag 843\t\t\t'_profileId' passed in\\n    fu...\n      JUMPDEST \t\t\t'_profileId' passed in\\n    fu...\n      DUP1 \t\t\temory _member\n      MLOAD \t\t\temory _member\n      PUSH F\t\t\trs\n      DUP2 \t\t\tmoves members from th\n      SWAP1 \t\t\tmoves members from th\n      SIGNEXTEND \t\t\tmoves members from th\n      DUP2 \t\t\t// @dev Removes members from t...\n      EQ \t\t\t// @dev Removes members from t...\n      PUSH [tag] 1004\t\t\tal;\\n\\n    /// @dev Removes me...\n      JUMPI \t\t\tal;\\n\\n    /// @dev Removes me...\n      PUSH 0\t\t\tp\n      DUP1 \t\t\td\n      REVERT \t\t\trofileId' pa\n    tag 844\t\t\t//\\n    /// Requirements: Only...\n      JUMPDEST \t\t\t//\\n    /// Requirements: Only...\n      DUP1 \t\t\t   /// @param\n      MLOAD \t\t\t   /// @param\n      PUSH [tag] 1004\t\t\tId The 'profileId' to remove m\n      DUP2 \t\t\t   /// @param\n      PUSH [tag] 828\t\t\tId The 'profileId' to remove m\n      JUMP \t\t\tId The 'profileId' to remove m\n    tag 454\t\t\t\\n    /// @param _members The ...\n      JUMPDEST \t\t\t\\n    /// @param _members The ...\n      PUSH 0\t\t\tuireme\n      DUP1 \t\t\ts: Mus\n      PUSH 0\t\t\tbe the\n      DUP1 \t\t\tllo ow\n      PUSH 0\t\t\tr\\n    \n      DUP1 \t\t\t/\\n    \n      PUSH C0\t\t\trec\n      DUP8 \t\t\tt to use \n      DUP10 \t\t\tn you w\n      SUB \t\t\ttoken you want to use t\n      SLT \t\t\tThe token you want to use to r...\n      ISZERO \t\t\ten The token you want to use t...\n      PUSH [tag] 1141\t\t\ten The token you want to use t...\n      JUMPI \t\t\ten The token you want to use t...\n      PUSH 0\t\t\t \n      DUP1 \t\t\t \n      REVERT \t\t\t funds\\n    /\n    tag 1141\t\t\ten The token you want to use t...\n      JUMPDEST \t\t\ten The token you want to use t...\n      DUP7 \t\t\tent of th\n      MLOAD \t\t\trecipient of the\n      PUSH 1\t\t\t\n      PUSH 1\t\t\t\n      PUSH 40\t\t\t\n      SHL \t\t\t\n      SUB \t\t\t\n      DUP1 \t\t\tdd\n      DUP3 \t\t\ttoken,\n      GT \t\t\ts _token, addr\n      ISZERO \t\t\tress _token, address _recipien...\n      PUSH [tag] 1142\t\t\tress _token, address _recipien...\n      JUMPI \t\t\tress _token, address _recipien...\n      PUSH 0\t\t\tt\n      DUP1 \t\t\ti\n      REVERT \t\t\t _recipient)\n    tag 1142\t\t\tress _token, address _recipien...\n      JUMPDEST \t\t\tress _token, address _recipien...\n      DUP2 \t\t\t⠀⠀⠀⠀⠀⠀\n      DUP10 \t\t\tes\\n\\n// ⠀⠀\n      ADD \t\t\trfaces\\n\\n// ⠀⠀⠀⠀⠀⠀⠀⠀⠀⠀⠀\n      SWAP2 \t\t\t}\\n\\n// Interfaces\\n\\n// ⠀⠀⠀⠀⠀...\n      POP \t\t\t}\\n\\n// Interfaces\\n\\n// ⠀⠀⠀⠀⠀...\n      DUP10 \t\t\t⣿⣿⣷⣄⠀⠀⠀\n      PUSH 1F\t\t\t⠀⠀⠀⠀\n      DUP4 \t\t\t⠀⠀\n      ADD \t\t\t⠀⠀⠀⠀⠀⠀⠀⠀⠀⠀⠀⠀⠀\n      SLT \t\t\t⠀⠀⠀⠀⠀⠀⠀⠀⠀⠀⠀⠀⠀⠀⠀⠀⠀⠀⣼⣿⣿⣷⣄⠀⠀⠀⠀\n      PUSH [tag] 1143\t\t\t⡀⠀⠀⠀⠀⠀⠀⠀⠀⠀⠀⠀⠀⠀⠀⠀⠀⠀⠀⠀⠀⠀⠀⠀⠀⠀⠀⠀⣼⣿...\n      JUMPI \t\t\t⡀⠀⠀⠀⠀⠀⠀⠀⠀⠀⠀⠀⠀⠀⠀⠀⠀⠀⠀⠀⠀⠀⠀⠀⠀⠀⠀⠀⣼⣿...\n      PUSH 0\t\t\t⠀\n      DUP1 \t\t\t⣗\n      REVERT \t\t\t⠀⠀⠀⢸⣿⣿⣿⣗⠀⠀⠀⢸\n    tag 1143\t\t\t⡀⠀⠀⠀⠀⠀⠀⠀⠀⠀⠀⠀⠀⠀⠀⠀⠀⠀⠀⠀⠀⠀⠀⠀⠀⠀⠀⠀⣼⣿...\n      JUMPDEST \t\t\t⡀⠀⠀⠀⠀⠀⠀⠀⠀⠀⠀⠀⠀⠀⠀⠀⠀⠀⠀⠀⠀⠀⠀⠀⠀⠀⠀⠀⣼⣿...\n      DUP2 \t\t\t\\n/\n      MLOAD \t\t\t⠀⠀⠀⠀⠀⠀\\n//\n      PUSH 20\t\t\t⣿⣿⣷⡀\n      PUSH [tag] 1144\t\t\t⠀⠀⠀⠀⠀⣼⣿⣿⣿⣿⣿⡄⠀⠀⠀⠀⠀⠀⠀⠀⠀⠀⢸⣿⣿⣿⣗⠀⠀⠀...\n      PUSH [tag] 878\t\t\t⠀⠀⠀⠀⠀⠀⢸⣿⣿⣿⣗⠀⠀⠀⢸⣿⣿⣿⡯⠀⠀⠀⠀⠀⠀⠀⠀⠀⠀⠀...\n      DUP4 \t\t\t⠀⠀\n      PUSH [tag] 820\t\t\t⠀⠀⠀⠀⠀⠀⢸⣿⣿⣿⣗⠀⠀⠀⢸⣿⣿⣿⡯⠀⠀⠀⠀⠀⠀⠀⠀⠀⠀⠀...\n      JUMP \t\t\t⠀⠀⠀⠀⠀⠀⢸⣿⣿⣿⣗⠀⠀⠀⢸⣿⣿⣿⡯⠀⠀⠀⠀⠀⠀⠀⠀⠀⠀⠀...\n    tag 1144\t\t\t⠀⠀⠀⠀⠀⣼⣿⣿⣿⣿⣿⡄⠀⠀⠀⠀⠀⠀⠀⠀⠀⠀⢸⣿⣿⣿⣗⠀⠀⠀...\n      JUMPDEST \t\t\t⠀⠀⠀⠀⠀⣼⣿⣿⣿⣿⣿⡄⠀⠀⠀⠀⠀⠀⠀⠀⠀⠀⢸⣿⣿⣿⣗⠀⠀⠀...\n      DUP3 \t\t\t⠀⠀⠀⠀⠀⠀⠀⠀⠀⠀⠀⠀⠀⠀⣸\n      DUP2 \t\t\t⠀⠀⠀⠀⠀⠀⠀⠀⠀⠀⠀⠀⠀⠀⣸\n      MSTORE \t\t\t⠀⠀⠀⠀⠀⠀⠀⠀⠀⠀⠀⠀⠀⠀⣸\n      PUSH 6\t\t\t⠀\n      SWAP3 \t\t\t⠀⠀⠀⠀⠀⠀⠀⠀⠀⠘\n      SWAP1 \t\t\t⠀⠀⠀⠀⠀⠀⠀⠀⠀⠘\n      SWAP3 \t\t\t⠀⠀⠀⠀⠀⠀⠀⠀⠀⠘\n      SHL \t\t\t⠀⠀⠀⠀⠀⠀⠀⠀⠀⠘\n      DUP5 \t\t\t/ ⠀⠀⠀⠀⠀⠀⠀⠀⠀⠀⠀⠀⠀⠀⠀⠘⣿\n      ADD \t\t\t/ ⠀⠀⠀⠀⠀⠀⠀⠀⠀⠀⠀⠀⠀⠀⠀⠘⣿\n      DUP2 \t\t\t⠀⠀\\n// ⠀⠀⠀⠀⠀⠀⠀⠀⠀⠀⠀⠀⠀⠀⠀⠘⣿⣿⣿⣿⣿⣿\n      ADD \t\t\t⠀⠀\\n// ⠀⠀⠀⠀⠀⠀⠀⠀⠀⠀⠀⠀⠀⠀⠀⠘⣿⣿⣿⣿⣿⣿\n      SWAP2 \t\t\t⠀⠀\\n// ⠀⠀⠀⠀⠀⠀⠀⠀⠀⠀⠀⠀⠀⠀⠀⠘⣿⣿⣿⣿⣿⣿\n      DUP2 \t\t\t⠀⢸⣿⣿⣿⣗⠀⠀⠀⢸⣿⣿\n      DUP2 \t\t\t⠀⢸⣿⣿⣿⣗⠀⠀⠀⢸⣿⣿\n      ADD \t\t\t⠀⢸⣿⣿⣿⣗⠀⠀⠀⢸⣿⣿\n      SWAP1 \t\t\t⠀⢸⣿⣿⣿⣗⠀⠀⠀⢸⣿⣿\n      DUP14 \t\t\t⠀⠀⠀⠀⠀⠀⠀⠀⠀⠀⠀⣰⣿⣿⣿⡟⠘⣿⣿\n      DUP5 \t\t\t⠀⠀⠀⠀⠀⠀⠀⠀⠀⠀⠀⣰⣿⣿⣿⡟⠘⣿⣿\n      GT \t\t\t⠀⠀⠀⠀⠀⠀⠀⠀⠀⠀⠀⣰⣿⣿⣿⡟⠘⣿⣿\n      ISZERO \t\t\t⠀⠀⠀⠀⠀⠀⠀⠀⠀⠀⠀⠀⠀⠀⣰⣿⣿⣿⡟⠘⣿⣿⣿⣷⡀⠀⠀⠀⠀⠀...\n      PUSH [tag] 1146\t\t\t⠀⠀⠀⠀⠀⠀⠀⠀⠀⠀⠀⠀⠀⠀⣰⣿⣿⣿⡟⠘⣿⣿⣿⣷⡀⠀⠀⠀⠀⠀...\n      JUMPI \t\t\t⠀⠀⠀⠀⠀⠀⠀⠀⠀⠀⠀⠀⠀⠀⣰⣿⣿⣿⡟⠘⣿⣿⣿⣷⡀⠀⠀⠀⠀⠀...\n      PUSH 0\t\t\t⣿\n      DUP1 \t\t\t⠀\n      REVERT \t\t\t⠀⠀⠀⠀⠀⠀⠀⠀⢸⣿⣿⣿\n    tag 1146\t\t\t⠀⠀⠀⠀⠀⠀⠀⠀⠀⠀⠀⠀⠀⠀⣰⣿⣿⣿⡟⠘⣿⣿⣿⣷⡀⠀⠀⠀⠀⠀...\n      JUMPDEST \t\t\t⠀⠀⠀⠀⠀⠀⠀⠀⠀⠀⠀⠀⠀⠀⣰⣿⣿⣿⡟⠘⣿⣿⣿⣷⡀⠀⠀⠀⠀⠀...\n      SWAP5 \t\t\t⠀⠀⠀⠀⠀⠀⠀⠀⠀⠀\\n\n      DUP3 \t\t\t⠀⠀⠀⠀⠀⠀⠀⠀⠀⠀\\n\n      ADD \t\t\t⠀⠀⠀⠀⠀⠀⠀⠀⠀⠀\\n\n      SWAP5 \t\t\t⠀⠀⠀⠀⠀⠀⠀⠀⠀⠀\\n\n    tag 1147\t\t\t⠀⠀⣀⣴⣾⣿⣿⣿⣿⣾⠻⣿⣿⣿⣿⣿⣿⣿⡆⠀⠀⠀⠀⠀⠀⠀⠀⠀⠀⠀...\n      JUMPDEST \t\t\t⠀⠀⣀⣴⣾⣿⣿⣿⣿⣾⠻⣿⣿⣿⣿⣿⣿⣿⡆⠀⠀⠀⠀⠀⠀⠀⠀⠀⠀⠀...\n      DUP4 \t\t\t⣿⣿⡆⠀⠀⠀\n      DUP7 \t\t\t⣿⣿⣿\n      LT \t\t\t⣿⣾⠻⣿⣿⣿⣿⣿⣿⣿⡆⠀⠀⠀⠀\n      ISZERO \t\t\t⠀⠀⣀⣴⣾⣿⣿⣿⣿⣾⠻⣿⣿⣿⣿⣿⣿⣿⡆⠀⠀⠀⠀⠀⠀⠀⠀⠀⠀⠀...\n      PUSH [tag] 1149\t\t\t⠀⠀⣀⣴⣾⣿⣿⣿⣿⣾⠻⣿⣿⣿⣿⣿⣿⣿⡆⠀⠀⠀⠀⠀⠀⠀⠀⠀⠀⠀...\n      JUMPI \t\t\t⠀⠀⣀⣴⣾⣿⣿⣿⣿⣾⠻⣿⣿⣿⣿⣿⣿⣿⡆⠀⠀⠀⠀⠀⠀⠀⠀⠀⠀⠀...\n      PUSH 40\t\t\t⠀⠀⠀⠀\n      DUP7 \t\t\t⠀⠀\\n\n      DUP16 \t\t\t⣶⣦⣦⣀⡀⠀⠀\n      SUB \t\t\t⣴⣴⣶⣶⣶⣦⣦⣀⡀⠀⠀⠀⠀⠀⠀\\n/\n      SLT \t\t\t⠀⠀⢀⣠⣴⣴⣶⣶⣶⣦⣦⣀⡀⠀⠀⠀⠀⠀⠀\\n// ⠀⠀⠀⠀⠀\n      ISZERO \t\t\t⠀⠀⠀⠀⠀⢀⣠⣴⣴⣶⣶⣶⣦⣦⣀⡀⠀⠀⠀⠀⠀⠀\\n// ⠀⠀⠀...\n      PUSH [tag] 1150\t\t\t⠀⠀⠀⠀⠀⢀⣠⣴⣴⣶⣶⣶⣦⣦⣀⡀⠀⠀⠀⠀⠀⠀\\n// ⠀⠀⠀...\n      JUMPI \t\t\t⠀⠀⠀⠀⠀⢀⣠⣴⣴⣶⣶⣶⣦⣦⣀⡀⠀⠀⠀⠀⠀⠀\\n// ⠀⠀⠀...\n      PUSH 0\t\t\t⣿\n      DUP1 \t\t\t⠃\n      REVERT \t\t\t⣿⣿⣿⣿⣿⣿⡿⠃⠀⠙⣿⣿\n    tag 1150\t\t\t⠀⠀⠀⠀⠀⢀⣠⣴⣴⣶⣶⣶⣦⣦⣀⡀⠀⠀⠀⠀⠀⠀\\n// ⠀⠀⠀...\n      JUMPDEST \t\t\t⠀⠀⠀⠀⠀⢀⣠⣴⣴⣶⣶⣶⣦⣦⣀⡀⠀⠀⠀⠀⠀⠀\\n// ⠀⠀⠀...\n      PUSH [tag] 1151\t\t\t⠁⠀⠀⠀⢻⣿⣿⣿⣧⠀⠀⠀⠀⠀⠀⠀⢸⣿⣿⣿⣗⠀\n      PUSH [tag] 814\t\t\t⠁⠀⠀⠀⢻⣿⣿⣿⣧⠀⠀⠀⠀⠀⠀⠀⢸⣿⣿⣿⣗⠀\n      JUMP \t\t\t⠁⠀⠀⠀⢻⣿⣿⣿⣧⠀⠀⠀⠀⠀⠀⠀⢸⣿⣿⣿⣗⠀\n    tag 1151\t\t\t⠁⠀⠀⠀⢻⣿⣿⣿⣧⠀⠀⠀⠀⠀⠀⠀⢸⣿⣿⣿⣗⠀\n      JUMPDEST \t\t\t⠁⠀⠀⠀⢻⣿⣿⣿⣧⠀⠀⠀⠀⠀⠀⠀⢸⣿⣿⣿⣗⠀\n      DUP7 \t\t\t⠀⠀⠀\\n// ⠀⠀⠀\n      MLOAD \t\t\t⠀⠀⠀\\n// ⠀⠀⠀\n      DUP2 \t\t\t⣿⣿⣿⣿⣿⣿⣿⣿⣿⣿⣿⣶⡀⠀⠀⠀⠀\\n// ⠀⠀⠀⠀\n      MSTORE \t\t\t⣿⣿⣿⣿⣿⣿⣿⣿⣿⣿⣿⣶⡀⠀⠀⠀⠀\\n// ⠀⠀⠀⠀\n      DUP4 \t\t\t⣿⠃⠀⠀⠀⠀⠈⢿⣿⣿⣿⣆\n      DUP8 \t\t\t⣿⠃⠀⠀⠀⠀⠈⢿⣿⣿⣿⣆\n      ADD \t\t\t⣿⠃⠀⠀⠀⠀⠈⢿⣿⣿⣿⣆\n      MLOAD \t\t\t⠀⠀⢀⣾⣿⣿⣿⠃⠀⠀⠀⠀⠈⢿⣿⣿⣿⣆⠀\n      DUP5 \t\t\t⡿⠀⠀⠀⠀⠀⠀⠀⠀⠀⠀⠀⠀⠀\n      DUP3 \t\t\t⡿⠀⠀⠀⠀⠀⠀⠀⠀⠀⠀⠀⠀⠀\n      ADD \t\t\t⡿⠀⠀⠀⠀⠀⠀⠀⠀⠀⠀⠀⠀⠀\n      MSTORE \t\t\t⠀⠘⣿⣿⣿⣿⣿⡿⠀⠀⠀⠀⠀⠀⠀⠀⠀⠀⠀⠀⠀⠀⠀⠀⠀⢀⣾⣿⣿⣿...\n      DUP3 \t\t\t⣿⣿⣿⡯⠀⠀⠀⣰⣿⣿⣿⡿⠋⠁⠀⠀⠈⠘\n      MSTORE \t\t\t⣿⣿⣿⡯⠀⠀⠀⣰⣿⣿⣿⡿⠋⠁⠀⠀⠈⠘\n      PUSH 40\t\t\t⡿⠀⠀⠸\n      SWAP1 \t\t\t⠀⠀⠀⠀⠀⢠⣿⣿⣿⡿⠀⠀⠸⣿\n      SWAP6 \t\t\t⠀⠀⠀⠀⠀⢠⣿⣿⣿⡿⠀⠀⠸⣿\n      ADD \t\t\t⠀⠀⠀⠀⠀⢠⣿⣿⣿⡿⠀⠀⠸⣿\n      SWAP5 \t\t\t⠀⠀⠀⠀⠀⢠⣿⣿⣿⡿⠀⠀⠸⣿\n      SWAP1 \t\t\t⣿⣿⣿⣿⣿⡿⠀⠀⠀⠀⠀⠀\n      DUP3 \t\t\t⣿⣿⣿⣿⣿⡿⠀⠀⠀⠀⠀⠀\n      ADD \t\t\t⣿⣿⣿⣿⣿⡿⠀⠀⠀⠀⠀⠀\n      SWAP1 \t\t\t⣿⣿⣿⣿⣿⡿⠀⠀⠀⠀⠀⠀\n      PUSH [tag] 1147\t\t\t⠀⠀⣀⣴⣾⣿⣿⣿⣿⣾⠻⣿⣿⣿⣿⣿⣿⣿⡆⠀⠀⠀⠀⠀⠀⠀⠀⠀⠀⠀...\n      JUMP \t\t\t⠀⠀⣀⣴⣾⣿⣿⣿⣿⣾⠻⣿⣿⣿⣿⣿⣿⣿⡆⠀⠀⠀⠀⠀⠀⠀⠀⠀⠀⠀...\n    tag 1149\t\t\t⠀⠀⣀⣴⣾⣿⣿⣿⣿⣾⠻⣿⣿⣿⣿⣿⣿⣿⡆⠀⠀⠀⠀⠀⠀⠀⠀⠀⠀⠀...\n      JUMPDEST \t\t\t⠀⠀⣀⣴⣾⣿⣿⣿⣿⣾⠻⣿⣿⣿⣿⣿⣿⣿⡆⠀⠀⠀⠀⠀⠀⠀⠀⠀⠀⠀...\n      SWAP2 \t\t\t⠁⠀⠀⠀⠀⠀⠀⠀⠘⣿⣿⣿⣿⡀⠀⠀\\n/\n      DUP13 \t\t\t⠁⠀⠀⠀⠀⠀⠀⠀⠘⣿⣿⣿⣿⡀⠀⠀\\n/\n      ADD \t\t\t⠁⠀⠀⠀⠀⠀⠀⠀⠘⣿⣿⣿⣿⡀⠀⠀\\n/\n      MLOAD \t\t\t⠀⢰⣿⣿⣿⣿⠁⠀⠀⠀⠀⠀⠀⠀⠘⣿⣿⣿⣿⡀⠀⠀\\n//\n      SWAP2 \t\t\t⠀⠀⠀⠀⠀\n      SWAP11 \t\t\t⠀⠀⠀⠀⠀\n      POP \t\t\t\n      SWAP1 \t\t\t⠀⢰⣿⣿⣿⣿⠁⠀⠀⠀⠀⠀⠀⠀⠘⣿⣿⣿⣿⡀⠀⠀\\n//\n      SWAP4 \t\t\t⠀⢰⣿⣿⣿⣿⠁⠀⠀⠀⠀⠀⠀⠀⠘⣿⣿⣿⣿⡀⠀⠀\\n//\n      POP \t\t\t\n      POP \t\t\t\n      POP \t\t\t\n      DUP1 \t\t\t⣟⠀⡀⢀⠀⡀⢀⠀⡀⢈⢿⡟⠁⠀⠀⠀\n      DUP3 \t\t\t⣟⠀⡀⢀⠀⡀⢀⠀⡀⢈⢿⡟⠁⠀⠀⠀\n      GT \t\t\t⣟⠀⡀⢀⠀⡀⢀⠀⡀⢈⢿⡟⠁⠀⠀⠀\n      ISZERO \t\t\t⣿⣿⣿⣟⠀⡀⢀⠀⡀⢀⠀⡀⢈⢿⡟⠁⠀⠀⠀⠀⠀⠀⠀⠀⠀⠀⠀⠀⠀⠀...\n      PUSH [tag] 1152\t\t\t⣿⣿⣿⣟⠀⡀⢀⠀⡀⢀⠀⡀⢈⢿⡟⠁⠀⠀⠀⠀⠀⠀⠀⠀⠀⠀⠀⠀⠀⠀...\n      JUMPI \t\t\t⣿⣿⣿⣟⠀⡀⢀⠀⡀⢀⠀⡀⢈⢿⡟⠁⠀⠀⠀⠀⠀⠀⠀⠀⠀⠀⠀⠀⠀⠀...\n      PUSH 0\t\t\t⠀\n      DUP1 \t\t\t⠀\n      REVERT \t\t\t⠀⠀⠀⠀⠀⠀⠀⠀⠀⠀⠀⣼\n    tag 1152\t\t\t⣿⣿⣿⣟⠀⡀⢀⠀⡀⢀⠀⡀⢈⢿⡟⠁⠀⠀⠀⠀⠀⠀⠀⠀⠀⠀⠀⠀⠀⠀...\n      JUMPDEST \t\t\t⣿⣿⣿⣟⠀⡀⢀⠀⡀⢀⠀⡀⢈⢿⡟⠁⠀⠀⠀⠀⠀⠀⠀⠀⠀⠀⠀⠀⠀⠀...\n      POP \t\t\t⣿⣿⣿⣟⠀⡀⢀⠀⡀⢀⠀⡀⢈⢿⡟⠁⠀⠀⠀⠀⠀⠀⠀⠀⠀⠀⠀⠀⠀⠀...\n      PUSH [tag] 1153\t\t\t⠀⢸⣿⣿⣿⣗⠀⠀⠀⢸⣿⣿⣿⡯⠀⠀⢸⣿⣿⣿⣗⠀⠀⠀⠀⠀⠀⠀⠀⠀...\n      DUP10 \t\t\t⣿⡿⢿⠿⠿⠿⠿\n      DUP3 \t\t\t⠀⠀⠀⠀⠀⠀⠀⠀\n      DUP11 \t\t\t⣿⣿⣷⣶⣄⡀⠀⠀⠀\n      ADD \t\t\t⣿⣿⣿⣿⣿⣿⣷⣶⣄⡀⠀⠀⠀⠀⠀⠀⠀⠀⠀⠀⠀⠀⠀⣸\n      PUSH [tag] 842\t\t\t⠀⢸⣿⣿⣿⣗⠀⠀⠀⢸⣿⣿⣿⡯⠀⠀⢸⣿⣿⣿⣗⠀⠀⠀⠀⠀⠀⠀⠀⠀...\n      JUMP \t\t\t⠀⢸⣿⣿⣿⣗⠀⠀⠀⢸⣿⣿⣿⡯⠀⠀⢸⣿⣿⣿⣗⠀⠀⠀⠀⠀⠀⠀⠀⠀...\n    tag 1153\t\t\t⠀⢸⣿⣿⣿⣗⠀⠀⠀⢸⣿⣿⣿⡯⠀⠀⢸⣿⣿⣿⣗⠀⠀⠀⠀⠀⠀⠀⠀⠀...\n      JUMPDEST \t\t\t⠀⢸⣿⣿⣿⣗⠀⠀⠀⢸⣿⣿⣿⡯⠀⠀⢸⣿⣿⣿⣗⠀⠀⠀⠀⠀⠀⠀⠀⠀...\n      SWAP6 \t\t\t⣿⣿⣿⣿⣿⣿⡄⠀⠀⠀⠀⢸⣿⣿⣿⣗⠀⠀⠀⢸⣿⣿⣿⡯⠀⠀⢸⣿⣿⣿...\n      POP \t\t\t⣿⣿⣿⣿⣿⣿⡄⠀⠀⠀⠀⢸⣿⣿⣿⣗⠀⠀⠀⢸⣿⣿⣿⡯⠀⠀⢸⣿⣿⣿...\n      POP \t\t\t⣿⣿⣿⣿⣿⣿⡄⠀⠀⠀⠀⢸⣿⣿⣿⣗⠀⠀⠀⢸⣿⣿⣿⡯⠀⠀⢸⣿⣿⣿...\n      PUSH [tag] 1154\t\t\t⠀⠀⢸⣿⣿⣿⡯⠀⠀⠸⣿⣿⣿⣷⡀⠀⠀⠀⠀⠀⠀⠀⢠⣿⣿⣿⣿⠂⠀⠀...\n      PUSH 40\t\t\t⠀⠈⢿⣿\n      DUP9 \t\t\t ⠀⠀⠙⠛⠿⠻⠻⠛\n      ADD \t\t\t⠀\\n// ⠀⠀⠙⠛⠿⠻⠻⠛⠉⠀⠀⠈⢿⣿⣿\n      PUSH [tag] 843\t\t\t⠀⠀⢸⣿⣿⣿⡯⠀⠀⠸⣿⣿⣿⣷⡀⠀⠀⠀⠀⠀⠀⠀⢠⣿⣿⣿⣿⠂⠀⠀...\n      JUMP \t\t\t⠀⠀⢸⣿⣿⣿⡯⠀⠀⠸⣿⣿⣿⣷⡀⠀⠀⠀⠀⠀⠀⠀⢠⣿⣿⣿⣿⠂⠀⠀...\n    tag 1154\t\t\t⠀⠀⢸⣿⣿⣿⡯⠀⠀⠸⣿⣿⣿⣷⡀⠀⠀⠀⠀⠀⠀⠀⢠⣿⣿⣿⣿⠂⠀⠀...\n      JUMPDEST \t\t\t⠀⠀⢸⣿⣿⣿⡯⠀⠀⠸⣿⣿⣿⣷⡀⠀⠀⠀⠀⠀⠀⠀⢠⣿⣿⣿⣿⠂⠀⠀...\n      SWAP4 \t\t\t⡀⠀⠀⠀⢸⣿⣿⣿⣗⠀⠀⠀⢸⣿⣿⣿⡯⠀⠀⠸⣿⣿⣿⣷⡀⠀⠀⠀⠀⠀...\n      POP \t\t\t⡀⠀⠀⠀⢸⣿⣿⣿⣗⠀⠀⠀⢸⣿⣿⣿⡯⠀⠀⠸⣿⣿⣿⣷⡀⠀⠀⠀⠀⠀...\n      PUSH [tag] 1155\t\t\t⠀⠀⠀⠀⣰⣿⣿⣿⣿⠁⠀⠀⠀⠀⠀⠀⠀⠀⠀⠀⠀⢿⣿⣿⣿⣧⠀⠀⠀⢸...\n      PUSH 60\t\t\t⠀⢻\n      DUP9 \t\t\t⣗⠀⠀⠀⢸⣿⣿⣿⡯\n      ADD \t\t\t⢸⣿⣿⣿⣗⠀⠀⠀⢸⣿⣿⣿⡯⠀⠀⠀⢻⣿\n      PUSH [tag] 844\t\t\t⠀⠀⠀⠀⣰⣿⣿⣿⣿⠁⠀⠀⠀⠀⠀⠀⠀⠀⠀⠀⠀⢿⣿⣿⣿⣧⠀⠀⠀⢸...\n      JUMP \t\t\t⠀⠀⠀⠀⣰⣿⣿⣿⣿⠁⠀⠀⠀⠀⠀⠀⠀⠀⠀⠀⠀⢿⣿⣿⣿⣧⠀⠀⠀⢸...\n    tag 1155\t\t\t⠀⠀⠀⠀⣰⣿⣿⣿⣿⠁⠀⠀⠀⠀⠀⠀⠀⠀⠀⠀⠀⢿⣿⣿⣿⣧⠀⠀⠀⢸...\n      JUMPDEST \t\t\t⠀⠀⠀⠀⣰⣿⣿⣿⣿⠁⠀⠀⠀⠀⠀⠀⠀⠀⠀⠀⠀⢿⣿⣿⣿⣧⠀⠀⠀⢸...\n      SWAP3 \t\t\t⣿⣷⣄⠀⠀⠀⠀⠀⠀⠀⠀⠀⠀⠀⣰⣿⣿⣿⣿⠁⠀⠀⠀⠀⠀⠀⠀⠀⠀⠀...\n      POP \t\t\t⣿⣷⣄⠀⠀⠀⠀⠀⠀⠀⠀⠀⠀⠀⣰⣿⣿⣿⣿⠁⠀⠀⠀⠀⠀⠀⠀⠀⠀⠀...\n      PUSH [tag] 1156\t\t\t/ ⠀⠀⠀⠀⠀⠀⠀⠀⠀⠀⠀⠀⠈⠛⣿⣿⣿⣿⣿⣿⣿⣿⣿⣿⣿⣿⣿⣿...\n      PUSH 80\t\t\t⣿⠃⠀\n      DUP9 \t\t\t⠀⠀⠀⠀⠀⠀⠀⢰⣿\n      ADD \t\t\t⣿⡄⠀⠀⠀⠀⠀⠀⠀⠀⠀⢰⣿⣿⣿⣿⠃⠀⠀\n      PUSH [tag] 844\t\t\t/ ⠀⠀⠀⠀⠀⠀⠀⠀⠀⠀⠀⠀⠈⠛⣿⣿⣿⣿⣿⣿⣿⣿⣿⣿⣿⣿⣿⣿...\n      JUMP \t\t\t/ ⠀⠀⠀⠀⠀⠀⠀⠀⠀⠀⠀⠀⠈⠛⣿⣿⣿⣿⣿⣿⣿⣿⣿⣿⣿⣿⣿⣿...\n    tag 1156\t\t\t/ ⠀⠀⠀⠀⠀⠀⠀⠀⠀⠀⠀⠀⠈⠛⣿⣿⣿⣿⣿⣿⣿⣿⣿⣿⣿⣿⣿⣿...\n      JUMPDEST \t\t\t/ ⠀⠀⠀⠀⠀⠀⠀⠀⠀⠀⠀⠀⠈⠛⣿⣿⣿⣿⣿⣿⣿⣿⣿⣿⣿⣿⣿⣿...\n      SWAP2 \t\t\t⣾⣿⣿⣿⠏⠀⠀⠀\\n// ⠀⠀⠀⠀⠀⠀⠀⠀⠀⠀⠀⠀⠈⠛⣿⣿⣿...\n      POP \t\t\t⣾⣿⣿⣿⠏⠀⠀⠀\\n// ⠀⠀⠀⠀⠀⠀⠀⠀⠀⠀⠀⠀⠈⠛⣿⣿⣿...\n      PUSH [tag] 1157\t\t\t⣿⣿⣗⠀⠀⠀⢸⣿⣿⣿⡯⠀⠀⠀⠀⠹⢿⣿⣿⣿⣿⣾⣾⣷⣿⣿⣿⣿⡿⠋...\n      PUSH A0\t\t\t⠀⠀⠀\n      DUP9 \t\t\t⠀\\n// ⠀⠀⠀⠀\n      ADD \t\t\t⠋⠀⠀⠀⠀\\n// ⠀⠀⠀⠀⠀⠀⠀⠀⠀⠀\n      PUSH [tag] 844\t\t\t⣿⣿⣗⠀⠀⠀⢸⣿⣿⣿⡯⠀⠀⠀⠀⠹⢿⣿⣿⣿⣿⣾⣾⣷⣿⣿⣿⣿⡿⠋...\n      JUMP \t\t\t⣿⣿⣗⠀⠀⠀⢸⣿⣿⣿⡯⠀⠀⠀⠀⠹⢿⣿⣿⣿⣿⣾⣾⣷⣿⣿⣿⣿⡿⠋...\n    tag 1157\t\t\t⣿⣿⣗⠀⠀⠀⢸⣿⣿⣿⡯⠀⠀⠀⠀⠹⢿⣿⣿⣿⣿⣾⣾⣷⣿⣿⣿⣿⡿⠋...\n      JUMPDEST \t\t\t⣿⣿⣗⠀⠀⠀⢸⣿⣿⣿⡯⠀⠀⠀⠀⠹⢿⣿⣿⣿⣿⣾⣾⣷⣿⣿⣿⣿⡿⠋...\n      SWAP1 \t\t\t⠘⣿⣿⣿⣿⣧⠀⠀⢸⣿⣿⣿⣗⠀⠀⠀⢸⣿⣿⣿⡯⠀⠀⠀⠀⠹⢿⣿⣿⣿...\n      POP \t\t\t⠘⣿⣿⣿⣿⣧⠀⠀⢸⣿⣿⣿⣗⠀⠀⠀⢸⣿⣿⣿⡯⠀⠀⠀⠀⠹⢿⣿⣿⣿...\n      SWAP3 \t\t\t\\n    /// @param _members The ...\n      SWAP6 \t\t\t\\n    /// @param _members The ...\n      POP \t\t\t\\n    /// @param _members The ...\n      SWAP3 \t\t\t\\n    /// @param _members The ...\n      SWAP6 \t\t\t\\n    /// @param _members The ...\n      POP \t\t\t\\n    /// @param _members The ...\n      SWAP3 \t\t\t\\n    /// @param _members The ...\n      SWAP6 \t\t\t\\n    /// @param _members The ...\n      JUMP \t\t\t\\n    /// @param _members The ...\n    tag 845\t\t\t⠛⠙⠋⠛⠙⠋⠃⠀⠀⠀⠀⠀⠀⠀⠀⠠⠿⠻⠟⠿⠃⠀⠀⠀⠀⠀⠀⠀⠀⠀...\n      JUMPDEST \t\t\t⠛⠙⠋⠛⠙⠋⠃⠀⠀⠀⠀⠀⠀⠀⠀⠠⠿⠻⠟⠿⠃⠀⠀⠀⠀⠀⠀⠀⠀⠀...\n      PUSH 0\t\t\t⡿⡿⠿\n      DUP2 \t\t\t.gitc\n      MLOAD \t\t\t  allo.gitco\n      DUP1 \t\t\trategy\n      DUP5 \t\t\te I\n      MSTORE \t\t\t/ @title IStrategy \n      PUSH 20\t\t\tor @\n      DUP1 \t\t\tcoin\n      DUP6 \t\t\ta@g\n      ADD \t\t\tditya@gitcoin.\n      SWAP5 \t\t\te-mc <aditya@gitcoin.\n      POP \t\t\te-mc <aditya@gitcoin.\n      PUSH 20\t\t\toden\n      DUP5 \t\t\tco>, \n      ADD \t\t\toin.co>, @codena\n      PUSH 0\t\t\tc\n    tag 1159\t\t\t@0xZakk <zakk@gitcoin.co>, @nf...\n      JUMPDEST \t\t\t@0xZakk <zakk@gitcoin.co>, @nf...\n      DUP4 \t\t\tgitcoi\n      DUP2 \t\t\tk\n      LT \t\t\t<zakk@gitcoin\n      ISZERO \t\t\t@0xZakk <zakk@gitcoin.co>, @nf...\n      PUSH [tag] 1161\t\t\t@0xZakk <zakk@gitcoin.co>, @nf...\n      JUMPI \t\t\t@0xZakk <zakk@gitcoin.co>, @nf...\n      DUP2 \t\t\titcoin.co>, @\n      MLOAD \t\t\titcoin.co>, @\n      DUP1 \t\t\t.co>\\n/// \n      MLOAD \t\t\t.co>\\n/// \n      DUP9 \t\t\tnate@gitcoin.co>\\n/// @\n      MSTORE \t\t\tnate@gitcoin.co>\\n/// @\n      DUP4 \t\t\t that all s\n      ADD \t\t\t that all s\n      MLOAD \t\t\tntract that all st\n      DUP4 \t\t\tis the base \n      DUP9 \t\t\tis the base \n      ADD \t\t\tis the base \n      MSTORE \t\t\trategy is the base contract th...\n      PUSH 40\t\t\tnd u\n      SWAP1 \t\t\tit from and us\n      SWAP7 \t\t\tit from and us\n      ADD \t\t\tit from and us\n      SWAP6 \t\t\tit from and us\n      SWAP1 \t\t\terface IStrateg\n      DUP3 \t\t\terface IStrateg\n      ADD \t\t\terface IStrateg\n      SWAP1 \t\t\terface IStrateg\n      PUSH 1\t\t\tl\n      ADD \t\t\tfrgosseli\n      PUSH [tag] 1159\t\t\t@0xZakk <zakk@gitcoin.co>, @nf...\n      JUMP \t\t\t@0xZakk <zakk@gitcoin.co>, @nf...\n    tag 1161\t\t\t@0xZakk <zakk@gitcoin.co>, @nf...\n      JUMPDEST \t\t\t@0xZakk <zakk@gitcoin.co>, @nf...\n      POP \t\t\t\n      SWAP5 \t\t\t===\n      SWAP6 \t\t\t===\n      SWAP5 \t\t\t⠛⠙⠋⠛⠙⠋⠃⠀⠀⠀⠀⠀⠀⠀⠀⠠⠿⠻⠟⠿⠃⠀⠀⠀⠀⠀⠀⠀⠀⠀...\n      POP \t\t\t\n      POP \t\t\t\n      POP \t\t\t\n      POP \t\t\t\n      POP \t\t\t\n      JUMP \t\t\t⠛⠙⠋⠛⠙⠋⠃⠀⠀⠀⠀⠀⠀⠀⠀⠠⠿⠻⠟⠿⠃⠀⠀⠀⠀⠀⠀⠀⠀⠀...\n    tag 458\t\t\t// ======= Storage ======\\n   ...\n      JUMPDEST \t\t\t// ======= Storage ======\\n   ...\n      PUSH 0\t\t\t===\\n\n      PUSH 1\t\t\to\n      DUP1 \t\t\t/\n      PUSH A0\t\t\t   \n      SHL \t\t\t=\\n\\n    /// \n      SUB \t\t\t=====\\n\\n    /// @not\n      DUP1 \t\t\td.\n      DUP11 \t\t\titiali\n      AND \t\t\ts initialized.\\n\n      DUP4 \t\t\t strategy\n      MSTORE \t\t\ted when strategy is initialize...\n      PUSH E0\t\t\tool\n      PUSH 20\t\t\tth\n      DUP5 \t\t\t The ID o\n      ADD \t\t\tolId The ID of the\n      MSTORE \t\t\taram poolId The ID of the pool...\n      PUSH [tag] 1163\t\t\t data passed to the 'initializ...\n      PUSH E0\t\t\tnt2\n      DUP5 \t\t\ttialized(\n      ADD \t\t\t Initialized(uint25\n      DUP11 \t\t\t   eve\n      PUSH [tag] 845\t\t\t data passed to the 'initializ...\n      JUMP \t\t\t data passed to the 'initializ...\n    tag 1163\t\t\t data passed to the 'initializ...\n      JUMPDEST \t\t\t data passed to the 'initializ...\n      DUP9 \t\t\t a rec\n      PUSH F\t\t\twh\n      SIGNEXTEND \t\t\tce Emitted when a reci\n      PUSH 40\t\t\t@n\n      DUP6 \t\t\t;\\n\\n    //\n      ADD \t\t\tata);\\n\\n    /// @no\n      MSTORE \t\t\tbytes data);\\n\\n    /// @notic...\n      DUP4 \t\t\the ID of \n      DUP2 \t\t\tientId\n      SUB \t\t\tecipientId The ID of t\n      PUSH 60\t\t\tra\n      DUP6 \t\t\t    /// @\n      ADD \t\t\ted.\\n    /// @param\n      MSTORE \t\t\tegistered.\\n    /// @param rec...\n      PUSH [tag] 1164\t\t\t// @param data The data passed...\n      DUP2 \t\t\tpient'\n      DUP10 \t\t\tsterRe\n      PUSH [tag] 845\t\t\t// @param data The data passed...\n      JUMP \t\t\t// @param data The data passed...\n    tag 1164\t\t\t// @param data The data passed...\n      JUMPDEST \t\t\t// @param data The data passed...\n      PUSH FFFFFFFF\t\t\taram sende\n      SWAP8 \t\t\tress indexed re\n      DUP9 \t\t\tress indexed re\n      AND \t\t\tress indexed re\n      PUSH 80\t\t\ted(\n      DUP7 \t\t\t event Registered(a\n      ADD \t\t\t event Registered(a\n      MSTORE \t\t\tder\\n    event Registered(addr...\n      SWAP6 \t\t\t;\\n\\n    /// @not\n      SWAP1 \t\t\t;\\n\\n    /// @not\n      SWAP7 \t\t\t;\\n\\n    /// @not\n      AND \t\t\t;\\n\\n    /// @not\n      PUSH A0\t\t\tend\n      DUP5 \t\t\tdata, address sende\n      ADD \t\t\tdata, address sende\n      MSTORE \t\t\t bytes data, address sender);\\...\n      SWAP3 \t\t\tted to.\\n    ///\n      SWAP1 \t\t\tted to.\\n    ///\n      SWAP3 \t\t\tted to.\\n    ///\n      AND \t\t\tted to.\\n    ///\n      PUSH C0\t\t\tall\n      SWAP1 \t\t\ta recipient is allo\n      SWAP2 \t\t\ta recipient is allo\n      ADD \t\t\ta recipient is allo\n      MSTORE \t\t\td when a recipient is allocate...\n      POP \t\t\t\n      SWAP6 \t\t\tnt\\n    /// @param data The da...\n      SWAP5 \t\t\t// ======= Storage ======\\n   ...\n      POP \t\t\t\n      POP \t\t\t\n      POP \t\t\t\n      POP \t\t\t\n      POP \t\t\t\n      JUMP \t\t\t// ======= Storage ======\\n   ...\n    tag 462\t\t\tpientId The ID of the recipien...\n      JUMPDEST \t\t\tpientId The ID of the recipien...\n      PUSH 0\t\t\tcated\\n\n      PUSH 20\t\t\ten\n      DUP3 \t\t\tcated\\n   \n      DUP5 \t\t\token al\n      SUB \t\t\the token allocated\\n    \n      SLT \t\t\ten The token allocated\\n    ev...\n      ISZERO \t\t\ttoken The token allocated\\n   ...\n      PUSH [tag] 1166\t\t\ttoken The token allocated\\n   ...\n      JUMPI \t\t\ttoken The token allocated\\n   ...\n      PUSH 0\t\t\td\n      DUP1 \t\t\t(\n      REVERT \t\t\tlocated(addr\n    tag 1166\t\t\ttoken The token allocated\\n   ...\n      JUMPDEST \t\t\ttoken The token allocated\\n   ...\n      PUSH [tag] 287\t\t\tId, uint256 amount, address to...\n      DUP3 \t\t\token, add\n      PUSH [tag] 843\t\t\tId, uint256 amount, address to...\n      JUMP \t\t\tId, uint256 amount, address to...\n    tag 467\t\t\td\\n    /// @param sender The s...\n      JUMPDEST \t\t\td\\n    /// @param sender The s...\n      PUSH 0\t\t\tt, add\n      PUSH 20\t\t\tl \n      DUP3 \t\t\tted when \n      DUP5 \t\t\ttice Em\n      SUB \t\t\t @notice Emitted when p\n      SLT \t\t\t /// @notice Emitted when pool...\n      ISZERO \t\t\t    /// @notice Emitted when p...\n      PUSH [tag] 1170\t\t\t    /// @notice Emitted when p...\n      JUMPI \t\t\t    /// @notice Emitted when p...\n      PUSH 0\t\t\tv\n      DUP1 \t\t\tc\n      REVERT \t\t\tet to active\n    tag 1170\t\t\t    /// @notice Emitted when p...\n      JUMPDEST \t\t\t    /// @notice Emitted when p...\n      DUP2 \t\t\tThe statu\n      MLOAD \t\t\tctive The status\n      PUSH 1\t\t\t\n      PUSH 1\t\t\t\n      PUSH 40\t\t\t\n      SHL \t\t\t\n      SUB \t\t\t\n      DUP2 \t\t\t  even\n      GT \t\t\t\\n    event PoolActive(bool ac...\n      ISZERO \t\t\tool\\n    event PoolActive(bool...\n      PUSH [tag] 1171\t\t\tool\\n    event PoolActive(bool...\n      JUMPI \t\t\tool\\n    event PoolActive(bool...\n      PUSH 0\t\t\t/\n      DUP1 \t\t\t \n      REVERT \t\t\t);\\n\\n    /// \n    tag 1171\t\t\tool\\n    event PoolActive(bool...\n      JUMPDEST \t\t\tool\\n    event PoolActive(bool...\n      DUP3 \t\t\t=\\n    /// ======= View\n      ADD \t\t\t=\\n    /// ======= View\n      PUSH 1F\t\t\t====\n      DUP2 \t\t\t=============\n      ADD \t\t\t=============\n      DUP5 \t\t\t======================\\n\\n   \n      SGT \t\t\t\n      PUSH [tag] 1172\t\t\t=\\n    /// ===================...\n      JUMPI \t\t\t=\\n    /// ===================...\n      PUSH 0\t\t\te\n      DUP1 \t\t\te\n      REVERT \t\t\t @notice Get\n    tag 1172\t\t\t=\\n    /// ===================...\n      JUMPDEST \t\t\t=\\n    /// ===================...\n      PUSH [tag] 701\t\t\tf the Allo contract.\\n    /// ...\n      DUP5 \t\t\tns (IAl\n      DUP3 \t\t\tre\n      MLOAD \t\t\t view ret\n      PUSH 20\t\t\ter\n      DUP5 \t\t\t e\n      ADD \t\t\tlo() extern\n      PUSH [tag] 841\t\t\tf the Allo contract.\\n    /// ...\n      JUMP \t\t\tf the Allo contract.\\n    /// ...\n    tag 481\t\t\t/ @notice Getter for the 'pool...\n      JUMPDEST \t\t\t/ @notice Getter for the 'pool...\n      PUSH 0\t\t\tn The \n      PUSH 20\t\t\tl \n      DUP3 \t\t\tId() exte\n      DUP5 \t\t\tn getPo\n      SUB \t\t\tction getPoolId() exter\n      SLT \t\t\t function getPoolId() external...\n      ISZERO \t\t\t    function getPoolId() exter...\n      PUSH [tag] 1175\t\t\t    function getPoolId() exter...\n      JUMPI \t\t\t    function getPoolId() exter...\n      PUSH 0\t\t\tu\n      DUP1 \t\t\ts\n      REVERT \t\t\t returns (ui\n    tag 1175\t\t\t    function getPoolId() exter...\n      JUMPDEST \t\t\t    function getPoolId() exter...\n      PUSH [tag] 287\t\t\tice Getter for the 'id' of the...\n      DUP3 \t\t\tthe strat\n      PUSH [tag] 837\t\t\tice Getter for the 'id' of the...\n      JUMP \t\t\tice Getter for the 'id' of the...\n    tag 497\t\t\t @return The ID of the strateg...\n      JUMPDEST \t\t\t @return The ID of the strateg...\n      PUSH 0\t\t\tllocat\n      DUP1 \t\t\t is va\n      PUSH 0\t\t\td or n\n      PUSH 60\t\t\t /\n      DUP5 \t\t\trategies\\n\n      DUP7 \t\t\tor all \n      SUB \t\t\tue for all strategies\\n \n      SLT \t\t\te true for all strategies\\n   ...\n      ISZERO \t\t\ty be true for all strategies\\n...\n      PUSH [tag] 1178\t\t\ty be true for all strategies\\n...\n      JUMPI \t\t\ty be true for all strategies\\n...\n      PUSH 0\t\t\tl\n      DUP1 \t\t\t \n      REVERT \t\t\t    and will\n    tag 1178\t\t\ty be true for all strategies\\n...\n      JUMPDEST \t\t\ty be true for all strategies\\n...\n      DUP4 \t\t\tentation.\n      MLOAD \t\t\timplementation.\\n\n      PUSH [tag] 1179\t\t\tparam _allocator The allocator...\n      DUP2 \t\t\tcator\n      PUSH [tag] 813\t\t\tparam _allocator The allocator...\n      JUMP \t\t\tparam _allocator The allocator...\n    tag 1179\t\t\tparam _allocator The allocator...\n      JUMPDEST \t\t\tparam _allocator The allocator...\n      PUSH 20\t\t\tnc\n      DUP6 \t\t\td or not\\n    funct\n      ADD \t\t\td or not\\n    funct\n      MLOAD \t\t\ts valid or not\\n    functi\n      SWAP1 \t\t\teturn\n      SWAP4 \t\t\teturn\n      POP \t\t\t\n      PUSH [tag] 1180\t\t\tdAllocator(address _allocator)...\n      DUP2 \t\t\ts valid or not\\n    functi\n      PUSH [tag] 813\t\t\tdAllocator(address _allocator)...\n      JUMP \t\t\tdAllocator(address _allocator)...\n    tag 1180\t\t\tdAllocator(address _allocator)...\n      JUMPDEST \t\t\tdAllocator(address _allocator)...\n      PUSH 40\t\t\t  \n      DUP6 \t\t\tol is active.\\n    \n      ADD \t\t\tol is active.\\n    \n      MLOAD \t\t\ther pool is active.\\n    /\n      SWAP1 \t\t\t (bool)\n      SWAP3 \t\t\t (bool)\n      POP \t\t\t\n      PUSH 1\t\t\t\n      PUSH 1\t\t\t\n      PUSH 40\t\t\t\n      SHL \t\t\t\n      SUB \t\t\t\n      DUP2 \t\t\thether the pool is active or n\n      GT \t\t\thether the pool is active or n\n      ISZERO \t\t\tn Whether the pool is active o...\n      PUSH [tag] 1181\t\t\tn Whether the pool is active o...\n      JUMPI \t\t\tn Whether the pool is active o...\n      PUSH 0\t\t\to\n      DUP1 \t\t\tc\n      REVERT \t\t\t    function\n    tag 1181\t\t\tn Whether the pool is active o...\n      JUMPDEST \t\t\tn Whether the pool is active o...\n      PUSH [tag] 1182\t\t\tnal returns (bool);\\n\\n    ///...\n      DUP7 \t\t\tns in t\n      DUP3 \t\t\tt of t\n      DUP8 \t\t\ts the amo\n      ADD \t\t\thecks the amount of to\n      PUSH [tag] 832\t\t\tnal returns (bool);\\n\\n    ///...\n      JUMP \t\t\tnal returns (bool);\\n\\n    ///...\n    tag 1182\t\t\tnal returns (bool);\\n\\n    ///...\n      JUMPDEST \t\t\tnal returns (bool);\\n\\n    ///...\n      SWAP2 \t\t\tve() external returns (bool);\\...\n      POP \t\t\tve() external returns (bool);\\...\n      POP \t\t\tve() external returns (bool);\\...\n      SWAP3 \t\t\t @return The ID of the strateg...\n      POP \t\t\t @return The ID of the strateg...\n      SWAP3 \t\t\t @return The ID of the strateg...\n      POP \t\t\t @return The ID of the strateg...\n      SWAP3 \t\t\t @return The ID of the strateg...\n      JUMP \t\t\t @return The ID of the strateg...\n    tag 527\t\t\t /// @return The balance of th...\n      JUMPDEST \t\t\t /// @return The balance of th...\n      PUSH 40\t\t\the\n      DUP2 \t\t\tm _amount\n      MSTORE \t\t\t/ @param _amount The \n      PUSH 0\t\t\tof t\n      PUSH [tag] 1184\t\t\te the pool by\\n    function in...\n      PUSH 40\t\t\tou\n      DUP4 \t\t\treasePool\n      ADD \t\t\t increasePoolAmoun\n      DUP6 \t\t\tfuncti\n      PUSH [tag] 827\t\t\te the pool by\\n    function in...\n      JUMP \t\t\te the pool by\\n    function in...\n    tag 1184\t\t\te the pool by\\n    function in...\n      JUMPDEST \t\t\te the pool by\\n    function in...\n      SWAP1 \t\t\t increase the pool by\\n    fun...\n      POP \t\t\t increase the pool by\\n    fun...\n      DUP3 \t\t\t @noti\n      PUSH 20\t\t\t  \n      DUP4 \t\t\tternal;\\n\\n\n      ADD \t\t\t) external;\\n\\n    /\n      MSTORE \t\t\t_amount) external;\\n\\n    /// ...\n      SWAP4 \t\t\t /// @return The balance of th...\n      SWAP3 \t\t\t /// @return The balance of th...\n      POP \t\t\t /// @return The balance of th...\n      POP \t\t\t /// @return The balance of th...\n      POP \t\t\t /// @return The balance of th...\n      JUMP \t\t\t /// @return The balance of th...\n    tag 529\t\t\te status of a recipient probab...\n      JUMPDEST \t\t\te status of a recipient probab...\n      PUSH 40\t\t\ten\n      DUP2 \t\t\tool, and \n      MSTORE \t\t\trs to bool, and then \n      PUSH 0\t\t\tatio\n      PUSH [tag] 1186\t\t\tfor those\\n    ///      since ...\n      PUSH 40\t\t\tne\n      DUP4 \t\t\there is n\n      ADD \t\t\tce there is no nee\n      DUP6 \t\t\t     s\n      PUSH [tag] 827\t\t\tfor those\\n    ///      since ...\n      JUMP \t\t\tfor those\\n    ///      since ...\n    tag 1186\t\t\tfor those\\n    ///      since ...\n      JUMPDEST \t\t\tfor those\\n    ///      since ...\n      SWAP1 \t\t\tccepted for those\\n    ///    ...\n      POP \t\t\tccepted for those\\n    ///    ...\n      PUSH 1\t\t\th\n      DUP1 \t\t\to\n      PUSH A0\t\t\te I\n      SHL \t\t\td The ID of\n      SUB \t\t\tentId The ID of the\n      DUP4 \t\t\t _reci\n      AND \t\t\taram _recipientId The ID of th...\n      PUSH 20\t\t\t//\n      DUP4 \t\t\tcted.\\n   \n      ADD \t\t\tRejected.\\n    /// \n      MSTORE \t\t\ting or Rejected.\\n    /// @par...\n      SWAP4 \t\t\te status of a recipient probab...\n      SWAP3 \t\t\te status of a recipient probab...\n      POP \t\t\te status of a recipient probab...\n      POP \t\t\te status of a recipient probab...\n      POP \t\t\te status of a recipient probab...\n      JUMP \t\t\te status of a recipient probab...\n    tag 531\t\t\t  /// @return The status of th...\n      JUMPDEST \t\t\t  /// @return The status of th...\n      PUSH 0\t\t\tnt\\n\n      PUSH 1\t\t\tcipientStatus(add\n      DUP3 \t\t\tcipientStatus(add\n      ADD \t\t\tcipientStatus(add\n      PUSH [tag] 1189\t\t\ttRecipientStatus(address _reci...\n      JUMPI \t\t\ttRecipientStatus(address _reci...\n      PUSH [tag] 1189\t\t\ts _recipientId) ex\n      PUSH [tag] 829\t\t\ts _recipientId) ex\n      JUMP \t\t\ts _recipientId) ex\n    tag 1189\t\t\ts _recipientId) ex\n      JUMPDEST \t\t\ts _recipientId) ex\n      POP \t\t\t\n      PUSH 1\t\t\t\\n\n      ADD \t\t\ts (Status);\\n\\n\n      SWAP1 \t\t\ts (Status);\\n\\n\n      JUMP \t\t\t  /// @return The status of th...\n    tag 548\t\t\ttice Checks the amount allocat...\n      JUMPDEST \t\t\ttice Checks the amount allocat...\n      PUSH 60\t\t\t T\n      DUP2 \t\t\t   ///   \n      MSTORE \t\t\teive.\\n    ///      Th\n      PUSH 0\t\t\tthe \n      PUSH [tag] 1191\t\t\t will be determined by the str...\n      PUSH 60\t\t\twi\n      DUP4 \t\t\tategy, an\n      ADD \t\t\t strategy, and wil\n      DUP7 \t\t\td by t\n      PUSH [tag] 827\t\t\t will be determined by the str...\n      JUMP \t\t\t will be determined by the str...\n    tag 1191\t\t\t will be determined by the str...\n      JUMPDEST \t\t\t will be determined by the str...\n      PUSH 1\t\t\t\n      PUSH 1\t\t\t\n      PUSH A0\t\t\t\n      SHL \t\t\t\n      SUB \t\t\t\n      SWAP5 \t\t\t  /// @param _recipientIds The...\n      SWAP1 \t\t\t  /// @param _recipientIds The...\n      SWAP5 \t\t\t  /// @param _recipientIds The...\n      AND \t\t\t  /// @param _recipientIds The...\n      PUSH 20\t\t\tt.\n      DUP4 \t\t\trmine the payout.\\n\n      ADD \t\t\trmine the payout.\\n\n      MSTORE \t\t\tto determine the payout.\\n    ...\n      POP \t\t\t\n      PUSH FF\t\t\toded\n      SWAP2 \t\t\tdata The encoded \n      SWAP1 \t\t\tdata The encoded \n      SWAP2 \t\t\tdata The encoded \n      AND \t\t\tdata The encoded \n      PUSH 40\t\t\tra\n      SWAP1 \t\t\tnts\\n    /// @param\n      SWAP2 \t\t\tnts\\n    /// @param\n      ADD \t\t\tnts\\n    /// @param\n      MSTORE \t\t\trecipients\\n    /// @param _da...\n      SWAP2 \t\t\t '_data' will be determined by...\n      SWAP1 \t\t\ttice Checks the amount allocat...\n      POP \t\t\t\n      JUMP \t\t\ttice Checks the amount allocat...\n    tag 563\t\t\tction getPayouts(address[] mem...\n      JUMPDEST \t\t\tction getPayouts(address[] mem...\n      PUSH 0\t\t\ti\n      DUP3 \t\t\ta\n      PUSH [tag] 1194\t\t\t memory _data)\\n        extern...\n      JUMPI \t\t\t memory _data)\\n        extern...\n      PUSH [tag] 1194\t\t\t        external\\n \n      PUSH [tag] 836\t\t\t        external\\n \n      JUMP \t\t\t        external\\n \n    tag 1194\t\t\t        external\\n \n      JUMPDEST \t\t\t        external\\n \n      POP \t\t\t\n      DIV \t\t\t    retur\n      SWAP1 \t\t\t    retur\n      JUMP \t\t\tction getPayouts(address[] mem...\n    tag 565\t\t\tummary[] memory);\\n\\n    /// =...\n      JUMPDEST \t\t\tummary[] memory);\\n\\n    /// =...\n      PUSH 0\t\t\t=\n      DUP3 \t\t\t=\n      PUSH [tag] 1197\t\t\t=\\n    /// ===== Functions ===...\n      JUMPI \t\t\t=\\n    /// ===== Functions ===...\n      PUSH [tag] 1197\t\t\t Functions ======\\n\n      PUSH [tag] 836\t\t\t Functions ======\\n\n      JUMP \t\t\t Functions ======\\n\n    tag 1197\t\t\t Functions ======\\n\n      JUMPDEST \t\t\t Functions ======\\n\n      POP \t\t\t\n      MOD \t\t\t=========\n      SWAP1 \t\t\t=========\n      JUMP \t\t\tummary[] memory);\\n\\n    /// =...\n    tag 581\t\t\t/// @notice\\n    /// @dev The ...\n      JUMPDEST \t\t\t/// @notice\\n    /// @dev The ...\n      PUSH 0\t\t\t to us\n      PUSH 20\t\t\tit\n      DUP3 \t\t\t//      u\n      DUP5 \t\t\tit,\\n   \n      SUB \t\t\tite it,\\n    ///      us\n      SLT \t\t\terwrite it,\\n    ///      use ...\n      ISZERO \t\t\t overwrite it,\\n    ///      u...\n      PUSH [tag] 1199\t\t\t overwrite it,\\n    ///      u...\n      JUMPI \t\t\t overwrite it,\\n    ///      u...\n      PUSH 0\t\t\tl\n      DUP1 \t\t\tc\n      REVERT \t\t\td then call \n    tag 1199\t\t\t overwrite it,\\n    ///      u...\n      JUMPDEST \t\t\t overwrite it,\\n    ///      u...\n      DUP2 \t\t\tram _pool\n      MLOAD \t\t\t// @param _poolI\n      PUSH 1\t\t\t\n      PUSH 1\t\t\t\n      PUSH 40\t\t\t\n      SHL \t\t\t\n      SUB \t\t\t\n      DUP2 \t\t\t pool\\n\n      GT \t\t\tthe pool\\n    /// @param _data...\n      ISZERO \t\t\tof the pool\\n    /// @param _d...\n      PUSH [tag] 1200\t\t\tof the pool\\n    /// @param _d...\n      JUMPI \t\t\tof the pool\\n    /// @param _d...\n      PUSH 0\t\t\ta\n      DUP1 \t\t\td\n      REVERT \t\t\t encoded dat\n    tag 1200\t\t\tof the pool\\n    /// @param _d...\n      JUMPDEST \t\t\tof the pool\\n    /// @param _d...\n      PUSH [tag] 701\t\t\tlize(uint256 _poolId, bytes me...\n      DUP5 \t\t\ts will \n      DUP3 \t\t\totice \n      DUP6 \t\t\t\\n    /// \n      ADD \t\t\tal;\\n\\n    /// @notice T\n      PUSH [tag] 840\t\t\tlize(uint256 _poolId, bytes me...\n      JUMP \t\t\tlize(uint256 _poolId, bytes me...\n    tag 628\t\t\ter The address of the sender\\n...\n      JUMPDEST \t\t\ter The address of the sender\\n...\n      PUSH 0\t\t\tress _\n      PUSH 20\t\t\tre\n      DUP1 \t\t\tll\n      DUP4 \t\t\ttice This\n      DUP6 \t\t\t  /// @\n      SUB \t\t\t\\n\\n    /// @notice This \n      SLT \t\t\tss);\\n\\n    /// @notice This w...\n      ISZERO \t\t\tdress);\\n\\n    /// @notice Thi...\n      PUSH [tag] 1207\t\t\tdress);\\n\\n    /// @notice Thi...\n      JUMPI \t\t\tdress);\\n\\n    /// @notice Thi...\n      PUSH 0\t\t\t \n      DUP1 \t\t\to\n      REVERT \t\t\tocate to a r\n    tag 1207\t\t\tdress);\\n\\n    /// @notice Thi...\n      JUMPDEST \t\t\tdress);\\n\\n    /// @notice Thi...\n      DUP3 \t\t\tded '_dat\n      MLOAD \t\t\te encoded '_data\n      PUSH 1\t\t\t\n      PUSH 1\t\t\t\n      PUSH 40\t\t\t\n      SHL \t\t\t\n      SUB \t\t\t\n      DUP2 \t\t\tmined \n      GT \t\t\ttermined by the strategy imple\n      ISZERO \t\t\t determined by the strategy im...\n      PUSH [tag] 1208\t\t\t determined by the strategy im...\n      JUMPI \t\t\t determined by the strategy im...\n      PUSH 0\t\t\t \n      DUP1 \t\t\t\\n\n      REVERT \t\t\ttation.\\n    \n    tag 1208\t\t\t determined by the strategy im...\n      JUMPDEST \t\t\t determined by the strategy im...\n      DUP4 \t\t\tdata to use to allocat\n      ADD \t\t\tdata to use to allocat\n      PUSH 1F\t\t\tam _\n      DUP2 \t\t\t/// @param _s\n      ADD \t\t\t/// @param _s\n      DUP6 \t\t\t    /// @param _sender The \n      SGT \t\t\t\n      PUSH [tag] 1209\t\t\trecipient\\n    /// @param _sen...\n      JUMPI \t\t\trecipient\\n    /// @param _sen...\n      PUSH 0\t\t\t \n      DUP1 \t\t\tt\n      REVERT \t\t\tess of the s\n    tag 1209\t\t\trecipient\\n    /// @param _sen...\n      JUMPDEST \t\t\trecipient\\n    /// @param _sen...\n      DUP1 \t\t\t(b\n      MLOAD \t\t\tlocate(by\n      PUSH [tag] 1210\t\t\tdress _sender) external payabl...\n      PUSH [tag] 878\t\t\txternal payable;\\n\\n    /// @n...\n      DUP3 \t\t\til\n      PUSH [tag] 820\t\t\txternal payable;\\n\\n    /// @n...\n      JUMP \t\t\txternal payable;\\n\\n    /// @n...\n    tag 1210\t\t\tdress _sender) external payabl...\n      JUMPDEST \t\t\tdress _sender) external payabl...\n      DUP2 \t\t\tients.\\n    /// \n      DUP2 \t\t\tients.\\n    /// \n      MSTORE \t\t\tients.\\n    /// \n      PUSH 60\t\t\tper \n      SWAP2 \t\t\tay the differ\n      DUP3 \t\t\tay the differ\n      MUL \t\t\tay the differ\n      DUP4 \t\t\tt, and pay the differe\n      ADD \t\t\tt, and pay the differe\n      DUP5 \t\t\tmount, and pay the difference\\...\n      ADD \t\t\tmount, and pay the difference\\...\n      SWAP2 \t\t\tmount, and pay the difference\\...\n      DUP5 \t\t\tgies will tr\n      DUP3 \t\t\tgies will tr\n      ADD \t\t\tgies will tr\n      SWAP2 \t\t\tgies will tr\n      SWAP1 \t\t\tns)\n      DUP9 \t\t\tcontract will need \n      DUP5 \t\t\tcontract will need \n      GT \t\t\tcontract will need \n      ISZERO \t\t\tis contract will need to track...\n      PUSH [tag] 1212\t\t\tis contract will need to track...\n      JUMPI \t\t\tis contract will need to track...\n      PUSH 0\t\t\ta\n      DUP1 \t\t\th\n      REVERT \t\t\ttrack the am\n    tag 1212\t\t\tis contract will need to track...\n      JUMPDEST \t\t\tis contract will need to track...\n      SWAP4 \t\t\tthat it doe\n      DUP6 \t\t\tthat it doe\n      ADD \t\t\tthat it doe\n      SWAP4 \t\t\tthat it doe\n    tag 1213\t\t\tle pay.\\n    function distribu...\n      JUMPDEST \t\t\tle pay.\\n    function distribu...\n      DUP4 \t\t\ttion d\n      DUP6 \t\t\t fu\n      LT \t\t\t    function di\n      ISZERO \t\t\tle pay.\\n    function distribu...\n      PUSH [tag] 1215\t\t\tle pay.\\n    function distribu...\n      JUMPI \t\t\tle pay.\\n    function distribu...\n      DUP1 \t\t\tde\n      DUP6 \t\t\ts _\n      DUP11 \t\t\ta, addr\n      SUB \t\t\t_data, address _s\n      SLT \t\t\tory _data, address _sender\n      ISZERO \t\t\tmemory _data, address _sender)...\n      PUSH [tag] 1216\t\t\tmemory _data, address _sender)...\n      JUMPI \t\t\tmemory _data, address _sender)...\n      PUSH 0\t\t\t\\n\n      DUP1 \t\t\t;\n      REVERT \t\t\txternal;\\n}\\n\\n\n    tag 1216\t\t\tmemory _data, address _sender)...\n      JUMPDEST \t\t\tmemory _data, address _sender)...\n      PUSH [tag] 1217\t\t\t⠀⠀⠀⠀⠀⠀⠀⠀⠀⠀⠀⠀⠀⠀⢀⣾⣿⣷⡀⠀⠀⠀\n      PUSH [tag] 818\t\t\t⠀⠀⠀⠀⠀⠀⠀⠀⠀⠀⠀⠀⠀⠀⢀⣾⣿⣷⡀⠀⠀⠀\n      JUMP \t\t\t⠀⠀⠀⠀⠀⠀⠀⠀⠀⠀⠀⠀⠀⠀⢀⣾⣿⣷⡀⠀⠀⠀\n    tag 1217\t\t\t⠀⠀⠀⠀⠀⠀⠀⠀⠀⠀⠀⠀⠀⠀⢀⣾⣿⣷⡀⠀⠀⠀\n      JUMPDEST \t\t\t⠀⠀⠀⠀⠀⠀⠀⠀⠀⠀⠀⠀⠀⠀⢀⣾⣿⣷⡀⠀⠀⠀\n      DUP6 \t\t\t⠀⠀⠀\n      MLOAD \t\t\t⣄⠀⠀⠀⠀⠀⠀⠀⠀⠀\n      PUSH [tag] 1218\t\t\t⣿⡯⠀⠀⠀⠀⠀⠀⠀⠀⠀⠀⠀⠀⠀⠀⠀⠀⠀⠀⠀⠀⠀⠀⠀\\n// ...\n      DUP2 \t\t\t\\n// ⠀⠀⠀\n      PUSH [tag] 813\t\t\t⣿⡯⠀⠀⠀⠀⠀⠀⠀⠀⠀⠀⠀⠀⠀⠀⠀⠀⠀⠀⠀⠀⠀⠀⠀\\n// ...\n      JUMP \t\t\t⣿⡯⠀⠀⠀⠀⠀⠀⠀⠀⠀⠀⠀⠀⠀⠀⠀⠀⠀⠀⠀⠀⠀⠀⠀\\n// ...\n    tag 1218\t\t\t⣿⡯⠀⠀⠀⠀⠀⠀⠀⠀⠀⠀⠀⠀⠀⠀⠀⠀⠀⠀⠀⠀⠀⠀⠀\\n// ...\n      JUMPDEST \t\t\t⣿⡯⠀⠀⠀⠀⠀⠀⠀⠀⠀⠀⠀⠀⠀⠀⠀⠀⠀⠀⠀⠀⠀⠀⠀\\n// ...\n      DUP2 \t\t\t⣿⣿⣿⣷⡀⠀⠀⠀⠀⠀⠀⠀⠀⠀⠀⠀⠀⠀⠀⠀⠀⠀\n      MSTORE \t\t\t⣿⣿⣿⣷⡀⠀⠀⠀⠀⠀⠀⠀⠀⠀⠀⠀⠀⠀⠀⠀⠀⠀\n      DUP6 \t\t\t⠀⠀⠀⠀⠀⠀⠀⠀⠀⠀⠀⠀\n      DUP8 \t\t\t⠀⠀⠀⠀⠀⠀⠀⠀⠀⠀⠀⠀\n      ADD \t\t\t⠀⠀⠀⠀⠀⠀⠀⠀⠀⠀⠀⠀\n      MLOAD \t\t\t⣿⡯⠀⠀⠀⠀⠀⠀⠀⠀⠀⠀⠀⠀⠀⠀⠀⠀⠀\n      DUP8 \t\t\t⠀⠀⠀⠀⠀⢸⣿⣿⣿⣗⠀⠀⠀⢸\n      DUP3 \t\t\t⠀⠀⠀⠀⠀⢸⣿⣿⣿⣗⠀⠀⠀⢸\n      ADD \t\t\t⠀⠀⠀⠀⠀⢸⣿⣿⣿⣗⠀⠀⠀⢸\n      MSTORE \t\t\t⣿⡄⠀⠀⠀⠀⠀⠀⠀⠀⠀⠀⢸⣿⣿⣿⣗⠀⠀⠀⢸⣿⣿⣿⡯⠀⠀⠀⠀⠀...\n      PUSH 40\t\t\t⠀⢸\n      DUP1 \t\t\t⢿⣿⣿⣿⡀⠀⠀⠀⠀⠀⠀⠀\n      DUP8 \t\t\t⢿⣿⣿⣿⡀⠀⠀⠀⠀⠀⠀⠀\n      ADD \t\t\t⢿⣿⣿⣿⡀⠀⠀⠀⠀⠀⠀⠀\n      MLOAD \t\t\t⠀⠀⣸⣿⣿⣿⢿⣿⣿⣿⡀⠀⠀⠀⠀⠀⠀⠀⠀\n      PUSH [tag] 1219\t\t\t⡯⠀⠀⠀⠀⠀⠀⠀⠀⠀⠀⠀⠀⠀⠀⠀⠀⠀⠀⠀⠀⠀⠀⠀\\n// ⠀...\n      DUP2 \t\t\t⠀⠀⣸⣿⣿⣿⢿⣿⣿⣿⡀⠀⠀⠀⠀⠀⠀⠀⠀\n      PUSH [tag] 813\t\t\t⡯⠀⠀⠀⠀⠀⠀⠀⠀⠀⠀⠀⠀⠀⠀⠀⠀⠀⠀⠀⠀⠀⠀⠀\\n// ⠀...\n      JUMP \t\t\t⡯⠀⠀⠀⠀⠀⠀⠀⠀⠀⠀⠀⠀⠀⠀⠀⠀⠀⠀⠀⠀⠀⠀⠀\\n// ⠀...\n    tag 1219\t\t\t⡯⠀⠀⠀⠀⠀⠀⠀⠀⠀⠀⠀⠀⠀⠀⠀⠀⠀⠀⠀⠀⠀⠀⠀\\n// ⠀...\n      JUMPDEST \t\t\t⡯⠀⠀⠀⠀⠀⠀⠀⠀⠀⠀⠀⠀⠀⠀⠀⠀⠀⠀⠀⠀⠀⠀⠀\\n// ⠀...\n      SWAP1 \t\t\t⠀⠀⠀⠀⠀⠀⠀⠀⠀⠀⠀⠀⠀⠀\n      DUP3 \t\t\t⠀⠀⠀⠀⠀⠀⠀⠀⠀⠀⠀⠀⠀⠀\n      ADD \t\t\t⠀⠀⠀⠀⠀⠀⠀⠀⠀⠀⠀⠀⠀⠀\n      MSTORE \t\t\t⣿⣿⣿⣿⣿⣄⠀⠀⠀⠀⠀⠀⠀⠀⠀⠀⠀⠀⠀⠀⠀⠀⠀⠀⠀⠀⠀⣰⣿⣿...\n      DUP4 \t\t\t⠀⠀⢸⣿⣿⣿⣗⠀⠀⠀⢸⣿⣿⣿⡯⠀⠀⠀\n      MSTORE \t\t\t⠀⠀⢸⣿⣿⣿⣗⠀⠀⠀⢸⣿⣿⣿⡯⠀⠀⠀\n      SWAP4 \t\t\tddress[] mem\n      DUP5 \t\t\tddress[] mem\n      ADD \t\t\tddress[] mem\n      SWAP4 \t\t\tddress[] mem\n      SWAP2 \t\t\t\\n// ⠀⠀⠀⠀⠀⠀⠀⠀\n      DUP6 \t\t\t\\n// ⠀⠀⠀⠀⠀⠀⠀⠀\n      ADD \t\t\t\\n// ⠀⠀⠀⠀⠀⠀⠀⠀\n      SWAP2 \t\t\t\\n// ⠀⠀⠀⠀⠀⠀⠀⠀\n      PUSH [tag] 1213\t\t\tle pay.\\n    function distribu...\n      JUMP \t\t\tle pay.\\n    function distribu...\n    tag 1215\t\t\tle pay.\\n    function distribu...\n      JUMPDEST \t\t\tle pay.\\n    function distribu...\n      POP \t\t\t\n      SWAP8 \t\t\t⠀⠀⠀⠀⠀\n      SWAP7 \t\t\ter The address of the sender\\n...\n      POP \t\t\t\n      POP \t\t\t\n      POP \t\t\t\n      POP \t\t\t\n      POP \t\t\t\n      POP \t\t\t\n      POP \t\t\t\n      JUMP \t\t\ter The address of the sender\\n...\n    tag 637\t\t\t⣿⣿⣧⠀⠀⠀⠀⠀⠀⠀⠀⢸⣿⣿⣿⣗⠀⠀⠀⢸⣿⣿⣿⡯⠀⠀⠀⠀⠀⠀...\n      JUMPDEST \t\t\t⣿⣿⣧⠀⠀⠀⠀⠀⠀⠀⠀⢸⣿⣿⣿⣗⠀⠀⠀⢸⣿⣿⣿⡯⠀⠀⠀⠀⠀⠀...\n      PUSH 0\t\t\t⣦⣦⣀\n      PUSH FF\t\t\t⠀⠀⠀⠀\n      DUP3 \t\t\t⣿⣿⠀⠀⠀\n      AND \t\t\t⣿⣿⣿⣿⣿⣿⠀⠀⠀⠀⠀⠀⠀⠀⠀⠀\n      PUSH FF\t\t\t⠀⠀⠀⠀\n      DUP2 \t\t\t⠀⠀⢻⣿⣿⣿⣧\n      SUB \t\t\t⣿⠁⠀⠀⠀⢻⣿⣿⣿⣧⠀⠀⠀⠀⠀⠀⠀\n      PUSH [tag] 1222\t\t\t⣿⣿⣿⣿⠁⠀⠀⠀⢻⣿⣿⣿⣧⠀⠀⠀⠀⠀⠀⠀⢸⣿⣿⣿⣗⠀⠀⠀⢸⣿...\n      JUMPI \t\t\t⣿⣿⣿⣿⠁⠀⠀⠀⢻⣿⣿⣿⣧⠀⠀⠀⠀⠀⠀⠀⢸⣿⣿⣿⣗⠀⠀⠀⢸⣿...\n      PUSH [tag] 1222\t\t\t⣿⣗⠀⠀⠀⢸⣿⣿⣿⡯⠀⠀⠀⠀⣠⣾⣿⣿\n      PUSH [tag] 829\t\t\t⣿⣗⠀⠀⠀⢸⣿⣿⣿⡯⠀⠀⠀⠀⣠⣾⣿⣿\n      JUMP \t\t\t⣿⣗⠀⠀⠀⢸⣿⣿⣿⡯⠀⠀⠀⠀⣠⣾⣿⣿\n    tag 1222\t\t\t⣿⣗⠀⠀⠀⢸⣿⣿⣿⡯⠀⠀⠀⠀⣠⣾⣿⣿\n      JUMPDEST \t\t\t⣿⣗⠀⠀⠀⢸⣿⣿⣿⡯⠀⠀⠀⠀⣠⣾⣿⣿\n      PUSH 1\t\t\t⣿\n      ADD \t\t\t ⠀⠀⠀⠀⠀⢀⣾⣿⣿⣿⣿⣿⣿⡿\n      SWAP3 \t\t\t ⠀⠀⠀⠀⠀⢀⣾⣿⣿⣿⣿⣿⣿⡿\n      SWAP2 \t\t\t⣿⣿⣧⠀⠀⠀⠀⠀⠀⠀⠀⢸⣿⣿⣿⣗⠀⠀⠀⢸⣿⣿⣿⡯⠀⠀⠀⠀⠀⠀...\n      POP \t\t\t\n      POP \t\t\t\n      JUMP \t\t\t⣿⣿⣧⠀⠀⠀⠀⠀⠀⠀⠀⢸⣿⣿⣿⣗⠀⠀⠀⢸⣿⣿⣿⡯⠀⠀⠀⠀⠀⠀...\n    tag 668\t\t\t⠀⠀⠀⠀⠀⠀⠀⠀⠀⠀⠀⠀⠀⠀⠀⠀⠀⢀⣾⣿⣿⣿⠃⠀⠀⠀⠀⠈⢿⣿...\n      JUMPDEST \t\t\t⠀⠀⠀⠀⠀⠀⠀⠀⠀⠀⠀⠀⠀⠀⠀⠀⠀⢀⣾⣿⣿⣿⠃⠀⠀⠀⠀⠈⢿⣿...\n      PUSH 0\t\t\t⣿⣆⠀⠀⠀\\n\n      PUSH 20\t\t\t⣿⣿\n      DUP3 \t\t\t⠀⠀⠀⠀⠀⠀⠀⠀⠀\n      DUP5 \t\t\t⣿⠃⠀⠀⠀⠀⠀\n      SUB \t\t\t⠈⢿⣿⣿⣿⠃⠀⠀⠀⠀⠀⠀⠀⠀⠀⠀⠀⠀⠀⠀⠀⠀⠀\n      SLT \t\t\t⠀⠀⠀⠀⠈⢿⣿⣿⣿⠃⠀⠀⠀⠀⠀⠀⠀⠀⠀⠀⠀⠀⠀⠀⠀⠀⠀⣾⣿⣿...\n      ISZERO \t\t\t⡿⠀⠀⠀⠀⠀⠀⠈⢿⣿⣿⣿⠃⠀⠀⠀⠀⠀⠀⠀⠀⠀⠀⠀⠀⠀⠀⠀⠀⠀...\n      PUSH [tag] 1224\t\t\t⡿⠀⠀⠀⠀⠀⠀⠈⢿⣿⣿⣿⠃⠀⠀⠀⠀⠀⠀⠀⠀⠀⠀⠀⠀⠀⠀⠀⠀⠀...\n      JUMPI \t\t\t⡿⠀⠀⠀⠀⠀⠀⠈⢿⣿⣿⣿⠃⠀⠀⠀⠀⠀⠀⠀⠀⠀⠀⠀⠀⠀⠀⠀⠀⠀...\n      PUSH 0\t\t\t⠀\n      DUP1 \t\t\t⣿\n      REVERT \t\t\t⠀⠀⠀⠘⣿⣿⣿⣿⡄⠀⠀⠀\n    tag 1224\t\t\t⡿⠀⠀⠀⠀⠀⠀⠈⢿⣿⣿⣿⠃⠀⠀⠀⠀⠀⠀⠀⠀⠀⠀⠀⠀⠀⠀⠀⠀⠀...\n      JUMPDEST \t\t\t⡿⠀⠀⠀⠀⠀⠀⠈⢿⣿⣿⣿⠃⠀⠀⠀⠀⠀⠀⠀⠀⠀⠀⠀⠀⠀⠀⠀⠀⠀...\n      POP \t\t\t\n      MLOAD \t\t\t⣿⠁⠀⠀⠀⠀⠀⠀⠀⠘⣿⣿⣿⣿⡀⠀\n      SWAP2 \t\t\t⣿⠁⠀⠀⠀⠀⠀⠀⠀⠘⣿⣿⣿⣿⡀⠀\n      SWAP1 \t\t\t⠀⠀⠀⠀⠀⠀⠀⠀⠀⠀⠀⠀⠀⠀⠀⠀⠀⢀⣾⣿⣿⣿⠃⠀⠀⠀⠀⠈⢿⣿...\n      POP \t\t\t\n      JUMP \t\t\t⠀⠀⠀⠀⠀⠀⠀⠀⠀⠀⠀⠀⠀⠀⠀⠀⠀⢀⣾⣿⣿⣿⠃⠀⠀⠀⠀⠈⢿⣿...\n    tag 696\t\t\t⣿⣿⣿⣿⣿⣟⠀⡀⢀⠀⡀⢀⠀⡀⢈⢿⡟⠁⠀⠀⠀⠀⠀⠀⠀⠀⠀⠀⠀⠀...\n      JUMPDEST \t\t\t⣿⣿⣿⣿⣿⣟⠀⡀⢀⠀⡀⢀⠀⡀⢈⢿⡟⠁⠀⠀⠀⠀⠀⠀⠀⠀⠀⠀⠀⠀...\n      PUSH 0\t\t\t\\n// ⠀⠀\n      PUSH 20\t\t\t⠿⠿\n      DUP3 \t\t\t⠀⠀⠀⣸⣿⣿⣿⡿⢿\n      DUP5 \t\t\t⠀⠀⠀⠀⠀⠀⠀\n      SUB \t\t\t⣶⣄⡀⠀⠀⠀⠀⠀⠀⠀⠀⠀⠀⠀⠀⠀⣸⣿⣿⣿⡿⢿⠿\n      SLT \t\t\t⣿⣿⣿⣷⣶⣄⡀⠀⠀⠀⠀⠀⠀⠀⠀⠀⠀⠀⠀⠀⣸⣿⣿⣿⡿⢿⠿⠿⠿⠿...\n      ISZERO \t\t\t⣿⣿⣿⣿⣿⣿⣷⣶⣄⡀⠀⠀⠀⠀⠀⠀⠀⠀⠀⠀⠀⠀⠀⣸⣿⣿⣿⡿⢿⠿...\n      PUSH [tag] 1226\t\t\t⣿⣿⣿⣿⣿⣿⣷⣶⣄⡀⠀⠀⠀⠀⠀⠀⠀⠀⠀⠀⠀⠀⠀⣸⣿⣿⣿⡿⢿⠿...\n      JUMPI \t\t\t⣿⣿⣿⣿⣿⣿⣷⣶⣄⡀⠀⠀⠀⠀⠀⠀⠀⠀⠀⠀⠀⠀⠀⣸⣿⣿⣿⡿⢿⠿...\n      PUSH 0\t\t\t⣿\n      DUP1 \t\t\t⠀\n      REVERT \t\t\t⢿⣿⣿⣿⣷⡀⠀⠀⠀⢸⣿⣿\n    tag 1226\t\t\t⣿⣿⣿⣿⣿⣿⣷⣶⣄⡀⠀⠀⠀⠀⠀⠀⠀⠀⠀⠀⠀⠀⠀⣸⣿⣿⣿⡿⢿⠿...\n      JUMPDEST \t\t\t⣿⣿⣿⣿⣿⣿⣷⣶⣄⡀⠀⠀⠀⠀⠀⠀⠀⠀⠀⠀⠀⠀⠀⣸⣿⣿⣿⡿⢿⠿...\n      DUP2 \t\t\t⠀⠀\\n// ⠀⠀⠙\n      MLOAD \t\t\t⢠⣿⣿⣿⣿⠂⠀⠀\\n// ⠀⠀⠙⠛\n      PUSH 1\t\t\t\n      PUSH 1\t\t\t\n      PUSH 40\t\t\t\n      SHL \t\t\t\n      SUB \t\t\t\n      DUP1 \t\t\t⢸⣿\n      DUP3 \t\t\t⢿⣿⣿⣿⣧⠀\n      GT \t\t\t⠀⠀⠀⢿⣿⣿⣿⣧⠀⠀⠀⢸⣿⣿\n      ISZERO \t\t\t⠀⠀⠀⠀⠀⠀⢿⣿⣿⣿⣧⠀⠀⠀⢸⣿⣿⣿⣗⠀⠀⠀⢸⣿⣿⣿⡯⠀⠀⠀...\n      PUSH [tag] 1227\t\t\t⠀⠀⠀⠀⠀⠀⢿⣿⣿⣿⣧⠀⠀⠀⢸⣿⣿⣿⣗⠀⠀⠀⢸⣿⣿⣿⡯⠀⠀⠀...\n      JUMPI \t\t\t⠀⠀⠀⠀⠀⠀⢿⣿⣿⣿⣧⠀⠀⠀⢸⣿⣿⣿⣗⠀⠀⠀⢸⣿⣿⣿⡯⠀⠀⠀...\n      PUSH 0\t\t\t⢻\n      DUP1 \t\t\t⠀\n      REVERT \t\t\t⠀⠀⢸⣿⣿⣿⡯⠀⠀⠀⢻⣿\n    tag 1227\t\t\t⠀⠀⠀⠀⠀⠀⢿⣿⣿⣿⣧⠀⠀⠀⢸⣿⣿⣿⣗⠀⠀⠀⢸⣿⣿⣿⡯⠀⠀⠀...\n      JUMPDEST \t\t\t⠀⠀⠀⠀⠀⠀⢿⣿⣿⣿⣧⠀⠀⠀⢸⣿⣿⣿⣗⠀⠀⠀⢸⣿⣿⣿⡯⠀⠀⠀...\n      SWAP1 \t\t\t ⠀⠀⠀⠀⠀⠀⠀⠀⠀⠀⠀⠀⠈⠛⣿⣿⣿⣿⣿⣿⣿\n      DUP4 \t\t\t ⠀⠀⠀⠀⠀⠀⠀⠀⠀⠀⠀⠀⠈⠛⣿⣿⣿⣿⣿⣿⣿\n      ADD \t\t\t ⠀⠀⠀⠀⠀⠀⠀⠀⠀⠀⠀⠀⠈⠛⣿⣿⣿⣿⣿⣿⣿\n      SWAP1 \t\t\t ⠀⠀⠀⠀⠀⠀⠀⠀⠀⠀⠀⠀⠈⠛⣿⣿⣿⣿⣿⣿⣿\n      PUSH C0\t\t\t⠀⠘⣿⣿\n      DUP3 \t\t\t⠀⢰⣿⣿⣿⣿⠃⠀⠀⠀⠀⠀⠀⠀⠀⠀\n      DUP7 \t\t\t⠀⢰⣿⣿⣿⣿⠃⠀⠀⠀⠀⠀⠀⠀⠀⠀\n      SUB \t\t\t⠀⢰⣿⣿⣿⣿⠃⠀⠀⠀⠀⠀⠀⠀⠀⠀\n      SLT \t\t\t⠀⠀⠀⠀⠀⢰⣿⣿⣿⣿⠃⠀⠀⠀⠀⠀⠀⠀⠀⠀⠀⠀⠀⠘⣿⣿⣿\n      ISZERO \t\t\t⠀⠀⠀⠀⠀⠀⠀⠀⢰⣿⣿⣿⣿⠃⠀⠀⠀⠀⠀⠀⠀⠀⠀⠀⠀⠀⠘⣿⣿⣿...\n      PUSH [tag] 1228\t\t\t⠀⠀⠀⠀⠀⠀⠀⠀⢰⣿⣿⣿⣿⠃⠀⠀⠀⠀⠀⠀⠀⠀⠀⠀⠀⠀⠘⣿⣿⣿...\n      JUMPI \t\t\t⠀⠀⠀⠀⠀⠀⠀⠀⢰⣿⣿⣿⣿⠃⠀⠀⠀⠀⠀⠀⠀⠀⠀⠀⠀⠀⠘⣿⣿⣿...\n      PUSH 0\t\t\t⣿\n      DUP1 \t\t\t⠀\n      REVERT \t\t\t⠀⢸⣿⣿⣿⣗⠀⠀⠀⢸⣿⣿\n    tag 1228\t\t\t⠀⠀⠀⠀⠀⠀⠀⠀⢰⣿⣿⣿⣿⠃⠀⠀⠀⠀⠀⠀⠀⠀⠀⠀⠀⠀⠘⣿⣿⣿...\n      JUMPDEST \t\t\t⠀⠀⠀⠀⠀⠀⠀⠀⢰⣿⣿⣿⣿⠃⠀⠀⠀⠀⠀⠀⠀⠀⠀⠀⠀⠀⠘⣿⣿⣿...\n      PUSH [tag] 1229\t\t\t⠀\\n// ⠀⠀⠀⠀⠀⠀⠀⠀⠀⠀⠀⠀⠀⠀⠀⠈⠙\n      PUSH [tag] 815\t\t\t⠀\\n// ⠀⠀⠀⠀⠀⠀⠀⠀⠀⠀⠀⠀⠀⠀⠀⠈⠙\n      JUMP \t\t\t⠀\\n// ⠀⠀⠀⠀⠀⠀⠀⠀⠀⠀⠀⠀⠀⠀⠀⠈⠙\n    tag 1229\t\t\t⠀\\n// ⠀⠀⠀⠀⠀⠀⠀⠀⠀⠀⠀⠀⠀⠀⠀⠈⠙\n      JUMPDEST \t\t\t⠀\\n// ⠀⠀⠀⠀⠀⠀⠀⠀⠀⠀⠀⠀⠀⠀⠀⠈⠙\n      DUP3 \t\t\t⠀⠀\n      MLOAD \t\t\t⠟⠿⠃⠀⠀⠀⠀⠀⠀\n      DUP2 \t\t\t⠀⠀⠀⠀⠠\n      MSTORE \t\t\t⠙⠋⠃⠀⠀⠀⠀⠀⠀⠀⠀⠠⠿⠻⠟⠿⠃⠀⠀⠀⠀⠀⠀⠀\n      PUSH 20\t\t\t⠀⠀\n      DUP4 \t\t\t⠛⠁\n      ADD \t\t\t⢿⡿⡿⠿⠛⠁⠀⠀⠀⠀⠀\n      MLOAD \t\t\t⠈⠉⠻⠻⡿⣿⢿⡿⡿⠿⠛⠁⠀⠀⠀⠀⠀⠀\n      PUSH 20\t\t\t⠀⠀\n      DUP3 \t\t\t⠀⠀⠸⠿⠿\n      ADD \t\t\t⠿⠟⠯⠀⠀⠀⠸⠿⠿⠿⠏⠀⠀⠀\n      MSTORE \t\t\t⠿⠟⠿⠆⠀⠸⠿⠿⠟⠯⠀⠀⠀⠸⠿⠿⠿⠏⠀⠀⠀⠀⠀⠈⠉⠻⠻⡿⣿⢿...\n      PUSH 40\t\t\t//\n      DUP4 \t\t\tco\n      ADD \t\t\toin.co\\n\\n///\n      MLOAD \t\t\to.gitcoin.co\\n\\n/// \n      DUP3 \t\t\t @\n      DUP2 \t\t\terface\\n/\n      GT \t\t\tInterface\\n/// @a\n      ISZERO \t\t\tlo Interface\\n/// @author @the...\n      PUSH [tag] 1230\t\t\tlo Interface\\n/// @author @the...\n      JUMPI \t\t\tlo Interface\\n/// @author @the...\n      PUSH 0\t\t\tt\n      DUP1 \t\t\tl\n      REVERT \t\t\tor @thelosto\n    tag 1230\t\t\tlo Interface\\n/// @author @the...\n      JUMPDEST \t\t\tlo Interface\\n/// @author @the...\n      PUSH [tag] 1231\t\t\t <kurt@gitcoin.co>, @codenamej...\n      DUP8 \t\t\tn.co>, \n      DUP3 \t\t\tason@git\n      DUP7 \t\t\tn \n      ADD \t\t\tjason <jason@gitc\n      PUSH [tag] 831\t\t\t <kurt@gitcoin.co>, @codenamej...\n      JUMP \t\t\t <kurt@gitcoin.co>, @codenamej...\n    tag 1231\t\t\t <kurt@gitcoin.co>, @codenamej...\n      JUMPDEST \t\t\t <kurt@gitcoin.co>, @codenamej...\n      PUSH 40\t\t\txK\n      DUP4 \t\t\tco>, \n      ADD \t\t\toin.co>, @0xKu\n      MSTORE \t\t\tya@gitcoin.co>, @0xKurt <kurt@...\n      POP \t\t\tya@gitcoin.co>, @0xKurt <kurt@...\n      PUSH 60\t\t\tna\n      DUP4 \t\t\tin\n      ADD \t\t\tsselin <nat\n      MLOAD \t\t\t@nfrgosselin <nate\n      DUP3 \t\t\tIn\n      DUP2 \t\t\t/ @notic\n      GT \t\t\t\\n/// @notice Int\n      ISZERO \t\t\tco>\\n/// @notice Interface for...\n      PUSH [tag] 1232\t\t\tco>\\n/// @notice Interface for...\n      JUMPI \t\t\tco>\\n/// @notice Interface for...\n      PUSH 0\t\t\te\n      DUP1 \t\t\t \n      REVERT \t\t\tace for the \n    tag 1232\t\t\tco>\\n/// @notice Interface for...\n      JUMPDEST \t\t\tco>\\n/// @notice Interface for...\n      PUSH [tag] 1233\t\t\ttions needed to use the Allo p...\n      DUP8 \t\t\t    ///\n      DUP3 \t\t\tce IAllo\n      DUP7 \t\t\ter\n      ADD \t\t\t\\ninterface IAllo \n      PUSH [tag] 832\t\t\ttions needed to use the Allo p...\n      JUMP \t\t\ttions needed to use the Allo p...\n    tag 1233\t\t\ttions needed to use the Allo p...\n      JUMPDEST \t\t\ttions needed to use the Allo p...\n      PUSH 60\t\t\t f\n      DUP4 \t\t\tses a\n      ADD \t\t\texposes all fu\n      MSTORE \t\t\tct. It exposes all functions n...\n      POP \t\t\tct. It exposes all functions n...\n      PUSH [tag] 1234\t\t\t==== Structs ======\\n    /// =...\n      PUSH 80\t\t\t===\n      DUP5 \t\t\t==\n      ADD \t\t\t============\n      PUSH [tag] 830\t\t\t==== Structs ======\\n    /// =...\n      JUMP \t\t\t==== Structs ======\\n    /// =...\n    tag 1234\t\t\t==== Structs ======\\n    /// =...\n      JUMPDEST \t\t\t==== Structs ======\\n    /// =...\n      PUSH 80\t\t\t// \n      DUP3 \t\t\t=\\n   \n      ADD \t\t\t=====\\n    /// =\n      MSTORE \t\t\t============\\n    /// ======= ...\n      PUSH [tag] 1235\t\t\tstruct that all strategy pools...\n      PUSH A0\t\t\ted \n      DUP5 \t\t\t b\n      ADD \t\t\t are based f\n      PUSH [tag] 830\t\t\tstruct that all strategy pools...\n      JUMP \t\t\tstruct that all strategy pools...\n    tag 1235\t\t\tstruct that all strategy pools...\n      JUMPDEST \t\t\tstruct that all strategy pools...\n      PUSH A0\t\t\t Po\n      DUP3 \t\t\t@notice the Poo\n      ADD \t\t\t@notice the Poo\n      MSTORE \t\t\t   /// @notice the Pool struct...\n      SWAP6 \t\t\tice t\n      SWAP5 \t\t\t⣿⣿⣿⣿⣿⣟⠀⡀⢀⠀⡀⢀⠀⡀⢈⢿⡟⠁⠀⠀⠀⠀⠀⠀⠀⠀⠀⠀⠀⠀...\n      POP \t\t\t\n      POP \t\t\t\n      POP \t\t\t\n      POP \t\t\t\n      POP \t\t\t\n      JUMP \t\t\t⣿⣿⣿⣿⣿⣟⠀⡀⢀⠀⡀⢀⠀⡀⢈⢿⡟⠁⠀⠀⠀⠀⠀⠀⠀⠀⠀⠀⠀⠀...\n    tag 713\t\t\ten a new pool is created\\n    ...\n      JUMPDEST \t\t\ten a new pool is created\\n    ...\n      PUSH 0\t\t\tcia\n      DUP3 \t\t\tdress \n      MLOAD \t\t\tegy Address o\n      PUSH [tag] 1238\t\t\tategy contract\\n    /// @param...\n      DUP2 \t\t\tol was\n      DUP5 \t\t\ten \n      PUSH 20\t\t\tthe \n      DUP8 \t\t\tress o\n      ADD \t\t\t Address of the t\n      PUSH [tag] 826\t\t\tategy contract\\n    /// @param...\n      JUMP \t\t\tategy contract\\n    /// @param...\n    tag 1238\t\t\tategy contract\\n    /// @param...\n      JUMPDEST \t\t\tategy contract\\n    /// @param...\n      SWAP2 \t\t\t created\\n    ///\n      SWAP1 \t\t\t created\\n    ///\n      SWAP2 \t\t\t created\\n    ///\n      ADD \t\t\t created\\n    ///\n      SWAP3 \t\t\t created\\n    ///\n      SWAP2 \t\t\ten a new pool is created\\n    ...\n      POP \t\t\t\n      POP \t\t\t\n      JUMP \t\t\ten a new pool is created\\n    ...\n    tag 767\t\t\t/ @notice Emitted when the tre...\n      JUMPDEST \t\t\t/ @notice Emitted when the tre...\n      DUP1 \t\t\tasury Add\n      DUP3 \t\t\tasury Add\n      MUL \t\t\tasury Add\n      DUP2 \t\t\try\\n    ev\n      ISZERO \t\t\try\\n    ev\n      DUP3 \t\t\tsuryUpdated(add\n      DUP3 \t\t\tsuryUpdated(add\n      DIV \t\t\tsuryUpdated(add\n      DUP5 \t\t\tt TreasuryUpdated(addr\n      EQ \t\t\tt TreasuryUpdated(addr\n      OR \t\t\tasury\\n    event TreasuryUpdat...\n      PUSH [tag] 289\t\t\the new treasury\\n    event Tre...\n      JUMPI \t\t\the new treasury\\n    event Tre...\n      PUSH [tag] 289\t\t\treasury);\\n\\n    ///\n      PUSH [tag] 829\t\t\treasury);\\n\\n    ///\n      JUMP \t\t\treasury);\\n\\n    ///\n    tag 794\t\t\tistry Address of the new regis...\n      JUMPDEST \t\t\tistry Address of the new regis...\n      PUSH 20\t\t\tcl\n      DUP2 \t\t\tded to th\n      MSTORE \t\t\t and added to the clo\n      PUSH 0\t\t\ttrat\n      PUSH [tag] 287\t\t\t\\n    /// @param strategy Addr...\n      PUSH 20\t\t\ttr\n      DUP4 \t\t\tss of the\n      ADD \t\t\tddress of the stra\n      DUP5 \t\t\trategy\n      PUSH [tag] 827\t\t\t\\n    /// @param strategy Addr...\n      JUMP \t\t\t\\n    /// @param strategy Addr...\n    .data\n      9FDCD12E4B726339B32A442B0A448365D5D85C96B2D2CFF917B4F66C63110398:\n        416464726573733a206c6f772d6c6576656c2064656c65676174652063616c6c206661696c6564\n"
}