{
	"compilerInput": "{\"language\":\"Solidity\",\"sources\":{\"GovernorContract.sol\":{\"content\":\"// SPDX-License-Identifier: MIT\\npragma solidity ^0.8.20;\\n\\nimport \\\"@openzeppelin/contracts@5.0.1/governance/Governor.sol\\\";\\nimport \\\"@openzeppelin/contracts@5.0.1/governance/extensions/GovernorSettings.sol\\\";\\nimport \\\"@openzeppelin/contracts@5.0.1/governance/extensions/GovernorCountingSimple.sol\\\";\\nimport \\\"@openzeppelin/contracts@5.0.1/governance/extensions/GovernorVotes.sol\\\";\\nimport \\\"@openzeppelin/contracts@5.0.1/governance/extensions/GovernorVotesQuorumFraction.sol\\\";\\nimport \\\"@openzeppelin/contracts@5.0.1/governance/extensions/GovernorTimelockControl.sol\\\";\\n\\ncontract GovernorContract is\\n    Governor,\\n    GovernorSettings,\\n    GovernorCountingSimple,\\n    GovernorVotes,\\n    GovernorVotesQuorumFraction,\\n    GovernorTimelockControl\\n{\\n    constructor(\\n        IVotes _token,\\n        TimelockController _timelock,\\n        uint48 _votingDelay,\\n        uint32 _votingPeriod,\\n        uint256 _quorumPercentage\\n    )\\n        Governor(\\\"GovernorContract\\\")\\n        GovernorSettings(_votingDelay, _votingPeriod, 0)\\n        GovernorVotes(_token)\\n        GovernorVotesQuorumFraction(_quorumPercentage)\\n        GovernorTimelockControl(_timelock)\\n    {}\\n\\n    // The following functions are overrides required by Solidity.\\n\\n    function votingDelay()\\n        public\\n        view\\n        override(Governor, GovernorSettings)\\n        returns (uint256)\\n    {\\n        return super.votingDelay();\\n    }\\n\\n    function votingPeriod()\\n        public\\n        view\\n        override(Governor, GovernorSettings)\\n        returns (uint256)\\n    {\\n        return super.votingPeriod();\\n    }\\n\\n    function quorum(uint256 blockNumber)\\n        public\\n        view\\n        override(Governor, GovernorVotesQuorumFraction)\\n        returns (uint256)\\n    {\\n        return super.quorum(blockNumber);\\n    }\\n\\n    function state(uint256 proposalId)\\n        public\\n        view\\n        override(Governor, GovernorTimelockControl)\\n        returns (ProposalState)\\n    {\\n        return super.state(proposalId);\\n    }\\n\\n    function proposalNeedsQueuing(uint256 proposalId)\\n        public\\n        view\\n        override(Governor, GovernorTimelockControl)\\n        returns (bool)\\n    {\\n        return super.proposalNeedsQueuing(proposalId);\\n    }\\n\\n    function proposalThreshold()\\n        public\\n        view\\n        override(Governor, GovernorSettings)\\n        returns (uint256)\\n    {\\n        return super.proposalThreshold();\\n    }\\n\\n    function _queueOperations(\\n        uint256 proposalId,\\n        address[] memory targets,\\n        uint256[] memory values,\\n        bytes[] memory calldatas,\\n        bytes32 descriptionHash\\n    ) internal override(Governor, GovernorTimelockControl) returns (uint48) {\\n        return\\n            super._queueOperations(\\n                proposalId,\\n                targets,\\n                values,\\n                calldatas,\\n                descriptionHash\\n            );\\n    }\\n\\n    function _executeOperations(\\n        uint256 proposalId,\\n        address[] memory targets,\\n        uint256[] memory values,\\n        bytes[] memory calldatas,\\n        bytes32 descriptionHash\\n    ) internal override(Governor, GovernorTimelockControl) {\\n        super._executeOperations(\\n            proposalId,\\n            targets,\\n            values,\\n            calldatas,\\n            descriptionHash\\n        );\\n    }\\n\\n    function _cancel(\\n        address[] memory targets,\\n        uint256[] memory values,\\n        bytes[] memory calldatas,\\n        bytes32 descriptionHash\\n    ) internal override(Governor, GovernorTimelockControl) returns (uint256) {\\n        return super._cancel(targets, values, calldatas, descriptionHash);\\n    }\\n\\n    function _executor()\\n        internal\\n        view\\n        override(Governor, GovernorTimelockControl)\\n        returns (address)\\n    {\\n        return super._executor();\\n    }\\n}\\n\"},\"@openzeppelin/contracts@5.0.1/governance/extensions/GovernorTimelockControl.sol\":{\"content\":\"// SPDX-License-Identifier: MIT\\n// OpenZeppelin Contracts (last updated v5.0.0) (governance/extensions/GovernorTimelockControl.sol)\\n\\npragma solidity ^0.8.20;\\n\\nimport {IGovernor, Governor} from \\\"../Governor.sol\\\";\\nimport {TimelockController} from \\\"../TimelockController.sol\\\";\\nimport {IERC165} from \\\"../../interfaces/IERC165.sol\\\";\\nimport {SafeCast} from \\\"../../utils/math/SafeCast.sol\\\";\\n\\n/**\\n * @dev Extension of {Governor} that binds the execution process to an instance of {TimelockController}. This adds a\\n * delay, enforced by the {TimelockController} to all successful proposal (in addition to the voting duration). The\\n * {Governor} needs the proposer (and ideally the executor) roles for the {Governor} to work properly.\\n *\\n * Using this model means the proposal will be operated by the {TimelockController} and not by the {Governor}. Thus,\\n * the assets and permissions must be attached to the {TimelockController}. Any asset sent to the {Governor} will be\\n * inaccessible from a proposal, unless executed via {Governor-relay}.\\n *\\n * WARNING: Setting up the TimelockController to have additional proposers or cancellers besides the governor is very\\n * risky, as it grants them the ability to: 1) execute operations as the timelock, and thus possibly performing\\n * operations or accessing funds that are expected to only be accessible through a vote, and 2) block governance\\n * proposals that have been approved by the voters, effectively executing a Denial of Service attack.\\n *\\n * NOTE: `AccessManager` does not support scheduling more than one operation with the same target and calldata at\\n * the same time. See {AccessManager-schedule} for a workaround.\\n */\\nabstract contract GovernorTimelockControl is Governor {\\n    TimelockController private _timelock;\\n    mapping(uint256 proposalId => bytes32) private _timelockIds;\\n\\n    /**\\n     * @dev Emitted when the timelock controller used for proposal execution is modified.\\n     */\\n    event TimelockChange(address oldTimelock, address newTimelock);\\n\\n    /**\\n     * @dev Set the timelock.\\n     */\\n    constructor(TimelockController timelockAddress) {\\n        _updateTimelock(timelockAddress);\\n    }\\n\\n    /**\\n     * @dev Overridden version of the {Governor-state} function that considers the status reported by the timelock.\\n     */\\n    function state(uint256 proposalId) public view virtual override returns (ProposalState) {\\n        ProposalState currentState = super.state(proposalId);\\n\\n        if (currentState != ProposalState.Queued) {\\n            return currentState;\\n        }\\n\\n        bytes32 queueid = _timelockIds[proposalId];\\n        if (_timelock.isOperationPending(queueid)) {\\n            return ProposalState.Queued;\\n        } else if (_timelock.isOperationDone(queueid)) {\\n            // This can happen if the proposal is executed directly on the timelock.\\n            return ProposalState.Executed;\\n        } else {\\n            // This can happen if the proposal is canceled directly on the timelock.\\n            return ProposalState.Canceled;\\n        }\\n    }\\n\\n    /**\\n     * @dev Public accessor to check the address of the timelock\\n     */\\n    function timelock() public view virtual returns (address) {\\n        return address(_timelock);\\n    }\\n\\n    /**\\n     * @dev See {IGovernor-proposalNeedsQueuing}.\\n     */\\n    function proposalNeedsQueuing(uint256) public view virtual override returns (bool) {\\n        return true;\\n    }\\n\\n    /**\\n     * @dev Function to queue a proposal to the timelock.\\n     */\\n    function _queueOperations(\\n        uint256 proposalId,\\n        address[] memory targets,\\n        uint256[] memory values,\\n        bytes[] memory calldatas,\\n        bytes32 descriptionHash\\n    ) internal virtual override returns (uint48) {\\n        uint256 delay = _timelock.getMinDelay();\\n\\n        bytes32 salt = _timelockSalt(descriptionHash);\\n        _timelockIds[proposalId] = _timelock.hashOperationBatch(targets, values, calldatas, 0, salt);\\n        _timelock.scheduleBatch(targets, values, calldatas, 0, salt, delay);\\n\\n        return SafeCast.toUint48(block.timestamp + delay);\\n    }\\n\\n    /**\\n     * @dev Overridden version of the {Governor-_executeOperations} function that runs the already queued proposal\\n     * through the timelock.\\n     */\\n    function _executeOperations(\\n        uint256 proposalId,\\n        address[] memory targets,\\n        uint256[] memory values,\\n        bytes[] memory calldatas,\\n        bytes32 descriptionHash\\n    ) internal virtual override {\\n        // execute\\n        _timelock.executeBatch{value: msg.value}(targets, values, calldatas, 0, _timelockSalt(descriptionHash));\\n        // cleanup for refund\\n        delete _timelockIds[proposalId];\\n    }\\n\\n    /**\\n     * @dev Overridden version of the {Governor-_cancel} function to cancel the timelocked proposal if it has already\\n     * been queued.\\n     */\\n    // This function can reenter through the external call to the timelock, but we assume the timelock is trusted and\\n    // well behaved (according to TimelockController) and this will not happen.\\n    // slither-disable-next-line reentrancy-no-eth\\n    function _cancel(\\n        address[] memory targets,\\n        uint256[] memory values,\\n        bytes[] memory calldatas,\\n        bytes32 descriptionHash\\n    ) internal virtual override returns (uint256) {\\n        uint256 proposalId = super._cancel(targets, values, calldatas, descriptionHash);\\n\\n        bytes32 timelockId = _timelockIds[proposalId];\\n        if (timelockId != 0) {\\n            // cancel\\n            _timelock.cancel(timelockId);\\n            // cleanup\\n            delete _timelockIds[proposalId];\\n        }\\n\\n        return proposalId;\\n    }\\n\\n    /**\\n     * @dev Address through which the governor executes action. In this case, the timelock.\\n     */\\n    function _executor() internal view virtual override returns (address) {\\n        return address(_timelock);\\n    }\\n\\n    /**\\n     * @dev Public endpoint to update the underlying timelock instance. Restricted to the timelock itself, so updates\\n     * must be proposed, scheduled, and executed through governance proposals.\\n     *\\n     * CAUTION: It is not recommended to change the timelock while there are other queued governance proposals.\\n     */\\n    function updateTimelock(TimelockController newTimelock) external virtual onlyGovernance {\\n        _updateTimelock(newTimelock);\\n    }\\n\\n    function _updateTimelock(TimelockController newTimelock) private {\\n        emit TimelockChange(address(_timelock), address(newTimelock));\\n        _timelock = newTimelock;\\n    }\\n\\n    /**\\n     * @dev Computes the {TimelockController} operation salt.\\n     *\\n     * It is computed with the governor address itself to avoid collisions across governor instances using the\\n     * same timelock.\\n     */\\n    function _timelockSalt(bytes32 descriptionHash) private view returns (bytes32) {\\n        return bytes20(address(this)) ^ descriptionHash;\\n    }\\n}\\n\"},\"@openzeppelin/contracts@5.0.1/governance/extensions/GovernorVotesQuorumFraction.sol\":{\"content\":\"// SPDX-License-Identifier: MIT\\n// OpenZeppelin Contracts (last updated v5.0.0) (governance/extensions/GovernorVotesQuorumFraction.sol)\\n\\npragma solidity ^0.8.20;\\n\\nimport {GovernorVotes} from \\\"./GovernorVotes.sol\\\";\\nimport {SafeCast} from \\\"../../utils/math/SafeCast.sol\\\";\\nimport {Checkpoints} from \\\"../../utils/structs/Checkpoints.sol\\\";\\n\\n/**\\n * @dev Extension of {Governor} for voting weight extraction from an {ERC20Votes} token and a quorum expressed as a\\n * fraction of the total supply.\\n */\\nabstract contract GovernorVotesQuorumFraction is GovernorVotes {\\n    using Checkpoints for Checkpoints.Trace208;\\n\\n    Checkpoints.Trace208 private _quorumNumeratorHistory;\\n\\n    event QuorumNumeratorUpdated(uint256 oldQuorumNumerator, uint256 newQuorumNumerator);\\n\\n    /**\\n     * @dev The quorum set is not a valid fraction.\\n     */\\n    error GovernorInvalidQuorumFraction(uint256 quorumNumerator, uint256 quorumDenominator);\\n\\n    /**\\n     * @dev Initialize quorum as a fraction of the token's total supply.\\n     *\\n     * The fraction is specified as `numerator / denominator`. By default the denominator is 100, so quorum is\\n     * specified as a percent: a numerator of 10 corresponds to quorum being 10% of total supply. The denominator can be\\n     * customized by overriding {quorumDenominator}.\\n     */\\n    constructor(uint256 quorumNumeratorValue) {\\n        _updateQuorumNumerator(quorumNumeratorValue);\\n    }\\n\\n    /**\\n     * @dev Returns the current quorum numerator. See {quorumDenominator}.\\n     */\\n    function quorumNumerator() public view virtual returns (uint256) {\\n        return _quorumNumeratorHistory.latest();\\n    }\\n\\n    /**\\n     * @dev Returns the quorum numerator at a specific timepoint. See {quorumDenominator}.\\n     */\\n    function quorumNumerator(uint256 timepoint) public view virtual returns (uint256) {\\n        uint256 length = _quorumNumeratorHistory._checkpoints.length;\\n\\n        // Optimistic search, check the latest checkpoint\\n        Checkpoints.Checkpoint208 storage latest = _quorumNumeratorHistory._checkpoints[length - 1];\\n        uint48 latestKey = latest._key;\\n        uint208 latestValue = latest._value;\\n        if (latestKey <= timepoint) {\\n            return latestValue;\\n        }\\n\\n        // Otherwise, do the binary search\\n        return _quorumNumeratorHistory.upperLookupRecent(SafeCast.toUint48(timepoint));\\n    }\\n\\n    /**\\n     * @dev Returns the quorum denominator. Defaults to 100, but may be overridden.\\n     */\\n    function quorumDenominator() public view virtual returns (uint256) {\\n        return 100;\\n    }\\n\\n    /**\\n     * @dev Returns the quorum for a timepoint, in terms of number of votes: `supply * numerator / denominator`.\\n     */\\n    function quorum(uint256 timepoint) public view virtual override returns (uint256) {\\n        return (token().getPastTotalSupply(timepoint) * quorumNumerator(timepoint)) / quorumDenominator();\\n    }\\n\\n    /**\\n     * @dev Changes the quorum numerator.\\n     *\\n     * Emits a {QuorumNumeratorUpdated} event.\\n     *\\n     * Requirements:\\n     *\\n     * - Must be called through a governance proposal.\\n     * - New numerator must be smaller or equal to the denominator.\\n     */\\n    function updateQuorumNumerator(uint256 newQuorumNumerator) external virtual onlyGovernance {\\n        _updateQuorumNumerator(newQuorumNumerator);\\n    }\\n\\n    /**\\n     * @dev Changes the quorum numerator.\\n     *\\n     * Emits a {QuorumNumeratorUpdated} event.\\n     *\\n     * Requirements:\\n     *\\n     * - New numerator must be smaller or equal to the denominator.\\n     */\\n    function _updateQuorumNumerator(uint256 newQuorumNumerator) internal virtual {\\n        uint256 denominator = quorumDenominator();\\n        if (newQuorumNumerator > denominator) {\\n            revert GovernorInvalidQuorumFraction(newQuorumNumerator, denominator);\\n        }\\n\\n        uint256 oldQuorumNumerator = quorumNumerator();\\n        _quorumNumeratorHistory.push(clock(), SafeCast.toUint208(newQuorumNumerator));\\n\\n        emit QuorumNumeratorUpdated(oldQuorumNumerator, newQuorumNumerator);\\n    }\\n}\\n\"},\"@openzeppelin/contracts@5.0.1/governance/extensions/GovernorVotes.sol\":{\"content\":\"// SPDX-License-Identifier: MIT\\n// OpenZeppelin Contracts (last updated v5.0.0) (governance/extensions/GovernorVotes.sol)\\n\\npragma solidity ^0.8.20;\\n\\nimport {Governor} from \\\"../Governor.sol\\\";\\nimport {IVotes} from \\\"../utils/IVotes.sol\\\";\\nimport {IERC5805} from \\\"../../interfaces/IERC5805.sol\\\";\\nimport {SafeCast} from \\\"../../utils/math/SafeCast.sol\\\";\\nimport {Time} from \\\"../../utils/types/Time.sol\\\";\\n\\n/**\\n * @dev Extension of {Governor} for voting weight extraction from an {ERC20Votes} token, or since v4.5 an {ERC721Votes}\\n * token.\\n */\\nabstract contract GovernorVotes is Governor {\\n    IERC5805 private immutable _token;\\n\\n    constructor(IVotes tokenAddress) {\\n        _token = IERC5805(address(tokenAddress));\\n    }\\n\\n    /**\\n     * @dev The token that voting power is sourced from.\\n     */\\n    function token() public view virtual returns (IERC5805) {\\n        return _token;\\n    }\\n\\n    /**\\n     * @dev Clock (as specified in EIP-6372) is set to match the token's clock. Fallback to block numbers if the token\\n     * does not implement EIP-6372.\\n     */\\n    function clock() public view virtual override returns (uint48) {\\n        try token().clock() returns (uint48 timepoint) {\\n            return timepoint;\\n        } catch {\\n            return Time.blockNumber();\\n        }\\n    }\\n\\n    /**\\n     * @dev Machine-readable description of the clock as specified in EIP-6372.\\n     */\\n    // solhint-disable-next-line func-name-mixedcase\\n    function CLOCK_MODE() public view virtual override returns (string memory) {\\n        try token().CLOCK_MODE() returns (string memory clockmode) {\\n            return clockmode;\\n        } catch {\\n            return \\\"mode=blocknumber&from=default\\\";\\n        }\\n    }\\n\\n    /**\\n     * Read the voting weight from the token's built in snapshot mechanism (see {Governor-_getVotes}).\\n     */\\n    function _getVotes(\\n        address account,\\n        uint256 timepoint,\\n        bytes memory /*params*/\\n    ) internal view virtual override returns (uint256) {\\n        return token().getPastVotes(account, timepoint);\\n    }\\n}\\n\"},\"@openzeppelin/contracts@5.0.1/governance/extensions/GovernorCountingSimple.sol\":{\"content\":\"// SPDX-License-Identifier: MIT\\n// OpenZeppelin Contracts (last updated v5.0.0) (governance/extensions/GovernorCountingSimple.sol)\\n\\npragma solidity ^0.8.20;\\n\\nimport {Governor} from \\\"../Governor.sol\\\";\\n\\n/**\\n * @dev Extension of {Governor} for simple, 3 options, vote counting.\\n */\\nabstract contract GovernorCountingSimple is Governor {\\n    /**\\n     * @dev Supported vote types. Matches Governor Bravo ordering.\\n     */\\n    enum VoteType {\\n        Against,\\n        For,\\n        Abstain\\n    }\\n\\n    struct ProposalVote {\\n        uint256 againstVotes;\\n        uint256 forVotes;\\n        uint256 abstainVotes;\\n        mapping(address voter => bool) hasVoted;\\n    }\\n\\n    mapping(uint256 proposalId => ProposalVote) private _proposalVotes;\\n\\n    /**\\n     * @dev See {IGovernor-COUNTING_MODE}.\\n     */\\n    // solhint-disable-next-line func-name-mixedcase\\n    function COUNTING_MODE() public pure virtual override returns (string memory) {\\n        return \\\"support=bravo&quorum=for,abstain\\\";\\n    }\\n\\n    /**\\n     * @dev See {IGovernor-hasVoted}.\\n     */\\n    function hasVoted(uint256 proposalId, address account) public view virtual override returns (bool) {\\n        return _proposalVotes[proposalId].hasVoted[account];\\n    }\\n\\n    /**\\n     * @dev Accessor to the internal vote counts.\\n     */\\n    function proposalVotes(\\n        uint256 proposalId\\n    ) public view virtual returns (uint256 againstVotes, uint256 forVotes, uint256 abstainVotes) {\\n        ProposalVote storage proposalVote = _proposalVotes[proposalId];\\n        return (proposalVote.againstVotes, proposalVote.forVotes, proposalVote.abstainVotes);\\n    }\\n\\n    /**\\n     * @dev See {Governor-_quorumReached}.\\n     */\\n    function _quorumReached(uint256 proposalId) internal view virtual override returns (bool) {\\n        ProposalVote storage proposalVote = _proposalVotes[proposalId];\\n\\n        return quorum(proposalSnapshot(proposalId)) <= proposalVote.forVotes + proposalVote.abstainVotes;\\n    }\\n\\n    /**\\n     * @dev See {Governor-_voteSucceeded}. In this module, the forVotes must be strictly over the againstVotes.\\n     */\\n    function _voteSucceeded(uint256 proposalId) internal view virtual override returns (bool) {\\n        ProposalVote storage proposalVote = _proposalVotes[proposalId];\\n\\n        return proposalVote.forVotes > proposalVote.againstVotes;\\n    }\\n\\n    /**\\n     * @dev See {Governor-_countVote}. In this module, the support follows the `VoteType` enum (from Governor Bravo).\\n     */\\n    function _countVote(\\n        uint256 proposalId,\\n        address account,\\n        uint8 support,\\n        uint256 weight,\\n        bytes memory // params\\n    ) internal virtual override {\\n        ProposalVote storage proposalVote = _proposalVotes[proposalId];\\n\\n        if (proposalVote.hasVoted[account]) {\\n            revert GovernorAlreadyCastVote(account);\\n        }\\n        proposalVote.hasVoted[account] = true;\\n\\n        if (support == uint8(VoteType.Against)) {\\n            proposalVote.againstVotes += weight;\\n        } else if (support == uint8(VoteType.For)) {\\n            proposalVote.forVotes += weight;\\n        } else if (support == uint8(VoteType.Abstain)) {\\n            proposalVote.abstainVotes += weight;\\n        } else {\\n            revert GovernorInvalidVoteType();\\n        }\\n    }\\n}\\n\"},\"@openzeppelin/contracts@5.0.1/governance/extensions/GovernorSettings.sol\":{\"content\":\"// SPDX-License-Identifier: MIT\\n// OpenZeppelin Contracts (last updated v5.0.0) (governance/extensions/GovernorSettings.sol)\\n\\npragma solidity ^0.8.20;\\n\\nimport {Governor} from \\\"../Governor.sol\\\";\\n\\n/**\\n * @dev Extension of {Governor} for settings updatable through governance.\\n */\\nabstract contract GovernorSettings is Governor {\\n    // amount of token\\n    uint256 private _proposalThreshold;\\n    // timepoint: limited to uint48 in core (same as clock() type)\\n    uint48 private _votingDelay;\\n    // duration: limited to uint32 in core\\n    uint32 private _votingPeriod;\\n\\n    event VotingDelaySet(uint256 oldVotingDelay, uint256 newVotingDelay);\\n    event VotingPeriodSet(uint256 oldVotingPeriod, uint256 newVotingPeriod);\\n    event ProposalThresholdSet(uint256 oldProposalThreshold, uint256 newProposalThreshold);\\n\\n    /**\\n     * @dev Initialize the governance parameters.\\n     */\\n    constructor(uint48 initialVotingDelay, uint32 initialVotingPeriod, uint256 initialProposalThreshold) {\\n        _setVotingDelay(initialVotingDelay);\\n        _setVotingPeriod(initialVotingPeriod);\\n        _setProposalThreshold(initialProposalThreshold);\\n    }\\n\\n    /**\\n     * @dev See {IGovernor-votingDelay}.\\n     */\\n    function votingDelay() public view virtual override returns (uint256) {\\n        return _votingDelay;\\n    }\\n\\n    /**\\n     * @dev See {IGovernor-votingPeriod}.\\n     */\\n    function votingPeriod() public view virtual override returns (uint256) {\\n        return _votingPeriod;\\n    }\\n\\n    /**\\n     * @dev See {Governor-proposalThreshold}.\\n     */\\n    function proposalThreshold() public view virtual override returns (uint256) {\\n        return _proposalThreshold;\\n    }\\n\\n    /**\\n     * @dev Update the voting delay. This operation can only be performed through a governance proposal.\\n     *\\n     * Emits a {VotingDelaySet} event.\\n     */\\n    function setVotingDelay(uint48 newVotingDelay) public virtual onlyGovernance {\\n        _setVotingDelay(newVotingDelay);\\n    }\\n\\n    /**\\n     * @dev Update the voting period. This operation can only be performed through a governance proposal.\\n     *\\n     * Emits a {VotingPeriodSet} event.\\n     */\\n    function setVotingPeriod(uint32 newVotingPeriod) public virtual onlyGovernance {\\n        _setVotingPeriod(newVotingPeriod);\\n    }\\n\\n    /**\\n     * @dev Update the proposal threshold. This operation can only be performed through a governance proposal.\\n     *\\n     * Emits a {ProposalThresholdSet} event.\\n     */\\n    function setProposalThreshold(uint256 newProposalThreshold) public virtual onlyGovernance {\\n        _setProposalThreshold(newProposalThreshold);\\n    }\\n\\n    /**\\n     * @dev Internal setter for the voting delay.\\n     *\\n     * Emits a {VotingDelaySet} event.\\n     */\\n    function _setVotingDelay(uint48 newVotingDelay) internal virtual {\\n        emit VotingDelaySet(_votingDelay, newVotingDelay);\\n        _votingDelay = newVotingDelay;\\n    }\\n\\n    /**\\n     * @dev Internal setter for the voting period.\\n     *\\n     * Emits a {VotingPeriodSet} event.\\n     */\\n    function _setVotingPeriod(uint32 newVotingPeriod) internal virtual {\\n        if (newVotingPeriod == 0) {\\n            revert GovernorInvalidVotingPeriod(0);\\n        }\\n        emit VotingPeriodSet(_votingPeriod, newVotingPeriod);\\n        _votingPeriod = newVotingPeriod;\\n    }\\n\\n    /**\\n     * @dev Internal setter for the proposal threshold.\\n     *\\n     * Emits a {ProposalThresholdSet} event.\\n     */\\n    function _setProposalThreshold(uint256 newProposalThreshold) internal virtual {\\n        emit ProposalThresholdSet(_proposalThreshold, newProposalThreshold);\\n        _proposalThreshold = newProposalThreshold;\\n    }\\n}\\n\"},\"@openzeppelin/contracts@5.0.1/governance/Governor.sol\":{\"content\":\"// SPDX-License-Identifier: MIT\\n// OpenZeppelin Contracts (last updated v5.0.0) (governance/Governor.sol)\\n\\npragma solidity ^0.8.20;\\n\\nimport {IERC721Receiver} from \\\"../token/ERC721/IERC721Receiver.sol\\\";\\nimport {IERC1155Receiver} from \\\"../token/ERC1155/IERC1155Receiver.sol\\\";\\nimport {EIP712} from \\\"../utils/cryptography/EIP712.sol\\\";\\nimport {SignatureChecker} from \\\"../utils/cryptography/SignatureChecker.sol\\\";\\nimport {IERC165, ERC165} from \\\"../utils/introspection/ERC165.sol\\\";\\nimport {SafeCast} from \\\"../utils/math/SafeCast.sol\\\";\\nimport {DoubleEndedQueue} from \\\"../utils/structs/DoubleEndedQueue.sol\\\";\\nimport {Address} from \\\"../utils/Address.sol\\\";\\nimport {Context} from \\\"../utils/Context.sol\\\";\\nimport {Nonces} from \\\"../utils/Nonces.sol\\\";\\nimport {IGovernor, IERC6372} from \\\"./IGovernor.sol\\\";\\n\\n/**\\n * @dev Core of the governance system, designed to be extended through various modules.\\n *\\n * This contract is abstract and requires several functions to be implemented in various modules:\\n *\\n * - A counting module must implement {quorum}, {_quorumReached}, {_voteSucceeded} and {_countVote}\\n * - A voting module must implement {_getVotes}\\n * - Additionally, {votingPeriod} must also be implemented\\n */\\nabstract contract Governor is Context, ERC165, EIP712, Nonces, IGovernor, IERC721Receiver, IERC1155Receiver {\\n    using DoubleEndedQueue for DoubleEndedQueue.Bytes32Deque;\\n\\n    bytes32 public constant BALLOT_TYPEHASH =\\n        keccak256(\\\"Ballot(uint256 proposalId,uint8 support,address voter,uint256 nonce)\\\");\\n    bytes32 public constant EXTENDED_BALLOT_TYPEHASH =\\n        keccak256(\\n            \\\"ExtendedBallot(uint256 proposalId,uint8 support,address voter,uint256 nonce,string reason,bytes params)\\\"\\n        );\\n\\n    struct ProposalCore {\\n        address proposer;\\n        uint48 voteStart;\\n        uint32 voteDuration;\\n        bool executed;\\n        bool canceled;\\n        uint48 etaSeconds;\\n    }\\n\\n    bytes32 private constant ALL_PROPOSAL_STATES_BITMAP = bytes32((2 ** (uint8(type(ProposalState).max) + 1)) - 1);\\n    string private _name;\\n\\n    mapping(uint256 proposalId => ProposalCore) private _proposals;\\n\\n    // This queue keeps track of the governor operating on itself. Calls to functions protected by the {onlyGovernance}\\n    // modifier needs to be whitelisted in this queue. Whitelisting is set in {execute}, consumed by the\\n    // {onlyGovernance} modifier and eventually reset after {_executeOperations} completes. This ensures that the\\n    // execution of {onlyGovernance} protected calls can only be achieved through successful proposals.\\n    DoubleEndedQueue.Bytes32Deque private _governanceCall;\\n\\n    /**\\n     * @dev Restricts a function so it can only be executed through governance proposals. For example, governance\\n     * parameter setters in {GovernorSettings} are protected using this modifier.\\n     *\\n     * The governance executing address may be different from the Governor's own address, for example it could be a\\n     * timelock. This can be customized by modules by overriding {_executor}. The executor is only able to invoke these\\n     * functions during the execution of the governor's {execute} function, and not under any other circumstances. Thus,\\n     * for example, additional timelock proposers are not able to change governance parameters without going through the\\n     * governance protocol (since v4.6).\\n     */\\n    modifier onlyGovernance() {\\n        _checkGovernance();\\n        _;\\n    }\\n\\n    /**\\n     * @dev Sets the value for {name} and {version}\\n     */\\n    constructor(string memory name_) EIP712(name_, version()) {\\n        _name = name_;\\n    }\\n\\n    /**\\n     * @dev Function to receive ETH that will be handled by the governor (disabled if executor is a third party contract)\\n     */\\n    receive() external payable virtual {\\n        if (_executor() != address(this)) {\\n            revert GovernorDisabledDeposit();\\n        }\\n    }\\n\\n    /**\\n     * @dev See {IERC165-supportsInterface}.\\n     */\\n    function supportsInterface(bytes4 interfaceId) public view virtual override(IERC165, ERC165) returns (bool) {\\n        return\\n            interfaceId == type(IGovernor).interfaceId ||\\n            interfaceId == type(IERC1155Receiver).interfaceId ||\\n            super.supportsInterface(interfaceId);\\n    }\\n\\n    /**\\n     * @dev See {IGovernor-name}.\\n     */\\n    function name() public view virtual returns (string memory) {\\n        return _name;\\n    }\\n\\n    /**\\n     * @dev See {IGovernor-version}.\\n     */\\n    function version() public view virtual returns (string memory) {\\n        return \\\"1\\\";\\n    }\\n\\n    /**\\n     * @dev See {IGovernor-hashProposal}.\\n     *\\n     * The proposal id is produced by hashing the ABI encoded `targets` array, the `values` array, the `calldatas` array\\n     * and the descriptionHash (bytes32 which itself is the keccak256 hash of the description string). This proposal id\\n     * can be produced from the proposal data which is part of the {ProposalCreated} event. It can even be computed in\\n     * advance, before the proposal is submitted.\\n     *\\n     * Note that the chainId and the governor address are not part of the proposal id computation. Consequently, the\\n     * same proposal (with same operation and same description) will have the same id if submitted on multiple governors\\n     * across multiple networks. This also means that in order to execute the same operation twice (on the same\\n     * governor) the proposer will have to change the description in order to avoid proposal id conflicts.\\n     */\\n    function hashProposal(\\n        address[] memory targets,\\n        uint256[] memory values,\\n        bytes[] memory calldatas,\\n        bytes32 descriptionHash\\n    ) public pure virtual returns (uint256) {\\n        return uint256(keccak256(abi.encode(targets, values, calldatas, descriptionHash)));\\n    }\\n\\n    /**\\n     * @dev See {IGovernor-state}.\\n     */\\n    function state(uint256 proposalId) public view virtual returns (ProposalState) {\\n        // We read the struct fields into the stack at once so Solidity emits a single SLOAD\\n        ProposalCore storage proposal = _proposals[proposalId];\\n        bool proposalExecuted = proposal.executed;\\n        bool proposalCanceled = proposal.canceled;\\n\\n        if (proposalExecuted) {\\n            return ProposalState.Executed;\\n        }\\n\\n        if (proposalCanceled) {\\n            return ProposalState.Canceled;\\n        }\\n\\n        uint256 snapshot = proposalSnapshot(proposalId);\\n\\n        if (snapshot == 0) {\\n            revert GovernorNonexistentProposal(proposalId);\\n        }\\n\\n        uint256 currentTimepoint = clock();\\n\\n        if (snapshot >= currentTimepoint) {\\n            return ProposalState.Pending;\\n        }\\n\\n        uint256 deadline = proposalDeadline(proposalId);\\n\\n        if (deadline >= currentTimepoint) {\\n            return ProposalState.Active;\\n        } else if (!_quorumReached(proposalId) || !_voteSucceeded(proposalId)) {\\n            return ProposalState.Defeated;\\n        } else if (proposalEta(proposalId) == 0) {\\n            return ProposalState.Succeeded;\\n        } else {\\n            return ProposalState.Queued;\\n        }\\n    }\\n\\n    /**\\n     * @dev See {IGovernor-proposalThreshold}.\\n     */\\n    function proposalThreshold() public view virtual returns (uint256) {\\n        return 0;\\n    }\\n\\n    /**\\n     * @dev See {IGovernor-proposalSnapshot}.\\n     */\\n    function proposalSnapshot(uint256 proposalId) public view virtual returns (uint256) {\\n        return _proposals[proposalId].voteStart;\\n    }\\n\\n    /**\\n     * @dev See {IGovernor-proposalDeadline}.\\n     */\\n    function proposalDeadline(uint256 proposalId) public view virtual returns (uint256) {\\n        return _proposals[proposalId].voteStart + _proposals[proposalId].voteDuration;\\n    }\\n\\n    /**\\n     * @dev See {IGovernor-proposalProposer}.\\n     */\\n    function proposalProposer(uint256 proposalId) public view virtual returns (address) {\\n        return _proposals[proposalId].proposer;\\n    }\\n\\n    /**\\n     * @dev See {IGovernor-proposalEta}.\\n     */\\n    function proposalEta(uint256 proposalId) public view virtual returns (uint256) {\\n        return _proposals[proposalId].etaSeconds;\\n    }\\n\\n    /**\\n     * @dev See {IGovernor-proposalNeedsQueuing}.\\n     */\\n    function proposalNeedsQueuing(uint256) public view virtual returns (bool) {\\n        return false;\\n    }\\n\\n    /**\\n     * @dev Reverts if the `msg.sender` is not the executor. In case the executor is not this contract\\n     * itself, the function reverts if `msg.data` is not whitelisted as a result of an {execute}\\n     * operation. See {onlyGovernance}.\\n     */\\n    function _checkGovernance() internal virtual {\\n        if (_executor() != _msgSender()) {\\n            revert GovernorOnlyExecutor(_msgSender());\\n        }\\n        if (_executor() != address(this)) {\\n            bytes32 msgDataHash = keccak256(_msgData());\\n            // loop until popping the expected operation - throw if deque is empty (operation not authorized)\\n            while (_governanceCall.popFront() != msgDataHash) {}\\n        }\\n    }\\n\\n    /**\\n     * @dev Amount of votes already cast passes the threshold limit.\\n     */\\n    function _quorumReached(uint256 proposalId) internal view virtual returns (bool);\\n\\n    /**\\n     * @dev Is the proposal successful or not.\\n     */\\n    function _voteSucceeded(uint256 proposalId) internal view virtual returns (bool);\\n\\n    /**\\n     * @dev Get the voting weight of `account` at a specific `timepoint`, for a vote as described by `params`.\\n     */\\n    function _getVotes(address account, uint256 timepoint, bytes memory params) internal view virtual returns (uint256);\\n\\n    /**\\n     * @dev Register a vote for `proposalId` by `account` with a given `support`, voting `weight` and voting `params`.\\n     *\\n     * Note: Support is generic and can represent various things depending on the voting system used.\\n     */\\n    function _countVote(\\n        uint256 proposalId,\\n        address account,\\n        uint8 support,\\n        uint256 weight,\\n        bytes memory params\\n    ) internal virtual;\\n\\n    /**\\n     * @dev Default additional encoded parameters used by castVote methods that don't include them\\n     *\\n     * Note: Should be overridden by specific implementations to use an appropriate value, the\\n     * meaning of the additional params, in the context of that implementation\\n     */\\n    function _defaultParams() internal view virtual returns (bytes memory) {\\n        return \\\"\\\";\\n    }\\n\\n    /**\\n     * @dev See {IGovernor-propose}. This function has opt-in frontrunning protection, described in {_isValidDescriptionForProposer}.\\n     */\\n    function propose(\\n        address[] memory targets,\\n        uint256[] memory values,\\n        bytes[] memory calldatas,\\n        string memory description\\n    ) public virtual returns (uint256) {\\n        address proposer = _msgSender();\\n\\n        // check description restriction\\n        if (!_isValidDescriptionForProposer(proposer, description)) {\\n            revert GovernorRestrictedProposer(proposer);\\n        }\\n\\n        // check proposal threshold\\n        uint256 proposerVotes = getVotes(proposer, clock() - 1);\\n        uint256 votesThreshold = proposalThreshold();\\n        if (proposerVotes < votesThreshold) {\\n            revert GovernorInsufficientProposerVotes(proposer, proposerVotes, votesThreshold);\\n        }\\n\\n        return _propose(targets, values, calldatas, description, proposer);\\n    }\\n\\n    /**\\n     * @dev Internal propose mechanism. Can be overridden to add more logic on proposal creation.\\n     *\\n     * Emits a {IGovernor-ProposalCreated} event.\\n     */\\n    function _propose(\\n        address[] memory targets,\\n        uint256[] memory values,\\n        bytes[] memory calldatas,\\n        string memory description,\\n        address proposer\\n    ) internal virtual returns (uint256 proposalId) {\\n        proposalId = hashProposal(targets, values, calldatas, keccak256(bytes(description)));\\n\\n        if (targets.length != values.length || targets.length != calldatas.length || targets.length == 0) {\\n            revert GovernorInvalidProposalLength(targets.length, calldatas.length, values.length);\\n        }\\n        if (_proposals[proposalId].voteStart != 0) {\\n            revert GovernorUnexpectedProposalState(proposalId, state(proposalId), bytes32(0));\\n        }\\n\\n        uint256 snapshot = clock() + votingDelay();\\n        uint256 duration = votingPeriod();\\n\\n        ProposalCore storage proposal = _proposals[proposalId];\\n        proposal.proposer = proposer;\\n        proposal.voteStart = SafeCast.toUint48(snapshot);\\n        proposal.voteDuration = SafeCast.toUint32(duration);\\n\\n        emit ProposalCreated(\\n            proposalId,\\n            proposer,\\n            targets,\\n            values,\\n            new string[](targets.length),\\n            calldatas,\\n            snapshot,\\n            snapshot + duration,\\n            description\\n        );\\n\\n        // Using a named return variable to avoid stack too deep errors\\n    }\\n\\n    /**\\n     * @dev See {IGovernor-queue}.\\n     */\\n    function queue(\\n        address[] memory targets,\\n        uint256[] memory values,\\n        bytes[] memory calldatas,\\n        bytes32 descriptionHash\\n    ) public virtual returns (uint256) {\\n        uint256 proposalId = hashProposal(targets, values, calldatas, descriptionHash);\\n\\n        _validateStateBitmap(proposalId, _encodeStateBitmap(ProposalState.Succeeded));\\n\\n        uint48 etaSeconds = _queueOperations(proposalId, targets, values, calldatas, descriptionHash);\\n\\n        if (etaSeconds != 0) {\\n            _proposals[proposalId].etaSeconds = etaSeconds;\\n            emit ProposalQueued(proposalId, etaSeconds);\\n        } else {\\n            revert GovernorQueueNotImplemented();\\n        }\\n\\n        return proposalId;\\n    }\\n\\n    /**\\n     * @dev Internal queuing mechanism. Can be overridden (without a super call) to modify the way queuing is\\n     * performed (for example adding a vault/timelock).\\n     *\\n     * This is empty by default, and must be overridden to implement queuing.\\n     *\\n     * This function returns a timestamp that describes the expected ETA for execution. If the returned value is 0\\n     * (which is the default value), the core will consider queueing did not succeed, and the public {queue} function\\n     * will revert.\\n     *\\n     * NOTE: Calling this function directly will NOT check the current state of the proposal, or emit the\\n     * `ProposalQueued` event. Queuing a proposal should be done using {queue}.\\n     */\\n    function _queueOperations(\\n        uint256 /*proposalId*/,\\n        address[] memory /*targets*/,\\n        uint256[] memory /*values*/,\\n        bytes[] memory /*calldatas*/,\\n        bytes32 /*descriptionHash*/\\n    ) internal virtual returns (uint48) {\\n        return 0;\\n    }\\n\\n    /**\\n     * @dev See {IGovernor-execute}.\\n     */\\n    function execute(\\n        address[] memory targets,\\n        uint256[] memory values,\\n        bytes[] memory calldatas,\\n        bytes32 descriptionHash\\n    ) public payable virtual returns (uint256) {\\n        uint256 proposalId = hashProposal(targets, values, calldatas, descriptionHash);\\n\\n        _validateStateBitmap(\\n            proposalId,\\n            _encodeStateBitmap(ProposalState.Succeeded) | _encodeStateBitmap(ProposalState.Queued)\\n        );\\n\\n        // mark as executed before calls to avoid reentrancy\\n        _proposals[proposalId].executed = true;\\n\\n        // before execute: register governance call in queue.\\n        if (_executor() != address(this)) {\\n            for (uint256 i = 0; i < targets.length; ++i) {\\n                if (targets[i] == address(this)) {\\n                    _governanceCall.pushBack(keccak256(calldatas[i]));\\n                }\\n            }\\n        }\\n\\n        _executeOperations(proposalId, targets, values, calldatas, descriptionHash);\\n\\n        // after execute: cleanup governance call queue.\\n        if (_executor() != address(this) && !_governanceCall.empty()) {\\n            _governanceCall.clear();\\n        }\\n\\n        emit ProposalExecuted(proposalId);\\n\\n        return proposalId;\\n    }\\n\\n    /**\\n     * @dev Internal execution mechanism. Can be overridden (without a super call) to modify the way execution is\\n     * performed (for example adding a vault/timelock).\\n     *\\n     * NOTE: Calling this function directly will NOT check the current state of the proposal, set the executed flag to\\n     * true or emit the `ProposalExecuted` event. Executing a proposal should be done using {execute} or {_execute}.\\n     */\\n    function _executeOperations(\\n        uint256 /* proposalId */,\\n        address[] memory targets,\\n        uint256[] memory values,\\n        bytes[] memory calldatas,\\n        bytes32 /*descriptionHash*/\\n    ) internal virtual {\\n        for (uint256 i = 0; i < targets.length; ++i) {\\n            (bool success, bytes memory returndata) = targets[i].call{value: values[i]}(calldatas[i]);\\n            Address.verifyCallResult(success, returndata);\\n        }\\n    }\\n\\n    /**\\n     * @dev See {IGovernor-cancel}.\\n     */\\n    function cancel(\\n        address[] memory targets,\\n        uint256[] memory values,\\n        bytes[] memory calldatas,\\n        bytes32 descriptionHash\\n    ) public virtual returns (uint256) {\\n        // The proposalId will be recomputed in the `_cancel` call further down. However we need the value before we\\n        // do the internal call, because we need to check the proposal state BEFORE the internal `_cancel` call\\n        // changes it. The `hashProposal` duplication has a cost that is limited, and that we accept.\\n        uint256 proposalId = hashProposal(targets, values, calldatas, descriptionHash);\\n\\n        // public cancel restrictions (on top of existing _cancel restrictions).\\n        _validateStateBitmap(proposalId, _encodeStateBitmap(ProposalState.Pending));\\n        if (_msgSender() != proposalProposer(proposalId)) {\\n            revert GovernorOnlyProposer(_msgSender());\\n        }\\n\\n        return _cancel(targets, values, calldatas, descriptionHash);\\n    }\\n\\n    /**\\n     * @dev Internal cancel mechanism with minimal restrictions. A proposal can be cancelled in any state other than\\n     * Canceled, Expired, or Executed. Once cancelled a proposal can't be re-submitted.\\n     *\\n     * Emits a {IGovernor-ProposalCanceled} event.\\n     */\\n    function _cancel(\\n        address[] memory targets,\\n        uint256[] memory values,\\n        bytes[] memory calldatas,\\n        bytes32 descriptionHash\\n    ) internal virtual returns (uint256) {\\n        uint256 proposalId = hashProposal(targets, values, calldatas, descriptionHash);\\n\\n        _validateStateBitmap(\\n            proposalId,\\n            ALL_PROPOSAL_STATES_BITMAP ^\\n                _encodeStateBitmap(ProposalState.Canceled) ^\\n                _encodeStateBitmap(ProposalState.Expired) ^\\n                _encodeStateBitmap(ProposalState.Executed)\\n        );\\n\\n        _proposals[proposalId].canceled = true;\\n        emit ProposalCanceled(proposalId);\\n\\n        return proposalId;\\n    }\\n\\n    /**\\n     * @dev See {IGovernor-getVotes}.\\n     */\\n    function getVotes(address account, uint256 timepoint) public view virtual returns (uint256) {\\n        return _getVotes(account, timepoint, _defaultParams());\\n    }\\n\\n    /**\\n     * @dev See {IGovernor-getVotesWithParams}.\\n     */\\n    function getVotesWithParams(\\n        address account,\\n        uint256 timepoint,\\n        bytes memory params\\n    ) public view virtual returns (uint256) {\\n        return _getVotes(account, timepoint, params);\\n    }\\n\\n    /**\\n     * @dev See {IGovernor-castVote}.\\n     */\\n    function castVote(uint256 proposalId, uint8 support) public virtual returns (uint256) {\\n        address voter = _msgSender();\\n        return _castVote(proposalId, voter, support, \\\"\\\");\\n    }\\n\\n    /**\\n     * @dev See {IGovernor-castVoteWithReason}.\\n     */\\n    function castVoteWithReason(\\n        uint256 proposalId,\\n        uint8 support,\\n        string calldata reason\\n    ) public virtual returns (uint256) {\\n        address voter = _msgSender();\\n        return _castVote(proposalId, voter, support, reason);\\n    }\\n\\n    /**\\n     * @dev See {IGovernor-castVoteWithReasonAndParams}.\\n     */\\n    function castVoteWithReasonAndParams(\\n        uint256 proposalId,\\n        uint8 support,\\n        string calldata reason,\\n        bytes memory params\\n    ) public virtual returns (uint256) {\\n        address voter = _msgSender();\\n        return _castVote(proposalId, voter, support, reason, params);\\n    }\\n\\n    /**\\n     * @dev See {IGovernor-castVoteBySig}.\\n     */\\n    function castVoteBySig(\\n        uint256 proposalId,\\n        uint8 support,\\n        address voter,\\n        bytes memory signature\\n    ) public virtual returns (uint256) {\\n        bool valid = SignatureChecker.isValidSignatureNow(\\n            voter,\\n            _hashTypedDataV4(keccak256(abi.encode(BALLOT_TYPEHASH, proposalId, support, voter, _useNonce(voter)))),\\n            signature\\n        );\\n\\n        if (!valid) {\\n            revert GovernorInvalidSignature(voter);\\n        }\\n\\n        return _castVote(proposalId, voter, support, \\\"\\\");\\n    }\\n\\n    /**\\n     * @dev See {IGovernor-castVoteWithReasonAndParamsBySig}.\\n     */\\n    function castVoteWithReasonAndParamsBySig(\\n        uint256 proposalId,\\n        uint8 support,\\n        address voter,\\n        string calldata reason,\\n        bytes memory params,\\n        bytes memory signature\\n    ) public virtual returns (uint256) {\\n        bool valid = SignatureChecker.isValidSignatureNow(\\n            voter,\\n            _hashTypedDataV4(\\n                keccak256(\\n                    abi.encode(\\n                        EXTENDED_BALLOT_TYPEHASH,\\n                        proposalId,\\n                        support,\\n                        voter,\\n                        _useNonce(voter),\\n                        keccak256(bytes(reason)),\\n                        keccak256(params)\\n                    )\\n                )\\n            ),\\n            signature\\n        );\\n\\n        if (!valid) {\\n            revert GovernorInvalidSignature(voter);\\n        }\\n\\n        return _castVote(proposalId, voter, support, reason, params);\\n    }\\n\\n    /**\\n     * @dev Internal vote casting mechanism: Check that the vote is pending, that it has not been cast yet, retrieve\\n     * voting weight using {IGovernor-getVotes} and call the {_countVote} internal function. Uses the _defaultParams().\\n     *\\n     * Emits a {IGovernor-VoteCast} event.\\n     */\\n    function _castVote(\\n        uint256 proposalId,\\n        address account,\\n        uint8 support,\\n        string memory reason\\n    ) internal virtual returns (uint256) {\\n        return _castVote(proposalId, account, support, reason, _defaultParams());\\n    }\\n\\n    /**\\n     * @dev Internal vote casting mechanism: Check that the vote is pending, that it has not been cast yet, retrieve\\n     * voting weight using {IGovernor-getVotes} and call the {_countVote} internal function.\\n     *\\n     * Emits a {IGovernor-VoteCast} event.\\n     */\\n    function _castVote(\\n        uint256 proposalId,\\n        address account,\\n        uint8 support,\\n        string memory reason,\\n        bytes memory params\\n    ) internal virtual returns (uint256) {\\n        _validateStateBitmap(proposalId, _encodeStateBitmap(ProposalState.Active));\\n\\n        uint256 weight = _getVotes(account, proposalSnapshot(proposalId), params);\\n        _countVote(proposalId, account, support, weight, params);\\n\\n        if (params.length == 0) {\\n            emit VoteCast(account, proposalId, support, weight, reason);\\n        } else {\\n            emit VoteCastWithParams(account, proposalId, support, weight, reason, params);\\n        }\\n\\n        return weight;\\n    }\\n\\n    /**\\n     * @dev Relays a transaction or function call to an arbitrary target. In cases where the governance executor\\n     * is some contract other than the governor itself, like when using a timelock, this function can be invoked\\n     * in a governance proposal to recover tokens or Ether that was sent to the governor contract by mistake.\\n     * Note that if the executor is simply the governor itself, use of `relay` is redundant.\\n     */\\n    function relay(address target, uint256 value, bytes calldata data) external payable virtual onlyGovernance {\\n        (bool success, bytes memory returndata) = target.call{value: value}(data);\\n        Address.verifyCallResult(success, returndata);\\n    }\\n\\n    /**\\n     * @dev Address through which the governor executes action. Will be overloaded by module that execute actions\\n     * through another contract such as a timelock.\\n     */\\n    function _executor() internal view virtual returns (address) {\\n        return address(this);\\n    }\\n\\n    /**\\n     * @dev See {IERC721Receiver-onERC721Received}.\\n     * Receiving tokens is disabled if the governance executor is other than the governor itself (eg. when using with a timelock).\\n     */\\n    function onERC721Received(address, address, uint256, bytes memory) public virtual returns (bytes4) {\\n        if (_executor() != address(this)) {\\n            revert GovernorDisabledDeposit();\\n        }\\n        return this.onERC721Received.selector;\\n    }\\n\\n    /**\\n     * @dev See {IERC1155Receiver-onERC1155Received}.\\n     * Receiving tokens is disabled if the governance executor is other than the governor itself (eg. when using with a timelock).\\n     */\\n    function onERC1155Received(address, address, uint256, uint256, bytes memory) public virtual returns (bytes4) {\\n        if (_executor() != address(this)) {\\n            revert GovernorDisabledDeposit();\\n        }\\n        return this.onERC1155Received.selector;\\n    }\\n\\n    /**\\n     * @dev See {IERC1155Receiver-onERC1155BatchReceived}.\\n     * Receiving tokens is disabled if the governance executor is other than the governor itself (eg. when using with a timelock).\\n     */\\n    function onERC1155BatchReceived(\\n        address,\\n        address,\\n        uint256[] memory,\\n        uint256[] memory,\\n        bytes memory\\n    ) public virtual returns (bytes4) {\\n        if (_executor() != address(this)) {\\n            revert GovernorDisabledDeposit();\\n        }\\n        return this.onERC1155BatchReceived.selector;\\n    }\\n\\n    /**\\n     * @dev Encodes a `ProposalState` into a `bytes32` representation where each bit enabled corresponds to\\n     * the underlying position in the `ProposalState` enum. For example:\\n     *\\n     * 0x000...10000\\n     *   ^^^^^^------ ...\\n     *         ^----- Succeeded\\n     *          ^---- Defeated\\n     *           ^--- Canceled\\n     *            ^-- Active\\n     *             ^- Pending\\n     */\\n    function _encodeStateBitmap(ProposalState proposalState) internal pure returns (bytes32) {\\n        return bytes32(1 << uint8(proposalState));\\n    }\\n\\n    /**\\n     * @dev Check that the current state of a proposal matches the requirements described by the `allowedStates` bitmap.\\n     * This bitmap should be built using `_encodeStateBitmap`.\\n     *\\n     * If requirements are not met, reverts with a {GovernorUnexpectedProposalState} error.\\n     */\\n    function _validateStateBitmap(uint256 proposalId, bytes32 allowedStates) private view returns (ProposalState) {\\n        ProposalState currentState = state(proposalId);\\n        if (_encodeStateBitmap(currentState) & allowedStates == bytes32(0)) {\\n            revert GovernorUnexpectedProposalState(proposalId, currentState, allowedStates);\\n        }\\n        return currentState;\\n    }\\n\\n    /*\\n     * @dev Check if the proposer is authorized to submit a proposal with the given description.\\n     *\\n     * If the proposal description ends with `#proposer=0x???`, where `0x???` is an address written as a hex string\\n     * (case insensitive), then the submission of this proposal will only be authorized to said address.\\n     *\\n     * This is used for frontrunning protection. By adding this pattern at the end of their proposal, one can ensure\\n     * that no other address can submit the same proposal. An attacker would have to either remove or change that part,\\n     * which would result in a different proposal id.\\n     *\\n     * If the description does not match this pattern, it is unrestricted and anyone can submit it. This includes:\\n     * - If the `0x???` part is not a valid hex string.\\n     * - If the `0x???` part is a valid hex string, but does not contain exactly 40 hex digits.\\n     * - If it ends with the expected suffix followed by newlines or other whitespace.\\n     * - If it ends with some other similar suffix, e.g. `#other=abc`.\\n     * - If it does not end with any such suffix.\\n     */\\n    function _isValidDescriptionForProposer(\\n        address proposer,\\n        string memory description\\n    ) internal view virtual returns (bool) {\\n        uint256 len = bytes(description).length;\\n\\n        // Length is too short to contain a valid proposer suffix\\n        if (len < 52) {\\n            return true;\\n        }\\n\\n        // Extract what would be the `#proposer=0x` marker beginning the suffix\\n        bytes12 marker;\\n        assembly {\\n            // - Start of the string contents in memory = description + 32\\n            // - First character of the marker = len - 52\\n            //   - Length of \\\"#proposer=0x0000000000000000000000000000000000000000\\\" = 52\\n            // - We read the memory word starting at the first character of the marker:\\n            //   - (description + 32) + (len - 52) = description + (len - 20)\\n            // - Note: Solidity will ignore anything past the first 12 bytes\\n            marker := mload(add(description, sub(len, 20)))\\n        }\\n\\n        // If the marker is not found, there is no proposer suffix to check\\n        if (marker != bytes12(\\\"#proposer=0x\\\")) {\\n            return true;\\n        }\\n\\n        // Parse the 40 characters following the marker as uint160\\n        uint160 recovered = 0;\\n        for (uint256 i = len - 40; i < len; ++i) {\\n            (bool isHex, uint8 value) = _tryHexToUint(bytes(description)[i]);\\n            // If any of the characters is not a hex digit, ignore the suffix entirely\\n            if (!isHex) {\\n                return true;\\n            }\\n            recovered = (recovered << 4) | value;\\n        }\\n\\n        return recovered == uint160(proposer);\\n    }\\n\\n    /**\\n     * @dev Try to parse a character from a string as a hex value. Returns `(true, value)` if the char is in\\n     * `[0-9a-fA-F]` and `(false, 0)` otherwise. Value is guaranteed to be in the range `0 <= value < 16`\\n     */\\n    function _tryHexToUint(bytes1 char) private pure returns (bool, uint8) {\\n        uint8 c = uint8(char);\\n        unchecked {\\n            // Case 0-9\\n            if (47 < c && c < 58) {\\n                return (true, c - 48);\\n            }\\n            // Case A-F\\n            else if (64 < c && c < 71) {\\n                return (true, c - 55);\\n            }\\n            // Case a-f\\n            else if (96 < c && c < 103) {\\n                return (true, c - 87);\\n            }\\n            // Else: not a hex char\\n            else {\\n                return (false, 0);\\n            }\\n        }\\n    }\\n\\n    /**\\n     * @inheritdoc IERC6372\\n     */\\n    function clock() public view virtual returns (uint48);\\n\\n    /**\\n     * @inheritdoc IERC6372\\n     */\\n    // solhint-disable-next-line func-name-mixedcase\\n    function CLOCK_MODE() public view virtual returns (string memory);\\n\\n    /**\\n     * @inheritdoc IGovernor\\n     */\\n    function votingDelay() public view virtual returns (uint256);\\n\\n    /**\\n     * @inheritdoc IGovernor\\n     */\\n    function votingPeriod() public view virtual returns (uint256);\\n\\n    /**\\n     * @inheritdoc IGovernor\\n     */\\n    function quorum(uint256 timepoint) public view virtual returns (uint256);\\n}\\n\"},\"@openzeppelin/contracts@5.0.1/utils/structs/Checkpoints.sol\":{\"content\":\"// SPDX-License-Identifier: MIT\\n// OpenZeppelin Contracts (last updated v5.0.0) (utils/structs/Checkpoints.sol)\\n// This file was procedurally generated from scripts/generate/templates/Checkpoints.js.\\n\\npragma solidity ^0.8.20;\\n\\nimport {Math} from \\\"../math/Math.sol\\\";\\n\\n/**\\n * @dev This library defines the `Trace*` struct, for checkpointing values as they change at different points in\\n * time, and later looking up past values by block number. See {Votes} as an example.\\n *\\n * To create a history of checkpoints define a variable type `Checkpoints.Trace*` in your contract, and store a new\\n * checkpoint for the current transaction block using the {push} function.\\n */\\nlibrary Checkpoints {\\n    /**\\n     * @dev A value was attempted to be inserted on a past checkpoint.\\n     */\\n    error CheckpointUnorderedInsertion();\\n\\n    struct Trace224 {\\n        Checkpoint224[] _checkpoints;\\n    }\\n\\n    struct Checkpoint224 {\\n        uint32 _key;\\n        uint224 _value;\\n    }\\n\\n    /**\\n     * @dev Pushes a (`key`, `value`) pair into a Trace224 so that it is stored as the checkpoint.\\n     *\\n     * Returns previous value and new value.\\n     *\\n     * IMPORTANT: Never accept `key` as a user input, since an arbitrary `type(uint32).max` key set will disable the\\n     * library.\\n     */\\n    function push(Trace224 storage self, uint32 key, uint224 value) internal returns (uint224, uint224) {\\n        return _insert(self._checkpoints, key, value);\\n    }\\n\\n    /**\\n     * @dev Returns the value in the first (oldest) checkpoint with key greater or equal than the search key, or zero if\\n     * there is none.\\n     */\\n    function lowerLookup(Trace224 storage self, uint32 key) internal view returns (uint224) {\\n        uint256 len = self._checkpoints.length;\\n        uint256 pos = _lowerBinaryLookup(self._checkpoints, key, 0, len);\\n        return pos == len ? 0 : _unsafeAccess(self._checkpoints, pos)._value;\\n    }\\n\\n    /**\\n     * @dev Returns the value in the last (most recent) checkpoint with key lower or equal than the search key, or zero\\n     * if there is none.\\n     */\\n    function upperLookup(Trace224 storage self, uint32 key) internal view returns (uint224) {\\n        uint256 len = self._checkpoints.length;\\n        uint256 pos = _upperBinaryLookup(self._checkpoints, key, 0, len);\\n        return pos == 0 ? 0 : _unsafeAccess(self._checkpoints, pos - 1)._value;\\n    }\\n\\n    /**\\n     * @dev Returns the value in the last (most recent) checkpoint with key lower or equal than the search key, or zero\\n     * if there is none.\\n     *\\n     * NOTE: This is a variant of {upperLookup} that is optimised to find \\\"recent\\\" checkpoint (checkpoints with high\\n     * keys).\\n     */\\n    function upperLookupRecent(Trace224 storage self, uint32 key) internal view returns (uint224) {\\n        uint256 len = self._checkpoints.length;\\n\\n        uint256 low = 0;\\n        uint256 high = len;\\n\\n        if (len > 5) {\\n            uint256 mid = len - Math.sqrt(len);\\n            if (key < _unsafeAccess(self._checkpoints, mid)._key) {\\n                high = mid;\\n            } else {\\n                low = mid + 1;\\n            }\\n        }\\n\\n        uint256 pos = _upperBinaryLookup(self._checkpoints, key, low, high);\\n\\n        return pos == 0 ? 0 : _unsafeAccess(self._checkpoints, pos - 1)._value;\\n    }\\n\\n    /**\\n     * @dev Returns the value in the most recent checkpoint, or zero if there are no checkpoints.\\n     */\\n    function latest(Trace224 storage self) internal view returns (uint224) {\\n        uint256 pos = self._checkpoints.length;\\n        return pos == 0 ? 0 : _unsafeAccess(self._checkpoints, pos - 1)._value;\\n    }\\n\\n    /**\\n     * @dev Returns whether there is a checkpoint in the structure (i.e. it is not empty), and if so the key and value\\n     * in the most recent checkpoint.\\n     */\\n    function latestCheckpoint(Trace224 storage self) internal view returns (bool exists, uint32 _key, uint224 _value) {\\n        uint256 pos = self._checkpoints.length;\\n        if (pos == 0) {\\n            return (false, 0, 0);\\n        } else {\\n            Checkpoint224 memory ckpt = _unsafeAccess(self._checkpoints, pos - 1);\\n            return (true, ckpt._key, ckpt._value);\\n        }\\n    }\\n\\n    /**\\n     * @dev Returns the number of checkpoint.\\n     */\\n    function length(Trace224 storage self) internal view returns (uint256) {\\n        return self._checkpoints.length;\\n    }\\n\\n    /**\\n     * @dev Returns checkpoint at given position.\\n     */\\n    function at(Trace224 storage self, uint32 pos) internal view returns (Checkpoint224 memory) {\\n        return self._checkpoints[pos];\\n    }\\n\\n    /**\\n     * @dev Pushes a (`key`, `value`) pair into an ordered list of checkpoints, either by inserting a new checkpoint,\\n     * or by updating the last one.\\n     */\\n    function _insert(Checkpoint224[] storage self, uint32 key, uint224 value) private returns (uint224, uint224) {\\n        uint256 pos = self.length;\\n\\n        if (pos > 0) {\\n            // Copying to memory is important here.\\n            Checkpoint224 memory last = _unsafeAccess(self, pos - 1);\\n\\n            // Checkpoint keys must be non-decreasing.\\n            if (last._key > key) {\\n                revert CheckpointUnorderedInsertion();\\n            }\\n\\n            // Update or push new checkpoint\\n            if (last._key == key) {\\n                _unsafeAccess(self, pos - 1)._value = value;\\n            } else {\\n                self.push(Checkpoint224({_key: key, _value: value}));\\n            }\\n            return (last._value, value);\\n        } else {\\n            self.push(Checkpoint224({_key: key, _value: value}));\\n            return (0, value);\\n        }\\n    }\\n\\n    /**\\n     * @dev Return the index of the last (most recent) checkpoint with key lower or equal than the search key, or `high`\\n     * if there is none. `low` and `high` define a section where to do the search, with inclusive `low` and exclusive\\n     * `high`.\\n     *\\n     * WARNING: `high` should not be greater than the array's length.\\n     */\\n    function _upperBinaryLookup(\\n        Checkpoint224[] storage self,\\n        uint32 key,\\n        uint256 low,\\n        uint256 high\\n    ) private view returns (uint256) {\\n        while (low < high) {\\n            uint256 mid = Math.average(low, high);\\n            if (_unsafeAccess(self, mid)._key > key) {\\n                high = mid;\\n            } else {\\n                low = mid + 1;\\n            }\\n        }\\n        return high;\\n    }\\n\\n    /**\\n     * @dev Return the index of the first (oldest) checkpoint with key is greater or equal than the search key, or\\n     * `high` if there is none. `low` and `high` define a section where to do the search, with inclusive `low` and\\n     * exclusive `high`.\\n     *\\n     * WARNING: `high` should not be greater than the array's length.\\n     */\\n    function _lowerBinaryLookup(\\n        Checkpoint224[] storage self,\\n        uint32 key,\\n        uint256 low,\\n        uint256 high\\n    ) private view returns (uint256) {\\n        while (low < high) {\\n            uint256 mid = Math.average(low, high);\\n            if (_unsafeAccess(self, mid)._key < key) {\\n                low = mid + 1;\\n            } else {\\n                high = mid;\\n            }\\n        }\\n        return high;\\n    }\\n\\n    /**\\n     * @dev Access an element of the array without performing bounds check. The position is assumed to be within bounds.\\n     */\\n    function _unsafeAccess(\\n        Checkpoint224[] storage self,\\n        uint256 pos\\n    ) private pure returns (Checkpoint224 storage result) {\\n        assembly {\\n            mstore(0, self.slot)\\n            result.slot := add(keccak256(0, 0x20), pos)\\n        }\\n    }\\n\\n    struct Trace208 {\\n        Checkpoint208[] _checkpoints;\\n    }\\n\\n    struct Checkpoint208 {\\n        uint48 _key;\\n        uint208 _value;\\n    }\\n\\n    /**\\n     * @dev Pushes a (`key`, `value`) pair into a Trace208 so that it is stored as the checkpoint.\\n     *\\n     * Returns previous value and new value.\\n     *\\n     * IMPORTANT: Never accept `key` as a user input, since an arbitrary `type(uint48).max` key set will disable the\\n     * library.\\n     */\\n    function push(Trace208 storage self, uint48 key, uint208 value) internal returns (uint208, uint208) {\\n        return _insert(self._checkpoints, key, value);\\n    }\\n\\n    /**\\n     * @dev Returns the value in the first (oldest) checkpoint with key greater or equal than the search key, or zero if\\n     * there is none.\\n     */\\n    function lowerLookup(Trace208 storage self, uint48 key) internal view returns (uint208) {\\n        uint256 len = self._checkpoints.length;\\n        uint256 pos = _lowerBinaryLookup(self._checkpoints, key, 0, len);\\n        return pos == len ? 0 : _unsafeAccess(self._checkpoints, pos)._value;\\n    }\\n\\n    /**\\n     * @dev Returns the value in the last (most recent) checkpoint with key lower or equal than the search key, or zero\\n     * if there is none.\\n     */\\n    function upperLookup(Trace208 storage self, uint48 key) internal view returns (uint208) {\\n        uint256 len = self._checkpoints.length;\\n        uint256 pos = _upperBinaryLookup(self._checkpoints, key, 0, len);\\n        return pos == 0 ? 0 : _unsafeAccess(self._checkpoints, pos - 1)._value;\\n    }\\n\\n    /**\\n     * @dev Returns the value in the last (most recent) checkpoint with key lower or equal than the search key, or zero\\n     * if there is none.\\n     *\\n     * NOTE: This is a variant of {upperLookup} that is optimised to find \\\"recent\\\" checkpoint (checkpoints with high\\n     * keys).\\n     */\\n    function upperLookupRecent(Trace208 storage self, uint48 key) internal view returns (uint208) {\\n        uint256 len = self._checkpoints.length;\\n\\n        uint256 low = 0;\\n        uint256 high = len;\\n\\n        if (len > 5) {\\n            uint256 mid = len - Math.sqrt(len);\\n            if (key < _unsafeAccess(self._checkpoints, mid)._key) {\\n                high = mid;\\n            } else {\\n                low = mid + 1;\\n            }\\n        }\\n\\n        uint256 pos = _upperBinaryLookup(self._checkpoints, key, low, high);\\n\\n        return pos == 0 ? 0 : _unsafeAccess(self._checkpoints, pos - 1)._value;\\n    }\\n\\n    /**\\n     * @dev Returns the value in the most recent checkpoint, or zero if there are no checkpoints.\\n     */\\n    function latest(Trace208 storage self) internal view returns (uint208) {\\n        uint256 pos = self._checkpoints.length;\\n        return pos == 0 ? 0 : _unsafeAccess(self._checkpoints, pos - 1)._value;\\n    }\\n\\n    /**\\n     * @dev Returns whether there is a checkpoint in the structure (i.e. it is not empty), and if so the key and value\\n     * in the most recent checkpoint.\\n     */\\n    function latestCheckpoint(Trace208 storage self) internal view returns (bool exists, uint48 _key, uint208 _value) {\\n        uint256 pos = self._checkpoints.length;\\n        if (pos == 0) {\\n            return (false, 0, 0);\\n        } else {\\n            Checkpoint208 memory ckpt = _unsafeAccess(self._checkpoints, pos - 1);\\n            return (true, ckpt._key, ckpt._value);\\n        }\\n    }\\n\\n    /**\\n     * @dev Returns the number of checkpoint.\\n     */\\n    function length(Trace208 storage self) internal view returns (uint256) {\\n        return self._checkpoints.length;\\n    }\\n\\n    /**\\n     * @dev Returns checkpoint at given position.\\n     */\\n    function at(Trace208 storage self, uint32 pos) internal view returns (Checkpoint208 memory) {\\n        return self._checkpoints[pos];\\n    }\\n\\n    /**\\n     * @dev Pushes a (`key`, `value`) pair into an ordered list of checkpoints, either by inserting a new checkpoint,\\n     * or by updating the last one.\\n     */\\n    function _insert(Checkpoint208[] storage self, uint48 key, uint208 value) private returns (uint208, uint208) {\\n        uint256 pos = self.length;\\n\\n        if (pos > 0) {\\n            // Copying to memory is important here.\\n            Checkpoint208 memory last = _unsafeAccess(self, pos - 1);\\n\\n            // Checkpoint keys must be non-decreasing.\\n            if (last._key > key) {\\n                revert CheckpointUnorderedInsertion();\\n            }\\n\\n            // Update or push new checkpoint\\n            if (last._key == key) {\\n                _unsafeAccess(self, pos - 1)._value = value;\\n            } else {\\n                self.push(Checkpoint208({_key: key, _value: value}));\\n            }\\n            return (last._value, value);\\n        } else {\\n            self.push(Checkpoint208({_key: key, _value: value}));\\n            return (0, value);\\n        }\\n    }\\n\\n    /**\\n     * @dev Return the index of the last (most recent) checkpoint with key lower or equal than the search key, or `high`\\n     * if there is none. `low` and `high` define a section where to do the search, with inclusive `low` and exclusive\\n     * `high`.\\n     *\\n     * WARNING: `high` should not be greater than the array's length.\\n     */\\n    function _upperBinaryLookup(\\n        Checkpoint208[] storage self,\\n        uint48 key,\\n        uint256 low,\\n        uint256 high\\n    ) private view returns (uint256) {\\n        while (low < high) {\\n            uint256 mid = Math.average(low, high);\\n            if (_unsafeAccess(self, mid)._key > key) {\\n                high = mid;\\n            } else {\\n                low = mid + 1;\\n            }\\n        }\\n        return high;\\n    }\\n\\n    /**\\n     * @dev Return the index of the first (oldest) checkpoint with key is greater or equal than the search key, or\\n     * `high` if there is none. `low` and `high` define a section where to do the search, with inclusive `low` and\\n     * exclusive `high`.\\n     *\\n     * WARNING: `high` should not be greater than the array's length.\\n     */\\n    function _lowerBinaryLookup(\\n        Checkpoint208[] storage self,\\n        uint48 key,\\n        uint256 low,\\n        uint256 high\\n    ) private view returns (uint256) {\\n        while (low < high) {\\n            uint256 mid = Math.average(low, high);\\n            if (_unsafeAccess(self, mid)._key < key) {\\n                low = mid + 1;\\n            } else {\\n                high = mid;\\n            }\\n        }\\n        return high;\\n    }\\n\\n    /**\\n     * @dev Access an element of the array without performing bounds check. The position is assumed to be within bounds.\\n     */\\n    function _unsafeAccess(\\n        Checkpoint208[] storage self,\\n        uint256 pos\\n    ) private pure returns (Checkpoint208 storage result) {\\n        assembly {\\n            mstore(0, self.slot)\\n            result.slot := add(keccak256(0, 0x20), pos)\\n        }\\n    }\\n\\n    struct Trace160 {\\n        Checkpoint160[] _checkpoints;\\n    }\\n\\n    struct Checkpoint160 {\\n        uint96 _key;\\n        uint160 _value;\\n    }\\n\\n    /**\\n     * @dev Pushes a (`key`, `value`) pair into a Trace160 so that it is stored as the checkpoint.\\n     *\\n     * Returns previous value and new value.\\n     *\\n     * IMPORTANT: Never accept `key` as a user input, since an arbitrary `type(uint96).max` key set will disable the\\n     * library.\\n     */\\n    function push(Trace160 storage self, uint96 key, uint160 value) internal returns (uint160, uint160) {\\n        return _insert(self._checkpoints, key, value);\\n    }\\n\\n    /**\\n     * @dev Returns the value in the first (oldest) checkpoint with key greater or equal than the search key, or zero if\\n     * there is none.\\n     */\\n    function lowerLookup(Trace160 storage self, uint96 key) internal view returns (uint160) {\\n        uint256 len = self._checkpoints.length;\\n        uint256 pos = _lowerBinaryLookup(self._checkpoints, key, 0, len);\\n        return pos == len ? 0 : _unsafeAccess(self._checkpoints, pos)._value;\\n    }\\n\\n    /**\\n     * @dev Returns the value in the last (most recent) checkpoint with key lower or equal than the search key, or zero\\n     * if there is none.\\n     */\\n    function upperLookup(Trace160 storage self, uint96 key) internal view returns (uint160) {\\n        uint256 len = self._checkpoints.length;\\n        uint256 pos = _upperBinaryLookup(self._checkpoints, key, 0, len);\\n        return pos == 0 ? 0 : _unsafeAccess(self._checkpoints, pos - 1)._value;\\n    }\\n\\n    /**\\n     * @dev Returns the value in the last (most recent) checkpoint with key lower or equal than the search key, or zero\\n     * if there is none.\\n     *\\n     * NOTE: This is a variant of {upperLookup} that is optimised to find \\\"recent\\\" checkpoint (checkpoints with high\\n     * keys).\\n     */\\n    function upperLookupRecent(Trace160 storage self, uint96 key) internal view returns (uint160) {\\n        uint256 len = self._checkpoints.length;\\n\\n        uint256 low = 0;\\n        uint256 high = len;\\n\\n        if (len > 5) {\\n            uint256 mid = len - Math.sqrt(len);\\n            if (key < _unsafeAccess(self._checkpoints, mid)._key) {\\n                high = mid;\\n            } else {\\n                low = mid + 1;\\n            }\\n        }\\n\\n        uint256 pos = _upperBinaryLookup(self._checkpoints, key, low, high);\\n\\n        return pos == 0 ? 0 : _unsafeAccess(self._checkpoints, pos - 1)._value;\\n    }\\n\\n    /**\\n     * @dev Returns the value in the most recent checkpoint, or zero if there are no checkpoints.\\n     */\\n    function latest(Trace160 storage self) internal view returns (uint160) {\\n        uint256 pos = self._checkpoints.length;\\n        return pos == 0 ? 0 : _unsafeAccess(self._checkpoints, pos - 1)._value;\\n    }\\n\\n    /**\\n     * @dev Returns whether there is a checkpoint in the structure (i.e. it is not empty), and if so the key and value\\n     * in the most recent checkpoint.\\n     */\\n    function latestCheckpoint(Trace160 storage self) internal view returns (bool exists, uint96 _key, uint160 _value) {\\n        uint256 pos = self._checkpoints.length;\\n        if (pos == 0) {\\n            return (false, 0, 0);\\n        } else {\\n            Checkpoint160 memory ckpt = _unsafeAccess(self._checkpoints, pos - 1);\\n            return (true, ckpt._key, ckpt._value);\\n        }\\n    }\\n\\n    /**\\n     * @dev Returns the number of checkpoint.\\n     */\\n    function length(Trace160 storage self) internal view returns (uint256) {\\n        return self._checkpoints.length;\\n    }\\n\\n    /**\\n     * @dev Returns checkpoint at given position.\\n     */\\n    function at(Trace160 storage self, uint32 pos) internal view returns (Checkpoint160 memory) {\\n        return self._checkpoints[pos];\\n    }\\n\\n    /**\\n     * @dev Pushes a (`key`, `value`) pair into an ordered list of checkpoints, either by inserting a new checkpoint,\\n     * or by updating the last one.\\n     */\\n    function _insert(Checkpoint160[] storage self, uint96 key, uint160 value) private returns (uint160, uint160) {\\n        uint256 pos = self.length;\\n\\n        if (pos > 0) {\\n            // Copying to memory is important here.\\n            Checkpoint160 memory last = _unsafeAccess(self, pos - 1);\\n\\n            // Checkpoint keys must be non-decreasing.\\n            if (last._key > key) {\\n                revert CheckpointUnorderedInsertion();\\n            }\\n\\n            // Update or push new checkpoint\\n            if (last._key == key) {\\n                _unsafeAccess(self, pos - 1)._value = value;\\n            } else {\\n                self.push(Checkpoint160({_key: key, _value: value}));\\n            }\\n            return (last._value, value);\\n        } else {\\n            self.push(Checkpoint160({_key: key, _value: value}));\\n            return (0, value);\\n        }\\n    }\\n\\n    /**\\n     * @dev Return the index of the last (most recent) checkpoint with key lower or equal than the search key, or `high`\\n     * if there is none. `low` and `high` define a section where to do the search, with inclusive `low` and exclusive\\n     * `high`.\\n     *\\n     * WARNING: `high` should not be greater than the array's length.\\n     */\\n    function _upperBinaryLookup(\\n        Checkpoint160[] storage self,\\n        uint96 key,\\n        uint256 low,\\n        uint256 high\\n    ) private view returns (uint256) {\\n        while (low < high) {\\n            uint256 mid = Math.average(low, high);\\n            if (_unsafeAccess(self, mid)._key > key) {\\n                high = mid;\\n            } else {\\n                low = mid + 1;\\n            }\\n        }\\n        return high;\\n    }\\n\\n    /**\\n     * @dev Return the index of the first (oldest) checkpoint with key is greater or equal than the search key, or\\n     * `high` if there is none. `low` and `high` define a section where to do the search, with inclusive `low` and\\n     * exclusive `high`.\\n     *\\n     * WARNING: `high` should not be greater than the array's length.\\n     */\\n    function _lowerBinaryLookup(\\n        Checkpoint160[] storage self,\\n        uint96 key,\\n        uint256 low,\\n        uint256 high\\n    ) private view returns (uint256) {\\n        while (low < high) {\\n            uint256 mid = Math.average(low, high);\\n            if (_unsafeAccess(self, mid)._key < key) {\\n                low = mid + 1;\\n            } else {\\n                high = mid;\\n            }\\n        }\\n        return high;\\n    }\\n\\n    /**\\n     * @dev Access an element of the array without performing bounds check. The position is assumed to be within bounds.\\n     */\\n    function _unsafeAccess(\\n        Checkpoint160[] storage self,\\n        uint256 pos\\n    ) private pure returns (Checkpoint160 storage result) {\\n        assembly {\\n            mstore(0, self.slot)\\n            result.slot := add(keccak256(0, 0x20), pos)\\n        }\\n    }\\n}\\n\"},\"@openzeppelin/contracts@5.0.1/utils/math/SafeCast.sol\":{\"content\":\"// SPDX-License-Identifier: MIT\\n// OpenZeppelin Contracts (last updated v5.0.0) (utils/math/SafeCast.sol)\\n// This file was procedurally generated from scripts/generate/templates/SafeCast.js.\\n\\npragma solidity ^0.8.20;\\n\\n/**\\n * @dev Wrappers over Solidity's uintXX/intXX casting operators with added overflow\\n * checks.\\n *\\n * Downcasting from uint256/int256 in Solidity does not revert on overflow. This can\\n * easily result in undesired exploitation or bugs, since developers usually\\n * assume that overflows raise errors. `SafeCast` restores this intuition by\\n * reverting the transaction when such an operation overflows.\\n *\\n * Using this library instead of the unchecked operations eliminates an entire\\n * class of bugs, so it's recommended to use it always.\\n */\\nlibrary SafeCast {\\n    /**\\n     * @dev Value doesn't fit in an uint of `bits` size.\\n     */\\n    error SafeCastOverflowedUintDowncast(uint8 bits, uint256 value);\\n\\n    /**\\n     * @dev An int value doesn't fit in an uint of `bits` size.\\n     */\\n    error SafeCastOverflowedIntToUint(int256 value);\\n\\n    /**\\n     * @dev Value doesn't fit in an int of `bits` size.\\n     */\\n    error SafeCastOverflowedIntDowncast(uint8 bits, int256 value);\\n\\n    /**\\n     * @dev An uint value doesn't fit in an int of `bits` size.\\n     */\\n    error SafeCastOverflowedUintToInt(uint256 value);\\n\\n    /**\\n     * @dev Returns the downcasted uint248 from uint256, reverting on\\n     * overflow (when the input is greater than largest uint248).\\n     *\\n     * Counterpart to Solidity's `uint248` operator.\\n     *\\n     * Requirements:\\n     *\\n     * - input must fit into 248 bits\\n     */\\n    function toUint248(uint256 value) internal pure returns (uint248) {\\n        if (value > type(uint248).max) {\\n            revert SafeCastOverflowedUintDowncast(248, value);\\n        }\\n        return uint248(value);\\n    }\\n\\n    /**\\n     * @dev Returns the downcasted uint240 from uint256, reverting on\\n     * overflow (when the input is greater than largest uint240).\\n     *\\n     * Counterpart to Solidity's `uint240` operator.\\n     *\\n     * Requirements:\\n     *\\n     * - input must fit into 240 bits\\n     */\\n    function toUint240(uint256 value) internal pure returns (uint240) {\\n        if (value > type(uint240).max) {\\n            revert SafeCastOverflowedUintDowncast(240, value);\\n        }\\n        return uint240(value);\\n    }\\n\\n    /**\\n     * @dev Returns the downcasted uint232 from uint256, reverting on\\n     * overflow (when the input is greater than largest uint232).\\n     *\\n     * Counterpart to Solidity's `uint232` operator.\\n     *\\n     * Requirements:\\n     *\\n     * - input must fit into 232 bits\\n     */\\n    function toUint232(uint256 value) internal pure returns (uint232) {\\n        if (value > type(uint232).max) {\\n            revert SafeCastOverflowedUintDowncast(232, value);\\n        }\\n        return uint232(value);\\n    }\\n\\n    /**\\n     * @dev Returns the downcasted uint224 from uint256, reverting on\\n     * overflow (when the input is greater than largest uint224).\\n     *\\n     * Counterpart to Solidity's `uint224` operator.\\n     *\\n     * Requirements:\\n     *\\n     * - input must fit into 224 bits\\n     */\\n    function toUint224(uint256 value) internal pure returns (uint224) {\\n        if (value > type(uint224).max) {\\n            revert SafeCastOverflowedUintDowncast(224, value);\\n        }\\n        return uint224(value);\\n    }\\n\\n    /**\\n     * @dev Returns the downcasted uint216 from uint256, reverting on\\n     * overflow (when the input is greater than largest uint216).\\n     *\\n     * Counterpart to Solidity's `uint216` operator.\\n     *\\n     * Requirements:\\n     *\\n     * - input must fit into 216 bits\\n     */\\n    function toUint216(uint256 value) internal pure returns (uint216) {\\n        if (value > type(uint216).max) {\\n            revert SafeCastOverflowedUintDowncast(216, value);\\n        }\\n        return uint216(value);\\n    }\\n\\n    /**\\n     * @dev Returns the downcasted uint208 from uint256, reverting on\\n     * overflow (when the input is greater than largest uint208).\\n     *\\n     * Counterpart to Solidity's `uint208` operator.\\n     *\\n     * Requirements:\\n     *\\n     * - input must fit into 208 bits\\n     */\\n    function toUint208(uint256 value) internal pure returns (uint208) {\\n        if (value > type(uint208).max) {\\n            revert SafeCastOverflowedUintDowncast(208, value);\\n        }\\n        return uint208(value);\\n    }\\n\\n    /**\\n     * @dev Returns the downcasted uint200 from uint256, reverting on\\n     * overflow (when the input is greater than largest uint200).\\n     *\\n     * Counterpart to Solidity's `uint200` operator.\\n     *\\n     * Requirements:\\n     *\\n     * - input must fit into 200 bits\\n     */\\n    function toUint200(uint256 value) internal pure returns (uint200) {\\n        if (value > type(uint200).max) {\\n            revert SafeCastOverflowedUintDowncast(200, value);\\n        }\\n        return uint200(value);\\n    }\\n\\n    /**\\n     * @dev Returns the downcasted uint192 from uint256, reverting on\\n     * overflow (when the input is greater than largest uint192).\\n     *\\n     * Counterpart to Solidity's `uint192` operator.\\n     *\\n     * Requirements:\\n     *\\n     * - input must fit into 192 bits\\n     */\\n    function toUint192(uint256 value) internal pure returns (uint192) {\\n        if (value > type(uint192).max) {\\n            revert SafeCastOverflowedUintDowncast(192, value);\\n        }\\n        return uint192(value);\\n    }\\n\\n    /**\\n     * @dev Returns the downcasted uint184 from uint256, reverting on\\n     * overflow (when the input is greater than largest uint184).\\n     *\\n     * Counterpart to Solidity's `uint184` operator.\\n     *\\n     * Requirements:\\n     *\\n     * - input must fit into 184 bits\\n     */\\n    function toUint184(uint256 value) internal pure returns (uint184) {\\n        if (value > type(uint184).max) {\\n            revert SafeCastOverflowedUintDowncast(184, value);\\n        }\\n        return uint184(value);\\n    }\\n\\n    /**\\n     * @dev Returns the downcasted uint176 from uint256, reverting on\\n     * overflow (when the input is greater than largest uint176).\\n     *\\n     * Counterpart to Solidity's `uint176` operator.\\n     *\\n     * Requirements:\\n     *\\n     * - input must fit into 176 bits\\n     */\\n    function toUint176(uint256 value) internal pure returns (uint176) {\\n        if (value > type(uint176).max) {\\n            revert SafeCastOverflowedUintDowncast(176, value);\\n        }\\n        return uint176(value);\\n    }\\n\\n    /**\\n     * @dev Returns the downcasted uint168 from uint256, reverting on\\n     * overflow (when the input is greater than largest uint168).\\n     *\\n     * Counterpart to Solidity's `uint168` operator.\\n     *\\n     * Requirements:\\n     *\\n     * - input must fit into 168 bits\\n     */\\n    function toUint168(uint256 value) internal pure returns (uint168) {\\n        if (value > type(uint168).max) {\\n            revert SafeCastOverflowedUintDowncast(168, value);\\n        }\\n        return uint168(value);\\n    }\\n\\n    /**\\n     * @dev Returns the downcasted uint160 from uint256, reverting on\\n     * overflow (when the input is greater than largest uint160).\\n     *\\n     * Counterpart to Solidity's `uint160` operator.\\n     *\\n     * Requirements:\\n     *\\n     * - input must fit into 160 bits\\n     */\\n    function toUint160(uint256 value) internal pure returns (uint160) {\\n        if (value > type(uint160).max) {\\n            revert SafeCastOverflowedUintDowncast(160, value);\\n        }\\n        return uint160(value);\\n    }\\n\\n    /**\\n     * @dev Returns the downcasted uint152 from uint256, reverting on\\n     * overflow (when the input is greater than largest uint152).\\n     *\\n     * Counterpart to Solidity's `uint152` operator.\\n     *\\n     * Requirements:\\n     *\\n     * - input must fit into 152 bits\\n     */\\n    function toUint152(uint256 value) internal pure returns (uint152) {\\n        if (value > type(uint152).max) {\\n            revert SafeCastOverflowedUintDowncast(152, value);\\n        }\\n        return uint152(value);\\n    }\\n\\n    /**\\n     * @dev Returns the downcasted uint144 from uint256, reverting on\\n     * overflow (when the input is greater than largest uint144).\\n     *\\n     * Counterpart to Solidity's `uint144` operator.\\n     *\\n     * Requirements:\\n     *\\n     * - input must fit into 144 bits\\n     */\\n    function toUint144(uint256 value) internal pure returns (uint144) {\\n        if (value > type(uint144).max) {\\n            revert SafeCastOverflowedUintDowncast(144, value);\\n        }\\n        return uint144(value);\\n    }\\n\\n    /**\\n     * @dev Returns the downcasted uint136 from uint256, reverting on\\n     * overflow (when the input is greater than largest uint136).\\n     *\\n     * Counterpart to Solidity's `uint136` operator.\\n     *\\n     * Requirements:\\n     *\\n     * - input must fit into 136 bits\\n     */\\n    function toUint136(uint256 value) internal pure returns (uint136) {\\n        if (value > type(uint136).max) {\\n            revert SafeCastOverflowedUintDowncast(136, value);\\n        }\\n        return uint136(value);\\n    }\\n\\n    /**\\n     * @dev Returns the downcasted uint128 from uint256, reverting on\\n     * overflow (when the input is greater than largest uint128).\\n     *\\n     * Counterpart to Solidity's `uint128` operator.\\n     *\\n     * Requirements:\\n     *\\n     * - input must fit into 128 bits\\n     */\\n    function toUint128(uint256 value) internal pure returns (uint128) {\\n        if (value > type(uint128).max) {\\n            revert SafeCastOverflowedUintDowncast(128, value);\\n        }\\n        return uint128(value);\\n    }\\n\\n    /**\\n     * @dev Returns the downcasted uint120 from uint256, reverting on\\n     * overflow (when the input is greater than largest uint120).\\n     *\\n     * Counterpart to Solidity's `uint120` operator.\\n     *\\n     * Requirements:\\n     *\\n     * - input must fit into 120 bits\\n     */\\n    function toUint120(uint256 value) internal pure returns (uint120) {\\n        if (value > type(uint120).max) {\\n            revert SafeCastOverflowedUintDowncast(120, value);\\n        }\\n        return uint120(value);\\n    }\\n\\n    /**\\n     * @dev Returns the downcasted uint112 from uint256, reverting on\\n     * overflow (when the input is greater than largest uint112).\\n     *\\n     * Counterpart to Solidity's `uint112` operator.\\n     *\\n     * Requirements:\\n     *\\n     * - input must fit into 112 bits\\n     */\\n    function toUint112(uint256 value) internal pure returns (uint112) {\\n        if (value > type(uint112).max) {\\n            revert SafeCastOverflowedUintDowncast(112, value);\\n        }\\n        return uint112(value);\\n    }\\n\\n    /**\\n     * @dev Returns the downcasted uint104 from uint256, reverting on\\n     * overflow (when the input is greater than largest uint104).\\n     *\\n     * Counterpart to Solidity's `uint104` operator.\\n     *\\n     * Requirements:\\n     *\\n     * - input must fit into 104 bits\\n     */\\n    function toUint104(uint256 value) internal pure returns (uint104) {\\n        if (value > type(uint104).max) {\\n            revert SafeCastOverflowedUintDowncast(104, value);\\n        }\\n        return uint104(value);\\n    }\\n\\n    /**\\n     * @dev Returns the downcasted uint96 from uint256, reverting on\\n     * overflow (when the input is greater than largest uint96).\\n     *\\n     * Counterpart to Solidity's `uint96` operator.\\n     *\\n     * Requirements:\\n     *\\n     * - input must fit into 96 bits\\n     */\\n    function toUint96(uint256 value) internal pure returns (uint96) {\\n        if (value > type(uint96).max) {\\n            revert SafeCastOverflowedUintDowncast(96, value);\\n        }\\n        return uint96(value);\\n    }\\n\\n    /**\\n     * @dev Returns the downcasted uint88 from uint256, reverting on\\n     * overflow (when the input is greater than largest uint88).\\n     *\\n     * Counterpart to Solidity's `uint88` operator.\\n     *\\n     * Requirements:\\n     *\\n     * - input must fit into 88 bits\\n     */\\n    function toUint88(uint256 value) internal pure returns (uint88) {\\n        if (value > type(uint88).max) {\\n            revert SafeCastOverflowedUintDowncast(88, value);\\n        }\\n        return uint88(value);\\n    }\\n\\n    /**\\n     * @dev Returns the downcasted uint80 from uint256, reverting on\\n     * overflow (when the input is greater than largest uint80).\\n     *\\n     * Counterpart to Solidity's `uint80` operator.\\n     *\\n     * Requirements:\\n     *\\n     * - input must fit into 80 bits\\n     */\\n    function toUint80(uint256 value) internal pure returns (uint80) {\\n        if (value > type(uint80).max) {\\n            revert SafeCastOverflowedUintDowncast(80, value);\\n        }\\n        return uint80(value);\\n    }\\n\\n    /**\\n     * @dev Returns the downcasted uint72 from uint256, reverting on\\n     * overflow (when the input is greater than largest uint72).\\n     *\\n     * Counterpart to Solidity's `uint72` operator.\\n     *\\n     * Requirements:\\n     *\\n     * - input must fit into 72 bits\\n     */\\n    function toUint72(uint256 value) internal pure returns (uint72) {\\n        if (value > type(uint72).max) {\\n            revert SafeCastOverflowedUintDowncast(72, value);\\n        }\\n        return uint72(value);\\n    }\\n\\n    /**\\n     * @dev Returns the downcasted uint64 from uint256, reverting on\\n     * overflow (when the input is greater than largest uint64).\\n     *\\n     * Counterpart to Solidity's `uint64` operator.\\n     *\\n     * Requirements:\\n     *\\n     * - input must fit into 64 bits\\n     */\\n    function toUint64(uint256 value) internal pure returns (uint64) {\\n        if (value > type(uint64).max) {\\n            revert SafeCastOverflowedUintDowncast(64, value);\\n        }\\n        return uint64(value);\\n    }\\n\\n    /**\\n     * @dev Returns the downcasted uint56 from uint256, reverting on\\n     * overflow (when the input is greater than largest uint56).\\n     *\\n     * Counterpart to Solidity's `uint56` operator.\\n     *\\n     * Requirements:\\n     *\\n     * - input must fit into 56 bits\\n     */\\n    function toUint56(uint256 value) internal pure returns (uint56) {\\n        if (value > type(uint56).max) {\\n            revert SafeCastOverflowedUintDowncast(56, value);\\n        }\\n        return uint56(value);\\n    }\\n\\n    /**\\n     * @dev Returns the downcasted uint48 from uint256, reverting on\\n     * overflow (when the input is greater than largest uint48).\\n     *\\n     * Counterpart to Solidity's `uint48` operator.\\n     *\\n     * Requirements:\\n     *\\n     * - input must fit into 48 bits\\n     */\\n    function toUint48(uint256 value) internal pure returns (uint48) {\\n        if (value > type(uint48).max) {\\n            revert SafeCastOverflowedUintDowncast(48, value);\\n        }\\n        return uint48(value);\\n    }\\n\\n    /**\\n     * @dev Returns the downcasted uint40 from uint256, reverting on\\n     * overflow (when the input is greater than largest uint40).\\n     *\\n     * Counterpart to Solidity's `uint40` operator.\\n     *\\n     * Requirements:\\n     *\\n     * - input must fit into 40 bits\\n     */\\n    function toUint40(uint256 value) internal pure returns (uint40) {\\n        if (value > type(uint40).max) {\\n            revert SafeCastOverflowedUintDowncast(40, value);\\n        }\\n        return uint40(value);\\n    }\\n\\n    /**\\n     * @dev Returns the downcasted uint32 from uint256, reverting on\\n     * overflow (when the input is greater than largest uint32).\\n     *\\n     * Counterpart to Solidity's `uint32` operator.\\n     *\\n     * Requirements:\\n     *\\n     * - input must fit into 32 bits\\n     */\\n    function toUint32(uint256 value) internal pure returns (uint32) {\\n        if (value > type(uint32).max) {\\n            revert SafeCastOverflowedUintDowncast(32, value);\\n        }\\n        return uint32(value);\\n    }\\n\\n    /**\\n     * @dev Returns the downcasted uint24 from uint256, reverting on\\n     * overflow (when the input is greater than largest uint24).\\n     *\\n     * Counterpart to Solidity's `uint24` operator.\\n     *\\n     * Requirements:\\n     *\\n     * - input must fit into 24 bits\\n     */\\n    function toUint24(uint256 value) internal pure returns (uint24) {\\n        if (value > type(uint24).max) {\\n            revert SafeCastOverflowedUintDowncast(24, value);\\n        }\\n        return uint24(value);\\n    }\\n\\n    /**\\n     * @dev Returns the downcasted uint16 from uint256, reverting on\\n     * overflow (when the input is greater than largest uint16).\\n     *\\n     * Counterpart to Solidity's `uint16` operator.\\n     *\\n     * Requirements:\\n     *\\n     * - input must fit into 16 bits\\n     */\\n    function toUint16(uint256 value) internal pure returns (uint16) {\\n        if (value > type(uint16).max) {\\n            revert SafeCastOverflowedUintDowncast(16, value);\\n        }\\n        return uint16(value);\\n    }\\n\\n    /**\\n     * @dev Returns the downcasted uint8 from uint256, reverting on\\n     * overflow (when the input is greater than largest uint8).\\n     *\\n     * Counterpart to Solidity's `uint8` operator.\\n     *\\n     * Requirements:\\n     *\\n     * - input must fit into 8 bits\\n     */\\n    function toUint8(uint256 value) internal pure returns (uint8) {\\n        if (value > type(uint8).max) {\\n            revert SafeCastOverflowedUintDowncast(8, value);\\n        }\\n        return uint8(value);\\n    }\\n\\n    /**\\n     * @dev Converts a signed int256 into an unsigned uint256.\\n     *\\n     * Requirements:\\n     *\\n     * - input must be greater than or equal to 0.\\n     */\\n    function toUint256(int256 value) internal pure returns (uint256) {\\n        if (value < 0) {\\n            revert SafeCastOverflowedIntToUint(value);\\n        }\\n        return uint256(value);\\n    }\\n\\n    /**\\n     * @dev Returns the downcasted int248 from int256, reverting on\\n     * overflow (when the input is less than smallest int248 or\\n     * greater than largest int248).\\n     *\\n     * Counterpart to Solidity's `int248` operator.\\n     *\\n     * Requirements:\\n     *\\n     * - input must fit into 248 bits\\n     */\\n    function toInt248(int256 value) internal pure returns (int248 downcasted) {\\n        downcasted = int248(value);\\n        if (downcasted != value) {\\n            revert SafeCastOverflowedIntDowncast(248, value);\\n        }\\n    }\\n\\n    /**\\n     * @dev Returns the downcasted int240 from int256, reverting on\\n     * overflow (when the input is less than smallest int240 or\\n     * greater than largest int240).\\n     *\\n     * Counterpart to Solidity's `int240` operator.\\n     *\\n     * Requirements:\\n     *\\n     * - input must fit into 240 bits\\n     */\\n    function toInt240(int256 value) internal pure returns (int240 downcasted) {\\n        downcasted = int240(value);\\n        if (downcasted != value) {\\n            revert SafeCastOverflowedIntDowncast(240, value);\\n        }\\n    }\\n\\n    /**\\n     * @dev Returns the downcasted int232 from int256, reverting on\\n     * overflow (when the input is less than smallest int232 or\\n     * greater than largest int232).\\n     *\\n     * Counterpart to Solidity's `int232` operator.\\n     *\\n     * Requirements:\\n     *\\n     * - input must fit into 232 bits\\n     */\\n    function toInt232(int256 value) internal pure returns (int232 downcasted) {\\n        downcasted = int232(value);\\n        if (downcasted != value) {\\n            revert SafeCastOverflowedIntDowncast(232, value);\\n        }\\n    }\\n\\n    /**\\n     * @dev Returns the downcasted int224 from int256, reverting on\\n     * overflow (when the input is less than smallest int224 or\\n     * greater than largest int224).\\n     *\\n     * Counterpart to Solidity's `int224` operator.\\n     *\\n     * Requirements:\\n     *\\n     * - input must fit into 224 bits\\n     */\\n    function toInt224(int256 value) internal pure returns (int224 downcasted) {\\n        downcasted = int224(value);\\n        if (downcasted != value) {\\n            revert SafeCastOverflowedIntDowncast(224, value);\\n        }\\n    }\\n\\n    /**\\n     * @dev Returns the downcasted int216 from int256, reverting on\\n     * overflow (when the input is less than smallest int216 or\\n     * greater than largest int216).\\n     *\\n     * Counterpart to Solidity's `int216` operator.\\n     *\\n     * Requirements:\\n     *\\n     * - input must fit into 216 bits\\n     */\\n    function toInt216(int256 value) internal pure returns (int216 downcasted) {\\n        downcasted = int216(value);\\n        if (downcasted != value) {\\n            revert SafeCastOverflowedIntDowncast(216, value);\\n        }\\n    }\\n\\n    /**\\n     * @dev Returns the downcasted int208 from int256, reverting on\\n     * overflow (when the input is less than smallest int208 or\\n     * greater than largest int208).\\n     *\\n     * Counterpart to Solidity's `int208` operator.\\n     *\\n     * Requirements:\\n     *\\n     * - input must fit into 208 bits\\n     */\\n    function toInt208(int256 value) internal pure returns (int208 downcasted) {\\n        downcasted = int208(value);\\n        if (downcasted != value) {\\n            revert SafeCastOverflowedIntDowncast(208, value);\\n        }\\n    }\\n\\n    /**\\n     * @dev Returns the downcasted int200 from int256, reverting on\\n     * overflow (when the input is less than smallest int200 or\\n     * greater than largest int200).\\n     *\\n     * Counterpart to Solidity's `int200` operator.\\n     *\\n     * Requirements:\\n     *\\n     * - input must fit into 200 bits\\n     */\\n    function toInt200(int256 value) internal pure returns (int200 downcasted) {\\n        downcasted = int200(value);\\n        if (downcasted != value) {\\n            revert SafeCastOverflowedIntDowncast(200, value);\\n        }\\n    }\\n\\n    /**\\n     * @dev Returns the downcasted int192 from int256, reverting on\\n     * overflow (when the input is less than smallest int192 or\\n     * greater than largest int192).\\n     *\\n     * Counterpart to Solidity's `int192` operator.\\n     *\\n     * Requirements:\\n     *\\n     * - input must fit into 192 bits\\n     */\\n    function toInt192(int256 value) internal pure returns (int192 downcasted) {\\n        downcasted = int192(value);\\n        if (downcasted != value) {\\n            revert SafeCastOverflowedIntDowncast(192, value);\\n        }\\n    }\\n\\n    /**\\n     * @dev Returns the downcasted int184 from int256, reverting on\\n     * overflow (when the input is less than smallest int184 or\\n     * greater than largest int184).\\n     *\\n     * Counterpart to Solidity's `int184` operator.\\n     *\\n     * Requirements:\\n     *\\n     * - input must fit into 184 bits\\n     */\\n    function toInt184(int256 value) internal pure returns (int184 downcasted) {\\n        downcasted = int184(value);\\n        if (downcasted != value) {\\n            revert SafeCastOverflowedIntDowncast(184, value);\\n        }\\n    }\\n\\n    /**\\n     * @dev Returns the downcasted int176 from int256, reverting on\\n     * overflow (when the input is less than smallest int176 or\\n     * greater than largest int176).\\n     *\\n     * Counterpart to Solidity's `int176` operator.\\n     *\\n     * Requirements:\\n     *\\n     * - input must fit into 176 bits\\n     */\\n    function toInt176(int256 value) internal pure returns (int176 downcasted) {\\n        downcasted = int176(value);\\n        if (downcasted != value) {\\n            revert SafeCastOverflowedIntDowncast(176, value);\\n        }\\n    }\\n\\n    /**\\n     * @dev Returns the downcasted int168 from int256, reverting on\\n     * overflow (when the input is less than smallest int168 or\\n     * greater than largest int168).\\n     *\\n     * Counterpart to Solidity's `int168` operator.\\n     *\\n     * Requirements:\\n     *\\n     * - input must fit into 168 bits\\n     */\\n    function toInt168(int256 value) internal pure returns (int168 downcasted) {\\n        downcasted = int168(value);\\n        if (downcasted != value) {\\n            revert SafeCastOverflowedIntDowncast(168, value);\\n        }\\n    }\\n\\n    /**\\n     * @dev Returns the downcasted int160 from int256, reverting on\\n     * overflow (when the input is less than smallest int160 or\\n     * greater than largest int160).\\n     *\\n     * Counterpart to Solidity's `int160` operator.\\n     *\\n     * Requirements:\\n     *\\n     * - input must fit into 160 bits\\n     */\\n    function toInt160(int256 value) internal pure returns (int160 downcasted) {\\n        downcasted = int160(value);\\n        if (downcasted != value) {\\n            revert SafeCastOverflowedIntDowncast(160, value);\\n        }\\n    }\\n\\n    /**\\n     * @dev Returns the downcasted int152 from int256, reverting on\\n     * overflow (when the input is less than smallest int152 or\\n     * greater than largest int152).\\n     *\\n     * Counterpart to Solidity's `int152` operator.\\n     *\\n     * Requirements:\\n     *\\n     * - input must fit into 152 bits\\n     */\\n    function toInt152(int256 value) internal pure returns (int152 downcasted) {\\n        downcasted = int152(value);\\n        if (downcasted != value) {\\n            revert SafeCastOverflowedIntDowncast(152, value);\\n        }\\n    }\\n\\n    /**\\n     * @dev Returns the downcasted int144 from int256, reverting on\\n     * overflow (when the input is less than smallest int144 or\\n     * greater than largest int144).\\n     *\\n     * Counterpart to Solidity's `int144` operator.\\n     *\\n     * Requirements:\\n     *\\n     * - input must fit into 144 bits\\n     */\\n    function toInt144(int256 value) internal pure returns (int144 downcasted) {\\n        downcasted = int144(value);\\n        if (downcasted != value) {\\n            revert SafeCastOverflowedIntDowncast(144, value);\\n        }\\n    }\\n\\n    /**\\n     * @dev Returns the downcasted int136 from int256, reverting on\\n     * overflow (when the input is less than smallest int136 or\\n     * greater than largest int136).\\n     *\\n     * Counterpart to Solidity's `int136` operator.\\n     *\\n     * Requirements:\\n     *\\n     * - input must fit into 136 bits\\n     */\\n    function toInt136(int256 value) internal pure returns (int136 downcasted) {\\n        downcasted = int136(value);\\n        if (downcasted != value) {\\n            revert SafeCastOverflowedIntDowncast(136, value);\\n        }\\n    }\\n\\n    /**\\n     * @dev Returns the downcasted int128 from int256, reverting on\\n     * overflow (when the input is less than smallest int128 or\\n     * greater than largest int128).\\n     *\\n     * Counterpart to Solidity's `int128` operator.\\n     *\\n     * Requirements:\\n     *\\n     * - input must fit into 128 bits\\n     */\\n    function toInt128(int256 value) internal pure returns (int128 downcasted) {\\n        downcasted = int128(value);\\n        if (downcasted != value) {\\n            revert SafeCastOverflowedIntDowncast(128, value);\\n        }\\n    }\\n\\n    /**\\n     * @dev Returns the downcasted int120 from int256, reverting on\\n     * overflow (when the input is less than smallest int120 or\\n     * greater than largest int120).\\n     *\\n     * Counterpart to Solidity's `int120` operator.\\n     *\\n     * Requirements:\\n     *\\n     * - input must fit into 120 bits\\n     */\\n    function toInt120(int256 value) internal pure returns (int120 downcasted) {\\n        downcasted = int120(value);\\n        if (downcasted != value) {\\n            revert SafeCastOverflowedIntDowncast(120, value);\\n        }\\n    }\\n\\n    /**\\n     * @dev Returns the downcasted int112 from int256, reverting on\\n     * overflow (when the input is less than smallest int112 or\\n     * greater than largest int112).\\n     *\\n     * Counterpart to Solidity's `int112` operator.\\n     *\\n     * Requirements:\\n     *\\n     * - input must fit into 112 bits\\n     */\\n    function toInt112(int256 value) internal pure returns (int112 downcasted) {\\n        downcasted = int112(value);\\n        if (downcasted != value) {\\n            revert SafeCastOverflowedIntDowncast(112, value);\\n        }\\n    }\\n\\n    /**\\n     * @dev Returns the downcasted int104 from int256, reverting on\\n     * overflow (when the input is less than smallest int104 or\\n     * greater than largest int104).\\n     *\\n     * Counterpart to Solidity's `int104` operator.\\n     *\\n     * Requirements:\\n     *\\n     * - input must fit into 104 bits\\n     */\\n    function toInt104(int256 value) internal pure returns (int104 downcasted) {\\n        downcasted = int104(value);\\n        if (downcasted != value) {\\n            revert SafeCastOverflowedIntDowncast(104, value);\\n        }\\n    }\\n\\n    /**\\n     * @dev Returns the downcasted int96 from int256, reverting on\\n     * overflow (when the input is less than smallest int96 or\\n     * greater than largest int96).\\n     *\\n     * Counterpart to Solidity's `int96` operator.\\n     *\\n     * Requirements:\\n     *\\n     * - input must fit into 96 bits\\n     */\\n    function toInt96(int256 value) internal pure returns (int96 downcasted) {\\n        downcasted = int96(value);\\n        if (downcasted != value) {\\n            revert SafeCastOverflowedIntDowncast(96, value);\\n        }\\n    }\\n\\n    /**\\n     * @dev Returns the downcasted int88 from int256, reverting on\\n     * overflow (when the input is less than smallest int88 or\\n     * greater than largest int88).\\n     *\\n     * Counterpart to Solidity's `int88` operator.\\n     *\\n     * Requirements:\\n     *\\n     * - input must fit into 88 bits\\n     */\\n    function toInt88(int256 value) internal pure returns (int88 downcasted) {\\n        downcasted = int88(value);\\n        if (downcasted != value) {\\n            revert SafeCastOverflowedIntDowncast(88, value);\\n        }\\n    }\\n\\n    /**\\n     * @dev Returns the downcasted int80 from int256, reverting on\\n     * overflow (when the input is less than smallest int80 or\\n     * greater than largest int80).\\n     *\\n     * Counterpart to Solidity's `int80` operator.\\n     *\\n     * Requirements:\\n     *\\n     * - input must fit into 80 bits\\n     */\\n    function toInt80(int256 value) internal pure returns (int80 downcasted) {\\n        downcasted = int80(value);\\n        if (downcasted != value) {\\n            revert SafeCastOverflowedIntDowncast(80, value);\\n        }\\n    }\\n\\n    /**\\n     * @dev Returns the downcasted int72 from int256, reverting on\\n     * overflow (when the input is less than smallest int72 or\\n     * greater than largest int72).\\n     *\\n     * Counterpart to Solidity's `int72` operator.\\n     *\\n     * Requirements:\\n     *\\n     * - input must fit into 72 bits\\n     */\\n    function toInt72(int256 value) internal pure returns (int72 downcasted) {\\n        downcasted = int72(value);\\n        if (downcasted != value) {\\n            revert SafeCastOverflowedIntDowncast(72, value);\\n        }\\n    }\\n\\n    /**\\n     * @dev Returns the downcasted int64 from int256, reverting on\\n     * overflow (when the input is less than smallest int64 or\\n     * greater than largest int64).\\n     *\\n     * Counterpart to Solidity's `int64` operator.\\n     *\\n     * Requirements:\\n     *\\n     * - input must fit into 64 bits\\n     */\\n    function toInt64(int256 value) internal pure returns (int64 downcasted) {\\n        downcasted = int64(value);\\n        if (downcasted != value) {\\n            revert SafeCastOverflowedIntDowncast(64, value);\\n        }\\n    }\\n\\n    /**\\n     * @dev Returns the downcasted int56 from int256, reverting on\\n     * overflow (when the input is less than smallest int56 or\\n     * greater than largest int56).\\n     *\\n     * Counterpart to Solidity's `int56` operator.\\n     *\\n     * Requirements:\\n     *\\n     * - input must fit into 56 bits\\n     */\\n    function toInt56(int256 value) internal pure returns (int56 downcasted) {\\n        downcasted = int56(value);\\n        if (downcasted != value) {\\n            revert SafeCastOverflowedIntDowncast(56, value);\\n        }\\n    }\\n\\n    /**\\n     * @dev Returns the downcasted int48 from int256, reverting on\\n     * overflow (when the input is less than smallest int48 or\\n     * greater than largest int48).\\n     *\\n     * Counterpart to Solidity's `int48` operator.\\n     *\\n     * Requirements:\\n     *\\n     * - input must fit into 48 bits\\n     */\\n    function toInt48(int256 value) internal pure returns (int48 downcasted) {\\n        downcasted = int48(value);\\n        if (downcasted != value) {\\n            revert SafeCastOverflowedIntDowncast(48, value);\\n        }\\n    }\\n\\n    /**\\n     * @dev Returns the downcasted int40 from int256, reverting on\\n     * overflow (when the input is less than smallest int40 or\\n     * greater than largest int40).\\n     *\\n     * Counterpart to Solidity's `int40` operator.\\n     *\\n     * Requirements:\\n     *\\n     * - input must fit into 40 bits\\n     */\\n    function toInt40(int256 value) internal pure returns (int40 downcasted) {\\n        downcasted = int40(value);\\n        if (downcasted != value) {\\n            revert SafeCastOverflowedIntDowncast(40, value);\\n        }\\n    }\\n\\n    /**\\n     * @dev Returns the downcasted int32 from int256, reverting on\\n     * overflow (when the input is less than smallest int32 or\\n     * greater than largest int32).\\n     *\\n     * Counterpart to Solidity's `int32` operator.\\n     *\\n     * Requirements:\\n     *\\n     * - input must fit into 32 bits\\n     */\\n    function toInt32(int256 value) internal pure returns (int32 downcasted) {\\n        downcasted = int32(value);\\n        if (downcasted != value) {\\n            revert SafeCastOverflowedIntDowncast(32, value);\\n        }\\n    }\\n\\n    /**\\n     * @dev Returns the downcasted int24 from int256, reverting on\\n     * overflow (when the input is less than smallest int24 or\\n     * greater than largest int24).\\n     *\\n     * Counterpart to Solidity's `int24` operator.\\n     *\\n     * Requirements:\\n     *\\n     * - input must fit into 24 bits\\n     */\\n    function toInt24(int256 value) internal pure returns (int24 downcasted) {\\n        downcasted = int24(value);\\n        if (downcasted != value) {\\n            revert SafeCastOverflowedIntDowncast(24, value);\\n        }\\n    }\\n\\n    /**\\n     * @dev Returns the downcasted int16 from int256, reverting on\\n     * overflow (when the input is less than smallest int16 or\\n     * greater than largest int16).\\n     *\\n     * Counterpart to Solidity's `int16` operator.\\n     *\\n     * Requirements:\\n     *\\n     * - input must fit into 16 bits\\n     */\\n    function toInt16(int256 value) internal pure returns (int16 downcasted) {\\n        downcasted = int16(value);\\n        if (downcasted != value) {\\n            revert SafeCastOverflowedIntDowncast(16, value);\\n        }\\n    }\\n\\n    /**\\n     * @dev Returns the downcasted int8 from int256, reverting on\\n     * overflow (when the input is less than smallest int8 or\\n     * greater than largest int8).\\n     *\\n     * Counterpart to Solidity's `int8` operator.\\n     *\\n     * Requirements:\\n     *\\n     * - input must fit into 8 bits\\n     */\\n    function toInt8(int256 value) internal pure returns (int8 downcasted) {\\n        downcasted = int8(value);\\n        if (downcasted != value) {\\n            revert SafeCastOverflowedIntDowncast(8, value);\\n        }\\n    }\\n\\n    /**\\n     * @dev Converts an unsigned uint256 into a signed int256.\\n     *\\n     * Requirements:\\n     *\\n     * - input must be less than or equal to maxInt256.\\n     */\\n    function toInt256(uint256 value) internal pure returns (int256) {\\n        // Note: Unsafe cast below is okay because `type(int256).max` is guaranteed to be positive\\n        if (value > uint256(type(int256).max)) {\\n            revert SafeCastOverflowedUintToInt(value);\\n        }\\n        return int256(value);\\n    }\\n}\\n\"},\"@openzeppelin/contracts@5.0.1/utils/types/Time.sol\":{\"content\":\"// SPDX-License-Identifier: MIT\\n// OpenZeppelin Contracts (last updated v5.0.0) (utils/types/Time.sol)\\n\\npragma solidity ^0.8.20;\\n\\nimport {Math} from \\\"../math/Math.sol\\\";\\nimport {SafeCast} from \\\"../math/SafeCast.sol\\\";\\n\\n/**\\n * @dev This library provides helpers for manipulating time-related objects.\\n *\\n * It uses the following types:\\n * - `uint48` for timepoints\\n * - `uint32` for durations\\n *\\n * While the library doesn't provide specific types for timepoints and duration, it does provide:\\n * - a `Delay` type to represent duration that can be programmed to change value automatically at a given point\\n * - additional helper functions\\n */\\nlibrary Time {\\n    using Time for *;\\n\\n    /**\\n     * @dev Get the block timestamp as a Timepoint.\\n     */\\n    function timestamp() internal view returns (uint48) {\\n        return SafeCast.toUint48(block.timestamp);\\n    }\\n\\n    /**\\n     * @dev Get the block number as a Timepoint.\\n     */\\n    function blockNumber() internal view returns (uint48) {\\n        return SafeCast.toUint48(block.number);\\n    }\\n\\n    // ==================================================== Delay =====================================================\\n    /**\\n     * @dev A `Delay` is a uint32 duration that can be programmed to change value automatically at a given point in the\\n     * future. The \\\"effect\\\" timepoint describes when the transitions happens from the \\\"old\\\" value to the \\\"new\\\" value.\\n     * This allows updating the delay applied to some operation while keeping some guarantees.\\n     *\\n     * In particular, the {update} function guarantees that if the delay is reduced, the old delay still applies for\\n     * some time. For example if the delay is currently 7 days to do an upgrade, the admin should not be able to set\\n     * the delay to 0 and upgrade immediately. If the admin wants to reduce the delay, the old delay (7 days) should\\n     * still apply for some time.\\n     *\\n     *\\n     * The `Delay` type is 112 bits long, and packs the following:\\n     *\\n     * ```\\n     *   | [uint48]: effect date (timepoint)\\n     *   |           | [uint32]: value before (duration)\\n     *                      [uint32]: value after (duration)\\n     * 0xAAAAAAAAAAAABBBBBBBBCCCCCCCC\\n     * ```\\n     *\\n     * NOTE: The {get} and {withUpdate} functions operate using timestamps. Block number based delays are not currently\\n     * supported.\\n     */\\n    type Delay is uint112;\\n\\n    /**\\n     * @dev Wrap a duration into a Delay to add the one-step \\\"update in the future\\\" feature\\n     */\\n    function toDelay(uint32 duration) internal pure returns (Delay) {\\n        return Delay.wrap(duration);\\n    }\\n\\n    /**\\n     * @dev Get the value at a given timepoint plus the pending value and effect timepoint if there is a scheduled\\n     * change after this timepoint. If the effect timepoint is 0, then the pending value should not be considered.\\n     */\\n    function _getFullAt(Delay self, uint48 timepoint) private pure returns (uint32, uint32, uint48) {\\n        (uint32 valueBefore, uint32 valueAfter, uint48 effect) = self.unpack();\\n        return effect <= timepoint ? (valueAfter, 0, 0) : (valueBefore, valueAfter, effect);\\n    }\\n\\n    /**\\n     * @dev Get the current value plus the pending value and effect timepoint if there is a scheduled change. If the\\n     * effect timepoint is 0, then the pending value should not be considered.\\n     */\\n    function getFull(Delay self) internal view returns (uint32, uint32, uint48) {\\n        return _getFullAt(self, timestamp());\\n    }\\n\\n    /**\\n     * @dev Get the current value.\\n     */\\n    function get(Delay self) internal view returns (uint32) {\\n        (uint32 delay, , ) = self.getFull();\\n        return delay;\\n    }\\n\\n    /**\\n     * @dev Update a Delay object so that it takes a new duration after a timepoint that is automatically computed to\\n     * enforce the old delay at the moment of the update. Returns the updated Delay object and the timestamp when the\\n     * new delay becomes effective.\\n     */\\n    function withUpdate(\\n        Delay self,\\n        uint32 newValue,\\n        uint32 minSetback\\n    ) internal view returns (Delay updatedDelay, uint48 effect) {\\n        uint32 value = self.get();\\n        uint32 setback = uint32(Math.max(minSetback, value > newValue ? value - newValue : 0));\\n        effect = timestamp() + setback;\\n        return (pack(value, newValue, effect), effect);\\n    }\\n\\n    /**\\n     * @dev Split a delay into its components: valueBefore, valueAfter and effect (transition timepoint).\\n     */\\n    function unpack(Delay self) internal pure returns (uint32 valueBefore, uint32 valueAfter, uint48 effect) {\\n        uint112 raw = Delay.unwrap(self);\\n\\n        valueAfter = uint32(raw);\\n        valueBefore = uint32(raw >> 32);\\n        effect = uint48(raw >> 64);\\n\\n        return (valueBefore, valueAfter, effect);\\n    }\\n\\n    /**\\n     * @dev pack the components into a Delay object.\\n     */\\n    function pack(uint32 valueBefore, uint32 valueAfter, uint48 effect) internal pure returns (Delay) {\\n        return Delay.wrap((uint112(effect) << 64) | (uint112(valueBefore) << 32) | uint112(valueAfter));\\n    }\\n}\\n\"},\"@openzeppelin/contracts@5.0.1/interfaces/IERC5805.sol\":{\"content\":\"// SPDX-License-Identifier: MIT\\n// OpenZeppelin Contracts (last updated v5.0.0) (interfaces/IERC5805.sol)\\n\\npragma solidity ^0.8.20;\\n\\nimport {IVotes} from \\\"../governance/utils/IVotes.sol\\\";\\nimport {IERC6372} from \\\"./IERC6372.sol\\\";\\n\\ninterface IERC5805 is IERC6372, IVotes {}\\n\"},\"@openzeppelin/contracts@5.0.1/governance/utils/IVotes.sol\":{\"content\":\"// SPDX-License-Identifier: MIT\\n// OpenZeppelin Contracts (last updated v5.0.0) (governance/utils/IVotes.sol)\\npragma solidity ^0.8.20;\\n\\n/**\\n * @dev Common interface for {ERC20Votes}, {ERC721Votes}, and other {Votes}-enabled contracts.\\n */\\ninterface IVotes {\\n    /**\\n     * @dev The signature used has expired.\\n     */\\n    error VotesExpiredSignature(uint256 expiry);\\n\\n    /**\\n     * @dev Emitted when an account changes their delegate.\\n     */\\n    event DelegateChanged(address indexed delegator, address indexed fromDelegate, address indexed toDelegate);\\n\\n    /**\\n     * @dev Emitted when a token transfer or delegate change results in changes to a delegate's number of voting units.\\n     */\\n    event DelegateVotesChanged(address indexed delegate, uint256 previousVotes, uint256 newVotes);\\n\\n    /**\\n     * @dev Returns the current amount of votes that `account` has.\\n     */\\n    function getVotes(address account) external view returns (uint256);\\n\\n    /**\\n     * @dev Returns the amount of votes that `account` had at a specific moment in the past. If the `clock()` is\\n     * configured to use block numbers, this will return the value at the end of the corresponding block.\\n     */\\n    function getPastVotes(address account, uint256 timepoint) external view returns (uint256);\\n\\n    /**\\n     * @dev Returns the total supply of votes available at a specific moment in the past. If the `clock()` is\\n     * configured to use block numbers, this will return the value at the end of the corresponding block.\\n     *\\n     * NOTE: This value is the sum of all available votes, which is not necessarily the sum of all delegated votes.\\n     * Votes that have not been delegated are still part of total supply, even though they would not participate in a\\n     * vote.\\n     */\\n    function getPastTotalSupply(uint256 timepoint) external view returns (uint256);\\n\\n    /**\\n     * @dev Returns the delegate that `account` has chosen.\\n     */\\n    function delegates(address account) external view returns (address);\\n\\n    /**\\n     * @dev Delegates votes from the sender to `delegatee`.\\n     */\\n    function delegate(address delegatee) external;\\n\\n    /**\\n     * @dev Delegates votes from signer to `delegatee`.\\n     */\\n    function delegateBySig(address delegatee, uint256 nonce, uint256 expiry, uint8 v, bytes32 r, bytes32 s) external;\\n}\\n\"},\"@openzeppelin/contracts@5.0.1/interfaces/IERC165.sol\":{\"content\":\"// SPDX-License-Identifier: MIT\\n// OpenZeppelin Contracts (last updated v5.0.0) (interfaces/IERC165.sol)\\n\\npragma solidity ^0.8.20;\\n\\nimport {IERC165} from \\\"../utils/introspection/IERC165.sol\\\";\\n\"},\"@openzeppelin/contracts@5.0.1/governance/TimelockController.sol\":{\"content\":\"// SPDX-License-Identifier: MIT\\n// OpenZeppelin Contracts (last updated v5.0.0) (governance/TimelockController.sol)\\n\\npragma solidity ^0.8.20;\\n\\nimport {AccessControl} from \\\"../access/AccessControl.sol\\\";\\nimport {ERC721Holder} from \\\"../token/ERC721/utils/ERC721Holder.sol\\\";\\nimport {ERC1155Holder} from \\\"../token/ERC1155/utils/ERC1155Holder.sol\\\";\\nimport {Address} from \\\"../utils/Address.sol\\\";\\n\\n/**\\n * @dev Contract module which acts as a timelocked controller. When set as the\\n * owner of an `Ownable` smart contract, it enforces a timelock on all\\n * `onlyOwner` maintenance operations. This gives time for users of the\\n * controlled contract to exit before a potentially dangerous maintenance\\n * operation is applied.\\n *\\n * By default, this contract is self administered, meaning administration tasks\\n * have to go through the timelock process. The proposer (resp executor) role\\n * is in charge of proposing (resp executing) operations. A common use case is\\n * to position this {TimelockController} as the owner of a smart contract, with\\n * a multisig or a DAO as the sole proposer.\\n */\\ncontract TimelockController is AccessControl, ERC721Holder, ERC1155Holder {\\n    bytes32 public constant PROPOSER_ROLE = keccak256(\\\"PROPOSER_ROLE\\\");\\n    bytes32 public constant EXECUTOR_ROLE = keccak256(\\\"EXECUTOR_ROLE\\\");\\n    bytes32 public constant CANCELLER_ROLE = keccak256(\\\"CANCELLER_ROLE\\\");\\n    uint256 internal constant _DONE_TIMESTAMP = uint256(1);\\n\\n    mapping(bytes32 id => uint256) private _timestamps;\\n    uint256 private _minDelay;\\n\\n    enum OperationState {\\n        Unset,\\n        Waiting,\\n        Ready,\\n        Done\\n    }\\n\\n    /**\\n     * @dev Mismatch between the parameters length for an operation call.\\n     */\\n    error TimelockInvalidOperationLength(uint256 targets, uint256 payloads, uint256 values);\\n\\n    /**\\n     * @dev The schedule operation doesn't meet the minimum delay.\\n     */\\n    error TimelockInsufficientDelay(uint256 delay, uint256 minDelay);\\n\\n    /**\\n     * @dev The current state of an operation is not as required.\\n     * The `expectedStates` is a bitmap with the bits enabled for each OperationState enum position\\n     * counting from right to left.\\n     *\\n     * See {_encodeStateBitmap}.\\n     */\\n    error TimelockUnexpectedOperationState(bytes32 operationId, bytes32 expectedStates);\\n\\n    /**\\n     * @dev The predecessor to an operation not yet done.\\n     */\\n    error TimelockUnexecutedPredecessor(bytes32 predecessorId);\\n\\n    /**\\n     * @dev The caller account is not authorized.\\n     */\\n    error TimelockUnauthorizedCaller(address caller);\\n\\n    /**\\n     * @dev Emitted when a call is scheduled as part of operation `id`.\\n     */\\n    event CallScheduled(\\n        bytes32 indexed id,\\n        uint256 indexed index,\\n        address target,\\n        uint256 value,\\n        bytes data,\\n        bytes32 predecessor,\\n        uint256 delay\\n    );\\n\\n    /**\\n     * @dev Emitted when a call is performed as part of operation `id`.\\n     */\\n    event CallExecuted(bytes32 indexed id, uint256 indexed index, address target, uint256 value, bytes data);\\n\\n    /**\\n     * @dev Emitted when new proposal is scheduled with non-zero salt.\\n     */\\n    event CallSalt(bytes32 indexed id, bytes32 salt);\\n\\n    /**\\n     * @dev Emitted when operation `id` is cancelled.\\n     */\\n    event Cancelled(bytes32 indexed id);\\n\\n    /**\\n     * @dev Emitted when the minimum delay for future operations is modified.\\n     */\\n    event MinDelayChange(uint256 oldDuration, uint256 newDuration);\\n\\n    /**\\n     * @dev Initializes the contract with the following parameters:\\n     *\\n     * - `minDelay`: initial minimum delay in seconds for operations\\n     * - `proposers`: accounts to be granted proposer and canceller roles\\n     * - `executors`: accounts to be granted executor role\\n     * - `admin`: optional account to be granted admin role; disable with zero address\\n     *\\n     * IMPORTANT: The optional admin can aid with initial configuration of roles after deployment\\n     * without being subject to delay, but this role should be subsequently renounced in favor of\\n     * administration through timelocked proposals. Previous versions of this contract would assign\\n     * this admin to the deployer automatically and should be renounced as well.\\n     */\\n    constructor(uint256 minDelay, address[] memory proposers, address[] memory executors, address admin) {\\n        // self administration\\n        _grantRole(DEFAULT_ADMIN_ROLE, address(this));\\n\\n        // optional admin\\n        if (admin != address(0)) {\\n            _grantRole(DEFAULT_ADMIN_ROLE, admin);\\n        }\\n\\n        // register proposers and cancellers\\n        for (uint256 i = 0; i < proposers.length; ++i) {\\n            _grantRole(PROPOSER_ROLE, proposers[i]);\\n            _grantRole(CANCELLER_ROLE, proposers[i]);\\n        }\\n\\n        // register executors\\n        for (uint256 i = 0; i < executors.length; ++i) {\\n            _grantRole(EXECUTOR_ROLE, executors[i]);\\n        }\\n\\n        _minDelay = minDelay;\\n        emit MinDelayChange(0, minDelay);\\n    }\\n\\n    /**\\n     * @dev Modifier to make a function callable only by a certain role. In\\n     * addition to checking the sender's role, `address(0)` 's role is also\\n     * considered. Granting a role to `address(0)` is equivalent to enabling\\n     * this role for everyone.\\n     */\\n    modifier onlyRoleOrOpenRole(bytes32 role) {\\n        if (!hasRole(role, address(0))) {\\n            _checkRole(role, _msgSender());\\n        }\\n        _;\\n    }\\n\\n    /**\\n     * @dev Contract might receive/hold ETH as part of the maintenance process.\\n     */\\n    receive() external payable {}\\n\\n    /**\\n     * @dev See {IERC165-supportsInterface}.\\n     */\\n    function supportsInterface(\\n        bytes4 interfaceId\\n    ) public view virtual override(AccessControl, ERC1155Holder) returns (bool) {\\n        return super.supportsInterface(interfaceId);\\n    }\\n\\n    /**\\n     * @dev Returns whether an id corresponds to a registered operation. This\\n     * includes both Waiting, Ready, and Done operations.\\n     */\\n    function isOperation(bytes32 id) public view returns (bool) {\\n        return getOperationState(id) != OperationState.Unset;\\n    }\\n\\n    /**\\n     * @dev Returns whether an operation is pending or not. Note that a \\\"pending\\\" operation may also be \\\"ready\\\".\\n     */\\n    function isOperationPending(bytes32 id) public view returns (bool) {\\n        OperationState state = getOperationState(id);\\n        return state == OperationState.Waiting || state == OperationState.Ready;\\n    }\\n\\n    /**\\n     * @dev Returns whether an operation is ready for execution. Note that a \\\"ready\\\" operation is also \\\"pending\\\".\\n     */\\n    function isOperationReady(bytes32 id) public view returns (bool) {\\n        return getOperationState(id) == OperationState.Ready;\\n    }\\n\\n    /**\\n     * @dev Returns whether an operation is done or not.\\n     */\\n    function isOperationDone(bytes32 id) public view returns (bool) {\\n        return getOperationState(id) == OperationState.Done;\\n    }\\n\\n    /**\\n     * @dev Returns the timestamp at which an operation becomes ready (0 for\\n     * unset operations, 1 for done operations).\\n     */\\n    function getTimestamp(bytes32 id) public view virtual returns (uint256) {\\n        return _timestamps[id];\\n    }\\n\\n    /**\\n     * @dev Returns operation state.\\n     */\\n    function getOperationState(bytes32 id) public view virtual returns (OperationState) {\\n        uint256 timestamp = getTimestamp(id);\\n        if (timestamp == 0) {\\n            return OperationState.Unset;\\n        } else if (timestamp == _DONE_TIMESTAMP) {\\n            return OperationState.Done;\\n        } else if (timestamp > block.timestamp) {\\n            return OperationState.Waiting;\\n        } else {\\n            return OperationState.Ready;\\n        }\\n    }\\n\\n    /**\\n     * @dev Returns the minimum delay in seconds for an operation to become valid.\\n     *\\n     * This value can be changed by executing an operation that calls `updateDelay`.\\n     */\\n    function getMinDelay() public view virtual returns (uint256) {\\n        return _minDelay;\\n    }\\n\\n    /**\\n     * @dev Returns the identifier of an operation containing a single\\n     * transaction.\\n     */\\n    function hashOperation(\\n        address target,\\n        uint256 value,\\n        bytes calldata data,\\n        bytes32 predecessor,\\n        bytes32 salt\\n    ) public pure virtual returns (bytes32) {\\n        return keccak256(abi.encode(target, value, data, predecessor, salt));\\n    }\\n\\n    /**\\n     * @dev Returns the identifier of an operation containing a batch of\\n     * transactions.\\n     */\\n    function hashOperationBatch(\\n        address[] calldata targets,\\n        uint256[] calldata values,\\n        bytes[] calldata payloads,\\n        bytes32 predecessor,\\n        bytes32 salt\\n    ) public pure virtual returns (bytes32) {\\n        return keccak256(abi.encode(targets, values, payloads, predecessor, salt));\\n    }\\n\\n    /**\\n     * @dev Schedule an operation containing a single transaction.\\n     *\\n     * Emits {CallSalt} if salt is nonzero, and {CallScheduled}.\\n     *\\n     * Requirements:\\n     *\\n     * - the caller must have the 'proposer' role.\\n     */\\n    function schedule(\\n        address target,\\n        uint256 value,\\n        bytes calldata data,\\n        bytes32 predecessor,\\n        bytes32 salt,\\n        uint256 delay\\n    ) public virtual onlyRole(PROPOSER_ROLE) {\\n        bytes32 id = hashOperation(target, value, data, predecessor, salt);\\n        _schedule(id, delay);\\n        emit CallScheduled(id, 0, target, value, data, predecessor, delay);\\n        if (salt != bytes32(0)) {\\n            emit CallSalt(id, salt);\\n        }\\n    }\\n\\n    /**\\n     * @dev Schedule an operation containing a batch of transactions.\\n     *\\n     * Emits {CallSalt} if salt is nonzero, and one {CallScheduled} event per transaction in the batch.\\n     *\\n     * Requirements:\\n     *\\n     * - the caller must have the 'proposer' role.\\n     */\\n    function scheduleBatch(\\n        address[] calldata targets,\\n        uint256[] calldata values,\\n        bytes[] calldata payloads,\\n        bytes32 predecessor,\\n        bytes32 salt,\\n        uint256 delay\\n    ) public virtual onlyRole(PROPOSER_ROLE) {\\n        if (targets.length != values.length || targets.length != payloads.length) {\\n            revert TimelockInvalidOperationLength(targets.length, payloads.length, values.length);\\n        }\\n\\n        bytes32 id = hashOperationBatch(targets, values, payloads, predecessor, salt);\\n        _schedule(id, delay);\\n        for (uint256 i = 0; i < targets.length; ++i) {\\n            emit CallScheduled(id, i, targets[i], values[i], payloads[i], predecessor, delay);\\n        }\\n        if (salt != bytes32(0)) {\\n            emit CallSalt(id, salt);\\n        }\\n    }\\n\\n    /**\\n     * @dev Schedule an operation that is to become valid after a given delay.\\n     */\\n    function _schedule(bytes32 id, uint256 delay) private {\\n        if (isOperation(id)) {\\n            revert TimelockUnexpectedOperationState(id, _encodeStateBitmap(OperationState.Unset));\\n        }\\n        uint256 minDelay = getMinDelay();\\n        if (delay < minDelay) {\\n            revert TimelockInsufficientDelay(delay, minDelay);\\n        }\\n        _timestamps[id] = block.timestamp + delay;\\n    }\\n\\n    /**\\n     * @dev Cancel an operation.\\n     *\\n     * Requirements:\\n     *\\n     * - the caller must have the 'canceller' role.\\n     */\\n    function cancel(bytes32 id) public virtual onlyRole(CANCELLER_ROLE) {\\n        if (!isOperationPending(id)) {\\n            revert TimelockUnexpectedOperationState(\\n                id,\\n                _encodeStateBitmap(OperationState.Waiting) | _encodeStateBitmap(OperationState.Ready)\\n            );\\n        }\\n        delete _timestamps[id];\\n\\n        emit Cancelled(id);\\n    }\\n\\n    /**\\n     * @dev Execute an (ready) operation containing a single transaction.\\n     *\\n     * Emits a {CallExecuted} event.\\n     *\\n     * Requirements:\\n     *\\n     * - the caller must have the 'executor' role.\\n     */\\n    // This function can reenter, but it doesn't pose a risk because _afterCall checks that the proposal is pending,\\n    // thus any modifications to the operation during reentrancy should be caught.\\n    // slither-disable-next-line reentrancy-eth\\n    function execute(\\n        address target,\\n        uint256 value,\\n        bytes calldata payload,\\n        bytes32 predecessor,\\n        bytes32 salt\\n    ) public payable virtual onlyRoleOrOpenRole(EXECUTOR_ROLE) {\\n        bytes32 id = hashOperation(target, value, payload, predecessor, salt);\\n\\n        _beforeCall(id, predecessor);\\n        _execute(target, value, payload);\\n        emit CallExecuted(id, 0, target, value, payload);\\n        _afterCall(id);\\n    }\\n\\n    /**\\n     * @dev Execute an (ready) operation containing a batch of transactions.\\n     *\\n     * Emits one {CallExecuted} event per transaction in the batch.\\n     *\\n     * Requirements:\\n     *\\n     * - the caller must have the 'executor' role.\\n     */\\n    // This function can reenter, but it doesn't pose a risk because _afterCall checks that the proposal is pending,\\n    // thus any modifications to the operation during reentrancy should be caught.\\n    // slither-disable-next-line reentrancy-eth\\n    function executeBatch(\\n        address[] calldata targets,\\n        uint256[] calldata values,\\n        bytes[] calldata payloads,\\n        bytes32 predecessor,\\n        bytes32 salt\\n    ) public payable virtual onlyRoleOrOpenRole(EXECUTOR_ROLE) {\\n        if (targets.length != values.length || targets.length != payloads.length) {\\n            revert TimelockInvalidOperationLength(targets.length, payloads.length, values.length);\\n        }\\n\\n        bytes32 id = hashOperationBatch(targets, values, payloads, predecessor, salt);\\n\\n        _beforeCall(id, predecessor);\\n        for (uint256 i = 0; i < targets.length; ++i) {\\n            address target = targets[i];\\n            uint256 value = values[i];\\n            bytes calldata payload = payloads[i];\\n            _execute(target, value, payload);\\n            emit CallExecuted(id, i, target, value, payload);\\n        }\\n        _afterCall(id);\\n    }\\n\\n    /**\\n     * @dev Execute an operation's call.\\n     */\\n    function _execute(address target, uint256 value, bytes calldata data) internal virtual {\\n        (bool success, bytes memory returndata) = target.call{value: value}(data);\\n        Address.verifyCallResult(success, returndata);\\n    }\\n\\n    /**\\n     * @dev Checks before execution of an operation's calls.\\n     */\\n    function _beforeCall(bytes32 id, bytes32 predecessor) private view {\\n        if (!isOperationReady(id)) {\\n            revert TimelockUnexpectedOperationState(id, _encodeStateBitmap(OperationState.Ready));\\n        }\\n        if (predecessor != bytes32(0) && !isOperationDone(predecessor)) {\\n            revert TimelockUnexecutedPredecessor(predecessor);\\n        }\\n    }\\n\\n    /**\\n     * @dev Checks after execution of an operation's calls.\\n     */\\n    function _afterCall(bytes32 id) private {\\n        if (!isOperationReady(id)) {\\n            revert TimelockUnexpectedOperationState(id, _encodeStateBitmap(OperationState.Ready));\\n        }\\n        _timestamps[id] = _DONE_TIMESTAMP;\\n    }\\n\\n    /**\\n     * @dev Changes the minimum timelock duration for future operations.\\n     *\\n     * Emits a {MinDelayChange} event.\\n     *\\n     * Requirements:\\n     *\\n     * - the caller must be the timelock itself. This can only be achieved by scheduling and later executing\\n     * an operation where the timelock is the target and the data is the ABI-encoded call to this function.\\n     */\\n    function updateDelay(uint256 newDelay) external virtual {\\n        address sender = _msgSender();\\n        if (sender != address(this)) {\\n            revert TimelockUnauthorizedCaller(sender);\\n        }\\n        emit MinDelayChange(_minDelay, newDelay);\\n        _minDelay = newDelay;\\n    }\\n\\n    /**\\n     * @dev Encodes a `OperationState` into a `bytes32` representation where each bit enabled corresponds to\\n     * the underlying position in the `OperationState` enum. For example:\\n     *\\n     * 0x000...1000\\n     *   ^^^^^^----- ...\\n     *         ^---- Done\\n     *          ^--- Ready\\n     *           ^-- Waiting\\n     *            ^- Unset\\n     */\\n    function _encodeStateBitmap(OperationState operationState) internal pure returns (bytes32) {\\n        return bytes32(1 << uint8(operationState));\\n    }\\n}\\n\"},\"@openzeppelin/contracts@5.0.1/governance/IGovernor.sol\":{\"content\":\"// SPDX-License-Identifier: MIT\\n// OpenZeppelin Contracts (last updated v5.0.0) (governance/IGovernor.sol)\\n\\npragma solidity ^0.8.20;\\n\\nimport {IERC165} from \\\"../interfaces/IERC165.sol\\\";\\nimport {IERC6372} from \\\"../interfaces/IERC6372.sol\\\";\\n\\n/**\\n * @dev Interface of the {Governor} core.\\n */\\ninterface IGovernor is IERC165, IERC6372 {\\n    enum ProposalState {\\n        Pending,\\n        Active,\\n        Canceled,\\n        Defeated,\\n        Succeeded,\\n        Queued,\\n        Expired,\\n        Executed\\n    }\\n\\n    /**\\n     * @dev Empty proposal or a mismatch between the parameters length for a proposal call.\\n     */\\n    error GovernorInvalidProposalLength(uint256 targets, uint256 calldatas, uint256 values);\\n\\n    /**\\n     * @dev The vote was already cast.\\n     */\\n    error GovernorAlreadyCastVote(address voter);\\n\\n    /**\\n     * @dev Token deposits are disabled in this contract.\\n     */\\n    error GovernorDisabledDeposit();\\n\\n    /**\\n     * @dev The `account` is not a proposer.\\n     */\\n    error GovernorOnlyProposer(address account);\\n\\n    /**\\n     * @dev The `account` is not the governance executor.\\n     */\\n    error GovernorOnlyExecutor(address account);\\n\\n    /**\\n     * @dev The `proposalId` doesn't exist.\\n     */\\n    error GovernorNonexistentProposal(uint256 proposalId);\\n\\n    /**\\n     * @dev The current state of a proposal is not the required for performing an operation.\\n     * The `expectedStates` is a bitmap with the bits enabled for each ProposalState enum position\\n     * counting from right to left.\\n     *\\n     * NOTE: If `expectedState` is `bytes32(0)`, the proposal is expected to not be in any state (i.e. not exist).\\n     * This is the case when a proposal that is expected to be unset is already initiated (the proposal is duplicated).\\n     *\\n     * See {Governor-_encodeStateBitmap}.\\n     */\\n    error GovernorUnexpectedProposalState(uint256 proposalId, ProposalState current, bytes32 expectedStates);\\n\\n    /**\\n     * @dev The voting period set is not a valid period.\\n     */\\n    error GovernorInvalidVotingPeriod(uint256 votingPeriod);\\n\\n    /**\\n     * @dev The `proposer` does not have the required votes to create a proposal.\\n     */\\n    error GovernorInsufficientProposerVotes(address proposer, uint256 votes, uint256 threshold);\\n\\n    /**\\n     * @dev The `proposer` is not allowed to create a proposal.\\n     */\\n    error GovernorRestrictedProposer(address proposer);\\n\\n    /**\\n     * @dev The vote type used is not valid for the corresponding counting module.\\n     */\\n    error GovernorInvalidVoteType();\\n\\n    /**\\n     * @dev Queue operation is not implemented for this governor. Execute should be called directly.\\n     */\\n    error GovernorQueueNotImplemented();\\n\\n    /**\\n     * @dev The proposal hasn't been queued yet.\\n     */\\n    error GovernorNotQueuedProposal(uint256 proposalId);\\n\\n    /**\\n     * @dev The proposal has already been queued.\\n     */\\n    error GovernorAlreadyQueuedProposal(uint256 proposalId);\\n\\n    /**\\n     * @dev The provided signature is not valid for the expected `voter`.\\n     * If the `voter` is a contract, the signature is not valid using {IERC1271-isValidSignature}.\\n     */\\n    error GovernorInvalidSignature(address voter);\\n\\n    /**\\n     * @dev Emitted when a proposal is created.\\n     */\\n    event ProposalCreated(\\n        uint256 proposalId,\\n        address proposer,\\n        address[] targets,\\n        uint256[] values,\\n        string[] signatures,\\n        bytes[] calldatas,\\n        uint256 voteStart,\\n        uint256 voteEnd,\\n        string description\\n    );\\n\\n    /**\\n     * @dev Emitted when a proposal is queued.\\n     */\\n    event ProposalQueued(uint256 proposalId, uint256 etaSeconds);\\n\\n    /**\\n     * @dev Emitted when a proposal is executed.\\n     */\\n    event ProposalExecuted(uint256 proposalId);\\n\\n    /**\\n     * @dev Emitted when a proposal is canceled.\\n     */\\n    event ProposalCanceled(uint256 proposalId);\\n\\n    /**\\n     * @dev Emitted when a vote is cast without params.\\n     *\\n     * Note: `support` values should be seen as buckets. Their interpretation depends on the voting module used.\\n     */\\n    event VoteCast(address indexed voter, uint256 proposalId, uint8 support, uint256 weight, string reason);\\n\\n    /**\\n     * @dev Emitted when a vote is cast with params.\\n     *\\n     * Note: `support` values should be seen as buckets. Their interpretation depends on the voting module used.\\n     * `params` are additional encoded parameters. Their interpepretation also depends on the voting module used.\\n     */\\n    event VoteCastWithParams(\\n        address indexed voter,\\n        uint256 proposalId,\\n        uint8 support,\\n        uint256 weight,\\n        string reason,\\n        bytes params\\n    );\\n\\n    /**\\n     * @notice module:core\\n     * @dev Name of the governor instance (used in building the ERC712 domain separator).\\n     */\\n    function name() external view returns (string memory);\\n\\n    /**\\n     * @notice module:core\\n     * @dev Version of the governor instance (used in building the ERC712 domain separator). Default: \\\"1\\\"\\n     */\\n    function version() external view returns (string memory);\\n\\n    /**\\n     * @notice module:voting\\n     * @dev A description of the possible `support` values for {castVote} and the way these votes are counted, meant to\\n     * be consumed by UIs to show correct vote options and interpret the results. The string is a URL-encoded sequence of\\n     * key-value pairs that each describe one aspect, for example `support=bravo&quorum=for,abstain`.\\n     *\\n     * There are 2 standard keys: `support` and `quorum`.\\n     *\\n     * - `support=bravo` refers to the vote options 0 = Against, 1 = For, 2 = Abstain, as in `GovernorBravo`.\\n     * - `quorum=bravo` means that only For votes are counted towards quorum.\\n     * - `quorum=for,abstain` means that both For and Abstain votes are counted towards quorum.\\n     *\\n     * If a counting module makes use of encoded `params`, it should  include this under a `params` key with a unique\\n     * name that describes the behavior. For example:\\n     *\\n     * - `params=fractional` might refer to a scheme where votes are divided fractionally between for/against/abstain.\\n     * - `params=erc721` might refer to a scheme where specific NFTs are delegated to vote.\\n     *\\n     * NOTE: The string can be decoded by the standard\\n     * https://developer.mozilla.org/en-US/docs/Web/API/URLSearchParams[`URLSearchParams`]\\n     * JavaScript class.\\n     */\\n    // solhint-disable-next-line func-name-mixedcase\\n    function COUNTING_MODE() external view returns (string memory);\\n\\n    /**\\n     * @notice module:core\\n     * @dev Hashing function used to (re)build the proposal id from the proposal details..\\n     */\\n    function hashProposal(\\n        address[] memory targets,\\n        uint256[] memory values,\\n        bytes[] memory calldatas,\\n        bytes32 descriptionHash\\n    ) external pure returns (uint256);\\n\\n    /**\\n     * @notice module:core\\n     * @dev Current state of a proposal, following Compound's convention\\n     */\\n    function state(uint256 proposalId) external view returns (ProposalState);\\n\\n    /**\\n     * @notice module:core\\n     * @dev The number of votes required in order for a voter to become a proposer.\\n     */\\n    function proposalThreshold() external view returns (uint256);\\n\\n    /**\\n     * @notice module:core\\n     * @dev Timepoint used to retrieve user's votes and quorum. If using block number (as per Compound's Comp), the\\n     * snapshot is performed at the end of this block. Hence, voting for this proposal starts at the beginning of the\\n     * following block.\\n     */\\n    function proposalSnapshot(uint256 proposalId) external view returns (uint256);\\n\\n    /**\\n     * @notice module:core\\n     * @dev Timepoint at which votes close. If using block number, votes close at the end of this block, so it is\\n     * possible to cast a vote during this block.\\n     */\\n    function proposalDeadline(uint256 proposalId) external view returns (uint256);\\n\\n    /**\\n     * @notice module:core\\n     * @dev The account that created a proposal.\\n     */\\n    function proposalProposer(uint256 proposalId) external view returns (address);\\n\\n    /**\\n     * @notice module:core\\n     * @dev The time when a queued proposal becomes executable (\\\"ETA\\\"). Unlike {proposalSnapshot} and\\n     * {proposalDeadline}, this doesn't use the governor clock, and instead relies on the executor's clock which may be\\n     * different. In most cases this will be a timestamp.\\n     */\\n    function proposalEta(uint256 proposalId) external view returns (uint256);\\n\\n    /**\\n     * @notice module:core\\n     * @dev Whether a proposal needs to be queued before execution.\\n     */\\n    function proposalNeedsQueuing(uint256 proposalId) external view returns (bool);\\n\\n    /**\\n     * @notice module:user-config\\n     * @dev Delay, between the proposal is created and the vote starts. The unit this duration is expressed in depends\\n     * on the clock (see EIP-6372) this contract uses.\\n     *\\n     * This can be increased to leave time for users to buy voting power, or delegate it, before the voting of a\\n     * proposal starts.\\n     *\\n     * NOTE: While this interface returns a uint256, timepoints are stored as uint48 following the ERC-6372 clock type.\\n     * Consequently this value must fit in a uint48 (when added to the current clock). See {IERC6372-clock}.\\n     */\\n    function votingDelay() external view returns (uint256);\\n\\n    /**\\n     * @notice module:user-config\\n     * @dev Delay between the vote start and vote end. The unit this duration is expressed in depends on the clock\\n     * (see EIP-6372) this contract uses.\\n     *\\n     * NOTE: The {votingDelay} can delay the start of the vote. This must be considered when setting the voting\\n     * duration compared to the voting delay.\\n     *\\n     * NOTE: This value is stored when the proposal is submitted so that possible changes to the value do not affect\\n     * proposals that have already been submitted. The type used to save it is a uint32. Consequently, while this\\n     * interface returns a uint256, the value it returns should fit in a uint32.\\n     */\\n    function votingPeriod() external view returns (uint256);\\n\\n    /**\\n     * @notice module:user-config\\n     * @dev Minimum number of cast voted required for a proposal to be successful.\\n     *\\n     * NOTE: The `timepoint` parameter corresponds to the snapshot used for counting vote. This allows to scale the\\n     * quorum depending on values such as the totalSupply of a token at this timepoint (see {ERC20Votes}).\\n     */\\n    function quorum(uint256 timepoint) external view returns (uint256);\\n\\n    /**\\n     * @notice module:reputation\\n     * @dev Voting power of an `account` at a specific `timepoint`.\\n     *\\n     * Note: this can be implemented in a number of ways, for example by reading the delegated balance from one (or\\n     * multiple), {ERC20Votes} tokens.\\n     */\\n    function getVotes(address account, uint256 timepoint) external view returns (uint256);\\n\\n    /**\\n     * @notice module:reputation\\n     * @dev Voting power of an `account` at a specific `timepoint` given additional encoded parameters.\\n     */\\n    function getVotesWithParams(\\n        address account,\\n        uint256 timepoint,\\n        bytes memory params\\n    ) external view returns (uint256);\\n\\n    /**\\n     * @notice module:voting\\n     * @dev Returns whether `account` has cast a vote on `proposalId`.\\n     */\\n    function hasVoted(uint256 proposalId, address account) external view returns (bool);\\n\\n    /**\\n     * @dev Create a new proposal. Vote start after a delay specified by {IGovernor-votingDelay} and lasts for a\\n     * duration specified by {IGovernor-votingPeriod}.\\n     *\\n     * Emits a {ProposalCreated} event.\\n     */\\n    function propose(\\n        address[] memory targets,\\n        uint256[] memory values,\\n        bytes[] memory calldatas,\\n        string memory description\\n    ) external returns (uint256 proposalId);\\n\\n    /**\\n     * @dev Queue a proposal. Some governors require this step to be performed before execution can happen. If queuing\\n     * is not necessary, this function may revert.\\n     * Queuing a proposal requires the quorum to be reached, the vote to be successful, and the deadline to be reached.\\n     *\\n     * Emits a {ProposalQueued} event.\\n     */\\n    function queue(\\n        address[] memory targets,\\n        uint256[] memory values,\\n        bytes[] memory calldatas,\\n        bytes32 descriptionHash\\n    ) external returns (uint256 proposalId);\\n\\n    /**\\n     * @dev Execute a successful proposal. This requires the quorum to be reached, the vote to be successful, and the\\n     * deadline to be reached. Depending on the governor it might also be required that the proposal was queued and\\n     * that some delay passed.\\n     *\\n     * Emits a {ProposalExecuted} event.\\n     *\\n     * NOTE: Some modules can modify the requirements for execution, for example by adding an additional timelock.\\n     */\\n    function execute(\\n        address[] memory targets,\\n        uint256[] memory values,\\n        bytes[] memory calldatas,\\n        bytes32 descriptionHash\\n    ) external payable returns (uint256 proposalId);\\n\\n    /**\\n     * @dev Cancel a proposal. A proposal is cancellable by the proposer, but only while it is Pending state, i.e.\\n     * before the vote starts.\\n     *\\n     * Emits a {ProposalCanceled} event.\\n     */\\n    function cancel(\\n        address[] memory targets,\\n        uint256[] memory values,\\n        bytes[] memory calldatas,\\n        bytes32 descriptionHash\\n    ) external returns (uint256 proposalId);\\n\\n    /**\\n     * @dev Cast a vote\\n     *\\n     * Emits a {VoteCast} event.\\n     */\\n    function castVote(uint256 proposalId, uint8 support) external returns (uint256 balance);\\n\\n    /**\\n     * @dev Cast a vote with a reason\\n     *\\n     * Emits a {VoteCast} event.\\n     */\\n    function castVoteWithReason(\\n        uint256 proposalId,\\n        uint8 support,\\n        string calldata reason\\n    ) external returns (uint256 balance);\\n\\n    /**\\n     * @dev Cast a vote with a reason and additional encoded parameters\\n     *\\n     * Emits a {VoteCast} or {VoteCastWithParams} event depending on the length of params.\\n     */\\n    function castVoteWithReasonAndParams(\\n        uint256 proposalId,\\n        uint8 support,\\n        string calldata reason,\\n        bytes memory params\\n    ) external returns (uint256 balance);\\n\\n    /**\\n     * @dev Cast a vote using the voter's signature, including ERC-1271 signature support.\\n     *\\n     * Emits a {VoteCast} event.\\n     */\\n    function castVoteBySig(\\n        uint256 proposalId,\\n        uint8 support,\\n        address voter,\\n        bytes memory signature\\n    ) external returns (uint256 balance);\\n\\n    /**\\n     * @dev Cast a vote with a reason and additional encoded parameters using the voter's signature,\\n     * including ERC-1271 signature support.\\n     *\\n     * Emits a {VoteCast} or {VoteCastWithParams} event depending on the length of params.\\n     */\\n    function castVoteWithReasonAndParamsBySig(\\n        uint256 proposalId,\\n        uint8 support,\\n        address voter,\\n        string calldata reason,\\n        bytes memory params,\\n        bytes memory signature\\n    ) external returns (uint256 balance);\\n}\\n\"},\"@openzeppelin/contracts@5.0.1/utils/Nonces.sol\":{\"content\":\"// SPDX-License-Identifier: MIT\\n// OpenZeppelin Contracts (last updated v5.0.0) (utils/Nonces.sol)\\npragma solidity ^0.8.20;\\n\\n/**\\n * @dev Provides tracking nonces for addresses. Nonces will only increment.\\n */\\nabstract contract Nonces {\\n    /**\\n     * @dev The nonce used for an `account` is not the expected current nonce.\\n     */\\n    error InvalidAccountNonce(address account, uint256 currentNonce);\\n\\n    mapping(address account => uint256) private _nonces;\\n\\n    /**\\n     * @dev Returns the next unused nonce for an address.\\n     */\\n    function nonces(address owner) public view virtual returns (uint256) {\\n        return _nonces[owner];\\n    }\\n\\n    /**\\n     * @dev Consumes a nonce.\\n     *\\n     * Returns the current value and increments nonce.\\n     */\\n    function _useNonce(address owner) internal virtual returns (uint256) {\\n        // For each account, the nonce has an initial value of 0, can only be incremented by one, and cannot be\\n        // decremented or reset. This guarantees that the nonce never overflows.\\n        unchecked {\\n            // It is important to do x++ and not ++x here.\\n            return _nonces[owner]++;\\n        }\\n    }\\n\\n    /**\\n     * @dev Same as {_useNonce} but checking that `nonce` is the next valid for `owner`.\\n     */\\n    function _useCheckedNonce(address owner, uint256 nonce) internal virtual {\\n        uint256 current = _useNonce(owner);\\n        if (nonce != current) {\\n            revert InvalidAccountNonce(owner, current);\\n        }\\n    }\\n}\\n\"},\"@openzeppelin/contracts@5.0.1/utils/Context.sol\":{\"content\":\"// SPDX-License-Identifier: MIT\\n// OpenZeppelin Contracts (last updated v5.0.1) (utils/Context.sol)\\n\\npragma solidity ^0.8.20;\\n\\n/**\\n * @dev Provides information about the current execution context, including the\\n * sender of the transaction and its data. While these are generally available\\n * via msg.sender and msg.data, they should not be accessed in such a direct\\n * manner, since when dealing with meta-transactions the account sending and\\n * paying for execution may not be the actual sender (as far as an application\\n * is concerned).\\n *\\n * This contract is only required for intermediate, library-like contracts.\\n */\\nabstract contract Context {\\n    function _msgSender() internal view virtual returns (address) {\\n        return msg.sender;\\n    }\\n\\n    function _msgData() internal view virtual returns (bytes calldata) {\\n        return msg.data;\\n    }\\n\\n    function _contextSuffixLength() internal view virtual returns (uint256) {\\n        return 0;\\n    }\\n}\\n\"},\"@openzeppelin/contracts@5.0.1/utils/Address.sol\":{\"content\":\"// SPDX-License-Identifier: MIT\\n// OpenZeppelin Contracts (last updated v5.0.0) (utils/Address.sol)\\n\\npragma solidity ^0.8.20;\\n\\n/**\\n * @dev Collection of functions related to the address type\\n */\\nlibrary Address {\\n    /**\\n     * @dev The ETH balance of the account is not enough to perform the operation.\\n     */\\n    error AddressInsufficientBalance(address account);\\n\\n    /**\\n     * @dev There's no code at `target` (it is not a contract).\\n     */\\n    error AddressEmptyCode(address target);\\n\\n    /**\\n     * @dev A call to an address target failed. The target may have reverted.\\n     */\\n    error FailedInnerCall();\\n\\n    /**\\n     * @dev Replacement for Solidity's `transfer`: sends `amount` wei to\\n     * `recipient`, forwarding all available gas and reverting on errors.\\n     *\\n     * https://eips.ethereum.org/EIPS/eip-1884[EIP1884] increases the gas cost\\n     * of certain opcodes, possibly making contracts go over the 2300 gas limit\\n     * imposed by `transfer`, making them unable to receive funds via\\n     * `transfer`. {sendValue} removes this limitation.\\n     *\\n     * https://consensys.net/diligence/blog/2019/09/stop-using-soliditys-transfer-now/[Learn more].\\n     *\\n     * IMPORTANT: because control is transferred to `recipient`, care must be\\n     * taken to not create reentrancy vulnerabilities. Consider using\\n     * {ReentrancyGuard} or the\\n     * https://solidity.readthedocs.io/en/v0.8.20/security-considerations.html#use-the-checks-effects-interactions-pattern[checks-effects-interactions pattern].\\n     */\\n    function sendValue(address payable recipient, uint256 amount) internal {\\n        if (address(this).balance < amount) {\\n            revert AddressInsufficientBalance(address(this));\\n        }\\n\\n        (bool success, ) = recipient.call{value: amount}(\\\"\\\");\\n        if (!success) {\\n            revert FailedInnerCall();\\n        }\\n    }\\n\\n    /**\\n     * @dev Performs a Solidity function call using a low level `call`. A\\n     * plain `call` is an unsafe replacement for a function call: use this\\n     * function instead.\\n     *\\n     * If `target` reverts with a revert reason or custom error, it is bubbled\\n     * up by this function (like regular Solidity function calls). However, if\\n     * the call reverted with no returned reason, this function reverts with a\\n     * {FailedInnerCall} error.\\n     *\\n     * Returns the raw returned data. To convert to the expected return value,\\n     * use https://solidity.readthedocs.io/en/latest/units-and-global-variables.html?highlight=abi.decode#abi-encoding-and-decoding-functions[`abi.decode`].\\n     *\\n     * Requirements:\\n     *\\n     * - `target` must be a contract.\\n     * - calling `target` with `data` must not revert.\\n     */\\n    function functionCall(address target, bytes memory data) internal returns (bytes memory) {\\n        return functionCallWithValue(target, data, 0);\\n    }\\n\\n    /**\\n     * @dev Same as {xref-Address-functionCall-address-bytes-}[`functionCall`],\\n     * but also transferring `value` wei to `target`.\\n     *\\n     * Requirements:\\n     *\\n     * - the calling contract must have an ETH balance of at least `value`.\\n     * - the called Solidity function must be `payable`.\\n     */\\n    function functionCallWithValue(address target, bytes memory data, uint256 value) internal returns (bytes memory) {\\n        if (address(this).balance < value) {\\n            revert AddressInsufficientBalance(address(this));\\n        }\\n        (bool success, bytes memory returndata) = target.call{value: value}(data);\\n        return verifyCallResultFromTarget(target, success, returndata);\\n    }\\n\\n    /**\\n     * @dev Same as {xref-Address-functionCall-address-bytes-}[`functionCall`],\\n     * but performing a static call.\\n     */\\n    function functionStaticCall(address target, bytes memory data) internal view returns (bytes memory) {\\n        (bool success, bytes memory returndata) = target.staticcall(data);\\n        return verifyCallResultFromTarget(target, success, returndata);\\n    }\\n\\n    /**\\n     * @dev Same as {xref-Address-functionCall-address-bytes-}[`functionCall`],\\n     * but performing a delegate call.\\n     */\\n    function functionDelegateCall(address target, bytes memory data) internal returns (bytes memory) {\\n        (bool success, bytes memory returndata) = target.delegatecall(data);\\n        return verifyCallResultFromTarget(target, success, returndata);\\n    }\\n\\n    /**\\n     * @dev Tool to verify that a low level call to smart-contract was successful, and reverts if the target\\n     * was not a contract or bubbling up the revert reason (falling back to {FailedInnerCall}) in case of an\\n     * unsuccessful call.\\n     */\\n    function verifyCallResultFromTarget(\\n        address target,\\n        bool success,\\n        bytes memory returndata\\n    ) internal view returns (bytes memory) {\\n        if (!success) {\\n            _revert(returndata);\\n        } else {\\n            // only check if target is a contract if the call was successful and the return data is empty\\n            // otherwise we already know that it was a contract\\n            if (returndata.length == 0 && target.code.length == 0) {\\n                revert AddressEmptyCode(target);\\n            }\\n            return returndata;\\n        }\\n    }\\n\\n    /**\\n     * @dev Tool to verify that a low level call was successful, and reverts if it wasn't, either by bubbling the\\n     * revert reason or with a default {FailedInnerCall} error.\\n     */\\n    function verifyCallResult(bool success, bytes memory returndata) internal pure returns (bytes memory) {\\n        if (!success) {\\n            _revert(returndata);\\n        } else {\\n            return returndata;\\n        }\\n    }\\n\\n    /**\\n     * @dev Reverts with returndata if present. Otherwise reverts with {FailedInnerCall}.\\n     */\\n    function _revert(bytes memory returndata) private pure {\\n        // Look for revert reason and bubble it up if present\\n        if (returndata.length > 0) {\\n            // The easiest way to bubble the revert reason is using memory via assembly\\n            /// @solidity memory-safe-assembly\\n            assembly {\\n                let returndata_size := mload(returndata)\\n                revert(add(32, returndata), returndata_size)\\n            }\\n        } else {\\n            revert FailedInnerCall();\\n        }\\n    }\\n}\\n\"},\"@openzeppelin/contracts@5.0.1/utils/structs/DoubleEndedQueue.sol\":{\"content\":\"// SPDX-License-Identifier: MIT\\n// OpenZeppelin Contracts (last updated v5.0.0) (utils/structs/DoubleEndedQueue.sol)\\npragma solidity ^0.8.20;\\n\\n/**\\n * @dev A sequence of items with the ability to efficiently push and pop items (i.e. insert and remove) on both ends of\\n * the sequence (called front and back). Among other access patterns, it can be used to implement efficient LIFO and\\n * FIFO queues. Storage use is optimized, and all operations are O(1) constant time. This includes {clear}, given that\\n * the existing queue contents are left in storage.\\n *\\n * The struct is called `Bytes32Deque`. Other types can be cast to and from `bytes32`. This data structure can only be\\n * used in storage, and not in memory.\\n * ```solidity\\n * DoubleEndedQueue.Bytes32Deque queue;\\n * ```\\n */\\nlibrary DoubleEndedQueue {\\n    /**\\n     * @dev An operation (e.g. {front}) couldn't be completed due to the queue being empty.\\n     */\\n    error QueueEmpty();\\n\\n    /**\\n     * @dev A push operation couldn't be completed due to the queue being full.\\n     */\\n    error QueueFull();\\n\\n    /**\\n     * @dev An operation (e.g. {at}) couldn't be completed due to an index being out of bounds.\\n     */\\n    error QueueOutOfBounds();\\n\\n    /**\\n     * @dev Indices are 128 bits so begin and end are packed in a single storage slot for efficient access.\\n     *\\n     * Struct members have an underscore prefix indicating that they are \\\"private\\\" and should not be read or written to\\n     * directly. Use the functions provided below instead. Modifying the struct manually may violate assumptions and\\n     * lead to unexpected behavior.\\n     *\\n     * The first item is at data[begin] and the last item is at data[end - 1]. This range can wrap around.\\n     */\\n    struct Bytes32Deque {\\n        uint128 _begin;\\n        uint128 _end;\\n        mapping(uint128 index => bytes32) _data;\\n    }\\n\\n    /**\\n     * @dev Inserts an item at the end of the queue.\\n     *\\n     * Reverts with {QueueFull} if the queue is full.\\n     */\\n    function pushBack(Bytes32Deque storage deque, bytes32 value) internal {\\n        unchecked {\\n            uint128 backIndex = deque._end;\\n            if (backIndex + 1 == deque._begin) revert QueueFull();\\n            deque._data[backIndex] = value;\\n            deque._end = backIndex + 1;\\n        }\\n    }\\n\\n    /**\\n     * @dev Removes the item at the end of the queue and returns it.\\n     *\\n     * Reverts with {QueueEmpty} if the queue is empty.\\n     */\\n    function popBack(Bytes32Deque storage deque) internal returns (bytes32 value) {\\n        unchecked {\\n            uint128 backIndex = deque._end;\\n            if (backIndex == deque._begin) revert QueueEmpty();\\n            --backIndex;\\n            value = deque._data[backIndex];\\n            delete deque._data[backIndex];\\n            deque._end = backIndex;\\n        }\\n    }\\n\\n    /**\\n     * @dev Inserts an item at the beginning of the queue.\\n     *\\n     * Reverts with {QueueFull} if the queue is full.\\n     */\\n    function pushFront(Bytes32Deque storage deque, bytes32 value) internal {\\n        unchecked {\\n            uint128 frontIndex = deque._begin - 1;\\n            if (frontIndex == deque._end) revert QueueFull();\\n            deque._data[frontIndex] = value;\\n            deque._begin = frontIndex;\\n        }\\n    }\\n\\n    /**\\n     * @dev Removes the item at the beginning of the queue and returns it.\\n     *\\n     * Reverts with `QueueEmpty` if the queue is empty.\\n     */\\n    function popFront(Bytes32Deque storage deque) internal returns (bytes32 value) {\\n        unchecked {\\n            uint128 frontIndex = deque._begin;\\n            if (frontIndex == deque._end) revert QueueEmpty();\\n            value = deque._data[frontIndex];\\n            delete deque._data[frontIndex];\\n            deque._begin = frontIndex + 1;\\n        }\\n    }\\n\\n    /**\\n     * @dev Returns the item at the beginning of the queue.\\n     *\\n     * Reverts with `QueueEmpty` if the queue is empty.\\n     */\\n    function front(Bytes32Deque storage deque) internal view returns (bytes32 value) {\\n        if (empty(deque)) revert QueueEmpty();\\n        return deque._data[deque._begin];\\n    }\\n\\n    /**\\n     * @dev Returns the item at the end of the queue.\\n     *\\n     * Reverts with `QueueEmpty` if the queue is empty.\\n     */\\n    function back(Bytes32Deque storage deque) internal view returns (bytes32 value) {\\n        if (empty(deque)) revert QueueEmpty();\\n        unchecked {\\n            return deque._data[deque._end - 1];\\n        }\\n    }\\n\\n    /**\\n     * @dev Return the item at a position in the queue given by `index`, with the first item at 0 and last item at\\n     * `length(deque) - 1`.\\n     *\\n     * Reverts with `QueueOutOfBounds` if the index is out of bounds.\\n     */\\n    function at(Bytes32Deque storage deque, uint256 index) internal view returns (bytes32 value) {\\n        if (index >= length(deque)) revert QueueOutOfBounds();\\n        // By construction, length is a uint128, so the check above ensures that index can be safely downcast to uint128\\n        unchecked {\\n            return deque._data[deque._begin + uint128(index)];\\n        }\\n    }\\n\\n    /**\\n     * @dev Resets the queue back to being empty.\\n     *\\n     * NOTE: The current items are left behind in storage. This does not affect the functioning of the queue, but misses\\n     * out on potential gas refunds.\\n     */\\n    function clear(Bytes32Deque storage deque) internal {\\n        deque._begin = 0;\\n        deque._end = 0;\\n    }\\n\\n    /**\\n     * @dev Returns the number of items in the queue.\\n     */\\n    function length(Bytes32Deque storage deque) internal view returns (uint256) {\\n        unchecked {\\n            return uint256(deque._end - deque._begin);\\n        }\\n    }\\n\\n    /**\\n     * @dev Returns true if the queue is empty.\\n     */\\n    function empty(Bytes32Deque storage deque) internal view returns (bool) {\\n        return deque._end == deque._begin;\\n    }\\n}\\n\"},\"@openzeppelin/contracts@5.0.1/utils/introspection/ERC165.sol\":{\"content\":\"// SPDX-License-Identifier: MIT\\n// OpenZeppelin Contracts (last updated v5.0.0) (utils/introspection/ERC165.sol)\\n\\npragma solidity ^0.8.20;\\n\\nimport {IERC165} from \\\"./IERC165.sol\\\";\\n\\n/**\\n * @dev Implementation of the {IERC165} interface.\\n *\\n * Contracts that want to implement ERC165 should inherit from this contract and override {supportsInterface} to check\\n * for the additional interface id that will be supported. For example:\\n *\\n * ```solidity\\n * function supportsInterface(bytes4 interfaceId) public view virtual override returns (bool) {\\n *     return interfaceId == type(MyInterface).interfaceId || super.supportsInterface(interfaceId);\\n * }\\n * ```\\n */\\nabstract contract ERC165 is IERC165 {\\n    /**\\n     * @dev See {IERC165-supportsInterface}.\\n     */\\n    function supportsInterface(bytes4 interfaceId) public view virtual returns (bool) {\\n        return interfaceId == type(IERC165).interfaceId;\\n    }\\n}\\n\"},\"@openzeppelin/contracts@5.0.1/utils/cryptography/SignatureChecker.sol\":{\"content\":\"// SPDX-License-Identifier: MIT\\n// OpenZeppelin Contracts (last updated v5.0.0) (utils/cryptography/SignatureChecker.sol)\\n\\npragma solidity ^0.8.20;\\n\\nimport {ECDSA} from \\\"./ECDSA.sol\\\";\\nimport {IERC1271} from \\\"../../interfaces/IERC1271.sol\\\";\\n\\n/**\\n * @dev Signature verification helper that can be used instead of `ECDSA.recover` to seamlessly support both ECDSA\\n * signatures from externally owned accounts (EOAs) as well as ERC1271 signatures from smart contract wallets like\\n * Argent and Safe Wallet (previously Gnosis Safe).\\n */\\nlibrary SignatureChecker {\\n    /**\\n     * @dev Checks if a signature is valid for a given signer and data hash. If the signer is a smart contract, the\\n     * signature is validated against that smart contract using ERC1271, otherwise it's validated using `ECDSA.recover`.\\n     *\\n     * NOTE: Unlike ECDSA signatures, contract signatures are revocable, and the outcome of this function can thus\\n     * change through time. It could return true at block N and false at block N+1 (or the opposite).\\n     */\\n    function isValidSignatureNow(address signer, bytes32 hash, bytes memory signature) internal view returns (bool) {\\n        (address recovered, ECDSA.RecoverError error, ) = ECDSA.tryRecover(hash, signature);\\n        return\\n            (error == ECDSA.RecoverError.NoError && recovered == signer) ||\\n            isValidERC1271SignatureNow(signer, hash, signature);\\n    }\\n\\n    /**\\n     * @dev Checks if a signature is valid for a given signer and data hash. The signature is validated\\n     * against the signer smart contract using ERC1271.\\n     *\\n     * NOTE: Unlike ECDSA signatures, contract signatures are revocable, and the outcome of this function can thus\\n     * change through time. It could return true at block N and false at block N+1 (or the opposite).\\n     */\\n    function isValidERC1271SignatureNow(\\n        address signer,\\n        bytes32 hash,\\n        bytes memory signature\\n    ) internal view returns (bool) {\\n        (bool success, bytes memory result) = signer.staticcall(\\n            abi.encodeCall(IERC1271.isValidSignature, (hash, signature))\\n        );\\n        return (success &&\\n            result.length >= 32 &&\\n            abi.decode(result, (bytes32)) == bytes32(IERC1271.isValidSignature.selector));\\n    }\\n}\\n\"},\"@openzeppelin/contracts@5.0.1/utils/cryptography/EIP712.sol\":{\"content\":\"// SPDX-License-Identifier: MIT\\n// OpenZeppelin Contracts (last updated v5.0.0) (utils/cryptography/EIP712.sol)\\n\\npragma solidity ^0.8.20;\\n\\nimport {MessageHashUtils} from \\\"./MessageHashUtils.sol\\\";\\nimport {ShortStrings, ShortString} from \\\"../ShortStrings.sol\\\";\\nimport {IERC5267} from \\\"../../interfaces/IERC5267.sol\\\";\\n\\n/**\\n * @dev https://eips.ethereum.org/EIPS/eip-712[EIP 712] is a standard for hashing and signing of typed structured data.\\n *\\n * The encoding scheme specified in the EIP requires a domain separator and a hash of the typed structured data, whose\\n * encoding is very generic and therefore its implementation in Solidity is not feasible, thus this contract\\n * does not implement the encoding itself. Protocols need to implement the type-specific encoding they need in order to\\n * produce the hash of their typed data using a combination of `abi.encode` and `keccak256`.\\n *\\n * This contract implements the EIP 712 domain separator ({_domainSeparatorV4}) that is used as part of the encoding\\n * scheme, and the final step of the encoding to obtain the message digest that is then signed via ECDSA\\n * ({_hashTypedDataV4}).\\n *\\n * The implementation of the domain separator was designed to be as efficient as possible while still properly updating\\n * the chain id to protect against replay attacks on an eventual fork of the chain.\\n *\\n * NOTE: This contract implements the version of the encoding known as \\\"v4\\\", as implemented by the JSON RPC method\\n * https://docs.metamask.io/guide/signing-data.html[`eth_signTypedDataV4` in MetaMask].\\n *\\n * NOTE: In the upgradeable version of this contract, the cached values will correspond to the address, and the domain\\n * separator of the implementation contract. This will cause the {_domainSeparatorV4} function to always rebuild the\\n * separator from the immutable values, which is cheaper than accessing a cached version in cold storage.\\n *\\n * @custom:oz-upgrades-unsafe-allow state-variable-immutable\\n */\\nabstract contract EIP712 is IERC5267 {\\n    using ShortStrings for *;\\n\\n    bytes32 private constant TYPE_HASH =\\n        keccak256(\\\"EIP712Domain(string name,string version,uint256 chainId,address verifyingContract)\\\");\\n\\n    // Cache the domain separator as an immutable value, but also store the chain id that it corresponds to, in order to\\n    // invalidate the cached domain separator if the chain id changes.\\n    bytes32 private immutable _cachedDomainSeparator;\\n    uint256 private immutable _cachedChainId;\\n    address private immutable _cachedThis;\\n\\n    bytes32 private immutable _hashedName;\\n    bytes32 private immutable _hashedVersion;\\n\\n    ShortString private immutable _name;\\n    ShortString private immutable _version;\\n    string private _nameFallback;\\n    string private _versionFallback;\\n\\n    /**\\n     * @dev Initializes the domain separator and parameter caches.\\n     *\\n     * The meaning of `name` and `version` is specified in\\n     * https://eips.ethereum.org/EIPS/eip-712#definition-of-domainseparator[EIP 712]:\\n     *\\n     * - `name`: the user readable name of the signing domain, i.e. the name of the DApp or the protocol.\\n     * - `version`: the current major version of the signing domain.\\n     *\\n     * NOTE: These parameters cannot be changed except through a xref:learn::upgrading-smart-contracts.adoc[smart\\n     * contract upgrade].\\n     */\\n    constructor(string memory name, string memory version) {\\n        _name = name.toShortStringWithFallback(_nameFallback);\\n        _version = version.toShortStringWithFallback(_versionFallback);\\n        _hashedName = keccak256(bytes(name));\\n        _hashedVersion = keccak256(bytes(version));\\n\\n        _cachedChainId = block.chainid;\\n        _cachedDomainSeparator = _buildDomainSeparator();\\n        _cachedThis = address(this);\\n    }\\n\\n    /**\\n     * @dev Returns the domain separator for the current chain.\\n     */\\n    function _domainSeparatorV4() internal view returns (bytes32) {\\n        if (address(this) == _cachedThis && block.chainid == _cachedChainId) {\\n            return _cachedDomainSeparator;\\n        } else {\\n            return _buildDomainSeparator();\\n        }\\n    }\\n\\n    function _buildDomainSeparator() private view returns (bytes32) {\\n        return keccak256(abi.encode(TYPE_HASH, _hashedName, _hashedVersion, block.chainid, address(this)));\\n    }\\n\\n    /**\\n     * @dev Given an already https://eips.ethereum.org/EIPS/eip-712#definition-of-hashstruct[hashed struct], this\\n     * function returns the hash of the fully encoded EIP712 message for this domain.\\n     *\\n     * This hash can be used together with {ECDSA-recover} to obtain the signer of a message. For example:\\n     *\\n     * ```solidity\\n     * bytes32 digest = _hashTypedDataV4(keccak256(abi.encode(\\n     *     keccak256(\\\"Mail(address to,string contents)\\\"),\\n     *     mailTo,\\n     *     keccak256(bytes(mailContents))\\n     * )));\\n     * address signer = ECDSA.recover(digest, signature);\\n     * ```\\n     */\\n    function _hashTypedDataV4(bytes32 structHash) internal view virtual returns (bytes32) {\\n        return MessageHashUtils.toTypedDataHash(_domainSeparatorV4(), structHash);\\n    }\\n\\n    /**\\n     * @dev See {IERC-5267}.\\n     */\\n    function eip712Domain()\\n        public\\n        view\\n        virtual\\n        returns (\\n            bytes1 fields,\\n            string memory name,\\n            string memory version,\\n            uint256 chainId,\\n            address verifyingContract,\\n            bytes32 salt,\\n            uint256[] memory extensions\\n        )\\n    {\\n        return (\\n            hex\\\"0f\\\", // 01111\\n            _EIP712Name(),\\n            _EIP712Version(),\\n            block.chainid,\\n            address(this),\\n            bytes32(0),\\n            new uint256[](0)\\n        );\\n    }\\n\\n    /**\\n     * @dev The name parameter for the EIP712 domain.\\n     *\\n     * NOTE: By default this function reads _name which is an immutable value.\\n     * It only reads from storage if necessary (in case the value is too large to fit in a ShortString).\\n     */\\n    // solhint-disable-next-line func-name-mixedcase\\n    function _EIP712Name() internal view returns (string memory) {\\n        return _name.toStringWithFallback(_nameFallback);\\n    }\\n\\n    /**\\n     * @dev The version parameter for the EIP712 domain.\\n     *\\n     * NOTE: By default this function reads _version which is an immutable value.\\n     * It only reads from storage if necessary (in case the value is too large to fit in a ShortString).\\n     */\\n    // solhint-disable-next-line func-name-mixedcase\\n    function _EIP712Version() internal view returns (string memory) {\\n        return _version.toStringWithFallback(_versionFallback);\\n    }\\n}\\n\"},\"@openzeppelin/contracts@5.0.1/token/ERC1155/IERC1155Receiver.sol\":{\"content\":\"// SPDX-License-Identifier: MIT\\n// OpenZeppelin Contracts (last updated v5.0.0) (token/ERC1155/IERC1155Receiver.sol)\\n\\npragma solidity ^0.8.20;\\n\\nimport {IERC165} from \\\"../../utils/introspection/IERC165.sol\\\";\\n\\n/**\\n * @dev Interface that must be implemented by smart contracts in order to receive\\n * ERC-1155 token transfers.\\n */\\ninterface IERC1155Receiver is IERC165 {\\n    /**\\n     * @dev Handles the receipt of a single ERC1155 token type. This function is\\n     * called at the end of a `safeTransferFrom` after the balance has been updated.\\n     *\\n     * NOTE: To accept the transfer, this must return\\n     * `bytes4(keccak256(\\\"onERC1155Received(address,address,uint256,uint256,bytes)\\\"))`\\n     * (i.e. 0xf23a6e61, or its own function selector).\\n     *\\n     * @param operator The address which initiated the transfer (i.e. msg.sender)\\n     * @param from The address which previously owned the token\\n     * @param id The ID of the token being transferred\\n     * @param value The amount of tokens being transferred\\n     * @param data Additional data with no specified format\\n     * @return `bytes4(keccak256(\\\"onERC1155Received(address,address,uint256,uint256,bytes)\\\"))` if transfer is allowed\\n     */\\n    function onERC1155Received(\\n        address operator,\\n        address from,\\n        uint256 id,\\n        uint256 value,\\n        bytes calldata data\\n    ) external returns (bytes4);\\n\\n    /**\\n     * @dev Handles the receipt of a multiple ERC1155 token types. This function\\n     * is called at the end of a `safeBatchTransferFrom` after the balances have\\n     * been updated.\\n     *\\n     * NOTE: To accept the transfer(s), this must return\\n     * `bytes4(keccak256(\\\"onERC1155BatchReceived(address,address,uint256[],uint256[],bytes)\\\"))`\\n     * (i.e. 0xbc197c81, or its own function selector).\\n     *\\n     * @param operator The address which initiated the batch transfer (i.e. msg.sender)\\n     * @param from The address which previously owned the token\\n     * @param ids An array containing ids of each token being transferred (order and length must match values array)\\n     * @param values An array containing amounts of each token being transferred (order and length must match ids array)\\n     * @param data Additional data with no specified format\\n     * @return `bytes4(keccak256(\\\"onERC1155BatchReceived(address,address,uint256[],uint256[],bytes)\\\"))` if transfer is allowed\\n     */\\n    function onERC1155BatchReceived(\\n        address operator,\\n        address from,\\n        uint256[] calldata ids,\\n        uint256[] calldata values,\\n        bytes calldata data\\n    ) external returns (bytes4);\\n}\\n\"},\"@openzeppelin/contracts@5.0.1/token/ERC721/IERC721Receiver.sol\":{\"content\":\"// SPDX-License-Identifier: MIT\\n// OpenZeppelin Contracts (last updated v5.0.0) (token/ERC721/IERC721Receiver.sol)\\n\\npragma solidity ^0.8.20;\\n\\n/**\\n * @title ERC721 token receiver interface\\n * @dev Interface for any contract that wants to support safeTransfers\\n * from ERC721 asset contracts.\\n */\\ninterface IERC721Receiver {\\n    /**\\n     * @dev Whenever an {IERC721} `tokenId` token is transferred to this contract via {IERC721-safeTransferFrom}\\n     * by `operator` from `from`, this function is called.\\n     *\\n     * It must return its Solidity selector to confirm the token transfer.\\n     * If any other value is returned or the interface is not implemented by the recipient, the transfer will be\\n     * reverted.\\n     *\\n     * The selector can be obtained in Solidity with `IERC721Receiver.onERC721Received.selector`.\\n     */\\n    function onERC721Received(\\n        address operator,\\n        address from,\\n        uint256 tokenId,\\n        bytes calldata data\\n    ) external returns (bytes4);\\n}\\n\"},\"@openzeppelin/contracts@5.0.1/utils/math/Math.sol\":{\"content\":\"// SPDX-License-Identifier: MIT\\n// OpenZeppelin Contracts (last updated v5.0.0) (utils/math/Math.sol)\\n\\npragma solidity ^0.8.20;\\n\\n/**\\n * @dev Standard math utilities missing in the Solidity language.\\n */\\nlibrary Math {\\n    /**\\n     * @dev Muldiv operation overflow.\\n     */\\n    error MathOverflowedMulDiv();\\n\\n    enum Rounding {\\n        Floor, // Toward negative infinity\\n        Ceil, // Toward positive infinity\\n        Trunc, // Toward zero\\n        Expand // Away from zero\\n    }\\n\\n    /**\\n     * @dev Returns the addition of two unsigned integers, with an overflow flag.\\n     */\\n    function tryAdd(uint256 a, uint256 b) internal pure returns (bool, uint256) {\\n        unchecked {\\n            uint256 c = a + b;\\n            if (c < a) return (false, 0);\\n            return (true, c);\\n        }\\n    }\\n\\n    /**\\n     * @dev Returns the subtraction of two unsigned integers, with an overflow flag.\\n     */\\n    function trySub(uint256 a, uint256 b) internal pure returns (bool, uint256) {\\n        unchecked {\\n            if (b > a) return (false, 0);\\n            return (true, a - b);\\n        }\\n    }\\n\\n    /**\\n     * @dev Returns the multiplication of two unsigned integers, with an overflow flag.\\n     */\\n    function tryMul(uint256 a, uint256 b) internal pure returns (bool, uint256) {\\n        unchecked {\\n            // Gas optimization: this is cheaper than requiring 'a' not being zero, but the\\n            // benefit is lost if 'b' is also tested.\\n            // See: https://github.com/OpenZeppelin/openzeppelin-contracts/pull/522\\n            if (a == 0) return (true, 0);\\n            uint256 c = a * b;\\n            if (c / a != b) return (false, 0);\\n            return (true, c);\\n        }\\n    }\\n\\n    /**\\n     * @dev Returns the division of two unsigned integers, with a division by zero flag.\\n     */\\n    function tryDiv(uint256 a, uint256 b) internal pure returns (bool, uint256) {\\n        unchecked {\\n            if (b == 0) return (false, 0);\\n            return (true, a / b);\\n        }\\n    }\\n\\n    /**\\n     * @dev Returns the remainder of dividing two unsigned integers, with a division by zero flag.\\n     */\\n    function tryMod(uint256 a, uint256 b) internal pure returns (bool, uint256) {\\n        unchecked {\\n            if (b == 0) return (false, 0);\\n            return (true, a % b);\\n        }\\n    }\\n\\n    /**\\n     * @dev Returns the largest of two numbers.\\n     */\\n    function max(uint256 a, uint256 b) internal pure returns (uint256) {\\n        return a > b ? a : b;\\n    }\\n\\n    /**\\n     * @dev Returns the smallest of two numbers.\\n     */\\n    function min(uint256 a, uint256 b) internal pure returns (uint256) {\\n        return a < b ? a : b;\\n    }\\n\\n    /**\\n     * @dev Returns the average of two numbers. The result is rounded towards\\n     * zero.\\n     */\\n    function average(uint256 a, uint256 b) internal pure returns (uint256) {\\n        // (a + b) / 2 can overflow.\\n        return (a & b) + (a ^ b) / 2;\\n    }\\n\\n    /**\\n     * @dev Returns the ceiling of the division of two numbers.\\n     *\\n     * This differs from standard division with `/` in that it rounds towards infinity instead\\n     * of rounding towards zero.\\n     */\\n    function ceilDiv(uint256 a, uint256 b) internal pure returns (uint256) {\\n        if (b == 0) {\\n            // Guarantee the same behavior as in a regular Solidity division.\\n            return a / b;\\n        }\\n\\n        // (a + b - 1) / b can overflow on addition, so we distribute.\\n        return a == 0 ? 0 : (a - 1) / b + 1;\\n    }\\n\\n    /**\\n     * @notice Calculates floor(x * y / denominator) with full precision. Throws if result overflows a uint256 or\\n     * denominator == 0.\\n     * @dev Original credit to Remco Bloemen under MIT license (https://xn--2-umb.com/21/muldiv) with further edits by\\n     * Uniswap Labs also under MIT license.\\n     */\\n    function mulDiv(uint256 x, uint256 y, uint256 denominator) internal pure returns (uint256 result) {\\n        unchecked {\\n            // 512-bit multiply [prod1 prod0] = x * y. Compute the product mod 2^256 and mod 2^256 - 1, then use\\n            // use the Chinese Remainder Theorem to reconstruct the 512 bit result. The result is stored in two 256\\n            // variables such that product = prod1 * 2^256 + prod0.\\n            uint256 prod0 = x * y; // Least significant 256 bits of the product\\n            uint256 prod1; // Most significant 256 bits of the product\\n            assembly {\\n                let mm := mulmod(x, y, not(0))\\n                prod1 := sub(sub(mm, prod0), lt(mm, prod0))\\n            }\\n\\n            // Handle non-overflow cases, 256 by 256 division.\\n            if (prod1 == 0) {\\n                // Solidity will revert if denominator == 0, unlike the div opcode on its own.\\n                // The surrounding unchecked block does not change this fact.\\n                // See https://docs.soliditylang.org/en/latest/control-structures.html#checked-or-unchecked-arithmetic.\\n                return prod0 / denominator;\\n            }\\n\\n            // Make sure the result is less than 2^256. Also prevents denominator == 0.\\n            if (denominator <= prod1) {\\n                revert MathOverflowedMulDiv();\\n            }\\n\\n            ///////////////////////////////////////////////\\n            // 512 by 256 division.\\n            ///////////////////////////////////////////////\\n\\n            // Make division exact by subtracting the remainder from [prod1 prod0].\\n            uint256 remainder;\\n            assembly {\\n                // Compute remainder using mulmod.\\n                remainder := mulmod(x, y, denominator)\\n\\n                // Subtract 256 bit number from 512 bit number.\\n                prod1 := sub(prod1, gt(remainder, prod0))\\n                prod0 := sub(prod0, remainder)\\n            }\\n\\n            // Factor powers of two out of denominator and compute largest power of two divisor of denominator.\\n            // Always >= 1. See https://cs.stackexchange.com/q/138556/92363.\\n\\n            uint256 twos = denominator & (0 - denominator);\\n            assembly {\\n                // Divide denominator by twos.\\n                denominator := div(denominator, twos)\\n\\n                // Divide [prod1 prod0] by twos.\\n                prod0 := div(prod0, twos)\\n\\n                // Flip twos such that it is 2^256 / twos. If twos is zero, then it becomes one.\\n                twos := add(div(sub(0, twos), twos), 1)\\n            }\\n\\n            // Shift in bits from prod1 into prod0.\\n            prod0 |= prod1 * twos;\\n\\n            // Invert denominator mod 2^256. Now that denominator is an odd number, it has an inverse modulo 2^256 such\\n            // that denominator * inv = 1 mod 2^256. Compute the inverse by starting with a seed that is correct for\\n            // four bits. That is, denominator * inv = 1 mod 2^4.\\n            uint256 inverse = (3 * denominator) ^ 2;\\n\\n            // Use the Newton-Raphson iteration to improve the precision. Thanks to Hensel's lifting lemma, this also\\n            // works in modular arithmetic, doubling the correct bits in each step.\\n            inverse *= 2 - denominator * inverse; // inverse mod 2^8\\n            inverse *= 2 - denominator * inverse; // inverse mod 2^16\\n            inverse *= 2 - denominator * inverse; // inverse mod 2^32\\n            inverse *= 2 - denominator * inverse; // inverse mod 2^64\\n            inverse *= 2 - denominator * inverse; // inverse mod 2^128\\n            inverse *= 2 - denominator * inverse; // inverse mod 2^256\\n\\n            // Because the division is now exact we can divide by multiplying with the modular inverse of denominator.\\n            // This will give us the correct result modulo 2^256. Since the preconditions guarantee that the outcome is\\n            // less than 2^256, this is the final result. We don't need to compute the high bits of the result and prod1\\n            // is no longer required.\\n            result = prod0 * inverse;\\n            return result;\\n        }\\n    }\\n\\n    /**\\n     * @notice Calculates x * y / denominator with full precision, following the selected rounding direction.\\n     */\\n    function mulDiv(uint256 x, uint256 y, uint256 denominator, Rounding rounding) internal pure returns (uint256) {\\n        uint256 result = mulDiv(x, y, denominator);\\n        if (unsignedRoundsUp(rounding) && mulmod(x, y, denominator) > 0) {\\n            result += 1;\\n        }\\n        return result;\\n    }\\n\\n    /**\\n     * @dev Returns the square root of a number. If the number is not a perfect square, the value is rounded\\n     * towards zero.\\n     *\\n     * Inspired by Henry S. Warren, Jr.'s \\\"Hacker's Delight\\\" (Chapter 11).\\n     */\\n    function sqrt(uint256 a) internal pure returns (uint256) {\\n        if (a == 0) {\\n            return 0;\\n        }\\n\\n        // For our first guess, we get the biggest power of 2 which is smaller than the square root of the target.\\n        //\\n        // We know that the \\\"msb\\\" (most significant bit) of our target number `a` is a power of 2 such that we have\\n        // `msb(a) <= a < 2*msb(a)`. This value can be written `msb(a)=2**k` with `k=log2(a)`.\\n        //\\n        // This can be rewritten `2**log2(a) <= a < 2**(log2(a) + 1)`\\n        //  `sqrt(2**k) <= sqrt(a) < sqrt(2**(k+1))`\\n        //  `2**(k/2) <= sqrt(a) < 2**((k+1)/2) <= 2**(k/2 + 1)`\\n        //\\n        // Consequently, `2**(log2(a) / 2)` is a good first approximation of `sqrt(a)` with at least 1 correct bit.\\n        uint256 result = 1 << (log2(a) >> 1);\\n\\n        // At this point `result` is an estimation with one bit of precision. We know the true value is a uint128,\\n        // since it is the square root of a uint256. Newton's method converges quadratically (precision doubles at\\n        // every iteration). We thus need at most 7 iteration to turn our partial result with one bit of precision\\n        // into the expected uint128 result.\\n        unchecked {\\n            result = (result + a / result) >> 1;\\n            result = (result + a / result) >> 1;\\n            result = (result + a / result) >> 1;\\n            result = (result + a / result) >> 1;\\n            result = (result + a / result) >> 1;\\n            result = (result + a / result) >> 1;\\n            result = (result + a / result) >> 1;\\n            return min(result, a / result);\\n        }\\n    }\\n\\n    /**\\n     * @notice Calculates sqrt(a), following the selected rounding direction.\\n     */\\n    function sqrt(uint256 a, Rounding rounding) internal pure returns (uint256) {\\n        unchecked {\\n            uint256 result = sqrt(a);\\n            return result + (unsignedRoundsUp(rounding) && result * result < a ? 1 : 0);\\n        }\\n    }\\n\\n    /**\\n     * @dev Return the log in base 2 of a positive value rounded towards zero.\\n     * Returns 0 if given 0.\\n     */\\n    function log2(uint256 value) internal pure returns (uint256) {\\n        uint256 result = 0;\\n        unchecked {\\n            if (value >> 128 > 0) {\\n                value >>= 128;\\n                result += 128;\\n            }\\n            if (value >> 64 > 0) {\\n                value >>= 64;\\n                result += 64;\\n            }\\n            if (value >> 32 > 0) {\\n                value >>= 32;\\n                result += 32;\\n            }\\n            if (value >> 16 > 0) {\\n                value >>= 16;\\n                result += 16;\\n            }\\n            if (value >> 8 > 0) {\\n                value >>= 8;\\n                result += 8;\\n            }\\n            if (value >> 4 > 0) {\\n                value >>= 4;\\n                result += 4;\\n            }\\n            if (value >> 2 > 0) {\\n                value >>= 2;\\n                result += 2;\\n            }\\n            if (value >> 1 > 0) {\\n                result += 1;\\n            }\\n        }\\n        return result;\\n    }\\n\\n    /**\\n     * @dev Return the log in base 2, following the selected rounding direction, of a positive value.\\n     * Returns 0 if given 0.\\n     */\\n    function log2(uint256 value, Rounding rounding) internal pure returns (uint256) {\\n        unchecked {\\n            uint256 result = log2(value);\\n            return result + (unsignedRoundsUp(rounding) && 1 << result < value ? 1 : 0);\\n        }\\n    }\\n\\n    /**\\n     * @dev Return the log in base 10 of a positive value rounded towards zero.\\n     * Returns 0 if given 0.\\n     */\\n    function log10(uint256 value) internal pure returns (uint256) {\\n        uint256 result = 0;\\n        unchecked {\\n            if (value >= 10 ** 64) {\\n                value /= 10 ** 64;\\n                result += 64;\\n            }\\n            if (value >= 10 ** 32) {\\n                value /= 10 ** 32;\\n                result += 32;\\n            }\\n            if (value >= 10 ** 16) {\\n                value /= 10 ** 16;\\n                result += 16;\\n            }\\n            if (value >= 10 ** 8) {\\n                value /= 10 ** 8;\\n                result += 8;\\n            }\\n            if (value >= 10 ** 4) {\\n                value /= 10 ** 4;\\n                result += 4;\\n            }\\n            if (value >= 10 ** 2) {\\n                value /= 10 ** 2;\\n                result += 2;\\n            }\\n            if (value >= 10 ** 1) {\\n                result += 1;\\n            }\\n        }\\n        return result;\\n    }\\n\\n    /**\\n     * @dev Return the log in base 10, following the selected rounding direction, of a positive value.\\n     * Returns 0 if given 0.\\n     */\\n    function log10(uint256 value, Rounding rounding) internal pure returns (uint256) {\\n        unchecked {\\n            uint256 result = log10(value);\\n            return result + (unsignedRoundsUp(rounding) && 10 ** result < value ? 1 : 0);\\n        }\\n    }\\n\\n    /**\\n     * @dev Return the log in base 256 of a positive value rounded towards zero.\\n     * Returns 0 if given 0.\\n     *\\n     * Adding one to the result gives the number of pairs of hex symbols needed to represent `value` as a hex string.\\n     */\\n    function log256(uint256 value) internal pure returns (uint256) {\\n        uint256 result = 0;\\n        unchecked {\\n            if (value >> 128 > 0) {\\n                value >>= 128;\\n                result += 16;\\n            }\\n            if (value >> 64 > 0) {\\n                value >>= 64;\\n                result += 8;\\n            }\\n            if (value >> 32 > 0) {\\n                value >>= 32;\\n                result += 4;\\n            }\\n            if (value >> 16 > 0) {\\n                value >>= 16;\\n                result += 2;\\n            }\\n            if (value >> 8 > 0) {\\n                result += 1;\\n            }\\n        }\\n        return result;\\n    }\\n\\n    /**\\n     * @dev Return the log in base 256, following the selected rounding direction, of a positive value.\\n     * Returns 0 if given 0.\\n     */\\n    function log256(uint256 value, Rounding rounding) internal pure returns (uint256) {\\n        unchecked {\\n            uint256 result = log256(value);\\n            return result + (unsignedRoundsUp(rounding) && 1 << (result << 3) < value ? 1 : 0);\\n        }\\n    }\\n\\n    /**\\n     * @dev Returns whether a provided rounding mode is considered rounding up for unsigned integers.\\n     */\\n    function unsignedRoundsUp(Rounding rounding) internal pure returns (bool) {\\n        return uint8(rounding) % 2 == 1;\\n    }\\n}\\n\"},\"@openzeppelin/contracts@5.0.1/utils/introspection/IERC165.sol\":{\"content\":\"// SPDX-License-Identifier: MIT\\n// OpenZeppelin Contracts (last updated v5.0.0) (utils/introspection/IERC165.sol)\\n\\npragma solidity ^0.8.20;\\n\\n/**\\n * @dev Interface of the ERC165 standard, as defined in the\\n * https://eips.ethereum.org/EIPS/eip-165[EIP].\\n *\\n * Implementers can declare support of contract interfaces, which can then be\\n * queried by others ({ERC165Checker}).\\n *\\n * For an implementation, see {ERC165}.\\n */\\ninterface IERC165 {\\n    /**\\n     * @dev Returns true if this contract implements the interface defined by\\n     * `interfaceId`. See the corresponding\\n     * https://eips.ethereum.org/EIPS/eip-165#how-interfaces-are-identified[EIP section]\\n     * to learn more about how these ids are created.\\n     *\\n     * This function call must use less than 30 000 gas.\\n     */\\n    function supportsInterface(bytes4 interfaceId) external view returns (bool);\\n}\\n\"},\"@openzeppelin/contracts@5.0.1/interfaces/IERC1271.sol\":{\"content\":\"// SPDX-License-Identifier: MIT\\n// OpenZeppelin Contracts (last updated v5.0.0) (interfaces/IERC1271.sol)\\n\\npragma solidity ^0.8.20;\\n\\n/**\\n * @dev Interface of the ERC1271 standard signature validation method for\\n * contracts as defined in https://eips.ethereum.org/EIPS/eip-1271[ERC-1271].\\n */\\ninterface IERC1271 {\\n    /**\\n     * @dev Should return whether the signature provided is valid for the provided data\\n     * @param hash      Hash of the data to be signed\\n     * @param signature Signature byte array associated with _data\\n     */\\n    function isValidSignature(bytes32 hash, bytes memory signature) external view returns (bytes4 magicValue);\\n}\\n\"},\"@openzeppelin/contracts@5.0.1/utils/cryptography/ECDSA.sol\":{\"content\":\"// SPDX-License-Identifier: MIT\\n// OpenZeppelin Contracts (last updated v5.0.0) (utils/cryptography/ECDSA.sol)\\n\\npragma solidity ^0.8.20;\\n\\n/**\\n * @dev Elliptic Curve Digital Signature Algorithm (ECDSA) operations.\\n *\\n * These functions can be used to verify that a message was signed by the holder\\n * of the private keys of a given address.\\n */\\nlibrary ECDSA {\\n    enum RecoverError {\\n        NoError,\\n        InvalidSignature,\\n        InvalidSignatureLength,\\n        InvalidSignatureS\\n    }\\n\\n    /**\\n     * @dev The signature derives the `address(0)`.\\n     */\\n    error ECDSAInvalidSignature();\\n\\n    /**\\n     * @dev The signature has an invalid length.\\n     */\\n    error ECDSAInvalidSignatureLength(uint256 length);\\n\\n    /**\\n     * @dev The signature has an S value that is in the upper half order.\\n     */\\n    error ECDSAInvalidSignatureS(bytes32 s);\\n\\n    /**\\n     * @dev Returns the address that signed a hashed message (`hash`) with `signature` or an error. This will not\\n     * return address(0) without also returning an error description. Errors are documented using an enum (error type)\\n     * and a bytes32 providing additional information about the error.\\n     *\\n     * If no error is returned, then the address can be used for verification purposes.\\n     *\\n     * The `ecrecover` EVM precompile allows for malleable (non-unique) signatures:\\n     * this function rejects them by requiring the `s` value to be in the lower\\n     * half order, and the `v` value to be either 27 or 28.\\n     *\\n     * IMPORTANT: `hash` _must_ be the result of a hash operation for the\\n     * verification to be secure: it is possible to craft signatures that\\n     * recover to arbitrary addresses for non-hashed data. A safe way to ensure\\n     * this is by receiving a hash of the original message (which may otherwise\\n     * be too long), and then calling {MessageHashUtils-toEthSignedMessageHash} on it.\\n     *\\n     * Documentation for signature generation:\\n     * - with https://web3js.readthedocs.io/en/v1.3.4/web3-eth-accounts.html#sign[Web3.js]\\n     * - with https://docs.ethers.io/v5/api/signer/#Signer-signMessage[ethers]\\n     */\\n    function tryRecover(bytes32 hash, bytes memory signature) internal pure returns (address, RecoverError, bytes32) {\\n        if (signature.length == 65) {\\n            bytes32 r;\\n            bytes32 s;\\n            uint8 v;\\n            // ecrecover takes the signature parameters, and the only way to get them\\n            // currently is to use assembly.\\n            /// @solidity memory-safe-assembly\\n            assembly {\\n                r := mload(add(signature, 0x20))\\n                s := mload(add(signature, 0x40))\\n                v := byte(0, mload(add(signature, 0x60)))\\n            }\\n            return tryRecover(hash, v, r, s);\\n        } else {\\n            return (address(0), RecoverError.InvalidSignatureLength, bytes32(signature.length));\\n        }\\n    }\\n\\n    /**\\n     * @dev Returns the address that signed a hashed message (`hash`) with\\n     * `signature`. This address can then be used for verification purposes.\\n     *\\n     * The `ecrecover` EVM precompile allows for malleable (non-unique) signatures:\\n     * this function rejects them by requiring the `s` value to be in the lower\\n     * half order, and the `v` value to be either 27 or 28.\\n     *\\n     * IMPORTANT: `hash` _must_ be the result of a hash operation for the\\n     * verification to be secure: it is possible to craft signatures that\\n     * recover to arbitrary addresses for non-hashed data. A safe way to ensure\\n     * this is by receiving a hash of the original message (which may otherwise\\n     * be too long), and then calling {MessageHashUtils-toEthSignedMessageHash} on it.\\n     */\\n    function recover(bytes32 hash, bytes memory signature) internal pure returns (address) {\\n        (address recovered, RecoverError error, bytes32 errorArg) = tryRecover(hash, signature);\\n        _throwError(error, errorArg);\\n        return recovered;\\n    }\\n\\n    /**\\n     * @dev Overload of {ECDSA-tryRecover} that receives the `r` and `vs` short-signature fields separately.\\n     *\\n     * See https://eips.ethereum.org/EIPS/eip-2098[EIP-2098 short signatures]\\n     */\\n    function tryRecover(bytes32 hash, bytes32 r, bytes32 vs) internal pure returns (address, RecoverError, bytes32) {\\n        unchecked {\\n            bytes32 s = vs & bytes32(0x7fffffffffffffffffffffffffffffffffffffffffffffffffffffffffffffff);\\n            // We do not check for an overflow here since the shift operation results in 0 or 1.\\n            uint8 v = uint8((uint256(vs) >> 255) + 27);\\n            return tryRecover(hash, v, r, s);\\n        }\\n    }\\n\\n    /**\\n     * @dev Overload of {ECDSA-recover} that receives the `r and `vs` short-signature fields separately.\\n     */\\n    function recover(bytes32 hash, bytes32 r, bytes32 vs) internal pure returns (address) {\\n        (address recovered, RecoverError error, bytes32 errorArg) = tryRecover(hash, r, vs);\\n        _throwError(error, errorArg);\\n        return recovered;\\n    }\\n\\n    /**\\n     * @dev Overload of {ECDSA-tryRecover} that receives the `v`,\\n     * `r` and `s` signature fields separately.\\n     */\\n    function tryRecover(\\n        bytes32 hash,\\n        uint8 v,\\n        bytes32 r,\\n        bytes32 s\\n    ) internal pure returns (address, RecoverError, bytes32) {\\n        // EIP-2 still allows signature malleability for ecrecover(). Remove this possibility and make the signature\\n        // unique. Appendix F in the Ethereum Yellow paper (https://ethereum.github.io/yellowpaper/paper.pdf), defines\\n        // the valid range for s in (301): 0 < s < secp256k1n  2 + 1, and for v in (302): v  {27, 28}. Most\\n        // signatures from current libraries generate a unique signature with an s-value in the lower half order.\\n        //\\n        // If your library generates malleable signatures, such as s-values in the upper range, calculate a new s-value\\n        // with 0xFFFFFFFFFFFFFFFFFFFFFFFFFFFFFFFEBAAEDCE6AF48A03BBFD25E8CD0364141 - s1 and flip v from 27 to 28 or\\n        // vice versa. If your library also generates signatures with 0/1 for v instead 27/28, add 27 to v to accept\\n        // these malleable signatures as well.\\n        if (uint256(s) > 0x7FFFFFFFFFFFFFFFFFFFFFFFFFFFFFFF5D576E7357A4501DDFE92F46681B20A0) {\\n            return (address(0), RecoverError.InvalidSignatureS, s);\\n        }\\n\\n        // If the signature is valid (and not malleable), return the signer address\\n        address signer = ecrecover(hash, v, r, s);\\n        if (signer == address(0)) {\\n            return (address(0), RecoverError.InvalidSignature, bytes32(0));\\n        }\\n\\n        return (signer, RecoverError.NoError, bytes32(0));\\n    }\\n\\n    /**\\n     * @dev Overload of {ECDSA-recover} that receives the `v`,\\n     * `r` and `s` signature fields separately.\\n     */\\n    function recover(bytes32 hash, uint8 v, bytes32 r, bytes32 s) internal pure returns (address) {\\n        (address recovered, RecoverError error, bytes32 errorArg) = tryRecover(hash, v, r, s);\\n        _throwError(error, errorArg);\\n        return recovered;\\n    }\\n\\n    /**\\n     * @dev Optionally reverts with the corresponding custom error according to the `error` argument provided.\\n     */\\n    function _throwError(RecoverError error, bytes32 errorArg) private pure {\\n        if (error == RecoverError.NoError) {\\n            return; // no error: do nothing\\n        } else if (error == RecoverError.InvalidSignature) {\\n            revert ECDSAInvalidSignature();\\n        } else if (error == RecoverError.InvalidSignatureLength) {\\n            revert ECDSAInvalidSignatureLength(uint256(errorArg));\\n        } else if (error == RecoverError.InvalidSignatureS) {\\n            revert ECDSAInvalidSignatureS(errorArg);\\n        }\\n    }\\n}\\n\"},\"@openzeppelin/contracts@5.0.1/interfaces/IERC5267.sol\":{\"content\":\"// SPDX-License-Identifier: MIT\\n// OpenZeppelin Contracts (last updated v5.0.0) (interfaces/IERC5267.sol)\\n\\npragma solidity ^0.8.20;\\n\\ninterface IERC5267 {\\n    /**\\n     * @dev MAY be emitted to signal that the domain could have changed.\\n     */\\n    event EIP712DomainChanged();\\n\\n    /**\\n     * @dev returns the fields and values that describe the domain separator used by this contract for EIP-712\\n     * signature.\\n     */\\n    function eip712Domain()\\n        external\\n        view\\n        returns (\\n            bytes1 fields,\\n            string memory name,\\n            string memory version,\\n            uint256 chainId,\\n            address verifyingContract,\\n            bytes32 salt,\\n            uint256[] memory extensions\\n        );\\n}\\n\"},\"@openzeppelin/contracts@5.0.1/utils/ShortStrings.sol\":{\"content\":\"// SPDX-License-Identifier: MIT\\n// OpenZeppelin Contracts (last updated v5.0.0) (utils/ShortStrings.sol)\\n\\npragma solidity ^0.8.20;\\n\\nimport {StorageSlot} from \\\"./StorageSlot.sol\\\";\\n\\n// | string  | 0xAAAAAAAAAAAAAAAAAAAAAAAAAAAAAAAAAAAAAAAAAAAAAAAAAAAAAAAAAAAAAA   |\\n// | length  | 0x                                                              BB |\\ntype ShortString is bytes32;\\n\\n/**\\n * @dev This library provides functions to convert short memory strings\\n * into a `ShortString` type that can be used as an immutable variable.\\n *\\n * Strings of arbitrary length can be optimized using this library if\\n * they are short enough (up to 31 bytes) by packing them with their\\n * length (1 byte) in a single EVM word (32 bytes). Additionally, a\\n * fallback mechanism can be used for every other case.\\n *\\n * Usage example:\\n *\\n * ```solidity\\n * contract Named {\\n *     using ShortStrings for *;\\n *\\n *     ShortString private immutable _name;\\n *     string private _nameFallback;\\n *\\n *     constructor(string memory contractName) {\\n *         _name = contractName.toShortStringWithFallback(_nameFallback);\\n *     }\\n *\\n *     function name() external view returns (string memory) {\\n *         return _name.toStringWithFallback(_nameFallback);\\n *     }\\n * }\\n * ```\\n */\\nlibrary ShortStrings {\\n    // Used as an identifier for strings longer than 31 bytes.\\n    bytes32 private constant FALLBACK_SENTINEL = 0x00000000000000000000000000000000000000000000000000000000000000FF;\\n\\n    error StringTooLong(string str);\\n    error InvalidShortString();\\n\\n    /**\\n     * @dev Encode a string of at most 31 chars into a `ShortString`.\\n     *\\n     * This will trigger a `StringTooLong` error is the input string is too long.\\n     */\\n    function toShortString(string memory str) internal pure returns (ShortString) {\\n        bytes memory bstr = bytes(str);\\n        if (bstr.length > 31) {\\n            revert StringTooLong(str);\\n        }\\n        return ShortString.wrap(bytes32(uint256(bytes32(bstr)) | bstr.length));\\n    }\\n\\n    /**\\n     * @dev Decode a `ShortString` back to a \\\"normal\\\" string.\\n     */\\n    function toString(ShortString sstr) internal pure returns (string memory) {\\n        uint256 len = byteLength(sstr);\\n        // using `new string(len)` would work locally but is not memory safe.\\n        string memory str = new string(32);\\n        /// @solidity memory-safe-assembly\\n        assembly {\\n            mstore(str, len)\\n            mstore(add(str, 0x20), sstr)\\n        }\\n        return str;\\n    }\\n\\n    /**\\n     * @dev Return the length of a `ShortString`.\\n     */\\n    function byteLength(ShortString sstr) internal pure returns (uint256) {\\n        uint256 result = uint256(ShortString.unwrap(sstr)) & 0xFF;\\n        if (result > 31) {\\n            revert InvalidShortString();\\n        }\\n        return result;\\n    }\\n\\n    /**\\n     * @dev Encode a string into a `ShortString`, or write it to storage if it is too long.\\n     */\\n    function toShortStringWithFallback(string memory value, string storage store) internal returns (ShortString) {\\n        if (bytes(value).length < 32) {\\n            return toShortString(value);\\n        } else {\\n            StorageSlot.getStringSlot(store).value = value;\\n            return ShortString.wrap(FALLBACK_SENTINEL);\\n        }\\n    }\\n\\n    /**\\n     * @dev Decode a string that was encoded to `ShortString` or written to storage using {setWithFallback}.\\n     */\\n    function toStringWithFallback(ShortString value, string storage store) internal pure returns (string memory) {\\n        if (ShortString.unwrap(value) != FALLBACK_SENTINEL) {\\n            return toString(value);\\n        } else {\\n            return store;\\n        }\\n    }\\n\\n    /**\\n     * @dev Return the length of a string that was encoded to `ShortString` or written to storage using\\n     * {setWithFallback}.\\n     *\\n     * WARNING: This will return the \\\"byte length\\\" of the string. This may not reflect the actual length in terms of\\n     * actual characters as the UTF-8 encoding of a single character can span over multiple bytes.\\n     */\\n    function byteLengthWithFallback(ShortString value, string storage store) internal view returns (uint256) {\\n        if (ShortString.unwrap(value) != FALLBACK_SENTINEL) {\\n            return byteLength(value);\\n        } else {\\n            return bytes(store).length;\\n        }\\n    }\\n}\\n\"},\"@openzeppelin/contracts@5.0.1/utils/cryptography/MessageHashUtils.sol\":{\"content\":\"// SPDX-License-Identifier: MIT\\n// OpenZeppelin Contracts (last updated v5.0.0) (utils/cryptography/MessageHashUtils.sol)\\n\\npragma solidity ^0.8.20;\\n\\nimport {Strings} from \\\"../Strings.sol\\\";\\n\\n/**\\n * @dev Signature message hash utilities for producing digests to be consumed by {ECDSA} recovery or signing.\\n *\\n * The library provides methods for generating a hash of a message that conforms to the\\n * https://eips.ethereum.org/EIPS/eip-191[EIP 191] and https://eips.ethereum.org/EIPS/eip-712[EIP 712]\\n * specifications.\\n */\\nlibrary MessageHashUtils {\\n    /**\\n     * @dev Returns the keccak256 digest of an EIP-191 signed data with version\\n     * `0x45` (`personal_sign` messages).\\n     *\\n     * The digest is calculated by prefixing a bytes32 `messageHash` with\\n     * `\\\"\\\\x19Ethereum Signed Message:\\\\n32\\\"` and hashing the result. It corresponds with the\\n     * hash signed when using the https://eth.wiki/json-rpc/API#eth_sign[`eth_sign`] JSON-RPC method.\\n     *\\n     * NOTE: The `messageHash` parameter is intended to be the result of hashing a raw message with\\n     * keccak256, although any bytes32 value can be safely used because the final digest will\\n     * be re-hashed.\\n     *\\n     * See {ECDSA-recover}.\\n     */\\n    function toEthSignedMessageHash(bytes32 messageHash) internal pure returns (bytes32 digest) {\\n        /// @solidity memory-safe-assembly\\n        assembly {\\n            mstore(0x00, \\\"\\\\x19Ethereum Signed Message:\\\\n32\\\") // 32 is the bytes-length of messageHash\\n            mstore(0x1c, messageHash) // 0x1c (28) is the length of the prefix\\n            digest := keccak256(0x00, 0x3c) // 0x3c is the length of the prefix (0x1c) + messageHash (0x20)\\n        }\\n    }\\n\\n    /**\\n     * @dev Returns the keccak256 digest of an EIP-191 signed data with version\\n     * `0x45` (`personal_sign` messages).\\n     *\\n     * The digest is calculated by prefixing an arbitrary `message` with\\n     * `\\\"\\\\x19Ethereum Signed Message:\\\\n\\\" + len(message)` and hashing the result. It corresponds with the\\n     * hash signed when using the https://eth.wiki/json-rpc/API#eth_sign[`eth_sign`] JSON-RPC method.\\n     *\\n     * See {ECDSA-recover}.\\n     */\\n    function toEthSignedMessageHash(bytes memory message) internal pure returns (bytes32) {\\n        return\\n            keccak256(bytes.concat(\\\"\\\\x19Ethereum Signed Message:\\\\n\\\", bytes(Strings.toString(message.length)), message));\\n    }\\n\\n    /**\\n     * @dev Returns the keccak256 digest of an EIP-191 signed data with version\\n     * `0x00` (data with intended validator).\\n     *\\n     * The digest is calculated by prefixing an arbitrary `data` with `\\\"\\\\x19\\\\x00\\\"` and the intended\\n     * `validator` address. Then hashing the result.\\n     *\\n     * See {ECDSA-recover}.\\n     */\\n    function toDataWithIntendedValidatorHash(address validator, bytes memory data) internal pure returns (bytes32) {\\n        return keccak256(abi.encodePacked(hex\\\"19_00\\\", validator, data));\\n    }\\n\\n    /**\\n     * @dev Returns the keccak256 digest of an EIP-712 typed data (EIP-191 version `0x01`).\\n     *\\n     * The digest is calculated from a `domainSeparator` and a `structHash`, by prefixing them with\\n     * `\\\\x19\\\\x01` and hashing the result. It corresponds to the hash signed by the\\n     * https://eips.ethereum.org/EIPS/eip-712[`eth_signTypedData`] JSON-RPC method as part of EIP-712.\\n     *\\n     * See {ECDSA-recover}.\\n     */\\n    function toTypedDataHash(bytes32 domainSeparator, bytes32 structHash) internal pure returns (bytes32 digest) {\\n        /// @solidity memory-safe-assembly\\n        assembly {\\n            let ptr := mload(0x40)\\n            mstore(ptr, hex\\\"19_01\\\")\\n            mstore(add(ptr, 0x02), domainSeparator)\\n            mstore(add(ptr, 0x22), structHash)\\n            digest := keccak256(ptr, 0x42)\\n        }\\n    }\\n}\\n\"},\"@openzeppelin/contracts@5.0.1/interfaces/IERC6372.sol\":{\"content\":\"// SPDX-License-Identifier: MIT\\n// OpenZeppelin Contracts (last updated v5.0.0) (interfaces/IERC6372.sol)\\n\\npragma solidity ^0.8.20;\\n\\ninterface IERC6372 {\\n    /**\\n     * @dev Clock used for flagging checkpoints. Can be overridden to implement timestamp based checkpoints (and voting).\\n     */\\n    function clock() external view returns (uint48);\\n\\n    /**\\n     * @dev Description of the clock\\n     */\\n    // solhint-disable-next-line func-name-mixedcase\\n    function CLOCK_MODE() external view returns (string memory);\\n}\\n\"},\"@openzeppelin/contracts@5.0.1/token/ERC1155/utils/ERC1155Holder.sol\":{\"content\":\"// SPDX-License-Identifier: MIT\\n// OpenZeppelin Contracts (last updated v5.0.0) (token/ERC1155/utils/ERC1155Holder.sol)\\n\\npragma solidity ^0.8.20;\\n\\nimport {IERC165, ERC165} from \\\"../../../utils/introspection/ERC165.sol\\\";\\nimport {IERC1155Receiver} from \\\"../IERC1155Receiver.sol\\\";\\n\\n/**\\n * @dev Simple implementation of `IERC1155Receiver` that will allow a contract to hold ERC1155 tokens.\\n *\\n * IMPORTANT: When inheriting this contract, you must include a way to use the received tokens, otherwise they will be\\n * stuck.\\n */\\nabstract contract ERC1155Holder is ERC165, IERC1155Receiver {\\n    /**\\n     * @dev See {IERC165-supportsInterface}.\\n     */\\n    function supportsInterface(bytes4 interfaceId) public view virtual override(ERC165, IERC165) returns (bool) {\\n        return interfaceId == type(IERC1155Receiver).interfaceId || super.supportsInterface(interfaceId);\\n    }\\n\\n    function onERC1155Received(\\n        address,\\n        address,\\n        uint256,\\n        uint256,\\n        bytes memory\\n    ) public virtual override returns (bytes4) {\\n        return this.onERC1155Received.selector;\\n    }\\n\\n    function onERC1155BatchReceived(\\n        address,\\n        address,\\n        uint256[] memory,\\n        uint256[] memory,\\n        bytes memory\\n    ) public virtual override returns (bytes4) {\\n        return this.onERC1155BatchReceived.selector;\\n    }\\n}\\n\"},\"@openzeppelin/contracts@5.0.1/token/ERC721/utils/ERC721Holder.sol\":{\"content\":\"// SPDX-License-Identifier: MIT\\n// OpenZeppelin Contracts (last updated v5.0.0) (token/ERC721/utils/ERC721Holder.sol)\\n\\npragma solidity ^0.8.20;\\n\\nimport {IERC721Receiver} from \\\"../IERC721Receiver.sol\\\";\\n\\n/**\\n * @dev Implementation of the {IERC721Receiver} interface.\\n *\\n * Accepts all token transfers.\\n * Make sure the contract is able to use its token with {IERC721-safeTransferFrom}, {IERC721-approve} or\\n * {IERC721-setApprovalForAll}.\\n */\\nabstract contract ERC721Holder is IERC721Receiver {\\n    /**\\n     * @dev See {IERC721Receiver-onERC721Received}.\\n     *\\n     * Always returns `IERC721Receiver.onERC721Received.selector`.\\n     */\\n    function onERC721Received(address, address, uint256, bytes memory) public virtual returns (bytes4) {\\n        return this.onERC721Received.selector;\\n    }\\n}\\n\"},\"@openzeppelin/contracts@5.0.1/access/AccessControl.sol\":{\"content\":\"// SPDX-License-Identifier: MIT\\n// OpenZeppelin Contracts (last updated v5.0.0) (access/AccessControl.sol)\\n\\npragma solidity ^0.8.20;\\n\\nimport {IAccessControl} from \\\"./IAccessControl.sol\\\";\\nimport {Context} from \\\"../utils/Context.sol\\\";\\nimport {ERC165} from \\\"../utils/introspection/ERC165.sol\\\";\\n\\n/**\\n * @dev Contract module that allows children to implement role-based access\\n * control mechanisms. This is a lightweight version that doesn't allow enumerating role\\n * members except through off-chain means by accessing the contract event logs. Some\\n * applications may benefit from on-chain enumerability, for those cases see\\n * {AccessControlEnumerable}.\\n *\\n * Roles are referred to by their `bytes32` identifier. These should be exposed\\n * in the external API and be unique. The best way to achieve this is by\\n * using `public constant` hash digests:\\n *\\n * ```solidity\\n * bytes32 public constant MY_ROLE = keccak256(\\\"MY_ROLE\\\");\\n * ```\\n *\\n * Roles can be used to represent a set of permissions. To restrict access to a\\n * function call, use {hasRole}:\\n *\\n * ```solidity\\n * function foo() public {\\n *     require(hasRole(MY_ROLE, msg.sender));\\n *     ...\\n * }\\n * ```\\n *\\n * Roles can be granted and revoked dynamically via the {grantRole} and\\n * {revokeRole} functions. Each role has an associated admin role, and only\\n * accounts that have a role's admin role can call {grantRole} and {revokeRole}.\\n *\\n * By default, the admin role for all roles is `DEFAULT_ADMIN_ROLE`, which means\\n * that only accounts with this role will be able to grant or revoke other\\n * roles. More complex role relationships can be created by using\\n * {_setRoleAdmin}.\\n *\\n * WARNING: The `DEFAULT_ADMIN_ROLE` is also its own admin: it has permission to\\n * grant and revoke this role. Extra precautions should be taken to secure\\n * accounts that have been granted it. We recommend using {AccessControlDefaultAdminRules}\\n * to enforce additional security measures for this role.\\n */\\nabstract contract AccessControl is Context, IAccessControl, ERC165 {\\n    struct RoleData {\\n        mapping(address account => bool) hasRole;\\n        bytes32 adminRole;\\n    }\\n\\n    mapping(bytes32 role => RoleData) private _roles;\\n\\n    bytes32 public constant DEFAULT_ADMIN_ROLE = 0x00;\\n\\n    /**\\n     * @dev Modifier that checks that an account has a specific role. Reverts\\n     * with an {AccessControlUnauthorizedAccount} error including the required role.\\n     */\\n    modifier onlyRole(bytes32 role) {\\n        _checkRole(role);\\n        _;\\n    }\\n\\n    /**\\n     * @dev See {IERC165-supportsInterface}.\\n     */\\n    function supportsInterface(bytes4 interfaceId) public view virtual override returns (bool) {\\n        return interfaceId == type(IAccessControl).interfaceId || super.supportsInterface(interfaceId);\\n    }\\n\\n    /**\\n     * @dev Returns `true` if `account` has been granted `role`.\\n     */\\n    function hasRole(bytes32 role, address account) public view virtual returns (bool) {\\n        return _roles[role].hasRole[account];\\n    }\\n\\n    /**\\n     * @dev Reverts with an {AccessControlUnauthorizedAccount} error if `_msgSender()`\\n     * is missing `role`. Overriding this function changes the behavior of the {onlyRole} modifier.\\n     */\\n    function _checkRole(bytes32 role) internal view virtual {\\n        _checkRole(role, _msgSender());\\n    }\\n\\n    /**\\n     * @dev Reverts with an {AccessControlUnauthorizedAccount} error if `account`\\n     * is missing `role`.\\n     */\\n    function _checkRole(bytes32 role, address account) internal view virtual {\\n        if (!hasRole(role, account)) {\\n            revert AccessControlUnauthorizedAccount(account, role);\\n        }\\n    }\\n\\n    /**\\n     * @dev Returns the admin role that controls `role`. See {grantRole} and\\n     * {revokeRole}.\\n     *\\n     * To change a role's admin, use {_setRoleAdmin}.\\n     */\\n    function getRoleAdmin(bytes32 role) public view virtual returns (bytes32) {\\n        return _roles[role].adminRole;\\n    }\\n\\n    /**\\n     * @dev Grants `role` to `account`.\\n     *\\n     * If `account` had not been already granted `role`, emits a {RoleGranted}\\n     * event.\\n     *\\n     * Requirements:\\n     *\\n     * - the caller must have ``role``'s admin role.\\n     *\\n     * May emit a {RoleGranted} event.\\n     */\\n    function grantRole(bytes32 role, address account) public virtual onlyRole(getRoleAdmin(role)) {\\n        _grantRole(role, account);\\n    }\\n\\n    /**\\n     * @dev Revokes `role` from `account`.\\n     *\\n     * If `account` had been granted `role`, emits a {RoleRevoked} event.\\n     *\\n     * Requirements:\\n     *\\n     * - the caller must have ``role``'s admin role.\\n     *\\n     * May emit a {RoleRevoked} event.\\n     */\\n    function revokeRole(bytes32 role, address account) public virtual onlyRole(getRoleAdmin(role)) {\\n        _revokeRole(role, account);\\n    }\\n\\n    /**\\n     * @dev Revokes `role` from the calling account.\\n     *\\n     * Roles are often managed via {grantRole} and {revokeRole}: this function's\\n     * purpose is to provide a mechanism for accounts to lose their privileges\\n     * if they are compromised (such as when a trusted device is misplaced).\\n     *\\n     * If the calling account had been revoked `role`, emits a {RoleRevoked}\\n     * event.\\n     *\\n     * Requirements:\\n     *\\n     * - the caller must be `callerConfirmation`.\\n     *\\n     * May emit a {RoleRevoked} event.\\n     */\\n    function renounceRole(bytes32 role, address callerConfirmation) public virtual {\\n        if (callerConfirmation != _msgSender()) {\\n            revert AccessControlBadConfirmation();\\n        }\\n\\n        _revokeRole(role, callerConfirmation);\\n    }\\n\\n    /**\\n     * @dev Sets `adminRole` as ``role``'s admin role.\\n     *\\n     * Emits a {RoleAdminChanged} event.\\n     */\\n    function _setRoleAdmin(bytes32 role, bytes32 adminRole) internal virtual {\\n        bytes32 previousAdminRole = getRoleAdmin(role);\\n        _roles[role].adminRole = adminRole;\\n        emit RoleAdminChanged(role, previousAdminRole, adminRole);\\n    }\\n\\n    /**\\n     * @dev Attempts to grant `role` to `account` and returns a boolean indicating if `role` was granted.\\n     *\\n     * Internal function without access restriction.\\n     *\\n     * May emit a {RoleGranted} event.\\n     */\\n    function _grantRole(bytes32 role, address account) internal virtual returns (bool) {\\n        if (!hasRole(role, account)) {\\n            _roles[role].hasRole[account] = true;\\n            emit RoleGranted(role, account, _msgSender());\\n            return true;\\n        } else {\\n            return false;\\n        }\\n    }\\n\\n    /**\\n     * @dev Attempts to revoke `role` to `account` and returns a boolean indicating if `role` was revoked.\\n     *\\n     * Internal function without access restriction.\\n     *\\n     * May emit a {RoleRevoked} event.\\n     */\\n    function _revokeRole(bytes32 role, address account) internal virtual returns (bool) {\\n        if (hasRole(role, account)) {\\n            _roles[role].hasRole[account] = false;\\n            emit RoleRevoked(role, account, _msgSender());\\n            return true;\\n        } else {\\n            return false;\\n        }\\n    }\\n}\\n\"},\"@openzeppelin/contracts@5.0.1/utils/Strings.sol\":{\"content\":\"// SPDX-License-Identifier: MIT\\n// OpenZeppelin Contracts (last updated v5.0.0) (utils/Strings.sol)\\n\\npragma solidity ^0.8.20;\\n\\nimport {Math} from \\\"./math/Math.sol\\\";\\nimport {SignedMath} from \\\"./math/SignedMath.sol\\\";\\n\\n/**\\n * @dev String operations.\\n */\\nlibrary Strings {\\n    bytes16 private constant HEX_DIGITS = \\\"0123456789abcdef\\\";\\n    uint8 private constant ADDRESS_LENGTH = 20;\\n\\n    /**\\n     * @dev The `value` string doesn't fit in the specified `length`.\\n     */\\n    error StringsInsufficientHexLength(uint256 value, uint256 length);\\n\\n    /**\\n     * @dev Converts a `uint256` to its ASCII `string` decimal representation.\\n     */\\n    function toString(uint256 value) internal pure returns (string memory) {\\n        unchecked {\\n            uint256 length = Math.log10(value) + 1;\\n            string memory buffer = new string(length);\\n            uint256 ptr;\\n            /// @solidity memory-safe-assembly\\n            assembly {\\n                ptr := add(buffer, add(32, length))\\n            }\\n            while (true) {\\n                ptr--;\\n                /// @solidity memory-safe-assembly\\n                assembly {\\n                    mstore8(ptr, byte(mod(value, 10), HEX_DIGITS))\\n                }\\n                value /= 10;\\n                if (value == 0) break;\\n            }\\n            return buffer;\\n        }\\n    }\\n\\n    /**\\n     * @dev Converts a `int256` to its ASCII `string` decimal representation.\\n     */\\n    function toStringSigned(int256 value) internal pure returns (string memory) {\\n        return string.concat(value < 0 ? \\\"-\\\" : \\\"\\\", toString(SignedMath.abs(value)));\\n    }\\n\\n    /**\\n     * @dev Converts a `uint256` to its ASCII `string` hexadecimal representation.\\n     */\\n    function toHexString(uint256 value) internal pure returns (string memory) {\\n        unchecked {\\n            return toHexString(value, Math.log256(value) + 1);\\n        }\\n    }\\n\\n    /**\\n     * @dev Converts a `uint256` to its ASCII `string` hexadecimal representation with fixed length.\\n     */\\n    function toHexString(uint256 value, uint256 length) internal pure returns (string memory) {\\n        uint256 localValue = value;\\n        bytes memory buffer = new bytes(2 * length + 2);\\n        buffer[0] = \\\"0\\\";\\n        buffer[1] = \\\"x\\\";\\n        for (uint256 i = 2 * length + 1; i > 1; --i) {\\n            buffer[i] = HEX_DIGITS[localValue & 0xf];\\n            localValue >>= 4;\\n        }\\n        if (localValue != 0) {\\n            revert StringsInsufficientHexLength(value, length);\\n        }\\n        return string(buffer);\\n    }\\n\\n    /**\\n     * @dev Converts an `address` with fixed length of 20 bytes to its not checksummed ASCII `string` hexadecimal\\n     * representation.\\n     */\\n    function toHexString(address addr) internal pure returns (string memory) {\\n        return toHexString(uint256(uint160(addr)), ADDRESS_LENGTH);\\n    }\\n\\n    /**\\n     * @dev Returns true if the two strings are equal.\\n     */\\n    function equal(string memory a, string memory b) internal pure returns (bool) {\\n        return bytes(a).length == bytes(b).length && keccak256(bytes(a)) == keccak256(bytes(b));\\n    }\\n}\\n\"},\"@openzeppelin/contracts@5.0.1/utils/StorageSlot.sol\":{\"content\":\"// SPDX-License-Identifier: MIT\\n// OpenZeppelin Contracts (last updated v5.0.0) (utils/StorageSlot.sol)\\n// This file was procedurally generated from scripts/generate/templates/StorageSlot.js.\\n\\npragma solidity ^0.8.20;\\n\\n/**\\n * @dev Library for reading and writing primitive types to specific storage slots.\\n *\\n * Storage slots are often used to avoid storage conflict when dealing with upgradeable contracts.\\n * This library helps with reading and writing to such slots without the need for inline assembly.\\n *\\n * The functions in this library return Slot structs that contain a `value` member that can be used to read or write.\\n *\\n * Example usage to set ERC1967 implementation slot:\\n * ```solidity\\n * contract ERC1967 {\\n *     bytes32 internal constant _IMPLEMENTATION_SLOT = 0x360894a13ba1a3210667c828492db98dca3e2076cc3735a920a3ca505d382bbc;\\n *\\n *     function _getImplementation() internal view returns (address) {\\n *         return StorageSlot.getAddressSlot(_IMPLEMENTATION_SLOT).value;\\n *     }\\n *\\n *     function _setImplementation(address newImplementation) internal {\\n *         require(newImplementation.code.length > 0);\\n *         StorageSlot.getAddressSlot(_IMPLEMENTATION_SLOT).value = newImplementation;\\n *     }\\n * }\\n * ```\\n */\\nlibrary StorageSlot {\\n    struct AddressSlot {\\n        address value;\\n    }\\n\\n    struct BooleanSlot {\\n        bool value;\\n    }\\n\\n    struct Bytes32Slot {\\n        bytes32 value;\\n    }\\n\\n    struct Uint256Slot {\\n        uint256 value;\\n    }\\n\\n    struct StringSlot {\\n        string value;\\n    }\\n\\n    struct BytesSlot {\\n        bytes value;\\n    }\\n\\n    /**\\n     * @dev Returns an `AddressSlot` with member `value` located at `slot`.\\n     */\\n    function getAddressSlot(bytes32 slot) internal pure returns (AddressSlot storage r) {\\n        /// @solidity memory-safe-assembly\\n        assembly {\\n            r.slot := slot\\n        }\\n    }\\n\\n    /**\\n     * @dev Returns an `BooleanSlot` with member `value` located at `slot`.\\n     */\\n    function getBooleanSlot(bytes32 slot) internal pure returns (BooleanSlot storage r) {\\n        /// @solidity memory-safe-assembly\\n        assembly {\\n            r.slot := slot\\n        }\\n    }\\n\\n    /**\\n     * @dev Returns an `Bytes32Slot` with member `value` located at `slot`.\\n     */\\n    function getBytes32Slot(bytes32 slot) internal pure returns (Bytes32Slot storage r) {\\n        /// @solidity memory-safe-assembly\\n        assembly {\\n            r.slot := slot\\n        }\\n    }\\n\\n    /**\\n     * @dev Returns an `Uint256Slot` with member `value` located at `slot`.\\n     */\\n    function getUint256Slot(bytes32 slot) internal pure returns (Uint256Slot storage r) {\\n        /// @solidity memory-safe-assembly\\n        assembly {\\n            r.slot := slot\\n        }\\n    }\\n\\n    /**\\n     * @dev Returns an `StringSlot` with member `value` located at `slot`.\\n     */\\n    function getStringSlot(bytes32 slot) internal pure returns (StringSlot storage r) {\\n        /// @solidity memory-safe-assembly\\n        assembly {\\n            r.slot := slot\\n        }\\n    }\\n\\n    /**\\n     * @dev Returns an `StringSlot` representation of the string storage pointer `store`.\\n     */\\n    function getStringSlot(string storage store) internal pure returns (StringSlot storage r) {\\n        /// @solidity memory-safe-assembly\\n        assembly {\\n            r.slot := store.slot\\n        }\\n    }\\n\\n    /**\\n     * @dev Returns an `BytesSlot` with member `value` located at `slot`.\\n     */\\n    function getBytesSlot(bytes32 slot) internal pure returns (BytesSlot storage r) {\\n        /// @solidity memory-safe-assembly\\n        assembly {\\n            r.slot := slot\\n        }\\n    }\\n\\n    /**\\n     * @dev Returns an `BytesSlot` representation of the bytes storage pointer `store`.\\n     */\\n    function getBytesSlot(bytes storage store) internal pure returns (BytesSlot storage r) {\\n        /// @solidity memory-safe-assembly\\n        assembly {\\n            r.slot := store.slot\\n        }\\n    }\\n}\\n\"},\"@openzeppelin/contracts@5.0.1/access/IAccessControl.sol\":{\"content\":\"// SPDX-License-Identifier: MIT\\n// OpenZeppelin Contracts (last updated v5.0.0) (access/IAccessControl.sol)\\n\\npragma solidity ^0.8.20;\\n\\n/**\\n * @dev External interface of AccessControl declared to support ERC165 detection.\\n */\\ninterface IAccessControl {\\n    /**\\n     * @dev The `account` is missing a role.\\n     */\\n    error AccessControlUnauthorizedAccount(address account, bytes32 neededRole);\\n\\n    /**\\n     * @dev The caller of a function is not the expected one.\\n     *\\n     * NOTE: Don't confuse with {AccessControlUnauthorizedAccount}.\\n     */\\n    error AccessControlBadConfirmation();\\n\\n    /**\\n     * @dev Emitted when `newAdminRole` is set as ``role``'s admin role, replacing `previousAdminRole`\\n     *\\n     * `DEFAULT_ADMIN_ROLE` is the starting admin for all roles, despite\\n     * {RoleAdminChanged} not being emitted signaling this.\\n     */\\n    event RoleAdminChanged(bytes32 indexed role, bytes32 indexed previousAdminRole, bytes32 indexed newAdminRole);\\n\\n    /**\\n     * @dev Emitted when `account` is granted `role`.\\n     *\\n     * `sender` is the account that originated the contract call, an admin role\\n     * bearer except when using {AccessControl-_setupRole}.\\n     */\\n    event RoleGranted(bytes32 indexed role, address indexed account, address indexed sender);\\n\\n    /**\\n     * @dev Emitted when `account` is revoked `role`.\\n     *\\n     * `sender` is the account that originated the contract call:\\n     *   - if using `revokeRole`, it is the admin role bearer\\n     *   - if using `renounceRole`, it is the role bearer (i.e. `account`)\\n     */\\n    event RoleRevoked(bytes32 indexed role, address indexed account, address indexed sender);\\n\\n    /**\\n     * @dev Returns `true` if `account` has been granted `role`.\\n     */\\n    function hasRole(bytes32 role, address account) external view returns (bool);\\n\\n    /**\\n     * @dev Returns the admin role that controls `role`. See {grantRole} and\\n     * {revokeRole}.\\n     *\\n     * To change a role's admin, use {AccessControl-_setRoleAdmin}.\\n     */\\n    function getRoleAdmin(bytes32 role) external view returns (bytes32);\\n\\n    /**\\n     * @dev Grants `role` to `account`.\\n     *\\n     * If `account` had not been already granted `role`, emits a {RoleGranted}\\n     * event.\\n     *\\n     * Requirements:\\n     *\\n     * - the caller must have ``role``'s admin role.\\n     */\\n    function grantRole(bytes32 role, address account) external;\\n\\n    /**\\n     * @dev Revokes `role` from `account`.\\n     *\\n     * If `account` had been granted `role`, emits a {RoleRevoked} event.\\n     *\\n     * Requirements:\\n     *\\n     * - the caller must have ``role``'s admin role.\\n     */\\n    function revokeRole(bytes32 role, address account) external;\\n\\n    /**\\n     * @dev Revokes `role` from the calling account.\\n     *\\n     * Roles are often managed via {grantRole} and {revokeRole}: this function's\\n     * purpose is to provide a mechanism for accounts to lose their privileges\\n     * if they are compromised (such as when a trusted device is misplaced).\\n     *\\n     * If the calling account had been granted `role`, emits a {RoleRevoked}\\n     * event.\\n     *\\n     * Requirements:\\n     *\\n     * - the caller must be `callerConfirmation`.\\n     */\\n    function renounceRole(bytes32 role, address callerConfirmation) external;\\n}\\n\"},\"@openzeppelin/contracts@5.0.1/utils/math/SignedMath.sol\":{\"content\":\"// SPDX-License-Identifier: MIT\\n// OpenZeppelin Contracts (last updated v5.0.0) (utils/math/SignedMath.sol)\\n\\npragma solidity ^0.8.20;\\n\\n/**\\n * @dev Standard signed math utilities missing in the Solidity language.\\n */\\nlibrary SignedMath {\\n    /**\\n     * @dev Returns the largest of two signed numbers.\\n     */\\n    function max(int256 a, int256 b) internal pure returns (int256) {\\n        return a > b ? a : b;\\n    }\\n\\n    /**\\n     * @dev Returns the smallest of two signed numbers.\\n     */\\n    function min(int256 a, int256 b) internal pure returns (int256) {\\n        return a < b ? a : b;\\n    }\\n\\n    /**\\n     * @dev Returns the average of two signed numbers without overflow.\\n     * The result is rounded towards zero.\\n     */\\n    function average(int256 a, int256 b) internal pure returns (int256) {\\n        // Formula from the book \\\"Hacker's Delight\\\"\\n        int256 x = (a & b) + ((a ^ b) >> 1);\\n        return x + (int256(uint256(x) >> 255) & (a ^ b));\\n    }\\n\\n    /**\\n     * @dev Returns the absolute unsigned value of a signed value.\\n     */\\n    function abs(int256 n) internal pure returns (uint256) {\\n        unchecked {\\n            // must be unchecked in order to support `n = type(int256).min`\\n            return uint256(n >= 0 ? n : -n);\\n        }\\n    }\\n}\\n\"}},\"settings\":{\"optimizer\":{\"enabled\":true,\"runs\":200},\"outputSelection\":{\"*\":{\"\":[\"ast\"],\"*\":[\"abi\",\"metadata\",\"devdoc\",\"userdoc\",\"storageLayout\",\"evm.legacyAssembly\",\"evm.bytecode\",\"evm.deployedBytecode\",\"evm.methodIdentifiers\",\"evm.gasEstimates\",\"evm.assembly\"]}},\"remappings\":[]}}",
	"name": "GovernorContract",
	"bytecode": {
		"linkReferences": {},
		"object": "61018060405234801562000011575f80fd5b5060405162004c0238038062004c028339810160408190526200003491620007af565b83818685855f6040518060400160405280601081526020016f11dbdd995c9b9bdc90dbdb9d1c9858dd60821b81525080620000746200018c60201b60201c565b62000080825f620001a7565b6101205262000091816001620001a7565b61014052815160208084019190912060e052815190820120610100524660a0526200011e60e05161010051604080517f8b73c3c69bb8fe3d512ecc4cf759cc79239f7b179b0ffacaa9a75d522b39400f60208201529081019290925260608201524660808201523060a08201525f9060c00160405160208183030381529060405280519060200120905090565b60805250503060c0526003620001358282620008c0565b5062000143905083620001df565b6200014e8262000245565b6200015981620002ea565b5050506001600160a01b03166101605262000174816200032b565b506200018081620003ca565b50505050505062000a3a565b6040805180820190915260018152603160f81b602082015290565b5f602083511015620001c657620001be8362000433565b9050620001d9565b81620001d38482620008c0565b5060ff90505b92915050565b6008546040805165ffffffffffff928316815291831660208301527fc565b045403dc03c2eea82b81a0465edad9e2e7fc4d97e11421c209da93d7a93910160405180910390a16008805465ffffffffffff191665ffffffffffff92909216919091179055565b8063ffffffff165f03620002735760405163f1cfbf0560e01b81525f60048201526024015b60405180910390fd5b6008546040805163ffffffff66010000000000009093048316815291831660208301527f7e3f7f0708a84de9203036abaa450dccc85ad5ff52f78c170f3edb55cf5e8828910160405180910390a16008805463ffffffff90921666010000000000000263ffffffff60301b19909216919091179055565b60075460408051918252602082018390527fccb45da8d5717e6c4544694297c4ba5cf151d455c9bb0ed4fc7a38411bc05461910160405180910390a1600755565b6064808211156200035a5760405163243e544560e01b815260048101839052602481018290526044016200026a565b5f6200036562000475565b90506200038a6200037562000490565b620003808562000511565b600a91906200054a565b505060408051828152602081018590527f0553476bf02ef2726e8ce5ced78d63e26e602e4a2257b1f559418e24b4633997910160405180910390a1505050565b600b54604080516001600160a01b03928316815291831660208301527f08f74ea46ef7894f65eabfb5e6e695de773a000b47c529ab559178069b226401910160405180910390a1600b80546001600160a01b0319166001600160a01b0392909216919091179055565b5f80829050601f8151111562000460578260405163305a27a960e01b81526004016200026a91906200098c565b80516200046d82620009da565b179392505050565b5f62000482600a62000566565b6001600160d01b0316905090565b5f6200049c6101605190565b6001600160a01b03166391ddadf46040518163ffffffff1660e01b8152600401602060405180830381865afa925050508015620004f8575060408051601f3d908101601f19168201909252620004f591810190620009fe565b60015b6200050c5762000507620005b3565b905090565b919050565b5f6001600160d01b0382111562000546576040516306dfcc6560e41b815260d06004820152602481018390526044016200026a565b5090565b5f8062000559858585620005bf565b915091505b935093915050565b80545f908015620005aa5762000590836200058360018462000a1a565b5f91825260209091200190565b54660100000000000090046001600160d01b0316620005ac565b5f5b9392505050565b5f62000507436200074d565b82545f9081908015620006ef575f620005df876200058360018562000a1a565b60408051808201909152905465ffffffffffff80821680845266010000000000009092046001600160d01b0316602084015291925090871610156200063757604051632520601d60e01b815260040160405180910390fd5b805165ffffffffffff8088169116036200068b57846200065e886200058360018662000a1a565b80546001600160d01b039290921666010000000000000265ffffffffffff909216919091179055620006de565b6040805180820190915265ffffffffffff80881682526001600160d01b0380881660208085019182528b54600181018d555f8d815291909120945191519092166601000000000000029216919091179101555b6020015192508391506200055e9050565b50506040805180820190915265ffffffffffff80851682526001600160d01b0380851660208085019182528854600181018a555f8a81529182209551925190931666010000000000000291909316179201919091559050816200055e565b5f65ffffffffffff82111562000546576040516306dfcc6560e41b815260306004820152602481018390526044016200026a565b6001600160a01b038116811462000796575f80fd5b50565b805165ffffffffffff811681146200050c575f80fd5b5f805f805f60a08688031215620007c4575f80fd5b8551620007d18162000781565b6020870151909550620007e48162000781565b9350620007f46040870162000799565b9250606086015163ffffffff811681146200080d575f80fd5b80925050608086015190509295509295909350565b634e487b7160e01b5f52604160045260245ffd5b600181811c908216806200084b57607f821691505b6020821081036200086a57634e487b7160e01b5f52602260045260245ffd5b50919050565b601f821115620008bb57805f5260205f20601f840160051c81016020851015620008975750805b601f840160051c820191505b81811015620008b8575f8155600101620008a3565b50505b505050565b81516001600160401b03811115620008dc57620008dc62000822565b620008f481620008ed845462000836565b8462000870565b602080601f8311600181146200092a575f8415620009125750858301515b5f19600386901b1c1916600185901b17855562000984565b5f85815260208120601f198616915b828110156200095a5788860151825594840194600190910190840162000939565b50858210156200097857878501515f19600388901b60f8161c191681555b505060018460011b0185555b505050505050565b5f602080835283518060208501525f5b81811015620009ba578581018301518582016040015282016200099c565b505f604082860101526040601f19601f8301168501019250505092915050565b805160208083015191908110156200086a575f1960209190910360031b1b16919050565b5f6020828403121562000a0f575f80fd5b620005ac8262000799565b81810381811115620001d957634e487b7160e01b5f52601160045260245ffd5b60805160a05160c05160e0516101005161012051610140516101605161415062000ab25f395f81816109a101528181610df90152818161133c01528181611f5401526121a701525f611f2101525f611ef501525f6127af01525f61278701525f6126e201525f61270c01525f61273601526141505ff3fe60806040526004361061028e575f3560e01c80637ecebe0011610155578063c01f9e37116100be578063e540d01d11610078578063e540d01d146108f8578063eb9019d414610917578063ece40cc114610936578063f23a6e6114610955578063f8ce560a14610974578063fc0c546a14610993575f80fd5b8063c01f9e3714610812578063c28bc2fa14610831578063c59057e414610844578063d33219b414610863578063dd4e2ba514610880578063deaaa7cc146108c5575f80fd5b8063a7713a701161010f578063a7713a7014610757578063a890c9101461076b578063a9a952941461078a578063ab58fb8e146107a9578063b58131b0146107df578063bc197c81146107f3575f80fd5b80637ecebe001461068057806384b0196e146106b45780638ff262e3146106db57806391ddadf4146106fa57806397c3d334146107255780639a802a6d14610738575f80fd5b806343859632116101f75780635b8d0e0d116101b15780635b8d0e0d146105c65780635f398a14146105e557806360c4247f1461060457806379051887146106235780637b3c71d3146106425780637d5e81e214610661575f80fd5b806343859632146104b0578063452115d6146104f85780634bf5d7e914610517578063544ffc9c1461052b57806354fd4d501461057e57806356781388146105a7575f80fd5b8063160cbed711610248578063160cbed7146103ec5780632656227d1461040b5780632d63f6931461041e5780632fe3e2611461043d5780633932abb1146104705780633e4f49e614610484575f80fd5b806301ffc9a7146102c957806302a251a3146102fd57806306f3f9e61461032857806306fdde0314610347578063143489d014610368578063150b7a02146103b4575f80fd5b366102c5573061029c6109c5565b6001600160a01b0316146102c357604051637485328f60e11b815260040160405180910390fd5b005b5f80fd5b3480156102d4575f80fd5b506102e86102e3366004613136565b6109dd565b60405190151581526020015b60405180910390f35b348015610308575f80fd5b50600854600160301b900463ffffffff165b6040519081526020016102f4565b348015610333575f80fd5b506102c361034236600461315d565b610a2e565b348015610352575f80fd5b5061035b610a42565b6040516102f491906131c1565b348015610373575f80fd5b5061039c61038236600461315d565b5f908152600460205260409020546001600160a01b031690565b6040516001600160a01b0390911681526020016102f4565b3480156103bf575f80fd5b506103d36103ce3660046132aa565b610ad2565b6040516001600160e01b031990911681526020016102f4565b3480156103f7575f80fd5b5061031a610406366004613479565b610b14565b61031a610419366004613479565b610be0565b348015610429575f80fd5b5061031a61043836600461315d565b610d48565b348015610448575f80fd5b5061031a7f3e83946653575f9a39005e1545185629e92736b7528ab20ca3816f315424a81181565b34801561047b575f80fd5b5061031a610d68565b34801561048f575f80fd5b506104a361049e36600461315d565b610d7a565b6040516102f49190613536565b3480156104bb575f80fd5b506102e86104ca366004613544565b5f8281526009602090815260408083206001600160a01b038516845260030190915290205460ff1692915050565b348015610503575f80fd5b5061031a610512366004613479565b610d84565b348015610522575f80fd5b5061035b610df5565b348015610536575f80fd5b5061056361054536600461315d565b5f908152600960205260409020805460018201546002909201549092565b604080519384526020840192909252908201526060016102f4565b348015610589575f80fd5b506040805180820190915260018152603160f81b602082015261035b565b3480156105b2575f80fd5b5061031a6105c1366004613582565b610eb5565b3480156105d1575f80fd5b5061031a6105e03660046135f0565b610edc565b3480156105f0575f80fd5b5061031a6105ff3660046136a2565b611038565b34801561060f575f80fd5b5061031a61061e36600461315d565b61108b565b34801561062e575f80fd5b506102c361063d366004613732565b611117565b34801561064d575f80fd5b5061031a61065c36600461374d565b611128565b34801561066c575f80fd5b5061031a61067b3660046137a2565b61116e565b34801561068b575f80fd5b5061031a61069a36600461384e565b6001600160a01b03165f9081526002602052604090205490565b3480156106bf575f80fd5b506106c8611228565b6040516102f497969594939291906138a3565b3480156106e6575f80fd5b5061031a6106f5366004613912565b61126a565b348015610705575f80fd5b5061070e611339565b60405165ffffffffffff90911681526020016102f4565b348015610730575f80fd5b50606461031a565b348015610743575f80fd5b5061031a61075236600461395f565b6113c0565b348015610762575f80fd5b5061031a6113cc565b348015610776575f80fd5b506102c361078536600461384e565b6113e5565b348015610795575f80fd5b506102e86107a436600461315d565b6113f6565b3480156107b4575f80fd5b5061031a6107c336600461315d565b5f9081526004602052604090206001015465ffffffffffff1690565b3480156107ea575f80fd5b5061031a6113fe565b3480156107fe575f80fd5b506103d361080d3660046139b3565b611408565b34801561081d575f80fd5b5061031a61082c36600461315d565b61144b565b6102c361083f366004613a3f565b61148d565b34801561084f575f80fd5b5061031a61085e366004613479565b611509565b34801561086e575f80fd5b50600b546001600160a01b031661039c565b34801561088b575f80fd5b506040805180820190915260208082527f737570706f72743d627261766f2671756f72756d3d666f722c6162737461696e9082015261035b565b3480156108d0575f80fd5b5061031a7ff2aad550cf55f045cb27e9c559f9889fdfb6e6cdaa032301d6ea397784ae51d781565b348015610903575f80fd5b506102c3610912366004613a7e565b611542565b348015610922575f80fd5b5061031a610931366004613aa1565b611553565b348015610941575f80fd5b506102c361095036600461315d565b611579565b348015610960575f80fd5b506103d361096f366004613acb565b61158a565b34801561097f575f80fd5b5061031a61098e36600461315d565b6115cd565b34801561099e575f80fd5b507f000000000000000000000000000000000000000000000000000000000000000061039c565b5f6109d8600b546001600160a01b031690565b905090565b5f6001600160e01b031982166332a2ad4360e11b1480610a0d57506001600160e01b03198216630271189760e51b145b80610a2857506301ffc9a760e01b6001600160e01b03198316145b92915050565b610a366115d7565b610a3f81611650565b50565b606060038054610a5190613b2e565b80601f0160208091040260200160405190810160405280929190818152602001828054610a7d90613b2e565b8015610ac85780601f10610a9f57610100808354040283529160200191610ac8565b820191905f5260205f20905b815481529060010190602001808311610aab57829003601f168201915b5050505050905090565b5f30610adc6109c5565b6001600160a01b031614610b0357604051637485328f60e11b815260040160405180910390fd5b50630a85bd0160e11b949350505050565b5f80610b2286868686611509565b9050610b3781610b3260046116e5565b611707565b505f610b468288888888611744565b905065ffffffffffff811615610bbd575f82815260046020908152604091829020600101805465ffffffffffff191665ffffffffffff85169081179091558251858152918201527f9a2e42fd6722813d69113e7d0079d3d940171428df7373df9c7f7617cfda2892910160405180910390a1610bd6565b604051634844252360e11b815260040160405180910390fd5b5095945050505050565b5f80610bee86868686611509565b9050610c0e81610bfe60056116e5565b610c0860046116e5565b17611707565b505f818152600460205260409020805460ff60f01b1916600160f01b17905530610c366109c5565b6001600160a01b031614610cbf575f5b8651811015610cbd57306001600160a01b0316878281518110610c6b57610c6b613b66565b60200260200101516001600160a01b031603610cb557610cb5858281518110610c9657610c96613b66565b602002602001015180519060200120600561175290919063ffffffff16565b600101610c46565b505b610ccc81878787876117c2565b30610cd56109c5565b6001600160a01b031614158015610d0157506005546001600160801b03808216600160801b9092041614155b15610d0b575f6005555b6040518181527f712ae1383f79ac853f8d882153778e0260ef8f03b504e2866e0593e04d2b291f906020015b60405180910390a195945050505050565b5f90815260046020526040902054600160a01b900465ffffffffffff1690565b5f6109d860085465ffffffffffff1690565b5f610a28826117d6565b5f80610d9286868686611509565b9050610da181610b325f6116e5565b505f818152600460205260409020546001600160a01b03163314610ddf5760405163233d98e360e01b81523360048201526024015b60405180910390fd5b610deb8686868661190f565b9695505050505050565b60607f00000000000000000000000000000000000000000000000000000000000000006001600160a01b0316634bf5d7e96040518163ffffffff1660e01b81526004015f60405180830381865afa925050508015610e7457506040513d5f823e601f3d908101601f19168201604052610e719190810190613b7a565b60015b610eb0575060408051808201909152601d81527f6d6f64653d626c6f636b6e756d6265722666726f6d3d64656661756c74000000602082015290565b919050565b5f80339050610ed484828560405180602001604052805f815250611925565b949350505050565b5f80610fbd87610fb77f3e83946653575f9a39005e1545185629e92736b7528ab20ca3816f315424a8118c8c8c610f2f8e6001600160a01b03165f90815260026020526040902080546001810190915590565b8d8d604051610f3f929190613be2565b60405180910390208c80519060200120604051602001610f9c9796959493929190968752602087019590955260ff9390931660408601526001600160a01b03919091166060850152608084015260a083015260c082015260e00190565b60405160208183030381529060405280519060200120611946565b85611972565b905080610fe8576040516394ab6c0760e01b81526001600160a01b0388166004820152602401610dd6565b61102b89888a89898080601f0160208091040260200160405190810160405280939291908181526020018383808284375f920191909152508b92506119c7915050565b9998505050505050505050565b5f8033905061108087828888888080601f0160208091040260200160405190810160405280939291908181526020018383808284375f920191909152508a92506119c7915050565b979650505050505050565b600a80545f91829061109e600184613c05565b815481106110ae576110ae613b66565b5f918252602090912001805490915065ffffffffffff811690600160301b90046001600160d01b03168582116110f0576001600160d01b031695945050505050565b6111046110fc87611aa1565b600a90611ad7565b6001600160d01b03169695505050505050565b61111f6115d7565b610a3f81611b86565b5f80339050610deb86828787878080601f0160208091040260200160405190810160405280939291908181526020018383808284375f9201919091525061192592505050565b5f3361117a8184611bec565b6111a25760405163d9b3955760e01b81526001600160a01b0382166004820152602401610dd6565b5f6111c88260016111b1611339565b6111bb9190613c18565b65ffffffffffff16611553565b90505f6111d36113fe565b90508082101561120f57604051636121770b60e11b81526001600160a01b03841660048201526024810183905260448101829052606401610dd6565b61121c8888888887611cd4565b98975050505050505050565b5f6060805f805f6060611239611eee565b611241611f1a565b604080515f80825260208201909252600f60f81b9b939a50919850469750309650945092509050565b5f806112f484610fb77ff2aad550cf55f045cb27e9c559f9889fdfb6e6cdaa032301d6ea397784ae51d78989896112bd8b6001600160a01b03165f90815260026020526040902080546001810190915590565b60408051602081019690965285019390935260ff90911660608401526001600160a01b0316608083015260a082015260c001610f9c565b90508061131f576040516394ab6c0760e01b81526001600160a01b0385166004820152602401610dd6565b610deb86858760405180602001604052805f815250611925565b5f7f00000000000000000000000000000000000000000000000000000000000000006001600160a01b03166391ddadf46040518163ffffffff1660e01b8152600401602060405180830381865afa9250505080156113b4575060408051601f3d908101601f191682019092526113b191810190613c3e565b60015b610eb0576109d8611f47565b5f610ed4848484611f51565b5f6113d7600a611fe4565b6001600160d01b0316905090565b6113ed6115d7565b610a3f8161201b565b5f6001610a28565b5f6109d860075490565b5f306114126109c5565b6001600160a01b03161461143957604051637485328f60e11b815260040160405180910390fd5b5063bc197c8160e01b95945050505050565b5f8181526004602052604081205461147f90600160d01b810463ffffffff1690600160a01b900465ffffffffffff16613c59565b65ffffffffffff1692915050565b6114956115d7565b5f80856001600160a01b03168585856040516114b2929190613be2565b5f6040518083038185875af1925050503d805f81146114ec576040519150601f19603f3d011682016040523d82523d5f602084013e6114f1565b606091505b50915091506115008282612084565b50505050505050565b5f848484846040516020016115219493929190613d08565b60408051601f19818403018152919052805160209091012095945050505050565b61154a6115d7565b610a3f816120a0565b5f611572838361156d60408051602081019091525f815290565b611f51565b9392505050565b6115816115d7565b610a3f8161213c565b5f306115946109c5565b6001600160a01b0316146115bb57604051637485328f60e11b815260040160405180910390fd5b5063f23a6e6160e01b95945050505050565b5f610a288261217d565b336115e06109c5565b6001600160a01b031614611609576040516347096e4760e01b8152336004820152602401610dd6565b306116126109c5565b6001600160a01b03161461164e575f8036604051611631929190613be2565b604051809103902090505b806116476005612224565b0361163c57505b565b60648082111561167d5760405163243e544560e01b81526004810183905260248101829052604401610dd6565b5f6116866113cc565b90506116a5611693611339565b61169c856122a0565b600a91906122d3565b505060408051828152602081018590527f0553476bf02ef2726e8ce5ced78d63e26e602e4a2257b1f559418e24b4633997910160405180910390a1505050565b5f8160078111156116f8576116f8613502565b600160ff919091161b92915050565b5f8061171284610d7a565b90505f8361171f836116e5565b1603611572578381846040516331b75e4d60e01b8152600401610dd693929190613d52565b5f610deb86868686866122ed565b81546001600160801b03600160801b82048116918116600183019091160361178d57604051638acb5f2760e01b815260040160405180910390fd5b6001600160801b038082165f90815260018086016020526040909120939093558354919092018216600160801b029116179055565b6117cf858585858561247e565b5050505050565b5f806117e18361250e565b905060058160078111156117f7576117f7613502565b146118025792915050565b5f838152600c60205260409081902054600b549151632c258a9f60e11b81526004810182905290916001600160a01b03169063584b153e90602401602060405180830381865afa158015611858573d5f803e3d5ffd5b505050506040513d601f19601f8201168201806040525081019061187c9190613d74565b1561188b575060059392505050565b600b54604051632ab0f52960e01b8152600481018390526001600160a01b0390911690632ab0f52990602401602060405180830381865afa1580156118d2573d5f803e3d5ffd5b505050506040513d601f19601f820116820180604052508101906118f69190613d74565b15611905575060079392505050565b5060029392505050565b5f61191c8585858561263f565b95945050505050565b5f61191c8585858561194160408051602081019091525f815290565b6119c7565b5f610a286119526126d6565b8360405161190160f01b8152600281019290925260228201526042902090565b5f805f61197f85856127ff565b5090925090505f81600381111561199857611998613502565b1480156119b65750856001600160a01b0316826001600160a01b0316145b80610deb5750610deb868686612848565b5f6119d686610b3260016116e5565b505f6119eb866119e589610d48565b85611f51565b90506119fa878787848761291e565b82515f03611a4e57856001600160a01b03167fb8e138887d0aa13bab447e82de9d5c1777041ecd21ca36ba824ff1e6c07ddda488878488604051611a419493929190613d93565b60405180910390a2610deb565b856001600160a01b03167fe2babfbac5889a709b63bb7f598b324e08bc5a4fb9ec647fb3cbc9ec07eb87128887848888604051611a8f959493929190613dba565b60405180910390a29695505050505050565b5f65ffffffffffff821115611ad3576040516306dfcc6560e41b81526030600482015260248101839052604401610dd6565b5090565b81545f9081816005811115611b33575f611af084612a18565b611afa9085613c05565b5f8881526020902090915081015465ffffffffffff9081169087161015611b2357809150611b31565b611b2e816001613df3565b92505b505b5f611b4087878585612afc565b90508015611b7a57611b6487611b57600184613c05565b5f91825260209091200190565b54600160301b90046001600160d01b0316611080565b5f979650505050505050565b6008546040805165ffffffffffff928316815291831660208301527fc565b045403dc03c2eea82b81a0465edad9e2e7fc4d97e11421c209da93d7a93910160405180910390a16008805465ffffffffffff191665ffffffffffff92909216919091179055565b80515f906034811015611c03576001915050610a28565b82810160131901516001600160a01b031981166b046e0e4dee0dee6cae47a60f60a31b14611c3657600192505050610a28565b5f80611c43602885613c05565b90505b83811015611cb3575f80611c79888481518110611c6557611c65613b66565b01602001516001600160f81b031916612b5b565b9150915081611c915760019650505050505050610a28565b8060ff166004856001600160a01b0316901b1793505050806001019050611c46565b50856001600160a01b0316816001600160a01b031614935050505092915050565b5f611ce88686868680519060200120611509565b905084518651141580611cfd57508351865114155b80611d0757508551155b15611d3c57855184518651604051630447b05d60e41b8152600481019390935260248301919091526044820152606401610dd6565b5f81815260046020526040902054600160a01b900465ffffffffffff1615611d855780611d6882610d7a565b6040516331b75e4d60e01b8152610dd69291905f90600401613d52565b5f611d8e610d68565b611d96611339565b65ffffffffffff16611da89190613df3565b90505f611dc260085463ffffffff600160301b9091041690565b5f84815260046020526040902080546001600160a01b0319166001600160a01b038716178155909150611df483611aa1565b815465ffffffffffff91909116600160a01b0265ffffffffffff60a01b19909116178155611e2182612beb565b815463ffffffff91909116600160d01b0263ffffffff60d01b1990911617815588517f7d84a6263ae0d98d3329bd7b46bb4e8d6f98cd35a7adb45c274c8b7fd5ebd5e090859087908c908c906001600160401b03811115611e8457611e846131e7565b604051908082528060200260200182016040528015611eb757816020015b6060815260200190600190039081611ea25790505b508c89611ec48a82613df3565b8e604051611eda99989796959493929190613e06565b60405180910390a150505095945050505050565b60606109d87f00000000000000000000000000000000000000000000000000000000000000005f612c1b565b60606109d87f00000000000000000000000000000000000000000000000000000000000000006001612c1b565b5f6109d843611aa1565b5f7f0000000000000000000000000000000000000000000000000000000000000000604051630748d63560e31b81526001600160a01b038681166004830152602482018690529190911690633a46b1a890604401602060405180830381865afa158015611fc0573d5f803e3d5ffd5b505050506040513d601f19601f82011682018060405250810190610ed49190613edb565b80545f90801561201357611ffd83611b57600184613c05565b54600160301b90046001600160d01b0316611572565b5f9392505050565b600b54604080516001600160a01b03928316815291831660208301527f08f74ea46ef7894f65eabfb5e6e695de773a000b47c529ab559178069b226401910160405180910390a1600b80546001600160a01b0319166001600160a01b0392909216919091179055565b6060826120995761209482612cc4565b610a28565b5080610a28565b8063ffffffff165f036120c85760405163f1cfbf0560e01b81525f6004820152602401610dd6565b6008546040805163ffffffff600160301b9093048316815291831660208301527f7e3f7f0708a84de9203036abaa450dccc85ad5ff52f78c170f3edb55cf5e8828910160405180910390a16008805463ffffffff909216600160301b0269ffffffff00000000000019909216919091179055565b60075460408051918252602082018390527fccb45da8d5717e6c4544694297c4ba5cf151d455c9bb0ed4fc7a38411bc05461910160405180910390a1600755565b5f60646121898361108b565b604051632394e7a360e21b8152600481018590526001600160a01b037f00000000000000000000000000000000000000000000000000000000000000001690638e539e8c90602401602060405180830381865afa1580156121ec573d5f803e3d5ffd5b505050506040513d601f19601f820116820180604052508101906122109190613edb565b61221a9190613ef2565b610a289190613f1d565b80545f906001600160801b0380821691600160801b900416810361225b576040516375e52f4f60e01b815260040160405180910390fd5b6001600160801b038181165f908152600185810160205260408220805492905585546fffffffffffffffffffffffffffffffff19169301909116919091179092555090565b5f6001600160d01b03821115611ad3576040516306dfcc6560e41b815260d0600482015260248101839052604401610dd6565b5f806122e0858585612ced565b915091505b935093915050565b5f80600b5f9054906101000a90046001600160a01b03166001600160a01b031663f27a0c926040518163ffffffff1660e01b8152600401602060405180830381865afa15801561233f573d5f803e3d5ffd5b505050506040513d601f19601f820116820180604052508101906123639190613edb565b90505f3060601b6bffffffffffffffffffffffff19168418600b5460405163b1c5f42760e01b81529192506001600160a01b03169063b1c5f427906123b4908a908a908a905f908890600401613f3c565b602060405180830381865afa1580156123cf573d5f803e3d5ffd5b505050506040513d601f19601f820116820180604052508101906123f39190613edb565b5f898152600c602052604080822092909255600b5491516308f2a0bb60e41b81526001600160a01b0390921691638f2a0bb09161243d918b918b918b919088908a90600401613f89565b5f604051808303815f87803b158015612454575f80fd5b505af1158015612466573d5f803e3d5ffd5b5050505061121c82426124799190613df3565b611aa1565b600b546001600160a01b031663e38335e5348686865f3060601b6bffffffffffffffffffffffff191688186040518763ffffffff1660e01b81526004016124c9959493929190613f3c565b5f604051808303818588803b1580156124e0575f80fd5b505af11580156124f2573d5f803e3d5ffd5b5050505f9687525050600c602052505060408320929092555050565b5f818152600460205260408120805460ff600160f01b8204811691600160f81b900416811561254257506007949350505050565b801561255357506002949350505050565b5f61255d86610d48565b9050805f0361258257604051636ad0607560e01b815260048101879052602401610dd6565b5f61258b611339565b65ffffffffffff1690508082106125a857505f9695505050505050565b5f6125b28861144b565b90508181106125c957506001979650505050505050565b6125d288612e63565b15806125f157505f888152600960205260409020805460019091015411155b1561260457506003979650505050505050565b5f8881526004602052604090206001015465ffffffffffff165f0361263157506004979650505050505050565b506005979650505050505050565b5f8061264d86868686612e99565b5f818152600c60205260409020549091508015610bd657600b5460405163c4d252f560e01b8152600481018390526001600160a01b039091169063c4d252f5906024015f604051808303815f87803b1580156126a7575f80fd5b505af11580156126b9573d5f803e3d5ffd5b5050505f838152600c602052604081205550509050949350505050565b5f306001600160a01b037f00000000000000000000000000000000000000000000000000000000000000001614801561272e57507f000000000000000000000000000000000000000000000000000000000000000046145b1561275857507f000000000000000000000000000000000000000000000000000000000000000090565b6109d8604080517f8b73c3c69bb8fe3d512ecc4cf759cc79239f7b179b0ffacaa9a75d522b39400f60208201527f0000000000000000000000000000000000000000000000000000000000000000918101919091527f000000000000000000000000000000000000000000000000000000000000000060608201524660808201523060a08201525f9060c00160405160208183030381529060405280519060200120905090565b5f805f8351604103612836576020840151604085015160608601515f1a61282888828585612f48565b955095509550505050612841565b505081515f91506002905b9250925092565b5f805f856001600160a01b03168585604051602401612868929190613fe0565b60408051601f198184030181529181526020820180516001600160e01b0316630b135d3f60e11b1790525161289d9190613ff8565b5f60405180830381855afa9150503d805f81146128d5576040519150601f19603f3d011682016040523d82523d5f602084013e6128da565b606091505b50915091508180156128ee57506020815110155b8015610deb57508051630b135d3f60e11b906129139083016020908101908401613edb565b149695505050505050565b5f8581526009602090815260408083206001600160a01b0388168452600381019092529091205460ff1615612971576040516371c6af4960e01b81526001600160a01b0386166004820152602401610dd6565b6001600160a01b0385165f9081526003820160205260409020805460ff1916600117905560ff84166129ba5782815f015f8282546129af9190613df3565b90915550612a109050565b5f1960ff8516016129d85782816001015f8282546129af9190613df3565b60011960ff8516016129f75782816002015f8282546129af9190613df3565b6040516303599be160e11b815260040160405180910390fd5b505050505050565b5f815f03612a2757505f919050565b5f6001612a3384613010565b901c6001901b90506001818481612a4c57612a4c613f09565b048201901c90506001818481612a6457612a64613f09565b048201901c90506001818481612a7c57612a7c613f09565b048201901c90506001818481612a9457612a94613f09565b048201901c90506001818481612aac57612aac613f09565b048201901c90506001818481612ac457612ac4613f09565b048201901c90506001818481612adc57612adc613f09565b048201901c905061157281828581612af657612af6613f09565b046130a3565b5f5b81831015612b53575f612b1184846130b8565b5f8781526020902090915065ffffffffffff86169082015465ffffffffffff161115612b3f57809250612b4d565b612b4a816001613df3565b93505b50612afe565b509392505050565b5f8060f883901c602f81118015612b755750603a8160ff16105b15612b8a57600194602f199091019350915050565b8060ff166040108015612ba0575060478160ff16105b15612bb5576001946036199091019350915050565b8060ff166060108015612bcb575060678160ff16105b15612be0576001946056199091019350915050565b505f93849350915050565b5f63ffffffff821115611ad3576040516306dfcc6560e41b81526020600482015260248101839052604401610dd6565b606060ff8314612c3557612c2e836130d2565b9050610a28565b818054612c4190613b2e565b80601f0160208091040260200160405190810160405280929190818152602001828054612c6d90613b2e565b8015612cb85780601f10612c8f57610100808354040283529160200191612cb8565b820191905f5260205f20905b815481529060010190602001808311612c9b57829003601f168201915b50505050509050610a28565b805115612cd45780518082602001fd5b604051630a12f52160e11b815260040160405180910390fd5b82545f9081908015612e09575f612d0987611b57600185613c05565b60408051808201909152905465ffffffffffff808216808452600160301b9092046001600160d01b031660208401529192509087161015612d5d57604051632520601d60e01b815260040160405180910390fd5b805165ffffffffffff808816911603612da95784612d8088611b57600186613c05565b80546001600160d01b0392909216600160301b0265ffffffffffff909216919091179055612df9565b6040805180820190915265ffffffffffff80881682526001600160d01b0380881660208085019182528b54600181018d555f8d81529190912094519151909216600160301b029216919091179101555b6020015192508391506122e59050565b50506040805180820190915265ffffffffffff80851682526001600160d01b0380851660208085019182528854600181018a555f8a815291822095519251909316600160301b0291909316179201919091559050816122e5565b5f81815260096020526040812060028101546001820154612e849190613df3565b612e9061098e85610d48565b11159392505050565b5f80612ea786868686611509565b9050612ef581612eb760076116e5565b612ec160066116e5565b612ecb60026116e5565b6001612ed8600782614013565b612ee390600261410c565b612eed9190613c05565b181818611707565b505f818152600460205260409081902080546001600160f81b0316600160f81b179055517f789cf55be980739dad1d0699b93b58e806b51c9d96619bfa8fe0a28abaa7b30c90610d379083815260200190565b5f80807f7fffffffffffffffffffffffffffffff5d576e7357a4501ddfe92f46681b20a0841115612f8157505f91506003905082613006565b604080515f808252602082018084528a905260ff891692820192909252606081018790526080810186905260019060a0016020604051602081039080840390855afa158015612fd2573d5f803e3d5ffd5b5050604051601f1901519150506001600160a01b038116612ffd57505f925060019150829050613006565b92505f91508190505b9450945094915050565b5f80608083901c1561302457608092831c92015b604083901c1561303657604092831c92015b602083901c1561304857602092831c92015b601083901c1561305a57601092831c92015b600883901c1561306c57600892831c92015b600483901c1561307e57600492831c92015b600283901c1561309057600292831c92015b600183901c15610a285760010192915050565b5f8183106130b15781611572565b5090919050565b5f6130c66002848418613f1d565b61157290848416613df3565b60605f6130de8361310f565b6040805160208082528183019092529192505f91906020820181803683375050509182525060208101929092525090565b5f60ff8216601f811115610a2857604051632cd44ac360e21b815260040160405180910390fd5b5f60208284031215613146575f80fd5b81356001600160e01b031981168114611572575f80fd5b5f6020828403121561316d575f80fd5b5035919050565b5f5b8381101561318e578181015183820152602001613176565b50505f910152565b5f81518084526131ad816020860160208601613174565b601f01601f19169290920160200192915050565b602081525f6115726020830184613196565b6001600160a01b0381168114610a3f575f80fd5b634e487b7160e01b5f52604160045260245ffd5b604051601f8201601f191681016001600160401b0381118282101715613223576132236131e7565b604052919050565b5f6001600160401b03821115613243576132436131e7565b50601f01601f191660200190565b5f61326361325e8461322b565b6131fb565b9050828152838383011115613276575f80fd5b828260208301375f602084830101529392505050565b5f82601f83011261329b575f80fd5b61157283833560208501613251565b5f805f80608085870312156132bd575f80fd5b84356132c8816131d3565b935060208501356132d8816131d3565b92506040850135915060608501356001600160401b038111156132f9575f80fd5b6133058782880161328c565b91505092959194509250565b5f6001600160401b03821115613329576133296131e7565b5060051b60200190565b5f82601f830112613342575f80fd5b8135602061335261325e83613311565b8083825260208201915060208460051b870101935086841115613373575f80fd5b602086015b8481101561339857803561338b816131d3565b8352918301918301613378565b509695505050505050565b5f82601f8301126133b2575f80fd5b813560206133c261325e83613311565b8083825260208201915060208460051b8701019350868411156133e3575f80fd5b602086015b8481101561339857803583529183019183016133e8565b5f82601f83011261340e575f80fd5b8135602061341e61325e83613311565b82815260059290921b8401810191818101908684111561343c575f80fd5b8286015b848110156133985780356001600160401b0381111561345d575f80fd5b61346b8986838b010161328c565b845250918301918301613440565b5f805f806080858703121561348c575f80fd5b84356001600160401b03808211156134a2575f80fd5b6134ae88838901613333565b955060208701359150808211156134c3575f80fd5b6134cf888389016133a3565b945060408701359150808211156134e4575f80fd5b506134f1878288016133ff565b949793965093946060013593505050565b634e487b7160e01b5f52602160045260245ffd5b6008811061353257634e487b7160e01b5f52602160045260245ffd5b9052565b60208101610a288284613516565b5f8060408385031215613555575f80fd5b823591506020830135613567816131d3565b809150509250929050565b803560ff81168114610eb0575f80fd5b5f8060408385031215613593575f80fd5b823591506135a360208401613572565b90509250929050565b5f8083601f8401126135bc575f80fd5b5081356001600160401b038111156135d2575f80fd5b6020830191508360208285010111156135e9575f80fd5b9250929050565b5f805f805f805f60c0888a031215613606575f80fd5b8735965061361660208901613572565b95506040880135613626816131d3565b945060608801356001600160401b0380821115613641575f80fd5b61364d8b838c016135ac565b909650945060808a0135915080821115613665575f80fd5b6136718b838c0161328c565b935060a08a0135915080821115613686575f80fd5b506136938a828b0161328c565b91505092959891949750929550565b5f805f805f608086880312156136b6575f80fd5b853594506136c660208701613572565b935060408601356001600160401b03808211156136e1575f80fd5b6136ed89838a016135ac565b90955093506060880135915080821115613705575f80fd5b506137128882890161328c565b9150509295509295909350565b65ffffffffffff81168114610a3f575f80fd5b5f60208284031215613742575f80fd5b81356115728161371f565b5f805f8060608587031215613760575f80fd5b8435935061377060208601613572565b925060408501356001600160401b0381111561378a575f80fd5b613796878288016135ac565b95989497509550505050565b5f805f80608085870312156137b5575f80fd5b84356001600160401b03808211156137cb575f80fd5b6137d788838901613333565b955060208701359150808211156137ec575f80fd5b6137f8888389016133a3565b9450604087013591508082111561380d575f80fd5b613819888389016133ff565b9350606087013591508082111561382e575f80fd5b508501601f8101871361383f575f80fd5b61330587823560208401613251565b5f6020828403121561385e575f80fd5b8135611572816131d3565b5f815180845260208085019450602084015f5b838110156138985781518752958201959082019060010161387c565b509495945050505050565b60ff60f81b8816815260e060208201525f6138c160e0830189613196565b82810360408401526138d38189613196565b606084018890526001600160a01b038716608085015260a0840186905283810360c085015290506139048185613869565b9a9950505050505050505050565b5f805f8060808587031215613925575f80fd5b8435935061393560208601613572565b92506040850135613945816131d3565b915060608501356001600160401b038111156132f9575f80fd5b5f805f60608486031215613971575f80fd5b833561397c816131d3565b92506020840135915060408401356001600160401b0381111561399d575f80fd5b6139a98682870161328c565b9150509250925092565b5f805f805f60a086880312156139c7575f80fd5b85356139d2816131d3565b945060208601356139e2816131d3565b935060408601356001600160401b03808211156139fd575f80fd5b613a0989838a016133a3565b94506060880135915080821115613a1e575f80fd5b613a2a89838a016133a3565b93506080880135915080821115613705575f80fd5b5f805f8060608587031215613a52575f80fd5b8435613a5d816131d3565b93506020850135925060408501356001600160401b0381111561378a575f80fd5b5f60208284031215613a8e575f80fd5b813563ffffffff81168114611572575f80fd5b5f8060408385031215613ab2575f80fd5b8235613abd816131d3565b946020939093013593505050565b5f805f805f60a08688031215613adf575f80fd5b8535613aea816131d3565b94506020860135613afa816131d3565b9350604086013592506060860135915060808601356001600160401b03811115613b22575f80fd5b6137128882890161328c565b600181811c90821680613b4257607f821691505b602082108103613b6057634e487b7160e01b5f52602260045260245ffd5b50919050565b634e487b7160e01b5f52603260045260245ffd5b5f60208284031215613b8a575f80fd5b81516001600160401b03811115613b9f575f80fd5b8201601f81018413613baf575f80fd5b8051613bbd61325e8261322b565b818152856020838501011115613bd1575f80fd5b61191c826020830160208601613174565b818382375f9101908152919050565b634e487b7160e01b5f52601160045260245ffd5b81810381811115610a2857610a28613bf1565b65ffffffffffff828116828216039080821115613c3757613c37613bf1565b5092915050565b5f60208284031215613c4e575f80fd5b81516115728161371f565b65ffffffffffff818116838216019080821115613c3757613c37613bf1565b5f815180845260208085019450602084015f5b838110156138985781516001600160a01b031687529582019590820190600101613c8b565b5f8282518085526020808601955060208260051b840101602086015f5b84811015613cfb57601f19868403018952613ce9838351613196565b98840198925090830190600101613ccd565b5090979650505050505050565b608081525f613d1a6080830187613c78565b8281036020840152613d2c8187613869565b90508281036040840152613d408186613cb0565b91505082606083015295945050505050565b83815260608101613d666020830185613516565b826040830152949350505050565b5f60208284031215613d84575f80fd5b81518015158114611572575f80fd5b84815260ff84166020820152826040820152608060608201525f610deb6080830184613196565b85815260ff8516602082015283604082015260a060608201525f613de160a0830185613196565b828103608084015261121c8185613196565b80820180821115610a2857610a28613bf1565b5f6101208b8352602060018060a01b038c1681850152816040850152613e2e8285018c613c78565b91508382036060850152613e42828b613869565b915083820360808501528189518084528284019150828160051b850101838c015f5b83811015613e9257601f19878403018552613e80838351613196565b94860194925090850190600101613e64565b505086810360a0880152613ea6818c613cb0565b9450505050508560c08401528460e0840152828103610100840152613ecb8185613196565b9c9b505050505050505050505050565b5f60208284031215613eeb575f80fd5b5051919050565b8082028115828204841417610a2857610a28613bf1565b634e487b7160e01b5f52601260045260245ffd5b5f82613f3757634e487b7160e01b5f52601260045260245ffd5b500490565b60a081525f613f4e60a0830188613c78565b8281036020840152613f608188613869565b90508281036040840152613f748187613cb0565b60608401959095525050608001529392505050565b60c081525f613f9b60c0830189613c78565b8281036020840152613fad8189613869565b90508281036040840152613fc18188613cb0565b60608401969096525050608081019290925260a0909101529392505050565b828152604060208201525f610ed46040830184613196565b5f8251614009818460208701613174565b9190910192915050565b60ff8181168382160190811115610a2857610a28613bf1565b600181815b8085111561406657815f190482111561404c5761404c613bf1565b8085161561405957918102915b93841c9390800290614031565b509250929050565b5f8261407c57506001610a28565b8161408857505f610a28565b816001811461409e57600281146140a8576140c4565b6001915050610a28565b60ff8411156140b9576140b9613bf1565b50506001821b610a28565b5060208310610133831016604e8410600b84101617156140e7575081810a610a28565b6140f1838361402c565b805f190482111561410457614104613bf1565b029392505050565b5f61157260ff84168361406e56fea26469706673582212205d2147482613db049a942e173226aba93d256058d5c20ce418cc032ced2d8e1b64736f6c63430008160033",
		"opcodes": "PUSH2 0x180 PUSH1 0x40 MSTORE CALLVALUE DUP1 ISZERO PUSH3 0x11 JUMPI PUSH0 DUP1 REVERT JUMPDEST POP PUSH1 0x40 MLOAD PUSH3 0x4C02 CODESIZE SUB DUP1 PUSH3 0x4C02 DUP4 CODECOPY DUP2 ADD PUSH1 0x40 DUP2 SWAP1 MSTORE PUSH3 0x34 SWAP2 PUSH3 0x7AF JUMP JUMPDEST DUP4 DUP2 DUP7 DUP6 DUP6 PUSH0 PUSH1 0x40 MLOAD DUP1 PUSH1 0x40 ADD PUSH1 0x40 MSTORE DUP1 PUSH1 0x10 DUP2 MSTORE PUSH1 0x20 ADD PUSH16 0x11DBDD995C9B9BDC90DBDB9D1C9858DD PUSH1 0x82 SHL DUP2 MSTORE POP DUP1 PUSH3 0x74 PUSH3 0x18C PUSH1 0x20 SHL PUSH1 0x20 SHR JUMP JUMPDEST PUSH3 0x80 DUP3 PUSH0 PUSH3 0x1A7 JUMP JUMPDEST PUSH2 0x120 MSTORE PUSH3 0x91 DUP2 PUSH1 0x1 PUSH3 0x1A7 JUMP JUMPDEST PUSH2 0x140 MSTORE DUP2 MLOAD PUSH1 0x20 DUP1 DUP5 ADD SWAP2 SWAP1 SWAP2 KECCAK256 PUSH1 0xE0 MSTORE DUP2 MLOAD SWAP1 DUP3 ADD KECCAK256 PUSH2 0x100 MSTORE CHAINID PUSH1 0xA0 MSTORE PUSH3 0x11E PUSH1 0xE0 MLOAD PUSH2 0x100 MLOAD PUSH1 0x40 DUP1 MLOAD PUSH32 0x8B73C3C69BB8FE3D512ECC4CF759CC79239F7B179B0FFACAA9A75D522B39400F PUSH1 0x20 DUP3 ADD MSTORE SWAP1 DUP2 ADD SWAP3 SWAP1 SWAP3 MSTORE PUSH1 0x60 DUP3 ADD MSTORE CHAINID PUSH1 0x80 DUP3 ADD MSTORE ADDRESS PUSH1 0xA0 DUP3 ADD MSTORE PUSH0 SWAP1 PUSH1 0xC0 ADD PUSH1 0x40 MLOAD PUSH1 0x20 DUP2 DUP4 SUB SUB DUP2 MSTORE SWAP1 PUSH1 0x40 MSTORE DUP1 MLOAD SWAP1 PUSH1 0x20 ADD KECCAK256 SWAP1 POP SWAP1 JUMP JUMPDEST PUSH1 0x80 MSTORE POP POP ADDRESS PUSH1 0xC0 MSTORE PUSH1 0x3 PUSH3 0x135 DUP3 DUP3 PUSH3 0x8C0 JUMP JUMPDEST POP PUSH3 0x143 SWAP1 POP DUP4 PUSH3 0x1DF JUMP JUMPDEST PUSH3 0x14E DUP3 PUSH3 0x245 JUMP JUMPDEST PUSH3 0x159 DUP2 PUSH3 0x2EA JUMP JUMPDEST POP POP POP PUSH1 0x1 PUSH1 0x1 PUSH1 0xA0 SHL SUB AND PUSH2 0x160 MSTORE PUSH3 0x174 DUP2 PUSH3 0x32B JUMP JUMPDEST POP PUSH3 0x180 DUP2 PUSH3 0x3CA JUMP JUMPDEST POP POP POP POP POP POP PUSH3 0xA3A JUMP JUMPDEST PUSH1 0x40 DUP1 MLOAD DUP1 DUP3 ADD SWAP1 SWAP2 MSTORE PUSH1 0x1 DUP2 MSTORE PUSH1 0x31 PUSH1 0xF8 SHL PUSH1 0x20 DUP3 ADD MSTORE SWAP1 JUMP JUMPDEST PUSH0 PUSH1 0x20 DUP4 MLOAD LT ISZERO PUSH3 0x1C6 JUMPI PUSH3 0x1BE DUP4 PUSH3 0x433 JUMP JUMPDEST SWAP1 POP PUSH3 0x1D9 JUMP JUMPDEST DUP2 PUSH3 0x1D3 DUP5 DUP3 PUSH3 0x8C0 JUMP JUMPDEST POP PUSH1 0xFF SWAP1 POP JUMPDEST SWAP3 SWAP2 POP POP JUMP JUMPDEST PUSH1 0x8 SLOAD PUSH1 0x40 DUP1 MLOAD PUSH6 0xFFFFFFFFFFFF SWAP3 DUP4 AND DUP2 MSTORE SWAP2 DUP4 AND PUSH1 0x20 DUP4 ADD MSTORE PUSH32 0xC565B045403DC03C2EEA82B81A0465EDAD9E2E7FC4D97E11421C209DA93D7A93 SWAP2 ADD PUSH1 0x40 MLOAD DUP1 SWAP2 SUB SWAP1 LOG1 PUSH1 0x8 DUP1 SLOAD PUSH6 0xFFFFFFFFFFFF NOT AND PUSH6 0xFFFFFFFFFFFF SWAP3 SWAP1 SWAP3 AND SWAP2 SWAP1 SWAP2 OR SWAP1 SSTORE JUMP JUMPDEST DUP1 PUSH4 0xFFFFFFFF AND PUSH0 SUB PUSH3 0x273 JUMPI PUSH1 0x40 MLOAD PUSH4 0xF1CFBF05 PUSH1 0xE0 SHL DUP2 MSTORE PUSH0 PUSH1 0x4 DUP3 ADD MSTORE PUSH1 0x24 ADD JUMPDEST PUSH1 0x40 MLOAD DUP1 SWAP2 SUB SWAP1 REVERT JUMPDEST PUSH1 0x8 SLOAD PUSH1 0x40 DUP1 MLOAD PUSH4 0xFFFFFFFF PUSH7 0x1000000000000 SWAP1 SWAP4 DIV DUP4 AND DUP2 MSTORE SWAP2 DUP4 AND PUSH1 0x20 DUP4 ADD MSTORE PUSH32 0x7E3F7F0708A84DE9203036ABAA450DCCC85AD5FF52F78C170F3EDB55CF5E8828 SWAP2 ADD PUSH1 0x40 MLOAD DUP1 SWAP2 SUB SWAP1 LOG1 PUSH1 0x8 DUP1 SLOAD PUSH4 0xFFFFFFFF SWAP1 SWAP3 AND PUSH7 0x1000000000000 MUL PUSH4 0xFFFFFFFF PUSH1 0x30 SHL NOT SWAP1 SWAP3 AND SWAP2 SWAP1 SWAP2 OR SWAP1 SSTORE JUMP JUMPDEST PUSH1 0x7 SLOAD PUSH1 0x40 DUP1 MLOAD SWAP2 DUP3 MSTORE PUSH1 0x20 DUP3 ADD DUP4 SWAP1 MSTORE PUSH32 0xCCB45DA8D5717E6C4544694297C4BA5CF151D455C9BB0ED4FC7A38411BC05461 SWAP2 ADD PUSH1 0x40 MLOAD DUP1 SWAP2 SUB SWAP1 LOG1 PUSH1 0x7 SSTORE JUMP JUMPDEST PUSH1 0x64 DUP1 DUP3 GT ISZERO PUSH3 0x35A JUMPI PUSH1 0x40 MLOAD PUSH4 0x243E5445 PUSH1 0xE0 SHL DUP2 MSTORE PUSH1 0x4 DUP2 ADD DUP4 SWAP1 MSTORE PUSH1 0x24 DUP2 ADD DUP3 SWAP1 MSTORE PUSH1 0x44 ADD PUSH3 0x26A JUMP JUMPDEST PUSH0 PUSH3 0x365 PUSH3 0x475 JUMP JUMPDEST SWAP1 POP PUSH3 0x38A PUSH3 0x375 PUSH3 0x490 JUMP JUMPDEST PUSH3 0x380 DUP6 PUSH3 0x511 JUMP JUMPDEST PUSH1 0xA SWAP2 SWAP1 PUSH3 0x54A JUMP JUMPDEST POP POP PUSH1 0x40 DUP1 MLOAD DUP3 DUP2 MSTORE PUSH1 0x20 DUP2 ADD DUP6 SWAP1 MSTORE PUSH32 0x553476BF02EF2726E8CE5CED78D63E26E602E4A2257B1F559418E24B4633997 SWAP2 ADD PUSH1 0x40 MLOAD DUP1 SWAP2 SUB SWAP1 LOG1 POP POP POP JUMP JUMPDEST PUSH1 0xB SLOAD PUSH1 0x40 DUP1 MLOAD PUSH1 0x1 PUSH1 0x1 PUSH1 0xA0 SHL SUB SWAP3 DUP4 AND DUP2 MSTORE SWAP2 DUP4 AND PUSH1 0x20 DUP4 ADD MSTORE PUSH32 0x8F74EA46EF7894F65EABFB5E6E695DE773A000B47C529AB559178069B226401 SWAP2 ADD PUSH1 0x40 MLOAD DUP1 SWAP2 SUB SWAP1 LOG1 PUSH1 0xB DUP1 SLOAD PUSH1 0x1 PUSH1 0x1 PUSH1 0xA0 SHL SUB NOT AND PUSH1 0x1 PUSH1 0x1 PUSH1 0xA0 SHL SUB SWAP3 SWAP1 SWAP3 AND SWAP2 SWAP1 SWAP2 OR SWAP1 SSTORE JUMP JUMPDEST PUSH0 DUP1 DUP3 SWAP1 POP PUSH1 0x1F DUP2 MLOAD GT ISZERO PUSH3 0x460 JUMPI DUP3 PUSH1 0x40 MLOAD PUSH4 0x305A27A9 PUSH1 0xE0 SHL DUP2 MSTORE PUSH1 0x4 ADD PUSH3 0x26A SWAP2 SWAP1 PUSH3 0x98C JUMP JUMPDEST DUP1 MLOAD PUSH3 0x46D DUP3 PUSH3 0x9DA JUMP JUMPDEST OR SWAP4 SWAP3 POP POP POP JUMP JUMPDEST PUSH0 PUSH3 0x482 PUSH1 0xA PUSH3 0x566 JUMP JUMPDEST PUSH1 0x1 PUSH1 0x1 PUSH1 0xD0 SHL SUB AND SWAP1 POP SWAP1 JUMP JUMPDEST PUSH0 PUSH3 0x49C PUSH2 0x160 MLOAD SWAP1 JUMP JUMPDEST PUSH1 0x1 PUSH1 0x1 PUSH1 0xA0 SHL SUB AND PUSH4 0x91DDADF4 PUSH1 0x40 MLOAD DUP2 PUSH4 0xFFFFFFFF AND PUSH1 0xE0 SHL DUP2 MSTORE PUSH1 0x4 ADD PUSH1 0x20 PUSH1 0x40 MLOAD DUP1 DUP4 SUB DUP2 DUP7 GAS STATICCALL SWAP3 POP POP POP DUP1 ISZERO PUSH3 0x4F8 JUMPI POP PUSH1 0x40 DUP1 MLOAD PUSH1 0x1F RETURNDATASIZE SWAP1 DUP2 ADD PUSH1 0x1F NOT AND DUP3 ADD SWAP1 SWAP3 MSTORE PUSH3 0x4F5 SWAP2 DUP2 ADD SWAP1 PUSH3 0x9FE JUMP JUMPDEST PUSH1 0x1 JUMPDEST PUSH3 0x50C JUMPI PUSH3 0x507 PUSH3 0x5B3 JUMP JUMPDEST SWAP1 POP SWAP1 JUMP JUMPDEST SWAP2 SWAP1 POP JUMP JUMPDEST PUSH0 PUSH1 0x1 PUSH1 0x1 PUSH1 0xD0 SHL SUB DUP3 GT ISZERO PUSH3 0x546 JUMPI PUSH1 0x40 MLOAD PUSH4 0x6DFCC65 PUSH1 0xE4 SHL DUP2 MSTORE PUSH1 0xD0 PUSH1 0x4 DUP3 ADD MSTORE PUSH1 0x24 DUP2 ADD DUP4 SWAP1 MSTORE PUSH1 0x44 ADD PUSH3 0x26A JUMP JUMPDEST POP SWAP1 JUMP JUMPDEST PUSH0 DUP1 PUSH3 0x559 DUP6 DUP6 DUP6 PUSH3 0x5BF JUMP JUMPDEST SWAP2 POP SWAP2 POP JUMPDEST SWAP4 POP SWAP4 SWAP2 POP POP JUMP JUMPDEST DUP1 SLOAD PUSH0 SWAP1 DUP1 ISZERO PUSH3 0x5AA JUMPI PUSH3 0x590 DUP4 PUSH3 0x583 PUSH1 0x1 DUP5 PUSH3 0xA1A JUMP JUMPDEST PUSH0 SWAP2 DUP3 MSTORE PUSH1 0x20 SWAP1 SWAP2 KECCAK256 ADD SWAP1 JUMP JUMPDEST SLOAD PUSH7 0x1000000000000 SWAP1 DIV PUSH1 0x1 PUSH1 0x1 PUSH1 0xD0 SHL SUB AND PUSH3 0x5AC JUMP JUMPDEST PUSH0 JUMPDEST SWAP4 SWAP3 POP POP POP JUMP JUMPDEST PUSH0 PUSH3 0x507 NUMBER PUSH3 0x74D JUMP JUMPDEST DUP3 SLOAD PUSH0 SWAP1 DUP2 SWAP1 DUP1 ISZERO PUSH3 0x6EF JUMPI PUSH0 PUSH3 0x5DF DUP8 PUSH3 0x583 PUSH1 0x1 DUP6 PUSH3 0xA1A JUMP JUMPDEST PUSH1 0x40 DUP1 MLOAD DUP1 DUP3 ADD SWAP1 SWAP2 MSTORE SWAP1 SLOAD PUSH6 0xFFFFFFFFFFFF DUP1 DUP3 AND DUP1 DUP5 MSTORE PUSH7 0x1000000000000 SWAP1 SWAP3 DIV PUSH1 0x1 PUSH1 0x1 PUSH1 0xD0 SHL SUB AND PUSH1 0x20 DUP5 ADD MSTORE SWAP2 SWAP3 POP SWAP1 DUP8 AND LT ISZERO PUSH3 0x637 JUMPI PUSH1 0x40 MLOAD PUSH4 0x2520601D PUSH1 0xE0 SHL DUP2 MSTORE PUSH1 0x4 ADD PUSH1 0x40 MLOAD DUP1 SWAP2 SUB SWAP1 REVERT JUMPDEST DUP1 MLOAD PUSH6 0xFFFFFFFFFFFF DUP1 DUP9 AND SWAP2 AND SUB PUSH3 0x68B JUMPI DUP5 PUSH3 0x65E DUP9 PUSH3 0x583 PUSH1 0x1 DUP7 PUSH3 0xA1A JUMP JUMPDEST DUP1 SLOAD PUSH1 0x1 PUSH1 0x1 PUSH1 0xD0 SHL SUB SWAP3 SWAP1 SWAP3 AND PUSH7 0x1000000000000 MUL PUSH6 0xFFFFFFFFFFFF SWAP1 SWAP3 AND SWAP2 SWAP1 SWAP2 OR SWAP1 SSTORE PUSH3 0x6DE JUMP JUMPDEST PUSH1 0x40 DUP1 MLOAD DUP1 DUP3 ADD SWAP1 SWAP2 MSTORE PUSH6 0xFFFFFFFFFFFF DUP1 DUP9 AND DUP3 MSTORE PUSH1 0x1 PUSH1 0x1 PUSH1 0xD0 SHL SUB DUP1 DUP9 AND PUSH1 0x20 DUP1 DUP6 ADD SWAP2 DUP3 MSTORE DUP12 SLOAD PUSH1 0x1 DUP2 ADD DUP14 SSTORE PUSH0 DUP14 DUP2 MSTORE SWAP2 SWAP1 SWAP2 KECCAK256 SWAP5 MLOAD SWAP2 MLOAD SWAP1 SWAP3 AND PUSH7 0x1000000000000 MUL SWAP3 AND SWAP2 SWAP1 SWAP2 OR SWAP2 ADD SSTORE JUMPDEST PUSH1 0x20 ADD MLOAD SWAP3 POP DUP4 SWAP2 POP PUSH3 0x55E SWAP1 POP JUMP JUMPDEST POP POP PUSH1 0x40 DUP1 MLOAD DUP1 DUP3 ADD SWAP1 SWAP2 MSTORE PUSH6 0xFFFFFFFFFFFF DUP1 DUP6 AND DUP3 MSTORE PUSH1 0x1 PUSH1 0x1 PUSH1 0xD0 SHL SUB DUP1 DUP6 AND PUSH1 0x20 DUP1 DUP6 ADD SWAP2 DUP3 MSTORE DUP9 SLOAD PUSH1 0x1 DUP2 ADD DUP11 SSTORE PUSH0 DUP11 DUP2 MSTORE SWAP2 DUP3 KECCAK256 SWAP6 MLOAD SWAP3 MLOAD SWAP1 SWAP4 AND PUSH7 0x1000000000000 MUL SWAP2 SWAP1 SWAP4 AND OR SWAP3 ADD SWAP2 SWAP1 SWAP2 SSTORE SWAP1 POP DUP2 PUSH3 0x55E JUMP JUMPDEST PUSH0 PUSH6 0xFFFFFFFFFFFF DUP3 GT ISZERO PUSH3 0x546 JUMPI PUSH1 0x40 MLOAD PUSH4 0x6DFCC65 PUSH1 0xE4 SHL DUP2 MSTORE PUSH1 0x30 PUSH1 0x4 DUP3 ADD MSTORE PUSH1 0x24 DUP2 ADD DUP4 SWAP1 MSTORE PUSH1 0x44 ADD PUSH3 0x26A JUMP JUMPDEST PUSH1 0x1 PUSH1 0x1 PUSH1 0xA0 SHL SUB DUP2 AND DUP2 EQ PUSH3 0x796 JUMPI PUSH0 DUP1 REVERT JUMPDEST POP JUMP JUMPDEST DUP1 MLOAD PUSH6 0xFFFFFFFFFFFF DUP2 AND DUP2 EQ PUSH3 0x50C JUMPI PUSH0 DUP1 REVERT JUMPDEST PUSH0 DUP1 PUSH0 DUP1 PUSH0 PUSH1 0xA0 DUP7 DUP9 SUB SLT ISZERO PUSH3 0x7C4 JUMPI PUSH0 DUP1 REVERT JUMPDEST DUP6 MLOAD PUSH3 0x7D1 DUP2 PUSH3 0x781 JUMP JUMPDEST PUSH1 0x20 DUP8 ADD MLOAD SWAP1 SWAP6 POP PUSH3 0x7E4 DUP2 PUSH3 0x781 JUMP JUMPDEST SWAP4 POP PUSH3 0x7F4 PUSH1 0x40 DUP8 ADD PUSH3 0x799 JUMP JUMPDEST SWAP3 POP PUSH1 0x60 DUP7 ADD MLOAD PUSH4 0xFFFFFFFF DUP2 AND DUP2 EQ PUSH3 0x80D JUMPI PUSH0 DUP1 REVERT JUMPDEST DUP1 SWAP3 POP POP PUSH1 0x80 DUP7 ADD MLOAD SWAP1 POP SWAP3 SWAP6 POP SWAP3 SWAP6 SWAP1 SWAP4 POP JUMP JUMPDEST PUSH4 0x4E487B71 PUSH1 0xE0 SHL PUSH0 MSTORE PUSH1 0x41 PUSH1 0x4 MSTORE PUSH1 0x24 PUSH0 REVERT JUMPDEST PUSH1 0x1 DUP2 DUP2 SHR SWAP1 DUP3 AND DUP1 PUSH3 0x84B JUMPI PUSH1 0x7F DUP3 AND SWAP2 POP JUMPDEST PUSH1 0x20 DUP3 LT DUP2 SUB PUSH3 0x86A JUMPI PUSH4 0x4E487B71 PUSH1 0xE0 SHL PUSH0 MSTORE PUSH1 0x22 PUSH1 0x4 MSTORE PUSH1 0x24 PUSH0 REVERT JUMPDEST POP SWAP2 SWAP1 POP JUMP JUMPDEST PUSH1 0x1F DUP3 GT ISZERO PUSH3 0x8BB JUMPI DUP1 PUSH0 MSTORE PUSH1 0x20 PUSH0 KECCAK256 PUSH1 0x1F DUP5 ADD PUSH1 0x5 SHR DUP2 ADD PUSH1 0x20 DUP6 LT ISZERO PUSH3 0x897 JUMPI POP DUP1 JUMPDEST PUSH1 0x1F DUP5 ADD PUSH1 0x5 SHR DUP3 ADD SWAP2 POP JUMPDEST DUP2 DUP2 LT ISZERO PUSH3 0x8B8 JUMPI PUSH0 DUP2 SSTORE PUSH1 0x1 ADD PUSH3 0x8A3 JUMP JUMPDEST POP POP JUMPDEST POP POP POP JUMP JUMPDEST DUP2 MLOAD PUSH1 0x1 PUSH1 0x1 PUSH1 0x40 SHL SUB DUP2 GT ISZERO PUSH3 0x8DC JUMPI PUSH3 0x8DC PUSH3 0x822 JUMP JUMPDEST PUSH3 0x8F4 DUP2 PUSH3 0x8ED DUP5 SLOAD PUSH3 0x836 JUMP JUMPDEST DUP5 PUSH3 0x870 JUMP JUMPDEST PUSH1 0x20 DUP1 PUSH1 0x1F DUP4 GT PUSH1 0x1 DUP2 EQ PUSH3 0x92A JUMPI PUSH0 DUP5 ISZERO PUSH3 0x912 JUMPI POP DUP6 DUP4 ADD MLOAD JUMPDEST PUSH0 NOT PUSH1 0x3 DUP7 SWAP1 SHL SHR NOT AND PUSH1 0x1 DUP6 SWAP1 SHL OR DUP6 SSTORE PUSH3 0x984 JUMP JUMPDEST PUSH0 DUP6 DUP2 MSTORE PUSH1 0x20 DUP2 KECCAK256 PUSH1 0x1F NOT DUP7 AND SWAP2 JUMPDEST DUP3 DUP2 LT ISZERO PUSH3 0x95A JUMPI DUP9 DUP7 ADD MLOAD DUP3 SSTORE SWAP5 DUP5 ADD SWAP5 PUSH1 0x1 SWAP1 SWAP2 ADD SWAP1 DUP5 ADD PUSH3 0x939 JUMP JUMPDEST POP DUP6 DUP3 LT ISZERO PUSH3 0x978 JUMPI DUP8 DUP6 ADD MLOAD PUSH0 NOT PUSH1 0x3 DUP9 SWAP1 SHL PUSH1 0xF8 AND SHR NOT AND DUP2 SSTORE JUMPDEST POP POP PUSH1 0x1 DUP5 PUSH1 0x1 SHL ADD DUP6 SSTORE JUMPDEST POP POP POP POP POP POP JUMP JUMPDEST PUSH0 PUSH1 0x20 DUP1 DUP4 MSTORE DUP4 MLOAD DUP1 PUSH1 0x20 DUP6 ADD MSTORE PUSH0 JUMPDEST DUP2 DUP2 LT ISZERO PUSH3 0x9BA JUMPI DUP6 DUP2 ADD DUP4 ADD MLOAD DUP6 DUP3 ADD PUSH1 0x40 ADD MSTORE DUP3 ADD PUSH3 0x99C JUMP JUMPDEST POP PUSH0 PUSH1 0x40 DUP3 DUP7 ADD ADD MSTORE PUSH1 0x40 PUSH1 0x1F NOT PUSH1 0x1F DUP4 ADD AND DUP6 ADD ADD SWAP3 POP POP POP SWAP3 SWAP2 POP POP JUMP JUMPDEST DUP1 MLOAD PUSH1 0x20 DUP1 DUP4 ADD MLOAD SWAP2 SWAP1 DUP2 LT ISZERO PUSH3 0x86A JUMPI PUSH0 NOT PUSH1 0x20 SWAP2 SWAP1 SWAP2 SUB PUSH1 0x3 SHL SHL AND SWAP2 SWAP1 POP JUMP JUMPDEST PUSH0 PUSH1 0x20 DUP3 DUP5 SUB SLT ISZERO PUSH3 0xA0F JUMPI PUSH0 DUP1 REVERT JUMPDEST PUSH3 0x5AC DUP3 PUSH3 0x799 JUMP JUMPDEST DUP2 DUP2 SUB DUP2 DUP2 GT ISZERO PUSH3 0x1D9 JUMPI PUSH4 0x4E487B71 PUSH1 0xE0 SHL PUSH0 MSTORE PUSH1 0x11 PUSH1 0x4 MSTORE PUSH1 0x24 PUSH0 REVERT JUMPDEST PUSH1 0x80 MLOAD PUSH1 0xA0 MLOAD PUSH1 0xC0 MLOAD PUSH1 0xE0 MLOAD PUSH2 0x100 MLOAD PUSH2 0x120 MLOAD PUSH2 0x140 MLOAD PUSH2 0x160 MLOAD PUSH2 0x4150 PUSH3 0xAB2 PUSH0 CODECOPY PUSH0 DUP2 DUP2 PUSH2 0x9A1 ADD MSTORE DUP2 DUP2 PUSH2 0xDF9 ADD MSTORE DUP2 DUP2 PUSH2 0x133C ADD MSTORE DUP2 DUP2 PUSH2 0x1F54 ADD MSTORE PUSH2 0x21A7 ADD MSTORE PUSH0 PUSH2 0x1F21 ADD MSTORE PUSH0 PUSH2 0x1EF5 ADD MSTORE PUSH0 PUSH2 0x27AF ADD MSTORE PUSH0 PUSH2 0x2787 ADD MSTORE PUSH0 PUSH2 0x26E2 ADD MSTORE PUSH0 PUSH2 0x270C ADD MSTORE PUSH0 PUSH2 0x2736 ADD MSTORE PUSH2 0x4150 PUSH0 RETURN INVALID PUSH1 0x80 PUSH1 0x40 MSTORE PUSH1 0x4 CALLDATASIZE LT PUSH2 0x28E JUMPI PUSH0 CALLDATALOAD PUSH1 0xE0 SHR DUP1 PUSH4 0x7ECEBE00 GT PUSH2 0x155 JUMPI DUP1 PUSH4 0xC01F9E37 GT PUSH2 0xBE JUMPI DUP1 PUSH4 0xE540D01D GT PUSH2 0x78 JUMPI DUP1 PUSH4 0xE540D01D EQ PUSH2 0x8F8 JUMPI DUP1 PUSH4 0xEB9019D4 EQ PUSH2 0x917 JUMPI DUP1 PUSH4 0xECE40CC1 EQ PUSH2 0x936 JUMPI DUP1 PUSH4 0xF23A6E61 EQ PUSH2 0x955 JUMPI DUP1 PUSH4 0xF8CE560A EQ PUSH2 0x974 JUMPI DUP1 PUSH4 0xFC0C546A EQ PUSH2 0x993 JUMPI PUSH0 DUP1 REVERT JUMPDEST DUP1 PUSH4 0xC01F9E37 EQ PUSH2 0x812 JUMPI DUP1 PUSH4 0xC28BC2FA EQ PUSH2 0x831 JUMPI DUP1 PUSH4 0xC59057E4 EQ PUSH2 0x844 JUMPI DUP1 PUSH4 0xD33219B4 EQ PUSH2 0x863 JUMPI DUP1 PUSH4 0xDD4E2BA5 EQ PUSH2 0x880 JUMPI DUP1 PUSH4 0xDEAAA7CC EQ PUSH2 0x8C5 JUMPI PUSH0 DUP1 REVERT JUMPDEST DUP1 PUSH4 0xA7713A70 GT PUSH2 0x10F JUMPI DUP1 PUSH4 0xA7713A70 EQ PUSH2 0x757 JUMPI DUP1 PUSH4 0xA890C910 EQ PUSH2 0x76B JUMPI DUP1 PUSH4 0xA9A95294 EQ PUSH2 0x78A JUMPI DUP1 PUSH4 0xAB58FB8E EQ PUSH2 0x7A9 JUMPI DUP1 PUSH4 0xB58131B0 EQ PUSH2 0x7DF JUMPI DUP1 PUSH4 0xBC197C81 EQ PUSH2 0x7F3 JUMPI PUSH0 DUP1 REVERT JUMPDEST DUP1 PUSH4 0x7ECEBE00 EQ PUSH2 0x680 JUMPI DUP1 PUSH4 0x84B0196E EQ PUSH2 0x6B4 JUMPI DUP1 PUSH4 0x8FF262E3 EQ PUSH2 0x6DB JUMPI DUP1 PUSH4 0x91DDADF4 EQ PUSH2 0x6FA JUMPI DUP1 PUSH4 0x97C3D334 EQ PUSH2 0x725 JUMPI DUP1 PUSH4 0x9A802A6D EQ PUSH2 0x738 JUMPI PUSH0 DUP1 REVERT JUMPDEST DUP1 PUSH4 0x43859632 GT PUSH2 0x1F7 JUMPI DUP1 PUSH4 0x5B8D0E0D GT PUSH2 0x1B1 JUMPI DUP1 PUSH4 0x5B8D0E0D EQ PUSH2 0x5C6 JUMPI DUP1 PUSH4 0x5F398A14 EQ PUSH2 0x5E5 JUMPI DUP1 PUSH4 0x60C4247F EQ PUSH2 0x604 JUMPI DUP1 PUSH4 0x79051887 EQ PUSH2 0x623 JUMPI DUP1 PUSH4 0x7B3C71D3 EQ PUSH2 0x642 JUMPI DUP1 PUSH4 0x7D5E81E2 EQ PUSH2 0x661 JUMPI PUSH0 DUP1 REVERT JUMPDEST DUP1 PUSH4 0x43859632 EQ PUSH2 0x4B0 JUMPI DUP1 PUSH4 0x452115D6 EQ PUSH2 0x4F8 JUMPI DUP1 PUSH4 0x4BF5D7E9 EQ PUSH2 0x517 JUMPI DUP1 PUSH4 0x544FFC9C EQ PUSH2 0x52B JUMPI DUP1 PUSH4 0x54FD4D50 EQ PUSH2 0x57E JUMPI DUP1 PUSH4 0x56781388 EQ PUSH2 0x5A7 JUMPI PUSH0 DUP1 REVERT JUMPDEST DUP1 PUSH4 0x160CBED7 GT PUSH2 0x248 JUMPI DUP1 PUSH4 0x160CBED7 EQ PUSH2 0x3EC JUMPI DUP1 PUSH4 0x2656227D EQ PUSH2 0x40B JUMPI DUP1 PUSH4 0x2D63F693 EQ PUSH2 0x41E JUMPI DUP1 PUSH4 0x2FE3E261 EQ PUSH2 0x43D JUMPI DUP1 PUSH4 0x3932ABB1 EQ PUSH2 0x470 JUMPI DUP1 PUSH4 0x3E4F49E6 EQ PUSH2 0x484 JUMPI PUSH0 DUP1 REVERT JUMPDEST DUP1 PUSH4 0x1FFC9A7 EQ PUSH2 0x2C9 JUMPI DUP1 PUSH4 0x2A251A3 EQ PUSH2 0x2FD JUMPI DUP1 PUSH4 0x6F3F9E6 EQ PUSH2 0x328 JUMPI DUP1 PUSH4 0x6FDDE03 EQ PUSH2 0x347 JUMPI DUP1 PUSH4 0x143489D0 EQ PUSH2 0x368 JUMPI DUP1 PUSH4 0x150B7A02 EQ PUSH2 0x3B4 JUMPI PUSH0 DUP1 REVERT JUMPDEST CALLDATASIZE PUSH2 0x2C5 JUMPI ADDRESS PUSH2 0x29C PUSH2 0x9C5 JUMP JUMPDEST PUSH1 0x1 PUSH1 0x1 PUSH1 0xA0 SHL SUB AND EQ PUSH2 0x2C3 JUMPI PUSH1 0x40 MLOAD PUSH4 0x7485328F PUSH1 0xE1 SHL DUP2 MSTORE PUSH1 0x4 ADD PUSH1 0x40 MLOAD DUP1 SWAP2 SUB SWAP1 REVERT JUMPDEST STOP JUMPDEST PUSH0 DUP1 REVERT JUMPDEST CALLVALUE DUP1 ISZERO PUSH2 0x2D4 JUMPI PUSH0 DUP1 REVERT JUMPDEST POP PUSH2 0x2E8 PUSH2 0x2E3 CALLDATASIZE PUSH1 0x4 PUSH2 0x3136 JUMP JUMPDEST PUSH2 0x9DD JUMP JUMPDEST PUSH1 0x40 MLOAD SWAP1 ISZERO ISZERO DUP2 MSTORE PUSH1 0x20 ADD JUMPDEST PUSH1 0x40 MLOAD DUP1 SWAP2 SUB SWAP1 RETURN JUMPDEST CALLVALUE DUP1 ISZERO PUSH2 0x308 JUMPI PUSH0 DUP1 REVERT JUMPDEST POP PUSH1 0x8 SLOAD PUSH1 0x1 PUSH1 0x30 SHL SWAP1 DIV PUSH4 0xFFFFFFFF AND JUMPDEST PUSH1 0x40 MLOAD SWAP1 DUP2 MSTORE PUSH1 0x20 ADD PUSH2 0x2F4 JUMP JUMPDEST CALLVALUE DUP1 ISZERO PUSH2 0x333 JUMPI PUSH0 DUP1 REVERT JUMPDEST POP PUSH2 0x2C3 PUSH2 0x342 CALLDATASIZE PUSH1 0x4 PUSH2 0x315D JUMP JUMPDEST PUSH2 0xA2E JUMP JUMPDEST CALLVALUE DUP1 ISZERO PUSH2 0x352 JUMPI PUSH0 DUP1 REVERT JUMPDEST POP PUSH2 0x35B PUSH2 0xA42 JUMP JUMPDEST PUSH1 0x40 MLOAD PUSH2 0x2F4 SWAP2 SWAP1 PUSH2 0x31C1 JUMP JUMPDEST CALLVALUE DUP1 ISZERO PUSH2 0x373 JUMPI PUSH0 DUP1 REVERT JUMPDEST POP PUSH2 0x39C PUSH2 0x382 CALLDATASIZE PUSH1 0x4 PUSH2 0x315D JUMP JUMPDEST PUSH0 SWAP1 DUP2 MSTORE PUSH1 0x4 PUSH1 0x20 MSTORE PUSH1 0x40 SWAP1 KECCAK256 SLOAD PUSH1 0x1 PUSH1 0x1 PUSH1 0xA0 SHL SUB AND SWAP1 JUMP JUMPDEST PUSH1 0x40 MLOAD PUSH1 0x1 PUSH1 0x1 PUSH1 0xA0 SHL SUB SWAP1 SWAP2 AND DUP2 MSTORE PUSH1 0x20 ADD PUSH2 0x2F4 JUMP JUMPDEST CALLVALUE DUP1 ISZERO PUSH2 0x3BF JUMPI PUSH0 DUP1 REVERT JUMPDEST POP PUSH2 0x3D3 PUSH2 0x3CE CALLDATASIZE PUSH1 0x4 PUSH2 0x32AA JUMP JUMPDEST PUSH2 0xAD2 JUMP JUMPDEST PUSH1 0x40 MLOAD PUSH1 0x1 PUSH1 0x1 PUSH1 0xE0 SHL SUB NOT SWAP1 SWAP2 AND DUP2 MSTORE PUSH1 0x20 ADD PUSH2 0x2F4 JUMP JUMPDEST CALLVALUE DUP1 ISZERO PUSH2 0x3F7 JUMPI PUSH0 DUP1 REVERT JUMPDEST POP PUSH2 0x31A PUSH2 0x406 CALLDATASIZE PUSH1 0x4 PUSH2 0x3479 JUMP JUMPDEST PUSH2 0xB14 JUMP JUMPDEST PUSH2 0x31A PUSH2 0x419 CALLDATASIZE PUSH1 0x4 PUSH2 0x3479 JUMP JUMPDEST PUSH2 0xBE0 JUMP JUMPDEST CALLVALUE DUP1 ISZERO PUSH2 0x429 JUMPI PUSH0 DUP1 REVERT JUMPDEST POP PUSH2 0x31A PUSH2 0x438 CALLDATASIZE PUSH1 0x4 PUSH2 0x315D JUMP JUMPDEST PUSH2 0xD48 JUMP JUMPDEST CALLVALUE DUP1 ISZERO PUSH2 0x448 JUMPI PUSH0 DUP1 REVERT JUMPDEST POP PUSH2 0x31A PUSH32 0x3E83946653575F9A39005E1545185629E92736B7528AB20CA3816F315424A811 DUP2 JUMP JUMPDEST CALLVALUE DUP1 ISZERO PUSH2 0x47B JUMPI PUSH0 DUP1 REVERT JUMPDEST POP PUSH2 0x31A PUSH2 0xD68 JUMP JUMPDEST CALLVALUE DUP1 ISZERO PUSH2 0x48F JUMPI PUSH0 DUP1 REVERT JUMPDEST POP PUSH2 0x4A3 PUSH2 0x49E CALLDATASIZE PUSH1 0x4 PUSH2 0x315D JUMP JUMPDEST PUSH2 0xD7A JUMP JUMPDEST PUSH1 0x40 MLOAD PUSH2 0x2F4 SWAP2 SWAP1 PUSH2 0x3536 JUMP JUMPDEST CALLVALUE DUP1 ISZERO PUSH2 0x4BB JUMPI PUSH0 DUP1 REVERT JUMPDEST POP PUSH2 0x2E8 PUSH2 0x4CA CALLDATASIZE PUSH1 0x4 PUSH2 0x3544 JUMP JUMPDEST PUSH0 DUP3 DUP2 MSTORE PUSH1 0x9 PUSH1 0x20 SWAP1 DUP2 MSTORE PUSH1 0x40 DUP1 DUP4 KECCAK256 PUSH1 0x1 PUSH1 0x1 PUSH1 0xA0 SHL SUB DUP6 AND DUP5 MSTORE PUSH1 0x3 ADD SWAP1 SWAP2 MSTORE SWAP1 KECCAK256 SLOAD PUSH1 0xFF AND SWAP3 SWAP2 POP POP JUMP JUMPDEST CALLVALUE DUP1 ISZERO PUSH2 0x503 JUMPI PUSH0 DUP1 REVERT JUMPDEST POP PUSH2 0x31A PUSH2 0x512 CALLDATASIZE PUSH1 0x4 PUSH2 0x3479 JUMP JUMPDEST PUSH2 0xD84 JUMP JUMPDEST CALLVALUE DUP1 ISZERO PUSH2 0x522 JUMPI PUSH0 DUP1 REVERT JUMPDEST POP PUSH2 0x35B PUSH2 0xDF5 JUMP JUMPDEST CALLVALUE DUP1 ISZERO PUSH2 0x536 JUMPI PUSH0 DUP1 REVERT JUMPDEST POP PUSH2 0x563 PUSH2 0x545 CALLDATASIZE PUSH1 0x4 PUSH2 0x315D JUMP JUMPDEST PUSH0 SWAP1 DUP2 MSTORE PUSH1 0x9 PUSH1 0x20 MSTORE PUSH1 0x40 SWAP1 KECCAK256 DUP1 SLOAD PUSH1 0x1 DUP3 ADD SLOAD PUSH1 0x2 SWAP1 SWAP3 ADD SLOAD SWAP1 SWAP3 JUMP JUMPDEST PUSH1 0x40 DUP1 MLOAD SWAP4 DUP5 MSTORE PUSH1 0x20 DUP5 ADD SWAP3 SWAP1 SWAP3 MSTORE SWAP1 DUP3 ADD MSTORE PUSH1 0x60 ADD PUSH2 0x2F4 JUMP JUMPDEST CALLVALUE DUP1 ISZERO PUSH2 0x589 JUMPI PUSH0 DUP1 REVERT JUMPDEST POP PUSH1 0x40 DUP1 MLOAD DUP1 DUP3 ADD SWAP1 SWAP2 MSTORE PUSH1 0x1 DUP2 MSTORE PUSH1 0x31 PUSH1 0xF8 SHL PUSH1 0x20 DUP3 ADD MSTORE PUSH2 0x35B JUMP JUMPDEST CALLVALUE DUP1 ISZERO PUSH2 0x5B2 JUMPI PUSH0 DUP1 REVERT JUMPDEST POP PUSH2 0x31A PUSH2 0x5C1 CALLDATASIZE PUSH1 0x4 PUSH2 0x3582 JUMP JUMPDEST PUSH2 0xEB5 JUMP JUMPDEST CALLVALUE DUP1 ISZERO PUSH2 0x5D1 JUMPI PUSH0 DUP1 REVERT JUMPDEST POP PUSH2 0x31A PUSH2 0x5E0 CALLDATASIZE PUSH1 0x4 PUSH2 0x35F0 JUMP JUMPDEST PUSH2 0xEDC JUMP JUMPDEST CALLVALUE DUP1 ISZERO PUSH2 0x5F0 JUMPI PUSH0 DUP1 REVERT JUMPDEST POP PUSH2 0x31A PUSH2 0x5FF CALLDATASIZE PUSH1 0x4 PUSH2 0x36A2 JUMP JUMPDEST PUSH2 0x1038 JUMP JUMPDEST CALLVALUE DUP1 ISZERO PUSH2 0x60F JUMPI PUSH0 DUP1 REVERT JUMPDEST POP PUSH2 0x31A PUSH2 0x61E CALLDATASIZE PUSH1 0x4 PUSH2 0x315D JUMP JUMPDEST PUSH2 0x108B JUMP JUMPDEST CALLVALUE DUP1 ISZERO PUSH2 0x62E JUMPI PUSH0 DUP1 REVERT JUMPDEST POP PUSH2 0x2C3 PUSH2 0x63D CALLDATASIZE PUSH1 0x4 PUSH2 0x3732 JUMP JUMPDEST PUSH2 0x1117 JUMP JUMPDEST CALLVALUE DUP1 ISZERO PUSH2 0x64D JUMPI PUSH0 DUP1 REVERT JUMPDEST POP PUSH2 0x31A PUSH2 0x65C CALLDATASIZE PUSH1 0x4 PUSH2 0x374D JUMP JUMPDEST PUSH2 0x1128 JUMP JUMPDEST CALLVALUE DUP1 ISZERO PUSH2 0x66C JUMPI PUSH0 DUP1 REVERT JUMPDEST POP PUSH2 0x31A PUSH2 0x67B CALLDATASIZE PUSH1 0x4 PUSH2 0x37A2 JUMP JUMPDEST PUSH2 0x116E JUMP JUMPDEST CALLVALUE DUP1 ISZERO PUSH2 0x68B JUMPI PUSH0 DUP1 REVERT JUMPDEST POP PUSH2 0x31A PUSH2 0x69A CALLDATASIZE PUSH1 0x4 PUSH2 0x384E JUMP JUMPDEST PUSH1 0x1 PUSH1 0x1 PUSH1 0xA0 SHL SUB AND PUSH0 SWAP1 DUP2 MSTORE PUSH1 0x2 PUSH1 0x20 MSTORE PUSH1 0x40 SWAP1 KECCAK256 SLOAD SWAP1 JUMP JUMPDEST CALLVALUE DUP1 ISZERO PUSH2 0x6BF JUMPI PUSH0 DUP1 REVERT JUMPDEST POP PUSH2 0x6C8 PUSH2 0x1228 JUMP JUMPDEST PUSH1 0x40 MLOAD PUSH2 0x2F4 SWAP8 SWAP7 SWAP6 SWAP5 SWAP4 SWAP3 SWAP2 SWAP1 PUSH2 0x38A3 JUMP JUMPDEST CALLVALUE DUP1 ISZERO PUSH2 0x6E6 JUMPI PUSH0 DUP1 REVERT JUMPDEST POP PUSH2 0x31A PUSH2 0x6F5 CALLDATASIZE PUSH1 0x4 PUSH2 0x3912 JUMP JUMPDEST PUSH2 0x126A JUMP JUMPDEST CALLVALUE DUP1 ISZERO PUSH2 0x705 JUMPI PUSH0 DUP1 REVERT JUMPDEST POP PUSH2 0x70E PUSH2 0x1339 JUMP JUMPDEST PUSH1 0x40 MLOAD PUSH6 0xFFFFFFFFFFFF SWAP1 SWAP2 AND DUP2 MSTORE PUSH1 0x20 ADD PUSH2 0x2F4 JUMP JUMPDEST CALLVALUE DUP1 ISZERO PUSH2 0x730 JUMPI PUSH0 DUP1 REVERT JUMPDEST POP PUSH1 0x64 PUSH2 0x31A JUMP JUMPDEST CALLVALUE DUP1 ISZERO PUSH2 0x743 JUMPI PUSH0 DUP1 REVERT JUMPDEST POP PUSH2 0x31A PUSH2 0x752 CALLDATASIZE PUSH1 0x4 PUSH2 0x395F JUMP JUMPDEST PUSH2 0x13C0 JUMP JUMPDEST CALLVALUE DUP1 ISZERO PUSH2 0x762 JUMPI PUSH0 DUP1 REVERT JUMPDEST POP PUSH2 0x31A PUSH2 0x13CC JUMP JUMPDEST CALLVALUE DUP1 ISZERO PUSH2 0x776 JUMPI PUSH0 DUP1 REVERT JUMPDEST POP PUSH2 0x2C3 PUSH2 0x785 CALLDATASIZE PUSH1 0x4 PUSH2 0x384E JUMP JUMPDEST PUSH2 0x13E5 JUMP JUMPDEST CALLVALUE DUP1 ISZERO PUSH2 0x795 JUMPI PUSH0 DUP1 REVERT JUMPDEST POP PUSH2 0x2E8 PUSH2 0x7A4 CALLDATASIZE PUSH1 0x4 PUSH2 0x315D JUMP JUMPDEST PUSH2 0x13F6 JUMP JUMPDEST CALLVALUE DUP1 ISZERO PUSH2 0x7B4 JUMPI PUSH0 DUP1 REVERT JUMPDEST POP PUSH2 0x31A PUSH2 0x7C3 CALLDATASIZE PUSH1 0x4 PUSH2 0x315D JUMP JUMPDEST PUSH0 SWAP1 DUP2 MSTORE PUSH1 0x4 PUSH1 0x20 MSTORE PUSH1 0x40 SWAP1 KECCAK256 PUSH1 0x1 ADD SLOAD PUSH6 0xFFFFFFFFFFFF AND SWAP1 JUMP JUMPDEST CALLVALUE DUP1 ISZERO PUSH2 0x7EA JUMPI PUSH0 DUP1 REVERT JUMPDEST POP PUSH2 0x31A PUSH2 0x13FE JUMP JUMPDEST CALLVALUE DUP1 ISZERO PUSH2 0x7FE JUMPI PUSH0 DUP1 REVERT JUMPDEST POP PUSH2 0x3D3 PUSH2 0x80D CALLDATASIZE PUSH1 0x4 PUSH2 0x39B3 JUMP JUMPDEST PUSH2 0x1408 JUMP JUMPDEST CALLVALUE DUP1 ISZERO PUSH2 0x81D JUMPI PUSH0 DUP1 REVERT JUMPDEST POP PUSH2 0x31A PUSH2 0x82C CALLDATASIZE PUSH1 0x4 PUSH2 0x315D JUMP JUMPDEST PUSH2 0x144B JUMP JUMPDEST PUSH2 0x2C3 PUSH2 0x83F CALLDATASIZE PUSH1 0x4 PUSH2 0x3A3F JUMP JUMPDEST PUSH2 0x148D JUMP JUMPDEST CALLVALUE DUP1 ISZERO PUSH2 0x84F JUMPI PUSH0 DUP1 REVERT JUMPDEST POP PUSH2 0x31A PUSH2 0x85E CALLDATASIZE PUSH1 0x4 PUSH2 0x3479 JUMP JUMPDEST PUSH2 0x1509 JUMP JUMPDEST CALLVALUE DUP1 ISZERO PUSH2 0x86E JUMPI PUSH0 DUP1 REVERT JUMPDEST POP PUSH1 0xB SLOAD PUSH1 0x1 PUSH1 0x1 PUSH1 0xA0 SHL SUB AND PUSH2 0x39C JUMP JUMPDEST CALLVALUE DUP1 ISZERO PUSH2 0x88B JUMPI PUSH0 DUP1 REVERT JUMPDEST POP PUSH1 0x40 DUP1 MLOAD DUP1 DUP3 ADD SWAP1 SWAP2 MSTORE PUSH1 0x20 DUP1 DUP3 MSTORE PUSH32 0x737570706F72743D627261766F2671756F72756D3D666F722C6162737461696E SWAP1 DUP3 ADD MSTORE PUSH2 0x35B JUMP JUMPDEST CALLVALUE DUP1 ISZERO PUSH2 0x8D0 JUMPI PUSH0 DUP1 REVERT JUMPDEST POP PUSH2 0x31A PUSH32 0xF2AAD550CF55F045CB27E9C559F9889FDFB6E6CDAA032301D6EA397784AE51D7 DUP2 JUMP JUMPDEST CALLVALUE DUP1 ISZERO PUSH2 0x903 JUMPI PUSH0 DUP1 REVERT JUMPDEST POP PUSH2 0x2C3 PUSH2 0x912 CALLDATASIZE PUSH1 0x4 PUSH2 0x3A7E JUMP JUMPDEST PUSH2 0x1542 JUMP JUMPDEST CALLVALUE DUP1 ISZERO PUSH2 0x922 JUMPI PUSH0 DUP1 REVERT JUMPDEST POP PUSH2 0x31A PUSH2 0x931 CALLDATASIZE PUSH1 0x4 PUSH2 0x3AA1 JUMP JUMPDEST PUSH2 0x1553 JUMP JUMPDEST CALLVALUE DUP1 ISZERO PUSH2 0x941 JUMPI PUSH0 DUP1 REVERT JUMPDEST POP PUSH2 0x2C3 PUSH2 0x950 CALLDATASIZE PUSH1 0x4 PUSH2 0x315D JUMP JUMPDEST PUSH2 0x1579 JUMP JUMPDEST CALLVALUE DUP1 ISZERO PUSH2 0x960 JUMPI PUSH0 DUP1 REVERT JUMPDEST POP PUSH2 0x3D3 PUSH2 0x96F CALLDATASIZE PUSH1 0x4 PUSH2 0x3ACB JUMP JUMPDEST PUSH2 0x158A JUMP JUMPDEST CALLVALUE DUP1 ISZERO PUSH2 0x97F JUMPI PUSH0 DUP1 REVERT JUMPDEST POP PUSH2 0x31A PUSH2 0x98E CALLDATASIZE PUSH1 0x4 PUSH2 0x315D JUMP JUMPDEST PUSH2 0x15CD JUMP JUMPDEST CALLVALUE DUP1 ISZERO PUSH2 0x99E JUMPI PUSH0 DUP1 REVERT JUMPDEST POP PUSH32 0x0 PUSH2 0x39C JUMP JUMPDEST PUSH0 PUSH2 0x9D8 PUSH1 0xB SLOAD PUSH1 0x1 PUSH1 0x1 PUSH1 0xA0 SHL SUB AND SWAP1 JUMP JUMPDEST SWAP1 POP SWAP1 JUMP JUMPDEST PUSH0 PUSH1 0x1 PUSH1 0x1 PUSH1 0xE0 SHL SUB NOT DUP3 AND PUSH4 0x32A2AD43 PUSH1 0xE1 SHL EQ DUP1 PUSH2 0xA0D JUMPI POP PUSH1 0x1 PUSH1 0x1 PUSH1 0xE0 SHL SUB NOT DUP3 AND PUSH4 0x2711897 PUSH1 0xE5 SHL EQ JUMPDEST DUP1 PUSH2 0xA28 JUMPI POP PUSH4 0x1FFC9A7 PUSH1 0xE0 SHL PUSH1 0x1 PUSH1 0x1 PUSH1 0xE0 SHL SUB NOT DUP4 AND EQ JUMPDEST SWAP3 SWAP2 POP POP JUMP JUMPDEST PUSH2 0xA36 PUSH2 0x15D7 JUMP JUMPDEST PUSH2 0xA3F DUP2 PUSH2 0x1650 JUMP JUMPDEST POP JUMP JUMPDEST PUSH1 0x60 PUSH1 0x3 DUP1 SLOAD PUSH2 0xA51 SWAP1 PUSH2 0x3B2E JUMP JUMPDEST DUP1 PUSH1 0x1F ADD PUSH1 0x20 DUP1 SWAP2 DIV MUL PUSH1 0x20 ADD PUSH1 0x40 MLOAD SWAP1 DUP2 ADD PUSH1 0x40 MSTORE DUP1 SWAP3 SWAP2 SWAP1 DUP2 DUP2 MSTORE PUSH1 0x20 ADD DUP3 DUP1 SLOAD PUSH2 0xA7D SWAP1 PUSH2 0x3B2E JUMP JUMPDEST DUP1 ISZERO PUSH2 0xAC8 JUMPI DUP1 PUSH1 0x1F LT PUSH2 0xA9F JUMPI PUSH2 0x100 DUP1 DUP4 SLOAD DIV MUL DUP4 MSTORE SWAP2 PUSH1 0x20 ADD SWAP2 PUSH2 0xAC8 JUMP JUMPDEST DUP3 ADD SWAP2 SWAP1 PUSH0 MSTORE PUSH1 0x20 PUSH0 KECCAK256 SWAP1 JUMPDEST DUP2 SLOAD DUP2 MSTORE SWAP1 PUSH1 0x1 ADD SWAP1 PUSH1 0x20 ADD DUP1 DUP4 GT PUSH2 0xAAB JUMPI DUP3 SWAP1 SUB PUSH1 0x1F AND DUP3 ADD SWAP2 JUMPDEST POP POP POP POP POP SWAP1 POP SWAP1 JUMP JUMPDEST PUSH0 ADDRESS PUSH2 0xADC PUSH2 0x9C5 JUMP JUMPDEST PUSH1 0x1 PUSH1 0x1 PUSH1 0xA0 SHL SUB AND EQ PUSH2 0xB03 JUMPI PUSH1 0x40 MLOAD PUSH4 0x7485328F PUSH1 0xE1 SHL DUP2 MSTORE PUSH1 0x4 ADD PUSH1 0x40 MLOAD DUP1 SWAP2 SUB SWAP1 REVERT JUMPDEST POP PUSH4 0xA85BD01 PUSH1 0xE1 SHL SWAP5 SWAP4 POP POP POP POP JUMP JUMPDEST PUSH0 DUP1 PUSH2 0xB22 DUP7 DUP7 DUP7 DUP7 PUSH2 0x1509 JUMP JUMPDEST SWAP1 POP PUSH2 0xB37 DUP2 PUSH2 0xB32 PUSH1 0x4 PUSH2 0x16E5 JUMP JUMPDEST PUSH2 0x1707 JUMP JUMPDEST POP PUSH0 PUSH2 0xB46 DUP3 DUP9 DUP9 DUP9 DUP9 PUSH2 0x1744 JUMP JUMPDEST SWAP1 POP PUSH6 0xFFFFFFFFFFFF DUP2 AND ISZERO PUSH2 0xBBD JUMPI PUSH0 DUP3 DUP2 MSTORE PUSH1 0x4 PUSH1 0x20 SWAP1 DUP2 MSTORE PUSH1 0x40 SWAP2 DUP3 SWAP1 KECCAK256 PUSH1 0x1 ADD DUP1 SLOAD PUSH6 0xFFFFFFFFFFFF NOT AND PUSH6 0xFFFFFFFFFFFF DUP6 AND SWAP1 DUP2 OR SWAP1 SWAP2 SSTORE DUP3 MLOAD DUP6 DUP2 MSTORE SWAP2 DUP3 ADD MSTORE PUSH32 0x9A2E42FD6722813D69113E7D0079D3D940171428DF7373DF9C7F7617CFDA2892 SWAP2 ADD PUSH1 0x40 MLOAD DUP1 SWAP2 SUB SWAP1 LOG1 PUSH2 0xBD6 JUMP JUMPDEST PUSH1 0x40 MLOAD PUSH4 0x48442523 PUSH1 0xE1 SHL DUP2 MSTORE PUSH1 0x4 ADD PUSH1 0x40 MLOAD DUP1 SWAP2 SUB SWAP1 REVERT JUMPDEST POP SWAP6 SWAP5 POP POP POP POP POP JUMP JUMPDEST PUSH0 DUP1 PUSH2 0xBEE DUP7 DUP7 DUP7 DUP7 PUSH2 0x1509 JUMP JUMPDEST SWAP1 POP PUSH2 0xC0E DUP2 PUSH2 0xBFE PUSH1 0x5 PUSH2 0x16E5 JUMP JUMPDEST PUSH2 0xC08 PUSH1 0x4 PUSH2 0x16E5 JUMP JUMPDEST OR PUSH2 0x1707 JUMP JUMPDEST POP PUSH0 DUP2 DUP2 MSTORE PUSH1 0x4 PUSH1 0x20 MSTORE PUSH1 0x40 SWAP1 KECCAK256 DUP1 SLOAD PUSH1 0xFF PUSH1 0xF0 SHL NOT AND PUSH1 0x1 PUSH1 0xF0 SHL OR SWAP1 SSTORE ADDRESS PUSH2 0xC36 PUSH2 0x9C5 JUMP JUMPDEST PUSH1 0x1 PUSH1 0x1 PUSH1 0xA0 SHL SUB AND EQ PUSH2 0xCBF JUMPI PUSH0 JUMPDEST DUP7 MLOAD DUP2 LT ISZERO PUSH2 0xCBD JUMPI ADDRESS PUSH1 0x1 PUSH1 0x1 PUSH1 0xA0 SHL SUB AND DUP8 DUP3 DUP2 MLOAD DUP2 LT PUSH2 0xC6B JUMPI PUSH2 0xC6B PUSH2 0x3B66 JUMP JUMPDEST PUSH1 0x20 MUL PUSH1 0x20 ADD ADD MLOAD PUSH1 0x1 PUSH1 0x1 PUSH1 0xA0 SHL SUB AND SUB PUSH2 0xCB5 JUMPI PUSH2 0xCB5 DUP6 DUP3 DUP2 MLOAD DUP2 LT PUSH2 0xC96 JUMPI PUSH2 0xC96 PUSH2 0x3B66 JUMP JUMPDEST PUSH1 0x20 MUL PUSH1 0x20 ADD ADD MLOAD DUP1 MLOAD SWAP1 PUSH1 0x20 ADD KECCAK256 PUSH1 0x5 PUSH2 0x1752 SWAP1 SWAP2 SWAP1 PUSH4 0xFFFFFFFF AND JUMP JUMPDEST PUSH1 0x1 ADD PUSH2 0xC46 JUMP JUMPDEST POP JUMPDEST PUSH2 0xCCC DUP2 DUP8 DUP8 DUP8 DUP8 PUSH2 0x17C2 JUMP JUMPDEST ADDRESS PUSH2 0xCD5 PUSH2 0x9C5 JUMP JUMPDEST PUSH1 0x1 PUSH1 0x1 PUSH1 0xA0 SHL SUB AND EQ ISZERO DUP1 ISZERO PUSH2 0xD01 JUMPI POP PUSH1 0x5 SLOAD PUSH1 0x1 PUSH1 0x1 PUSH1 0x80 SHL SUB DUP1 DUP3 AND PUSH1 0x1 PUSH1 0x80 SHL SWAP1 SWAP3 DIV AND EQ ISZERO JUMPDEST ISZERO PUSH2 0xD0B JUMPI PUSH0 PUSH1 0x5 SSTORE JUMPDEST PUSH1 0x40 MLOAD DUP2 DUP2 MSTORE PUSH32 0x712AE1383F79AC853F8D882153778E0260EF8F03B504E2866E0593E04D2B291F SWAP1 PUSH1 0x20 ADD JUMPDEST PUSH1 0x40 MLOAD DUP1 SWAP2 SUB SWAP1 LOG1 SWAP6 SWAP5 POP POP POP POP POP JUMP JUMPDEST PUSH0 SWAP1 DUP2 MSTORE PUSH1 0x4 PUSH1 0x20 MSTORE PUSH1 0x40 SWAP1 KECCAK256 SLOAD PUSH1 0x1 PUSH1 0xA0 SHL SWAP1 DIV PUSH6 0xFFFFFFFFFFFF AND SWAP1 JUMP JUMPDEST PUSH0 PUSH2 0x9D8 PUSH1 0x8 SLOAD PUSH6 0xFFFFFFFFFFFF AND SWAP1 JUMP JUMPDEST PUSH0 PUSH2 0xA28 DUP3 PUSH2 0x17D6 JUMP JUMPDEST PUSH0 DUP1 PUSH2 0xD92 DUP7 DUP7 DUP7 DUP7 PUSH2 0x1509 JUMP JUMPDEST SWAP1 POP PUSH2 0xDA1 DUP2 PUSH2 0xB32 PUSH0 PUSH2 0x16E5 JUMP JUMPDEST POP PUSH0 DUP2 DUP2 MSTORE PUSH1 0x4 PUSH1 0x20 MSTORE PUSH1 0x40 SWAP1 KECCAK256 SLOAD PUSH1 0x1 PUSH1 0x1 PUSH1 0xA0 SHL SUB AND CALLER EQ PUSH2 0xDDF JUMPI PUSH1 0x40 MLOAD PUSH4 0x233D98E3 PUSH1 0xE0 SHL DUP2 MSTORE CALLER PUSH1 0x4 DUP3 ADD MSTORE PUSH1 0x24 ADD JUMPDEST PUSH1 0x40 MLOAD DUP1 SWAP2 SUB SWAP1 REVERT JUMPDEST PUSH2 0xDEB DUP7 DUP7 DUP7 DUP7 PUSH2 0x190F JUMP JUMPDEST SWAP7 SWAP6 POP POP POP POP POP POP JUMP JUMPDEST PUSH1 0x60 PUSH32 0x0 PUSH1 0x1 PUSH1 0x1 PUSH1 0xA0 SHL SUB AND PUSH4 0x4BF5D7E9 PUSH1 0x40 MLOAD DUP2 PUSH4 0xFFFFFFFF AND PUSH1 0xE0 SHL DUP2 MSTORE PUSH1 0x4 ADD PUSH0 PUSH1 0x40 MLOAD DUP1 DUP4 SUB DUP2 DUP7 GAS STATICCALL SWAP3 POP POP POP DUP1 ISZERO PUSH2 0xE74 JUMPI POP PUSH1 0x40 MLOAD RETURNDATASIZE PUSH0 DUP3 RETURNDATACOPY PUSH1 0x1F RETURNDATASIZE SWAP1 DUP2 ADD PUSH1 0x1F NOT AND DUP3 ADD PUSH1 0x40 MSTORE PUSH2 0xE71 SWAP2 SWAP1 DUP2 ADD SWAP1 PUSH2 0x3B7A JUMP JUMPDEST PUSH1 0x1 JUMPDEST PUSH2 0xEB0 JUMPI POP PUSH1 0x40 DUP1 MLOAD DUP1 DUP3 ADD SWAP1 SWAP2 MSTORE PUSH1 0x1D DUP2 MSTORE PUSH32 0x6D6F64653D626C6F636B6E756D6265722666726F6D3D64656661756C74000000 PUSH1 0x20 DUP3 ADD MSTORE SWAP1 JUMP JUMPDEST SWAP2 SWAP1 POP JUMP JUMPDEST PUSH0 DUP1 CALLER SWAP1 POP PUSH2 0xED4 DUP5 DUP3 DUP6 PUSH1 0x40 MLOAD DUP1 PUSH1 0x20 ADD PUSH1 0x40 MSTORE DUP1 PUSH0 DUP2 MSTORE POP PUSH2 0x1925 JUMP JUMPDEST SWAP5 SWAP4 POP POP POP POP JUMP JUMPDEST PUSH0 DUP1 PUSH2 0xFBD DUP8 PUSH2 0xFB7 PUSH32 0x3E83946653575F9A39005E1545185629E92736B7528AB20CA3816F315424A811 DUP13 DUP13 DUP13 PUSH2 0xF2F DUP15 PUSH1 0x1 PUSH1 0x1 PUSH1 0xA0 SHL SUB AND PUSH0 SWAP1 DUP2 MSTORE PUSH1 0x2 PUSH1 0x20 MSTORE PUSH1 0x40 SWAP1 KECCAK256 DUP1 SLOAD PUSH1 0x1 DUP2 ADD SWAP1 SWAP2 SSTORE SWAP1 JUMP JUMPDEST DUP14 DUP14 PUSH1 0x40 MLOAD PUSH2 0xF3F SWAP3 SWAP2 SWAP1 PUSH2 0x3BE2 JUMP JUMPDEST PUSH1 0x40 MLOAD DUP1 SWAP2 SUB SWAP1 KECCAK256 DUP13 DUP1 MLOAD SWAP1 PUSH1 0x20 ADD KECCAK256 PUSH1 0x40 MLOAD PUSH1 0x20 ADD PUSH2 0xF9C SWAP8 SWAP7 SWAP6 SWAP5 SWAP4 SWAP3 SWAP2 SWAP1 SWAP7 DUP8 MSTORE PUSH1 0x20 DUP8 ADD SWAP6 SWAP1 SWAP6 MSTORE PUSH1 0xFF SWAP4 SWAP1 SWAP4 AND PUSH1 0x40 DUP7 ADD MSTORE PUSH1 0x1 PUSH1 0x1 PUSH1 0xA0 SHL SUB SWAP2 SWAP1 SWAP2 AND PUSH1 0x60 DUP6 ADD MSTORE PUSH1 0x80 DUP5 ADD MSTORE PUSH1 0xA0 DUP4 ADD MSTORE PUSH1 0xC0 DUP3 ADD MSTORE PUSH1 0xE0 ADD SWAP1 JUMP JUMPDEST PUSH1 0x40 MLOAD PUSH1 0x20 DUP2 DUP4 SUB SUB DUP2 MSTORE SWAP1 PUSH1 0x40 MSTORE DUP1 MLOAD SWAP1 PUSH1 0x20 ADD KECCAK256 PUSH2 0x1946 JUMP JUMPDEST DUP6 PUSH2 0x1972 JUMP JUMPDEST SWAP1 POP DUP1 PUSH2 0xFE8 JUMPI PUSH1 0x40 MLOAD PUSH4 0x94AB6C07 PUSH1 0xE0 SHL DUP2 MSTORE PUSH1 0x1 PUSH1 0x1 PUSH1 0xA0 SHL SUB DUP9 AND PUSH1 0x4 DUP3 ADD MSTORE PUSH1 0x24 ADD PUSH2 0xDD6 JUMP JUMPDEST PUSH2 0x102B DUP10 DUP9 DUP11 DUP10 DUP10 DUP1 DUP1 PUSH1 0x1F ADD PUSH1 0x20 DUP1 SWAP2 DIV MUL PUSH1 0x20 ADD PUSH1 0x40 MLOAD SWAP1 DUP2 ADD PUSH1 0x40 MSTORE DUP1 SWAP4 SWAP3 SWAP2 SWAP1 DUP2 DUP2 MSTORE PUSH1 0x20 ADD DUP4 DUP4 DUP1 DUP3 DUP5 CALLDATACOPY PUSH0 SWAP3 ADD SWAP2 SWAP1 SWAP2 MSTORE POP DUP12 SWAP3 POP PUSH2 0x19C7 SWAP2 POP POP JUMP JUMPDEST SWAP10 SWAP9 POP POP POP POP POP POP POP POP POP JUMP JUMPDEST PUSH0 DUP1 CALLER SWAP1 POP PUSH2 0x1080 DUP8 DUP3 DUP9 DUP9 DUP9 DUP1 DUP1 PUSH1 0x1F ADD PUSH1 0x20 DUP1 SWAP2 DIV MUL PUSH1 0x20 ADD PUSH1 0x40 MLOAD SWAP1 DUP2 ADD PUSH1 0x40 MSTORE DUP1 SWAP4 SWAP3 SWAP2 SWAP1 DUP2 DUP2 MSTORE PUSH1 0x20 ADD DUP4 DUP4 DUP1 DUP3 DUP5 CALLDATACOPY PUSH0 SWAP3 ADD SWAP2 SWAP1 SWAP2 MSTORE POP DUP11 SWAP3 POP PUSH2 0x19C7 SWAP2 POP POP JUMP JUMPDEST SWAP8 SWAP7 POP POP POP POP POP POP POP JUMP JUMPDEST PUSH1 0xA DUP1 SLOAD PUSH0 SWAP2 DUP3 SWAP1 PUSH2 0x109E PUSH1 0x1 DUP5 PUSH2 0x3C05 JUMP JUMPDEST DUP2 SLOAD DUP2 LT PUSH2 0x10AE JUMPI PUSH2 0x10AE PUSH2 0x3B66 JUMP JUMPDEST PUSH0 SWAP2 DUP3 MSTORE PUSH1 0x20 SWAP1 SWAP2 KECCAK256 ADD DUP1 SLOAD SWAP1 SWAP2 POP PUSH6 0xFFFFFFFFFFFF DUP2 AND SWAP1 PUSH1 0x1 PUSH1 0x30 SHL SWAP1 DIV PUSH1 0x1 PUSH1 0x1 PUSH1 0xD0 SHL SUB AND DUP6 DUP3 GT PUSH2 0x10F0 JUMPI PUSH1 0x1 PUSH1 0x1 PUSH1 0xD0 SHL SUB AND SWAP6 SWAP5 POP POP POP POP POP JUMP JUMPDEST PUSH2 0x1104 PUSH2 0x10FC DUP8 PUSH2 0x1AA1 JUMP JUMPDEST PUSH1 0xA SWAP1 PUSH2 0x1AD7 JUMP JUMPDEST PUSH1 0x1 PUSH1 0x1 PUSH1 0xD0 SHL SUB AND SWAP7 SWAP6 POP POP POP POP POP POP JUMP JUMPDEST PUSH2 0x111F PUSH2 0x15D7 JUMP JUMPDEST PUSH2 0xA3F DUP2 PUSH2 0x1B86 JUMP JUMPDEST PUSH0 DUP1 CALLER SWAP1 POP PUSH2 0xDEB DUP7 DUP3 DUP8 DUP8 DUP8 DUP1 DUP1 PUSH1 0x1F ADD PUSH1 0x20 DUP1 SWAP2 DIV MUL PUSH1 0x20 ADD PUSH1 0x40 MLOAD SWAP1 DUP2 ADD PUSH1 0x40 MSTORE DUP1 SWAP4 SWAP3 SWAP2 SWAP1 DUP2 DUP2 MSTORE PUSH1 0x20 ADD DUP4 DUP4 DUP1 DUP3 DUP5 CALLDATACOPY PUSH0 SWAP3 ADD SWAP2 SWAP1 SWAP2 MSTORE POP PUSH2 0x1925 SWAP3 POP POP POP JUMP JUMPDEST PUSH0 CALLER PUSH2 0x117A DUP2 DUP5 PUSH2 0x1BEC JUMP JUMPDEST PUSH2 0x11A2 JUMPI PUSH1 0x40 MLOAD PUSH4 0xD9B39557 PUSH1 0xE0 SHL DUP2 MSTORE PUSH1 0x1 PUSH1 0x1 PUSH1 0xA0 SHL SUB DUP3 AND PUSH1 0x4 DUP3 ADD MSTORE PUSH1 0x24 ADD PUSH2 0xDD6 JUMP JUMPDEST PUSH0 PUSH2 0x11C8 DUP3 PUSH1 0x1 PUSH2 0x11B1 PUSH2 0x1339 JUMP JUMPDEST PUSH2 0x11BB SWAP2 SWAP1 PUSH2 0x3C18 JUMP JUMPDEST PUSH6 0xFFFFFFFFFFFF AND PUSH2 0x1553 JUMP JUMPDEST SWAP1 POP PUSH0 PUSH2 0x11D3 PUSH2 0x13FE JUMP JUMPDEST SWAP1 POP DUP1 DUP3 LT ISZERO PUSH2 0x120F JUMPI PUSH1 0x40 MLOAD PUSH4 0x6121770B PUSH1 0xE1 SHL DUP2 MSTORE PUSH1 0x1 PUSH1 0x1 PUSH1 0xA0 SHL SUB DUP5 AND PUSH1 0x4 DUP3 ADD MSTORE PUSH1 0x24 DUP2 ADD DUP4 SWAP1 MSTORE PUSH1 0x44 DUP2 ADD DUP3 SWAP1 MSTORE PUSH1 0x64 ADD PUSH2 0xDD6 JUMP JUMPDEST PUSH2 0x121C DUP9 DUP9 DUP9 DUP9 DUP8 PUSH2 0x1CD4 JUMP JUMPDEST SWAP9 SWAP8 POP POP POP POP POP POP POP POP JUMP JUMPDEST PUSH0 PUSH1 0x60 DUP1 PUSH0 DUP1 PUSH0 PUSH1 0x60 PUSH2 0x1239 PUSH2 0x1EEE JUMP JUMPDEST PUSH2 0x1241 PUSH2 0x1F1A JUMP JUMPDEST PUSH1 0x40 DUP1 MLOAD PUSH0 DUP1 DUP3 MSTORE PUSH1 0x20 DUP3 ADD SWAP1 SWAP3 MSTORE PUSH1 0xF PUSH1 0xF8 SHL SWAP12 SWAP4 SWAP11 POP SWAP2 SWAP9 POP CHAINID SWAP8 POP ADDRESS SWAP7 POP SWAP5 POP SWAP3 POP SWAP1 POP JUMP JUMPDEST PUSH0 DUP1 PUSH2 0x12F4 DUP5 PUSH2 0xFB7 PUSH32 0xF2AAD550CF55F045CB27E9C559F9889FDFB6E6CDAA032301D6EA397784AE51D7 DUP10 DUP10 DUP10 PUSH2 0x12BD DUP12 PUSH1 0x1 PUSH1 0x1 PUSH1 0xA0 SHL SUB AND PUSH0 SWAP1 DUP2 MSTORE PUSH1 0x2 PUSH1 0x20 MSTORE PUSH1 0x40 SWAP1 KECCAK256 DUP1 SLOAD PUSH1 0x1 DUP2 ADD SWAP1 SWAP2 SSTORE SWAP1 JUMP JUMPDEST PUSH1 0x40 DUP1 MLOAD PUSH1 0x20 DUP2 ADD SWAP7 SWAP1 SWAP7 MSTORE DUP6 ADD SWAP4 SWAP1 SWAP4 MSTORE PUSH1 0xFF SWAP1 SWAP2 AND PUSH1 0x60 DUP5 ADD MSTORE PUSH1 0x1 PUSH1 0x1 PUSH1 0xA0 SHL SUB AND PUSH1 0x80 DUP4 ADD MSTORE PUSH1 0xA0 DUP3 ADD MSTORE PUSH1 0xC0 ADD PUSH2 0xF9C JUMP JUMPDEST SWAP1 POP DUP1 PUSH2 0x131F JUMPI PUSH1 0x40 MLOAD PUSH4 0x94AB6C07 PUSH1 0xE0 SHL DUP2 MSTORE PUSH1 0x1 PUSH1 0x1 PUSH1 0xA0 SHL SUB DUP6 AND PUSH1 0x4 DUP3 ADD MSTORE PUSH1 0x24 ADD PUSH2 0xDD6 JUMP JUMPDEST PUSH2 0xDEB DUP7 DUP6 DUP8 PUSH1 0x40 MLOAD DUP1 PUSH1 0x20 ADD PUSH1 0x40 MSTORE DUP1 PUSH0 DUP2 MSTORE POP PUSH2 0x1925 JUMP JUMPDEST PUSH0 PUSH32 0x0 PUSH1 0x1 PUSH1 0x1 PUSH1 0xA0 SHL SUB AND PUSH4 0x91DDADF4 PUSH1 0x40 MLOAD DUP2 PUSH4 0xFFFFFFFF AND PUSH1 0xE0 SHL DUP2 MSTORE PUSH1 0x4 ADD PUSH1 0x20 PUSH1 0x40 MLOAD DUP1 DUP4 SUB DUP2 DUP7 GAS STATICCALL SWAP3 POP POP POP DUP1 ISZERO PUSH2 0x13B4 JUMPI POP PUSH1 0x40 DUP1 MLOAD PUSH1 0x1F RETURNDATASIZE SWAP1 DUP2 ADD PUSH1 0x1F NOT AND DUP3 ADD SWAP1 SWAP3 MSTORE PUSH2 0x13B1 SWAP2 DUP2 ADD SWAP1 PUSH2 0x3C3E JUMP JUMPDEST PUSH1 0x1 JUMPDEST PUSH2 0xEB0 JUMPI PUSH2 0x9D8 PUSH2 0x1F47 JUMP JUMPDEST PUSH0 PUSH2 0xED4 DUP5 DUP5 DUP5 PUSH2 0x1F51 JUMP JUMPDEST PUSH0 PUSH2 0x13D7 PUSH1 0xA PUSH2 0x1FE4 JUMP JUMPDEST PUSH1 0x1 PUSH1 0x1 PUSH1 0xD0 SHL SUB AND SWAP1 POP SWAP1 JUMP JUMPDEST PUSH2 0x13ED PUSH2 0x15D7 JUMP JUMPDEST PUSH2 0xA3F DUP2 PUSH2 0x201B JUMP JUMPDEST PUSH0 PUSH1 0x1 PUSH2 0xA28 JUMP JUMPDEST PUSH0 PUSH2 0x9D8 PUSH1 0x7 SLOAD SWAP1 JUMP JUMPDEST PUSH0 ADDRESS PUSH2 0x1412 PUSH2 0x9C5 JUMP JUMPDEST PUSH1 0x1 PUSH1 0x1 PUSH1 0xA0 SHL SUB AND EQ PUSH2 0x1439 JUMPI PUSH1 0x40 MLOAD PUSH4 0x7485328F PUSH1 0xE1 SHL DUP2 MSTORE PUSH1 0x4 ADD PUSH1 0x40 MLOAD DUP1 SWAP2 SUB SWAP1 REVERT JUMPDEST POP PUSH4 0xBC197C81 PUSH1 0xE0 SHL SWAP6 SWAP5 POP POP POP POP POP JUMP JUMPDEST PUSH0 DUP2 DUP2 MSTORE PUSH1 0x4 PUSH1 0x20 MSTORE PUSH1 0x40 DUP2 KECCAK256 SLOAD PUSH2 0x147F SWAP1 PUSH1 0x1 PUSH1 0xD0 SHL DUP2 DIV PUSH4 0xFFFFFFFF AND SWAP1 PUSH1 0x1 PUSH1 0xA0 SHL SWAP1 DIV PUSH6 0xFFFFFFFFFFFF AND PUSH2 0x3C59 JUMP JUMPDEST PUSH6 0xFFFFFFFFFFFF AND SWAP3 SWAP2 POP POP JUMP JUMPDEST PUSH2 0x1495 PUSH2 0x15D7 JUMP JUMPDEST PUSH0 DUP1 DUP6 PUSH1 0x1 PUSH1 0x1 PUSH1 0xA0 SHL SUB AND DUP6 DUP6 DUP6 PUSH1 0x40 MLOAD PUSH2 0x14B2 SWAP3 SWAP2 SWAP1 PUSH2 0x3BE2 JUMP JUMPDEST PUSH0 PUSH1 0x40 MLOAD DUP1 DUP4 SUB DUP2 DUP6 DUP8 GAS CALL SWAP3 POP POP POP RETURNDATASIZE DUP1 PUSH0 DUP2 EQ PUSH2 0x14EC JUMPI PUSH1 0x40 MLOAD SWAP2 POP PUSH1 0x1F NOT PUSH1 0x3F RETURNDATASIZE ADD AND DUP3 ADD PUSH1 0x40 MSTORE RETURNDATASIZE DUP3 MSTORE RETURNDATASIZE PUSH0 PUSH1 0x20 DUP5 ADD RETURNDATACOPY PUSH2 0x14F1 JUMP JUMPDEST PUSH1 0x60 SWAP2 POP JUMPDEST POP SWAP2 POP SWAP2 POP PUSH2 0x1500 DUP3 DUP3 PUSH2 0x2084 JUMP JUMPDEST POP POP POP POP POP POP POP JUMP JUMPDEST PUSH0 DUP5 DUP5 DUP5 DUP5 PUSH1 0x40 MLOAD PUSH1 0x20 ADD PUSH2 0x1521 SWAP5 SWAP4 SWAP3 SWAP2 SWAP1 PUSH2 0x3D08 JUMP JUMPDEST PUSH1 0x40 DUP1 MLOAD PUSH1 0x1F NOT DUP2 DUP5 SUB ADD DUP2 MSTORE SWAP2 SWAP1 MSTORE DUP1 MLOAD PUSH1 0x20 SWAP1 SWAP2 ADD KECCAK256 SWAP6 SWAP5 POP POP POP POP POP JUMP JUMPDEST PUSH2 0x154A PUSH2 0x15D7 JUMP JUMPDEST PUSH2 0xA3F DUP2 PUSH2 0x20A0 JUMP JUMPDEST PUSH0 PUSH2 0x1572 DUP4 DUP4 PUSH2 0x156D PUSH1 0x40 DUP1 MLOAD PUSH1 0x20 DUP2 ADD SWAP1 SWAP2 MSTORE PUSH0 DUP2 MSTORE SWAP1 JUMP JUMPDEST PUSH2 0x1F51 JUMP JUMPDEST SWAP4 SWAP3 POP POP POP JUMP JUMPDEST PUSH2 0x1581 PUSH2 0x15D7 JUMP JUMPDEST PUSH2 0xA3F DUP2 PUSH2 0x213C JUMP JUMPDEST PUSH0 ADDRESS PUSH2 0x1594 PUSH2 0x9C5 JUMP JUMPDEST PUSH1 0x1 PUSH1 0x1 PUSH1 0xA0 SHL SUB AND EQ PUSH2 0x15BB JUMPI PUSH1 0x40 MLOAD PUSH4 0x7485328F PUSH1 0xE1 SHL DUP2 MSTORE PUSH1 0x4 ADD PUSH1 0x40 MLOAD DUP1 SWAP2 SUB SWAP1 REVERT JUMPDEST POP PUSH4 0xF23A6E61 PUSH1 0xE0 SHL SWAP6 SWAP5 POP POP POP POP POP JUMP JUMPDEST PUSH0 PUSH2 0xA28 DUP3 PUSH2 0x217D JUMP JUMPDEST CALLER PUSH2 0x15E0 PUSH2 0x9C5 JUMP JUMPDEST PUSH1 0x1 PUSH1 0x1 PUSH1 0xA0 SHL SUB AND EQ PUSH2 0x1609 JUMPI PUSH1 0x40 MLOAD PUSH4 0x47096E47 PUSH1 0xE0 SHL DUP2 MSTORE CALLER PUSH1 0x4 DUP3 ADD MSTORE PUSH1 0x24 ADD PUSH2 0xDD6 JUMP JUMPDEST ADDRESS PUSH2 0x1612 PUSH2 0x9C5 JUMP JUMPDEST PUSH1 0x1 PUSH1 0x1 PUSH1 0xA0 SHL SUB AND EQ PUSH2 0x164E JUMPI PUSH0 DUP1 CALLDATASIZE PUSH1 0x40 MLOAD PUSH2 0x1631 SWAP3 SWAP2 SWAP1 PUSH2 0x3BE2 JUMP JUMPDEST PUSH1 0x40 MLOAD DUP1 SWAP2 SUB SWAP1 KECCAK256 SWAP1 POP JUMPDEST DUP1 PUSH2 0x1647 PUSH1 0x5 PUSH2 0x2224 JUMP JUMPDEST SUB PUSH2 0x163C JUMPI POP JUMPDEST JUMP JUMPDEST PUSH1 0x64 DUP1 DUP3 GT ISZERO PUSH2 0x167D JUMPI PUSH1 0x40 MLOAD PUSH4 0x243E5445 PUSH1 0xE0 SHL DUP2 MSTORE PUSH1 0x4 DUP2 ADD DUP4 SWAP1 MSTORE PUSH1 0x24 DUP2 ADD DUP3 SWAP1 MSTORE PUSH1 0x44 ADD PUSH2 0xDD6 JUMP JUMPDEST PUSH0 PUSH2 0x1686 PUSH2 0x13CC JUMP JUMPDEST SWAP1 POP PUSH2 0x16A5 PUSH2 0x1693 PUSH2 0x1339 JUMP JUMPDEST PUSH2 0x169C DUP6 PUSH2 0x22A0 JUMP JUMPDEST PUSH1 0xA SWAP2 SWAP1 PUSH2 0x22D3 JUMP JUMPDEST POP POP PUSH1 0x40 DUP1 MLOAD DUP3 DUP2 MSTORE PUSH1 0x20 DUP2 ADD DUP6 SWAP1 MSTORE PUSH32 0x553476BF02EF2726E8CE5CED78D63E26E602E4A2257B1F559418E24B4633997 SWAP2 ADD PUSH1 0x40 MLOAD DUP1 SWAP2 SUB SWAP1 LOG1 POP POP POP JUMP JUMPDEST PUSH0 DUP2 PUSH1 0x7 DUP2 GT ISZERO PUSH2 0x16F8 JUMPI PUSH2 0x16F8 PUSH2 0x3502 JUMP JUMPDEST PUSH1 0x1 PUSH1 0xFF SWAP2 SWAP1 SWAP2 AND SHL SWAP3 SWAP2 POP POP JUMP JUMPDEST PUSH0 DUP1 PUSH2 0x1712 DUP5 PUSH2 0xD7A JUMP JUMPDEST SWAP1 POP PUSH0 DUP4 PUSH2 0x171F DUP4 PUSH2 0x16E5 JUMP JUMPDEST AND SUB PUSH2 0x1572 JUMPI DUP4 DUP2 DUP5 PUSH1 0x40 MLOAD PUSH4 0x31B75E4D PUSH1 0xE0 SHL DUP2 MSTORE PUSH1 0x4 ADD PUSH2 0xDD6 SWAP4 SWAP3 SWAP2 SWAP1 PUSH2 0x3D52 JUMP JUMPDEST PUSH0 PUSH2 0xDEB DUP7 DUP7 DUP7 DUP7 DUP7 PUSH2 0x22ED JUMP JUMPDEST DUP2 SLOAD PUSH1 0x1 PUSH1 0x1 PUSH1 0x80 SHL SUB PUSH1 0x1 PUSH1 0x80 SHL DUP3 DIV DUP2 AND SWAP2 DUP2 AND PUSH1 0x1 DUP4 ADD SWAP1 SWAP2 AND SUB PUSH2 0x178D JUMPI PUSH1 0x40 MLOAD PUSH4 0x8ACB5F27 PUSH1 0xE0 SHL DUP2 MSTORE PUSH1 0x4 ADD PUSH1 0x40 MLOAD DUP1 SWAP2 SUB SWAP1 REVERT JUMPDEST PUSH1 0x1 PUSH1 0x1 PUSH1 0x80 SHL SUB DUP1 DUP3 AND PUSH0 SWAP1 DUP2 MSTORE PUSH1 0x1 DUP1 DUP7 ADD PUSH1 0x20 MSTORE PUSH1 0x40 SWAP1 SWAP2 KECCAK256 SWAP4 SWAP1 SWAP4 SSTORE DUP4 SLOAD SWAP2 SWAP1 SWAP3 ADD DUP3 AND PUSH1 0x1 PUSH1 0x80 SHL MUL SWAP2 AND OR SWAP1 SSTORE JUMP JUMPDEST PUSH2 0x17CF DUP6 DUP6 DUP6 DUP6 DUP6 PUSH2 0x247E JUMP JUMPDEST POP POP POP POP POP JUMP JUMPDEST PUSH0 DUP1 PUSH2 0x17E1 DUP4 PUSH2 0x250E JUMP JUMPDEST SWAP1 POP PUSH1 0x5 DUP2 PUSH1 0x7 DUP2 GT ISZERO PUSH2 0x17F7 JUMPI PUSH2 0x17F7 PUSH2 0x3502 JUMP JUMPDEST EQ PUSH2 0x1802 JUMPI SWAP3 SWAP2 POP POP JUMP JUMPDEST PUSH0 DUP4 DUP2 MSTORE PUSH1 0xC PUSH1 0x20 MSTORE PUSH1 0x40 SWAP1 DUP2 SWAP1 KECCAK256 SLOAD PUSH1 0xB SLOAD SWAP2 MLOAD PUSH4 0x2C258A9F PUSH1 0xE1 SHL DUP2 MSTORE PUSH1 0x4 DUP2 ADD DUP3 SWAP1 MSTORE SWAP1 SWAP2 PUSH1 0x1 PUSH1 0x1 PUSH1 0xA0 SHL SUB AND SWAP1 PUSH4 0x584B153E SWAP1 PUSH1 0x24 ADD PUSH1 0x20 PUSH1 0x40 MLOAD DUP1 DUP4 SUB DUP2 DUP7 GAS STATICCALL ISZERO DUP1 ISZERO PUSH2 0x1858 JUMPI RETURNDATASIZE PUSH0 DUP1 RETURNDATACOPY RETURNDATASIZE PUSH0 REVERT JUMPDEST POP POP POP POP PUSH1 0x40 MLOAD RETURNDATASIZE PUSH1 0x1F NOT PUSH1 0x1F DUP3 ADD AND DUP3 ADD DUP1 PUSH1 0x40 MSTORE POP DUP2 ADD SWAP1 PUSH2 0x187C SWAP2 SWAP1 PUSH2 0x3D74 JUMP JUMPDEST ISZERO PUSH2 0x188B JUMPI POP PUSH1 0x5 SWAP4 SWAP3 POP POP POP JUMP JUMPDEST PUSH1 0xB SLOAD PUSH1 0x40 MLOAD PUSH4 0x2AB0F529 PUSH1 0xE0 SHL DUP2 MSTORE PUSH1 0x4 DUP2 ADD DUP4 SWAP1 MSTORE PUSH1 0x1 PUSH1 0x1 PUSH1 0xA0 SHL SUB SWAP1 SWAP2 AND SWAP1 PUSH4 0x2AB0F529 SWAP1 PUSH1 0x24 ADD PUSH1 0x20 PUSH1 0x40 MLOAD DUP1 DUP4 SUB DUP2 DUP7 GAS STATICCALL ISZERO DUP1 ISZERO PUSH2 0x18D2 JUMPI RETURNDATASIZE PUSH0 DUP1 RETURNDATACOPY RETURNDATASIZE PUSH0 REVERT JUMPDEST POP POP POP POP PUSH1 0x40 MLOAD RETURNDATASIZE PUSH1 0x1F NOT PUSH1 0x1F DUP3 ADD AND DUP3 ADD DUP1 PUSH1 0x40 MSTORE POP DUP2 ADD SWAP1 PUSH2 0x18F6 SWAP2 SWAP1 PUSH2 0x3D74 JUMP JUMPDEST ISZERO PUSH2 0x1905 JUMPI POP PUSH1 0x7 SWAP4 SWAP3 POP POP POP JUMP JUMPDEST POP PUSH1 0x2 SWAP4 SWAP3 POP POP POP JUMP JUMPDEST PUSH0 PUSH2 0x191C DUP6 DUP6 DUP6 DUP6 PUSH2 0x263F JUMP JUMPDEST SWAP6 SWAP5 POP POP POP POP POP JUMP JUMPDEST PUSH0 PUSH2 0x191C DUP6 DUP6 DUP6 DUP6 PUSH2 0x1941 PUSH1 0x40 DUP1 MLOAD PUSH1 0x20 DUP2 ADD SWAP1 SWAP2 MSTORE PUSH0 DUP2 MSTORE SWAP1 JUMP JUMPDEST PUSH2 0x19C7 JUMP JUMPDEST PUSH0 PUSH2 0xA28 PUSH2 0x1952 PUSH2 0x26D6 JUMP JUMPDEST DUP4 PUSH1 0x40 MLOAD PUSH2 0x1901 PUSH1 0xF0 SHL DUP2 MSTORE PUSH1 0x2 DUP2 ADD SWAP3 SWAP1 SWAP3 MSTORE PUSH1 0x22 DUP3 ADD MSTORE PUSH1 0x42 SWAP1 KECCAK256 SWAP1 JUMP JUMPDEST PUSH0 DUP1 PUSH0 PUSH2 0x197F DUP6 DUP6 PUSH2 0x27FF JUMP JUMPDEST POP SWAP1 SWAP3 POP SWAP1 POP PUSH0 DUP2 PUSH1 0x3 DUP2 GT ISZERO PUSH2 0x1998 JUMPI PUSH2 0x1998 PUSH2 0x3502 JUMP JUMPDEST EQ DUP1 ISZERO PUSH2 0x19B6 JUMPI POP DUP6 PUSH1 0x1 PUSH1 0x1 PUSH1 0xA0 SHL SUB AND DUP3 PUSH1 0x1 PUSH1 0x1 PUSH1 0xA0 SHL SUB AND EQ JUMPDEST DUP1 PUSH2 0xDEB JUMPI POP PUSH2 0xDEB DUP7 DUP7 DUP7 PUSH2 0x2848 JUMP JUMPDEST PUSH0 PUSH2 0x19D6 DUP7 PUSH2 0xB32 PUSH1 0x1 PUSH2 0x16E5 JUMP JUMPDEST POP PUSH0 PUSH2 0x19EB DUP7 PUSH2 0x19E5 DUP10 PUSH2 0xD48 JUMP JUMPDEST DUP6 PUSH2 0x1F51 JUMP JUMPDEST SWAP1 POP PUSH2 0x19FA DUP8 DUP8 DUP8 DUP5 DUP8 PUSH2 0x291E JUMP JUMPDEST DUP3 MLOAD PUSH0 SUB PUSH2 0x1A4E JUMPI DUP6 PUSH1 0x1 PUSH1 0x1 PUSH1 0xA0 SHL SUB AND PUSH32 0xB8E138887D0AA13BAB447E82DE9D5C1777041ECD21CA36BA824FF1E6C07DDDA4 DUP9 DUP8 DUP5 DUP9 PUSH1 0x40 MLOAD PUSH2 0x1A41 SWAP5 SWAP4 SWAP3 SWAP2 SWAP1 PUSH2 0x3D93 JUMP JUMPDEST PUSH1 0x40 MLOAD DUP1 SWAP2 SUB SWAP1 LOG2 PUSH2 0xDEB JUMP JUMPDEST DUP6 PUSH1 0x1 PUSH1 0x1 PUSH1 0xA0 SHL SUB AND PUSH32 0xE2BABFBAC5889A709B63BB7F598B324E08BC5A4FB9EC647FB3CBC9EC07EB8712 DUP9 DUP8 DUP5 DUP9 DUP9 PUSH1 0x40 MLOAD PUSH2 0x1A8F SWAP6 SWAP5 SWAP4 SWAP3 SWAP2 SWAP1 PUSH2 0x3DBA JUMP JUMPDEST PUSH1 0x40 MLOAD DUP1 SWAP2 SUB SWAP1 LOG2 SWAP7 SWAP6 POP POP POP POP POP POP JUMP JUMPDEST PUSH0 PUSH6 0xFFFFFFFFFFFF DUP3 GT ISZERO PUSH2 0x1AD3 JUMPI PUSH1 0x40 MLOAD PUSH4 0x6DFCC65 PUSH1 0xE4 SHL DUP2 MSTORE PUSH1 0x30 PUSH1 0x4 DUP3 ADD MSTORE PUSH1 0x24 DUP2 ADD DUP4 SWAP1 MSTORE PUSH1 0x44 ADD PUSH2 0xDD6 JUMP JUMPDEST POP SWAP1 JUMP JUMPDEST DUP2 SLOAD PUSH0 SWAP1 DUP2 DUP2 PUSH1 0x5 DUP2 GT ISZERO PUSH2 0x1B33 JUMPI PUSH0 PUSH2 0x1AF0 DUP5 PUSH2 0x2A18 JUMP JUMPDEST PUSH2 0x1AFA SWAP1 DUP6 PUSH2 0x3C05 JUMP JUMPDEST PUSH0 DUP9 DUP2 MSTORE PUSH1 0x20 SWAP1 KECCAK256 SWAP1 SWAP2 POP DUP2 ADD SLOAD PUSH6 0xFFFFFFFFFFFF SWAP1 DUP2 AND SWAP1 DUP8 AND LT ISZERO PUSH2 0x1B23 JUMPI DUP1 SWAP2 POP PUSH2 0x1B31 JUMP JUMPDEST PUSH2 0x1B2E DUP2 PUSH1 0x1 PUSH2 0x3DF3 JUMP JUMPDEST SWAP3 POP JUMPDEST POP JUMPDEST PUSH0 PUSH2 0x1B40 DUP8 DUP8 DUP6 DUP6 PUSH2 0x2AFC JUMP JUMPDEST SWAP1 POP DUP1 ISZERO PUSH2 0x1B7A JUMPI PUSH2 0x1B64 DUP8 PUSH2 0x1B57 PUSH1 0x1 DUP5 PUSH2 0x3C05 JUMP JUMPDEST PUSH0 SWAP2 DUP3 MSTORE PUSH1 0x20 SWAP1 SWAP2 KECCAK256 ADD SWAP1 JUMP JUMPDEST SLOAD PUSH1 0x1 PUSH1 0x30 SHL SWAP1 DIV PUSH1 0x1 PUSH1 0x1 PUSH1 0xD0 SHL SUB AND PUSH2 0x1080 JUMP JUMPDEST PUSH0 SWAP8 SWAP7 POP POP POP POP POP POP POP JUMP JUMPDEST PUSH1 0x8 SLOAD PUSH1 0x40 DUP1 MLOAD PUSH6 0xFFFFFFFFFFFF SWAP3 DUP4 AND DUP2 MSTORE SWAP2 DUP4 AND PUSH1 0x20 DUP4 ADD MSTORE PUSH32 0xC565B045403DC03C2EEA82B81A0465EDAD9E2E7FC4D97E11421C209DA93D7A93 SWAP2 ADD PUSH1 0x40 MLOAD DUP1 SWAP2 SUB SWAP1 LOG1 PUSH1 0x8 DUP1 SLOAD PUSH6 0xFFFFFFFFFFFF NOT AND PUSH6 0xFFFFFFFFFFFF SWAP3 SWAP1 SWAP3 AND SWAP2 SWAP1 SWAP2 OR SWAP1 SSTORE JUMP JUMPDEST DUP1 MLOAD PUSH0 SWAP1 PUSH1 0x34 DUP2 LT ISZERO PUSH2 0x1C03 JUMPI PUSH1 0x1 SWAP2 POP POP PUSH2 0xA28 JUMP JUMPDEST DUP3 DUP2 ADD PUSH1 0x13 NOT ADD MLOAD PUSH1 0x1 PUSH1 0x1 PUSH1 0xA0 SHL SUB NOT DUP2 AND PUSH12 0x46E0E4DEE0DEE6CAE47A60F PUSH1 0xA3 SHL EQ PUSH2 0x1C36 JUMPI PUSH1 0x1 SWAP3 POP POP POP PUSH2 0xA28 JUMP JUMPDEST PUSH0 DUP1 PUSH2 0x1C43 PUSH1 0x28 DUP6 PUSH2 0x3C05 JUMP JUMPDEST SWAP1 POP JUMPDEST DUP4 DUP2 LT ISZERO PUSH2 0x1CB3 JUMPI PUSH0 DUP1 PUSH2 0x1C79 DUP9 DUP5 DUP2 MLOAD DUP2 LT PUSH2 0x1C65 JUMPI PUSH2 0x1C65 PUSH2 0x3B66 JUMP JUMPDEST ADD PUSH1 0x20 ADD MLOAD PUSH1 0x1 PUSH1 0x1 PUSH1 0xF8 SHL SUB NOT AND PUSH2 0x2B5B JUMP JUMPDEST SWAP2 POP SWAP2 POP DUP2 PUSH2 0x1C91 JUMPI PUSH1 0x1 SWAP7 POP POP POP POP POP POP POP PUSH2 0xA28 JUMP JUMPDEST DUP1 PUSH1 0xFF AND PUSH1 0x4 DUP6 PUSH1 0x1 PUSH1 0x1 PUSH1 0xA0 SHL SUB AND SWAP1 SHL OR SWAP4 POP POP POP DUP1 PUSH1 0x1 ADD SWAP1 POP PUSH2 0x1C46 JUMP JUMPDEST POP DUP6 PUSH1 0x1 PUSH1 0x1 PUSH1 0xA0 SHL SUB AND DUP2 PUSH1 0x1 PUSH1 0x1 PUSH1 0xA0 SHL SUB AND EQ SWAP4 POP POP POP POP SWAP3 SWAP2 POP POP JUMP JUMPDEST PUSH0 PUSH2 0x1CE8 DUP7 DUP7 DUP7 DUP7 DUP1 MLOAD SWAP1 PUSH1 0x20 ADD KECCAK256 PUSH2 0x1509 JUMP JUMPDEST SWAP1 POP DUP5 MLOAD DUP7 MLOAD EQ ISZERO DUP1 PUSH2 0x1CFD JUMPI POP DUP4 MLOAD DUP7 MLOAD EQ ISZERO JUMPDEST DUP1 PUSH2 0x1D07 JUMPI POP DUP6 MLOAD ISZERO JUMPDEST ISZERO PUSH2 0x1D3C JUMPI DUP6 MLOAD DUP5 MLOAD DUP7 MLOAD PUSH1 0x40 MLOAD PUSH4 0x447B05D PUSH1 0xE4 SHL DUP2 MSTORE PUSH1 0x4 DUP2 ADD SWAP4 SWAP1 SWAP4 MSTORE PUSH1 0x24 DUP4 ADD SWAP2 SWAP1 SWAP2 MSTORE PUSH1 0x44 DUP3 ADD MSTORE PUSH1 0x64 ADD PUSH2 0xDD6 JUMP JUMPDEST PUSH0 DUP2 DUP2 MSTORE PUSH1 0x4 PUSH1 0x20 MSTORE PUSH1 0x40 SWAP1 KECCAK256 SLOAD PUSH1 0x1 PUSH1 0xA0 SHL SWAP1 DIV PUSH6 0xFFFFFFFFFFFF AND ISZERO PUSH2 0x1D85 JUMPI DUP1 PUSH2 0x1D68 DUP3 PUSH2 0xD7A JUMP JUMPDEST PUSH1 0x40 MLOAD PUSH4 0x31B75E4D PUSH1 0xE0 SHL DUP2 MSTORE PUSH2 0xDD6 SWAP3 SWAP2 SWAP1 PUSH0 SWAP1 PUSH1 0x4 ADD PUSH2 0x3D52 JUMP JUMPDEST PUSH0 PUSH2 0x1D8E PUSH2 0xD68 JUMP JUMPDEST PUSH2 0x1D96 PUSH2 0x1339 JUMP JUMPDEST PUSH6 0xFFFFFFFFFFFF AND PUSH2 0x1DA8 SWAP2 SWAP1 PUSH2 0x3DF3 JUMP JUMPDEST SWAP1 POP PUSH0 PUSH2 0x1DC2 PUSH1 0x8 SLOAD PUSH4 0xFFFFFFFF PUSH1 0x1 PUSH1 0x30 SHL SWAP1 SWAP2 DIV AND SWAP1 JUMP JUMPDEST PUSH0 DUP5 DUP2 MSTORE PUSH1 0x4 PUSH1 0x20 MSTORE PUSH1 0x40 SWAP1 KECCAK256 DUP1 SLOAD PUSH1 0x1 PUSH1 0x1 PUSH1 0xA0 SHL SUB NOT AND PUSH1 0x1 PUSH1 0x1 PUSH1 0xA0 SHL SUB DUP8 AND OR DUP2 SSTORE SWAP1 SWAP2 POP PUSH2 0x1DF4 DUP4 PUSH2 0x1AA1 JUMP JUMPDEST DUP2 SLOAD PUSH6 0xFFFFFFFFFFFF SWAP2 SWAP1 SWAP2 AND PUSH1 0x1 PUSH1 0xA0 SHL MUL PUSH6 0xFFFFFFFFFFFF PUSH1 0xA0 SHL NOT SWAP1 SWAP2 AND OR DUP2 SSTORE PUSH2 0x1E21 DUP3 PUSH2 0x2BEB JUMP JUMPDEST DUP2 SLOAD PUSH4 0xFFFFFFFF SWAP2 SWAP1 SWAP2 AND PUSH1 0x1 PUSH1 0xD0 SHL MUL PUSH4 0xFFFFFFFF PUSH1 0xD0 SHL NOT SWAP1 SWAP2 AND OR DUP2 SSTORE DUP9 MLOAD PUSH32 0x7D84A6263AE0D98D3329BD7B46BB4E8D6F98CD35A7ADB45C274C8B7FD5EBD5E0 SWAP1 DUP6 SWAP1 DUP8 SWAP1 DUP13 SWAP1 DUP13 SWAP1 PUSH1 0x1 PUSH1 0x1 PUSH1 0x40 SHL SUB DUP2 GT ISZERO PUSH2 0x1E84 JUMPI PUSH2 0x1E84 PUSH2 0x31E7 JUMP JUMPDEST PUSH1 0x40 MLOAD SWAP1 DUP1 DUP3 MSTORE DUP1 PUSH1 0x20 MUL PUSH1 0x20 ADD DUP3 ADD PUSH1 0x40 MSTORE DUP1 ISZERO PUSH2 0x1EB7 JUMPI DUP2 PUSH1 0x20 ADD JUMPDEST PUSH1 0x60 DUP2 MSTORE PUSH1 0x20 ADD SWAP1 PUSH1 0x1 SWAP1 SUB SWAP1 DUP2 PUSH2 0x1EA2 JUMPI SWAP1 POP JUMPDEST POP DUP13 DUP10 PUSH2 0x1EC4 DUP11 DUP3 PUSH2 0x3DF3 JUMP JUMPDEST DUP15 PUSH1 0x40 MLOAD PUSH2 0x1EDA SWAP10 SWAP9 SWAP8 SWAP7 SWAP6 SWAP5 SWAP4 SWAP3 SWAP2 SWAP1 PUSH2 0x3E06 JUMP JUMPDEST PUSH1 0x40 MLOAD DUP1 SWAP2 SUB SWAP1 LOG1 POP POP POP SWAP6 SWAP5 POP POP POP POP POP JUMP JUMPDEST PUSH1 0x60 PUSH2 0x9D8 PUSH32 0x0 PUSH0 PUSH2 0x2C1B JUMP JUMPDEST PUSH1 0x60 PUSH2 0x9D8 PUSH32 0x0 PUSH1 0x1 PUSH2 0x2C1B JUMP JUMPDEST PUSH0 PUSH2 0x9D8 NUMBER PUSH2 0x1AA1 JUMP JUMPDEST PUSH0 PUSH32 0x0 PUSH1 0x40 MLOAD PUSH4 0x748D635 PUSH1 0xE3 SHL DUP2 MSTORE PUSH1 0x1 PUSH1 0x1 PUSH1 0xA0 SHL SUB DUP7 DUP2 AND PUSH1 0x4 DUP4 ADD MSTORE PUSH1 0x24 DUP3 ADD DUP7 SWAP1 MSTORE SWAP2 SWAP1 SWAP2 AND SWAP1 PUSH4 0x3A46B1A8 SWAP1 PUSH1 0x44 ADD PUSH1 0x20 PUSH1 0x40 MLOAD DUP1 DUP4 SUB DUP2 DUP7 GAS STATICCALL ISZERO DUP1 ISZERO PUSH2 0x1FC0 JUMPI RETURNDATASIZE PUSH0 DUP1 RETURNDATACOPY RETURNDATASIZE PUSH0 REVERT JUMPDEST POP POP POP POP PUSH1 0x40 MLOAD RETURNDATASIZE PUSH1 0x1F NOT PUSH1 0x1F DUP3 ADD AND DUP3 ADD DUP1 PUSH1 0x40 MSTORE POP DUP2 ADD SWAP1 PUSH2 0xED4 SWAP2 SWAP1 PUSH2 0x3EDB JUMP JUMPDEST DUP1 SLOAD PUSH0 SWAP1 DUP1 ISZERO PUSH2 0x2013 JUMPI PUSH2 0x1FFD DUP4 PUSH2 0x1B57 PUSH1 0x1 DUP5 PUSH2 0x3C05 JUMP JUMPDEST SLOAD PUSH1 0x1 PUSH1 0x30 SHL SWAP1 DIV PUSH1 0x1 PUSH1 0x1 PUSH1 0xD0 SHL SUB AND PUSH2 0x1572 JUMP JUMPDEST PUSH0 SWAP4 SWAP3 POP POP POP JUMP JUMPDEST PUSH1 0xB SLOAD PUSH1 0x40 DUP1 MLOAD PUSH1 0x1 PUSH1 0x1 PUSH1 0xA0 SHL SUB SWAP3 DUP4 AND DUP2 MSTORE SWAP2 DUP4 AND PUSH1 0x20 DUP4 ADD MSTORE PUSH32 0x8F74EA46EF7894F65EABFB5E6E695DE773A000B47C529AB559178069B226401 SWAP2 ADD PUSH1 0x40 MLOAD DUP1 SWAP2 SUB SWAP1 LOG1 PUSH1 0xB DUP1 SLOAD PUSH1 0x1 PUSH1 0x1 PUSH1 0xA0 SHL SUB NOT AND PUSH1 0x1 PUSH1 0x1 PUSH1 0xA0 SHL SUB SWAP3 SWAP1 SWAP3 AND SWAP2 SWAP1 SWAP2 OR SWAP1 SSTORE JUMP JUMPDEST PUSH1 0x60 DUP3 PUSH2 0x2099 JUMPI PUSH2 0x2094 DUP3 PUSH2 0x2CC4 JUMP JUMPDEST PUSH2 0xA28 JUMP JUMPDEST POP DUP1 PUSH2 0xA28 JUMP JUMPDEST DUP1 PUSH4 0xFFFFFFFF AND PUSH0 SUB PUSH2 0x20C8 JUMPI PUSH1 0x40 MLOAD PUSH4 0xF1CFBF05 PUSH1 0xE0 SHL DUP2 MSTORE PUSH0 PUSH1 0x4 DUP3 ADD MSTORE PUSH1 0x24 ADD PUSH2 0xDD6 JUMP JUMPDEST PUSH1 0x8 SLOAD PUSH1 0x40 DUP1 MLOAD PUSH4 0xFFFFFFFF PUSH1 0x1 PUSH1 0x30 SHL SWAP1 SWAP4 DIV DUP4 AND DUP2 MSTORE SWAP2 DUP4 AND PUSH1 0x20 DUP4 ADD MSTORE PUSH32 0x7E3F7F0708A84DE9203036ABAA450DCCC85AD5FF52F78C170F3EDB55CF5E8828 SWAP2 ADD PUSH1 0x40 MLOAD DUP1 SWAP2 SUB SWAP1 LOG1 PUSH1 0x8 DUP1 SLOAD PUSH4 0xFFFFFFFF SWAP1 SWAP3 AND PUSH1 0x1 PUSH1 0x30 SHL MUL PUSH10 0xFFFFFFFF000000000000 NOT SWAP1 SWAP3 AND SWAP2 SWAP1 SWAP2 OR SWAP1 SSTORE JUMP JUMPDEST PUSH1 0x7 SLOAD PUSH1 0x40 DUP1 MLOAD SWAP2 DUP3 MSTORE PUSH1 0x20 DUP3 ADD DUP4 SWAP1 MSTORE PUSH32 0xCCB45DA8D5717E6C4544694297C4BA5CF151D455C9BB0ED4FC7A38411BC05461 SWAP2 ADD PUSH1 0x40 MLOAD DUP1 SWAP2 SUB SWAP1 LOG1 PUSH1 0x7 SSTORE JUMP JUMPDEST PUSH0 PUSH1 0x64 PUSH2 0x2189 DUP4 PUSH2 0x108B JUMP JUMPDEST PUSH1 0x40 MLOAD PUSH4 0x2394E7A3 PUSH1 0xE2 SHL DUP2 MSTORE PUSH1 0x4 DUP2 ADD DUP6 SWAP1 MSTORE PUSH1 0x1 PUSH1 0x1 PUSH1 0xA0 SHL SUB PUSH32 0x0 AND SWAP1 PUSH4 0x8E539E8C SWAP1 PUSH1 0x24 ADD PUSH1 0x20 PUSH1 0x40 MLOAD DUP1 DUP4 SUB DUP2 DUP7 GAS STATICCALL ISZERO DUP1 ISZERO PUSH2 0x21EC JUMPI RETURNDATASIZE PUSH0 DUP1 RETURNDATACOPY RETURNDATASIZE PUSH0 REVERT JUMPDEST POP POP POP POP PUSH1 0x40 MLOAD RETURNDATASIZE PUSH1 0x1F NOT PUSH1 0x1F DUP3 ADD AND DUP3 ADD DUP1 PUSH1 0x40 MSTORE POP DUP2 ADD SWAP1 PUSH2 0x2210 SWAP2 SWAP1 PUSH2 0x3EDB JUMP JUMPDEST PUSH2 0x221A SWAP2 SWAP1 PUSH2 0x3EF2 JUMP JUMPDEST PUSH2 0xA28 SWAP2 SWAP1 PUSH2 0x3F1D JUMP JUMPDEST DUP1 SLOAD PUSH0 SWAP1 PUSH1 0x1 PUSH1 0x1 PUSH1 0x80 SHL SUB DUP1 DUP3 AND SWAP2 PUSH1 0x1 PUSH1 0x80 SHL SWAP1 DIV AND DUP2 SUB PUSH2 0x225B JUMPI PUSH1 0x40 MLOAD PUSH4 0x75E52F4F PUSH1 0xE0 SHL DUP2 MSTORE PUSH1 0x4 ADD PUSH1 0x40 MLOAD DUP1 SWAP2 SUB SWAP1 REVERT JUMPDEST PUSH1 0x1 PUSH1 0x1 PUSH1 0x80 SHL SUB DUP2 DUP2 AND PUSH0 SWAP1 DUP2 MSTORE PUSH1 0x1 DUP6 DUP2 ADD PUSH1 0x20 MSTORE PUSH1 0x40 DUP3 KECCAK256 DUP1 SLOAD SWAP3 SWAP1 SSTORE DUP6 SLOAD PUSH16 0xFFFFFFFFFFFFFFFFFFFFFFFFFFFFFFFF NOT AND SWAP4 ADD SWAP1 SWAP2 AND SWAP2 SWAP1 SWAP2 OR SWAP1 SWAP3 SSTORE POP SWAP1 JUMP JUMPDEST PUSH0 PUSH1 0x1 PUSH1 0x1 PUSH1 0xD0 SHL SUB DUP3 GT ISZERO PUSH2 0x1AD3 JUMPI PUSH1 0x40 MLOAD PUSH4 0x6DFCC65 PUSH1 0xE4 SHL DUP2 MSTORE PUSH1 0xD0 PUSH1 0x4 DUP3 ADD MSTORE PUSH1 0x24 DUP2 ADD DUP4 SWAP1 MSTORE PUSH1 0x44 ADD PUSH2 0xDD6 JUMP JUMPDEST PUSH0 DUP1 PUSH2 0x22E0 DUP6 DUP6 DUP6 PUSH2 0x2CED JUMP JUMPDEST SWAP2 POP SWAP2 POP JUMPDEST SWAP4 POP SWAP4 SWAP2 POP POP JUMP JUMPDEST PUSH0 DUP1 PUSH1 0xB PUSH0 SWAP1 SLOAD SWAP1 PUSH2 0x100 EXP SWAP1 DIV PUSH1 0x1 PUSH1 0x1 PUSH1 0xA0 SHL SUB AND PUSH1 0x1 PUSH1 0x1 PUSH1 0xA0 SHL SUB AND PUSH4 0xF27A0C92 PUSH1 0x40 MLOAD DUP2 PUSH4 0xFFFFFFFF AND PUSH1 0xE0 SHL DUP2 MSTORE PUSH1 0x4 ADD PUSH1 0x20 PUSH1 0x40 MLOAD DUP1 DUP4 SUB DUP2 DUP7 GAS STATICCALL ISZERO DUP1 ISZERO PUSH2 0x233F JUMPI RETURNDATASIZE PUSH0 DUP1 RETURNDATACOPY RETURNDATASIZE PUSH0 REVERT JUMPDEST POP POP POP POP PUSH1 0x40 MLOAD RETURNDATASIZE PUSH1 0x1F NOT PUSH1 0x1F DUP3 ADD AND DUP3 ADD DUP1 PUSH1 0x40 MSTORE POP DUP2 ADD SWAP1 PUSH2 0x2363 SWAP2 SWAP1 PUSH2 0x3EDB JUMP JUMPDEST SWAP1 POP PUSH0 ADDRESS PUSH1 0x60 SHL PUSH12 0xFFFFFFFFFFFFFFFFFFFFFFFF NOT AND DUP5 XOR PUSH1 0xB SLOAD PUSH1 0x40 MLOAD PUSH4 0xB1C5F427 PUSH1 0xE0 SHL DUP2 MSTORE SWAP2 SWAP3 POP PUSH1 0x1 PUSH1 0x1 PUSH1 0xA0 SHL SUB AND SWAP1 PUSH4 0xB1C5F427 SWAP1 PUSH2 0x23B4 SWAP1 DUP11 SWAP1 DUP11 SWAP1 DUP11 SWAP1 PUSH0 SWAP1 DUP9 SWAP1 PUSH1 0x4 ADD PUSH2 0x3F3C JUMP JUMPDEST PUSH1 0x20 PUSH1 0x40 MLOAD DUP1 DUP4 SUB DUP2 DUP7 GAS STATICCALL ISZERO DUP1 ISZERO PUSH2 0x23CF JUMPI RETURNDATASIZE PUSH0 DUP1 RETURNDATACOPY RETURNDATASIZE PUSH0 REVERT JUMPDEST POP POP POP POP PUSH1 0x40 MLOAD RETURNDATASIZE PUSH1 0x1F NOT PUSH1 0x1F DUP3 ADD AND DUP3 ADD DUP1 PUSH1 0x40 MSTORE POP DUP2 ADD SWAP1 PUSH2 0x23F3 SWAP2 SWAP1 PUSH2 0x3EDB JUMP JUMPDEST PUSH0 DUP10 DUP2 MSTORE PUSH1 0xC PUSH1 0x20 MSTORE PUSH1 0x40 DUP1 DUP3 KECCAK256 SWAP3 SWAP1 SWAP3 SSTORE PUSH1 0xB SLOAD SWAP2 MLOAD PUSH4 0x8F2A0BB PUSH1 0xE4 SHL DUP2 MSTORE PUSH1 0x1 PUSH1 0x1 PUSH1 0xA0 SHL SUB SWAP1 SWAP3 AND SWAP2 PUSH4 0x8F2A0BB0 SWAP2 PUSH2 0x243D SWAP2 DUP12 SWAP2 DUP12 SWAP2 DUP12 SWAP2 SWAP1 DUP9 SWAP1 DUP11 SWAP1 PUSH1 0x4 ADD PUSH2 0x3F89 JUMP JUMPDEST PUSH0 PUSH1 0x40 MLOAD DUP1 DUP4 SUB DUP2 PUSH0 DUP8 DUP1 EXTCODESIZE ISZERO DUP1 ISZERO PUSH2 0x2454 JUMPI PUSH0 DUP1 REVERT JUMPDEST POP GAS CALL ISZERO DUP1 ISZERO PUSH2 0x2466 JUMPI RETURNDATASIZE PUSH0 DUP1 RETURNDATACOPY RETURNDATASIZE PUSH0 REVERT JUMPDEST POP POP POP POP PUSH2 0x121C DUP3 TIMESTAMP PUSH2 0x2479 SWAP2 SWAP1 PUSH2 0x3DF3 JUMP JUMPDEST PUSH2 0x1AA1 JUMP JUMPDEST PUSH1 0xB SLOAD PUSH1 0x1 PUSH1 0x1 PUSH1 0xA0 SHL SUB AND PUSH4 0xE38335E5 CALLVALUE DUP7 DUP7 DUP7 PUSH0 ADDRESS PUSH1 0x60 SHL PUSH12 0xFFFFFFFFFFFFFFFFFFFFFFFF NOT AND DUP9 XOR PUSH1 0x40 MLOAD DUP8 PUSH4 0xFFFFFFFF AND PUSH1 0xE0 SHL DUP2 MSTORE PUSH1 0x4 ADD PUSH2 0x24C9 SWAP6 SWAP5 SWAP4 SWAP3 SWAP2 SWAP1 PUSH2 0x3F3C JUMP JUMPDEST PUSH0 PUSH1 0x40 MLOAD DUP1 DUP4 SUB DUP2 DUP6 DUP9 DUP1 EXTCODESIZE ISZERO DUP1 ISZERO PUSH2 0x24E0 JUMPI PUSH0 DUP1 REVERT JUMPDEST POP GAS CALL ISZERO DUP1 ISZERO PUSH2 0x24F2 JUMPI RETURNDATASIZE PUSH0 DUP1 RETURNDATACOPY RETURNDATASIZE PUSH0 REVERT JUMPDEST POP POP POP PUSH0 SWAP7 DUP8 MSTORE POP POP PUSH1 0xC PUSH1 0x20 MSTORE POP POP PUSH1 0x40 DUP4 KECCAK256 SWAP3 SWAP1 SWAP3 SSTORE POP POP JUMP JUMPDEST PUSH0 DUP2 DUP2 MSTORE PUSH1 0x4 PUSH1 0x20 MSTORE PUSH1 0x40 DUP2 KECCAK256 DUP1 SLOAD PUSH1 0xFF PUSH1 0x1 PUSH1 0xF0 SHL DUP3 DIV DUP2 AND SWAP2 PUSH1 0x1 PUSH1 0xF8 SHL SWAP1 DIV AND DUP2 ISZERO PUSH2 0x2542 JUMPI POP PUSH1 0x7 SWAP5 SWAP4 POP POP POP POP JUMP JUMPDEST DUP1 ISZERO PUSH2 0x2553 JUMPI POP PUSH1 0x2 SWAP5 SWAP4 POP POP POP POP JUMP JUMPDEST PUSH0 PUSH2 0x255D DUP7 PUSH2 0xD48 JUMP JUMPDEST SWAP1 POP DUP1 PUSH0 SUB PUSH2 0x2582 JUMPI PUSH1 0x40 MLOAD PUSH4 0x6AD06075 PUSH1 0xE0 SHL DUP2 MSTORE PUSH1 0x4 DUP2 ADD DUP8 SWAP1 MSTORE PUSH1 0x24 ADD PUSH2 0xDD6 JUMP JUMPDEST PUSH0 PUSH2 0x258B PUSH2 0x1339 JUMP JUMPDEST PUSH6 0xFFFFFFFFFFFF AND SWAP1 POP DUP1 DUP3 LT PUSH2 0x25A8 JUMPI POP PUSH0 SWAP7 SWAP6 POP POP POP POP POP POP JUMP JUMPDEST PUSH0 PUSH2 0x25B2 DUP9 PUSH2 0x144B JUMP JUMPDEST SWAP1 POP DUP2 DUP2 LT PUSH2 0x25C9 JUMPI POP PUSH1 0x1 SWAP8 SWAP7 POP POP POP POP POP POP POP JUMP JUMPDEST PUSH2 0x25D2 DUP9 PUSH2 0x2E63 JUMP JUMPDEST ISZERO DUP1 PUSH2 0x25F1 JUMPI POP PUSH0 DUP9 DUP2 MSTORE PUSH1 0x9 PUSH1 0x20 MSTORE PUSH1 0x40 SWAP1 KECCAK256 DUP1 SLOAD PUSH1 0x1 SWAP1 SWAP2 ADD SLOAD GT ISZERO JUMPDEST ISZERO PUSH2 0x2604 JUMPI POP PUSH1 0x3 SWAP8 SWAP7 POP POP POP POP POP POP POP JUMP JUMPDEST PUSH0 DUP9 DUP2 MSTORE PUSH1 0x4 PUSH1 0x20 MSTORE PUSH1 0x40 SWAP1 KECCAK256 PUSH1 0x1 ADD SLOAD PUSH6 0xFFFFFFFFFFFF AND PUSH0 SUB PUSH2 0x2631 JUMPI POP PUSH1 0x4 SWAP8 SWAP7 POP POP POP POP POP POP POP JUMP JUMPDEST POP PUSH1 0x5 SWAP8 SWAP7 POP POP POP POP POP POP POP JUMP JUMPDEST PUSH0 DUP1 PUSH2 0x264D DUP7 DUP7 DUP7 DUP7 PUSH2 0x2E99 JUMP JUMPDEST PUSH0 DUP2 DUP2 MSTORE PUSH1 0xC PUSH1 0x20 MSTORE PUSH1 0x40 SWAP1 KECCAK256 SLOAD SWAP1 SWAP2 POP DUP1 ISZERO PUSH2 0xBD6 JUMPI PUSH1 0xB SLOAD PUSH1 0x40 MLOAD PUSH4 0xC4D252F5 PUSH1 0xE0 SHL DUP2 MSTORE PUSH1 0x4 DUP2 ADD DUP4 SWAP1 MSTORE PUSH1 0x1 PUSH1 0x1 PUSH1 0xA0 SHL SUB SWAP1 SWAP2 AND SWAP1 PUSH4 0xC4D252F5 SWAP1 PUSH1 0x24 ADD PUSH0 PUSH1 0x40 MLOAD DUP1 DUP4 SUB DUP2 PUSH0 DUP8 DUP1 EXTCODESIZE ISZERO DUP1 ISZERO PUSH2 0x26A7 JUMPI PUSH0 DUP1 REVERT JUMPDEST POP GAS CALL ISZERO DUP1 ISZERO PUSH2 0x26B9 JUMPI RETURNDATASIZE PUSH0 DUP1 RETURNDATACOPY RETURNDATASIZE PUSH0 REVERT JUMPDEST POP POP POP PUSH0 DUP4 DUP2 MSTORE PUSH1 0xC PUSH1 0x20 MSTORE PUSH1 0x40 DUP2 KECCAK256 SSTORE POP POP SWAP1 POP SWAP5 SWAP4 POP POP POP POP JUMP JUMPDEST PUSH0 ADDRESS PUSH1 0x1 PUSH1 0x1 PUSH1 0xA0 SHL SUB PUSH32 0x0 AND EQ DUP1 ISZERO PUSH2 0x272E JUMPI POP PUSH32 0x0 CHAINID EQ JUMPDEST ISZERO PUSH2 0x2758 JUMPI POP PUSH32 0x0 SWAP1 JUMP JUMPDEST PUSH2 0x9D8 PUSH1 0x40 DUP1 MLOAD PUSH32 0x8B73C3C69BB8FE3D512ECC4CF759CC79239F7B179B0FFACAA9A75D522B39400F PUSH1 0x20 DUP3 ADD MSTORE PUSH32 0x0 SWAP2 DUP2 ADD SWAP2 SWAP1 SWAP2 MSTORE PUSH32 0x0 PUSH1 0x60 DUP3 ADD MSTORE CHAINID PUSH1 0x80 DUP3 ADD MSTORE ADDRESS PUSH1 0xA0 DUP3 ADD MSTORE PUSH0 SWAP1 PUSH1 0xC0 ADD PUSH1 0x40 MLOAD PUSH1 0x20 DUP2 DUP4 SUB SUB DUP2 MSTORE SWAP1 PUSH1 0x40 MSTORE DUP1 MLOAD SWAP1 PUSH1 0x20 ADD KECCAK256 SWAP1 POP SWAP1 JUMP JUMPDEST PUSH0 DUP1 PUSH0 DUP4 MLOAD PUSH1 0x41 SUB PUSH2 0x2836 JUMPI PUSH1 0x20 DUP5 ADD MLOAD PUSH1 0x40 DUP6 ADD MLOAD PUSH1 0x60 DUP7 ADD MLOAD PUSH0 BYTE PUSH2 0x2828 DUP9 DUP3 DUP6 DUP6 PUSH2 0x2F48 JUMP JUMPDEST SWAP6 POP SWAP6 POP SWAP6 POP POP POP POP PUSH2 0x2841 JUMP JUMPDEST POP POP DUP2 MLOAD PUSH0 SWAP2 POP PUSH1 0x2 SWAP1 JUMPDEST SWAP3 POP SWAP3 POP SWAP3 JUMP JUMPDEST PUSH0 DUP1 PUSH0 DUP6 PUSH1 0x1 PUSH1 0x1 PUSH1 0xA0 SHL SUB AND DUP6 DUP6 PUSH1 0x40 MLOAD PUSH1 0x24 ADD PUSH2 0x2868 SWAP3 SWAP2 SWAP1 PUSH2 0x3FE0 JUMP JUMPDEST PUSH1 0x40 DUP1 MLOAD PUSH1 0x1F NOT DUP2 DUP5 SUB ADD DUP2 MSTORE SWAP2 DUP2 MSTORE PUSH1 0x20 DUP3 ADD DUP1 MLOAD PUSH1 0x1 PUSH1 0x1 PUSH1 0xE0 SHL SUB AND PUSH4 0xB135D3F PUSH1 0xE1 SHL OR SWAP1 MSTORE MLOAD PUSH2 0x289D SWAP2 SWAP1 PUSH2 0x3FF8 JUMP JUMPDEST PUSH0 PUSH1 0x40 MLOAD DUP1 DUP4 SUB DUP2 DUP6 GAS STATICCALL SWAP2 POP POP RETURNDATASIZE DUP1 PUSH0 DUP2 EQ PUSH2 0x28D5 JUMPI PUSH1 0x40 MLOAD SWAP2 POP PUSH1 0x1F NOT PUSH1 0x3F RETURNDATASIZE ADD AND DUP3 ADD PUSH1 0x40 MSTORE RETURNDATASIZE DUP3 MSTORE RETURNDATASIZE PUSH0 PUSH1 0x20 DUP5 ADD RETURNDATACOPY PUSH2 0x28DA JUMP JUMPDEST PUSH1 0x60 SWAP2 POP JUMPDEST POP SWAP2 POP SWAP2 POP DUP2 DUP1 ISZERO PUSH2 0x28EE JUMPI POP PUSH1 0x20 DUP2 MLOAD LT ISZERO JUMPDEST DUP1 ISZERO PUSH2 0xDEB JUMPI POP DUP1 MLOAD PUSH4 0xB135D3F PUSH1 0xE1 SHL SWAP1 PUSH2 0x2913 SWAP1 DUP4 ADD PUSH1 0x20 SWAP1 DUP2 ADD SWAP1 DUP5 ADD PUSH2 0x3EDB JUMP JUMPDEST EQ SWAP7 SWAP6 POP POP POP POP POP POP JUMP JUMPDEST PUSH0 DUP6 DUP2 MSTORE PUSH1 0x9 PUSH1 0x20 SWAP1 DUP2 MSTORE PUSH1 0x40 DUP1 DUP4 KECCAK256 PUSH1 0x1 PUSH1 0x1 PUSH1 0xA0 SHL SUB DUP9 AND DUP5 MSTORE PUSH1 0x3 DUP2 ADD SWAP1 SWAP3 MSTORE SWAP1 SWAP2 KECCAK256 SLOAD PUSH1 0xFF AND ISZERO PUSH2 0x2971 JUMPI PUSH1 0x40 MLOAD PUSH4 0x71C6AF49 PUSH1 0xE0 SHL DUP2 MSTORE PUSH1 0x1 PUSH1 0x1 PUSH1 0xA0 SHL SUB DUP7 AND PUSH1 0x4 DUP3 ADD MSTORE PUSH1 0x24 ADD PUSH2 0xDD6 JUMP JUMPDEST PUSH1 0x1 PUSH1 0x1 PUSH1 0xA0 SHL SUB DUP6 AND PUSH0 SWAP1 DUP2 MSTORE PUSH1 0x3 DUP3 ADD PUSH1 0x20 MSTORE PUSH1 0x40 SWAP1 KECCAK256 DUP1 SLOAD PUSH1 0xFF NOT AND PUSH1 0x1 OR SWAP1 SSTORE PUSH1 0xFF DUP5 AND PUSH2 0x29BA JUMPI DUP3 DUP2 PUSH0 ADD PUSH0 DUP3 DUP3 SLOAD PUSH2 0x29AF SWAP2 SWAP1 PUSH2 0x3DF3 JUMP JUMPDEST SWAP1 SWAP2 SSTORE POP PUSH2 0x2A10 SWAP1 POP JUMP JUMPDEST PUSH0 NOT PUSH1 0xFF DUP6 AND ADD PUSH2 0x29D8 JUMPI DUP3 DUP2 PUSH1 0x1 ADD PUSH0 DUP3 DUP3 SLOAD PUSH2 0x29AF SWAP2 SWAP1 PUSH2 0x3DF3 JUMP JUMPDEST PUSH1 0x1 NOT PUSH1 0xFF DUP6 AND ADD PUSH2 0x29F7 JUMPI DUP3 DUP2 PUSH1 0x2 ADD PUSH0 DUP3 DUP3 SLOAD PUSH2 0x29AF SWAP2 SWAP1 PUSH2 0x3DF3 JUMP JUMPDEST PUSH1 0x40 MLOAD PUSH4 0x3599BE1 PUSH1 0xE1 SHL DUP2 MSTORE PUSH1 0x4 ADD PUSH1 0x40 MLOAD DUP1 SWAP2 SUB SWAP1 REVERT JUMPDEST POP POP POP POP POP POP JUMP JUMPDEST PUSH0 DUP2 PUSH0 SUB PUSH2 0x2A27 JUMPI POP PUSH0 SWAP2 SWAP1 POP JUMP JUMPDEST PUSH0 PUSH1 0x1 PUSH2 0x2A33 DUP5 PUSH2 0x3010 JUMP JUMPDEST SWAP1 SHR PUSH1 0x1 SWAP1 SHL SWAP1 POP PUSH1 0x1 DUP2 DUP5 DUP2 PUSH2 0x2A4C JUMPI PUSH2 0x2A4C PUSH2 0x3F09 JUMP JUMPDEST DIV DUP3 ADD SWAP1 SHR SWAP1 POP PUSH1 0x1 DUP2 DUP5 DUP2 PUSH2 0x2A64 JUMPI PUSH2 0x2A64 PUSH2 0x3F09 JUMP JUMPDEST DIV DUP3 ADD SWAP1 SHR SWAP1 POP PUSH1 0x1 DUP2 DUP5 DUP2 PUSH2 0x2A7C JUMPI PUSH2 0x2A7C PUSH2 0x3F09 JUMP JUMPDEST DIV DUP3 ADD SWAP1 SHR SWAP1 POP PUSH1 0x1 DUP2 DUP5 DUP2 PUSH2 0x2A94 JUMPI PUSH2 0x2A94 PUSH2 0x3F09 JUMP JUMPDEST DIV DUP3 ADD SWAP1 SHR SWAP1 POP PUSH1 0x1 DUP2 DUP5 DUP2 PUSH2 0x2AAC JUMPI PUSH2 0x2AAC PUSH2 0x3F09 JUMP JUMPDEST DIV DUP3 ADD SWAP1 SHR SWAP1 POP PUSH1 0x1 DUP2 DUP5 DUP2 PUSH2 0x2AC4 JUMPI PUSH2 0x2AC4 PUSH2 0x3F09 JUMP JUMPDEST DIV DUP3 ADD SWAP1 SHR SWAP1 POP PUSH1 0x1 DUP2 DUP5 DUP2 PUSH2 0x2ADC JUMPI PUSH2 0x2ADC PUSH2 0x3F09 JUMP JUMPDEST DIV DUP3 ADD SWAP1 SHR SWAP1 POP PUSH2 0x1572 DUP2 DUP3 DUP6 DUP2 PUSH2 0x2AF6 JUMPI PUSH2 0x2AF6 PUSH2 0x3F09 JUMP JUMPDEST DIV PUSH2 0x30A3 JUMP JUMPDEST PUSH0 JUMPDEST DUP2 DUP4 LT ISZERO PUSH2 0x2B53 JUMPI PUSH0 PUSH2 0x2B11 DUP5 DUP5 PUSH2 0x30B8 JUMP JUMPDEST PUSH0 DUP8 DUP2 MSTORE PUSH1 0x20 SWAP1 KECCAK256 SWAP1 SWAP2 POP PUSH6 0xFFFFFFFFFFFF DUP7 AND SWAP1 DUP3 ADD SLOAD PUSH6 0xFFFFFFFFFFFF AND GT ISZERO PUSH2 0x2B3F JUMPI DUP1 SWAP3 POP PUSH2 0x2B4D JUMP JUMPDEST PUSH2 0x2B4A DUP2 PUSH1 0x1 PUSH2 0x3DF3 JUMP JUMPDEST SWAP4 POP JUMPDEST POP PUSH2 0x2AFE JUMP JUMPDEST POP SWAP4 SWAP3 POP POP POP JUMP JUMPDEST PUSH0 DUP1 PUSH1 0xF8 DUP4 SWAP1 SHR PUSH1 0x2F DUP2 GT DUP1 ISZERO PUSH2 0x2B75 JUMPI POP PUSH1 0x3A DUP2 PUSH1 0xFF AND LT JUMPDEST ISZERO PUSH2 0x2B8A JUMPI PUSH1 0x1 SWAP5 PUSH1 0x2F NOT SWAP1 SWAP2 ADD SWAP4 POP SWAP2 POP POP JUMP JUMPDEST DUP1 PUSH1 0xFF AND PUSH1 0x40 LT DUP1 ISZERO PUSH2 0x2BA0 JUMPI POP PUSH1 0x47 DUP2 PUSH1 0xFF AND LT JUMPDEST ISZERO PUSH2 0x2BB5 JUMPI PUSH1 0x1 SWAP5 PUSH1 0x36 NOT SWAP1 SWAP2 ADD SWAP4 POP SWAP2 POP POP JUMP JUMPDEST DUP1 PUSH1 0xFF AND PUSH1 0x60 LT DUP1 ISZERO PUSH2 0x2BCB JUMPI POP PUSH1 0x67 DUP2 PUSH1 0xFF AND LT JUMPDEST ISZERO PUSH2 0x2BE0 JUMPI PUSH1 0x1 SWAP5 PUSH1 0x56 NOT SWAP1 SWAP2 ADD SWAP4 POP SWAP2 POP POP JUMP JUMPDEST POP PUSH0 SWAP4 DUP5 SWAP4 POP SWAP2 POP POP JUMP JUMPDEST PUSH0 PUSH4 0xFFFFFFFF DUP3 GT ISZERO PUSH2 0x1AD3 JUMPI PUSH1 0x40 MLOAD PUSH4 0x6DFCC65 PUSH1 0xE4 SHL DUP2 MSTORE PUSH1 0x20 PUSH1 0x4 DUP3 ADD MSTORE PUSH1 0x24 DUP2 ADD DUP4 SWAP1 MSTORE PUSH1 0x44 ADD PUSH2 0xDD6 JUMP JUMPDEST PUSH1 0x60 PUSH1 0xFF DUP4 EQ PUSH2 0x2C35 JUMPI PUSH2 0x2C2E DUP4 PUSH2 0x30D2 JUMP JUMPDEST SWAP1 POP PUSH2 0xA28 JUMP JUMPDEST DUP2 DUP1 SLOAD PUSH2 0x2C41 SWAP1 PUSH2 0x3B2E JUMP JUMPDEST DUP1 PUSH1 0x1F ADD PUSH1 0x20 DUP1 SWAP2 DIV MUL PUSH1 0x20 ADD PUSH1 0x40 MLOAD SWAP1 DUP2 ADD PUSH1 0x40 MSTORE DUP1 SWAP3 SWAP2 SWAP1 DUP2 DUP2 MSTORE PUSH1 0x20 ADD DUP3 DUP1 SLOAD PUSH2 0x2C6D SWAP1 PUSH2 0x3B2E JUMP JUMPDEST DUP1 ISZERO PUSH2 0x2CB8 JUMPI DUP1 PUSH1 0x1F LT PUSH2 0x2C8F JUMPI PUSH2 0x100 DUP1 DUP4 SLOAD DIV MUL DUP4 MSTORE SWAP2 PUSH1 0x20 ADD SWAP2 PUSH2 0x2CB8 JUMP JUMPDEST DUP3 ADD SWAP2 SWAP1 PUSH0 MSTORE PUSH1 0x20 PUSH0 KECCAK256 SWAP1 JUMPDEST DUP2 SLOAD DUP2 MSTORE SWAP1 PUSH1 0x1 ADD SWAP1 PUSH1 0x20 ADD DUP1 DUP4 GT PUSH2 0x2C9B JUMPI DUP3 SWAP1 SUB PUSH1 0x1F AND DUP3 ADD SWAP2 JUMPDEST POP POP POP POP POP SWAP1 POP PUSH2 0xA28 JUMP JUMPDEST DUP1 MLOAD ISZERO PUSH2 0x2CD4 JUMPI DUP1 MLOAD DUP1 DUP3 PUSH1 0x20 ADD REVERT JUMPDEST PUSH1 0x40 MLOAD PUSH4 0xA12F521 PUSH1 0xE1 SHL DUP2 MSTORE PUSH1 0x4 ADD PUSH1 0x40 MLOAD DUP1 SWAP2 SUB SWAP1 REVERT JUMPDEST DUP3 SLOAD PUSH0 SWAP1 DUP2 SWAP1 DUP1 ISZERO PUSH2 0x2E09 JUMPI PUSH0 PUSH2 0x2D09 DUP8 PUSH2 0x1B57 PUSH1 0x1 DUP6 PUSH2 0x3C05 JUMP JUMPDEST PUSH1 0x40 DUP1 MLOAD DUP1 DUP3 ADD SWAP1 SWAP2 MSTORE SWAP1 SLOAD PUSH6 0xFFFFFFFFFFFF DUP1 DUP3 AND DUP1 DUP5 MSTORE PUSH1 0x1 PUSH1 0x30 SHL SWAP1 SWAP3 DIV PUSH1 0x1 PUSH1 0x1 PUSH1 0xD0 SHL SUB AND PUSH1 0x20 DUP5 ADD MSTORE SWAP2 SWAP3 POP SWAP1 DUP8 AND LT ISZERO PUSH2 0x2D5D JUMPI PUSH1 0x40 MLOAD PUSH4 0x2520601D PUSH1 0xE0 SHL DUP2 MSTORE PUSH1 0x4 ADD PUSH1 0x40 MLOAD DUP1 SWAP2 SUB SWAP1 REVERT JUMPDEST DUP1 MLOAD PUSH6 0xFFFFFFFFFFFF DUP1 DUP9 AND SWAP2 AND SUB PUSH2 0x2DA9 JUMPI DUP5 PUSH2 0x2D80 DUP9 PUSH2 0x1B57 PUSH1 0x1 DUP7 PUSH2 0x3C05 JUMP JUMPDEST DUP1 SLOAD PUSH1 0x1 PUSH1 0x1 PUSH1 0xD0 SHL SUB SWAP3 SWAP1 SWAP3 AND PUSH1 0x1 PUSH1 0x30 SHL MUL PUSH6 0xFFFFFFFFFFFF SWAP1 SWAP3 AND SWAP2 SWAP1 SWAP2 OR SWAP1 SSTORE PUSH2 0x2DF9 JUMP JUMPDEST PUSH1 0x40 DUP1 MLOAD DUP1 DUP3 ADD SWAP1 SWAP2 MSTORE PUSH6 0xFFFFFFFFFFFF DUP1 DUP9 AND DUP3 MSTORE PUSH1 0x1 PUSH1 0x1 PUSH1 0xD0 SHL SUB DUP1 DUP9 AND PUSH1 0x20 DUP1 DUP6 ADD SWAP2 DUP3 MSTORE DUP12 SLOAD PUSH1 0x1 DUP2 ADD DUP14 SSTORE PUSH0 DUP14 DUP2 MSTORE SWAP2 SWAP1 SWAP2 KECCAK256 SWAP5 MLOAD SWAP2 MLOAD SWAP1 SWAP3 AND PUSH1 0x1 PUSH1 0x30 SHL MUL SWAP3 AND SWAP2 SWAP1 SWAP2 OR SWAP2 ADD SSTORE JUMPDEST PUSH1 0x20 ADD MLOAD SWAP3 POP DUP4 SWAP2 POP PUSH2 0x22E5 SWAP1 POP JUMP JUMPDEST POP POP PUSH1 0x40 DUP1 MLOAD DUP1 DUP3 ADD SWAP1 SWAP2 MSTORE PUSH6 0xFFFFFFFFFFFF DUP1 DUP6 AND DUP3 MSTORE PUSH1 0x1 PUSH1 0x1 PUSH1 0xD0 SHL SUB DUP1 DUP6 AND PUSH1 0x20 DUP1 DUP6 ADD SWAP2 DUP3 MSTORE DUP9 SLOAD PUSH1 0x1 DUP2 ADD DUP11 SSTORE PUSH0 DUP11 DUP2 MSTORE SWAP2 DUP3 KECCAK256 SWAP6 MLOAD SWAP3 MLOAD SWAP1 SWAP4 AND PUSH1 0x1 PUSH1 0x30 SHL MUL SWAP2 SWAP1 SWAP4 AND OR SWAP3 ADD SWAP2 SWAP1 SWAP2 SSTORE SWAP1 POP DUP2 PUSH2 0x22E5 JUMP JUMPDEST PUSH0 DUP2 DUP2 MSTORE PUSH1 0x9 PUSH1 0x20 MSTORE PUSH1 0x40 DUP2 KECCAK256 PUSH1 0x2 DUP2 ADD SLOAD PUSH1 0x1 DUP3 ADD SLOAD PUSH2 0x2E84 SWAP2 SWAP1 PUSH2 0x3DF3 JUMP JUMPDEST PUSH2 0x2E90 PUSH2 0x98E DUP6 PUSH2 0xD48 JUMP JUMPDEST GT ISZERO SWAP4 SWAP3 POP POP POP JUMP JUMPDEST PUSH0 DUP1 PUSH2 0x2EA7 DUP7 DUP7 DUP7 DUP7 PUSH2 0x1509 JUMP JUMPDEST SWAP1 POP PUSH2 0x2EF5 DUP2 PUSH2 0x2EB7 PUSH1 0x7 PUSH2 0x16E5 JUMP JUMPDEST PUSH2 0x2EC1 PUSH1 0x6 PUSH2 0x16E5 JUMP JUMPDEST PUSH2 0x2ECB PUSH1 0x2 PUSH2 0x16E5 JUMP JUMPDEST PUSH1 0x1 PUSH2 0x2ED8 PUSH1 0x7 DUP3 PUSH2 0x4013 JUMP JUMPDEST PUSH2 0x2EE3 SWAP1 PUSH1 0x2 PUSH2 0x410C JUMP JUMPDEST PUSH2 0x2EED SWAP2 SWAP1 PUSH2 0x3C05 JUMP JUMPDEST XOR XOR XOR PUSH2 0x1707 JUMP JUMPDEST POP PUSH0 DUP2 DUP2 MSTORE PUSH1 0x4 PUSH1 0x20 MSTORE PUSH1 0x40 SWAP1 DUP2 SWAP1 KECCAK256 DUP1 SLOAD PUSH1 0x1 PUSH1 0x1 PUSH1 0xF8 SHL SUB AND PUSH1 0x1 PUSH1 0xF8 SHL OR SWAP1 SSTORE MLOAD PUSH32 0x789CF55BE980739DAD1D0699B93B58E806B51C9D96619BFA8FE0A28ABAA7B30C SWAP1 PUSH2 0xD37 SWAP1 DUP4 DUP2 MSTORE PUSH1 0x20 ADD SWAP1 JUMP JUMPDEST PUSH0 DUP1 DUP1 PUSH32 0x7FFFFFFFFFFFFFFFFFFFFFFFFFFFFFFF5D576E7357A4501DDFE92F46681B20A0 DUP5 GT ISZERO PUSH2 0x2F81 JUMPI POP PUSH0 SWAP2 POP PUSH1 0x3 SWAP1 POP DUP3 PUSH2 0x3006 JUMP JUMPDEST PUSH1 0x40 DUP1 MLOAD PUSH0 DUP1 DUP3 MSTORE PUSH1 0x20 DUP3 ADD DUP1 DUP5 MSTORE DUP11 SWAP1 MSTORE PUSH1 0xFF DUP10 AND SWAP3 DUP3 ADD SWAP3 SWAP1 SWAP3 MSTORE PUSH1 0x60 DUP2 ADD DUP8 SWAP1 MSTORE PUSH1 0x80 DUP2 ADD DUP7 SWAP1 MSTORE PUSH1 0x1 SWAP1 PUSH1 0xA0 ADD PUSH1 0x20 PUSH1 0x40 MLOAD PUSH1 0x20 DUP2 SUB SWAP1 DUP1 DUP5 SUB SWAP1 DUP6 GAS STATICCALL ISZERO DUP1 ISZERO PUSH2 0x2FD2 JUMPI RETURNDATASIZE PUSH0 DUP1 RETURNDATACOPY RETURNDATASIZE PUSH0 REVERT JUMPDEST POP POP PUSH1 0x40 MLOAD PUSH1 0x1F NOT ADD MLOAD SWAP2 POP POP PUSH1 0x1 PUSH1 0x1 PUSH1 0xA0 SHL SUB DUP2 AND PUSH2 0x2FFD JUMPI POP PUSH0 SWAP3 POP PUSH1 0x1 SWAP2 POP DUP3 SWAP1 POP PUSH2 0x3006 JUMP JUMPDEST SWAP3 POP PUSH0 SWAP2 POP DUP2 SWAP1 POP JUMPDEST SWAP5 POP SWAP5 POP SWAP5 SWAP2 POP POP JUMP JUMPDEST PUSH0 DUP1 PUSH1 0x80 DUP4 SWAP1 SHR ISZERO PUSH2 0x3024 JUMPI PUSH1 0x80 SWAP3 DUP4 SHR SWAP3 ADD JUMPDEST PUSH1 0x40 DUP4 SWAP1 SHR ISZERO PUSH2 0x3036 JUMPI PUSH1 0x40 SWAP3 DUP4 SHR SWAP3 ADD JUMPDEST PUSH1 0x20 DUP4 SWAP1 SHR ISZERO PUSH2 0x3048 JUMPI PUSH1 0x20 SWAP3 DUP4 SHR SWAP3 ADD JUMPDEST PUSH1 0x10 DUP4 SWAP1 SHR ISZERO PUSH2 0x305A JUMPI PUSH1 0x10 SWAP3 DUP4 SHR SWAP3 ADD JUMPDEST PUSH1 0x8 DUP4 SWAP1 SHR ISZERO PUSH2 0x306C JUMPI PUSH1 0x8 SWAP3 DUP4 SHR SWAP3 ADD JUMPDEST PUSH1 0x4 DUP4 SWAP1 SHR ISZERO PUSH2 0x307E JUMPI PUSH1 0x4 SWAP3 DUP4 SHR SWAP3 ADD JUMPDEST PUSH1 0x2 DUP4 SWAP1 SHR ISZERO PUSH2 0x3090 JUMPI PUSH1 0x2 SWAP3 DUP4 SHR SWAP3 ADD JUMPDEST PUSH1 0x1 DUP4 SWAP1 SHR ISZERO PUSH2 0xA28 JUMPI PUSH1 0x1 ADD SWAP3 SWAP2 POP POP JUMP JUMPDEST PUSH0 DUP2 DUP4 LT PUSH2 0x30B1 JUMPI DUP2 PUSH2 0x1572 JUMP JUMPDEST POP SWAP1 SWAP2 SWAP1 POP JUMP JUMPDEST PUSH0 PUSH2 0x30C6 PUSH1 0x2 DUP5 DUP5 XOR PUSH2 0x3F1D JUMP JUMPDEST PUSH2 0x1572 SWAP1 DUP5 DUP5 AND PUSH2 0x3DF3 JUMP JUMPDEST PUSH1 0x60 PUSH0 PUSH2 0x30DE DUP4 PUSH2 0x310F JUMP JUMPDEST PUSH1 0x40 DUP1 MLOAD PUSH1 0x20 DUP1 DUP3 MSTORE DUP2 DUP4 ADD SWAP1 SWAP3 MSTORE SWAP2 SWAP3 POP PUSH0 SWAP2 SWAP1 PUSH1 0x20 DUP3 ADD DUP2 DUP1 CALLDATASIZE DUP4 CALLDATACOPY POP POP POP SWAP2 DUP3 MSTORE POP PUSH1 0x20 DUP2 ADD SWAP3 SWAP1 SWAP3 MSTORE POP SWAP1 JUMP JUMPDEST PUSH0 PUSH1 0xFF DUP3 AND PUSH1 0x1F DUP2 GT ISZERO PUSH2 0xA28 JUMPI PUSH1 0x40 MLOAD PUSH4 0x2CD44AC3 PUSH1 0xE2 SHL DUP2 MSTORE PUSH1 0x4 ADD PUSH1 0x40 MLOAD DUP1 SWAP2 SUB SWAP1 REVERT JUMPDEST PUSH0 PUSH1 0x20 DUP3 DUP5 SUB SLT ISZERO PUSH2 0x3146 JUMPI PUSH0 DUP1 REVERT JUMPDEST DUP2 CALLDATALOAD PUSH1 0x1 PUSH1 0x1 PUSH1 0xE0 SHL SUB NOT DUP2 AND DUP2 EQ PUSH2 0x1572 JUMPI PUSH0 DUP1 REVERT JUMPDEST PUSH0 PUSH1 0x20 DUP3 DUP5 SUB SLT ISZERO PUSH2 0x316D JUMPI PUSH0 DUP1 REVERT JUMPDEST POP CALLDATALOAD SWAP2 SWAP1 POP JUMP JUMPDEST PUSH0 JUMPDEST DUP4 DUP2 LT ISZERO PUSH2 0x318E JUMPI DUP2 DUP2 ADD MLOAD DUP4 DUP3 ADD MSTORE PUSH1 0x20 ADD PUSH2 0x3176 JUMP JUMPDEST POP POP PUSH0 SWAP2 ADD MSTORE JUMP JUMPDEST PUSH0 DUP2 MLOAD DUP1 DUP5 MSTORE PUSH2 0x31AD DUP2 PUSH1 0x20 DUP7 ADD PUSH1 0x20 DUP7 ADD PUSH2 0x3174 JUMP JUMPDEST PUSH1 0x1F ADD PUSH1 0x1F NOT AND SWAP3 SWAP1 SWAP3 ADD PUSH1 0x20 ADD SWAP3 SWAP2 POP POP JUMP JUMPDEST PUSH1 0x20 DUP2 MSTORE PUSH0 PUSH2 0x1572 PUSH1 0x20 DUP4 ADD DUP5 PUSH2 0x3196 JUMP JUMPDEST PUSH1 0x1 PUSH1 0x1 PUSH1 0xA0 SHL SUB DUP2 AND DUP2 EQ PUSH2 0xA3F JUMPI PUSH0 DUP1 REVERT JUMPDEST PUSH4 0x4E487B71 PUSH1 0xE0 SHL PUSH0 MSTORE PUSH1 0x41 PUSH1 0x4 MSTORE PUSH1 0x24 PUSH0 REVERT JUMPDEST PUSH1 0x40 MLOAD PUSH1 0x1F DUP3 ADD PUSH1 0x1F NOT AND DUP2 ADD PUSH1 0x1 PUSH1 0x1 PUSH1 0x40 SHL SUB DUP2 GT DUP3 DUP3 LT OR ISZERO PUSH2 0x3223 JUMPI PUSH2 0x3223 PUSH2 0x31E7 JUMP JUMPDEST PUSH1 0x40 MSTORE SWAP2 SWAP1 POP JUMP JUMPDEST PUSH0 PUSH1 0x1 PUSH1 0x1 PUSH1 0x40 SHL SUB DUP3 GT ISZERO PUSH2 0x3243 JUMPI PUSH2 0x3243 PUSH2 0x31E7 JUMP JUMPDEST POP PUSH1 0x1F ADD PUSH1 0x1F NOT AND PUSH1 0x20 ADD SWAP1 JUMP JUMPDEST PUSH0 PUSH2 0x3263 PUSH2 0x325E DUP5 PUSH2 0x322B JUMP JUMPDEST PUSH2 0x31FB JUMP JUMPDEST SWAP1 POP DUP3 DUP2 MSTORE DUP4 DUP4 DUP4 ADD GT ISZERO PUSH2 0x3276 JUMPI PUSH0 DUP1 REVERT JUMPDEST DUP3 DUP3 PUSH1 0x20 DUP4 ADD CALLDATACOPY PUSH0 PUSH1 0x20 DUP5 DUP4 ADD ADD MSTORE SWAP4 SWAP3 POP POP POP JUMP JUMPDEST PUSH0 DUP3 PUSH1 0x1F DUP4 ADD SLT PUSH2 0x329B JUMPI PUSH0 DUP1 REVERT JUMPDEST PUSH2 0x1572 DUP4 DUP4 CALLDATALOAD PUSH1 0x20 DUP6 ADD PUSH2 0x3251 JUMP JUMPDEST PUSH0 DUP1 PUSH0 DUP1 PUSH1 0x80 DUP6 DUP8 SUB SLT ISZERO PUSH2 0x32BD JUMPI PUSH0 DUP1 REVERT JUMPDEST DUP5 CALLDATALOAD PUSH2 0x32C8 DUP2 PUSH2 0x31D3 JUMP JUMPDEST SWAP4 POP PUSH1 0x20 DUP6 ADD CALLDATALOAD PUSH2 0x32D8 DUP2 PUSH2 0x31D3 JUMP JUMPDEST SWAP3 POP PUSH1 0x40 DUP6 ADD CALLDATALOAD SWAP2 POP PUSH1 0x60 DUP6 ADD CALLDATALOAD PUSH1 0x1 PUSH1 0x1 PUSH1 0x40 SHL SUB DUP2 GT ISZERO PUSH2 0x32F9 JUMPI PUSH0 DUP1 REVERT JUMPDEST PUSH2 0x3305 DUP8 DUP3 DUP9 ADD PUSH2 0x328C JUMP JUMPDEST SWAP2 POP POP SWAP3 SWAP6 SWAP2 SWAP5 POP SWAP3 POP JUMP JUMPDEST PUSH0 PUSH1 0x1 PUSH1 0x1 PUSH1 0x40 SHL SUB DUP3 GT ISZERO PUSH2 0x3329 JUMPI PUSH2 0x3329 PUSH2 0x31E7 JUMP JUMPDEST POP PUSH1 0x5 SHL PUSH1 0x20 ADD SWAP1 JUMP JUMPDEST PUSH0 DUP3 PUSH1 0x1F DUP4 ADD SLT PUSH2 0x3342 JUMPI PUSH0 DUP1 REVERT JUMPDEST DUP2 CALLDATALOAD PUSH1 0x20 PUSH2 0x3352 PUSH2 0x325E DUP4 PUSH2 0x3311 JUMP JUMPDEST DUP1 DUP4 DUP3 MSTORE PUSH1 0x20 DUP3 ADD SWAP2 POP PUSH1 0x20 DUP5 PUSH1 0x5 SHL DUP8 ADD ADD SWAP4 POP DUP7 DUP5 GT ISZERO PUSH2 0x3373 JUMPI PUSH0 DUP1 REVERT JUMPDEST PUSH1 0x20 DUP7 ADD JUMPDEST DUP5 DUP2 LT ISZERO PUSH2 0x3398 JUMPI DUP1 CALLDATALOAD PUSH2 0x338B DUP2 PUSH2 0x31D3 JUMP JUMPDEST DUP4 MSTORE SWAP2 DUP4 ADD SWAP2 DUP4 ADD PUSH2 0x3378 JUMP JUMPDEST POP SWAP7 SWAP6 POP POP POP POP POP POP JUMP JUMPDEST PUSH0 DUP3 PUSH1 0x1F DUP4 ADD SLT PUSH2 0x33B2 JUMPI PUSH0 DUP1 REVERT JUMPDEST DUP2 CALLDATALOAD PUSH1 0x20 PUSH2 0x33C2 PUSH2 0x325E DUP4 PUSH2 0x3311 JUMP JUMPDEST DUP1 DUP4 DUP3 MSTORE PUSH1 0x20 DUP3 ADD SWAP2 POP PUSH1 0x20 DUP5 PUSH1 0x5 SHL DUP8 ADD ADD SWAP4 POP DUP7 DUP5 GT ISZERO PUSH2 0x33E3 JUMPI PUSH0 DUP1 REVERT JUMPDEST PUSH1 0x20 DUP7 ADD JUMPDEST DUP5 DUP2 LT ISZERO PUSH2 0x3398 JUMPI DUP1 CALLDATALOAD DUP4 MSTORE SWAP2 DUP4 ADD SWAP2 DUP4 ADD PUSH2 0x33E8 JUMP JUMPDEST PUSH0 DUP3 PUSH1 0x1F DUP4 ADD SLT PUSH2 0x340E JUMPI PUSH0 DUP1 REVERT JUMPDEST DUP2 CALLDATALOAD PUSH1 0x20 PUSH2 0x341E PUSH2 0x325E DUP4 PUSH2 0x3311 JUMP JUMPDEST DUP3 DUP2 MSTORE PUSH1 0x5 SWAP3 SWAP1 SWAP3 SHL DUP5 ADD DUP2 ADD SWAP2 DUP2 DUP2 ADD SWAP1 DUP7 DUP5 GT ISZERO PUSH2 0x343C JUMPI PUSH0 DUP1 REVERT JUMPDEST DUP3 DUP7 ADD JUMPDEST DUP5 DUP2 LT ISZERO PUSH2 0x3398 JUMPI DUP1 CALLDATALOAD PUSH1 0x1 PUSH1 0x1 PUSH1 0x40 SHL SUB DUP2 GT ISZERO PUSH2 0x345D JUMPI PUSH0 DUP1 REVERT JUMPDEST PUSH2 0x346B DUP10 DUP7 DUP4 DUP12 ADD ADD PUSH2 0x328C JUMP JUMPDEST DUP5 MSTORE POP SWAP2 DUP4 ADD SWAP2 DUP4 ADD PUSH2 0x3440 JUMP JUMPDEST PUSH0 DUP1 PUSH0 DUP1 PUSH1 0x80 DUP6 DUP8 SUB SLT ISZERO PUSH2 0x348C JUMPI PUSH0 DUP1 REVERT JUMPDEST DUP5 CALLDATALOAD PUSH1 0x1 PUSH1 0x1 PUSH1 0x40 SHL SUB DUP1 DUP3 GT ISZERO PUSH2 0x34A2 JUMPI PUSH0 DUP1 REVERT JUMPDEST PUSH2 0x34AE DUP9 DUP4 DUP10 ADD PUSH2 0x3333 JUMP JUMPDEST SWAP6 POP PUSH1 0x20 DUP8 ADD CALLDATALOAD SWAP2 POP DUP1 DUP3 GT ISZERO PUSH2 0x34C3 JUMPI PUSH0 DUP1 REVERT JUMPDEST PUSH2 0x34CF DUP9 DUP4 DUP10 ADD PUSH2 0x33A3 JUMP JUMPDEST SWAP5 POP PUSH1 0x40 DUP8 ADD CALLDATALOAD SWAP2 POP DUP1 DUP3 GT ISZERO PUSH2 0x34E4 JUMPI PUSH0 DUP1 REVERT JUMPDEST POP PUSH2 0x34F1 DUP8 DUP3 DUP9 ADD PUSH2 0x33FF JUMP JUMPDEST SWAP5 SWAP8 SWAP4 SWAP7 POP SWAP4 SWAP5 PUSH1 0x60 ADD CALLDATALOAD SWAP4 POP POP POP JUMP JUMPDEST PUSH4 0x4E487B71 PUSH1 0xE0 SHL PUSH0 MSTORE PUSH1 0x21 PUSH1 0x4 MSTORE PUSH1 0x24 PUSH0 REVERT JUMPDEST PUSH1 0x8 DUP2 LT PUSH2 0x3532 JUMPI PUSH4 0x4E487B71 PUSH1 0xE0 SHL PUSH0 MSTORE PUSH1 0x21 PUSH1 0x4 MSTORE PUSH1 0x24 PUSH0 REVERT JUMPDEST SWAP1 MSTORE JUMP JUMPDEST PUSH1 0x20 DUP2 ADD PUSH2 0xA28 DUP3 DUP5 PUSH2 0x3516 JUMP JUMPDEST PUSH0 DUP1 PUSH1 0x40 DUP4 DUP6 SUB SLT ISZERO PUSH2 0x3555 JUMPI PUSH0 DUP1 REVERT JUMPDEST DUP3 CALLDATALOAD SWAP2 POP PUSH1 0x20 DUP4 ADD CALLDATALOAD PUSH2 0x3567 DUP2 PUSH2 0x31D3 JUMP JUMPDEST DUP1 SWAP2 POP POP SWAP3 POP SWAP3 SWAP1 POP JUMP JUMPDEST DUP1 CALLDATALOAD PUSH1 0xFF DUP2 AND DUP2 EQ PUSH2 0xEB0 JUMPI PUSH0 DUP1 REVERT JUMPDEST PUSH0 DUP1 PUSH1 0x40 DUP4 DUP6 SUB SLT ISZERO PUSH2 0x3593 JUMPI PUSH0 DUP1 REVERT JUMPDEST DUP3 CALLDATALOAD SWAP2 POP PUSH2 0x35A3 PUSH1 0x20 DUP5 ADD PUSH2 0x3572 JUMP JUMPDEST SWAP1 POP SWAP3 POP SWAP3 SWAP1 POP JUMP JUMPDEST PUSH0 DUP1 DUP4 PUSH1 0x1F DUP5 ADD SLT PUSH2 0x35BC JUMPI PUSH0 DUP1 REVERT JUMPDEST POP DUP2 CALLDATALOAD PUSH1 0x1 PUSH1 0x1 PUSH1 0x40 SHL SUB DUP2 GT ISZERO PUSH2 0x35D2 JUMPI PUSH0 DUP1 REVERT JUMPDEST PUSH1 0x20 DUP4 ADD SWAP2 POP DUP4 PUSH1 0x20 DUP3 DUP6 ADD ADD GT ISZERO PUSH2 0x35E9 JUMPI PUSH0 DUP1 REVERT JUMPDEST SWAP3 POP SWAP3 SWAP1 POP JUMP JUMPDEST PUSH0 DUP1 PUSH0 DUP1 PUSH0 DUP1 PUSH0 PUSH1 0xC0 DUP9 DUP11 SUB SLT ISZERO PUSH2 0x3606 JUMPI PUSH0 DUP1 REVERT JUMPDEST DUP8 CALLDATALOAD SWAP7 POP PUSH2 0x3616 PUSH1 0x20 DUP10 ADD PUSH2 0x3572 JUMP JUMPDEST SWAP6 POP PUSH1 0x40 DUP9 ADD CALLDATALOAD PUSH2 0x3626 DUP2 PUSH2 0x31D3 JUMP JUMPDEST SWAP5 POP PUSH1 0x60 DUP9 ADD CALLDATALOAD PUSH1 0x1 PUSH1 0x1 PUSH1 0x40 SHL SUB DUP1 DUP3 GT ISZERO PUSH2 0x3641 JUMPI PUSH0 DUP1 REVERT JUMPDEST PUSH2 0x364D DUP12 DUP4 DUP13 ADD PUSH2 0x35AC JUMP JUMPDEST SWAP1 SWAP7 POP SWAP5 POP PUSH1 0x80 DUP11 ADD CALLDATALOAD SWAP2 POP DUP1 DUP3 GT ISZERO PUSH2 0x3665 JUMPI PUSH0 DUP1 REVERT JUMPDEST PUSH2 0x3671 DUP12 DUP4 DUP13 ADD PUSH2 0x328C JUMP JUMPDEST SWAP4 POP PUSH1 0xA0 DUP11 ADD CALLDATALOAD SWAP2 POP DUP1 DUP3 GT ISZERO PUSH2 0x3686 JUMPI PUSH0 DUP1 REVERT JUMPDEST POP PUSH2 0x3693 DUP11 DUP3 DUP12 ADD PUSH2 0x328C JUMP JUMPDEST SWAP2 POP POP SWAP3 SWAP6 SWAP9 SWAP2 SWAP5 SWAP8 POP SWAP3 SWAP6 POP JUMP JUMPDEST PUSH0 DUP1 PUSH0 DUP1 PUSH0 PUSH1 0x80 DUP7 DUP9 SUB SLT ISZERO PUSH2 0x36B6 JUMPI PUSH0 DUP1 REVERT JUMPDEST DUP6 CALLDATALOAD SWAP5 POP PUSH2 0x36C6 PUSH1 0x20 DUP8 ADD PUSH2 0x3572 JUMP JUMPDEST SWAP4 POP PUSH1 0x40 DUP7 ADD CALLDATALOAD PUSH1 0x1 PUSH1 0x1 PUSH1 0x40 SHL SUB DUP1 DUP3 GT ISZERO PUSH2 0x36E1 JUMPI PUSH0 DUP1 REVERT JUMPDEST PUSH2 0x36ED DUP10 DUP4 DUP11 ADD PUSH2 0x35AC JUMP JUMPDEST SWAP1 SWAP6 POP SWAP4 POP PUSH1 0x60 DUP9 ADD CALLDATALOAD SWAP2 POP DUP1 DUP3 GT ISZERO PUSH2 0x3705 JUMPI PUSH0 DUP1 REVERT JUMPDEST POP PUSH2 0x3712 DUP9 DUP3 DUP10 ADD PUSH2 0x328C JUMP JUMPDEST SWAP2 POP POP SWAP3 SWAP6 POP SWAP3 SWAP6 SWAP1 SWAP4 POP JUMP JUMPDEST PUSH6 0xFFFFFFFFFFFF DUP2 AND DUP2 EQ PUSH2 0xA3F JUMPI PUSH0 DUP1 REVERT JUMPDEST PUSH0 PUSH1 0x20 DUP3 DUP5 SUB SLT ISZERO PUSH2 0x3742 JUMPI PUSH0 DUP1 REVERT JUMPDEST DUP2 CALLDATALOAD PUSH2 0x1572 DUP2 PUSH2 0x371F JUMP JUMPDEST PUSH0 DUP1 PUSH0 DUP1 PUSH1 0x60 DUP6 DUP8 SUB SLT ISZERO PUSH2 0x3760 JUMPI PUSH0 DUP1 REVERT JUMPDEST DUP5 CALLDATALOAD SWAP4 POP PUSH2 0x3770 PUSH1 0x20 DUP7 ADD PUSH2 0x3572 JUMP JUMPDEST SWAP3 POP PUSH1 0x40 DUP6 ADD CALLDATALOAD PUSH1 0x1 PUSH1 0x1 PUSH1 0x40 SHL SUB DUP2 GT ISZERO PUSH2 0x378A JUMPI PUSH0 DUP1 REVERT JUMPDEST PUSH2 0x3796 DUP8 DUP3 DUP9 ADD PUSH2 0x35AC JUMP JUMPDEST SWAP6 SWAP9 SWAP5 SWAP8 POP SWAP6 POP POP POP POP JUMP JUMPDEST PUSH0 DUP1 PUSH0 DUP1 PUSH1 0x80 DUP6 DUP8 SUB SLT ISZERO PUSH2 0x37B5 JUMPI PUSH0 DUP1 REVERT JUMPDEST DUP5 CALLDATALOAD PUSH1 0x1 PUSH1 0x1 PUSH1 0x40 SHL SUB DUP1 DUP3 GT ISZERO PUSH2 0x37CB JUMPI PUSH0 DUP1 REVERT JUMPDEST PUSH2 0x37D7 DUP9 DUP4 DUP10 ADD PUSH2 0x3333 JUMP JUMPDEST SWAP6 POP PUSH1 0x20 DUP8 ADD CALLDATALOAD SWAP2 POP DUP1 DUP3 GT ISZERO PUSH2 0x37EC JUMPI PUSH0 DUP1 REVERT JUMPDEST PUSH2 0x37F8 DUP9 DUP4 DUP10 ADD PUSH2 0x33A3 JUMP JUMPDEST SWAP5 POP PUSH1 0x40 DUP8 ADD CALLDATALOAD SWAP2 POP DUP1 DUP3 GT ISZERO PUSH2 0x380D JUMPI PUSH0 DUP1 REVERT JUMPDEST PUSH2 0x3819 DUP9 DUP4 DUP10 ADD PUSH2 0x33FF JUMP JUMPDEST SWAP4 POP PUSH1 0x60 DUP8 ADD CALLDATALOAD SWAP2 POP DUP1 DUP3 GT ISZERO PUSH2 0x382E JUMPI PUSH0 DUP1 REVERT JUMPDEST POP DUP6 ADD PUSH1 0x1F DUP2 ADD DUP8 SGT PUSH2 0x383F JUMPI PUSH0 DUP1 REVERT JUMPDEST PUSH2 0x3305 DUP8 DUP3 CALLDATALOAD PUSH1 0x20 DUP5 ADD PUSH2 0x3251 JUMP JUMPDEST PUSH0 PUSH1 0x20 DUP3 DUP5 SUB SLT ISZERO PUSH2 0x385E JUMPI PUSH0 DUP1 REVERT JUMPDEST DUP2 CALLDATALOAD PUSH2 0x1572 DUP2 PUSH2 0x31D3 JUMP JUMPDEST PUSH0 DUP2 MLOAD DUP1 DUP5 MSTORE PUSH1 0x20 DUP1 DUP6 ADD SWAP5 POP PUSH1 0x20 DUP5 ADD PUSH0 JUMPDEST DUP4 DUP2 LT ISZERO PUSH2 0x3898 JUMPI DUP2 MLOAD DUP8 MSTORE SWAP6 DUP3 ADD SWAP6 SWAP1 DUP3 ADD SWAP1 PUSH1 0x1 ADD PUSH2 0x387C JUMP JUMPDEST POP SWAP5 SWAP6 SWAP5 POP POP POP POP POP JUMP JUMPDEST PUSH1 0xFF PUSH1 0xF8 SHL DUP9 AND DUP2 MSTORE PUSH1 0xE0 PUSH1 0x20 DUP3 ADD MSTORE PUSH0 PUSH2 0x38C1 PUSH1 0xE0 DUP4 ADD DUP10 PUSH2 0x3196 JUMP JUMPDEST DUP3 DUP2 SUB PUSH1 0x40 DUP5 ADD MSTORE PUSH2 0x38D3 DUP2 DUP10 PUSH2 0x3196 JUMP JUMPDEST PUSH1 0x60 DUP5 ADD DUP9 SWAP1 MSTORE PUSH1 0x1 PUSH1 0x1 PUSH1 0xA0 SHL SUB DUP8 AND PUSH1 0x80 DUP6 ADD MSTORE PUSH1 0xA0 DUP5 ADD DUP7 SWAP1 MSTORE DUP4 DUP2 SUB PUSH1 0xC0 DUP6 ADD MSTORE SWAP1 POP PUSH2 0x3904 DUP2 DUP6 PUSH2 0x3869 JUMP JUMPDEST SWAP11 SWAP10 POP POP POP POP POP POP POP POP POP POP JUMP JUMPDEST PUSH0 DUP1 PUSH0 DUP1 PUSH1 0x80 DUP6 DUP8 SUB SLT ISZERO PUSH2 0x3925 JUMPI PUSH0 DUP1 REVERT JUMPDEST DUP5 CALLDATALOAD SWAP4 POP PUSH2 0x3935 PUSH1 0x20 DUP7 ADD PUSH2 0x3572 JUMP JUMPDEST SWAP3 POP PUSH1 0x40 DUP6 ADD CALLDATALOAD PUSH2 0x3945 DUP2 PUSH2 0x31D3 JUMP JUMPDEST SWAP2 POP PUSH1 0x60 DUP6 ADD CALLDATALOAD PUSH1 0x1 PUSH1 0x1 PUSH1 0x40 SHL SUB DUP2 GT ISZERO PUSH2 0x32F9 JUMPI PUSH0 DUP1 REVERT JUMPDEST PUSH0 DUP1 PUSH0 PUSH1 0x60 DUP5 DUP7 SUB SLT ISZERO PUSH2 0x3971 JUMPI PUSH0 DUP1 REVERT JUMPDEST DUP4 CALLDATALOAD PUSH2 0x397C DUP2 PUSH2 0x31D3 JUMP JUMPDEST SWAP3 POP PUSH1 0x20 DUP5 ADD CALLDATALOAD SWAP2 POP PUSH1 0x40 DUP5 ADD CALLDATALOAD PUSH1 0x1 PUSH1 0x1 PUSH1 0x40 SHL SUB DUP2 GT ISZERO PUSH2 0x399D JUMPI PUSH0 DUP1 REVERT JUMPDEST PUSH2 0x39A9 DUP7 DUP3 DUP8 ADD PUSH2 0x328C JUMP JUMPDEST SWAP2 POP POP SWAP3 POP SWAP3 POP SWAP3 JUMP JUMPDEST PUSH0 DUP1 PUSH0 DUP1 PUSH0 PUSH1 0xA0 DUP7 DUP9 SUB SLT ISZERO PUSH2 0x39C7 JUMPI PUSH0 DUP1 REVERT JUMPDEST DUP6 CALLDATALOAD PUSH2 0x39D2 DUP2 PUSH2 0x31D3 JUMP JUMPDEST SWAP5 POP PUSH1 0x20 DUP7 ADD CALLDATALOAD PUSH2 0x39E2 DUP2 PUSH2 0x31D3 JUMP JUMPDEST SWAP4 POP PUSH1 0x40 DUP7 ADD CALLDATALOAD PUSH1 0x1 PUSH1 0x1 PUSH1 0x40 SHL SUB DUP1 DUP3 GT ISZERO PUSH2 0x39FD JUMPI PUSH0 DUP1 REVERT JUMPDEST PUSH2 0x3A09 DUP10 DUP4 DUP11 ADD PUSH2 0x33A3 JUMP JUMPDEST SWAP5 POP PUSH1 0x60 DUP9 ADD CALLDATALOAD SWAP2 POP DUP1 DUP3 GT ISZERO PUSH2 0x3A1E JUMPI PUSH0 DUP1 REVERT JUMPDEST PUSH2 0x3A2A DUP10 DUP4 DUP11 ADD PUSH2 0x33A3 JUMP JUMPDEST SWAP4 POP PUSH1 0x80 DUP9 ADD CALLDATALOAD SWAP2 POP DUP1 DUP3 GT ISZERO PUSH2 0x3705 JUMPI PUSH0 DUP1 REVERT JUMPDEST PUSH0 DUP1 PUSH0 DUP1 PUSH1 0x60 DUP6 DUP8 SUB SLT ISZERO PUSH2 0x3A52 JUMPI PUSH0 DUP1 REVERT JUMPDEST DUP5 CALLDATALOAD PUSH2 0x3A5D DUP2 PUSH2 0x31D3 JUMP JUMPDEST SWAP4 POP PUSH1 0x20 DUP6 ADD CALLDATALOAD SWAP3 POP PUSH1 0x40 DUP6 ADD CALLDATALOAD PUSH1 0x1 PUSH1 0x1 PUSH1 0x40 SHL SUB DUP2 GT ISZERO PUSH2 0x378A JUMPI PUSH0 DUP1 REVERT JUMPDEST PUSH0 PUSH1 0x20 DUP3 DUP5 SUB SLT ISZERO PUSH2 0x3A8E JUMPI PUSH0 DUP1 REVERT JUMPDEST DUP2 CALLDATALOAD PUSH4 0xFFFFFFFF DUP2 AND DUP2 EQ PUSH2 0x1572 JUMPI PUSH0 DUP1 REVERT JUMPDEST PUSH0 DUP1 PUSH1 0x40 DUP4 DUP6 SUB SLT ISZERO PUSH2 0x3AB2 JUMPI PUSH0 DUP1 REVERT JUMPDEST DUP3 CALLDATALOAD PUSH2 0x3ABD DUP2 PUSH2 0x31D3 JUMP JUMPDEST SWAP5 PUSH1 0x20 SWAP4 SWAP1 SWAP4 ADD CALLDATALOAD SWAP4 POP POP POP JUMP JUMPDEST PUSH0 DUP1 PUSH0 DUP1 PUSH0 PUSH1 0xA0 DUP7 DUP9 SUB SLT ISZERO PUSH2 0x3ADF JUMPI PUSH0 DUP1 REVERT JUMPDEST DUP6 CALLDATALOAD PUSH2 0x3AEA DUP2 PUSH2 0x31D3 JUMP JUMPDEST SWAP5 POP PUSH1 0x20 DUP7 ADD CALLDATALOAD PUSH2 0x3AFA DUP2 PUSH2 0x31D3 JUMP JUMPDEST SWAP4 POP PUSH1 0x40 DUP7 ADD CALLDATALOAD SWAP3 POP PUSH1 0x60 DUP7 ADD CALLDATALOAD SWAP2 POP PUSH1 0x80 DUP7 ADD CALLDATALOAD PUSH1 0x1 PUSH1 0x1 PUSH1 0x40 SHL SUB DUP2 GT ISZERO PUSH2 0x3B22 JUMPI PUSH0 DUP1 REVERT JUMPDEST PUSH2 0x3712 DUP9 DUP3 DUP10 ADD PUSH2 0x328C JUMP JUMPDEST PUSH1 0x1 DUP2 DUP2 SHR SWAP1 DUP3 AND DUP1 PUSH2 0x3B42 JUMPI PUSH1 0x7F DUP3 AND SWAP2 POP JUMPDEST PUSH1 0x20 DUP3 LT DUP2 SUB PUSH2 0x3B60 JUMPI PUSH4 0x4E487B71 PUSH1 0xE0 SHL PUSH0 MSTORE PUSH1 0x22 PUSH1 0x4 MSTORE PUSH1 0x24 PUSH0 REVERT JUMPDEST POP SWAP2 SWAP1 POP JUMP JUMPDEST PUSH4 0x4E487B71 PUSH1 0xE0 SHL PUSH0 MSTORE PUSH1 0x32 PUSH1 0x4 MSTORE PUSH1 0x24 PUSH0 REVERT JUMPDEST PUSH0 PUSH1 0x20 DUP3 DUP5 SUB SLT ISZERO PUSH2 0x3B8A JUMPI PUSH0 DUP1 REVERT JUMPDEST DUP2 MLOAD PUSH1 0x1 PUSH1 0x1 PUSH1 0x40 SHL SUB DUP2 GT ISZERO PUSH2 0x3B9F JUMPI PUSH0 DUP1 REVERT JUMPDEST DUP3 ADD PUSH1 0x1F DUP2 ADD DUP5 SGT PUSH2 0x3BAF JUMPI PUSH0 DUP1 REVERT JUMPDEST DUP1 MLOAD PUSH2 0x3BBD PUSH2 0x325E DUP3 PUSH2 0x322B JUMP JUMPDEST DUP2 DUP2 MSTORE DUP6 PUSH1 0x20 DUP4 DUP6 ADD ADD GT ISZERO PUSH2 0x3BD1 JUMPI PUSH0 DUP1 REVERT JUMPDEST PUSH2 0x191C DUP3 PUSH1 0x20 DUP4 ADD PUSH1 0x20 DUP7 ADD PUSH2 0x3174 JUMP JUMPDEST DUP2 DUP4 DUP3 CALLDATACOPY PUSH0 SWAP2 ADD SWAP1 DUP2 MSTORE SWAP2 SWAP1 POP JUMP JUMPDEST PUSH4 0x4E487B71 PUSH1 0xE0 SHL PUSH0 MSTORE PUSH1 0x11 PUSH1 0x4 MSTORE PUSH1 0x24 PUSH0 REVERT JUMPDEST DUP2 DUP2 SUB DUP2 DUP2 GT ISZERO PUSH2 0xA28 JUMPI PUSH2 0xA28 PUSH2 0x3BF1 JUMP JUMPDEST PUSH6 0xFFFFFFFFFFFF DUP3 DUP2 AND DUP3 DUP3 AND SUB SWAP1 DUP1 DUP3 GT ISZERO PUSH2 0x3C37 JUMPI PUSH2 0x3C37 PUSH2 0x3BF1 JUMP JUMPDEST POP SWAP3 SWAP2 POP POP JUMP JUMPDEST PUSH0 PUSH1 0x20 DUP3 DUP5 SUB SLT ISZERO PUSH2 0x3C4E JUMPI PUSH0 DUP1 REVERT JUMPDEST DUP2 MLOAD PUSH2 0x1572 DUP2 PUSH2 0x371F JUMP JUMPDEST PUSH6 0xFFFFFFFFFFFF DUP2 DUP2 AND DUP4 DUP3 AND ADD SWAP1 DUP1 DUP3 GT ISZERO PUSH2 0x3C37 JUMPI PUSH2 0x3C37 PUSH2 0x3BF1 JUMP JUMPDEST PUSH0 DUP2 MLOAD DUP1 DUP5 MSTORE PUSH1 0x20 DUP1 DUP6 ADD SWAP5 POP PUSH1 0x20 DUP5 ADD PUSH0 JUMPDEST DUP4 DUP2 LT ISZERO PUSH2 0x3898 JUMPI DUP2 MLOAD PUSH1 0x1 PUSH1 0x1 PUSH1 0xA0 SHL SUB AND DUP8 MSTORE SWAP6 DUP3 ADD SWAP6 SWAP1 DUP3 ADD SWAP1 PUSH1 0x1 ADD PUSH2 0x3C8B JUMP JUMPDEST PUSH0 DUP3 DUP3 MLOAD DUP1 DUP6 MSTORE PUSH1 0x20 DUP1 DUP7 ADD SWAP6 POP PUSH1 0x20 DUP3 PUSH1 0x5 SHL DUP5 ADD ADD PUSH1 0x20 DUP7 ADD PUSH0 JUMPDEST DUP5 DUP2 LT ISZERO PUSH2 0x3CFB JUMPI PUSH1 0x1F NOT DUP7 DUP5 SUB ADD DUP10 MSTORE PUSH2 0x3CE9 DUP4 DUP4 MLOAD PUSH2 0x3196 JUMP JUMPDEST SWAP9 DUP5 ADD SWAP9 SWAP3 POP SWAP1 DUP4 ADD SWAP1 PUSH1 0x1 ADD PUSH2 0x3CCD JUMP JUMPDEST POP SWAP1 SWAP8 SWAP7 POP POP POP POP POP POP POP JUMP JUMPDEST PUSH1 0x80 DUP2 MSTORE PUSH0 PUSH2 0x3D1A PUSH1 0x80 DUP4 ADD DUP8 PUSH2 0x3C78 JUMP JUMPDEST DUP3 DUP2 SUB PUSH1 0x20 DUP5 ADD MSTORE PUSH2 0x3D2C DUP2 DUP8 PUSH2 0x3869 JUMP JUMPDEST SWAP1 POP DUP3 DUP2 SUB PUSH1 0x40 DUP5 ADD MSTORE PUSH2 0x3D40 DUP2 DUP7 PUSH2 0x3CB0 JUMP JUMPDEST SWAP2 POP POP DUP3 PUSH1 0x60 DUP4 ADD MSTORE SWAP6 SWAP5 POP POP POP POP POP JUMP JUMPDEST DUP4 DUP2 MSTORE PUSH1 0x60 DUP2 ADD PUSH2 0x3D66 PUSH1 0x20 DUP4 ADD DUP6 PUSH2 0x3516 JUMP JUMPDEST DUP3 PUSH1 0x40 DUP4 ADD MSTORE SWAP5 SWAP4 POP POP POP POP JUMP JUMPDEST PUSH0 PUSH1 0x20 DUP3 DUP5 SUB SLT ISZERO PUSH2 0x3D84 JUMPI PUSH0 DUP1 REVERT JUMPDEST DUP2 MLOAD DUP1 ISZERO ISZERO DUP2 EQ PUSH2 0x1572 JUMPI PUSH0 DUP1 REVERT JUMPDEST DUP5 DUP2 MSTORE PUSH1 0xFF DUP5 AND PUSH1 0x20 DUP3 ADD MSTORE DUP3 PUSH1 0x40 DUP3 ADD MSTORE PUSH1 0x80 PUSH1 0x60 DUP3 ADD MSTORE PUSH0 PUSH2 0xDEB PUSH1 0x80 DUP4 ADD DUP5 PUSH2 0x3196 JUMP JUMPDEST DUP6 DUP2 MSTORE PUSH1 0xFF DUP6 AND PUSH1 0x20 DUP3 ADD MSTORE DUP4 PUSH1 0x40 DUP3 ADD MSTORE PUSH1 0xA0 PUSH1 0x60 DUP3 ADD MSTORE PUSH0 PUSH2 0x3DE1 PUSH1 0xA0 DUP4 ADD DUP6 PUSH2 0x3196 JUMP JUMPDEST DUP3 DUP2 SUB PUSH1 0x80 DUP5 ADD MSTORE PUSH2 0x121C DUP2 DUP6 PUSH2 0x3196 JUMP JUMPDEST DUP1 DUP3 ADD DUP1 DUP3 GT ISZERO PUSH2 0xA28 JUMPI PUSH2 0xA28 PUSH2 0x3BF1 JUMP JUMPDEST PUSH0 PUSH2 0x120 DUP12 DUP4 MSTORE PUSH1 0x20 PUSH1 0x1 DUP1 PUSH1 0xA0 SHL SUB DUP13 AND DUP2 DUP6 ADD MSTORE DUP2 PUSH1 0x40 DUP6 ADD MSTORE PUSH2 0x3E2E DUP3 DUP6 ADD DUP13 PUSH2 0x3C78 JUMP JUMPDEST SWAP2 POP DUP4 DUP3 SUB PUSH1 0x60 DUP6 ADD MSTORE PUSH2 0x3E42 DUP3 DUP12 PUSH2 0x3869 JUMP JUMPDEST SWAP2 POP DUP4 DUP3 SUB PUSH1 0x80 DUP6 ADD MSTORE DUP2 DUP10 MLOAD DUP1 DUP5 MSTORE DUP3 DUP5 ADD SWAP2 POP DUP3 DUP2 PUSH1 0x5 SHL DUP6 ADD ADD DUP4 DUP13 ADD PUSH0 JUMPDEST DUP4 DUP2 LT ISZERO PUSH2 0x3E92 JUMPI PUSH1 0x1F NOT DUP8 DUP5 SUB ADD DUP6 MSTORE PUSH2 0x3E80 DUP4 DUP4 MLOAD PUSH2 0x3196 JUMP JUMPDEST SWAP5 DUP7 ADD SWAP5 SWAP3 POP SWAP1 DUP6 ADD SWAP1 PUSH1 0x1 ADD PUSH2 0x3E64 JUMP JUMPDEST POP POP DUP7 DUP2 SUB PUSH1 0xA0 DUP9 ADD MSTORE PUSH2 0x3EA6 DUP2 DUP13 PUSH2 0x3CB0 JUMP JUMPDEST SWAP5 POP POP POP POP POP DUP6 PUSH1 0xC0 DUP5 ADD MSTORE DUP5 PUSH1 0xE0 DUP5 ADD MSTORE DUP3 DUP2 SUB PUSH2 0x100 DUP5 ADD MSTORE PUSH2 0x3ECB DUP2 DUP6 PUSH2 0x3196 JUMP JUMPDEST SWAP13 SWAP12 POP POP POP POP POP POP POP POP POP POP POP POP JUMP JUMPDEST PUSH0 PUSH1 0x20 DUP3 DUP5 SUB SLT ISZERO PUSH2 0x3EEB JUMPI PUSH0 DUP1 REVERT JUMPDEST POP MLOAD SWAP2 SWAP1 POP JUMP JUMPDEST DUP1 DUP3 MUL DUP2 ISZERO DUP3 DUP3 DIV DUP5 EQ OR PUSH2 0xA28 JUMPI PUSH2 0xA28 PUSH2 0x3BF1 JUMP JUMPDEST PUSH4 0x4E487B71 PUSH1 0xE0 SHL PUSH0 MSTORE PUSH1 0x12 PUSH1 0x4 MSTORE PUSH1 0x24 PUSH0 REVERT JUMPDEST PUSH0 DUP3 PUSH2 0x3F37 JUMPI PUSH4 0x4E487B71 PUSH1 0xE0 SHL PUSH0 MSTORE PUSH1 0x12 PUSH1 0x4 MSTORE PUSH1 0x24 PUSH0 REVERT JUMPDEST POP DIV SWAP1 JUMP JUMPDEST PUSH1 0xA0 DUP2 MSTORE PUSH0 PUSH2 0x3F4E PUSH1 0xA0 DUP4 ADD DUP9 PUSH2 0x3C78 JUMP JUMPDEST DUP3 DUP2 SUB PUSH1 0x20 DUP5 ADD MSTORE PUSH2 0x3F60 DUP2 DUP9 PUSH2 0x3869 JUMP JUMPDEST SWAP1 POP DUP3 DUP2 SUB PUSH1 0x40 DUP5 ADD MSTORE PUSH2 0x3F74 DUP2 DUP8 PUSH2 0x3CB0 JUMP JUMPDEST PUSH1 0x60 DUP5 ADD SWAP6 SWAP1 SWAP6 MSTORE POP POP PUSH1 0x80 ADD MSTORE SWAP4 SWAP3 POP POP POP JUMP JUMPDEST PUSH1 0xC0 DUP2 MSTORE PUSH0 PUSH2 0x3F9B PUSH1 0xC0 DUP4 ADD DUP10 PUSH2 0x3C78 JUMP JUMPDEST DUP3 DUP2 SUB PUSH1 0x20 DUP5 ADD MSTORE PUSH2 0x3FAD DUP2 DUP10 PUSH2 0x3869 JUMP JUMPDEST SWAP1 POP DUP3 DUP2 SUB PUSH1 0x40 DUP5 ADD MSTORE PUSH2 0x3FC1 DUP2 DUP9 PUSH2 0x3CB0 JUMP JUMPDEST PUSH1 0x60 DUP5 ADD SWAP7 SWAP1 SWAP7 MSTORE POP POP PUSH1 0x80 DUP2 ADD SWAP3 SWAP1 SWAP3 MSTORE PUSH1 0xA0 SWAP1 SWAP2 ADD MSTORE SWAP4 SWAP3 POP POP POP JUMP JUMPDEST DUP3 DUP2 MSTORE PUSH1 0x40 PUSH1 0x20 DUP3 ADD MSTORE PUSH0 PUSH2 0xED4 PUSH1 0x40 DUP4 ADD DUP5 PUSH2 0x3196 JUMP JUMPDEST PUSH0 DUP3 MLOAD PUSH2 0x4009 DUP2 DUP5 PUSH1 0x20 DUP8 ADD PUSH2 0x3174 JUMP JUMPDEST SWAP2 SWAP1 SWAP2 ADD SWAP3 SWAP2 POP POP JUMP JUMPDEST PUSH1 0xFF DUP2 DUP2 AND DUP4 DUP3 AND ADD SWAP1 DUP2 GT ISZERO PUSH2 0xA28 JUMPI PUSH2 0xA28 PUSH2 0x3BF1 JUMP JUMPDEST PUSH1 0x1 DUP2 DUP2 JUMPDEST DUP1 DUP6 GT ISZERO PUSH2 0x4066 JUMPI DUP2 PUSH0 NOT DIV DUP3 GT ISZERO PUSH2 0x404C JUMPI PUSH2 0x404C PUSH2 0x3BF1 JUMP JUMPDEST DUP1 DUP6 AND ISZERO PUSH2 0x4059 JUMPI SWAP2 DUP2 MUL SWAP2 JUMPDEST SWAP4 DUP5 SHR SWAP4 SWAP1 DUP1 MUL SWAP1 PUSH2 0x4031 JUMP JUMPDEST POP SWAP3 POP SWAP3 SWAP1 POP JUMP JUMPDEST PUSH0 DUP3 PUSH2 0x407C JUMPI POP PUSH1 0x1 PUSH2 0xA28 JUMP JUMPDEST DUP2 PUSH2 0x4088 JUMPI POP PUSH0 PUSH2 0xA28 JUMP JUMPDEST DUP2 PUSH1 0x1 DUP2 EQ PUSH2 0x409E JUMPI PUSH1 0x2 DUP2 EQ PUSH2 0x40A8 JUMPI PUSH2 0x40C4 JUMP JUMPDEST PUSH1 0x1 SWAP2 POP POP PUSH2 0xA28 JUMP JUMPDEST PUSH1 0xFF DUP5 GT ISZERO PUSH2 0x40B9 JUMPI PUSH2 0x40B9 PUSH2 0x3BF1 JUMP JUMPDEST POP POP PUSH1 0x1 DUP3 SHL PUSH2 0xA28 JUMP JUMPDEST POP PUSH1 0x20 DUP4 LT PUSH2 0x133 DUP4 LT AND PUSH1 0x4E DUP5 LT PUSH1 0xB DUP5 LT AND OR ISZERO PUSH2 0x40E7 JUMPI POP DUP2 DUP2 EXP PUSH2 0xA28 JUMP JUMPDEST PUSH2 0x40F1 DUP4 DUP4 PUSH2 0x402C JUMP JUMPDEST DUP1 PUSH0 NOT DIV DUP3 GT ISZERO PUSH2 0x4104 JUMPI PUSH2 0x4104 PUSH2 0x3BF1 JUMP JUMPDEST MUL SWAP4 SWAP3 POP POP POP JUMP JUMPDEST PUSH0 PUSH2 0x1572 PUSH1 0xFF DUP5 AND DUP4 PUSH2 0x406E JUMP INVALID LOG2 PUSH5 0x6970667358 0x22 SLT KECCAK256 0x5D 0x21 SELFBALANCE BASEFEE 0x26 SGT 0xDB DIV SWAP11 SWAP5 0x2E OR ORIGIN 0x26 0xAB 0xA9 RETURNDATASIZE 0x25 PUSH1 0x58 0xD5 0xC2 0xC 0xE4 XOR 0xCC SUB 0x2C 0xED 0x2D DUP15 SHL PUSH5 0x736F6C6343 STOP ADDMOD AND STOP CALLER "
	},
	"abi": [
		{
			"inputs": [
				{
					"internalType": "contract IVotes",
					"name": "_token",
					"type": "address"
				},
				{
					"internalType": "contract TimelockController",
					"name": "_timelock",
					"type": "address"
				},
				{
					"internalType": "uint48",
					"name": "_votingDelay",
					"type": "uint48"
				},
				{
					"internalType": "uint32",
					"name": "_votingPeriod",
					"type": "uint32"
				},
				{
					"internalType": "uint256",
					"name": "_quorumPercentage",
					"type": "uint256"
				}
			],
			"stateMutability": "nonpayable",
			"type": "constructor"
		},
		{
			"inputs": [],
			"name": "CheckpointUnorderedInsertion",
			"type": "error"
		},
		{
			"inputs": [],
			"name": "FailedInnerCall",
			"type": "error"
		},
		{
			"inputs": [
				{
					"internalType": "address",
					"name": "voter",
					"type": "address"
				}
			],
			"name": "GovernorAlreadyCastVote",
			"type": "error"
		},
		{
			"inputs": [
				{
					"internalType": "uint256",
					"name": "proposalId",
					"type": "uint256"
				}
			],
			"name": "GovernorAlreadyQueuedProposal",
			"type": "error"
		},
		{
			"inputs": [],
			"name": "GovernorDisabledDeposit",
			"type": "error"
		},
		{
			"inputs": [
				{
					"internalType": "address",
					"name": "proposer",
					"type": "address"
				},
				{
					"internalType": "uint256",
					"name": "votes",
					"type": "uint256"
				},
				{
					"internalType": "uint256",
					"name": "threshold",
					"type": "uint256"
				}
			],
			"name": "GovernorInsufficientProposerVotes",
			"type": "error"
		},
		{
			"inputs": [
				{
					"internalType": "uint256",
					"name": "targets",
					"type": "uint256"
				},
				{
					"internalType": "uint256",
					"name": "calldatas",
					"type": "uint256"
				},
				{
					"internalType": "uint256",
					"name": "values",
					"type": "uint256"
				}
			],
			"name": "GovernorInvalidProposalLength",
			"type": "error"
		},
		{
			"inputs": [
				{
					"internalType": "uint256",
					"name": "quorumNumerator",
					"type": "uint256"
				},
				{
					"internalType": "uint256",
					"name": "quorumDenominator",
					"type": "uint256"
				}
			],
			"name": "GovernorInvalidQuorumFraction",
			"type": "error"
		},
		{
			"inputs": [
				{
					"internalType": "address",
					"name": "voter",
					"type": "address"
				}
			],
			"name": "GovernorInvalidSignature",
			"type": "error"
		},
		{
			"inputs": [],
			"name": "GovernorInvalidVoteType",
			"type": "error"
		},
		{
			"inputs": [
				{
					"internalType": "uint256",
					"name": "votingPeriod",
					"type": "uint256"
				}
			],
			"name": "GovernorInvalidVotingPeriod",
			"type": "error"
		},
		{
			"inputs": [
				{
					"internalType": "uint256",
					"name": "proposalId",
					"type": "uint256"
				}
			],
			"name": "GovernorNonexistentProposal",
			"type": "error"
		},
		{
			"inputs": [
				{
					"internalType": "uint256",
					"name": "proposalId",
					"type": "uint256"
				}
			],
			"name": "GovernorNotQueuedProposal",
			"type": "error"
		},
		{
			"inputs": [
				{
					"internalType": "address",
					"name": "account",
					"type": "address"
				}
			],
			"name": "GovernorOnlyExecutor",
			"type": "error"
		},
		{
			"inputs": [
				{
					"internalType": "address",
					"name": "account",
					"type": "address"
				}
			],
			"name": "GovernorOnlyProposer",
			"type": "error"
		},
		{
			"inputs": [],
			"name": "GovernorQueueNotImplemented",
			"type": "error"
		},
		{
			"inputs": [
				{
					"internalType": "address",
					"name": "proposer",
					"type": "address"
				}
			],
			"name": "GovernorRestrictedProposer",
			"type": "error"
		},
		{
			"inputs": [
				{
					"internalType": "uint256",
					"name": "proposalId",
					"type": "uint256"
				},
				{
					"internalType": "enum IGovernor.ProposalState",
					"name": "current",
					"type": "uint8"
				},
				{
					"internalType": "bytes32",
					"name": "expectedStates",
					"type": "bytes32"
				}
			],
			"name": "GovernorUnexpectedProposalState",
			"type": "error"
		},
		{
			"inputs": [
				{
					"internalType": "address",
					"name": "account",
					"type": "address"
				},
				{
					"internalType": "uint256",
					"name": "currentNonce",
					"type": "uint256"
				}
			],
			"name": "InvalidAccountNonce",
			"type": "error"
		},
		{
			"inputs": [],
			"name": "InvalidShortString",
			"type": "error"
		},
		{
			"inputs": [],
			"name": "QueueEmpty",
			"type": "error"
		},
		{
			"inputs": [],
			"name": "QueueFull",
			"type": "error"
		},
		{
			"inputs": [
				{
					"internalType": "uint8",
					"name": "bits",
					"type": "uint8"
				},
				{
					"internalType": "uint256",
					"name": "value",
					"type": "uint256"
				}
			],
			"name": "SafeCastOverflowedUintDowncast",
			"type": "error"
		},
		{
			"inputs": [
				{
					"internalType": "string",
					"name": "str",
					"type": "string"
				}
			],
			"name": "StringTooLong",
			"type": "error"
		},
		{
			"anonymous": false,
			"inputs": [],
			"name": "EIP712DomainChanged",
			"type": "event"
		},
		{
			"anonymous": false,
			"inputs": [
				{
					"indexed": false,
					"internalType": "uint256",
					"name": "proposalId",
					"type": "uint256"
				}
			],
			"name": "ProposalCanceled",
			"type": "event"
		},
		{
			"anonymous": false,
			"inputs": [
				{
					"indexed": false,
					"internalType": "uint256",
					"name": "proposalId",
					"type": "uint256"
				},
				{
					"indexed": false,
					"internalType": "address",
					"name": "proposer",
					"type": "address"
				},
				{
					"indexed": false,
					"internalType": "address[]",
					"name": "targets",
					"type": "address[]"
				},
				{
					"indexed": false,
					"internalType": "uint256[]",
					"name": "values",
					"type": "uint256[]"
				},
				{
					"indexed": false,
					"internalType": "string[]",
					"name": "signatures",
					"type": "string[]"
				},
				{
					"indexed": false,
					"internalType": "bytes[]",
					"name": "calldatas",
					"type": "bytes[]"
				},
				{
					"indexed": false,
					"internalType": "uint256",
					"name": "voteStart",
					"type": "uint256"
				},
				{
					"indexed": false,
					"internalType": "uint256",
					"name": "voteEnd",
					"type": "uint256"
				},
				{
					"indexed": false,
					"internalType": "string",
					"name": "description",
					"type": "string"
				}
			],
			"name": "ProposalCreated",
			"type": "event"
		},
		{
			"anonymous": false,
			"inputs": [
				{
					"indexed": false,
					"internalType": "uint256",
					"name": "proposalId",
					"type": "uint256"
				}
			],
			"name": "ProposalExecuted",
			"type": "event"
		},
		{
			"anonymous": false,
			"inputs": [
				{
					"indexed": false,
					"internalType": "uint256",
					"name": "proposalId",
					"type": "uint256"
				},
				{
					"indexed": false,
					"internalType": "uint256",
					"name": "etaSeconds",
					"type": "uint256"
				}
			],
			"name": "ProposalQueued",
			"type": "event"
		},
		{
			"anonymous": false,
			"inputs": [
				{
					"indexed": false,
					"internalType": "uint256",
					"name": "oldProposalThreshold",
					"type": "uint256"
				},
				{
					"indexed": false,
					"internalType": "uint256",
					"name": "newProposalThreshold",
					"type": "uint256"
				}
			],
			"name": "ProposalThresholdSet",
			"type": "event"
		},
		{
			"anonymous": false,
			"inputs": [
				{
					"indexed": false,
					"internalType": "uint256",
					"name": "oldQuorumNumerator",
					"type": "uint256"
				},
				{
					"indexed": false,
					"internalType": "uint256",
					"name": "newQuorumNumerator",
					"type": "uint256"
				}
			],
			"name": "QuorumNumeratorUpdated",
			"type": "event"
		},
		{
			"anonymous": false,
			"inputs": [
				{
					"indexed": false,
					"internalType": "address",
					"name": "oldTimelock",
					"type": "address"
				},
				{
					"indexed": false,
					"internalType": "address",
					"name": "newTimelock",
					"type": "address"
				}
			],
			"name": "TimelockChange",
			"type": "event"
		},
		{
			"anonymous": false,
			"inputs": [
				{
					"indexed": true,
					"internalType": "address",
					"name": "voter",
					"type": "address"
				},
				{
					"indexed": false,
					"internalType": "uint256",
					"name": "proposalId",
					"type": "uint256"
				},
				{
					"indexed": false,
					"internalType": "uint8",
					"name": "support",
					"type": "uint8"
				},
				{
					"indexed": false,
					"internalType": "uint256",
					"name": "weight",
					"type": "uint256"
				},
				{
					"indexed": false,
					"internalType": "string",
					"name": "reason",
					"type": "string"
				}
			],
			"name": "VoteCast",
			"type": "event"
		},
		{
			"anonymous": false,
			"inputs": [
				{
					"indexed": true,
					"internalType": "address",
					"name": "voter",
					"type": "address"
				},
				{
					"indexed": false,
					"internalType": "uint256",
					"name": "proposalId",
					"type": "uint256"
				},
				{
					"indexed": false,
					"internalType": "uint8",
					"name": "support",
					"type": "uint8"
				},
				{
					"indexed": false,
					"internalType": "uint256",
					"name": "weight",
					"type": "uint256"
				},
				{
					"indexed": false,
					"internalType": "string",
					"name": "reason",
					"type": "string"
				},
				{
					"indexed": false,
					"internalType": "bytes",
					"name": "params",
					"type": "bytes"
				}
			],
			"name": "VoteCastWithParams",
			"type": "event"
		},
		{
			"anonymous": false,
			"inputs": [
				{
					"indexed": false,
					"internalType": "uint256",
					"name": "oldVotingDelay",
					"type": "uint256"
				},
				{
					"indexed": false,
					"internalType": "uint256",
					"name": "newVotingDelay",
					"type": "uint256"
				}
			],
			"name": "VotingDelaySet",
			"type": "event"
		},
		{
			"anonymous": false,
			"inputs": [
				{
					"indexed": false,
					"internalType": "uint256",
					"name": "oldVotingPeriod",
					"type": "uint256"
				},
				{
					"indexed": false,
					"internalType": "uint256",
					"name": "newVotingPeriod",
					"type": "uint256"
				}
			],
			"name": "VotingPeriodSet",
			"type": "event"
		},
		{
			"inputs": [],
			"name": "BALLOT_TYPEHASH",
			"outputs": [
				{
					"internalType": "bytes32",
					"name": "",
					"type": "bytes32"
				}
			],
			"stateMutability": "view",
			"type": "function"
		},
		{
			"inputs": [],
			"name": "CLOCK_MODE",
			"outputs": [
				{
					"internalType": "string",
					"name": "",
					"type": "string"
				}
			],
			"stateMutability": "view",
			"type": "function"
		},
		{
			"inputs": [],
			"name": "COUNTING_MODE",
			"outputs": [
				{
					"internalType": "string",
					"name": "",
					"type": "string"
				}
			],
			"stateMutability": "pure",
			"type": "function"
		},
		{
			"inputs": [],
			"name": "EXTENDED_BALLOT_TYPEHASH",
			"outputs": [
				{
					"internalType": "bytes32",
					"name": "",
					"type": "bytes32"
				}
			],
			"stateMutability": "view",
			"type": "function"
		},
		{
			"inputs": [
				{
					"internalType": "address[]",
					"name": "targets",
					"type": "address[]"
				},
				{
					"internalType": "uint256[]",
					"name": "values",
					"type": "uint256[]"
				},
				{
					"internalType": "bytes[]",
					"name": "calldatas",
					"type": "bytes[]"
				},
				{
					"internalType": "bytes32",
					"name": "descriptionHash",
					"type": "bytes32"
				}
			],
			"name": "cancel",
			"outputs": [
				{
					"internalType": "uint256",
					"name": "",
					"type": "uint256"
				}
			],
			"stateMutability": "nonpayable",
			"type": "function"
		},
		{
			"inputs": [
				{
					"internalType": "uint256",
					"name": "proposalId",
					"type": "uint256"
				},
				{
					"internalType": "uint8",
					"name": "support",
					"type": "uint8"
				}
			],
			"name": "castVote",
			"outputs": [
				{
					"internalType": "uint256",
					"name": "",
					"type": "uint256"
				}
			],
			"stateMutability": "nonpayable",
			"type": "function"
		},
		{
			"inputs": [
				{
					"internalType": "uint256",
					"name": "proposalId",
					"type": "uint256"
				},
				{
					"internalType": "uint8",
					"name": "support",
					"type": "uint8"
				},
				{
					"internalType": "address",
					"name": "voter",
					"type": "address"
				},
				{
					"internalType": "bytes",
					"name": "signature",
					"type": "bytes"
				}
			],
			"name": "castVoteBySig",
			"outputs": [
				{
					"internalType": "uint256",
					"name": "",
					"type": "uint256"
				}
			],
			"stateMutability": "nonpayable",
			"type": "function"
		},
		{
			"inputs": [
				{
					"internalType": "uint256",
					"name": "proposalId",
					"type": "uint256"
				},
				{
					"internalType": "uint8",
					"name": "support",
					"type": "uint8"
				},
				{
					"internalType": "string",
					"name": "reason",
					"type": "string"
				}
			],
			"name": "castVoteWithReason",
			"outputs": [
				{
					"internalType": "uint256",
					"name": "",
					"type": "uint256"
				}
			],
			"stateMutability": "nonpayable",
			"type": "function"
		},
		{
			"inputs": [
				{
					"internalType": "uint256",
					"name": "proposalId",
					"type": "uint256"
				},
				{
					"internalType": "uint8",
					"name": "support",
					"type": "uint8"
				},
				{
					"internalType": "string",
					"name": "reason",
					"type": "string"
				},
				{
					"internalType": "bytes",
					"name": "params",
					"type": "bytes"
				}
			],
			"name": "castVoteWithReasonAndParams",
			"outputs": [
				{
					"internalType": "uint256",
					"name": "",
					"type": "uint256"
				}
			],
			"stateMutability": "nonpayable",
			"type": "function"
		},
		{
			"inputs": [
				{
					"internalType": "uint256",
					"name": "proposalId",
					"type": "uint256"
				},
				{
					"internalType": "uint8",
					"name": "support",
					"type": "uint8"
				},
				{
					"internalType": "address",
					"name": "voter",
					"type": "address"
				},
				{
					"internalType": "string",
					"name": "reason",
					"type": "string"
				},
				{
					"internalType": "bytes",
					"name": "params",
					"type": "bytes"
				},
				{
					"internalType": "bytes",
					"name": "signature",
					"type": "bytes"
				}
			],
			"name": "castVoteWithReasonAndParamsBySig",
			"outputs": [
				{
					"internalType": "uint256",
					"name": "",
					"type": "uint256"
				}
			],
			"stateMutability": "nonpayable",
			"type": "function"
		},
		{
			"inputs": [],
			"name": "clock",
			"outputs": [
				{
					"internalType": "uint48",
					"name": "",
					"type": "uint48"
				}
			],
			"stateMutability": "view",
			"type": "function"
		},
		{
			"inputs": [],
			"name": "eip712Domain",
			"outputs": [
				{
					"internalType": "bytes1",
					"name": "fields",
					"type": "bytes1"
				},
				{
					"internalType": "string",
					"name": "name",
					"type": "string"
				},
				{
					"internalType": "string",
					"name": "version",
					"type": "string"
				},
				{
					"internalType": "uint256",
					"name": "chainId",
					"type": "uint256"
				},
				{
					"internalType": "address",
					"name": "verifyingContract",
					"type": "address"
				},
				{
					"internalType": "bytes32",
					"name": "salt",
					"type": "bytes32"
				},
				{
					"internalType": "uint256[]",
					"name": "extensions",
					"type": "uint256[]"
				}
			],
			"stateMutability": "view",
			"type": "function"
		},
		{
			"inputs": [
				{
					"internalType": "address[]",
					"name": "targets",
					"type": "address[]"
				},
				{
					"internalType": "uint256[]",
					"name": "values",
					"type": "uint256[]"
				},
				{
					"internalType": "bytes[]",
					"name": "calldatas",
					"type": "bytes[]"
				},
				{
					"internalType": "bytes32",
					"name": "descriptionHash",
					"type": "bytes32"
				}
			],
			"name": "execute",
			"outputs": [
				{
					"internalType": "uint256",
					"name": "",
					"type": "uint256"
				}
			],
			"stateMutability": "payable",
			"type": "function"
		},
		{
			"inputs": [
				{
					"internalType": "address",
					"name": "account",
					"type": "address"
				},
				{
					"internalType": "uint256",
					"name": "timepoint",
					"type": "uint256"
				}
			],
			"name": "getVotes",
			"outputs": [
				{
					"internalType": "uint256",
					"name": "",
					"type": "uint256"
				}
			],
			"stateMutability": "view",
			"type": "function"
		},
		{
			"inputs": [
				{
					"internalType": "address",
					"name": "account",
					"type": "address"
				},
				{
					"internalType": "uint256",
					"name": "timepoint",
					"type": "uint256"
				},
				{
					"internalType": "bytes",
					"name": "params",
					"type": "bytes"
				}
			],
			"name": "getVotesWithParams",
			"outputs": [
				{
					"internalType": "uint256",
					"name": "",
					"type": "uint256"
				}
			],
			"stateMutability": "view",
			"type": "function"
		},
		{
			"inputs": [
				{
					"internalType": "uint256",
					"name": "proposalId",
					"type": "uint256"
				},
				{
					"internalType": "address",
					"name": "account",
					"type": "address"
				}
			],
			"name": "hasVoted",
			"outputs": [
				{
					"internalType": "bool",
					"name": "",
					"type": "bool"
				}
			],
			"stateMutability": "view",
			"type": "function"
		},
		{
			"inputs": [
				{
					"internalType": "address[]",
					"name": "targets",
					"type": "address[]"
				},
				{
					"internalType": "uint256[]",
					"name": "values",
					"type": "uint256[]"
				},
				{
					"internalType": "bytes[]",
					"name": "calldatas",
					"type": "bytes[]"
				},
				{
					"internalType": "bytes32",
					"name": "descriptionHash",
					"type": "bytes32"
				}
			],
			"name": "hashProposal",
			"outputs": [
				{
					"internalType": "uint256",
					"name": "",
					"type": "uint256"
				}
			],
			"stateMutability": "pure",
			"type": "function"
		},
		{
			"inputs": [],
			"name": "name",
			"outputs": [
				{
					"internalType": "string",
					"name": "",
					"type": "string"
				}
			],
			"stateMutability": "view",
			"type": "function"
		},
		{
			"inputs": [
				{
					"internalType": "address",
					"name": "owner",
					"type": "address"
				}
			],
			"name": "nonces",
			"outputs": [
				{
					"internalType": "uint256",
					"name": "",
					"type": "uint256"
				}
			],
			"stateMutability": "view",
			"type": "function"
		},
		{
			"inputs": [
				{
					"internalType": "address",
					"name": "",
					"type": "address"
				},
				{
					"internalType": "address",
					"name": "",
					"type": "address"
				},
				{
					"internalType": "uint256[]",
					"name": "",
					"type": "uint256[]"
				},
				{
					"internalType": "uint256[]",
					"name": "",
					"type": "uint256[]"
				},
				{
					"internalType": "bytes",
					"name": "",
					"type": "bytes"
				}
			],
			"name": "onERC1155BatchReceived",
			"outputs": [
				{
					"internalType": "bytes4",
					"name": "",
					"type": "bytes4"
				}
			],
			"stateMutability": "nonpayable",
			"type": "function"
		},
		{
			"inputs": [
				{
					"internalType": "address",
					"name": "",
					"type": "address"
				},
				{
					"internalType": "address",
					"name": "",
					"type": "address"
				},
				{
					"internalType": "uint256",
					"name": "",
					"type": "uint256"
				},
				{
					"internalType": "uint256",
					"name": "",
					"type": "uint256"
				},
				{
					"internalType": "bytes",
					"name": "",
					"type": "bytes"
				}
			],
			"name": "onERC1155Received",
			"outputs": [
				{
					"internalType": "bytes4",
					"name": "",
					"type": "bytes4"
				}
			],
			"stateMutability": "nonpayable",
			"type": "function"
		},
		{
			"inputs": [
				{
					"internalType": "address",
					"name": "",
					"type": "address"
				},
				{
					"internalType": "address",
					"name": "",
					"type": "address"
				},
				{
					"internalType": "uint256",
					"name": "",
					"type": "uint256"
				},
				{
					"internalType": "bytes",
					"name": "",
					"type": "bytes"
				}
			],
			"name": "onERC721Received",
			"outputs": [
				{
					"internalType": "bytes4",
					"name": "",
					"type": "bytes4"
				}
			],
			"stateMutability": "nonpayable",
			"type": "function"
		},
		{
			"inputs": [
				{
					"internalType": "uint256",
					"name": "proposalId",
					"type": "uint256"
				}
			],
			"name": "proposalDeadline",
			"outputs": [
				{
					"internalType": "uint256",
					"name": "",
					"type": "uint256"
				}
			],
			"stateMutability": "view",
			"type": "function"
		},
		{
			"inputs": [
				{
					"internalType": "uint256",
					"name": "proposalId",
					"type": "uint256"
				}
			],
			"name": "proposalEta",
			"outputs": [
				{
					"internalType": "uint256",
					"name": "",
					"type": "uint256"
				}
			],
			"stateMutability": "view",
			"type": "function"
		},
		{
			"inputs": [
				{
					"internalType": "uint256",
					"name": "proposalId",
					"type": "uint256"
				}
			],
			"name": "proposalNeedsQueuing",
			"outputs": [
				{
					"internalType": "bool",
					"name": "",
					"type": "bool"
				}
			],
			"stateMutability": "view",
			"type": "function"
		},
		{
			"inputs": [
				{
					"internalType": "uint256",
					"name": "proposalId",
					"type": "uint256"
				}
			],
			"name": "proposalProposer",
			"outputs": [
				{
					"internalType": "address",
					"name": "",
					"type": "address"
				}
			],
			"stateMutability": "view",
			"type": "function"
		},
		{
			"inputs": [
				{
					"internalType": "uint256",
					"name": "proposalId",
					"type": "uint256"
				}
			],
			"name": "proposalSnapshot",
			"outputs": [
				{
					"internalType": "uint256",
					"name": "",
					"type": "uint256"
				}
			],
			"stateMutability": "view",
			"type": "function"
		},
		{
			"inputs": [],
			"name": "proposalThreshold",
			"outputs": [
				{
					"internalType": "uint256",
					"name": "",
					"type": "uint256"
				}
			],
			"stateMutability": "view",
			"type": "function"
		},
		{
			"inputs": [
				{
					"internalType": "uint256",
					"name": "proposalId",
					"type": "uint256"
				}
			],
			"name": "proposalVotes",
			"outputs": [
				{
					"internalType": "uint256",
					"name": "againstVotes",
					"type": "uint256"
				},
				{
					"internalType": "uint256",
					"name": "forVotes",
					"type": "uint256"
				},
				{
					"internalType": "uint256",
					"name": "abstainVotes",
					"type": "uint256"
				}
			],
			"stateMutability": "view",
			"type": "function"
		},
		{
			"inputs": [
				{
					"internalType": "address[]",
					"name": "targets",
					"type": "address[]"
				},
				{
					"internalType": "uint256[]",
					"name": "values",
					"type": "uint256[]"
				},
				{
					"internalType": "bytes[]",
					"name": "calldatas",
					"type": "bytes[]"
				},
				{
					"internalType": "string",
					"name": "description",
					"type": "string"
				}
			],
			"name": "propose",
			"outputs": [
				{
					"internalType": "uint256",
					"name": "",
					"type": "uint256"
				}
			],
			"stateMutability": "nonpayable",
			"type": "function"
		},
		{
			"inputs": [
				{
					"internalType": "address[]",
					"name": "targets",
					"type": "address[]"
				},
				{
					"internalType": "uint256[]",
					"name": "values",
					"type": "uint256[]"
				},
				{
					"internalType": "bytes[]",
					"name": "calldatas",
					"type": "bytes[]"
				},
				{
					"internalType": "bytes32",
					"name": "descriptionHash",
					"type": "bytes32"
				}
			],
			"name": "queue",
			"outputs": [
				{
					"internalType": "uint256",
					"name": "",
					"type": "uint256"
				}
			],
			"stateMutability": "nonpayable",
			"type": "function"
		},
		{
			"inputs": [
				{
					"internalType": "uint256",
					"name": "blockNumber",
					"type": "uint256"
				}
			],
			"name": "quorum",
			"outputs": [
				{
					"internalType": "uint256",
					"name": "",
					"type": "uint256"
				}
			],
			"stateMutability": "view",
			"type": "function"
		},
		{
			"inputs": [],
			"name": "quorumDenominator",
			"outputs": [
				{
					"internalType": "uint256",
					"name": "",
					"type": "uint256"
				}
			],
			"stateMutability": "view",
			"type": "function"
		},
		{
			"inputs": [
				{
					"internalType": "uint256",
					"name": "timepoint",
					"type": "uint256"
				}
			],
			"name": "quorumNumerator",
			"outputs": [
				{
					"internalType": "uint256",
					"name": "",
					"type": "uint256"
				}
			],
			"stateMutability": "view",
			"type": "function"
		},
		{
			"inputs": [],
			"name": "quorumNumerator",
			"outputs": [
				{
					"internalType": "uint256",
					"name": "",
					"type": "uint256"
				}
			],
			"stateMutability": "view",
			"type": "function"
		},
		{
			"inputs": [
				{
					"internalType": "address",
					"name": "target",
					"type": "address"
				},
				{
					"internalType": "uint256",
					"name": "value",
					"type": "uint256"
				},
				{
					"internalType": "bytes",
					"name": "data",
					"type": "bytes"
				}
			],
			"name": "relay",
			"outputs": [],
			"stateMutability": "payable",
			"type": "function"
		},
		{
			"inputs": [
				{
					"internalType": "uint256",
					"name": "newProposalThreshold",
					"type": "uint256"
				}
			],
			"name": "setProposalThreshold",
			"outputs": [],
			"stateMutability": "nonpayable",
			"type": "function"
		},
		{
			"inputs": [
				{
					"internalType": "uint48",
					"name": "newVotingDelay",
					"type": "uint48"
				}
			],
			"name": "setVotingDelay",
			"outputs": [],
			"stateMutability": "nonpayable",
			"type": "function"
		},
		{
			"inputs": [
				{
					"internalType": "uint32",
					"name": "newVotingPeriod",
					"type": "uint32"
				}
			],
			"name": "setVotingPeriod",
			"outputs": [],
			"stateMutability": "nonpayable",
			"type": "function"
		},
		{
			"inputs": [
				{
					"internalType": "uint256",
					"name": "proposalId",
					"type": "uint256"
				}
			],
			"name": "state",
			"outputs": [
				{
					"internalType": "enum IGovernor.ProposalState",
					"name": "",
					"type": "uint8"
				}
			],
			"stateMutability": "view",
			"type": "function"
		},
		{
			"inputs": [
				{
					"internalType": "bytes4",
					"name": "interfaceId",
					"type": "bytes4"
				}
			],
			"name": "supportsInterface",
			"outputs": [
				{
					"internalType": "bool",
					"name": "",
					"type": "bool"
				}
			],
			"stateMutability": "view",
			"type": "function"
		},
		{
			"inputs": [],
			"name": "timelock",
			"outputs": [
				{
					"internalType": "address",
					"name": "",
					"type": "address"
				}
			],
			"stateMutability": "view",
			"type": "function"
		},
		{
			"inputs": [],
			"name": "token",
			"outputs": [
				{
					"internalType": "contract IERC5805",
					"name": "",
					"type": "address"
				}
			],
			"stateMutability": "view",
			"type": "function"
		},
		{
			"inputs": [
				{
					"internalType": "uint256",
					"name": "newQuorumNumerator",
					"type": "uint256"
				}
			],
			"name": "updateQuorumNumerator",
			"outputs": [],
			"stateMutability": "nonpayable",
			"type": "function"
		},
		{
			"inputs": [
				{
					"internalType": "contract TimelockController",
					"name": "newTimelock",
					"type": "address"
				}
			],
			"name": "updateTimelock",
			"outputs": [],
			"stateMutability": "nonpayable",
			"type": "function"
		},
		{
			"inputs": [],
			"name": "version",
			"outputs": [
				{
					"internalType": "string",
					"name": "",
					"type": "string"
				}
			],
			"stateMutability": "view",
			"type": "function"
		},
		{
			"inputs": [],
			"name": "votingDelay",
			"outputs": [
				{
					"internalType": "uint256",
					"name": "",
					"type": "uint256"
				}
			],
			"stateMutability": "view",
			"type": "function"
		},
		{
			"inputs": [],
			"name": "votingPeriod",
			"outputs": [
				{
					"internalType": "uint256",
					"name": "",
					"type": "uint256"
				}
			],
			"stateMutability": "view",
			"type": "function"
		},
		{
			"stateMutability": "payable",
			"type": "receive"
		}
	],
	"storageLayout": {
		"storage": [
			{
				"astId": 6364,
				"contract": "GovernorContract.sol:GovernorContract",
				"label": "_nameFallback",
				"offset": 0,
				"slot": "0",
				"type": "t_string_storage"
			},
			{
				"astId": 6366,
				"contract": "GovernorContract.sol:GovernorContract",
				"label": "_versionFallback",
				"offset": 0,
				"slot": "1",
				"type": "t_string_storage"
			},
			{
				"astId": 5343,
				"contract": "GovernorContract.sol:GovernorContract",
				"label": "_nonces",
				"offset": 0,
				"slot": "2",
				"type": "t_mapping(t_address,t_uint256)"
			},
			{
				"astId": 468,
				"contract": "GovernorContract.sol:GovernorContract",
				"label": "_name",
				"offset": 0,
				"slot": "3",
				"type": "t_string_storage"
			},
			{
				"astId": 473,
				"contract": "GovernorContract.sol:GovernorContract",
				"label": "_proposals",
				"offset": 0,
				"slot": "4",
				"type": "t_mapping(t_uint256,t_struct(ProposalCore)446_storage)"
			},
			{
				"astId": 476,
				"contract": "GovernorContract.sol:GovernorContract",
				"label": "_governanceCall",
				"offset": 0,
				"slot": "5",
				"type": "t_struct(Bytes32Deque)11273_storage"
			},
			{
				"astId": 3898,
				"contract": "GovernorContract.sol:GovernorContract",
				"label": "_proposalThreshold",
				"offset": 0,
				"slot": "7",
				"type": "t_uint256"
			},
			{
				"astId": 3900,
				"contract": "GovernorContract.sol:GovernorContract",
				"label": "_votingDelay",
				"offset": 0,
				"slot": "8",
				"type": "t_uint48"
			},
			{
				"astId": 3902,
				"contract": "GovernorContract.sol:GovernorContract",
				"label": "_votingPeriod",
				"offset": 6,
				"slot": "8",
				"type": "t_uint32"
			},
			{
				"astId": 3689,
				"contract": "GovernorContract.sol:GovernorContract",
				"label": "_proposalVotes",
				"offset": 0,
				"slot": "9",
				"type": "t_mapping(t_uint256,t_struct(ProposalVote)3684_storage)"
			},
			{
				"astId": 4549,
				"contract": "GovernorContract.sol:GovernorContract",
				"label": "_quorumNumeratorHistory",
				"offset": 0,
				"slot": "10",
				"type": "t_struct(Trace208)10213_storage"
			},
			{
				"astId": 4087,
				"contract": "GovernorContract.sol:GovernorContract",
				"label": "_timelock",
				"offset": 0,
				"slot": "11",
				"type": "t_contract(TimelockController)3661"
			},
			{
				"astId": 4091,
				"contract": "GovernorContract.sol:GovernorContract",
				"label": "_timelockIds",
				"offset": 0,
				"slot": "12",
				"type": "t_mapping(t_uint256,t_bytes32)"
			}
		],
		"types": {
			"t_address": {
				"encoding": "inplace",
				"label": "address",
				"numberOfBytes": "20"
			},
			"t_array(t_struct(Checkpoint208)10218_storage)dyn_storage": {
				"base": "t_struct(Checkpoint208)10218_storage",
				"encoding": "dynamic_array",
				"label": "struct Checkpoints.Checkpoint208[]",
				"numberOfBytes": "32"
			},
			"t_bool": {
				"encoding": "inplace",
				"label": "bool",
				"numberOfBytes": "1"
			},
			"t_bytes32": {
				"encoding": "inplace",
				"label": "bytes32",
				"numberOfBytes": "32"
			},
			"t_contract(TimelockController)3661": {
				"encoding": "inplace",
				"label": "contract TimelockController",
				"numberOfBytes": "20"
			},
			"t_mapping(t_address,t_bool)": {
				"encoding": "mapping",
				"key": "t_address",
				"label": "mapping(address => bool)",
				"numberOfBytes": "32",
				"value": "t_bool"
			},
			"t_mapping(t_address,t_uint256)": {
				"encoding": "mapping",
				"key": "t_address",
				"label": "mapping(address => uint256)",
				"numberOfBytes": "32",
				"value": "t_uint256"
			},
			"t_mapping(t_uint128,t_bytes32)": {
				"encoding": "mapping",
				"key": "t_uint128",
				"label": "mapping(uint128 => bytes32)",
				"numberOfBytes": "32",
				"value": "t_bytes32"
			},
			"t_mapping(t_uint256,t_bytes32)": {
				"encoding": "mapping",
				"key": "t_uint256",
				"label": "mapping(uint256 => bytes32)",
				"numberOfBytes": "32",
				"value": "t_bytes32"
			},
			"t_mapping(t_uint256,t_struct(ProposalCore)446_storage)": {
				"encoding": "mapping",
				"key": "t_uint256",
				"label": "mapping(uint256 => struct Governor.ProposalCore)",
				"numberOfBytes": "32",
				"value": "t_struct(ProposalCore)446_storage"
			},
			"t_mapping(t_uint256,t_struct(ProposalVote)3684_storage)": {
				"encoding": "mapping",
				"key": "t_uint256",
				"label": "mapping(uint256 => struct GovernorCountingSimple.ProposalVote)",
				"numberOfBytes": "32",
				"value": "t_struct(ProposalVote)3684_storage"
			},
			"t_string_storage": {
				"encoding": "bytes",
				"label": "string",
				"numberOfBytes": "32"
			},
			"t_struct(Bytes32Deque)11273_storage": {
				"encoding": "inplace",
				"label": "struct DoubleEndedQueue.Bytes32Deque",
				"members": [
					{
						"astId": 11266,
						"contract": "GovernorContract.sol:GovernorContract",
						"label": "_begin",
						"offset": 0,
						"slot": "0",
						"type": "t_uint128"
					},
					{
						"astId": 11268,
						"contract": "GovernorContract.sol:GovernorContract",
						"label": "_end",
						"offset": 16,
						"slot": "0",
						"type": "t_uint128"
					},
					{
						"astId": 11272,
						"contract": "GovernorContract.sol:GovernorContract",
						"label": "_data",
						"offset": 0,
						"slot": "1",
						"type": "t_mapping(t_uint128,t_bytes32)"
					}
				],
				"numberOfBytes": "64"
			},
			"t_struct(Checkpoint208)10218_storage": {
				"encoding": "inplace",
				"label": "struct Checkpoints.Checkpoint208",
				"members": [
					{
						"astId": 10215,
						"contract": "GovernorContract.sol:GovernorContract",
						"label": "_key",
						"offset": 0,
						"slot": "0",
						"type": "t_uint48"
					},
					{
						"astId": 10217,
						"contract": "GovernorContract.sol:GovernorContract",
						"label": "_value",
						"offset": 6,
						"slot": "0",
						"type": "t_uint208"
					}
				],
				"numberOfBytes": "32"
			},
			"t_struct(ProposalCore)446_storage": {
				"encoding": "inplace",
				"label": "struct Governor.ProposalCore",
				"members": [
					{
						"astId": 435,
						"contract": "GovernorContract.sol:GovernorContract",
						"label": "proposer",
						"offset": 0,
						"slot": "0",
						"type": "t_address"
					},
					{
						"astId": 437,
						"contract": "GovernorContract.sol:GovernorContract",
						"label": "voteStart",
						"offset": 20,
						"slot": "0",
						"type": "t_uint48"
					},
					{
						"astId": 439,
						"contract": "GovernorContract.sol:GovernorContract",
						"label": "voteDuration",
						"offset": 26,
						"slot": "0",
						"type": "t_uint32"
					},
					{
						"astId": 441,
						"contract": "GovernorContract.sol:GovernorContract",
						"label": "executed",
						"offset": 30,
						"slot": "0",
						"type": "t_bool"
					},
					{
						"astId": 443,
						"contract": "GovernorContract.sol:GovernorContract",
						"label": "canceled",
						"offset": 31,
						"slot": "0",
						"type": "t_bool"
					},
					{
						"astId": 445,
						"contract": "GovernorContract.sol:GovernorContract",
						"label": "etaSeconds",
						"offset": 0,
						"slot": "1",
						"type": "t_uint48"
					}
				],
				"numberOfBytes": "64"
			},
			"t_struct(ProposalVote)3684_storage": {
				"encoding": "inplace",
				"label": "struct GovernorCountingSimple.ProposalVote",
				"members": [
					{
						"astId": 3675,
						"contract": "GovernorContract.sol:GovernorContract",
						"label": "againstVotes",
						"offset": 0,
						"slot": "0",
						"type": "t_uint256"
					},
					{
						"astId": 3677,
						"contract": "GovernorContract.sol:GovernorContract",
						"label": "forVotes",
						"offset": 0,
						"slot": "1",
						"type": "t_uint256"
					},
					{
						"astId": 3679,
						"contract": "GovernorContract.sol:GovernorContract",
						"label": "abstainVotes",
						"offset": 0,
						"slot": "2",
						"type": "t_uint256"
					},
					{
						"astId": 3683,
						"contract": "GovernorContract.sol:GovernorContract",
						"label": "hasVoted",
						"offset": 0,
						"slot": "3",
						"type": "t_mapping(t_address,t_bool)"
					}
				],
				"numberOfBytes": "128"
			},
			"t_struct(Trace208)10213_storage": {
				"encoding": "inplace",
				"label": "struct Checkpoints.Trace208",
				"members": [
					{
						"astId": 10212,
						"contract": "GovernorContract.sol:GovernorContract",
						"label": "_checkpoints",
						"offset": 0,
						"slot": "0",
						"type": "t_array(t_struct(Checkpoint208)10218_storage)dyn_storage"
					}
				],
				"numberOfBytes": "32"
			},
			"t_uint128": {
				"encoding": "inplace",
				"label": "uint128",
				"numberOfBytes": "16"
			},
			"t_uint208": {
				"encoding": "inplace",
				"label": "uint208",
				"numberOfBytes": "26"
			},
			"t_uint256": {
				"encoding": "inplace",
				"label": "uint256",
				"numberOfBytes": "32"
			},
			"t_uint32": {
				"encoding": "inplace",
				"label": "uint32",
				"numberOfBytes": "4"
			},
			"t_uint48": {
				"encoding": "inplace",
				"label": "uint48",
				"numberOfBytes": "6"
			}
		}
	},
	"web3Deploy": "var _token = /* var of type address here */ ;\nvar _timelock = /* var of type address here */ ;\nvar _votingDelay = /* var of type uint48 here */ ;\nvar _votingPeriod = /* var of type uint32 here */ ;\nvar _quorumPercentage = /* var of type uint256 here */ ;\nvar governorcontractContract = new web3.eth.Contract([{\"inputs\":[{\"internalType\":\"contract IVotes\",\"name\":\"_token\",\"type\":\"address\"},{\"internalType\":\"contract TimelockController\",\"name\":\"_timelock\",\"type\":\"address\"},{\"internalType\":\"uint48\",\"name\":\"_votingDelay\",\"type\":\"uint48\"},{\"internalType\":\"uint32\",\"name\":\"_votingPeriod\",\"type\":\"uint32\"},{\"internalType\":\"uint256\",\"name\":\"_quorumPercentage\",\"type\":\"uint256\"}],\"stateMutability\":\"nonpayable\",\"type\":\"constructor\"},{\"inputs\":[],\"name\":\"CheckpointUnorderedInsertion\",\"type\":\"error\"},{\"inputs\":[],\"name\":\"FailedInnerCall\",\"type\":\"error\"},{\"inputs\":[{\"internalType\":\"address\",\"name\":\"voter\",\"type\":\"address\"}],\"name\":\"GovernorAlreadyCastVote\",\"type\":\"error\"},{\"inputs\":[{\"internalType\":\"uint256\",\"name\":\"proposalId\",\"type\":\"uint256\"}],\"name\":\"GovernorAlreadyQueuedProposal\",\"type\":\"error\"},{\"inputs\":[],\"name\":\"GovernorDisabledDeposit\",\"type\":\"error\"},{\"inputs\":[{\"internalType\":\"address\",\"name\":\"proposer\",\"type\":\"address\"},{\"internalType\":\"uint256\",\"name\":\"votes\",\"type\":\"uint256\"},{\"internalType\":\"uint256\",\"name\":\"threshold\",\"type\":\"uint256\"}],\"name\":\"GovernorInsufficientProposerVotes\",\"type\":\"error\"},{\"inputs\":[{\"internalType\":\"uint256\",\"name\":\"targets\",\"type\":\"uint256\"},{\"internalType\":\"uint256\",\"name\":\"calldatas\",\"type\":\"uint256\"},{\"internalType\":\"uint256\",\"name\":\"values\",\"type\":\"uint256\"}],\"name\":\"GovernorInvalidProposalLength\",\"type\":\"error\"},{\"inputs\":[{\"internalType\":\"uint256\",\"name\":\"quorumNumerator\",\"type\":\"uint256\"},{\"internalType\":\"uint256\",\"name\":\"quorumDenominator\",\"type\":\"uint256\"}],\"name\":\"GovernorInvalidQuorumFraction\",\"type\":\"error\"},{\"inputs\":[{\"internalType\":\"address\",\"name\":\"voter\",\"type\":\"address\"}],\"name\":\"GovernorInvalidSignature\",\"type\":\"error\"},{\"inputs\":[],\"name\":\"GovernorInvalidVoteType\",\"type\":\"error\"},{\"inputs\":[{\"internalType\":\"uint256\",\"name\":\"votingPeriod\",\"type\":\"uint256\"}],\"name\":\"GovernorInvalidVotingPeriod\",\"type\":\"error\"},{\"inputs\":[{\"internalType\":\"uint256\",\"name\":\"proposalId\",\"type\":\"uint256\"}],\"name\":\"GovernorNonexistentProposal\",\"type\":\"error\"},{\"inputs\":[{\"internalType\":\"uint256\",\"name\":\"proposalId\",\"type\":\"uint256\"}],\"name\":\"GovernorNotQueuedProposal\",\"type\":\"error\"},{\"inputs\":[{\"internalType\":\"address\",\"name\":\"account\",\"type\":\"address\"}],\"name\":\"GovernorOnlyExecutor\",\"type\":\"error\"},{\"inputs\":[{\"internalType\":\"address\",\"name\":\"account\",\"type\":\"address\"}],\"name\":\"GovernorOnlyProposer\",\"type\":\"error\"},{\"inputs\":[],\"name\":\"GovernorQueueNotImplemented\",\"type\":\"error\"},{\"inputs\":[{\"internalType\":\"address\",\"name\":\"proposer\",\"type\":\"address\"}],\"name\":\"GovernorRestrictedProposer\",\"type\":\"error\"},{\"inputs\":[{\"internalType\":\"uint256\",\"name\":\"proposalId\",\"type\":\"uint256\"},{\"internalType\":\"enum IGovernor.ProposalState\",\"name\":\"current\",\"type\":\"uint8\"},{\"internalType\":\"bytes32\",\"name\":\"expectedStates\",\"type\":\"bytes32\"}],\"name\":\"GovernorUnexpectedProposalState\",\"type\":\"error\"},{\"inputs\":[{\"internalType\":\"address\",\"name\":\"account\",\"type\":\"address\"},{\"internalType\":\"uint256\",\"name\":\"currentNonce\",\"type\":\"uint256\"}],\"name\":\"InvalidAccountNonce\",\"type\":\"error\"},{\"inputs\":[],\"name\":\"InvalidShortString\",\"type\":\"error\"},{\"inputs\":[],\"name\":\"QueueEmpty\",\"type\":\"error\"},{\"inputs\":[],\"name\":\"QueueFull\",\"type\":\"error\"},{\"inputs\":[{\"internalType\":\"uint8\",\"name\":\"bits\",\"type\":\"uint8\"},{\"internalType\":\"uint256\",\"name\":\"value\",\"type\":\"uint256\"}],\"name\":\"SafeCastOverflowedUintDowncast\",\"type\":\"error\"},{\"inputs\":[{\"internalType\":\"string\",\"name\":\"str\",\"type\":\"string\"}],\"name\":\"StringTooLong\",\"type\":\"error\"},{\"anonymous\":false,\"inputs\":[],\"name\":\"EIP712DomainChanged\",\"type\":\"event\"},{\"anonymous\":false,\"inputs\":[{\"indexed\":false,\"internalType\":\"uint256\",\"name\":\"proposalId\",\"type\":\"uint256\"}],\"name\":\"ProposalCanceled\",\"type\":\"event\"},{\"anonymous\":false,\"inputs\":[{\"indexed\":false,\"internalType\":\"uint256\",\"name\":\"proposalId\",\"type\":\"uint256\"},{\"indexed\":false,\"internalType\":\"address\",\"name\":\"proposer\",\"type\":\"address\"},{\"indexed\":false,\"internalType\":\"address[]\",\"name\":\"targets\",\"type\":\"address[]\"},{\"indexed\":false,\"internalType\":\"uint256[]\",\"name\":\"values\",\"type\":\"uint256[]\"},{\"indexed\":false,\"internalType\":\"string[]\",\"name\":\"signatures\",\"type\":\"string[]\"},{\"indexed\":false,\"internalType\":\"bytes[]\",\"name\":\"calldatas\",\"type\":\"bytes[]\"},{\"indexed\":false,\"internalType\":\"uint256\",\"name\":\"voteStart\",\"type\":\"uint256\"},{\"indexed\":false,\"internalType\":\"uint256\",\"name\":\"voteEnd\",\"type\":\"uint256\"},{\"indexed\":false,\"internalType\":\"string\",\"name\":\"description\",\"type\":\"string\"}],\"name\":\"ProposalCreated\",\"type\":\"event\"},{\"anonymous\":false,\"inputs\":[{\"indexed\":false,\"internalType\":\"uint256\",\"name\":\"proposalId\",\"type\":\"uint256\"}],\"name\":\"ProposalExecuted\",\"type\":\"event\"},{\"anonymous\":false,\"inputs\":[{\"indexed\":false,\"internalType\":\"uint256\",\"name\":\"proposalId\",\"type\":\"uint256\"},{\"indexed\":false,\"internalType\":\"uint256\",\"name\":\"etaSeconds\",\"type\":\"uint256\"}],\"name\":\"ProposalQueued\",\"type\":\"event\"},{\"anonymous\":false,\"inputs\":[{\"indexed\":false,\"internalType\":\"uint256\",\"name\":\"oldProposalThreshold\",\"type\":\"uint256\"},{\"indexed\":false,\"internalType\":\"uint256\",\"name\":\"newProposalThreshold\",\"type\":\"uint256\"}],\"name\":\"ProposalThresholdSet\",\"type\":\"event\"},{\"anonymous\":false,\"inputs\":[{\"indexed\":false,\"internalType\":\"uint256\",\"name\":\"oldQuorumNumerator\",\"type\":\"uint256\"},{\"indexed\":false,\"internalType\":\"uint256\",\"name\":\"newQuorumNumerator\",\"type\":\"uint256\"}],\"name\":\"QuorumNumeratorUpdated\",\"type\":\"event\"},{\"anonymous\":false,\"inputs\":[{\"indexed\":false,\"internalType\":\"address\",\"name\":\"oldTimelock\",\"type\":\"address\"},{\"indexed\":false,\"internalType\":\"address\",\"name\":\"newTimelock\",\"type\":\"address\"}],\"name\":\"TimelockChange\",\"type\":\"event\"},{\"anonymous\":false,\"inputs\":[{\"indexed\":true,\"internalType\":\"address\",\"name\":\"voter\",\"type\":\"address\"},{\"indexed\":false,\"internalType\":\"uint256\",\"name\":\"proposalId\",\"type\":\"uint256\"},{\"indexed\":false,\"internalType\":\"uint8\",\"name\":\"support\",\"type\":\"uint8\"},{\"indexed\":false,\"internalType\":\"uint256\",\"name\":\"weight\",\"type\":\"uint256\"},{\"indexed\":false,\"internalType\":\"string\",\"name\":\"reason\",\"type\":\"string\"}],\"name\":\"VoteCast\",\"type\":\"event\"},{\"anonymous\":false,\"inputs\":[{\"indexed\":true,\"internalType\":\"address\",\"name\":\"voter\",\"type\":\"address\"},{\"indexed\":false,\"internalType\":\"uint256\",\"name\":\"proposalId\",\"type\":\"uint256\"},{\"indexed\":false,\"internalType\":\"uint8\",\"name\":\"support\",\"type\":\"uint8\"},{\"indexed\":false,\"internalType\":\"uint256\",\"name\":\"weight\",\"type\":\"uint256\"},{\"indexed\":false,\"internalType\":\"string\",\"name\":\"reason\",\"type\":\"string\"},{\"indexed\":false,\"internalType\":\"bytes\",\"name\":\"params\",\"type\":\"bytes\"}],\"name\":\"VoteCastWithParams\",\"type\":\"event\"},{\"anonymous\":false,\"inputs\":[{\"indexed\":false,\"internalType\":\"uint256\",\"name\":\"oldVotingDelay\",\"type\":\"uint256\"},{\"indexed\":false,\"internalType\":\"uint256\",\"name\":\"newVotingDelay\",\"type\":\"uint256\"}],\"name\":\"VotingDelaySet\",\"type\":\"event\"},{\"anonymous\":false,\"inputs\":[{\"indexed\":false,\"internalType\":\"uint256\",\"name\":\"oldVotingPeriod\",\"type\":\"uint256\"},{\"indexed\":false,\"internalType\":\"uint256\",\"name\":\"newVotingPeriod\",\"type\":\"uint256\"}],\"name\":\"VotingPeriodSet\",\"type\":\"event\"},{\"inputs\":[],\"name\":\"BALLOT_TYPEHASH\",\"outputs\":[{\"internalType\":\"bytes32\",\"name\":\"\",\"type\":\"bytes32\"}],\"stateMutability\":\"view\",\"type\":\"function\"},{\"inputs\":[],\"name\":\"CLOCK_MODE\",\"outputs\":[{\"internalType\":\"string\",\"name\":\"\",\"type\":\"string\"}],\"stateMutability\":\"view\",\"type\":\"function\"},{\"inputs\":[],\"name\":\"COUNTING_MODE\",\"outputs\":[{\"internalType\":\"string\",\"name\":\"\",\"type\":\"string\"}],\"stateMutability\":\"pure\",\"type\":\"function\"},{\"inputs\":[],\"name\":\"EXTENDED_BALLOT_TYPEHASH\",\"outputs\":[{\"internalType\":\"bytes32\",\"name\":\"\",\"type\":\"bytes32\"}],\"stateMutability\":\"view\",\"type\":\"function\"},{\"inputs\":[{\"internalType\":\"address[]\",\"name\":\"targets\",\"type\":\"address[]\"},{\"internalType\":\"uint256[]\",\"name\":\"values\",\"type\":\"uint256[]\"},{\"internalType\":\"bytes[]\",\"name\":\"calldatas\",\"type\":\"bytes[]\"},{\"internalType\":\"bytes32\",\"name\":\"descriptionHash\",\"type\":\"bytes32\"}],\"name\":\"cancel\",\"outputs\":[{\"internalType\":\"uint256\",\"name\":\"\",\"type\":\"uint256\"}],\"stateMutability\":\"nonpayable\",\"type\":\"function\"},{\"inputs\":[{\"internalType\":\"uint256\",\"name\":\"proposalId\",\"type\":\"uint256\"},{\"internalType\":\"uint8\",\"name\":\"support\",\"type\":\"uint8\"}],\"name\":\"castVote\",\"outputs\":[{\"internalType\":\"uint256\",\"name\":\"\",\"type\":\"uint256\"}],\"stateMutability\":\"nonpayable\",\"type\":\"function\"},{\"inputs\":[{\"internalType\":\"uint256\",\"name\":\"proposalId\",\"type\":\"uint256\"},{\"internalType\":\"uint8\",\"name\":\"support\",\"type\":\"uint8\"},{\"internalType\":\"address\",\"name\":\"voter\",\"type\":\"address\"},{\"internalType\":\"bytes\",\"name\":\"signature\",\"type\":\"bytes\"}],\"name\":\"castVoteBySig\",\"outputs\":[{\"internalType\":\"uint256\",\"name\":\"\",\"type\":\"uint256\"}],\"stateMutability\":\"nonpayable\",\"type\":\"function\"},{\"inputs\":[{\"internalType\":\"uint256\",\"name\":\"proposalId\",\"type\":\"uint256\"},{\"internalType\":\"uint8\",\"name\":\"support\",\"type\":\"uint8\"},{\"internalType\":\"string\",\"name\":\"reason\",\"type\":\"string\"}],\"name\":\"castVoteWithReason\",\"outputs\":[{\"internalType\":\"uint256\",\"name\":\"\",\"type\":\"uint256\"}],\"stateMutability\":\"nonpayable\",\"type\":\"function\"},{\"inputs\":[{\"internalType\":\"uint256\",\"name\":\"proposalId\",\"type\":\"uint256\"},{\"internalType\":\"uint8\",\"name\":\"support\",\"type\":\"uint8\"},{\"internalType\":\"string\",\"name\":\"reason\",\"type\":\"string\"},{\"internalType\":\"bytes\",\"name\":\"params\",\"type\":\"bytes\"}],\"name\":\"castVoteWithReasonAndParams\",\"outputs\":[{\"internalType\":\"uint256\",\"name\":\"\",\"type\":\"uint256\"}],\"stateMutability\":\"nonpayable\",\"type\":\"function\"},{\"inputs\":[{\"internalType\":\"uint256\",\"name\":\"proposalId\",\"type\":\"uint256\"},{\"internalType\":\"uint8\",\"name\":\"support\",\"type\":\"uint8\"},{\"internalType\":\"address\",\"name\":\"voter\",\"type\":\"address\"},{\"internalType\":\"string\",\"name\":\"reason\",\"type\":\"string\"},{\"internalType\":\"bytes\",\"name\":\"params\",\"type\":\"bytes\"},{\"internalType\":\"bytes\",\"name\":\"signature\",\"type\":\"bytes\"}],\"name\":\"castVoteWithReasonAndParamsBySig\",\"outputs\":[{\"internalType\":\"uint256\",\"name\":\"\",\"type\":\"uint256\"}],\"stateMutability\":\"nonpayable\",\"type\":\"function\"},{\"inputs\":[],\"name\":\"clock\",\"outputs\":[{\"internalType\":\"uint48\",\"name\":\"\",\"type\":\"uint48\"}],\"stateMutability\":\"view\",\"type\":\"function\"},{\"inputs\":[],\"name\":\"eip712Domain\",\"outputs\":[{\"internalType\":\"bytes1\",\"name\":\"fields\",\"type\":\"bytes1\"},{\"internalType\":\"string\",\"name\":\"name\",\"type\":\"string\"},{\"internalType\":\"string\",\"name\":\"version\",\"type\":\"string\"},{\"internalType\":\"uint256\",\"name\":\"chainId\",\"type\":\"uint256\"},{\"internalType\":\"address\",\"name\":\"verifyingContract\",\"type\":\"address\"},{\"internalType\":\"bytes32\",\"name\":\"salt\",\"type\":\"bytes32\"},{\"internalType\":\"uint256[]\",\"name\":\"extensions\",\"type\":\"uint256[]\"}],\"stateMutability\":\"view\",\"type\":\"function\"},{\"inputs\":[{\"internalType\":\"address[]\",\"name\":\"targets\",\"type\":\"address[]\"},{\"internalType\":\"uint256[]\",\"name\":\"values\",\"type\":\"uint256[]\"},{\"internalType\":\"bytes[]\",\"name\":\"calldatas\",\"type\":\"bytes[]\"},{\"internalType\":\"bytes32\",\"name\":\"descriptionHash\",\"type\":\"bytes32\"}],\"name\":\"execute\",\"outputs\":[{\"internalType\":\"uint256\",\"name\":\"\",\"type\":\"uint256\"}],\"stateMutability\":\"payable\",\"type\":\"function\"},{\"inputs\":[{\"internalType\":\"address\",\"name\":\"account\",\"type\":\"address\"},{\"internalType\":\"uint256\",\"name\":\"timepoint\",\"type\":\"uint256\"}],\"name\":\"getVotes\",\"outputs\":[{\"internalType\":\"uint256\",\"name\":\"\",\"type\":\"uint256\"}],\"stateMutability\":\"view\",\"type\":\"function\"},{\"inputs\":[{\"internalType\":\"address\",\"name\":\"account\",\"type\":\"address\"},{\"internalType\":\"uint256\",\"name\":\"timepoint\",\"type\":\"uint256\"},{\"internalType\":\"bytes\",\"name\":\"params\",\"type\":\"bytes\"}],\"name\":\"getVotesWithParams\",\"outputs\":[{\"internalType\":\"uint256\",\"name\":\"\",\"type\":\"uint256\"}],\"stateMutability\":\"view\",\"type\":\"function\"},{\"inputs\":[{\"internalType\":\"uint256\",\"name\":\"proposalId\",\"type\":\"uint256\"},{\"internalType\":\"address\",\"name\":\"account\",\"type\":\"address\"}],\"name\":\"hasVoted\",\"outputs\":[{\"internalType\":\"bool\",\"name\":\"\",\"type\":\"bool\"}],\"stateMutability\":\"view\",\"type\":\"function\"},{\"inputs\":[{\"internalType\":\"address[]\",\"name\":\"targets\",\"type\":\"address[]\"},{\"internalType\":\"uint256[]\",\"name\":\"values\",\"type\":\"uint256[]\"},{\"internalType\":\"bytes[]\",\"name\":\"calldatas\",\"type\":\"bytes[]\"},{\"internalType\":\"bytes32\",\"name\":\"descriptionHash\",\"type\":\"bytes32\"}],\"name\":\"hashProposal\",\"outputs\":[{\"internalType\":\"uint256\",\"name\":\"\",\"type\":\"uint256\"}],\"stateMutability\":\"pure\",\"type\":\"function\"},{\"inputs\":[],\"name\":\"name\",\"outputs\":[{\"internalType\":\"string\",\"name\":\"\",\"type\":\"string\"}],\"stateMutability\":\"view\",\"type\":\"function\"},{\"inputs\":[{\"internalType\":\"address\",\"name\":\"owner\",\"type\":\"address\"}],\"name\":\"nonces\",\"outputs\":[{\"internalType\":\"uint256\",\"name\":\"\",\"type\":\"uint256\"}],\"stateMutability\":\"view\",\"type\":\"function\"},{\"inputs\":[{\"internalType\":\"address\",\"name\":\"\",\"type\":\"address\"},{\"internalType\":\"address\",\"name\":\"\",\"type\":\"address\"},{\"internalType\":\"uint256[]\",\"name\":\"\",\"type\":\"uint256[]\"},{\"internalType\":\"uint256[]\",\"name\":\"\",\"type\":\"uint256[]\"},{\"internalType\":\"bytes\",\"name\":\"\",\"type\":\"bytes\"}],\"name\":\"onERC1155BatchReceived\",\"outputs\":[{\"internalType\":\"bytes4\",\"name\":\"\",\"type\":\"bytes4\"}],\"stateMutability\":\"nonpayable\",\"type\":\"function\"},{\"inputs\":[{\"internalType\":\"address\",\"name\":\"\",\"type\":\"address\"},{\"internalType\":\"address\",\"name\":\"\",\"type\":\"address\"},{\"internalType\":\"uint256\",\"name\":\"\",\"type\":\"uint256\"},{\"internalType\":\"uint256\",\"name\":\"\",\"type\":\"uint256\"},{\"internalType\":\"bytes\",\"name\":\"\",\"type\":\"bytes\"}],\"name\":\"onERC1155Received\",\"outputs\":[{\"internalType\":\"bytes4\",\"name\":\"\",\"type\":\"bytes4\"}],\"stateMutability\":\"nonpayable\",\"type\":\"function\"},{\"inputs\":[{\"internalType\":\"address\",\"name\":\"\",\"type\":\"address\"},{\"internalType\":\"address\",\"name\":\"\",\"type\":\"address\"},{\"internalType\":\"uint256\",\"name\":\"\",\"type\":\"uint256\"},{\"internalType\":\"bytes\",\"name\":\"\",\"type\":\"bytes\"}],\"name\":\"onERC721Received\",\"outputs\":[{\"internalType\":\"bytes4\",\"name\":\"\",\"type\":\"bytes4\"}],\"stateMutability\":\"nonpayable\",\"type\":\"function\"},{\"inputs\":[{\"internalType\":\"uint256\",\"name\":\"proposalId\",\"type\":\"uint256\"}],\"name\":\"proposalDeadline\",\"outputs\":[{\"internalType\":\"uint256\",\"name\":\"\",\"type\":\"uint256\"}],\"stateMutability\":\"view\",\"type\":\"function\"},{\"inputs\":[{\"internalType\":\"uint256\",\"name\":\"proposalId\",\"type\":\"uint256\"}],\"name\":\"proposalEta\",\"outputs\":[{\"internalType\":\"uint256\",\"name\":\"\",\"type\":\"uint256\"}],\"stateMutability\":\"view\",\"type\":\"function\"},{\"inputs\":[{\"internalType\":\"uint256\",\"name\":\"proposalId\",\"type\":\"uint256\"}],\"name\":\"proposalNeedsQueuing\",\"outputs\":[{\"internalType\":\"bool\",\"name\":\"\",\"type\":\"bool\"}],\"stateMutability\":\"view\",\"type\":\"function\"},{\"inputs\":[{\"internalType\":\"uint256\",\"name\":\"proposalId\",\"type\":\"uint256\"}],\"name\":\"proposalProposer\",\"outputs\":[{\"internalType\":\"address\",\"name\":\"\",\"type\":\"address\"}],\"stateMutability\":\"view\",\"type\":\"function\"},{\"inputs\":[{\"internalType\":\"uint256\",\"name\":\"proposalId\",\"type\":\"uint256\"}],\"name\":\"proposalSnapshot\",\"outputs\":[{\"internalType\":\"uint256\",\"name\":\"\",\"type\":\"uint256\"}],\"stateMutability\":\"view\",\"type\":\"function\"},{\"inputs\":[],\"name\":\"proposalThreshold\",\"outputs\":[{\"internalType\":\"uint256\",\"name\":\"\",\"type\":\"uint256\"}],\"stateMutability\":\"view\",\"type\":\"function\"},{\"inputs\":[{\"internalType\":\"uint256\",\"name\":\"proposalId\",\"type\":\"uint256\"}],\"name\":\"proposalVotes\",\"outputs\":[{\"internalType\":\"uint256\",\"name\":\"againstVotes\",\"type\":\"uint256\"},{\"internalType\":\"uint256\",\"name\":\"forVotes\",\"type\":\"uint256\"},{\"internalType\":\"uint256\",\"name\":\"abstainVotes\",\"type\":\"uint256\"}],\"stateMutability\":\"view\",\"type\":\"function\"},{\"inputs\":[{\"internalType\":\"address[]\",\"name\":\"targets\",\"type\":\"address[]\"},{\"internalType\":\"uint256[]\",\"name\":\"values\",\"type\":\"uint256[]\"},{\"internalType\":\"bytes[]\",\"name\":\"calldatas\",\"type\":\"bytes[]\"},{\"internalType\":\"string\",\"name\":\"description\",\"type\":\"string\"}],\"name\":\"propose\",\"outputs\":[{\"internalType\":\"uint256\",\"name\":\"\",\"type\":\"uint256\"}],\"stateMutability\":\"nonpayable\",\"type\":\"function\"},{\"inputs\":[{\"internalType\":\"address[]\",\"name\":\"targets\",\"type\":\"address[]\"},{\"internalType\":\"uint256[]\",\"name\":\"values\",\"type\":\"uint256[]\"},{\"internalType\":\"bytes[]\",\"name\":\"calldatas\",\"type\":\"bytes[]\"},{\"internalType\":\"bytes32\",\"name\":\"descriptionHash\",\"type\":\"bytes32\"}],\"name\":\"queue\",\"outputs\":[{\"internalType\":\"uint256\",\"name\":\"\",\"type\":\"uint256\"}],\"stateMutability\":\"nonpayable\",\"type\":\"function\"},{\"inputs\":[{\"internalType\":\"uint256\",\"name\":\"blockNumber\",\"type\":\"uint256\"}],\"name\":\"quorum\",\"outputs\":[{\"internalType\":\"uint256\",\"name\":\"\",\"type\":\"uint256\"}],\"stateMutability\":\"view\",\"type\":\"function\"},{\"inputs\":[],\"name\":\"quorumDenominator\",\"outputs\":[{\"internalType\":\"uint256\",\"name\":\"\",\"type\":\"uint256\"}],\"stateMutability\":\"view\",\"type\":\"function\"},{\"inputs\":[{\"internalType\":\"uint256\",\"name\":\"timepoint\",\"type\":\"uint256\"}],\"name\":\"quorumNumerator\",\"outputs\":[{\"internalType\":\"uint256\",\"name\":\"\",\"type\":\"uint256\"}],\"stateMutability\":\"view\",\"type\":\"function\"},{\"inputs\":[],\"name\":\"quorumNumerator\",\"outputs\":[{\"internalType\":\"uint256\",\"name\":\"\",\"type\":\"uint256\"}],\"stateMutability\":\"view\",\"type\":\"function\"},{\"inputs\":[{\"internalType\":\"address\",\"name\":\"target\",\"type\":\"address\"},{\"internalType\":\"uint256\",\"name\":\"value\",\"type\":\"uint256\"},{\"internalType\":\"bytes\",\"name\":\"data\",\"type\":\"bytes\"}],\"name\":\"relay\",\"outputs\":[],\"stateMutability\":\"payable\",\"type\":\"function\"},{\"inputs\":[{\"internalType\":\"uint256\",\"name\":\"newProposalThreshold\",\"type\":\"uint256\"}],\"name\":\"setProposalThreshold\",\"outputs\":[],\"stateMutability\":\"nonpayable\",\"type\":\"function\"},{\"inputs\":[{\"internalType\":\"uint48\",\"name\":\"newVotingDelay\",\"type\":\"uint48\"}],\"name\":\"setVotingDelay\",\"outputs\":[],\"stateMutability\":\"nonpayable\",\"type\":\"function\"},{\"inputs\":[{\"internalType\":\"uint32\",\"name\":\"newVotingPeriod\",\"type\":\"uint32\"}],\"name\":\"setVotingPeriod\",\"outputs\":[],\"stateMutability\":\"nonpayable\",\"type\":\"function\"},{\"inputs\":[{\"internalType\":\"uint256\",\"name\":\"proposalId\",\"type\":\"uint256\"}],\"name\":\"state\",\"outputs\":[{\"internalType\":\"enum IGovernor.ProposalState\",\"name\":\"\",\"type\":\"uint8\"}],\"stateMutability\":\"view\",\"type\":\"function\"},{\"inputs\":[{\"internalType\":\"bytes4\",\"name\":\"interfaceId\",\"type\":\"bytes4\"}],\"name\":\"supportsInterface\",\"outputs\":[{\"internalType\":\"bool\",\"name\":\"\",\"type\":\"bool\"}],\"stateMutability\":\"view\",\"type\":\"function\"},{\"inputs\":[],\"name\":\"timelock\",\"outputs\":[{\"internalType\":\"address\",\"name\":\"\",\"type\":\"address\"}],\"stateMutability\":\"view\",\"type\":\"function\"},{\"inputs\":[],\"name\":\"token\",\"outputs\":[{\"internalType\":\"contract IERC5805\",\"name\":\"\",\"type\":\"address\"}],\"stateMutability\":\"view\",\"type\":\"function\"},{\"inputs\":[{\"internalType\":\"uint256\",\"name\":\"newQuorumNumerator\",\"type\":\"uint256\"}],\"name\":\"updateQuorumNumerator\",\"outputs\":[],\"stateMutability\":\"nonpayable\",\"type\":\"function\"},{\"inputs\":[{\"internalType\":\"contract TimelockController\",\"name\":\"newTimelock\",\"type\":\"address\"}],\"name\":\"updateTimelock\",\"outputs\":[],\"stateMutability\":\"nonpayable\",\"type\":\"function\"},{\"inputs\":[],\"name\":\"version\",\"outputs\":[{\"internalType\":\"string\",\"name\":\"\",\"type\":\"string\"}],\"stateMutability\":\"view\",\"type\":\"function\"},{\"inputs\":[],\"name\":\"votingDelay\",\"outputs\":[{\"internalType\":\"uint256\",\"name\":\"\",\"type\":\"uint256\"}],\"stateMutability\":\"view\",\"type\":\"function\"},{\"inputs\":[],\"name\":\"votingPeriod\",\"outputs\":[{\"internalType\":\"uint256\",\"name\":\"\",\"type\":\"uint256\"}],\"stateMutability\":\"view\",\"type\":\"function\"},{\"stateMutability\":\"payable\",\"type\":\"receive\"}]);\nvar governorcontract = governorcontractContract.deploy({\n     data: '0x61018060405234801562000011575f80fd5b5060405162004c0238038062004c028339810160408190526200003491620007af565b83818685855f6040518060400160405280601081526020016f11dbdd995c9b9bdc90dbdb9d1c9858dd60821b81525080620000746200018c60201b60201c565b62000080825f620001a7565b6101205262000091816001620001a7565b61014052815160208084019190912060e052815190820120610100524660a0526200011e60e05161010051604080517f8b73c3c69bb8fe3d512ecc4cf759cc79239f7b179b0ffacaa9a75d522b39400f60208201529081019290925260608201524660808201523060a08201525f9060c00160405160208183030381529060405280519060200120905090565b60805250503060c0526003620001358282620008c0565b5062000143905083620001df565b6200014e8262000245565b6200015981620002ea565b5050506001600160a01b03166101605262000174816200032b565b506200018081620003ca565b50505050505062000a3a565b6040805180820190915260018152603160f81b602082015290565b5f602083511015620001c657620001be8362000433565b9050620001d9565b81620001d38482620008c0565b5060ff90505b92915050565b6008546040805165ffffffffffff928316815291831660208301527fc565b045403dc03c2eea82b81a0465edad9e2e7fc4d97e11421c209da93d7a93910160405180910390a16008805465ffffffffffff191665ffffffffffff92909216919091179055565b8063ffffffff165f03620002735760405163f1cfbf0560e01b81525f60048201526024015b60405180910390fd5b6008546040805163ffffffff66010000000000009093048316815291831660208301527f7e3f7f0708a84de9203036abaa450dccc85ad5ff52f78c170f3edb55cf5e8828910160405180910390a16008805463ffffffff90921666010000000000000263ffffffff60301b19909216919091179055565b60075460408051918252602082018390527fccb45da8d5717e6c4544694297c4ba5cf151d455c9bb0ed4fc7a38411bc05461910160405180910390a1600755565b6064808211156200035a5760405163243e544560e01b815260048101839052602481018290526044016200026a565b5f6200036562000475565b90506200038a6200037562000490565b620003808562000511565b600a91906200054a565b505060408051828152602081018590527f0553476bf02ef2726e8ce5ced78d63e26e602e4a2257b1f559418e24b4633997910160405180910390a1505050565b600b54604080516001600160a01b03928316815291831660208301527f08f74ea46ef7894f65eabfb5e6e695de773a000b47c529ab559178069b226401910160405180910390a1600b80546001600160a01b0319166001600160a01b0392909216919091179055565b5f80829050601f8151111562000460578260405163305a27a960e01b81526004016200026a91906200098c565b80516200046d82620009da565b179392505050565b5f62000482600a62000566565b6001600160d01b0316905090565b5f6200049c6101605190565b6001600160a01b03166391ddadf46040518163ffffffff1660e01b8152600401602060405180830381865afa925050508015620004f8575060408051601f3d908101601f19168201909252620004f591810190620009fe565b60015b6200050c5762000507620005b3565b905090565b919050565b5f6001600160d01b0382111562000546576040516306dfcc6560e41b815260d06004820152602481018390526044016200026a565b5090565b5f8062000559858585620005bf565b915091505b935093915050565b80545f908015620005aa5762000590836200058360018462000a1a565b5f91825260209091200190565b54660100000000000090046001600160d01b0316620005ac565b5f5b9392505050565b5f62000507436200074d565b82545f9081908015620006ef575f620005df876200058360018562000a1a565b60408051808201909152905465ffffffffffff80821680845266010000000000009092046001600160d01b0316602084015291925090871610156200063757604051632520601d60e01b815260040160405180910390fd5b805165ffffffffffff8088169116036200068b57846200065e886200058360018662000a1a565b80546001600160d01b039290921666010000000000000265ffffffffffff909216919091179055620006de565b6040805180820190915265ffffffffffff80881682526001600160d01b0380881660208085019182528b54600181018d555f8d815291909120945191519092166601000000000000029216919091179101555b6020015192508391506200055e9050565b50506040805180820190915265ffffffffffff80851682526001600160d01b0380851660208085019182528854600181018a555f8a81529182209551925190931666010000000000000291909316179201919091559050816200055e565b5f65ffffffffffff82111562000546576040516306dfcc6560e41b815260306004820152602481018390526044016200026a565b6001600160a01b038116811462000796575f80fd5b50565b805165ffffffffffff811681146200050c575f80fd5b5f805f805f60a08688031215620007c4575f80fd5b8551620007d18162000781565b6020870151909550620007e48162000781565b9350620007f46040870162000799565b9250606086015163ffffffff811681146200080d575f80fd5b80925050608086015190509295509295909350565b634e487b7160e01b5f52604160045260245ffd5b600181811c908216806200084b57607f821691505b6020821081036200086a57634e487b7160e01b5f52602260045260245ffd5b50919050565b601f821115620008bb57805f5260205f20601f840160051c81016020851015620008975750805b601f840160051c820191505b81811015620008b8575f8155600101620008a3565b50505b505050565b81516001600160401b03811115620008dc57620008dc62000822565b620008f481620008ed845462000836565b8462000870565b602080601f8311600181146200092a575f8415620009125750858301515b5f19600386901b1c1916600185901b17855562000984565b5f85815260208120601f198616915b828110156200095a5788860151825594840194600190910190840162000939565b50858210156200097857878501515f19600388901b60f8161c191681555b505060018460011b0185555b505050505050565b5f602080835283518060208501525f5b81811015620009ba578581018301518582016040015282016200099c565b505f604082860101526040601f19601f8301168501019250505092915050565b805160208083015191908110156200086a575f1960209190910360031b1b16919050565b5f6020828403121562000a0f575f80fd5b620005ac8262000799565b81810381811115620001d957634e487b7160e01b5f52601160045260245ffd5b60805160a05160c05160e0516101005161012051610140516101605161415062000ab25f395f81816109a101528181610df90152818161133c01528181611f5401526121a701525f611f2101525f611ef501525f6127af01525f61278701525f6126e201525f61270c01525f61273601526141505ff3fe60806040526004361061028e575f3560e01c80637ecebe0011610155578063c01f9e37116100be578063e540d01d11610078578063e540d01d146108f8578063eb9019d414610917578063ece40cc114610936578063f23a6e6114610955578063f8ce560a14610974578063fc0c546a14610993575f80fd5b8063c01f9e3714610812578063c28bc2fa14610831578063c59057e414610844578063d33219b414610863578063dd4e2ba514610880578063deaaa7cc146108c5575f80fd5b8063a7713a701161010f578063a7713a7014610757578063a890c9101461076b578063a9a952941461078a578063ab58fb8e146107a9578063b58131b0146107df578063bc197c81146107f3575f80fd5b80637ecebe001461068057806384b0196e146106b45780638ff262e3146106db57806391ddadf4146106fa57806397c3d334146107255780639a802a6d14610738575f80fd5b806343859632116101f75780635b8d0e0d116101b15780635b8d0e0d146105c65780635f398a14146105e557806360c4247f1461060457806379051887146106235780637b3c71d3146106425780637d5e81e214610661575f80fd5b806343859632146104b0578063452115d6146104f85780634bf5d7e914610517578063544ffc9c1461052b57806354fd4d501461057e57806356781388146105a7575f80fd5b8063160cbed711610248578063160cbed7146103ec5780632656227d1461040b5780632d63f6931461041e5780632fe3e2611461043d5780633932abb1146104705780633e4f49e614610484575f80fd5b806301ffc9a7146102c957806302a251a3146102fd57806306f3f9e61461032857806306fdde0314610347578063143489d014610368578063150b7a02146103b4575f80fd5b366102c5573061029c6109c5565b6001600160a01b0316146102c357604051637485328f60e11b815260040160405180910390fd5b005b5f80fd5b3480156102d4575f80fd5b506102e86102e3366004613136565b6109dd565b60405190151581526020015b60405180910390f35b348015610308575f80fd5b50600854600160301b900463ffffffff165b6040519081526020016102f4565b348015610333575f80fd5b506102c361034236600461315d565b610a2e565b348015610352575f80fd5b5061035b610a42565b6040516102f491906131c1565b348015610373575f80fd5b5061039c61038236600461315d565b5f908152600460205260409020546001600160a01b031690565b6040516001600160a01b0390911681526020016102f4565b3480156103bf575f80fd5b506103d36103ce3660046132aa565b610ad2565b6040516001600160e01b031990911681526020016102f4565b3480156103f7575f80fd5b5061031a610406366004613479565b610b14565b61031a610419366004613479565b610be0565b348015610429575f80fd5b5061031a61043836600461315d565b610d48565b348015610448575f80fd5b5061031a7f3e83946653575f9a39005e1545185629e92736b7528ab20ca3816f315424a81181565b34801561047b575f80fd5b5061031a610d68565b34801561048f575f80fd5b506104a361049e36600461315d565b610d7a565b6040516102f49190613536565b3480156104bb575f80fd5b506102e86104ca366004613544565b5f8281526009602090815260408083206001600160a01b038516845260030190915290205460ff1692915050565b348015610503575f80fd5b5061031a610512366004613479565b610d84565b348015610522575f80fd5b5061035b610df5565b348015610536575f80fd5b5061056361054536600461315d565b5f908152600960205260409020805460018201546002909201549092565b604080519384526020840192909252908201526060016102f4565b348015610589575f80fd5b506040805180820190915260018152603160f81b602082015261035b565b3480156105b2575f80fd5b5061031a6105c1366004613582565b610eb5565b3480156105d1575f80fd5b5061031a6105e03660046135f0565b610edc565b3480156105f0575f80fd5b5061031a6105ff3660046136a2565b611038565b34801561060f575f80fd5b5061031a61061e36600461315d565b61108b565b34801561062e575f80fd5b506102c361063d366004613732565b611117565b34801561064d575f80fd5b5061031a61065c36600461374d565b611128565b34801561066c575f80fd5b5061031a61067b3660046137a2565b61116e565b34801561068b575f80fd5b5061031a61069a36600461384e565b6001600160a01b03165f9081526002602052604090205490565b3480156106bf575f80fd5b506106c8611228565b6040516102f497969594939291906138a3565b3480156106e6575f80fd5b5061031a6106f5366004613912565b61126a565b348015610705575f80fd5b5061070e611339565b60405165ffffffffffff90911681526020016102f4565b348015610730575f80fd5b50606461031a565b348015610743575f80fd5b5061031a61075236600461395f565b6113c0565b348015610762575f80fd5b5061031a6113cc565b348015610776575f80fd5b506102c361078536600461384e565b6113e5565b348015610795575f80fd5b506102e86107a436600461315d565b6113f6565b3480156107b4575f80fd5b5061031a6107c336600461315d565b5f9081526004602052604090206001015465ffffffffffff1690565b3480156107ea575f80fd5b5061031a6113fe565b3480156107fe575f80fd5b506103d361080d3660046139b3565b611408565b34801561081d575f80fd5b5061031a61082c36600461315d565b61144b565b6102c361083f366004613a3f565b61148d565b34801561084f575f80fd5b5061031a61085e366004613479565b611509565b34801561086e575f80fd5b50600b546001600160a01b031661039c565b34801561088b575f80fd5b506040805180820190915260208082527f737570706f72743d627261766f2671756f72756d3d666f722c6162737461696e9082015261035b565b3480156108d0575f80fd5b5061031a7ff2aad550cf55f045cb27e9c559f9889fdfb6e6cdaa032301d6ea397784ae51d781565b348015610903575f80fd5b506102c3610912366004613a7e565b611542565b348015610922575f80fd5b5061031a610931366004613aa1565b611553565b348015610941575f80fd5b506102c361095036600461315d565b611579565b348015610960575f80fd5b506103d361096f366004613acb565b61158a565b34801561097f575f80fd5b5061031a61098e36600461315d565b6115cd565b34801561099e575f80fd5b507f000000000000000000000000000000000000000000000000000000000000000061039c565b5f6109d8600b546001600160a01b031690565b905090565b5f6001600160e01b031982166332a2ad4360e11b1480610a0d57506001600160e01b03198216630271189760e51b145b80610a2857506301ffc9a760e01b6001600160e01b03198316145b92915050565b610a366115d7565b610a3f81611650565b50565b606060038054610a5190613b2e565b80601f0160208091040260200160405190810160405280929190818152602001828054610a7d90613b2e565b8015610ac85780601f10610a9f57610100808354040283529160200191610ac8565b820191905f5260205f20905b815481529060010190602001808311610aab57829003601f168201915b5050505050905090565b5f30610adc6109c5565b6001600160a01b031614610b0357604051637485328f60e11b815260040160405180910390fd5b50630a85bd0160e11b949350505050565b5f80610b2286868686611509565b9050610b3781610b3260046116e5565b611707565b505f610b468288888888611744565b905065ffffffffffff811615610bbd575f82815260046020908152604091829020600101805465ffffffffffff191665ffffffffffff85169081179091558251858152918201527f9a2e42fd6722813d69113e7d0079d3d940171428df7373df9c7f7617cfda2892910160405180910390a1610bd6565b604051634844252360e11b815260040160405180910390fd5b5095945050505050565b5f80610bee86868686611509565b9050610c0e81610bfe60056116e5565b610c0860046116e5565b17611707565b505f818152600460205260409020805460ff60f01b1916600160f01b17905530610c366109c5565b6001600160a01b031614610cbf575f5b8651811015610cbd57306001600160a01b0316878281518110610c6b57610c6b613b66565b60200260200101516001600160a01b031603610cb557610cb5858281518110610c9657610c96613b66565b602002602001015180519060200120600561175290919063ffffffff16565b600101610c46565b505b610ccc81878787876117c2565b30610cd56109c5565b6001600160a01b031614158015610d0157506005546001600160801b03808216600160801b9092041614155b15610d0b575f6005555b6040518181527f712ae1383f79ac853f8d882153778e0260ef8f03b504e2866e0593e04d2b291f906020015b60405180910390a195945050505050565b5f90815260046020526040902054600160a01b900465ffffffffffff1690565b5f6109d860085465ffffffffffff1690565b5f610a28826117d6565b5f80610d9286868686611509565b9050610da181610b325f6116e5565b505f818152600460205260409020546001600160a01b03163314610ddf5760405163233d98e360e01b81523360048201526024015b60405180910390fd5b610deb8686868661190f565b9695505050505050565b60607f00000000000000000000000000000000000000000000000000000000000000006001600160a01b0316634bf5d7e96040518163ffffffff1660e01b81526004015f60405180830381865afa925050508015610e7457506040513d5f823e601f3d908101601f19168201604052610e719190810190613b7a565b60015b610eb0575060408051808201909152601d81527f6d6f64653d626c6f636b6e756d6265722666726f6d3d64656661756c74000000602082015290565b919050565b5f80339050610ed484828560405180602001604052805f815250611925565b949350505050565b5f80610fbd87610fb77f3e83946653575f9a39005e1545185629e92736b7528ab20ca3816f315424a8118c8c8c610f2f8e6001600160a01b03165f90815260026020526040902080546001810190915590565b8d8d604051610f3f929190613be2565b60405180910390208c80519060200120604051602001610f9c9796959493929190968752602087019590955260ff9390931660408601526001600160a01b03919091166060850152608084015260a083015260c082015260e00190565b60405160208183030381529060405280519060200120611946565b85611972565b905080610fe8576040516394ab6c0760e01b81526001600160a01b0388166004820152602401610dd6565b61102b89888a89898080601f0160208091040260200160405190810160405280939291908181526020018383808284375f920191909152508b92506119c7915050565b9998505050505050505050565b5f8033905061108087828888888080601f0160208091040260200160405190810160405280939291908181526020018383808284375f920191909152508a92506119c7915050565b979650505050505050565b600a80545f91829061109e600184613c05565b815481106110ae576110ae613b66565b5f918252602090912001805490915065ffffffffffff811690600160301b90046001600160d01b03168582116110f0576001600160d01b031695945050505050565b6111046110fc87611aa1565b600a90611ad7565b6001600160d01b03169695505050505050565b61111f6115d7565b610a3f81611b86565b5f80339050610deb86828787878080601f0160208091040260200160405190810160405280939291908181526020018383808284375f9201919091525061192592505050565b5f3361117a8184611bec565b6111a25760405163d9b3955760e01b81526001600160a01b0382166004820152602401610dd6565b5f6111c88260016111b1611339565b6111bb9190613c18565b65ffffffffffff16611553565b90505f6111d36113fe565b90508082101561120f57604051636121770b60e11b81526001600160a01b03841660048201526024810183905260448101829052606401610dd6565b61121c8888888887611cd4565b98975050505050505050565b5f6060805f805f6060611239611eee565b611241611f1a565b604080515f80825260208201909252600f60f81b9b939a50919850469750309650945092509050565b5f806112f484610fb77ff2aad550cf55f045cb27e9c559f9889fdfb6e6cdaa032301d6ea397784ae51d78989896112bd8b6001600160a01b03165f90815260026020526040902080546001810190915590565b60408051602081019690965285019390935260ff90911660608401526001600160a01b0316608083015260a082015260c001610f9c565b90508061131f576040516394ab6c0760e01b81526001600160a01b0385166004820152602401610dd6565b610deb86858760405180602001604052805f815250611925565b5f7f00000000000000000000000000000000000000000000000000000000000000006001600160a01b03166391ddadf46040518163ffffffff1660e01b8152600401602060405180830381865afa9250505080156113b4575060408051601f3d908101601f191682019092526113b191810190613c3e565b60015b610eb0576109d8611f47565b5f610ed4848484611f51565b5f6113d7600a611fe4565b6001600160d01b0316905090565b6113ed6115d7565b610a3f8161201b565b5f6001610a28565b5f6109d860075490565b5f306114126109c5565b6001600160a01b03161461143957604051637485328f60e11b815260040160405180910390fd5b5063bc197c8160e01b95945050505050565b5f8181526004602052604081205461147f90600160d01b810463ffffffff1690600160a01b900465ffffffffffff16613c59565b65ffffffffffff1692915050565b6114956115d7565b5f80856001600160a01b03168585856040516114b2929190613be2565b5f6040518083038185875af1925050503d805f81146114ec576040519150601f19603f3d011682016040523d82523d5f602084013e6114f1565b606091505b50915091506115008282612084565b50505050505050565b5f848484846040516020016115219493929190613d08565b60408051601f19818403018152919052805160209091012095945050505050565b61154a6115d7565b610a3f816120a0565b5f611572838361156d60408051602081019091525f815290565b611f51565b9392505050565b6115816115d7565b610a3f8161213c565b5f306115946109c5565b6001600160a01b0316146115bb57604051637485328f60e11b815260040160405180910390fd5b5063f23a6e6160e01b95945050505050565b5f610a288261217d565b336115e06109c5565b6001600160a01b031614611609576040516347096e4760e01b8152336004820152602401610dd6565b306116126109c5565b6001600160a01b03161461164e575f8036604051611631929190613be2565b604051809103902090505b806116476005612224565b0361163c57505b565b60648082111561167d5760405163243e544560e01b81526004810183905260248101829052604401610dd6565b5f6116866113cc565b90506116a5611693611339565b61169c856122a0565b600a91906122d3565b505060408051828152602081018590527f0553476bf02ef2726e8ce5ced78d63e26e602e4a2257b1f559418e24b4633997910160405180910390a1505050565b5f8160078111156116f8576116f8613502565b600160ff919091161b92915050565b5f8061171284610d7a565b90505f8361171f836116e5565b1603611572578381846040516331b75e4d60e01b8152600401610dd693929190613d52565b5f610deb86868686866122ed565b81546001600160801b03600160801b82048116918116600183019091160361178d57604051638acb5f2760e01b815260040160405180910390fd5b6001600160801b038082165f90815260018086016020526040909120939093558354919092018216600160801b029116179055565b6117cf858585858561247e565b5050505050565b5f806117e18361250e565b905060058160078111156117f7576117f7613502565b146118025792915050565b5f838152600c60205260409081902054600b549151632c258a9f60e11b81526004810182905290916001600160a01b03169063584b153e90602401602060405180830381865afa158015611858573d5f803e3d5ffd5b505050506040513d601f19601f8201168201806040525081019061187c9190613d74565b1561188b575060059392505050565b600b54604051632ab0f52960e01b8152600481018390526001600160a01b0390911690632ab0f52990602401602060405180830381865afa1580156118d2573d5f803e3d5ffd5b505050506040513d601f19601f820116820180604052508101906118f69190613d74565b15611905575060079392505050565b5060029392505050565b5f61191c8585858561263f565b95945050505050565b5f61191c8585858561194160408051602081019091525f815290565b6119c7565b5f610a286119526126d6565b8360405161190160f01b8152600281019290925260228201526042902090565b5f805f61197f85856127ff565b5090925090505f81600381111561199857611998613502565b1480156119b65750856001600160a01b0316826001600160a01b0316145b80610deb5750610deb868686612848565b5f6119d686610b3260016116e5565b505f6119eb866119e589610d48565b85611f51565b90506119fa878787848761291e565b82515f03611a4e57856001600160a01b03167fb8e138887d0aa13bab447e82de9d5c1777041ecd21ca36ba824ff1e6c07ddda488878488604051611a419493929190613d93565b60405180910390a2610deb565b856001600160a01b03167fe2babfbac5889a709b63bb7f598b324e08bc5a4fb9ec647fb3cbc9ec07eb87128887848888604051611a8f959493929190613dba565b60405180910390a29695505050505050565b5f65ffffffffffff821115611ad3576040516306dfcc6560e41b81526030600482015260248101839052604401610dd6565b5090565b81545f9081816005811115611b33575f611af084612a18565b611afa9085613c05565b5f8881526020902090915081015465ffffffffffff9081169087161015611b2357809150611b31565b611b2e816001613df3565b92505b505b5f611b4087878585612afc565b90508015611b7a57611b6487611b57600184613c05565b5f91825260209091200190565b54600160301b90046001600160d01b0316611080565b5f979650505050505050565b6008546040805165ffffffffffff928316815291831660208301527fc565b045403dc03c2eea82b81a0465edad9e2e7fc4d97e11421c209da93d7a93910160405180910390a16008805465ffffffffffff191665ffffffffffff92909216919091179055565b80515f906034811015611c03576001915050610a28565b82810160131901516001600160a01b031981166b046e0e4dee0dee6cae47a60f60a31b14611c3657600192505050610a28565b5f80611c43602885613c05565b90505b83811015611cb3575f80611c79888481518110611c6557611c65613b66565b01602001516001600160f81b031916612b5b565b9150915081611c915760019650505050505050610a28565b8060ff166004856001600160a01b0316901b1793505050806001019050611c46565b50856001600160a01b0316816001600160a01b031614935050505092915050565b5f611ce88686868680519060200120611509565b905084518651141580611cfd57508351865114155b80611d0757508551155b15611d3c57855184518651604051630447b05d60e41b8152600481019390935260248301919091526044820152606401610dd6565b5f81815260046020526040902054600160a01b900465ffffffffffff1615611d855780611d6882610d7a565b6040516331b75e4d60e01b8152610dd69291905f90600401613d52565b5f611d8e610d68565b611d96611339565b65ffffffffffff16611da89190613df3565b90505f611dc260085463ffffffff600160301b9091041690565b5f84815260046020526040902080546001600160a01b0319166001600160a01b038716178155909150611df483611aa1565b815465ffffffffffff91909116600160a01b0265ffffffffffff60a01b19909116178155611e2182612beb565b815463ffffffff91909116600160d01b0263ffffffff60d01b1990911617815588517f7d84a6263ae0d98d3329bd7b46bb4e8d6f98cd35a7adb45c274c8b7fd5ebd5e090859087908c908c906001600160401b03811115611e8457611e846131e7565b604051908082528060200260200182016040528015611eb757816020015b6060815260200190600190039081611ea25790505b508c89611ec48a82613df3565b8e604051611eda99989796959493929190613e06565b60405180910390a150505095945050505050565b60606109d87f00000000000000000000000000000000000000000000000000000000000000005f612c1b565b60606109d87f00000000000000000000000000000000000000000000000000000000000000006001612c1b565b5f6109d843611aa1565b5f7f0000000000000000000000000000000000000000000000000000000000000000604051630748d63560e31b81526001600160a01b038681166004830152602482018690529190911690633a46b1a890604401602060405180830381865afa158015611fc0573d5f803e3d5ffd5b505050506040513d601f19601f82011682018060405250810190610ed49190613edb565b80545f90801561201357611ffd83611b57600184613c05565b54600160301b90046001600160d01b0316611572565b5f9392505050565b600b54604080516001600160a01b03928316815291831660208301527f08f74ea46ef7894f65eabfb5e6e695de773a000b47c529ab559178069b226401910160405180910390a1600b80546001600160a01b0319166001600160a01b0392909216919091179055565b6060826120995761209482612cc4565b610a28565b5080610a28565b8063ffffffff165f036120c85760405163f1cfbf0560e01b81525f6004820152602401610dd6565b6008546040805163ffffffff600160301b9093048316815291831660208301527f7e3f7f0708a84de9203036abaa450dccc85ad5ff52f78c170f3edb55cf5e8828910160405180910390a16008805463ffffffff909216600160301b0269ffffffff00000000000019909216919091179055565b60075460408051918252602082018390527fccb45da8d5717e6c4544694297c4ba5cf151d455c9bb0ed4fc7a38411bc05461910160405180910390a1600755565b5f60646121898361108b565b604051632394e7a360e21b8152600481018590526001600160a01b037f00000000000000000000000000000000000000000000000000000000000000001690638e539e8c90602401602060405180830381865afa1580156121ec573d5f803e3d5ffd5b505050506040513d601f19601f820116820180604052508101906122109190613edb565b61221a9190613ef2565b610a289190613f1d565b80545f906001600160801b0380821691600160801b900416810361225b576040516375e52f4f60e01b815260040160405180910390fd5b6001600160801b038181165f908152600185810160205260408220805492905585546fffffffffffffffffffffffffffffffff19169301909116919091179092555090565b5f6001600160d01b03821115611ad3576040516306dfcc6560e41b815260d0600482015260248101839052604401610dd6565b5f806122e0858585612ced565b915091505b935093915050565b5f80600b5f9054906101000a90046001600160a01b03166001600160a01b031663f27a0c926040518163ffffffff1660e01b8152600401602060405180830381865afa15801561233f573d5f803e3d5ffd5b505050506040513d601f19601f820116820180604052508101906123639190613edb565b90505f3060601b6bffffffffffffffffffffffff19168418600b5460405163b1c5f42760e01b81529192506001600160a01b03169063b1c5f427906123b4908a908a908a905f908890600401613f3c565b602060405180830381865afa1580156123cf573d5f803e3d5ffd5b505050506040513d601f19601f820116820180604052508101906123f39190613edb565b5f898152600c602052604080822092909255600b5491516308f2a0bb60e41b81526001600160a01b0390921691638f2a0bb09161243d918b918b918b919088908a90600401613f89565b5f604051808303815f87803b158015612454575f80fd5b505af1158015612466573d5f803e3d5ffd5b5050505061121c82426124799190613df3565b611aa1565b600b546001600160a01b031663e38335e5348686865f3060601b6bffffffffffffffffffffffff191688186040518763ffffffff1660e01b81526004016124c9959493929190613f3c565b5f604051808303818588803b1580156124e0575f80fd5b505af11580156124f2573d5f803e3d5ffd5b5050505f9687525050600c602052505060408320929092555050565b5f818152600460205260408120805460ff600160f01b8204811691600160f81b900416811561254257506007949350505050565b801561255357506002949350505050565b5f61255d86610d48565b9050805f0361258257604051636ad0607560e01b815260048101879052602401610dd6565b5f61258b611339565b65ffffffffffff1690508082106125a857505f9695505050505050565b5f6125b28861144b565b90508181106125c957506001979650505050505050565b6125d288612e63565b15806125f157505f888152600960205260409020805460019091015411155b1561260457506003979650505050505050565b5f8881526004602052604090206001015465ffffffffffff165f0361263157506004979650505050505050565b506005979650505050505050565b5f8061264d86868686612e99565b5f818152600c60205260409020549091508015610bd657600b5460405163c4d252f560e01b8152600481018390526001600160a01b039091169063c4d252f5906024015f604051808303815f87803b1580156126a7575f80fd5b505af11580156126b9573d5f803e3d5ffd5b5050505f838152600c602052604081205550509050949350505050565b5f306001600160a01b037f00000000000000000000000000000000000000000000000000000000000000001614801561272e57507f000000000000000000000000000000000000000000000000000000000000000046145b1561275857507f000000000000000000000000000000000000000000000000000000000000000090565b6109d8604080517f8b73c3c69bb8fe3d512ecc4cf759cc79239f7b179b0ffacaa9a75d522b39400f60208201527f0000000000000000000000000000000000000000000000000000000000000000918101919091527f000000000000000000000000000000000000000000000000000000000000000060608201524660808201523060a08201525f9060c00160405160208183030381529060405280519060200120905090565b5f805f8351604103612836576020840151604085015160608601515f1a61282888828585612f48565b955095509550505050612841565b505081515f91506002905b9250925092565b5f805f856001600160a01b03168585604051602401612868929190613fe0565b60408051601f198184030181529181526020820180516001600160e01b0316630b135d3f60e11b1790525161289d9190613ff8565b5f60405180830381855afa9150503d805f81146128d5576040519150601f19603f3d011682016040523d82523d5f602084013e6128da565b606091505b50915091508180156128ee57506020815110155b8015610deb57508051630b135d3f60e11b906129139083016020908101908401613edb565b149695505050505050565b5f8581526009602090815260408083206001600160a01b0388168452600381019092529091205460ff1615612971576040516371c6af4960e01b81526001600160a01b0386166004820152602401610dd6565b6001600160a01b0385165f9081526003820160205260409020805460ff1916600117905560ff84166129ba5782815f015f8282546129af9190613df3565b90915550612a109050565b5f1960ff8516016129d85782816001015f8282546129af9190613df3565b60011960ff8516016129f75782816002015f8282546129af9190613df3565b6040516303599be160e11b815260040160405180910390fd5b505050505050565b5f815f03612a2757505f919050565b5f6001612a3384613010565b901c6001901b90506001818481612a4c57612a4c613f09565b048201901c90506001818481612a6457612a64613f09565b048201901c90506001818481612a7c57612a7c613f09565b048201901c90506001818481612a9457612a94613f09565b048201901c90506001818481612aac57612aac613f09565b048201901c90506001818481612ac457612ac4613f09565b048201901c90506001818481612adc57612adc613f09565b048201901c905061157281828581612af657612af6613f09565b046130a3565b5f5b81831015612b53575f612b1184846130b8565b5f8781526020902090915065ffffffffffff86169082015465ffffffffffff161115612b3f57809250612b4d565b612b4a816001613df3565b93505b50612afe565b509392505050565b5f8060f883901c602f81118015612b755750603a8160ff16105b15612b8a57600194602f199091019350915050565b8060ff166040108015612ba0575060478160ff16105b15612bb5576001946036199091019350915050565b8060ff166060108015612bcb575060678160ff16105b15612be0576001946056199091019350915050565b505f93849350915050565b5f63ffffffff821115611ad3576040516306dfcc6560e41b81526020600482015260248101839052604401610dd6565b606060ff8314612c3557612c2e836130d2565b9050610a28565b818054612c4190613b2e565b80601f0160208091040260200160405190810160405280929190818152602001828054612c6d90613b2e565b8015612cb85780601f10612c8f57610100808354040283529160200191612cb8565b820191905f5260205f20905b815481529060010190602001808311612c9b57829003601f168201915b50505050509050610a28565b805115612cd45780518082602001fd5b604051630a12f52160e11b815260040160405180910390fd5b82545f9081908015612e09575f612d0987611b57600185613c05565b60408051808201909152905465ffffffffffff808216808452600160301b9092046001600160d01b031660208401529192509087161015612d5d57604051632520601d60e01b815260040160405180910390fd5b805165ffffffffffff808816911603612da95784612d8088611b57600186613c05565b80546001600160d01b0392909216600160301b0265ffffffffffff909216919091179055612df9565b6040805180820190915265ffffffffffff80881682526001600160d01b0380881660208085019182528b54600181018d555f8d81529190912094519151909216600160301b029216919091179101555b6020015192508391506122e59050565b50506040805180820190915265ffffffffffff80851682526001600160d01b0380851660208085019182528854600181018a555f8a815291822095519251909316600160301b0291909316179201919091559050816122e5565b5f81815260096020526040812060028101546001820154612e849190613df3565b612e9061098e85610d48565b11159392505050565b5f80612ea786868686611509565b9050612ef581612eb760076116e5565b612ec160066116e5565b612ecb60026116e5565b6001612ed8600782614013565b612ee390600261410c565b612eed9190613c05565b181818611707565b505f818152600460205260409081902080546001600160f81b0316600160f81b179055517f789cf55be980739dad1d0699b93b58e806b51c9d96619bfa8fe0a28abaa7b30c90610d379083815260200190565b5f80807f7fffffffffffffffffffffffffffffff5d576e7357a4501ddfe92f46681b20a0841115612f8157505f91506003905082613006565b604080515f808252602082018084528a905260ff891692820192909252606081018790526080810186905260019060a0016020604051602081039080840390855afa158015612fd2573d5f803e3d5ffd5b5050604051601f1901519150506001600160a01b038116612ffd57505f925060019150829050613006565b92505f91508190505b9450945094915050565b5f80608083901c1561302457608092831c92015b604083901c1561303657604092831c92015b602083901c1561304857602092831c92015b601083901c1561305a57601092831c92015b600883901c1561306c57600892831c92015b600483901c1561307e57600492831c92015b600283901c1561309057600292831c92015b600183901c15610a285760010192915050565b5f8183106130b15781611572565b5090919050565b5f6130c66002848418613f1d565b61157290848416613df3565b60605f6130de8361310f565b6040805160208082528183019092529192505f91906020820181803683375050509182525060208101929092525090565b5f60ff8216601f811115610a2857604051632cd44ac360e21b815260040160405180910390fd5b5f60208284031215613146575f80fd5b81356001600160e01b031981168114611572575f80fd5b5f6020828403121561316d575f80fd5b5035919050565b5f5b8381101561318e578181015183820152602001613176565b50505f910152565b5f81518084526131ad816020860160208601613174565b601f01601f19169290920160200192915050565b602081525f6115726020830184613196565b6001600160a01b0381168114610a3f575f80fd5b634e487b7160e01b5f52604160045260245ffd5b604051601f8201601f191681016001600160401b0381118282101715613223576132236131e7565b604052919050565b5f6001600160401b03821115613243576132436131e7565b50601f01601f191660200190565b5f61326361325e8461322b565b6131fb565b9050828152838383011115613276575f80fd5b828260208301375f602084830101529392505050565b5f82601f83011261329b575f80fd5b61157283833560208501613251565b5f805f80608085870312156132bd575f80fd5b84356132c8816131d3565b935060208501356132d8816131d3565b92506040850135915060608501356001600160401b038111156132f9575f80fd5b6133058782880161328c565b91505092959194509250565b5f6001600160401b03821115613329576133296131e7565b5060051b60200190565b5f82601f830112613342575f80fd5b8135602061335261325e83613311565b8083825260208201915060208460051b870101935086841115613373575f80fd5b602086015b8481101561339857803561338b816131d3565b8352918301918301613378565b509695505050505050565b5f82601f8301126133b2575f80fd5b813560206133c261325e83613311565b8083825260208201915060208460051b8701019350868411156133e3575f80fd5b602086015b8481101561339857803583529183019183016133e8565b5f82601f83011261340e575f80fd5b8135602061341e61325e83613311565b82815260059290921b8401810191818101908684111561343c575f80fd5b8286015b848110156133985780356001600160401b0381111561345d575f80fd5b61346b8986838b010161328c565b845250918301918301613440565b5f805f806080858703121561348c575f80fd5b84356001600160401b03808211156134a2575f80fd5b6134ae88838901613333565b955060208701359150808211156134c3575f80fd5b6134cf888389016133a3565b945060408701359150808211156134e4575f80fd5b506134f1878288016133ff565b949793965093946060013593505050565b634e487b7160e01b5f52602160045260245ffd5b6008811061353257634e487b7160e01b5f52602160045260245ffd5b9052565b60208101610a288284613516565b5f8060408385031215613555575f80fd5b823591506020830135613567816131d3565b809150509250929050565b803560ff81168114610eb0575f80fd5b5f8060408385031215613593575f80fd5b823591506135a360208401613572565b90509250929050565b5f8083601f8401126135bc575f80fd5b5081356001600160401b038111156135d2575f80fd5b6020830191508360208285010111156135e9575f80fd5b9250929050565b5f805f805f805f60c0888a031215613606575f80fd5b8735965061361660208901613572565b95506040880135613626816131d3565b945060608801356001600160401b0380821115613641575f80fd5b61364d8b838c016135ac565b909650945060808a0135915080821115613665575f80fd5b6136718b838c0161328c565b935060a08a0135915080821115613686575f80fd5b506136938a828b0161328c565b91505092959891949750929550565b5f805f805f608086880312156136b6575f80fd5b853594506136c660208701613572565b935060408601356001600160401b03808211156136e1575f80fd5b6136ed89838a016135ac565b90955093506060880135915080821115613705575f80fd5b506137128882890161328c565b9150509295509295909350565b65ffffffffffff81168114610a3f575f80fd5b5f60208284031215613742575f80fd5b81356115728161371f565b5f805f8060608587031215613760575f80fd5b8435935061377060208601613572565b925060408501356001600160401b0381111561378a575f80fd5b613796878288016135ac565b95989497509550505050565b5f805f80608085870312156137b5575f80fd5b84356001600160401b03808211156137cb575f80fd5b6137d788838901613333565b955060208701359150808211156137ec575f80fd5b6137f8888389016133a3565b9450604087013591508082111561380d575f80fd5b613819888389016133ff565b9350606087013591508082111561382e575f80fd5b508501601f8101871361383f575f80fd5b61330587823560208401613251565b5f6020828403121561385e575f80fd5b8135611572816131d3565b5f815180845260208085019450602084015f5b838110156138985781518752958201959082019060010161387c565b509495945050505050565b60ff60f81b8816815260e060208201525f6138c160e0830189613196565b82810360408401526138d38189613196565b606084018890526001600160a01b038716608085015260a0840186905283810360c085015290506139048185613869565b9a9950505050505050505050565b5f805f8060808587031215613925575f80fd5b8435935061393560208601613572565b92506040850135613945816131d3565b915060608501356001600160401b038111156132f9575f80fd5b5f805f60608486031215613971575f80fd5b833561397c816131d3565b92506020840135915060408401356001600160401b0381111561399d575f80fd5b6139a98682870161328c565b9150509250925092565b5f805f805f60a086880312156139c7575f80fd5b85356139d2816131d3565b945060208601356139e2816131d3565b935060408601356001600160401b03808211156139fd575f80fd5b613a0989838a016133a3565b94506060880135915080821115613a1e575f80fd5b613a2a89838a016133a3565b93506080880135915080821115613705575f80fd5b5f805f8060608587031215613a52575f80fd5b8435613a5d816131d3565b93506020850135925060408501356001600160401b0381111561378a575f80fd5b5f60208284031215613a8e575f80fd5b813563ffffffff81168114611572575f80fd5b5f8060408385031215613ab2575f80fd5b8235613abd816131d3565b946020939093013593505050565b5f805f805f60a08688031215613adf575f80fd5b8535613aea816131d3565b94506020860135613afa816131d3565b9350604086013592506060860135915060808601356001600160401b03811115613b22575f80fd5b6137128882890161328c565b600181811c90821680613b4257607f821691505b602082108103613b6057634e487b7160e01b5f52602260045260245ffd5b50919050565b634e487b7160e01b5f52603260045260245ffd5b5f60208284031215613b8a575f80fd5b81516001600160401b03811115613b9f575f80fd5b8201601f81018413613baf575f80fd5b8051613bbd61325e8261322b565b818152856020838501011115613bd1575f80fd5b61191c826020830160208601613174565b818382375f9101908152919050565b634e487b7160e01b5f52601160045260245ffd5b81810381811115610a2857610a28613bf1565b65ffffffffffff828116828216039080821115613c3757613c37613bf1565b5092915050565b5f60208284031215613c4e575f80fd5b81516115728161371f565b65ffffffffffff818116838216019080821115613c3757613c37613bf1565b5f815180845260208085019450602084015f5b838110156138985781516001600160a01b031687529582019590820190600101613c8b565b5f8282518085526020808601955060208260051b840101602086015f5b84811015613cfb57601f19868403018952613ce9838351613196565b98840198925090830190600101613ccd565b5090979650505050505050565b608081525f613d1a6080830187613c78565b8281036020840152613d2c8187613869565b90508281036040840152613d408186613cb0565b91505082606083015295945050505050565b83815260608101613d666020830185613516565b826040830152949350505050565b5f60208284031215613d84575f80fd5b81518015158114611572575f80fd5b84815260ff84166020820152826040820152608060608201525f610deb6080830184613196565b85815260ff8516602082015283604082015260a060608201525f613de160a0830185613196565b828103608084015261121c8185613196565b80820180821115610a2857610a28613bf1565b5f6101208b8352602060018060a01b038c1681850152816040850152613e2e8285018c613c78565b91508382036060850152613e42828b613869565b915083820360808501528189518084528284019150828160051b850101838c015f5b83811015613e9257601f19878403018552613e80838351613196565b94860194925090850190600101613e64565b505086810360a0880152613ea6818c613cb0565b9450505050508560c08401528460e0840152828103610100840152613ecb8185613196565b9c9b505050505050505050505050565b5f60208284031215613eeb575f80fd5b5051919050565b8082028115828204841417610a2857610a28613bf1565b634e487b7160e01b5f52601260045260245ffd5b5f82613f3757634e487b7160e01b5f52601260045260245ffd5b500490565b60a081525f613f4e60a0830188613c78565b8281036020840152613f608188613869565b90508281036040840152613f748187613cb0565b60608401959095525050608001529392505050565b60c081525f613f9b60c0830189613c78565b8281036020840152613fad8189613869565b90508281036040840152613fc18188613cb0565b60608401969096525050608081019290925260a0909101529392505050565b828152604060208201525f610ed46040830184613196565b5f8251614009818460208701613174565b9190910192915050565b60ff8181168382160190811115610a2857610a28613bf1565b600181815b8085111561406657815f190482111561404c5761404c613bf1565b8085161561405957918102915b93841c9390800290614031565b509250929050565b5f8261407c57506001610a28565b8161408857505f610a28565b816001811461409e57600281146140a8576140c4565b6001915050610a28565b60ff8411156140b9576140b9613bf1565b50506001821b610a28565b5060208310610133831016604e8410600b84101617156140e7575081810a610a28565b6140f1838361402c565b805f190482111561410457614104613bf1565b029392505050565b5f61157260ff84168361406e56fea26469706673582212205d2147482613db049a942e173226aba93d256058d5c20ce418cc032ced2d8e1b64736f6c63430008160033', \n     arguments: [\n          _token,\n          _timelock,\n          _votingDelay,\n          _votingPeriod,\n          _quorumPercentage,\n     ]\n}).send({\n     from: web3.eth.accounts[0], \n     gas: '4700000'\n   }, function (e, contract){\n    console.log(e, contract);\n    if (typeof contract.address !== 'undefined') {\n         console.log('Contract mined! address: ' + contract.address + ' transactionHash: ' + contract.transactionHash);\n    }\n })",
	"functionHashes": {
		"43859632": "hasVoted(uint256,address)",
		"56781388": "castVote(uint256,uint8)",
		"79051887": "setVotingDelay(uint48)",
		"deaaa7cc": "BALLOT_TYPEHASH()",
		"4bf5d7e9": "CLOCK_MODE()",
		"dd4e2ba5": "COUNTING_MODE()",
		"2fe3e261": "EXTENDED_BALLOT_TYPEHASH()",
		"452115d6": "cancel(address[],uint256[],bytes[],bytes32)",
		"8ff262e3": "castVoteBySig(uint256,uint8,address,bytes)",
		"7b3c71d3": "castVoteWithReason(uint256,uint8,string)",
		"5f398a14": "castVoteWithReasonAndParams(uint256,uint8,string,bytes)",
		"5b8d0e0d": "castVoteWithReasonAndParamsBySig(uint256,uint8,address,string,bytes,bytes)",
		"91ddadf4": "clock()",
		"84b0196e": "eip712Domain()",
		"2656227d": "execute(address[],uint256[],bytes[],bytes32)",
		"eb9019d4": "getVotes(address,uint256)",
		"9a802a6d": "getVotesWithParams(address,uint256,bytes)",
		"c59057e4": "hashProposal(address[],uint256[],bytes[],bytes32)",
		"06fdde03": "name()",
		"7ecebe00": "nonces(address)",
		"bc197c81": "onERC1155BatchReceived(address,address,uint256[],uint256[],bytes)",
		"f23a6e61": "onERC1155Received(address,address,uint256,uint256,bytes)",
		"150b7a02": "onERC721Received(address,address,uint256,bytes)",
		"c01f9e37": "proposalDeadline(uint256)",
		"ab58fb8e": "proposalEta(uint256)",
		"a9a95294": "proposalNeedsQueuing(uint256)",
		"143489d0": "proposalProposer(uint256)",
		"2d63f693": "proposalSnapshot(uint256)",
		"b58131b0": "proposalThreshold()",
		"544ffc9c": "proposalVotes(uint256)",
		"7d5e81e2": "propose(address[],uint256[],bytes[],string)",
		"160cbed7": "queue(address[],uint256[],bytes[],bytes32)",
		"f8ce560a": "quorum(uint256)",
		"97c3d334": "quorumDenominator()",
		"a7713a70": "quorumNumerator()",
		"60c4247f": "quorumNumerator(uint256)",
		"c28bc2fa": "relay(address,uint256,bytes)",
		"ece40cc1": "setProposalThreshold(uint256)",
		"e540d01d": "setVotingPeriod(uint32)",
		"3e4f49e6": "state(uint256)",
		"01ffc9a7": "supportsInterface(bytes4)",
		"d33219b4": "timelock()",
		"fc0c546a": "token()",
		"06f3f9e6": "updateQuorumNumerator(uint256)",
		"a890c910": "updateTimelock(address)",
		"54fd4d50": "version()",
		"3932abb1": "votingDelay()",
		"02a251a3": "votingPeriod()"
	},
	"gasEstimates": {
		"Creation": {
			"codeDepositCost": "3344000",
			"executionCost": "infinite",
			"totalCost": "infinite"
		},
		"External": {
			"BALLOT_TYPEHASH()": "349",
			"CLOCK_MODE()": "infinite",
			"COUNTING_MODE()": "infinite",
			"EXTENDED_BALLOT_TYPEHASH()": "306",
			"cancel(address[],uint256[],bytes[],bytes32)": "infinite",
			"castVote(uint256,uint8)": "infinite",
			"castVoteBySig(uint256,uint8,address,bytes)": "infinite",
			"castVoteWithReason(uint256,uint8,string)": "infinite",
			"castVoteWithReasonAndParams(uint256,uint8,string,bytes)": "infinite",
			"castVoteWithReasonAndParamsBySig(uint256,uint8,address,string,bytes,bytes)": "infinite",
			"clock()": "infinite",
			"eip712Domain()": "infinite",
			"execute(address[],uint256[],bytes[],bytes32)": "infinite",
			"getVotes(address,uint256)": "infinite",
			"getVotesWithParams(address,uint256,bytes)": "infinite",
			"hasVoted(uint256,address)": "2691",
			"hashProposal(address[],uint256[],bytes[],bytes32)": "infinite",
			"name()": "infinite",
			"nonces(address)": "2574",
			"onERC1155BatchReceived(address,address,uint256[],uint256[],bytes)": "infinite",
			"onERC1155Received(address,address,uint256,uint256,bytes)": "infinite",
			"onERC721Received(address,address,uint256,bytes)": "infinite",
			"proposalDeadline(uint256)": "2646",
			"proposalEta(uint256)": "2558",
			"proposalNeedsQueuing(uint256)": "387",
			"proposalProposer(uint256)": "2609",
			"proposalSnapshot(uint256)": "2560",
			"proposalThreshold()": "2461",
			"proposalVotes(uint256)": "6816",
			"propose(address[],uint256[],bytes[],string)": "infinite",
			"queue(address[],uint256[],bytes[],bytes32)": "infinite",
			"quorum(uint256)": "infinite",
			"quorumDenominator()": "325",
			"quorumNumerator()": "4738",
			"quorumNumerator(uint256)": "infinite",
			"relay(address,uint256,bytes)": "infinite",
			"setProposalThreshold(uint256)": "infinite",
			"setVotingDelay(uint48)": "infinite",
			"setVotingPeriod(uint32)": "infinite",
			"state(uint256)": "infinite",
			"supportsInterface(bytes4)": "525",
			"timelock()": "2441",
			"token()": "infinite",
			"updateQuorumNumerator(uint256)": "infinite",
			"updateTimelock(address)": "infinite",
			"version()": "infinite",
			"votingDelay()": "2468",
			"votingPeriod()": "2372"
		},
		"Internal": {
			"_cancel(address[] memory,uint256[] memory,bytes memory[] memory,bytes32)": "infinite",
			"_executeOperations(uint256,address[] memory,uint256[] memory,bytes memory[] memory,bytes32)": "infinite",
			"_executor()": "2155",
			"_queueOperations(uint256,address[] memory,uint256[] memory,bytes memory[] memory,bytes32)": "infinite"
		}
	},
	"devdoc": {
		"errors": {
			"CheckpointUnorderedInsertion()": [
				{
					"details": "A value was attempted to be inserted on a past checkpoint."
				}
			],
			"FailedInnerCall()": [
				{
					"details": "A call to an address target failed. The target may have reverted."
				}
			],
			"GovernorAlreadyCastVote(address)": [
				{
					"details": "The vote was already cast."
				}
			],
			"GovernorAlreadyQueuedProposal(uint256)": [
				{
					"details": "The proposal has already been queued."
				}
			],
			"GovernorDisabledDeposit()": [
				{
					"details": "Token deposits are disabled in this contract."
				}
			],
			"GovernorInsufficientProposerVotes(address,uint256,uint256)": [
				{
					"details": "The `proposer` does not have the required votes to create a proposal."
				}
			],
			"GovernorInvalidProposalLength(uint256,uint256,uint256)": [
				{
					"details": "Empty proposal or a mismatch between the parameters length for a proposal call."
				}
			],
			"GovernorInvalidQuorumFraction(uint256,uint256)": [
				{
					"details": "The quorum set is not a valid fraction."
				}
			],
			"GovernorInvalidSignature(address)": [
				{
					"details": "The provided signature is not valid for the expected `voter`. If the `voter` is a contract, the signature is not valid using {IERC1271-isValidSignature}."
				}
			],
			"GovernorInvalidVoteType()": [
				{
					"details": "The vote type used is not valid for the corresponding counting module."
				}
			],
			"GovernorInvalidVotingPeriod(uint256)": [
				{
					"details": "The voting period set is not a valid period."
				}
			],
			"GovernorNonexistentProposal(uint256)": [
				{
					"details": "The `proposalId` doesn't exist."
				}
			],
			"GovernorNotQueuedProposal(uint256)": [
				{
					"details": "The proposal hasn't been queued yet."
				}
			],
			"GovernorOnlyExecutor(address)": [
				{
					"details": "The `account` is not the governance executor."
				}
			],
			"GovernorOnlyProposer(address)": [
				{
					"details": "The `account` is not a proposer."
				}
			],
			"GovernorQueueNotImplemented()": [
				{
					"details": "Queue operation is not implemented for this governor. Execute should be called directly."
				}
			],
			"GovernorRestrictedProposer(address)": [
				{
					"details": "The `proposer` is not allowed to create a proposal."
				}
			],
			"GovernorUnexpectedProposalState(uint256,uint8,bytes32)": [
				{
					"details": "The current state of a proposal is not the required for performing an operation. The `expectedStates` is a bitmap with the bits enabled for each ProposalState enum position counting from right to left. NOTE: If `expectedState` is `bytes32(0)`, the proposal is expected to not be in any state (i.e. not exist). This is the case when a proposal that is expected to be unset is already initiated (the proposal is duplicated). See {Governor-_encodeStateBitmap}."
				}
			],
			"InvalidAccountNonce(address,uint256)": [
				{
					"details": "The nonce used for an `account` is not the expected current nonce."
				}
			],
			"QueueEmpty()": [
				{
					"details": "An operation (e.g. {front}) couldn't be completed due to the queue being empty."
				}
			],
			"QueueFull()": [
				{
					"details": "A push operation couldn't be completed due to the queue being full."
				}
			],
			"SafeCastOverflowedUintDowncast(uint8,uint256)": [
				{
					"details": "Value doesn't fit in an uint of `bits` size."
				}
			]
		},
		"events": {
			"EIP712DomainChanged()": {
				"details": "MAY be emitted to signal that the domain could have changed."
			},
			"ProposalCanceled(uint256)": {
				"details": "Emitted when a proposal is canceled."
			},
			"ProposalCreated(uint256,address,address[],uint256[],string[],bytes[],uint256,uint256,string)": {
				"details": "Emitted when a proposal is created."
			},
			"ProposalExecuted(uint256)": {
				"details": "Emitted when a proposal is executed."
			},
			"ProposalQueued(uint256,uint256)": {
				"details": "Emitted when a proposal is queued."
			},
			"TimelockChange(address,address)": {
				"details": "Emitted when the timelock controller used for proposal execution is modified."
			},
			"VoteCast(address,uint256,uint8,uint256,string)": {
				"details": "Emitted when a vote is cast without params. Note: `support` values should be seen as buckets. Their interpretation depends on the voting module used."
			},
			"VoteCastWithParams(address,uint256,uint8,uint256,string,bytes)": {
				"details": "Emitted when a vote is cast with params. Note: `support` values should be seen as buckets. Their interpretation depends on the voting module used. `params` are additional encoded parameters. Their interpepretation also depends on the voting module used."
			}
		},
		"kind": "dev",
		"methods": {
			"CLOCK_MODE()": {
				"details": "Machine-readable description of the clock as specified in EIP-6372."
			},
			"COUNTING_MODE()": {
				"details": "See {IGovernor-COUNTING_MODE}."
			},
			"cancel(address[],uint256[],bytes[],bytes32)": {
				"details": "See {IGovernor-cancel}."
			},
			"castVote(uint256,uint8)": {
				"details": "See {IGovernor-castVote}."
			},
			"castVoteBySig(uint256,uint8,address,bytes)": {
				"details": "See {IGovernor-castVoteBySig}."
			},
			"castVoteWithReason(uint256,uint8,string)": {
				"details": "See {IGovernor-castVoteWithReason}."
			},
			"castVoteWithReasonAndParams(uint256,uint8,string,bytes)": {
				"details": "See {IGovernor-castVoteWithReasonAndParams}."
			},
			"castVoteWithReasonAndParamsBySig(uint256,uint8,address,string,bytes,bytes)": {
				"details": "See {IGovernor-castVoteWithReasonAndParamsBySig}."
			},
			"clock()": {
				"details": "Clock (as specified in EIP-6372) is set to match the token's clock. Fallback to block numbers if the token does not implement EIP-6372."
			},
			"eip712Domain()": {
				"details": "See {IERC-5267}."
			},
			"execute(address[],uint256[],bytes[],bytes32)": {
				"details": "See {IGovernor-execute}."
			},
			"getVotes(address,uint256)": {
				"details": "See {IGovernor-getVotes}."
			},
			"getVotesWithParams(address,uint256,bytes)": {
				"details": "See {IGovernor-getVotesWithParams}."
			},
			"hasVoted(uint256,address)": {
				"details": "See {IGovernor-hasVoted}."
			},
			"hashProposal(address[],uint256[],bytes[],bytes32)": {
				"details": "See {IGovernor-hashProposal}. The proposal id is produced by hashing the ABI encoded `targets` array, the `values` array, the `calldatas` array and the descriptionHash (bytes32 which itself is the keccak256 hash of the description string). This proposal id can be produced from the proposal data which is part of the {ProposalCreated} event. It can even be computed in advance, before the proposal is submitted. Note that the chainId and the governor address are not part of the proposal id computation. Consequently, the same proposal (with same operation and same description) will have the same id if submitted on multiple governors across multiple networks. This also means that in order to execute the same operation twice (on the same governor) the proposer will have to change the description in order to avoid proposal id conflicts."
			},
			"name()": {
				"details": "See {IGovernor-name}."
			},
			"nonces(address)": {
				"details": "Returns the next unused nonce for an address."
			},
			"onERC1155BatchReceived(address,address,uint256[],uint256[],bytes)": {
				"details": "See {IERC1155Receiver-onERC1155BatchReceived}. Receiving tokens is disabled if the governance executor is other than the governor itself (eg. when using with a timelock)."
			},
			"onERC1155Received(address,address,uint256,uint256,bytes)": {
				"details": "See {IERC1155Receiver-onERC1155Received}. Receiving tokens is disabled if the governance executor is other than the governor itself (eg. when using with a timelock)."
			},
			"onERC721Received(address,address,uint256,bytes)": {
				"details": "See {IERC721Receiver-onERC721Received}. Receiving tokens is disabled if the governance executor is other than the governor itself (eg. when using with a timelock)."
			},
			"proposalDeadline(uint256)": {
				"details": "See {IGovernor-proposalDeadline}."
			},
			"proposalEta(uint256)": {
				"details": "See {IGovernor-proposalEta}."
			},
			"proposalProposer(uint256)": {
				"details": "See {IGovernor-proposalProposer}."
			},
			"proposalSnapshot(uint256)": {
				"details": "See {IGovernor-proposalSnapshot}."
			},
			"proposalVotes(uint256)": {
				"details": "Accessor to the internal vote counts."
			},
			"propose(address[],uint256[],bytes[],string)": {
				"details": "See {IGovernor-propose}. This function has opt-in frontrunning protection, described in {_isValidDescriptionForProposer}."
			},
			"queue(address[],uint256[],bytes[],bytes32)": {
				"details": "See {IGovernor-queue}."
			},
			"quorumDenominator()": {
				"details": "Returns the quorum denominator. Defaults to 100, but may be overridden."
			},
			"quorumNumerator()": {
				"details": "Returns the current quorum numerator. See {quorumDenominator}."
			},
			"quorumNumerator(uint256)": {
				"details": "Returns the quorum numerator at a specific timepoint. See {quorumDenominator}."
			},
			"relay(address,uint256,bytes)": {
				"details": "Relays a transaction or function call to an arbitrary target. In cases where the governance executor is some contract other than the governor itself, like when using a timelock, this function can be invoked in a governance proposal to recover tokens or Ether that was sent to the governor contract by mistake. Note that if the executor is simply the governor itself, use of `relay` is redundant."
			},
			"setProposalThreshold(uint256)": {
				"details": "Update the proposal threshold. This operation can only be performed through a governance proposal. Emits a {ProposalThresholdSet} event."
			},
			"setVotingDelay(uint48)": {
				"details": "Update the voting delay. This operation can only be performed through a governance proposal. Emits a {VotingDelaySet} event."
			},
			"setVotingPeriod(uint32)": {
				"details": "Update the voting period. This operation can only be performed through a governance proposal. Emits a {VotingPeriodSet} event."
			},
			"supportsInterface(bytes4)": {
				"details": "See {IERC165-supportsInterface}."
			},
			"timelock()": {
				"details": "Public accessor to check the address of the timelock"
			},
			"token()": {
				"details": "The token that voting power is sourced from."
			},
			"updateQuorumNumerator(uint256)": {
				"details": "Changes the quorum numerator. Emits a {QuorumNumeratorUpdated} event. Requirements: - Must be called through a governance proposal. - New numerator must be smaller or equal to the denominator."
			},
			"updateTimelock(address)": {
				"details": "Public endpoint to update the underlying timelock instance. Restricted to the timelock itself, so updates must be proposed, scheduled, and executed through governance proposals. CAUTION: It is not recommended to change the timelock while there are other queued governance proposals."
			},
			"version()": {
				"details": "See {IGovernor-version}."
			}
		},
		"version": 1
	},
	"userdoc": {
		"kind": "user",
		"methods": {},
		"version": 1
	},
	"Runtime Bytecode": {
		"immutableReferences": {
			"4433": [
				{
					"length": 32,
					"start": 2465
				},
				{
					"length": 32,
					"start": 3577
				},
				{
					"length": 32,
					"start": 4924
				},
				{
					"length": 32,
					"start": 8020
				},
				{
					"length": 32,
					"start": 8615
				}
			],
			"6348": [
				{
					"length": 32,
					"start": 10038
				}
			],
			"6350": [
				{
					"length": 32,
					"start": 9996
				}
			],
			"6352": [
				{
					"length": 32,
					"start": 9954
				}
			],
			"6354": [
				{
					"length": 32,
					"start": 10119
				}
			],
			"6356": [
				{
					"length": 32,
					"start": 10159
				}
			],
			"6359": [
				{
					"length": 32,
					"start": 7925
				}
			],
			"6362": [
				{
					"length": 32,
					"start": 7969
				}
			]
		},
		"linkReferences": {},
		"object": "60806040526004361061028e575f3560e01c80637ecebe0011610155578063c01f9e37116100be578063e540d01d11610078578063e540d01d146108f8578063eb9019d414610917578063ece40cc114610936578063f23a6e6114610955578063f8ce560a14610974578063fc0c546a14610993575f80fd5b8063c01f9e3714610812578063c28bc2fa14610831578063c59057e414610844578063d33219b414610863578063dd4e2ba514610880578063deaaa7cc146108c5575f80fd5b8063a7713a701161010f578063a7713a7014610757578063a890c9101461076b578063a9a952941461078a578063ab58fb8e146107a9578063b58131b0146107df578063bc197c81146107f3575f80fd5b80637ecebe001461068057806384b0196e146106b45780638ff262e3146106db57806391ddadf4146106fa57806397c3d334146107255780639a802a6d14610738575f80fd5b806343859632116101f75780635b8d0e0d116101b15780635b8d0e0d146105c65780635f398a14146105e557806360c4247f1461060457806379051887146106235780637b3c71d3146106425780637d5e81e214610661575f80fd5b806343859632146104b0578063452115d6146104f85780634bf5d7e914610517578063544ffc9c1461052b57806354fd4d501461057e57806356781388146105a7575f80fd5b8063160cbed711610248578063160cbed7146103ec5780632656227d1461040b5780632d63f6931461041e5780632fe3e2611461043d5780633932abb1146104705780633e4f49e614610484575f80fd5b806301ffc9a7146102c957806302a251a3146102fd57806306f3f9e61461032857806306fdde0314610347578063143489d014610368578063150b7a02146103b4575f80fd5b366102c5573061029c6109c5565b6001600160a01b0316146102c357604051637485328f60e11b815260040160405180910390fd5b005b5f80fd5b3480156102d4575f80fd5b506102e86102e3366004613136565b6109dd565b60405190151581526020015b60405180910390f35b348015610308575f80fd5b50600854600160301b900463ffffffff165b6040519081526020016102f4565b348015610333575f80fd5b506102c361034236600461315d565b610a2e565b348015610352575f80fd5b5061035b610a42565b6040516102f491906131c1565b348015610373575f80fd5b5061039c61038236600461315d565b5f908152600460205260409020546001600160a01b031690565b6040516001600160a01b0390911681526020016102f4565b3480156103bf575f80fd5b506103d36103ce3660046132aa565b610ad2565b6040516001600160e01b031990911681526020016102f4565b3480156103f7575f80fd5b5061031a610406366004613479565b610b14565b61031a610419366004613479565b610be0565b348015610429575f80fd5b5061031a61043836600461315d565b610d48565b348015610448575f80fd5b5061031a7f3e83946653575f9a39005e1545185629e92736b7528ab20ca3816f315424a81181565b34801561047b575f80fd5b5061031a610d68565b34801561048f575f80fd5b506104a361049e36600461315d565b610d7a565b6040516102f49190613536565b3480156104bb575f80fd5b506102e86104ca366004613544565b5f8281526009602090815260408083206001600160a01b038516845260030190915290205460ff1692915050565b348015610503575f80fd5b5061031a610512366004613479565b610d84565b348015610522575f80fd5b5061035b610df5565b348015610536575f80fd5b5061056361054536600461315d565b5f908152600960205260409020805460018201546002909201549092565b604080519384526020840192909252908201526060016102f4565b348015610589575f80fd5b506040805180820190915260018152603160f81b602082015261035b565b3480156105b2575f80fd5b5061031a6105c1366004613582565b610eb5565b3480156105d1575f80fd5b5061031a6105e03660046135f0565b610edc565b3480156105f0575f80fd5b5061031a6105ff3660046136a2565b611038565b34801561060f575f80fd5b5061031a61061e36600461315d565b61108b565b34801561062e575f80fd5b506102c361063d366004613732565b611117565b34801561064d575f80fd5b5061031a61065c36600461374d565b611128565b34801561066c575f80fd5b5061031a61067b3660046137a2565b61116e565b34801561068b575f80fd5b5061031a61069a36600461384e565b6001600160a01b03165f9081526002602052604090205490565b3480156106bf575f80fd5b506106c8611228565b6040516102f497969594939291906138a3565b3480156106e6575f80fd5b5061031a6106f5366004613912565b61126a565b348015610705575f80fd5b5061070e611339565b60405165ffffffffffff90911681526020016102f4565b348015610730575f80fd5b50606461031a565b348015610743575f80fd5b5061031a61075236600461395f565b6113c0565b348015610762575f80fd5b5061031a6113cc565b348015610776575f80fd5b506102c361078536600461384e565b6113e5565b348015610795575f80fd5b506102e86107a436600461315d565b6113f6565b3480156107b4575f80fd5b5061031a6107c336600461315d565b5f9081526004602052604090206001015465ffffffffffff1690565b3480156107ea575f80fd5b5061031a6113fe565b3480156107fe575f80fd5b506103d361080d3660046139b3565b611408565b34801561081d575f80fd5b5061031a61082c36600461315d565b61144b565b6102c361083f366004613a3f565b61148d565b34801561084f575f80fd5b5061031a61085e366004613479565b611509565b34801561086e575f80fd5b50600b546001600160a01b031661039c565b34801561088b575f80fd5b506040805180820190915260208082527f737570706f72743d627261766f2671756f72756d3d666f722c6162737461696e9082015261035b565b3480156108d0575f80fd5b5061031a7ff2aad550cf55f045cb27e9c559f9889fdfb6e6cdaa032301d6ea397784ae51d781565b348015610903575f80fd5b506102c3610912366004613a7e565b611542565b348015610922575f80fd5b5061031a610931366004613aa1565b611553565b348015610941575f80fd5b506102c361095036600461315d565b611579565b348015610960575f80fd5b506103d361096f366004613acb565b61158a565b34801561097f575f80fd5b5061031a61098e36600461315d565b6115cd565b34801561099e575f80fd5b507f000000000000000000000000000000000000000000000000000000000000000061039c565b5f6109d8600b546001600160a01b031690565b905090565b5f6001600160e01b031982166332a2ad4360e11b1480610a0d57506001600160e01b03198216630271189760e51b145b80610a2857506301ffc9a760e01b6001600160e01b03198316145b92915050565b610a366115d7565b610a3f81611650565b50565b606060038054610a5190613b2e565b80601f0160208091040260200160405190810160405280929190818152602001828054610a7d90613b2e565b8015610ac85780601f10610a9f57610100808354040283529160200191610ac8565b820191905f5260205f20905b815481529060010190602001808311610aab57829003601f168201915b5050505050905090565b5f30610adc6109c5565b6001600160a01b031614610b0357604051637485328f60e11b815260040160405180910390fd5b50630a85bd0160e11b949350505050565b5f80610b2286868686611509565b9050610b3781610b3260046116e5565b611707565b505f610b468288888888611744565b905065ffffffffffff811615610bbd575f82815260046020908152604091829020600101805465ffffffffffff191665ffffffffffff85169081179091558251858152918201527f9a2e42fd6722813d69113e7d0079d3d940171428df7373df9c7f7617cfda2892910160405180910390a1610bd6565b604051634844252360e11b815260040160405180910390fd5b5095945050505050565b5f80610bee86868686611509565b9050610c0e81610bfe60056116e5565b610c0860046116e5565b17611707565b505f818152600460205260409020805460ff60f01b1916600160f01b17905530610c366109c5565b6001600160a01b031614610cbf575f5b8651811015610cbd57306001600160a01b0316878281518110610c6b57610c6b613b66565b60200260200101516001600160a01b031603610cb557610cb5858281518110610c9657610c96613b66565b602002602001015180519060200120600561175290919063ffffffff16565b600101610c46565b505b610ccc81878787876117c2565b30610cd56109c5565b6001600160a01b031614158015610d0157506005546001600160801b03808216600160801b9092041614155b15610d0b575f6005555b6040518181527f712ae1383f79ac853f8d882153778e0260ef8f03b504e2866e0593e04d2b291f906020015b60405180910390a195945050505050565b5f90815260046020526040902054600160a01b900465ffffffffffff1690565b5f6109d860085465ffffffffffff1690565b5f610a28826117d6565b5f80610d9286868686611509565b9050610da181610b325f6116e5565b505f818152600460205260409020546001600160a01b03163314610ddf5760405163233d98e360e01b81523360048201526024015b60405180910390fd5b610deb8686868661190f565b9695505050505050565b60607f00000000000000000000000000000000000000000000000000000000000000006001600160a01b0316634bf5d7e96040518163ffffffff1660e01b81526004015f60405180830381865afa925050508015610e7457506040513d5f823e601f3d908101601f19168201604052610e719190810190613b7a565b60015b610eb0575060408051808201909152601d81527f6d6f64653d626c6f636b6e756d6265722666726f6d3d64656661756c74000000602082015290565b919050565b5f80339050610ed484828560405180602001604052805f815250611925565b949350505050565b5f80610fbd87610fb77f3e83946653575f9a39005e1545185629e92736b7528ab20ca3816f315424a8118c8c8c610f2f8e6001600160a01b03165f90815260026020526040902080546001810190915590565b8d8d604051610f3f929190613be2565b60405180910390208c80519060200120604051602001610f9c9796959493929190968752602087019590955260ff9390931660408601526001600160a01b03919091166060850152608084015260a083015260c082015260e00190565b60405160208183030381529060405280519060200120611946565b85611972565b905080610fe8576040516394ab6c0760e01b81526001600160a01b0388166004820152602401610dd6565b61102b89888a89898080601f0160208091040260200160405190810160405280939291908181526020018383808284375f920191909152508b92506119c7915050565b9998505050505050505050565b5f8033905061108087828888888080601f0160208091040260200160405190810160405280939291908181526020018383808284375f920191909152508a92506119c7915050565b979650505050505050565b600a80545f91829061109e600184613c05565b815481106110ae576110ae613b66565b5f918252602090912001805490915065ffffffffffff811690600160301b90046001600160d01b03168582116110f0576001600160d01b031695945050505050565b6111046110fc87611aa1565b600a90611ad7565b6001600160d01b03169695505050505050565b61111f6115d7565b610a3f81611b86565b5f80339050610deb86828787878080601f0160208091040260200160405190810160405280939291908181526020018383808284375f9201919091525061192592505050565b5f3361117a8184611bec565b6111a25760405163d9b3955760e01b81526001600160a01b0382166004820152602401610dd6565b5f6111c88260016111b1611339565b6111bb9190613c18565b65ffffffffffff16611553565b90505f6111d36113fe565b90508082101561120f57604051636121770b60e11b81526001600160a01b03841660048201526024810183905260448101829052606401610dd6565b61121c8888888887611cd4565b98975050505050505050565b5f6060805f805f6060611239611eee565b611241611f1a565b604080515f80825260208201909252600f60f81b9b939a50919850469750309650945092509050565b5f806112f484610fb77ff2aad550cf55f045cb27e9c559f9889fdfb6e6cdaa032301d6ea397784ae51d78989896112bd8b6001600160a01b03165f90815260026020526040902080546001810190915590565b60408051602081019690965285019390935260ff90911660608401526001600160a01b0316608083015260a082015260c001610f9c565b90508061131f576040516394ab6c0760e01b81526001600160a01b0385166004820152602401610dd6565b610deb86858760405180602001604052805f815250611925565b5f7f00000000000000000000000000000000000000000000000000000000000000006001600160a01b03166391ddadf46040518163ffffffff1660e01b8152600401602060405180830381865afa9250505080156113b4575060408051601f3d908101601f191682019092526113b191810190613c3e565b60015b610eb0576109d8611f47565b5f610ed4848484611f51565b5f6113d7600a611fe4565b6001600160d01b0316905090565b6113ed6115d7565b610a3f8161201b565b5f6001610a28565b5f6109d860075490565b5f306114126109c5565b6001600160a01b03161461143957604051637485328f60e11b815260040160405180910390fd5b5063bc197c8160e01b95945050505050565b5f8181526004602052604081205461147f90600160d01b810463ffffffff1690600160a01b900465ffffffffffff16613c59565b65ffffffffffff1692915050565b6114956115d7565b5f80856001600160a01b03168585856040516114b2929190613be2565b5f6040518083038185875af1925050503d805f81146114ec576040519150601f19603f3d011682016040523d82523d5f602084013e6114f1565b606091505b50915091506115008282612084565b50505050505050565b5f848484846040516020016115219493929190613d08565b60408051601f19818403018152919052805160209091012095945050505050565b61154a6115d7565b610a3f816120a0565b5f611572838361156d60408051602081019091525f815290565b611f51565b9392505050565b6115816115d7565b610a3f8161213c565b5f306115946109c5565b6001600160a01b0316146115bb57604051637485328f60e11b815260040160405180910390fd5b5063f23a6e6160e01b95945050505050565b5f610a288261217d565b336115e06109c5565b6001600160a01b031614611609576040516347096e4760e01b8152336004820152602401610dd6565b306116126109c5565b6001600160a01b03161461164e575f8036604051611631929190613be2565b604051809103902090505b806116476005612224565b0361163c57505b565b60648082111561167d5760405163243e544560e01b81526004810183905260248101829052604401610dd6565b5f6116866113cc565b90506116a5611693611339565b61169c856122a0565b600a91906122d3565b505060408051828152602081018590527f0553476bf02ef2726e8ce5ced78d63e26e602e4a2257b1f559418e24b4633997910160405180910390a1505050565b5f8160078111156116f8576116f8613502565b600160ff919091161b92915050565b5f8061171284610d7a565b90505f8361171f836116e5565b1603611572578381846040516331b75e4d60e01b8152600401610dd693929190613d52565b5f610deb86868686866122ed565b81546001600160801b03600160801b82048116918116600183019091160361178d57604051638acb5f2760e01b815260040160405180910390fd5b6001600160801b038082165f90815260018086016020526040909120939093558354919092018216600160801b029116179055565b6117cf858585858561247e565b5050505050565b5f806117e18361250e565b905060058160078111156117f7576117f7613502565b146118025792915050565b5f838152600c60205260409081902054600b549151632c258a9f60e11b81526004810182905290916001600160a01b03169063584b153e90602401602060405180830381865afa158015611858573d5f803e3d5ffd5b505050506040513d601f19601f8201168201806040525081019061187c9190613d74565b1561188b575060059392505050565b600b54604051632ab0f52960e01b8152600481018390526001600160a01b0390911690632ab0f52990602401602060405180830381865afa1580156118d2573d5f803e3d5ffd5b505050506040513d601f19601f820116820180604052508101906118f69190613d74565b15611905575060079392505050565b5060029392505050565b5f61191c8585858561263f565b95945050505050565b5f61191c8585858561194160408051602081019091525f815290565b6119c7565b5f610a286119526126d6565b8360405161190160f01b8152600281019290925260228201526042902090565b5f805f61197f85856127ff565b5090925090505f81600381111561199857611998613502565b1480156119b65750856001600160a01b0316826001600160a01b0316145b80610deb5750610deb868686612848565b5f6119d686610b3260016116e5565b505f6119eb866119e589610d48565b85611f51565b90506119fa878787848761291e565b82515f03611a4e57856001600160a01b03167fb8e138887d0aa13bab447e82de9d5c1777041ecd21ca36ba824ff1e6c07ddda488878488604051611a419493929190613d93565b60405180910390a2610deb565b856001600160a01b03167fe2babfbac5889a709b63bb7f598b324e08bc5a4fb9ec647fb3cbc9ec07eb87128887848888604051611a8f959493929190613dba565b60405180910390a29695505050505050565b5f65ffffffffffff821115611ad3576040516306dfcc6560e41b81526030600482015260248101839052604401610dd6565b5090565b81545f9081816005811115611b33575f611af084612a18565b611afa9085613c05565b5f8881526020902090915081015465ffffffffffff9081169087161015611b2357809150611b31565b611b2e816001613df3565b92505b505b5f611b4087878585612afc565b90508015611b7a57611b6487611b57600184613c05565b5f91825260209091200190565b54600160301b90046001600160d01b0316611080565b5f979650505050505050565b6008546040805165ffffffffffff928316815291831660208301527fc565b045403dc03c2eea82b81a0465edad9e2e7fc4d97e11421c209da93d7a93910160405180910390a16008805465ffffffffffff191665ffffffffffff92909216919091179055565b80515f906034811015611c03576001915050610a28565b82810160131901516001600160a01b031981166b046e0e4dee0dee6cae47a60f60a31b14611c3657600192505050610a28565b5f80611c43602885613c05565b90505b83811015611cb3575f80611c79888481518110611c6557611c65613b66565b01602001516001600160f81b031916612b5b565b9150915081611c915760019650505050505050610a28565b8060ff166004856001600160a01b0316901b1793505050806001019050611c46565b50856001600160a01b0316816001600160a01b031614935050505092915050565b5f611ce88686868680519060200120611509565b905084518651141580611cfd57508351865114155b80611d0757508551155b15611d3c57855184518651604051630447b05d60e41b8152600481019390935260248301919091526044820152606401610dd6565b5f81815260046020526040902054600160a01b900465ffffffffffff1615611d855780611d6882610d7a565b6040516331b75e4d60e01b8152610dd69291905f90600401613d52565b5f611d8e610d68565b611d96611339565b65ffffffffffff16611da89190613df3565b90505f611dc260085463ffffffff600160301b9091041690565b5f84815260046020526040902080546001600160a01b0319166001600160a01b038716178155909150611df483611aa1565b815465ffffffffffff91909116600160a01b0265ffffffffffff60a01b19909116178155611e2182612beb565b815463ffffffff91909116600160d01b0263ffffffff60d01b1990911617815588517f7d84a6263ae0d98d3329bd7b46bb4e8d6f98cd35a7adb45c274c8b7fd5ebd5e090859087908c908c906001600160401b03811115611e8457611e846131e7565b604051908082528060200260200182016040528015611eb757816020015b6060815260200190600190039081611ea25790505b508c89611ec48a82613df3565b8e604051611eda99989796959493929190613e06565b60405180910390a150505095945050505050565b60606109d87f00000000000000000000000000000000000000000000000000000000000000005f612c1b565b60606109d87f00000000000000000000000000000000000000000000000000000000000000006001612c1b565b5f6109d843611aa1565b5f7f0000000000000000000000000000000000000000000000000000000000000000604051630748d63560e31b81526001600160a01b038681166004830152602482018690529190911690633a46b1a890604401602060405180830381865afa158015611fc0573d5f803e3d5ffd5b505050506040513d601f19601f82011682018060405250810190610ed49190613edb565b80545f90801561201357611ffd83611b57600184613c05565b54600160301b90046001600160d01b0316611572565b5f9392505050565b600b54604080516001600160a01b03928316815291831660208301527f08f74ea46ef7894f65eabfb5e6e695de773a000b47c529ab559178069b226401910160405180910390a1600b80546001600160a01b0319166001600160a01b0392909216919091179055565b6060826120995761209482612cc4565b610a28565b5080610a28565b8063ffffffff165f036120c85760405163f1cfbf0560e01b81525f6004820152602401610dd6565b6008546040805163ffffffff600160301b9093048316815291831660208301527f7e3f7f0708a84de9203036abaa450dccc85ad5ff52f78c170f3edb55cf5e8828910160405180910390a16008805463ffffffff909216600160301b0269ffffffff00000000000019909216919091179055565b60075460408051918252602082018390527fccb45da8d5717e6c4544694297c4ba5cf151d455c9bb0ed4fc7a38411bc05461910160405180910390a1600755565b5f60646121898361108b565b604051632394e7a360e21b8152600481018590526001600160a01b037f00000000000000000000000000000000000000000000000000000000000000001690638e539e8c90602401602060405180830381865afa1580156121ec573d5f803e3d5ffd5b505050506040513d601f19601f820116820180604052508101906122109190613edb565b61221a9190613ef2565b610a289190613f1d565b80545f906001600160801b0380821691600160801b900416810361225b576040516375e52f4f60e01b815260040160405180910390fd5b6001600160801b038181165f908152600185810160205260408220805492905585546fffffffffffffffffffffffffffffffff19169301909116919091179092555090565b5f6001600160d01b03821115611ad3576040516306dfcc6560e41b815260d0600482015260248101839052604401610dd6565b5f806122e0858585612ced565b915091505b935093915050565b5f80600b5f9054906101000a90046001600160a01b03166001600160a01b031663f27a0c926040518163ffffffff1660e01b8152600401602060405180830381865afa15801561233f573d5f803e3d5ffd5b505050506040513d601f19601f820116820180604052508101906123639190613edb565b90505f3060601b6bffffffffffffffffffffffff19168418600b5460405163b1c5f42760e01b81529192506001600160a01b03169063b1c5f427906123b4908a908a908a905f908890600401613f3c565b602060405180830381865afa1580156123cf573d5f803e3d5ffd5b505050506040513d601f19601f820116820180604052508101906123f39190613edb565b5f898152600c602052604080822092909255600b5491516308f2a0bb60e41b81526001600160a01b0390921691638f2a0bb09161243d918b918b918b919088908a90600401613f89565b5f604051808303815f87803b158015612454575f80fd5b505af1158015612466573d5f803e3d5ffd5b5050505061121c82426124799190613df3565b611aa1565b600b546001600160a01b031663e38335e5348686865f3060601b6bffffffffffffffffffffffff191688186040518763ffffffff1660e01b81526004016124c9959493929190613f3c565b5f604051808303818588803b1580156124e0575f80fd5b505af11580156124f2573d5f803e3d5ffd5b5050505f9687525050600c602052505060408320929092555050565b5f818152600460205260408120805460ff600160f01b8204811691600160f81b900416811561254257506007949350505050565b801561255357506002949350505050565b5f61255d86610d48565b9050805f0361258257604051636ad0607560e01b815260048101879052602401610dd6565b5f61258b611339565b65ffffffffffff1690508082106125a857505f9695505050505050565b5f6125b28861144b565b90508181106125c957506001979650505050505050565b6125d288612e63565b15806125f157505f888152600960205260409020805460019091015411155b1561260457506003979650505050505050565b5f8881526004602052604090206001015465ffffffffffff165f0361263157506004979650505050505050565b506005979650505050505050565b5f8061264d86868686612e99565b5f818152600c60205260409020549091508015610bd657600b5460405163c4d252f560e01b8152600481018390526001600160a01b039091169063c4d252f5906024015f604051808303815f87803b1580156126a7575f80fd5b505af11580156126b9573d5f803e3d5ffd5b5050505f838152600c602052604081205550509050949350505050565b5f306001600160a01b037f00000000000000000000000000000000000000000000000000000000000000001614801561272e57507f000000000000000000000000000000000000000000000000000000000000000046145b1561275857507f000000000000000000000000000000000000000000000000000000000000000090565b6109d8604080517f8b73c3c69bb8fe3d512ecc4cf759cc79239f7b179b0ffacaa9a75d522b39400f60208201527f0000000000000000000000000000000000000000000000000000000000000000918101919091527f000000000000000000000000000000000000000000000000000000000000000060608201524660808201523060a08201525f9060c00160405160208183030381529060405280519060200120905090565b5f805f8351604103612836576020840151604085015160608601515f1a61282888828585612f48565b955095509550505050612841565b505081515f91506002905b9250925092565b5f805f856001600160a01b03168585604051602401612868929190613fe0565b60408051601f198184030181529181526020820180516001600160e01b0316630b135d3f60e11b1790525161289d9190613ff8565b5f60405180830381855afa9150503d805f81146128d5576040519150601f19603f3d011682016040523d82523d5f602084013e6128da565b606091505b50915091508180156128ee57506020815110155b8015610deb57508051630b135d3f60e11b906129139083016020908101908401613edb565b149695505050505050565b5f8581526009602090815260408083206001600160a01b0388168452600381019092529091205460ff1615612971576040516371c6af4960e01b81526001600160a01b0386166004820152602401610dd6565b6001600160a01b0385165f9081526003820160205260409020805460ff1916600117905560ff84166129ba5782815f015f8282546129af9190613df3565b90915550612a109050565b5f1960ff8516016129d85782816001015f8282546129af9190613df3565b60011960ff8516016129f75782816002015f8282546129af9190613df3565b6040516303599be160e11b815260040160405180910390fd5b505050505050565b5f815f03612a2757505f919050565b5f6001612a3384613010565b901c6001901b90506001818481612a4c57612a4c613f09565b048201901c90506001818481612a6457612a64613f09565b048201901c90506001818481612a7c57612a7c613f09565b048201901c90506001818481612a9457612a94613f09565b048201901c90506001818481612aac57612aac613f09565b048201901c90506001818481612ac457612ac4613f09565b048201901c90506001818481612adc57612adc613f09565b048201901c905061157281828581612af657612af6613f09565b046130a3565b5f5b81831015612b53575f612b1184846130b8565b5f8781526020902090915065ffffffffffff86169082015465ffffffffffff161115612b3f57809250612b4d565b612b4a816001613df3565b93505b50612afe565b509392505050565b5f8060f883901c602f81118015612b755750603a8160ff16105b15612b8a57600194602f199091019350915050565b8060ff166040108015612ba0575060478160ff16105b15612bb5576001946036199091019350915050565b8060ff166060108015612bcb575060678160ff16105b15612be0576001946056199091019350915050565b505f93849350915050565b5f63ffffffff821115611ad3576040516306dfcc6560e41b81526020600482015260248101839052604401610dd6565b606060ff8314612c3557612c2e836130d2565b9050610a28565b818054612c4190613b2e565b80601f0160208091040260200160405190810160405280929190818152602001828054612c6d90613b2e565b8015612cb85780601f10612c8f57610100808354040283529160200191612cb8565b820191905f5260205f20905b815481529060010190602001808311612c9b57829003601f168201915b50505050509050610a28565b805115612cd45780518082602001fd5b604051630a12f52160e11b815260040160405180910390fd5b82545f9081908015612e09575f612d0987611b57600185613c05565b60408051808201909152905465ffffffffffff808216808452600160301b9092046001600160d01b031660208401529192509087161015612d5d57604051632520601d60e01b815260040160405180910390fd5b805165ffffffffffff808816911603612da95784612d8088611b57600186613c05565b80546001600160d01b0392909216600160301b0265ffffffffffff909216919091179055612df9565b6040805180820190915265ffffffffffff80881682526001600160d01b0380881660208085019182528b54600181018d555f8d81529190912094519151909216600160301b029216919091179101555b6020015192508391506122e59050565b50506040805180820190915265ffffffffffff80851682526001600160d01b0380851660208085019182528854600181018a555f8a815291822095519251909316600160301b0291909316179201919091559050816122e5565b5f81815260096020526040812060028101546001820154612e849190613df3565b612e9061098e85610d48565b11159392505050565b5f80612ea786868686611509565b9050612ef581612eb760076116e5565b612ec160066116e5565b612ecb60026116e5565b6001612ed8600782614013565b612ee390600261410c565b612eed9190613c05565b181818611707565b505f818152600460205260409081902080546001600160f81b0316600160f81b179055517f789cf55be980739dad1d0699b93b58e806b51c9d96619bfa8fe0a28abaa7b30c90610d379083815260200190565b5f80807f7fffffffffffffffffffffffffffffff5d576e7357a4501ddfe92f46681b20a0841115612f8157505f91506003905082613006565b604080515f808252602082018084528a905260ff891692820192909252606081018790526080810186905260019060a0016020604051602081039080840390855afa158015612fd2573d5f803e3d5ffd5b5050604051601f1901519150506001600160a01b038116612ffd57505f925060019150829050613006565b92505f91508190505b9450945094915050565b5f80608083901c1561302457608092831c92015b604083901c1561303657604092831c92015b602083901c1561304857602092831c92015b601083901c1561305a57601092831c92015b600883901c1561306c57600892831c92015b600483901c1561307e57600492831c92015b600283901c1561309057600292831c92015b600183901c15610a285760010192915050565b5f8183106130b15781611572565b5090919050565b5f6130c66002848418613f1d565b61157290848416613df3565b60605f6130de8361310f565b6040805160208082528183019092529192505f91906020820181803683375050509182525060208101929092525090565b5f60ff8216601f811115610a2857604051632cd44ac360e21b815260040160405180910390fd5b5f60208284031215613146575f80fd5b81356001600160e01b031981168114611572575f80fd5b5f6020828403121561316d575f80fd5b5035919050565b5f5b8381101561318e578181015183820152602001613176565b50505f910152565b5f81518084526131ad816020860160208601613174565b601f01601f19169290920160200192915050565b602081525f6115726020830184613196565b6001600160a01b0381168114610a3f575f80fd5b634e487b7160e01b5f52604160045260245ffd5b604051601f8201601f191681016001600160401b0381118282101715613223576132236131e7565b604052919050565b5f6001600160401b03821115613243576132436131e7565b50601f01601f191660200190565b5f61326361325e8461322b565b6131fb565b9050828152838383011115613276575f80fd5b828260208301375f602084830101529392505050565b5f82601f83011261329b575f80fd5b61157283833560208501613251565b5f805f80608085870312156132bd575f80fd5b84356132c8816131d3565b935060208501356132d8816131d3565b92506040850135915060608501356001600160401b038111156132f9575f80fd5b6133058782880161328c565b91505092959194509250565b5f6001600160401b03821115613329576133296131e7565b5060051b60200190565b5f82601f830112613342575f80fd5b8135602061335261325e83613311565b8083825260208201915060208460051b870101935086841115613373575f80fd5b602086015b8481101561339857803561338b816131d3565b8352918301918301613378565b509695505050505050565b5f82601f8301126133b2575f80fd5b813560206133c261325e83613311565b8083825260208201915060208460051b8701019350868411156133e3575f80fd5b602086015b8481101561339857803583529183019183016133e8565b5f82601f83011261340e575f80fd5b8135602061341e61325e83613311565b82815260059290921b8401810191818101908684111561343c575f80fd5b8286015b848110156133985780356001600160401b0381111561345d575f80fd5b61346b8986838b010161328c565b845250918301918301613440565b5f805f806080858703121561348c575f80fd5b84356001600160401b03808211156134a2575f80fd5b6134ae88838901613333565b955060208701359150808211156134c3575f80fd5b6134cf888389016133a3565b945060408701359150808211156134e4575f80fd5b506134f1878288016133ff565b949793965093946060013593505050565b634e487b7160e01b5f52602160045260245ffd5b6008811061353257634e487b7160e01b5f52602160045260245ffd5b9052565b60208101610a288284613516565b5f8060408385031215613555575f80fd5b823591506020830135613567816131d3565b809150509250929050565b803560ff81168114610eb0575f80fd5b5f8060408385031215613593575f80fd5b823591506135a360208401613572565b90509250929050565b5f8083601f8401126135bc575f80fd5b5081356001600160401b038111156135d2575f80fd5b6020830191508360208285010111156135e9575f80fd5b9250929050565b5f805f805f805f60c0888a031215613606575f80fd5b8735965061361660208901613572565b95506040880135613626816131d3565b945060608801356001600160401b0380821115613641575f80fd5b61364d8b838c016135ac565b909650945060808a0135915080821115613665575f80fd5b6136718b838c0161328c565b935060a08a0135915080821115613686575f80fd5b506136938a828b0161328c565b91505092959891949750929550565b5f805f805f608086880312156136b6575f80fd5b853594506136c660208701613572565b935060408601356001600160401b03808211156136e1575f80fd5b6136ed89838a016135ac565b90955093506060880135915080821115613705575f80fd5b506137128882890161328c565b9150509295509295909350565b65ffffffffffff81168114610a3f575f80fd5b5f60208284031215613742575f80fd5b81356115728161371f565b5f805f8060608587031215613760575f80fd5b8435935061377060208601613572565b925060408501356001600160401b0381111561378a575f80fd5b613796878288016135ac565b95989497509550505050565b5f805f80608085870312156137b5575f80fd5b84356001600160401b03808211156137cb575f80fd5b6137d788838901613333565b955060208701359150808211156137ec575f80fd5b6137f8888389016133a3565b9450604087013591508082111561380d575f80fd5b613819888389016133ff565b9350606087013591508082111561382e575f80fd5b508501601f8101871361383f575f80fd5b61330587823560208401613251565b5f6020828403121561385e575f80fd5b8135611572816131d3565b5f815180845260208085019450602084015f5b838110156138985781518752958201959082019060010161387c565b509495945050505050565b60ff60f81b8816815260e060208201525f6138c160e0830189613196565b82810360408401526138d38189613196565b606084018890526001600160a01b038716608085015260a0840186905283810360c085015290506139048185613869565b9a9950505050505050505050565b5f805f8060808587031215613925575f80fd5b8435935061393560208601613572565b92506040850135613945816131d3565b915060608501356001600160401b038111156132f9575f80fd5b5f805f60608486031215613971575f80fd5b833561397c816131d3565b92506020840135915060408401356001600160401b0381111561399d575f80fd5b6139a98682870161328c565b9150509250925092565b5f805f805f60a086880312156139c7575f80fd5b85356139d2816131d3565b945060208601356139e2816131d3565b935060408601356001600160401b03808211156139fd575f80fd5b613a0989838a016133a3565b94506060880135915080821115613a1e575f80fd5b613a2a89838a016133a3565b93506080880135915080821115613705575f80fd5b5f805f8060608587031215613a52575f80fd5b8435613a5d816131d3565b93506020850135925060408501356001600160401b0381111561378a575f80fd5b5f60208284031215613a8e575f80fd5b813563ffffffff81168114611572575f80fd5b5f8060408385031215613ab2575f80fd5b8235613abd816131d3565b946020939093013593505050565b5f805f805f60a08688031215613adf575f80fd5b8535613aea816131d3565b94506020860135613afa816131d3565b9350604086013592506060860135915060808601356001600160401b03811115613b22575f80fd5b6137128882890161328c565b600181811c90821680613b4257607f821691505b602082108103613b6057634e487b7160e01b5f52602260045260245ffd5b50919050565b634e487b7160e01b5f52603260045260245ffd5b5f60208284031215613b8a575f80fd5b81516001600160401b03811115613b9f575f80fd5b8201601f81018413613baf575f80fd5b8051613bbd61325e8261322b565b818152856020838501011115613bd1575f80fd5b61191c826020830160208601613174565b818382375f9101908152919050565b634e487b7160e01b5f52601160045260245ffd5b81810381811115610a2857610a28613bf1565b65ffffffffffff828116828216039080821115613c3757613c37613bf1565b5092915050565b5f60208284031215613c4e575f80fd5b81516115728161371f565b65ffffffffffff818116838216019080821115613c3757613c37613bf1565b5f815180845260208085019450602084015f5b838110156138985781516001600160a01b031687529582019590820190600101613c8b565b5f8282518085526020808601955060208260051b840101602086015f5b84811015613cfb57601f19868403018952613ce9838351613196565b98840198925090830190600101613ccd565b5090979650505050505050565b608081525f613d1a6080830187613c78565b8281036020840152613d2c8187613869565b90508281036040840152613d408186613cb0565b91505082606083015295945050505050565b83815260608101613d666020830185613516565b826040830152949350505050565b5f60208284031215613d84575f80fd5b81518015158114611572575f80fd5b84815260ff84166020820152826040820152608060608201525f610deb6080830184613196565b85815260ff8516602082015283604082015260a060608201525f613de160a0830185613196565b828103608084015261121c8185613196565b80820180821115610a2857610a28613bf1565b5f6101208b8352602060018060a01b038c1681850152816040850152613e2e8285018c613c78565b91508382036060850152613e42828b613869565b915083820360808501528189518084528284019150828160051b850101838c015f5b83811015613e9257601f19878403018552613e80838351613196565b94860194925090850190600101613e64565b505086810360a0880152613ea6818c613cb0565b9450505050508560c08401528460e0840152828103610100840152613ecb8185613196565b9c9b505050505050505050505050565b5f60208284031215613eeb575f80fd5b5051919050565b8082028115828204841417610a2857610a28613bf1565b634e487b7160e01b5f52601260045260245ffd5b5f82613f3757634e487b7160e01b5f52601260045260245ffd5b500490565b60a081525f613f4e60a0830188613c78565b8281036020840152613f608188613869565b90508281036040840152613f748187613cb0565b60608401959095525050608001529392505050565b60c081525f613f9b60c0830189613c78565b8281036020840152613fad8189613869565b90508281036040840152613fc18188613cb0565b60608401969096525050608081019290925260a0909101529392505050565b828152604060208201525f610ed46040830184613196565b5f8251614009818460208701613174565b9190910192915050565b60ff8181168382160190811115610a2857610a28613bf1565b600181815b8085111561406657815f190482111561404c5761404c613bf1565b8085161561405957918102915b93841c9390800290614031565b509250929050565b5f8261407c57506001610a28565b8161408857505f610a28565b816001811461409e57600281146140a8576140c4565b6001915050610a28565b60ff8411156140b9576140b9613bf1565b50506001821b610a28565b5060208310610133831016604e8410600b84101617156140e7575081810a610a28565b6140f1838361402c565b805f190482111561410457614104613bf1565b029392505050565b5f61157260ff84168361406e56fea26469706673582212205d2147482613db049a942e173226aba93d256058d5c20ce418cc032ced2d8e1b64736f6c63430008160033",
		"opcodes": "PUSH1 0x80 PUSH1 0x40 MSTORE PUSH1 0x4 CALLDATASIZE LT PUSH2 0x28E JUMPI PUSH0 CALLDATALOAD PUSH1 0xE0 SHR DUP1 PUSH4 0x7ECEBE00 GT PUSH2 0x155 JUMPI DUP1 PUSH4 0xC01F9E37 GT PUSH2 0xBE JUMPI DUP1 PUSH4 0xE540D01D GT PUSH2 0x78 JUMPI DUP1 PUSH4 0xE540D01D EQ PUSH2 0x8F8 JUMPI DUP1 PUSH4 0xEB9019D4 EQ PUSH2 0x917 JUMPI DUP1 PUSH4 0xECE40CC1 EQ PUSH2 0x936 JUMPI DUP1 PUSH4 0xF23A6E61 EQ PUSH2 0x955 JUMPI DUP1 PUSH4 0xF8CE560A EQ PUSH2 0x974 JUMPI DUP1 PUSH4 0xFC0C546A EQ PUSH2 0x993 JUMPI PUSH0 DUP1 REVERT JUMPDEST DUP1 PUSH4 0xC01F9E37 EQ PUSH2 0x812 JUMPI DUP1 PUSH4 0xC28BC2FA EQ PUSH2 0x831 JUMPI DUP1 PUSH4 0xC59057E4 EQ PUSH2 0x844 JUMPI DUP1 PUSH4 0xD33219B4 EQ PUSH2 0x863 JUMPI DUP1 PUSH4 0xDD4E2BA5 EQ PUSH2 0x880 JUMPI DUP1 PUSH4 0xDEAAA7CC EQ PUSH2 0x8C5 JUMPI PUSH0 DUP1 REVERT JUMPDEST DUP1 PUSH4 0xA7713A70 GT PUSH2 0x10F JUMPI DUP1 PUSH4 0xA7713A70 EQ PUSH2 0x757 JUMPI DUP1 PUSH4 0xA890C910 EQ PUSH2 0x76B JUMPI DUP1 PUSH4 0xA9A95294 EQ PUSH2 0x78A JUMPI DUP1 PUSH4 0xAB58FB8E EQ PUSH2 0x7A9 JUMPI DUP1 PUSH4 0xB58131B0 EQ PUSH2 0x7DF JUMPI DUP1 PUSH4 0xBC197C81 EQ PUSH2 0x7F3 JUMPI PUSH0 DUP1 REVERT JUMPDEST DUP1 PUSH4 0x7ECEBE00 EQ PUSH2 0x680 JUMPI DUP1 PUSH4 0x84B0196E EQ PUSH2 0x6B4 JUMPI DUP1 PUSH4 0x8FF262E3 EQ PUSH2 0x6DB JUMPI DUP1 PUSH4 0x91DDADF4 EQ PUSH2 0x6FA JUMPI DUP1 PUSH4 0x97C3D334 EQ PUSH2 0x725 JUMPI DUP1 PUSH4 0x9A802A6D EQ PUSH2 0x738 JUMPI PUSH0 DUP1 REVERT JUMPDEST DUP1 PUSH4 0x43859632 GT PUSH2 0x1F7 JUMPI DUP1 PUSH4 0x5B8D0E0D GT PUSH2 0x1B1 JUMPI DUP1 PUSH4 0x5B8D0E0D EQ PUSH2 0x5C6 JUMPI DUP1 PUSH4 0x5F398A14 EQ PUSH2 0x5E5 JUMPI DUP1 PUSH4 0x60C4247F EQ PUSH2 0x604 JUMPI DUP1 PUSH4 0x79051887 EQ PUSH2 0x623 JUMPI DUP1 PUSH4 0x7B3C71D3 EQ PUSH2 0x642 JUMPI DUP1 PUSH4 0x7D5E81E2 EQ PUSH2 0x661 JUMPI PUSH0 DUP1 REVERT JUMPDEST DUP1 PUSH4 0x43859632 EQ PUSH2 0x4B0 JUMPI DUP1 PUSH4 0x452115D6 EQ PUSH2 0x4F8 JUMPI DUP1 PUSH4 0x4BF5D7E9 EQ PUSH2 0x517 JUMPI DUP1 PUSH4 0x544FFC9C EQ PUSH2 0x52B JUMPI DUP1 PUSH4 0x54FD4D50 EQ PUSH2 0x57E JUMPI DUP1 PUSH4 0x56781388 EQ PUSH2 0x5A7 JUMPI PUSH0 DUP1 REVERT JUMPDEST DUP1 PUSH4 0x160CBED7 GT PUSH2 0x248 JUMPI DUP1 PUSH4 0x160CBED7 EQ PUSH2 0x3EC JUMPI DUP1 PUSH4 0x2656227D EQ PUSH2 0x40B JUMPI DUP1 PUSH4 0x2D63F693 EQ PUSH2 0x41E JUMPI DUP1 PUSH4 0x2FE3E261 EQ PUSH2 0x43D JUMPI DUP1 PUSH4 0x3932ABB1 EQ PUSH2 0x470 JUMPI DUP1 PUSH4 0x3E4F49E6 EQ PUSH2 0x484 JUMPI PUSH0 DUP1 REVERT JUMPDEST DUP1 PUSH4 0x1FFC9A7 EQ PUSH2 0x2C9 JUMPI DUP1 PUSH4 0x2A251A3 EQ PUSH2 0x2FD JUMPI DUP1 PUSH4 0x6F3F9E6 EQ PUSH2 0x328 JUMPI DUP1 PUSH4 0x6FDDE03 EQ PUSH2 0x347 JUMPI DUP1 PUSH4 0x143489D0 EQ PUSH2 0x368 JUMPI DUP1 PUSH4 0x150B7A02 EQ PUSH2 0x3B4 JUMPI PUSH0 DUP1 REVERT JUMPDEST CALLDATASIZE PUSH2 0x2C5 JUMPI ADDRESS PUSH2 0x29C PUSH2 0x9C5 JUMP JUMPDEST PUSH1 0x1 PUSH1 0x1 PUSH1 0xA0 SHL SUB AND EQ PUSH2 0x2C3 JUMPI PUSH1 0x40 MLOAD PUSH4 0x7485328F PUSH1 0xE1 SHL DUP2 MSTORE PUSH1 0x4 ADD PUSH1 0x40 MLOAD DUP1 SWAP2 SUB SWAP1 REVERT JUMPDEST STOP JUMPDEST PUSH0 DUP1 REVERT JUMPDEST CALLVALUE DUP1 ISZERO PUSH2 0x2D4 JUMPI PUSH0 DUP1 REVERT JUMPDEST POP PUSH2 0x2E8 PUSH2 0x2E3 CALLDATASIZE PUSH1 0x4 PUSH2 0x3136 JUMP JUMPDEST PUSH2 0x9DD JUMP JUMPDEST PUSH1 0x40 MLOAD SWAP1 ISZERO ISZERO DUP2 MSTORE PUSH1 0x20 ADD JUMPDEST PUSH1 0x40 MLOAD DUP1 SWAP2 SUB SWAP1 RETURN JUMPDEST CALLVALUE DUP1 ISZERO PUSH2 0x308 JUMPI PUSH0 DUP1 REVERT JUMPDEST POP PUSH1 0x8 SLOAD PUSH1 0x1 PUSH1 0x30 SHL SWAP1 DIV PUSH4 0xFFFFFFFF AND JUMPDEST PUSH1 0x40 MLOAD SWAP1 DUP2 MSTORE PUSH1 0x20 ADD PUSH2 0x2F4 JUMP JUMPDEST CALLVALUE DUP1 ISZERO PUSH2 0x333 JUMPI PUSH0 DUP1 REVERT JUMPDEST POP PUSH2 0x2C3 PUSH2 0x342 CALLDATASIZE PUSH1 0x4 PUSH2 0x315D JUMP JUMPDEST PUSH2 0xA2E JUMP JUMPDEST CALLVALUE DUP1 ISZERO PUSH2 0x352 JUMPI PUSH0 DUP1 REVERT JUMPDEST POP PUSH2 0x35B PUSH2 0xA42 JUMP JUMPDEST PUSH1 0x40 MLOAD PUSH2 0x2F4 SWAP2 SWAP1 PUSH2 0x31C1 JUMP JUMPDEST CALLVALUE DUP1 ISZERO PUSH2 0x373 JUMPI PUSH0 DUP1 REVERT JUMPDEST POP PUSH2 0x39C PUSH2 0x382 CALLDATASIZE PUSH1 0x4 PUSH2 0x315D JUMP JUMPDEST PUSH0 SWAP1 DUP2 MSTORE PUSH1 0x4 PUSH1 0x20 MSTORE PUSH1 0x40 SWAP1 KECCAK256 SLOAD PUSH1 0x1 PUSH1 0x1 PUSH1 0xA0 SHL SUB AND SWAP1 JUMP JUMPDEST PUSH1 0x40 MLOAD PUSH1 0x1 PUSH1 0x1 PUSH1 0xA0 SHL SUB SWAP1 SWAP2 AND DUP2 MSTORE PUSH1 0x20 ADD PUSH2 0x2F4 JUMP JUMPDEST CALLVALUE DUP1 ISZERO PUSH2 0x3BF JUMPI PUSH0 DUP1 REVERT JUMPDEST POP PUSH2 0x3D3 PUSH2 0x3CE CALLDATASIZE PUSH1 0x4 PUSH2 0x32AA JUMP JUMPDEST PUSH2 0xAD2 JUMP JUMPDEST PUSH1 0x40 MLOAD PUSH1 0x1 PUSH1 0x1 PUSH1 0xE0 SHL SUB NOT SWAP1 SWAP2 AND DUP2 MSTORE PUSH1 0x20 ADD PUSH2 0x2F4 JUMP JUMPDEST CALLVALUE DUP1 ISZERO PUSH2 0x3F7 JUMPI PUSH0 DUP1 REVERT JUMPDEST POP PUSH2 0x31A PUSH2 0x406 CALLDATASIZE PUSH1 0x4 PUSH2 0x3479 JUMP JUMPDEST PUSH2 0xB14 JUMP JUMPDEST PUSH2 0x31A PUSH2 0x419 CALLDATASIZE PUSH1 0x4 PUSH2 0x3479 JUMP JUMPDEST PUSH2 0xBE0 JUMP JUMPDEST CALLVALUE DUP1 ISZERO PUSH2 0x429 JUMPI PUSH0 DUP1 REVERT JUMPDEST POP PUSH2 0x31A PUSH2 0x438 CALLDATASIZE PUSH1 0x4 PUSH2 0x315D JUMP JUMPDEST PUSH2 0xD48 JUMP JUMPDEST CALLVALUE DUP1 ISZERO PUSH2 0x448 JUMPI PUSH0 DUP1 REVERT JUMPDEST POP PUSH2 0x31A PUSH32 0x3E83946653575F9A39005E1545185629E92736B7528AB20CA3816F315424A811 DUP2 JUMP JUMPDEST CALLVALUE DUP1 ISZERO PUSH2 0x47B JUMPI PUSH0 DUP1 REVERT JUMPDEST POP PUSH2 0x31A PUSH2 0xD68 JUMP JUMPDEST CALLVALUE DUP1 ISZERO PUSH2 0x48F JUMPI PUSH0 DUP1 REVERT JUMPDEST POP PUSH2 0x4A3 PUSH2 0x49E CALLDATASIZE PUSH1 0x4 PUSH2 0x315D JUMP JUMPDEST PUSH2 0xD7A JUMP JUMPDEST PUSH1 0x40 MLOAD PUSH2 0x2F4 SWAP2 SWAP1 PUSH2 0x3536 JUMP JUMPDEST CALLVALUE DUP1 ISZERO PUSH2 0x4BB JUMPI PUSH0 DUP1 REVERT JUMPDEST POP PUSH2 0x2E8 PUSH2 0x4CA CALLDATASIZE PUSH1 0x4 PUSH2 0x3544 JUMP JUMPDEST PUSH0 DUP3 DUP2 MSTORE PUSH1 0x9 PUSH1 0x20 SWAP1 DUP2 MSTORE PUSH1 0x40 DUP1 DUP4 KECCAK256 PUSH1 0x1 PUSH1 0x1 PUSH1 0xA0 SHL SUB DUP6 AND DUP5 MSTORE PUSH1 0x3 ADD SWAP1 SWAP2 MSTORE SWAP1 KECCAK256 SLOAD PUSH1 0xFF AND SWAP3 SWAP2 POP POP JUMP JUMPDEST CALLVALUE DUP1 ISZERO PUSH2 0x503 JUMPI PUSH0 DUP1 REVERT JUMPDEST POP PUSH2 0x31A PUSH2 0x512 CALLDATASIZE PUSH1 0x4 PUSH2 0x3479 JUMP JUMPDEST PUSH2 0xD84 JUMP JUMPDEST CALLVALUE DUP1 ISZERO PUSH2 0x522 JUMPI PUSH0 DUP1 REVERT JUMPDEST POP PUSH2 0x35B PUSH2 0xDF5 JUMP JUMPDEST CALLVALUE DUP1 ISZERO PUSH2 0x536 JUMPI PUSH0 DUP1 REVERT JUMPDEST POP PUSH2 0x563 PUSH2 0x545 CALLDATASIZE PUSH1 0x4 PUSH2 0x315D JUMP JUMPDEST PUSH0 SWAP1 DUP2 MSTORE PUSH1 0x9 PUSH1 0x20 MSTORE PUSH1 0x40 SWAP1 KECCAK256 DUP1 SLOAD PUSH1 0x1 DUP3 ADD SLOAD PUSH1 0x2 SWAP1 SWAP3 ADD SLOAD SWAP1 SWAP3 JUMP JUMPDEST PUSH1 0x40 DUP1 MLOAD SWAP4 DUP5 MSTORE PUSH1 0x20 DUP5 ADD SWAP3 SWAP1 SWAP3 MSTORE SWAP1 DUP3 ADD MSTORE PUSH1 0x60 ADD PUSH2 0x2F4 JUMP JUMPDEST CALLVALUE DUP1 ISZERO PUSH2 0x589 JUMPI PUSH0 DUP1 REVERT JUMPDEST POP PUSH1 0x40 DUP1 MLOAD DUP1 DUP3 ADD SWAP1 SWAP2 MSTORE PUSH1 0x1 DUP2 MSTORE PUSH1 0x31 PUSH1 0xF8 SHL PUSH1 0x20 DUP3 ADD MSTORE PUSH2 0x35B JUMP JUMPDEST CALLVALUE DUP1 ISZERO PUSH2 0x5B2 JUMPI PUSH0 DUP1 REVERT JUMPDEST POP PUSH2 0x31A PUSH2 0x5C1 CALLDATASIZE PUSH1 0x4 PUSH2 0x3582 JUMP JUMPDEST PUSH2 0xEB5 JUMP JUMPDEST CALLVALUE DUP1 ISZERO PUSH2 0x5D1 JUMPI PUSH0 DUP1 REVERT JUMPDEST POP PUSH2 0x31A PUSH2 0x5E0 CALLDATASIZE PUSH1 0x4 PUSH2 0x35F0 JUMP JUMPDEST PUSH2 0xEDC JUMP JUMPDEST CALLVALUE DUP1 ISZERO PUSH2 0x5F0 JUMPI PUSH0 DUP1 REVERT JUMPDEST POP PUSH2 0x31A PUSH2 0x5FF CALLDATASIZE PUSH1 0x4 PUSH2 0x36A2 JUMP JUMPDEST PUSH2 0x1038 JUMP JUMPDEST CALLVALUE DUP1 ISZERO PUSH2 0x60F JUMPI PUSH0 DUP1 REVERT JUMPDEST POP PUSH2 0x31A PUSH2 0x61E CALLDATASIZE PUSH1 0x4 PUSH2 0x315D JUMP JUMPDEST PUSH2 0x108B JUMP JUMPDEST CALLVALUE DUP1 ISZERO PUSH2 0x62E JUMPI PUSH0 DUP1 REVERT JUMPDEST POP PUSH2 0x2C3 PUSH2 0x63D CALLDATASIZE PUSH1 0x4 PUSH2 0x3732 JUMP JUMPDEST PUSH2 0x1117 JUMP JUMPDEST CALLVALUE DUP1 ISZERO PUSH2 0x64D JUMPI PUSH0 DUP1 REVERT JUMPDEST POP PUSH2 0x31A PUSH2 0x65C CALLDATASIZE PUSH1 0x4 PUSH2 0x374D JUMP JUMPDEST PUSH2 0x1128 JUMP JUMPDEST CALLVALUE DUP1 ISZERO PUSH2 0x66C JUMPI PUSH0 DUP1 REVERT JUMPDEST POP PUSH2 0x31A PUSH2 0x67B CALLDATASIZE PUSH1 0x4 PUSH2 0x37A2 JUMP JUMPDEST PUSH2 0x116E JUMP JUMPDEST CALLVALUE DUP1 ISZERO PUSH2 0x68B JUMPI PUSH0 DUP1 REVERT JUMPDEST POP PUSH2 0x31A PUSH2 0x69A CALLDATASIZE PUSH1 0x4 PUSH2 0x384E JUMP JUMPDEST PUSH1 0x1 PUSH1 0x1 PUSH1 0xA0 SHL SUB AND PUSH0 SWAP1 DUP2 MSTORE PUSH1 0x2 PUSH1 0x20 MSTORE PUSH1 0x40 SWAP1 KECCAK256 SLOAD SWAP1 JUMP JUMPDEST CALLVALUE DUP1 ISZERO PUSH2 0x6BF JUMPI PUSH0 DUP1 REVERT JUMPDEST POP PUSH2 0x6C8 PUSH2 0x1228 JUMP JUMPDEST PUSH1 0x40 MLOAD PUSH2 0x2F4 SWAP8 SWAP7 SWAP6 SWAP5 SWAP4 SWAP3 SWAP2 SWAP1 PUSH2 0x38A3 JUMP JUMPDEST CALLVALUE DUP1 ISZERO PUSH2 0x6E6 JUMPI PUSH0 DUP1 REVERT JUMPDEST POP PUSH2 0x31A PUSH2 0x6F5 CALLDATASIZE PUSH1 0x4 PUSH2 0x3912 JUMP JUMPDEST PUSH2 0x126A JUMP JUMPDEST CALLVALUE DUP1 ISZERO PUSH2 0x705 JUMPI PUSH0 DUP1 REVERT JUMPDEST POP PUSH2 0x70E PUSH2 0x1339 JUMP JUMPDEST PUSH1 0x40 MLOAD PUSH6 0xFFFFFFFFFFFF SWAP1 SWAP2 AND DUP2 MSTORE PUSH1 0x20 ADD PUSH2 0x2F4 JUMP JUMPDEST CALLVALUE DUP1 ISZERO PUSH2 0x730 JUMPI PUSH0 DUP1 REVERT JUMPDEST POP PUSH1 0x64 PUSH2 0x31A JUMP JUMPDEST CALLVALUE DUP1 ISZERO PUSH2 0x743 JUMPI PUSH0 DUP1 REVERT JUMPDEST POP PUSH2 0x31A PUSH2 0x752 CALLDATASIZE PUSH1 0x4 PUSH2 0x395F JUMP JUMPDEST PUSH2 0x13C0 JUMP JUMPDEST CALLVALUE DUP1 ISZERO PUSH2 0x762 JUMPI PUSH0 DUP1 REVERT JUMPDEST POP PUSH2 0x31A PUSH2 0x13CC JUMP JUMPDEST CALLVALUE DUP1 ISZERO PUSH2 0x776 JUMPI PUSH0 DUP1 REVERT JUMPDEST POP PUSH2 0x2C3 PUSH2 0x785 CALLDATASIZE PUSH1 0x4 PUSH2 0x384E JUMP JUMPDEST PUSH2 0x13E5 JUMP JUMPDEST CALLVALUE DUP1 ISZERO PUSH2 0x795 JUMPI PUSH0 DUP1 REVERT JUMPDEST POP PUSH2 0x2E8 PUSH2 0x7A4 CALLDATASIZE PUSH1 0x4 PUSH2 0x315D JUMP JUMPDEST PUSH2 0x13F6 JUMP JUMPDEST CALLVALUE DUP1 ISZERO PUSH2 0x7B4 JUMPI PUSH0 DUP1 REVERT JUMPDEST POP PUSH2 0x31A PUSH2 0x7C3 CALLDATASIZE PUSH1 0x4 PUSH2 0x315D JUMP JUMPDEST PUSH0 SWAP1 DUP2 MSTORE PUSH1 0x4 PUSH1 0x20 MSTORE PUSH1 0x40 SWAP1 KECCAK256 PUSH1 0x1 ADD SLOAD PUSH6 0xFFFFFFFFFFFF AND SWAP1 JUMP JUMPDEST CALLVALUE DUP1 ISZERO PUSH2 0x7EA JUMPI PUSH0 DUP1 REVERT JUMPDEST POP PUSH2 0x31A PUSH2 0x13FE JUMP JUMPDEST CALLVALUE DUP1 ISZERO PUSH2 0x7FE JUMPI PUSH0 DUP1 REVERT JUMPDEST POP PUSH2 0x3D3 PUSH2 0x80D CALLDATASIZE PUSH1 0x4 PUSH2 0x39B3 JUMP JUMPDEST PUSH2 0x1408 JUMP JUMPDEST CALLVALUE DUP1 ISZERO PUSH2 0x81D JUMPI PUSH0 DUP1 REVERT JUMPDEST POP PUSH2 0x31A PUSH2 0x82C CALLDATASIZE PUSH1 0x4 PUSH2 0x315D JUMP JUMPDEST PUSH2 0x144B JUMP JUMPDEST PUSH2 0x2C3 PUSH2 0x83F CALLDATASIZE PUSH1 0x4 PUSH2 0x3A3F JUMP JUMPDEST PUSH2 0x148D JUMP JUMPDEST CALLVALUE DUP1 ISZERO PUSH2 0x84F JUMPI PUSH0 DUP1 REVERT JUMPDEST POP PUSH2 0x31A PUSH2 0x85E CALLDATASIZE PUSH1 0x4 PUSH2 0x3479 JUMP JUMPDEST PUSH2 0x1509 JUMP JUMPDEST CALLVALUE DUP1 ISZERO PUSH2 0x86E JUMPI PUSH0 DUP1 REVERT JUMPDEST POP PUSH1 0xB SLOAD PUSH1 0x1 PUSH1 0x1 PUSH1 0xA0 SHL SUB AND PUSH2 0x39C JUMP JUMPDEST CALLVALUE DUP1 ISZERO PUSH2 0x88B JUMPI PUSH0 DUP1 REVERT JUMPDEST POP PUSH1 0x40 DUP1 MLOAD DUP1 DUP3 ADD SWAP1 SWAP2 MSTORE PUSH1 0x20 DUP1 DUP3 MSTORE PUSH32 0x737570706F72743D627261766F2671756F72756D3D666F722C6162737461696E SWAP1 DUP3 ADD MSTORE PUSH2 0x35B JUMP JUMPDEST CALLVALUE DUP1 ISZERO PUSH2 0x8D0 JUMPI PUSH0 DUP1 REVERT JUMPDEST POP PUSH2 0x31A PUSH32 0xF2AAD550CF55F045CB27E9C559F9889FDFB6E6CDAA032301D6EA397784AE51D7 DUP2 JUMP JUMPDEST CALLVALUE DUP1 ISZERO PUSH2 0x903 JUMPI PUSH0 DUP1 REVERT JUMPDEST POP PUSH2 0x2C3 PUSH2 0x912 CALLDATASIZE PUSH1 0x4 PUSH2 0x3A7E JUMP JUMPDEST PUSH2 0x1542 JUMP JUMPDEST CALLVALUE DUP1 ISZERO PUSH2 0x922 JUMPI PUSH0 DUP1 REVERT JUMPDEST POP PUSH2 0x31A PUSH2 0x931 CALLDATASIZE PUSH1 0x4 PUSH2 0x3AA1 JUMP JUMPDEST PUSH2 0x1553 JUMP JUMPDEST CALLVALUE DUP1 ISZERO PUSH2 0x941 JUMPI PUSH0 DUP1 REVERT JUMPDEST POP PUSH2 0x2C3 PUSH2 0x950 CALLDATASIZE PUSH1 0x4 PUSH2 0x315D JUMP JUMPDEST PUSH2 0x1579 JUMP JUMPDEST CALLVALUE DUP1 ISZERO PUSH2 0x960 JUMPI PUSH0 DUP1 REVERT JUMPDEST POP PUSH2 0x3D3 PUSH2 0x96F CALLDATASIZE PUSH1 0x4 PUSH2 0x3ACB JUMP JUMPDEST PUSH2 0x158A JUMP JUMPDEST CALLVALUE DUP1 ISZERO PUSH2 0x97F JUMPI PUSH0 DUP1 REVERT JUMPDEST POP PUSH2 0x31A PUSH2 0x98E CALLDATASIZE PUSH1 0x4 PUSH2 0x315D JUMP JUMPDEST PUSH2 0x15CD JUMP JUMPDEST CALLVALUE DUP1 ISZERO PUSH2 0x99E JUMPI PUSH0 DUP1 REVERT JUMPDEST POP PUSH32 0x0 PUSH2 0x39C JUMP JUMPDEST PUSH0 PUSH2 0x9D8 PUSH1 0xB SLOAD PUSH1 0x1 PUSH1 0x1 PUSH1 0xA0 SHL SUB AND SWAP1 JUMP JUMPDEST SWAP1 POP SWAP1 JUMP JUMPDEST PUSH0 PUSH1 0x1 PUSH1 0x1 PUSH1 0xE0 SHL SUB NOT DUP3 AND PUSH4 0x32A2AD43 PUSH1 0xE1 SHL EQ DUP1 PUSH2 0xA0D JUMPI POP PUSH1 0x1 PUSH1 0x1 PUSH1 0xE0 SHL SUB NOT DUP3 AND PUSH4 0x2711897 PUSH1 0xE5 SHL EQ JUMPDEST DUP1 PUSH2 0xA28 JUMPI POP PUSH4 0x1FFC9A7 PUSH1 0xE0 SHL PUSH1 0x1 PUSH1 0x1 PUSH1 0xE0 SHL SUB NOT DUP4 AND EQ JUMPDEST SWAP3 SWAP2 POP POP JUMP JUMPDEST PUSH2 0xA36 PUSH2 0x15D7 JUMP JUMPDEST PUSH2 0xA3F DUP2 PUSH2 0x1650 JUMP JUMPDEST POP JUMP JUMPDEST PUSH1 0x60 PUSH1 0x3 DUP1 SLOAD PUSH2 0xA51 SWAP1 PUSH2 0x3B2E JUMP JUMPDEST DUP1 PUSH1 0x1F ADD PUSH1 0x20 DUP1 SWAP2 DIV MUL PUSH1 0x20 ADD PUSH1 0x40 MLOAD SWAP1 DUP2 ADD PUSH1 0x40 MSTORE DUP1 SWAP3 SWAP2 SWAP1 DUP2 DUP2 MSTORE PUSH1 0x20 ADD DUP3 DUP1 SLOAD PUSH2 0xA7D SWAP1 PUSH2 0x3B2E JUMP JUMPDEST DUP1 ISZERO PUSH2 0xAC8 JUMPI DUP1 PUSH1 0x1F LT PUSH2 0xA9F JUMPI PUSH2 0x100 DUP1 DUP4 SLOAD DIV MUL DUP4 MSTORE SWAP2 PUSH1 0x20 ADD SWAP2 PUSH2 0xAC8 JUMP JUMPDEST DUP3 ADD SWAP2 SWAP1 PUSH0 MSTORE PUSH1 0x20 PUSH0 KECCAK256 SWAP1 JUMPDEST DUP2 SLOAD DUP2 MSTORE SWAP1 PUSH1 0x1 ADD SWAP1 PUSH1 0x20 ADD DUP1 DUP4 GT PUSH2 0xAAB JUMPI DUP3 SWAP1 SUB PUSH1 0x1F AND DUP3 ADD SWAP2 JUMPDEST POP POP POP POP POP SWAP1 POP SWAP1 JUMP JUMPDEST PUSH0 ADDRESS PUSH2 0xADC PUSH2 0x9C5 JUMP JUMPDEST PUSH1 0x1 PUSH1 0x1 PUSH1 0xA0 SHL SUB AND EQ PUSH2 0xB03 JUMPI PUSH1 0x40 MLOAD PUSH4 0x7485328F PUSH1 0xE1 SHL DUP2 MSTORE PUSH1 0x4 ADD PUSH1 0x40 MLOAD DUP1 SWAP2 SUB SWAP1 REVERT JUMPDEST POP PUSH4 0xA85BD01 PUSH1 0xE1 SHL SWAP5 SWAP4 POP POP POP POP JUMP JUMPDEST PUSH0 DUP1 PUSH2 0xB22 DUP7 DUP7 DUP7 DUP7 PUSH2 0x1509 JUMP JUMPDEST SWAP1 POP PUSH2 0xB37 DUP2 PUSH2 0xB32 PUSH1 0x4 PUSH2 0x16E5 JUMP JUMPDEST PUSH2 0x1707 JUMP JUMPDEST POP PUSH0 PUSH2 0xB46 DUP3 DUP9 DUP9 DUP9 DUP9 PUSH2 0x1744 JUMP JUMPDEST SWAP1 POP PUSH6 0xFFFFFFFFFFFF DUP2 AND ISZERO PUSH2 0xBBD JUMPI PUSH0 DUP3 DUP2 MSTORE PUSH1 0x4 PUSH1 0x20 SWAP1 DUP2 MSTORE PUSH1 0x40 SWAP2 DUP3 SWAP1 KECCAK256 PUSH1 0x1 ADD DUP1 SLOAD PUSH6 0xFFFFFFFFFFFF NOT AND PUSH6 0xFFFFFFFFFFFF DUP6 AND SWAP1 DUP2 OR SWAP1 SWAP2 SSTORE DUP3 MLOAD DUP6 DUP2 MSTORE SWAP2 DUP3 ADD MSTORE PUSH32 0x9A2E42FD6722813D69113E7D0079D3D940171428DF7373DF9C7F7617CFDA2892 SWAP2 ADD PUSH1 0x40 MLOAD DUP1 SWAP2 SUB SWAP1 LOG1 PUSH2 0xBD6 JUMP JUMPDEST PUSH1 0x40 MLOAD PUSH4 0x48442523 PUSH1 0xE1 SHL DUP2 MSTORE PUSH1 0x4 ADD PUSH1 0x40 MLOAD DUP1 SWAP2 SUB SWAP1 REVERT JUMPDEST POP SWAP6 SWAP5 POP POP POP POP POP JUMP JUMPDEST PUSH0 DUP1 PUSH2 0xBEE DUP7 DUP7 DUP7 DUP7 PUSH2 0x1509 JUMP JUMPDEST SWAP1 POP PUSH2 0xC0E DUP2 PUSH2 0xBFE PUSH1 0x5 PUSH2 0x16E5 JUMP JUMPDEST PUSH2 0xC08 PUSH1 0x4 PUSH2 0x16E5 JUMP JUMPDEST OR PUSH2 0x1707 JUMP JUMPDEST POP PUSH0 DUP2 DUP2 MSTORE PUSH1 0x4 PUSH1 0x20 MSTORE PUSH1 0x40 SWAP1 KECCAK256 DUP1 SLOAD PUSH1 0xFF PUSH1 0xF0 SHL NOT AND PUSH1 0x1 PUSH1 0xF0 SHL OR SWAP1 SSTORE ADDRESS PUSH2 0xC36 PUSH2 0x9C5 JUMP JUMPDEST PUSH1 0x1 PUSH1 0x1 PUSH1 0xA0 SHL SUB AND EQ PUSH2 0xCBF JUMPI PUSH0 JUMPDEST DUP7 MLOAD DUP2 LT ISZERO PUSH2 0xCBD JUMPI ADDRESS PUSH1 0x1 PUSH1 0x1 PUSH1 0xA0 SHL SUB AND DUP8 DUP3 DUP2 MLOAD DUP2 LT PUSH2 0xC6B JUMPI PUSH2 0xC6B PUSH2 0x3B66 JUMP JUMPDEST PUSH1 0x20 MUL PUSH1 0x20 ADD ADD MLOAD PUSH1 0x1 PUSH1 0x1 PUSH1 0xA0 SHL SUB AND SUB PUSH2 0xCB5 JUMPI PUSH2 0xCB5 DUP6 DUP3 DUP2 MLOAD DUP2 LT PUSH2 0xC96 JUMPI PUSH2 0xC96 PUSH2 0x3B66 JUMP JUMPDEST PUSH1 0x20 MUL PUSH1 0x20 ADD ADD MLOAD DUP1 MLOAD SWAP1 PUSH1 0x20 ADD KECCAK256 PUSH1 0x5 PUSH2 0x1752 SWAP1 SWAP2 SWAP1 PUSH4 0xFFFFFFFF AND JUMP JUMPDEST PUSH1 0x1 ADD PUSH2 0xC46 JUMP JUMPDEST POP JUMPDEST PUSH2 0xCCC DUP2 DUP8 DUP8 DUP8 DUP8 PUSH2 0x17C2 JUMP JUMPDEST ADDRESS PUSH2 0xCD5 PUSH2 0x9C5 JUMP JUMPDEST PUSH1 0x1 PUSH1 0x1 PUSH1 0xA0 SHL SUB AND EQ ISZERO DUP1 ISZERO PUSH2 0xD01 JUMPI POP PUSH1 0x5 SLOAD PUSH1 0x1 PUSH1 0x1 PUSH1 0x80 SHL SUB DUP1 DUP3 AND PUSH1 0x1 PUSH1 0x80 SHL SWAP1 SWAP3 DIV AND EQ ISZERO JUMPDEST ISZERO PUSH2 0xD0B JUMPI PUSH0 PUSH1 0x5 SSTORE JUMPDEST PUSH1 0x40 MLOAD DUP2 DUP2 MSTORE PUSH32 0x712AE1383F79AC853F8D882153778E0260EF8F03B504E2866E0593E04D2B291F SWAP1 PUSH1 0x20 ADD JUMPDEST PUSH1 0x40 MLOAD DUP1 SWAP2 SUB SWAP1 LOG1 SWAP6 SWAP5 POP POP POP POP POP JUMP JUMPDEST PUSH0 SWAP1 DUP2 MSTORE PUSH1 0x4 PUSH1 0x20 MSTORE PUSH1 0x40 SWAP1 KECCAK256 SLOAD PUSH1 0x1 PUSH1 0xA0 SHL SWAP1 DIV PUSH6 0xFFFFFFFFFFFF AND SWAP1 JUMP JUMPDEST PUSH0 PUSH2 0x9D8 PUSH1 0x8 SLOAD PUSH6 0xFFFFFFFFFFFF AND SWAP1 JUMP JUMPDEST PUSH0 PUSH2 0xA28 DUP3 PUSH2 0x17D6 JUMP JUMPDEST PUSH0 DUP1 PUSH2 0xD92 DUP7 DUP7 DUP7 DUP7 PUSH2 0x1509 JUMP JUMPDEST SWAP1 POP PUSH2 0xDA1 DUP2 PUSH2 0xB32 PUSH0 PUSH2 0x16E5 JUMP JUMPDEST POP PUSH0 DUP2 DUP2 MSTORE PUSH1 0x4 PUSH1 0x20 MSTORE PUSH1 0x40 SWAP1 KECCAK256 SLOAD PUSH1 0x1 PUSH1 0x1 PUSH1 0xA0 SHL SUB AND CALLER EQ PUSH2 0xDDF JUMPI PUSH1 0x40 MLOAD PUSH4 0x233D98E3 PUSH1 0xE0 SHL DUP2 MSTORE CALLER PUSH1 0x4 DUP3 ADD MSTORE PUSH1 0x24 ADD JUMPDEST PUSH1 0x40 MLOAD DUP1 SWAP2 SUB SWAP1 REVERT JUMPDEST PUSH2 0xDEB DUP7 DUP7 DUP7 DUP7 PUSH2 0x190F JUMP JUMPDEST SWAP7 SWAP6 POP POP POP POP POP POP JUMP JUMPDEST PUSH1 0x60 PUSH32 0x0 PUSH1 0x1 PUSH1 0x1 PUSH1 0xA0 SHL SUB AND PUSH4 0x4BF5D7E9 PUSH1 0x40 MLOAD DUP2 PUSH4 0xFFFFFFFF AND PUSH1 0xE0 SHL DUP2 MSTORE PUSH1 0x4 ADD PUSH0 PUSH1 0x40 MLOAD DUP1 DUP4 SUB DUP2 DUP7 GAS STATICCALL SWAP3 POP POP POP DUP1 ISZERO PUSH2 0xE74 JUMPI POP PUSH1 0x40 MLOAD RETURNDATASIZE PUSH0 DUP3 RETURNDATACOPY PUSH1 0x1F RETURNDATASIZE SWAP1 DUP2 ADD PUSH1 0x1F NOT AND DUP3 ADD PUSH1 0x40 MSTORE PUSH2 0xE71 SWAP2 SWAP1 DUP2 ADD SWAP1 PUSH2 0x3B7A JUMP JUMPDEST PUSH1 0x1 JUMPDEST PUSH2 0xEB0 JUMPI POP PUSH1 0x40 DUP1 MLOAD DUP1 DUP3 ADD SWAP1 SWAP2 MSTORE PUSH1 0x1D DUP2 MSTORE PUSH32 0x6D6F64653D626C6F636B6E756D6265722666726F6D3D64656661756C74000000 PUSH1 0x20 DUP3 ADD MSTORE SWAP1 JUMP JUMPDEST SWAP2 SWAP1 POP JUMP JUMPDEST PUSH0 DUP1 CALLER SWAP1 POP PUSH2 0xED4 DUP5 DUP3 DUP6 PUSH1 0x40 MLOAD DUP1 PUSH1 0x20 ADD PUSH1 0x40 MSTORE DUP1 PUSH0 DUP2 MSTORE POP PUSH2 0x1925 JUMP JUMPDEST SWAP5 SWAP4 POP POP POP POP JUMP JUMPDEST PUSH0 DUP1 PUSH2 0xFBD DUP8 PUSH2 0xFB7 PUSH32 0x3E83946653575F9A39005E1545185629E92736B7528AB20CA3816F315424A811 DUP13 DUP13 DUP13 PUSH2 0xF2F DUP15 PUSH1 0x1 PUSH1 0x1 PUSH1 0xA0 SHL SUB AND PUSH0 SWAP1 DUP2 MSTORE PUSH1 0x2 PUSH1 0x20 MSTORE PUSH1 0x40 SWAP1 KECCAK256 DUP1 SLOAD PUSH1 0x1 DUP2 ADD SWAP1 SWAP2 SSTORE SWAP1 JUMP JUMPDEST DUP14 DUP14 PUSH1 0x40 MLOAD PUSH2 0xF3F SWAP3 SWAP2 SWAP1 PUSH2 0x3BE2 JUMP JUMPDEST PUSH1 0x40 MLOAD DUP1 SWAP2 SUB SWAP1 KECCAK256 DUP13 DUP1 MLOAD SWAP1 PUSH1 0x20 ADD KECCAK256 PUSH1 0x40 MLOAD PUSH1 0x20 ADD PUSH2 0xF9C SWAP8 SWAP7 SWAP6 SWAP5 SWAP4 SWAP3 SWAP2 SWAP1 SWAP7 DUP8 MSTORE PUSH1 0x20 DUP8 ADD SWAP6 SWAP1 SWAP6 MSTORE PUSH1 0xFF SWAP4 SWAP1 SWAP4 AND PUSH1 0x40 DUP7 ADD MSTORE PUSH1 0x1 PUSH1 0x1 PUSH1 0xA0 SHL SUB SWAP2 SWAP1 SWAP2 AND PUSH1 0x60 DUP6 ADD MSTORE PUSH1 0x80 DUP5 ADD MSTORE PUSH1 0xA0 DUP4 ADD MSTORE PUSH1 0xC0 DUP3 ADD MSTORE PUSH1 0xE0 ADD SWAP1 JUMP JUMPDEST PUSH1 0x40 MLOAD PUSH1 0x20 DUP2 DUP4 SUB SUB DUP2 MSTORE SWAP1 PUSH1 0x40 MSTORE DUP1 MLOAD SWAP1 PUSH1 0x20 ADD KECCAK256 PUSH2 0x1946 JUMP JUMPDEST DUP6 PUSH2 0x1972 JUMP JUMPDEST SWAP1 POP DUP1 PUSH2 0xFE8 JUMPI PUSH1 0x40 MLOAD PUSH4 0x94AB6C07 PUSH1 0xE0 SHL DUP2 MSTORE PUSH1 0x1 PUSH1 0x1 PUSH1 0xA0 SHL SUB DUP9 AND PUSH1 0x4 DUP3 ADD MSTORE PUSH1 0x24 ADD PUSH2 0xDD6 JUMP JUMPDEST PUSH2 0x102B DUP10 DUP9 DUP11 DUP10 DUP10 DUP1 DUP1 PUSH1 0x1F ADD PUSH1 0x20 DUP1 SWAP2 DIV MUL PUSH1 0x20 ADD PUSH1 0x40 MLOAD SWAP1 DUP2 ADD PUSH1 0x40 MSTORE DUP1 SWAP4 SWAP3 SWAP2 SWAP1 DUP2 DUP2 MSTORE PUSH1 0x20 ADD DUP4 DUP4 DUP1 DUP3 DUP5 CALLDATACOPY PUSH0 SWAP3 ADD SWAP2 SWAP1 SWAP2 MSTORE POP DUP12 SWAP3 POP PUSH2 0x19C7 SWAP2 POP POP JUMP JUMPDEST SWAP10 SWAP9 POP POP POP POP POP POP POP POP POP JUMP JUMPDEST PUSH0 DUP1 CALLER SWAP1 POP PUSH2 0x1080 DUP8 DUP3 DUP9 DUP9 DUP9 DUP1 DUP1 PUSH1 0x1F ADD PUSH1 0x20 DUP1 SWAP2 DIV MUL PUSH1 0x20 ADD PUSH1 0x40 MLOAD SWAP1 DUP2 ADD PUSH1 0x40 MSTORE DUP1 SWAP4 SWAP3 SWAP2 SWAP1 DUP2 DUP2 MSTORE PUSH1 0x20 ADD DUP4 DUP4 DUP1 DUP3 DUP5 CALLDATACOPY PUSH0 SWAP3 ADD SWAP2 SWAP1 SWAP2 MSTORE POP DUP11 SWAP3 POP PUSH2 0x19C7 SWAP2 POP POP JUMP JUMPDEST SWAP8 SWAP7 POP POP POP POP POP POP POP JUMP JUMPDEST PUSH1 0xA DUP1 SLOAD PUSH0 SWAP2 DUP3 SWAP1 PUSH2 0x109E PUSH1 0x1 DUP5 PUSH2 0x3C05 JUMP JUMPDEST DUP2 SLOAD DUP2 LT PUSH2 0x10AE JUMPI PUSH2 0x10AE PUSH2 0x3B66 JUMP JUMPDEST PUSH0 SWAP2 DUP3 MSTORE PUSH1 0x20 SWAP1 SWAP2 KECCAK256 ADD DUP1 SLOAD SWAP1 SWAP2 POP PUSH6 0xFFFFFFFFFFFF DUP2 AND SWAP1 PUSH1 0x1 PUSH1 0x30 SHL SWAP1 DIV PUSH1 0x1 PUSH1 0x1 PUSH1 0xD0 SHL SUB AND DUP6 DUP3 GT PUSH2 0x10F0 JUMPI PUSH1 0x1 PUSH1 0x1 PUSH1 0xD0 SHL SUB AND SWAP6 SWAP5 POP POP POP POP POP JUMP JUMPDEST PUSH2 0x1104 PUSH2 0x10FC DUP8 PUSH2 0x1AA1 JUMP JUMPDEST PUSH1 0xA SWAP1 PUSH2 0x1AD7 JUMP JUMPDEST PUSH1 0x1 PUSH1 0x1 PUSH1 0xD0 SHL SUB AND SWAP7 SWAP6 POP POP POP POP POP POP JUMP JUMPDEST PUSH2 0x111F PUSH2 0x15D7 JUMP JUMPDEST PUSH2 0xA3F DUP2 PUSH2 0x1B86 JUMP JUMPDEST PUSH0 DUP1 CALLER SWAP1 POP PUSH2 0xDEB DUP7 DUP3 DUP8 DUP8 DUP8 DUP1 DUP1 PUSH1 0x1F ADD PUSH1 0x20 DUP1 SWAP2 DIV MUL PUSH1 0x20 ADD PUSH1 0x40 MLOAD SWAP1 DUP2 ADD PUSH1 0x40 MSTORE DUP1 SWAP4 SWAP3 SWAP2 SWAP1 DUP2 DUP2 MSTORE PUSH1 0x20 ADD DUP4 DUP4 DUP1 DUP3 DUP5 CALLDATACOPY PUSH0 SWAP3 ADD SWAP2 SWAP1 SWAP2 MSTORE POP PUSH2 0x1925 SWAP3 POP POP POP JUMP JUMPDEST PUSH0 CALLER PUSH2 0x117A DUP2 DUP5 PUSH2 0x1BEC JUMP JUMPDEST PUSH2 0x11A2 JUMPI PUSH1 0x40 MLOAD PUSH4 0xD9B39557 PUSH1 0xE0 SHL DUP2 MSTORE PUSH1 0x1 PUSH1 0x1 PUSH1 0xA0 SHL SUB DUP3 AND PUSH1 0x4 DUP3 ADD MSTORE PUSH1 0x24 ADD PUSH2 0xDD6 JUMP JUMPDEST PUSH0 PUSH2 0x11C8 DUP3 PUSH1 0x1 PUSH2 0x11B1 PUSH2 0x1339 JUMP JUMPDEST PUSH2 0x11BB SWAP2 SWAP1 PUSH2 0x3C18 JUMP JUMPDEST PUSH6 0xFFFFFFFFFFFF AND PUSH2 0x1553 JUMP JUMPDEST SWAP1 POP PUSH0 PUSH2 0x11D3 PUSH2 0x13FE JUMP JUMPDEST SWAP1 POP DUP1 DUP3 LT ISZERO PUSH2 0x120F JUMPI PUSH1 0x40 MLOAD PUSH4 0x6121770B PUSH1 0xE1 SHL DUP2 MSTORE PUSH1 0x1 PUSH1 0x1 PUSH1 0xA0 SHL SUB DUP5 AND PUSH1 0x4 DUP3 ADD MSTORE PUSH1 0x24 DUP2 ADD DUP4 SWAP1 MSTORE PUSH1 0x44 DUP2 ADD DUP3 SWAP1 MSTORE PUSH1 0x64 ADD PUSH2 0xDD6 JUMP JUMPDEST PUSH2 0x121C DUP9 DUP9 DUP9 DUP9 DUP8 PUSH2 0x1CD4 JUMP JUMPDEST SWAP9 SWAP8 POP POP POP POP POP POP POP POP JUMP JUMPDEST PUSH0 PUSH1 0x60 DUP1 PUSH0 DUP1 PUSH0 PUSH1 0x60 PUSH2 0x1239 PUSH2 0x1EEE JUMP JUMPDEST PUSH2 0x1241 PUSH2 0x1F1A JUMP JUMPDEST PUSH1 0x40 DUP1 MLOAD PUSH0 DUP1 DUP3 MSTORE PUSH1 0x20 DUP3 ADD SWAP1 SWAP3 MSTORE PUSH1 0xF PUSH1 0xF8 SHL SWAP12 SWAP4 SWAP11 POP SWAP2 SWAP9 POP CHAINID SWAP8 POP ADDRESS SWAP7 POP SWAP5 POP SWAP3 POP SWAP1 POP JUMP JUMPDEST PUSH0 DUP1 PUSH2 0x12F4 DUP5 PUSH2 0xFB7 PUSH32 0xF2AAD550CF55F045CB27E9C559F9889FDFB6E6CDAA032301D6EA397784AE51D7 DUP10 DUP10 DUP10 PUSH2 0x12BD DUP12 PUSH1 0x1 PUSH1 0x1 PUSH1 0xA0 SHL SUB AND PUSH0 SWAP1 DUP2 MSTORE PUSH1 0x2 PUSH1 0x20 MSTORE PUSH1 0x40 SWAP1 KECCAK256 DUP1 SLOAD PUSH1 0x1 DUP2 ADD SWAP1 SWAP2 SSTORE SWAP1 JUMP JUMPDEST PUSH1 0x40 DUP1 MLOAD PUSH1 0x20 DUP2 ADD SWAP7 SWAP1 SWAP7 MSTORE DUP6 ADD SWAP4 SWAP1 SWAP4 MSTORE PUSH1 0xFF SWAP1 SWAP2 AND PUSH1 0x60 DUP5 ADD MSTORE PUSH1 0x1 PUSH1 0x1 PUSH1 0xA0 SHL SUB AND PUSH1 0x80 DUP4 ADD MSTORE PUSH1 0xA0 DUP3 ADD MSTORE PUSH1 0xC0 ADD PUSH2 0xF9C JUMP JUMPDEST SWAP1 POP DUP1 PUSH2 0x131F JUMPI PUSH1 0x40 MLOAD PUSH4 0x94AB6C07 PUSH1 0xE0 SHL DUP2 MSTORE PUSH1 0x1 PUSH1 0x1 PUSH1 0xA0 SHL SUB DUP6 AND PUSH1 0x4 DUP3 ADD MSTORE PUSH1 0x24 ADD PUSH2 0xDD6 JUMP JUMPDEST PUSH2 0xDEB DUP7 DUP6 DUP8 PUSH1 0x40 MLOAD DUP1 PUSH1 0x20 ADD PUSH1 0x40 MSTORE DUP1 PUSH0 DUP2 MSTORE POP PUSH2 0x1925 JUMP JUMPDEST PUSH0 PUSH32 0x0 PUSH1 0x1 PUSH1 0x1 PUSH1 0xA0 SHL SUB AND PUSH4 0x91DDADF4 PUSH1 0x40 MLOAD DUP2 PUSH4 0xFFFFFFFF AND PUSH1 0xE0 SHL DUP2 MSTORE PUSH1 0x4 ADD PUSH1 0x20 PUSH1 0x40 MLOAD DUP1 DUP4 SUB DUP2 DUP7 GAS STATICCALL SWAP3 POP POP POP DUP1 ISZERO PUSH2 0x13B4 JUMPI POP PUSH1 0x40 DUP1 MLOAD PUSH1 0x1F RETURNDATASIZE SWAP1 DUP2 ADD PUSH1 0x1F NOT AND DUP3 ADD SWAP1 SWAP3 MSTORE PUSH2 0x13B1 SWAP2 DUP2 ADD SWAP1 PUSH2 0x3C3E JUMP JUMPDEST PUSH1 0x1 JUMPDEST PUSH2 0xEB0 JUMPI PUSH2 0x9D8 PUSH2 0x1F47 JUMP JUMPDEST PUSH0 PUSH2 0xED4 DUP5 DUP5 DUP5 PUSH2 0x1F51 JUMP JUMPDEST PUSH0 PUSH2 0x13D7 PUSH1 0xA PUSH2 0x1FE4 JUMP JUMPDEST PUSH1 0x1 PUSH1 0x1 PUSH1 0xD0 SHL SUB AND SWAP1 POP SWAP1 JUMP JUMPDEST PUSH2 0x13ED PUSH2 0x15D7 JUMP JUMPDEST PUSH2 0xA3F DUP2 PUSH2 0x201B JUMP JUMPDEST PUSH0 PUSH1 0x1 PUSH2 0xA28 JUMP JUMPDEST PUSH0 PUSH2 0x9D8 PUSH1 0x7 SLOAD SWAP1 JUMP JUMPDEST PUSH0 ADDRESS PUSH2 0x1412 PUSH2 0x9C5 JUMP JUMPDEST PUSH1 0x1 PUSH1 0x1 PUSH1 0xA0 SHL SUB AND EQ PUSH2 0x1439 JUMPI PUSH1 0x40 MLOAD PUSH4 0x7485328F PUSH1 0xE1 SHL DUP2 MSTORE PUSH1 0x4 ADD PUSH1 0x40 MLOAD DUP1 SWAP2 SUB SWAP1 REVERT JUMPDEST POP PUSH4 0xBC197C81 PUSH1 0xE0 SHL SWAP6 SWAP5 POP POP POP POP POP JUMP JUMPDEST PUSH0 DUP2 DUP2 MSTORE PUSH1 0x4 PUSH1 0x20 MSTORE PUSH1 0x40 DUP2 KECCAK256 SLOAD PUSH2 0x147F SWAP1 PUSH1 0x1 PUSH1 0xD0 SHL DUP2 DIV PUSH4 0xFFFFFFFF AND SWAP1 PUSH1 0x1 PUSH1 0xA0 SHL SWAP1 DIV PUSH6 0xFFFFFFFFFFFF AND PUSH2 0x3C59 JUMP JUMPDEST PUSH6 0xFFFFFFFFFFFF AND SWAP3 SWAP2 POP POP JUMP JUMPDEST PUSH2 0x1495 PUSH2 0x15D7 JUMP JUMPDEST PUSH0 DUP1 DUP6 PUSH1 0x1 PUSH1 0x1 PUSH1 0xA0 SHL SUB AND DUP6 DUP6 DUP6 PUSH1 0x40 MLOAD PUSH2 0x14B2 SWAP3 SWAP2 SWAP1 PUSH2 0x3BE2 JUMP JUMPDEST PUSH0 PUSH1 0x40 MLOAD DUP1 DUP4 SUB DUP2 DUP6 DUP8 GAS CALL SWAP3 POP POP POP RETURNDATASIZE DUP1 PUSH0 DUP2 EQ PUSH2 0x14EC JUMPI PUSH1 0x40 MLOAD SWAP2 POP PUSH1 0x1F NOT PUSH1 0x3F RETURNDATASIZE ADD AND DUP3 ADD PUSH1 0x40 MSTORE RETURNDATASIZE DUP3 MSTORE RETURNDATASIZE PUSH0 PUSH1 0x20 DUP5 ADD RETURNDATACOPY PUSH2 0x14F1 JUMP JUMPDEST PUSH1 0x60 SWAP2 POP JUMPDEST POP SWAP2 POP SWAP2 POP PUSH2 0x1500 DUP3 DUP3 PUSH2 0x2084 JUMP JUMPDEST POP POP POP POP POP POP POP JUMP JUMPDEST PUSH0 DUP5 DUP5 DUP5 DUP5 PUSH1 0x40 MLOAD PUSH1 0x20 ADD PUSH2 0x1521 SWAP5 SWAP4 SWAP3 SWAP2 SWAP1 PUSH2 0x3D08 JUMP JUMPDEST PUSH1 0x40 DUP1 MLOAD PUSH1 0x1F NOT DUP2 DUP5 SUB ADD DUP2 MSTORE SWAP2 SWAP1 MSTORE DUP1 MLOAD PUSH1 0x20 SWAP1 SWAP2 ADD KECCAK256 SWAP6 SWAP5 POP POP POP POP POP JUMP JUMPDEST PUSH2 0x154A PUSH2 0x15D7 JUMP JUMPDEST PUSH2 0xA3F DUP2 PUSH2 0x20A0 JUMP JUMPDEST PUSH0 PUSH2 0x1572 DUP4 DUP4 PUSH2 0x156D PUSH1 0x40 DUP1 MLOAD PUSH1 0x20 DUP2 ADD SWAP1 SWAP2 MSTORE PUSH0 DUP2 MSTORE SWAP1 JUMP JUMPDEST PUSH2 0x1F51 JUMP JUMPDEST SWAP4 SWAP3 POP POP POP JUMP JUMPDEST PUSH2 0x1581 PUSH2 0x15D7 JUMP JUMPDEST PUSH2 0xA3F DUP2 PUSH2 0x213C JUMP JUMPDEST PUSH0 ADDRESS PUSH2 0x1594 PUSH2 0x9C5 JUMP JUMPDEST PUSH1 0x1 PUSH1 0x1 PUSH1 0xA0 SHL SUB AND EQ PUSH2 0x15BB JUMPI PUSH1 0x40 MLOAD PUSH4 0x7485328F PUSH1 0xE1 SHL DUP2 MSTORE PUSH1 0x4 ADD PUSH1 0x40 MLOAD DUP1 SWAP2 SUB SWAP1 REVERT JUMPDEST POP PUSH4 0xF23A6E61 PUSH1 0xE0 SHL SWAP6 SWAP5 POP POP POP POP POP JUMP JUMPDEST PUSH0 PUSH2 0xA28 DUP3 PUSH2 0x217D JUMP JUMPDEST CALLER PUSH2 0x15E0 PUSH2 0x9C5 JUMP JUMPDEST PUSH1 0x1 PUSH1 0x1 PUSH1 0xA0 SHL SUB AND EQ PUSH2 0x1609 JUMPI PUSH1 0x40 MLOAD PUSH4 0x47096E47 PUSH1 0xE0 SHL DUP2 MSTORE CALLER PUSH1 0x4 DUP3 ADD MSTORE PUSH1 0x24 ADD PUSH2 0xDD6 JUMP JUMPDEST ADDRESS PUSH2 0x1612 PUSH2 0x9C5 JUMP JUMPDEST PUSH1 0x1 PUSH1 0x1 PUSH1 0xA0 SHL SUB AND EQ PUSH2 0x164E JUMPI PUSH0 DUP1 CALLDATASIZE PUSH1 0x40 MLOAD PUSH2 0x1631 SWAP3 SWAP2 SWAP1 PUSH2 0x3BE2 JUMP JUMPDEST PUSH1 0x40 MLOAD DUP1 SWAP2 SUB SWAP1 KECCAK256 SWAP1 POP JUMPDEST DUP1 PUSH2 0x1647 PUSH1 0x5 PUSH2 0x2224 JUMP JUMPDEST SUB PUSH2 0x163C JUMPI POP JUMPDEST JUMP JUMPDEST PUSH1 0x64 DUP1 DUP3 GT ISZERO PUSH2 0x167D JUMPI PUSH1 0x40 MLOAD PUSH4 0x243E5445 PUSH1 0xE0 SHL DUP2 MSTORE PUSH1 0x4 DUP2 ADD DUP4 SWAP1 MSTORE PUSH1 0x24 DUP2 ADD DUP3 SWAP1 MSTORE PUSH1 0x44 ADD PUSH2 0xDD6 JUMP JUMPDEST PUSH0 PUSH2 0x1686 PUSH2 0x13CC JUMP JUMPDEST SWAP1 POP PUSH2 0x16A5 PUSH2 0x1693 PUSH2 0x1339 JUMP JUMPDEST PUSH2 0x169C DUP6 PUSH2 0x22A0 JUMP JUMPDEST PUSH1 0xA SWAP2 SWAP1 PUSH2 0x22D3 JUMP JUMPDEST POP POP PUSH1 0x40 DUP1 MLOAD DUP3 DUP2 MSTORE PUSH1 0x20 DUP2 ADD DUP6 SWAP1 MSTORE PUSH32 0x553476BF02EF2726E8CE5CED78D63E26E602E4A2257B1F559418E24B4633997 SWAP2 ADD PUSH1 0x40 MLOAD DUP1 SWAP2 SUB SWAP1 LOG1 POP POP POP JUMP JUMPDEST PUSH0 DUP2 PUSH1 0x7 DUP2 GT ISZERO PUSH2 0x16F8 JUMPI PUSH2 0x16F8 PUSH2 0x3502 JUMP JUMPDEST PUSH1 0x1 PUSH1 0xFF SWAP2 SWAP1 SWAP2 AND SHL SWAP3 SWAP2 POP POP JUMP JUMPDEST PUSH0 DUP1 PUSH2 0x1712 DUP5 PUSH2 0xD7A JUMP JUMPDEST SWAP1 POP PUSH0 DUP4 PUSH2 0x171F DUP4 PUSH2 0x16E5 JUMP JUMPDEST AND SUB PUSH2 0x1572 JUMPI DUP4 DUP2 DUP5 PUSH1 0x40 MLOAD PUSH4 0x31B75E4D PUSH1 0xE0 SHL DUP2 MSTORE PUSH1 0x4 ADD PUSH2 0xDD6 SWAP4 SWAP3 SWAP2 SWAP1 PUSH2 0x3D52 JUMP JUMPDEST PUSH0 PUSH2 0xDEB DUP7 DUP7 DUP7 DUP7 DUP7 PUSH2 0x22ED JUMP JUMPDEST DUP2 SLOAD PUSH1 0x1 PUSH1 0x1 PUSH1 0x80 SHL SUB PUSH1 0x1 PUSH1 0x80 SHL DUP3 DIV DUP2 AND SWAP2 DUP2 AND PUSH1 0x1 DUP4 ADD SWAP1 SWAP2 AND SUB PUSH2 0x178D JUMPI PUSH1 0x40 MLOAD PUSH4 0x8ACB5F27 PUSH1 0xE0 SHL DUP2 MSTORE PUSH1 0x4 ADD PUSH1 0x40 MLOAD DUP1 SWAP2 SUB SWAP1 REVERT JUMPDEST PUSH1 0x1 PUSH1 0x1 PUSH1 0x80 SHL SUB DUP1 DUP3 AND PUSH0 SWAP1 DUP2 MSTORE PUSH1 0x1 DUP1 DUP7 ADD PUSH1 0x20 MSTORE PUSH1 0x40 SWAP1 SWAP2 KECCAK256 SWAP4 SWAP1 SWAP4 SSTORE DUP4 SLOAD SWAP2 SWAP1 SWAP3 ADD DUP3 AND PUSH1 0x1 PUSH1 0x80 SHL MUL SWAP2 AND OR SWAP1 SSTORE JUMP JUMPDEST PUSH2 0x17CF DUP6 DUP6 DUP6 DUP6 DUP6 PUSH2 0x247E JUMP JUMPDEST POP POP POP POP POP JUMP JUMPDEST PUSH0 DUP1 PUSH2 0x17E1 DUP4 PUSH2 0x250E JUMP JUMPDEST SWAP1 POP PUSH1 0x5 DUP2 PUSH1 0x7 DUP2 GT ISZERO PUSH2 0x17F7 JUMPI PUSH2 0x17F7 PUSH2 0x3502 JUMP JUMPDEST EQ PUSH2 0x1802 JUMPI SWAP3 SWAP2 POP POP JUMP JUMPDEST PUSH0 DUP4 DUP2 MSTORE PUSH1 0xC PUSH1 0x20 MSTORE PUSH1 0x40 SWAP1 DUP2 SWAP1 KECCAK256 SLOAD PUSH1 0xB SLOAD SWAP2 MLOAD PUSH4 0x2C258A9F PUSH1 0xE1 SHL DUP2 MSTORE PUSH1 0x4 DUP2 ADD DUP3 SWAP1 MSTORE SWAP1 SWAP2 PUSH1 0x1 PUSH1 0x1 PUSH1 0xA0 SHL SUB AND SWAP1 PUSH4 0x584B153E SWAP1 PUSH1 0x24 ADD PUSH1 0x20 PUSH1 0x40 MLOAD DUP1 DUP4 SUB DUP2 DUP7 GAS STATICCALL ISZERO DUP1 ISZERO PUSH2 0x1858 JUMPI RETURNDATASIZE PUSH0 DUP1 RETURNDATACOPY RETURNDATASIZE PUSH0 REVERT JUMPDEST POP POP POP POP PUSH1 0x40 MLOAD RETURNDATASIZE PUSH1 0x1F NOT PUSH1 0x1F DUP3 ADD AND DUP3 ADD DUP1 PUSH1 0x40 MSTORE POP DUP2 ADD SWAP1 PUSH2 0x187C SWAP2 SWAP1 PUSH2 0x3D74 JUMP JUMPDEST ISZERO PUSH2 0x188B JUMPI POP PUSH1 0x5 SWAP4 SWAP3 POP POP POP JUMP JUMPDEST PUSH1 0xB SLOAD PUSH1 0x40 MLOAD PUSH4 0x2AB0F529 PUSH1 0xE0 SHL DUP2 MSTORE PUSH1 0x4 DUP2 ADD DUP4 SWAP1 MSTORE PUSH1 0x1 PUSH1 0x1 PUSH1 0xA0 SHL SUB SWAP1 SWAP2 AND SWAP1 PUSH4 0x2AB0F529 SWAP1 PUSH1 0x24 ADD PUSH1 0x20 PUSH1 0x40 MLOAD DUP1 DUP4 SUB DUP2 DUP7 GAS STATICCALL ISZERO DUP1 ISZERO PUSH2 0x18D2 JUMPI RETURNDATASIZE PUSH0 DUP1 RETURNDATACOPY RETURNDATASIZE PUSH0 REVERT JUMPDEST POP POP POP POP PUSH1 0x40 MLOAD RETURNDATASIZE PUSH1 0x1F NOT PUSH1 0x1F DUP3 ADD AND DUP3 ADD DUP1 PUSH1 0x40 MSTORE POP DUP2 ADD SWAP1 PUSH2 0x18F6 SWAP2 SWAP1 PUSH2 0x3D74 JUMP JUMPDEST ISZERO PUSH2 0x1905 JUMPI POP PUSH1 0x7 SWAP4 SWAP3 POP POP POP JUMP JUMPDEST POP PUSH1 0x2 SWAP4 SWAP3 POP POP POP JUMP JUMPDEST PUSH0 PUSH2 0x191C DUP6 DUP6 DUP6 DUP6 PUSH2 0x263F JUMP JUMPDEST SWAP6 SWAP5 POP POP POP POP POP JUMP JUMPDEST PUSH0 PUSH2 0x191C DUP6 DUP6 DUP6 DUP6 PUSH2 0x1941 PUSH1 0x40 DUP1 MLOAD PUSH1 0x20 DUP2 ADD SWAP1 SWAP2 MSTORE PUSH0 DUP2 MSTORE SWAP1 JUMP JUMPDEST PUSH2 0x19C7 JUMP JUMPDEST PUSH0 PUSH2 0xA28 PUSH2 0x1952 PUSH2 0x26D6 JUMP JUMPDEST DUP4 PUSH1 0x40 MLOAD PUSH2 0x1901 PUSH1 0xF0 SHL DUP2 MSTORE PUSH1 0x2 DUP2 ADD SWAP3 SWAP1 SWAP3 MSTORE PUSH1 0x22 DUP3 ADD MSTORE PUSH1 0x42 SWAP1 KECCAK256 SWAP1 JUMP JUMPDEST PUSH0 DUP1 PUSH0 PUSH2 0x197F DUP6 DUP6 PUSH2 0x27FF JUMP JUMPDEST POP SWAP1 SWAP3 POP SWAP1 POP PUSH0 DUP2 PUSH1 0x3 DUP2 GT ISZERO PUSH2 0x1998 JUMPI PUSH2 0x1998 PUSH2 0x3502 JUMP JUMPDEST EQ DUP1 ISZERO PUSH2 0x19B6 JUMPI POP DUP6 PUSH1 0x1 PUSH1 0x1 PUSH1 0xA0 SHL SUB AND DUP3 PUSH1 0x1 PUSH1 0x1 PUSH1 0xA0 SHL SUB AND EQ JUMPDEST DUP1 PUSH2 0xDEB JUMPI POP PUSH2 0xDEB DUP7 DUP7 DUP7 PUSH2 0x2848 JUMP JUMPDEST PUSH0 PUSH2 0x19D6 DUP7 PUSH2 0xB32 PUSH1 0x1 PUSH2 0x16E5 JUMP JUMPDEST POP PUSH0 PUSH2 0x19EB DUP7 PUSH2 0x19E5 DUP10 PUSH2 0xD48 JUMP JUMPDEST DUP6 PUSH2 0x1F51 JUMP JUMPDEST SWAP1 POP PUSH2 0x19FA DUP8 DUP8 DUP8 DUP5 DUP8 PUSH2 0x291E JUMP JUMPDEST DUP3 MLOAD PUSH0 SUB PUSH2 0x1A4E JUMPI DUP6 PUSH1 0x1 PUSH1 0x1 PUSH1 0xA0 SHL SUB AND PUSH32 0xB8E138887D0AA13BAB447E82DE9D5C1777041ECD21CA36BA824FF1E6C07DDDA4 DUP9 DUP8 DUP5 DUP9 PUSH1 0x40 MLOAD PUSH2 0x1A41 SWAP5 SWAP4 SWAP3 SWAP2 SWAP1 PUSH2 0x3D93 JUMP JUMPDEST PUSH1 0x40 MLOAD DUP1 SWAP2 SUB SWAP1 LOG2 PUSH2 0xDEB JUMP JUMPDEST DUP6 PUSH1 0x1 PUSH1 0x1 PUSH1 0xA0 SHL SUB AND PUSH32 0xE2BABFBAC5889A709B63BB7F598B324E08BC5A4FB9EC647FB3CBC9EC07EB8712 DUP9 DUP8 DUP5 DUP9 DUP9 PUSH1 0x40 MLOAD PUSH2 0x1A8F SWAP6 SWAP5 SWAP4 SWAP3 SWAP2 SWAP1 PUSH2 0x3DBA JUMP JUMPDEST PUSH1 0x40 MLOAD DUP1 SWAP2 SUB SWAP1 LOG2 SWAP7 SWAP6 POP POP POP POP POP POP JUMP JUMPDEST PUSH0 PUSH6 0xFFFFFFFFFFFF DUP3 GT ISZERO PUSH2 0x1AD3 JUMPI PUSH1 0x40 MLOAD PUSH4 0x6DFCC65 PUSH1 0xE4 SHL DUP2 MSTORE PUSH1 0x30 PUSH1 0x4 DUP3 ADD MSTORE PUSH1 0x24 DUP2 ADD DUP4 SWAP1 MSTORE PUSH1 0x44 ADD PUSH2 0xDD6 JUMP JUMPDEST POP SWAP1 JUMP JUMPDEST DUP2 SLOAD PUSH0 SWAP1 DUP2 DUP2 PUSH1 0x5 DUP2 GT ISZERO PUSH2 0x1B33 JUMPI PUSH0 PUSH2 0x1AF0 DUP5 PUSH2 0x2A18 JUMP JUMPDEST PUSH2 0x1AFA SWAP1 DUP6 PUSH2 0x3C05 JUMP JUMPDEST PUSH0 DUP9 DUP2 MSTORE PUSH1 0x20 SWAP1 KECCAK256 SWAP1 SWAP2 POP DUP2 ADD SLOAD PUSH6 0xFFFFFFFFFFFF SWAP1 DUP2 AND SWAP1 DUP8 AND LT ISZERO PUSH2 0x1B23 JUMPI DUP1 SWAP2 POP PUSH2 0x1B31 JUMP JUMPDEST PUSH2 0x1B2E DUP2 PUSH1 0x1 PUSH2 0x3DF3 JUMP JUMPDEST SWAP3 POP JUMPDEST POP JUMPDEST PUSH0 PUSH2 0x1B40 DUP8 DUP8 DUP6 DUP6 PUSH2 0x2AFC JUMP JUMPDEST SWAP1 POP DUP1 ISZERO PUSH2 0x1B7A JUMPI PUSH2 0x1B64 DUP8 PUSH2 0x1B57 PUSH1 0x1 DUP5 PUSH2 0x3C05 JUMP JUMPDEST PUSH0 SWAP2 DUP3 MSTORE PUSH1 0x20 SWAP1 SWAP2 KECCAK256 ADD SWAP1 JUMP JUMPDEST SLOAD PUSH1 0x1 PUSH1 0x30 SHL SWAP1 DIV PUSH1 0x1 PUSH1 0x1 PUSH1 0xD0 SHL SUB AND PUSH2 0x1080 JUMP JUMPDEST PUSH0 SWAP8 SWAP7 POP POP POP POP POP POP POP JUMP JUMPDEST PUSH1 0x8 SLOAD PUSH1 0x40 DUP1 MLOAD PUSH6 0xFFFFFFFFFFFF SWAP3 DUP4 AND DUP2 MSTORE SWAP2 DUP4 AND PUSH1 0x20 DUP4 ADD MSTORE PUSH32 0xC565B045403DC03C2EEA82B81A0465EDAD9E2E7FC4D97E11421C209DA93D7A93 SWAP2 ADD PUSH1 0x40 MLOAD DUP1 SWAP2 SUB SWAP1 LOG1 PUSH1 0x8 DUP1 SLOAD PUSH6 0xFFFFFFFFFFFF NOT AND PUSH6 0xFFFFFFFFFFFF SWAP3 SWAP1 SWAP3 AND SWAP2 SWAP1 SWAP2 OR SWAP1 SSTORE JUMP JUMPDEST DUP1 MLOAD PUSH0 SWAP1 PUSH1 0x34 DUP2 LT ISZERO PUSH2 0x1C03 JUMPI PUSH1 0x1 SWAP2 POP POP PUSH2 0xA28 JUMP JUMPDEST DUP3 DUP2 ADD PUSH1 0x13 NOT ADD MLOAD PUSH1 0x1 PUSH1 0x1 PUSH1 0xA0 SHL SUB NOT DUP2 AND PUSH12 0x46E0E4DEE0DEE6CAE47A60F PUSH1 0xA3 SHL EQ PUSH2 0x1C36 JUMPI PUSH1 0x1 SWAP3 POP POP POP PUSH2 0xA28 JUMP JUMPDEST PUSH0 DUP1 PUSH2 0x1C43 PUSH1 0x28 DUP6 PUSH2 0x3C05 JUMP JUMPDEST SWAP1 POP JUMPDEST DUP4 DUP2 LT ISZERO PUSH2 0x1CB3 JUMPI PUSH0 DUP1 PUSH2 0x1C79 DUP9 DUP5 DUP2 MLOAD DUP2 LT PUSH2 0x1C65 JUMPI PUSH2 0x1C65 PUSH2 0x3B66 JUMP JUMPDEST ADD PUSH1 0x20 ADD MLOAD PUSH1 0x1 PUSH1 0x1 PUSH1 0xF8 SHL SUB NOT AND PUSH2 0x2B5B JUMP JUMPDEST SWAP2 POP SWAP2 POP DUP2 PUSH2 0x1C91 JUMPI PUSH1 0x1 SWAP7 POP POP POP POP POP POP POP PUSH2 0xA28 JUMP JUMPDEST DUP1 PUSH1 0xFF AND PUSH1 0x4 DUP6 PUSH1 0x1 PUSH1 0x1 PUSH1 0xA0 SHL SUB AND SWAP1 SHL OR SWAP4 POP POP POP DUP1 PUSH1 0x1 ADD SWAP1 POP PUSH2 0x1C46 JUMP JUMPDEST POP DUP6 PUSH1 0x1 PUSH1 0x1 PUSH1 0xA0 SHL SUB AND DUP2 PUSH1 0x1 PUSH1 0x1 PUSH1 0xA0 SHL SUB AND EQ SWAP4 POP POP POP POP SWAP3 SWAP2 POP POP JUMP JUMPDEST PUSH0 PUSH2 0x1CE8 DUP7 DUP7 DUP7 DUP7 DUP1 MLOAD SWAP1 PUSH1 0x20 ADD KECCAK256 PUSH2 0x1509 JUMP JUMPDEST SWAP1 POP DUP5 MLOAD DUP7 MLOAD EQ ISZERO DUP1 PUSH2 0x1CFD JUMPI POP DUP4 MLOAD DUP7 MLOAD EQ ISZERO JUMPDEST DUP1 PUSH2 0x1D07 JUMPI POP DUP6 MLOAD ISZERO JUMPDEST ISZERO PUSH2 0x1D3C JUMPI DUP6 MLOAD DUP5 MLOAD DUP7 MLOAD PUSH1 0x40 MLOAD PUSH4 0x447B05D PUSH1 0xE4 SHL DUP2 MSTORE PUSH1 0x4 DUP2 ADD SWAP4 SWAP1 SWAP4 MSTORE PUSH1 0x24 DUP4 ADD SWAP2 SWAP1 SWAP2 MSTORE PUSH1 0x44 DUP3 ADD MSTORE PUSH1 0x64 ADD PUSH2 0xDD6 JUMP JUMPDEST PUSH0 DUP2 DUP2 MSTORE PUSH1 0x4 PUSH1 0x20 MSTORE PUSH1 0x40 SWAP1 KECCAK256 SLOAD PUSH1 0x1 PUSH1 0xA0 SHL SWAP1 DIV PUSH6 0xFFFFFFFFFFFF AND ISZERO PUSH2 0x1D85 JUMPI DUP1 PUSH2 0x1D68 DUP3 PUSH2 0xD7A JUMP JUMPDEST PUSH1 0x40 MLOAD PUSH4 0x31B75E4D PUSH1 0xE0 SHL DUP2 MSTORE PUSH2 0xDD6 SWAP3 SWAP2 SWAP1 PUSH0 SWAP1 PUSH1 0x4 ADD PUSH2 0x3D52 JUMP JUMPDEST PUSH0 PUSH2 0x1D8E PUSH2 0xD68 JUMP JUMPDEST PUSH2 0x1D96 PUSH2 0x1339 JUMP JUMPDEST PUSH6 0xFFFFFFFFFFFF AND PUSH2 0x1DA8 SWAP2 SWAP1 PUSH2 0x3DF3 JUMP JUMPDEST SWAP1 POP PUSH0 PUSH2 0x1DC2 PUSH1 0x8 SLOAD PUSH4 0xFFFFFFFF PUSH1 0x1 PUSH1 0x30 SHL SWAP1 SWAP2 DIV AND SWAP1 JUMP JUMPDEST PUSH0 DUP5 DUP2 MSTORE PUSH1 0x4 PUSH1 0x20 MSTORE PUSH1 0x40 SWAP1 KECCAK256 DUP1 SLOAD PUSH1 0x1 PUSH1 0x1 PUSH1 0xA0 SHL SUB NOT AND PUSH1 0x1 PUSH1 0x1 PUSH1 0xA0 SHL SUB DUP8 AND OR DUP2 SSTORE SWAP1 SWAP2 POP PUSH2 0x1DF4 DUP4 PUSH2 0x1AA1 JUMP JUMPDEST DUP2 SLOAD PUSH6 0xFFFFFFFFFFFF SWAP2 SWAP1 SWAP2 AND PUSH1 0x1 PUSH1 0xA0 SHL MUL PUSH6 0xFFFFFFFFFFFF PUSH1 0xA0 SHL NOT SWAP1 SWAP2 AND OR DUP2 SSTORE PUSH2 0x1E21 DUP3 PUSH2 0x2BEB JUMP JUMPDEST DUP2 SLOAD PUSH4 0xFFFFFFFF SWAP2 SWAP1 SWAP2 AND PUSH1 0x1 PUSH1 0xD0 SHL MUL PUSH4 0xFFFFFFFF PUSH1 0xD0 SHL NOT SWAP1 SWAP2 AND OR DUP2 SSTORE DUP9 MLOAD PUSH32 0x7D84A6263AE0D98D3329BD7B46BB4E8D6F98CD35A7ADB45C274C8B7FD5EBD5E0 SWAP1 DUP6 SWAP1 DUP8 SWAP1 DUP13 SWAP1 DUP13 SWAP1 PUSH1 0x1 PUSH1 0x1 PUSH1 0x40 SHL SUB DUP2 GT ISZERO PUSH2 0x1E84 JUMPI PUSH2 0x1E84 PUSH2 0x31E7 JUMP JUMPDEST PUSH1 0x40 MLOAD SWAP1 DUP1 DUP3 MSTORE DUP1 PUSH1 0x20 MUL PUSH1 0x20 ADD DUP3 ADD PUSH1 0x40 MSTORE DUP1 ISZERO PUSH2 0x1EB7 JUMPI DUP2 PUSH1 0x20 ADD JUMPDEST PUSH1 0x60 DUP2 MSTORE PUSH1 0x20 ADD SWAP1 PUSH1 0x1 SWAP1 SUB SWAP1 DUP2 PUSH2 0x1EA2 JUMPI SWAP1 POP JUMPDEST POP DUP13 DUP10 PUSH2 0x1EC4 DUP11 DUP3 PUSH2 0x3DF3 JUMP JUMPDEST DUP15 PUSH1 0x40 MLOAD PUSH2 0x1EDA SWAP10 SWAP9 SWAP8 SWAP7 SWAP6 SWAP5 SWAP4 SWAP3 SWAP2 SWAP1 PUSH2 0x3E06 JUMP JUMPDEST PUSH1 0x40 MLOAD DUP1 SWAP2 SUB SWAP1 LOG1 POP POP POP SWAP6 SWAP5 POP POP POP POP POP JUMP JUMPDEST PUSH1 0x60 PUSH2 0x9D8 PUSH32 0x0 PUSH0 PUSH2 0x2C1B JUMP JUMPDEST PUSH1 0x60 PUSH2 0x9D8 PUSH32 0x0 PUSH1 0x1 PUSH2 0x2C1B JUMP JUMPDEST PUSH0 PUSH2 0x9D8 NUMBER PUSH2 0x1AA1 JUMP JUMPDEST PUSH0 PUSH32 0x0 PUSH1 0x40 MLOAD PUSH4 0x748D635 PUSH1 0xE3 SHL DUP2 MSTORE PUSH1 0x1 PUSH1 0x1 PUSH1 0xA0 SHL SUB DUP7 DUP2 AND PUSH1 0x4 DUP4 ADD MSTORE PUSH1 0x24 DUP3 ADD DUP7 SWAP1 MSTORE SWAP2 SWAP1 SWAP2 AND SWAP1 PUSH4 0x3A46B1A8 SWAP1 PUSH1 0x44 ADD PUSH1 0x20 PUSH1 0x40 MLOAD DUP1 DUP4 SUB DUP2 DUP7 GAS STATICCALL ISZERO DUP1 ISZERO PUSH2 0x1FC0 JUMPI RETURNDATASIZE PUSH0 DUP1 RETURNDATACOPY RETURNDATASIZE PUSH0 REVERT JUMPDEST POP POP POP POP PUSH1 0x40 MLOAD RETURNDATASIZE PUSH1 0x1F NOT PUSH1 0x1F DUP3 ADD AND DUP3 ADD DUP1 PUSH1 0x40 MSTORE POP DUP2 ADD SWAP1 PUSH2 0xED4 SWAP2 SWAP1 PUSH2 0x3EDB JUMP JUMPDEST DUP1 SLOAD PUSH0 SWAP1 DUP1 ISZERO PUSH2 0x2013 JUMPI PUSH2 0x1FFD DUP4 PUSH2 0x1B57 PUSH1 0x1 DUP5 PUSH2 0x3C05 JUMP JUMPDEST SLOAD PUSH1 0x1 PUSH1 0x30 SHL SWAP1 DIV PUSH1 0x1 PUSH1 0x1 PUSH1 0xD0 SHL SUB AND PUSH2 0x1572 JUMP JUMPDEST PUSH0 SWAP4 SWAP3 POP POP POP JUMP JUMPDEST PUSH1 0xB SLOAD PUSH1 0x40 DUP1 MLOAD PUSH1 0x1 PUSH1 0x1 PUSH1 0xA0 SHL SUB SWAP3 DUP4 AND DUP2 MSTORE SWAP2 DUP4 AND PUSH1 0x20 DUP4 ADD MSTORE PUSH32 0x8F74EA46EF7894F65EABFB5E6E695DE773A000B47C529AB559178069B226401 SWAP2 ADD PUSH1 0x40 MLOAD DUP1 SWAP2 SUB SWAP1 LOG1 PUSH1 0xB DUP1 SLOAD PUSH1 0x1 PUSH1 0x1 PUSH1 0xA0 SHL SUB NOT AND PUSH1 0x1 PUSH1 0x1 PUSH1 0xA0 SHL SUB SWAP3 SWAP1 SWAP3 AND SWAP2 SWAP1 SWAP2 OR SWAP1 SSTORE JUMP JUMPDEST PUSH1 0x60 DUP3 PUSH2 0x2099 JUMPI PUSH2 0x2094 DUP3 PUSH2 0x2CC4 JUMP JUMPDEST PUSH2 0xA28 JUMP JUMPDEST POP DUP1 PUSH2 0xA28 JUMP JUMPDEST DUP1 PUSH4 0xFFFFFFFF AND PUSH0 SUB PUSH2 0x20C8 JUMPI PUSH1 0x40 MLOAD PUSH4 0xF1CFBF05 PUSH1 0xE0 SHL DUP2 MSTORE PUSH0 PUSH1 0x4 DUP3 ADD MSTORE PUSH1 0x24 ADD PUSH2 0xDD6 JUMP JUMPDEST PUSH1 0x8 SLOAD PUSH1 0x40 DUP1 MLOAD PUSH4 0xFFFFFFFF PUSH1 0x1 PUSH1 0x30 SHL SWAP1 SWAP4 DIV DUP4 AND DUP2 MSTORE SWAP2 DUP4 AND PUSH1 0x20 DUP4 ADD MSTORE PUSH32 0x7E3F7F0708A84DE9203036ABAA450DCCC85AD5FF52F78C170F3EDB55CF5E8828 SWAP2 ADD PUSH1 0x40 MLOAD DUP1 SWAP2 SUB SWAP1 LOG1 PUSH1 0x8 DUP1 SLOAD PUSH4 0xFFFFFFFF SWAP1 SWAP3 AND PUSH1 0x1 PUSH1 0x30 SHL MUL PUSH10 0xFFFFFFFF000000000000 NOT SWAP1 SWAP3 AND SWAP2 SWAP1 SWAP2 OR SWAP1 SSTORE JUMP JUMPDEST PUSH1 0x7 SLOAD PUSH1 0x40 DUP1 MLOAD SWAP2 DUP3 MSTORE PUSH1 0x20 DUP3 ADD DUP4 SWAP1 MSTORE PUSH32 0xCCB45DA8D5717E6C4544694297C4BA5CF151D455C9BB0ED4FC7A38411BC05461 SWAP2 ADD PUSH1 0x40 MLOAD DUP1 SWAP2 SUB SWAP1 LOG1 PUSH1 0x7 SSTORE JUMP JUMPDEST PUSH0 PUSH1 0x64 PUSH2 0x2189 DUP4 PUSH2 0x108B JUMP JUMPDEST PUSH1 0x40 MLOAD PUSH4 0x2394E7A3 PUSH1 0xE2 SHL DUP2 MSTORE PUSH1 0x4 DUP2 ADD DUP6 SWAP1 MSTORE PUSH1 0x1 PUSH1 0x1 PUSH1 0xA0 SHL SUB PUSH32 0x0 AND SWAP1 PUSH4 0x8E539E8C SWAP1 PUSH1 0x24 ADD PUSH1 0x20 PUSH1 0x40 MLOAD DUP1 DUP4 SUB DUP2 DUP7 GAS STATICCALL ISZERO DUP1 ISZERO PUSH2 0x21EC JUMPI RETURNDATASIZE PUSH0 DUP1 RETURNDATACOPY RETURNDATASIZE PUSH0 REVERT JUMPDEST POP POP POP POP PUSH1 0x40 MLOAD RETURNDATASIZE PUSH1 0x1F NOT PUSH1 0x1F DUP3 ADD AND DUP3 ADD DUP1 PUSH1 0x40 MSTORE POP DUP2 ADD SWAP1 PUSH2 0x2210 SWAP2 SWAP1 PUSH2 0x3EDB JUMP JUMPDEST PUSH2 0x221A SWAP2 SWAP1 PUSH2 0x3EF2 JUMP JUMPDEST PUSH2 0xA28 SWAP2 SWAP1 PUSH2 0x3F1D JUMP JUMPDEST DUP1 SLOAD PUSH0 SWAP1 PUSH1 0x1 PUSH1 0x1 PUSH1 0x80 SHL SUB DUP1 DUP3 AND SWAP2 PUSH1 0x1 PUSH1 0x80 SHL SWAP1 DIV AND DUP2 SUB PUSH2 0x225B JUMPI PUSH1 0x40 MLOAD PUSH4 0x75E52F4F PUSH1 0xE0 SHL DUP2 MSTORE PUSH1 0x4 ADD PUSH1 0x40 MLOAD DUP1 SWAP2 SUB SWAP1 REVERT JUMPDEST PUSH1 0x1 PUSH1 0x1 PUSH1 0x80 SHL SUB DUP2 DUP2 AND PUSH0 SWAP1 DUP2 MSTORE PUSH1 0x1 DUP6 DUP2 ADD PUSH1 0x20 MSTORE PUSH1 0x40 DUP3 KECCAK256 DUP1 SLOAD SWAP3 SWAP1 SSTORE DUP6 SLOAD PUSH16 0xFFFFFFFFFFFFFFFFFFFFFFFFFFFFFFFF NOT AND SWAP4 ADD SWAP1 SWAP2 AND SWAP2 SWAP1 SWAP2 OR SWAP1 SWAP3 SSTORE POP SWAP1 JUMP JUMPDEST PUSH0 PUSH1 0x1 PUSH1 0x1 PUSH1 0xD0 SHL SUB DUP3 GT ISZERO PUSH2 0x1AD3 JUMPI PUSH1 0x40 MLOAD PUSH4 0x6DFCC65 PUSH1 0xE4 SHL DUP2 MSTORE PUSH1 0xD0 PUSH1 0x4 DUP3 ADD MSTORE PUSH1 0x24 DUP2 ADD DUP4 SWAP1 MSTORE PUSH1 0x44 ADD PUSH2 0xDD6 JUMP JUMPDEST PUSH0 DUP1 PUSH2 0x22E0 DUP6 DUP6 DUP6 PUSH2 0x2CED JUMP JUMPDEST SWAP2 POP SWAP2 POP JUMPDEST SWAP4 POP SWAP4 SWAP2 POP POP JUMP JUMPDEST PUSH0 DUP1 PUSH1 0xB PUSH0 SWAP1 SLOAD SWAP1 PUSH2 0x100 EXP SWAP1 DIV PUSH1 0x1 PUSH1 0x1 PUSH1 0xA0 SHL SUB AND PUSH1 0x1 PUSH1 0x1 PUSH1 0xA0 SHL SUB AND PUSH4 0xF27A0C92 PUSH1 0x40 MLOAD DUP2 PUSH4 0xFFFFFFFF AND PUSH1 0xE0 SHL DUP2 MSTORE PUSH1 0x4 ADD PUSH1 0x20 PUSH1 0x40 MLOAD DUP1 DUP4 SUB DUP2 DUP7 GAS STATICCALL ISZERO DUP1 ISZERO PUSH2 0x233F JUMPI RETURNDATASIZE PUSH0 DUP1 RETURNDATACOPY RETURNDATASIZE PUSH0 REVERT JUMPDEST POP POP POP POP PUSH1 0x40 MLOAD RETURNDATASIZE PUSH1 0x1F NOT PUSH1 0x1F DUP3 ADD AND DUP3 ADD DUP1 PUSH1 0x40 MSTORE POP DUP2 ADD SWAP1 PUSH2 0x2363 SWAP2 SWAP1 PUSH2 0x3EDB JUMP JUMPDEST SWAP1 POP PUSH0 ADDRESS PUSH1 0x60 SHL PUSH12 0xFFFFFFFFFFFFFFFFFFFFFFFF NOT AND DUP5 XOR PUSH1 0xB SLOAD PUSH1 0x40 MLOAD PUSH4 0xB1C5F427 PUSH1 0xE0 SHL DUP2 MSTORE SWAP2 SWAP3 POP PUSH1 0x1 PUSH1 0x1 PUSH1 0xA0 SHL SUB AND SWAP1 PUSH4 0xB1C5F427 SWAP1 PUSH2 0x23B4 SWAP1 DUP11 SWAP1 DUP11 SWAP1 DUP11 SWAP1 PUSH0 SWAP1 DUP9 SWAP1 PUSH1 0x4 ADD PUSH2 0x3F3C JUMP JUMPDEST PUSH1 0x20 PUSH1 0x40 MLOAD DUP1 DUP4 SUB DUP2 DUP7 GAS STATICCALL ISZERO DUP1 ISZERO PUSH2 0x23CF JUMPI RETURNDATASIZE PUSH0 DUP1 RETURNDATACOPY RETURNDATASIZE PUSH0 REVERT JUMPDEST POP POP POP POP PUSH1 0x40 MLOAD RETURNDATASIZE PUSH1 0x1F NOT PUSH1 0x1F DUP3 ADD AND DUP3 ADD DUP1 PUSH1 0x40 MSTORE POP DUP2 ADD SWAP1 PUSH2 0x23F3 SWAP2 SWAP1 PUSH2 0x3EDB JUMP JUMPDEST PUSH0 DUP10 DUP2 MSTORE PUSH1 0xC PUSH1 0x20 MSTORE PUSH1 0x40 DUP1 DUP3 KECCAK256 SWAP3 SWAP1 SWAP3 SSTORE PUSH1 0xB SLOAD SWAP2 MLOAD PUSH4 0x8F2A0BB PUSH1 0xE4 SHL DUP2 MSTORE PUSH1 0x1 PUSH1 0x1 PUSH1 0xA0 SHL SUB SWAP1 SWAP3 AND SWAP2 PUSH4 0x8F2A0BB0 SWAP2 PUSH2 0x243D SWAP2 DUP12 SWAP2 DUP12 SWAP2 DUP12 SWAP2 SWAP1 DUP9 SWAP1 DUP11 SWAP1 PUSH1 0x4 ADD PUSH2 0x3F89 JUMP JUMPDEST PUSH0 PUSH1 0x40 MLOAD DUP1 DUP4 SUB DUP2 PUSH0 DUP8 DUP1 EXTCODESIZE ISZERO DUP1 ISZERO PUSH2 0x2454 JUMPI PUSH0 DUP1 REVERT JUMPDEST POP GAS CALL ISZERO DUP1 ISZERO PUSH2 0x2466 JUMPI RETURNDATASIZE PUSH0 DUP1 RETURNDATACOPY RETURNDATASIZE PUSH0 REVERT JUMPDEST POP POP POP POP PUSH2 0x121C DUP3 TIMESTAMP PUSH2 0x2479 SWAP2 SWAP1 PUSH2 0x3DF3 JUMP JUMPDEST PUSH2 0x1AA1 JUMP JUMPDEST PUSH1 0xB SLOAD PUSH1 0x1 PUSH1 0x1 PUSH1 0xA0 SHL SUB AND PUSH4 0xE38335E5 CALLVALUE DUP7 DUP7 DUP7 PUSH0 ADDRESS PUSH1 0x60 SHL PUSH12 0xFFFFFFFFFFFFFFFFFFFFFFFF NOT AND DUP9 XOR PUSH1 0x40 MLOAD DUP8 PUSH4 0xFFFFFFFF AND PUSH1 0xE0 SHL DUP2 MSTORE PUSH1 0x4 ADD PUSH2 0x24C9 SWAP6 SWAP5 SWAP4 SWAP3 SWAP2 SWAP1 PUSH2 0x3F3C JUMP JUMPDEST PUSH0 PUSH1 0x40 MLOAD DUP1 DUP4 SUB DUP2 DUP6 DUP9 DUP1 EXTCODESIZE ISZERO DUP1 ISZERO PUSH2 0x24E0 JUMPI PUSH0 DUP1 REVERT JUMPDEST POP GAS CALL ISZERO DUP1 ISZERO PUSH2 0x24F2 JUMPI RETURNDATASIZE PUSH0 DUP1 RETURNDATACOPY RETURNDATASIZE PUSH0 REVERT JUMPDEST POP POP POP PUSH0 SWAP7 DUP8 MSTORE POP POP PUSH1 0xC PUSH1 0x20 MSTORE POP POP PUSH1 0x40 DUP4 KECCAK256 SWAP3 SWAP1 SWAP3 SSTORE POP POP JUMP JUMPDEST PUSH0 DUP2 DUP2 MSTORE PUSH1 0x4 PUSH1 0x20 MSTORE PUSH1 0x40 DUP2 KECCAK256 DUP1 SLOAD PUSH1 0xFF PUSH1 0x1 PUSH1 0xF0 SHL DUP3 DIV DUP2 AND SWAP2 PUSH1 0x1 PUSH1 0xF8 SHL SWAP1 DIV AND DUP2 ISZERO PUSH2 0x2542 JUMPI POP PUSH1 0x7 SWAP5 SWAP4 POP POP POP POP JUMP JUMPDEST DUP1 ISZERO PUSH2 0x2553 JUMPI POP PUSH1 0x2 SWAP5 SWAP4 POP POP POP POP JUMP JUMPDEST PUSH0 PUSH2 0x255D DUP7 PUSH2 0xD48 JUMP JUMPDEST SWAP1 POP DUP1 PUSH0 SUB PUSH2 0x2582 JUMPI PUSH1 0x40 MLOAD PUSH4 0x6AD06075 PUSH1 0xE0 SHL DUP2 MSTORE PUSH1 0x4 DUP2 ADD DUP8 SWAP1 MSTORE PUSH1 0x24 ADD PUSH2 0xDD6 JUMP JUMPDEST PUSH0 PUSH2 0x258B PUSH2 0x1339 JUMP JUMPDEST PUSH6 0xFFFFFFFFFFFF AND SWAP1 POP DUP1 DUP3 LT PUSH2 0x25A8 JUMPI POP PUSH0 SWAP7 SWAP6 POP POP POP POP POP POP JUMP JUMPDEST PUSH0 PUSH2 0x25B2 DUP9 PUSH2 0x144B JUMP JUMPDEST SWAP1 POP DUP2 DUP2 LT PUSH2 0x25C9 JUMPI POP PUSH1 0x1 SWAP8 SWAP7 POP POP POP POP POP POP POP JUMP JUMPDEST PUSH2 0x25D2 DUP9 PUSH2 0x2E63 JUMP JUMPDEST ISZERO DUP1 PUSH2 0x25F1 JUMPI POP PUSH0 DUP9 DUP2 MSTORE PUSH1 0x9 PUSH1 0x20 MSTORE PUSH1 0x40 SWAP1 KECCAK256 DUP1 SLOAD PUSH1 0x1 SWAP1 SWAP2 ADD SLOAD GT ISZERO JUMPDEST ISZERO PUSH2 0x2604 JUMPI POP PUSH1 0x3 SWAP8 SWAP7 POP POP POP POP POP POP POP JUMP JUMPDEST PUSH0 DUP9 DUP2 MSTORE PUSH1 0x4 PUSH1 0x20 MSTORE PUSH1 0x40 SWAP1 KECCAK256 PUSH1 0x1 ADD SLOAD PUSH6 0xFFFFFFFFFFFF AND PUSH0 SUB PUSH2 0x2631 JUMPI POP PUSH1 0x4 SWAP8 SWAP7 POP POP POP POP POP POP POP JUMP JUMPDEST POP PUSH1 0x5 SWAP8 SWAP7 POP POP POP POP POP POP POP JUMP JUMPDEST PUSH0 DUP1 PUSH2 0x264D DUP7 DUP7 DUP7 DUP7 PUSH2 0x2E99 JUMP JUMPDEST PUSH0 DUP2 DUP2 MSTORE PUSH1 0xC PUSH1 0x20 MSTORE PUSH1 0x40 SWAP1 KECCAK256 SLOAD SWAP1 SWAP2 POP DUP1 ISZERO PUSH2 0xBD6 JUMPI PUSH1 0xB SLOAD PUSH1 0x40 MLOAD PUSH4 0xC4D252F5 PUSH1 0xE0 SHL DUP2 MSTORE PUSH1 0x4 DUP2 ADD DUP4 SWAP1 MSTORE PUSH1 0x1 PUSH1 0x1 PUSH1 0xA0 SHL SUB SWAP1 SWAP2 AND SWAP1 PUSH4 0xC4D252F5 SWAP1 PUSH1 0x24 ADD PUSH0 PUSH1 0x40 MLOAD DUP1 DUP4 SUB DUP2 PUSH0 DUP8 DUP1 EXTCODESIZE ISZERO DUP1 ISZERO PUSH2 0x26A7 JUMPI PUSH0 DUP1 REVERT JUMPDEST POP GAS CALL ISZERO DUP1 ISZERO PUSH2 0x26B9 JUMPI RETURNDATASIZE PUSH0 DUP1 RETURNDATACOPY RETURNDATASIZE PUSH0 REVERT JUMPDEST POP POP POP PUSH0 DUP4 DUP2 MSTORE PUSH1 0xC PUSH1 0x20 MSTORE PUSH1 0x40 DUP2 KECCAK256 SSTORE POP POP SWAP1 POP SWAP5 SWAP4 POP POP POP POP JUMP JUMPDEST PUSH0 ADDRESS PUSH1 0x1 PUSH1 0x1 PUSH1 0xA0 SHL SUB PUSH32 0x0 AND EQ DUP1 ISZERO PUSH2 0x272E JUMPI POP PUSH32 0x0 CHAINID EQ JUMPDEST ISZERO PUSH2 0x2758 JUMPI POP PUSH32 0x0 SWAP1 JUMP JUMPDEST PUSH2 0x9D8 PUSH1 0x40 DUP1 MLOAD PUSH32 0x8B73C3C69BB8FE3D512ECC4CF759CC79239F7B179B0FFACAA9A75D522B39400F PUSH1 0x20 DUP3 ADD MSTORE PUSH32 0x0 SWAP2 DUP2 ADD SWAP2 SWAP1 SWAP2 MSTORE PUSH32 0x0 PUSH1 0x60 DUP3 ADD MSTORE CHAINID PUSH1 0x80 DUP3 ADD MSTORE ADDRESS PUSH1 0xA0 DUP3 ADD MSTORE PUSH0 SWAP1 PUSH1 0xC0 ADD PUSH1 0x40 MLOAD PUSH1 0x20 DUP2 DUP4 SUB SUB DUP2 MSTORE SWAP1 PUSH1 0x40 MSTORE DUP1 MLOAD SWAP1 PUSH1 0x20 ADD KECCAK256 SWAP1 POP SWAP1 JUMP JUMPDEST PUSH0 DUP1 PUSH0 DUP4 MLOAD PUSH1 0x41 SUB PUSH2 0x2836 JUMPI PUSH1 0x20 DUP5 ADD MLOAD PUSH1 0x40 DUP6 ADD MLOAD PUSH1 0x60 DUP7 ADD MLOAD PUSH0 BYTE PUSH2 0x2828 DUP9 DUP3 DUP6 DUP6 PUSH2 0x2F48 JUMP JUMPDEST SWAP6 POP SWAP6 POP SWAP6 POP POP POP POP PUSH2 0x2841 JUMP JUMPDEST POP POP DUP2 MLOAD PUSH0 SWAP2 POP PUSH1 0x2 SWAP1 JUMPDEST SWAP3 POP SWAP3 POP SWAP3 JUMP JUMPDEST PUSH0 DUP1 PUSH0 DUP6 PUSH1 0x1 PUSH1 0x1 PUSH1 0xA0 SHL SUB AND DUP6 DUP6 PUSH1 0x40 MLOAD PUSH1 0x24 ADD PUSH2 0x2868 SWAP3 SWAP2 SWAP1 PUSH2 0x3FE0 JUMP JUMPDEST PUSH1 0x40 DUP1 MLOAD PUSH1 0x1F NOT DUP2 DUP5 SUB ADD DUP2 MSTORE SWAP2 DUP2 MSTORE PUSH1 0x20 DUP3 ADD DUP1 MLOAD PUSH1 0x1 PUSH1 0x1 PUSH1 0xE0 SHL SUB AND PUSH4 0xB135D3F PUSH1 0xE1 SHL OR SWAP1 MSTORE MLOAD PUSH2 0x289D SWAP2 SWAP1 PUSH2 0x3FF8 JUMP JUMPDEST PUSH0 PUSH1 0x40 MLOAD DUP1 DUP4 SUB DUP2 DUP6 GAS STATICCALL SWAP2 POP POP RETURNDATASIZE DUP1 PUSH0 DUP2 EQ PUSH2 0x28D5 JUMPI PUSH1 0x40 MLOAD SWAP2 POP PUSH1 0x1F NOT PUSH1 0x3F RETURNDATASIZE ADD AND DUP3 ADD PUSH1 0x40 MSTORE RETURNDATASIZE DUP3 MSTORE RETURNDATASIZE PUSH0 PUSH1 0x20 DUP5 ADD RETURNDATACOPY PUSH2 0x28DA JUMP JUMPDEST PUSH1 0x60 SWAP2 POP JUMPDEST POP SWAP2 POP SWAP2 POP DUP2 DUP1 ISZERO PUSH2 0x28EE JUMPI POP PUSH1 0x20 DUP2 MLOAD LT ISZERO JUMPDEST DUP1 ISZERO PUSH2 0xDEB JUMPI POP DUP1 MLOAD PUSH4 0xB135D3F PUSH1 0xE1 SHL SWAP1 PUSH2 0x2913 SWAP1 DUP4 ADD PUSH1 0x20 SWAP1 DUP2 ADD SWAP1 DUP5 ADD PUSH2 0x3EDB JUMP JUMPDEST EQ SWAP7 SWAP6 POP POP POP POP POP POP JUMP JUMPDEST PUSH0 DUP6 DUP2 MSTORE PUSH1 0x9 PUSH1 0x20 SWAP1 DUP2 MSTORE PUSH1 0x40 DUP1 DUP4 KECCAK256 PUSH1 0x1 PUSH1 0x1 PUSH1 0xA0 SHL SUB DUP9 AND DUP5 MSTORE PUSH1 0x3 DUP2 ADD SWAP1 SWAP3 MSTORE SWAP1 SWAP2 KECCAK256 SLOAD PUSH1 0xFF AND ISZERO PUSH2 0x2971 JUMPI PUSH1 0x40 MLOAD PUSH4 0x71C6AF49 PUSH1 0xE0 SHL DUP2 MSTORE PUSH1 0x1 PUSH1 0x1 PUSH1 0xA0 SHL SUB DUP7 AND PUSH1 0x4 DUP3 ADD MSTORE PUSH1 0x24 ADD PUSH2 0xDD6 JUMP JUMPDEST PUSH1 0x1 PUSH1 0x1 PUSH1 0xA0 SHL SUB DUP6 AND PUSH0 SWAP1 DUP2 MSTORE PUSH1 0x3 DUP3 ADD PUSH1 0x20 MSTORE PUSH1 0x40 SWAP1 KECCAK256 DUP1 SLOAD PUSH1 0xFF NOT AND PUSH1 0x1 OR SWAP1 SSTORE PUSH1 0xFF DUP5 AND PUSH2 0x29BA JUMPI DUP3 DUP2 PUSH0 ADD PUSH0 DUP3 DUP3 SLOAD PUSH2 0x29AF SWAP2 SWAP1 PUSH2 0x3DF3 JUMP JUMPDEST SWAP1 SWAP2 SSTORE POP PUSH2 0x2A10 SWAP1 POP JUMP JUMPDEST PUSH0 NOT PUSH1 0xFF DUP6 AND ADD PUSH2 0x29D8 JUMPI DUP3 DUP2 PUSH1 0x1 ADD PUSH0 DUP3 DUP3 SLOAD PUSH2 0x29AF SWAP2 SWAP1 PUSH2 0x3DF3 JUMP JUMPDEST PUSH1 0x1 NOT PUSH1 0xFF DUP6 AND ADD PUSH2 0x29F7 JUMPI DUP3 DUP2 PUSH1 0x2 ADD PUSH0 DUP3 DUP3 SLOAD PUSH2 0x29AF SWAP2 SWAP1 PUSH2 0x3DF3 JUMP JUMPDEST PUSH1 0x40 MLOAD PUSH4 0x3599BE1 PUSH1 0xE1 SHL DUP2 MSTORE PUSH1 0x4 ADD PUSH1 0x40 MLOAD DUP1 SWAP2 SUB SWAP1 REVERT JUMPDEST POP POP POP POP POP POP JUMP JUMPDEST PUSH0 DUP2 PUSH0 SUB PUSH2 0x2A27 JUMPI POP PUSH0 SWAP2 SWAP1 POP JUMP JUMPDEST PUSH0 PUSH1 0x1 PUSH2 0x2A33 DUP5 PUSH2 0x3010 JUMP JUMPDEST SWAP1 SHR PUSH1 0x1 SWAP1 SHL SWAP1 POP PUSH1 0x1 DUP2 DUP5 DUP2 PUSH2 0x2A4C JUMPI PUSH2 0x2A4C PUSH2 0x3F09 JUMP JUMPDEST DIV DUP3 ADD SWAP1 SHR SWAP1 POP PUSH1 0x1 DUP2 DUP5 DUP2 PUSH2 0x2A64 JUMPI PUSH2 0x2A64 PUSH2 0x3F09 JUMP JUMPDEST DIV DUP3 ADD SWAP1 SHR SWAP1 POP PUSH1 0x1 DUP2 DUP5 DUP2 PUSH2 0x2A7C JUMPI PUSH2 0x2A7C PUSH2 0x3F09 JUMP JUMPDEST DIV DUP3 ADD SWAP1 SHR SWAP1 POP PUSH1 0x1 DUP2 DUP5 DUP2 PUSH2 0x2A94 JUMPI PUSH2 0x2A94 PUSH2 0x3F09 JUMP JUMPDEST DIV DUP3 ADD SWAP1 SHR SWAP1 POP PUSH1 0x1 DUP2 DUP5 DUP2 PUSH2 0x2AAC JUMPI PUSH2 0x2AAC PUSH2 0x3F09 JUMP JUMPDEST DIV DUP3 ADD SWAP1 SHR SWAP1 POP PUSH1 0x1 DUP2 DUP5 DUP2 PUSH2 0x2AC4 JUMPI PUSH2 0x2AC4 PUSH2 0x3F09 JUMP JUMPDEST DIV DUP3 ADD SWAP1 SHR SWAP1 POP PUSH1 0x1 DUP2 DUP5 DUP2 PUSH2 0x2ADC JUMPI PUSH2 0x2ADC PUSH2 0x3F09 JUMP JUMPDEST DIV DUP3 ADD SWAP1 SHR SWAP1 POP PUSH2 0x1572 DUP2 DUP3 DUP6 DUP2 PUSH2 0x2AF6 JUMPI PUSH2 0x2AF6 PUSH2 0x3F09 JUMP JUMPDEST DIV PUSH2 0x30A3 JUMP JUMPDEST PUSH0 JUMPDEST DUP2 DUP4 LT ISZERO PUSH2 0x2B53 JUMPI PUSH0 PUSH2 0x2B11 DUP5 DUP5 PUSH2 0x30B8 JUMP JUMPDEST PUSH0 DUP8 DUP2 MSTORE PUSH1 0x20 SWAP1 KECCAK256 SWAP1 SWAP2 POP PUSH6 0xFFFFFFFFFFFF DUP7 AND SWAP1 DUP3 ADD SLOAD PUSH6 0xFFFFFFFFFFFF AND GT ISZERO PUSH2 0x2B3F JUMPI DUP1 SWAP3 POP PUSH2 0x2B4D JUMP JUMPDEST PUSH2 0x2B4A DUP2 PUSH1 0x1 PUSH2 0x3DF3 JUMP JUMPDEST SWAP4 POP JUMPDEST POP PUSH2 0x2AFE JUMP JUMPDEST POP SWAP4 SWAP3 POP POP POP JUMP JUMPDEST PUSH0 DUP1 PUSH1 0xF8 DUP4 SWAP1 SHR PUSH1 0x2F DUP2 GT DUP1 ISZERO PUSH2 0x2B75 JUMPI POP PUSH1 0x3A DUP2 PUSH1 0xFF AND LT JUMPDEST ISZERO PUSH2 0x2B8A JUMPI PUSH1 0x1 SWAP5 PUSH1 0x2F NOT SWAP1 SWAP2 ADD SWAP4 POP SWAP2 POP POP JUMP JUMPDEST DUP1 PUSH1 0xFF AND PUSH1 0x40 LT DUP1 ISZERO PUSH2 0x2BA0 JUMPI POP PUSH1 0x47 DUP2 PUSH1 0xFF AND LT JUMPDEST ISZERO PUSH2 0x2BB5 JUMPI PUSH1 0x1 SWAP5 PUSH1 0x36 NOT SWAP1 SWAP2 ADD SWAP4 POP SWAP2 POP POP JUMP JUMPDEST DUP1 PUSH1 0xFF AND PUSH1 0x60 LT DUP1 ISZERO PUSH2 0x2BCB JUMPI POP PUSH1 0x67 DUP2 PUSH1 0xFF AND LT JUMPDEST ISZERO PUSH2 0x2BE0 JUMPI PUSH1 0x1 SWAP5 PUSH1 0x56 NOT SWAP1 SWAP2 ADD SWAP4 POP SWAP2 POP POP JUMP JUMPDEST POP PUSH0 SWAP4 DUP5 SWAP4 POP SWAP2 POP POP JUMP JUMPDEST PUSH0 PUSH4 0xFFFFFFFF DUP3 GT ISZERO PUSH2 0x1AD3 JUMPI PUSH1 0x40 MLOAD PUSH4 0x6DFCC65 PUSH1 0xE4 SHL DUP2 MSTORE PUSH1 0x20 PUSH1 0x4 DUP3 ADD MSTORE PUSH1 0x24 DUP2 ADD DUP4 SWAP1 MSTORE PUSH1 0x44 ADD PUSH2 0xDD6 JUMP JUMPDEST PUSH1 0x60 PUSH1 0xFF DUP4 EQ PUSH2 0x2C35 JUMPI PUSH2 0x2C2E DUP4 PUSH2 0x30D2 JUMP JUMPDEST SWAP1 POP PUSH2 0xA28 JUMP JUMPDEST DUP2 DUP1 SLOAD PUSH2 0x2C41 SWAP1 PUSH2 0x3B2E JUMP JUMPDEST DUP1 PUSH1 0x1F ADD PUSH1 0x20 DUP1 SWAP2 DIV MUL PUSH1 0x20 ADD PUSH1 0x40 MLOAD SWAP1 DUP2 ADD PUSH1 0x40 MSTORE DUP1 SWAP3 SWAP2 SWAP1 DUP2 DUP2 MSTORE PUSH1 0x20 ADD DUP3 DUP1 SLOAD PUSH2 0x2C6D SWAP1 PUSH2 0x3B2E JUMP JUMPDEST DUP1 ISZERO PUSH2 0x2CB8 JUMPI DUP1 PUSH1 0x1F LT PUSH2 0x2C8F JUMPI PUSH2 0x100 DUP1 DUP4 SLOAD DIV MUL DUP4 MSTORE SWAP2 PUSH1 0x20 ADD SWAP2 PUSH2 0x2CB8 JUMP JUMPDEST DUP3 ADD SWAP2 SWAP1 PUSH0 MSTORE PUSH1 0x20 PUSH0 KECCAK256 SWAP1 JUMPDEST DUP2 SLOAD DUP2 MSTORE SWAP1 PUSH1 0x1 ADD SWAP1 PUSH1 0x20 ADD DUP1 DUP4 GT PUSH2 0x2C9B JUMPI DUP3 SWAP1 SUB PUSH1 0x1F AND DUP3 ADD SWAP2 JUMPDEST POP POP POP POP POP SWAP1 POP PUSH2 0xA28 JUMP JUMPDEST DUP1 MLOAD ISZERO PUSH2 0x2CD4 JUMPI DUP1 MLOAD DUP1 DUP3 PUSH1 0x20 ADD REVERT JUMPDEST PUSH1 0x40 MLOAD PUSH4 0xA12F521 PUSH1 0xE1 SHL DUP2 MSTORE PUSH1 0x4 ADD PUSH1 0x40 MLOAD DUP1 SWAP2 SUB SWAP1 REVERT JUMPDEST DUP3 SLOAD PUSH0 SWAP1 DUP2 SWAP1 DUP1 ISZERO PUSH2 0x2E09 JUMPI PUSH0 PUSH2 0x2D09 DUP8 PUSH2 0x1B57 PUSH1 0x1 DUP6 PUSH2 0x3C05 JUMP JUMPDEST PUSH1 0x40 DUP1 MLOAD DUP1 DUP3 ADD SWAP1 SWAP2 MSTORE SWAP1 SLOAD PUSH6 0xFFFFFFFFFFFF DUP1 DUP3 AND DUP1 DUP5 MSTORE PUSH1 0x1 PUSH1 0x30 SHL SWAP1 SWAP3 DIV PUSH1 0x1 PUSH1 0x1 PUSH1 0xD0 SHL SUB AND PUSH1 0x20 DUP5 ADD MSTORE SWAP2 SWAP3 POP SWAP1 DUP8 AND LT ISZERO PUSH2 0x2D5D JUMPI PUSH1 0x40 MLOAD PUSH4 0x2520601D PUSH1 0xE0 SHL DUP2 MSTORE PUSH1 0x4 ADD PUSH1 0x40 MLOAD DUP1 SWAP2 SUB SWAP1 REVERT JUMPDEST DUP1 MLOAD PUSH6 0xFFFFFFFFFFFF DUP1 DUP9 AND SWAP2 AND SUB PUSH2 0x2DA9 JUMPI DUP5 PUSH2 0x2D80 DUP9 PUSH2 0x1B57 PUSH1 0x1 DUP7 PUSH2 0x3C05 JUMP JUMPDEST DUP1 SLOAD PUSH1 0x1 PUSH1 0x1 PUSH1 0xD0 SHL SUB SWAP3 SWAP1 SWAP3 AND PUSH1 0x1 PUSH1 0x30 SHL MUL PUSH6 0xFFFFFFFFFFFF SWAP1 SWAP3 AND SWAP2 SWAP1 SWAP2 OR SWAP1 SSTORE PUSH2 0x2DF9 JUMP JUMPDEST PUSH1 0x40 DUP1 MLOAD DUP1 DUP3 ADD SWAP1 SWAP2 MSTORE PUSH6 0xFFFFFFFFFFFF DUP1 DUP9 AND DUP3 MSTORE PUSH1 0x1 PUSH1 0x1 PUSH1 0xD0 SHL SUB DUP1 DUP9 AND PUSH1 0x20 DUP1 DUP6 ADD SWAP2 DUP3 MSTORE DUP12 SLOAD PUSH1 0x1 DUP2 ADD DUP14 SSTORE PUSH0 DUP14 DUP2 MSTORE SWAP2 SWAP1 SWAP2 KECCAK256 SWAP5 MLOAD SWAP2 MLOAD SWAP1 SWAP3 AND PUSH1 0x1 PUSH1 0x30 SHL MUL SWAP3 AND SWAP2 SWAP1 SWAP2 OR SWAP2 ADD SSTORE JUMPDEST PUSH1 0x20 ADD MLOAD SWAP3 POP DUP4 SWAP2 POP PUSH2 0x22E5 SWAP1 POP JUMP JUMPDEST POP POP PUSH1 0x40 DUP1 MLOAD DUP1 DUP3 ADD SWAP1 SWAP2 MSTORE PUSH6 0xFFFFFFFFFFFF DUP1 DUP6 AND DUP3 MSTORE PUSH1 0x1 PUSH1 0x1 PUSH1 0xD0 SHL SUB DUP1 DUP6 AND PUSH1 0x20 DUP1 DUP6 ADD SWAP2 DUP3 MSTORE DUP9 SLOAD PUSH1 0x1 DUP2 ADD DUP11 SSTORE PUSH0 DUP11 DUP2 MSTORE SWAP2 DUP3 KECCAK256 SWAP6 MLOAD SWAP3 MLOAD SWAP1 SWAP4 AND PUSH1 0x1 PUSH1 0x30 SHL MUL SWAP2 SWAP1 SWAP4 AND OR SWAP3 ADD SWAP2 SWAP1 SWAP2 SSTORE SWAP1 POP DUP2 PUSH2 0x22E5 JUMP JUMPDEST PUSH0 DUP2 DUP2 MSTORE PUSH1 0x9 PUSH1 0x20 MSTORE PUSH1 0x40 DUP2 KECCAK256 PUSH1 0x2 DUP2 ADD SLOAD PUSH1 0x1 DUP3 ADD SLOAD PUSH2 0x2E84 SWAP2 SWAP1 PUSH2 0x3DF3 JUMP JUMPDEST PUSH2 0x2E90 PUSH2 0x98E DUP6 PUSH2 0xD48 JUMP JUMPDEST GT ISZERO SWAP4 SWAP3 POP POP POP JUMP JUMPDEST PUSH0 DUP1 PUSH2 0x2EA7 DUP7 DUP7 DUP7 DUP7 PUSH2 0x1509 JUMP JUMPDEST SWAP1 POP PUSH2 0x2EF5 DUP2 PUSH2 0x2EB7 PUSH1 0x7 PUSH2 0x16E5 JUMP JUMPDEST PUSH2 0x2EC1 PUSH1 0x6 PUSH2 0x16E5 JUMP JUMPDEST PUSH2 0x2ECB PUSH1 0x2 PUSH2 0x16E5 JUMP JUMPDEST PUSH1 0x1 PUSH2 0x2ED8 PUSH1 0x7 DUP3 PUSH2 0x4013 JUMP JUMPDEST PUSH2 0x2EE3 SWAP1 PUSH1 0x2 PUSH2 0x410C JUMP JUMPDEST PUSH2 0x2EED SWAP2 SWAP1 PUSH2 0x3C05 JUMP JUMPDEST XOR XOR XOR PUSH2 0x1707 JUMP JUMPDEST POP PUSH0 DUP2 DUP2 MSTORE PUSH1 0x4 PUSH1 0x20 MSTORE PUSH1 0x40 SWAP1 DUP2 SWAP1 KECCAK256 DUP1 SLOAD PUSH1 0x1 PUSH1 0x1 PUSH1 0xF8 SHL SUB AND PUSH1 0x1 PUSH1 0xF8 SHL OR SWAP1 SSTORE MLOAD PUSH32 0x789CF55BE980739DAD1D0699B93B58E806B51C9D96619BFA8FE0A28ABAA7B30C SWAP1 PUSH2 0xD37 SWAP1 DUP4 DUP2 MSTORE PUSH1 0x20 ADD SWAP1 JUMP JUMPDEST PUSH0 DUP1 DUP1 PUSH32 0x7FFFFFFFFFFFFFFFFFFFFFFFFFFFFFFF5D576E7357A4501DDFE92F46681B20A0 DUP5 GT ISZERO PUSH2 0x2F81 JUMPI POP PUSH0 SWAP2 POP PUSH1 0x3 SWAP1 POP DUP3 PUSH2 0x3006 JUMP JUMPDEST PUSH1 0x40 DUP1 MLOAD PUSH0 DUP1 DUP3 MSTORE PUSH1 0x20 DUP3 ADD DUP1 DUP5 MSTORE DUP11 SWAP1 MSTORE PUSH1 0xFF DUP10 AND SWAP3 DUP3 ADD SWAP3 SWAP1 SWAP3 MSTORE PUSH1 0x60 DUP2 ADD DUP8 SWAP1 MSTORE PUSH1 0x80 DUP2 ADD DUP7 SWAP1 MSTORE PUSH1 0x1 SWAP1 PUSH1 0xA0 ADD PUSH1 0x20 PUSH1 0x40 MLOAD PUSH1 0x20 DUP2 SUB SWAP1 DUP1 DUP5 SUB SWAP1 DUP6 GAS STATICCALL ISZERO DUP1 ISZERO PUSH2 0x2FD2 JUMPI RETURNDATASIZE PUSH0 DUP1 RETURNDATACOPY RETURNDATASIZE PUSH0 REVERT JUMPDEST POP POP PUSH1 0x40 MLOAD PUSH1 0x1F NOT ADD MLOAD SWAP2 POP POP PUSH1 0x1 PUSH1 0x1 PUSH1 0xA0 SHL SUB DUP2 AND PUSH2 0x2FFD JUMPI POP PUSH0 SWAP3 POP PUSH1 0x1 SWAP2 POP DUP3 SWAP1 POP PUSH2 0x3006 JUMP JUMPDEST SWAP3 POP PUSH0 SWAP2 POP DUP2 SWAP1 POP JUMPDEST SWAP5 POP SWAP5 POP SWAP5 SWAP2 POP POP JUMP JUMPDEST PUSH0 DUP1 PUSH1 0x80 DUP4 SWAP1 SHR ISZERO PUSH2 0x3024 JUMPI PUSH1 0x80 SWAP3 DUP4 SHR SWAP3 ADD JUMPDEST PUSH1 0x40 DUP4 SWAP1 SHR ISZERO PUSH2 0x3036 JUMPI PUSH1 0x40 SWAP3 DUP4 SHR SWAP3 ADD JUMPDEST PUSH1 0x20 DUP4 SWAP1 SHR ISZERO PUSH2 0x3048 JUMPI PUSH1 0x20 SWAP3 DUP4 SHR SWAP3 ADD JUMPDEST PUSH1 0x10 DUP4 SWAP1 SHR ISZERO PUSH2 0x305A JUMPI PUSH1 0x10 SWAP3 DUP4 SHR SWAP3 ADD JUMPDEST PUSH1 0x8 DUP4 SWAP1 SHR ISZERO PUSH2 0x306C JUMPI PUSH1 0x8 SWAP3 DUP4 SHR SWAP3 ADD JUMPDEST PUSH1 0x4 DUP4 SWAP1 SHR ISZERO PUSH2 0x307E JUMPI PUSH1 0x4 SWAP3 DUP4 SHR SWAP3 ADD JUMPDEST PUSH1 0x2 DUP4 SWAP1 SHR ISZERO PUSH2 0x3090 JUMPI PUSH1 0x2 SWAP3 DUP4 SHR SWAP3 ADD JUMPDEST PUSH1 0x1 DUP4 SWAP1 SHR ISZERO PUSH2 0xA28 JUMPI PUSH1 0x1 ADD SWAP3 SWAP2 POP POP JUMP JUMPDEST PUSH0 DUP2 DUP4 LT PUSH2 0x30B1 JUMPI DUP2 PUSH2 0x1572 JUMP JUMPDEST POP SWAP1 SWAP2 SWAP1 POP JUMP JUMPDEST PUSH0 PUSH2 0x30C6 PUSH1 0x2 DUP5 DUP5 XOR PUSH2 0x3F1D JUMP JUMPDEST PUSH2 0x1572 SWAP1 DUP5 DUP5 AND PUSH2 0x3DF3 JUMP JUMPDEST PUSH1 0x60 PUSH0 PUSH2 0x30DE DUP4 PUSH2 0x310F JUMP JUMPDEST PUSH1 0x40 DUP1 MLOAD PUSH1 0x20 DUP1 DUP3 MSTORE DUP2 DUP4 ADD SWAP1 SWAP3 MSTORE SWAP2 SWAP3 POP PUSH0 SWAP2 SWAP1 PUSH1 0x20 DUP3 ADD DUP2 DUP1 CALLDATASIZE DUP4 CALLDATACOPY POP POP POP SWAP2 DUP3 MSTORE POP PUSH1 0x20 DUP2 ADD SWAP3 SWAP1 SWAP3 MSTORE POP SWAP1 JUMP JUMPDEST PUSH0 PUSH1 0xFF DUP3 AND PUSH1 0x1F DUP2 GT ISZERO PUSH2 0xA28 JUMPI PUSH1 0x40 MLOAD PUSH4 0x2CD44AC3 PUSH1 0xE2 SHL DUP2 MSTORE PUSH1 0x4 ADD PUSH1 0x40 MLOAD DUP1 SWAP2 SUB SWAP1 REVERT JUMPDEST PUSH0 PUSH1 0x20 DUP3 DUP5 SUB SLT ISZERO PUSH2 0x3146 JUMPI PUSH0 DUP1 REVERT JUMPDEST DUP2 CALLDATALOAD PUSH1 0x1 PUSH1 0x1 PUSH1 0xE0 SHL SUB NOT DUP2 AND DUP2 EQ PUSH2 0x1572 JUMPI PUSH0 DUP1 REVERT JUMPDEST PUSH0 PUSH1 0x20 DUP3 DUP5 SUB SLT ISZERO PUSH2 0x316D JUMPI PUSH0 DUP1 REVERT JUMPDEST POP CALLDATALOAD SWAP2 SWAP1 POP JUMP JUMPDEST PUSH0 JUMPDEST DUP4 DUP2 LT ISZERO PUSH2 0x318E JUMPI DUP2 DUP2 ADD MLOAD DUP4 DUP3 ADD MSTORE PUSH1 0x20 ADD PUSH2 0x3176 JUMP JUMPDEST POP POP PUSH0 SWAP2 ADD MSTORE JUMP JUMPDEST PUSH0 DUP2 MLOAD DUP1 DUP5 MSTORE PUSH2 0x31AD DUP2 PUSH1 0x20 DUP7 ADD PUSH1 0x20 DUP7 ADD PUSH2 0x3174 JUMP JUMPDEST PUSH1 0x1F ADD PUSH1 0x1F NOT AND SWAP3 SWAP1 SWAP3 ADD PUSH1 0x20 ADD SWAP3 SWAP2 POP POP JUMP JUMPDEST PUSH1 0x20 DUP2 MSTORE PUSH0 PUSH2 0x1572 PUSH1 0x20 DUP4 ADD DUP5 PUSH2 0x3196 JUMP JUMPDEST PUSH1 0x1 PUSH1 0x1 PUSH1 0xA0 SHL SUB DUP2 AND DUP2 EQ PUSH2 0xA3F JUMPI PUSH0 DUP1 REVERT JUMPDEST PUSH4 0x4E487B71 PUSH1 0xE0 SHL PUSH0 MSTORE PUSH1 0x41 PUSH1 0x4 MSTORE PUSH1 0x24 PUSH0 REVERT JUMPDEST PUSH1 0x40 MLOAD PUSH1 0x1F DUP3 ADD PUSH1 0x1F NOT AND DUP2 ADD PUSH1 0x1 PUSH1 0x1 PUSH1 0x40 SHL SUB DUP2 GT DUP3 DUP3 LT OR ISZERO PUSH2 0x3223 JUMPI PUSH2 0x3223 PUSH2 0x31E7 JUMP JUMPDEST PUSH1 0x40 MSTORE SWAP2 SWAP1 POP JUMP JUMPDEST PUSH0 PUSH1 0x1 PUSH1 0x1 PUSH1 0x40 SHL SUB DUP3 GT ISZERO PUSH2 0x3243 JUMPI PUSH2 0x3243 PUSH2 0x31E7 JUMP JUMPDEST POP PUSH1 0x1F ADD PUSH1 0x1F NOT AND PUSH1 0x20 ADD SWAP1 JUMP JUMPDEST PUSH0 PUSH2 0x3263 PUSH2 0x325E DUP5 PUSH2 0x322B JUMP JUMPDEST PUSH2 0x31FB JUMP JUMPDEST SWAP1 POP DUP3 DUP2 MSTORE DUP4 DUP4 DUP4 ADD GT ISZERO PUSH2 0x3276 JUMPI PUSH0 DUP1 REVERT JUMPDEST DUP3 DUP3 PUSH1 0x20 DUP4 ADD CALLDATACOPY PUSH0 PUSH1 0x20 DUP5 DUP4 ADD ADD MSTORE SWAP4 SWAP3 POP POP POP JUMP JUMPDEST PUSH0 DUP3 PUSH1 0x1F DUP4 ADD SLT PUSH2 0x329B JUMPI PUSH0 DUP1 REVERT JUMPDEST PUSH2 0x1572 DUP4 DUP4 CALLDATALOAD PUSH1 0x20 DUP6 ADD PUSH2 0x3251 JUMP JUMPDEST PUSH0 DUP1 PUSH0 DUP1 PUSH1 0x80 DUP6 DUP8 SUB SLT ISZERO PUSH2 0x32BD JUMPI PUSH0 DUP1 REVERT JUMPDEST DUP5 CALLDATALOAD PUSH2 0x32C8 DUP2 PUSH2 0x31D3 JUMP JUMPDEST SWAP4 POP PUSH1 0x20 DUP6 ADD CALLDATALOAD PUSH2 0x32D8 DUP2 PUSH2 0x31D3 JUMP JUMPDEST SWAP3 POP PUSH1 0x40 DUP6 ADD CALLDATALOAD SWAP2 POP PUSH1 0x60 DUP6 ADD CALLDATALOAD PUSH1 0x1 PUSH1 0x1 PUSH1 0x40 SHL SUB DUP2 GT ISZERO PUSH2 0x32F9 JUMPI PUSH0 DUP1 REVERT JUMPDEST PUSH2 0x3305 DUP8 DUP3 DUP9 ADD PUSH2 0x328C JUMP JUMPDEST SWAP2 POP POP SWAP3 SWAP6 SWAP2 SWAP5 POP SWAP3 POP JUMP JUMPDEST PUSH0 PUSH1 0x1 PUSH1 0x1 PUSH1 0x40 SHL SUB DUP3 GT ISZERO PUSH2 0x3329 JUMPI PUSH2 0x3329 PUSH2 0x31E7 JUMP JUMPDEST POP PUSH1 0x5 SHL PUSH1 0x20 ADD SWAP1 JUMP JUMPDEST PUSH0 DUP3 PUSH1 0x1F DUP4 ADD SLT PUSH2 0x3342 JUMPI PUSH0 DUP1 REVERT JUMPDEST DUP2 CALLDATALOAD PUSH1 0x20 PUSH2 0x3352 PUSH2 0x325E DUP4 PUSH2 0x3311 JUMP JUMPDEST DUP1 DUP4 DUP3 MSTORE PUSH1 0x20 DUP3 ADD SWAP2 POP PUSH1 0x20 DUP5 PUSH1 0x5 SHL DUP8 ADD ADD SWAP4 POP DUP7 DUP5 GT ISZERO PUSH2 0x3373 JUMPI PUSH0 DUP1 REVERT JUMPDEST PUSH1 0x20 DUP7 ADD JUMPDEST DUP5 DUP2 LT ISZERO PUSH2 0x3398 JUMPI DUP1 CALLDATALOAD PUSH2 0x338B DUP2 PUSH2 0x31D3 JUMP JUMPDEST DUP4 MSTORE SWAP2 DUP4 ADD SWAP2 DUP4 ADD PUSH2 0x3378 JUMP JUMPDEST POP SWAP7 SWAP6 POP POP POP POP POP POP JUMP JUMPDEST PUSH0 DUP3 PUSH1 0x1F DUP4 ADD SLT PUSH2 0x33B2 JUMPI PUSH0 DUP1 REVERT JUMPDEST DUP2 CALLDATALOAD PUSH1 0x20 PUSH2 0x33C2 PUSH2 0x325E DUP4 PUSH2 0x3311 JUMP JUMPDEST DUP1 DUP4 DUP3 MSTORE PUSH1 0x20 DUP3 ADD SWAP2 POP PUSH1 0x20 DUP5 PUSH1 0x5 SHL DUP8 ADD ADD SWAP4 POP DUP7 DUP5 GT ISZERO PUSH2 0x33E3 JUMPI PUSH0 DUP1 REVERT JUMPDEST PUSH1 0x20 DUP7 ADD JUMPDEST DUP5 DUP2 LT ISZERO PUSH2 0x3398 JUMPI DUP1 CALLDATALOAD DUP4 MSTORE SWAP2 DUP4 ADD SWAP2 DUP4 ADD PUSH2 0x33E8 JUMP JUMPDEST PUSH0 DUP3 PUSH1 0x1F DUP4 ADD SLT PUSH2 0x340E JUMPI PUSH0 DUP1 REVERT JUMPDEST DUP2 CALLDATALOAD PUSH1 0x20 PUSH2 0x341E PUSH2 0x325E DUP4 PUSH2 0x3311 JUMP JUMPDEST DUP3 DUP2 MSTORE PUSH1 0x5 SWAP3 SWAP1 SWAP3 SHL DUP5 ADD DUP2 ADD SWAP2 DUP2 DUP2 ADD SWAP1 DUP7 DUP5 GT ISZERO PUSH2 0x343C JUMPI PUSH0 DUP1 REVERT JUMPDEST DUP3 DUP7 ADD JUMPDEST DUP5 DUP2 LT ISZERO PUSH2 0x3398 JUMPI DUP1 CALLDATALOAD PUSH1 0x1 PUSH1 0x1 PUSH1 0x40 SHL SUB DUP2 GT ISZERO PUSH2 0x345D JUMPI PUSH0 DUP1 REVERT JUMPDEST PUSH2 0x346B DUP10 DUP7 DUP4 DUP12 ADD ADD PUSH2 0x328C JUMP JUMPDEST DUP5 MSTORE POP SWAP2 DUP4 ADD SWAP2 DUP4 ADD PUSH2 0x3440 JUMP JUMPDEST PUSH0 DUP1 PUSH0 DUP1 PUSH1 0x80 DUP6 DUP8 SUB SLT ISZERO PUSH2 0x348C JUMPI PUSH0 DUP1 REVERT JUMPDEST DUP5 CALLDATALOAD PUSH1 0x1 PUSH1 0x1 PUSH1 0x40 SHL SUB DUP1 DUP3 GT ISZERO PUSH2 0x34A2 JUMPI PUSH0 DUP1 REVERT JUMPDEST PUSH2 0x34AE DUP9 DUP4 DUP10 ADD PUSH2 0x3333 JUMP JUMPDEST SWAP6 POP PUSH1 0x20 DUP8 ADD CALLDATALOAD SWAP2 POP DUP1 DUP3 GT ISZERO PUSH2 0x34C3 JUMPI PUSH0 DUP1 REVERT JUMPDEST PUSH2 0x34CF DUP9 DUP4 DUP10 ADD PUSH2 0x33A3 JUMP JUMPDEST SWAP5 POP PUSH1 0x40 DUP8 ADD CALLDATALOAD SWAP2 POP DUP1 DUP3 GT ISZERO PUSH2 0x34E4 JUMPI PUSH0 DUP1 REVERT JUMPDEST POP PUSH2 0x34F1 DUP8 DUP3 DUP9 ADD PUSH2 0x33FF JUMP JUMPDEST SWAP5 SWAP8 SWAP4 SWAP7 POP SWAP4 SWAP5 PUSH1 0x60 ADD CALLDATALOAD SWAP4 POP POP POP JUMP JUMPDEST PUSH4 0x4E487B71 PUSH1 0xE0 SHL PUSH0 MSTORE PUSH1 0x21 PUSH1 0x4 MSTORE PUSH1 0x24 PUSH0 REVERT JUMPDEST PUSH1 0x8 DUP2 LT PUSH2 0x3532 JUMPI PUSH4 0x4E487B71 PUSH1 0xE0 SHL PUSH0 MSTORE PUSH1 0x21 PUSH1 0x4 MSTORE PUSH1 0x24 PUSH0 REVERT JUMPDEST SWAP1 MSTORE JUMP JUMPDEST PUSH1 0x20 DUP2 ADD PUSH2 0xA28 DUP3 DUP5 PUSH2 0x3516 JUMP JUMPDEST PUSH0 DUP1 PUSH1 0x40 DUP4 DUP6 SUB SLT ISZERO PUSH2 0x3555 JUMPI PUSH0 DUP1 REVERT JUMPDEST DUP3 CALLDATALOAD SWAP2 POP PUSH1 0x20 DUP4 ADD CALLDATALOAD PUSH2 0x3567 DUP2 PUSH2 0x31D3 JUMP JUMPDEST DUP1 SWAP2 POP POP SWAP3 POP SWAP3 SWAP1 POP JUMP JUMPDEST DUP1 CALLDATALOAD PUSH1 0xFF DUP2 AND DUP2 EQ PUSH2 0xEB0 JUMPI PUSH0 DUP1 REVERT JUMPDEST PUSH0 DUP1 PUSH1 0x40 DUP4 DUP6 SUB SLT ISZERO PUSH2 0x3593 JUMPI PUSH0 DUP1 REVERT JUMPDEST DUP3 CALLDATALOAD SWAP2 POP PUSH2 0x35A3 PUSH1 0x20 DUP5 ADD PUSH2 0x3572 JUMP JUMPDEST SWAP1 POP SWAP3 POP SWAP3 SWAP1 POP JUMP JUMPDEST PUSH0 DUP1 DUP4 PUSH1 0x1F DUP5 ADD SLT PUSH2 0x35BC JUMPI PUSH0 DUP1 REVERT JUMPDEST POP DUP2 CALLDATALOAD PUSH1 0x1 PUSH1 0x1 PUSH1 0x40 SHL SUB DUP2 GT ISZERO PUSH2 0x35D2 JUMPI PUSH0 DUP1 REVERT JUMPDEST PUSH1 0x20 DUP4 ADD SWAP2 POP DUP4 PUSH1 0x20 DUP3 DUP6 ADD ADD GT ISZERO PUSH2 0x35E9 JUMPI PUSH0 DUP1 REVERT JUMPDEST SWAP3 POP SWAP3 SWAP1 POP JUMP JUMPDEST PUSH0 DUP1 PUSH0 DUP1 PUSH0 DUP1 PUSH0 PUSH1 0xC0 DUP9 DUP11 SUB SLT ISZERO PUSH2 0x3606 JUMPI PUSH0 DUP1 REVERT JUMPDEST DUP8 CALLDATALOAD SWAP7 POP PUSH2 0x3616 PUSH1 0x20 DUP10 ADD PUSH2 0x3572 JUMP JUMPDEST SWAP6 POP PUSH1 0x40 DUP9 ADD CALLDATALOAD PUSH2 0x3626 DUP2 PUSH2 0x31D3 JUMP JUMPDEST SWAP5 POP PUSH1 0x60 DUP9 ADD CALLDATALOAD PUSH1 0x1 PUSH1 0x1 PUSH1 0x40 SHL SUB DUP1 DUP3 GT ISZERO PUSH2 0x3641 JUMPI PUSH0 DUP1 REVERT JUMPDEST PUSH2 0x364D DUP12 DUP4 DUP13 ADD PUSH2 0x35AC JUMP JUMPDEST SWAP1 SWAP7 POP SWAP5 POP PUSH1 0x80 DUP11 ADD CALLDATALOAD SWAP2 POP DUP1 DUP3 GT ISZERO PUSH2 0x3665 JUMPI PUSH0 DUP1 REVERT JUMPDEST PUSH2 0x3671 DUP12 DUP4 DUP13 ADD PUSH2 0x328C JUMP JUMPDEST SWAP4 POP PUSH1 0xA0 DUP11 ADD CALLDATALOAD SWAP2 POP DUP1 DUP3 GT ISZERO PUSH2 0x3686 JUMPI PUSH0 DUP1 REVERT JUMPDEST POP PUSH2 0x3693 DUP11 DUP3 DUP12 ADD PUSH2 0x328C JUMP JUMPDEST SWAP2 POP POP SWAP3 SWAP6 SWAP9 SWAP2 SWAP5 SWAP8 POP SWAP3 SWAP6 POP JUMP JUMPDEST PUSH0 DUP1 PUSH0 DUP1 PUSH0 PUSH1 0x80 DUP7 DUP9 SUB SLT ISZERO PUSH2 0x36B6 JUMPI PUSH0 DUP1 REVERT JUMPDEST DUP6 CALLDATALOAD SWAP5 POP PUSH2 0x36C6 PUSH1 0x20 DUP8 ADD PUSH2 0x3572 JUMP JUMPDEST SWAP4 POP PUSH1 0x40 DUP7 ADD CALLDATALOAD PUSH1 0x1 PUSH1 0x1 PUSH1 0x40 SHL SUB DUP1 DUP3 GT ISZERO PUSH2 0x36E1 JUMPI PUSH0 DUP1 REVERT JUMPDEST PUSH2 0x36ED DUP10 DUP4 DUP11 ADD PUSH2 0x35AC JUMP JUMPDEST SWAP1 SWAP6 POP SWAP4 POP PUSH1 0x60 DUP9 ADD CALLDATALOAD SWAP2 POP DUP1 DUP3 GT ISZERO PUSH2 0x3705 JUMPI PUSH0 DUP1 REVERT JUMPDEST POP PUSH2 0x3712 DUP9 DUP3 DUP10 ADD PUSH2 0x328C JUMP JUMPDEST SWAP2 POP POP SWAP3 SWAP6 POP SWAP3 SWAP6 SWAP1 SWAP4 POP JUMP JUMPDEST PUSH6 0xFFFFFFFFFFFF DUP2 AND DUP2 EQ PUSH2 0xA3F JUMPI PUSH0 DUP1 REVERT JUMPDEST PUSH0 PUSH1 0x20 DUP3 DUP5 SUB SLT ISZERO PUSH2 0x3742 JUMPI PUSH0 DUP1 REVERT JUMPDEST DUP2 CALLDATALOAD PUSH2 0x1572 DUP2 PUSH2 0x371F JUMP JUMPDEST PUSH0 DUP1 PUSH0 DUP1 PUSH1 0x60 DUP6 DUP8 SUB SLT ISZERO PUSH2 0x3760 JUMPI PUSH0 DUP1 REVERT JUMPDEST DUP5 CALLDATALOAD SWAP4 POP PUSH2 0x3770 PUSH1 0x20 DUP7 ADD PUSH2 0x3572 JUMP JUMPDEST SWAP3 POP PUSH1 0x40 DUP6 ADD CALLDATALOAD PUSH1 0x1 PUSH1 0x1 PUSH1 0x40 SHL SUB DUP2 GT ISZERO PUSH2 0x378A JUMPI PUSH0 DUP1 REVERT JUMPDEST PUSH2 0x3796 DUP8 DUP3 DUP9 ADD PUSH2 0x35AC JUMP JUMPDEST SWAP6 SWAP9 SWAP5 SWAP8 POP SWAP6 POP POP POP POP JUMP JUMPDEST PUSH0 DUP1 PUSH0 DUP1 PUSH1 0x80 DUP6 DUP8 SUB SLT ISZERO PUSH2 0x37B5 JUMPI PUSH0 DUP1 REVERT JUMPDEST DUP5 CALLDATALOAD PUSH1 0x1 PUSH1 0x1 PUSH1 0x40 SHL SUB DUP1 DUP3 GT ISZERO PUSH2 0x37CB JUMPI PUSH0 DUP1 REVERT JUMPDEST PUSH2 0x37D7 DUP9 DUP4 DUP10 ADD PUSH2 0x3333 JUMP JUMPDEST SWAP6 POP PUSH1 0x20 DUP8 ADD CALLDATALOAD SWAP2 POP DUP1 DUP3 GT ISZERO PUSH2 0x37EC JUMPI PUSH0 DUP1 REVERT JUMPDEST PUSH2 0x37F8 DUP9 DUP4 DUP10 ADD PUSH2 0x33A3 JUMP JUMPDEST SWAP5 POP PUSH1 0x40 DUP8 ADD CALLDATALOAD SWAP2 POP DUP1 DUP3 GT ISZERO PUSH2 0x380D JUMPI PUSH0 DUP1 REVERT JUMPDEST PUSH2 0x3819 DUP9 DUP4 DUP10 ADD PUSH2 0x33FF JUMP JUMPDEST SWAP4 POP PUSH1 0x60 DUP8 ADD CALLDATALOAD SWAP2 POP DUP1 DUP3 GT ISZERO PUSH2 0x382E JUMPI PUSH0 DUP1 REVERT JUMPDEST POP DUP6 ADD PUSH1 0x1F DUP2 ADD DUP8 SGT PUSH2 0x383F JUMPI PUSH0 DUP1 REVERT JUMPDEST PUSH2 0x3305 DUP8 DUP3 CALLDATALOAD PUSH1 0x20 DUP5 ADD PUSH2 0x3251 JUMP JUMPDEST PUSH0 PUSH1 0x20 DUP3 DUP5 SUB SLT ISZERO PUSH2 0x385E JUMPI PUSH0 DUP1 REVERT JUMPDEST DUP2 CALLDATALOAD PUSH2 0x1572 DUP2 PUSH2 0x31D3 JUMP JUMPDEST PUSH0 DUP2 MLOAD DUP1 DUP5 MSTORE PUSH1 0x20 DUP1 DUP6 ADD SWAP5 POP PUSH1 0x20 DUP5 ADD PUSH0 JUMPDEST DUP4 DUP2 LT ISZERO PUSH2 0x3898 JUMPI DUP2 MLOAD DUP8 MSTORE SWAP6 DUP3 ADD SWAP6 SWAP1 DUP3 ADD SWAP1 PUSH1 0x1 ADD PUSH2 0x387C JUMP JUMPDEST POP SWAP5 SWAP6 SWAP5 POP POP POP POP POP JUMP JUMPDEST PUSH1 0xFF PUSH1 0xF8 SHL DUP9 AND DUP2 MSTORE PUSH1 0xE0 PUSH1 0x20 DUP3 ADD MSTORE PUSH0 PUSH2 0x38C1 PUSH1 0xE0 DUP4 ADD DUP10 PUSH2 0x3196 JUMP JUMPDEST DUP3 DUP2 SUB PUSH1 0x40 DUP5 ADD MSTORE PUSH2 0x38D3 DUP2 DUP10 PUSH2 0x3196 JUMP JUMPDEST PUSH1 0x60 DUP5 ADD DUP9 SWAP1 MSTORE PUSH1 0x1 PUSH1 0x1 PUSH1 0xA0 SHL SUB DUP8 AND PUSH1 0x80 DUP6 ADD MSTORE PUSH1 0xA0 DUP5 ADD DUP7 SWAP1 MSTORE DUP4 DUP2 SUB PUSH1 0xC0 DUP6 ADD MSTORE SWAP1 POP PUSH2 0x3904 DUP2 DUP6 PUSH2 0x3869 JUMP JUMPDEST SWAP11 SWAP10 POP POP POP POP POP POP POP POP POP POP JUMP JUMPDEST PUSH0 DUP1 PUSH0 DUP1 PUSH1 0x80 DUP6 DUP8 SUB SLT ISZERO PUSH2 0x3925 JUMPI PUSH0 DUP1 REVERT JUMPDEST DUP5 CALLDATALOAD SWAP4 POP PUSH2 0x3935 PUSH1 0x20 DUP7 ADD PUSH2 0x3572 JUMP JUMPDEST SWAP3 POP PUSH1 0x40 DUP6 ADD CALLDATALOAD PUSH2 0x3945 DUP2 PUSH2 0x31D3 JUMP JUMPDEST SWAP2 POP PUSH1 0x60 DUP6 ADD CALLDATALOAD PUSH1 0x1 PUSH1 0x1 PUSH1 0x40 SHL SUB DUP2 GT ISZERO PUSH2 0x32F9 JUMPI PUSH0 DUP1 REVERT JUMPDEST PUSH0 DUP1 PUSH0 PUSH1 0x60 DUP5 DUP7 SUB SLT ISZERO PUSH2 0x3971 JUMPI PUSH0 DUP1 REVERT JUMPDEST DUP4 CALLDATALOAD PUSH2 0x397C DUP2 PUSH2 0x31D3 JUMP JUMPDEST SWAP3 POP PUSH1 0x20 DUP5 ADD CALLDATALOAD SWAP2 POP PUSH1 0x40 DUP5 ADD CALLDATALOAD PUSH1 0x1 PUSH1 0x1 PUSH1 0x40 SHL SUB DUP2 GT ISZERO PUSH2 0x399D JUMPI PUSH0 DUP1 REVERT JUMPDEST PUSH2 0x39A9 DUP7 DUP3 DUP8 ADD PUSH2 0x328C JUMP JUMPDEST SWAP2 POP POP SWAP3 POP SWAP3 POP SWAP3 JUMP JUMPDEST PUSH0 DUP1 PUSH0 DUP1 PUSH0 PUSH1 0xA0 DUP7 DUP9 SUB SLT ISZERO PUSH2 0x39C7 JUMPI PUSH0 DUP1 REVERT JUMPDEST DUP6 CALLDATALOAD PUSH2 0x39D2 DUP2 PUSH2 0x31D3 JUMP JUMPDEST SWAP5 POP PUSH1 0x20 DUP7 ADD CALLDATALOAD PUSH2 0x39E2 DUP2 PUSH2 0x31D3 JUMP JUMPDEST SWAP4 POP PUSH1 0x40 DUP7 ADD CALLDATALOAD PUSH1 0x1 PUSH1 0x1 PUSH1 0x40 SHL SUB DUP1 DUP3 GT ISZERO PUSH2 0x39FD JUMPI PUSH0 DUP1 REVERT JUMPDEST PUSH2 0x3A09 DUP10 DUP4 DUP11 ADD PUSH2 0x33A3 JUMP JUMPDEST SWAP5 POP PUSH1 0x60 DUP9 ADD CALLDATALOAD SWAP2 POP DUP1 DUP3 GT ISZERO PUSH2 0x3A1E JUMPI PUSH0 DUP1 REVERT JUMPDEST PUSH2 0x3A2A DUP10 DUP4 DUP11 ADD PUSH2 0x33A3 JUMP JUMPDEST SWAP4 POP PUSH1 0x80 DUP9 ADD CALLDATALOAD SWAP2 POP DUP1 DUP3 GT ISZERO PUSH2 0x3705 JUMPI PUSH0 DUP1 REVERT JUMPDEST PUSH0 DUP1 PUSH0 DUP1 PUSH1 0x60 DUP6 DUP8 SUB SLT ISZERO PUSH2 0x3A52 JUMPI PUSH0 DUP1 REVERT JUMPDEST DUP5 CALLDATALOAD PUSH2 0x3A5D DUP2 PUSH2 0x31D3 JUMP JUMPDEST SWAP4 POP PUSH1 0x20 DUP6 ADD CALLDATALOAD SWAP3 POP PUSH1 0x40 DUP6 ADD CALLDATALOAD PUSH1 0x1 PUSH1 0x1 PUSH1 0x40 SHL SUB DUP2 GT ISZERO PUSH2 0x378A JUMPI PUSH0 DUP1 REVERT JUMPDEST PUSH0 PUSH1 0x20 DUP3 DUP5 SUB SLT ISZERO PUSH2 0x3A8E JUMPI PUSH0 DUP1 REVERT JUMPDEST DUP2 CALLDATALOAD PUSH4 0xFFFFFFFF DUP2 AND DUP2 EQ PUSH2 0x1572 JUMPI PUSH0 DUP1 REVERT JUMPDEST PUSH0 DUP1 PUSH1 0x40 DUP4 DUP6 SUB SLT ISZERO PUSH2 0x3AB2 JUMPI PUSH0 DUP1 REVERT JUMPDEST DUP3 CALLDATALOAD PUSH2 0x3ABD DUP2 PUSH2 0x31D3 JUMP JUMPDEST SWAP5 PUSH1 0x20 SWAP4 SWAP1 SWAP4 ADD CALLDATALOAD SWAP4 POP POP POP JUMP JUMPDEST PUSH0 DUP1 PUSH0 DUP1 PUSH0 PUSH1 0xA0 DUP7 DUP9 SUB SLT ISZERO PUSH2 0x3ADF JUMPI PUSH0 DUP1 REVERT JUMPDEST DUP6 CALLDATALOAD PUSH2 0x3AEA DUP2 PUSH2 0x31D3 JUMP JUMPDEST SWAP5 POP PUSH1 0x20 DUP7 ADD CALLDATALOAD PUSH2 0x3AFA DUP2 PUSH2 0x31D3 JUMP JUMPDEST SWAP4 POP PUSH1 0x40 DUP7 ADD CALLDATALOAD SWAP3 POP PUSH1 0x60 DUP7 ADD CALLDATALOAD SWAP2 POP PUSH1 0x80 DUP7 ADD CALLDATALOAD PUSH1 0x1 PUSH1 0x1 PUSH1 0x40 SHL SUB DUP2 GT ISZERO PUSH2 0x3B22 JUMPI PUSH0 DUP1 REVERT JUMPDEST PUSH2 0x3712 DUP9 DUP3 DUP10 ADD PUSH2 0x328C JUMP JUMPDEST PUSH1 0x1 DUP2 DUP2 SHR SWAP1 DUP3 AND DUP1 PUSH2 0x3B42 JUMPI PUSH1 0x7F DUP3 AND SWAP2 POP JUMPDEST PUSH1 0x20 DUP3 LT DUP2 SUB PUSH2 0x3B60 JUMPI PUSH4 0x4E487B71 PUSH1 0xE0 SHL PUSH0 MSTORE PUSH1 0x22 PUSH1 0x4 MSTORE PUSH1 0x24 PUSH0 REVERT JUMPDEST POP SWAP2 SWAP1 POP JUMP JUMPDEST PUSH4 0x4E487B71 PUSH1 0xE0 SHL PUSH0 MSTORE PUSH1 0x32 PUSH1 0x4 MSTORE PUSH1 0x24 PUSH0 REVERT JUMPDEST PUSH0 PUSH1 0x20 DUP3 DUP5 SUB SLT ISZERO PUSH2 0x3B8A JUMPI PUSH0 DUP1 REVERT JUMPDEST DUP2 MLOAD PUSH1 0x1 PUSH1 0x1 PUSH1 0x40 SHL SUB DUP2 GT ISZERO PUSH2 0x3B9F JUMPI PUSH0 DUP1 REVERT JUMPDEST DUP3 ADD PUSH1 0x1F DUP2 ADD DUP5 SGT PUSH2 0x3BAF JUMPI PUSH0 DUP1 REVERT JUMPDEST DUP1 MLOAD PUSH2 0x3BBD PUSH2 0x325E DUP3 PUSH2 0x322B JUMP JUMPDEST DUP2 DUP2 MSTORE DUP6 PUSH1 0x20 DUP4 DUP6 ADD ADD GT ISZERO PUSH2 0x3BD1 JUMPI PUSH0 DUP1 REVERT JUMPDEST PUSH2 0x191C DUP3 PUSH1 0x20 DUP4 ADD PUSH1 0x20 DUP7 ADD PUSH2 0x3174 JUMP JUMPDEST DUP2 DUP4 DUP3 CALLDATACOPY PUSH0 SWAP2 ADD SWAP1 DUP2 MSTORE SWAP2 SWAP1 POP JUMP JUMPDEST PUSH4 0x4E487B71 PUSH1 0xE0 SHL PUSH0 MSTORE PUSH1 0x11 PUSH1 0x4 MSTORE PUSH1 0x24 PUSH0 REVERT JUMPDEST DUP2 DUP2 SUB DUP2 DUP2 GT ISZERO PUSH2 0xA28 JUMPI PUSH2 0xA28 PUSH2 0x3BF1 JUMP JUMPDEST PUSH6 0xFFFFFFFFFFFF DUP3 DUP2 AND DUP3 DUP3 AND SUB SWAP1 DUP1 DUP3 GT ISZERO PUSH2 0x3C37 JUMPI PUSH2 0x3C37 PUSH2 0x3BF1 JUMP JUMPDEST POP SWAP3 SWAP2 POP POP JUMP JUMPDEST PUSH0 PUSH1 0x20 DUP3 DUP5 SUB SLT ISZERO PUSH2 0x3C4E JUMPI PUSH0 DUP1 REVERT JUMPDEST DUP2 MLOAD PUSH2 0x1572 DUP2 PUSH2 0x371F JUMP JUMPDEST PUSH6 0xFFFFFFFFFFFF DUP2 DUP2 AND DUP4 DUP3 AND ADD SWAP1 DUP1 DUP3 GT ISZERO PUSH2 0x3C37 JUMPI PUSH2 0x3C37 PUSH2 0x3BF1 JUMP JUMPDEST PUSH0 DUP2 MLOAD DUP1 DUP5 MSTORE PUSH1 0x20 DUP1 DUP6 ADD SWAP5 POP PUSH1 0x20 DUP5 ADD PUSH0 JUMPDEST DUP4 DUP2 LT ISZERO PUSH2 0x3898 JUMPI DUP2 MLOAD PUSH1 0x1 PUSH1 0x1 PUSH1 0xA0 SHL SUB AND DUP8 MSTORE SWAP6 DUP3 ADD SWAP6 SWAP1 DUP3 ADD SWAP1 PUSH1 0x1 ADD PUSH2 0x3C8B JUMP JUMPDEST PUSH0 DUP3 DUP3 MLOAD DUP1 DUP6 MSTORE PUSH1 0x20 DUP1 DUP7 ADD SWAP6 POP PUSH1 0x20 DUP3 PUSH1 0x5 SHL DUP5 ADD ADD PUSH1 0x20 DUP7 ADD PUSH0 JUMPDEST DUP5 DUP2 LT ISZERO PUSH2 0x3CFB JUMPI PUSH1 0x1F NOT DUP7 DUP5 SUB ADD DUP10 MSTORE PUSH2 0x3CE9 DUP4 DUP4 MLOAD PUSH2 0x3196 JUMP JUMPDEST SWAP9 DUP5 ADD SWAP9 SWAP3 POP SWAP1 DUP4 ADD SWAP1 PUSH1 0x1 ADD PUSH2 0x3CCD JUMP JUMPDEST POP SWAP1 SWAP8 SWAP7 POP POP POP POP POP POP POP JUMP JUMPDEST PUSH1 0x80 DUP2 MSTORE PUSH0 PUSH2 0x3D1A PUSH1 0x80 DUP4 ADD DUP8 PUSH2 0x3C78 JUMP JUMPDEST DUP3 DUP2 SUB PUSH1 0x20 DUP5 ADD MSTORE PUSH2 0x3D2C DUP2 DUP8 PUSH2 0x3869 JUMP JUMPDEST SWAP1 POP DUP3 DUP2 SUB PUSH1 0x40 DUP5 ADD MSTORE PUSH2 0x3D40 DUP2 DUP7 PUSH2 0x3CB0 JUMP JUMPDEST SWAP2 POP POP DUP3 PUSH1 0x60 DUP4 ADD MSTORE SWAP6 SWAP5 POP POP POP POP POP JUMP JUMPDEST DUP4 DUP2 MSTORE PUSH1 0x60 DUP2 ADD PUSH2 0x3D66 PUSH1 0x20 DUP4 ADD DUP6 PUSH2 0x3516 JUMP JUMPDEST DUP3 PUSH1 0x40 DUP4 ADD MSTORE SWAP5 SWAP4 POP POP POP POP JUMP JUMPDEST PUSH0 PUSH1 0x20 DUP3 DUP5 SUB SLT ISZERO PUSH2 0x3D84 JUMPI PUSH0 DUP1 REVERT JUMPDEST DUP2 MLOAD DUP1 ISZERO ISZERO DUP2 EQ PUSH2 0x1572 JUMPI PUSH0 DUP1 REVERT JUMPDEST DUP5 DUP2 MSTORE PUSH1 0xFF DUP5 AND PUSH1 0x20 DUP3 ADD MSTORE DUP3 PUSH1 0x40 DUP3 ADD MSTORE PUSH1 0x80 PUSH1 0x60 DUP3 ADD MSTORE PUSH0 PUSH2 0xDEB PUSH1 0x80 DUP4 ADD DUP5 PUSH2 0x3196 JUMP JUMPDEST DUP6 DUP2 MSTORE PUSH1 0xFF DUP6 AND PUSH1 0x20 DUP3 ADD MSTORE DUP4 PUSH1 0x40 DUP3 ADD MSTORE PUSH1 0xA0 PUSH1 0x60 DUP3 ADD MSTORE PUSH0 PUSH2 0x3DE1 PUSH1 0xA0 DUP4 ADD DUP6 PUSH2 0x3196 JUMP JUMPDEST DUP3 DUP2 SUB PUSH1 0x80 DUP5 ADD MSTORE PUSH2 0x121C DUP2 DUP6 PUSH2 0x3196 JUMP JUMPDEST DUP1 DUP3 ADD DUP1 DUP3 GT ISZERO PUSH2 0xA28 JUMPI PUSH2 0xA28 PUSH2 0x3BF1 JUMP JUMPDEST PUSH0 PUSH2 0x120 DUP12 DUP4 MSTORE PUSH1 0x20 PUSH1 0x1 DUP1 PUSH1 0xA0 SHL SUB DUP13 AND DUP2 DUP6 ADD MSTORE DUP2 PUSH1 0x40 DUP6 ADD MSTORE PUSH2 0x3E2E DUP3 DUP6 ADD DUP13 PUSH2 0x3C78 JUMP JUMPDEST SWAP2 POP DUP4 DUP3 SUB PUSH1 0x60 DUP6 ADD MSTORE PUSH2 0x3E42 DUP3 DUP12 PUSH2 0x3869 JUMP JUMPDEST SWAP2 POP DUP4 DUP3 SUB PUSH1 0x80 DUP6 ADD MSTORE DUP2 DUP10 MLOAD DUP1 DUP5 MSTORE DUP3 DUP5 ADD SWAP2 POP DUP3 DUP2 PUSH1 0x5 SHL DUP6 ADD ADD DUP4 DUP13 ADD PUSH0 JUMPDEST DUP4 DUP2 LT ISZERO PUSH2 0x3E92 JUMPI PUSH1 0x1F NOT DUP8 DUP5 SUB ADD DUP6 MSTORE PUSH2 0x3E80 DUP4 DUP4 MLOAD PUSH2 0x3196 JUMP JUMPDEST SWAP5 DUP7 ADD SWAP5 SWAP3 POP SWAP1 DUP6 ADD SWAP1 PUSH1 0x1 ADD PUSH2 0x3E64 JUMP JUMPDEST POP POP DUP7 DUP2 SUB PUSH1 0xA0 DUP9 ADD MSTORE PUSH2 0x3EA6 DUP2 DUP13 PUSH2 0x3CB0 JUMP JUMPDEST SWAP5 POP POP POP POP POP DUP6 PUSH1 0xC0 DUP5 ADD MSTORE DUP5 PUSH1 0xE0 DUP5 ADD MSTORE DUP3 DUP2 SUB PUSH2 0x100 DUP5 ADD MSTORE PUSH2 0x3ECB DUP2 DUP6 PUSH2 0x3196 JUMP JUMPDEST SWAP13 SWAP12 POP POP POP POP POP POP POP POP POP POP POP POP JUMP JUMPDEST PUSH0 PUSH1 0x20 DUP3 DUP5 SUB SLT ISZERO PUSH2 0x3EEB JUMPI PUSH0 DUP1 REVERT JUMPDEST POP MLOAD SWAP2 SWAP1 POP JUMP JUMPDEST DUP1 DUP3 MUL DUP2 ISZERO DUP3 DUP3 DIV DUP5 EQ OR PUSH2 0xA28 JUMPI PUSH2 0xA28 PUSH2 0x3BF1 JUMP JUMPDEST PUSH4 0x4E487B71 PUSH1 0xE0 SHL PUSH0 MSTORE PUSH1 0x12 PUSH1 0x4 MSTORE PUSH1 0x24 PUSH0 REVERT JUMPDEST PUSH0 DUP3 PUSH2 0x3F37 JUMPI PUSH4 0x4E487B71 PUSH1 0xE0 SHL PUSH0 MSTORE PUSH1 0x12 PUSH1 0x4 MSTORE PUSH1 0x24 PUSH0 REVERT JUMPDEST POP DIV SWAP1 JUMP JUMPDEST PUSH1 0xA0 DUP2 MSTORE PUSH0 PUSH2 0x3F4E PUSH1 0xA0 DUP4 ADD DUP9 PUSH2 0x3C78 JUMP JUMPDEST DUP3 DUP2 SUB PUSH1 0x20 DUP5 ADD MSTORE PUSH2 0x3F60 DUP2 DUP9 PUSH2 0x3869 JUMP JUMPDEST SWAP1 POP DUP3 DUP2 SUB PUSH1 0x40 DUP5 ADD MSTORE PUSH2 0x3F74 DUP2 DUP8 PUSH2 0x3CB0 JUMP JUMPDEST PUSH1 0x60 DUP5 ADD SWAP6 SWAP1 SWAP6 MSTORE POP POP PUSH1 0x80 ADD MSTORE SWAP4 SWAP3 POP POP POP JUMP JUMPDEST PUSH1 0xC0 DUP2 MSTORE PUSH0 PUSH2 0x3F9B PUSH1 0xC0 DUP4 ADD DUP10 PUSH2 0x3C78 JUMP JUMPDEST DUP3 DUP2 SUB PUSH1 0x20 DUP5 ADD MSTORE PUSH2 0x3FAD DUP2 DUP10 PUSH2 0x3869 JUMP JUMPDEST SWAP1 POP DUP3 DUP2 SUB PUSH1 0x40 DUP5 ADD MSTORE PUSH2 0x3FC1 DUP2 DUP9 PUSH2 0x3CB0 JUMP JUMPDEST PUSH1 0x60 DUP5 ADD SWAP7 SWAP1 SWAP7 MSTORE POP POP PUSH1 0x80 DUP2 ADD SWAP3 SWAP1 SWAP3 MSTORE PUSH1 0xA0 SWAP1 SWAP2 ADD MSTORE SWAP4 SWAP3 POP POP POP JUMP JUMPDEST DUP3 DUP2 MSTORE PUSH1 0x40 PUSH1 0x20 DUP3 ADD MSTORE PUSH0 PUSH2 0xED4 PUSH1 0x40 DUP4 ADD DUP5 PUSH2 0x3196 JUMP JUMPDEST PUSH0 DUP3 MLOAD PUSH2 0x4009 DUP2 DUP5 PUSH1 0x20 DUP8 ADD PUSH2 0x3174 JUMP JUMPDEST SWAP2 SWAP1 SWAP2 ADD SWAP3 SWAP2 POP POP JUMP JUMPDEST PUSH1 0xFF DUP2 DUP2 AND DUP4 DUP3 AND ADD SWAP1 DUP2 GT ISZERO PUSH2 0xA28 JUMPI PUSH2 0xA28 PUSH2 0x3BF1 JUMP JUMPDEST PUSH1 0x1 DUP2 DUP2 JUMPDEST DUP1 DUP6 GT ISZERO PUSH2 0x4066 JUMPI DUP2 PUSH0 NOT DIV DUP3 GT ISZERO PUSH2 0x404C JUMPI PUSH2 0x404C PUSH2 0x3BF1 JUMP JUMPDEST DUP1 DUP6 AND ISZERO PUSH2 0x4059 JUMPI SWAP2 DUP2 MUL SWAP2 JUMPDEST SWAP4 DUP5 SHR SWAP4 SWAP1 DUP1 MUL SWAP1 PUSH2 0x4031 JUMP JUMPDEST POP SWAP3 POP SWAP3 SWAP1 POP JUMP JUMPDEST PUSH0 DUP3 PUSH2 0x407C JUMPI POP PUSH1 0x1 PUSH2 0xA28 JUMP JUMPDEST DUP2 PUSH2 0x4088 JUMPI POP PUSH0 PUSH2 0xA28 JUMP JUMPDEST DUP2 PUSH1 0x1 DUP2 EQ PUSH2 0x409E JUMPI PUSH1 0x2 DUP2 EQ PUSH2 0x40A8 JUMPI PUSH2 0x40C4 JUMP JUMPDEST PUSH1 0x1 SWAP2 POP POP PUSH2 0xA28 JUMP JUMPDEST PUSH1 0xFF DUP5 GT ISZERO PUSH2 0x40B9 JUMPI PUSH2 0x40B9 PUSH2 0x3BF1 JUMP JUMPDEST POP POP PUSH1 0x1 DUP3 SHL PUSH2 0xA28 JUMP JUMPDEST POP PUSH1 0x20 DUP4 LT PUSH2 0x133 DUP4 LT AND PUSH1 0x4E DUP5 LT PUSH1 0xB DUP5 LT AND OR ISZERO PUSH2 0x40E7 JUMPI POP DUP2 DUP2 EXP PUSH2 0xA28 JUMP JUMPDEST PUSH2 0x40F1 DUP4 DUP4 PUSH2 0x402C JUMP JUMPDEST DUP1 PUSH0 NOT DIV DUP3 GT ISZERO PUSH2 0x4104 JUMPI PUSH2 0x4104 PUSH2 0x3BF1 JUMP JUMPDEST MUL SWAP4 SWAP3 POP POP POP JUMP JUMPDEST PUSH0 PUSH2 0x1572 PUSH1 0xFF DUP5 AND DUP4 PUSH2 0x406E JUMP INVALID LOG2 PUSH5 0x6970667358 0x22 SLT KECCAK256 0x5D 0x21 SELFBALANCE BASEFEE 0x26 SGT 0xDB DIV SWAP11 SWAP5 0x2E OR ORIGIN 0x26 0xAB 0xA9 RETURNDATASIZE 0x25 PUSH1 0x58 0xD5 0xC2 0xC 0xE4 XOR 0xCC SUB 0x2C 0xED 0x2D DUP15 SHL PUSH5 0x736F6C6343 STOP ADDMOD AND STOP CALLER "
	},
	"Assembly": ".code\n  PUSH 180\t\t\tcontract GovernorContract is\\n...\n  PUSH 40\t\t\tcontract GovernorContract is\\n...\n  MSTORE \t\t\tcontract GovernorContract is\\n...\n  CALLVALUE \t\t\tconstructor(\\n        IVotes _...\n  DUP1 \t\t\tconstructor(\\n        IVotes _...\n  ISZERO \t\t\tconstructor(\\n        IVotes _...\n  PUSH [tag] 1\t\t\tconstructor(\\n        IVotes _...\n  JUMPI \t\t\tconstructor(\\n        IVotes _...\n  PUSH 0\t\t\tconstructor(\\n        IVotes _...\n  DUP1 \t\t\tconstructor(\\n        IVotes _...\n  REVERT \t\t\tconstructor(\\n        IVotes _...\ntag 1\t\t\tconstructor(\\n        IVotes _...\n  JUMPDEST \t\t\tconstructor(\\n        IVotes _...\n  POP \t\t\tconstructor(\\n        IVotes _...\n  PUSH 40\t\t\tconstructor(\\n        IVotes _...\n  MLOAD \t\t\tconstructor(\\n        IVotes _...\n  PUSHSIZE \t\t\tconstructor(\\n        IVotes _...\n  CODESIZE \t\t\tconstructor(\\n        IVotes _...\n  SUB \t\t\tconstructor(\\n        IVotes _...\n  DUP1 \t\t\tconstructor(\\n        IVotes _...\n  PUSHSIZE \t\t\tconstructor(\\n        IVotes _...\n  DUP4 \t\t\tconstructor(\\n        IVotes _...\n  CODECOPY \t\t\tconstructor(\\n        IVotes _...\n  DUP2 \t\t\tconstructor(\\n        IVotes _...\n  ADD \t\t\tconstructor(\\n        IVotes _...\n  PUSH 40\t\t\tconstructor(\\n        IVotes _...\n  DUP2 \t\t\tconstructor(\\n        IVotes _...\n  SWAP1 \t\t\tconstructor(\\n        IVotes _...\n  MSTORE \t\t\tconstructor(\\n        IVotes _...\n  PUSH [tag] 2\t\t\tconstructor(\\n        IVotes _...\n  SWAP2 \t\t\tconstructor(\\n        IVotes _...\n  PUSH [tag] 3\t\t\tconstructor(\\n        IVotes _...\n  JUMP \t\t\tconstructor(\\n        IVotes _...\ntag 2\t\t\tconstructor(\\n        IVotes _...\n  JUMPDEST \t\t\tconstructor(\\n        IVotes _...\n  DUP4 \t\t\t_timelock\n  DUP2 \t\t\t_quorumPercentage\n  DUP7 \t\t\t_token\n  DUP6 \t\t\t_votingDelay\n  DUP6 \t\t\t_votingPeriod\n  PUSH 0\t\t\t0\n  PUSH 40\t\t\tturns (uint256) {\\n        ret...\n  MLOAD \t\t\tturns (uint256) {\\n        ret...\n  DUP1 \t\t\tturns (uint256) {\\n        ret...\n  PUSH 40\t\t\tturns (uint256) {\\n        ret...\n  ADD \t\t\tturns (uint256) {\\n        ret...\n  PUSH 40\t\t\tturns (uint256) {\\n        ret...\n  MSTORE \t\t\tturns (uint256) {\\n        ret...\n  DUP1 \t\t\tturns (uint256) {\\n        ret...\n  PUSH 10\t\t\tturns (uint256) {\\n        ret...\n  DUP2 \t\t\tturns (uint256) {\\n        ret...\n  MSTORE \t\t\tturns (uint256) {\\n        ret...\n  PUSH 20\t\t\tturns (uint256) {\\n        ret...\n  ADD \t\t\tturns (uint256) {\\n        ret...\n  PUSH 11DBDD995C9B9BDC90DBDB9D1C9858DD\t\t\t\n  PUSH 82\t\t\t\n  SHL \t\t\t\n  DUP2 \t\t\tturns (uint256) {\\n        ret...\n  MSTORE \t\t\tturns (uint256) {\\n        ret...\n  POP \t\t\tturns (uint256) {\\n        ret...\n  DUP1 \t\t\tcance\n  PUSH [tag] 10\t\t\ttargets, \n  PUSH [tag] 11\t\t\ttargets\n  PUSH 20\t\t\ttargets\n  SHL \t\t\ttargets\n  PUSH 20\t\t\ttargets, \n  SHR \t\t\ttargets, \n  JUMP \t\t\ttargets, \ntag 10\t\t\ttargets, \n  JUMPDEST \t\t\ttargets, \n  PUSH [tag] 14\t\t\tdatas,\\n        bytes32 descri...\n  DUP3 \t\t\tdata\n  PUSH 0\t\t\tionHash\\n    )\n  PUSH [tag] 15\t\t\tdatas,\\n        bytes32 descri...\n  JUMP \t\t\tdatas,\\n        bytes32 descri...\ntag 14\t\t\tdatas,\\n        bytes32 descri...\n  JUMPDEST \t\t\tdatas,\\n        bytes32 descri...\n  PUSH 120\t\t\tory calldatas,\\n        bytes3...\n  MSTORE \t\t\tory calldatas,\\n        bytes3...\n  PUSH [tag] 16\t\t\ternor, GovernorTimelockControl...\n  DUP2 \t\t\ternor, \n  PUSH 1\t\t\tturns (uint256) \n  PUSH [tag] 15\t\t\ternor, GovernorTimelockControl...\n  JUMP \t\t\ternor, GovernorTimelockControl...\ntag 16\t\t\ternor, GovernorTimelockControl...\n  JUMPDEST \t\t\ternor, GovernorTimelockControl...\n  PUSH 140\t\t\tverride(Governor, GovernorTime...\n  MSTORE \t\t\tverride(Governor, GovernorTime...\n  DUP2 \t\t\tancel(targets, values,\n  MLOAD \t\t\tancel(targets, values,\n  PUSH 20\t\t\tancel(targets, values,\n  DUP1 \t\t\tancel(targets, values,\n  DUP5 \t\t\tancel(targets, values,\n  ADD \t\t\tancel(targets, values,\n  SWAP2 \t\t\tancel(targets, values,\n  SWAP1 \t\t\tancel(targets, values,\n  SWAP2 \t\t\tancel(targets, values,\n  KECCAK256 \t\t\tancel(targets, values,\n  PUSH E0\t\t\teturn super._cancel(targets, v...\n  MSTORE \t\t\teturn super._cancel(targets, v...\n  DUP2 \t\t\t);\\n    }\\n\\n    function _e\n  MLOAD \t\t\t);\\n    }\\n\\n    function _e\n  SWAP1 \t\t\t);\\n    }\\n\\n    function _e\n  DUP3 \t\t\t);\\n    }\\n\\n    function _e\n  ADD \t\t\t);\\n    }\\n\\n    function _e\n  KECCAK256 \t\t\t);\\n    }\\n\\n    function _e\n  PUSH 100\t\t\t, descriptionHash);\\n    }\\n\\n...\n  MSTORE \t\t\t, descriptionHash);\\n    }\\n\\n...\n  CHAINID \t\t\t       view\\n \n  PUSH A0\t\t\t       internal\\n        view\\...\n  MSTORE \t\t\t       internal\\n        view\\...\n  PUSH [tag] 17\t\t\timelockControl)\\n       \n  PUSH E0\t\t\t\n  MLOAD \t\t\t\n  PUSH 100\t\t\t\n  MLOAD \t\t\t\n  PUSH 40\t\t\t\n  DUP1 \t\t\t\n  MLOAD \t\t\t\n  PUSH 8B73C3C69BB8FE3D512ECC4CF759CC79239F7B179B0FFACAA9A75D522B39400F\t\t\t GovernorTimelockControl)\\n   ...\n  PUSH 20\t\t\t\n  DUP3 \t\t\t\n  ADD \t\t\t\n  MSTORE \t\t\t\n  SWAP1 \t\t\t\n  DUP2 \t\t\t\n  ADD \t\t\t\n  SWAP3 \t\t\t\n  SWAP1 \t\t\t\n  SWAP3 \t\t\t\n  MSTORE \t\t\t\n  PUSH 60\t\t\t\n  DUP3 \t\t\t\n  ADD \t\t\t\n  MSTORE \t\t\t\n  CHAINID \t\t\t\n  PUSH 80\t\t\t\n  DUP3 \t\t\t\n  ADD \t\t\t\n  MSTORE \t\t\t\n  ADDRESS \t\t\t\n  PUSH A0\t\t\t\n  DUP3 \t\t\t\n  ADD \t\t\t\n  MSTORE \t\t\t\n  PUSH 0\t\t\t\n  SWAP1 \t\t\t\n  PUSH C0\t\t\t\n  ADD \t\t\t\n  PUSH 40\t\t\t\n  MLOAD \t\t\t\n  PUSH 20\t\t\t\n  DUP2 \t\t\t\n  DUP4 \t\t\t\n  SUB \t\t\t\n  SUB \t\t\t\n  DUP2 \t\t\t\n  MSTORE \t\t\t\n  SWAP1 \t\t\t\n  PUSH 40\t\t\t\n  MSTORE \t\t\t\n  DUP1 \t\t\t\n  MLOAD \t\t\t\n  SWAP1 \t\t\t\n  PUSH 20\t\t\t\n  ADD \t\t\t\n  KECCAK256 \t\t\t\n  SWAP1 \t\t\t\n  POP \t\t\t\n  SWAP1 \t\t\t\n  JUMP \t\t\t\ntag 17\t\t\timelockControl)\\n       \n  JUMPDEST \t\t\timelockControl)\\n       \n  PUSH 80\t\t\trride(Governor, GovernorTimelo...\n  MSTORE \t\t\trride(Governor, GovernorTimelo...\n  POP \t\t\t\n  POP \t\t\t\n  ADDRESS \t\t\t ret\n  PUSH C0\t\t\taddress)\\n    {\\n        retu\n  MSTORE \t\t\taddress)\\n    {\\n        retu\n  PUSH 3\t\t\tdatas\n  PUSH [tag] 20\t\t\tdatas, descri\n  DUP3 \t\t\tescri\n  DUP3 \t\t\tdatas\n  PUSH [tag] 21\t\t\tdatas, descri\n  JUMP \t\t\tdatas, descri\ntag 20\t\t\tdatas, descri\n  JUMPDEST \t\t\tdatas, descri\n  POP \t\t\t\n  PUSH [tag] 23\t\t\tgPeriod, 0)\\n        GovernorV...\n  SWAP1 \t\t\tgPeriod, 0)\\n        GovernorV...\n  POP \t\t\t\n  DUP4 \t\t\t    GovernorVotes(\n  PUSH [tag] 24\t\t\tgPeriod, 0)\\n   \n  JUMP \t\t\tgPeriod, 0)\\n        GovernorV...\ntag 23\t\t\tgPeriod, 0)\\n        GovernorV...\n  JUMPDEST \t\t\tgPeriod, 0)\\n        GovernorV...\n  PUSH [tag] 25\t\t\t     GovernorVotesQuorumFracti...\n  DUP3 \t\t\tsQuorumFraction(_qu\n  PUSH [tag] 26\t\t\t     GovernorVot\n  JUMP \t\t\t     GovernorVotesQuorumFracti...\ntag 25\t\t\t     GovernorVotesQuorumFracti...\n  JUMPDEST \t\t\t     GovernorVotesQuorumFracti...\n  PUSH [tag] 27\t\t\tage)\\n        GovernorTimelock...\n  DUP2 \t\t\timelockControl(_timelock\n  PUSH [tag] 28\t\t\tage)\\n        Governor\n  JUMP \t\t\tage)\\n        GovernorTimelock...\ntag 27\t\t\tage)\\n        GovernorTimelock...\n  JUMPDEST \t\t\tage)\\n        GovernorTimelock...\n  POP \t\t\t\n  POP \t\t\t\n  POP \t\t\t\n  PUSH 1\t\t\t\n  PUSH 1\t\t\t\n  PUSH A0\t\t\t\n  SHL \t\t\t\n  SUB \t\t\t\n  AND \t\t\ts,\\n    GovernorVotesQuorumFra...\n  PUSH 160\t\t\ts,\\n    GovernorVotesQuorumFra...\n  MSTORE \t\t\ts,\\n    GovernorVotesQuorumFra...\n  PUSH [tag] 31\t\t\tsuper.votingDelay();\\n    }\\n\\...\n  DUP2 \t\t\t  }\\n\\n    function vo\n  PUSH [tag] 32\t\t\tsuper.votingDelay();\\n \n  JUMP \t\t\tsuper.votingDelay();\\n    }\\n\\...\ntag 31\t\t\tsuper.votingDelay();\\n    }\\n\\...\n  JUMPDEST \t\t\tsuper.votingDelay();\\n    }\\n\\...\n  POP \t\t\t\n  PUSH [tag] 34\t\t\teturns (bool)\\n    {\\n        ...\n  DUP2 \t\t\t  {\\n        ret\n  PUSH [tag] 35\t\t\teturns (bool)\\n \n  JUMP \t\t\teturns (bool)\\n    {\\n        ...\ntag 34\t\t\teturns (bool)\\n    {\\n        ...\n  JUMPDEST \t\t\teturns (bool)\\n    {\\n        ...\n  POP \t\t\t     override(Governor, Govern...\n  POP \t\t\tconstructor(\\n        IVotes _...\n  POP \t\t\tconstructor(\\n        IVotes _...\n  POP \t\t\tconstructor(\\n        IVotes _...\n  POP \t\t\tconstructor(\\n        IVotes _...\n  POP \t\t\tconstructor(\\n        IVotes _...\n  PUSH [tag] 145\t\t\tcontract GovernorContract is\\n...\n  JUMP \t\t\tcontract GovernorContract is\\n...\ntag 11\t\t\t\n  JUMPDEST \t\t\t\n  PUSH 40\t\t\t\n  DUP1 \t\t\t\n  MLOAD \t\t\t\n  DUP1 \t\t\t\n  DUP3 \t\t\t\n  ADD \t\t\t\n  SWAP1 \t\t\t\n  SWAP2 \t\t\t\n  MSTORE \t\t\t\n  PUSH 1\t\t\t\n  DUP2 \t\t\t\n  MSTORE \t\t\t\n  PUSH 31\t\t\t\n  PUSH F8\t\t\t\n  SHL \t\t\t\n  PUSH 20\t\t\t\n  DUP3 \t\t\t\n  ADD \t\t\t\n  MSTORE \t\t\t\n  SWAP1 \t\t\t\n  JUMP \t\t\t\ntag 15\t\t\tposalId,\\n        address[] me...\n  JUMPDEST \t\t\tposalId,\\n        address[] me...\n  PUSH 0\t\t\try calldata\n  PUSH 20\t\t\t )\n  DUP4 \t\t\tcript\n  MLOAD \t\t\t32 descriptionHash\\n\n  LT \t\t\t32 descriptionHash\\n    )\n  ISZERO \t\t\tytes32 descriptionHash\\n    ) ...\n  PUSH [tag] 40\t\t\tytes32 descriptionHash\\n    ) ...\n  JUMPI \t\t\tytes32 descriptionHash\\n    ) ...\n  PUSH [tag] 41\t\t\trnor, GovernorTimelo\n  DUP4 \t\t\tTimel\n  PUSH [tag] 42\t\t\trnor, Governo\n  JUMP \t\t\trnor, GovernorTimelo\ntag 41\t\t\trnor, GovernorTimelo\n  JUMPDEST \t\t\trnor, GovernorTimelo\n  SWAP1 \t\t\tde(Governor, GovernorTimelo\n  POP \t\t\tde(Governor, GovernorTimelo\n  PUSH [tag] 43\t\t\tde(Governor, GovernorTimelo\n  JUMP \t\t\tde(Governor, GovernorTimelo\ntag 40\t\t\tytes32 descriptionHash\\n    ) ...\n  JUMPDEST \t\t\tytes32 descriptionHash\\n    ) ...\n  DUP2 \t\t\t  pro\n  PUSH [tag] 46\t\t\tcuteOperations(\\n            p...\n  DUP5 \t\t\t     \n  DUP3 \t\t\t  pro\n  PUSH [tag] 21\t\t\tcuteOperations(\\n            p...\n  JUMP \t\t\tcuteOperations(\\n            p...\ntag 46\t\t\tcuteOperations(\\n            p...\n  JUMPDEST \t\t\tcuteOperations(\\n            p...\n  POP \t\t\t\n  PUSH FF\t\t\tnction votingPeriod()\\n       ...\n  SWAP1 \t\t\tnction votingPeriod()\\n       ...\n  POP \t\t\t\ntag 43\t\t\tytes32 descriptionHash\\n    ) ...\n  JUMPDEST \t\t\tytes32 descriptionHash\\n    ) ...\n  SWAP3 \t\t\tposalId,\\n        address[] me...\n  SWAP2 \t\t\tposalId,\\n        address[] me...\n  POP \t\t\tposalId,\\n        address[] me...\n  POP \t\t\tposalId,\\n        address[] me...\n  JUMP \t\t\tposalId,\\n        address[] me...\ntag 24\t\t\troposalId,\\n                ta...\n  JUMPDEST \t\t\troposalId,\\n                ta...\n  PUSH 8\t\t\t        desc\n  SLOAD \t\t\t        desc\n  PUSH 40\t\t\tdatas,\\n                descri...\n  DUP1 \t\t\tdatas,\\n                descri...\n  MLOAD \t\t\tdatas,\\n                descri...\n  PUSH FFFFFFFFFFFF\t\t\t        desc\n  SWAP3 \t\t\t        desc\n  DUP4 \t\t\t        desc\n  AND \t\t\t        desc\n  DUP2 \t\t\t\n  MSTORE \t\t\t\n  SWAP2 \t\t\t\n  DUP4 \t\t\t\n  AND \t\t\t\n  PUSH 20\t\t\t\n  DUP4 \t\t\t\n  ADD \t\t\t\n  MSTORE \t\t\t\n  PUSH C565B045403DC03C2EEA82B81A0465EDAD9E2E7FC4D97E11421C209DA93D7A93\t\t\tdatas,\\n                descri...\n  SWAP2 \t\t\tdatas,\\n                descri...\n  ADD \t\t\t\n  PUSH 40\t\t\tdatas,\\n                descri...\n  MLOAD \t\t\tdatas,\\n                descri...\n  DUP1 \t\t\tdatas,\\n                descri...\n  SWAP2 \t\t\tdatas,\\n                descri...\n  SUB \t\t\tdatas,\\n                descri...\n  SWAP1 \t\t\tdatas,\\n                descri...\n  LOG1 \t\t\tdatas,\\n                descri...\n  PUSH 8\t\t\t    }\\n\\n    f\n  DUP1 \t\t\t    }\\n\\n    function _execute...\n  SLOAD \t\t\t    }\\n\\n    function _execute...\n  PUSH FFFFFFFFFFFF\t\t\t\n  NOT \t\t\t\n  AND \t\t\t    }\\n\\n    function _execute...\n  PUSH FFFFFFFFFFFF\t\t\t    }\\n\\n    function _execute...\n  SWAP3 \t\t\t    }\\n\\n    function _execute...\n  SWAP1 \t\t\t    }\\n\\n    function _execute...\n  SWAP3 \t\t\t    }\\n\\n    function _execute...\n  AND \t\t\t    }\\n\\n    function _execute...\n  SWAP2 \t\t\t    }\\n\\n    function _execute...\n  SWAP1 \t\t\t    }\\n\\n    function _execute...\n  SWAP2 \t\t\t    }\\n\\n    function _execute...\n  OR \t\t\t    }\\n\\n    function _execute...\n  SWAP1 \t\t\t    }\\n\\n    function _execute...\n  SSTORE \t\t\t    }\\n\\n    function _execute...\n  JUMP \t\t\troposalId,\\n                ta...\ntag 26\t\t\ty calldatas,\\n        bytes32 ...\n  JUMPDEST \t\t\ty calldatas,\\n        bytes32 ...\n  DUP1 \t\t\tvernorTimelockC\n  PUSH FFFFFFFF\t\t\tvernorTimelockContro\n  AND \t\t\tvernorTimelockContro\n  PUSH 0\t\t\to\n  SUB \t\t\tvernorTimelockContro\n  PUSH [tag] 54\t\t\t, GovernorTimelockControl) {\\n...\n  JUMPI \t\t\t, GovernorTimelockControl) {\\n...\n  PUSH 40\t\t\tcuteOperations(\\n            p...\n  MLOAD \t\t\tcuteOperations(\\n            p...\n  PUSH F1CFBF05\t\t\t\n  PUSH E0\t\t\t\n  SHL \t\t\t\n  DUP2 \t\t\tcuteOperations(\\n            p...\n  MSTORE \t\t\tcuteOperations(\\n            p...\n  PUSH 0\t\t\tp\n  PUSH 4\t\t\tcuteOperations(\\n            p...\n  DUP3 \t\t\tcuteOperations(\\n            p...\n  ADD \t\t\tcuteOperations(\\n            p...\n  MSTORE \t\t\t\n  PUSH 24\t\t\t\n  ADD \t\t\t\ntag 55\t\t\tcuteOperations(\\n            p...\n  JUMPDEST \t\t\tcuteOperations(\\n            p...\n  PUSH 40\t\t\tcuteOperations(\\n            p...\n  MLOAD \t\t\tcuteOperations(\\n            p...\n  DUP1 \t\t\tcuteOperations(\\n            p...\n  SWAP2 \t\t\tcuteOperations(\\n            p...\n  SUB \t\t\tcuteOperations(\\n            p...\n  SWAP1 \t\t\tcuteOperations(\\n            p...\n  REVERT \t\t\tcuteOperations(\\n            p...\ntag 54\t\t\t, GovernorTimelockControl) {\\n...\n  JUMPDEST \t\t\t, GovernorTimelockControl) {\\n...\n  PUSH 8\t\t\t  values,\\n   \n  SLOAD \t\t\t  values,\\n   \n  PUSH 40\t\t\tgets,\\n            values,\\n  ...\n  DUP1 \t\t\tgets,\\n            values,\\n  ...\n  MLOAD \t\t\tgets,\\n            values,\\n  ...\n  PUSH FFFFFFFF\t\t\t  values,\\n   \n  PUSH 1000000000000\t\t\t  values,\\n   \n  SWAP1 \t\t\t  values,\\n   \n  SWAP4 \t\t\t  values,\\n   \n  DIV \t\t\t  values,\\n   \n  DUP4 \t\t\t  values,\\n   \n  AND \t\t\t  values,\\n   \n  DUP2 \t\t\t\n  MSTORE \t\t\t\n  SWAP2 \t\t\t\n  DUP4 \t\t\t\n  AND \t\t\t\n  PUSH 20\t\t\t\n  DUP4 \t\t\t\n  ADD \t\t\t\n  MSTORE \t\t\t\n  PUSH 7E3F7F0708A84DE9203036ABAA450DCCC85AD5FF52F78C170F3EDB55CF5E8828\t\t\tgets,\\n            values,\\n  ...\n  SWAP2 \t\t\tgets,\\n            values,\\n  ...\n  ADD \t\t\t\n  PUSH 40\t\t\tgets,\\n            values,\\n  ...\n  MLOAD \t\t\tgets,\\n            values,\\n  ...\n  DUP1 \t\t\tgets,\\n            values,\\n  ...\n  SWAP2 \t\t\tgets,\\n            values,\\n  ...\n  SUB \t\t\tgets,\\n            values,\\n  ...\n  SWAP1 \t\t\tgets,\\n            values,\\n  ...\n  LOG1 \t\t\tgets,\\n            values,\\n  ...\n  PUSH 8\t\t\t    descripti\n  DUP1 \t\t\t    descriptionHash\\n        )...\n  SLOAD \t\t\t    descriptionHash\\n        )...\n  PUSH FFFFFFFF\t\t\t    descriptionHash\\n        )...\n  SWAP1 \t\t\t    descriptionHash\\n        )...\n  SWAP3 \t\t\t    descriptionHash\\n        )...\n  AND \t\t\t    descriptionHash\\n        )...\n  PUSH 1000000000000\t\t\t    descriptionHash\\n        )...\n  MUL \t\t\t    descriptionHash\\n        )...\n  PUSH FFFFFFFF\t\t\t\n  PUSH 30\t\t\t\n  SHL \t\t\t\n  NOT \t\t\t\n  SWAP1 \t\t\t    descriptionHash\\n        )...\n  SWAP3 \t\t\t    descriptionHash\\n        )...\n  AND \t\t\t    descriptionHash\\n        )...\n  SWAP2 \t\t\t    descriptionHash\\n        )...\n  SWAP1 \t\t\t    descriptionHash\\n        )...\n  SWAP2 \t\t\t    descriptionHash\\n        )...\n  OR \t\t\t    descriptionHash\\n        )...\n  SWAP1 \t\t\t    descriptionHash\\n        )...\n  SSTORE \t\t\t    descriptionHash\\n        )...\n  JUMP \t\t\ty calldatas,\\n        bytes32 ...\ntag 28\t\t\t bytes32 descriptionHash\\n    ...\n  JUMPDEST \t\t\t bytes32 descriptionHash\\n    ...\n  PUSH 7\t\t\tturn super._cancel\n  SLOAD \t\t\tturn super._cancel\n  PUSH 40\t\t\tuint256) {\\n        return sup...\n  DUP1 \t\t\tuint256) {\\n        return sup...\n  MLOAD \t\t\tuint256) {\\n        return sup...\n  SWAP2 \t\t\t\n  DUP3 \t\t\t\n  MSTORE \t\t\t\n  PUSH 20\t\t\t\n  DUP3 \t\t\t\n  ADD \t\t\t\n  DUP4 \t\t\t\n  SWAP1 \t\t\t\n  MSTORE \t\t\t\n  PUSH CCB45DA8D5717E6C4544694297C4BA5CF151D455C9BB0ED4FC7A38411BC05461\t\t\tuint256) {\\n        return sup...\n  SWAP2 \t\t\tuint256) {\\n        return sup...\n  ADD \t\t\t\n  PUSH 40\t\t\tuint256) {\\n        return sup...\n  MLOAD \t\t\tuint256) {\\n        return sup...\n  DUP1 \t\t\tuint256) {\\n        return sup...\n  SWAP2 \t\t\tuint256) {\\n        return sup...\n  SUB \t\t\tuint256) {\\n        return sup...\n  SWAP1 \t\t\tuint256) {\\n        return sup...\n  LOG1 \t\t\tuint256) {\\n        return sup...\n  PUSH 7\t\t\triptionHash);\\n    \n  SSTORE \t\t\triptionHash);\\n    }\\n\\n    fu...\n  JUMP \t\t\t bytes32 descriptionHash\\n    ...\ntag 32\t\t\tn super._cancel(targets, value...\n  JUMPDEST \t\t\tn super._cancel(targets, value...\n  PUSH 64\t\t\t   \n  DUP1 \t\t\tovernor, GovernorTimelockContr...\n  DUP3 \t\t\tovernor, GovernorTimelockContr...\n  GT \t\t\tovernor, GovernorTimelockContr...\n  ISZERO \t\t\tde(Governor, GovernorTimelockC...\n  PUSH [tag] 65\t\t\tde(Governor, GovernorTimelockC...\n  JUMPI \t\t\tde(Governor, GovernorTimelockC...\n  PUSH 40\t\t\tess)\\n    {\\n        return su...\n  MLOAD \t\t\tess)\\n    {\\n        return su...\n  PUSH 243E5445\t\t\t\n  PUSH E0\t\t\t\n  SHL \t\t\t\n  DUP2 \t\t\tess)\\n    {\\n        return su...\n  MSTORE \t\t\tess)\\n    {\\n        return su...\n  PUSH 4\t\t\tess)\\n    {\\n        return su...\n  DUP2 \t\t\tess)\\n    {\\n        return su...\n  ADD \t\t\tess)\\n    {\\n        return su...\n  DUP4 \t\t\t\n  SWAP1 \t\t\t\n  MSTORE \t\t\t\n  PUSH 24\t\t\t\n  DUP2 \t\t\t\n  ADD \t\t\t\n  DUP3 \t\t\t\n  SWAP1 \t\t\t\n  MSTORE \t\t\t\n  PUSH 44\t\t\t\n  ADD \t\t\t\n  PUSH [tag] 55\t\t\tess)\\n    {\\n        return su...\n  JUMP \t\t\t\ntag 65\t\t\tde(Governor, GovernorTimelockC...\n  JUMPDEST \t\t\tde(Governor, GovernorTimelockC...\n  PUSH 0\t\t\t\n  PUSH [tag] 67\t\t\t\n  PUSH [tag] 68\t\t\t\n  JUMP \t\t\t\ntag 67\t\t\t\n  JUMPDEST \t\t\t\n  SWAP1 \t\t\t\n  POP \t\t\t\n  PUSH [tag] 69\t\t\t\n  PUSH [tag] 70\t\t\t\n  PUSH [tag] 71\t\t\t\n  JUMP \t\t\t\ntag 70\t\t\t\n  JUMPDEST \t\t\t\n  PUSH [tag] 72\t\t\t\n  DUP6 \t\t\t\n  PUSH [tag] 73\t\t\t\n  JUMP \t\t\t\ntag 72\t\t\t\n  JUMPDEST \t\t\t\n  PUSH A\t\t\t\n  SWAP2 \t\t\t\n  SWAP1 \t\t\t\n  PUSH [tag] 74\t\t\t\n  JUMP \t\t\t\ntag 69\t\t\t\n  JUMPDEST \t\t\t\n  POP \t\t\t\n  POP \t\t\t\n  PUSH 40\t\t\t\n  DUP1 \t\t\t\n  MLOAD \t\t\t\n  DUP3 \t\t\t\n  DUP2 \t\t\t\n  MSTORE \t\t\t\n  PUSH 20\t\t\t\n  DUP2 \t\t\t\n  ADD \t\t\t\n  DUP6 \t\t\t\n  SWAP1 \t\t\t\n  MSTORE \t\t\t\n  PUSH 553476BF02EF2726E8CE5CED78D63E26E602E4A2257B1F559418E24B4633997\t\t\t\n  SWAP2 \t\t\t\n  ADD \t\t\t\n  PUSH 40\t\t\t\n  MLOAD \t\t\t\n  DUP1 \t\t\t\n  SWAP2 \t\t\t\n  SUB \t\t\t\n  SWAP1 \t\t\t\n  LOG1 \t\t\t\n  POP \t\t\ttion _executor()\\n        inte...\n  POP \t\t\ttion _executor()\\n        inte...\n  POP \t\t\tn super._cancel(targets, value...\n  JUMP \t\t\tn super._cancel(targets, value...\ntag 35\t\t\t\n  JUMPDEST \t\t\t\n  PUSH B\t\t\t\n  SLOAD \t\t\t\n  PUSH 40\t\t\t\n  DUP1 \t\t\t\n  MLOAD \t\t\t\n  PUSH 1\t\t\t\n  PUSH 1\t\t\t\n  PUSH A0\t\t\t\n  SHL \t\t\t\n  SUB \t\t\t\n  SWAP3 \t\t\t\n  DUP4 \t\t\t\n  AND \t\t\t\n  DUP2 \t\t\t\n  MSTORE \t\t\t\n  SWAP2 \t\t\t\n  DUP4 \t\t\t\n  AND \t\t\t\n  PUSH 20\t\t\t\n  DUP4 \t\t\t\n  ADD \t\t\t\n  MSTORE \t\t\t\n  PUSH 8F74EA46EF7894F65EABFB5E6E695DE773A000B47C529AB559178069B226401\t\t\t\n  SWAP2 \t\t\t\n  ADD \t\t\t\n  PUSH 40\t\t\t\n  MLOAD \t\t\t\n  DUP1 \t\t\t\n  SWAP2 \t\t\t\n  SUB \t\t\t\n  SWAP1 \t\t\t\n  LOG1 \t\t\t\n  PUSH B\t\t\t\n  DUP1 \t\t\t\n  SLOAD \t\t\t\n  PUSH 1\t\t\t\n  PUSH 1\t\t\t\n  PUSH A0\t\t\t\n  SHL \t\t\t\n  SUB \t\t\t\n  NOT \t\t\t\n  AND \t\t\t\n  PUSH 1\t\t\t\n  PUSH 1\t\t\t\n  PUSH A0\t\t\t\n  SHL \t\t\t\n  SUB \t\t\t\n  SWAP3 \t\t\t\n  SWAP1 \t\t\t\n  SWAP3 \t\t\t\n  AND \t\t\t\n  SWAP2 \t\t\t\n  SWAP1 \t\t\t\n  SWAP2 \t\t\t\n  OR \t\t\t\n  SWAP1 \t\t\t\n  SSTORE \t\t\t\n  JUMP \t\t\t\ntag 42\t\t\t56)\\n    {\\n        return sup...\n  JUMPDEST \t\t\t56)\\n    {\\n        return sup...\n  PUSH 0\t\t\tnction stat\n  DUP1 \t\t\toposalId)\\n       \n  DUP3 \t\t\t   \n  SWAP1 \t\t\toposalId)\\n        public\\n   ...\n  POP \t\t\toposalId)\\n        public\\n   ...\n  PUSH 1F\t\t\ter\n  DUP2 \t\t\t  ov\n  MLOAD \t\t\t  override(\n  GT \t\t\t  override(Gover\n  ISZERO \t\t\t      override(Governor, Gover...\n  PUSH [tag] 80\t\t\t      override(Governor, Gover...\n  JUMPI \t\t\t      override(Governor, Gover...\n  DUP3 \t\t\t re\n  PUSH 40\t\t\tntrol)\\n        ret\n  MLOAD \t\t\tntrol)\\n        ret\n  PUSH 305A27A9\t\t\t\n  PUSH E0\t\t\t\n  SHL \t\t\t\n  DUP2 \t\t\tntrol)\\n        ret\n  MSTORE \t\t\tntrol)\\n        ret\n  PUSH 4\t\t\tntrol)\\n        ret\n  ADD \t\t\tntrol)\\n        ret\n  PUSH [tag] 55\t\t\tntrol)\\n        ret\n  SWAP2 \t\t\tntrol)\\n        ret\n  SWAP1 \t\t\tntrol)\\n        ret\n  PUSH [tag] 82\t\t\tntrol)\\n        ret\n  JUMP \t\t\tntrol)\\n        ret\ntag 80\t\t\t      override(Governor, Gover...\n  JUMPDEST \t\t\t      override(Governor, Gover...\n  DUP1 \t\t\t function p\n  MLOAD \t\t\t function p\n  PUSH [tag] 83\t\t\talId);\\n    }\\n\n  DUP3 \t\t\t fun\n  PUSH [tag] 84\t\t\talId);\\n    }\\n\n  JUMP \t\t\talId);\\n    }\\n\ntag 83\t\t\talId);\\n    }\\n\n  JUMPDEST \t\t\talId);\\n    }\\n\n  OR \t\t\te(proposalId);\\n    }\\n\\n    f...\n  SWAP4 \t\t\te(proposalId);\\n    }\\n\\n    f...\n  SWAP3 \t\t\t56)\\n    {\\n        return sup...\n  POP \t\t\t\n  POP \t\t\t\n  POP \t\t\t\n  JUMP \t\t\t56)\\n    {\\n        return sup...\ntag 68\t\t\tnt256)\\n    {\\n        return ...\n  JUMPDEST \t\t\tnt256)\\n    {\\n        return ...\n  PUSH 0\t\t\t\\n    fu\n  PUSH [tag] 88\t\t\t56 blockNumber)\\n        publi...\n  PUSH A\t\t\t56 blockNumber)\\n       \n  PUSH [tag] 89\t\t\t56 blockNumber)\\n        publi...\n  JUMP \t\t\t56 blockNumber)\\n        publi...\ntag 88\t\t\t56 blockNumber)\\n        publi...\n  JUMPDEST \t\t\t56 blockNumber)\\n        publi...\n  PUSH 1\t\t\t\n  PUSH 1\t\t\t\n  PUSH D0\t\t\t\n  SHL \t\t\t\n  SUB \t\t\t\n  AND \t\t\tm(uint256 blockNumber)\\n      ...\n  SWAP1 \t\t\tm(uint256 blockNumber)\\n      ...\n  POP \t\t\tm(uint256 blockNumber)\\n      ...\n  SWAP1 \t\t\tnt256)\\n    {\\n        return ...\n  JUMP \t\t\tnt256)\\n    {\\n        return ...\ntag 71\t\t\tuorumFraction(_quorumPercentag...\n  JUMPDEST \t\t\tuorumFraction(_quorumPercentag...\n  PUSH 0\t\t\tckCont\n  PUSH [tag] 91\t\t\t   {}\\n\\n\n  PUSH 160\t\t\tod,\\n  \n  MLOAD \t\t\tod,\\n  \n  SWAP1 \t\t\tod,\\n  \n  JUMP \t\t\troller _timelock,\\n        uin...\ntag 91\t\t\t   {}\\n\\n\n  JUMPDEST \t\t\t   {}\\n\\n\n  PUSH 1\t\t\t\n  PUSH 1\t\t\t\n  PUSH A0\t\t\t\n  SHL \t\t\t\n  SUB \t\t\t\n  AND \t\t\t   {}\\n\\n    //\n  PUSH 91DDADF4\t\t\t   {}\\n\\n    //\n  PUSH 40\t\t\t   {}\\n\\n    // T\n  MLOAD \t\t\t   {}\\n\\n    // T\n  DUP2 \t\t\t   {}\\n\\n    // T\n  PUSH FFFFFFFF\t\t\t   {}\\n\\n    // T\n  AND \t\t\t   {}\\n\\n    // T\n  PUSH E0\t\t\t   {}\\n\\n    // T\n  SHL \t\t\t   {}\\n\\n    // T\n  DUP2 \t\t\t   {}\\n\\n    // T\n  MSTORE \t\t\t   {}\\n\\n    // T\n  PUSH 4\t\t\t   {}\\n\\n    // T\n  ADD \t\t\t   {}\\n\\n    // T\n  PUSH 20\t\t\t   {}\\n\\n    // T\n  PUSH 40\t\t\t   {}\\n\\n    // T\n  MLOAD \t\t\t   {}\\n\\n    // T\n  DUP1 \t\t\t   {}\\n\\n    // T\n  DUP4 \t\t\t   {}\\n\\n    // T\n  SUB \t\t\t   {}\\n\\n    // T\n  DUP2 \t\t\t   {}\\n\\n    // T\n  DUP7 \t\t\t   {}\\n\\n    // T\n  GAS \t\t\t   {}\\n\\n    // T\n  STATICCALL \t\t\t   {}\\n\\n    // T\n  SWAP3 \t\t\t   {}\\n\\n    // T\n  POP \t\t\t   {}\\n\\n    // T\n  POP \t\t\t   {}\\n\\n    // T\n  POP \t\t\t   {}\\n\\n    // T\n  DUP1 \t\t\t   {}\\n\\n    // T\n  ISZERO \t\t\t   {}\\n\\n    // T\n  PUSH [tag] 93\t\t\t   {}\\n\\n    // T\n  JUMPI \t\t\t   {}\\n\\n    // T\n  POP \t\t\t\n  PUSH 40\t\t\t   {}\\n\\n    // T\n  DUP1 \t\t\t   {}\\n\\n    // T\n  MLOAD \t\t\t   {}\\n\\n    // T\n  PUSH 1F\t\t\t   {}\\n\\n    // T\n  RETURNDATASIZE \t\t\t   {}\\n\\n    // T\n  SWAP1 \t\t\t   {}\\n\\n    // T\n  DUP2 \t\t\t   {}\\n\\n    // T\n  ADD \t\t\t   {}\\n\\n    // T\n  PUSH 1F\t\t\t\n  NOT \t\t\t\n  AND \t\t\t   {}\\n\\n    // T\n  DUP3 \t\t\t   {}\\n\\n    // T\n  ADD \t\t\t   {}\\n\\n    // T\n  SWAP1 \t\t\t   {}\\n\\n    // T\n  SWAP3 \t\t\t   {}\\n\\n    // T\n  MSTORE \t\t\t   {}\\n\\n    // T\n  PUSH [tag] 94\t\t\t   {}\\n\\n    // T\n  SWAP2 \t\t\t   {}\\n\\n    // T\n  DUP2 \t\t\t   {}\\n\\n    // T\n  ADD \t\t\t   {}\\n\\n    // T\n  SWAP1 \t\t\t   {}\\n\\n    // T\n  PUSH [tag] 95\t\t\t   {}\\n\\n    // T\n  JUMP \t\t\t   {}\\n\\n    // T\ntag 94\t\t\t   {}\\n\\n    // T\n  JUMPDEST \t\t\t   {}\\n\\n    // T\n  PUSH 1\t\t\t   {}\\n\\n    // T\ntag 93\t\t\t   {}\\n\\n    // T\n  JUMPDEST \t\t\t   {}\\n\\n    // T\n  PUSH [tag] 96\t\t\tk)\\n    {}\\n\\n    // The follo...\n  JUMPI \t\t\tk)\\n    {}\\n\\n    // The follo...\n  PUSH [tag] 100\t\t\tblic\\n        view\\n\n  PUSH [tag] 101\t\t\tblic\\n        vie\n  JUMP \t\t\tblic\\n        view\\n\ntag 100\t\t\tblic\\n        view\\n\n  JUMPDEST \t\t\tblic\\n        view\\n\n  SWAP1 \t\t\t     public\\n        view\\n\n  POP \t\t\t     public\\n        view\\n\n  SWAP1 \t\t\tuorumFraction(_quorumPercentag...\n  JUMP \t\t\tuorumFraction(_quorumPercentag...\ntag 96\t\t\tk)\\n    {}\\n\\n    // The follo...\n  JUMPDEST \t\t\tk)\\n    {}\\n\\n    // The follo...\n  SWAP2 \t\t\tSolidity.\n  SWAP1 \t\t\tuorumFraction(_quorumPercentag...\n  POP \t\t\t\n  JUMP \t\t\tuorumFraction(_quorumPercentag...\ntag 73\t\t\t\n  JUMPDEST \t\t\t\n  PUSH 0\t\t\t\n  PUSH 1\t\t\t\n  PUSH 1\t\t\t\n  PUSH D0\t\t\t\n  SHL \t\t\t\n  SUB \t\t\t\n  DUP3 \t\t\t\n  GT \t\t\t\n  ISZERO \t\t\t\n  PUSH [tag] 104\t\t\t\n  JUMPI \t\t\t\n  PUSH 40\t\t\t\n  MLOAD \t\t\t\n  PUSH 6DFCC65\t\t\t\n  PUSH E4\t\t\t\n  SHL \t\t\t\n  DUP2 \t\t\t\n  MSTORE \t\t\t\n  PUSH D0\t\t\t\n  PUSH 4\t\t\t\n  DUP3 \t\t\t\n  ADD \t\t\t\n  MSTORE \t\t\t\n  PUSH 24\t\t\t\n  DUP2 \t\t\t\n  ADD \t\t\t\n  DUP4 \t\t\t\n  SWAP1 \t\t\t\n  MSTORE \t\t\t\n  PUSH 44\t\t\t\n  ADD \t\t\t\n  PUSH [tag] 55\t\t\t\n  JUMP \t\t\t\ntag 104\t\t\t\n  JUMPDEST \t\t\t\n  POP \t\t\t\n  SWAP1 \t\t\t\n  JUMP \t\t\t\ntag 74\t\t\t\n  JUMPDEST \t\t\t\n  PUSH 0\t\t\t\n  DUP1 \t\t\t\n  PUSH [tag] 108\t\t\t\n  DUP6 \t\t\t\n  DUP6 \t\t\t\n  DUP6 \t\t\t\n  PUSH [tag] 109\t\t\t\n  JUMP \t\t\t\ntag 108\t\t\t\n  JUMPDEST \t\t\t\n  SWAP2 \t\t\t\n  POP \t\t\t\n  SWAP2 \t\t\t\n  POP \t\t\t\ntag 107\t\t\t\n  JUMPDEST \t\t\t\n  SWAP4 \t\t\t\n  POP \t\t\t\n  SWAP4 \t\t\t\n  SWAP2 \t\t\t\n  POP \t\t\t\n  POP \t\t\t\n  JUMP \t\t\t\ntag 89\t\t\t\n  JUMPDEST \t\t\t\n  DUP1 \t\t\t\n  SLOAD \t\t\t\n  PUSH 0\t\t\t\n  SWAP1 \t\t\t\n  DUP1 \t\t\t\n  ISZERO \t\t\t\n  PUSH [tag] 111\t\t\t\n  JUMPI \t\t\t\n  PUSH [tag] 112\t\t\t\n  DUP4 \t\t\t\n  PUSH [tag] 113\t\t\t\n  PUSH 1\t\t\t\n  DUP5 \t\t\t\n  PUSH [tag] 114\t\t\t\n  JUMP \t\t\t\ntag 113\t\t\t\n  JUMPDEST \t\t\t\n  PUSH 0\t\t\t\n  SWAP2 \t\t\t\n  DUP3 \t\t\t\n  MSTORE \t\t\t\n  PUSH 20\t\t\t\n  SWAP1 \t\t\t\n  SWAP2 \t\t\t\n  KECCAK256 \t\t\t\n  ADD \t\t\t\n  SWAP1 \t\t\t\n  JUMP \t\t\t\ntag 112\t\t\t\n  JUMPDEST \t\t\t\n  SLOAD \t\t\t\n  PUSH 1000000000000\t\t\t\n  SWAP1 \t\t\t\n  DIV \t\t\t\n  PUSH 1\t\t\t\n  PUSH 1\t\t\t\n  PUSH D0\t\t\t\n  SHL \t\t\t\n  SUB \t\t\t\n  AND \t\t\t\n  PUSH [tag] 116\t\t\t\n  JUMP \t\t\t\ntag 111\t\t\t\n  JUMPDEST \t\t\t\n  PUSH 0\t\t\t\ntag 116\t\t\t\n  JUMPDEST \t\t\t\n  SWAP4 \t\t\t\n  SWAP3 \t\t\t\n  POP \t\t\t\n  POP \t\t\t\n  POP \t\t\t\n  JUMP \t\t\t\ntag 101\t\t\tvernorContract\")\\n        Gove...\n  JUMPDEST \t\t\tvernorContract\")\\n        Gove...\n  PUSH 0\t\t\tingDel\n  PUSH [tag] 100\t\t\t0)\\n        GovernorVotes(_tok...\n  NUMBER \t\t\trVotes(_toke\n  PUSH [tag] 120\t\t\t0)\\n        Govern\n  JUMP \t\t\t0)\\n        GovernorVotes(_tok...\ntag 109\t\t\t\n  JUMPDEST \t\t\t\n  DUP3 \t\t\t\n  SLOAD \t\t\t\n  PUSH 0\t\t\t\n  SWAP1 \t\t\t\n  DUP2 \t\t\t\n  SWAP1 \t\t\t\n  DUP1 \t\t\t\n  ISZERO \t\t\t\n  PUSH [tag] 122\t\t\t\n  JUMPI \t\t\t\n  PUSH 0\t\t\t\n  PUSH [tag] 123\t\t\t\n  DUP8 \t\t\t\n  PUSH [tag] 113\t\t\t\n  PUSH 1\t\t\t\n  DUP6 \t\t\t\n  PUSH [tag] 114\t\t\t\n  JUMP \t\t\t\ntag 123\t\t\t\n  JUMPDEST \t\t\t\n  PUSH 40\t\t\t\n  DUP1 \t\t\t\n  MLOAD \t\t\t\n  DUP1 \t\t\t\n  DUP3 \t\t\t\n  ADD \t\t\t\n  SWAP1 \t\t\t\n  SWAP2 \t\t\t\n  MSTORE \t\t\t\n  SWAP1 \t\t\t\n  SLOAD \t\t\t\n  PUSH FFFFFFFFFFFF\t\t\t\n  DUP1 \t\t\t\n  DUP3 \t\t\t\n  AND \t\t\t\n  DUP1 \t\t\t\n  DUP5 \t\t\t\n  MSTORE \t\t\t\n  PUSH 1000000000000\t\t\t\n  SWAP1 \t\t\t\n  SWAP3 \t\t\t\n  DIV \t\t\t\n  PUSH 1\t\t\t\n  PUSH 1\t\t\t\n  PUSH D0\t\t\t\n  SHL \t\t\t\n  SUB \t\t\t\n  AND \t\t\t\n  PUSH 20\t\t\t\n  DUP5 \t\t\t\n  ADD \t\t\t\n  MSTORE \t\t\t\n  SWAP2 \t\t\t\n  SWAP3 \t\t\t\n  POP \t\t\t\n  SWAP1 \t\t\t\n  DUP8 \t\t\t\n  AND \t\t\t\n  LT \t\t\t\n  ISZERO \t\t\t\n  PUSH [tag] 125\t\t\t\n  JUMPI \t\t\t\n  PUSH 40\t\t\t\n  MLOAD \t\t\t\n  PUSH 2520601D\t\t\t\n  PUSH E0\t\t\t\n  SHL \t\t\t\n  DUP2 \t\t\t\n  MSTORE \t\t\t\n  PUSH 4\t\t\t\n  ADD \t\t\t\n  PUSH 40\t\t\t\n  MLOAD \t\t\t\n  DUP1 \t\t\t\n  SWAP2 \t\t\t\n  SUB \t\t\t\n  SWAP1 \t\t\t\n  REVERT \t\t\t\ntag 125\t\t\t\n  JUMPDEST \t\t\t\n  DUP1 \t\t\t\n  MLOAD \t\t\t\n  PUSH FFFFFFFFFFFF\t\t\t\n  DUP1 \t\t\t\n  DUP9 \t\t\t\n  AND \t\t\t\n  SWAP2 \t\t\t\n  AND \t\t\t\n  SUB \t\t\t\n  PUSH [tag] 126\t\t\t\n  JUMPI \t\t\t\n  DUP5 \t\t\t\n  PUSH [tag] 127\t\t\t\n  DUP9 \t\t\t\n  PUSH [tag] 113\t\t\t\n  PUSH 1\t\t\t\n  DUP7 \t\t\t\n  PUSH [tag] 114\t\t\t\n  JUMP \t\t\t\ntag 127\t\t\t\n  JUMPDEST \t\t\t\n  DUP1 \t\t\t\n  SLOAD \t\t\t\n  PUSH 1\t\t\t\n  PUSH 1\t\t\t\n  PUSH D0\t\t\t\n  SHL \t\t\t\n  SUB \t\t\t\n  SWAP3 \t\t\t\n  SWAP1 \t\t\t\n  SWAP3 \t\t\t\n  AND \t\t\t\n  PUSH 1000000000000\t\t\t\n  MUL \t\t\t\n  PUSH FFFFFFFFFFFF\t\t\t\n  SWAP1 \t\t\t\n  SWAP3 \t\t\t\n  AND \t\t\t\n  SWAP2 \t\t\t\n  SWAP1 \t\t\t\n  SWAP2 \t\t\t\n  OR \t\t\t\n  SWAP1 \t\t\t\n  SSTORE \t\t\t\n  PUSH [tag] 129\t\t\t\n  JUMP \t\t\t\ntag 126\t\t\t\n  JUMPDEST \t\t\t\n  PUSH 40\t\t\t\n  DUP1 \t\t\t\n  MLOAD \t\t\t\n  DUP1 \t\t\t\n  DUP3 \t\t\t\n  ADD \t\t\t\n  SWAP1 \t\t\t\n  SWAP2 \t\t\t\n  MSTORE \t\t\t\n  PUSH FFFFFFFFFFFF\t\t\t\n  DUP1 \t\t\t\n  DUP9 \t\t\t\n  AND \t\t\t\n  DUP3 \t\t\t\n  MSTORE \t\t\t\n  PUSH 1\t\t\t\n  PUSH 1\t\t\t\n  PUSH D0\t\t\t\n  SHL \t\t\t\n  SUB \t\t\t\n  DUP1 \t\t\t\n  DUP9 \t\t\t\n  AND \t\t\t\n  PUSH 20\t\t\t\n  DUP1 \t\t\t\n  DUP6 \t\t\t\n  ADD \t\t\t\n  SWAP2 \t\t\t\n  DUP3 \t\t\t\n  MSTORE \t\t\t\n  DUP12 \t\t\t\n  SLOAD \t\t\t\n  PUSH 1\t\t\t\n  DUP2 \t\t\t\n  ADD \t\t\t\n  DUP14 \t\t\t\n  SSTORE \t\t\t\n  PUSH 0\t\t\t\n  DUP14 \t\t\t\n  DUP2 \t\t\t\n  MSTORE \t\t\t\n  SWAP2 \t\t\t\n  SWAP1 \t\t\t\n  SWAP2 \t\t\t\n  KECCAK256 \t\t\t\n  SWAP5 \t\t\t\n  MLOAD \t\t\t\n  SWAP2 \t\t\t\n  MLOAD \t\t\t\n  SWAP1 \t\t\t\n  SWAP3 \t\t\t\n  AND \t\t\t\n  PUSH 1000000000000\t\t\t\n  MUL \t\t\t\n  SWAP3 \t\t\t\n  AND \t\t\t\n  SWAP2 \t\t\t\n  SWAP1 \t\t\t\n  SWAP2 \t\t\t\n  OR \t\t\t\n  SWAP2 \t\t\t\n  ADD \t\t\t\n  SSTORE \t\t\t\ntag 129\t\t\t\n  JUMPDEST \t\t\t\n  PUSH 20\t\t\t\n  ADD \t\t\t\n  MLOAD \t\t\t\n  SWAP3 \t\t\t\n  POP \t\t\t\n  DUP4 \t\t\t\n  SWAP2 \t\t\t\n  POP \t\t\t\n  PUSH [tag] 107\t\t\t\n  SWAP1 \t\t\t\n  POP \t\t\t\n  JUMP \t\t\t\ntag 122\t\t\t\n  JUMPDEST \t\t\t\n  POP \t\t\t\n  POP \t\t\t\n  PUSH 40\t\t\t\n  DUP1 \t\t\t\n  MLOAD \t\t\t\n  DUP1 \t\t\t\n  DUP3 \t\t\t\n  ADD \t\t\t\n  SWAP1 \t\t\t\n  SWAP2 \t\t\t\n  MSTORE \t\t\t\n  PUSH FFFFFFFFFFFF\t\t\t\n  DUP1 \t\t\t\n  DUP6 \t\t\t\n  AND \t\t\t\n  DUP3 \t\t\t\n  MSTORE \t\t\t\n  PUSH 1\t\t\t\n  PUSH 1\t\t\t\n  PUSH D0\t\t\t\n  SHL \t\t\t\n  SUB \t\t\t\n  DUP1 \t\t\t\n  DUP6 \t\t\t\n  AND \t\t\t\n  PUSH 20\t\t\t\n  DUP1 \t\t\t\n  DUP6 \t\t\t\n  ADD \t\t\t\n  SWAP2 \t\t\t\n  DUP3 \t\t\t\n  MSTORE \t\t\t\n  DUP9 \t\t\t\n  SLOAD \t\t\t\n  PUSH 1\t\t\t\n  DUP2 \t\t\t\n  ADD \t\t\t\n  DUP11 \t\t\t\n  SSTORE \t\t\t\n  PUSH 0\t\t\t\n  DUP11 \t\t\t\n  DUP2 \t\t\t\n  MSTORE \t\t\t\n  SWAP2 \t\t\t\n  DUP3 \t\t\t\n  KECCAK256 \t\t\t\n  SWAP6 \t\t\t\n  MLOAD \t\t\t\n  SWAP3 \t\t\t\n  MLOAD \t\t\t\n  SWAP1 \t\t\t\n  SWAP4 \t\t\t\n  AND \t\t\t\n  PUSH 1000000000000\t\t\t\n  MUL \t\t\t\n  SWAP2 \t\t\t\n  SWAP1 \t\t\t\n  SWAP4 \t\t\t\n  AND \t\t\t\n  OR \t\t\t\n  SWAP3 \t\t\t\n  ADD \t\t\t\n  SWAP2 \t\t\t\n  SWAP1 \t\t\t\n  SWAP2 \t\t\t\n  SSTORE \t\t\t\n  SWAP1 \t\t\t\n  POP \t\t\t\n  DUP2 \t\t\t\n  PUSH [tag] 107\t\t\t\n  JUMP \t\t\t\ntag 120\t\t\t\n  JUMPDEST \t\t\t\n  PUSH 0\t\t\t\n  PUSH FFFFFFFFFFFF\t\t\t\n  DUP3 \t\t\t\n  GT \t\t\t\n  ISZERO \t\t\t\n  PUSH [tag] 104\t\t\t\n  JUMPI \t\t\t\n  PUSH 40\t\t\t\n  MLOAD \t\t\t\n  PUSH 6DFCC65\t\t\t\n  PUSH E4\t\t\t\n  SHL \t\t\t\n  DUP2 \t\t\t\n  MSTORE \t\t\t\n  PUSH 30\t\t\t\n  PUSH 4\t\t\t\n  DUP3 \t\t\t\n  ADD \t\t\t\n  MSTORE \t\t\t\n  PUSH 24\t\t\t\n  DUP2 \t\t\t\n  ADD \t\t\t\n  DUP4 \t\t\t\n  SWAP1 \t\t\t\n  MSTORE \t\t\t\n  PUSH 44\t\t\t\n  ADD \t\t\t\n  PUSH [tag] 55\t\t\t\n  JUMP \t\t\t\ntag 138\t\t\te-Identifier: MIT\\npragma soli...\n  JUMPDEST \t\t\te-Identifier: MIT\\npragma soli...\n  PUSH 1\t\t\t\n  PUSH 1\t\t\t\n  PUSH A0\t\t\t\n  SHL \t\t\t\n  SUB \t\t\t\n  DUP2 \t\t\tovernance/Governor.sol\";\\nimpo...\n  AND \t\t\tovernance/Governor.sol\";\\nimpo...\n  DUP2 \t\t\tts@5.0.1/governance/Governor.s...\n  EQ \t\t\tts@5.0.1/governance/Governor.s...\n  PUSH [tag] 147\t\t\tin/contracts@5.0.1/governance/...\n  JUMPI \t\t\tin/contracts@5.0.1/governance/...\n  PUSH 0\t\t\t/\n  DUP1 \t\t\tl\n  REVERT \t\t\tenzeppelin/c\ntag 147\t\t\tin/contracts@5.0.1/governance/...\n  JUMPDEST \t\t\tin/contracts@5.0.1/governance/...\n  POP \t\t\te-Identifier: MIT\\npragma soli...\n  JUMP \t\t\te-Identifier: MIT\\npragma soli...\ntag 139\t\t\t1/governance/extensions/Govern...\n  JUMPDEST \t\t\t1/governance/extensions/Govern...\n  DUP1 \t\t\t@5.0.1/govern\n  MLOAD \t\t\t@5.0.1/govern\n  PUSH FFFFFFFFFFFF\t\t\tol\";\\nimport \"@\n  DUP2 \t\t\tingSimple.sol\";\\nimport \"@o\n  AND \t\t\tingSimple.sol\";\\nimport \"@o\n  DUP2 \t\t\ternorCountingSimple.sol\";\\nimp...\n  EQ \t\t\ternorCountingSimple.sol\";\\nimp...\n  PUSH [tag] 96\t\t\tnsions/GovernorCountingSimple....\n  JUMPI \t\t\tnsions/GovernorCountingSimple....\n  PUSH 0\t\t\tt\n  DUP1 \t\t\tc\n  REVERT \t\t\tppelin/contr\ntag 3\t\t\tvernance/extensions/GovernorVo...\n  JUMPDEST \t\t\tvernance/extensions/GovernorVo...\n  PUSH 0\t\t\tnzeppe\n  DUP1 \t\t\tn/cont\n  PUSH 0\t\t\tcts@5.\n  DUP1 \t\t\t1/gove\n  PUSH 0\t\t\tance/e\n  PUSH A0\t\t\tct \n  DUP7 \t\t\tol\";\\n\\ncon\n  DUP9 \t\t\tControl\n  SUB \t\t\tlockControl.sol\";\\n\\ncont\n  SLT \t\t\tTimelockControl.sol\";\\n\\ncontr...\n  ISZERO \t\t\tnorTimelockControl.sol\";\\n\\nco...\n  PUSH [tag] 151\t\t\tnorTimelockControl.sol\";\\n\\nco...\n  JUMPI \t\t\tnorTimelockControl.sol\";\\n\\nco...\n  PUSH 0\t\t\tc\n  DUP1 \t\t\tt\n  REVERT \t\t\trnorContract\ntag 151\t\t\tnorTimelockControl.sol\";\\n\\nco...\n  JUMPDEST \t\t\tnorTimelockControl.sol\";\\n\\nco...\n  DUP6 \t\t\tSettings,\n  MLOAD \t\t\tvernorSettings,\\n\n  PUSH [tag] 152\t\t\tnorCountingSimple,\\n    Govern...\n  DUP2 \t\t\ttes,\\n\n  PUSH [tag] 138\t\t\tnorCountingSimple,\\n    Govern...\n  JUMP \t\t\tnorCountingSimple,\\n    Govern...\ntag 152\t\t\tnorCountingSimple,\\n    Govern...\n  JUMPDEST \t\t\tnorCountingSimple,\\n    Govern...\n  PUSH 20\t\t\tst\n  DUP8 \t\t\tntrol\\n{\\n    constr\n  ADD \t\t\tntrol\\n{\\n    constr\n  MLOAD \t\t\tlockControl\\n{\\n    constru\n  SWAP1 \t\t\trumFr\n  SWAP6 \t\t\trumFr\n  POP \t\t\t\n  PUSH [tag] 153\t\t\t     IVotes _token,\\n        T...\n  DUP2 \t\t\tlockControl\\n{\\n    constru\n  PUSH [tag] 138\t\t\t     IVotes _token,\\n        T...\n  JUMP \t\t\t     IVotes _token,\\n        T...\ntag 153\t\t\t     IVotes _token,\\n        T...\n  JUMPDEST \t\t\t     IVotes _token,\\n        T...\n  SWAP4 \t\t\t      u\n  POP \t\t\t\n  PUSH [tag] 154\t\t\t\\n        uint32 _votingPeriod...\n  PUSH 40\t\t\t56\n  DUP8 \t\t\t,\\n        uint256 \n  ADD \t\t\t,\\n        uint256 \n  PUSH [tag] 139\t\t\t\\n        uint32 _votingPeriod...\n  JUMP \t\t\t\\n        uint32 _votingPeriod...\ntag 154\t\t\t\\n        uint32 _votingPeriod...\n  JUMPDEST \t\t\t\\n        uint32 _votingPeriod...\n  SWAP3 \t\t\ttingDelay,\\n        uint32 _vo...\n  POP \t\t\ttingDelay,\\n        uint32 _vo...\n  PUSH 60\t\t\trn\n  DUP7 \t\t\ternor(\"Go\n  ADD \t\t\t Governor(\"Governo\n  MLOAD \t\t\t       Governor(\"Governor\n  PUSH FFFFFFFF\t\t\telay, _vot\n  DUP2 \t\t\t(_votin\n  AND \t\t\tings(_votingDelay, _voti\n  DUP2 \t\t\ternorSe\n  EQ \t\t\tGovernorSettings(_votingDelay,...\n  PUSH [tag] 155\t\t\t)\\n        GovernorSettings(_v...\n  JUMPI \t\t\t)\\n        GovernorSettings(_v...\n  PUSH 0\t\t\t \n  DUP1 \t\t\t\\n\n  REVERT \t\t\tiod, 0)\\n    \ntag 155\t\t\t)\\n        GovernorSettings(_v...\n  JUMPDEST \t\t\t)\\n        GovernorSettings(_v...\n  DUP1 \t\t\tken)\\n  \n  SWAP3 \t\t\trVotes(_token)\\n  \n  POP \t\t\trVotes(_token)\\n  \n  POP \t\t\trVotes(_token)\\n  \n  PUSH 80\t\t\tmPe\n  DUP7 \t\t\ttion(_quo\n  ADD \t\t\tFraction(_quorumPer\n  MLOAD \t\t\tQuorumFraction(_quorumPerc\n  SWAP1 \t\t\ternorVotesQuorumFraction(_quor...\n  POP \t\t\ternorVotesQuorumFraction(_quor...\n  SWAP3 \t\t\tvernance/extensions/GovernorVo...\n  SWAP6 \t\t\tvernance/extensions/GovernorVo...\n  POP \t\t\tvernance/extensions/GovernorVo...\n  SWAP3 \t\t\tvernance/extensions/GovernorVo...\n  SWAP6 \t\t\tvernance/extensions/GovernorVo...\n  SWAP1 \t\t\tvernance/extensions/GovernorVo...\n  SWAP4 \t\t\tvernance/extensions/GovernorVo...\n  POP \t\t\tvernance/extensions/GovernorVo...\n  JUMP \t\t\tvernance/extensions/GovernorVo...\ntag 140\t\t\t     GovernorTimelockControl(_...\n  JUMPDEST \t\t\t     GovernorTimelockControl(_...\n  PUSH 4E487B71\t\t\tllowing fu\n  PUSH E0\t\t\the \n  SHL \t\t\t// The following fun\n  PUSH 0\t\t\t \n  MSTORE \t\t\t  {}\\n\\n    // The following f...\n  PUSH 41\t\t\t req\n  PUSH 4\t\t\td\n  MSTORE \t\t\t overrides requ\n  PUSH 24\t\t\t    \n  PUSH 0\t\t\t.\n  REVERT \t\t\tolidity.\\n\\n    f\ntag 141\t\t\tingDelay()\\n        public\\n  ...\n  JUMPDEST \t\t\tingDelay()\\n        public\\n  ...\n  PUSH 1\t\t\tn\n  DUP2 \t\t\tettings)\\n   \n  DUP2 \t\t\tettings)\\n   \n  SHR \t\t\tettings)\\n   \n  SWAP1 \t\t\tettings)\\n   \n  DUP3 \t\t\t  return sup\n  AND \t\t\t  return sup\n  DUP1 \t\t\t  return sup\n  PUSH [tag] 158\t\t\tDelay();\\n    }\\n\\n    functio...\n  JUMPI \t\t\tDelay();\\n    }\\n\\n    functio...\n  PUSH 7F\t\t\tblic\n  DUP3 \t\t\t      \n  AND \t\t\t)\\n        public\\n\n  SWAP2 \t\t\tingPeriod()\\n        public\\n\n  POP \t\t\tingPeriod()\\n        public\\n\ntag 158\t\t\tDelay();\\n    }\\n\\n    functio...\n  JUMPDEST \t\t\tDelay();\\n    }\\n\\n    functio...\n  PUSH 20\t\t\tSe\n  DUP3 \t\t\tGovern\n  LT \t\t\tr, GovernorSet\n  DUP2 \t\t\t    override(Gover\n  SUB \t\t\t       override(Governor, Gove...\n  PUSH [tag] 159\t\t\tw\\n        override(Governor, ...\n  JUMPI \t\t\tw\\n        override(Governor, ...\n  PUSH 4E487B71\t\t\t    return\n  PUSH E0\t\t\t\\n  \n  SHL \t\t\t   {\\n        return \n  PUSH 0\t\t\t)\n  MSTORE \t\t\tuint256)\\n    {\\n        retur...\n  PUSH 22\t\t\t  }\\n\n  PUSH 4\t\t\t\\n\n  MSTORE \t\t\triod();\\n    }\\n\\n\n  PUSH 24\t\t\tt256\n  PUSH 0\t\t\tu\n  REVERT \t\t\tquorum(uint256 \ntag 159\t\t\tw\\n        override(Governor, ...\n  JUMPDEST \t\t\tw\\n        override(Governor, ...\n  POP \t\t\tw\\n        override(Governor, ...\n  SWAP2 \t\t\tingDelay()\\n        public\\n  ...\n  SWAP1 \t\t\tingDelay()\\n        public\\n  ...\n  POP \t\t\tingDelay()\\n        public\\n  ...\n  JUMP \t\t\tingDelay()\\n        public\\n  ...\ntag 143\t\t\ter.quorum(blockNumber);\\n    }...\n  JUMPDEST \t\t\ter.quorum(blockNumber);\\n    }...\n  PUSH 1F\t\t\t  \n  DUP3 \t\t\t\\n  \n  GT \t\t\tiew\\n       \n  ISZERO \t\t\t  view\\n        override(Gover...\n  PUSH [tag] 162\t\t\t  view\\n        override(Gover...\n  JUMPI \t\t\t  view\\n        override(Gover...\n  DUP1 \t\t\tockCo\n  PUSH 0\t\t\tm\n  MSTORE \t\t\ternorTimelockCon\n  PUSH 20\t\t\t    \n  PUSH 0\t\t\te\n  KECCAK256 \t\t\toposalState)\\n    {\n  PUSH 1F\t\t\tos\n  DUP5 \t\t\tunction pr\n  ADD \t\t\t   function proposa\n  PUSH 5\t\t\t\\n\n  SHR \t\t\t   }\\n\\n    function proposal\n  DUP2 \t\t\tId);\n  ADD \t\t\tosalId);\\n    }\\n\\n    functio...\n  PUSH 20\t\t\t\\n   \n  DUP6 \t\t\t proposalI\n  LT \t\t\t256 proposalId)\\n    \n  ISZERO \t\t\tint256 proposalId)\\n        pu...\n  PUSH [tag] 163\t\t\tint256 proposalId)\\n        pu...\n  JUMPI \t\t\tint256 proposalId)\\n        pu...\n  POP \t\t\t\n  DUP1 \t\t\t vie\ntag 163\t\t\tint256 proposalId)\\n        pu...\n  JUMPDEST \t\t\tint256 proposalId)\\n        pu...\n  PUSH 1F\t\t\tl)\n  DUP5 \t\t\tont\n  ADD \t\t\tockControl)\\n\n  PUSH 5\t\t\tm\n  SHR \t\t\torTimelockControl)\\n \n  DUP3 \t\t\tGove\n  ADD \t\t\tor, GovernorTimelockControl)\\n...\n  SWAP2 \t\t\tide(Governor, GovernorTimelock...\n  POP \t\t\tide(Governor, GovernorTimelock...\ntag 164\t\t\toposalNeedsQueuing(proposalId)...\n  JUMPDEST \t\t\toposalNeedsQueuing(proposalId)...\n  DUP2 \t\t\t(p\n  DUP2 \t\t\tQueui\n  LT \t\t\tedsQueuing(pr\n  ISZERO \t\t\toposalNeedsQueuing(proposalId)...\n  PUSH [tag] 166\t\t\toposalNeedsQueuing(proposalId)...\n  JUMPI \t\t\toposalNeedsQueuing(proposalId)...\n  PUSH 0\t\t\t \n  DUP2 \t\t\teshold()\\n       \n  SSTORE \t\t\teshold()\\n       \n  PUSH 1\t\t\tu\n  ADD \t\t\t   }\\n\\n    fun\n  PUSH [tag] 164\t\t\toposalNeedsQueuing(proposalId)...\n  JUMP \t\t\toposalNeedsQueuing(proposalId)...\ntag 166\t\t\toposalNeedsQueuing(proposalId)...\n  JUMPDEST \t\t\toposalNeedsQueuing(proposalId)...\n  POP \t\t\talN\n  POP \t\t\talN\ntag 162\t\t\t  view\\n        override(Gover...\n  JUMPDEST \t\t\t  view\\n        override(Gover...\n  POP \t\t\ter.quorum(blockNumber);\\n    }...\n  POP \t\t\ter.quorum(blockNumber);\\n    }...\n  POP \t\t\ter.quorum(blockNumber);\\n    }...\n  JUMP \t\t\ter.quorum(blockNumber);\\n    }...\ntag 21\t\t\tproposalId,\\n        address[]...\n  JUMPDEST \t\t\tproposalId,\\n        address[]...\n  DUP2 \t\t\t bytes32 d\n  MLOAD \t\t\t bytes32 d\n  PUSH 1\t\t\t\n  PUSH 1\t\t\t\n  PUSH 40\t\t\t\n  SHL \t\t\t\n  SUB \t\t\t\n  DUP2 \t\t\tsh\\n    ) internal override(Go...\n  GT \t\t\tsh\\n    ) internal override(Go...\n  ISZERO \t\t\tnHash\\n    ) internal override...\n  PUSH [tag] 170\t\t\tnHash\\n    ) internal override...\n  JUMPI \t\t\tnHash\\n    ) internal override...\n  PUSH [tag] 170\t\t\tor, GovernorTimelo\n  PUSH [tag] 140\t\t\tor, GovernorTimelo\n  JUMP \t\t\tor, GovernorTimelo\ntag 170\t\t\tor, GovernorTimelo\n  JUMPDEST \t\t\tor, GovernorTimelo\n  PUSH [tag] 171\t\t\treturns (uint48) {\\n        re...\n  DUP2 \t\t\tosalId\n  PUSH [tag] 172\t\t\tr._queueOperations(\\n         ...\n  DUP5 \t\t\t    \n  SLOAD \t\t\t          p\n  PUSH [tag] 141\t\t\tr._queueOperations(\\n         ...\n  JUMP \t\t\tr._queueOperations(\\n         ...\ntag 172\t\t\tr._queueOperations(\\n         ...\n  JUMPDEST \t\t\tr._queueOperations(\\n         ...\n  DUP5 \t\t\t  su\n  PUSH [tag] 143\t\t\treturns (uint48) {\\n        re...\n  JUMP \t\t\treturns (uint48) {\\n        re...\ntag 171\t\t\treturns (uint48) {\\n        re...\n  JUMPDEST \t\t\treturns (uint48) {\\n        re...\n  PUSH 20\t\t\t    \n  DUP1 \t\t\t    \n  PUSH 1F\t\t\t  \n  DUP4 \t\t\tionHash\\n      \n  GT \t\t\tionHash\\n      \n  PUSH 1\t\t\t\\n\n  DUP2 \t\t\t    }\\n\\n    function _execute...\n  EQ \t\t\t    }\\n\\n    function _execute...\n  PUSH [tag] 174\t\t\t    }\\n\\n    function _execute...\n  JUMPI \t\t\t    }\\n\\n    function _execute...\n  PUSH 0\t\t\ts\n  DUP5 \t\t\tcripti\n  ISZERO \t\t\tdescriptionHash);\\n    }\\n\\n  ...\n  PUSH [tag] 175\t\t\tdescriptionHash);\\n    }\\n\\n  ...\n  JUMPI \t\t\tdescriptionHash);\\n    }\\n\\n  ...\n  POP \t\t\t\n  DUP6 \t\t\t   internal\\n       \n  DUP4 \t\t\t   internal\\n       \n  ADD \t\t\t   internal\\n       \n  MLOAD \t\t\t\\n        internal\\n        \ntag 175\t\t\tdescriptionHash);\\n    }\\n\\n  ...\n  JUMPDEST \t\t\tdescriptionHash);\\n    }\\n\\n  ...\n  PUSH 0\t\t\t\n  NOT \t\t\t\n  PUSH 3\t\t\tf\n  DUP7 \t\t\t    functio\n  SWAP1 \t\t\t    functio\n  SHL \t\t\t    functio\n  SHR \t\t\t }\\n\\n    function _queueO\n  NOT \t\t\t\\n    }\\n\\n    function _queue...\n  AND \t\t\treshold();\\n    }\\n\\n    funct...\n  PUSH 1\t\t\ts\n  DUP6 \t\t\ttions(\\n    \n  SWAP1 \t\t\ttions(\\n    \n  SHL \t\t\ttions(\\n    \n  OR \t\t\tlThreshold();\\n    }\\n\\n    fu...\n  DUP6 \t\t\tnor, GovernorTimelockControl)\\...\n  SSTORE \t\t\tnor, GovernorTimelockControl)\\...\n  PUSH [tag] 173\t\t\tescriptionHash\\n            );...\n  JUMP \t\t\tescriptionHash\\n            );...\ntag 174\t\t\t    }\\n\\n    function _execute...\n  JUMPDEST \t\t\t    }\\n\\n    function _execute...\n  PUSH 0\t\t\tn\n  DUP6 \t\t\tFraction)\\n    \n  DUP2 \t\t\tFraction)\\n    \n  MSTORE \t\t\tFraction)\\n    \n  PUSH 20\t\t\t    \n  DUP2 \t\t\t256)\\n    {\\n       \n  KECCAK256 \t\t\t256)\\n    {\\n       \n  PUSH 1F\t\t\t\n  NOT \t\t\t\n  DUP7 \t\t\tns(\\n        uint256 \n  AND \t\t\tns(\\n        uint256 \n  SWAP2 \t\t\tns(\\n        uint256 \ntag 178\t\t\tory calldatas,\\n        bytes3...\n  JUMPDEST \t\t\tory calldatas,\\n        bytes3...\n  DUP3 \t\t\t\\n      \n  DUP2 \t\t\ta\n  LT \t\t\tdatas,\\n       \n  ISZERO \t\t\tory calldatas,\\n        bytes3...\n  PUSH [tag] 180\t\t\tory calldatas,\\n        bytes3...\n  JUMPI \t\t\tory calldatas,\\n        bytes3...\n  DUP9 \t\t\tl) {\\n        super.\n  DUP7 \t\t\tl) {\\n        super.\n  ADD \t\t\tl) {\\n        super.\n  MLOAD \t\t\tControl) {\\n        super._\n  DUP3 \t\t\tovernorTimelockControl) {\\n   ...\n  SSTORE \t\t\tovernorTimelockControl) {\\n   ...\n  SWAP5 \t\t\t    values,\\n            cal\n  DUP5 \t\t\t    values,\\n            cal\n  ADD \t\t\t    values,\\n            cal\n  SWAP5 \t\t\t    values,\\n            cal\n  PUSH 1\t\t\td\n  SWAP1 \t\t\t   proposalId,\n  SWAP2 \t\t\t   proposalId,\n  ADD \t\t\t   proposalId,\n  SWAP1 \t\t\t   proposalId,\n  DUP5 \t\t\t descriptionHash\\n  \n  ADD \t\t\t descriptionHash\\n  \n  PUSH [tag] 178\t\t\tory calldatas,\\n        bytes3...\n  JUMP \t\t\tory calldatas,\\n        bytes3...\ntag 180\t\t\tory calldatas,\\n        bytes3...\n  JUMPDEST \t\t\tory calldatas,\\n        bytes3...\n  POP \t\t\tcal\n  DUP6 \t\t\t  );\\n \n  DUP3 \t\t\tsh\\n    \n  LT \t\t\tnHash\\n        );\\n  \n  ISZERO \t\t\ttionHash\\n        );\\n    }\\n\\...\n  PUSH [tag] 181\t\t\ttionHash\\n        );\\n    }\\n\\...\n  JUMPI \t\t\ttionHash\\n        );\\n    }\\n\\...\n  DUP8 \t\t\trgets,\\n        uint\n  DUP6 \t\t\trgets,\\n        uint\n  ADD \t\t\trgets,\\n        uint\n  MLOAD \t\t\tory targets,\\n        uint2\n  PUSH 0\t\t\t\n  NOT \t\t\t\n  PUSH 3\t\t\ty\n  DUP9 \t\t\t   bytes32 des\n  SWAP1 \t\t\t   bytes32 des\n  SHL \t\t\t   bytes32 des\n  PUSH F8\t\t\tipt\n  AND \t\t\t       bytes32 descripti\n  SHR \t\t\ts,\\n        bytes32 descriptio...\n  NOT \t\t\tdatas,\\n        bytes32 descri...\n  AND \t\t\ts[] memory calldatas,\\n       ...\n  DUP2 \t\t\ts,\\n        bytes[] memory cal...\n  SSTORE \t\t\ts,\\n        bytes[] memory cal...\ntag 181\t\t\ttionHash\\n        );\\n    }\\n\\...\n  JUMPDEST \t\t\ttionHash\\n        );\\n    }\\n\\...\n  POP \t\t\ttionHash\\n        );\\n    }\\n\\...\n  POP \t\t\ttionHash\\n        );\\n    }\\n\\...\n  PUSH 1\t\t\ts\n  DUP5 \t\t\tl) ret\n  PUSH 1\t\t\tt\n  SHL \t\t\tkControl) retu\n  ADD \t\t\telockControl) returns \n  DUP6 \t\t\tnorT\n  SSTORE \t\t\t, GovernorTimelockControl) ret...\ntag 173\t\t\tescriptionHash\\n            );...\n  JUMPDEST \t\t\tescriptionHash\\n            );...\n  POP \t\t\tescriptionHash\\n            );...\n  POP \t\t\tescriptionHash\\n            );...\n  POP \t\t\tescriptionHash\\n            );...\n  POP \t\t\tescriptionHash\\n            );...\n  POP \t\t\tproposalId,\\n        address[]...\n  POP \t\t\tproposalId,\\n        address[]...\n  JUMP \t\t\tproposalId,\\n        address[]...\ntag 82\t\t\t\n  JUMPDEST \t\t\t\n  PUSH 0\t\t\t\n  PUSH 20\t\t\t\n  DUP1 \t\t\t\n  DUP4 \t\t\t\n  MSTORE \t\t\t\n  DUP4 \t\t\t\n  MLOAD \t\t\t\n  DUP1 \t\t\t\n  PUSH 20\t\t\t\n  DUP6 \t\t\t\n  ADD \t\t\t\n  MSTORE \t\t\t\n  PUSH 0\t\t\t\ntag 189\t\t\t\n  JUMPDEST \t\t\t\n  DUP2 \t\t\t\n  DUP2 \t\t\t\n  LT \t\t\t\n  ISZERO \t\t\t\n  PUSH [tag] 191\t\t\t\n  JUMPI \t\t\t\n  DUP6 \t\t\t\n  DUP2 \t\t\t\n  ADD \t\t\t\n  DUP4 \t\t\t\n  ADD \t\t\t\n  MLOAD \t\t\t\n  DUP6 \t\t\t\n  DUP3 \t\t\t\n  ADD \t\t\t\n  PUSH 40\t\t\t\n  ADD \t\t\t\n  MSTORE \t\t\t\n  DUP3 \t\t\t\n  ADD \t\t\t\n  PUSH [tag] 189\t\t\t\n  JUMP \t\t\t\ntag 191\t\t\t\n  JUMPDEST \t\t\t\n  POP \t\t\t\n  PUSH 0\t\t\t\n  PUSH 40\t\t\t\n  DUP3 \t\t\t\n  DUP7 \t\t\t\n  ADD \t\t\t\n  ADD \t\t\t\n  MSTORE \t\t\t\n  PUSH 40\t\t\t\n  PUSH 1F\t\t\t\n  NOT \t\t\t\n  PUSH 1F\t\t\t\n  DUP4 \t\t\t\n  ADD \t\t\t\n  AND \t\t\t\n  DUP6 \t\t\t\n  ADD \t\t\t\n  ADD \t\t\t\n  SWAP3 \t\t\t\n  POP \t\t\t\n  POP \t\t\t\n  POP \t\t\t\n  SWAP3 \t\t\t\n  SWAP2 \t\t\t\n  POP \t\t\t\n  POP \t\t\t\n  JUMP \t\t\t\ntag 84\t\t\t\n  JUMPDEST \t\t\t\n  DUP1 \t\t\t\n  MLOAD \t\t\t\n  PUSH 20\t\t\t\n  DUP1 \t\t\t\n  DUP4 \t\t\t\n  ADD \t\t\t\n  MLOAD \t\t\t\n  SWAP2 \t\t\t\n  SWAP1 \t\t\t\n  DUP2 \t\t\t\n  LT \t\t\t\n  ISZERO \t\t\t\n  PUSH [tag] 159\t\t\t\n  JUMPI \t\t\t\n  PUSH 0\t\t\t\n  NOT \t\t\t\n  PUSH 20\t\t\t\n  SWAP2 \t\t\t\n  SWAP1 \t\t\t\n  SWAP2 \t\t\t\n  SUB \t\t\t\n  PUSH 3\t\t\t\n  SHL \t\t\t\n  SHL \t\t\t\n  AND \t\t\t\n  SWAP2 \t\t\t\n  SWAP1 \t\t\t\n  POP \t\t\t\n  JUMP \t\t\t\ntag 95\t\t\t\n  JUMPDEST \t\t\t\n  PUSH 0\t\t\t\n  PUSH 20\t\t\t\n  DUP3 \t\t\t\n  DUP5 \t\t\t\n  SUB \t\t\t\n  SLT \t\t\t\n  ISZERO \t\t\t\n  PUSH [tag] 195\t\t\t\n  JUMPI \t\t\t\n  PUSH 0\t\t\t\n  DUP1 \t\t\t\n  REVERT \t\t\t\ntag 195\t\t\t\n  JUMPDEST \t\t\t\n  PUSH [tag] 116\t\t\t\n  DUP3 \t\t\t\n  PUSH [tag] 139\t\t\t\n  JUMP \t\t\t\ntag 114\t\t\t\n  JUMPDEST \t\t\t\n  DUP2 \t\t\t\n  DUP2 \t\t\t\n  SUB \t\t\t\n  DUP2 \t\t\t\n  DUP2 \t\t\t\n  GT \t\t\t\n  ISZERO \t\t\t\n  PUSH [tag] 43\t\t\t\n  JUMPI \t\t\t\n  PUSH 4E487B71\t\t\t\n  PUSH E0\t\t\t\n  SHL \t\t\t\n  PUSH 0\t\t\t\n  MSTORE \t\t\t\n  PUSH 11\t\t\t\n  PUSH 4\t\t\t\n  MSTORE \t\t\t\n  PUSH 24\t\t\t\n  PUSH 0\t\t\t\n  REVERT \t\t\t\ntag 145\t\t\t\n  JUMPDEST \t\t\t\n  PUSH 80\t\t\tcontract GovernorContract is\\n...\n  MLOAD \t\t\tcontract GovernorContract is\\n...\n  PUSH A0\t\t\tcontract GovernorContract is\\n...\n  MLOAD \t\t\tcontract GovernorContract is\\n...\n  PUSH C0\t\t\tcontract GovernorContract is\\n...\n  MLOAD \t\t\tcontract GovernorContract is\\n...\n  PUSH E0\t\t\tcontract GovernorContract is\\n...\n  MLOAD \t\t\tcontract GovernorContract is\\n...\n  PUSH 100\t\t\tcontract GovernorContract is\\n...\n  MLOAD \t\t\tcontract GovernorContract is\\n...\n  PUSH 120\t\t\tcontract GovernorContract is\\n...\n  MLOAD \t\t\tcontract GovernorContract is\\n...\n  PUSH 140\t\t\tcontract GovernorContract is\\n...\n  MLOAD \t\t\tcontract GovernorContract is\\n...\n  PUSH 160\t\t\tcontract GovernorContract is\\n...\n  MLOAD \t\t\tcontract GovernorContract is\\n...\n  PUSH #[$] 0000000000000000000000000000000000000000000000000000000000000000\t\t\tcontract GovernorContract is\\n...\n  PUSH [$] 0000000000000000000000000000000000000000000000000000000000000000\t\t\tcontract GovernorContract is\\n...\n  PUSH 0\t\t\tcontract GovernorContract is\\n...\n  CODECOPY \t\t\tcontract GovernorContract is\\n...\n  PUSH 0\t\t\tcontract GovernorContract is\\n...\n  ASSIGNIMMUTABLE 4433\t\t\tcontract GovernorContract is\\n...\n  PUSH 0\t\t\tcontract GovernorContract is\\n...\n  ASSIGNIMMUTABLE 6362\t\t\tcontract GovernorContract is\\n...\n  PUSH 0\t\t\tcontract GovernorContract is\\n...\n  ASSIGNIMMUTABLE 6359\t\t\tcontract GovernorContract is\\n...\n  PUSH 0\t\t\tcontract GovernorContract is\\n...\n  ASSIGNIMMUTABLE 6356\t\t\tcontract GovernorContract is\\n...\n  PUSH 0\t\t\tcontract GovernorContract is\\n...\n  ASSIGNIMMUTABLE 6354\t\t\tcontract GovernorContract is\\n...\n  PUSH 0\t\t\tcontract GovernorContract is\\n...\n  ASSIGNIMMUTABLE 6352\t\t\tcontract GovernorContract is\\n...\n  PUSH 0\t\t\tcontract GovernorContract is\\n...\n  ASSIGNIMMUTABLE 6350\t\t\tcontract GovernorContract is\\n...\n  PUSH 0\t\t\tcontract GovernorContract is\\n...\n  ASSIGNIMMUTABLE 6348\t\t\tcontract GovernorContract is\\n...\n  PUSH #[$] 0000000000000000000000000000000000000000000000000000000000000000\t\t\tcontract GovernorContract is\\n...\n  PUSH 0\t\t\tcontract GovernorContract is\\n...\n  RETURN \t\t\tcontract GovernorContract is\\n...\n.data\n  0:\n    .code\n      PUSH 80\t\t\tcontract GovernorContract is\\n...\n      PUSH 40\t\t\tcontract GovernorContract is\\n...\n      MSTORE \t\t\tcontract GovernorContract is\\n...\n      PUSH 4\t\t\tcontract GovernorContract is\\n...\n      CALLDATASIZE \t\t\tcontract GovernorContract is\\n...\n      LT \t\t\tcontract GovernorContract is\\n...\n      PUSH [tag] 1\t\t\tcontract GovernorContract is\\n...\n      JUMPI \t\t\tcontract GovernorContract is\\n...\n      PUSH 0\t\t\tcontract GovernorContract is\\n...\n      CALLDATALOAD \t\t\tcontract GovernorContract is\\n...\n      PUSH E0\t\t\tcontract GovernorContract is\\n...\n      SHR \t\t\tcontract GovernorContract is\\n...\n      DUP1 \t\t\tcontract GovernorContract is\\n...\n      PUSH 7ECEBE00\t\t\tcontract GovernorContract is\\n...\n      GT \t\t\tcontract GovernorContract is\\n...\n      PUSH [tag] 51\t\t\tcontract GovernorContract is\\n...\n      JUMPI \t\t\tcontract GovernorContract is\\n...\n      DUP1 \t\t\tcontract GovernorContract is\\n...\n      PUSH C01F9E37\t\t\tcontract GovernorContract is\\n...\n      GT \t\t\tcontract GovernorContract is\\n...\n      PUSH [tag] 52\t\t\tcontract GovernorContract is\\n...\n      JUMPI \t\t\tcontract GovernorContract is\\n...\n      DUP1 \t\t\tcontract GovernorContract is\\n...\n      PUSH E540D01D\t\t\tcontract GovernorContract is\\n...\n      GT \t\t\tcontract GovernorContract is\\n...\n      PUSH [tag] 53\t\t\tcontract GovernorContract is\\n...\n      JUMPI \t\t\tcontract GovernorContract is\\n...\n      DUP1 \t\t\tcontract GovernorContract is\\n...\n      PUSH E540D01D\t\t\tcontract GovernorContract is\\n...\n      EQ \t\t\tcontract GovernorContract is\\n...\n      PUSH [tag] 45\t\t\tcontract GovernorContract is\\n...\n      JUMPI \t\t\tcontract GovernorContract is\\n...\n      DUP1 \t\t\tcontract GovernorContract is\\n...\n      PUSH EB9019D4\t\t\tcontract GovernorContract is\\n...\n      EQ \t\t\tcontract GovernorContract is\\n...\n      PUSH [tag] 46\t\t\tcontract GovernorContract is\\n...\n      JUMPI \t\t\tcontract GovernorContract is\\n...\n      DUP1 \t\t\tcontract GovernorContract is\\n...\n      PUSH ECE40CC1\t\t\tcontract GovernorContract is\\n...\n      EQ \t\t\tcontract GovernorContract is\\n...\n      PUSH [tag] 47\t\t\tcontract GovernorContract is\\n...\n      JUMPI \t\t\tcontract GovernorContract is\\n...\n      DUP1 \t\t\tcontract GovernorContract is\\n...\n      PUSH F23A6E61\t\t\tcontract GovernorContract is\\n...\n      EQ \t\t\tcontract GovernorContract is\\n...\n      PUSH [tag] 48\t\t\tcontract GovernorContract is\\n...\n      JUMPI \t\t\tcontract GovernorContract is\\n...\n      DUP1 \t\t\tcontract GovernorContract is\\n...\n      PUSH F8CE560A\t\t\tcontract GovernorContract is\\n...\n      EQ \t\t\tcontract GovernorContract is\\n...\n      PUSH [tag] 49\t\t\tcontract GovernorContract is\\n...\n      JUMPI \t\t\tcontract GovernorContract is\\n...\n      DUP1 \t\t\tcontract GovernorContract is\\n...\n      PUSH FC0C546A\t\t\tcontract GovernorContract is\\n...\n      EQ \t\t\tcontract GovernorContract is\\n...\n      PUSH [tag] 50\t\t\tcontract GovernorContract is\\n...\n      JUMPI \t\t\tcontract GovernorContract is\\n...\n      PUSH 0\t\t\tcontract GovernorContract is\\n...\n      DUP1 \t\t\tcontract GovernorContract is\\n...\n      REVERT \t\t\tcontract GovernorContract is\\n...\n    tag 53\t\t\tcontract GovernorContract is\\n...\n      JUMPDEST \t\t\tcontract GovernorContract is\\n...\n      DUP1 \t\t\tcontract GovernorContract is\\n...\n      PUSH C01F9E37\t\t\tcontract GovernorContract is\\n...\n      EQ \t\t\tcontract GovernorContract is\\n...\n      PUSH [tag] 39\t\t\tcontract GovernorContract is\\n...\n      JUMPI \t\t\tcontract GovernorContract is\\n...\n      DUP1 \t\t\tcontract GovernorContract is\\n...\n      PUSH C28BC2FA\t\t\tcontract GovernorContract is\\n...\n      EQ \t\t\tcontract GovernorContract is\\n...\n      PUSH [tag] 40\t\t\tcontract GovernorContract is\\n...\n      JUMPI \t\t\tcontract GovernorContract is\\n...\n      DUP1 \t\t\tcontract GovernorContract is\\n...\n      PUSH C59057E4\t\t\tcontract GovernorContract is\\n...\n      EQ \t\t\tcontract GovernorContract is\\n...\n      PUSH [tag] 41\t\t\tcontract GovernorContract is\\n...\n      JUMPI \t\t\tcontract GovernorContract is\\n...\n      DUP1 \t\t\tcontract GovernorContract is\\n...\n      PUSH D33219B4\t\t\tcontract GovernorContract is\\n...\n      EQ \t\t\tcontract GovernorContract is\\n...\n      PUSH [tag] 42\t\t\tcontract GovernorContract is\\n...\n      JUMPI \t\t\tcontract GovernorContract is\\n...\n      DUP1 \t\t\tcontract GovernorContract is\\n...\n      PUSH DD4E2BA5\t\t\tcontract GovernorContract is\\n...\n      EQ \t\t\tcontract GovernorContract is\\n...\n      PUSH [tag] 43\t\t\tcontract GovernorContract is\\n...\n      JUMPI \t\t\tcontract GovernorContract is\\n...\n      DUP1 \t\t\tcontract GovernorContract is\\n...\n      PUSH DEAAA7CC\t\t\tcontract GovernorContract is\\n...\n      EQ \t\t\tcontract GovernorContract is\\n...\n      PUSH [tag] 44\t\t\tcontract GovernorContract is\\n...\n      JUMPI \t\t\tcontract GovernorContract is\\n...\n      PUSH 0\t\t\tcontract GovernorContract is\\n...\n      DUP1 \t\t\tcontract GovernorContract is\\n...\n      REVERT \t\t\tcontract GovernorContract is\\n...\n    tag 52\t\t\tcontract GovernorContract is\\n...\n      JUMPDEST \t\t\tcontract GovernorContract is\\n...\n      DUP1 \t\t\tcontract GovernorContract is\\n...\n      PUSH A7713A70\t\t\tcontract GovernorContract is\\n...\n      GT \t\t\tcontract GovernorContract is\\n...\n      PUSH [tag] 54\t\t\tcontract GovernorContract is\\n...\n      JUMPI \t\t\tcontract GovernorContract is\\n...\n      DUP1 \t\t\tcontract GovernorContract is\\n...\n      PUSH A7713A70\t\t\tcontract GovernorContract is\\n...\n      EQ \t\t\tcontract GovernorContract is\\n...\n      PUSH [tag] 33\t\t\tcontract GovernorContract is\\n...\n      JUMPI \t\t\tcontract GovernorContract is\\n...\n      DUP1 \t\t\tcontract GovernorContract is\\n...\n      PUSH A890C910\t\t\tcontract GovernorContract is\\n...\n      EQ \t\t\tcontract GovernorContract is\\n...\n      PUSH [tag] 34\t\t\tcontract GovernorContract is\\n...\n      JUMPI \t\t\tcontract GovernorContract is\\n...\n      DUP1 \t\t\tcontract GovernorContract is\\n...\n      PUSH A9A95294\t\t\tcontract GovernorContract is\\n...\n      EQ \t\t\tcontract GovernorContract is\\n...\n      PUSH [tag] 35\t\t\tcontract GovernorContract is\\n...\n      JUMPI \t\t\tcontract GovernorContract is\\n...\n      DUP1 \t\t\tcontract GovernorContract is\\n...\n      PUSH AB58FB8E\t\t\tcontract GovernorContract is\\n...\n      EQ \t\t\tcontract GovernorContract is\\n...\n      PUSH [tag] 36\t\t\tcontract GovernorContract is\\n...\n      JUMPI \t\t\tcontract GovernorContract is\\n...\n      DUP1 \t\t\tcontract GovernorContract is\\n...\n      PUSH B58131B0\t\t\tcontract GovernorContract is\\n...\n      EQ \t\t\tcontract GovernorContract is\\n...\n      PUSH [tag] 37\t\t\tcontract GovernorContract is\\n...\n      JUMPI \t\t\tcontract GovernorContract is\\n...\n      DUP1 \t\t\tcontract GovernorContract is\\n...\n      PUSH BC197C81\t\t\tcontract GovernorContract is\\n...\n      EQ \t\t\tcontract GovernorContract is\\n...\n      PUSH [tag] 38\t\t\tcontract GovernorContract is\\n...\n      JUMPI \t\t\tcontract GovernorContract is\\n...\n      PUSH 0\t\t\tcontract GovernorContract is\\n...\n      DUP1 \t\t\tcontract GovernorContract is\\n...\n      REVERT \t\t\tcontract GovernorContract is\\n...\n    tag 54\t\t\tcontract GovernorContract is\\n...\n      JUMPDEST \t\t\tcontract GovernorContract is\\n...\n      DUP1 \t\t\tcontract GovernorContract is\\n...\n      PUSH 7ECEBE00\t\t\tcontract GovernorContract is\\n...\n      EQ \t\t\tcontract GovernorContract is\\n...\n      PUSH [tag] 27\t\t\tcontract GovernorContract is\\n...\n      JUMPI \t\t\tcontract GovernorContract is\\n...\n      DUP1 \t\t\tcontract GovernorContract is\\n...\n      PUSH 84B0196E\t\t\tcontract GovernorContract is\\n...\n      EQ \t\t\tcontract GovernorContract is\\n...\n      PUSH [tag] 28\t\t\tcontract GovernorContract is\\n...\n      JUMPI \t\t\tcontract GovernorContract is\\n...\n      DUP1 \t\t\tcontract GovernorContract is\\n...\n      PUSH 8FF262E3\t\t\tcontract GovernorContract is\\n...\n      EQ \t\t\tcontract GovernorContract is\\n...\n      PUSH [tag] 29\t\t\tcontract GovernorContract is\\n...\n      JUMPI \t\t\tcontract GovernorContract is\\n...\n      DUP1 \t\t\tcontract GovernorContract is\\n...\n      PUSH 91DDADF4\t\t\tcontract GovernorContract is\\n...\n      EQ \t\t\tcontract GovernorContract is\\n...\n      PUSH [tag] 30\t\t\tcontract GovernorContract is\\n...\n      JUMPI \t\t\tcontract GovernorContract is\\n...\n      DUP1 \t\t\tcontract GovernorContract is\\n...\n      PUSH 97C3D334\t\t\tcontract GovernorContract is\\n...\n      EQ \t\t\tcontract GovernorContract is\\n...\n      PUSH [tag] 31\t\t\tcontract GovernorContract is\\n...\n      JUMPI \t\t\tcontract GovernorContract is\\n...\n      DUP1 \t\t\tcontract GovernorContract is\\n...\n      PUSH 9A802A6D\t\t\tcontract GovernorContract is\\n...\n      EQ \t\t\tcontract GovernorContract is\\n...\n      PUSH [tag] 32\t\t\tcontract GovernorContract is\\n...\n      JUMPI \t\t\tcontract GovernorContract is\\n...\n      PUSH 0\t\t\tcontract GovernorContract is\\n...\n      DUP1 \t\t\tcontract GovernorContract is\\n...\n      REVERT \t\t\tcontract GovernorContract is\\n...\n    tag 51\t\t\tcontract GovernorContract is\\n...\n      JUMPDEST \t\t\tcontract GovernorContract is\\n...\n      DUP1 \t\t\tcontract GovernorContract is\\n...\n      PUSH 43859632\t\t\tcontract GovernorContract is\\n...\n      GT \t\t\tcontract GovernorContract is\\n...\n      PUSH [tag] 55\t\t\tcontract GovernorContract is\\n...\n      JUMPI \t\t\tcontract GovernorContract is\\n...\n      DUP1 \t\t\tcontract GovernorContract is\\n...\n      PUSH 5B8D0E0D\t\t\tcontract GovernorContract is\\n...\n      GT \t\t\tcontract GovernorContract is\\n...\n      PUSH [tag] 56\t\t\tcontract GovernorContract is\\n...\n      JUMPI \t\t\tcontract GovernorContract is\\n...\n      DUP1 \t\t\tcontract GovernorContract is\\n...\n      PUSH 5B8D0E0D\t\t\tcontract GovernorContract is\\n...\n      EQ \t\t\tcontract GovernorContract is\\n...\n      PUSH [tag] 21\t\t\tcontract GovernorContract is\\n...\n      JUMPI \t\t\tcontract GovernorContract is\\n...\n      DUP1 \t\t\tcontract GovernorContract is\\n...\n      PUSH 5F398A14\t\t\tcontract GovernorContract is\\n...\n      EQ \t\t\tcontract GovernorContract is\\n...\n      PUSH [tag] 22\t\t\tcontract GovernorContract is\\n...\n      JUMPI \t\t\tcontract GovernorContract is\\n...\n      DUP1 \t\t\tcontract GovernorContract is\\n...\n      PUSH 60C4247F\t\t\tcontract GovernorContract is\\n...\n      EQ \t\t\tcontract GovernorContract is\\n...\n      PUSH [tag] 23\t\t\tcontract GovernorContract is\\n...\n      JUMPI \t\t\tcontract GovernorContract is\\n...\n      DUP1 \t\t\tcontract GovernorContract is\\n...\n      PUSH 79051887\t\t\tcontract GovernorContract is\\n...\n      EQ \t\t\tcontract GovernorContract is\\n...\n      PUSH [tag] 24\t\t\tcontract GovernorContract is\\n...\n      JUMPI \t\t\tcontract GovernorContract is\\n...\n      DUP1 \t\t\tcontract GovernorContract is\\n...\n      PUSH 7B3C71D3\t\t\tcontract GovernorContract is\\n...\n      EQ \t\t\tcontract GovernorContract is\\n...\n      PUSH [tag] 25\t\t\tcontract GovernorContract is\\n...\n      JUMPI \t\t\tcontract GovernorContract is\\n...\n      DUP1 \t\t\tcontract GovernorContract is\\n...\n      PUSH 7D5E81E2\t\t\tcontract GovernorContract is\\n...\n      EQ \t\t\tcontract GovernorContract is\\n...\n      PUSH [tag] 26\t\t\tcontract GovernorContract is\\n...\n      JUMPI \t\t\tcontract GovernorContract is\\n...\n      PUSH 0\t\t\tcontract GovernorContract is\\n...\n      DUP1 \t\t\tcontract GovernorContract is\\n...\n      REVERT \t\t\tcontract GovernorContract is\\n...\n    tag 56\t\t\tcontract GovernorContract is\\n...\n      JUMPDEST \t\t\tcontract GovernorContract is\\n...\n      DUP1 \t\t\tcontract GovernorContract is\\n...\n      PUSH 43859632\t\t\tcontract GovernorContract is\\n...\n      EQ \t\t\tcontract GovernorContract is\\n...\n      PUSH [tag] 15\t\t\tcontract GovernorContract is\\n...\n      JUMPI \t\t\tcontract GovernorContract is\\n...\n      DUP1 \t\t\tcontract GovernorContract is\\n...\n      PUSH 452115D6\t\t\tcontract GovernorContract is\\n...\n      EQ \t\t\tcontract GovernorContract is\\n...\n      PUSH [tag] 16\t\t\tcontract GovernorContract is\\n...\n      JUMPI \t\t\tcontract GovernorContract is\\n...\n      DUP1 \t\t\tcontract GovernorContract is\\n...\n      PUSH 4BF5D7E9\t\t\tcontract GovernorContract is\\n...\n      EQ \t\t\tcontract GovernorContract is\\n...\n      PUSH [tag] 17\t\t\tcontract GovernorContract is\\n...\n      JUMPI \t\t\tcontract GovernorContract is\\n...\n      DUP1 \t\t\tcontract GovernorContract is\\n...\n      PUSH 544FFC9C\t\t\tcontract GovernorContract is\\n...\n      EQ \t\t\tcontract GovernorContract is\\n...\n      PUSH [tag] 18\t\t\tcontract GovernorContract is\\n...\n      JUMPI \t\t\tcontract GovernorContract is\\n...\n      DUP1 \t\t\tcontract GovernorContract is\\n...\n      PUSH 54FD4D50\t\t\tcontract GovernorContract is\\n...\n      EQ \t\t\tcontract GovernorContract is\\n...\n      PUSH [tag] 19\t\t\tcontract GovernorContract is\\n...\n      JUMPI \t\t\tcontract GovernorContract is\\n...\n      DUP1 \t\t\tcontract GovernorContract is\\n...\n      PUSH 56781388\t\t\tcontract GovernorContract is\\n...\n      EQ \t\t\tcontract GovernorContract is\\n...\n      PUSH [tag] 20\t\t\tcontract GovernorContract is\\n...\n      JUMPI \t\t\tcontract GovernorContract is\\n...\n      PUSH 0\t\t\tcontract GovernorContract is\\n...\n      DUP1 \t\t\tcontract GovernorContract is\\n...\n      REVERT \t\t\tcontract GovernorContract is\\n...\n    tag 55\t\t\tcontract GovernorContract is\\n...\n      JUMPDEST \t\t\tcontract GovernorContract is\\n...\n      DUP1 \t\t\tcontract GovernorContract is\\n...\n      PUSH 160CBED7\t\t\tcontract GovernorContract is\\n...\n      GT \t\t\tcontract GovernorContract is\\n...\n      PUSH [tag] 57\t\t\tcontract GovernorContract is\\n...\n      JUMPI \t\t\tcontract GovernorContract is\\n...\n      DUP1 \t\t\tcontract GovernorContract is\\n...\n      PUSH 160CBED7\t\t\tcontract GovernorContract is\\n...\n      EQ \t\t\tcontract GovernorContract is\\n...\n      PUSH [tag] 9\t\t\tcontract GovernorContract is\\n...\n      JUMPI \t\t\tcontract GovernorContract is\\n...\n      DUP1 \t\t\tcontract GovernorContract is\\n...\n      PUSH 2656227D\t\t\tcontract GovernorContract is\\n...\n      EQ \t\t\tcontract GovernorContract is\\n...\n      PUSH [tag] 10\t\t\tcontract GovernorContract is\\n...\n      JUMPI \t\t\tcontract GovernorContract is\\n...\n      DUP1 \t\t\tcontract GovernorContract is\\n...\n      PUSH 2D63F693\t\t\tcontract GovernorContract is\\n...\n      EQ \t\t\tcontract GovernorContract is\\n...\n      PUSH [tag] 11\t\t\tcontract GovernorContract is\\n...\n      JUMPI \t\t\tcontract GovernorContract is\\n...\n      DUP1 \t\t\tcontract GovernorContract is\\n...\n      PUSH 2FE3E261\t\t\tcontract GovernorContract is\\n...\n      EQ \t\t\tcontract GovernorContract is\\n...\n      PUSH [tag] 12\t\t\tcontract GovernorContract is\\n...\n      JUMPI \t\t\tcontract GovernorContract is\\n...\n      DUP1 \t\t\tcontract GovernorContract is\\n...\n      PUSH 3932ABB1\t\t\tcontract GovernorContract is\\n...\n      EQ \t\t\tcontract GovernorContract is\\n...\n      PUSH [tag] 13\t\t\tcontract GovernorContract is\\n...\n      JUMPI \t\t\tcontract GovernorContract is\\n...\n      DUP1 \t\t\tcontract GovernorContract is\\n...\n      PUSH 3E4F49E6\t\t\tcontract GovernorContract is\\n...\n      EQ \t\t\tcontract GovernorContract is\\n...\n      PUSH [tag] 14\t\t\tcontract GovernorContract is\\n...\n      JUMPI \t\t\tcontract GovernorContract is\\n...\n      PUSH 0\t\t\tcontract GovernorContract is\\n...\n      DUP1 \t\t\tcontract GovernorContract is\\n...\n      REVERT \t\t\tcontract GovernorContract is\\n...\n    tag 57\t\t\tcontract GovernorContract is\\n...\n      JUMPDEST \t\t\tcontract GovernorContract is\\n...\n      DUP1 \t\t\tcontract GovernorContract is\\n...\n      PUSH 1FFC9A7\t\t\tcontract GovernorContract is\\n...\n      EQ \t\t\tcontract GovernorContract is\\n...\n      PUSH [tag] 3\t\t\tcontract GovernorContract is\\n...\n      JUMPI \t\t\tcontract GovernorContract is\\n...\n      DUP1 \t\t\tcontract GovernorContract is\\n...\n      PUSH 2A251A3\t\t\tcontract GovernorContract is\\n...\n      EQ \t\t\tcontract GovernorContract is\\n...\n      PUSH [tag] 4\t\t\tcontract GovernorContract is\\n...\n      JUMPI \t\t\tcontract GovernorContract is\\n...\n      DUP1 \t\t\tcontract GovernorContract is\\n...\n      PUSH 6F3F9E6\t\t\tcontract GovernorContract is\\n...\n      EQ \t\t\tcontract GovernorContract is\\n...\n      PUSH [tag] 5\t\t\tcontract GovernorContract is\\n...\n      JUMPI \t\t\tcontract GovernorContract is\\n...\n      DUP1 \t\t\tcontract GovernorContract is\\n...\n      PUSH 6FDDE03\t\t\tcontract GovernorContract is\\n...\n      EQ \t\t\tcontract GovernorContract is\\n...\n      PUSH [tag] 6\t\t\tcontract GovernorContract is\\n...\n      JUMPI \t\t\tcontract GovernorContract is\\n...\n      DUP1 \t\t\tcontract GovernorContract is\\n...\n      PUSH 143489D0\t\t\tcontract GovernorContract is\\n...\n      EQ \t\t\tcontract GovernorContract is\\n...\n      PUSH [tag] 7\t\t\tcontract GovernorContract is\\n...\n      JUMPI \t\t\tcontract GovernorContract is\\n...\n      DUP1 \t\t\tcontract GovernorContract is\\n...\n      PUSH 150B7A02\t\t\tcontract GovernorContract is\\n...\n      EQ \t\t\tcontract GovernorContract is\\n...\n      PUSH [tag] 8\t\t\tcontract GovernorContract is\\n...\n      JUMPI \t\t\tcontract GovernorContract is\\n...\n      PUSH 0\t\t\tcontract GovernorContract is\\n...\n      DUP1 \t\t\tcontract GovernorContract is\\n...\n      REVERT \t\t\tcontract GovernorContract is\\n...\n    tag 1\t\t\tcontract GovernorContract is\\n...\n      JUMPDEST \t\t\tcontract GovernorContract is\\n...\n      CALLDATASIZE \t\t\tcontract GovernorContract is\\n...\n      PUSH [tag] 2\t\t\tcontract GovernorContract is\\n...\n      JUMPI \t\t\tcontract GovernorContract is\\n...\n      ADDRESS \t\t\t\n      PUSH [tag] 60\t\t\t\n      PUSH [tag] 61\t\t\t\n      JUMP \t\t\t\n    tag 60\t\t\t\n      JUMPDEST \t\t\t\n      PUSH 1\t\t\t\n      PUSH 1\t\t\t\n      PUSH A0\t\t\t\n      SHL \t\t\t\n      SUB \t\t\t\n      AND \t\t\t\n      EQ \t\t\t\n      PUSH [tag] 62\t\t\t}\\n}\\n\n      JUMPI \t\t\t}\\n}\\n\n      PUSH 40\t\t\t\n      MLOAD \t\t\t\n      PUSH 7485328F\t\t\t\n      PUSH E1\t\t\t\n      SHL \t\t\t\n      DUP2 \t\t\t\n      MSTORE \t\t\t\n      PUSH 4\t\t\t\n      ADD \t\t\t\n      PUSH 40\t\t\t\n      MLOAD \t\t\t\n      DUP1 \t\t\t\n      SWAP2 \t\t\t\n      SUB \t\t\t\n      SWAP1 \t\t\t\n      REVERT \t\t\t\n    tag 62\t\t\t}\\n}\\n\n      JUMPDEST \t\t\t}\\n}\\n\n      STOP \t\t\tcontract GovernorContract is\\n...\n    tag 2\t\t\tcontract GovernorContract is\\n...\n      JUMPDEST \t\t\tcontract GovernorContract is\\n...\n      PUSH 0\t\t\tcontract GovernorContract is\\n...\n      DUP1 \t\t\tcontract GovernorContract is\\n...\n      REVERT \t\t\tcontract GovernorContract is\\n...\n    tag 3\t\t\t\n      JUMPDEST \t\t\t\n      CALLVALUE \t\t\t\n      DUP1 \t\t\t\n      ISZERO \t\t\t\n      PUSH [tag] 63\t\t\t\n      JUMPI \t\t\t\n      PUSH 0\t\t\t\n      DUP1 \t\t\t\n      REVERT \t\t\t\n    tag 63\t\t\t\n      JUMPDEST \t\t\t\n      POP \t\t\t\n      PUSH [tag] 64\t\t\t\n      PUSH [tag] 65\t\t\t\n      CALLDATASIZE \t\t\t\n      PUSH 4\t\t\t\n      PUSH [tag] 66\t\t\t\n      JUMP \t\t\t\n    tag 65\t\t\t\n      JUMPDEST \t\t\t\n      PUSH [tag] 67\t\t\t\n      JUMP \t\t\t\n    tag 64\t\t\t\n      JUMPDEST \t\t\t\n      PUSH 40\t\t\t\n      MLOAD \t\t\t\n      SWAP1 \t\t\tport \"@openzep\n      ISZERO \t\t\tport \"@openzep\n      ISZERO \t\t\tol\";\\nimport \"@openzepp\n      DUP2 \t\t\tesQuorumFraction.sol\";\\nimport...\n      MSTORE \t\t\tesQuorumFraction.sol\";\\nimport...\n      PUSH 20\t\t\t/G\n      ADD \t\t\tance/extensions/Go\n    tag 68\t\t\t\n      JUMPDEST \t\t\t\n      PUSH 40\t\t\t\n      MLOAD \t\t\t\n      DUP1 \t\t\t\n      SWAP2 \t\t\t\n      SUB \t\t\t\n      SWAP1 \t\t\t\n      RETURN \t\t\t\n    tag 4\t\t\tfunction votingPeriod()\\n     ...\n      JUMPDEST \t\t\tfunction votingPeriod()\\n     ...\n      CALLVALUE \t\t\tfunction votingPeriod()\\n     ...\n      DUP1 \t\t\tfunction votingPeriod()\\n     ...\n      ISZERO \t\t\tfunction votingPeriod()\\n     ...\n      PUSH [tag] 70\t\t\tfunction votingPeriod()\\n     ...\n      JUMPI \t\t\tfunction votingPeriod()\\n     ...\n      PUSH 0\t\t\tfunction votingPeriod()\\n     ...\n      DUP1 \t\t\tfunction votingPeriod()\\n     ...\n      REVERT \t\t\tfunction votingPeriod()\\n     ...\n    tag 70\t\t\tfunction votingPeriod()\\n     ...\n      JUMPDEST \t\t\tfunction votingPeriod()\\n     ...\n      POP \t\t\t\n      PUSH 8\t\t\ternor, Govern\n      SLOAD \t\t\ternor, Govern\n      PUSH 1\t\t\t\n      PUSH 30\t\t\t\n      SHL \t\t\t\n      SWAP1 \t\t\ternor, Govern\n      DIV \t\t\ternor, Govern\n      PUSH FFFFFFFF\t\t\ternor, Govern\n      AND \t\t\ternor, Govern\n    tag 71\t\t\tfunction votingPeriod()\\n     ...\n      JUMPDEST \t\t\tfunction votingPeriod()\\n     ...\n      PUSH 40\t\t\tfunction votingPeriod()\\n     ...\n      MLOAD \t\t\tfunction votingPeriod()\\n     ...\n      SWAP1 \t\t\tgSimple,\\n    GovernorVote\n      DUP2 \t\t\tgSimple,\\n    GovernorVote\n      MSTORE \t\t\tgSimple,\\n    GovernorVote\n      PUSH 20\t\t\ter\n      ADD \t\t\tttings,\\n    Govern\n      PUSH [tag] 68\t\t\tfunction votingPeriod()\\n     ...\n      JUMP \t\t\tts@5.0.1/governance/extensions...\n    tag 5\t\t\t  proposalId,\\n            tar...\n      JUMPDEST \t\t\t  proposalId,\\n            tar...\n      CALLVALUE \t\t\t  proposalId,\\n            tar...\n      DUP1 \t\t\t  proposalId,\\n            tar...\n      ISZERO \t\t\t  proposalId,\\n            tar...\n      PUSH [tag] 75\t\t\t  proposalId,\\n            tar...\n      JUMPI \t\t\t  proposalId,\\n            tar...\n      PUSH 0\t\t\t  proposalId,\\n            tar...\n      DUP1 \t\t\t  proposalId,\\n            tar...\n      REVERT \t\t\t  proposalId,\\n            tar...\n    tag 75\t\t\t  proposalId,\\n            tar...\n      JUMPDEST \t\t\t  proposalId,\\n            tar...\n      POP \t\t\t\n      PUSH [tag] 62\t\t\t  proposalId,\\n            tar...\n      PUSH [tag] 77\t\t\t  proposalId,\\n            tar...\n      CALLDATASIZE \t\t\t  proposalId,\\n            tar...\n      PUSH 4\t\t\t  proposalId,\\n            tar...\n      PUSH [tag] 78\t\t\t  proposalId,\\n            tar...\n      JUMP \t\t\t  proposalId,\\n            tar...\n    tag 77\t\t\t  proposalId,\\n            tar...\n      JUMPDEST \t\t\t  proposalId,\\n            tar...\n      PUSH [tag] 79\t\t\t  proposalId,\\n            tar...\n      JUMP \t\t\t  proposalId,\\n            tar...\n    tag 6\t\t\t\n      JUMPDEST \t\t\t\n      CALLVALUE \t\t\t\n      DUP1 \t\t\t\n      ISZERO \t\t\t\n      PUSH [tag] 80\t\t\t\n      JUMPI \t\t\t\n      PUSH 0\t\t\t\n      DUP1 \t\t\t\n      REVERT \t\t\t\n    tag 80\t\t\t\n      JUMPDEST \t\t\t\n      POP \t\t\t\n      PUSH [tag] 81\t\t\t\n      PUSH [tag] 82\t\t\t\n      JUMP \t\t\t\n    tag 81\t\t\t\n      JUMPDEST \t\t\t\n      PUSH 40\t\t\t\n      MLOAD \t\t\t\n      PUSH [tag] 68\t\t\t\n      SWAP2 \t\t\t\n      SWAP1 \t\t\t\n      PUSH [tag] 84\t\t\t\n      JUMP \t\t\t\n    tag 7\t\t\t\n      JUMPDEST \t\t\t\n      CALLVALUE \t\t\t\n      DUP1 \t\t\t\n      ISZERO \t\t\t\n      PUSH [tag] 85\t\t\t\n      JUMPI \t\t\t\n      PUSH 0\t\t\t\n      DUP1 \t\t\t\n      REVERT \t\t\t\n    tag 85\t\t\t\n      JUMPDEST \t\t\t\n      POP \t\t\t\n      PUSH [tag] 86\t\t\t\n      PUSH [tag] 87\t\t\t\n      CALLDATASIZE \t\t\t\n      PUSH 4\t\t\t\n      PUSH [tag] 78\t\t\t\n      JUMP \t\t\t\n    tag 87\t\t\t\n      JUMPDEST \t\t\t\n      PUSH 0\t\t\t\n      SWAP1 \t\t\t\n      DUP2 \t\t\t\n      MSTORE \t\t\t\n      PUSH 4\t\t\t\n      PUSH 20\t\t\t\n      MSTORE \t\t\t\n      PUSH 40\t\t\t\n      SWAP1 \t\t\t\n      KECCAK256 \t\t\t\n      SLOAD \t\t\t\n      PUSH 1\t\t\t\n      PUSH 1\t\t\t\n      PUSH A0\t\t\t\n      SHL \t\t\t\n      SUB \t\t\t\n      AND \t\t\t\n      SWAP1 \t\t\t\n      JUMP \t\t\t\n    tag 86\t\t\t\n      JUMPDEST \t\t\t\n      PUSH 40\t\t\t\n      MLOAD \t\t\t\n      PUSH 1\t\t\t\n      PUSH 1\t\t\t\n      PUSH A0\t\t\t\n      SHL \t\t\t\n      SUB \t\t\t\n      SWAP1 \t\t\te(uint256 proposalId)\\n       ...\n      SWAP2 \t\t\te(uint256 proposalId)\\n       ...\n      AND \t\t\te(uint256 proposalId)\\n       ...\n      DUP2 \t\t\t\\n    function state(uint256 p...\n      MSTORE \t\t\t\\n    function state(uint256 p...\n      PUSH 20\t\t\tbe\n      ADD \t\t\tquorum(blockNumber\n      PUSH [tag] 68\t\t\t\n      JUMP \t\t\t     view\\n        override(Go...\n    tag 8\t\t\t\n      JUMPDEST \t\t\t\n      CALLVALUE \t\t\t\n      DUP1 \t\t\t\n      ISZERO \t\t\t\n      PUSH [tag] 91\t\t\t\n      JUMPI \t\t\t\n      PUSH 0\t\t\t\n      DUP1 \t\t\t\n      REVERT \t\t\t\n    tag 91\t\t\t\n      JUMPDEST \t\t\t\n      POP \t\t\t\n      PUSH [tag] 92\t\t\t\n      PUSH [tag] 93\t\t\t\n      CALLDATASIZE \t\t\t\n      PUSH 4\t\t\t\n      PUSH [tag] 94\t\t\t\n      JUMP \t\t\t\n    tag 93\t\t\t\n      JUMPDEST \t\t\t\n      PUSH [tag] 95\t\t\t\n      JUMP \t\t\t\n    tag 92\t\t\t\n      JUMPDEST \t\t\t\n      PUSH 40\t\t\t\n      MLOAD \t\t\t\n      PUSH 1\t\t\t\n      PUSH 1\t\t\t\n      PUSH E0\t\t\t\n      SHL \t\t\t\n      SUB \t\t\t\n      NOT \t\t\t\n      SWAP1 \t\t\t\n      SWAP2 \t\t\t\n      AND \t\t\t\n      DUP2 \t\t\t\n      MSTORE \t\t\t\n      PUSH 20\t\t\t\n      ADD \t\t\t\n      PUSH [tag] 68\t\t\t\n      JUMP \t\t\t\n    tag 9\t\t\t\n      JUMPDEST \t\t\t\n      CALLVALUE \t\t\t\n      DUP1 \t\t\t\n      ISZERO \t\t\t\n      PUSH [tag] 98\t\t\t\n      JUMPI \t\t\t\n      PUSH 0\t\t\t\n      DUP1 \t\t\t\n      REVERT \t\t\t\n    tag 98\t\t\t\n      JUMPDEST \t\t\t\n      POP \t\t\t\n      PUSH [tag] 71\t\t\t\n      PUSH [tag] 100\t\t\t\n      CALLDATASIZE \t\t\t\n      PUSH 4\t\t\t\n      PUSH [tag] 101\t\t\t\n      JUMP \t\t\t\n    tag 100\t\t\t\n      JUMPDEST \t\t\t\n      PUSH [tag] 102\t\t\t\n      JUMP \t\t\t\n    tag 10\t\t\t\n      JUMPDEST \t\t\t\n      PUSH [tag] 71\t\t\t\n      PUSH [tag] 105\t\t\t\n      CALLDATASIZE \t\t\t\n      PUSH 4\t\t\t\n      PUSH [tag] 101\t\t\t\n      JUMP \t\t\t\n    tag 105\t\t\t\n      JUMPDEST \t\t\t\n      PUSH [tag] 106\t\t\t\n      JUMP \t\t\t\n    tag 11\t\t\t\n      JUMPDEST \t\t\t\n      CALLVALUE \t\t\t\n      DUP1 \t\t\t\n      ISZERO \t\t\t\n      PUSH [tag] 108\t\t\t\n      JUMPI \t\t\t\n      PUSH 0\t\t\t\n      DUP1 \t\t\t\n      REVERT \t\t\t\n    tag 108\t\t\t\n      JUMPDEST \t\t\t\n      POP \t\t\t\n      PUSH [tag] 71\t\t\t\n      PUSH [tag] 110\t\t\t\n      CALLDATASIZE \t\t\t\n      PUSH 4\t\t\t\n      PUSH [tag] 78\t\t\t\n      JUMP \t\t\t\n    tag 110\t\t\t\n      JUMPDEST \t\t\t\n      PUSH [tag] 111\t\t\t\n      JUMP \t\t\t\n    tag 12\t\t\t    {\\n        return super.vo...\n      JUMPDEST \t\t\t    {\\n        return super.vo...\n      CALLVALUE \t\t\t    {\\n        return super.vo...\n      DUP1 \t\t\t    {\\n        return super.vo...\n      ISZERO \t\t\t    {\\n        return super.vo...\n      PUSH [tag] 113\t\t\t    {\\n        return super.vo...\n      JUMPI \t\t\t    {\\n        return super.vo...\n      PUSH 0\t\t\t    {\\n        return super.vo...\n      DUP1 \t\t\t    {\\n        return super.vo...\n      REVERT \t\t\t    {\\n        return super.vo...\n    tag 113\t\t\t    {\\n        return super.vo...\n      JUMPDEST \t\t\t    {\\n        return super.vo...\n      POP \t\t\t    {\\n        return super.vo...\n      PUSH [tag] 71\t\t\t    {\\n        return super.vo...\n      PUSH 3E83946653575F9A39005E1545185629E92736B7528AB20CA3816F315424A811\t\t\tion quorum(uint256 blockNumber...\n      DUP2 \t\t\t    {\\n        return super.vo...\n      JUMP \t\t\t    {\\n        return super.vo...\n    tag 13\t\t\tfunction votingDelay()\\n      ...\n      JUMPDEST \t\t\tfunction votingDelay()\\n      ...\n      CALLVALUE \t\t\tfunction votingDelay()\\n      ...\n      DUP1 \t\t\tfunction votingDelay()\\n      ...\n      ISZERO \t\t\tfunction votingDelay()\\n      ...\n      PUSH [tag] 118\t\t\tfunction votingDelay()\\n      ...\n      JUMPI \t\t\tfunction votingDelay()\\n      ...\n      PUSH 0\t\t\tfunction votingDelay()\\n      ...\n      DUP1 \t\t\tfunction votingDelay()\\n      ...\n      REVERT \t\t\tfunction votingDelay()\\n      ...\n    tag 118\t\t\tfunction votingDelay()\\n      ...\n      JUMPDEST \t\t\tfunction votingDelay()\\n      ...\n      POP \t\t\tfunction votingDelay()\\n      ...\n      PUSH [tag] 71\t\t\tfunction votingDelay()\\n      ...\n      PUSH [tag] 120\t\t\tfunction votingDelay()\\n      ...\n      JUMP \t\t\tfunction votingDelay()\\n      ...\n    tag 14\t\t\tfunction state(uint256 proposa...\n      JUMPDEST \t\t\tfunction state(uint256 proposa...\n      CALLVALUE \t\t\tfunction state(uint256 proposa...\n      DUP1 \t\t\tfunction state(uint256 proposa...\n      ISZERO \t\t\tfunction state(uint256 proposa...\n      PUSH [tag] 122\t\t\tfunction state(uint256 proposa...\n      JUMPI \t\t\tfunction state(uint256 proposa...\n      PUSH 0\t\t\tfunction state(uint256 proposa...\n      DUP1 \t\t\tfunction state(uint256 proposa...\n      REVERT \t\t\tfunction state(uint256 proposa...\n    tag 122\t\t\tfunction state(uint256 proposa...\n      JUMPDEST \t\t\tfunction state(uint256 proposa...\n      POP \t\t\t\n      PUSH [tag] 123\t\t\tfunction state(uint256 proposa...\n      PUSH [tag] 124\t\t\tfunction state(uint256 proposa...\n      CALLDATASIZE \t\t\tfunction state(uint256 proposa...\n      PUSH 4\t\t\tfunction state(uint256 proposa...\n      PUSH [tag] 78\t\t\tfunction state(uint256 proposa...\n      JUMP \t\t\tfunction state(uint256 proposa...\n    tag 124\t\t\tfunction state(uint256 proposa...\n      JUMPDEST \t\t\tfunction state(uint256 proposa...\n      PUSH [tag] 125\t\t\tfunction state(uint256 proposa...\n      JUMP \t\t\tfunction state(uint256 proposa...\n    tag 123\t\t\tfunction state(uint256 proposa...\n      JUMPDEST \t\t\tfunction state(uint256 proposa...\n      PUSH 40\t\t\tfunction state(uint256 proposa...\n      MLOAD \t\t\tfunction state(uint256 proposa...\n      PUSH [tag] 68\t\t\tfunction state(uint256 proposa...\n      SWAP2 \t\t\tfunction state(uint256 proposa...\n      SWAP1 \t\t\tfunction state(uint256 proposa...\n      PUSH [tag] 127\t\t\tfunction state(uint256 proposa...\n      JUMP \t\t\tfunction state(uint256 proposa...\n    tag 15\t\t\tGovernorVotesQuorumFraction(_q...\n      JUMPDEST \t\t\tGovernorVotesQuorumFraction(_q...\n      CALLVALUE \t\t\tGovernorVotesQuorumFraction(_q...\n      DUP1 \t\t\tGovernorVotesQuorumFraction(_q...\n      ISZERO \t\t\tGovernorVotesQuorumFraction(_q...\n      PUSH [tag] 128\t\t\tGovernorVotesQuorumFraction(_q...\n      JUMPI \t\t\tGovernorVotesQuorumFraction(_q...\n      PUSH 0\t\t\tGovernorVotesQuorumFraction(_q...\n      DUP1 \t\t\tGovernorVotesQuorumFraction(_q...\n      REVERT \t\t\tGovernorVotesQuorumFraction(_q...\n    tag 128\t\t\tGovernorVotesQuorumFraction(_q...\n      JUMPDEST \t\t\tGovernorVotesQuorumFraction(_q...\n      POP \t\t\t\n      PUSH [tag] 64\t\t\tGovernorVotesQuorumFraction(_q...\n      PUSH [tag] 130\t\t\tGovernorVotesQuorumFraction(_q...\n      CALLDATASIZE \t\t\tGovernorVotesQuorumFraction(_q...\n      PUSH 4\t\t\tGovernorVotesQuorumFraction(_q...\n      PUSH [tag] 131\t\t\tGovernorVotesQuorumFraction(_q...\n      JUMP \t\t\tGovernorVotesQuorumFraction(_q...\n    tag 130\t\t\tGovernorVotesQuorumFraction(_q...\n      JUMPDEST \t\t\tGovernorVotesQuorumFraction(_q...\n      PUSH 0\t\t\t {}\\n\n      DUP3 \t\t\tng functions are overrides\n      DUP2 \t\t\tng functions are overrides\n      MSTORE \t\t\tng functions are overrides\n      PUSH 9\t\t\tng functions a\n      PUSH 20\t\t\tng functions are overrides\n      SWAP1 \t\t\tng functions are overrides\n      DUP2 \t\t\tng functions are overrides\n      MSTORE \t\t\tng functions are overrides\n      PUSH 40\t\t\tng functions are overrides\n      DUP1 \t\t\tng functions are overrides\n      DUP4 \t\t\tng functions are overrides\n      KECCAK256 \t\t\tng functions are overrides\n      PUSH 1\t\t\t\n      PUSH 1\t\t\t\n      PUSH A0\t\t\t\n      SHL \t\t\t\n      SUB \t\t\t\n      DUP6 \t\t\tng functions are overrides req...\n      AND \t\t\tng functions are overrides req...\n      DUP5 \t\t\tng functions are overrides req...\n      MSTORE \t\t\tng functions are overrides req...\n      PUSH 3\t\t\tng functions are overrides req...\n      ADD \t\t\tng functions are overrides req...\n      SWAP1 \t\t\tng functions are overrides req...\n      SWAP2 \t\t\tng functions are overrides req...\n      MSTORE \t\t\tng functions are overrides req...\n      SWAP1 \t\t\tng functions are overrides req...\n      KECCAK256 \t\t\tng functions are overrides req...\n      SLOAD \t\t\tng functions are overrides req...\n      PUSH FF\t\t\tng functions are overrides req...\n      AND \t\t\tng functions are overrides req...\n      SWAP3 \t\t\tGovernorVotesQuorumFraction(_q...\n      SWAP2 \t\t\tGovernorVotesQuorumFraction(_q...\n      POP \t\t\tGovernorVotesQuorumFraction(_q...\n      POP \t\t\tGovernorVotesQuorumFraction(_q...\n      JUMP \t\t\tGovernorVotesQuorumFraction(_q...\n    tag 16\t\t\t\n      JUMPDEST \t\t\t\n      CALLVALUE \t\t\t\n      DUP1 \t\t\t\n      ISZERO \t\t\t\n      PUSH [tag] 134\t\t\t\n      JUMPI \t\t\t\n      PUSH 0\t\t\t\n      DUP1 \t\t\t\n      REVERT \t\t\t\n    tag 134\t\t\t\n      JUMPDEST \t\t\t\n      POP \t\t\t\n      PUSH [tag] 71\t\t\t\n      PUSH [tag] 136\t\t\t\n      CALLDATASIZE \t\t\t\n      PUSH 4\t\t\t\n      PUSH [tag] 101\t\t\t\n      JUMP \t\t\t\n    tag 136\t\t\t\n      JUMPDEST \t\t\t\n      PUSH [tag] 137\t\t\t\n      JUMP \t\t\t\n    tag 17\t\t\tiew\\n        override(Governor...\n      JUMPDEST \t\t\tiew\\n        override(Governor...\n      CALLVALUE \t\t\tiew\\n        override(Governor...\n      DUP1 \t\t\tiew\\n        override(Governor...\n      ISZERO \t\t\tiew\\n        override(Governor...\n      PUSH [tag] 139\t\t\tiew\\n        override(Governor...\n      JUMPI \t\t\tiew\\n        override(Governor...\n      PUSH 0\t\t\tiew\\n        override(Governor...\n      DUP1 \t\t\tiew\\n        override(Governor...\n      REVERT \t\t\tiew\\n        override(Governor...\n    tag 139\t\t\tiew\\n        override(Governor...\n      JUMPDEST \t\t\tiew\\n        override(Governor...\n      POP \t\t\tiew\\n        override(Governor...\n      PUSH [tag] 81\t\t\tiew\\n        override(Governor...\n      PUSH [tag] 141\t\t\tiew\\n        override(Governor...\n      JUMP \t\t\tiew\\n        override(Governor...\n    tag 18\t\t\tovernor, GovernorSettings)\\n  ...\n      JUMPDEST \t\t\tovernor, GovernorSettings)\\n  ...\n      CALLVALUE \t\t\tovernor, GovernorSettings)\\n  ...\n      DUP1 \t\t\tovernor, GovernorSettings)\\n  ...\n      ISZERO \t\t\tovernor, GovernorSettings)\\n  ...\n      PUSH [tag] 143\t\t\tovernor, GovernorSettings)\\n  ...\n      JUMPI \t\t\tovernor, GovernorSettings)\\n  ...\n      PUSH 0\t\t\tovernor, GovernorSettings)\\n  ...\n      DUP1 \t\t\tovernor, GovernorSettings)\\n  ...\n      REVERT \t\t\tovernor, GovernorSettings)\\n  ...\n    tag 143\t\t\tovernor, GovernorSettings)\\n  ...\n      JUMPDEST \t\t\tovernor, GovernorSettings)\\n  ...\n      POP \t\t\t\n      PUSH [tag] 144\t\t\tovernor, GovernorSettings)\\n  ...\n      PUSH [tag] 145\t\t\tovernor, GovernorSettings)\\n  ...\n      CALLDATASIZE \t\t\tovernor, GovernorSettings)\\n  ...\n      PUSH 4\t\t\tovernor, GovernorSettings)\\n  ...\n      PUSH [tag] 78\t\t\tovernor, GovernorSettings)\\n  ...\n      JUMP \t\t\tovernor, GovernorSettings)\\n  ...\n    tag 145\t\t\tovernor, GovernorSettings)\\n  ...\n      JUMPDEST \t\t\tovernor, GovernorSettings)\\n  ...\n      PUSH 0\t\t\tDelay();\\n    }\\n\\n    \n      SWAP1 \t\t\tettings)\\n        returns (\n      DUP2 \t\t\tettings)\\n        returns (\n      MSTORE \t\t\tettings)\\n        returns (\n      PUSH 9\t\t\tettings)\\n     \n      PUSH 20\t\t\tettings)\\n        returns (\n      MSTORE \t\t\tettings)\\n        returns (\n      PUSH 40\t\t\tettings)\\n        returns (\n      SWAP1 \t\t\tettings)\\n        returns (\n      KECCAK256 \t\t\tettings)\\n        returns (\n      DUP1 \t\t\t     return super.votingP\n      SLOAD \t\t\t     return super.votingP\n      PUSH 1\t\t\tiod();\\n    }\\n\\n    fun\n      DUP3 \t\t\tiod();\\n    }\\n\\n    fun\n      ADD \t\t\tiod();\\n    }\\n\\n    fun\n      SLOAD \t\t\tiod();\\n    }\\n\\n    fun\n      PUSH 2\t\t\tion quorum(uint256 blockN\n      SWAP1 \t\t\tion quorum(uint256 blockN\n      SWAP3 \t\t\tion quorum(uint256 blockN\n      ADD \t\t\tion quorum(uint256 blockN\n      SLOAD \t\t\tion quorum(uint256 blockN\n      SWAP1 \t\t\t     return super.votingP\n      SWAP3 \t\t\t     return super.votingP\n      JUMP \t\t\tovernor, GovernorSettings)\\n  ...\n    tag 144\t\t\tovernor, GovernorSettings)\\n  ...\n      JUMPDEST \t\t\tovernor, GovernorSettings)\\n  ...\n      PUSH 40\t\t\tovernor, GovernorSettings)\\n  ...\n      DUP1 \t\t\tovernor, GovernorSettings)\\n  ...\n      MLOAD \t\t\tovernor, GovernorSettings)\\n  ...\n      SWAP4 \t\t\t\n      DUP5 \t\t\t\n      MSTORE \t\t\t\n      PUSH 20\t\t\t\n      DUP5 \t\t\t\n      ADD \t\t\t\n      SWAP3 \t\t\t\n      SWAP1 \t\t\t\n      SWAP3 \t\t\t\n      MSTORE \t\t\t\n      SWAP1 \t\t\t\n      DUP3 \t\t\t\n      ADD \t\t\t\n      MSTORE \t\t\t\n      PUSH 60\t\t\t\n      ADD \t\t\t\n      PUSH [tag] 68\t\t\tovernor, GovernorSettings)\\n  ...\n      JUMP \t\t\t\n    tag 19\t\t\t\n      JUMPDEST \t\t\t\n      CALLVALUE \t\t\t\n      DUP1 \t\t\t\n      ISZERO \t\t\t\n      PUSH [tag] 149\t\t\t\n      JUMPI \t\t\t\n      PUSH 0\t\t\t\n      DUP1 \t\t\t\n      REVERT \t\t\t\n    tag 149\t\t\t\n      JUMPDEST \t\t\t\n      POP \t\t\t\n      PUSH 40\t\t\t\n      DUP1 \t\t\t\n      MLOAD \t\t\t\n      DUP1 \t\t\t\n      DUP3 \t\t\t\n      ADD \t\t\t\n      SWAP1 \t\t\t\n      SWAP2 \t\t\t\n      MSTORE \t\t\t\n      PUSH 1\t\t\t\n      DUP2 \t\t\t\n      MSTORE \t\t\t\n      PUSH 31\t\t\t\n      PUSH F8\t\t\t\n      SHL \t\t\t\n      PUSH 20\t\t\t\n      DUP3 \t\t\t\n      ADD \t\t\t\n      MSTORE \t\t\t\n      PUSH [tag] 81\t\t\t\n      JUMP \t\t\t\n    tag 20\t\t\t\n      JUMPDEST \t\t\t\n      CALLVALUE \t\t\t\n      DUP1 \t\t\t\n      ISZERO \t\t\t\n      PUSH [tag] 153\t\t\t\n      JUMPI \t\t\t\n      PUSH 0\t\t\t\n      DUP1 \t\t\t\n      REVERT \t\t\t\n    tag 153\t\t\t\n      JUMPDEST \t\t\t\n      POP \t\t\t\n      PUSH [tag] 71\t\t\t\n      PUSH [tag] 155\t\t\t\n      CALLDATASIZE \t\t\t\n      PUSH 4\t\t\t\n      PUSH [tag] 156\t\t\t\n      JUMP \t\t\t\n    tag 155\t\t\t\n      JUMPDEST \t\t\t\n      PUSH [tag] 157\t\t\t\n      JUMP \t\t\t\n    tag 21\t\t\t\n      JUMPDEST \t\t\t\n      CALLVALUE \t\t\t\n      DUP1 \t\t\t\n      ISZERO \t\t\t\n      PUSH [tag] 159\t\t\t\n      JUMPI \t\t\t\n      PUSH 0\t\t\t\n      DUP1 \t\t\t\n      REVERT \t\t\t\n    tag 159\t\t\t\n      JUMPDEST \t\t\t\n      POP \t\t\t\n      PUSH [tag] 71\t\t\t\n      PUSH [tag] 161\t\t\t\n      CALLDATASIZE \t\t\t\n      PUSH 4\t\t\t\n      PUSH [tag] 162\t\t\t\n      JUMP \t\t\t\n    tag 161\t\t\t\n      JUMPDEST \t\t\t\n      PUSH [tag] 163\t\t\t\n      JUMP \t\t\t\n    tag 22\t\t\t\n      JUMPDEST \t\t\t\n      CALLVALUE \t\t\t\n      DUP1 \t\t\t\n      ISZERO \t\t\t\n      PUSH [tag] 165\t\t\t\n      JUMPI \t\t\t\n      PUSH 0\t\t\t\n      DUP1 \t\t\t\n      REVERT \t\t\t\n    tag 165\t\t\t\n      JUMPDEST \t\t\t\n      POP \t\t\t\n      PUSH [tag] 71\t\t\t\n      PUSH [tag] 167\t\t\t\n      CALLDATASIZE \t\t\t\n      PUSH 4\t\t\t\n      PUSH [tag] 168\t\t\t\n      JUMP \t\t\t\n    tag 167\t\t\t\n      JUMPDEST \t\t\t\n      PUSH [tag] 169\t\t\t\n      JUMP \t\t\t\n    tag 23\t\t\t.quorum(blockNumber);\\n    }\\n...\n      JUMPDEST \t\t\t.quorum(blockNumber);\\n    }\\n...\n      CALLVALUE \t\t\t.quorum(blockNumber);\\n    }\\n...\n      DUP1 \t\t\t.quorum(blockNumber);\\n    }\\n...\n      ISZERO \t\t\t.quorum(blockNumber);\\n    }\\n...\n      PUSH [tag] 171\t\t\t.quorum(blockNumber);\\n    }\\n...\n      JUMPI \t\t\t.quorum(blockNumber);\\n    }\\n...\n      PUSH 0\t\t\t.quorum(blockNumber);\\n    }\\n...\n      DUP1 \t\t\t.quorum(blockNumber);\\n    }\\n...\n      REVERT \t\t\t.quorum(blockNumber);\\n    }\\n...\n    tag 171\t\t\t.quorum(blockNumber);\\n    }\\n...\n      JUMPDEST \t\t\t.quorum(blockNumber);\\n    }\\n...\n      POP \t\t\t\n      PUSH [tag] 71\t\t\t.quorum(blockNumber);\\n    }\\n...\n      PUSH [tag] 173\t\t\t.quorum(blockNumber);\\n    }\\n...\n      CALLDATASIZE \t\t\t.quorum(blockNumber);\\n    }\\n...\n      PUSH 4\t\t\t.quorum(blockNumber);\\n    }\\n...\n      PUSH [tag] 78\t\t\t.quorum(blockNumber);\\n    }\\n...\n      JUMP \t\t\t.quorum(blockNumber);\\n    }\\n...\n    tag 173\t\t\t.quorum(blockNumber);\\n    }\\n...\n      JUMPDEST \t\t\t.quorum(blockNumber);\\n    }\\n...\n      PUSH [tag] 174\t\t\t.quorum(blockNumber);\\n    }\\n...\n      JUMP \t\t\t.quorum(blockNumber);\\n    }\\n...\n    tag 24\t\t\t   override(Governor, Governor...\n      JUMPDEST \t\t\t   override(Governor, Governor...\n      CALLVALUE \t\t\t   override(Governor, Governor...\n      DUP1 \t\t\t   override(Governor, Governor...\n      ISZERO \t\t\t   override(Governor, Governor...\n      PUSH [tag] 176\t\t\t   override(Governor, Governor...\n      JUMPI \t\t\t   override(Governor, Governor...\n      PUSH 0\t\t\t   override(Governor, Governor...\n      DUP1 \t\t\t   override(Governor, Governor...\n      REVERT \t\t\t   override(Governor, Governor...\n    tag 176\t\t\t   override(Governor, Governor...\n      JUMPDEST \t\t\t   override(Governor, Governor...\n      POP \t\t\t\n      PUSH [tag] 62\t\t\t   override(Governor, Governor...\n      PUSH [tag] 178\t\t\t   override(Governor, Governor...\n      CALLDATASIZE \t\t\t   override(Governor, Governor...\n      PUSH 4\t\t\t   override(Governor, Governor...\n      PUSH [tag] 179\t\t\t   override(Governor, Governor...\n      JUMP \t\t\t   override(Governor, Governor...\n    tag 178\t\t\t   override(Governor, Governor...\n      JUMPDEST \t\t\t   override(Governor, Governor...\n      PUSH [tag] 180\t\t\t   override(Governor, Governor...\n      JUMP \t\t\t   override(Governor, Governor...\n    tag 25\t\t\t\n      JUMPDEST \t\t\t\n      CALLVALUE \t\t\t\n      DUP1 \t\t\t\n      ISZERO \t\t\t\n      PUSH [tag] 181\t\t\t\n      JUMPI \t\t\t\n      PUSH 0\t\t\t\n      DUP1 \t\t\t\n      REVERT \t\t\t\n    tag 181\t\t\t\n      JUMPDEST \t\t\t\n      POP \t\t\t\n      PUSH [tag] 71\t\t\t\n      PUSH [tag] 183\t\t\t\n      CALLDATASIZE \t\t\t\n      PUSH 4\t\t\t\n      PUSH [tag] 184\t\t\t\n      JUMP \t\t\t\n    tag 183\t\t\t\n      JUMPDEST \t\t\t\n      PUSH [tag] 185\t\t\t\n      JUMP \t\t\t\n    tag 26\t\t\t\n      JUMPDEST \t\t\t\n      CALLVALUE \t\t\t\n      DUP1 \t\t\t\n      ISZERO \t\t\t\n      PUSH [tag] 187\t\t\t\n      JUMPI \t\t\t\n      PUSH 0\t\t\t\n      DUP1 \t\t\t\n      REVERT \t\t\t\n    tag 187\t\t\t\n      JUMPDEST \t\t\t\n      POP \t\t\t\n      PUSH [tag] 71\t\t\t\n      PUSH [tag] 189\t\t\t\n      CALLDATASIZE \t\t\t\n      PUSH 4\t\t\t\n      PUSH [tag] 190\t\t\t\n      JUMP \t\t\t\n    tag 189\t\t\t\n      JUMPDEST \t\t\t\n      PUSH [tag] 191\t\t\t\n      JUMP \t\t\t\n    tag 27\t\t\tmelockControl.sol\";\\n\\ncontrac...\n      JUMPDEST \t\t\tmelockControl.sol\";\\n\\ncontrac...\n      CALLVALUE \t\t\tmelockControl.sol\";\\n\\ncontrac...\n      DUP1 \t\t\tmelockControl.sol\";\\n\\ncontrac...\n      ISZERO \t\t\tmelockControl.sol\";\\n\\ncontrac...\n      PUSH [tag] 193\t\t\tmelockControl.sol\";\\n\\ncontrac...\n      JUMPI \t\t\tmelockControl.sol\";\\n\\ncontrac...\n      PUSH 0\t\t\tmelockControl.sol\";\\n\\ncontrac...\n      DUP1 \t\t\tmelockControl.sol\";\\n\\ncontrac...\n      REVERT \t\t\tmelockControl.sol\";\\n\\ncontrac...\n    tag 193\t\t\tmelockControl.sol\";\\n\\ncontrac...\n      JUMPDEST \t\t\tmelockControl.sol\";\\n\\ncontrac...\n      POP \t\t\t\n      PUSH [tag] 71\t\t\tmelockControl.sol\";\\n\\ncontrac...\n      PUSH [tag] 195\t\t\tmelockControl.sol\";\\n\\ncontrac...\n      CALLDATASIZE \t\t\tmelockControl.sol\";\\n\\ncontrac...\n      PUSH 4\t\t\tmelockControl.sol\";\\n\\ncontrac...\n      PUSH [tag] 196\t\t\tmelockControl.sol\";\\n\\ncontrac...\n      JUMP \t\t\tmelockControl.sol\";\\n\\ncontrac...\n    tag 195\t\t\tmelockControl.sol\";\\n\\ncontrac...\n      JUMPDEST \t\t\tmelockControl.sol\";\\n\\ncontrac...\n      PUSH 1\t\t\t\n      PUSH 1\t\t\t\n      PUSH A0\t\t\t\n      SHL \t\t\t\n      SUB \t\t\t\n      AND \t\t\t    GovernorCo\n      PUSH 0\t\t\tor,\\n   \n      SWAP1 \t\t\t    GovernorCo\n      DUP2 \t\t\t    GovernorCo\n      MSTORE \t\t\t    GovernorCo\n      PUSH 2\t\t\t    Gov\n      PUSH 20\t\t\t    GovernorCo\n      MSTORE \t\t\t    GovernorCo\n      PUSH 40\t\t\t    GovernorCo\n      SWAP1 \t\t\t    GovernorCo\n      KECCAK256 \t\t\t    GovernorCo\n      SLOAD \t\t\t    GovernorCo\n      SWAP1 \t\t\t    GovernorCo\n      JUMP \t\t\tmelockControl.sol\";\\n\\ncontrac...\n    tag 28\t\t\t\n      JUMPDEST \t\t\t\n      CALLVALUE \t\t\t\n      DUP1 \t\t\t\n      ISZERO \t\t\t\n      PUSH [tag] 199\t\t\t\n      JUMPI \t\t\t\n      PUSH 0\t\t\t\n      DUP1 \t\t\t\n      REVERT \t\t\t\n    tag 199\t\t\t\n      JUMPDEST \t\t\t\n      POP \t\t\t\n      PUSH [tag] 200\t\t\t\n      PUSH [tag] 201\t\t\t\n      JUMP \t\t\t\n    tag 200\t\t\t\n      JUMPDEST \t\t\t\n      PUSH 40\t\t\t\n      MLOAD \t\t\t\n      PUSH [tag] 68\t\t\t\n      SWAP8 \t\t\t\n      SWAP7 \t\t\t\n      SWAP6 \t\t\t\n      SWAP5 \t\t\t\n      SWAP4 \t\t\t\n      SWAP3 \t\t\t\n      SWAP2 \t\t\t\n      SWAP1 \t\t\t\n      PUSH [tag] 203\t\t\t\n      JUMP \t\t\t\n    tag 29\t\t\t\n      JUMPDEST \t\t\t\n      CALLVALUE \t\t\t\n      DUP1 \t\t\t\n      ISZERO \t\t\t\n      PUSH [tag] 204\t\t\t\n      JUMPI \t\t\t\n      PUSH 0\t\t\t\n      DUP1 \t\t\t\n      REVERT \t\t\t\n    tag 204\t\t\t\n      JUMPDEST \t\t\t\n      POP \t\t\t\n      PUSH [tag] 71\t\t\t\n      PUSH [tag] 206\t\t\t\n      CALLDATASIZE \t\t\t\n      PUSH 4\t\t\t\n      PUSH [tag] 207\t\t\t\n      JUMP \t\t\t\n    tag 206\t\t\t\n      JUMPDEST \t\t\t\n      PUSH [tag] 208\t\t\t\n      JUMP \t\t\t\n    tag 30\t\t\tuorumFraction(_quorumPercentag...\n      JUMPDEST \t\t\tuorumFraction(_quorumPercentag...\n      CALLVALUE \t\t\tuorumFraction(_quorumPercentag...\n      DUP1 \t\t\tuorumFraction(_quorumPercentag...\n      ISZERO \t\t\tuorumFraction(_quorumPercentag...\n      PUSH [tag] 210\t\t\tuorumFraction(_quorumPercentag...\n      JUMPI \t\t\tuorumFraction(_quorumPercentag...\n      PUSH 0\t\t\tuorumFraction(_quorumPercentag...\n      DUP1 \t\t\tuorumFraction(_quorumPercentag...\n      REVERT \t\t\tuorumFraction(_quorumPercentag...\n    tag 210\t\t\tuorumFraction(_quorumPercentag...\n      JUMPDEST \t\t\tuorumFraction(_quorumPercentag...\n      POP \t\t\tuorumFraction(_quorumPercentag...\n      PUSH [tag] 211\t\t\tuorumFraction(_quorumPercentag...\n      PUSH [tag] 212\t\t\tuorumFraction(_quorumPercentag...\n      JUMP \t\t\tuorumFraction(_quorumPercentag...\n    tag 211\t\t\tuorumFraction(_quorumPercentag...\n      JUMPDEST \t\t\tuorumFraction(_quorumPercentag...\n      PUSH 40\t\t\tuorumFraction(_quorumPercentag...\n      MLOAD \t\t\tuorumFraction(_quorumPercentag...\n      PUSH FFFFFFFFFFFF\t\t\t\n      SWAP1 \t\t\t\n      SWAP2 \t\t\t\n      AND \t\t\t\n      DUP2 \t\t\t\n      MSTORE \t\t\t\n      PUSH 20\t\t\t\n      ADD \t\t\t\n      PUSH [tag] 68\t\t\tuorumFraction(_quorumPercentag...\n      JUMP \t\t\t\n    tag 31\t\t\tmemory targets,\\n        uint2...\n      JUMPDEST \t\t\tmemory targets,\\n        uint2...\n      CALLVALUE \t\t\tmemory targets,\\n        uint2...\n      DUP1 \t\t\tmemory targets,\\n        uint2...\n      ISZERO \t\t\tmemory targets,\\n        uint2...\n      PUSH [tag] 215\t\t\tmemory targets,\\n        uint2...\n      JUMPI \t\t\tmemory targets,\\n        uint2...\n      PUSH 0\t\t\tmemory targets,\\n        uint2...\n      DUP1 \t\t\tmemory targets,\\n        uint2...\n      REVERT \t\t\tmemory targets,\\n        uint2...\n    tag 215\t\t\tmemory targets,\\n        uint2...\n      JUMPDEST \t\t\tmemory targets,\\n        uint2...\n      POP \t\t\t\n      PUSH 64\t\t\t   \n      PUSH [tag] 71\t\t\tmemory targets,\\n        uint2...\n      JUMP \t\t\tmemory targets,\\n        uint2...\n    tag 32\t\t\t\n      JUMPDEST \t\t\t\n      CALLVALUE \t\t\t\n      DUP1 \t\t\t\n      ISZERO \t\t\t\n      PUSH [tag] 219\t\t\t\n      JUMPI \t\t\t\n      PUSH 0\t\t\t\n      DUP1 \t\t\t\n      REVERT \t\t\t\n    tag 219\t\t\t\n      JUMPDEST \t\t\t\n      POP \t\t\t\n      PUSH [tag] 71\t\t\t\n      PUSH [tag] 221\t\t\t\n      CALLDATASIZE \t\t\t\n      PUSH 4\t\t\t\n      PUSH [tag] 222\t\t\t\n      JUMP \t\t\t\n    tag 221\t\t\t\n      JUMPDEST \t\t\t\n      PUSH [tag] 223\t\t\t\n      JUMP \t\t\t\n    tag 33\t\t\tnt256)\\n    {\\n        return ...\n      JUMPDEST \t\t\tnt256)\\n    {\\n        return ...\n      CALLVALUE \t\t\tnt256)\\n    {\\n        return ...\n      DUP1 \t\t\tnt256)\\n    {\\n        return ...\n      ISZERO \t\t\tnt256)\\n    {\\n        return ...\n      PUSH [tag] 225\t\t\tnt256)\\n    {\\n        return ...\n      JUMPI \t\t\tnt256)\\n    {\\n        return ...\n      PUSH 0\t\t\tnt256)\\n    {\\n        return ...\n      DUP1 \t\t\tnt256)\\n    {\\n        return ...\n      REVERT \t\t\tnt256)\\n    {\\n        return ...\n    tag 225\t\t\tnt256)\\n    {\\n        return ...\n      JUMPDEST \t\t\tnt256)\\n    {\\n        return ...\n      POP \t\t\tnt256)\\n    {\\n        return ...\n      PUSH [tag] 71\t\t\tnt256)\\n    {\\n        return ...\n      PUSH [tag] 227\t\t\tnt256)\\n    {\\n        return ...\n      JUMP \t\t\tnt256)\\n    {\\n        return ...\n    tag 34\t\t\t\n      JUMPDEST \t\t\t\n      CALLVALUE \t\t\t\n      DUP1 \t\t\t\n      ISZERO \t\t\t\n      PUSH [tag] 229\t\t\t\n      JUMPI \t\t\t\n      PUSH 0\t\t\t\n      DUP1 \t\t\t\n      REVERT \t\t\t\n    tag 229\t\t\t\n      JUMPDEST \t\t\t\n      POP \t\t\t\n      PUSH [tag] 62\t\t\t\n      PUSH [tag] 231\t\t\t\n      CALLDATASIZE \t\t\t\n      PUSH 4\t\t\t\n      PUSH [tag] 196\t\t\t\n      JUMP \t\t\t\n    tag 231\t\t\t\n      JUMPDEST \t\t\t\n      PUSH [tag] 233\t\t\t\n      JUMP \t\t\t\n    tag 35\t\t\tfunction proposalNeedsQueuing(...\n      JUMPDEST \t\t\tfunction proposalNeedsQueuing(...\n      CALLVALUE \t\t\tfunction proposalNeedsQueuing(...\n      DUP1 \t\t\tfunction proposalNeedsQueuing(...\n      ISZERO \t\t\tfunction proposalNeedsQueuing(...\n      PUSH [tag] 234\t\t\tfunction proposalNeedsQueuing(...\n      JUMPI \t\t\tfunction proposalNeedsQueuing(...\n      PUSH 0\t\t\tfunction proposalNeedsQueuing(...\n      DUP1 \t\t\tfunction proposalNeedsQueuing(...\n      REVERT \t\t\tfunction proposalNeedsQueuing(...\n    tag 234\t\t\tfunction proposalNeedsQueuing(...\n      JUMPDEST \t\t\tfunction proposalNeedsQueuing(...\n      POP \t\t\t\n      PUSH [tag] 64\t\t\tfunction proposalNeedsQueuing(...\n      PUSH [tag] 236\t\t\tfunction proposalNeedsQueuing(...\n      CALLDATASIZE \t\t\tfunction proposalNeedsQueuing(...\n      PUSH 4\t\t\tfunction proposalNeedsQueuing(...\n      PUSH [tag] 78\t\t\tfunction proposalNeedsQueuing(...\n      JUMP \t\t\tfunction proposalNeedsQueuing(...\n    tag 236\t\t\tfunction proposalNeedsQueuing(...\n      JUMPDEST \t\t\tfunction proposalNeedsQueuing(...\n      PUSH [tag] 237\t\t\tfunction proposalNeedsQueuing(...\n      JUMP \t\t\tfunction proposalNeedsQueuing(...\n    tag 36\t\t\t\n      JUMPDEST \t\t\t\n      CALLVALUE \t\t\t\n      DUP1 \t\t\t\n      ISZERO \t\t\t\n      PUSH [tag] 239\t\t\t\n      JUMPI \t\t\t\n      PUSH 0\t\t\t\n      DUP1 \t\t\t\n      REVERT \t\t\t\n    tag 239\t\t\t\n      JUMPDEST \t\t\t\n      POP \t\t\t\n      PUSH [tag] 71\t\t\t\n      PUSH [tag] 241\t\t\t\n      CALLDATASIZE \t\t\t\n      PUSH 4\t\t\t\n      PUSH [tag] 78\t\t\t\n      JUMP \t\t\t\n    tag 241\t\t\t\n      JUMPDEST \t\t\t\n      PUSH 0\t\t\t\n      SWAP1 \t\t\t\n      DUP2 \t\t\t\n      MSTORE \t\t\t\n      PUSH 4\t\t\t\n      PUSH 20\t\t\t\n      MSTORE \t\t\t\n      PUSH 40\t\t\t\n      SWAP1 \t\t\t\n      KECCAK256 \t\t\t\n      PUSH 1\t\t\t\n      ADD \t\t\t\n      SLOAD \t\t\t\n      PUSH FFFFFFFFFFFF\t\t\t\n      AND \t\t\t\n      SWAP1 \t\t\t\n      JUMP \t\t\t\n    tag 37\t\t\tfunction proposalThreshold()\\n...\n      JUMPDEST \t\t\tfunction proposalThreshold()\\n...\n      CALLVALUE \t\t\tfunction proposalThreshold()\\n...\n      DUP1 \t\t\tfunction proposalThreshold()\\n...\n      ISZERO \t\t\tfunction proposalThreshold()\\n...\n      PUSH [tag] 244\t\t\tfunction proposalThreshold()\\n...\n      JUMPI \t\t\tfunction proposalThreshold()\\n...\n      PUSH 0\t\t\tfunction proposalThreshold()\\n...\n      DUP1 \t\t\tfunction proposalThreshold()\\n...\n      REVERT \t\t\tfunction proposalThreshold()\\n...\n    tag 244\t\t\tfunction proposalThreshold()\\n...\n      JUMPDEST \t\t\tfunction proposalThreshold()\\n...\n      POP \t\t\tfunction proposalThreshold()\\n...\n      PUSH [tag] 71\t\t\tfunction proposalThreshold()\\n...\n      PUSH [tag] 246\t\t\tfunction proposalThreshold()\\n...\n      JUMP \t\t\tfunction proposalThreshold()\\n...\n    tag 38\t\t\t\n      JUMPDEST \t\t\t\n      CALLVALUE \t\t\t\n      DUP1 \t\t\t\n      ISZERO \t\t\t\n      PUSH [tag] 248\t\t\t\n      JUMPI \t\t\t\n      PUSH 0\t\t\t\n      DUP1 \t\t\t\n      REVERT \t\t\t\n    tag 248\t\t\t\n      JUMPDEST \t\t\t\n      POP \t\t\t\n      PUSH [tag] 92\t\t\t\n      PUSH [tag] 250\t\t\t\n      CALLDATASIZE \t\t\t\n      PUSH 4\t\t\t\n      PUSH [tag] 251\t\t\t\n      JUMP \t\t\t\n    tag 250\t\t\t\n      JUMPDEST \t\t\t\n      PUSH [tag] 252\t\t\t\n      JUMP \t\t\t\n    tag 39\t\t\t\n      JUMPDEST \t\t\t\n      CALLVALUE \t\t\t\n      DUP1 \t\t\t\n      ISZERO \t\t\t\n      PUSH [tag] 254\t\t\t\n      JUMPI \t\t\t\n      PUSH 0\t\t\t\n      DUP1 \t\t\t\n      REVERT \t\t\t\n    tag 254\t\t\t\n      JUMPDEST \t\t\t\n      POP \t\t\t\n      PUSH [tag] 71\t\t\t\n      PUSH [tag] 256\t\t\t\n      CALLDATASIZE \t\t\t\n      PUSH 4\t\t\t\n      PUSH [tag] 78\t\t\t\n      JUMP \t\t\t\n    tag 256\t\t\t\n      JUMPDEST \t\t\t\n      PUSH [tag] 257\t\t\t\n      JUMP \t\t\t\n    tag 40\t\t\t\n      JUMPDEST \t\t\t\n      PUSH [tag] 62\t\t\t\n      PUSH [tag] 260\t\t\t\n      CALLDATASIZE \t\t\t\n      PUSH 4\t\t\t\n      PUSH [tag] 261\t\t\t\n      JUMP \t\t\t\n    tag 260\t\t\t\n      JUMPDEST \t\t\t\n      PUSH [tag] 262\t\t\t\n      JUMP \t\t\t\n    tag 41\t\t\t\n      JUMPDEST \t\t\t\n      CALLVALUE \t\t\t\n      DUP1 \t\t\t\n      ISZERO \t\t\t\n      PUSH [tag] 263\t\t\t\n      JUMPI \t\t\t\n      PUSH 0\t\t\t\n      DUP1 \t\t\t\n      REVERT \t\t\t\n    tag 263\t\t\t\n      JUMPDEST \t\t\t\n      POP \t\t\t\n      PUSH [tag] 71\t\t\t\n      PUSH [tag] 265\t\t\t\n      CALLDATASIZE \t\t\t\n      PUSH 4\t\t\t\n      PUSH [tag] 101\t\t\t\n      JUMP \t\t\t\n    tag 265\t\t\t\n      JUMPDEST \t\t\t\n      PUSH [tag] 266\t\t\t\n      JUMP \t\t\t\n    tag 42\t\t\t       super._executeOperation...\n      JUMPDEST \t\t\t       super._executeOperation...\n      CALLVALUE \t\t\t       super._executeOperation...\n      DUP1 \t\t\t       super._executeOperation...\n      ISZERO \t\t\t       super._executeOperation...\n      PUSH [tag] 268\t\t\t       super._executeOperation...\n      JUMPI \t\t\t       super._executeOperation...\n      PUSH 0\t\t\t       super._executeOperation...\n      DUP1 \t\t\t       super._executeOperation...\n      REVERT \t\t\t       super._executeOperation...\n    tag 268\t\t\t       super._executeOperation...\n      JUMPDEST \t\t\t       super._executeOperation...\n      POP \t\t\t\n      PUSH B\t\t\t       va\n      SLOAD \t\t\t       va\n      PUSH 1\t\t\t\n      PUSH 1\t\t\t\n      PUSH A0\t\t\t\n      SHL \t\t\t\n      SUB \t\t\t\n      AND \t\t\t       va\n      PUSH [tag] 86\t\t\t       super._executeOperation...\n      JUMP \t\t\t       super._executeOperation...\n    tag 43\t\t\t  uint32 _votingPeriod,\\n     ...\n      JUMPDEST \t\t\t  uint32 _votingPeriod,\\n     ...\n      CALLVALUE \t\t\t  uint32 _votingPeriod,\\n     ...\n      DUP1 \t\t\t  uint32 _votingPeriod,\\n     ...\n      ISZERO \t\t\t  uint32 _votingPeriod,\\n     ...\n      PUSH [tag] 272\t\t\t  uint32 _votingPeriod,\\n     ...\n      JUMPI \t\t\t  uint32 _votingPeriod,\\n     ...\n      PUSH 0\t\t\t  uint32 _votingPeriod,\\n     ...\n      DUP1 \t\t\t  uint32 _votingPeriod,\\n     ...\n      REVERT \t\t\t  uint32 _votingPeriod,\\n     ...\n    tag 272\t\t\t  uint32 _votingPeriod,\\n     ...\n      JUMPDEST \t\t\t  uint32 _votingPeriod,\\n     ...\n      POP \t\t\t\n      PUSH 40\t\t\torContract\")\\n        Governor...\n      DUP1 \t\t\torContract\")\\n        Governor...\n      MLOAD \t\t\torContract\")\\n        Governor...\n      DUP1 \t\t\torContract\")\\n        Governor...\n      DUP3 \t\t\torContract\")\\n        Governor...\n      ADD \t\t\torContract\")\\n        Governor...\n      SWAP1 \t\t\torContract\")\\n        Governor...\n      SWAP2 \t\t\torContract\")\\n        Governor...\n      MSTORE \t\t\torContract\")\\n        Governor...\n      PUSH 20\t\t\torContract\")\\n        Governor...\n      DUP1 \t\t\torContract\")\\n        Governor...\n      DUP3 \t\t\torContract\")\\n        Governor...\n      MSTORE \t\t\torContract\")\\n        Governor...\n      PUSH 737570706F72743D627261766F2671756F72756D3D666F722C6162737461696E\t\t\torContract\")\\n        Governor...\n      SWAP1 \t\t\torContract\")\\n        Governor...\n      DUP3 \t\t\torContract\")\\n        Governor...\n      ADD \t\t\torContract\")\\n        Governor...\n      MSTORE \t\t\torContract\")\\n        Governor...\n      PUSH [tag] 81\t\t\t  uint32 _votingPeriod,\\n     ...\n      JUMP \t\t\t  uint32 _votingPeriod,\\n     ...\n    tag 44\t\t\t);\\n    }\\n\\n    function voti...\n      JUMPDEST \t\t\t);\\n    }\\n\\n    function voti...\n      CALLVALUE \t\t\t);\\n    }\\n\\n    function voti...\n      DUP1 \t\t\t);\\n    }\\n\\n    function voti...\n      ISZERO \t\t\t);\\n    }\\n\\n    function voti...\n      PUSH [tag] 276\t\t\t);\\n    }\\n\\n    function voti...\n      JUMPI \t\t\t);\\n    }\\n\\n    function voti...\n      PUSH 0\t\t\t);\\n    }\\n\\n    function voti...\n      DUP1 \t\t\t);\\n    }\\n\\n    function voti...\n      REVERT \t\t\t);\\n    }\\n\\n    function voti...\n    tag 276\t\t\t);\\n    }\\n\\n    function voti...\n      JUMPDEST \t\t\t);\\n    }\\n\\n    function voti...\n      POP \t\t\t);\\n    }\\n\\n    function voti...\n      PUSH [tag] 71\t\t\t);\\n    }\\n\\n    function voti...\n      PUSH F2AAD550CF55F045CB27E9C559F9889FDFB6E6CDAA032301D6EA397784AE51D7\t\t\tic\\n        view\\n        over...\n      DUP2 \t\t\t);\\n    }\\n\\n    function voti...\n      JUMP \t\t\t);\\n    }\\n\\n    function voti...\n    tag 45\t\t\t   return super.proposalNeedsQ...\n      JUMPDEST \t\t\t   return super.proposalNeedsQ...\n      CALLVALUE \t\t\t   return super.proposalNeedsQ...\n      DUP1 \t\t\t   return super.proposalNeedsQ...\n      ISZERO \t\t\t   return super.proposalNeedsQ...\n      PUSH [tag] 280\t\t\t   return super.proposalNeedsQ...\n      JUMPI \t\t\t   return super.proposalNeedsQ...\n      PUSH 0\t\t\t   return super.proposalNeedsQ...\n      DUP1 \t\t\t   return super.proposalNeedsQ...\n      REVERT \t\t\t   return super.proposalNeedsQ...\n    tag 280\t\t\t   return super.proposalNeedsQ...\n      JUMPDEST \t\t\t   return super.proposalNeedsQ...\n      POP \t\t\t\n      PUSH [tag] 62\t\t\t   return super.proposalNeedsQ...\n      PUSH [tag] 282\t\t\t   return super.proposalNeedsQ...\n      CALLDATASIZE \t\t\t   return super.proposalNeedsQ...\n      PUSH 4\t\t\t   return super.proposalNeedsQ...\n      PUSH [tag] 283\t\t\t   return super.proposalNeedsQ...\n      JUMP \t\t\t   return super.proposalNeedsQ...\n    tag 282\t\t\t   return super.proposalNeedsQ...\n      JUMPDEST \t\t\t   return super.proposalNeedsQ...\n      PUSH [tag] 284\t\t\t   return super.proposalNeedsQ...\n      JUMP \t\t\t   return super.proposalNeedsQ...\n    tag 46\t\t\t\n      JUMPDEST \t\t\t\n      CALLVALUE \t\t\t\n      DUP1 \t\t\t\n      ISZERO \t\t\t\n      PUSH [tag] 285\t\t\t\n      JUMPI \t\t\t\n      PUSH 0\t\t\t\n      DUP1 \t\t\t\n      REVERT \t\t\t\n    tag 285\t\t\t\n      JUMPDEST \t\t\t\n      POP \t\t\t\n      PUSH [tag] 71\t\t\t\n      PUSH [tag] 287\t\t\t\n      CALLDATASIZE \t\t\t\n      PUSH 4\t\t\t\n      PUSH [tag] 288\t\t\t\n      JUMP \t\t\t\n    tag 287\t\t\t\n      JUMPDEST \t\t\t\n      PUSH [tag] 289\t\t\t\n      JUMP \t\t\t\n    tag 47\t\t\tress[] memory targets,\\n      ...\n      JUMPDEST \t\t\tress[] memory targets,\\n      ...\n      CALLVALUE \t\t\tress[] memory targets,\\n      ...\n      DUP1 \t\t\tress[] memory targets,\\n      ...\n      ISZERO \t\t\tress[] memory targets,\\n      ...\n      PUSH [tag] 291\t\t\tress[] memory targets,\\n      ...\n      JUMPI \t\t\tress[] memory targets,\\n      ...\n      PUSH 0\t\t\tress[] memory targets,\\n      ...\n      DUP1 \t\t\tress[] memory targets,\\n      ...\n      REVERT \t\t\tress[] memory targets,\\n      ...\n    tag 291\t\t\tress[] memory targets,\\n      ...\n      JUMPDEST \t\t\tress[] memory targets,\\n      ...\n      POP \t\t\t\n      PUSH [tag] 62\t\t\tress[] memory targets,\\n      ...\n      PUSH [tag] 293\t\t\tress[] memory targets,\\n      ...\n      CALLDATASIZE \t\t\tress[] memory targets,\\n      ...\n      PUSH 4\t\t\tress[] memory targets,\\n      ...\n      PUSH [tag] 78\t\t\tress[] memory targets,\\n      ...\n      JUMP \t\t\tress[] memory targets,\\n      ...\n    tag 293\t\t\tress[] memory targets,\\n      ...\n      JUMPDEST \t\t\tress[] memory targets,\\n      ...\n      PUSH [tag] 294\t\t\tress[] memory targets,\\n      ...\n      JUMP \t\t\tress[] memory targets,\\n      ...\n    tag 48\t\t\t\n      JUMPDEST \t\t\t\n      CALLVALUE \t\t\t\n      DUP1 \t\t\t\n      ISZERO \t\t\t\n      PUSH [tag] 295\t\t\t\n      JUMPI \t\t\t\n      PUSH 0\t\t\t\n      DUP1 \t\t\t\n      REVERT \t\t\t\n    tag 295\t\t\t\n      JUMPDEST \t\t\t\n      POP \t\t\t\n      PUSH [tag] 92\t\t\t\n      PUSH [tag] 297\t\t\t\n      CALLDATASIZE \t\t\t\n      PUSH 4\t\t\t\n      PUSH [tag] 298\t\t\t\n      JUMP \t\t\t\n    tag 297\t\t\t\n      JUMPDEST \t\t\t\n      PUSH [tag] 299\t\t\t\n      JUMP \t\t\t\n    tag 49\t\t\tfunction quorum(uint256 blockN...\n      JUMPDEST \t\t\tfunction quorum(uint256 blockN...\n      CALLVALUE \t\t\tfunction quorum(uint256 blockN...\n      DUP1 \t\t\tfunction quorum(uint256 blockN...\n      ISZERO \t\t\tfunction quorum(uint256 blockN...\n      PUSH [tag] 301\t\t\tfunction quorum(uint256 blockN...\n      JUMPI \t\t\tfunction quorum(uint256 blockN...\n      PUSH 0\t\t\tfunction quorum(uint256 blockN...\n      DUP1 \t\t\tfunction quorum(uint256 blockN...\n      REVERT \t\t\tfunction quorum(uint256 blockN...\n    tag 301\t\t\tfunction quorum(uint256 blockN...\n      JUMPDEST \t\t\tfunction quorum(uint256 blockN...\n      POP \t\t\t\n      PUSH [tag] 71\t\t\tfunction quorum(uint256 blockN...\n      PUSH [tag] 303\t\t\tfunction quorum(uint256 blockN...\n      CALLDATASIZE \t\t\tfunction quorum(uint256 blockN...\n      PUSH 4\t\t\tfunction quorum(uint256 blockN...\n      PUSH [tag] 78\t\t\tfunction quorum(uint256 blockN...\n      JUMP \t\t\tfunction quorum(uint256 blockN...\n    tag 303\t\t\tfunction quorum(uint256 blockN...\n      JUMPDEST \t\t\tfunction quorum(uint256 blockN...\n      PUSH [tag] 304\t\t\tfunction quorum(uint256 blockN...\n      JUMP \t\t\tfunction quorum(uint256 blockN...\n    tag 50\t\t\troller _timelock,\\n        uin...\n      JUMPDEST \t\t\troller _timelock,\\n        uin...\n      CALLVALUE \t\t\troller _timelock,\\n        uin...\n      DUP1 \t\t\troller _timelock,\\n        uin...\n      ISZERO \t\t\troller _timelock,\\n        uin...\n      PUSH [tag] 306\t\t\troller _timelock,\\n        uin...\n      JUMPI \t\t\troller _timelock,\\n        uin...\n      PUSH 0\t\t\troller _timelock,\\n        uin...\n      DUP1 \t\t\troller _timelock,\\n        uin...\n      REVERT \t\t\troller _timelock,\\n        uin...\n    tag 306\t\t\troller _timelock,\\n        uin...\n      JUMPDEST \t\t\troller _timelock,\\n        uin...\n      POP \t\t\t\n      PUSHIMMUTABLE 4433\t\t\tod,\\n  \n      PUSH [tag] 86\t\t\troller _timelock,\\n        uin...\n      JUMP \t\t\troller _timelock,\\n        uin...\n    tag 61\t\t\tfunction _executor()\\n        ...\n      JUMPDEST \t\t\tfunction _executor()\\n        ...\n      PUSH 0\t\t\taddress\n      PUSH [tag] 312\t\t\tsuper._executor()\n      PUSH B\t\t\t       va\n      SLOAD \t\t\t       va\n      PUSH 1\t\t\t\n      PUSH 1\t\t\t\n      PUSH A0\t\t\t\n      SHL \t\t\t\n      SUB \t\t\t\n      AND \t\t\t       va\n      SWAP1 \t\t\t       va\n      JUMP \t\t\t       super._executeOperation...\n    tag 312\t\t\tsuper._executor()\n      JUMPDEST \t\t\tsuper._executor()\n      SWAP1 \t\t\treturn super._executor()\n      POP \t\t\treturn super._executor()\n      SWAP1 \t\t\tfunction _executor()\\n        ...\n      JUMP \t\t\tfunction _executor()\\n        ...\n    tag 67\t\t\t\n      JUMPDEST \t\t\t\n      PUSH 0\t\t\t\n      PUSH 1\t\t\t\n      PUSH 1\t\t\t\n      PUSH E0\t\t\t\n      SHL \t\t\t\n      SUB \t\t\t\n      NOT \t\t\t\n      DUP3 \t\t\t\n      AND \t\t\t\n      PUSH 32A2AD43\t\t\t\n      PUSH E1\t\t\t\n      SHL \t\t\t\n      EQ \t\t\t\n      DUP1 \t\t\t\n      PUSH [tag] 315\t\t\t\n      JUMPI \t\t\t\n      POP \t\t\t\n      PUSH 1\t\t\t\n      PUSH 1\t\t\t\n      PUSH E0\t\t\t\n      SHL \t\t\t\n      SUB \t\t\t\n      NOT \t\t\t\n      DUP3 \t\t\t\n      AND \t\t\t\n      PUSH 2711897\t\t\t\n      PUSH E5\t\t\t\n      SHL \t\t\t\n      EQ \t\t\t\n    tag 315\t\t\t\n      JUMPDEST \t\t\t\n      DUP1 \t\t\t\n      PUSH [tag] 317\t\t\t\n      JUMPI \t\t\t\n      POP \t\t\t\n      PUSH 1FFC9A7\t\t\t\n      PUSH E0\t\t\t\n      SHL \t\t\t\n      PUSH 1\t\t\t\n      PUSH 1\t\t\t\n      PUSH E0\t\t\t\n      SHL \t\t\t\n      SUB \t\t\t\n      NOT \t\t\t\n      DUP4 \t\t\tngPeriod,\\n        uint256 _qu...\n      AND \t\t\tngPeriod,\\n        uint256 _qu...\n      EQ \t\t\tngPeriod,\\n        uint256 _qu...\n    tag 317\t\t\t\n      JUMPDEST \t\t\t\n      SWAP3 \t\t\t\n      SWAP2 \t\t\t\n      POP \t\t\t\n      POP \t\t\t\n      JUMP \t\t\t\n    tag 79\t\t\t  proposalId,\\n            tar...\n      JUMPDEST \t\t\t  proposalId,\\n            tar...\n      PUSH [tag] 323\t\t\temory calldatas,\\n \n      PUSH [tag] 324\t\t\temory calldatas,\n      JUMP \t\t\temory calldatas,\\n \n    tag 323\t\t\temory calldatas,\\n \n      JUMPDEST \t\t\temory calldatas,\\n \n      PUSH [tag] 326\t\t\tHash\\n        );\\n    }\\n\\n   ...\n      DUP2 \t\t\t    function _canc\n      PUSH [tag] 327\t\t\tHash\\n        );\\n    }\\n\n      JUMP \t\t\tHash\\n        );\\n    }\\n\\n   ...\n    tag 326\t\t\tHash\\n        );\\n    }\\n\\n   ...\n      JUMPDEST \t\t\tHash\\n        );\\n    }\\n\\n   ...\n      POP \t\t\t  proposalId,\\n            tar...\n      JUMP \t\t\t  proposalId,\\n            tar...\n    tag 82\t\t\t\n      JUMPDEST \t\t\t\n      PUSH 60\t\t\t\n      PUSH 3\t\t\t\n      DUP1 \t\t\t\n      SLOAD \t\t\t\n      PUSH [tag] 329\t\t\t\n      SWAP1 \t\t\t\n      PUSH [tag] 330\t\t\t\n      JUMP \t\t\t\n    tag 329\t\t\t\n      JUMPDEST \t\t\t\n      DUP1 \t\t\t\n      PUSH 1F\t\t\t\n      ADD \t\t\t\n      PUSH 20\t\t\t\n      DUP1 \t\t\t\n      SWAP2 \t\t\t\n      DIV \t\t\t\n      MUL \t\t\t\n      PUSH 20\t\t\t\n      ADD \t\t\t\n      PUSH 40\t\t\t\n      MLOAD \t\t\t\n      SWAP1 \t\t\t\n      DUP2 \t\t\t\n      ADD \t\t\t\n      PUSH 40\t\t\t\n      MSTORE \t\t\t\n      DUP1 \t\t\t\n      SWAP3 \t\t\t\n      SWAP2 \t\t\t\n      SWAP1 \t\t\t\n      DUP2 \t\t\t\n      DUP2 \t\t\t\n      MSTORE \t\t\t\n      PUSH 20\t\t\t\n      ADD \t\t\t\n      DUP3 \t\t\t\n      DUP1 \t\t\t\n      SLOAD \t\t\t\n      PUSH [tag] 331\t\t\t\n      SWAP1 \t\t\t\n      PUSH [tag] 330\t\t\t\n      JUMP \t\t\t\n    tag 331\t\t\t\n      JUMPDEST \t\t\t\n      DUP1 \t\t\t\n      ISZERO \t\t\t\n      PUSH [tag] 332\t\t\t\n      JUMPI \t\t\t\n      DUP1 \t\t\t\n      PUSH 1F\t\t\t\n      LT \t\t\t\n      PUSH [tag] 333\t\t\t\n      JUMPI \t\t\t\n      PUSH 100\t\t\t\n      DUP1 \t\t\t\n      DUP4 \t\t\t\n      SLOAD \t\t\t\n      DIV \t\t\t\n      MUL \t\t\t\n      DUP4 \t\t\t\n      MSTORE \t\t\t\n      SWAP2 \t\t\t\n      PUSH 20\t\t\t\n      ADD \t\t\t\n      SWAP2 \t\t\t\n      PUSH [tag] 332\t\t\t\n      JUMP \t\t\t\n    tag 333\t\t\t\n      JUMPDEST \t\t\t\n      DUP3 \t\t\t\n      ADD \t\t\t\n      SWAP2 \t\t\t\n      SWAP1 \t\t\t\n      PUSH 0\t\t\t\n      MSTORE \t\t\t\n      PUSH 20\t\t\t\n      PUSH 0\t\t\t\n      KECCAK256 \t\t\t\n      SWAP1 \t\t\t\n    tag 334\t\t\t\n      JUMPDEST \t\t\t\n      DUP2 \t\t\t\n      SLOAD \t\t\t\n      DUP2 \t\t\t\n      MSTORE \t\t\t\n      SWAP1 \t\t\t\n      PUSH 1\t\t\t\n      ADD \t\t\t\n      SWAP1 \t\t\t\n      PUSH 20\t\t\t\n      ADD \t\t\t\n      DUP1 \t\t\t\n      DUP4 \t\t\t\n      GT \t\t\t\n      PUSH [tag] 334\t\t\t\n      JUMPI \t\t\t\n      DUP3 \t\t\t\n      SWAP1 \t\t\t\n      SUB \t\t\t\n      PUSH 1F\t\t\t\n      AND \t\t\t\n      DUP3 \t\t\t\n      ADD \t\t\t\n      SWAP2 \t\t\t\n    tag 332\t\t\t\n      JUMPDEST \t\t\t\n      POP \t\t\t\n      POP \t\t\t\n      POP \t\t\t\n      POP \t\t\t\n      POP \t\t\t\n      SWAP1 \t\t\t\n      POP \t\t\t\n      SWAP1 \t\t\t\n      JUMP \t\t\t\n    tag 95\t\t\t\n      JUMPDEST \t\t\t\n      PUSH 0\t\t\t\n      ADDRESS \t\t\t\n      PUSH [tag] 337\t\t\t\n      PUSH [tag] 61\t\t\t\n      JUMP \t\t\t\n    tag 337\t\t\t\n      JUMPDEST \t\t\t\n      PUSH 1\t\t\t\n      PUSH 1\t\t\t\n      PUSH A0\t\t\t\n      SHL \t\t\t\n      SUB \t\t\t\n      AND \t\t\t\n      EQ \t\t\t\n      PUSH [tag] 338\t\t\t\n      JUMPI \t\t\t\n      PUSH 40\t\t\t\n      MLOAD \t\t\t\n      PUSH 7485328F\t\t\t\n      PUSH E1\t\t\t\n      SHL \t\t\t\n      DUP2 \t\t\t\n      MSTORE \t\t\t\n      PUSH 4\t\t\t\n      ADD \t\t\t\n      PUSH 40\t\t\t\n      MLOAD \t\t\t\n      DUP1 \t\t\t\n      SWAP2 \t\t\t\n      SUB \t\t\t\n      SWAP1 \t\t\t\n      REVERT \t\t\t\n    tag 338\t\t\t\n      JUMPDEST \t\t\t\n      POP \t\t\t\n      PUSH A85BD01\t\t\t\n      PUSH E1\t\t\t\n      SHL \t\t\t\n      SWAP5 \t\t\t\n      SWAP4 \t\t\t\n      POP \t\t\t\n      POP \t\t\t\n      POP \t\t\t\n      POP \t\t\t\n      JUMP \t\t\t\n    tag 102\t\t\t\n      JUMPDEST \t\t\t\n      PUSH 0\t\t\t\n      DUP1 \t\t\t\n      PUSH [tag] 340\t\t\t\n      DUP7 \t\t\t\n      DUP7 \t\t\t\n      DUP7 \t\t\t\n      DUP7 \t\t\t\n      PUSH [tag] 266\t\t\t\n      JUMP \t\t\t\n    tag 340\t\t\t\n      JUMPDEST \t\t\t\n      SWAP1 \t\t\t\n      POP \t\t\t\n      PUSH [tag] 341\t\t\t\n      DUP2 \t\t\t\n      PUSH [tag] 342\t\t\t\n      PUSH 4\t\t\t\n      PUSH [tag] 343\t\t\t\n      JUMP \t\t\t\n    tag 342\t\t\t\n      JUMPDEST \t\t\t\n      PUSH [tag] 344\t\t\t\n      JUMP \t\t\t\n    tag 341\t\t\t\n      JUMPDEST \t\t\t\n      POP \t\t\t\n      PUSH 0\t\t\t\n      PUSH [tag] 345\t\t\t\n      DUP3 \t\t\t\n      DUP9 \t\t\t\n      DUP9 \t\t\t\n      DUP9 \t\t\t\n      DUP9 \t\t\t\n      PUSH [tag] 346\t\t\t\n      JUMP \t\t\t\n    tag 345\t\t\t\n      JUMPDEST \t\t\t\n      SWAP1 \t\t\t\n      POP \t\t\t\n      PUSH FFFFFFFFFFFF\t\t\t\n      DUP2 \t\t\t\n      AND \t\t\t\n      ISZERO \t\t\t\n      PUSH [tag] 347\t\t\t\n      JUMPI \t\t\t\n      PUSH 0\t\t\t\n      DUP3 \t\t\t\n      DUP2 \t\t\t\n      MSTORE \t\t\t\n      PUSH 4\t\t\t\n      PUSH 20\t\t\t\n      SWAP1 \t\t\t\n      DUP2 \t\t\t\n      MSTORE \t\t\t\n      PUSH 40\t\t\t\n      SWAP2 \t\t\t\n      DUP3 \t\t\t\n      SWAP1 \t\t\t\n      KECCAK256 \t\t\t\n      PUSH 1\t\t\t\n      ADD \t\t\t\n      DUP1 \t\t\t\n      SLOAD \t\t\t\n      PUSH FFFFFFFFFFFF\t\t\t\n      NOT \t\t\t\n      AND \t\t\t\n      PUSH FFFFFFFFFFFF\t\t\t\n      DUP6 \t\t\t\n      AND \t\t\t\n      SWAP1 \t\t\t\n      DUP2 \t\t\t\n      OR \t\t\t\n      SWAP1 \t\t\t\n      SWAP2 \t\t\t\n      SSTORE \t\t\t\n      DUP3 \t\t\t\n      MLOAD \t\t\t\n      DUP6 \t\t\t\n      DUP2 \t\t\t\n      MSTORE \t\t\t\n      SWAP2 \t\t\t\n      DUP3 \t\t\t\n      ADD \t\t\t\n      MSTORE \t\t\t\n      PUSH 9A2E42FD6722813D69113E7D0079D3D940171428DF7373DF9C7F7617CFDA2892\t\t\t\n      SWAP2 \t\t\t\n      ADD \t\t\t\n      PUSH 40\t\t\t\n      MLOAD \t\t\t\n      DUP1 \t\t\t\n      SWAP2 \t\t\t\n      SUB \t\t\t\n      SWAP1 \t\t\t\n      LOG1 \t\t\t\n      PUSH [tag] 350\t\t\t\n      JUMP \t\t\t\n    tag 347\t\t\t\n      JUMPDEST \t\t\t\n      PUSH 40\t\t\t\n      MLOAD \t\t\t\n      PUSH 48442523\t\t\t\n      PUSH E1\t\t\t\n      SHL \t\t\t\n      DUP2 \t\t\t\n      MSTORE \t\t\t\n      PUSH 4\t\t\t\n      ADD \t\t\t\n      PUSH 40\t\t\t\n      MLOAD \t\t\t\n      DUP1 \t\t\t\n      SWAP2 \t\t\t\n      SUB \t\t\t\n      SWAP1 \t\t\t\n      REVERT \t\t\t\n    tag 350\t\t\t\n      JUMPDEST \t\t\t\n      POP \t\t\t\n      SWAP6 \t\t\t\n      SWAP5 \t\t\t\n      POP \t\t\t\n      POP \t\t\t\n      POP \t\t\t\n      POP \t\t\t\n      POP \t\t\t\n      JUMP \t\t\t\n    tag 106\t\t\t\n      JUMPDEST \t\t\t\n      PUSH 0\t\t\t\n      DUP1 \t\t\t\n      PUSH [tag] 352\t\t\t\n      DUP7 \t\t\t\n      DUP7 \t\t\t\n      DUP7 \t\t\t\n      DUP7 \t\t\t\n      PUSH [tag] 266\t\t\t\n      JUMP \t\t\t\n    tag 352\t\t\t\n      JUMPDEST \t\t\t\n      SWAP1 \t\t\t\n      POP \t\t\t\n      PUSH [tag] 353\t\t\t\n      DUP2 \t\t\t\n      PUSH [tag] 354\t\t\t\n      PUSH 5\t\t\t\n      PUSH [tag] 343\t\t\t\n      JUMP \t\t\t\n    tag 354\t\t\t\n      JUMPDEST \t\t\t\n      PUSH [tag] 355\t\t\t\n      PUSH 4\t\t\t\n      PUSH [tag] 343\t\t\t\n      JUMP \t\t\t\n    tag 355\t\t\t\n      JUMPDEST \t\t\t\n      OR \t\t\t\n      PUSH [tag] 344\t\t\t\n      JUMP \t\t\t\n    tag 353\t\t\t\n      JUMPDEST \t\t\t\n      POP \t\t\t\n      PUSH 0\t\t\t\n      DUP2 \t\t\t\n      DUP2 \t\t\t\n      MSTORE \t\t\t\n      PUSH 4\t\t\t\n      PUSH 20\t\t\t\n      MSTORE \t\t\t\n      PUSH 40\t\t\t\n      SWAP1 \t\t\t\n      KECCAK256 \t\t\t\n      DUP1 \t\t\t\n      SLOAD \t\t\t\n      PUSH FF\t\t\t\n      PUSH F0\t\t\t\n      SHL \t\t\t\n      NOT \t\t\t\n      AND \t\t\t\n      PUSH 1\t\t\t\n      PUSH F0\t\t\t\n      SHL \t\t\t\n      OR \t\t\t\n      SWAP1 \t\t\t\n      SSTORE \t\t\t\n      ADDRESS \t\t\t\n      PUSH [tag] 356\t\t\t\n      PUSH [tag] 61\t\t\t\n      JUMP \t\t\t\n    tag 356\t\t\t\n      JUMPDEST \t\t\t\n      PUSH 1\t\t\t\n      PUSH 1\t\t\t\n      PUSH A0\t\t\t\n      SHL \t\t\t\n      SUB \t\t\t\n      AND \t\t\t\n      EQ \t\t\t\n      PUSH [tag] 357\t\t\t\n      JUMPI \t\t\t\n      PUSH 0\t\t\t\n    tag 358\t\t\t\n      JUMPDEST \t\t\t\n      DUP7 \t\t\t\n      MLOAD \t\t\t\n      DUP2 \t\t\t\n      LT \t\t\t\n      ISZERO \t\t\t\n      PUSH [tag] 359\t\t\t\n      JUMPI \t\t\t\n      ADDRESS \t\t\t\n      PUSH 1\t\t\t\n      PUSH 1\t\t\t\n      PUSH A0\t\t\t\n      SHL \t\t\t\n      SUB \t\t\t\n      AND \t\t\t\n      DUP8 \t\t\t\n      DUP3 \t\t\t\n      DUP2 \t\t\t\n      MLOAD \t\t\t\n      DUP2 \t\t\t\n      LT \t\t\t\n      PUSH [tag] 362\t\t\t\n      JUMPI \t\t\t\n      PUSH [tag] 362\t\t\t\n      PUSH [tag] 363\t\t\t\n      JUMP \t\t\t\n    tag 362\t\t\t\n      JUMPDEST \t\t\t\n      PUSH 20\t\t\t\n      MUL \t\t\t\n      PUSH 20\t\t\t\n      ADD \t\t\t\n      ADD \t\t\t\n      MLOAD \t\t\t\n      PUSH 1\t\t\t\n      PUSH 1\t\t\t\n      PUSH A0\t\t\t\n      SHL \t\t\t\n      SUB \t\t\t\n      AND \t\t\t\n      SUB \t\t\t\n      PUSH [tag] 365\t\t\t\n      JUMPI \t\t\t\n      PUSH [tag] 365\t\t\t\n      DUP6 \t\t\t\n      DUP3 \t\t\t\n      DUP2 \t\t\t\n      MLOAD \t\t\t\n      DUP2 \t\t\t\n      LT \t\t\t\n      PUSH [tag] 367\t\t\t\n      JUMPI \t\t\t\n      PUSH [tag] 367\t\t\t\n      PUSH [tag] 363\t\t\t\n      JUMP \t\t\t\n    tag 367\t\t\t\n      JUMPDEST \t\t\t\n      PUSH 20\t\t\t\n      MUL \t\t\t\n      PUSH 20\t\t\t\n      ADD \t\t\t\n      ADD \t\t\t\n      MLOAD \t\t\t\n      DUP1 \t\t\t\n      MLOAD \t\t\t\n      SWAP1 \t\t\t\n      PUSH 20\t\t\t\n      ADD \t\t\t\n      KECCAK256 \t\t\t\n      PUSH 5\t\t\t\n      PUSH [tag] 368\t\t\t\n      SWAP1 \t\t\t\n      SWAP2 \t\t\t\n      SWAP1 \t\t\t\n      PUSH FFFFFFFF\t\t\t\n      AND \t\t\t\n      JUMP \t\t\t\n    tag 365\t\t\t\n      JUMPDEST \t\t\t\n      PUSH 1\t\t\t\n      ADD \t\t\t\n      PUSH [tag] 358\t\t\t\n      JUMP \t\t\t\n    tag 359\t\t\t\n      JUMPDEST \t\t\t\n      POP \t\t\t\n    tag 357\t\t\t\n      JUMPDEST \t\t\t\n      PUSH [tag] 369\t\t\t\n      DUP2 \t\t\t\n      DUP8 \t\t\t\n      DUP8 \t\t\t\n      DUP8 \t\t\t\n      DUP8 \t\t\t\n      PUSH [tag] 370\t\t\t\n      JUMP \t\t\t\n    tag 369\t\t\t\n      JUMPDEST \t\t\t\n      ADDRESS \t\t\t\n      PUSH [tag] 371\t\t\t\n      PUSH [tag] 61\t\t\t\n      JUMP \t\t\t\n    tag 371\t\t\t\n      JUMPDEST \t\t\t\n      PUSH 1\t\t\t\n      PUSH 1\t\t\t\n      PUSH A0\t\t\t\n      SHL \t\t\t\n      SUB \t\t\t\n      AND \t\t\t\n      EQ \t\t\t\n      ISZERO \t\t\t\n      DUP1 \t\t\t\n      ISZERO \t\t\t\n      PUSH [tag] 372\t\t\t\n      JUMPI \t\t\t\n      POP \t\t\t\n      PUSH 5\t\t\t\n      SLOAD \t\t\t\n      PUSH 1\t\t\t\n      PUSH 1\t\t\t\n      PUSH 80\t\t\t\n      SHL \t\t\t\n      SUB \t\t\t\n      DUP1 \t\t\t\n      DUP3 \t\t\t\n      AND \t\t\t\n      PUSH 1\t\t\t\n      PUSH 80\t\t\t\n      SHL \t\t\t\n      SWAP1 \t\t\t\n      SWAP3 \t\t\t\n      DIV \t\t\t\n      AND \t\t\t\n      EQ \t\t\t\n      ISZERO \t\t\t\n    tag 372\t\t\t\n      JUMPDEST \t\t\t\n      ISZERO \t\t\t\n      PUSH [tag] 376\t\t\t\n      JUMPI \t\t\t\n      PUSH 0\t\t\t\n      PUSH 5\t\t\t\n      SSTORE \t\t\t\n    tag 376\t\t\t\n      JUMPDEST \t\t\t\n      PUSH 40\t\t\t\n      MLOAD \t\t\t\n      DUP2 \t\t\tgSimple,\\n    GovernorVote\n      DUP2 \t\t\tgSimple,\\n    GovernorVote\n      MSTORE \t\t\tgSimple,\\n    GovernorVote\n      PUSH 712AE1383F79AC853F8D882153778E0260EF8F03B504E2866E0593E04D2B291F\t\t\t\n      SWAP1 \t\t\t\n      PUSH 20\t\t\ter\n      ADD \t\t\tttings,\\n    Govern\n    tag 378\t\t\t\n      JUMPDEST \t\t\t\n      PUSH 40\t\t\t\n      MLOAD \t\t\t\n      DUP1 \t\t\t\n      SWAP2 \t\t\t\n      SUB \t\t\t\n      SWAP1 \t\t\t\n      LOG1 \t\t\t\n      SWAP6 \t\t\t\n      SWAP5 \t\t\t\n      POP \t\t\t\n      POP \t\t\t\n      POP \t\t\t\n      POP \t\t\t\n      POP \t\t\t\n      JUMP \t\t\t\n    tag 111\t\t\t\n      JUMPDEST \t\t\t\n      PUSH 0\t\t\t\n      SWAP1 \t\t\t\n      DUP2 \t\t\t\n      MSTORE \t\t\t\n      PUSH 4\t\t\t\n      PUSH 20\t\t\t\n      MSTORE \t\t\t\n      PUSH 40\t\t\t\n      SWAP1 \t\t\t\n      KECCAK256 \t\t\t\n      SLOAD \t\t\t\n      PUSH 1\t\t\t\n      PUSH A0\t\t\t\n      SHL \t\t\t\n      SWAP1 \t\t\t\n      DIV \t\t\t\n      PUSH FFFFFFFFFFFF\t\t\t\n      AND \t\t\t\n      SWAP1 \t\t\t\n      JUMP \t\t\t\n    tag 120\t\t\tfunction votingDelay()\\n      ...\n      JUMPDEST \t\t\tfunction votingDelay()\\n      ...\n      PUSH 0\t\t\tuint256\n      PUSH [tag] 312\t\t\tsuper.votingDelay()\n      PUSH 8\t\t\t, GovernorSe\n      SLOAD \t\t\t, GovernorSe\n      PUSH FFFFFFFFFFFF\t\t\t, GovernorSe\n      AND \t\t\t, GovernorSe\n      SWAP1 \t\t\t, GovernorSe\n      JUMP \t\t\tdity.\\n\\n    function votingDe...\n    tag 125\t\t\tfunction state(uint256 proposa...\n      JUMPDEST \t\t\tfunction state(uint256 proposa...\n      PUSH 0\t\t\tProposalState\n      PUSH [tag] 317\t\t\tsuper.state(proposalId)\n      DUP3 \t\t\tproposalId\n      PUSH [tag] 385\t\t\tsuper.state\n      JUMP \t\t\tsuper.state(proposalId)\n    tag 137\t\t\t\n      JUMPDEST \t\t\t\n      PUSH 0\t\t\t\n      DUP1 \t\t\t\n      PUSH [tag] 388\t\t\t\n      DUP7 \t\t\t\n      DUP7 \t\t\t\n      DUP7 \t\t\t\n      DUP7 \t\t\t\n      PUSH [tag] 266\t\t\t\n      JUMP \t\t\t\n    tag 388\t\t\t\n      JUMPDEST \t\t\t\n      SWAP1 \t\t\t\n      POP \t\t\t\n      PUSH [tag] 389\t\t\t\n      DUP2 \t\t\t\n      PUSH [tag] 342\t\t\t\n      PUSH 0\t\t\t\n      PUSH [tag] 343\t\t\t\n      JUMP \t\t\t\n    tag 389\t\t\t\n      JUMPDEST \t\t\t\n      POP \t\t\t\n      PUSH 0\t\t\t\n      DUP2 \t\t\t\n      DUP2 \t\t\t\n      MSTORE \t\t\t\n      PUSH 4\t\t\t\n      PUSH 20\t\t\t\n      MSTORE \t\t\t\n      PUSH 40\t\t\t\n      SWAP1 \t\t\t\n      KECCAK256 \t\t\t\n      SLOAD \t\t\t\n      PUSH 1\t\t\t\n      PUSH 1\t\t\t\n      PUSH A0\t\t\t\n      SHL \t\t\t\n      SUB \t\t\t\n      AND \t\t\t\n      CALLER \t\t\t   constru\n      EQ \t\t\t\n      PUSH [tag] 394\t\t\t\n      JUMPI \t\t\t\n      PUSH 40\t\t\t\n      MLOAD \t\t\t\n      PUSH 233D98E3\t\t\t\n      PUSH E0\t\t\t\n      SHL \t\t\t\n      DUP2 \t\t\t\n      MSTORE \t\t\t\n      CALLER \t\t\t   constru\n      PUSH 4\t\t\t\n      DUP3 \t\t\t\n      ADD \t\t\t\n      MSTORE \t\t\t\\n    function state(uint256 p...\n      PUSH 24\t\t\tquorum(blockNumber\n      ADD \t\t\tquorum(blockNumber\n    tag 396\t\t\t\n      JUMPDEST \t\t\t\n      PUSH 40\t\t\t\n      MLOAD \t\t\t\n      DUP1 \t\t\t\n      SWAP2 \t\t\t\n      SUB \t\t\t\n      SWAP1 \t\t\t\n      REVERT \t\t\t\n    tag 394\t\t\t\n      JUMPDEST \t\t\t\n      PUSH [tag] 397\t\t\t\n      DUP7 \t\t\t\n      DUP7 \t\t\t\n      DUP7 \t\t\t\n      DUP7 \t\t\t\n      PUSH [tag] 398\t\t\t\n      JUMP \t\t\t\n    tag 397\t\t\t\n      JUMPDEST \t\t\t\n      SWAP7 \t\t\t\n      SWAP6 \t\t\t\n      POP \t\t\t\n      POP \t\t\t\n      POP \t\t\t\n      POP \t\t\t\n      POP \t\t\t\n      POP \t\t\t\n      JUMP \t\t\t\n    tag 141\t\t\tiew\\n        override(Governor...\n      JUMPDEST \t\t\tiew\\n        override(Governor...\n      PUSH 60\t\t\turns (uint256\n      PUSHIMMUTABLE 4433\t\t\tod,\\n  \n      PUSH 1\t\t\t\n      PUSH 1\t\t\t\n      PUSH A0\t\t\t\n      SHL \t\t\t\n      SUB \t\t\t\n      AND \t\t\treturn super.votin\n      PUSH 4BF5D7E9\t\t\treturn super.votin\n      PUSH 40\t\t\treturn super.votingP\n      MLOAD \t\t\treturn super.votingP\n      DUP2 \t\t\treturn super.votingP\n      PUSH FFFFFFFF\t\t\treturn super.votingP\n      AND \t\t\treturn super.votingP\n      PUSH E0\t\t\treturn super.votingP\n      SHL \t\t\treturn super.votingP\n      DUP2 \t\t\treturn super.votingP\n      MSTORE \t\t\treturn super.votingP\n      PUSH 4\t\t\treturn super.votingP\n      ADD \t\t\treturn super.votingP\n      PUSH 0\t\t\treturn super.votingP\n      PUSH 40\t\t\treturn super.votingP\n      MLOAD \t\t\treturn super.votingP\n      DUP1 \t\t\treturn super.votingP\n      DUP4 \t\t\treturn super.votingP\n      SUB \t\t\treturn super.votingP\n      DUP2 \t\t\treturn super.votingP\n      DUP7 \t\t\treturn super.votingP\n      GAS \t\t\treturn super.votingP\n      STATICCALL \t\t\treturn super.votingP\n      SWAP3 \t\t\treturn super.votingP\n      POP \t\t\treturn super.votingP\n      POP \t\t\treturn super.votingP\n      POP \t\t\treturn super.votingP\n      DUP1 \t\t\treturn super.votingP\n      ISZERO \t\t\treturn super.votingP\n      PUSH [tag] 401\t\t\treturn super.votingP\n      JUMPI \t\t\treturn super.votingP\n      POP \t\t\treturn super.votingP\n      PUSH 40\t\t\treturn super.votingP\n      MLOAD \t\t\treturn super.votingP\n      RETURNDATASIZE \t\t\treturn super.votingP\n      PUSH 0\t\t\treturn super.votingP\n      DUP3 \t\t\treturn super.votingP\n      RETURNDATACOPY \t\t\treturn super.votingP\n      PUSH 1F\t\t\treturn super.votingP\n      RETURNDATASIZE \t\t\treturn super.votingP\n      SWAP1 \t\t\treturn super.votingP\n      DUP2 \t\t\treturn super.votingP\n      ADD \t\t\treturn super.votingP\n      PUSH 1F\t\t\t\n      NOT \t\t\t\n      AND \t\t\treturn super.votingP\n      DUP3 \t\t\treturn super.votingP\n      ADD \t\t\treturn super.votingP\n      PUSH 40\t\t\treturn super.votingP\n      MSTORE \t\t\treturn super.votingP\n      PUSH [tag] 402\t\t\treturn super.votingP\n      SWAP2 \t\t\treturn super.votingP\n      SWAP1 \t\t\treturn super.votingP\n      DUP2 \t\t\treturn super.votingP\n      ADD \t\t\treturn super.votingP\n      SWAP1 \t\t\treturn super.votingP\n      PUSH [tag] 403\t\t\treturn super.votingP\n      JUMP \t\t\treturn super.votingP\n    tag 402\t\t\treturn super.votingP\n      JUMPDEST \t\t\treturn super.votingP\n      PUSH 1\t\t\treturn super.votingP\n    tag 401\t\t\treturn super.votingP\n      JUMPDEST \t\t\treturn super.votingP\n      PUSH [tag] 404\t\t\t    return super.votingPeriod(...\n      JUMPI \t\t\t    return super.votingPeriod(...\n      POP \t\t\t\n      PUSH 40\t\t\tride(Governor, GovernorVotesQu...\n      DUP1 \t\t\tride(Governor, GovernorVotesQu...\n      MLOAD \t\t\tride(Governor, GovernorVotesQu...\n      DUP1 \t\t\tride(Governor, GovernorVotesQu...\n      DUP3 \t\t\tride(Governor, GovernorVotesQu...\n      ADD \t\t\tride(Governor, GovernorVotesQu...\n      SWAP1 \t\t\tride(Governor, GovernorVotesQu...\n      SWAP2 \t\t\tride(Governor, GovernorVotesQu...\n      MSTORE \t\t\tride(Governor, GovernorVotesQu...\n      PUSH 1D\t\t\tride(Governor, GovernorVotesQu...\n      DUP2 \t\t\tride(Governor, GovernorVotesQu...\n      MSTORE \t\t\tride(Governor, GovernorVotesQu...\n      PUSH 6D6F64653D626C6F636B6E756D6265722666726F6D3D64656661756C74000000\t\t\tride(Governor, GovernorVotesQu...\n      PUSH 20\t\t\tride(Governor, GovernorVotesQu...\n      DUP3 \t\t\tride(Governor, GovernorVotesQu...\n      ADD \t\t\tride(Governor, GovernorVotesQu...\n      MSTORE \t\t\tride(Governor, GovernorVotesQu...\n      SWAP1 \t\t\tride(Governor, GovernorVotesQu...\n      JUMP \t\t\tiew\\n        override(Governor...\n    tag 404\t\t\t    return super.votingPeriod(...\n      JUMPDEST \t\t\t    return super.votingPeriod(...\n      SWAP2 \t\t\t\\n        \n      SWAP1 \t\t\tiew\\n        override(Governor...\n      POP \t\t\t\n      JUMP \t\t\tiew\\n        override(Governor...\n    tag 157\t\t\t\n      JUMPDEST \t\t\t\n      PUSH 0\t\t\t\n      DUP1 \t\t\t\n      CALLER \t\t\t   constru\n      SWAP1 \t\t\t\n      POP \t\t\t\n      PUSH [tag] 413\t\t\t\n      DUP5 \t\t\t\n      DUP3 \t\t\t\n      DUP6 \t\t\t\n      PUSH 40\t\t\t\n      MLOAD \t\t\t\n      DUP1 \t\t\t\n      PUSH 20\t\t\t\n      ADD \t\t\t\n      PUSH 40\t\t\t\n      MSTORE \t\t\t\n      DUP1 \t\t\t\n      PUSH 0\t\t\t\n      DUP2 \t\t\t\n      MSTORE \t\t\t\n      POP \t\t\t\n      PUSH [tag] 414\t\t\t\n      JUMP \t\t\t\n    tag 413\t\t\t\n      JUMPDEST \t\t\t\n      SWAP5 \t\t\t\n      SWAP4 \t\t\t\n      POP \t\t\t\n      POP \t\t\t\n      POP \t\t\t\n      POP \t\t\t\n      JUMP \t\t\t\n    tag 163\t\t\t\n      JUMPDEST \t\t\t\n      PUSH 0\t\t\t\n      DUP1 \t\t\t\n      PUSH [tag] 416\t\t\t\n      DUP8 \t\t\t\n      PUSH [tag] 417\t\t\t\n      PUSH 3E83946653575F9A39005E1545185629E92736B7528AB20CA3816F315424A811\t\t\tion quorum(uint256 blockNumber...\n      DUP13 \t\t\t\n      DUP13 \t\t\t\n      DUP13 \t\t\t\n      PUSH [tag] 418\t\t\t\n      DUP15 \t\t\t\n      PUSH 1\t\t\t\n      PUSH 1\t\t\t\n      PUSH A0\t\t\t\n      SHL \t\t\t\n      SUB \t\t\t\n      AND \t\t\t(_timelock)\\n  \n      PUSH 0\t\t\t uint48\n      SWAP1 \t\t\t(_timelock)\\n  \n      DUP2 \t\t\t(_timelock)\\n  \n      MSTORE \t\t\t(_timelock)\\n  \n      PUSH 2\t\t\t(_timel\n      PUSH 20\t\t\t(_timelock)\\n  \n      MSTORE \t\t\t(_timelock)\\n  \n      PUSH 40\t\t\t(_timelock)\\n  \n      SWAP1 \t\t\t(_timelock)\\n  \n      KECCAK256 \t\t\t(_timelock)\\n  \n      DUP1 \t\t\t(_timelock)\\n    \n      SLOAD \t\t\t(_timelock)\\n    \n      PUSH 1\t\t\t(_timelock)\\n    \n      DUP2 \t\t\t(_timelock)\\n    \n      ADD \t\t\t(_timelock)\\n    \n      SWAP1 \t\t\t(_timelock)\\n    \n      SWAP2 \t\t\t(_timelock)\\n    \n      SSTORE \t\t\t(_timelock)\\n    \n      SWAP1 \t\t\t(_timelock)\\n    \n      JUMP \t\t\tIVotes _token,\\n        Timelo...\n    tag 418\t\t\t\n      JUMPDEST \t\t\t\n      DUP14 \t\t\t\n      DUP14 \t\t\t\n      PUSH 40\t\t\t\n      MLOAD \t\t\t\n      PUSH [tag] 420\t\t\t\n      SWAP3 \t\t\t\n      SWAP2 \t\t\t\n      SWAP1 \t\t\t\n      PUSH [tag] 421\t\t\t\n      JUMP \t\t\t\n    tag 420\t\t\t\n      JUMPDEST \t\t\t\n      PUSH 40\t\t\t\n      MLOAD \t\t\t\n      DUP1 \t\t\t\n      SWAP2 \t\t\t\n      SUB \t\t\t\n      SWAP1 \t\t\t\n      KECCAK256 \t\t\t\n      DUP13 \t\t\t\n      DUP1 \t\t\t\n      MLOAD \t\t\t\n      SWAP1 \t\t\t\n      PUSH 20\t\t\t\n      ADD \t\t\t\n      KECCAK256 \t\t\t\n      PUSH 40\t\t\t\n      MLOAD \t\t\t\n      PUSH 20\t\t\t\n      ADD \t\t\t\n      PUSH [tag] 422\t\t\t\n      SWAP8 \t\t\t\n      SWAP7 \t\t\t\n      SWAP6 \t\t\t\n      SWAP5 \t\t\t\n      SWAP4 \t\t\t\n      SWAP3 \t\t\t\n      SWAP2 \t\t\t\n      SWAP1 \t\t\t\n      SWAP7 \t\t\t\n      DUP8 \t\t\t\n      MSTORE \t\t\t\n      PUSH 20\t\t\t\n      DUP8 \t\t\t\n      ADD \t\t\t\n      SWAP6 \t\t\t\n      SWAP1 \t\t\t\n      SWAP6 \t\t\t\n      MSTORE \t\t\t\n      PUSH FF\t\t\t\n      SWAP4 \t\t\t\n      SWAP1 \t\t\t\n      SWAP4 \t\t\t\n      AND \t\t\t\n      PUSH 40\t\t\t\n      DUP7 \t\t\t\n      ADD \t\t\t\n      MSTORE \t\t\t\n      PUSH 1\t\t\t\n      PUSH 1\t\t\t\n      PUSH A0\t\t\t\n      SHL \t\t\t\n      SUB \t\t\t\n      SWAP2 \t\t\t\n      SWAP1 \t\t\t\n      SWAP2 \t\t\t\n      AND \t\t\t\n      PUSH 60\t\t\t\n      DUP6 \t\t\t\n      ADD \t\t\t\n      MSTORE \t\t\t\n      PUSH 80\t\t\t\n      DUP5 \t\t\t\n      ADD \t\t\t\n      MSTORE \t\t\t\n      PUSH A0\t\t\t\n      DUP4 \t\t\t\n      ADD \t\t\t\n      MSTORE \t\t\t\n      PUSH C0\t\t\t\n      DUP3 \t\t\t\n      ADD \t\t\t\n      MSTORE \t\t\t\n      PUSH E0\t\t\t\n      ADD \t\t\t\n      SWAP1 \t\t\t\n      JUMP \t\t\t\n    tag 422\t\t\t\n      JUMPDEST \t\t\t\n      PUSH 40\t\t\t\n      MLOAD \t\t\t\n      PUSH 20\t\t\t\n      DUP2 \t\t\t\n      DUP4 \t\t\t\n      SUB \t\t\t\n      SUB \t\t\t\n      DUP2 \t\t\t\n      MSTORE \t\t\t\n      SWAP1 \t\t\t\n      PUSH 40\t\t\t\n      MSTORE \t\t\t\n      DUP1 \t\t\t\n      MLOAD \t\t\t\n      SWAP1 \t\t\t\n      PUSH 20\t\t\t\n      ADD \t\t\t\n      KECCAK256 \t\t\t\n      PUSH [tag] 424\t\t\t\n      JUMP \t\t\t\n    tag 417\t\t\t\n      JUMPDEST \t\t\t\n      DUP6 \t\t\t\n      PUSH [tag] 425\t\t\t\n      JUMP \t\t\t\n    tag 416\t\t\t\n      JUMPDEST \t\t\t\n      SWAP1 \t\t\t\n      POP \t\t\t\n      DUP1 \t\t\t\n      PUSH [tag] 426\t\t\t\n      JUMPI \t\t\t\n      PUSH 40\t\t\t\n      MLOAD \t\t\t\n      PUSH 94AB6C07\t\t\t\n      PUSH E0\t\t\t\n      SHL \t\t\t\n      DUP2 \t\t\t\n      MSTORE \t\t\t\n      PUSH 1\t\t\t\n      PUSH 1\t\t\t\n      PUSH A0\t\t\t\n      SHL \t\t\t\n      SUB \t\t\t\n      DUP9 \t\t\te(uint256 proposalId)\\n       ...\n      AND \t\t\te(uint256 proposalId)\\n       ...\n      PUSH 4\t\t\t\n      DUP3 \t\t\t\n      ADD \t\t\t\n      MSTORE \t\t\t\\n    function state(uint256 p...\n      PUSH 24\t\t\tquorum(blockNumber\n      ADD \t\t\tquorum(blockNumber\n      PUSH [tag] 396\t\t\t\n      JUMP \t\t\t     view\\n        override(Go...\n    tag 426\t\t\t\n      JUMPDEST \t\t\t\n      PUSH [tag] 428\t\t\t\n      DUP10 \t\t\t\n      DUP9 \t\t\t\n      DUP11 \t\t\t\n      DUP10 \t\t\t\n      DUP10 \t\t\t\n      DUP1 \t\t\t\n      DUP1 \t\t\t\n      PUSH 1F\t\t\t\n      ADD \t\t\t\n      PUSH 20\t\t\t\n      DUP1 \t\t\t\n      SWAP2 \t\t\t\n      DIV \t\t\t\n      MUL \t\t\t\n      PUSH 20\t\t\t\n      ADD \t\t\t\n      PUSH 40\t\t\t\n      MLOAD \t\t\t\n      SWAP1 \t\t\t\n      DUP2 \t\t\t\n      ADD \t\t\t\n      PUSH 40\t\t\t\n      MSTORE \t\t\t\n      DUP1 \t\t\t\n      SWAP4 \t\t\t\n      SWAP3 \t\t\t\n      SWAP2 \t\t\t\n      SWAP1 \t\t\t\n      DUP2 \t\t\t\n      DUP2 \t\t\t\n      MSTORE \t\t\t\n      PUSH 20\t\t\t\n      ADD \t\t\t\n      DUP4 \t\t\t\n      DUP4 \t\t\t\n      DUP1 \t\t\t\n      DUP3 \t\t\t\n      DUP5 \t\t\t\n      CALLDATACOPY \t\t\t\n      PUSH 0\t\t\t\n      SWAP3 \t\t\t\n      ADD \t\t\t\n      SWAP2 \t\t\t\n      SWAP1 \t\t\t\n      SWAP2 \t\t\t\n      MSTORE \t\t\t\n      POP \t\t\t\n      DUP12 \t\t\t\n      SWAP3 \t\t\t\n      POP \t\t\t\n      PUSH [tag] 429\t\t\t\n      SWAP2 \t\t\t\n      POP \t\t\t\n      POP \t\t\t\n      JUMP \t\t\t\n    tag 428\t\t\t\n      JUMPDEST \t\t\t\n      SWAP10 \t\t\t\n      SWAP9 \t\t\t\n      POP \t\t\t\n      POP \t\t\t\n      POP \t\t\t\n      POP \t\t\t\n      POP \t\t\t\n      POP \t\t\t\n      POP \t\t\t\n      POP \t\t\t\n      POP \t\t\t\n      JUMP \t\t\t\n    tag 169\t\t\t\n      JUMPDEST \t\t\t\n      PUSH 0\t\t\t\n      DUP1 \t\t\t\n      CALLER \t\t\t   constru\n      SWAP1 \t\t\t\n      POP \t\t\t\n      PUSH [tag] 432\t\t\t\n      DUP8 \t\t\t\n      DUP3 \t\t\t\n      DUP9 \t\t\t\n      DUP9 \t\t\t\n      DUP9 \t\t\t\n      DUP1 \t\t\t\n      DUP1 \t\t\t\n      PUSH 1F\t\t\t\n      ADD \t\t\t\n      PUSH 20\t\t\t\n      DUP1 \t\t\t\n      SWAP2 \t\t\t\n      DIV \t\t\t\n      MUL \t\t\t\n      PUSH 20\t\t\t\n      ADD \t\t\t\n      PUSH 40\t\t\t\n      MLOAD \t\t\t\n      SWAP1 \t\t\t\n      DUP2 \t\t\t\n      ADD \t\t\t\n      PUSH 40\t\t\t\n      MSTORE \t\t\t\n      DUP1 \t\t\t\n      SWAP4 \t\t\t\n      SWAP3 \t\t\t\n      SWAP2 \t\t\t\n      SWAP1 \t\t\t\n      DUP2 \t\t\t\n      DUP2 \t\t\t\n      MSTORE \t\t\t\n      PUSH 20\t\t\t\n      ADD \t\t\t\n      DUP4 \t\t\t\n      DUP4 \t\t\t\n      DUP1 \t\t\t\n      DUP3 \t\t\t\n      DUP5 \t\t\t\n      CALLDATACOPY \t\t\t\n      PUSH 0\t\t\t\n      SWAP3 \t\t\t\n      ADD \t\t\t\n      SWAP2 \t\t\t\n      SWAP1 \t\t\t\n      SWAP2 \t\t\t\n      MSTORE \t\t\t\n      POP \t\t\t\n      DUP11 \t\t\t\n      SWAP3 \t\t\t\n      POP \t\t\t\n      PUSH [tag] 429\t\t\t\n      SWAP2 \t\t\t\n      POP \t\t\t\n      POP \t\t\t\n      JUMP \t\t\t\n    tag 432\t\t\t\n      JUMPDEST \t\t\t\n      SWAP8 \t\t\t\n      SWAP7 \t\t\t\n      POP \t\t\t\n      POP \t\t\t\n      POP \t\t\t\n      POP \t\t\t\n      POP \t\t\t\n      POP \t\t\t\n      POP \t\t\t\n      JUMP \t\t\t\n    tag 174\t\t\t.quorum(blockNumber);\\n    }\\n...\n      JUMPDEST \t\t\t.quorum(blockNumber);\\n    }\\n...\n      PUSH A\t\t\tide(Governor, GovernorT\n      DUP1 \t\t\tide(Governor, GovernorTimelock...\n      SLOAD \t\t\tide(Governor, GovernorTimelock...\n      PUSH 0\t\t\t   publ\n      SWAP2 \t\t\t   publ\n      DUP3 \t\t\t   publ\n      SWAP1 \t\t\t   publ\n      PUSH [tag] 434\t\t\t\\n        v\n      PUSH 1\t\t\tv\n      DUP5 \t\t\tide(Governor, GovernorTimelock...\n      PUSH [tag] 435\t\t\t\\n        v\n      JUMP \t\t\t\\n        v\n    tag 434\t\t\t\\n        v\n      JUMPDEST \t\t\t\\n        v\n      DUP2 \t\t\tng(uint256 proposalId)\\n      ...\n      SLOAD \t\t\tng(uint256 proposalId)\\n      ...\n      DUP2 \t\t\tng(uint256 proposalId)\\n      ...\n      LT \t\t\tng(uint256 proposalId)\\n      ...\n      PUSH [tag] 437\t\t\tng(uint256 proposalId)\\n      ...\n      JUMPI \t\t\tng(uint256 proposalId)\\n      ...\n      PUSH [tag] 437\t\t\tng(uint256 proposalId)\\n      ...\n      PUSH [tag] 363\t\t\tng(uint256 proposalId)\\n      ...\n      JUMP \t\t\tng(uint256 proposalId)\\n      ...\n    tag 437\t\t\tng(uint256 proposalId)\\n      ...\n      JUMPDEST \t\t\tng(uint256 proposalId)\\n      ...\n      PUSH 0\t\t\tng(uint256 proposalId)\\n      ...\n      SWAP2 \t\t\tng(uint256 proposalId)\\n      ...\n      DUP3 \t\t\tng(uint256 proposalId)\\n      ...\n      MSTORE \t\t\tng(uint256 proposalId)\\n      ...\n      PUSH 20\t\t\tng(uint256 proposalId)\\n      ...\n      SWAP1 \t\t\tng(uint256 proposalId)\\n      ...\n      SWAP2 \t\t\tng(uint256 proposalId)\\n      ...\n      KECCAK256 \t\t\tng(uint256 proposalId)\\n      ...\n      ADD \t\t\tng(uint256 proposalId)\\n      ...\n      DUP1 \t\t\t GovernorTi\n      SLOAD \t\t\t GovernorTi\n      SWAP1 \t\t\tng(uint256 proposalId)\\n      ...\n      SWAP2 \t\t\tng(uint256 proposalId)\\n      ...\n      POP \t\t\t\n      PUSH FFFFFFFFFFFF\t\t\t GovernorTi\n      DUP2 \t\t\t GovernorTi\n      AND \t\t\t GovernorTi\n      SWAP1 \t\t\t GovernorTi\n      PUSH 1\t\t\t\n      PUSH 30\t\t\t\n      SHL \t\t\t\n      SWAP1 \t\t\tbool)\\n    {\\n \n      DIV \t\t\tbool)\\n    {\\n \n      PUSH 1\t\t\t\n      PUSH 1\t\t\t\n      PUSH D0\t\t\t\n      SHL \t\t\t\n      SUB \t\t\t\n      AND \t\t\tbool)\\n    {\\n \n      DUP6 \t\t\tsuper.proposalNeedsQue\n      DUP3 \t\t\tsuper.proposalNeedsQue\n      GT \t\t\tsuper.proposalNeedsQue\n      PUSH [tag] 439\t\t\turn super.proposalNeedsQueuing...\n      JUMPI \t\t\turn super.proposalNeedsQueuing...\n      PUSH 1\t\t\t\n      PUSH 1\t\t\t\n      PUSH D0\t\t\t\n      SHL \t\t\t\n      SUB \t\t\t\n      AND \t\t\t;\\n    }\\n\\n    funct\n      SWAP6 \t\t\t;\\n    }\\n\\n    funct\n      SWAP5 \t\t\t.quorum(blockNumber);\\n    }\\n...\n      POP \t\t\t\n      POP \t\t\t\n      POP \t\t\t\n      POP \t\t\t\n      POP \t\t\t\n      JUMP \t\t\t.quorum(blockNumber);\\n    }\\n...\n    tag 439\t\t\turn super.proposalNeedsQueuing...\n      JUMPDEST \t\t\turn super.proposalNeedsQueuing...\n      PUSH [tag] 440\t\t\tvernor, GovernorSettings)\\n   ...\n      PUSH [tag] 441\t\t\t(uint256)\\n    {\\n        retu\n      DUP8 \t\t\t      ret\n      PUSH [tag] 442\t\t\t(uint256)\\n    {\\n \n      JUMP \t\t\t(uint256)\\n    {\\n        retu\n    tag 441\t\t\t(uint256)\\n    {\\n        retu\n      JUMPDEST \t\t\t(uint256)\\n    {\\n        retu\n      PUSH A\t\t\tvernor, GovernorSetting\n      SWAP1 \t\t\tvernor, GovernorSetting\n      PUSH [tag] 443\t\t\tvernor, GovernorSettings)\\n   ...\n      JUMP \t\t\tvernor, GovernorSettings)\\n   ...\n    tag 440\t\t\tvernor, GovernorSettings)\\n   ...\n      JUMPDEST \t\t\tvernor, GovernorSettings)\\n   ...\n      PUSH 1\t\t\t\n      PUSH 1\t\t\t\n      PUSH D0\t\t\t\n      SHL \t\t\t\n      SUB \t\t\t\n      AND \t\t\tride(Governor, GovernorSetting...\n      SWAP7 \t\t\tride(Governor, GovernorSetting...\n      SWAP6 \t\t\t.quorum(blockNumber);\\n    }\\n...\n      POP \t\t\t\n      POP \t\t\t\n      POP \t\t\t\n      POP \t\t\t\n      POP \t\t\t\n      POP \t\t\t\n      JUMP \t\t\t.quorum(blockNumber);\\n    }\\n...\n    tag 180\t\t\t   override(Governor, Governor...\n      JUMPDEST \t\t\t   override(Governor, Governor...\n      PUSH [tag] 445\t\t\temory calldatas,\\n \n      PUSH [tag] 324\t\t\temory calldatas,\n      JUMP \t\t\temory calldatas,\\n \n    tag 445\t\t\temory calldatas,\\n \n      JUMPDEST \t\t\temory calldatas,\\n \n      PUSH [tag] 326\t\t\t      return super.state(propo...\n      DUP2 \t\t\ter.state(propo\n      PUSH [tag] 448\t\t\t      return su\n      JUMP \t\t\t      return super.state(propo...\n    tag 185\t\t\t\n      JUMPDEST \t\t\t\n      PUSH 0\t\t\t\n      DUP1 \t\t\t\n      CALLER \t\t\t   constru\n      SWAP1 \t\t\t\n      POP \t\t\t\n      PUSH [tag] 397\t\t\t\n      DUP7 \t\t\t\n      DUP3 \t\t\t\n      DUP8 \t\t\t\n      DUP8 \t\t\t\n      DUP8 \t\t\t\n      DUP1 \t\t\t\n      DUP1 \t\t\t\n      PUSH 1F\t\t\t\n      ADD \t\t\t\n      PUSH 20\t\t\t\n      DUP1 \t\t\t\n      SWAP2 \t\t\t\n      DIV \t\t\t\n      MUL \t\t\t\n      PUSH 20\t\t\t\n      ADD \t\t\t\n      PUSH 40\t\t\t\n      MLOAD \t\t\t\n      SWAP1 \t\t\t\n      DUP2 \t\t\t\n      ADD \t\t\t\n      PUSH 40\t\t\t\n      MSTORE \t\t\t\n      DUP1 \t\t\t\n      SWAP4 \t\t\t\n      SWAP3 \t\t\t\n      SWAP2 \t\t\t\n      SWAP1 \t\t\t\n      DUP2 \t\t\t\n      DUP2 \t\t\t\n      MSTORE \t\t\t\n      PUSH 20\t\t\t\n      ADD \t\t\t\n      DUP4 \t\t\t\n      DUP4 \t\t\t\n      DUP1 \t\t\t\n      DUP3 \t\t\t\n      DUP5 \t\t\t\n      CALLDATACOPY \t\t\t\n      PUSH 0\t\t\t\n      SWAP3 \t\t\t\n      ADD \t\t\t\n      SWAP2 \t\t\t\n      SWAP1 \t\t\t\n      SWAP2 \t\t\t\n      MSTORE \t\t\t\n      POP \t\t\t\n      PUSH [tag] 414\t\t\t\n      SWAP3 \t\t\t\n      POP \t\t\t\n      POP \t\t\t\n      POP \t\t\t\n      JUMP \t\t\t\n    tag 191\t\t\t\n      JUMPDEST \t\t\t\n      PUSH 0\t\t\t\n      CALLER \t\t\t   constru\n      PUSH [tag] 454\t\t\t\n      DUP2 \t\t\t   constru\n      DUP5 \t\t\t\n      PUSH [tag] 455\t\t\t\n      JUMP \t\t\t\n    tag 454\t\t\t\n      JUMPDEST \t\t\t\n      PUSH [tag] 456\t\t\t\n      JUMPI \t\t\t\n      PUSH 40\t\t\t\n      MLOAD \t\t\t\n      PUSH D9B39557\t\t\t\n      PUSH E0\t\t\t\n      SHL \t\t\t\n      DUP2 \t\t\t\n      MSTORE \t\t\t\n      PUSH 1\t\t\t\n      PUSH 1\t\t\t\n      PUSH A0\t\t\t\n      SHL \t\t\t\n      SUB \t\t\t\n      DUP3 \t\t\te(uint256 proposalId)\\n       ...\n      AND \t\t\te(uint256 proposalId)\\n       ...\n      PUSH 4\t\t\t\n      DUP3 \t\t\t\n      ADD \t\t\t\n      MSTORE \t\t\t\\n    function state(uint256 p...\n      PUSH 24\t\t\tquorum(blockNumber\n      ADD \t\t\tquorum(blockNumber\n      PUSH [tag] 396\t\t\t\n      JUMP \t\t\t     view\\n        override(Go...\n    tag 456\t\t\t\n      JUMPDEST \t\t\t\n      PUSH 0\t\t\t\n      PUSH [tag] 458\t\t\t\n      DUP3 \t\t\t\n      PUSH 1\t\t\t\n      PUSH [tag] 459\t\t\t\n      PUSH [tag] 212\t\t\t\n      JUMP \t\t\t\n    tag 459\t\t\t\n      JUMPDEST \t\t\t\n      PUSH [tag] 460\t\t\t\n      SWAP2 \t\t\t\n      SWAP1 \t\t\t\n      PUSH [tag] 461\t\t\t\n      JUMP \t\t\t\n    tag 460\t\t\t\n      JUMPDEST \t\t\t\n      PUSH FFFFFFFFFFFF\t\t\t\n      AND \t\t\t\n      PUSH [tag] 289\t\t\t\n      JUMP \t\t\t\n    tag 458\t\t\t\n      JUMPDEST \t\t\t\n      SWAP1 \t\t\t\n      POP \t\t\t\n      PUSH 0\t\t\t\n      PUSH [tag] 462\t\t\t\n      PUSH [tag] 246\t\t\t\n      JUMP \t\t\t\n    tag 462\t\t\t\n      JUMPDEST \t\t\t\n      SWAP1 \t\t\t\n      POP \t\t\t\n      DUP1 \t\t\t\n      DUP3 \t\t\t\n      LT \t\t\t\n      ISZERO \t\t\t\n      PUSH [tag] 463\t\t\t\n      JUMPI \t\t\t\n      PUSH 40\t\t\t\n      MLOAD \t\t\t\n      PUSH 6121770B\t\t\t\n      PUSH E1\t\t\t\n      SHL \t\t\t\n      DUP2 \t\t\t\n      MSTORE \t\t\t\n      PUSH 1\t\t\t\n      PUSH 1\t\t\t\n      PUSH A0\t\t\t\n      SHL \t\t\t\n      SUB \t\t\t\n      DUP5 \t\t\t\n      AND \t\t\t\n      PUSH 4\t\t\t\n      DUP3 \t\t\t\n      ADD \t\t\t\n      MSTORE \t\t\t\n      PUSH 24\t\t\t\n      DUP2 \t\t\t\n      ADD \t\t\t\n      DUP4 \t\t\t\n      SWAP1 \t\t\t\n      MSTORE \t\t\t\n      PUSH 44\t\t\t\n      DUP2 \t\t\t\n      ADD \t\t\t\n      DUP3 \t\t\t\n      SWAP1 \t\t\t\n      MSTORE \t\t\t\n      PUSH 64\t\t\t\n      ADD \t\t\t\n      PUSH [tag] 396\t\t\t\n      JUMP \t\t\t\n    tag 463\t\t\t\n      JUMPDEST \t\t\t\n      PUSH [tag] 466\t\t\t\n      DUP9 \t\t\t\n      DUP9 \t\t\t\n      DUP9 \t\t\t\n      DUP9 \t\t\t\n      DUP8 \t\t\t\n      PUSH [tag] 467\t\t\t\n      JUMP \t\t\t\n    tag 466\t\t\t\n      JUMPDEST \t\t\t\n      SWAP9 \t\t\t\n      SWAP8 \t\t\t\n      POP \t\t\t\n      POP \t\t\t\n      POP \t\t\t\n      POP \t\t\t\n      POP \t\t\t\n      POP \t\t\t\n      POP \t\t\t\n      POP \t\t\t\n      JUMP \t\t\t\n    tag 201\t\t\t\n      JUMPDEST \t\t\t\n      PUSH 0\t\t\t\n      PUSH 60\t\t\t\n      DUP1 \t\t\t\n      PUSH 0\t\t\t\n      DUP1 \t\t\t\n      PUSH 0\t\t\t\n      PUSH 60\t\t\t\n      PUSH [tag] 470\t\t\t\n      PUSH [tag] 471\t\t\t\n      JUMP \t\t\t\n    tag 470\t\t\t\n      JUMPDEST \t\t\t\n      PUSH [tag] 472\t\t\t\n      PUSH [tag] 473\t\t\t\n      JUMP \t\t\t\n    tag 472\t\t\t\n      JUMPDEST \t\t\t\n      PUSH 40\t\t\t\n      DUP1 \t\t\t\n      MLOAD \t\t\t\n      PUSH 0\t\t\t\n      DUP1 \t\t\t\n      DUP3 \t\t\t\n      MSTORE \t\t\t\n      PUSH 20\t\t\t\n      DUP3 \t\t\t\n      ADD \t\t\t\n      SWAP1 \t\t\t\n      SWAP3 \t\t\t\n      MSTORE \t\t\t\n      PUSH F\t\t\t\n      PUSH F8\t\t\t\n      SHL \t\t\t\n      SWAP12 \t\t\t\n      SWAP4 \t\t\t\n      SWAP11 \t\t\t\n      POP \t\t\t\n      SWAP2 \t\t\t\n      SWAP9 \t\t\t\n      POP \t\t\t\n      CHAINID \t\t\t\n      SWAP8 \t\t\t\n      POP \t\t\t\n      ADDRESS \t\t\t\n      SWAP7 \t\t\t\n      POP \t\t\t\n      SWAP5 \t\t\t\n      POP \t\t\t\n      SWAP3 \t\t\t\n      POP \t\t\t\n      SWAP1 \t\t\t\n      POP \t\t\t\n      JUMP \t\t\t\n    tag 208\t\t\t\n      JUMPDEST \t\t\t\n      PUSH 0\t\t\t\n      DUP1 \t\t\t\n      PUSH [tag] 479\t\t\t\n      DUP5 \t\t\t\n      PUSH [tag] 417\t\t\t\n      PUSH F2AAD550CF55F045CB27E9C559F9889FDFB6E6CDAA032301D6EA397784AE51D7\t\t\tic\\n        view\\n        over...\n      DUP10 \t\t\t\n      DUP10 \t\t\t\n      DUP10 \t\t\t\n      PUSH [tag] 481\t\t\t\n      DUP12 \t\t\t\n      PUSH 1\t\t\t\n      PUSH 1\t\t\t\n      PUSH A0\t\t\t\n      SHL \t\t\t\n      SUB \t\t\t\n      AND \t\t\t(_timelock)\\n  \n      PUSH 0\t\t\t uint48\n      SWAP1 \t\t\t(_timelock)\\n  \n      DUP2 \t\t\t(_timelock)\\n  \n      MSTORE \t\t\t(_timelock)\\n  \n      PUSH 2\t\t\t(_timel\n      PUSH 20\t\t\t(_timelock)\\n  \n      MSTORE \t\t\t(_timelock)\\n  \n      PUSH 40\t\t\t(_timelock)\\n  \n      SWAP1 \t\t\t(_timelock)\\n  \n      KECCAK256 \t\t\t(_timelock)\\n  \n      DUP1 \t\t\t(_timelock)\\n    \n      SLOAD \t\t\t(_timelock)\\n    \n      PUSH 1\t\t\t(_timelock)\\n    \n      DUP2 \t\t\t(_timelock)\\n    \n      ADD \t\t\t(_timelock)\\n    \n      SWAP1 \t\t\t(_timelock)\\n    \n      SWAP2 \t\t\t(_timelock)\\n    \n      SSTORE \t\t\t(_timelock)\\n    \n      SWAP1 \t\t\t(_timelock)\\n    \n      JUMP \t\t\tIVotes _token,\\n        Timelo...\n    tag 481\t\t\t\n      JUMPDEST \t\t\t\n      PUSH 40\t\t\t\n      DUP1 \t\t\t\n      MLOAD \t\t\t\n      PUSH 20\t\t\t\n      DUP2 \t\t\t\n      ADD \t\t\t\n      SWAP7 \t\t\t\n      SWAP1 \t\t\t\n      SWAP7 \t\t\t\n      MSTORE \t\t\t\n      DUP6 \t\t\t\n      ADD \t\t\t\n      SWAP4 \t\t\t\n      SWAP1 \t\t\t\n      SWAP4 \t\t\t\n      MSTORE \t\t\t\n      PUSH FF\t\t\t\n      SWAP1 \t\t\t\n      SWAP2 \t\t\t\n      AND \t\t\t\n      PUSH 60\t\t\t\n      DUP5 \t\t\t\n      ADD \t\t\t\n      MSTORE \t\t\t\n      PUSH 1\t\t\t\n      PUSH 1\t\t\t\n      PUSH A0\t\t\t\n      SHL \t\t\t\n      SUB \t\t\t\n      AND \t\t\t\n      PUSH 80\t\t\t\n      DUP4 \t\t\t\n      ADD \t\t\t\n      MSTORE \t\t\t\n      PUSH A0\t\t\t\n      DUP3 \t\t\t\n      ADD \t\t\t\n      MSTORE \t\t\t\n      PUSH C0\t\t\t\n      ADD \t\t\t\n      PUSH [tag] 422\t\t\t\n      JUMP \t\t\t\n    tag 479\t\t\t\n      JUMPDEST \t\t\t\n      SWAP1 \t\t\t\n      POP \t\t\t\n      DUP1 \t\t\t\n      PUSH [tag] 484\t\t\t\n      JUMPI \t\t\t\n      PUSH 40\t\t\t\n      MLOAD \t\t\t\n      PUSH 94AB6C07\t\t\t\n      PUSH E0\t\t\t\n      SHL \t\t\t\n      DUP2 \t\t\t\n      MSTORE \t\t\t\n      PUSH 1\t\t\t\n      PUSH 1\t\t\t\n      PUSH A0\t\t\t\n      SHL \t\t\t\n      SUB \t\t\t\n      DUP6 \t\t\te(uint256 proposalId)\\n       ...\n      AND \t\t\te(uint256 proposalId)\\n       ...\n      PUSH 4\t\t\t\n      DUP3 \t\t\t\n      ADD \t\t\t\n      MSTORE \t\t\t\\n    function state(uint256 p...\n      PUSH 24\t\t\tquorum(blockNumber\n      ADD \t\t\tquorum(blockNumber\n      PUSH [tag] 396\t\t\t\n      JUMP \t\t\t     view\\n        override(Go...\n    tag 484\t\t\t\n      JUMPDEST \t\t\t\n      PUSH [tag] 397\t\t\t\n      DUP7 \t\t\t\n      DUP6 \t\t\t\n      DUP8 \t\t\t\n      PUSH 40\t\t\t\n      MLOAD \t\t\t\n      DUP1 \t\t\t\n      PUSH 20\t\t\t\n      ADD \t\t\t\n      PUSH 40\t\t\t\n      MSTORE \t\t\t\n      DUP1 \t\t\t\n      PUSH 0\t\t\t\n      DUP2 \t\t\t\n      MSTORE \t\t\t\n      POP \t\t\t\n      PUSH [tag] 414\t\t\t\n      JUMP \t\t\t\n    tag 212\t\t\tuorumFraction(_quorumPercentag...\n      JUMPDEST \t\t\tuorumFraction(_quorumPercentag...\n      PUSH 0\t\t\tckCont\n      PUSHIMMUTABLE 4433\t\t\tod,\\n  \n      PUSH 1\t\t\t\n      PUSH 1\t\t\t\n      PUSH A0\t\t\t\n      SHL \t\t\t\n      SUB \t\t\t\n      AND \t\t\t   {}\\n\\n    //\n      PUSH 91DDADF4\t\t\t   {}\\n\\n    //\n      PUSH 40\t\t\t   {}\\n\\n    // T\n      MLOAD \t\t\t   {}\\n\\n    // T\n      DUP2 \t\t\t   {}\\n\\n    // T\n      PUSH FFFFFFFF\t\t\t   {}\\n\\n    // T\n      AND \t\t\t   {}\\n\\n    // T\n      PUSH E0\t\t\t   {}\\n\\n    // T\n      SHL \t\t\t   {}\\n\\n    // T\n      DUP2 \t\t\t   {}\\n\\n    // T\n      MSTORE \t\t\t   {}\\n\\n    // T\n      PUSH 4\t\t\t   {}\\n\\n    // T\n      ADD \t\t\t   {}\\n\\n    // T\n      PUSH 20\t\t\t   {}\\n\\n    // T\n      PUSH 40\t\t\t   {}\\n\\n    // T\n      MLOAD \t\t\t   {}\\n\\n    // T\n      DUP1 \t\t\t   {}\\n\\n    // T\n      DUP4 \t\t\t   {}\\n\\n    // T\n      SUB \t\t\t   {}\\n\\n    // T\n      DUP2 \t\t\t   {}\\n\\n    // T\n      DUP7 \t\t\t   {}\\n\\n    // T\n      GAS \t\t\t   {}\\n\\n    // T\n      STATICCALL \t\t\t   {}\\n\\n    // T\n      SWAP3 \t\t\t   {}\\n\\n    // T\n      POP \t\t\t   {}\\n\\n    // T\n      POP \t\t\t   {}\\n\\n    // T\n      POP \t\t\t   {}\\n\\n    // T\n      DUP1 \t\t\t   {}\\n\\n    // T\n      ISZERO \t\t\t   {}\\n\\n    // T\n      PUSH [tag] 489\t\t\t   {}\\n\\n    // T\n      JUMPI \t\t\t   {}\\n\\n    // T\n      POP \t\t\t\n      PUSH 40\t\t\t   {}\\n\\n    // T\n      DUP1 \t\t\t   {}\\n\\n    // T\n      MLOAD \t\t\t   {}\\n\\n    // T\n      PUSH 1F\t\t\t   {}\\n\\n    // T\n      RETURNDATASIZE \t\t\t   {}\\n\\n    // T\n      SWAP1 \t\t\t   {}\\n\\n    // T\n      DUP2 \t\t\t   {}\\n\\n    // T\n      ADD \t\t\t   {}\\n\\n    // T\n      PUSH 1F\t\t\t\n      NOT \t\t\t\n      AND \t\t\t   {}\\n\\n    // T\n      DUP3 \t\t\t   {}\\n\\n    // T\n      ADD \t\t\t   {}\\n\\n    // T\n      SWAP1 \t\t\t   {}\\n\\n    // T\n      SWAP3 \t\t\t   {}\\n\\n    // T\n      MSTORE \t\t\t   {}\\n\\n    // T\n      PUSH [tag] 490\t\t\t   {}\\n\\n    // T\n      SWAP2 \t\t\t   {}\\n\\n    // T\n      DUP2 \t\t\t   {}\\n\\n    // T\n      ADD \t\t\t   {}\\n\\n    // T\n      SWAP1 \t\t\t   {}\\n\\n    // T\n      PUSH [tag] 491\t\t\t   {}\\n\\n    // T\n      JUMP \t\t\t   {}\\n\\n    // T\n    tag 490\t\t\t   {}\\n\\n    // T\n      JUMPDEST \t\t\t   {}\\n\\n    // T\n      PUSH 1\t\t\t   {}\\n\\n    // T\n    tag 489\t\t\t   {}\\n\\n    // T\n      JUMPDEST \t\t\t   {}\\n\\n    // T\n      PUSH [tag] 404\t\t\tk)\\n    {}\\n\\n    // The follo...\n      JUMPI \t\t\tk)\\n    {}\\n\\n    // The follo...\n      PUSH [tag] 312\t\t\tblic\\n        view\\n\n      PUSH [tag] 497\t\t\tblic\\n        vie\n      JUMP \t\t\tblic\\n        view\\n\n    tag 223\t\t\t\n      JUMPDEST \t\t\t\n      PUSH 0\t\t\t\n      PUSH [tag] 413\t\t\t\n      DUP5 \t\t\t\n      DUP5 \t\t\t\n      DUP5 \t\t\t\n      PUSH [tag] 502\t\t\t\n      JUMP \t\t\t\n    tag 227\t\t\tnt256)\\n    {\\n        return ...\n      JUMPDEST \t\t\tnt256)\\n    {\\n        return ...\n      PUSH 0\t\t\t\\n    fu\n      PUSH [tag] 504\t\t\t56 blockNumber)\\n        publi...\n      PUSH A\t\t\t56 blockNumber)\\n       \n      PUSH [tag] 505\t\t\t56 blockNumber)\\n        publi...\n      JUMP \t\t\t56 blockNumber)\\n        publi...\n    tag 504\t\t\t56 blockNumber)\\n        publi...\n      JUMPDEST \t\t\t56 blockNumber)\\n        publi...\n      PUSH 1\t\t\t\n      PUSH 1\t\t\t\n      PUSH D0\t\t\t\n      SHL \t\t\t\n      SUB \t\t\t\n      AND \t\t\tm(uint256 blockNumber)\\n      ...\n      SWAP1 \t\t\tm(uint256 blockNumber)\\n      ...\n      POP \t\t\tm(uint256 blockNumber)\\n      ...\n      SWAP1 \t\t\tnt256)\\n    {\\n        return ...\n      JUMP \t\t\tnt256)\\n    {\\n        return ...\n    tag 233\t\t\t\n      JUMPDEST \t\t\t\n      PUSH [tag] 507\t\t\temory calldatas,\\n \n      PUSH [tag] 324\t\t\temory calldatas,\n      JUMP \t\t\temory calldatas,\\n \n    tag 507\t\t\temory calldatas,\\n \n      JUMPDEST \t\t\temory calldatas,\\n \n      PUSH [tag] 326\t\t\t\n      DUP2 \t\t\t\n      PUSH [tag] 510\t\t\t\n      JUMP \t\t\t\n    tag 237\t\t\tfunction proposalNeedsQueuing(...\n      JUMPDEST \t\t\tfunction proposalNeedsQueuing(...\n      PUSH 0\t\t\tbool\n      PUSH 1\t\t\tmemo\n      PUSH [tag] 317\t\t\tsuper.proposalNeedsQueuing(pro...\n      JUMP \t\t\tunction _cancel(\\n        addr...\n    tag 246\t\t\tfunction proposalThreshold()\\n...\n      JUMPDEST \t\t\tfunction proposalThreshold()\\n...\n      PUSH 0\t\t\tuint256\n      PUSH [tag] 312\t\t\tsuper.proposalThreshold()\n      PUSH 7\t\t\trride(Governor, Go\n      SLOAD \t\t\trride(Governor, Go\n      SWAP1 \t\t\trride(Governor, Go\n      JUMP \t\t\tod();\\n    }\\n\\n    function q...\n    tag 252\t\t\t\n      JUMPDEST \t\t\t\n      PUSH 0\t\t\t\n      ADDRESS \t\t\t\n      PUSH [tag] 519\t\t\t\n      PUSH [tag] 61\t\t\t\n      JUMP \t\t\t\n    tag 519\t\t\t\n      JUMPDEST \t\t\t\n      PUSH 1\t\t\t\n      PUSH 1\t\t\t\n      PUSH A0\t\t\t\n      SHL \t\t\t\n      SUB \t\t\t\n      AND \t\t\t\n      EQ \t\t\t\n      PUSH [tag] 520\t\t\t\n      JUMPI \t\t\t\n      PUSH 40\t\t\t\n      MLOAD \t\t\t\n      PUSH 7485328F\t\t\t\n      PUSH E1\t\t\t\n      SHL \t\t\t\n      DUP2 \t\t\t\n      MSTORE \t\t\t\n      PUSH 4\t\t\t\n      ADD \t\t\t\n      PUSH 40\t\t\t\n      MLOAD \t\t\t\n      DUP1 \t\t\t\n      SWAP2 \t\t\t\n      SUB \t\t\t\n      SWAP1 \t\t\t\n      REVERT \t\t\t\n    tag 520\t\t\t\n      JUMPDEST \t\t\t\n      POP \t\t\t\n      PUSH BC197C81\t\t\t\n      PUSH E0\t\t\t\n      SHL \t\t\t\n      SWAP6 \t\t\t\n      SWAP5 \t\t\t\n      POP \t\t\t\n      POP \t\t\t\n      POP \t\t\t\n      POP \t\t\t\n      POP \t\t\t\n      JUMP \t\t\t\n    tag 257\t\t\t\n      JUMPDEST \t\t\t\n      PUSH 0\t\t\t\n      DUP2 \t\t\t\n      DUP2 \t\t\t\n      MSTORE \t\t\t\n      PUSH 4\t\t\t\n      PUSH 20\t\t\t\n      MSTORE \t\t\t\n      PUSH 40\t\t\t\n      DUP2 \t\t\t\n      KECCAK256 \t\t\t\n      SLOAD \t\t\t\n      PUSH [tag] 522\t\t\t\n      SWAP1 \t\t\t\n      PUSH 1\t\t\t\n      PUSH D0\t\t\t\n      SHL \t\t\t\n      DUP2 \t\t\t\n      DIV \t\t\t\n      PUSH FFFFFFFF\t\t\t\n      AND \t\t\t\n      SWAP1 \t\t\t\n      PUSH 1\t\t\t\n      PUSH A0\t\t\t\n      SHL \t\t\t\n      SWAP1 \t\t\t\n      DIV \t\t\t\n      PUSH FFFFFFFFFFFF\t\t\t\n      AND \t\t\t\n      PUSH [tag] 523\t\t\t\n      JUMP \t\t\t\n    tag 522\t\t\t\n      JUMPDEST \t\t\t\n      PUSH FFFFFFFFFFFF\t\t\t\n      AND \t\t\t\n      SWAP3 \t\t\t\n      SWAP2 \t\t\t\n      POP \t\t\t\n      POP \t\t\t\n      JUMP \t\t\t\n    tag 262\t\t\t\n      JUMPDEST \t\t\t\n      PUSH [tag] 525\t\t\temory calldatas,\\n \n      PUSH [tag] 324\t\t\temory calldatas,\n      JUMP \t\t\temory calldatas,\\n \n    tag 525\t\t\temory calldatas,\\n \n      JUMPDEST \t\t\temory calldatas,\\n \n      PUSH 0\t\t\t\n      DUP1 \t\t\t\n      DUP6 \t\t\t\n      PUSH 1\t\t\t\n      PUSH 1\t\t\t\n      PUSH A0\t\t\t\n      SHL \t\t\t\n      SUB \t\t\t\n      AND \t\t\t\n      DUP6 \t\t\t\n      DUP6 \t\t\t\n      DUP6 \t\t\t\n      PUSH 40\t\t\t\n      MLOAD \t\t\t\n      PUSH [tag] 527\t\t\t\n      SWAP3 \t\t\t\n      SWAP2 \t\t\t\n      SWAP1 \t\t\t\n      PUSH [tag] 421\t\t\t\n      JUMP \t\t\t\n    tag 527\t\t\t\n      JUMPDEST \t\t\t\n      PUSH 0\t\t\t\n      PUSH 40\t\t\t\n      MLOAD \t\t\t\n      DUP1 \t\t\t\n      DUP4 \t\t\t\n      SUB \t\t\t\n      DUP2 \t\t\t\n      DUP6 \t\t\t\n      DUP8 \t\t\t\n      GAS \t\t\t\n      CALL \t\t\t\n      SWAP3 \t\t\t\n      POP \t\t\t\n      POP \t\t\t\n      POP \t\t\t\n      RETURNDATASIZE \t\t\t\n      DUP1 \t\t\t\n      PUSH 0\t\t\t\n      DUP2 \t\t\t\n      EQ \t\t\t\n      PUSH [tag] 530\t\t\t\n      JUMPI \t\t\t\n      PUSH 40\t\t\t\n      MLOAD \t\t\t\n      SWAP2 \t\t\t\n      POP \t\t\t\n      PUSH 1F\t\t\t\n      NOT \t\t\t\n      PUSH 3F\t\t\t\n      RETURNDATASIZE \t\t\t\n      ADD \t\t\t\n      AND \t\t\t\n      DUP3 \t\t\t\n      ADD \t\t\t\n      PUSH 40\t\t\t\n      MSTORE \t\t\t\n      RETURNDATASIZE \t\t\t\n      DUP3 \t\t\t\n      MSTORE \t\t\t\n      RETURNDATASIZE \t\t\t\n      PUSH 0\t\t\t\n      PUSH 20\t\t\t\n      DUP5 \t\t\t\n      ADD \t\t\t\n      RETURNDATACOPY \t\t\t\n      PUSH [tag] 529\t\t\t\n      JUMP \t\t\t\n    tag 530\t\t\t\n      JUMPDEST \t\t\t\n      PUSH 60\t\t\t\n      SWAP2 \t\t\t\n      POP \t\t\t\n    tag 529\t\t\t\n      JUMPDEST \t\t\t\n      POP \t\t\t\n      SWAP2 \t\t\t\n      POP \t\t\t\n      SWAP2 \t\t\t\n      POP \t\t\t\n      PUSH [tag] 531\t\t\t\n      DUP3 \t\t\t\n      DUP3 \t\t\t\n      PUSH [tag] 532\t\t\t\n      JUMP \t\t\t\n    tag 531\t\t\t\n      JUMPDEST \t\t\t\n      POP \t\t\t\n      POP \t\t\t\n      POP \t\t\t\n      POP \t\t\t\n      POP \t\t\t\n      POP \t\t\t\n      POP \t\t\t\n      JUMP \t\t\t\n    tag 266\t\t\t\n      JUMPDEST \t\t\t\n      PUSH 0\t\t\t\n      DUP5 \t\t\t\n      DUP5 \t\t\t\n      DUP5 \t\t\t\n      DUP5 \t\t\t\n      PUSH 40\t\t\t\n      MLOAD \t\t\t\n      PUSH 20\t\t\t\n      ADD \t\t\t\n      PUSH [tag] 534\t\t\t\n      SWAP5 \t\t\t\n      SWAP4 \t\t\t\n      SWAP3 \t\t\t\n      SWAP2 \t\t\t\n      SWAP1 \t\t\t\n      PUSH [tag] 535\t\t\t\n      JUMP \t\t\t\n    tag 534\t\t\t\n      JUMPDEST \t\t\t\n      PUSH 40\t\t\t\n      DUP1 \t\t\t\n      MLOAD \t\t\t\n      PUSH 1F\t\t\t\n      NOT \t\t\t\n      DUP2 \t\t\t\n      DUP5 \t\t\t\n      SUB \t\t\t\n      ADD \t\t\t\n      DUP2 \t\t\t\n      MSTORE \t\t\t\n      SWAP2 \t\t\t\n      SWAP1 \t\t\t\n      MSTORE \t\t\t\n      DUP1 \t\t\t\n      MLOAD \t\t\t\n      PUSH 20\t\t\t\n      SWAP1 \t\t\t\n      SWAP2 \t\t\t\n      ADD \t\t\t\n      KECCAK256 \t\t\t\n      SWAP6 \t\t\t\n      SWAP5 \t\t\t\n      POP \t\t\t\n      POP \t\t\t\n      POP \t\t\t\n      POP \t\t\t\n      POP \t\t\t\n      JUMP \t\t\t\n    tag 284\t\t\t   return super.proposalNeedsQ...\n      JUMPDEST \t\t\t   return super.proposalNeedsQ...\n      PUSH [tag] 539\t\t\temory calldatas,\\n \n      PUSH [tag] 324\t\t\temory calldatas,\n      JUMP \t\t\temory calldatas,\\n \n    tag 539\t\t\temory calldatas,\\n \n      JUMPDEST \t\t\temory calldatas,\\n \n      PUSH [tag] 326\t\t\t\\n        public\\n        view...\n      DUP2 \t\t\t       view\\n   \n      PUSH [tag] 542\t\t\t\\n        public\\n\n      JUMP \t\t\t\\n        public\\n        view...\n    tag 289\t\t\t\n      JUMPDEST \t\t\t\n      PUSH 0\t\t\t\n      PUSH [tag] 544\t\t\t\n      DUP4 \t\t\t\n      DUP4 \t\t\t\n      PUSH [tag] 545\t\t\t\n      PUSH 40\t\t\t\n      DUP1 \t\t\t\n      MLOAD \t\t\t\n      PUSH 20\t\t\t\n      DUP2 \t\t\t\n      ADD \t\t\t\n      SWAP1 \t\t\t\n      SWAP2 \t\t\t\n      MSTORE \t\t\t\n      PUSH 0\t\t\t\n      DUP2 \t\t\t\n      MSTORE \t\t\t\n      SWAP1 \t\t\t\n      JUMP \t\t\t\n    tag 545\t\t\t\n      JUMPDEST \t\t\t\n      PUSH [tag] 502\t\t\t\n      JUMP \t\t\t\n    tag 544\t\t\t\n      JUMPDEST \t\t\t\n      SWAP4 \t\t\t\n      SWAP3 \t\t\t\n      POP \t\t\t\n      POP \t\t\t\n      POP \t\t\t\n      JUMP \t\t\t\n    tag 294\t\t\tress[] memory targets,\\n      ...\n      JUMPDEST \t\t\tress[] memory targets,\\n      ...\n      PUSH [tag] 548\t\t\temory calldatas,\\n \n      PUSH [tag] 324\t\t\temory calldatas,\n      JUMP \t\t\temory calldatas,\\n \n    tag 548\t\t\temory calldatas,\\n \n      JUMPDEST \t\t\temory calldatas,\\n \n      PUSH [tag] 326\t\t\ttes32 descriptionHash\\n    ) i...\n      DUP2 \t\t\t    ) internal overr\n      PUSH [tag] 551\t\t\ttes32 descriptionHash\n      JUMP \t\t\ttes32 descriptionHash\\n    ) i...\n    tag 299\t\t\t\n      JUMPDEST \t\t\t\n      PUSH 0\t\t\t\n      ADDRESS \t\t\t\n      PUSH [tag] 553\t\t\t\n      PUSH [tag] 61\t\t\t\n      JUMP \t\t\t\n    tag 553\t\t\t\n      JUMPDEST \t\t\t\n      PUSH 1\t\t\t\n      PUSH 1\t\t\t\n      PUSH A0\t\t\t\n      SHL \t\t\t\n      SUB \t\t\t\n      AND \t\t\t\n      EQ \t\t\t\n      PUSH [tag] 554\t\t\t\n      JUMPI \t\t\t\n      PUSH 40\t\t\t\n      MLOAD \t\t\t\n      PUSH 7485328F\t\t\t\n      PUSH E1\t\t\t\n      SHL \t\t\t\n      DUP2 \t\t\t\n      MSTORE \t\t\t\n      PUSH 4\t\t\t\n      ADD \t\t\t\n      PUSH 40\t\t\t\n      MLOAD \t\t\t\n      DUP1 \t\t\t\n      SWAP2 \t\t\t\n      SUB \t\t\t\n      SWAP1 \t\t\t\n      REVERT \t\t\t\n    tag 554\t\t\t\n      JUMPDEST \t\t\t\n      POP \t\t\t\n      PUSH F23A6E61\t\t\t\n      PUSH E0\t\t\t\n      SHL \t\t\t\n      SWAP6 \t\t\t\n      SWAP5 \t\t\t\n      POP \t\t\t\n      POP \t\t\t\n      POP \t\t\t\n      POP \t\t\t\n      POP \t\t\t\n      JUMP \t\t\t\n    tag 304\t\t\tfunction quorum(uint256 blockN...\n      JUMPDEST \t\t\tfunction quorum(uint256 blockN...\n      PUSH 0\t\t\tuint256\n      PUSH [tag] 317\t\t\tsuper.quorum(blockNumber)\n      DUP3 \t\t\tblockNumber\n      PUSH [tag] 557\t\t\tsuper.quorum\n      JUMP \t\t\tsuper.quorum(blockNumber)\n    tag 324\t\t\t\n      JUMPDEST \t\t\t\n      CALLER \t\t\t   constru\n      PUSH [tag] 564\t\t\t\n      PUSH [tag] 61\t\t\t\n      JUMP \t\t\t\n    tag 564\t\t\t\n      JUMPDEST \t\t\t\n      PUSH 1\t\t\t\n      PUSH 1\t\t\t\n      PUSH A0\t\t\t\n      SHL \t\t\t\n      SUB \t\t\t\n      AND \t\t\t\n      EQ \t\t\t\n      PUSH [tag] 565\t\t\t\n      JUMPI \t\t\t\n      PUSH 40\t\t\t\n      MLOAD \t\t\t\n      PUSH 47096E47\t\t\t\n      PUSH E0\t\t\t\n      SHL \t\t\t\n      DUP2 \t\t\t\n      MSTORE \t\t\t\n      CALLER \t\t\t   constru\n      PUSH 4\t\t\t\n      DUP3 \t\t\t\n      ADD \t\t\t\n      MSTORE \t\t\t\\n    function state(uint256 p...\n      PUSH 24\t\t\tquorum(blockNumber\n      ADD \t\t\tquorum(blockNumber\n      PUSH [tag] 396\t\t\t\n      JUMP \t\t\t     view\\n        override(Go...\n    tag 565\t\t\t\n      JUMPDEST \t\t\t\n      ADDRESS \t\t\t\n      PUSH [tag] 568\t\t\t\n      PUSH [tag] 61\t\t\t\n      JUMP \t\t\t\n    tag 568\t\t\t\n      JUMPDEST \t\t\t\n      PUSH 1\t\t\t\n      PUSH 1\t\t\t\n      PUSH A0\t\t\t\n      SHL \t\t\t\n      SUB \t\t\t\n      AND \t\t\t\n      EQ \t\t\t\n      PUSH [tag] 569\t\t\t\n      JUMPI \t\t\t\n      PUSH 0\t\t\t\n      DUP1 \t\t\t\n      CALLDATASIZE \t\t\tk,\\n        uin\n      PUSH 40\t\t\t\n      MLOAD \t\t\t\n      PUSH [tag] 572\t\t\t\n      SWAP3 \t\t\t\n      SWAP2 \t\t\t\n      SWAP1 \t\t\t\n      PUSH [tag] 421\t\t\t\n      JUMP \t\t\t\n    tag 572\t\t\t\n      JUMPDEST \t\t\t\n      PUSH 40\t\t\t\n      MLOAD \t\t\t\n      DUP1 \t\t\t\n      SWAP2 \t\t\t\n      SUB \t\t\t\n      SWAP1 \t\t\t\n      KECCAK256 \t\t\t\n      SWAP1 \t\t\t\n      POP \t\t\t\n    tag 573\t\t\t\n      JUMPDEST \t\t\t\n      DUP1 \t\t\t\n      PUSH [tag] 575\t\t\t\n      PUSH 5\t\t\t\n      PUSH [tag] 576\t\t\t\n      JUMP \t\t\t\n    tag 575\t\t\t\n      JUMPDEST \t\t\t\n      SUB \t\t\t\n      PUSH [tag] 573\t\t\t\n      JUMPI \t\t\t\n      POP \t\t\t\n    tag 569\t\t\t\n      JUMPDEST \t\t\t\n      JUMP \t\t\t\n    tag 327\t\t\tn super._cancel(targets, value...\n      JUMPDEST \t\t\tn super._cancel(targets, value...\n      PUSH 64\t\t\t   \n      DUP1 \t\t\tovernor, GovernorTimelockContr...\n      DUP3 \t\t\tovernor, GovernorTimelockContr...\n      GT \t\t\tovernor, GovernorTimelockContr...\n      ISZERO \t\t\tde(Governor, GovernorTimelockC...\n      PUSH [tag] 579\t\t\tde(Governor, GovernorTimelockC...\n      JUMPI \t\t\tde(Governor, GovernorTimelockC...\n      PUSH 40\t\t\tess)\\n    {\\n        return su...\n      MLOAD \t\t\tess)\\n    {\\n        return su...\n      PUSH 243E5445\t\t\t\n      PUSH E0\t\t\t\n      SHL \t\t\t\n      DUP2 \t\t\tess)\\n    {\\n        return su...\n      MSTORE \t\t\tess)\\n    {\\n        return su...\n      PUSH 4\t\t\tess)\\n    {\\n        return su...\n      DUP2 \t\t\tess)\\n    {\\n        return su...\n      ADD \t\t\tess)\\n    {\\n        return su...\n      DUP4 \t\t\t\n      SWAP1 \t\t\t\n      MSTORE \t\t\t\n      PUSH 24\t\t\t\n      DUP2 \t\t\t\n      ADD \t\t\t\n      DUP3 \t\t\t\n      SWAP1 \t\t\t\n      MSTORE \t\t\t\n      PUSH 44\t\t\t\n      ADD \t\t\t\n      PUSH [tag] 396\t\t\tess)\\n    {\\n        return su...\n      JUMP \t\t\t\n    tag 579\t\t\tde(Governor, GovernorTimelockC...\n      JUMPDEST \t\t\tde(Governor, GovernorTimelockC...\n      PUSH 0\t\t\t\n      PUSH [tag] 582\t\t\t\n      PUSH [tag] 227\t\t\t\n      JUMP \t\t\t\n    tag 582\t\t\t\n      JUMPDEST \t\t\t\n      SWAP1 \t\t\t\n      POP \t\t\t\n      PUSH [tag] 583\t\t\t\n      PUSH [tag] 584\t\t\t\n      PUSH [tag] 212\t\t\t\n      JUMP \t\t\t\n    tag 584\t\t\t\n      JUMPDEST \t\t\t\n      PUSH [tag] 585\t\t\t\n      DUP6 \t\t\t\n      PUSH [tag] 586\t\t\t\n      JUMP \t\t\t\n    tag 585\t\t\t\n      JUMPDEST \t\t\t\n      PUSH A\t\t\t\n      SWAP2 \t\t\t\n      SWAP1 \t\t\t\n      PUSH [tag] 587\t\t\t\n      JUMP \t\t\t\n    tag 583\t\t\t\n      JUMPDEST \t\t\t\n      POP \t\t\t\n      POP \t\t\t\n      PUSH 40\t\t\t\n      DUP1 \t\t\t\n      MLOAD \t\t\t\n      DUP3 \t\t\t\n      DUP2 \t\t\t\n      MSTORE \t\t\t\n      PUSH 20\t\t\t\n      DUP2 \t\t\t\n      ADD \t\t\t\n      DUP6 \t\t\t\n      SWAP1 \t\t\t\n      MSTORE \t\t\t\n      PUSH 553476BF02EF2726E8CE5CED78D63E26E602E4A2257B1F559418E24B4633997\t\t\t\n      SWAP2 \t\t\t\n      ADD \t\t\t\n      PUSH 40\t\t\t\n      MLOAD \t\t\t\n      DUP1 \t\t\t\n      SWAP2 \t\t\t\n      SUB \t\t\t\n      SWAP1 \t\t\t\n      LOG1 \t\t\t\n      POP \t\t\ttion _executor()\\n        inte...\n      POP \t\t\ttion _executor()\\n        inte...\n      POP \t\t\tn super._cancel(targets, value...\n      JUMP \t\t\tn super._cancel(targets, value...\n    tag 343\t\t\t\n      JUMPDEST \t\t\t\n      PUSH 0\t\t\t\n      DUP2 \t\t\t\n      PUSH 7\t\t\t\n      DUP2 \t\t\t\n      GT \t\t\t\n      ISZERO \t\t\t\n      PUSH [tag] 591\t\t\t\n      JUMPI \t\t\t\n      PUSH [tag] 591\t\t\t\n      PUSH [tag] 592\t\t\t\n      JUMP \t\t\t\n    tag 591\t\t\t\n      JUMPDEST \t\t\t\n      PUSH 1\t\t\t\n      PUSH FF\t\t\t\n      SWAP2 \t\t\t\n      SWAP1 \t\t\t\n      SWAP2 \t\t\t\n      AND \t\t\t\n      SHL \t\t\t\n      SWAP3 \t\t\t\n      SWAP2 \t\t\t\n      POP \t\t\t\n      POP \t\t\t\n      JUMP \t\t\t\n    tag 344\t\t\t\n      JUMPDEST \t\t\t\n      PUSH 0\t\t\t\n      DUP1 \t\t\t\n      PUSH [tag] 594\t\t\t\n      DUP5 \t\t\t\n      PUSH [tag] 125\t\t\t\n      JUMP \t\t\t\n    tag 594\t\t\t\n      JUMPDEST \t\t\t\n      SWAP1 \t\t\t\n      POP \t\t\t\n      PUSH 0\t\t\t\n      DUP4 \t\t\t\n      PUSH [tag] 595\t\t\t\n      DUP4 \t\t\t\n      PUSH [tag] 343\t\t\t\n      JUMP \t\t\t\n    tag 595\t\t\t\n      JUMPDEST \t\t\t\n      AND \t\t\t\n      SUB \t\t\t\n      PUSH [tag] 544\t\t\t\n      JUMPI \t\t\t\n      DUP4 \t\t\t\n      DUP2 \t\t\t\n      DUP5 \t\t\t\n      PUSH 40\t\t\t\n      MLOAD \t\t\t\n      PUSH 31B75E4D\t\t\t\n      PUSH E0\t\t\t\n      SHL \t\t\t\n      DUP2 \t\t\t\n      MSTORE \t\t\t\n      PUSH 4\t\t\t\n      ADD \t\t\t\n      PUSH [tag] 396\t\t\t\n      SWAP4 \t\t\t\n      SWAP3 \t\t\t\n      SWAP2 \t\t\t\n      SWAP1 \t\t\t\n      PUSH [tag] 598\t\t\t\n      JUMP \t\t\t\n    tag 346\t\t\tfunction _queueOperations(\\n  ...\n      JUMPDEST \t\t\tfunction _queueOperations(\\n  ...\n      PUSH 0\t\t\tuint48\n      PUSH [tag] 397\t\t\tsuper._queueOperations(\\n     ...\n      DUP7 \t\t\tproposalId\n      DUP7 \t\t\ttargets\n      DUP7 \t\t\tvalues\n      DUP7 \t\t\tcalldatas\n      DUP7 \t\t\tdescriptionHash\n      PUSH [tag] 601\t\t\tsuper._queueOperations\n      JUMP \t\t\tsuper._queueOperations(\\n     ...\n    tag 368\t\t\troposalNeedsQueuing(uint256 pr...\n      JUMPDEST \t\t\troposalNeedsQueuing(uint256 pr...\n      DUP2 \t\t\t    return\n      SLOAD \t\t\t    return\n      PUSH 1\t\t\t\n      PUSH 1\t\t\t\n      PUSH 80\t\t\t\n      SHL \t\t\t\n      SUB \t\t\t\n      PUSH 1\t\t\t\n      PUSH 80\t\t\t\n      SHL \t\t\t\n      DUP3 \t\t\t    return\n      DIV \t\t\t    return\n      DUP2 \t\t\t    return\n      AND \t\t\t    return\n      SWAP2 \t\t\t    return\n      DUP2 \t\t\t.proposalNee\n      AND \t\t\t.proposalNee\n      PUSH 1\t\t\t.proposalNee\n      DUP4 \t\t\t     return s\n      ADD \t\t\t     return s\n      SWAP1 \t\t\t     return super.proposalNee\n      SWAP2 \t\t\t     return super.proposalNee\n      AND \t\t\t     return super.proposalNee\n      SUB \t\t\t     return super.proposalNee\n      PUSH [tag] 603\t\t\t\\n        return super.proposa...\n      JUMPI \t\t\t\\n        return super.proposa...\n      PUSH 40\t\t\t(proposalId\n      MLOAD \t\t\t(proposalId\n      PUSH 8ACB5F27\t\t\t\n      PUSH E0\t\t\t\n      SHL \t\t\t\n      DUP2 \t\t\t(proposalId\n      MSTORE \t\t\t(proposalId\n      PUSH 4\t\t\t(proposalId\n      ADD \t\t\t(proposalId\n      PUSH 40\t\t\t(proposalId\n      MLOAD \t\t\t(proposalId\n      DUP1 \t\t\t(proposalId\n      SWAP2 \t\t\t(proposalId\n      SUB \t\t\t(proposalId\n      SWAP1 \t\t\t(proposalId\n      REVERT \t\t\t(proposalId\n    tag 603\t\t\t\\n        return super.proposa...\n      JUMPDEST \t\t\t\\n        return super.proposa...\n      PUSH 1\t\t\t\n      PUSH 1\t\t\t\n      PUSH 80\t\t\t\n      SHL \t\t\t\n      SUB \t\t\t\n      DUP1 \t\t\tfunction proposalThres\n      DUP3 \t\t\tfunction proposalThres\n      AND \t\t\tfunction proposalThres\n      PUSH 0\t\t\tfunction proposalThres\n      SWAP1 \t\t\tfunction proposalThres\n      DUP2 \t\t\tfunction proposalThres\n      MSTORE \t\t\tfunction proposalThres\n      PUSH 1\t\t\tfunction pr\n      DUP1 \t\t\tfunction pr\n      DUP7 \t\t\tfunction pr\n      ADD \t\t\tfunction pr\n      PUSH 20\t\t\tfunction proposalThres\n      MSTORE \t\t\tfunction proposalThres\n      PUSH 40\t\t\tfunction proposalThres\n      SWAP1 \t\t\tfunction proposalThres\n      SWAP2 \t\t\tfunction proposalThres\n      KECCAK256 \t\t\tfunction proposalThres\n      SWAP4 \t\t\tfunction proposalThreshold()\\n...\n      SWAP1 \t\t\tfunction proposalThreshold()\\n...\n      SWAP4 \t\t\tfunction proposalThreshold()\\n...\n      SSTORE \t\t\tfunction proposalThreshold()\\n...\n      DUP4 \t\t\t        view\\n        overr\n      SLOAD \t\t\t        view\\n        overr\n      SWAP2 \t\t\t        overr\n      SWAP1 \t\t\t        overr\n      SWAP3 \t\t\t        overr\n      ADD \t\t\t        overr\n      DUP3 \t\t\t        view\\n        overr\n      AND \t\t\t        view\\n        overr\n      PUSH 1\t\t\t\n      PUSH 80\t\t\t\n      SHL \t\t\t\n      MUL \t\t\t        view\\n        overr\n      SWAP2 \t\t\t        view\\n        overr\n      AND \t\t\t        view\\n        overr\n      OR \t\t\t        view\\n        overr\n      SWAP1 \t\t\t        view\\n        overr\n      SSTORE \t\t\t        view\\n        overr\n      JUMP \t\t\troposalNeedsQueuing(uint256 pr...\n    tag 370\t\t\tfunction _executeOperations(\\n...\n      JUMPDEST \t\t\tfunction _executeOperations(\\n...\n      PUSH [tag] 605\t\t\tsuper._executeOperations(\\n   ...\n      DUP6 \t\t\tproposalId\n      DUP6 \t\t\ttargets\n      DUP6 \t\t\tvalues\n      DUP6 \t\t\tcalldatas\n      DUP6 \t\t\tdescriptionHash\n      PUSH [tag] 606\t\t\tsuper._executeOperations\n      JUMP \t\t\tsuper._executeOperations(\\n   ...\n    tag 605\t\t\tsuper._executeOperations(\\n   ...\n      JUMPDEST \t\t\tsuper._executeOperations(\\n   ...\n      POP \t\t\tfunction _executeOperations(\\n...\n      POP \t\t\tfunction _executeOperations(\\n...\n      POP \t\t\tfunction _executeOperations(\\n...\n      POP \t\t\tfunction _executeOperations(\\n...\n      POP \t\t\tfunction _executeOperations(\\n...\n      JUMP \t\t\tfunction _executeOperations(\\n...\n    tag 385\t\t\trSettings)\\n        returns (u...\n      JUMPDEST \t\t\trSettings)\\n        returns (u...\n      PUSH 0\t\t\threshold();\\n \n      DUP1 \t\t\tnction _queueOperations(\\n \n      PUSH [tag] 611\t\t\t    uint256 proposalId,\n      DUP4 \t\t\tproposalId\n      PUSH [tag] 612\t\t\t    uint256\n      JUMP \t\t\t    uint256 proposalId,\n    tag 611\t\t\t    uint256 proposalId,\n      JUMPDEST \t\t\t    uint256 proposalId,\n      SWAP1 \t\t\tnction _queueOperations(\\n    ...\n      POP \t\t\t\n      PUSH 5\t\t\tts,\\n        uint256[\n      DUP2 \t\t\ts[] memory t\n      PUSH 7\t\t\ts[] memory targets,\\n        u...\n      DUP2 \t\t\ts[] memory targets,\\n        u...\n      GT \t\t\ts[] memory targets,\\n        u...\n      ISZERO \t\t\ts[] memory targets,\\n        u...\n      PUSH [tag] 616\t\t\ts[] memory targets,\\n        u...\n      JUMPI \t\t\ts[] memory targets,\\n        u...\n      PUSH [tag] 616\t\t\ts[] memory targets,\\n        u...\n      PUSH [tag] 592\t\t\ts[] memory targets,\\n        u...\n      JUMP \t\t\ts[] memory targets,\\n        u...\n    tag 616\t\t\ts[] memory targets,\\n        u...\n      JUMPDEST \t\t\ts[] memory targets,\\n        u...\n      EQ \t\t\ts[] memory targets,\\n        u...\n      PUSH [tag] 617\t\t\tdress[] memory targets,\\n     ...\n      JUMPI \t\t\tdress[] memory targets,\\n     ...\n      SWAP3 \t\t\t  bytes[] me\n      SWAP2 \t\t\trSettings)\\n        returns (u...\n      POP \t\t\t\n      POP \t\t\t\n      JUMP \t\t\trSettings)\\n        returns (u...\n    tag 617\t\t\tdress[] memory targets,\\n     ...\n      JUMPDEST \t\t\tdress[] memory targets,\\n     ...\n      PUSH 0\t\t\t   bytes32 desc\n      DUP4 \t\t\ttionHash\\n    ) internal \n      DUP2 \t\t\ttionHash\\n    ) internal \n      MSTORE \t\t\ttionHash\\n    ) internal \n      PUSH C\t\t\ttionHash\\n   \n      PUSH 20\t\t\ttionHash\\n    ) internal \n      MSTORE \t\t\ttionHash\\n    ) internal \n      PUSH 40\t\t\ttionHash\\n    ) internal \n      SWAP1 \t\t\ttionHash\\n    ) internal \n      DUP2 \t\t\ttionHash\\n    ) internal \n      SWAP1 \t\t\ttionHash\\n    ) internal \n      KECCAK256 \t\t\ttionHash\\n    ) internal \n      SLOAD \t\t\ttionHash\\n    ) internal \n      PUSH B\t\t\tnor, Gove\n      SLOAD \t\t\tnor, Gove\n      SWAP2 \t\t\tnor, GovernorTimelockControl) ...\n      MLOAD \t\t\tnor, GovernorTimelockControl) ...\n      PUSH 2C258A9F\t\t\t\n      PUSH E1\t\t\t\n      SHL \t\t\t\n      DUP2 \t\t\tnor, GovernorTimelockControl) ...\n      MSTORE \t\t\tnor, GovernorTimelockControl) ...\n      PUSH 4\t\t\tnor, GovernorTimelockControl) ...\n      DUP2 \t\t\tnor, GovernorTimelockControl) ...\n      ADD \t\t\tnor, GovernorTimelockControl) ...\n      DUP3 \t\t\tgSimple,\\n    GovernorVote\n      SWAP1 \t\t\tgSimple,\\n    GovernorVote\n      MSTORE \t\t\tgSimple,\\n    GovernorVote\n      SWAP1 \t\t\ttionHash\\n    ) internal \n      SWAP2 \t\t\ttionHash\\n    ) internal \n      PUSH 1\t\t\t\n      PUSH 1\t\t\t\n      PUSH A0\t\t\t\n      SHL \t\t\t\n      SUB \t\t\t\n      AND \t\t\tnor, Gove\n      SWAP1 \t\t\tnor, Gove\n      PUSH 584B153E\t\t\tnor, GovernorTimelockControl\n      SWAP1 \t\t\tnor, GovernorTimelockControl\n      PUSH 24\t\t\tttings,\\n    Govern\n      ADD \t\t\tttings,\\n    Govern\n      PUSH 20\t\t\tnor, GovernorTimelockControl) ...\n      PUSH 40\t\t\tnor, GovernorTimelockControl) ...\n      MLOAD \t\t\tnor, GovernorTimelockControl) ...\n      DUP1 \t\t\tnor, GovernorTimelockControl) ...\n      DUP4 \t\t\tnor, GovernorTimelockControl) ...\n      SUB \t\t\tnor, GovernorTimelockControl) ...\n      DUP2 \t\t\tnor, GovernorTimelockControl) ...\n      DUP7 \t\t\tnor, GovernorTimelockControl) ...\n      GAS \t\t\tnor, GovernorTimelockControl) ...\n      STATICCALL \t\t\tnor, GovernorTimelockControl) ...\n      ISZERO \t\t\tnor, GovernorTimelockControl) ...\n      DUP1 \t\t\tnor, GovernorTimelockControl) ...\n      ISZERO \t\t\tnor, GovernorTimelockControl) ...\n      PUSH [tag] 620\t\t\tnor, GovernorTimelockControl) ...\n      JUMPI \t\t\tnor, GovernorTimelockControl) ...\n      RETURNDATASIZE \t\t\tnor, GovernorTimelockControl) ...\n      PUSH 0\t\t\tnor, GovernorTimelockControl) ...\n      DUP1 \t\t\tnor, GovernorTimelockControl) ...\n      RETURNDATACOPY \t\t\tnor, GovernorTimelockControl) ...\n      RETURNDATASIZE \t\t\tnor, GovernorTimelockControl) ...\n      PUSH 0\t\t\tnor, GovernorTimelockControl) ...\n      REVERT \t\t\tnor, GovernorTimelockControl) ...\n    tag 620\t\t\tnor, GovernorTimelockControl) ...\n      JUMPDEST \t\t\tnor, GovernorTimelockControl) ...\n      POP \t\t\tnor, GovernorTimelockControl) ...\n      POP \t\t\tnor, GovernorTimelockControl) ...\n      POP \t\t\tnor, GovernorTimelockControl) ...\n      POP \t\t\tnor, GovernorTimelockControl) ...\n      PUSH 40\t\t\tnor, GovernorTimelockControl) ...\n      MLOAD \t\t\tnor, GovernorTimelockControl) ...\n      RETURNDATASIZE \t\t\tnor, GovernorTimelockControl) ...\n      PUSH 1F\t\t\tnor, GovernorTimelockControl) ...\n      NOT \t\t\tnor, GovernorTimelockControl) ...\n      PUSH 1F\t\t\tnor, GovernorTimelockControl) ...\n      DUP3 \t\t\tnor, GovernorTimelockControl) ...\n      ADD \t\t\tnor, GovernorTimelockControl) ...\n      AND \t\t\tnor, GovernorTimelockControl) ...\n      DUP3 \t\t\tnor, GovernorTimelockControl) ...\n      ADD \t\t\tnor, GovernorTimelockControl) ...\n      DUP1 \t\t\tnor, GovernorTimelockControl) ...\n      PUSH 40\t\t\tnor, GovernorTimelockControl) ...\n      MSTORE \t\t\tnor, GovernorTimelockControl) ...\n      POP \t\t\tnor, GovernorTimelockControl) ...\n      DUP2 \t\t\tnor, GovernorTimelockControl) ...\n      ADD \t\t\tnor, GovernorTimelockControl) ...\n      SWAP1 \t\t\tnor, GovernorTimelockControl) ...\n      PUSH [tag] 621\t\t\tnor, GovernorTimelockControl) ...\n      SWAP2 \t\t\tnor, GovernorTimelockControl) ...\n      SWAP1 \t\t\tnor, GovernorTimelockControl) ...\n      PUSH [tag] 622\t\t\tnor, GovernorTimelockControl) ...\n      JUMP \t\t\tnor, GovernorTimelockControl) ...\n    tag 621\t\t\tnor, GovernorTimelockControl) ...\n      JUMPDEST \t\t\tnor, GovernorTimelockControl) ...\n      ISZERO \t\t\tovernor, GovernorTimelockContr...\n      PUSH [tag] 623\t\t\tovernor, GovernorTimelockContr...\n      JUMPI \t\t\tovernor, GovernorTimelockContr...\n      POP \t\t\t\n      PUSH 5\t\t\turn\\n            supe\n      SWAP4 \t\t\turn\\n            supe\n      SWAP3 \t\t\trSettings)\\n        returns (u...\n      POP \t\t\t\n      POP \t\t\t\n      POP \t\t\t\n      JUMP \t\t\trSettings)\\n        returns (u...\n    tag 623\t\t\tovernor, GovernorTimelockContr...\n      JUMPDEST \t\t\tovernor, GovernorTimelockContr...\n      PUSH B\t\t\t         \n      SLOAD \t\t\t         \n      PUSH 40\t\t\t               proposalId,\\n  ...\n      MLOAD \t\t\t               proposalId,\\n  ...\n      PUSH 2AB0F529\t\t\t\n      PUSH E0\t\t\t\n      SHL \t\t\t\n      DUP2 \t\t\t               proposalId,\\n  ...\n      MSTORE \t\t\t               proposalId,\\n  ...\n      PUSH 4\t\t\t               proposalId,\\n  ...\n      DUP2 \t\t\t               proposalId,\\n  ...\n      ADD \t\t\t               proposalId,\\n  ...\n      DUP4 \t\t\tgSimple,\\n    GovernorVote\n      SWAP1 \t\t\tgSimple,\\n    GovernorVote\n      MSTORE \t\t\tgSimple,\\n    GovernorVote\n      PUSH 1\t\t\t\n      PUSH 1\t\t\t\n      PUSH A0\t\t\t\n      SHL \t\t\t\n      SUB \t\t\t\n      SWAP1 \t\t\t         \n      SWAP2 \t\t\t         \n      AND \t\t\t         \n      SWAP1 \t\t\t         \n      PUSH 2AB0F529\t\t\t               proposalId\n      SWAP1 \t\t\t               proposalId\n      PUSH 24\t\t\tttings,\\n    Govern\n      ADD \t\t\tttings,\\n    Govern\n      PUSH 20\t\t\t               proposalId,\\n  ...\n      PUSH 40\t\t\t               proposalId,\\n  ...\n      MLOAD \t\t\t               proposalId,\\n  ...\n      DUP1 \t\t\t               proposalId,\\n  ...\n      DUP4 \t\t\t               proposalId,\\n  ...\n      SUB \t\t\t               proposalId,\\n  ...\n      DUP2 \t\t\t               proposalId,\\n  ...\n      DUP7 \t\t\t               proposalId,\\n  ...\n      GAS \t\t\t               proposalId,\\n  ...\n      STATICCALL \t\t\t               proposalId,\\n  ...\n      ISZERO \t\t\t               proposalId,\\n  ...\n      DUP1 \t\t\t               proposalId,\\n  ...\n      ISZERO \t\t\t               proposalId,\\n  ...\n      PUSH [tag] 627\t\t\t               proposalId,\\n  ...\n      JUMPI \t\t\t               proposalId,\\n  ...\n      RETURNDATASIZE \t\t\t               proposalId,\\n  ...\n      PUSH 0\t\t\t               proposalId,\\n  ...\n      DUP1 \t\t\t               proposalId,\\n  ...\n      RETURNDATACOPY \t\t\t               proposalId,\\n  ...\n      RETURNDATASIZE \t\t\t               proposalId,\\n  ...\n      PUSH 0\t\t\t               proposalId,\\n  ...\n      REVERT \t\t\t               proposalId,\\n  ...\n    tag 627\t\t\t               proposalId,\\n  ...\n      JUMPDEST \t\t\t               proposalId,\\n  ...\n      POP \t\t\t               proposalId,\\n  ...\n      POP \t\t\t               proposalId,\\n  ...\n      POP \t\t\t               proposalId,\\n  ...\n      POP \t\t\t               proposalId,\\n  ...\n      PUSH 40\t\t\t               proposalId,\\n  ...\n      MLOAD \t\t\t               proposalId,\\n  ...\n      RETURNDATASIZE \t\t\t               proposalId,\\n  ...\n      PUSH 1F\t\t\t               proposalId,\\n  ...\n      NOT \t\t\t               proposalId,\\n  ...\n      PUSH 1F\t\t\t               proposalId,\\n  ...\n      DUP3 \t\t\t               proposalId,\\n  ...\n      ADD \t\t\t               proposalId,\\n  ...\n      AND \t\t\t               proposalId,\\n  ...\n      DUP3 \t\t\t               proposalId,\\n  ...\n      ADD \t\t\t               proposalId,\\n  ...\n      DUP1 \t\t\t               proposalId,\\n  ...\n      PUSH 40\t\t\t               proposalId,\\n  ...\n      MSTORE \t\t\t               proposalId,\\n  ...\n      POP \t\t\t               proposalId,\\n  ...\n      DUP2 \t\t\t               proposalId,\\n  ...\n      ADD \t\t\t               proposalId,\\n  ...\n      SWAP1 \t\t\t               proposalId,\\n  ...\n      PUSH [tag] 628\t\t\t               proposalId,\\n  ...\n      SWAP2 \t\t\t               proposalId,\\n  ...\n      SWAP1 \t\t\t               proposalId,\\n  ...\n      PUSH [tag] 622\t\t\t               proposalId,\\n  ...\n      JUMP \t\t\t               proposalId,\\n  ...\n    tag 628\t\t\t               proposalId,\\n  ...\n      JUMPDEST \t\t\t               proposalId,\\n  ...\n      ISZERO \t\t\ts(\\n                proposalId...\n      PUSH [tag] 629\t\t\ts(\\n                proposalId...\n      JUMPI \t\t\ts(\\n                proposalId...\n      POP \t\t\t\n      PUSH 7\t\t\t     );\\n    }\\n\\n    fun\n      SWAP4 \t\t\t     );\\n    }\\n\\n    fun\n      SWAP3 \t\t\trSettings)\\n        returns (u...\n      POP \t\t\t\n      POP \t\t\t\n      POP \t\t\t\n      JUMP \t\t\trSettings)\\n        returns (u...\n    tag 629\t\t\ts(\\n                proposalId...\n      JUMPDEST \t\t\ts(\\n                proposalId...\n      POP \t\t\t\n      PUSH 2\t\t\t      bytes[] memory c\n      SWAP4 \t\t\t      bytes[] memory c\n      SWAP3 \t\t\trSettings)\\n        returns (u...\n      POP \t\t\t\n      POP \t\t\t\n      POP \t\t\t\n      JUMP \t\t\trSettings)\\n        returns (u...\n    tag 398\t\t\tfunction _cancel(\\n        add...\n      JUMPDEST \t\t\tfunction _cancel(\\n        add...\n      PUSH 0\t\t\tuint256\n      PUSH [tag] 633\t\t\tsuper._cancel(targets, values,...\n      DUP6 \t\t\ttargets\n      DUP6 \t\t\tvalues\n      DUP6 \t\t\tcalldatas\n      DUP6 \t\t\tdescriptionHash\n      PUSH [tag] 634\t\t\tsuper._cancel\n      JUMP \t\t\tsuper._cancel(targets, values,...\n    tag 633\t\t\tsuper._cancel(targets, values,...\n      JUMPDEST \t\t\tsuper._cancel(targets, values,...\n      SWAP6 \t\t\treturn super._cancel(targets, ...\n      SWAP5 \t\t\tfunction _cancel(\\n        add...\n      POP \t\t\t\n      POP \t\t\t\n      POP \t\t\t\n      POP \t\t\t\n      POP \t\t\t\n      JUMP \t\t\tfunction _cancel(\\n        add...\n    tag 414\t\t\t\n      JUMPDEST \t\t\t\n      PUSH 0\t\t\t\n      PUSH [tag] 633\t\t\t\n      DUP6 \t\t\t\n      DUP6 \t\t\t\n      DUP6 \t\t\t\n      DUP6 \t\t\t\n      PUSH [tag] 637\t\t\t\n      PUSH 40\t\t\t\n      DUP1 \t\t\t\n      MLOAD \t\t\t\n      PUSH 20\t\t\t\n      DUP2 \t\t\t\n      ADD \t\t\t\n      SWAP1 \t\t\t\n      SWAP2 \t\t\t\n      MSTORE \t\t\t\n      PUSH 0\t\t\t\n      DUP2 \t\t\t\n      MSTORE \t\t\t\n      SWAP1 \t\t\t\n      JUMP \t\t\t\n    tag 637\t\t\t\n      JUMPDEST \t\t\t\n      PUSH [tag] 429\t\t\t\n      JUMP \t\t\t\n    tag 424\t\t\t\n      JUMPDEST \t\t\t\n      PUSH 0\t\t\t\n      PUSH [tag] 317\t\t\t\n      PUSH [tag] 641\t\t\t\n      PUSH [tag] 642\t\t\t\n      JUMP \t\t\t\n    tag 641\t\t\t\n      JUMPDEST \t\t\t\n      DUP4 \t\t\t\n      PUSH 40\t\t\t, va\n      MLOAD \t\t\targets, val\n      PUSH 1901\t\t\t\n      PUSH F0\t\t\t\n      SHL \t\t\t\n      DUP2 \t\t\ts, descriptionHash);\\n  \n      MSTORE \t\t\ts, descriptionHash);\\n  \n      PUSH 2\t\t\t\\n   \n      DUP2 \t\t\txecutor()\\n    \n      ADD \t\t\txecutor()\\n    \n      SWAP3 \t\t\ttion _executor()\\n        inte...\n      SWAP1 \t\t\ttion _executor()\\n        inte...\n      SWAP3 \t\t\ttion _executor()\\n        inte...\n      MSTORE \t\t\ttion _executor()\\n        inte...\n      PUSH 22\t\t\trnor\n      DUP3 \t\t\tride(Governor,\n      ADD \t\t\tride(Governor,\n      MSTORE \t\t\t   override(Governor, Governor...\n      PUSH 42\t\t\t\\n   \n      SWAP1 \t\t\tturns (address)\\n    \n      KECCAK256 \t\t\tturns (address)\\n    \n      SWAP1 \t\t\tturns (address)\\n    \n      JUMP \t\t\t256[] memory values,\\n        ...\n    tag 425\t\t\t    GovernorVotesQuorumFractio...\n      JUMPDEST \t\t\t    GovernorVotesQuorumFractio...\n      PUSH 0\t\t\t// T\n      DUP1 \t\t\tfunctions are ove\n      PUSH 0\t\t\tides required by Solidit\n      PUSH [tag] 645\t\t\t  function votingDelay()\\n    ...\n      DUP6 \t\t\tDela\n      DUP6 \t\t\t)\\n       \n      PUSH [tag] 646\t\t\t  function votin\n      JUMP \t\t\t  function votingDelay()\\n    ...\n    tag 645\t\t\t  function votingDelay()\\n    ...\n      JUMPDEST \t\t\t  function votingDelay()\\n    ...\n      POP \t\t\t\n      SWAP1 \t\t\t functions are overrides requi...\n      SWAP3 \t\t\t functions are overrides requi...\n      POP \t\t\t\n      SWAP1 \t\t\t functions are overrides requi...\n      POP \t\t\t\n      PUSH 0\t\t\tvernor, GovernorSettings)\\n\n      DUP2 \t\t\terrid\n      PUSH 3\t\t\terride(Governor, GovernorSetti...\n      DUP2 \t\t\terride(Governor, GovernorSetti...\n      GT \t\t\terride(Governor, GovernorSetti...\n      ISZERO \t\t\terride(Governor, GovernorSetti...\n      PUSH [tag] 650\t\t\terride(Governor, GovernorSetti...\n      JUMPI \t\t\terride(Governor, GovernorSetti...\n      PUSH [tag] 650\t\t\terride(Governor, GovernorSetti...\n      PUSH [tag] 592\t\t\terride(Governor, GovernorSetti...\n      JUMP \t\t\terride(Governor, GovernorSetti...\n    tag 650\t\t\terride(Governor, GovernorSetti...\n      JUMPDEST \t\t\terride(Governor, GovernorSetti...\n      EQ \t\t\terride(Governor, GovernorSetti...\n      DUP1 \t\t\terride(Governor, GovernorSetti...\n      ISZERO \t\t\terride(Governor, GovernorSetti...\n      PUSH [tag] 651\t\t\terride(Governor, GovernorSetti...\n      JUMPI \t\t\terride(Governor, GovernorSetti...\n      POP \t\t\terride(Governor, GovernorSetti...\n      DUP6 \t\t\tuint25\n      PUSH 1\t\t\t\n      PUSH 1\t\t\t\n      PUSH A0\t\t\t\n      SHL \t\t\t\n      SUB \t\t\t\n      AND \t\t\t    returns (uint25\n      DUP3 \t\t\t    retur\n      PUSH 1\t\t\t\n      PUSH 1\t\t\t\n      PUSH A0\t\t\t\n      SHL \t\t\t\n      SUB \t\t\t\n      AND \t\t\t    returns (uint25\n      EQ \t\t\t    returns (uint25\n    tag 651\t\t\terride(Governor, GovernorSetti...\n      JUMPDEST \t\t\terride(Governor, GovernorSetti...\n      DUP1 \t\t\tverride(Governor, GovernorSett...\n      PUSH [tag] 397\t\t\tverride(Governor, GovernorSett...\n      JUMPI \t\t\tverride(Governor, GovernorSett...\n      POP \t\t\tverride(Governor, GovernorSett...\n      PUSH [tag] 397\t\t\treturn super.votingDelay();\\n ...\n      DUP7 \t\t\t\\n    }\n      DUP7 \t\t\t    \n      DUP7 \t\t\tnction vo\n      PUSH [tag] 654\t\t\treturn super.votingDelay()\n      JUMP \t\t\treturn super.votingDelay();\\n ...\n    tag 429\t\t\t\n      JUMPDEST \t\t\t\n      PUSH 0\t\t\t\n      PUSH [tag] 656\t\t\t\n      DUP7 \t\t\t\n      PUSH [tag] 342\t\t\t\n      PUSH 1\t\t\t\n      PUSH [tag] 343\t\t\t\n      JUMP \t\t\t\n    tag 656\t\t\t\n      JUMPDEST \t\t\t\n      POP \t\t\t\n      PUSH 0\t\t\t\n      PUSH [tag] 658\t\t\t\n      DUP7 \t\t\t\n      PUSH [tag] 659\t\t\t\n      DUP10 \t\t\t\n      PUSH [tag] 111\t\t\t\n      JUMP \t\t\t\n    tag 659\t\t\t\n      JUMPDEST \t\t\t\n      DUP6 \t\t\t\n      PUSH [tag] 502\t\t\t\n      JUMP \t\t\t\n    tag 658\t\t\t\n      JUMPDEST \t\t\t\n      SWAP1 \t\t\t\n      POP \t\t\t\n      PUSH [tag] 660\t\t\t\n      DUP8 \t\t\t\n      DUP8 \t\t\t\n      DUP8 \t\t\t\n      DUP5 \t\t\t\n      DUP8 \t\t\t\n      PUSH [tag] 661\t\t\t\n      JUMP \t\t\t\n    tag 660\t\t\t\n      JUMPDEST \t\t\t\n      DUP3 \t\t\t\n      MLOAD \t\t\t\n      PUSH 0\t\t\t\n      SUB \t\t\t\n      PUSH [tag] 662\t\t\t\n      JUMPI \t\t\t\n      DUP6 \t\t\t\n      PUSH 1\t\t\t\n      PUSH 1\t\t\t\n      PUSH A0\t\t\t\n      SHL \t\t\t\n      SUB \t\t\t\n      AND \t\t\t\n      PUSH B8E138887D0AA13BAB447E82DE9D5C1777041ECD21CA36BA824FF1E6C07DDDA4\t\t\t\n      DUP9 \t\t\t\n      DUP8 \t\t\t\n      DUP5 \t\t\t\n      DUP9 \t\t\t\n      PUSH 40\t\t\t\n      MLOAD \t\t\t\n      PUSH [tag] 663\t\t\t\n      SWAP5 \t\t\t\n      SWAP4 \t\t\t\n      SWAP3 \t\t\t\n      SWAP2 \t\t\t\n      SWAP1 \t\t\t\n      PUSH [tag] 664\t\t\t\n      JUMP \t\t\t\n    tag 663\t\t\t\n      JUMPDEST \t\t\t\n      PUSH 40\t\t\t\n      MLOAD \t\t\t\n      DUP1 \t\t\t\n      SWAP2 \t\t\t\n      SUB \t\t\t\n      SWAP1 \t\t\t\n      LOG2 \t\t\t\n      PUSH [tag] 397\t\t\t\n      JUMP \t\t\t\n    tag 662\t\t\t\n      JUMPDEST \t\t\t\n      DUP6 \t\t\t\n      PUSH 1\t\t\t\n      PUSH 1\t\t\t\n      PUSH A0\t\t\t\n      SHL \t\t\t\n      SUB \t\t\t\n      AND \t\t\t\n      PUSH E2BABFBAC5889A709B63BB7F598B324E08BC5A4FB9EC647FB3CBC9EC07EB8712\t\t\t\n      DUP9 \t\t\t\n      DUP8 \t\t\t\n      DUP5 \t\t\t\n      DUP9 \t\t\t\n      DUP9 \t\t\t\n      PUSH 40\t\t\t\n      MLOAD \t\t\t\n      PUSH [tag] 666\t\t\t\n      SWAP6 \t\t\t\n      SWAP5 \t\t\t\n      SWAP4 \t\t\t\n      SWAP3 \t\t\t\n      SWAP2 \t\t\t\n      SWAP1 \t\t\t\n      PUSH [tag] 667\t\t\t\n      JUMP \t\t\t\n    tag 666\t\t\t\n      JUMPDEST \t\t\t\n      PUSH 40\t\t\t\n      MLOAD \t\t\t\n      DUP1 \t\t\t\n      SWAP2 \t\t\t\n      SUB \t\t\t\n      SWAP1 \t\t\t\n      LOG2 \t\t\t\n      SWAP7 \t\t\t\n      SWAP6 \t\t\t\n      POP \t\t\t\n      POP \t\t\t\n      POP \t\t\t\n      POP \t\t\t\n      POP \t\t\t\n      POP \t\t\t\n      JUMP \t\t\t\n    tag 442\t\t\t\n      JUMPDEST \t\t\t\n      PUSH 0\t\t\t\n      PUSH FFFFFFFFFFFF\t\t\t\n      DUP3 \t\t\t\n      GT \t\t\t\n      ISZERO \t\t\t\n      PUSH [tag] 669\t\t\t\n      JUMPI \t\t\t\n      PUSH 40\t\t\t\n      MLOAD \t\t\t\n      PUSH 6DFCC65\t\t\t\n      PUSH E4\t\t\t\n      SHL \t\t\t\n      DUP2 \t\t\t\n      MSTORE \t\t\t\n      PUSH 30\t\t\t\n      PUSH 4\t\t\t\n      DUP3 \t\t\t\n      ADD \t\t\t\n      MSTORE \t\t\t\n      PUSH 24\t\t\t\n      DUP2 \t\t\t\n      ADD \t\t\t\n      DUP4 \t\t\t\n      SWAP1 \t\t\t\n      MSTORE \t\t\t\n      PUSH 44\t\t\t\n      ADD \t\t\t\n      PUSH [tag] 396\t\t\t\n      JUMP \t\t\t\n    tag 669\t\t\t\n      JUMPDEST \t\t\t\n      POP \t\t\t\n      SWAP1 \t\t\t\n      JUMP \t\t\t\n    tag 443\t\t\t\n      JUMPDEST \t\t\t\n      DUP2 \t\t\t\n      SLOAD \t\t\t\n      PUSH 0\t\t\t\n      SWAP1 \t\t\t\n      DUP2 \t\t\t\n      DUP2 \t\t\t\n      PUSH 5\t\t\t\n      DUP2 \t\t\t\n      GT \t\t\t\n      ISZERO \t\t\t\n      PUSH [tag] 673\t\t\t\n      JUMPI \t\t\t\n      PUSH 0\t\t\t\n      PUSH [tag] 674\t\t\t\n      DUP5 \t\t\t\n      PUSH [tag] 675\t\t\t\n      JUMP \t\t\t\n    tag 674\t\t\t\n      JUMPDEST \t\t\t\n      PUSH [tag] 676\t\t\t\n      SWAP1 \t\t\t\n      DUP6 \t\t\t\n      PUSH [tag] 435\t\t\t\n      JUMP \t\t\t\n    tag 676\t\t\t\n      JUMPDEST \t\t\t\n      PUSH 0\t\t\t\n      DUP9 \t\t\t\n      DUP2 \t\t\t\n      MSTORE \t\t\t\n      PUSH 20\t\t\t\n      SWAP1 \t\t\t\n      KECCAK256 \t\t\t\n      SWAP1 \t\t\t\n      SWAP2 \t\t\t\n      POP \t\t\t\n      DUP2 \t\t\t\n      ADD \t\t\t\n      SLOAD \t\t\t\n      PUSH FFFFFFFFFFFF\t\t\t\n      SWAP1 \t\t\t\n      DUP2 \t\t\t\n      AND \t\t\t\n      SWAP1 \t\t\t\n      DUP8 \t\t\t\n      AND \t\t\t\n      LT \t\t\t\n      ISZERO \t\t\t\n      PUSH [tag] 679\t\t\t\n      JUMPI \t\t\t\n      DUP1 \t\t\t\n      SWAP2 \t\t\t\n      POP \t\t\t\n      PUSH [tag] 680\t\t\t\n      JUMP \t\t\t\n    tag 679\t\t\t\n      JUMPDEST \t\t\t\n      PUSH [tag] 681\t\t\t\n      DUP2 \t\t\t\n      PUSH 1\t\t\t\n      PUSH [tag] 682\t\t\t\n      JUMP \t\t\t\n    tag 681\t\t\t\n      JUMPDEST \t\t\t\n      SWAP3 \t\t\t\n      POP \t\t\t\n    tag 680\t\t\t\n      JUMPDEST \t\t\t\n      POP \t\t\t\n    tag 673\t\t\t\n      JUMPDEST \t\t\t\n      PUSH 0\t\t\t\n      PUSH [tag] 683\t\t\t\n      DUP8 \t\t\t\n      DUP8 \t\t\t\n      DUP6 \t\t\t\n      DUP6 \t\t\t\n      PUSH [tag] 684\t\t\t\n      JUMP \t\t\t\n    tag 683\t\t\t\n      JUMPDEST \t\t\t\n      SWAP1 \t\t\t\n      POP \t\t\t\n      DUP1 \t\t\t\n      ISZERO \t\t\t\n      PUSH [tag] 685\t\t\t\n      JUMPI \t\t\t\n      PUSH [tag] 686\t\t\t\n      DUP8 \t\t\t\n      PUSH [tag] 687\t\t\t\n      PUSH 1\t\t\t\n      DUP5 \t\t\t\n      PUSH [tag] 435\t\t\t\n      JUMP \t\t\t\n    tag 687\t\t\t\n      JUMPDEST \t\t\t\n      PUSH 0\t\t\t\n      SWAP2 \t\t\t\n      DUP3 \t\t\t\n      MSTORE \t\t\t\n      PUSH 20\t\t\t\n      SWAP1 \t\t\t\n      SWAP2 \t\t\t\n      KECCAK256 \t\t\t\n      ADD \t\t\t\n      SWAP1 \t\t\t\n      JUMP \t\t\t\n    tag 686\t\t\t\n      JUMPDEST \t\t\t\n      SLOAD \t\t\t\n      PUSH 1\t\t\t\n      PUSH 30\t\t\t\n      SHL \t\t\t\n      SWAP1 \t\t\t\n      DIV \t\t\t\n      PUSH 1\t\t\t\n      PUSH 1\t\t\t\n      PUSH D0\t\t\t\n      SHL \t\t\t\n      SUB \t\t\t\n      AND \t\t\t\n      PUSH [tag] 432\t\t\t\n      JUMP \t\t\t\n    tag 685\t\t\t\n      JUMPDEST \t\t\t\n      PUSH 0\t\t\t\n      SWAP8 \t\t\t\n      SWAP7 \t\t\t\n      POP \t\t\t\n      POP \t\t\t\n      POP \t\t\t\n      POP \t\t\t\n      POP \t\t\t\n      POP \t\t\t\n      POP \t\t\t\n      JUMP \t\t\t\n    tag 448\t\t\troposalId,\\n                ta...\n      JUMPDEST \t\t\troposalId,\\n                ta...\n      PUSH 8\t\t\t        desc\n      SLOAD \t\t\t        desc\n      PUSH 40\t\t\tdatas,\\n                descri...\n      DUP1 \t\t\tdatas,\\n                descri...\n      MLOAD \t\t\tdatas,\\n                descri...\n      PUSH FFFFFFFFFFFF\t\t\t        desc\n      SWAP3 \t\t\t        desc\n      DUP4 \t\t\t        desc\n      AND \t\t\t        desc\n      DUP2 \t\t\t\n      MSTORE \t\t\t\n      SWAP2 \t\t\t\n      DUP4 \t\t\t\n      AND \t\t\t\n      PUSH 20\t\t\t\n      DUP4 \t\t\t\n      ADD \t\t\t\n      MSTORE \t\t\t\n      PUSH C565B045403DC03C2EEA82B81A0465EDAD9E2E7FC4D97E11421C209DA93D7A93\t\t\tdatas,\\n                descri...\n      SWAP2 \t\t\tdatas,\\n                descri...\n      ADD \t\t\t\n      PUSH 40\t\t\tdatas,\\n                descri...\n      MLOAD \t\t\tdatas,\\n                descri...\n      DUP1 \t\t\tdatas,\\n                descri...\n      SWAP2 \t\t\tdatas,\\n                descri...\n      SUB \t\t\tdatas,\\n                descri...\n      SWAP1 \t\t\tdatas,\\n                descri...\n      LOG1 \t\t\tdatas,\\n                descri...\n      PUSH 8\t\t\t    }\\n\\n    f\n      DUP1 \t\t\t    }\\n\\n    function _execute...\n      SLOAD \t\t\t    }\\n\\n    function _execute...\n      PUSH FFFFFFFFFFFF\t\t\t\n      NOT \t\t\t\n      AND \t\t\t    }\\n\\n    function _execute...\n      PUSH FFFFFFFFFFFF\t\t\t    }\\n\\n    function _execute...\n      SWAP3 \t\t\t    }\\n\\n    function _execute...\n      SWAP1 \t\t\t    }\\n\\n    function _execute...\n      SWAP3 \t\t\t    }\\n\\n    function _execute...\n      AND \t\t\t    }\\n\\n    function _execute...\n      SWAP2 \t\t\t    }\\n\\n    function _execute...\n      SWAP1 \t\t\t    }\\n\\n    function _execute...\n      SWAP2 \t\t\t    }\\n\\n    function _execute...\n      OR \t\t\t    }\\n\\n    function _execute...\n      SWAP1 \t\t\t    }\\n\\n    function _execute...\n      SSTORE \t\t\t    }\\n\\n    function _execute...\n      JUMP \t\t\troposalId,\\n                ta...\n    tag 455\t\t\t\n      JUMPDEST \t\t\t\n      DUP1 \t\t\t\n      MLOAD \t\t\t\n      PUSH 0\t\t\t\n      SWAP1 \t\t\t\n      PUSH 34\t\t\t\n      DUP2 \t\t\t\n      LT \t\t\t\n      ISZERO \t\t\t\n      PUSH [tag] 693\t\t\t\n      JUMPI \t\t\t\n      PUSH 1\t\t\t\n      SWAP2 \t\t\t\n      POP \t\t\t\n      POP \t\t\t\n      PUSH [tag] 317\t\t\t\n      JUMP \t\t\t\n    tag 693\t\t\t\n      JUMPDEST \t\t\t\n      DUP3 \t\t\t\n      DUP2 \t\t\t\n      ADD \t\t\t\n      PUSH 13\t\t\t\n      NOT \t\t\t\n      ADD \t\t\t\n      MLOAD \t\t\t\n      PUSH 1\t\t\t\n      PUSH 1\t\t\t\n      PUSH A0\t\t\t\n      SHL \t\t\t\n      SUB \t\t\t\n      NOT \t\t\t\n      DUP2 \t\t\t\n      AND \t\t\t\n      PUSH 46E0E4DEE0DEE6CAE47A60F\t\t\t\n      PUSH A3\t\t\t\n      SHL \t\t\t\n      EQ \t\t\t\n      PUSH [tag] 694\t\t\t\n      JUMPI \t\t\t\n      PUSH 1\t\t\t\n      SWAP3 \t\t\t\n      POP \t\t\t\n      POP \t\t\t\n      POP \t\t\t\n      PUSH [tag] 317\t\t\t\n      JUMP \t\t\t\n    tag 694\t\t\t\n      JUMPDEST \t\t\t\n      PUSH 0\t\t\t\n      DUP1 \t\t\t\n      PUSH [tag] 698\t\t\t\n      PUSH 28\t\t\t\n      DUP6 \t\t\t\n      PUSH [tag] 435\t\t\t\n      JUMP \t\t\t\n    tag 698\t\t\t\n      JUMPDEST \t\t\t\n      SWAP1 \t\t\t\n      POP \t\t\t\n    tag 695\t\t\t\n      JUMPDEST \t\t\t\n      DUP4 \t\t\t\n      DUP2 \t\t\t\n      LT \t\t\t\n      ISZERO \t\t\t\n      PUSH [tag] 696\t\t\t\n      JUMPI \t\t\t\n      PUSH 0\t\t\t\n      DUP1 \t\t\t\n      PUSH [tag] 699\t\t\t\n      DUP9 \t\t\t\n      DUP5 \t\t\t\n      DUP2 \t\t\t\n      MLOAD \t\t\t\n      DUP2 \t\t\t\n      LT \t\t\t\n      PUSH [tag] 701\t\t\t\n      JUMPI \t\t\t\n      PUSH [tag] 701\t\t\t\n      PUSH [tag] 363\t\t\t\n      JUMP \t\t\t\n    tag 701\t\t\t\n      JUMPDEST \t\t\t\n      ADD \t\t\t\n      PUSH 20\t\t\t\n      ADD \t\t\t\n      MLOAD \t\t\t\n      PUSH 1\t\t\t\n      PUSH 1\t\t\t\n      PUSH F8\t\t\t\n      SHL \t\t\t\n      SUB \t\t\t\n      NOT \t\t\t\n      AND \t\t\t\n      PUSH [tag] 702\t\t\t\n      JUMP \t\t\t\n    tag 699\t\t\t\n      JUMPDEST \t\t\t\n      SWAP2 \t\t\t\n      POP \t\t\t\n      SWAP2 \t\t\t\n      POP \t\t\t\n      DUP2 \t\t\t\n      PUSH [tag] 703\t\t\t\n      JUMPI \t\t\t\n      PUSH 1\t\t\t\n      SWAP7 \t\t\t\n      POP \t\t\t\n      POP \t\t\t\n      POP \t\t\t\n      POP \t\t\t\n      POP \t\t\t\n      POP \t\t\t\n      POP \t\t\t\n      PUSH [tag] 317\t\t\t\n      JUMP \t\t\t\n    tag 703\t\t\t\n      JUMPDEST \t\t\t\n      DUP1 \t\t\t\n      PUSH FF\t\t\t\n      AND \t\t\t\n      PUSH 4\t\t\t\n      DUP6 \t\t\t\n      PUSH 1\t\t\t\n      PUSH 1\t\t\t\n      PUSH A0\t\t\t\n      SHL \t\t\t\n      SUB \t\t\t\n      AND \t\t\t\n      SWAP1 \t\t\t\n      SHL \t\t\t\n      OR \t\t\t\n      SWAP4 \t\t\t\n      POP \t\t\t\n      POP \t\t\t\n      POP \t\t\t\n      DUP1 \t\t\t\n      PUSH 1\t\t\t\n      ADD \t\t\t\n      SWAP1 \t\t\t\n      POP \t\t\t\n      PUSH [tag] 695\t\t\t\n      JUMP \t\t\t\n    tag 696\t\t\t\n      JUMPDEST \t\t\t\n      POP \t\t\t\n      DUP6 \t\t\t\n      PUSH 1\t\t\t\n      PUSH 1\t\t\t\n      PUSH A0\t\t\t\n      SHL \t\t\t\n      SUB \t\t\t\n      AND \t\t\t\n      DUP2 \t\t\t\n      PUSH 1\t\t\t\n      PUSH 1\t\t\t\n      PUSH A0\t\t\t\n      SHL \t\t\t\n      SUB \t\t\t\n      AND \t\t\t\n      EQ \t\t\t\n      SWAP4 \t\t\t\n      POP \t\t\t\n      POP \t\t\t\n      POP \t\t\t\n      POP \t\t\t\n      SWAP3 \t\t\t\n      SWAP2 \t\t\t\n      POP \t\t\t\n      POP \t\t\t\n      JUMP \t\t\t\n    tag 467\t\t\t\n      JUMPDEST \t\t\t\n      PUSH 0\t\t\t\n      PUSH [tag] 705\t\t\t\n      DUP7 \t\t\t\n      DUP7 \t\t\t\n      DUP7 \t\t\t\n      DUP7 \t\t\t\n      DUP1 \t\t\t\n      MLOAD \t\t\t\n      SWAP1 \t\t\t\n      PUSH 20\t\t\t\n      ADD \t\t\t\n      KECCAK256 \t\t\t\n      PUSH [tag] 266\t\t\t\n      JUMP \t\t\t\n    tag 705\t\t\t\n      JUMPDEST \t\t\t\n      SWAP1 \t\t\t\n      POP \t\t\t\n      DUP5 \t\t\t\n      MLOAD \t\t\t\n      DUP7 \t\t\t\n      MLOAD \t\t\t\n      EQ \t\t\t\n      ISZERO \t\t\t\n      DUP1 \t\t\t\n      PUSH [tag] 706\t\t\t\n      JUMPI \t\t\t\n      POP \t\t\t\n      DUP4 \t\t\t\n      MLOAD \t\t\t\n      DUP7 \t\t\t\n      MLOAD \t\t\t\n      EQ \t\t\t\n      ISZERO \t\t\t\n    tag 706\t\t\t\n      JUMPDEST \t\t\t\n      DUP1 \t\t\t\n      PUSH [tag] 707\t\t\t\n      JUMPI \t\t\t\n      POP \t\t\t\n      DUP6 \t\t\t\n      MLOAD \t\t\t\n      ISZERO \t\t\t\n    tag 707\t\t\t\n      JUMPDEST \t\t\t\n      ISZERO \t\t\t\n      PUSH [tag] 708\t\t\t\n      JUMPI \t\t\t\n      DUP6 \t\t\t\n      MLOAD \t\t\t\n      DUP5 \t\t\t\n      MLOAD \t\t\t\n      DUP7 \t\t\t\n      MLOAD \t\t\t\n      PUSH 40\t\t\t\n      MLOAD \t\t\t\n      PUSH 447B05D\t\t\t\n      PUSH E4\t\t\t\n      SHL \t\t\t\n      DUP2 \t\t\t\n      MSTORE \t\t\t\n      PUSH 4\t\t\t\n      DUP2 \t\t\t\n      ADD \t\t\t\n      SWAP4 \t\t\t\n      SWAP1 \t\t\t\n      SWAP4 \t\t\t\n      MSTORE \t\t\t\n      PUSH 24\t\t\t\n      DUP4 \t\t\t\n      ADD \t\t\t\n      SWAP2 \t\t\t\n      SWAP1 \t\t\t\n      SWAP2 \t\t\t\n      MSTORE \t\t\t\n      PUSH 44\t\t\t\n      DUP3 \t\t\t\n      ADD \t\t\t\n      MSTORE \t\t\t\n      PUSH 64\t\t\t\n      ADD \t\t\t\n      PUSH [tag] 396\t\t\t\n      JUMP \t\t\t\n    tag 708\t\t\t\n      JUMPDEST \t\t\t\n      PUSH 0\t\t\t\n      DUP2 \t\t\t\n      DUP2 \t\t\t\n      MSTORE \t\t\t\n      PUSH 4\t\t\t\n      PUSH 20\t\t\t\n      MSTORE \t\t\t\n      PUSH 40\t\t\t\n      SWAP1 \t\t\t\n      KECCAK256 \t\t\t\n      SLOAD \t\t\t\n      PUSH 1\t\t\t\n      PUSH A0\t\t\t\n      SHL \t\t\t\n      SWAP1 \t\t\t\n      DIV \t\t\t\n      PUSH FFFFFFFFFFFF\t\t\t\n      AND \t\t\t\n      ISZERO \t\t\t\n      PUSH [tag] 710\t\t\t\n      JUMPI \t\t\t\n      DUP1 \t\t\t\n      PUSH [tag] 711\t\t\t\n      DUP3 \t\t\t\n      PUSH [tag] 125\t\t\t\n      JUMP \t\t\t\n    tag 711\t\t\t\n      JUMPDEST \t\t\t\n      PUSH 40\t\t\t\n      MLOAD \t\t\t\n      PUSH 31B75E4D\t\t\t\n      PUSH E0\t\t\t\n      SHL \t\t\t\n      DUP2 \t\t\t\n      MSTORE \t\t\t\n      PUSH [tag] 396\t\t\t\n      SWAP3 \t\t\t\n      SWAP2 \t\t\t\n      SWAP1 \t\t\t\n      PUSH 0\t\t\t\n      SWAP1 \t\t\t\n      PUSH 4\t\t\t\n      ADD \t\t\t\n      PUSH [tag] 598\t\t\t\n      JUMP \t\t\t\n    tag 710\t\t\t\n      JUMPDEST \t\t\t\n      PUSH 0\t\t\t\n      PUSH [tag] 713\t\t\t\n      PUSH [tag] 120\t\t\t\n      JUMP \t\t\t\n    tag 713\t\t\t\n      JUMPDEST \t\t\t\n      PUSH [tag] 714\t\t\t\n      PUSH [tag] 212\t\t\t\n      JUMP \t\t\t\n    tag 714\t\t\t\n      JUMPDEST \t\t\t\n      PUSH FFFFFFFFFFFF\t\t\t\n      AND \t\t\t\n      PUSH [tag] 715\t\t\t\n      SWAP2 \t\t\t\n      SWAP1 \t\t\t\n      PUSH [tag] 682\t\t\t\n      JUMP \t\t\t\n    tag 715\t\t\t\n      JUMPDEST \t\t\t\n      SWAP1 \t\t\t\n      POP \t\t\t\n      PUSH 0\t\t\t\n      PUSH [tag] 716\t\t\t\n      PUSH 8\t\t\ternor, Govern\n      SLOAD \t\t\ternor, Govern\n      PUSH FFFFFFFF\t\t\ternor, Govern\n      PUSH 1\t\t\t\n      PUSH 30\t\t\t\n      SHL \t\t\t\n      SWAP1 \t\t\ternor, Govern\n      SWAP2 \t\t\ternor, Govern\n      DIV \t\t\ternor, Govern\n      AND \t\t\ternor, Govern\n      SWAP1 \t\t\ternor, Govern\n      JUMP \t\t\tfunction _executor()\\n        ...\n    tag 716\t\t\t\n      JUMPDEST \t\t\t\n      PUSH 0\t\t\t\n      DUP5 \t\t\t\n      DUP2 \t\t\t\n      MSTORE \t\t\t\n      PUSH 4\t\t\t\n      PUSH 20\t\t\t\n      MSTORE \t\t\t\n      PUSH 40\t\t\t\n      SWAP1 \t\t\t\n      KECCAK256 \t\t\t\n      DUP1 \t\t\t\n      SLOAD \t\t\t\n      PUSH 1\t\t\t\n      PUSH 1\t\t\t\n      PUSH A0\t\t\t\n      SHL \t\t\t\n      SUB \t\t\t\n      NOT \t\t\t\n      AND \t\t\t\n      PUSH 1\t\t\t\n      PUSH 1\t\t\t\n      PUSH A0\t\t\t\n      SHL \t\t\t\n      SUB \t\t\t\n      DUP8 \t\t\t\n      AND \t\t\t\n      OR \t\t\t\n      DUP2 \t\t\t\n      SSTORE \t\t\t\n      SWAP1 \t\t\t\n      SWAP2 \t\t\t\n      POP \t\t\t\n      PUSH [tag] 717\t\t\t\n      DUP4 \t\t\t\n      PUSH [tag] 442\t\t\t\n      JUMP \t\t\t\n    tag 717\t\t\t\n      JUMPDEST \t\t\t\n      DUP2 \t\t\t\n      SLOAD \t\t\t\n      PUSH FFFFFFFFFFFF\t\t\t\n      SWAP2 \t\t\t\n      SWAP1 \t\t\t\n      SWAP2 \t\t\t\n      AND \t\t\t\n      PUSH 1\t\t\t\n      PUSH A0\t\t\t\n      SHL \t\t\t\n      MUL \t\t\t\n      PUSH FFFFFFFFFFFF\t\t\t\n      PUSH A0\t\t\t\n      SHL \t\t\t\n      NOT \t\t\t\n      SWAP1 \t\t\t\n      SWAP2 \t\t\t\n      AND \t\t\t\n      OR \t\t\t\n      DUP2 \t\t\t\n      SSTORE \t\t\t\n      PUSH [tag] 718\t\t\t\n      DUP3 \t\t\t\n      PUSH [tag] 719\t\t\t\n      JUMP \t\t\t\n    tag 718\t\t\t\n      JUMPDEST \t\t\t\n      DUP2 \t\t\t\n      SLOAD \t\t\t\n      PUSH FFFFFFFF\t\t\t\n      SWAP2 \t\t\t\n      SWAP1 \t\t\t\n      SWAP2 \t\t\t\n      AND \t\t\t\n      PUSH 1\t\t\t\n      PUSH D0\t\t\t\n      SHL \t\t\t\n      MUL \t\t\t\n      PUSH FFFFFFFF\t\t\t\n      PUSH D0\t\t\t\n      SHL \t\t\t\n      NOT \t\t\t\n      SWAP1 \t\t\t\n      SWAP2 \t\t\t\n      AND \t\t\t\n      OR \t\t\t\n      DUP2 \t\t\t\n      SSTORE \t\t\t\n      DUP9 \t\t\t\n      MLOAD \t\t\t\n      PUSH 7D84A6263AE0D98D3329BD7B46BB4E8D6F98CD35A7ADB45C274C8B7FD5EBD5E0\t\t\t\n      SWAP1 \t\t\t\n      DUP6 \t\t\t\n      SWAP1 \t\t\t\n      DUP8 \t\t\t\n      SWAP1 \t\t\t\n      DUP13 \t\t\t\n      SWAP1 \t\t\t\n      DUP13 \t\t\t\n      SWAP1 \t\t\t\n      PUSH 1\t\t\t\n      PUSH 1\t\t\t\n      PUSH 40\t\t\t\n      SHL \t\t\t\n      SUB \t\t\t\n      DUP2 \t\t\t\n      GT \t\t\t\n      ISZERO \t\t\t\n      PUSH [tag] 721\t\t\t\n      JUMPI \t\t\t\n      PUSH [tag] 721\t\t\t\n      PUSH [tag] 476\t\t\t\n      JUMP \t\t\t\n    tag 721\t\t\t\n      JUMPDEST \t\t\t\n      PUSH 40\t\t\t\n      MLOAD \t\t\t\n      SWAP1 \t\t\t\n      DUP1 \t\t\t\n      DUP3 \t\t\t\n      MSTORE \t\t\t\n      DUP1 \t\t\t\n      PUSH 20\t\t\t\n      MUL \t\t\t\n      PUSH 20\t\t\t\n      ADD \t\t\t\n      DUP3 \t\t\t\n      ADD \t\t\t\n      PUSH 40\t\t\t\n      MSTORE \t\t\t\n      DUP1 \t\t\t\n      ISZERO \t\t\t\n      PUSH [tag] 722\t\t\t\n      JUMPI \t\t\t\n      DUP2 \t\t\t\n      PUSH 20\t\t\t\n      ADD \t\t\t\n    tag 723\t\t\t\n      JUMPDEST \t\t\t\n      PUSH 60\t\t\t\n      DUP2 \t\t\t\n      MSTORE \t\t\t\n      PUSH 20\t\t\t\n      ADD \t\t\t\n      SWAP1 \t\t\t\n      PUSH 1\t\t\t\n      SWAP1 \t\t\t\n      SUB \t\t\t\n      SWAP1 \t\t\t\n      DUP2 \t\t\t\n      PUSH [tag] 723\t\t\t\n      JUMPI \t\t\t\n      SWAP1 \t\t\t\n      POP \t\t\t\n    tag 722\t\t\t\n      JUMPDEST \t\t\t\n      POP \t\t\t\n      DUP13 \t\t\t\n      DUP10 \t\t\t\n      PUSH [tag] 724\t\t\t\n      DUP11 \t\t\t\n      DUP3 \t\t\t\n      PUSH [tag] 682\t\t\t\n      JUMP \t\t\t\n    tag 724\t\t\t\n      JUMPDEST \t\t\t\n      DUP15 \t\t\t\n      PUSH 40\t\t\t\n      MLOAD \t\t\t\n      PUSH [tag] 725\t\t\t\n      SWAP10 \t\t\t\n      SWAP9 \t\t\t\n      SWAP8 \t\t\t\n      SWAP7 \t\t\t\n      SWAP6 \t\t\t\n      SWAP5 \t\t\t\n      SWAP4 \t\t\t\n      SWAP3 \t\t\t\n      SWAP2 \t\t\t\n      SWAP1 \t\t\t\n      PUSH [tag] 726\t\t\t\n      JUMP \t\t\t\n    tag 725\t\t\t\n      JUMPDEST \t\t\t\n      PUSH 40\t\t\t\n      MLOAD \t\t\t\n      DUP1 \t\t\t\n      SWAP2 \t\t\t\n      SUB \t\t\t\n      SWAP1 \t\t\t\n      LOG1 \t\t\t\n      POP \t\t\t\n      POP \t\t\t\n      POP \t\t\t\n      SWAP6 \t\t\t\n      SWAP5 \t\t\t\n      POP \t\t\t\n      POP \t\t\t\n      POP \t\t\t\n      POP \t\t\t\n      POP \t\t\t\n      JUMP \t\t\t\n    tag 471\t\t\t\n      JUMPDEST \t\t\t\n      PUSH 60\t\t\t\n      PUSH [tag] 312\t\t\t\n      PUSHIMMUTABLE 6359\t\t\t\n      PUSH 0\t\t\t\n      PUSH [tag] 729\t\t\t\n      JUMP \t\t\t\n    tag 473\t\t\t\n      JUMPDEST \t\t\t\n      PUSH 60\t\t\t\n      PUSH [tag] 312\t\t\t\n      PUSHIMMUTABLE 6362\t\t\t\n      PUSH 1\t\t\t\n      PUSH [tag] 729\t\t\t\n      JUMP \t\t\t\n    tag 497\t\t\tvernorContract\")\\n        Gove...\n      JUMPDEST \t\t\tvernorContract\")\\n        Gove...\n      PUSH 0\t\t\tingDel\n      PUSH [tag] 312\t\t\t0)\\n        GovernorVotes(_tok...\n      NUMBER \t\t\trVotes(_toke\n      PUSH [tag] 442\t\t\t0)\\n        Govern\n      JUMP \t\t\t0)\\n        GovernorVotes(_tok...\n    tag 502\t\t\t       view\\n        override(...\n      JUMPDEST \t\t\t       view\\n        override(...\n      PUSH 0\t\t\t   func\n      PUSHIMMUTABLE 4433\t\t\tod,\\n  \n      PUSH 40\t\t\tueuing(uint256 proposalId)\\n  ...\n      MLOAD \t\t\tueuing(uint256 proposalId)\\n  ...\n      PUSH 748D635\t\t\t\n      PUSH E3\t\t\t\n      SHL \t\t\t\n      DUP2 \t\t\tueuing(uint256 proposalId)\\n  ...\n      MSTORE \t\t\tueuing(uint256 proposalId)\\n  ...\n      PUSH 1\t\t\t\n      PUSH 1\t\t\t\n      PUSH A0\t\t\t\n      SHL \t\t\t\n      SUB \t\t\t\n      DUP7 \t\t\t\n      DUP2 \t\t\t\n      AND \t\t\t\n      PUSH 4\t\t\tueuing(uint256 proposalId)\\n  ...\n      DUP4 \t\t\tueuing(uint256 proposalId)\\n  ...\n      ADD \t\t\tueuing(uint256 proposalId)\\n  ...\n      MSTORE \t\t\t\n      PUSH 24\t\t\t\n      DUP3 \t\t\t\n      ADD \t\t\t\n      DUP7 \t\t\t\n      SWAP1 \t\t\t\n      MSTORE \t\t\t\n      SWAP2 \t\t\tueuing(uint256 propo\n      SWAP1 \t\t\tueuing(uint256 propo\n      SWAP2 \t\t\tueuing(uint256 propo\n      AND \t\t\tueuing(uint256 propo\n      SWAP1 \t\t\tueuing(uint256 propo\n      PUSH 3A46B1A8\t\t\tueuing(uint256 propo\n      SWAP1 \t\t\tueuing(uint256 propo\n      PUSH 44\t\t\t\n      ADD \t\t\t\n      PUSH 20\t\t\tueuing(uint256 proposalId)\\n  ...\n      PUSH 40\t\t\tueuing(uint256 proposalId)\\n  ...\n      MLOAD \t\t\tueuing(uint256 proposalId)\\n  ...\n      DUP1 \t\t\tueuing(uint256 proposalId)\\n  ...\n      DUP4 \t\t\tueuing(uint256 proposalId)\\n  ...\n      SUB \t\t\tueuing(uint256 proposalId)\\n  ...\n      DUP2 \t\t\tueuing(uint256 proposalId)\\n  ...\n      DUP7 \t\t\tueuing(uint256 proposalId)\\n  ...\n      GAS \t\t\tueuing(uint256 proposalId)\\n  ...\n      STATICCALL \t\t\tueuing(uint256 proposalId)\\n  ...\n      ISZERO \t\t\tueuing(uint256 proposalId)\\n  ...\n      DUP1 \t\t\tueuing(uint256 proposalId)\\n  ...\n      ISZERO \t\t\tueuing(uint256 proposalId)\\n  ...\n      PUSH [tag] 739\t\t\tueuing(uint256 proposalId)\\n  ...\n      JUMPI \t\t\tueuing(uint256 proposalId)\\n  ...\n      RETURNDATASIZE \t\t\tueuing(uint256 proposalId)\\n  ...\n      PUSH 0\t\t\tueuing(uint256 proposalId)\\n  ...\n      DUP1 \t\t\tueuing(uint256 proposalId)\\n  ...\n      RETURNDATACOPY \t\t\tueuing(uint256 proposalId)\\n  ...\n      RETURNDATASIZE \t\t\tueuing(uint256 proposalId)\\n  ...\n      PUSH 0\t\t\tueuing(uint256 proposalId)\\n  ...\n      REVERT \t\t\tueuing(uint256 proposalId)\\n  ...\n    tag 739\t\t\tueuing(uint256 proposalId)\\n  ...\n      JUMPDEST \t\t\tueuing(uint256 proposalId)\\n  ...\n      POP \t\t\tueuing(uint256 proposalId)\\n  ...\n      POP \t\t\tueuing(uint256 proposalId)\\n  ...\n      POP \t\t\tueuing(uint256 proposalId)\\n  ...\n      POP \t\t\tueuing(uint256 proposalId)\\n  ...\n      PUSH 40\t\t\tueuing(uint256 proposalId)\\n  ...\n      MLOAD \t\t\tueuing(uint256 proposalId)\\n  ...\n      RETURNDATASIZE \t\t\tueuing(uint256 proposalId)\\n  ...\n      PUSH 1F\t\t\tueuing(uint256 proposalId)\\n  ...\n      NOT \t\t\tueuing(uint256 proposalId)\\n  ...\n      PUSH 1F\t\t\tueuing(uint256 proposalId)\\n  ...\n      DUP3 \t\t\tueuing(uint256 proposalId)\\n  ...\n      ADD \t\t\tueuing(uint256 proposalId)\\n  ...\n      AND \t\t\tueuing(uint256 proposalId)\\n  ...\n      DUP3 \t\t\tueuing(uint256 proposalId)\\n  ...\n      ADD \t\t\tueuing(uint256 proposalId)\\n  ...\n      DUP1 \t\t\tueuing(uint256 proposalId)\\n  ...\n      PUSH 40\t\t\tueuing(uint256 proposalId)\\n  ...\n      MSTORE \t\t\tueuing(uint256 proposalId)\\n  ...\n      POP \t\t\tueuing(uint256 proposalId)\\n  ...\n      DUP2 \t\t\tueuing(uint256 proposalId)\\n  ...\n      ADD \t\t\tueuing(uint256 proposalId)\\n  ...\n      SWAP1 \t\t\tueuing(uint256 proposalId)\\n  ...\n      PUSH [tag] 413\t\t\tueuing(uint256 proposalId)\\n  ...\n      SWAP2 \t\t\tueuing(uint256 proposalId)\\n  ...\n      SWAP1 \t\t\tueuing(uint256 proposalId)\\n  ...\n      PUSH [tag] 741\t\t\tueuing(uint256 proposalId)\\n  ...\n      JUMP \t\t\tueuing(uint256 proposalId)\\n  ...\n    tag 505\t\t\t\n      JUMPDEST \t\t\t\n      DUP1 \t\t\t\n      SLOAD \t\t\t\n      PUSH 0\t\t\t\n      SWAP1 \t\t\t\n      DUP1 \t\t\t\n      ISZERO \t\t\t\n      PUSH [tag] 743\t\t\t\n      JUMPI \t\t\t\n      PUSH [tag] 744\t\t\t\n      DUP4 \t\t\t\n      PUSH [tag] 687\t\t\t\n      PUSH 1\t\t\t\n      DUP5 \t\t\t\n      PUSH [tag] 435\t\t\t\n      JUMP \t\t\t\n    tag 744\t\t\t\n      JUMPDEST \t\t\t\n      SLOAD \t\t\t\n      PUSH 1\t\t\t\n      PUSH 30\t\t\t\n      SHL \t\t\t\n      SWAP1 \t\t\t\n      DIV \t\t\t\n      PUSH 1\t\t\t\n      PUSH 1\t\t\t\n      PUSH D0\t\t\t\n      SHL \t\t\t\n      SUB \t\t\t\n      AND \t\t\t\n      PUSH [tag] 544\t\t\t\n      JUMP \t\t\t\n    tag 743\t\t\t\n      JUMPDEST \t\t\t\n      PUSH 0\t\t\t\n      SWAP4 \t\t\t\n      SWAP3 \t\t\t\n      POP \t\t\t\n      POP \t\t\t\n      POP \t\t\t\n      JUMP \t\t\t\n    tag 510\t\t\t\n      JUMPDEST \t\t\t\n      PUSH B\t\t\t\n      SLOAD \t\t\t\n      PUSH 40\t\t\t\n      DUP1 \t\t\t\n      MLOAD \t\t\t\n      PUSH 1\t\t\t\n      PUSH 1\t\t\t\n      PUSH A0\t\t\t\n      SHL \t\t\t\n      SUB \t\t\t\n      SWAP3 \t\t\t\n      DUP4 \t\t\t\n      AND \t\t\t\n      DUP2 \t\t\t\n      MSTORE \t\t\t\n      SWAP2 \t\t\t\n      DUP4 \t\t\t\n      AND \t\t\t\n      PUSH 20\t\t\t\n      DUP4 \t\t\t\n      ADD \t\t\t\n      MSTORE \t\t\t\n      PUSH 8F74EA46EF7894F65EABFB5E6E695DE773A000B47C529AB559178069B226401\t\t\t\n      SWAP2 \t\t\t\n      ADD \t\t\t\n      PUSH 40\t\t\t\n      MLOAD \t\t\t\n      DUP1 \t\t\t\n      SWAP2 \t\t\t\n      SUB \t\t\t\n      SWAP1 \t\t\t\n      LOG1 \t\t\t\n      PUSH B\t\t\t\n      DUP1 \t\t\t\n      SLOAD \t\t\t\n      PUSH 1\t\t\t\n      PUSH 1\t\t\t\n      PUSH A0\t\t\t\n      SHL \t\t\t\n      SUB \t\t\t\n      NOT \t\t\t\n      AND \t\t\t\n      PUSH 1\t\t\t\n      PUSH 1\t\t\t\n      PUSH A0\t\t\t\n      SHL \t\t\t\n      SUB \t\t\t\n      SWAP3 \t\t\t\n      SWAP1 \t\t\t\n      SWAP3 \t\t\t\n      AND \t\t\t\n      SWAP2 \t\t\t\n      SWAP1 \t\t\t\n      SWAP2 \t\t\t\n      OR \t\t\t\n      SWAP1 \t\t\t\n      SSTORE \t\t\t\n      JUMP \t\t\t\n    tag 532\t\t\t\n      JUMPDEST \t\t\t\n      PUSH 60\t\t\t\n      DUP3 \t\t\t\n      PUSH [tag] 753\t\t\t\n      JUMPI \t\t\t\n      PUSH [tag] 754\t\t\t\n      DUP3 \t\t\t\n      PUSH [tag] 755\t\t\t\n      JUMP \t\t\t\n    tag 754\t\t\t\n      JUMPDEST \t\t\t\n      PUSH [tag] 317\t\t\t\n      JUMP \t\t\t\n    tag 753\t\t\t\n      JUMPDEST \t\t\t\n      POP \t\t\t\n      DUP1 \t\t\t\n      PUSH [tag] 317\t\t\t\n      JUMP \t\t\t\n    tag 542\t\t\ty calldatas,\\n        bytes32 ...\n      JUMPDEST \t\t\ty calldatas,\\n        bytes32 ...\n      DUP1 \t\t\tvernorTimelockC\n      PUSH FFFFFFFF\t\t\tvernorTimelockContro\n      AND \t\t\tvernorTimelockContro\n      PUSH 0\t\t\to\n      SUB \t\t\tvernorTimelockContro\n      PUSH [tag] 758\t\t\t, GovernorTimelockControl) {\\n...\n      JUMPI \t\t\t, GovernorTimelockControl) {\\n...\n      PUSH 40\t\t\tcuteOperations(\\n            p...\n      MLOAD \t\t\tcuteOperations(\\n            p...\n      PUSH F1CFBF05\t\t\t\n      PUSH E0\t\t\t\n      SHL \t\t\t\n      DUP2 \t\t\tcuteOperations(\\n            p...\n      MSTORE \t\t\tcuteOperations(\\n            p...\n      PUSH 0\t\t\tp\n      PUSH 4\t\t\tcuteOperations(\\n            p...\n      DUP3 \t\t\tcuteOperations(\\n            p...\n      ADD \t\t\tcuteOperations(\\n            p...\n      MSTORE \t\t\tgSimple,\\n    GovernorVote\n      PUSH 24\t\t\tttings,\\n    Govern\n      ADD \t\t\tttings,\\n    Govern\n      PUSH [tag] 396\t\t\tcuteOperations(\\n            p...\n      JUMP \t\t\tts@5.0.1/governance/extensions...\n    tag 758\t\t\t, GovernorTimelockControl) {\\n...\n      JUMPDEST \t\t\t, GovernorTimelockControl) {\\n...\n      PUSH 8\t\t\t  values,\\n   \n      SLOAD \t\t\t  values,\\n   \n      PUSH 40\t\t\tgets,\\n            values,\\n  ...\n      DUP1 \t\t\tgets,\\n            values,\\n  ...\n      MLOAD \t\t\tgets,\\n            values,\\n  ...\n      PUSH FFFFFFFF\t\t\t  values,\\n   \n      PUSH 1\t\t\t\n      PUSH 30\t\t\t\n      SHL \t\t\t\n      SWAP1 \t\t\t  values,\\n   \n      SWAP4 \t\t\t  values,\\n   \n      DIV \t\t\t  values,\\n   \n      DUP4 \t\t\t  values,\\n   \n      AND \t\t\t  values,\\n   \n      DUP2 \t\t\t\n      MSTORE \t\t\t\n      SWAP2 \t\t\t\n      DUP4 \t\t\t\n      AND \t\t\t\n      PUSH 20\t\t\t\n      DUP4 \t\t\t\n      ADD \t\t\t\n      MSTORE \t\t\t\n      PUSH 7E3F7F0708A84DE9203036ABAA450DCCC85AD5FF52F78C170F3EDB55CF5E8828\t\t\tgets,\\n            values,\\n  ...\n      SWAP2 \t\t\tgets,\\n            values,\\n  ...\n      ADD \t\t\t\n      PUSH 40\t\t\tgets,\\n            values,\\n  ...\n      MLOAD \t\t\tgets,\\n            values,\\n  ...\n      DUP1 \t\t\tgets,\\n            values,\\n  ...\n      SWAP2 \t\t\tgets,\\n            values,\\n  ...\n      SUB \t\t\tgets,\\n            values,\\n  ...\n      SWAP1 \t\t\tgets,\\n            values,\\n  ...\n      LOG1 \t\t\tgets,\\n            values,\\n  ...\n      PUSH 8\t\t\t    descripti\n      DUP1 \t\t\t    descriptionHash\\n        )...\n      SLOAD \t\t\t    descriptionHash\\n        )...\n      PUSH FFFFFFFF\t\t\t    descriptionHash\\n        )...\n      SWAP1 \t\t\t    descriptionHash\\n        )...\n      SWAP3 \t\t\t    descriptionHash\\n        )...\n      AND \t\t\t    descriptionHash\\n        )...\n      PUSH 1\t\t\t\n      PUSH 30\t\t\t\n      SHL \t\t\t\n      MUL \t\t\t    descriptionHash\\n        )...\n      PUSH FFFFFFFF000000000000\t\t\t\n      NOT \t\t\t\n      SWAP1 \t\t\t    descriptionHash\\n        )...\n      SWAP3 \t\t\t    descriptionHash\\n        )...\n      AND \t\t\t    descriptionHash\\n        )...\n      SWAP2 \t\t\t    descriptionHash\\n        )...\n      SWAP1 \t\t\t    descriptionHash\\n        )...\n      SWAP2 \t\t\t    descriptionHash\\n        )...\n      OR \t\t\t    descriptionHash\\n        )...\n      SWAP1 \t\t\t    descriptionHash\\n        )...\n      SSTORE \t\t\t    descriptionHash\\n        )...\n      JUMP \t\t\ty calldatas,\\n        bytes32 ...\n    tag 551\t\t\t bytes32 descriptionHash\\n    ...\n      JUMPDEST \t\t\t bytes32 descriptionHash\\n    ...\n      PUSH 7\t\t\tturn super._cancel\n      SLOAD \t\t\tturn super._cancel\n      PUSH 40\t\t\tuint256) {\\n        return sup...\n      DUP1 \t\t\tuint256) {\\n        return sup...\n      MLOAD \t\t\tuint256) {\\n        return sup...\n      SWAP2 \t\t\t\n      DUP3 \t\t\t\n      MSTORE \t\t\t\n      PUSH 20\t\t\t\n      DUP3 \t\t\t\n      ADD \t\t\t\n      DUP4 \t\t\t\n      SWAP1 \t\t\t\n      MSTORE \t\t\t\n      PUSH CCB45DA8D5717E6C4544694297C4BA5CF151D455C9BB0ED4FC7A38411BC05461\t\t\tuint256) {\\n        return sup...\n      SWAP2 \t\t\tuint256) {\\n        return sup...\n      ADD \t\t\t\n      PUSH 40\t\t\tuint256) {\\n        return sup...\n      MLOAD \t\t\tuint256) {\\n        return sup...\n      DUP1 \t\t\tuint256) {\\n        return sup...\n      SWAP2 \t\t\tuint256) {\\n        return sup...\n      SUB \t\t\tuint256) {\\n        return sup...\n      SWAP1 \t\t\tuint256) {\\n        return sup...\n      LOG1 \t\t\tuint256) {\\n        return sup...\n      PUSH 7\t\t\triptionHash);\\n    \n      SSTORE \t\t\triptionHash);\\n    }\\n\\n    fu...\n      JUMP \t\t\t bytes32 descriptionHash\\n    ...\n    tag 557\t\t\teueOperations(\\n              ...\n      JUMPDEST \t\t\teueOperations(\\n              ...\n      PUSH 0\t\t\t       \n      PUSH 64\t\t\t   \n      PUSH [tag] 768\t\t\tiptionHash\\n            );\\n\n      DUP4 \t\t\t       );\n      PUSH [tag] 174\t\t\tiptionHash\\n    \n      JUMP \t\t\tiptionHash\\n            );\\n\n    tag 768\t\t\tiptionHash\\n            );\\n\n      JUMPDEST \t\t\tiptionHash\\n            );\\n\n      PUSH 40\t\t\t        calldatas,\\n          ...\n      MLOAD \t\t\t        calldatas,\\n          ...\n      PUSH 2394E7A3\t\t\t\n      PUSH E2\t\t\t\n      SHL \t\t\t\n      DUP2 \t\t\t        calldatas,\\n          ...\n      MSTORE \t\t\t        calldatas,\\n          ...\n      PUSH 4\t\t\t        calldatas,\\n          ...\n      DUP2 \t\t\t        calldatas,\\n          ...\n      ADD \t\t\t        calldatas,\\n          ...\n      DUP6 \t\t\tgSimple,\\n    GovernorVote\n      SWAP1 \t\t\tgSimple,\\n    GovernorVote\n      MSTORE \t\t\tgSimple,\\n    GovernorVote\n      PUSH 1\t\t\t\n      PUSH 1\t\t\t\n      PUSH A0\t\t\t\n      SHL \t\t\t\n      SUB \t\t\t\n      PUSHIMMUTABLE 4433\t\t\tod,\\n  \n      AND \t\t\t        calldatas,\\n       \n      SWAP1 \t\t\t        calldatas,\\n       \n      PUSH 8E539E8C\t\t\t        calldatas,\\n       \n      SWAP1 \t\t\t        calldatas,\\n       \n      PUSH 24\t\t\tttings,\\n    Govern\n      ADD \t\t\tttings,\\n    Govern\n      PUSH 20\t\t\t        calldatas,\\n          ...\n      PUSH 40\t\t\t        calldatas,\\n          ...\n      MLOAD \t\t\t        calldatas,\\n          ...\n      DUP1 \t\t\t        calldatas,\\n          ...\n      DUP4 \t\t\t        calldatas,\\n          ...\n      SUB \t\t\t        calldatas,\\n          ...\n      DUP2 \t\t\t        calldatas,\\n          ...\n      DUP7 \t\t\t        calldatas,\\n          ...\n      GAS \t\t\t        calldatas,\\n          ...\n      STATICCALL \t\t\t        calldatas,\\n          ...\n      ISZERO \t\t\t        calldatas,\\n          ...\n      DUP1 \t\t\t        calldatas,\\n          ...\n      ISZERO \t\t\t        calldatas,\\n          ...\n      PUSH [tag] 772\t\t\t        calldatas,\\n          ...\n      JUMPI \t\t\t        calldatas,\\n          ...\n      RETURNDATASIZE \t\t\t        calldatas,\\n          ...\n      PUSH 0\t\t\t        calldatas,\\n          ...\n      DUP1 \t\t\t        calldatas,\\n          ...\n      RETURNDATACOPY \t\t\t        calldatas,\\n          ...\n      RETURNDATASIZE \t\t\t        calldatas,\\n          ...\n      PUSH 0\t\t\t        calldatas,\\n          ...\n      REVERT \t\t\t        calldatas,\\n          ...\n    tag 772\t\t\t        calldatas,\\n          ...\n      JUMPDEST \t\t\t        calldatas,\\n          ...\n      POP \t\t\t        calldatas,\\n          ...\n      POP \t\t\t        calldatas,\\n          ...\n      POP \t\t\t        calldatas,\\n          ...\n      POP \t\t\t        calldatas,\\n          ...\n      PUSH 40\t\t\t        calldatas,\\n          ...\n      MLOAD \t\t\t        calldatas,\\n          ...\n      RETURNDATASIZE \t\t\t        calldatas,\\n          ...\n      PUSH 1F\t\t\t        calldatas,\\n          ...\n      NOT \t\t\t        calldatas,\\n          ...\n      PUSH 1F\t\t\t        calldatas,\\n          ...\n      DUP3 \t\t\t        calldatas,\\n          ...\n      ADD \t\t\t        calldatas,\\n          ...\n      AND \t\t\t        calldatas,\\n          ...\n      DUP3 \t\t\t        calldatas,\\n          ...\n      ADD \t\t\t        calldatas,\\n          ...\n      DUP1 \t\t\t        calldatas,\\n          ...\n      PUSH 40\t\t\t        calldatas,\\n          ...\n      MSTORE \t\t\t        calldatas,\\n          ...\n      POP \t\t\t        calldatas,\\n          ...\n      DUP2 \t\t\t        calldatas,\\n          ...\n      ADD \t\t\t        calldatas,\\n          ...\n      SWAP1 \t\t\t        calldatas,\\n          ...\n      PUSH [tag] 773\t\t\t        calldatas,\\n          ...\n      SWAP2 \t\t\t        calldatas,\\n          ...\n      SWAP1 \t\t\t        calldatas,\\n          ...\n      PUSH [tag] 741\t\t\t        calldatas,\\n          ...\n      JUMP \t\t\t        calldatas,\\n          ...\n    tag 773\t\t\t        calldatas,\\n          ...\n      JUMPDEST \t\t\t        calldatas,\\n          ...\n      PUSH [tag] 774\t\t\t        calldatas,\\n          ...\n      SWAP2 \t\t\t        calldatas,\\n          ...\n      SWAP1 \t\t\t        calldatas,\\n          ...\n      PUSH [tag] 775\t\t\t        calldatas,\\n          ...\n      JUMP \t\t\t        calldatas,\\n          ...\n    tag 774\t\t\t        calldatas,\\n          ...\n      JUMPDEST \t\t\t        calldatas,\\n          ...\n      PUSH [tag] 317\t\t\t         calldatas,\\n         ...\n      SWAP2 \t\t\t         calldatas,\\n         ...\n      SWAP1 \t\t\t         calldatas,\\n         ...\n      PUSH [tag] 777\t\t\t         calldatas,\\n         ...\n      JUMP \t\t\t         calldatas,\\n         ...\n    tag 576\t\t\tes32 descriptionHash\\n    ) in...\n      JUMPDEST \t\t\tes32 descriptionHash\\n    ) in...\n      DUP1 \t\t\tts, values, \n      SLOAD \t\t\tts, values, \n      PUSH 0\t\t\timelockContro\n      SWAP1 \t\t\timelockContro\n      PUSH 1\t\t\t\n      PUSH 1\t\t\t\n      PUSH 80\t\t\t\n      SHL \t\t\t\n      SUB \t\t\t\n      DUP1 \t\t\tts, values, \n      DUP3 \t\t\tts, values, \n      AND \t\t\tts, values, \n      SWAP2 \t\t\tts, values, \n      PUSH 1\t\t\t\n      PUSH 80\t\t\t\n      SHL \t\t\t\n      SWAP1 \t\t\t }\\n\\n    fu\n      DIV \t\t\t }\\n\\n    fu\n      AND \t\t\t }\\n\\n    fu\n      DUP2 \t\t\ttionHash);\\n    }\\n\\n    fu\n      SUB \t\t\ttionHash);\\n    }\\n\\n    fu\n      PUSH [tag] 780\t\t\tcriptionHash);\\n    }\\n\\n    f...\n      JUMPI \t\t\tcriptionHash);\\n    }\\n\\n    f...\n      PUSH 40\t\t\txecutor()\\n  \n      MLOAD \t\t\txecutor()\\n  \n      PUSH 75E52F4F\t\t\t\n      PUSH E0\t\t\t\n      SHL \t\t\t\n      DUP2 \t\t\txecutor()\\n  \n      MSTORE \t\t\txecutor()\\n  \n      PUSH 4\t\t\txecutor()\\n  \n      ADD \t\t\txecutor()\\n  \n      PUSH 40\t\t\txecutor()\\n  \n      MLOAD \t\t\txecutor()\\n  \n      DUP1 \t\t\txecutor()\\n  \n      SWAP2 \t\t\txecutor()\\n  \n      SUB \t\t\txecutor()\\n  \n      SWAP1 \t\t\txecutor()\\n  \n      REVERT \t\t\txecutor()\\n  \n    tag 780\t\t\tcriptionHash);\\n    }\\n\\n    f...\n      JUMPDEST \t\t\tcriptionHash);\\n    }\\n\\n    f...\n      PUSH 1\t\t\t\n      PUSH 1\t\t\t\n      PUSH 80\t\t\t\n      SHL \t\t\t\n      SUB \t\t\t\n      DUP2 \t\t\t view\\n        override(\n      DUP2 \t\t\t view\\n        override(\n      AND \t\t\t view\\n        override(\n      PUSH 0\t\t\t view\\n        override(\n      SWAP1 \t\t\t view\\n        override(\n      DUP2 \t\t\t view\\n        override(\n      MSTORE \t\t\t view\\n        override(\n      PUSH 1\t\t\t view\\n     \n      DUP6 \t\t\t view\\n     \n      DUP2 \t\t\t view\\n     \n      ADD \t\t\t view\\n     \n      PUSH 20\t\t\t view\\n        override(\n      MSTORE \t\t\t view\\n        override(\n      PUSH 40\t\t\t view\\n        override(\n      DUP3 \t\t\t view\\n        override(\n      KECCAK256 \t\t\t view\\n        override(\n      DUP1 \t\t\t view\\n        override(\n      SLOAD \t\t\t view\\n        override(\n      SWAP3 \t\t\trnorTimelockControl)\\n        ...\n      SWAP1 \t\t\trnorTimelockControl)\\n        ...\n      SSTORE \t\t\trnorTimelockControl)\\n        ...\n      DUP6 \t\t\ts)\\n    {\\n        return supe...\n      SLOAD \t\t\ts)\\n    {\\n        return supe...\n      PUSH FFFFFFFFFFFFFFFFFFFFFFFFFFFFFFFF\t\t\t\n      NOT \t\t\t\n      AND \t\t\ts)\\n    {\\n        return supe...\n      SWAP4 \t\t\t  return super\n      ADD \t\t\t  return super\n      SWAP1 \t\t\ts)\\n    {\\n        return supe...\n      SWAP2 \t\t\ts)\\n    {\\n        return supe...\n      AND \t\t\ts)\\n    {\\n        return supe...\n      SWAP2 \t\t\ts)\\n    {\\n        return supe...\n      SWAP1 \t\t\ts)\\n    {\\n        return supe...\n      SWAP2 \t\t\ts)\\n    {\\n        return supe...\n      OR \t\t\ts)\\n    {\\n        return supe...\n      SWAP1 \t\t\ts)\\n    {\\n        return supe...\n      SWAP3 \t\t\ts)\\n    {\\n        return supe...\n      SSTORE \t\t\ts)\\n    {\\n        return supe...\n      POP \t\t\t\n      SWAP1 \t\t\t view\\n        override(\n      JUMP \t\t\tes32 descriptionHash\\n    ) in...\n    tag 586\t\t\t\n      JUMPDEST \t\t\t\n      PUSH 0\t\t\t\n      PUSH 1\t\t\t\n      PUSH 1\t\t\t\n      PUSH D0\t\t\t\n      SHL \t\t\t\n      SUB \t\t\t\n      DUP3 \t\t\t\n      GT \t\t\t\n      ISZERO \t\t\t\n      PUSH [tag] 669\t\t\t\n      JUMPI \t\t\t\n      PUSH 40\t\t\t\n      MLOAD \t\t\t\n      PUSH 6DFCC65\t\t\t\n      PUSH E4\t\t\t\n      SHL \t\t\t\n      DUP2 \t\t\t\n      MSTORE \t\t\t\n      PUSH D0\t\t\t\n      PUSH 4\t\t\t\n      DUP3 \t\t\t\n      ADD \t\t\t\n      MSTORE \t\t\t\n      PUSH 24\t\t\t\n      DUP2 \t\t\t\n      ADD \t\t\t\n      DUP4 \t\t\t\n      SWAP1 \t\t\t\n      MSTORE \t\t\t\n      PUSH 44\t\t\t\n      ADD \t\t\t\n      PUSH [tag] 396\t\t\t\n      JUMP \t\t\t\n    tag 587\t\t\t\n      JUMPDEST \t\t\t\n      PUSH 0\t\t\t\n      DUP1 \t\t\t\n      PUSH [tag] 786\t\t\t\n      DUP6 \t\t\t\n      DUP6 \t\t\t\n      DUP6 \t\t\t\n      PUSH [tag] 787\t\t\t\n      JUMP \t\t\t\n    tag 786\t\t\t\n      JUMPDEST \t\t\t\n      SWAP2 \t\t\t\n      POP \t\t\t\n      SWAP2 \t\t\t\n      POP \t\t\t\n    tag 785\t\t\t\n      JUMPDEST \t\t\t\n      SWAP4 \t\t\t\n      POP \t\t\t\n      SWAP4 \t\t\t\n      SWAP2 \t\t\t\n      POP \t\t\t\n      POP \t\t\t\n      JUMP \t\t\t\n    tag 601\t\t\trTimelockControl) returns (uin...\n      JUMPDEST \t\t\trTimelockControl) returns (uin...\n      PUSH 0\t\t\t      \n      DUP1 \t\t\tress)\\n    {\\n \n      PUSH B\t\t\t    retur\n      PUSH 0\t\t\t    retur\n      SWAP1 \t\t\t    retur\n      SLOAD \t\t\t    retur\n      SWAP1 \t\t\t    retur\n      PUSH 100\t\t\t    retur\n      EXP \t\t\t    retur\n      SWAP1 \t\t\t    retur\n      DIV \t\t\t    retur\n      PUSH 1\t\t\t\n      PUSH 1\t\t\t\n      PUSH A0\t\t\t\n      SHL \t\t\t\n      SUB \t\t\t\n      AND \t\t\t    retur\n      PUSH 1\t\t\t\n      PUSH 1\t\t\t\n      PUSH A0\t\t\t\n      SHL \t\t\t\n      SUB \t\t\t\n      AND \t\t\t    return super._exe\n      PUSH F27A0C92\t\t\t    return super._exe\n      PUSH 40\t\t\t    return super._execu\n      MLOAD \t\t\t    return super._execu\n      DUP2 \t\t\t    return super._execu\n      PUSH FFFFFFFF\t\t\t    return super._execu\n      AND \t\t\t    return super._execu\n      PUSH E0\t\t\t    return super._execu\n      SHL \t\t\t    return super._execu\n      DUP2 \t\t\t    return super._execu\n      MSTORE \t\t\t    return super._execu\n      PUSH 4\t\t\t    return super._execu\n      ADD \t\t\t    return super._execu\n      PUSH 20\t\t\t    return super._execu\n      PUSH 40\t\t\t    return super._execu\n      MLOAD \t\t\t    return super._execu\n      DUP1 \t\t\t    return super._execu\n      DUP4 \t\t\t    return super._execu\n      SUB \t\t\t    return super._execu\n      DUP2 \t\t\t    return super._execu\n      DUP7 \t\t\t    return super._execu\n      GAS \t\t\t    return super._execu\n      STATICCALL \t\t\t    return super._execu\n      ISZERO \t\t\t    return super._execu\n      DUP1 \t\t\t    return super._execu\n      ISZERO \t\t\t    return super._execu\n      PUSH [tag] 790\t\t\t    return super._execu\n      JUMPI \t\t\t    return super._execu\n      RETURNDATASIZE \t\t\t    return super._execu\n      PUSH 0\t\t\t    return super._execu\n      DUP1 \t\t\t    return super._execu\n      RETURNDATACOPY \t\t\t    return super._execu\n      RETURNDATASIZE \t\t\t    return super._execu\n      PUSH 0\t\t\t    return super._execu\n      REVERT \t\t\t    return super._execu\n    tag 790\t\t\t    return super._execu\n      JUMPDEST \t\t\t    return super._execu\n      POP \t\t\t    return super._execu\n      POP \t\t\t    return super._execu\n      POP \t\t\t    return super._execu\n      POP \t\t\t    return super._execu\n      PUSH 40\t\t\t    return super._execu\n      MLOAD \t\t\t    return super._execu\n      RETURNDATASIZE \t\t\t    return super._execu\n      PUSH 1F\t\t\t    return super._execu\n      NOT \t\t\t    return super._execu\n      PUSH 1F\t\t\t    return super._execu\n      DUP3 \t\t\t    return super._execu\n      ADD \t\t\t    return super._execu\n      AND \t\t\t    return super._execu\n      DUP3 \t\t\t    return super._execu\n      ADD \t\t\t    return super._execu\n      DUP1 \t\t\t    return super._execu\n      PUSH 40\t\t\t    return super._execu\n      MSTORE \t\t\t    return super._execu\n      POP \t\t\t    return super._execu\n      DUP2 \t\t\t    return super._execu\n      ADD \t\t\t    return super._execu\n      SWAP1 \t\t\t    return super._execu\n      PUSH [tag] 791\t\t\t    return super._execu\n      SWAP2 \t\t\t    return super._execu\n      SWAP1 \t\t\t    return super._execu\n      PUSH [tag] 741\t\t\t    return super._execu\n      JUMP \t\t\t    return super._execu\n    tag 791\t\t\t    return super._execu\n      JUMPDEST \t\t\t    return super._execu\n      SWAP1 \t\t\tress)\\n    {\\n        return s...\n      POP \t\t\t\n      PUSH 0\t\t\t}\\n}\\n\n      ADDRESS \t\t\t\n      PUSH 60\t\t\t\n      SHL \t\t\t\n      PUSH FFFFFFFFFFFFFFFFFFFFFFFF\t\t\t\n      NOT \t\t\t\n      AND \t\t\t\n      DUP5 \t\t\t\n      XOR \t\t\t\n      PUSH B\t\t\t\n      SLOAD \t\t\t\n      PUSH 40\t\t\t\n      MLOAD \t\t\t\n      PUSH B1C5F427\t\t\t\n      PUSH E0\t\t\t\n      SHL \t\t\t\n      DUP2 \t\t\t\n      MSTORE \t\t\t\n      SWAP2 \t\t\t}\\n}\\n\n      SWAP3 \t\t\t}\\n}\\n\n      POP \t\t\t\n      PUSH 1\t\t\t\n      PUSH 1\t\t\t\n      PUSH A0\t\t\t\n      SHL \t\t\t\n      SUB \t\t\t\n      AND \t\t\t\n      SWAP1 \t\t\t\n      PUSH B1C5F427\t\t\t\n      SWAP1 \t\t\t\n      PUSH [tag] 794\t\t\t\n      SWAP1 \t\t\t\n      DUP11 \t\t\t\n      SWAP1 \t\t\t\n      DUP11 \t\t\t\n      SWAP1 \t\t\t\n      DUP11 \t\t\t\n      SWAP1 \t\t\t\n      PUSH 0\t\t\t\n      SWAP1 \t\t\t\n      DUP9 \t\t\t}\\n}\\n\n      SWAP1 \t\t\t}\\n}\\n\n      PUSH 4\t\t\t\n      ADD \t\t\t\n      PUSH [tag] 795\t\t\t\n      JUMP \t\t\t\n    tag 794\t\t\t\n      JUMPDEST \t\t\t\n      PUSH 20\t\t\t\n      PUSH 40\t\t\t\n      MLOAD \t\t\t\n      DUP1 \t\t\t\n      DUP4 \t\t\t\n      SUB \t\t\t\n      DUP2 \t\t\t\n      DUP7 \t\t\t\n      GAS \t\t\t\n      STATICCALL \t\t\t\n      ISZERO \t\t\t\n      DUP1 \t\t\t\n      ISZERO \t\t\t\n      PUSH [tag] 797\t\t\t\n      JUMPI \t\t\t\n      RETURNDATASIZE \t\t\t\n      PUSH 0\t\t\t\n      DUP1 \t\t\t\n      RETURNDATACOPY \t\t\t\n      RETURNDATASIZE \t\t\t\n      PUSH 0\t\t\t\n      REVERT \t\t\t\n    tag 797\t\t\t\n      JUMPDEST \t\t\t\n      POP \t\t\t\n      POP \t\t\t\n      POP \t\t\t\n      POP \t\t\t\n      PUSH 40\t\t\t\n      MLOAD \t\t\t\n      RETURNDATASIZE \t\t\t\n      PUSH 1F\t\t\t\n      NOT \t\t\t\n      PUSH 1F\t\t\t\n      DUP3 \t\t\t\n      ADD \t\t\t\n      AND \t\t\t\n      DUP3 \t\t\t\n      ADD \t\t\t\n      DUP1 \t\t\t\n      PUSH 40\t\t\t\n      MSTORE \t\t\t\n      POP \t\t\t\n      DUP2 \t\t\t\n      ADD \t\t\t\n      SWAP1 \t\t\t\n      PUSH [tag] 798\t\t\t\n      SWAP2 \t\t\t\n      SWAP1 \t\t\t\n      PUSH [tag] 741\t\t\t\n      JUMP \t\t\t\n    tag 798\t\t\t\n      JUMPDEST \t\t\t\n      PUSH 0\t\t\t\n      DUP10 \t\t\t\n      DUP2 \t\t\t\n      MSTORE \t\t\t\n      PUSH C\t\t\t\n      PUSH 20\t\t\t\n      MSTORE \t\t\t\n      PUSH 40\t\t\t\n      DUP1 \t\t\t\n      DUP3 \t\t\t\n      KECCAK256 \t\t\t\n      SWAP3 \t\t\t\n      SWAP1 \t\t\t\n      SWAP3 \t\t\t\n      SSTORE \t\t\t\n      PUSH B\t\t\t\n      SLOAD \t\t\t\n      SWAP2 \t\t\t\n      MLOAD \t\t\t\n      PUSH 8F2A0BB\t\t\t\n      PUSH E4\t\t\t\n      SHL \t\t\t\n      DUP2 \t\t\t\n      MSTORE \t\t\t\n      PUSH 1\t\t\t\n      PUSH 1\t\t\t\n      PUSH A0\t\t\t\n      SHL \t\t\t\n      SUB \t\t\t\n      SWAP1 \t\t\t\n      SWAP3 \t\t\t\n      AND \t\t\t\n      SWAP2 \t\t\t\n      PUSH 8F2A0BB0\t\t\t\n      SWAP2 \t\t\t\n      PUSH [tag] 800\t\t\t\n      SWAP2 \t\t\t\n      DUP12 \t\t\t\n      SWAP2 \t\t\t\n      DUP12 \t\t\t\n      SWAP2 \t\t\t\n      DUP12 \t\t\t\n      SWAP2 \t\t\t\n      SWAP1 \t\t\t\n      DUP9 \t\t\t\n      SWAP1 \t\t\t\n      DUP11 \t\t\t\n      SWAP1 \t\t\t\n      PUSH 4\t\t\t\n      ADD \t\t\t\n      PUSH [tag] 801\t\t\t\n      JUMP \t\t\t\n    tag 800\t\t\t\n      JUMPDEST \t\t\t\n      PUSH 0\t\t\t\n      PUSH 40\t\t\t\n      MLOAD \t\t\t\n      DUP1 \t\t\t\n      DUP4 \t\t\t\n      SUB \t\t\t\n      DUP2 \t\t\t\n      PUSH 0\t\t\t\n      DUP8 \t\t\t\n      DUP1 \t\t\t\n      EXTCODESIZE \t\t\t\n      ISZERO \t\t\t\n      DUP1 \t\t\t\n      ISZERO \t\t\t\n      PUSH [tag] 802\t\t\t\n      JUMPI \t\t\t\n      PUSH 0\t\t\t\n      DUP1 \t\t\t\n      REVERT \t\t\t\n    tag 802\t\t\t\n      JUMPDEST \t\t\t\n      POP \t\t\t\n      GAS \t\t\t\n      CALL \t\t\t\n      ISZERO \t\t\t\n      DUP1 \t\t\t\n      ISZERO \t\t\t\n      PUSH [tag] 804\t\t\t\n      JUMPI \t\t\t\n      RETURNDATASIZE \t\t\t\n      PUSH 0\t\t\t\n      DUP1 \t\t\t\n      RETURNDATACOPY \t\t\t\n      RETURNDATASIZE \t\t\t\n      PUSH 0\t\t\t\n      REVERT \t\t\t\n    tag 804\t\t\t\n      JUMPDEST \t\t\t\n      POP \t\t\t\n      POP \t\t\t\n      POP \t\t\t\n      POP \t\t\t\n      PUSH [tag] 466\t\t\t\n      DUP3 \t\t\t\n      TIMESTAMP \t\t\t\n      PUSH [tag] 806\t\t\t\n      SWAP2 \t\t\t\n      SWAP1 \t\t\t\n      PUSH [tag] 682\t\t\t\n      JUMP \t\t\t\n    tag 806\t\t\t\n      JUMPDEST \t\t\t\n      PUSH [tag] 442\t\t\t\n      JUMP \t\t\t\n    tag 606\t\t\t\n      JUMPDEST \t\t\t\n      PUSH B\t\t\t\n      SLOAD \t\t\t\n      PUSH 1\t\t\t\n      PUSH 1\t\t\t\n      PUSH A0\t\t\t\n      SHL \t\t\t\n      SUB \t\t\t\n      AND \t\t\t\n      PUSH E38335E5\t\t\t\n      CALLVALUE \t\t\t\n      DUP7 \t\t\t\n      DUP7 \t\t\t\n      DUP7 \t\t\t\n      PUSH 0\t\t\t\n      ADDRESS \t\t\t\n      PUSH 60\t\t\t\n      SHL \t\t\t\n      PUSH FFFFFFFFFFFFFFFFFFFFFFFF\t\t\t\n      NOT \t\t\t\n      AND \t\t\t\n      DUP9 \t\t\t\n      XOR \t\t\t\n      PUSH 40\t\t\t\n      MLOAD \t\t\t\n      DUP8 \t\t\t\n      PUSH FFFFFFFF\t\t\t\n      AND \t\t\t\n      PUSH E0\t\t\t\n      SHL \t\t\t\n      DUP2 \t\t\t\n      MSTORE \t\t\t\n      PUSH 4\t\t\t\n      ADD \t\t\t\n      PUSH [tag] 809\t\t\t\n      SWAP6 \t\t\t\n      SWAP5 \t\t\t\n      SWAP4 \t\t\t\n      SWAP3 \t\t\t\n      SWAP2 \t\t\t\n      SWAP1 \t\t\t\n      PUSH [tag] 795\t\t\t\n      JUMP \t\t\t\n    tag 809\t\t\t\n      JUMPDEST \t\t\t\n      PUSH 0\t\t\t\n      PUSH 40\t\t\t\n      MLOAD \t\t\t\n      DUP1 \t\t\t\n      DUP4 \t\t\t\n      SUB \t\t\t\n      DUP2 \t\t\t\n      DUP6 \t\t\t\n      DUP9 \t\t\t\n      DUP1 \t\t\t\n      EXTCODESIZE \t\t\t\n      ISZERO \t\t\t\n      DUP1 \t\t\t\n      ISZERO \t\t\t\n      PUSH [tag] 810\t\t\t\n      JUMPI \t\t\t\n      PUSH 0\t\t\t\n      DUP1 \t\t\t\n      REVERT \t\t\t\n    tag 810\t\t\t\n      JUMPDEST \t\t\t\n      POP \t\t\t\n      GAS \t\t\t\n      CALL \t\t\t\n      ISZERO \t\t\t\n      DUP1 \t\t\t\n      ISZERO \t\t\t\n      PUSH [tag] 812\t\t\t\n      JUMPI \t\t\t\n      RETURNDATASIZE \t\t\t\n      PUSH 0\t\t\t\n      DUP1 \t\t\t\n      RETURNDATACOPY \t\t\t\n      RETURNDATASIZE \t\t\t\n      PUSH 0\t\t\t\n      REVERT \t\t\t\n    tag 812\t\t\t\n      JUMPDEST \t\t\t\n      POP \t\t\t\n      POP \t\t\t\n      POP \t\t\t\n      PUSH 0\t\t\t\n      SWAP7 \t\t\t\n      DUP8 \t\t\t\n      MSTORE \t\t\t\n      POP \t\t\t\n      POP \t\t\t\n      PUSH C\t\t\t\n      PUSH 20\t\t\t\n      MSTORE \t\t\t\n      POP \t\t\t\n      POP \t\t\t\n      PUSH 40\t\t\t\n      DUP4 \t\t\t\n      KECCAK256 \t\t\t\n      SWAP3 \t\t\t\n      SWAP1 \t\t\t\n      SWAP3 \t\t\t\n      SSTORE \t\t\t\n      POP \t\t\t\n      POP \t\t\t\n      JUMP \t\t\t\n    tag 612\t\t\t\n      JUMPDEST \t\t\t\n      PUSH 0\t\t\t\n      DUP2 \t\t\t\n      DUP2 \t\t\t\n      MSTORE \t\t\t\n      PUSH 4\t\t\t\n      PUSH 20\t\t\t\n      MSTORE \t\t\t\n      PUSH 40\t\t\t\n      DUP2 \t\t\t\n      KECCAK256 \t\t\t\n      DUP1 \t\t\t\n      SLOAD \t\t\t\n      PUSH FF\t\t\t\n      PUSH 1\t\t\t\n      PUSH F0\t\t\t\n      SHL \t\t\t\n      DUP3 \t\t\t\n      DIV \t\t\t\n      DUP2 \t\t\t\n      AND \t\t\t\n      SWAP2 \t\t\t\n      PUSH 1\t\t\t\n      PUSH F8\t\t\t\n      SHL \t\t\t\n      SWAP1 \t\t\t\n      DIV \t\t\t\n      AND \t\t\t\n      DUP2 \t\t\t\n      ISZERO \t\t\t\n      PUSH [tag] 814\t\t\t\n      JUMPI \t\t\t\n      POP \t\t\t\n      PUSH 7\t\t\t\n      SWAP5 \t\t\t\n      SWAP4 \t\t\t\n      POP \t\t\t\n      POP \t\t\t\n      POP \t\t\t\n      POP \t\t\t\n      JUMP \t\t\t\n    tag 814\t\t\t\n      JUMPDEST \t\t\t\n      DUP1 \t\t\t\n      ISZERO \t\t\t\n      PUSH [tag] 815\t\t\t\n      JUMPI \t\t\t\n      POP \t\t\t\n      PUSH 2\t\t\t\n      SWAP5 \t\t\t\n      SWAP4 \t\t\t\n      POP \t\t\t\n      POP \t\t\t\n      POP \t\t\t\n      POP \t\t\t\n      JUMP \t\t\t\n    tag 815\t\t\t\n      JUMPDEST \t\t\t\n      PUSH 0\t\t\t\n      PUSH [tag] 816\t\t\t\n      DUP7 \t\t\t\n      PUSH [tag] 111\t\t\t\n      JUMP \t\t\t\n    tag 816\t\t\t\n      JUMPDEST \t\t\t\n      SWAP1 \t\t\t\n      POP \t\t\t\n      DUP1 \t\t\t\n      PUSH 0\t\t\t\n      SUB \t\t\t\n      PUSH [tag] 817\t\t\t\n      JUMPI \t\t\t\n      PUSH 40\t\t\t\n      MLOAD \t\t\t\n      PUSH 6AD06075\t\t\t\n      PUSH E0\t\t\t\n      SHL \t\t\t\n      DUP2 \t\t\t\n      MSTORE \t\t\t\n      PUSH 4\t\t\t\n      DUP2 \t\t\t\n      ADD \t\t\t\n      DUP8 \t\t\tgSimple,\\n    GovernorVote\n      SWAP1 \t\t\tgSimple,\\n    GovernorVote\n      MSTORE \t\t\tgSimple,\\n    GovernorVote\n      PUSH 24\t\t\tttings,\\n    Govern\n      ADD \t\t\tttings,\\n    Govern\n      PUSH [tag] 396\t\t\t\n      JUMP \t\t\tts@5.0.1/governance/extensions...\n    tag 817\t\t\t\n      JUMPDEST \t\t\t\n      PUSH 0\t\t\t\n      PUSH [tag] 819\t\t\t\n      PUSH [tag] 212\t\t\t\n      JUMP \t\t\t\n    tag 819\t\t\t\n      JUMPDEST \t\t\t\n      PUSH FFFFFFFFFFFF\t\t\t\n      AND \t\t\t\n      SWAP1 \t\t\t\n      POP \t\t\t\n      DUP1 \t\t\t\n      DUP3 \t\t\t\n      LT \t\t\t\n      PUSH [tag] 820\t\t\t\n      JUMPI \t\t\t\n      POP \t\t\t\n      PUSH 0\t\t\t\n      SWAP7 \t\t\t\n      SWAP6 \t\t\t\n      POP \t\t\t\n      POP \t\t\t\n      POP \t\t\t\n      POP \t\t\t\n      POP \t\t\t\n      POP \t\t\t\n      JUMP \t\t\t\n    tag 820\t\t\t\n      JUMPDEST \t\t\t\n      PUSH 0\t\t\t\n      PUSH [tag] 821\t\t\t\n      DUP9 \t\t\t\n      PUSH [tag] 257\t\t\t\n      JUMP \t\t\t\n    tag 821\t\t\t\n      JUMPDEST \t\t\t\n      SWAP1 \t\t\t\n      POP \t\t\t\n      DUP2 \t\t\t\n      DUP2 \t\t\t\n      LT \t\t\t\n      PUSH [tag] 822\t\t\t\n      JUMPI \t\t\t\n      POP \t\t\t\n      PUSH 1\t\t\t\n      SWAP8 \t\t\t\n      SWAP7 \t\t\t\n      POP \t\t\t\n      POP \t\t\t\n      POP \t\t\t\n      POP \t\t\t\n      POP \t\t\t\n      POP \t\t\t\n      POP \t\t\t\n      JUMP \t\t\t\n    tag 822\t\t\t\n      JUMPDEST \t\t\t\n      PUSH [tag] 824\t\t\t\n      DUP9 \t\t\t\n      PUSH [tag] 825\t\t\t\n      JUMP \t\t\t\n    tag 824\t\t\t\n      JUMPDEST \t\t\t\n      ISZERO \t\t\t\n      DUP1 \t\t\t\n      PUSH [tag] 826\t\t\t\n      JUMPI \t\t\t\n      POP \t\t\t\n      PUSH 0\t\t\tlNee\n      DUP9 \t\t\tsalThreshold()\\n        pub\n      DUP2 \t\t\tsalThreshold()\\n        pub\n      MSTORE \t\t\tsalThreshold()\\n        pub\n      PUSH 9\t\t\tsalThreshold()\n      PUSH 20\t\t\tsalThreshold()\\n        pub\n      MSTORE \t\t\tsalThreshold()\\n        pub\n      PUSH 40\t\t\tsalThreshold()\\n        pub\n      SWAP1 \t\t\tsalThreshold()\\n        pub\n      KECCAK256 \t\t\tsalThreshold()\\n        pub\n      DUP1 \t\t\t, GovernorSettings)\\n     \n      SLOAD \t\t\t, GovernorSettings)\\n     \n      PUSH 1\t\t\t       override(Gover\n      SWAP1 \t\t\t       override(Gover\n      SWAP2 \t\t\t       override(Gover\n      ADD \t\t\t       override(Gover\n      SLOAD \t\t\t       override(Gover\n      GT \t\t\t       override(Governor, Gove...\n      ISZERO \t\t\t\n    tag 826\t\t\t\n      JUMPDEST \t\t\t\n      ISZERO \t\t\t\n      PUSH [tag] 829\t\t\t\n      JUMPI \t\t\t\n      POP \t\t\t\n      PUSH 3\t\t\t\n      SWAP8 \t\t\t\n      SWAP7 \t\t\t\n      POP \t\t\t\n      POP \t\t\t\n      POP \t\t\t\n      POP \t\t\t\n      POP \t\t\t\n      POP \t\t\t\n      POP \t\t\t\n      JUMP \t\t\t\n    tag 829\t\t\t\n      JUMPDEST \t\t\t\n      PUSH 0\t\t\t\n      DUP9 \t\t\t\n      DUP2 \t\t\t\n      MSTORE \t\t\t\n      PUSH 4\t\t\t\n      PUSH 20\t\t\t\n      MSTORE \t\t\t\n      PUSH 40\t\t\t\n      SWAP1 \t\t\t\n      KECCAK256 \t\t\t\n      PUSH 1\t\t\t\n      ADD \t\t\t\n      SLOAD \t\t\t\n      PUSH FFFFFFFFFFFF\t\t\t\n      AND \t\t\t\n      PUSH 0\t\t\t\n      SUB \t\t\t\n      PUSH [tag] 832\t\t\t\n      JUMPI \t\t\t\n      POP \t\t\t\n      PUSH 4\t\t\t\n      SWAP8 \t\t\t\n      SWAP7 \t\t\t\n      POP \t\t\t\n      POP \t\t\t\n      POP \t\t\t\n      POP \t\t\t\n      POP \t\t\t\n      POP \t\t\t\n      POP \t\t\t\n      JUMP \t\t\t\n    tag 832\t\t\t\n      JUMPDEST \t\t\t\n      POP \t\t\t\n      PUSH 5\t\t\t\n      SWAP8 \t\t\t\n      SWAP7 \t\t\t\n      POP \t\t\t\n      POP \t\t\t\n      POP \t\t\t\n      POP \t\t\t\n      POP \t\t\t\n      POP \t\t\t\n      POP \t\t\t\n      JUMP \t\t\t\n    tag 634\t\t\t\n      JUMPDEST \t\t\t\n      PUSH 0\t\t\t\n      DUP1 \t\t\t\n      PUSH [tag] 835\t\t\t\n      DUP7 \t\t\t\n      DUP7 \t\t\t\n      DUP7 \t\t\t\n      DUP7 \t\t\t\n      PUSH [tag] 836\t\t\t\n      JUMP \t\t\t\n    tag 835\t\t\t\n      JUMPDEST \t\t\t\n      PUSH 0\t\t\t\n      DUP2 \t\t\t\n      DUP2 \t\t\t\n      MSTORE \t\t\t\n      PUSH C\t\t\t\n      PUSH 20\t\t\t\n      MSTORE \t\t\t\n      PUSH 40\t\t\t\n      SWAP1 \t\t\t\n      KECCAK256 \t\t\t\n      SLOAD \t\t\t\n      SWAP1 \t\t\t\n      SWAP2 \t\t\t\n      POP \t\t\t\n      DUP1 \t\t\t\n      ISZERO \t\t\t\n      PUSH [tag] 350\t\t\t\n      JUMPI \t\t\t\n      PUSH B\t\t\t\n      SLOAD \t\t\t\n      PUSH 40\t\t\t\n      MLOAD \t\t\t\n      PUSH C4D252F5\t\t\t\n      PUSH E0\t\t\t\n      SHL \t\t\t\n      DUP2 \t\t\t\n      MSTORE \t\t\t\n      PUSH 4\t\t\t\n      DUP2 \t\t\t\n      ADD \t\t\t\n      DUP4 \t\t\tgSimple,\\n    GovernorVote\n      SWAP1 \t\t\tgSimple,\\n    GovernorVote\n      MSTORE \t\t\tgSimple,\\n    GovernorVote\n      PUSH 1\t\t\t\n      PUSH 1\t\t\t\n      PUSH A0\t\t\t\n      SHL \t\t\t\n      SUB \t\t\t\n      SWAP1 \t\t\t\n      SWAP2 \t\t\t\n      AND \t\t\t\n      SWAP1 \t\t\t\n      PUSH C4D252F5\t\t\t\n      SWAP1 \t\t\t\n      PUSH 24\t\t\tttings,\\n    Govern\n      ADD \t\t\tttings,\\n    Govern\n      PUSH 0\t\t\t\n      PUSH 40\t\t\t\n      MLOAD \t\t\t\n      DUP1 \t\t\t\n      DUP4 \t\t\t\n      SUB \t\t\t\n      DUP2 \t\t\t\n      PUSH 0\t\t\t\n      DUP8 \t\t\t\n      DUP1 \t\t\t\n      EXTCODESIZE \t\t\t\n      ISZERO \t\t\t\n      DUP1 \t\t\t\n      ISZERO \t\t\t\n      PUSH [tag] 839\t\t\t\n      JUMPI \t\t\t\n      PUSH 0\t\t\t\n      DUP1 \t\t\t\n      REVERT \t\t\t\n    tag 839\t\t\t\n      JUMPDEST \t\t\t\n      POP \t\t\t\n      GAS \t\t\t\n      CALL \t\t\t\n      ISZERO \t\t\t\n      DUP1 \t\t\t\n      ISZERO \t\t\t\n      PUSH [tag] 841\t\t\t\n      JUMPI \t\t\t\n      RETURNDATASIZE \t\t\t\n      PUSH 0\t\t\t\n      DUP1 \t\t\t\n      RETURNDATACOPY \t\t\t\n      RETURNDATASIZE \t\t\t\n      PUSH 0\t\t\t\n      REVERT \t\t\t\n    tag 841\t\t\t\n      JUMPDEST \t\t\t\n      POP \t\t\t\n      POP \t\t\t\n      POP \t\t\t\n      PUSH 0\t\t\t\n      DUP4 \t\t\t\n      DUP2 \t\t\t\n      MSTORE \t\t\t\n      PUSH C\t\t\t\n      PUSH 20\t\t\t\n      MSTORE \t\t\t\n      PUSH 40\t\t\t\n      DUP2 \t\t\t\n      KECCAK256 \t\t\t\n      SSTORE \t\t\t\n      POP \t\t\t\n      POP \t\t\t\n      SWAP1 \t\t\t\n      POP \t\t\t\n      SWAP5 \t\t\t\n      SWAP4 \t\t\t\n      POP \t\t\t\n      POP \t\t\t\n      POP \t\t\t\n      POP \t\t\t\n      JUMP \t\t\t\n    tag 642\t\t\t\n      JUMPDEST \t\t\t\n      PUSH 0\t\t\t\n      ADDRESS \t\t\t\n      PUSH 1\t\t\t\n      PUSH 1\t\t\t\n      PUSH A0\t\t\t\n      SHL \t\t\t\n      SUB \t\t\t\n      PUSHIMMUTABLE 6352\t\t\t\n      AND \t\t\t\n      EQ \t\t\t\n      DUP1 \t\t\t\n      ISZERO \t\t\t\n      PUSH [tag] 843\t\t\t\n      JUMPI \t\t\t\n      POP \t\t\t\n      PUSHIMMUTABLE 6350\t\t\t\n      CHAINID \t\t\t\n      EQ \t\t\t\n    tag 843\t\t\t\n      JUMPDEST \t\t\t\n      ISZERO \t\t\t\n      PUSH [tag] 844\t\t\t\n      JUMPI \t\t\t\n      POP \t\t\t\n      PUSHIMMUTABLE 6348\t\t\t\n      SWAP1 \t\t\t\n      JUMP \t\t\t\n    tag 844\t\t\t\n      JUMPDEST \t\t\t\n      PUSH [tag] 312\t\t\t\n      PUSH 40\t\t\t\n      DUP1 \t\t\t\n      MLOAD \t\t\t\n      PUSH 8B73C3C69BB8FE3D512ECC4CF759CC79239F7B179B0FFACAA9A75D522B39400F\t\t\t GovernorTimelockControl)\\n   ...\n      PUSH 20\t\t\t\n      DUP3 \t\t\t\n      ADD \t\t\t\n      MSTORE \t\t\t\n      PUSHIMMUTABLE 6354\t\t\t\n      SWAP2 \t\t\t\n      DUP2 \t\t\t\n      ADD \t\t\t\n      SWAP2 \t\t\t\n      SWAP1 \t\t\t\n      SWAP2 \t\t\t\n      MSTORE \t\t\t\n      PUSHIMMUTABLE 6356\t\t\t\n      PUSH 60\t\t\t\n      DUP3 \t\t\t\n      ADD \t\t\t\n      MSTORE \t\t\t\n      CHAINID \t\t\t\n      PUSH 80\t\t\t\n      DUP3 \t\t\t\n      ADD \t\t\t\n      MSTORE \t\t\t\n      ADDRESS \t\t\t\n      PUSH A0\t\t\t\n      DUP3 \t\t\t\n      ADD \t\t\t\n      MSTORE \t\t\t\n      PUSH 0\t\t\t\n      SWAP1 \t\t\t\n      PUSH C0\t\t\t\n      ADD \t\t\t\n      PUSH 40\t\t\t\n      MLOAD \t\t\t\n      PUSH 20\t\t\t\n      DUP2 \t\t\t\n      DUP4 \t\t\t\n      SUB \t\t\t\n      SUB \t\t\t\n      DUP2 \t\t\t\n      MSTORE \t\t\t\n      SWAP1 \t\t\t\n      PUSH 40\t\t\t\n      MSTORE \t\t\t\n      DUP1 \t\t\t\n      MLOAD \t\t\t\n      SWAP1 \t\t\t\n      PUSH 20\t\t\t\n      ADD \t\t\t\n      KECCAK256 \t\t\t\n      SWAP1 \t\t\t\n      POP \t\t\t\n      SWAP1 \t\t\t\n      JUMP \t\t\t\n    tag 646\t\t\t   {\\n        return super.pro...\n      JUMPDEST \t\t\t   {\\n        return super.pro...\n      PUSH 0\t\t\troposal\n      DUP1 \t\t\treshold()\\n  \n      PUSH 0\t\t\t    pub\n      DUP4 \t\t\t\\n        \n      MLOAD \t\t\t\\n        overrid\n      PUSH 41\t\t\tve\n      SUB \t\t\t\\n        override(Gove\n      PUSH [tag] 850\t\t\tview\\n        override(Governo...\n      JUMPI \t\t\tview\\n        override(Governo...\n      PUSH 20\t\t\terri\n      DUP5 \t\t\t  ) internal overrid\n      ADD \t\t\t  ) internal overrid\n      MLOAD \t\t\tash\\n    ) internal override\n      PUSH 40\t\t\t (ui\n      DUP6 \t\t\tontrol) returns (uin\n      ADD \t\t\tontrol) returns (uin\n      MLOAD \t\t\telockControl) returns (uint\n      PUSH 60\t\t\tions\n      DUP7 \t\t\ter._queueOperations(\n      ADD \t\t\ter._queueOperations(\n      MLOAD \t\t\t   super._queueOperations(\\n\n      PUSH 0\t\t\tttings)\\n \n      BYTE \t\t\t           super._queueOperati...\n      PUSH [tag] 851\t\t\t         targets,\\n       \n      DUP9 \t\t\trget\n      DUP3 \t\t\t           super._queueOperati...\n      DUP6 \t\t\tash\\n    ) internal override\n      DUP6 \t\t\telockControl) returns (uint\n      PUSH [tag] 852\t\t\t         t\n      JUMP \t\t\t         targets,\\n       \n    tag 851\t\t\t         targets,\\n       \n      JUMPDEST \t\t\t         targets,\\n       \n      SWAP6 \t\t\t                targets,\\n    ...\n      POP \t\t\t                targets,\\n    ...\n      SWAP6 \t\t\t                targets,\\n    ...\n      POP \t\t\t                targets,\\n    ...\n      SWAP6 \t\t\t                targets,\\n    ...\n      POP \t\t\t                targets,\\n    ...\n      POP \t\t\t                targets,\\n    ...\n      POP \t\t\t                targets,\\n    ...\n      POP \t\t\t                targets,\\n    ...\n      PUSH [tag] 853\t\t\t                targets,\\n    ...\n      JUMP \t\t\t                targets,\\n    ...\n    tag 850\t\t\tview\\n        override(Governo...\n      JUMPDEST \t\t\tview\\n        override(Governo...\n      POP \t\t\t\n      POP \t\t\t\n      DUP2 \t\t\t\\n\\n    function _\n      MLOAD \t\t\t\\n\\n    function _\n      PUSH 0\t\t\t \n      SWAP2 \t\t\t \n      POP \t\t\t\n      PUSH 2\t\t\t         descriptionHash\\n    ...\n      SWAP1 \t\t\t         descriptionHash\\n    ...\n    tag 853\t\t\tview\\n        override(Governo...\n      JUMPDEST \t\t\tview\\n        override(Governo...\n      SWAP3 \t\t\t   {\\n        return super.pro...\n      POP \t\t\t   {\\n        return super.pro...\n      SWAP3 \t\t\t   {\\n        return super.pro...\n      POP \t\t\t   {\\n        return super.pro...\n      SWAP3 \t\t\t   {\\n        return super.pro...\n      JUMP \t\t\t   {\\n        return super.pro...\n    tag 654\t\t\t public\\n        view\\n       ...\n      JUMPDEST \t\t\t public\\n        view\\n       ...\n      PUSH 0\t\t\tsalI\n      DUP1 \t\t\t  function p\n      PUSH 0\t\t\tposalNeedsQueuing(u\n      DUP6 \t\t\t56 pro\n      PUSH 1\t\t\t\n      PUSH 1\t\t\t\n      PUSH A0\t\t\t\n      SHL \t\t\t\n      SUB \t\t\t\n      AND \t\t\t56 proposalId)\\n  \n      DUP6 \t\t\trnor\n      DUP6 \t\t\tmelockCon\n      PUSH 40\t\t\t       view\\n        override(...\n      MLOAD \t\t\t       view\\n        override(...\n      PUSH 24\t\t\t       view\\n        override(...\n      ADD \t\t\t       view\\n        override(...\n      PUSH [tag] 855\t\t\t       view\\n        override(...\n      SWAP3 \t\t\t       view\\n        override(...\n      SWAP2 \t\t\t       view\\n        override(...\n      SWAP1 \t\t\t       view\\n        override(...\n      PUSH [tag] 856\t\t\t       view\\n        override(...\n      JUMP \t\t\t       view\\n        override(...\n    tag 855\t\t\t       view\\n        override(...\n      JUMPDEST \t\t\t       view\\n        override(...\n      PUSH 40\t\t\t       view\\n        override(...\n      DUP1 \t\t\t       view\\n        override(...\n      MLOAD \t\t\t       view\\n        override(...\n      PUSH 1F\t\t\t\n      NOT \t\t\t\n      DUP2 \t\t\t       view\\n        override(...\n      DUP5 \t\t\t       view\\n        override(...\n      SUB \t\t\t       view\\n        override(...\n      ADD \t\t\t       view\\n        override(...\n      DUP2 \t\t\t       view\\n        override(...\n      MSTORE \t\t\t       view\\n        override(...\n      SWAP2 \t\t\t       view\\n        override(...\n      DUP2 \t\t\t       view\\n        override(...\n      MSTORE \t\t\t       view\\n        override(...\n      PUSH 20\t\t\t       view\\n        override(...\n      DUP3 \t\t\t       view\\n        override(...\n      ADD \t\t\t       view\\n        override(...\n      DUP1 \t\t\t       view\\n        override(...\n      MLOAD \t\t\t       view\\n        override(...\n      PUSH 1\t\t\t\n      PUSH 1\t\t\t\n      PUSH E0\t\t\t\n      SHL \t\t\t\n      SUB \t\t\t\n      AND \t\t\t       view\\n        override(...\n      PUSH B135D3F\t\t\t\n      PUSH E1\t\t\t\n      SHL \t\t\t\n      OR \t\t\t       view\\n        override(...\n      SWAP1 \t\t\t       view\\n        override(...\n      MSTORE \t\t\t       view\\n        override(...\n      MLOAD \t\t\t56 proposalId)\\n        public...\n      PUSH [tag] 857\t\t\t56 proposalId)\\n        public...\n      SWAP2 \t\t\t56 proposalId)\\n        public...\n      SWAP1 \t\t\t       view\\n        override(...\n      PUSH [tag] 858\t\t\t56 proposalId)\\n        public...\n      JUMP \t\t\t56 proposalId)\\n        public...\n    tag 857\t\t\t56 proposalId)\\n        public...\n      JUMPDEST \t\t\t56 proposalId)\\n        public...\n      PUSH 0\t\t\t56 proposalId)\\n        public...\n      PUSH 40\t\t\t56 proposalId)\\n        public...\n      MLOAD \t\t\t56 proposalId)\\n        public...\n      DUP1 \t\t\t56 proposalId)\\n        public...\n      DUP4 \t\t\t56 proposalId)\\n        public...\n      SUB \t\t\t56 proposalId)\\n        public...\n      DUP2 \t\t\t56 proposalId)\\n        public...\n      DUP6 \t\t\t56 proposalId)\\n        public...\n      GAS \t\t\t56 proposalId)\\n        public...\n      STATICCALL \t\t\t56 proposalId)\\n        public...\n      SWAP2 \t\t\t56 proposalId)\\n        public...\n      POP \t\t\t56 proposalId)\\n        public...\n      POP \t\t\t56 proposalId)\\n        public...\n      RETURNDATASIZE \t\t\t56 proposalId)\\n        public...\n      DUP1 \t\t\t56 proposalId)\\n        public...\n      PUSH 0\t\t\t56 proposalId)\\n        public...\n      DUP2 \t\t\t56 proposalId)\\n        public...\n      EQ \t\t\t56 proposalId)\\n        public...\n      PUSH [tag] 861\t\t\t56 proposalId)\\n        public...\n      JUMPI \t\t\t56 proposalId)\\n        public...\n      PUSH 40\t\t\t56 proposalId)\\n        public...\n      MLOAD \t\t\t56 proposalId)\\n        public...\n      SWAP2 \t\t\t56 proposalId)\\n        public...\n      POP \t\t\t56 proposalId)\\n        public...\n      PUSH 1F\t\t\t56 proposalId)\\n        public...\n      NOT \t\t\t56 proposalId)\\n        public...\n      PUSH 3F\t\t\t56 proposalId)\\n        public...\n      RETURNDATASIZE \t\t\t56 proposalId)\\n        public...\n      ADD \t\t\t56 proposalId)\\n        public...\n      AND \t\t\t56 proposalId)\\n        public...\n      DUP3 \t\t\t56 proposalId)\\n        public...\n      ADD \t\t\t56 proposalId)\\n        public...\n      PUSH 40\t\t\t56 proposalId)\\n        public...\n      MSTORE \t\t\t56 proposalId)\\n        public...\n      RETURNDATASIZE \t\t\t56 proposalId)\\n        public...\n      DUP3 \t\t\t56 proposalId)\\n        public...\n      MSTORE \t\t\t56 proposalId)\\n        public...\n      RETURNDATASIZE \t\t\t56 proposalId)\\n        public...\n      PUSH 0\t\t\t56 proposalId)\\n        public...\n      PUSH 20\t\t\t56 proposalId)\\n        public...\n      DUP5 \t\t\t56 proposalId)\\n        public...\n      ADD \t\t\t56 proposalId)\\n        public...\n      RETURNDATACOPY \t\t\t56 proposalId)\\n        public...\n      PUSH [tag] 860\t\t\t56 proposalId)\\n        public...\n      JUMP \t\t\t56 proposalId)\\n        public...\n    tag 861\t\t\t56 proposalId)\\n        public...\n      JUMPDEST \t\t\t56 proposalId)\\n        public...\n      PUSH 60\t\t\t56 proposalId)\\n        public...\n      SWAP2 \t\t\t56 proposalId)\\n        public...\n      POP \t\t\t56 proposalId)\\n        public...\n    tag 860\t\t\t56 proposalId)\\n        public...\n      JUMPDEST \t\t\t56 proposalId)\\n        public...\n      POP \t\t\t56 proposalId)\\n        public...\n      SWAP2 \t\t\t   function proposalNeedsQueui...\n      POP \t\t\t   function proposalNeedsQueui...\n      SWAP2 \t\t\t   function proposalNeedsQueui...\n      POP \t\t\t   function proposalNeedsQueui...\n      DUP2 \t\t\t   {\\n  \n      DUP1 \t\t\t   {\\n        return super.pro...\n      ISZERO \t\t\t   {\\n        return super.pro...\n      PUSH [tag] 862\t\t\t   {\\n        return super.pro...\n      JUMPI \t\t\t   {\\n        return super.pro...\n      POP \t\t\t   {\\n        return super.pro...\n      PUSH 20\t\t\tue\n      DUP2 \t\t\ter.pro\n      MLOAD \t\t\ter.proposalNe\n      LT \t\t\ter.proposalNeedsQue\n      ISZERO \t\t\ter.proposalNeedsQue\n    tag 862\t\t\t   {\\n        return super.pro...\n      JUMPDEST \t\t\t   {\\n        return super.pro...\n      DUP1 \t\t\t   {\\n        return super.pro...\n      ISZERO \t\t\t   {\\n        return super.pro...\n      PUSH [tag] 397\t\t\t   {\\n        return super.pro...\n      JUMPI \t\t\t   {\\n        return super.pro...\n      POP \t\t\t\n      DUP1 \t\t\t;\\n    }\\n\\n    function propo...\n      MLOAD \t\t\t;\\n    }\\n\\n    function propo...\n      PUSH B135D3F\t\t\t\n      PUSH E1\t\t\t\n      SHL \t\t\t\n      SWAP1 \t\t\t\\n        public\\n        view...\n      PUSH [tag] 864\t\t\t;\\n    }\\n\\n    function propo...\n      SWAP1 \t\t\t;\\n    }\\n\\n    function propo...\n      DUP4 \t\t\t;\\n    }\\n\\n    function propo...\n      ADD \t\t\t;\\n    }\\n\\n    function propo...\n      PUSH 20\t\t\t;\\n    }\\n\\n    function propo...\n      SWAP1 \t\t\t;\\n    }\\n\\n    function propo...\n      DUP2 \t\t\t;\\n    }\\n\\n    function propo...\n      ADD \t\t\t;\\n    }\\n\\n    function propo...\n      SWAP1 \t\t\t;\\n    }\\n\\n    function propo...\n      DUP5 \t\t\t;\\n    }\\n\\n    function propo...\n      ADD \t\t\t;\\n    }\\n\\n    function propo...\n      PUSH [tag] 741\t\t\t;\\n    }\\n\\n    function propo...\n      JUMP \t\t\t;\\n    }\\n\\n    function propo...\n    tag 864\t\t\t;\\n    }\\n\\n    function propo...\n      JUMPDEST \t\t\t;\\n    }\\n\\n    function propo...\n      EQ \t\t\t;\\n    }\\n\\n    function propo...\n      SWAP7 \t\t\t;\\n    }\\n\\n    function propo...\n      SWAP6 \t\t\t public\\n        view\\n       ...\n      POP \t\t\t\n      POP \t\t\t\n      POP \t\t\t\n      POP \t\t\t\n      POP \t\t\t\n      POP \t\t\t\n      JUMP \t\t\t public\\n        view\\n       ...\n    tag 661\t\t\tess[] memory targets,\\n       ...\n      JUMPDEST \t\t\tess[] memory targets,\\n       ...\n      PUSH 0\t\t\t8) {\\n        return\\n        ...\n      DUP6 \t\t\tr._queueOperations(\\n      \n      DUP2 \t\t\tr._queueOperations(\\n      \n      MSTORE \t\t\tr._queueOperations(\\n      \n      PUSH 9\t\t\tr._queueOperat\n      PUSH 20\t\t\tr._queueOperations(\\n      \n      SWAP1 \t\t\tr._queueOperations(\\n      \n      DUP2 \t\t\tr._queueOperations(\\n      \n      MSTORE \t\t\tr._queueOperations(\\n      \n      PUSH 40\t\t\tr._queueOperations(\\n      \n      DUP1 \t\t\tr._queueOperations(\\n      \n      DUP4 \t\t\tr._queueOperations(\\n      \n      KECCAK256 \t\t\tr._queueOperations(\\n      \n      PUSH 1\t\t\t\n      PUSH 1\t\t\t\n      PUSH A0\t\t\t\n      SHL \t\t\t\n      SUB \t\t\t\n      DUP9 \t\t\tsalId,\\n                target...\n      AND \t\t\tsalId,\\n                target...\n      DUP5 \t\t\tsalId,\\n                target...\n      MSTORE \t\t\tsalId,\\n                target...\n      PUSH 3\t\t\tsalId,\\n              \n      DUP2 \t\t\tsalId,\\n              \n      ADD \t\t\tsalId,\\n              \n      SWAP1 \t\t\tsalId,\\n                target...\n      SWAP3 \t\t\tsalId,\\n                target...\n      MSTORE \t\t\tsalId,\\n                target...\n      SWAP1 \t\t\tsalId,\\n                target...\n      SWAP2 \t\t\tsalId,\\n                target...\n      KECCAK256 \t\t\tsalId,\\n                target...\n      SLOAD \t\t\tsalId,\\n                target...\n      PUSH FF\t\t\tsalId,\\n                target...\n      AND \t\t\tsalId,\\n                target...\n      ISZERO \t\t\troposalId,\\n                ta...\n      PUSH [tag] 866\t\t\troposalId,\\n                ta...\n      JUMPI \t\t\troposalId,\\n                ta...\n      PUSH 40\t\t\ts,\\n                calldatas,...\n      MLOAD \t\t\ts,\\n                calldatas,...\n      PUSH 71C6AF49\t\t\t\n      PUSH E0\t\t\t\n      SHL \t\t\t\n      DUP2 \t\t\ts,\\n                calldatas,...\n      MSTORE \t\t\ts,\\n                calldatas,...\n      PUSH 1\t\t\t\n      PUSH 1\t\t\t\n      PUSH A0\t\t\t\n      SHL \t\t\t\n      SUB \t\t\t\n      DUP7 \t\t\te(uint256 proposalId)\\n       ...\n      AND \t\t\te(uint256 proposalId)\\n       ...\n      PUSH 4\t\t\ts,\\n                calldatas,...\n      DUP3 \t\t\ts,\\n                calldatas,...\n      ADD \t\t\ts,\\n                calldatas,...\n      MSTORE \t\t\t\\n    function state(uint256 p...\n      PUSH 24\t\t\tquorum(blockNumber\n      ADD \t\t\tquorum(blockNumber\n      PUSH [tag] 396\t\t\ts,\\n                calldatas,...\n      JUMP \t\t\t     view\\n        override(Go...\n    tag 866\t\t\troposalId,\\n                ta...\n      JUMPDEST \t\t\troposalId,\\n                ta...\n      PUSH 1\t\t\t\n      PUSH 1\t\t\t\n      PUSH A0\t\t\t\n      SHL \t\t\t\n      SUB \t\t\t\n      DUP6 \t\t\tptionHash\\n            );\\n   ...\n      AND \t\t\tptionHash\\n            );\\n   ...\n      PUSH 0\t\t\tptionHash\\n            );\\n   ...\n      SWAP1 \t\t\tptionHash\\n            );\\n   ...\n      DUP2 \t\t\tptionHash\\n            );\\n   ...\n      MSTORE \t\t\tptionHash\\n            );\\n   ...\n      PUSH 3\t\t\tptionHash\\n           \n      DUP3 \t\t\tptionHash\\n           \n      ADD \t\t\tptionHash\\n           \n      PUSH 20\t\t\tptionHash\\n            );\\n   ...\n      MSTORE \t\t\tptionHash\\n            );\\n   ...\n      PUSH 40\t\t\tptionHash\\n            );\\n   ...\n      SWAP1 \t\t\tptionHash\\n            );\\n   ...\n      KECCAK256 \t\t\tptionHash\\n            );\\n   ...\n      DUP1 \t\t\tptionHash\\n            );\\n   ...\n      SLOAD \t\t\tptionHash\\n            );\\n   ...\n      PUSH FF\t\t\t\n      NOT \t\t\t\n      AND \t\t\tptionHash\\n            );\\n   ...\n      PUSH 1\t\t\t   f\n      OR \t\t\tptionHash\\n            );\\n   ...\n      SWAP1 \t\t\tptionHash\\n            );\\n   ...\n      SSTORE \t\t\tptionHash\\n            );\\n   ...\n      PUSH FF\t\t\teOperations(\\n        uint256 ...\n      DUP5 \t\t\teOperations(\\n        uint256 ...\n      AND \t\t\teOperations(\\n        uint256 ...\n      PUSH [tag] 870\t\t\tecuteOperations(\\n        uint...\n      JUMPI \t\t\tecuteOperations(\\n        uint...\n      DUP3 \t\t\t    ui\n      DUP2 \t\t\tddress[] mem\n      PUSH 0\t\t\tddress[] memory targets,\\n\n      ADD \t\t\tddress[] memory targets,\\n\n      PUSH 0\t\t\tddress[] memory targets,\\n\n      DUP3 \t\t\tddress[] memory targets,\\n    ...\n      DUP3 \t\t\tddress[] memory targets,\\n    ...\n      SLOAD \t\t\tddress[] memory targets,\\n    ...\n      PUSH [tag] 871\t\t\tddress[] memory targets,\\n    ...\n      SWAP2 \t\t\tddress[] memory targets,\\n    ...\n      SWAP1 \t\t\tddress[] memory targets,\\n    ...\n      PUSH [tag] 682\t\t\tddress[] memory targets,\\n    ...\n      JUMP \t\t\tddress[] memory targets,\\n    ...\n    tag 871\t\t\tddress[] memory targets,\\n    ...\n      JUMPDEST \t\t\tddress[] memory targets,\\n    ...\n      SWAP1 \t\t\tddress[] memory targets,\\n    ...\n      SWAP2 \t\t\tddress[] memory targets,\\n    ...\n      SSTORE \t\t\tddress[] memory targets,\\n    ...\n      POP \t\t\t\n      PUSH [tag] 882\t\t\tecuteOperations(\\n        uint...\n      SWAP1 \t\t\tecuteOperations(\\n        uint...\n      POP \t\t\t\n      JUMP \t\t\tecuteOperations(\\n        uint...\n    tag 870\t\t\tecuteOperations(\\n        uint...\n      JUMPDEST \t\t\tecuteOperations(\\n        uint...\n      PUSH 0\t\t\t\n      NOT \t\t\t\n      PUSH FF\t\t\t,\\n        bytes[] memory call...\n      DUP6 \t\t\t,\\n        bytes[] memory call...\n      AND \t\t\t,\\n        bytes[] memory call...\n      ADD \t\t\t,\\n        bytes[] memory call...\n      PUSH [tag] 875\t\t\tlues,\\n        bytes[] memory ...\n      JUMPI \t\t\tlues,\\n        bytes[] memory ...\n      DUP3 \t\t\t ) int\n      DUP2 \t\t\ttes32 descri\n      PUSH 1\t\t\ttes32 descriptionHash\n      ADD \t\t\ttes32 descriptionHash\n      PUSH 0\t\t\ttes32 descriptionHash\n      DUP3 \t\t\ttes32 descriptionHash\\n    ) i...\n      DUP3 \t\t\ttes32 descriptionHash\\n    ) i...\n      SLOAD \t\t\ttes32 descriptionHash\\n    ) i...\n      PUSH [tag] 871\t\t\ttes32 descriptionHash\\n    ) i...\n      SWAP2 \t\t\ttes32 descriptionHash\\n    ) i...\n      SWAP1 \t\t\ttes32 descriptionHash\\n    ) i...\n      PUSH [tag] 682\t\t\ttes32 descriptionHash\\n    ) i...\n      JUMP \t\t\ttes32 descriptionHash\\n    ) i...\n    tag 875\t\t\tlues,\\n        bytes[] memory ...\n      JUMPDEST \t\t\tlues,\\n        bytes[] memory ...\n      PUSH 1\t\t\t\n      NOT \t\t\t\n      PUSH FF\t\t\tor, GovernorTimelockControl) {...\n      DUP6 \t\t\tor, GovernorTimelockControl) {...\n      AND \t\t\tor, GovernorTimelockControl) {...\n      ADD \t\t\tor, GovernorTimelockControl) {...\n      PUSH [tag] 880\t\t\tvernor, GovernorTimelockContro...\n      JUMPI \t\t\tvernor, GovernorTimelockContro...\n      DUP3 \t\t\toposal\n      DUP2 \t\t\tuteOperation\n      PUSH 2\t\t\tuteOperations(\\n          \n      ADD \t\t\tuteOperations(\\n          \n      PUSH 0\t\t\tuteOperations(\\n          \n      DUP3 \t\t\tuteOperations(\\n            pr...\n      DUP3 \t\t\tuteOperations(\\n            pr...\n      SLOAD \t\t\tuteOperations(\\n            pr...\n      PUSH [tag] 871\t\t\tuteOperations(\\n            pr...\n      SWAP2 \t\t\tuteOperations(\\n            pr...\n      SWAP1 \t\t\tuteOperations(\\n            pr...\n      PUSH [tag] 682\t\t\tuteOperations(\\n            pr...\n      JUMP \t\t\tuteOperations(\\n            pr...\n    tag 880\t\t\tvernor, GovernorTimelockContro...\n      JUMPDEST \t\t\tvernor, GovernorTimelockContro...\n      PUSH 40\t\t\talues,\\n            callda\n      MLOAD \t\t\talues,\\n            callda\n      PUSH 3599BE1\t\t\t\n      PUSH E1\t\t\t\n      SHL \t\t\t\n      DUP2 \t\t\talues,\\n            callda\n      MSTORE \t\t\talues,\\n            callda\n      PUSH 4\t\t\talues,\\n            callda\n      ADD \t\t\talues,\\n            callda\n      PUSH 40\t\t\talues,\\n            callda\n      MLOAD \t\t\talues,\\n            callda\n      DUP1 \t\t\talues,\\n            callda\n      SWAP2 \t\t\talues,\\n            callda\n      SUB \t\t\talues,\\n            callda\n      SWAP1 \t\t\talues,\\n            callda\n      REVERT \t\t\talues,\\n            callda\n    tag 882\t\t\tvernor, GovernorTimelockContro...\n      JUMPDEST \t\t\tvernor, GovernorTimelockContro...\n      POP \t\t\trns (uint48) {\\n        return...\n      POP \t\t\tess[] memory targets,\\n       ...\n      POP \t\t\tess[] memory targets,\\n       ...\n      POP \t\t\tess[] memory targets,\\n       ...\n      POP \t\t\tess[] memory targets,\\n       ...\n      POP \t\t\tess[] memory targets,\\n       ...\n      JUMP \t\t\tess[] memory targets,\\n       ...\n    tag 675\t\t\t\n      JUMPDEST \t\t\t\n      PUSH 0\t\t\t\n      DUP2 \t\t\t\n      PUSH 0\t\t\t\n      SUB \t\t\t\n      PUSH [tag] 884\t\t\t\n      JUMPI \t\t\t\n      POP \t\t\t\n      PUSH 0\t\t\t\n      SWAP2 \t\t\t\n      SWAP1 \t\t\t\n      POP \t\t\t\n      JUMP \t\t\t\n    tag 884\t\t\t\n      JUMPDEST \t\t\t\n      PUSH 0\t\t\t\n      PUSH 1\t\t\t\n      PUSH [tag] 885\t\t\t\n      DUP5 \t\t\t\n      PUSH [tag] 886\t\t\t\n      JUMP \t\t\t\n    tag 885\t\t\t\n      JUMPDEST \t\t\t\n      SWAP1 \t\t\t\n      SHR \t\t\t\n      PUSH 1\t\t\t\n      SWAP1 \t\t\t\n      SHL \t\t\t\n      SWAP1 \t\t\t\n      POP \t\t\t\n      PUSH 1\t\t\t\n      DUP2 \t\t\t\n      DUP5 \t\t\t\n      DUP2 \t\t\t\n      PUSH [tag] 888\t\t\t\n      JUMPI \t\t\t\n      PUSH [tag] 888\t\t\t\n      PUSH [tag] 889\t\t\t\n      JUMP \t\t\t\n    tag 888\t\t\t\n      JUMPDEST \t\t\t\n      DIV \t\t\t\n      DUP3 \t\t\t\n      ADD \t\t\t\n      SWAP1 \t\t\t\n      SHR \t\t\t\n      SWAP1 \t\t\t\n      POP \t\t\t\n      PUSH 1\t\t\t\n      DUP2 \t\t\t\n      DUP5 \t\t\t\n      DUP2 \t\t\t\n      PUSH [tag] 891\t\t\t\n      JUMPI \t\t\t\n      PUSH [tag] 891\t\t\t\n      PUSH [tag] 889\t\t\t\n      JUMP \t\t\t\n    tag 891\t\t\t\n      JUMPDEST \t\t\t\n      DIV \t\t\t\n      DUP3 \t\t\t\n      ADD \t\t\t\n      SWAP1 \t\t\t\n      SHR \t\t\t\n      SWAP1 \t\t\t\n      POP \t\t\t\n      PUSH 1\t\t\t\n      DUP2 \t\t\t\n      DUP5 \t\t\t\n      DUP2 \t\t\t\n      PUSH [tag] 893\t\t\t\n      JUMPI \t\t\t\n      PUSH [tag] 893\t\t\t\n      PUSH [tag] 889\t\t\t\n      JUMP \t\t\t\n    tag 893\t\t\t\n      JUMPDEST \t\t\t\n      DIV \t\t\t\n      DUP3 \t\t\t\n      ADD \t\t\t\n      SWAP1 \t\t\t\n      SHR \t\t\t\n      SWAP1 \t\t\t\n      POP \t\t\t\n      PUSH 1\t\t\t\n      DUP2 \t\t\t\n      DUP5 \t\t\t\n      DUP2 \t\t\t\n      PUSH [tag] 895\t\t\t\n      JUMPI \t\t\t\n      PUSH [tag] 895\t\t\t\n      PUSH [tag] 889\t\t\t\n      JUMP \t\t\t\n    tag 895\t\t\t\n      JUMPDEST \t\t\t\n      DIV \t\t\t\n      DUP3 \t\t\t\n      ADD \t\t\t\n      SWAP1 \t\t\t\n      SHR \t\t\t\n      SWAP1 \t\t\t\n      POP \t\t\t\n      PUSH 1\t\t\t\n      DUP2 \t\t\t\n      DUP5 \t\t\t\n      DUP2 \t\t\t\n      PUSH [tag] 897\t\t\t\n      JUMPI \t\t\t\n      PUSH [tag] 897\t\t\t\n      PUSH [tag] 889\t\t\t\n      JUMP \t\t\t\n    tag 897\t\t\t\n      JUMPDEST \t\t\t\n      DIV \t\t\t\n      DUP3 \t\t\t\n      ADD \t\t\t\n      SWAP1 \t\t\t\n      SHR \t\t\t\n      SWAP1 \t\t\t\n      POP \t\t\t\n      PUSH 1\t\t\t\n      DUP2 \t\t\t\n      DUP5 \t\t\t\n      DUP2 \t\t\t\n      PUSH [tag] 899\t\t\t\n      JUMPI \t\t\t\n      PUSH [tag] 899\t\t\t\n      PUSH [tag] 889\t\t\t\n      JUMP \t\t\t\n    tag 899\t\t\t\n      JUMPDEST \t\t\t\n      DIV \t\t\t\n      DUP3 \t\t\t\n      ADD \t\t\t\n      SWAP1 \t\t\t\n      SHR \t\t\t\n      SWAP1 \t\t\t\n      POP \t\t\t\n      PUSH 1\t\t\t\n      DUP2 \t\t\t\n      DUP5 \t\t\t\n      DUP2 \t\t\t\n      PUSH [tag] 901\t\t\t\n      JUMPI \t\t\t\n      PUSH [tag] 901\t\t\t\n      PUSH [tag] 889\t\t\t\n      JUMP \t\t\t\n    tag 901\t\t\t\n      JUMPDEST \t\t\t\n      DIV \t\t\t\n      DUP3 \t\t\t\n      ADD \t\t\t\n      SWAP1 \t\t\t\n      SHR \t\t\t\n      SWAP1 \t\t\t\n      POP \t\t\t\n      PUSH [tag] 544\t\t\t\n      DUP2 \t\t\t\n      DUP3 \t\t\t\n      DUP6 \t\t\t\n      DUP2 \t\t\t\n      PUSH [tag] 904\t\t\t\n      JUMPI \t\t\t\n      PUSH [tag] 904\t\t\t\n      PUSH [tag] 889\t\t\t\n      JUMP \t\t\t\n    tag 904\t\t\t\n      JUMPDEST \t\t\t\n      DIV \t\t\t\n      PUSH [tag] 905\t\t\t\n      JUMP \t\t\t\n    tag 684\t\t\t\n      JUMPDEST \t\t\t\n      PUSH 0\t\t\t\n    tag 908\t\t\t\n      JUMPDEST \t\t\t\n      DUP2 \t\t\t\n      DUP4 \t\t\t\n      LT \t\t\t\n      ISZERO \t\t\t\n      PUSH [tag] 909\t\t\t\n      JUMPI \t\t\t\n      PUSH 0\t\t\t\n      PUSH [tag] 910\t\t\t\n      DUP5 \t\t\t\n      DUP5 \t\t\t\n      PUSH [tag] 911\t\t\t\n      JUMP \t\t\t\n    tag 910\t\t\t\n      JUMPDEST \t\t\t\n      PUSH 0\t\t\t\n      DUP8 \t\t\t\n      DUP2 \t\t\t\n      MSTORE \t\t\t\n      PUSH 20\t\t\t\n      SWAP1 \t\t\t\n      KECCAK256 \t\t\t\n      SWAP1 \t\t\t\n      SWAP2 \t\t\t\n      POP \t\t\t\n      PUSH FFFFFFFFFFFF\t\t\t\n      DUP7 \t\t\t\n      AND \t\t\t\n      SWAP1 \t\t\t\n      DUP3 \t\t\t\n      ADD \t\t\t\n      SLOAD \t\t\t\n      PUSH FFFFFFFFFFFF\t\t\t\n      AND \t\t\t\n      GT \t\t\t\n      ISZERO \t\t\t\n      PUSH [tag] 913\t\t\t\n      JUMPI \t\t\t\n      DUP1 \t\t\t\n      SWAP3 \t\t\t\n      POP \t\t\t\n      PUSH [tag] 914\t\t\t\n      JUMP \t\t\t\n    tag 913\t\t\t\n      JUMPDEST \t\t\t\n      PUSH [tag] 915\t\t\t\n      DUP2 \t\t\t\n      PUSH 1\t\t\t\n      PUSH [tag] 682\t\t\t\n      JUMP \t\t\t\n    tag 915\t\t\t\n      JUMPDEST \t\t\t\n      SWAP4 \t\t\t\n      POP \t\t\t\n    tag 914\t\t\t\n      JUMPDEST \t\t\t\n      POP \t\t\t\n      PUSH [tag] 908\t\t\t\n      JUMP \t\t\t\n    tag 909\t\t\t\n      JUMPDEST \t\t\t\n      POP \t\t\t\n      SWAP4 \t\t\t\n      SWAP3 \t\t\t\n      POP \t\t\t\n      POP \t\t\t\n      POP \t\t\t\n      JUMP \t\t\t\n    tag 702\t\t\t\n      JUMPDEST \t\t\t\n      PUSH 0\t\t\t\n      DUP1 \t\t\t\n      PUSH F8\t\t\t\n      DUP4 \t\t\t\n      SWAP1 \t\t\t\n      SHR \t\t\t\n      PUSH 2F\t\t\t\n      DUP2 \t\t\t\n      GT \t\t\t\n      DUP1 \t\t\t\n      ISZERO \t\t\t\n      PUSH [tag] 917\t\t\t\n      JUMPI \t\t\t\n      POP \t\t\t\n      PUSH 3A\t\t\t\n      DUP2 \t\t\t\n      PUSH FF\t\t\t\n      AND \t\t\t\n      LT \t\t\t\n    tag 917\t\t\t\n      JUMPDEST \t\t\t\n      ISZERO \t\t\t\n      PUSH [tag] 918\t\t\t\n      JUMPI \t\t\t\n      PUSH 1\t\t\t\n      SWAP5 \t\t\t\n      PUSH 2F\t\t\t\n      NOT \t\t\t\n      SWAP1 \t\t\t\n      SWAP2 \t\t\t\n      ADD \t\t\t\n      SWAP4 \t\t\t\n      POP \t\t\t\n      SWAP2 \t\t\t\n      POP \t\t\t\n      POP \t\t\t\n      JUMP \t\t\t\n    tag 918\t\t\t\n      JUMPDEST \t\t\t\n      DUP1 \t\t\t\n      PUSH FF\t\t\t\n      AND \t\t\t\n      PUSH 40\t\t\t\n      LT \t\t\t\n      DUP1 \t\t\t\n      ISZERO \t\t\t\n      PUSH [tag] 920\t\t\t\n      JUMPI \t\t\t\n      POP \t\t\t\n      PUSH 47\t\t\t\n      DUP2 \t\t\t\n      PUSH FF\t\t\t\n      AND \t\t\t\n      LT \t\t\t\n    tag 920\t\t\t\n      JUMPDEST \t\t\t\n      ISZERO \t\t\t\n      PUSH [tag] 921\t\t\t\n      JUMPI \t\t\t\n      PUSH 1\t\t\t\n      SWAP5 \t\t\t\n      PUSH 36\t\t\t\n      NOT \t\t\t\n      SWAP1 \t\t\t\n      SWAP2 \t\t\t\n      ADD \t\t\t\n      SWAP4 \t\t\t\n      POP \t\t\t\n      SWAP2 \t\t\t\n      POP \t\t\t\n      POP \t\t\t\n      JUMP \t\t\t\n    tag 921\t\t\t\n      JUMPDEST \t\t\t\n      DUP1 \t\t\t\n      PUSH FF\t\t\t\n      AND \t\t\t\n      PUSH 60\t\t\t\n      LT \t\t\t\n      DUP1 \t\t\t\n      ISZERO \t\t\t\n      PUSH [tag] 923\t\t\t\n      JUMPI \t\t\t\n      POP \t\t\t\n      PUSH 67\t\t\t\n      DUP2 \t\t\t\n      PUSH FF\t\t\t\n      AND \t\t\t\n      LT \t\t\t\n    tag 923\t\t\t\n      JUMPDEST \t\t\t\n      ISZERO \t\t\t\n      PUSH [tag] 924\t\t\t\n      JUMPI \t\t\t\n      PUSH 1\t\t\t\n      SWAP5 \t\t\t\n      PUSH 56\t\t\t\n      NOT \t\t\t\n      SWAP1 \t\t\t\n      SWAP2 \t\t\t\n      ADD \t\t\t\n      SWAP4 \t\t\t\n      POP \t\t\t\n      SWAP2 \t\t\t\n      POP \t\t\t\n      POP \t\t\t\n      JUMP \t\t\t\n    tag 924\t\t\t\n      JUMPDEST \t\t\t\n      POP \t\t\t\n      PUSH 0\t\t\t\n      SWAP4 \t\t\t\n      DUP5 \t\t\t\n      SWAP4 \t\t\t\n      POP \t\t\t\n      SWAP2 \t\t\t\n      POP \t\t\t\n      POP \t\t\t\n      JUMP \t\t\t\n    tag 719\t\t\t\n      JUMPDEST \t\t\t\n      PUSH 0\t\t\t\n      PUSH FFFFFFFF\t\t\t\n      DUP3 \t\t\t\n      GT \t\t\t\n      ISZERO \t\t\t\n      PUSH [tag] 669\t\t\t\n      JUMPI \t\t\t\n      PUSH 40\t\t\t\n      MLOAD \t\t\t\n      PUSH 6DFCC65\t\t\t\n      PUSH E4\t\t\t\n      SHL \t\t\t\n      DUP2 \t\t\t\n      MSTORE \t\t\t\n      PUSH 20\t\t\t\n      PUSH 4\t\t\t\n      DUP3 \t\t\t\n      ADD \t\t\t\n      MSTORE \t\t\t\n      PUSH 24\t\t\t\n      DUP2 \t\t\t\n      ADD \t\t\t\n      DUP4 \t\t\t\n      SWAP1 \t\t\t\n      MSTORE \t\t\t\n      PUSH 44\t\t\t\n      ADD \t\t\t\n      PUSH [tag] 396\t\t\t\n      JUMP \t\t\t\n    tag 729\t\t\tes[] memory calldatas,\\n      ...\n      JUMPDEST \t\t\tes[] memory calldatas,\\n      ...\n      PUSH 60\t\t\tnorTimelockCo\n      PUSH FF\t\t\tnction votingPeriod()\\n       ...\n      DUP4 \t\t\tuint256) {\\n        return sup...\n      EQ \t\t\tuint256) {\\n        return sup...\n      PUSH [tag] 931\t\t\tns (uint256) {\\n        return...\n      JUMPI \t\t\tns (uint256) {\\n        return...\n      PUSH [tag] 932\t\t\tescriptionHash)\n      DUP4 \t\t\tnHash\n      PUSH [tag] 933\t\t\tescripti\n      JUMP \t\t\tescriptionHash)\n    tag 932\t\t\tescriptionHash)\n      JUMPDEST \t\t\tescriptionHash)\n      SWAP1 \t\t\tatas, descriptionHash)\n      POP \t\t\tatas, descriptionHash)\n      PUSH [tag] 317\t\t\tatas, descriptionHash)\n      JUMP \t\t\tatas, descriptionHash)\n    tag 931\t\t\tns (uint256) {\\n        return...\n      JUMPDEST \t\t\tns (uint256) {\\n        return...\n      DUP2 \t\t\t    i\n      DUP1 \t\t\t()\\n        i\n      SLOAD \t\t\t()\\n        i\n      PUSH [tag] 935\t\t\t()\\n        i\n      SWAP1 \t\t\t()\\n        i\n      PUSH [tag] 330\t\t\t()\\n        i\n      JUMP \t\t\t()\\n        i\n    tag 935\t\t\t()\\n        i\n      JUMPDEST \t\t\t()\\n        i\n      DUP1 \t\t\t()\\n        i\n      PUSH 1F\t\t\t()\\n        i\n      ADD \t\t\t()\\n        i\n      PUSH 20\t\t\t()\\n        i\n      DUP1 \t\t\t()\\n        i\n      SWAP2 \t\t\t()\\n        i\n      DIV \t\t\t()\\n        i\n      MUL \t\t\t()\\n        i\n      PUSH 20\t\t\t()\\n        i\n      ADD \t\t\t()\\n        i\n      PUSH 40\t\t\t()\\n        i\n      MLOAD \t\t\t()\\n        i\n      SWAP1 \t\t\t()\\n        i\n      DUP2 \t\t\t()\\n        i\n      ADD \t\t\t()\\n        i\n      PUSH 40\t\t\t()\\n        i\n      MSTORE \t\t\t()\\n        i\n      DUP1 \t\t\t()\\n        i\n      SWAP3 \t\t\t()\\n        i\n      SWAP2 \t\t\t()\\n        i\n      SWAP1 \t\t\t()\\n        i\n      DUP2 \t\t\t()\\n        i\n      DUP2 \t\t\t()\\n        i\n      MSTORE \t\t\t()\\n        i\n      PUSH 20\t\t\t()\\n        i\n      ADD \t\t\t()\\n        i\n      DUP3 \t\t\t()\\n        i\n      DUP1 \t\t\t()\\n        i\n      SLOAD \t\t\t()\\n        i\n      PUSH [tag] 936\t\t\t()\\n        i\n      SWAP1 \t\t\t()\\n        i\n      PUSH [tag] 330\t\t\t()\\n        i\n      JUMP \t\t\t()\\n        i\n    tag 936\t\t\t()\\n        i\n      JUMPDEST \t\t\t()\\n        i\n      DUP1 \t\t\t()\\n        i\n      ISZERO \t\t\t()\\n        i\n      PUSH [tag] 937\t\t\t()\\n        i\n      JUMPI \t\t\t()\\n        i\n      DUP1 \t\t\t()\\n        i\n      PUSH 1F\t\t\t()\\n        i\n      LT \t\t\t()\\n        i\n      PUSH [tag] 938\t\t\t()\\n        i\n      JUMPI \t\t\t()\\n        i\n      PUSH 100\t\t\t()\\n        i\n      DUP1 \t\t\t()\\n        i\n      DUP4 \t\t\t()\\n        i\n      SLOAD \t\t\t()\\n        i\n      DIV \t\t\t()\\n        i\n      MUL \t\t\t()\\n        i\n      DUP4 \t\t\t()\\n        i\n      MSTORE \t\t\t()\\n        i\n      SWAP2 \t\t\t()\\n        i\n      PUSH 20\t\t\t()\\n        i\n      ADD \t\t\t()\\n        i\n      SWAP2 \t\t\t()\\n        i\n      PUSH [tag] 937\t\t\t()\\n        i\n      JUMP \t\t\t()\\n        i\n    tag 938\t\t\t()\\n        i\n      JUMPDEST \t\t\t()\\n        i\n      DUP3 \t\t\t()\\n        i\n      ADD \t\t\t()\\n        i\n      SWAP2 \t\t\t()\\n        i\n      SWAP1 \t\t\t()\\n        i\n      PUSH 0\t\t\t()\\n        i\n      MSTORE \t\t\t()\\n        i\n      PUSH 20\t\t\t()\\n        i\n      PUSH 0\t\t\t()\\n        i\n      KECCAK256 \t\t\t()\\n        i\n      SWAP1 \t\t\t()\\n        i\n    tag 939\t\t\t()\\n        i\n      JUMPDEST \t\t\t()\\n        i\n      DUP2 \t\t\t()\\n        i\n      SLOAD \t\t\t()\\n        i\n      DUP2 \t\t\t()\\n        i\n      MSTORE \t\t\t()\\n        i\n      SWAP1 \t\t\t()\\n        i\n      PUSH 1\t\t\t()\\n        i\n      ADD \t\t\t()\\n        i\n      SWAP1 \t\t\t()\\n        i\n      PUSH 20\t\t\t()\\n        i\n      ADD \t\t\t()\\n        i\n      DUP1 \t\t\t()\\n        i\n      DUP4 \t\t\t()\\n        i\n      GT \t\t\t()\\n        i\n      PUSH [tag] 939\t\t\t()\\n        i\n      JUMPI \t\t\t()\\n        i\n      DUP3 \t\t\t()\\n        i\n      SWAP1 \t\t\t()\\n        i\n      SUB \t\t\t()\\n        i\n      PUSH 1F\t\t\t()\\n        i\n      AND \t\t\t()\\n        i\n      DUP3 \t\t\t()\\n        i\n      ADD \t\t\t()\\n        i\n      SWAP2 \t\t\t()\\n        i\n    tag 937\t\t\t()\\n        i\n      JUMPDEST \t\t\t()\\n        i\n      POP \t\t\t()\\n        i\n      POP \t\t\t()\\n        i\n      POP \t\t\t()\\n        i\n      POP \t\t\t()\\n        i\n      POP \t\t\t()\\n        i\n      SWAP1 \t\t\t()\\n        i\n      POP \t\t\t()\\n        i\n      PUSH [tag] 317\t\t\t()\\n        i\n      JUMP \t\t\t()\\n        i\n    tag 755\t\t\t\n      JUMPDEST \t\t\t\n      DUP1 \t\t\t\n      MLOAD \t\t\t\n      ISZERO \t\t\t\n      PUSH [tag] 941\t\t\t\n      JUMPI \t\t\t\n      DUP1 \t\t\t\n      MLOAD \t\t\t\n      DUP1 \t\t\t\n      DUP3 \t\t\t\n      PUSH 20\t\t\t\n      ADD \t\t\t\n      REVERT \t\t\t\n    tag 941\t\t\t\n      JUMPDEST \t\t\t\n      PUSH 40\t\t\t\n      MLOAD \t\t\t\n      PUSH A12F521\t\t\t\n      PUSH E1\t\t\t\n      SHL \t\t\t\n      DUP2 \t\t\t\n      MSTORE \t\t\t\n      PUSH 4\t\t\t\n      ADD \t\t\t\n      PUSH 40\t\t\t\n      MLOAD \t\t\t\n      DUP1 \t\t\t\n      SWAP2 \t\t\t\n      SUB \t\t\t\n      SWAP1 \t\t\t\n      REVERT \t\t\t\n    tag 787\t\t\t\n      JUMPDEST \t\t\t\n      DUP3 \t\t\t\n      SLOAD \t\t\t\n      PUSH 0\t\t\t\n      SWAP1 \t\t\t\n      DUP2 \t\t\t\n      SWAP1 \t\t\t\n      DUP1 \t\t\t\n      ISZERO \t\t\t\n      PUSH [tag] 944\t\t\t\n      JUMPI \t\t\t\n      PUSH 0\t\t\t\n      PUSH [tag] 945\t\t\t\n      DUP8 \t\t\t\n      PUSH [tag] 687\t\t\t\n      PUSH 1\t\t\t\n      DUP6 \t\t\t\n      PUSH [tag] 435\t\t\t\n      JUMP \t\t\t\n    tag 945\t\t\t\n      JUMPDEST \t\t\t\n      PUSH 40\t\t\t\n      DUP1 \t\t\t\n      MLOAD \t\t\t\n      DUP1 \t\t\t\n      DUP3 \t\t\t\n      ADD \t\t\t\n      SWAP1 \t\t\t\n      SWAP2 \t\t\t\n      MSTORE \t\t\t\n      SWAP1 \t\t\t\n      SLOAD \t\t\t\n      PUSH FFFFFFFFFFFF\t\t\t\n      DUP1 \t\t\t\n      DUP3 \t\t\t\n      AND \t\t\t\n      DUP1 \t\t\t\n      DUP5 \t\t\t\n      MSTORE \t\t\t\n      PUSH 1\t\t\t\n      PUSH 30\t\t\t\n      SHL \t\t\t\n      SWAP1 \t\t\t\n      SWAP3 \t\t\t\n      DIV \t\t\t\n      PUSH 1\t\t\t\n      PUSH 1\t\t\t\n      PUSH D0\t\t\t\n      SHL \t\t\t\n      SUB \t\t\t\n      AND \t\t\t\n      PUSH 20\t\t\t\n      DUP5 \t\t\t\n      ADD \t\t\t\n      MSTORE \t\t\t\n      SWAP2 \t\t\t\n      SWAP3 \t\t\t\n      POP \t\t\t\n      SWAP1 \t\t\t\n      DUP8 \t\t\t\n      AND \t\t\t\n      LT \t\t\t\n      ISZERO \t\t\t\n      PUSH [tag] 947\t\t\t\n      JUMPI \t\t\t\n      PUSH 40\t\t\t\n      MLOAD \t\t\t\n      PUSH 2520601D\t\t\t\n      PUSH E0\t\t\t\n      SHL \t\t\t\n      DUP2 \t\t\t\n      MSTORE \t\t\t\n      PUSH 4\t\t\t\n      ADD \t\t\t\n      PUSH 40\t\t\t\n      MLOAD \t\t\t\n      DUP1 \t\t\t\n      SWAP2 \t\t\t\n      SUB \t\t\t\n      SWAP1 \t\t\t\n      REVERT \t\t\t\n    tag 947\t\t\t\n      JUMPDEST \t\t\t\n      DUP1 \t\t\t\n      MLOAD \t\t\t\n      PUSH FFFFFFFFFFFF\t\t\t\n      DUP1 \t\t\t\n      DUP9 \t\t\t\n      AND \t\t\t\n      SWAP2 \t\t\t\n      AND \t\t\t\n      SUB \t\t\t\n      PUSH [tag] 948\t\t\t\n      JUMPI \t\t\t\n      DUP5 \t\t\t\n      PUSH [tag] 949\t\t\t\n      DUP9 \t\t\t\n      PUSH [tag] 687\t\t\t\n      PUSH 1\t\t\t\n      DUP7 \t\t\t\n      PUSH [tag] 435\t\t\t\n      JUMP \t\t\t\n    tag 949\t\t\t\n      JUMPDEST \t\t\t\n      DUP1 \t\t\t\n      SLOAD \t\t\t\n      PUSH 1\t\t\t\n      PUSH 1\t\t\t\n      PUSH D0\t\t\t\n      SHL \t\t\t\n      SUB \t\t\t\n      SWAP3 \t\t\t\n      SWAP1 \t\t\t\n      SWAP3 \t\t\t\n      AND \t\t\t\n      PUSH 1\t\t\t\n      PUSH 30\t\t\t\n      SHL \t\t\t\n      MUL \t\t\t\n      PUSH FFFFFFFFFFFF\t\t\t\n      SWAP1 \t\t\t\n      SWAP3 \t\t\t\n      AND \t\t\t\n      SWAP2 \t\t\t\n      SWAP1 \t\t\t\n      SWAP2 \t\t\t\n      OR \t\t\t\n      SWAP1 \t\t\t\n      SSTORE \t\t\t\n      PUSH [tag] 951\t\t\t\n      JUMP \t\t\t\n    tag 948\t\t\t\n      JUMPDEST \t\t\t\n      PUSH 40\t\t\t\n      DUP1 \t\t\t\n      MLOAD \t\t\t\n      DUP1 \t\t\t\n      DUP3 \t\t\t\n      ADD \t\t\t\n      SWAP1 \t\t\t\n      SWAP2 \t\t\t\n      MSTORE \t\t\t\n      PUSH FFFFFFFFFFFF\t\t\t\n      DUP1 \t\t\t\n      DUP9 \t\t\t\n      AND \t\t\t\n      DUP3 \t\t\t\n      MSTORE \t\t\t\n      PUSH 1\t\t\t\n      PUSH 1\t\t\t\n      PUSH D0\t\t\t\n      SHL \t\t\t\n      SUB \t\t\t\n      DUP1 \t\t\t\n      DUP9 \t\t\t\n      AND \t\t\t\n      PUSH 20\t\t\t\n      DUP1 \t\t\t\n      DUP6 \t\t\t\n      ADD \t\t\t\n      SWAP2 \t\t\t\n      DUP3 \t\t\t\n      MSTORE \t\t\t\n      DUP12 \t\t\t\n      SLOAD \t\t\t\n      PUSH 1\t\t\t\n      DUP2 \t\t\t\n      ADD \t\t\t\n      DUP14 \t\t\t\n      SSTORE \t\t\t\n      PUSH 0\t\t\t\n      DUP14 \t\t\t\n      DUP2 \t\t\t\n      MSTORE \t\t\t\n      SWAP2 \t\t\t\n      SWAP1 \t\t\t\n      SWAP2 \t\t\t\n      KECCAK256 \t\t\t\n      SWAP5 \t\t\t\n      MLOAD \t\t\t\n      SWAP2 \t\t\t\n      MLOAD \t\t\t\n      SWAP1 \t\t\t\n      SWAP3 \t\t\t\n      AND \t\t\t\n      PUSH 1\t\t\t\n      PUSH 30\t\t\t\n      SHL \t\t\t\n      MUL \t\t\t\n      SWAP3 \t\t\t\n      AND \t\t\t\n      SWAP2 \t\t\t\n      SWAP1 \t\t\t\n      SWAP2 \t\t\t\n      OR \t\t\t\n      SWAP2 \t\t\t\n      ADD \t\t\t\n      SSTORE \t\t\t\n    tag 951\t\t\t\n      JUMPDEST \t\t\t\n      PUSH 20\t\t\t\n      ADD \t\t\t\n      MLOAD \t\t\t\n      SWAP3 \t\t\t\n      POP \t\t\t\n      DUP4 \t\t\t\n      SWAP2 \t\t\t\n      POP \t\t\t\n      PUSH [tag] 785\t\t\t\n      SWAP1 \t\t\t\n      POP \t\t\t\n      JUMP \t\t\t\n    tag 944\t\t\t\n      JUMPDEST \t\t\t\n      POP \t\t\t\n      POP \t\t\t\n      PUSH 40\t\t\t\n      DUP1 \t\t\t\n      MLOAD \t\t\t\n      DUP1 \t\t\t\n      DUP3 \t\t\t\n      ADD \t\t\t\n      SWAP1 \t\t\t\n      SWAP2 \t\t\t\n      MSTORE \t\t\t\n      PUSH FFFFFFFFFFFF\t\t\t\n      DUP1 \t\t\t\n      DUP6 \t\t\t\n      AND \t\t\t\n      DUP3 \t\t\t\n      MSTORE \t\t\t\n      PUSH 1\t\t\t\n      PUSH 1\t\t\t\n      PUSH D0\t\t\t\n      SHL \t\t\t\n      SUB \t\t\t\n      DUP1 \t\t\t\n      DUP6 \t\t\t\n      AND \t\t\t\n      PUSH 20\t\t\t\n      DUP1 \t\t\t\n      DUP6 \t\t\t\n      ADD \t\t\t\n      SWAP2 \t\t\t\n      DUP3 \t\t\t\n      MSTORE \t\t\t\n      DUP9 \t\t\t\n      SLOAD \t\t\t\n      PUSH 1\t\t\t\n      DUP2 \t\t\t\n      ADD \t\t\t\n      DUP11 \t\t\t\n      SSTORE \t\t\t\n      PUSH 0\t\t\t\n      DUP11 \t\t\t\n      DUP2 \t\t\t\n      MSTORE \t\t\t\n      SWAP2 \t\t\t\n      DUP3 \t\t\t\n      KECCAK256 \t\t\t\n      SWAP6 \t\t\t\n      MLOAD \t\t\t\n      SWAP3 \t\t\t\n      MLOAD \t\t\t\n      SWAP1 \t\t\t\n      SWAP4 \t\t\t\n      AND \t\t\t\n      PUSH 1\t\t\t\n      PUSH 30\t\t\t\n      SHL \t\t\t\n      MUL \t\t\t\n      SWAP2 \t\t\t\n      SWAP1 \t\t\t\n      SWAP4 \t\t\t\n      AND \t\t\t\n      OR \t\t\t\n      SWAP3 \t\t\t\n      ADD \t\t\t\n      SWAP2 \t\t\t\n      SWAP1 \t\t\t\n      SWAP2 \t\t\t\n      SSTORE \t\t\t\n      SWAP1 \t\t\t\n      POP \t\t\t\n      DUP2 \t\t\t\n      PUSH [tag] 785\t\t\t\n      JUMP \t\t\t\n    tag 825\t\t\tesQuorumFraction)\\n        ret...\n      JUMPDEST \t\t\tesQuorumFraction)\\n        ret...\n      PUSH 0\t\t\tumbe\n      DUP2 \t\t\t)\\n        public\\n        v\n      DUP2 \t\t\t)\\n        public\\n        v\n      MSTORE \t\t\t)\\n        public\\n        v\n      PUSH 9\t\t\t)\\n        publ\n      PUSH 20\t\t\t)\\n        public\\n        v\n      MSTORE \t\t\t)\\n        public\\n        v\n      PUSH 40\t\t\t)\\n        public\\n        v\n      DUP2 \t\t\t)\\n        public\\n        v\n      KECCAK256 \t\t\t)\\n        public\\n        v\n      PUSH 2\t\t\ttate)\\n    {\\n        retur\n      DUP2 \t\t\ttate)\\n    {\\n        retur\n      ADD \t\t\ttate)\\n    {\\n        retur\n      SLOAD \t\t\ttate)\\n    {\\n        retur\n      PUSH 1\t\t\t      returns (Propos\n      DUP3 \t\t\t      returns (Propos\n      ADD \t\t\t      returns (Propos\n      SLOAD \t\t\t      returns (Propos\n      PUSH [tag] 957\t\t\t      returns (ProposalState)\\...\n      SWAP2 \t\t\t      returns (ProposalState)\\...\n      SWAP1 \t\t\ttate)\\n    {\\n        retur\n      PUSH [tag] 682\t\t\t      returns (ProposalState)\\...\n      JUMP \t\t\t      returns (ProposalState)\\...\n    tag 957\t\t\t      returns (ProposalState)\\...\n      JUMPDEST \t\t\t      returns (ProposalState)\\...\n      PUSH [tag] 958\t\t\tde(Governor, GovernorTimelockC...\n      PUSH [tag] 303\t\t\trnor, GovernorTimelockContro\n      DUP6 \t\t\telockContr\n      PUSH [tag] 111\t\t\trnor, GovernorTi\n      JUMP \t\t\trnor, GovernorTimelockContro\n    tag 958\t\t\tde(Governor, GovernorTimelockC...\n      JUMPDEST \t\t\tde(Governor, GovernorTimelockC...\n      GT \t\t\tde(Governor, GovernorTimelockC...\n      ISZERO \t\t\tde(Governor, GovernorTimelockC...\n      SWAP4 \t\t\tde(Governor, GovernorTimelockC...\n      SWAP3 \t\t\tesQuorumFraction)\\n        ret...\n      POP \t\t\t\n      POP \t\t\t\n      POP \t\t\t\n      JUMP \t\t\tesQuorumFraction)\\n        ret...\n    tag 836\t\t\t\n      JUMPDEST \t\t\t\n      PUSH 0\t\t\t\n      DUP1 \t\t\t\n      PUSH [tag] 962\t\t\t\n      DUP7 \t\t\t\n      DUP7 \t\t\t\n      DUP7 \t\t\t\n      DUP7 \t\t\t\n      PUSH [tag] 266\t\t\t\n      JUMP \t\t\t\n    tag 962\t\t\t\n      JUMPDEST \t\t\t\n      SWAP1 \t\t\t\n      POP \t\t\t\n      PUSH [tag] 963\t\t\t\n      DUP2 \t\t\t\n      PUSH [tag] 964\t\t\t\n      PUSH 7\t\t\t\n      PUSH [tag] 343\t\t\t\n      JUMP \t\t\t\n    tag 964\t\t\t\n      JUMPDEST \t\t\t\n      PUSH [tag] 965\t\t\t\n      PUSH 6\t\t\t\n      PUSH [tag] 343\t\t\t\n      JUMP \t\t\t\n    tag 965\t\t\t\n      JUMPDEST \t\t\t\n      PUSH [tag] 966\t\t\t\n      PUSH 2\t\t\t\n      PUSH [tag] 343\t\t\t\n      JUMP \t\t\t\n    tag 966\t\t\t\n      JUMPDEST \t\t\t\n      PUSH 1\t\t\t5\n      PUSH [tag] 969\t\t\t    function proposalNeedsQueu...\n      PUSH 7\t\t\tnction proposalNeedsQue\n      DUP3 \t\t\t5\n      PUSH [tag] 970\t\t\t    function proposalNeedsQueu...\n      JUMP \t\t\t    function proposalNeedsQueu...\n    tag 969\t\t\t    function proposalNeedsQueu...\n      JUMPDEST \t\t\t    function proposalNeedsQueu...\n      PUSH [tag] 971\t\t\t   }\\n\\n    function proposalN...\n      SWAP1 \t\t\t   }\\n\\n    function proposalN...\n      PUSH 2\t\t\t \n      PUSH [tag] 972\t\t\t   }\\n\\n    function proposalN...\n      JUMP \t\t\t   }\\n\\n    function proposalN...\n    tag 971\t\t\t   }\\n\\n    function proposalN...\n      JUMPDEST \t\t\t   }\\n\\n    function proposalN...\n      PUSH [tag] 973\t\t\t    }\\n\\n    function proposal...\n      SWAP2 \t\t\t    }\\n\\n    function proposal...\n      SWAP1 \t\t\t    }\\n\\n    function proposal...\n      PUSH [tag] 435\t\t\t    }\\n\\n    function proposal...\n      JUMP \t\t\t    }\\n\\n    function proposal...\n    tag 973\t\t\t    }\\n\\n    function proposal...\n      JUMPDEST \t\t\t    }\\n\\n    function proposal...\n      XOR \t\t\t\n      XOR \t\t\t\n      XOR \t\t\t\n      PUSH [tag] 344\t\t\t\n      JUMP \t\t\t\n    tag 963\t\t\t\n      JUMPDEST \t\t\t\n      POP \t\t\t\n      PUSH 0\t\t\t\n      DUP2 \t\t\t\n      DUP2 \t\t\t\n      MSTORE \t\t\t\n      PUSH 4\t\t\t\n      PUSH 20\t\t\t\n      MSTORE \t\t\t\n      PUSH 40\t\t\t\n      SWAP1 \t\t\t\n      DUP2 \t\t\t\n      SWAP1 \t\t\t\n      KECCAK256 \t\t\t\n      DUP1 \t\t\t\n      SLOAD \t\t\t\n      PUSH 1\t\t\t\n      PUSH 1\t\t\t\n      PUSH F8\t\t\t\n      SHL \t\t\t\n      SUB \t\t\t\n      AND \t\t\t\n      PUSH 1\t\t\t\n      PUSH F8\t\t\t\n      SHL \t\t\t\n      OR \t\t\t\n      SWAP1 \t\t\t\n      SSTORE \t\t\t\n      MLOAD \t\t\t\n      PUSH 789CF55BE980739DAD1D0699B93B58E806B51C9D96619BFA8FE0A28ABAA7B30C\t\t\t\n      SWAP1 \t\t\t\n      PUSH [tag] 378\t\t\t\n      SWAP1 \t\t\t\n      DUP4 \t\t\t\n      DUP2 \t\t\tgSimple,\\n    GovernorVote\n      MSTORE \t\t\tgSimple,\\n    GovernorVote\n      PUSH 20\t\t\ter\n      ADD \t\t\tttings,\\n    Govern\n      SWAP1 \t\t\tttings,\\n    Govern\n      JUMP \t\t\tts@5.0.1/governance/extensions...\n    tag 852\t\t\t\n      JUMPDEST \t\t\t\n      PUSH 0\t\t\t\n      DUP1 \t\t\t\n      DUP1 \t\t\t\n      PUSH 7FFFFFFFFFFFFFFFFFFFFFFFFFFFFFFF5D576E7357A4501DDFE92F46681B20A0\t\t\t\n      DUP5 \t\t\t\n      GT \t\t\t\n      ISZERO \t\t\t\n      PUSH [tag] 979\t\t\t\n      JUMPI \t\t\t\n      POP \t\t\t\n      PUSH 0\t\t\t\n      SWAP2 \t\t\t\n      POP \t\t\t\n      PUSH 3\t\t\t\n      SWAP1 \t\t\t\n      POP \t\t\t\n      DUP3 \t\t\t\n      PUSH [tag] 978\t\t\t\n      JUMP \t\t\t\n    tag 979\t\t\t\n      JUMPDEST \t\t\t\n      PUSH 40\t\t\t\n      DUP1 \t\t\t\n      MLOAD \t\t\t\n      PUSH 0\t\t\t\n      DUP1 \t\t\t\n      DUP3 \t\t\t\n      MSTORE \t\t\t\n      PUSH 20\t\t\t\n      DUP3 \t\t\t\n      ADD \t\t\t\n      DUP1 \t\t\t\n      DUP5 \t\t\t\n      MSTORE \t\t\t\n      DUP11 \t\t\t\n      SWAP1 \t\t\t\n      MSTORE \t\t\t\n      PUSH FF\t\t\t\n      DUP10 \t\t\t\n      AND \t\t\t\n      SWAP3 \t\t\t\n      DUP3 \t\t\t\n      ADD \t\t\t\n      SWAP3 \t\t\t\n      SWAP1 \t\t\t\n      SWAP3 \t\t\t\n      MSTORE \t\t\t\n      PUSH 60\t\t\t\n      DUP2 \t\t\t\n      ADD \t\t\t\n      DUP8 \t\t\t\n      SWAP1 \t\t\t\n      MSTORE \t\t\t\n      PUSH 80\t\t\t\n      DUP2 \t\t\t\n      ADD \t\t\t\n      DUP7 \t\t\t\n      SWAP1 \t\t\t\n      MSTORE \t\t\t\n      PUSH 1\t\t\t\n      SWAP1 \t\t\t\n      PUSH A0\t\t\t\n      ADD \t\t\t\n      PUSH 20\t\t\t\n      PUSH 40\t\t\t\n      MLOAD \t\t\t\n      PUSH 20\t\t\t\n      DUP2 \t\t\t\n      SUB \t\t\t\n      SWAP1 \t\t\t\n      DUP1 \t\t\t\n      DUP5 \t\t\t\n      SUB \t\t\t\n      SWAP1 \t\t\t\n      DUP6 \t\t\t\n      GAS \t\t\t\n      STATICCALL \t\t\t\n      ISZERO \t\t\t\n      DUP1 \t\t\t\n      ISZERO \t\t\t\n      PUSH [tag] 983\t\t\t\n      JUMPI \t\t\t\n      RETURNDATASIZE \t\t\t\n      PUSH 0\t\t\t\n      DUP1 \t\t\t\n      RETURNDATACOPY \t\t\t\n      RETURNDATASIZE \t\t\t\n      PUSH 0\t\t\t\n      REVERT \t\t\t\n    tag 983\t\t\t\n      JUMPDEST \t\t\t\n      POP \t\t\t\n      POP \t\t\t\n      PUSH 40\t\t\t\n      MLOAD \t\t\t\n      PUSH 1F\t\t\t\n      NOT \t\t\t\n      ADD \t\t\t\n      MLOAD \t\t\t\n      SWAP2 \t\t\t\n      POP \t\t\t\n      POP \t\t\t\n      PUSH 1\t\t\t\n      PUSH 1\t\t\t\n      PUSH A0\t\t\t\n      SHL \t\t\t\n      SUB \t\t\t\n      DUP2 \t\t\t\n      AND \t\t\t\n      PUSH [tag] 984\t\t\t\n      JUMPI \t\t\t\n      POP \t\t\t\n      PUSH 0\t\t\t\n      SWAP3 \t\t\t\n      POP \t\t\t\n      PUSH 1\t\t\t\n      SWAP2 \t\t\t\n      POP \t\t\t\n      DUP3 \t\t\t\n      SWAP1 \t\t\t\n      POP \t\t\t\n      PUSH [tag] 978\t\t\t\n      JUMP \t\t\t\n    tag 984\t\t\t\n      JUMPDEST \t\t\t\n      SWAP3 \t\t\t\n      POP \t\t\t\n      PUSH 0\t\t\t\n      SWAP2 \t\t\t\n      POP \t\t\t\n      DUP2 \t\t\t\n      SWAP1 \t\t\t\n      POP \t\t\t\n    tag 978\t\t\t\n      JUMPDEST \t\t\t\n      SWAP5 \t\t\t\n      POP \t\t\t\n      SWAP5 \t\t\t\n      POP \t\t\t\n      SWAP5 \t\t\t\n      SWAP2 \t\t\t\n      POP \t\t\t\n      POP \t\t\t\n      JUMP \t\t\t\n    tag 886\t\t\t\n      JUMPDEST \t\t\t\n      PUSH 0\t\t\t\n      DUP1 \t\t\t\n      PUSH 80\t\t\t\n      DUP4 \t\t\t\n      SWAP1 \t\t\t\n      SHR \t\t\t\n      ISZERO \t\t\t\n      PUSH [tag] 986\t\t\t\n      JUMPI \t\t\t\n      PUSH 80\t\t\t\n      SWAP3 \t\t\t\n      DUP4 \t\t\t\n      SHR \t\t\t\n      SWAP3 \t\t\t\n      ADD \t\t\t\n    tag 986\t\t\t\n      JUMPDEST \t\t\t\n      PUSH 40\t\t\t\n      DUP4 \t\t\t\n      SWAP1 \t\t\t\n      SHR \t\t\t\n      ISZERO \t\t\t\n      PUSH [tag] 987\t\t\t\n      JUMPI \t\t\t\n      PUSH 40\t\t\t\n      SWAP3 \t\t\t\n      DUP4 \t\t\t\n      SHR \t\t\t\n      SWAP3 \t\t\t\n      ADD \t\t\t\n    tag 987\t\t\t\n      JUMPDEST \t\t\t\n      PUSH 20\t\t\t\n      DUP4 \t\t\t\n      SWAP1 \t\t\t\n      SHR \t\t\t\n      ISZERO \t\t\t\n      PUSH [tag] 988\t\t\t\n      JUMPI \t\t\t\n      PUSH 20\t\t\t\n      SWAP3 \t\t\t\n      DUP4 \t\t\t\n      SHR \t\t\t\n      SWAP3 \t\t\t\n      ADD \t\t\t\n    tag 988\t\t\t\n      JUMPDEST \t\t\t\n      PUSH 10\t\t\t\n      DUP4 \t\t\t\n      SWAP1 \t\t\t\n      SHR \t\t\t\n      ISZERO \t\t\t\n      PUSH [tag] 989\t\t\t\n      JUMPI \t\t\t\n      PUSH 10\t\t\t\n      SWAP3 \t\t\t\n      DUP4 \t\t\t\n      SHR \t\t\t\n      SWAP3 \t\t\t\n      ADD \t\t\t\n    tag 989\t\t\t\n      JUMPDEST \t\t\t\n      PUSH 8\t\t\t\n      DUP4 \t\t\t\n      SWAP1 \t\t\t\n      SHR \t\t\t\n      ISZERO \t\t\t\n      PUSH [tag] 990\t\t\t\n      JUMPI \t\t\t\n      PUSH 8\t\t\t\n      SWAP3 \t\t\t\n      DUP4 \t\t\t\n      SHR \t\t\t\n      SWAP3 \t\t\t\n      ADD \t\t\t\n    tag 990\t\t\t\n      JUMPDEST \t\t\t\n      PUSH 4\t\t\t\n      DUP4 \t\t\t\n      SWAP1 \t\t\t\n      SHR \t\t\t\n      ISZERO \t\t\t\n      PUSH [tag] 991\t\t\t\n      JUMPI \t\t\t\n      PUSH 4\t\t\t\n      SWAP3 \t\t\t\n      DUP4 \t\t\t\n      SHR \t\t\t\n      SWAP3 \t\t\t\n      ADD \t\t\t\n    tag 991\t\t\t\n      JUMPDEST \t\t\t\n      PUSH 2\t\t\t\n      DUP4 \t\t\t\n      SWAP1 \t\t\t\n      SHR \t\t\t\n      ISZERO \t\t\t\n      PUSH [tag] 992\t\t\t\n      JUMPI \t\t\t\n      PUSH 2\t\t\t\n      SWAP3 \t\t\t\n      DUP4 \t\t\t\n      SHR \t\t\t\n      SWAP3 \t\t\t\n      ADD \t\t\t\n    tag 992\t\t\t\n      JUMPDEST \t\t\t\n      PUSH 1\t\t\t\n      DUP4 \t\t\t\n      SWAP1 \t\t\t\n      SHR \t\t\t\n      ISZERO \t\t\t\n      PUSH [tag] 317\t\t\t\n      JUMPI \t\t\t\n      PUSH 1\t\t\t\n      ADD \t\t\t\n      SWAP3 \t\t\t\n      SWAP2 \t\t\t\n      POP \t\t\t\n      POP \t\t\t\n      JUMP \t\t\t\n    tag 905\t\t\t2 descriptionHash\\n    ) inter...\n      JUMPDEST \t\t\t2 descriptionHash\\n    ) inter...\n      PUSH 0\t\t\torTimel\n      DUP2 \t\t\tn\n      DUP4 \t\t\t \n      LT \t\t\t (uin\n      PUSH [tag] 995\t\t\t (uint48) {\\n \n      JUMPI \t\t\t (uint48) {\\n \n      DUP2 \t\t\t \n      PUSH [tag] 544\t\t\t (uint48) {\\n \n      JUMP \t\t\t (uint48) {\\n \n    tag 995\t\t\t (uint48) {\\n \n      JUMPDEST \t\t\t (uint48) {\\n \n      POP \t\t\t\n      SWAP1 \t\t\t)\n      SWAP2 \t\t\t)\n      SWAP1 \t\t\t2 descriptionHash\\n    ) inter...\n      POP \t\t\t\n      JUMP \t\t\t2 descriptionHash\\n    ) inter...\n    tag 911\t\t\talues,\\n                callda...\n      JUMPDEST \t\t\talues,\\n                callda...\n      PUSH 0\t\t\tash\\n   \n      PUSH [tag] 998\t\t\t6 proposalI\n      PUSH 2\t\t\tI\n      DUP5 \t\t\t prop\n      DUP5 \t\t\t prop\n      XOR \t\t\t prop\n      PUSH [tag] 777\t\t\t6 proposalI\n      JUMP \t\t\t6 proposalI\n    tag 998\t\t\t6 proposalI\n      JUMPDEST \t\t\t6 proposalI\n      PUSH [tag] 544\t\t\t    uint256 proposalI\n      SWAP1 \t\t\t    uint256 proposalI\n      DUP5 \t\t\t   ui\n      DUP5 \t\t\t   ui\n      AND \t\t\t   ui\n      PUSH [tag] 682\t\t\t    uint256 proposalI\n      JUMP \t\t\t    uint256 proposalI\n    tag 933\t\t\t, GovernorTimelockControl)\\n  ...\n      JUMPDEST \t\t\t, GovernorTimelockControl)\\n  ...\n      PUSH 60\t\t\t     return s\n      PUSH 0\t\t\tlNeedsQueui\n      PUSH [tag] 1001\t\t\tproposalId);\\n   \n      DUP4 \t\t\t;\\n  \n      PUSH [tag] 1002\t\t\tproposalId\n      JUMP \t\t\tproposalId);\\n   \n    tag 1001\t\t\tproposalId);\\n   \n      JUMPDEST \t\t\tproposalId);\\n   \n      PUSH 40\t\t\t)\\n        retu\n      DUP1 \t\t\t)\\n        retu\n      MLOAD \t\t\t)\\n        retu\n      PUSH 20\t\t\tet\n      DUP1 \t\t\t)\\n        retu\n      DUP3 \t\t\t)\\n        retu\n      MSTORE \t\t\t)\\n        retu\n      DUP2 \t\t\t)\\n        retu\n      DUP4 \t\t\t)\\n        retu\n      ADD \t\t\t)\\n        retu\n      SWAP1 \t\t\t)\\n        retu\n      SWAP3 \t\t\t)\\n        retu\n      MSTORE \t\t\t)\\n        retu\n      SWAP2 \t\t\tlNeedsQueuing(proposalId);\\n  ...\n      SWAP3 \t\t\tlNeedsQueuing(proposalId);\\n  ...\n      POP \t\t\t\n      PUSH 0\t\t\tor, GovernorSetti\n      SWAP2 \t\t\tor, GovernorSetti\n      SWAP1 \t\t\t)\\n        retu\n      PUSH 20\t\t\t)\\n        retu\n      DUP3 \t\t\t)\\n        retu\n      ADD \t\t\t)\\n        retu\n      DUP2 \t\t\t)\\n        retu\n      DUP1 \t\t\t)\\n        retu\n      CALLDATASIZE \t\t\t)\\n        retu\n      DUP4 \t\t\t)\\n        retu\n      CALLDATACOPY \t\t\t)\\n        retu\n      POP \t\t\t\n      POP \t\t\t\n      POP \t\t\t\n      SWAP2 \t\t\tction _queueOper\n      DUP3 \t\t\tction _queueOper\n      MSTORE \t\t\tction _queueOper\n      POP \t\t\t\n      PUSH 20\t\t\tsalI\n      DUP2 \t\t\t256 proposalId\n      ADD \t\t\t256 proposalId\n      SWAP3 \t\t\t   uint256 proposalId,\\n     \n      SWAP1 \t\t\t   uint256 proposalId,\\n     \n      SWAP3 \t\t\t   uint256 proposalId,\\n     \n      MSTORE \t\t\t   uint256 proposalId,\\n     \n      POP \t\t\t\n      SWAP1 \t\t\tction _queueOper\n      JUMP \t\t\t, GovernorTimelockControl)\\n  ...\n    tag 1002\t\t\ts32 descriptionHash\\n    ) int...\n      JUMPDEST \t\t\ts32 descriptionHash\\n    ) int...\n      PUSH 0\t\t\trTimelo\n      PUSH FF\t\t\tueue\n      DUP3 \t\t\t\\n        return\\n            ...\n      AND \t\t\t\\n        return\\n            ...\n      PUSH 1F\t\t\t  \n      DUP2 \t\t\t           \n      GT \t\t\t           \n      ISZERO \t\t\t(\\n                proposalId,...\n      PUSH [tag] 317\t\t\t(\\n                proposalId,...\n      JUMPI \t\t\t(\\n                proposalId,...\n      PUSH 40\t\t\t        targets,\\n   \n      MLOAD \t\t\t        targets,\\n   \n      PUSH 2CD44AC3\t\t\t\n      PUSH E2\t\t\t\n      SHL \t\t\t\n      DUP2 \t\t\t        targets,\\n   \n      MSTORE \t\t\t        targets,\\n   \n      PUSH 4\t\t\t        targets,\\n   \n      ADD \t\t\t        targets,\\n   \n      PUSH 40\t\t\t        targets,\\n   \n      MLOAD \t\t\t        targets,\\n   \n      DUP1 \t\t\t        targets,\\n   \n      SWAP2 \t\t\t        targets,\\n   \n      SUB \t\t\t        targets,\\n   \n      SWAP1 \t\t\t        targets,\\n   \n      REVERT \t\t\t        targets,\\n   \n    tag 66\t\t\te-Identifier: MIT\\npragma soli...\n      JUMPDEST \t\t\te-Identifier: MIT\\npragma soli...\n      PUSH 0\t\t\teppeli\n      PUSH 20\t\t\tor\n      DUP3 \t\t\tor.sol\";\\n\n      DUP5 \t\t\tce/Gove\n      SUB \t\t\trnance/Governor.sol\";\\ni\n      SLT \t\t\tgovernance/Governor.sol\";\\nimp...\n      ISZERO \t\t\t.1/governance/Governor.sol\";\\n...\n      PUSH [tag] 1031\t\t\t.1/governance/Governor.sol\";\\n...\n      JUMPI \t\t\t.1/governance/Governor.sol\";\\n...\n      PUSH 0\t\t\ti\n      DUP1 \t\t\tp\n      REVERT \t\t\topenzeppelin\n    tag 1031\t\t\t.1/governance/Governor.sol\";\\n...\n      JUMPDEST \t\t\t.1/governance/Governor.sol\";\\n...\n      DUP2 \t\t\tnce/extensions/Governor\n      CALLDATALOAD \t\t\tnce/extensions/Governor\n      PUSH 1\t\t\t\n      PUSH 1\t\t\t\n      PUSH E0\t\t\t\n      SHL \t\t\t\n      SUB \t\t\t\n      NOT \t\t\t\n      DUP2 \t\t\teppelin/contracts@5.0.1/govern...\n      AND \t\t\teppelin/contracts@5.0.1/govern...\n      DUP2 \t\t\trt \"@openzeppelin/contracts@5....\n      EQ \t\t\trt \"@openzeppelin/contracts@5....\n      PUSH [tag] 544\t\t\tsol\";\\nimport \"@openzeppelin/c...\n      JUMPI \t\t\tsol\";\\nimport \"@openzeppelin/c...\n      PUSH 0\t\t\to\n      DUP1 \t\t\ts\n      REVERT \t\t\ttensions/Gov\n    tag 78\t\t\trnorVotesQuorumFraction,\\n    ...\n      JUMPDEST \t\t\trnorVotesQuorumFraction,\\n    ...\n      PUSH 0\t\t\tconstr\n      PUSH 20\t\t\ton\n      DUP3 \t\t\t   Timelo\n      DUP5 \t\t\ten,\\n   \n      SUB \t\t\t_token,\\n        Timeloc\n      SLT \t\t\ttes _token,\\n        TimelockC...\n      ISZERO \t\t\tIVotes _token,\\n        Timelo...\n      PUSH [tag] 1036\t\t\tIVotes _token,\\n        Timelo...\n      JUMPI \t\t\tIVotes _token,\\n        Timelo...\n      PUSH 0\t\t\to\n      DUP1 \t\t\tm\n      REVERT \t\t\tler _timeloc\n    tag 1036\t\t\tIVotes _token,\\n        Timelo...\n      JUMPDEST \t\t\tIVotes _token,\\n        Timelo...\n      POP \t\t\t\n      CALLDATALOAD \t\t\ttingDelay,\\n        uint\n      SWAP2 \t\t\ttingDelay,\\n        uint\n      SWAP1 \t\t\trnorVotesQuorumFraction,\\n    ...\n      POP \t\t\t\n      JUMP \t\t\trnorVotesQuorumFraction,\\n    ...\n    tag 1008\t\t\teriod,\\n        uint256 _quoru...\n      JUMPDEST \t\t\teriod,\\n        uint256 _quoru...\n      PUSH 0\t\t\t \n    tag 1038\t\t\ternorSettings(_votingDelay, _v...\n      JUMPDEST \t\t\ternorSettings(_votingDelay, _v...\n      DUP4 \t\t\t_votin\n      DUP2 \t\t\tg\n      LT \t\t\ttings(_voting\n      ISZERO \t\t\ternorSettings(_votingDelay, _v...\n      PUSH [tag] 1040\t\t\ternorSettings(_votingDelay, _v...\n      JUMPI \t\t\ternorSettings(_votingDelay, _v...\n      DUP2 \t\t\torVotesQuor\n      DUP2 \t\t\torVotesQuor\n      ADD \t\t\torVotesQuor\n      MLOAD \t\t\tGovernorVotesQuoru\n      DUP4 \t\t\tken)\\n      \n      DUP3 \t\t\tken)\\n      \n      ADD \t\t\tken)\\n      \n      MSTORE \t\t\ttes(_token)\\n        GovernorV...\n      PUSH 20\t\t\ter\n      ADD \t\t\tvotingPeri\n      PUSH [tag] 1038\t\t\ternorSettings(_votingDelay, _v...\n      JUMP \t\t\ternorSettings(_votingDelay, _v...\n    tag 1040\t\t\ternorSettings(_votingDelay, _v...\n      JUMPDEST \t\t\ternorSettings(_votingDelay, _v...\n      POP \t\t\t\n      POP \t\t\t\n      PUSH 0\t\t\tT\n      SWAP2 \t\t\t)\\n        Govern\n      ADD \t\t\t)\\n        Govern\n      MSTORE \t\t\tcentage)\\n        GovernorTi\n      JUMP \t\t\teriod,\\n        uint256 _quoru...\n    tag 1009\t\t\tol(_timelock)\\n    {}\\n\\n    /...\n      JUMPDEST \t\t\tol(_timelock)\\n    {}\\n\\n    /...\n      PUSH 0\t\t\t fu\n      DUP2 \t\t\tolidi\n      MLOAD \t\t\td by Solidit\n      DUP1 \t\t\tngDela\n      DUP5 \t\t\t vo\n      MSTORE \t\t\tunction votingDelay\n      PUSH [tag] 1042\t\t\t  public\\n        view\\n      ...\n      DUP2 \t\t\t      \n      PUSH 20\t\t\tngs)\n      DUP7 \t\t\tSet\n      ADD \t\t\trnorSettings)\\n\n      PUSH 20\t\t\tr, G\n      DUP7 \t\t\tGover\n      ADD \t\t\tide(Governor, Go\n      PUSH [tag] 1008\t\t\t  public\\n        view\\n      ...\n      JUMP \t\t\t  public\\n        view\\n      ...\n    tag 1042\t\t\t  public\\n        view\\n      ...\n      JUMPDEST \t\t\t  public\\n        view\\n      ...\n      PUSH 1F\t\t\ty(\n      ADD \t\t\tturn super.voti\n      PUSH 1F\t\t\t\n      NOT \t\t\t\n      AND \t\t\t  return super.votingDelay();\n      SWAP3 \t\t\t {\\n        return super.votin...\n      SWAP1 \t\t\t {\\n        return super.votin...\n      SWAP3 \t\t\t {\\n        return super.votin...\n      ADD \t\t\t {\\n        return super.votin...\n      PUSH 20\t\t\t  }\\n\n      ADD \t\t\t\\n    {\\n        return super....\n      SWAP3 \t\t\t\\n    {\\n        return super....\n      SWAP2 \t\t\tol(_timelock)\\n    {}\\n\\n    /...\n      POP \t\t\t\n      POP \t\t\t\n      JUMP \t\t\tol(_timelock)\\n    {}\\n\\n    /...\n    tag 84\t\t\tn votingPeriod()\\n        publ...\n      JUMPDEST \t\t\tn votingPeriod()\\n        publ...\n      PUSH 20\t\t\tPe\n      DUP2 \t\t\tuper.voti\n      MSTORE \t\t\teturn super.votingPer\n      PUSH 0\t\t\t56)\\n\n      PUSH [tag] 544\t\t\t function quorum(uint256 block...\n      PUSH 20\t\t\t  \n      DUP4 \t\t\tNumber)\\n \n      ADD \t\t\tlockNumber)\\n      \n      DUP5 \t\t\tint256\n      PUSH [tag] 1009\t\t\t function quorum(uint256 block...\n      JUMP \t\t\t function quorum(uint256 block...\n    tag 1010\t\t\t view\\n        override(Govern...\n      JUMPDEST \t\t\t view\\n        override(Govern...\n      PUSH 1\t\t\t\n      PUSH 1\t\t\t\n      PUSH A0\t\t\t\n      SHL \t\t\t\n      SUB \t\t\t\n      DUP2 \t\t\tProposalState)\\n    {\\n       ...\n      AND \t\t\tProposalState)\\n    {\\n       ...\n      DUP2 \t\t\t returns (ProposalState)\\n    ...\n      EQ \t\t\t returns (ProposalState)\\n    ...\n      PUSH [tag] 326\t\t\tl)\\n        returns (ProposalS...\n      JUMPI \t\t\tl)\\n        returns (ProposalS...\n      PUSH 0\t\t\te\n      DUP1 \t\t\tt\n      REVERT \t\t\tsuper.state(\n    tag 476\t\t\t    }\\n\\n    function proposal...\n      JUMPDEST \t\t\t    }\\n\\n    function proposal...\n      PUSH 4E487B71\t\t\t        pu\n      PUSH E0\t\t\tlId\n      SHL \t\t\tposalId)\\n        pub\n      PUSH 0\t\t\tp\n      MSTORE \t\t\tint256 proposalId)\\n        pu...\n      PUSH 41\t\t\t    \n      PUSH 4\t\t\t \n      MSTORE \t\t\t  view\\n        \n      PUSH 24\t\t\tGove\n      PUSH 0\t\t\tr\n      REVERT \t\t\tGovernor, Gover\n    tag 1011\t\t\tControl)\\n        returns (boo...\n      JUMPDEST \t\t\tControl)\\n        returns (boo...\n      PUSH 40\t\t\tsQ\n      MLOAD \t\t\talNeedsQu\n      PUSH 1F\t\t\t  \n      DUP3 \t\t\tosalThreshold\n      ADD \t\t\tosalThreshold\n      PUSH 1F\t\t\t\n      NOT \t\t\t\n      AND \t\t\tproposalThreshold()\\n       \n      DUP2 \t\t\t   function proposalThreshold(...\n      ADD \t\t\t   function proposalThreshold(...\n      PUSH 1\t\t\t\n      PUSH 1\t\t\t\n      PUSH 40\t\t\t\n      SHL \t\t\t\n      SUB \t\t\t\n      DUP2 \t\t\tview\\n        override(Governo...\n      GT \t\t\tview\\n        override(Governo...\n      DUP3 \t\t\trnorSettings)\\n        \n      DUP3 \t\t\trnorSettings)\\n        \n      LT \t\t\trnorSettings)\\n        \n      OR \t\t\t   view\\n        override(Gove...\n      ISZERO \t\t\t      view\\n        override(G...\n      PUSH [tag] 1051\t\t\t      view\\n        override(G...\n      JUMPI \t\t\t      view\\n        override(G...\n      PUSH [tag] 1051\t\t\trns (uint256)\\n    \n      PUSH [tag] 476\t\t\trns (uint256)\\n    \n      JUMP \t\t\trns (uint256)\\n    \n    tag 1051\t\t\trns (uint256)\\n    \n      JUMPDEST \t\t\trns (uint256)\\n    \n      PUSH 40\t\t\tup\n      MSTORE \t\t\teturn super.proposalTh\n      SWAP2 \t\t\tControl)\\n        returns (boo...\n      SWAP1 \t\t\tControl)\\n        returns (boo...\n      POP \t\t\t\n      JUMP \t\t\tControl)\\n        returns (boo...\n    tag 1012\t\t\t    }\\n\\n    function _queueOp...\n      JUMPDEST \t\t\t    }\\n\\n    function _queueOp...\n      PUSH 0\t\t\tnt25\n      PUSH 1\t\t\t\n      PUSH 1\t\t\t\n      PUSH 40\t\t\t\n      SHL \t\t\t\n      SUB \t\t\t\n      DUP3 \t\t\t addre\n      GT \t\t\t    address[] memory targets,\\...\n      ISZERO \t\t\t       address[] memory target...\n      PUSH [tag] 1054\t\t\t       address[] memory target...\n      JUMPI \t\t\t       address[] memory target...\n      PUSH [tag] 1054\t\t\t     uint256[] mem\n      PUSH [tag] 476\t\t\t     uint256[] mem\n      JUMP \t\t\t     uint256[] mem\n    tag 1054\t\t\t     uint256[] mem\n      JUMPDEST \t\t\t     uint256[] mem\n      POP \t\t\t\n      PUSH 1F\t\t\t  \n      ADD \t\t\t memory calldat\n      PUSH 1F\t\t\t\n      NOT \t\t\t\n      AND \t\t\tes[] memory calldatas,\\n      \n      PUSH 20\t\t\tbyte\n      ADD \t\t\t bytes[] memory calldatas,\\n  ...\n      SWAP1 \t\t\t bytes[] memory calldatas,\\n  ...\n      JUMP \t\t\t    }\\n\\n    function _queueOp...\n    tag 1013\t\t\tionHash\\n    ) internal overri...\n      JUMPDEST \t\t\tionHash\\n    ) internal overri...\n      PUSH 0\t\t\tl) re\n      PUSH [tag] 1056\t\t\t return\\n            super._qu...\n      PUSH [tag] 1057\t\t\t    super._queueOperations(\\n ...\n      DUP5 \t\t\t      \n      PUSH [tag] 1012\t\t\t    super._queueOperations(\\n ...\n      JUMP \t\t\t    super._queueOperations(\\n ...\n    tag 1057\t\t\t    super._queueOperations(\\n ...\n      JUMPDEST \t\t\t    super._queueOperations(\\n ...\n      PUSH [tag] 1011\t\t\t return\\n            super._qu...\n      JUMP \t\t\t return\\n            super._qu...\n    tag 1056\t\t\t return\\n            super._qu...\n      JUMPDEST \t\t\t return\\n            super._qu...\n      SWAP1 \t\t\t{\\n        return\\n           ...\n      POP \t\t\t{\\n        return\\n           ...\n      DUP3 \t\t\t      \n      DUP2 \t\t\tId,\\n \n      MSTORE \t\t\troposalId,\\n          \n      DUP4 \t\t\tlue\n      DUP4 \t\t\t      \n      DUP4 \t\t\t   \n      ADD \t\t\t                \n      GT \t\t\ts,\\n                values\n      ISZERO \t\t\tgets,\\n                values,...\n      PUSH [tag] 1058\t\t\tgets,\\n                values,...\n      JUMPI \t\t\tgets,\\n                values,...\n      PUSH 0\t\t\t \n      DUP1 \t\t\t \n      REVERT \t\t\t            \n    tag 1058\t\t\tgets,\\n                values,...\n      JUMPDEST \t\t\tgets,\\n                values,...\n      DUP3 \t\t\t      \n      DUP3 \t\t\tash\n      PUSH 20\t\t\tipti\n      DUP4 \t\t\t  des\n      ADD \t\t\t      descriptio\n      CALLDATACOPY \t\t\ts,\\n                descriptio...\n      PUSH 0\t\t\t \n      PUSH 20\t\t\ttion\n      DUP5 \t\t\tcuteOp\n      DUP4 \t\t\ton _e\n      ADD \t\t\tnction _executeOpe\n      ADD \t\t\t  function _executeOperations\n      MSTORE \t\t\t  }\\n\\n    function _executeOp...\n      SWAP4 \t\t\tionHash\\n    ) internal overri...\n      SWAP3 \t\t\tionHash\\n    ) internal overri...\n      POP \t\t\tionHash\\n    ) internal overri...\n      POP \t\t\tionHash\\n    ) internal overri...\n      POP \t\t\tionHash\\n    ) internal overri...\n      JUMP \t\t\tionHash\\n    ) internal overri...\n    tag 1014\t\t\t56 proposalId,\\n        addres...\n      JUMPDEST \t\t\t56 proposalId,\\n        addres...\n      PUSH 0\t\t\trgets\n      DUP3 \t\t\t[] \n      PUSH 1F\t\t\t  by\n      DUP4 \t\t\t,\\n    \n      ADD \t\t\tlues,\\n        byt\n      SLT \t\t\ty values,\\n        bytes[] m\n      PUSH [tag] 1060\t\t\t56[] memory values,\\n        b...\n      JUMPI \t\t\t56[] memory values,\\n        b...\n      PUSH 0\t\t\ts\n      DUP1 \t\t\ta\n      REVERT \t\t\ty calldatas,\n    tag 1060\t\t\t56[] memory values,\\n        b...\n      JUMPDEST \t\t\t56[] memory values,\\n        b...\n      PUSH [tag] 544\t\t\tcriptionHash\\n    ) internal o...\n      DUP4 \t\t\t   \n      DUP4 \t\t\ttrol) \n      CALLDATALOAD \t\t\torTimelockControl) {\n      PUSH 20\t\t\t Gov\n      DUP6 \t\t\toverno\n      ADD \t\t\tde(Governor, Gove\n      PUSH [tag] 1013\t\t\tcriptionHash\\n    ) internal o...\n      JUMP \t\t\tcriptionHash\\n    ) internal o...\n    tag 94\t\t\txecuteOperations(\\n           ...\n      JUMPDEST \t\t\txecuteOperations(\\n           ...\n      PUSH 0\t\t\tcallda\n      DUP1 \t\t\ts,\\n   \n      PUSH 0\t\t\t      \n      DUP1 \t\t\tescrip\n      PUSH 80\t\t\t(\\n \n      DUP6 \t\t\ttion _can\n      DUP8 \t\t\t\\n    fu\n      SUB \t\t\t  }\\n\\n    function _canc\n      SLT \t\t\t;\\n    }\\n\\n    function _canc...\n      ISZERO \t\t\t  );\\n    }\\n\\n    function _c...\n      PUSH [tag] 1063\t\t\t  );\\n    }\\n\\n    function _c...\n      JUMPI \t\t\t  );\\n    }\\n\\n    function _c...\n      PUSH 0\t\t\t[\n      DUP1 \t\t\te\n      REVERT \t\t\t   address[]\n    tag 1063\t\t\t  );\\n    }\\n\\n    function _c...\n      JUMPDEST \t\t\t  );\\n    }\\n\\n    function _c...\n      DUP5 \t\t\tmory valu\n      CALLDATALOAD \t\t\t uint256[] memory value\n      PUSH [tag] 1064\t\t\t  bytes[] memory calldatas,\\n ...\n      DUP2 \t\t\ts,\\n  \n      PUSH [tag] 1010\t\t\t  bytes[] memory calldatas,\\n ...\n      JUMP \t\t\t  bytes[] memory calldatas,\\n ...\n    tag 1064\t\t\t  bytes[] memory calldatas,\\n ...\n      JUMPDEST \t\t\t  bytes[] memory calldatas,\\n ...\n      SWAP4 \t\t\tption\n      POP \t\t\t\n      PUSH 20\t\t\toc\n      DUP6 \t\t\t, GovernorTimelock\n      ADD \t\t\t, GovernorTimelock\n      CALLDATALOAD \t\t\tride(Governor, GovernorTimeloc...\n      PUSH [tag] 1065\t\t\teturns (uint256) {\\n        re...\n      DUP2 \t\t\tride(Governor, GovernorTimeloc...\n      PUSH [tag] 1010\t\t\teturns (uint256) {\\n        re...\n      JUMP \t\t\teturns (uint256) {\\n        re...\n    tag 1065\t\t\teturns (uint256) {\\n        re...\n      JUMPDEST \t\t\teturns (uint256) {\\n        re...\n      SWAP3 \t\t\tets, va\n      POP \t\t\t\n      PUSH 40\t\t\tun\n      DUP6 \t\t\t);\\n    }\\n\\n    func\n      ADD \t\t\t);\\n    }\\n\\n    func\n      CALLDATALOAD \t\t\tscriptionHash);\\n    }\\n\\n    ...\n      SWAP2 \t\t\tscriptionHash);\\n    }\\n\\n    ...\n      POP \t\t\t\n      PUSH 60\t\t\t  \n      DUP6 \t\t\t     view\\n        \n      ADD \t\t\t     view\\n        \n      CALLDATALOAD \t\t\t internal\\n        view\\n     ...\n      PUSH 1\t\t\t\n      PUSH 1\t\t\t\n      PUSH 40\t\t\t\n      SHL \t\t\t\n      SUB \t\t\t\n      DUP2 \t\t\trnor, GovernorTimelockControl)\n      GT \t\t\trnor, GovernorTimelockControl)\n      ISZERO \t\t\tovernor, GovernorTimelockContr...\n      PUSH [tag] 1066\t\t\tovernor, GovernorTimelockContr...\n      JUMPI \t\t\tovernor, GovernorTimelockContr...\n      PUSH 0\t\t\tr\n      DUP1 \t\t\te\n      REVERT \t\t\t      return\n    tag 1066\t\t\tovernor, GovernorTimelockContr...\n      JUMPDEST \t\t\tovernor, GovernorTimelockContr...\n      PUSH [tag] 1067\t\t\t     return super._executor();...\n      DUP8 \t\t\t\n      DUP3 \t\t\t   }\\n}\n      DUP9 \t\t\tecutor();\n      ADD \t\t\t._executor();\\n    }\\n}\\n\n      PUSH [tag] 1014\t\t\t     return super._executor();...\n      JUMP \t\t\t     return super._executor();...\n    tag 1067\t\t\t     return super._executor();...\n      JUMPDEST \t\t\t     return super._executor();...\n      SWAP2 \t\t\t\\n    {\\n        return super....\n      POP \t\t\t\\n    {\\n        return super....\n      POP \t\t\t\\n    {\\n        return super....\n      SWAP3 \t\t\txecuteOperations(\\n           ...\n      SWAP6 \t\t\txecuteOperations(\\n           ...\n      SWAP2 \t\t\txecuteOperations(\\n           ...\n      SWAP5 \t\t\txecuteOperations(\\n           ...\n      POP \t\t\txecuteOperations(\\n           ...\n      SWAP3 \t\t\txecuteOperations(\\n           ...\n      POP \t\t\txecuteOperations(\\n           ...\n      JUMP \t\t\txecuteOperations(\\n           ...\n    tag 1015\t\t\t\n      JUMPDEST \t\t\t\n      PUSH 0\t\t\t\n      PUSH 1\t\t\t\n      PUSH 1\t\t\t\n      PUSH 40\t\t\t\n      SHL \t\t\t\n      SUB \t\t\t\n      DUP3 \t\t\t\n      GT \t\t\t\n      ISZERO \t\t\t\n      PUSH [tag] 1071\t\t\t\n      JUMPI \t\t\t\n      PUSH [tag] 1071\t\t\t\n      PUSH [tag] 476\t\t\t\n      JUMP \t\t\t\n    tag 1071\t\t\t\n      JUMPDEST \t\t\t\n      POP \t\t\t\n      PUSH 5\t\t\t\n      SHL \t\t\t\n      PUSH 20\t\t\t\n      ADD \t\t\t\n      SWAP1 \t\t\t\n      JUMP \t\t\t\n    tag 1016\t\t\t\n      JUMPDEST \t\t\t\n      PUSH 0\t\t\t\n      DUP3 \t\t\t\n      PUSH 1F\t\t\t\n      DUP4 \t\t\t\n      ADD \t\t\t\n      SLT \t\t\t\n      PUSH [tag] 1073\t\t\t\n      JUMPI \t\t\t\n      PUSH 0\t\t\t\n      DUP1 \t\t\t\n      REVERT \t\t\t\n    tag 1073\t\t\t\n      JUMPDEST \t\t\t\n      DUP2 \t\t\t\n      CALLDATALOAD \t\t\t\n      PUSH 20\t\t\t\n      PUSH [tag] 1074\t\t\t\n      PUSH [tag] 1057\t\t\t\n      DUP4 \t\t\t\n      PUSH [tag] 1015\t\t\t\n      JUMP \t\t\t\n    tag 1074\t\t\t\n      JUMPDEST \t\t\t\n      DUP1 \t\t\t\n      DUP4 \t\t\t\n      DUP3 \t\t\t\n      MSTORE \t\t\t\n      PUSH 20\t\t\t\n      DUP3 \t\t\t\n      ADD \t\t\t\n      SWAP2 \t\t\t\n      POP \t\t\t\n      PUSH 20\t\t\t\n      DUP5 \t\t\t\n      PUSH 5\t\t\t\n      SHL \t\t\t\n      DUP8 \t\t\t\n      ADD \t\t\t\n      ADD \t\t\t\n      SWAP4 \t\t\t\n      POP \t\t\t\n      DUP7 \t\t\t\n      DUP5 \t\t\t\n      GT \t\t\t\n      ISZERO \t\t\t\n      PUSH [tag] 1076\t\t\t\n      JUMPI \t\t\t\n      PUSH 0\t\t\t\n      DUP1 \t\t\t\n      REVERT \t\t\t\n    tag 1076\t\t\t\n      JUMPDEST \t\t\t\n      PUSH 20\t\t\t\n      DUP7 \t\t\t\n      ADD \t\t\t\n    tag 1077\t\t\t\n      JUMPDEST \t\t\t\n      DUP5 \t\t\t\n      DUP2 \t\t\t\n      LT \t\t\t\n      ISZERO \t\t\t\n      PUSH [tag] 1079\t\t\t\n      JUMPI \t\t\t\n      DUP1 \t\t\t\n      CALLDATALOAD \t\t\t\n      PUSH [tag] 1080\t\t\t\n      DUP2 \t\t\t\n      PUSH [tag] 1010\t\t\t\n      JUMP \t\t\t\n    tag 1080\t\t\t\n      JUMPDEST \t\t\t\n      DUP4 \t\t\t\n      MSTORE \t\t\t\n      SWAP2 \t\t\t\n      DUP4 \t\t\t\n      ADD \t\t\t\n      SWAP2 \t\t\t\n      DUP4 \t\t\t\n      ADD \t\t\t\n      PUSH [tag] 1077\t\t\t\n      JUMP \t\t\t\n    tag 1079\t\t\t\n      JUMPDEST \t\t\t\n      POP \t\t\t\n      SWAP7 \t\t\t\n      SWAP6 \t\t\t\n      POP \t\t\t\n      POP \t\t\t\n      POP \t\t\t\n      POP \t\t\t\n      POP \t\t\t\n      POP \t\t\t\n      JUMP \t\t\t\n    tag 1017\t\t\t\n      JUMPDEST \t\t\t\n      PUSH 0\t\t\t\n      DUP3 \t\t\t\n      PUSH 1F\t\t\t\n      DUP4 \t\t\t\n      ADD \t\t\t\n      SLT \t\t\t\n      PUSH [tag] 1082\t\t\t\n      JUMPI \t\t\t\n      PUSH 0\t\t\t\n      DUP1 \t\t\t\n      REVERT \t\t\t\n    tag 1082\t\t\t\n      JUMPDEST \t\t\t\n      DUP2 \t\t\t\n      CALLDATALOAD \t\t\t\n      PUSH 20\t\t\t\n      PUSH [tag] 1083\t\t\t\n      PUSH [tag] 1057\t\t\t\n      DUP4 \t\t\t\n      PUSH [tag] 1015\t\t\t\n      JUMP \t\t\t\n    tag 1083\t\t\t\n      JUMPDEST \t\t\t\n      DUP1 \t\t\t\n      DUP4 \t\t\t\n      DUP3 \t\t\t\n      MSTORE \t\t\t\n      PUSH 20\t\t\t\n      DUP3 \t\t\t\n      ADD \t\t\t\n      SWAP2 \t\t\t\n      POP \t\t\t\n      PUSH 20\t\t\t\n      DUP5 \t\t\t\n      PUSH 5\t\t\t\n      SHL \t\t\t\n      DUP8 \t\t\t\n      ADD \t\t\t\n      ADD \t\t\t\n      SWAP4 \t\t\t\n      POP \t\t\t\n      DUP7 \t\t\t\n      DUP5 \t\t\t\n      GT \t\t\t\n      ISZERO \t\t\t\n      PUSH [tag] 1085\t\t\t\n      JUMPI \t\t\t\n      PUSH 0\t\t\t\n      DUP1 \t\t\t\n      REVERT \t\t\t\n    tag 1085\t\t\t\n      JUMPDEST \t\t\t\n      PUSH 20\t\t\t\n      DUP7 \t\t\t\n      ADD \t\t\t\n    tag 1086\t\t\t\n      JUMPDEST \t\t\t\n      DUP5 \t\t\t\n      DUP2 \t\t\t\n      LT \t\t\t\n      ISZERO \t\t\t\n      PUSH [tag] 1079\t\t\t\n      JUMPI \t\t\t\n      DUP1 \t\t\t\n      CALLDATALOAD \t\t\t\n      DUP4 \t\t\t\n      MSTORE \t\t\t\n      SWAP2 \t\t\t\n      DUP4 \t\t\t\n      ADD \t\t\t\n      SWAP2 \t\t\t\n      DUP4 \t\t\t\n      ADD \t\t\t\n      PUSH [tag] 1086\t\t\t\n      JUMP \t\t\t\n    tag 1018\t\t\t\n      JUMPDEST \t\t\t\n      PUSH 0\t\t\t\n      DUP3 \t\t\t\n      PUSH 1F\t\t\t\n      DUP4 \t\t\t\n      ADD \t\t\t\n      SLT \t\t\t\n      PUSH [tag] 1090\t\t\t\n      JUMPI \t\t\t\n      PUSH 0\t\t\t\n      DUP1 \t\t\t\n      REVERT \t\t\t\n    tag 1090\t\t\t\n      JUMPDEST \t\t\t\n      DUP2 \t\t\t\n      CALLDATALOAD \t\t\t\n      PUSH 20\t\t\t\n      PUSH [tag] 1091\t\t\t\n      PUSH [tag] 1057\t\t\t\n      DUP4 \t\t\t\n      PUSH [tag] 1015\t\t\t\n      JUMP \t\t\t\n    tag 1091\t\t\t\n      JUMPDEST \t\t\t\n      DUP3 \t\t\t\n      DUP2 \t\t\t\n      MSTORE \t\t\t\n      PUSH 5\t\t\t\n      SWAP3 \t\t\t\n      SWAP1 \t\t\t\n      SWAP3 \t\t\t\n      SHL \t\t\t\n      DUP5 \t\t\t\n      ADD \t\t\t\n      DUP2 \t\t\t\n      ADD \t\t\t\n      SWAP2 \t\t\t\n      DUP2 \t\t\t\n      DUP2 \t\t\t\n      ADD \t\t\t\n      SWAP1 \t\t\t\n      DUP7 \t\t\t\n      DUP5 \t\t\t\n      GT \t\t\t\n      ISZERO \t\t\t\n      PUSH [tag] 1093\t\t\t\n      JUMPI \t\t\t\n      PUSH 0\t\t\t\n      DUP1 \t\t\t\n      REVERT \t\t\t\n    tag 1093\t\t\t\n      JUMPDEST \t\t\t\n      DUP3 \t\t\t\n      DUP7 \t\t\t\n      ADD \t\t\t\n    tag 1094\t\t\t\n      JUMPDEST \t\t\t\n      DUP5 \t\t\t\n      DUP2 \t\t\t\n      LT \t\t\t\n      ISZERO \t\t\t\n      PUSH [tag] 1079\t\t\t\n      JUMPI \t\t\t\n      DUP1 \t\t\t\n      CALLDATALOAD \t\t\t\n      PUSH 1\t\t\t\n      PUSH 1\t\t\t\n      PUSH 40\t\t\t\n      SHL \t\t\t\n      SUB \t\t\t\n      DUP2 \t\t\t\n      GT \t\t\t\n      ISZERO \t\t\t\n      PUSH [tag] 1097\t\t\t\n      JUMPI \t\t\t\n      PUSH 0\t\t\t\n      DUP1 \t\t\t\n      REVERT \t\t\t\n    tag 1097\t\t\t\n      JUMPDEST \t\t\t\n      PUSH [tag] 1098\t\t\t\n      DUP10 \t\t\t\n      DUP7 \t\t\t\n      DUP4 \t\t\t\n      DUP12 \t\t\t\n      ADD \t\t\t\n      ADD \t\t\t\n      PUSH [tag] 1014\t\t\t\n      JUMP \t\t\t\n    tag 1098\t\t\t\n      JUMPDEST \t\t\t\n      DUP5 \t\t\t\n      MSTORE \t\t\t\n      POP \t\t\t\n      SWAP2 \t\t\t\n      DUP4 \t\t\t\n      ADD \t\t\t\n      SWAP2 \t\t\t\n      DUP4 \t\t\t\n      ADD \t\t\t\n      PUSH [tag] 1094\t\t\t\n      JUMP \t\t\t\n    tag 101\t\t\t\n      JUMPDEST \t\t\t\n      PUSH 0\t\t\t\n      DUP1 \t\t\t\n      PUSH 0\t\t\t\n      DUP1 \t\t\t\n      PUSH 80\t\t\t\n      DUP6 \t\t\t\n      DUP8 \t\t\t\n      SUB \t\t\t\n      SLT \t\t\t\n      ISZERO \t\t\t\n      PUSH [tag] 1100\t\t\t\n      JUMPI \t\t\t\n      PUSH 0\t\t\t\n      DUP1 \t\t\t\n      REVERT \t\t\t\n    tag 1100\t\t\t\n      JUMPDEST \t\t\t\n      DUP5 \t\t\t\n      CALLDATALOAD \t\t\t\n      PUSH 1\t\t\t\n      PUSH 1\t\t\t\n      PUSH 40\t\t\t\n      SHL \t\t\t\n      SUB \t\t\t\n      DUP1 \t\t\t\n      DUP3 \t\t\t\n      GT \t\t\t\n      ISZERO \t\t\t\n      PUSH [tag] 1101\t\t\t\n      JUMPI \t\t\t\n      PUSH 0\t\t\t\n      DUP1 \t\t\t\n      REVERT \t\t\t\n    tag 1101\t\t\t\n      JUMPDEST \t\t\t\n      PUSH [tag] 1102\t\t\t\n      DUP9 \t\t\t\n      DUP4 \t\t\t\n      DUP10 \t\t\t\n      ADD \t\t\t\n      PUSH [tag] 1016\t\t\t\n      JUMP \t\t\t\n    tag 1102\t\t\t\n      JUMPDEST \t\t\t\n      SWAP6 \t\t\t\n      POP \t\t\t\n      PUSH 20\t\t\t\n      DUP8 \t\t\t\n      ADD \t\t\t\n      CALLDATALOAD \t\t\t\n      SWAP2 \t\t\t\n      POP \t\t\t\n      DUP1 \t\t\t\n      DUP3 \t\t\t\n      GT \t\t\t\n      ISZERO \t\t\t\n      PUSH [tag] 1103\t\t\t\n      JUMPI \t\t\t\n      PUSH 0\t\t\t\n      DUP1 \t\t\t\n      REVERT \t\t\t\n    tag 1103\t\t\t\n      JUMPDEST \t\t\t\n      PUSH [tag] 1104\t\t\t\n      DUP9 \t\t\t\n      DUP4 \t\t\t\n      DUP10 \t\t\t\n      ADD \t\t\t\n      PUSH [tag] 1017\t\t\t\n      JUMP \t\t\t\n    tag 1104\t\t\t\n      JUMPDEST \t\t\t\n      SWAP5 \t\t\t\n      POP \t\t\t\n      PUSH 40\t\t\t\n      DUP8 \t\t\t\n      ADD \t\t\t\n      CALLDATALOAD \t\t\t\n      SWAP2 \t\t\t\n      POP \t\t\t\n      DUP1 \t\t\t\n      DUP3 \t\t\t\n      GT \t\t\t\n      ISZERO \t\t\t\n      PUSH [tag] 1105\t\t\t\n      JUMPI \t\t\t\n      PUSH 0\t\t\t\n      DUP1 \t\t\t\n      REVERT \t\t\t\n    tag 1105\t\t\t\n      JUMPDEST \t\t\t\n      POP \t\t\t\n      PUSH [tag] 1106\t\t\t\n      DUP8 \t\t\t\n      DUP3 \t\t\t\n      DUP9 \t\t\t\n      ADD \t\t\t\n      PUSH [tag] 1018\t\t\t\n      JUMP \t\t\t\n    tag 1106\t\t\t\n      JUMPDEST \t\t\t\n      SWAP5 \t\t\t\n      SWAP8 \t\t\t\n      SWAP4 \t\t\t\n      SWAP7 \t\t\t\n      POP \t\t\t\n      SWAP4 \t\t\t\n      SWAP5 \t\t\t\n      PUSH 60\t\t\t\n      ADD \t\t\t\n      CALLDATALOAD \t\t\t\n      SWAP4 \t\t\t\n      POP \t\t\t\n      POP \t\t\t\n      POP \t\t\t\n      JUMP \t\t\t\n    tag 592\t\t\t\n      JUMPDEST \t\t\t\n      PUSH 4E487B71\t\t\t\n      PUSH E0\t\t\t\n      SHL \t\t\t\n      PUSH 0\t\t\t\n      MSTORE \t\t\t\n      PUSH 21\t\t\t\n      PUSH 4\t\t\t\n      MSTORE \t\t\t\n      PUSH 24\t\t\t\n      PUSH 0\t\t\t\n      REVERT \t\t\t\n    tag 1019\t\t\t\n      JUMPDEST \t\t\t\n      PUSH 8\t\t\t\n      DUP2 \t\t\t\n      LT \t\t\t\n      PUSH [tag] 1110\t\t\t\n      JUMPI \t\t\t\n      PUSH 4E487B71\t\t\t\n      PUSH E0\t\t\t\n      SHL \t\t\t\n      PUSH 0\t\t\t\n      MSTORE \t\t\t\n      PUSH 21\t\t\t\n      PUSH 4\t\t\t\n      MSTORE \t\t\t\n      PUSH 24\t\t\t\n      PUSH 0\t\t\t\n      REVERT \t\t\t\n    tag 1110\t\t\t\n      JUMPDEST \t\t\t\n      SWAP1 \t\t\t\n      MSTORE \t\t\t\n      JUMP \t\t\t\n    tag 127\t\t\t\n      JUMPDEST \t\t\t\n      PUSH 20\t\t\t\n      DUP2 \t\t\t\n      ADD \t\t\t\n      PUSH [tag] 317\t\t\t\n      DUP3 \t\t\t\n      DUP5 \t\t\t\n      PUSH [tag] 1019\t\t\t\n      JUMP \t\t\t\n    tag 131\t\t\t\n      JUMPDEST \t\t\t\n      PUSH 0\t\t\t\n      DUP1 \t\t\t\n      PUSH 40\t\t\t\n      DUP4 \t\t\t\n      DUP6 \t\t\t\n      SUB \t\t\t\n      SLT \t\t\t\n      ISZERO \t\t\t\n      PUSH [tag] 1114\t\t\t\n      JUMPI \t\t\t\n      PUSH 0\t\t\t\n      DUP1 \t\t\t\n      REVERT \t\t\t\n    tag 1114\t\t\t\n      JUMPDEST \t\t\t\n      DUP3 \t\t\t\n      CALLDATALOAD \t\t\t\n      SWAP2 \t\t\t\n      POP \t\t\t\n      PUSH 20\t\t\t\n      DUP4 \t\t\t\n      ADD \t\t\t\n      CALLDATALOAD \t\t\t\n      PUSH [tag] 1115\t\t\t\n      DUP2 \t\t\t\n      PUSH [tag] 1010\t\t\t\n      JUMP \t\t\t\n    tag 1115\t\t\t\n      JUMPDEST \t\t\t\n      DUP1 \t\t\t\n      SWAP2 \t\t\t\n      POP \t\t\t\n      POP \t\t\t\n      SWAP3 \t\t\t\n      POP \t\t\t\n      SWAP3 \t\t\t\n      SWAP1 \t\t\t\n      POP \t\t\t\n      JUMP \t\t\t\n    tag 1020\t\t\t\n      JUMPDEST \t\t\t\n      DUP1 \t\t\t\n      CALLDATALOAD \t\t\t\n      PUSH FF\t\t\t\n      DUP2 \t\t\t\n      AND \t\t\t\n      DUP2 \t\t\t\n      EQ \t\t\t\n      PUSH [tag] 404\t\t\t\n      JUMPI \t\t\t\n      PUSH 0\t\t\t\n      DUP1 \t\t\t\n      REVERT \t\t\t\n    tag 156\t\t\t\n      JUMPDEST \t\t\t\n      PUSH 0\t\t\t\n      DUP1 \t\t\t\n      PUSH 40\t\t\t\n      DUP4 \t\t\t\n      DUP6 \t\t\t\n      SUB \t\t\t\n      SLT \t\t\t\n      ISZERO \t\t\t\n      PUSH [tag] 1120\t\t\t\n      JUMPI \t\t\t\n      PUSH 0\t\t\t\n      DUP1 \t\t\t\n      REVERT \t\t\t\n    tag 1120\t\t\t\n      JUMPDEST \t\t\t\n      DUP3 \t\t\t\n      CALLDATALOAD \t\t\t\n      SWAP2 \t\t\t\n      POP \t\t\t\n      PUSH [tag] 1121\t\t\t\n      PUSH 20\t\t\t\n      DUP5 \t\t\t\n      ADD \t\t\t\n      PUSH [tag] 1020\t\t\t\n      JUMP \t\t\t\n    tag 1121\t\t\t\n      JUMPDEST \t\t\t\n      SWAP1 \t\t\t\n      POP \t\t\t\n      SWAP3 \t\t\t\n      POP \t\t\t\n      SWAP3 \t\t\t\n      SWAP1 \t\t\t\n      POP \t\t\t\n      JUMP \t\t\t\n    tag 1021\t\t\t\n      JUMPDEST \t\t\t\n      PUSH 0\t\t\t\n      DUP1 \t\t\t\n      DUP4 \t\t\t\n      PUSH 1F\t\t\t\n      DUP5 \t\t\t\n      ADD \t\t\t\n      SLT \t\t\t\n      PUSH [tag] 1123\t\t\t\n      JUMPI \t\t\t\n      PUSH 0\t\t\t\n      DUP1 \t\t\t\n      REVERT \t\t\t\n    tag 1123\t\t\t\n      JUMPDEST \t\t\t\n      POP \t\t\t\n      DUP2 \t\t\t\n      CALLDATALOAD \t\t\t\n      PUSH 1\t\t\t\n      PUSH 1\t\t\t\n      PUSH 40\t\t\t\n      SHL \t\t\t\n      SUB \t\t\t\n      DUP2 \t\t\t\n      GT \t\t\t\n      ISZERO \t\t\t\n      PUSH [tag] 1124\t\t\t\n      JUMPI \t\t\t\n      PUSH 0\t\t\t\n      DUP1 \t\t\t\n      REVERT \t\t\t\n    tag 1124\t\t\t\n      JUMPDEST \t\t\t\n      PUSH 20\t\t\t\n      DUP4 \t\t\t\n      ADD \t\t\t\n      SWAP2 \t\t\t\n      POP \t\t\t\n      DUP4 \t\t\t\n      PUSH 20\t\t\t\n      DUP3 \t\t\t\n      DUP6 \t\t\t\n      ADD \t\t\t\n      ADD \t\t\t\n      GT \t\t\t\n      ISZERO \t\t\t\n      PUSH [tag] 1125\t\t\t\n      JUMPI \t\t\t\n      PUSH 0\t\t\t\n      DUP1 \t\t\t\n      REVERT \t\t\t\n    tag 1125\t\t\t\n      JUMPDEST \t\t\t\n      SWAP3 \t\t\t\n      POP \t\t\t\n      SWAP3 \t\t\t\n      SWAP1 \t\t\t\n      POP \t\t\t\n      JUMP \t\t\t\n    tag 162\t\t\t\n      JUMPDEST \t\t\t\n      PUSH 0\t\t\t\n      DUP1 \t\t\t\n      PUSH 0\t\t\t\n      DUP1 \t\t\t\n      PUSH 0\t\t\t\n      DUP1 \t\t\t\n      PUSH 0\t\t\t\n      PUSH C0\t\t\t\n      DUP9 \t\t\t\n      DUP11 \t\t\t\n      SUB \t\t\t\n      SLT \t\t\t\n      ISZERO \t\t\t\n      PUSH [tag] 1127\t\t\t\n      JUMPI \t\t\t\n      PUSH 0\t\t\t\n      DUP1 \t\t\t\n      REVERT \t\t\t\n    tag 1127\t\t\t\n      JUMPDEST \t\t\t\n      DUP8 \t\t\t\n      CALLDATALOAD \t\t\t\n      SWAP7 \t\t\t\n      POP \t\t\t\n      PUSH [tag] 1128\t\t\t\n      PUSH 20\t\t\t\n      DUP10 \t\t\t\n      ADD \t\t\t\n      PUSH [tag] 1020\t\t\t\n      JUMP \t\t\t\n    tag 1128\t\t\t\n      JUMPDEST \t\t\t\n      SWAP6 \t\t\t\n      POP \t\t\t\n      PUSH 40\t\t\t\n      DUP9 \t\t\t\n      ADD \t\t\t\n      CALLDATALOAD \t\t\t\n      PUSH [tag] 1129\t\t\t\n      DUP2 \t\t\t\n      PUSH [tag] 1010\t\t\t\n      JUMP \t\t\t\n    tag 1129\t\t\t\n      JUMPDEST \t\t\t\n      SWAP5 \t\t\t\n      POP \t\t\t\n      PUSH 60\t\t\t\n      DUP9 \t\t\t\n      ADD \t\t\t\n      CALLDATALOAD \t\t\t\n      PUSH 1\t\t\t\n      PUSH 1\t\t\t\n      PUSH 40\t\t\t\n      SHL \t\t\t\n      SUB \t\t\t\n      DUP1 \t\t\t\n      DUP3 \t\t\t\n      GT \t\t\t\n      ISZERO \t\t\t\n      PUSH [tag] 1130\t\t\t\n      JUMPI \t\t\t\n      PUSH 0\t\t\t\n      DUP1 \t\t\t\n      REVERT \t\t\t\n    tag 1130\t\t\t\n      JUMPDEST \t\t\t\n      PUSH [tag] 1131\t\t\t\n      DUP12 \t\t\t\n      DUP4 \t\t\t\n      DUP13 \t\t\t\n      ADD \t\t\t\n      PUSH [tag] 1021\t\t\t\n      JUMP \t\t\t\n    tag 1131\t\t\t\n      JUMPDEST \t\t\t\n      SWAP1 \t\t\t\n      SWAP7 \t\t\t\n      POP \t\t\t\n      SWAP5 \t\t\t\n      POP \t\t\t\n      PUSH 80\t\t\t\n      DUP11 \t\t\t\n      ADD \t\t\t\n      CALLDATALOAD \t\t\t\n      SWAP2 \t\t\t\n      POP \t\t\t\n      DUP1 \t\t\t\n      DUP3 \t\t\t\n      GT \t\t\t\n      ISZERO \t\t\t\n      PUSH [tag] 1132\t\t\t\n      JUMPI \t\t\t\n      PUSH 0\t\t\t\n      DUP1 \t\t\t\n      REVERT \t\t\t\n    tag 1132\t\t\t\n      JUMPDEST \t\t\t\n      PUSH [tag] 1133\t\t\t\n      DUP12 \t\t\t\n      DUP4 \t\t\t\n      DUP13 \t\t\t\n      ADD \t\t\t\n      PUSH [tag] 1014\t\t\t\n      JUMP \t\t\t\n    tag 1133\t\t\t\n      JUMPDEST \t\t\t\n      SWAP4 \t\t\t\n      POP \t\t\t\n      PUSH A0\t\t\t\n      DUP11 \t\t\t\n      ADD \t\t\t\n      CALLDATALOAD \t\t\t\n      SWAP2 \t\t\t\n      POP \t\t\t\n      DUP1 \t\t\t\n      DUP3 \t\t\t\n      GT \t\t\t\n      ISZERO \t\t\t\n      PUSH [tag] 1134\t\t\t\n      JUMPI \t\t\t\n      PUSH 0\t\t\t\n      DUP1 \t\t\t\n      REVERT \t\t\t\n    tag 1134\t\t\t\n      JUMPDEST \t\t\t\n      POP \t\t\t\n      PUSH [tag] 1135\t\t\t\n      DUP11 \t\t\t\n      DUP3 \t\t\t\n      DUP12 \t\t\t\n      ADD \t\t\t\n      PUSH [tag] 1014\t\t\t\n      JUMP \t\t\t\n    tag 1135\t\t\t\n      JUMPDEST \t\t\t\n      SWAP2 \t\t\t\n      POP \t\t\t\n      POP \t\t\t\n      SWAP3 \t\t\t\n      SWAP6 \t\t\t\n      SWAP9 \t\t\t\n      SWAP2 \t\t\t\n      SWAP5 \t\t\t\n      SWAP8 \t\t\t\n      POP \t\t\t\n      SWAP3 \t\t\t\n      SWAP6 \t\t\t\n      POP \t\t\t\n      JUMP \t\t\t\n    tag 168\t\t\t\n      JUMPDEST \t\t\t\n      PUSH 0\t\t\t\n      DUP1 \t\t\t\n      PUSH 0\t\t\t\n      DUP1 \t\t\t\n      PUSH 0\t\t\t\n      PUSH 80\t\t\t\n      DUP7 \t\t\t\n      DUP9 \t\t\t\n      SUB \t\t\t\n      SLT \t\t\t\n      ISZERO \t\t\t\n      PUSH [tag] 1137\t\t\t\n      JUMPI \t\t\t\n      PUSH 0\t\t\t\n      DUP1 \t\t\t\n      REVERT \t\t\t\n    tag 1137\t\t\t\n      JUMPDEST \t\t\t\n      DUP6 \t\t\t\n      CALLDATALOAD \t\t\t\n      SWAP5 \t\t\t\n      POP \t\t\t\n      PUSH [tag] 1138\t\t\t\n      PUSH 20\t\t\t\n      DUP8 \t\t\t\n      ADD \t\t\t\n      PUSH [tag] 1020\t\t\t\n      JUMP \t\t\t\n    tag 1138\t\t\t\n      JUMPDEST \t\t\t\n      SWAP4 \t\t\t\n      POP \t\t\t\n      PUSH 40\t\t\t\n      DUP7 \t\t\t\n      ADD \t\t\t\n      CALLDATALOAD \t\t\t\n      PUSH 1\t\t\t\n      PUSH 1\t\t\t\n      PUSH 40\t\t\t\n      SHL \t\t\t\n      SUB \t\t\t\n      DUP1 \t\t\t\n      DUP3 \t\t\t\n      GT \t\t\t\n      ISZERO \t\t\t\n      PUSH [tag] 1139\t\t\t\n      JUMPI \t\t\t\n      PUSH 0\t\t\t\n      DUP1 \t\t\t\n      REVERT \t\t\t\n    tag 1139\t\t\t\n      JUMPDEST \t\t\t\n      PUSH [tag] 1140\t\t\t\n      DUP10 \t\t\t\n      DUP4 \t\t\t\n      DUP11 \t\t\t\n      ADD \t\t\t\n      PUSH [tag] 1021\t\t\t\n      JUMP \t\t\t\n    tag 1140\t\t\t\n      JUMPDEST \t\t\t\n      SWAP1 \t\t\t\n      SWAP6 \t\t\t\n      POP \t\t\t\n      SWAP4 \t\t\t\n      POP \t\t\t\n      PUSH 60\t\t\t\n      DUP9 \t\t\t\n      ADD \t\t\t\n      CALLDATALOAD \t\t\t\n      SWAP2 \t\t\t\n      POP \t\t\t\n      DUP1 \t\t\t\n      DUP3 \t\t\t\n      GT \t\t\t\n      ISZERO \t\t\t\n      PUSH [tag] 1141\t\t\t\n      JUMPI \t\t\t\n      PUSH 0\t\t\t\n      DUP1 \t\t\t\n      REVERT \t\t\t\n    tag 1141\t\t\t\n      JUMPDEST \t\t\t\n      POP \t\t\t\n      PUSH [tag] 1142\t\t\t\n      DUP9 \t\t\t\n      DUP3 \t\t\t\n      DUP10 \t\t\t\n      ADD \t\t\t\n      PUSH [tag] 1014\t\t\t\n      JUMP \t\t\t\n    tag 1142\t\t\t\n      JUMPDEST \t\t\t\n      SWAP2 \t\t\t\n      POP \t\t\t\n      POP \t\t\t\n      SWAP3 \t\t\t\n      SWAP6 \t\t\t\n      POP \t\t\t\n      SWAP3 \t\t\t\n      SWAP6 \t\t\t\n      SWAP1 \t\t\t\n      SWAP4 \t\t\t\n      POP \t\t\t\n      JUMP \t\t\t\n    tag 1022\t\t\t\n      JUMPDEST \t\t\t\n      PUSH FFFFFFFFFFFF\t\t\t\n      DUP2 \t\t\t\n      AND \t\t\t\n      DUP2 \t\t\t\n      EQ \t\t\t\n      PUSH [tag] 326\t\t\t\n      JUMPI \t\t\t\n      PUSH 0\t\t\t\n      DUP1 \t\t\t\n      REVERT \t\t\t\n    tag 179\t\t\t\n      JUMPDEST \t\t\t\n      PUSH 0\t\t\t\n      PUSH 20\t\t\t\n      DUP3 \t\t\t\n      DUP5 \t\t\t\n      SUB \t\t\t\n      SLT \t\t\t\n      ISZERO \t\t\t\n      PUSH [tag] 1146\t\t\t\n      JUMPI \t\t\t\n      PUSH 0\t\t\t\n      DUP1 \t\t\t\n      REVERT \t\t\t\n    tag 1146\t\t\t\n      JUMPDEST \t\t\t\n      DUP2 \t\t\t\n      CALLDATALOAD \t\t\t\n      PUSH [tag] 544\t\t\t\n      DUP2 \t\t\t\n      PUSH [tag] 1022\t\t\t\n      JUMP \t\t\t\n    tag 184\t\t\t\n      JUMPDEST \t\t\t\n      PUSH 0\t\t\t\n      DUP1 \t\t\t\n      PUSH 0\t\t\t\n      DUP1 \t\t\t\n      PUSH 60\t\t\t\n      DUP6 \t\t\t\n      DUP8 \t\t\t\n      SUB \t\t\t\n      SLT \t\t\t\n      ISZERO \t\t\t\n      PUSH [tag] 1149\t\t\t\n      JUMPI \t\t\t\n      PUSH 0\t\t\t\n      DUP1 \t\t\t\n      REVERT \t\t\t\n    tag 1149\t\t\t\n      JUMPDEST \t\t\t\n      DUP5 \t\t\t\n      CALLDATALOAD \t\t\t\n      SWAP4 \t\t\t\n      POP \t\t\t\n      PUSH [tag] 1150\t\t\t\n      PUSH 20\t\t\t\n      DUP7 \t\t\t\n      ADD \t\t\t\n      PUSH [tag] 1020\t\t\t\n      JUMP \t\t\t\n    tag 1150\t\t\t\n      JUMPDEST \t\t\t\n      SWAP3 \t\t\t\n      POP \t\t\t\n      PUSH 40\t\t\t\n      DUP6 \t\t\t\n      ADD \t\t\t\n      CALLDATALOAD \t\t\t\n      PUSH 1\t\t\t\n      PUSH 1\t\t\t\n      PUSH 40\t\t\t\n      SHL \t\t\t\n      SUB \t\t\t\n      DUP2 \t\t\t\n      GT \t\t\t\n      ISZERO \t\t\t\n      PUSH [tag] 1151\t\t\t\n      JUMPI \t\t\t\n      PUSH 0\t\t\t\n      DUP1 \t\t\t\n      REVERT \t\t\t\n    tag 1151\t\t\t\n      JUMPDEST \t\t\t\n      PUSH [tag] 1152\t\t\t\n      DUP8 \t\t\t\n      DUP3 \t\t\t\n      DUP9 \t\t\t\n      ADD \t\t\t\n      PUSH [tag] 1021\t\t\t\n      JUMP \t\t\t\n    tag 1152\t\t\t\n      JUMPDEST \t\t\t\n      SWAP6 \t\t\t\n      SWAP9 \t\t\t\n      SWAP5 \t\t\t\n      SWAP8 \t\t\t\n      POP \t\t\t\n      SWAP6 \t\t\t\n      POP \t\t\t\n      POP \t\t\t\n      POP \t\t\t\n      POP \t\t\t\n      JUMP \t\t\t\n    tag 190\t\t\t\n      JUMPDEST \t\t\t\n      PUSH 0\t\t\t\n      DUP1 \t\t\t\n      PUSH 0\t\t\t\n      DUP1 \t\t\t\n      PUSH 80\t\t\t\n      DUP6 \t\t\t\n      DUP8 \t\t\t\n      SUB \t\t\t\n      SLT \t\t\t\n      ISZERO \t\t\t\n      PUSH [tag] 1154\t\t\t\n      JUMPI \t\t\t\n      PUSH 0\t\t\t\n      DUP1 \t\t\t\n      REVERT \t\t\t\n    tag 1154\t\t\t\n      JUMPDEST \t\t\t\n      DUP5 \t\t\t\n      CALLDATALOAD \t\t\t\n      PUSH 1\t\t\t\n      PUSH 1\t\t\t\n      PUSH 40\t\t\t\n      SHL \t\t\t\n      SUB \t\t\t\n      DUP1 \t\t\t\n      DUP3 \t\t\t\n      GT \t\t\t\n      ISZERO \t\t\t\n      PUSH [tag] 1155\t\t\t\n      JUMPI \t\t\t\n      PUSH 0\t\t\t\n      DUP1 \t\t\t\n      REVERT \t\t\t\n    tag 1155\t\t\t\n      JUMPDEST \t\t\t\n      PUSH [tag] 1156\t\t\t\n      DUP9 \t\t\t\n      DUP4 \t\t\t\n      DUP10 \t\t\t\n      ADD \t\t\t\n      PUSH [tag] 1016\t\t\t\n      JUMP \t\t\t\n    tag 1156\t\t\t\n      JUMPDEST \t\t\t\n      SWAP6 \t\t\t\n      POP \t\t\t\n      PUSH 20\t\t\t\n      DUP8 \t\t\t\n      ADD \t\t\t\n      CALLDATALOAD \t\t\t\n      SWAP2 \t\t\t\n      POP \t\t\t\n      DUP1 \t\t\t\n      DUP3 \t\t\t\n      GT \t\t\t\n      ISZERO \t\t\t\n      PUSH [tag] 1157\t\t\t\n      JUMPI \t\t\t\n      PUSH 0\t\t\t\n      DUP1 \t\t\t\n      REVERT \t\t\t\n    tag 1157\t\t\t\n      JUMPDEST \t\t\t\n      PUSH [tag] 1158\t\t\t\n      DUP9 \t\t\t\n      DUP4 \t\t\t\n      DUP10 \t\t\t\n      ADD \t\t\t\n      PUSH [tag] 1017\t\t\t\n      JUMP \t\t\t\n    tag 1158\t\t\t\n      JUMPDEST \t\t\t\n      SWAP5 \t\t\t\n      POP \t\t\t\n      PUSH 40\t\t\t\n      DUP8 \t\t\t\n      ADD \t\t\t\n      CALLDATALOAD \t\t\t\n      SWAP2 \t\t\t\n      POP \t\t\t\n      DUP1 \t\t\t\n      DUP3 \t\t\t\n      GT \t\t\t\n      ISZERO \t\t\t\n      PUSH [tag] 1159\t\t\t\n      JUMPI \t\t\t\n      PUSH 0\t\t\t\n      DUP1 \t\t\t\n      REVERT \t\t\t\n    tag 1159\t\t\t\n      JUMPDEST \t\t\t\n      PUSH [tag] 1160\t\t\t\n      DUP9 \t\t\t\n      DUP4 \t\t\t\n      DUP10 \t\t\t\n      ADD \t\t\t\n      PUSH [tag] 1018\t\t\t\n      JUMP \t\t\t\n    tag 1160\t\t\t\n      JUMPDEST \t\t\t\n      SWAP4 \t\t\t\n      POP \t\t\t\n      PUSH 60\t\t\t\n      DUP8 \t\t\t\n      ADD \t\t\t\n      CALLDATALOAD \t\t\t\n      SWAP2 \t\t\t\n      POP \t\t\t\n      DUP1 \t\t\t\n      DUP3 \t\t\t\n      GT \t\t\t\n      ISZERO \t\t\t\n      PUSH [tag] 1161\t\t\t\n      JUMPI \t\t\t\n      PUSH 0\t\t\t\n      DUP1 \t\t\t\n      REVERT \t\t\t\n    tag 1161\t\t\t\n      JUMPDEST \t\t\t\n      POP \t\t\t\n      DUP6 \t\t\t\n      ADD \t\t\t\n      PUSH 1F\t\t\t\n      DUP2 \t\t\t\n      ADD \t\t\t\n      DUP8 \t\t\t\n      SGT \t\t\t\n      PUSH [tag] 1162\t\t\t\n      JUMPI \t\t\t\n      PUSH 0\t\t\t\n      DUP1 \t\t\t\n      REVERT \t\t\t\n    tag 1162\t\t\t\n      JUMPDEST \t\t\t\n      PUSH [tag] 1067\t\t\t\n      DUP8 \t\t\t\n      DUP3 \t\t\t\n      CALLDATALOAD \t\t\t\n      PUSH 20\t\t\t\n      DUP5 \t\t\t\n      ADD \t\t\t\n      PUSH [tag] 1013\t\t\t\n      JUMP \t\t\t\n    tag 196\t\t\t\n      JUMPDEST \t\t\t\n      PUSH 0\t\t\t\n      PUSH 20\t\t\t\n      DUP3 \t\t\t\n      DUP5 \t\t\t\n      SUB \t\t\t\n      SLT \t\t\t\n      ISZERO \t\t\t\n      PUSH [tag] 1165\t\t\t\n      JUMPI \t\t\t\n      PUSH 0\t\t\t\n      DUP1 \t\t\t\n      REVERT \t\t\t\n    tag 1165\t\t\t\n      JUMPDEST \t\t\t\n      DUP2 \t\t\t\n      CALLDATALOAD \t\t\t\n      PUSH [tag] 544\t\t\t\n      DUP2 \t\t\t\n      PUSH [tag] 1010\t\t\t\n      JUMP \t\t\t\n    tag 1023\t\t\t\n      JUMPDEST \t\t\t\n      PUSH 0\t\t\t\n      DUP2 \t\t\t\n      MLOAD \t\t\t\n      DUP1 \t\t\t\n      DUP5 \t\t\t\n      MSTORE \t\t\t\n      PUSH 20\t\t\t\n      DUP1 \t\t\t\n      DUP6 \t\t\t\n      ADD \t\t\t\n      SWAP5 \t\t\t\n      POP \t\t\t\n      PUSH 20\t\t\t\n      DUP5 \t\t\t\n      ADD \t\t\t\n      PUSH 0\t\t\t\n    tag 1168\t\t\t\n      JUMPDEST \t\t\t\n      DUP4 \t\t\t\n      DUP2 \t\t\t\n      LT \t\t\t\n      ISZERO \t\t\t\n      PUSH [tag] 1170\t\t\t\n      JUMPI \t\t\t\n      DUP2 \t\t\t\n      MLOAD \t\t\t\n      DUP8 \t\t\t\n      MSTORE \t\t\t\n      SWAP6 \t\t\t\n      DUP3 \t\t\t\n      ADD \t\t\t\n      SWAP6 \t\t\t\n      SWAP1 \t\t\t\n      DUP3 \t\t\t\n      ADD \t\t\t\n      SWAP1 \t\t\t\n      PUSH 1\t\t\t\n      ADD \t\t\t\n      PUSH [tag] 1168\t\t\t\n      JUMP \t\t\t\n    tag 1170\t\t\t\n      JUMPDEST \t\t\t\n      POP \t\t\t\n      SWAP5 \t\t\t\n      SWAP6 \t\t\t\n      SWAP5 \t\t\t\n      POP \t\t\t\n      POP \t\t\t\n      POP \t\t\t\n      POP \t\t\t\n      POP \t\t\t\n      JUMP \t\t\t\n    tag 203\t\t\t\n      JUMPDEST \t\t\t\n      PUSH FF\t\t\t\n      PUSH F8\t\t\t\n      SHL \t\t\t\n      DUP9 \t\t\t\n      AND \t\t\t\n      DUP2 \t\t\t\n      MSTORE \t\t\t\n      PUSH E0\t\t\t\n      PUSH 20\t\t\t\n      DUP3 \t\t\t\n      ADD \t\t\t\n      MSTORE \t\t\t\n      PUSH 0\t\t\t\n      PUSH [tag] 1172\t\t\t\n      PUSH E0\t\t\t\n      DUP4 \t\t\t\n      ADD \t\t\t\n      DUP10 \t\t\t\n      PUSH [tag] 1009\t\t\t\n      JUMP \t\t\t\n    tag 1172\t\t\t\n      JUMPDEST \t\t\t\n      DUP3 \t\t\t\n      DUP2 \t\t\t\n      SUB \t\t\t\n      PUSH 40\t\t\t\n      DUP5 \t\t\t\n      ADD \t\t\t\n      MSTORE \t\t\t\n      PUSH [tag] 1173\t\t\t\n      DUP2 \t\t\t\n      DUP10 \t\t\t\n      PUSH [tag] 1009\t\t\t\n      JUMP \t\t\t\n    tag 1173\t\t\t\n      JUMPDEST \t\t\t\n      PUSH 60\t\t\t\n      DUP5 \t\t\t\n      ADD \t\t\t\n      DUP9 \t\t\t\n      SWAP1 \t\t\t\n      MSTORE \t\t\t\n      PUSH 1\t\t\t\n      PUSH 1\t\t\t\n      PUSH A0\t\t\t\n      SHL \t\t\t\n      SUB \t\t\t\n      DUP8 \t\t\t\n      AND \t\t\t\n      PUSH 80\t\t\t\n      DUP6 \t\t\t\n      ADD \t\t\t\n      MSTORE \t\t\t\n      PUSH A0\t\t\t\n      DUP5 \t\t\t\n      ADD \t\t\t\n      DUP7 \t\t\t\n      SWAP1 \t\t\t\n      MSTORE \t\t\t\n      DUP4 \t\t\t\n      DUP2 \t\t\t\n      SUB \t\t\t\n      PUSH C0\t\t\t\n      DUP6 \t\t\t\n      ADD \t\t\t\n      MSTORE \t\t\t\n      SWAP1 \t\t\t\n      POP \t\t\t\n      PUSH [tag] 1174\t\t\t\n      DUP2 \t\t\t\n      DUP6 \t\t\t\n      PUSH [tag] 1023\t\t\t\n      JUMP \t\t\t\n    tag 1174\t\t\t\n      JUMPDEST \t\t\t\n      SWAP11 \t\t\t\n      SWAP10 \t\t\t\n      POP \t\t\t\n      POP \t\t\t\n      POP \t\t\t\n      POP \t\t\t\n      POP \t\t\t\n      POP \t\t\t\n      POP \t\t\t\n      POP \t\t\t\n      POP \t\t\t\n      POP \t\t\t\n      JUMP \t\t\t\n    tag 207\t\t\t\n      JUMPDEST \t\t\t\n      PUSH 0\t\t\t\n      DUP1 \t\t\t\n      PUSH 0\t\t\t\n      DUP1 \t\t\t\n      PUSH 80\t\t\t\n      DUP6 \t\t\t\n      DUP8 \t\t\t\n      SUB \t\t\t\n      SLT \t\t\t\n      ISZERO \t\t\t\n      PUSH [tag] 1176\t\t\t\n      JUMPI \t\t\t\n      PUSH 0\t\t\t\n      DUP1 \t\t\t\n      REVERT \t\t\t\n    tag 1176\t\t\t\n      JUMPDEST \t\t\t\n      DUP5 \t\t\t\n      CALLDATALOAD \t\t\t\n      SWAP4 \t\t\t\n      POP \t\t\t\n      PUSH [tag] 1177\t\t\t\n      PUSH 20\t\t\t\n      DUP7 \t\t\t\n      ADD \t\t\t\n      PUSH [tag] 1020\t\t\t\n      JUMP \t\t\t\n    tag 1177\t\t\t\n      JUMPDEST \t\t\t\n      SWAP3 \t\t\t\n      POP \t\t\t\n      PUSH 40\t\t\t\n      DUP6 \t\t\t\n      ADD \t\t\t\n      CALLDATALOAD \t\t\t\n      PUSH [tag] 1178\t\t\t\n      DUP2 \t\t\t\n      PUSH [tag] 1010\t\t\t\n      JUMP \t\t\t\n    tag 1178\t\t\t\n      JUMPDEST \t\t\t\n      SWAP2 \t\t\t\n      POP \t\t\t\n      PUSH 60\t\t\t\n      DUP6 \t\t\t\n      ADD \t\t\t\n      CALLDATALOAD \t\t\t\n      PUSH 1\t\t\t\n      PUSH 1\t\t\t\n      PUSH 40\t\t\t\n      SHL \t\t\t\n      SUB \t\t\t\n      DUP2 \t\t\t\n      GT \t\t\t\n      ISZERO \t\t\t\n      PUSH [tag] 1066\t\t\t\n      JUMPI \t\t\t\n      PUSH 0\t\t\t\n      DUP1 \t\t\t\n      REVERT \t\t\t\n    tag 222\t\t\t\n      JUMPDEST \t\t\t\n      PUSH 0\t\t\t\n      DUP1 \t\t\t\n      PUSH 0\t\t\t\n      PUSH 60\t\t\t\n      DUP5 \t\t\t\n      DUP7 \t\t\t\n      SUB \t\t\t\n      SLT \t\t\t\n      ISZERO \t\t\t\n      PUSH [tag] 1183\t\t\t\n      JUMPI \t\t\t\n      PUSH 0\t\t\t\n      DUP1 \t\t\t\n      REVERT \t\t\t\n    tag 1183\t\t\t\n      JUMPDEST \t\t\t\n      DUP4 \t\t\t\n      CALLDATALOAD \t\t\t\n      PUSH [tag] 1184\t\t\t\n      DUP2 \t\t\t\n      PUSH [tag] 1010\t\t\t\n      JUMP \t\t\t\n    tag 1184\t\t\t\n      JUMPDEST \t\t\t\n      SWAP3 \t\t\t\n      POP \t\t\t\n      PUSH 20\t\t\t\n      DUP5 \t\t\t\n      ADD \t\t\t\n      CALLDATALOAD \t\t\t\n      SWAP2 \t\t\t\n      POP \t\t\t\n      PUSH 40\t\t\t\n      DUP5 \t\t\t\n      ADD \t\t\t\n      CALLDATALOAD \t\t\t\n      PUSH 1\t\t\t\n      PUSH 1\t\t\t\n      PUSH 40\t\t\t\n      SHL \t\t\t\n      SUB \t\t\t\n      DUP2 \t\t\t\n      GT \t\t\t\n      ISZERO \t\t\t\n      PUSH [tag] 1185\t\t\t\n      JUMPI \t\t\t\n      PUSH 0\t\t\t\n      DUP1 \t\t\t\n      REVERT \t\t\t\n    tag 1185\t\t\t\n      JUMPDEST \t\t\t\n      PUSH [tag] 1186\t\t\t\n      DUP7 \t\t\t\n      DUP3 \t\t\t\n      DUP8 \t\t\t\n      ADD \t\t\t\n      PUSH [tag] 1014\t\t\t\n      JUMP \t\t\t\n    tag 1186\t\t\t\n      JUMPDEST \t\t\t\n      SWAP2 \t\t\t\n      POP \t\t\t\n      POP \t\t\t\n      SWAP3 \t\t\t\n      POP \t\t\t\n      SWAP3 \t\t\t\n      POP \t\t\t\n      SWAP3 \t\t\t\n      JUMP \t\t\t\n    tag 251\t\t\t\n      JUMPDEST \t\t\t\n      PUSH 0\t\t\t\n      DUP1 \t\t\t\n      PUSH 0\t\t\t\n      DUP1 \t\t\t\n      PUSH 0\t\t\t\n      PUSH A0\t\t\t\n      DUP7 \t\t\t\n      DUP9 \t\t\t\n      SUB \t\t\t\n      SLT \t\t\t\n      ISZERO \t\t\t\n      PUSH [tag] 1191\t\t\t\n      JUMPI \t\t\t\n      PUSH 0\t\t\t\n      DUP1 \t\t\t\n      REVERT \t\t\t\n    tag 1191\t\t\t\n      JUMPDEST \t\t\t\n      DUP6 \t\t\t\n      CALLDATALOAD \t\t\t\n      PUSH [tag] 1192\t\t\t\n      DUP2 \t\t\t\n      PUSH [tag] 1010\t\t\t\n      JUMP \t\t\t\n    tag 1192\t\t\t\n      JUMPDEST \t\t\t\n      SWAP5 \t\t\t\n      POP \t\t\t\n      PUSH 20\t\t\t\n      DUP7 \t\t\t\n      ADD \t\t\t\n      CALLDATALOAD \t\t\t\n      PUSH [tag] 1193\t\t\t\n      DUP2 \t\t\t\n      PUSH [tag] 1010\t\t\t\n      JUMP \t\t\t\n    tag 1193\t\t\t\n      JUMPDEST \t\t\t\n      SWAP4 \t\t\t\n      POP \t\t\t\n      PUSH 40\t\t\t\n      DUP7 \t\t\t\n      ADD \t\t\t\n      CALLDATALOAD \t\t\t\n      PUSH 1\t\t\t\n      PUSH 1\t\t\t\n      PUSH 40\t\t\t\n      SHL \t\t\t\n      SUB \t\t\t\n      DUP1 \t\t\t\n      DUP3 \t\t\t\n      GT \t\t\t\n      ISZERO \t\t\t\n      PUSH [tag] 1194\t\t\t\n      JUMPI \t\t\t\n      PUSH 0\t\t\t\n      DUP1 \t\t\t\n      REVERT \t\t\t\n    tag 1194\t\t\t\n      JUMPDEST \t\t\t\n      PUSH [tag] 1195\t\t\t\n      DUP10 \t\t\t\n      DUP4 \t\t\t\n      DUP11 \t\t\t\n      ADD \t\t\t\n      PUSH [tag] 1017\t\t\t\n      JUMP \t\t\t\n    tag 1195\t\t\t\n      JUMPDEST \t\t\t\n      SWAP5 \t\t\t\n      POP \t\t\t\n      PUSH 60\t\t\t\n      DUP9 \t\t\t\n      ADD \t\t\t\n      CALLDATALOAD \t\t\t\n      SWAP2 \t\t\t\n      POP \t\t\t\n      DUP1 \t\t\t\n      DUP3 \t\t\t\n      GT \t\t\t\n      ISZERO \t\t\t\n      PUSH [tag] 1196\t\t\t\n      JUMPI \t\t\t\n      PUSH 0\t\t\t\n      DUP1 \t\t\t\n      REVERT \t\t\t\n    tag 1196\t\t\t\n      JUMPDEST \t\t\t\n      PUSH [tag] 1197\t\t\t\n      DUP10 \t\t\t\n      DUP4 \t\t\t\n      DUP11 \t\t\t\n      ADD \t\t\t\n      PUSH [tag] 1017\t\t\t\n      JUMP \t\t\t\n    tag 1197\t\t\t\n      JUMPDEST \t\t\t\n      SWAP4 \t\t\t\n      POP \t\t\t\n      PUSH 80\t\t\t\n      DUP9 \t\t\t\n      ADD \t\t\t\n      CALLDATALOAD \t\t\t\n      SWAP2 \t\t\t\n      POP \t\t\t\n      DUP1 \t\t\t\n      DUP3 \t\t\t\n      GT \t\t\t\n      ISZERO \t\t\t\n      PUSH [tag] 1141\t\t\t\n      JUMPI \t\t\t\n      PUSH 0\t\t\t\n      DUP1 \t\t\t\n      REVERT \t\t\t\n    tag 261\t\t\t\n      JUMPDEST \t\t\t\n      PUSH 0\t\t\t\n      DUP1 \t\t\t\n      PUSH 0\t\t\t\n      DUP1 \t\t\t\n      PUSH 60\t\t\t\n      DUP6 \t\t\t\n      DUP8 \t\t\t\n      SUB \t\t\t\n      SLT \t\t\t\n      ISZERO \t\t\t\n      PUSH [tag] 1201\t\t\t\n      JUMPI \t\t\t\n      PUSH 0\t\t\t\n      DUP1 \t\t\t\n      REVERT \t\t\t\n    tag 1201\t\t\t\n      JUMPDEST \t\t\t\n      DUP5 \t\t\t\n      CALLDATALOAD \t\t\t\n      PUSH [tag] 1202\t\t\t\n      DUP2 \t\t\t\n      PUSH [tag] 1010\t\t\t\n      JUMP \t\t\t\n    tag 1202\t\t\t\n      JUMPDEST \t\t\t\n      SWAP4 \t\t\t\n      POP \t\t\t\n      PUSH 20\t\t\t\n      DUP6 \t\t\t\n      ADD \t\t\t\n      CALLDATALOAD \t\t\t\n      SWAP3 \t\t\t\n      POP \t\t\t\n      PUSH 40\t\t\t\n      DUP6 \t\t\t\n      ADD \t\t\t\n      CALLDATALOAD \t\t\t\n      PUSH 1\t\t\t\n      PUSH 1\t\t\t\n      PUSH 40\t\t\t\n      SHL \t\t\t\n      SUB \t\t\t\n      DUP2 \t\t\t\n      GT \t\t\t\n      ISZERO \t\t\t\n      PUSH [tag] 1151\t\t\t\n      JUMPI \t\t\t\n      PUSH 0\t\t\t\n      DUP1 \t\t\t\n      REVERT \t\t\t\n    tag 283\t\t\t\n      JUMPDEST \t\t\t\n      PUSH 0\t\t\t\n      PUSH 20\t\t\t\n      DUP3 \t\t\t\n      DUP5 \t\t\t\n      SUB \t\t\t\n      SLT \t\t\t\n      ISZERO \t\t\t\n      PUSH [tag] 1206\t\t\t\n      JUMPI \t\t\t\n      PUSH 0\t\t\t\n      DUP1 \t\t\t\n      REVERT \t\t\t\n    tag 1206\t\t\t\n      JUMPDEST \t\t\t\n      DUP2 \t\t\t\n      CALLDATALOAD \t\t\t\n      PUSH FFFFFFFF\t\t\t\n      DUP2 \t\t\t\n      AND \t\t\t\n      DUP2 \t\t\t\n      EQ \t\t\t\n      PUSH [tag] 544\t\t\t\n      JUMPI \t\t\t\n      PUSH 0\t\t\t\n      DUP1 \t\t\t\n      REVERT \t\t\t\n    tag 288\t\t\t\n      JUMPDEST \t\t\t\n      PUSH 0\t\t\t\n      DUP1 \t\t\t\n      PUSH 40\t\t\t\n      DUP4 \t\t\t\n      DUP6 \t\t\t\n      SUB \t\t\t\n      SLT \t\t\t\n      ISZERO \t\t\t\n      PUSH [tag] 1209\t\t\t\n      JUMPI \t\t\t\n      PUSH 0\t\t\t\n      DUP1 \t\t\t\n      REVERT \t\t\t\n    tag 1209\t\t\t\n      JUMPDEST \t\t\t\n      DUP3 \t\t\t\n      CALLDATALOAD \t\t\t\n      PUSH [tag] 1210\t\t\t\n      DUP2 \t\t\t\n      PUSH [tag] 1010\t\t\t\n      JUMP \t\t\t\n    tag 1210\t\t\t\n      JUMPDEST \t\t\t\n      SWAP5 \t\t\t\n      PUSH 20\t\t\t\n      SWAP4 \t\t\t\n      SWAP1 \t\t\t\n      SWAP4 \t\t\t\n      ADD \t\t\t\n      CALLDATALOAD \t\t\t\n      SWAP4 \t\t\t\n      POP \t\t\t\n      POP \t\t\t\n      POP \t\t\t\n      JUMP \t\t\t\n    tag 298\t\t\t\n      JUMPDEST \t\t\t\n      PUSH 0\t\t\t\n      DUP1 \t\t\t\n      PUSH 0\t\t\t\n      DUP1 \t\t\t\n      PUSH 0\t\t\t\n      PUSH A0\t\t\t\n      DUP7 \t\t\t\n      DUP9 \t\t\t\n      SUB \t\t\t\n      SLT \t\t\t\n      ISZERO \t\t\t\n      PUSH [tag] 1212\t\t\t\n      JUMPI \t\t\t\n      PUSH 0\t\t\t\n      DUP1 \t\t\t\n      REVERT \t\t\t\n    tag 1212\t\t\t\n      JUMPDEST \t\t\t\n      DUP6 \t\t\t\n      CALLDATALOAD \t\t\t\n      PUSH [tag] 1213\t\t\t\n      DUP2 \t\t\t\n      PUSH [tag] 1010\t\t\t\n      JUMP \t\t\t\n    tag 1213\t\t\t\n      JUMPDEST \t\t\t\n      SWAP5 \t\t\t\n      POP \t\t\t\n      PUSH 20\t\t\t\n      DUP7 \t\t\t\n      ADD \t\t\t\n      CALLDATALOAD \t\t\t\n      PUSH [tag] 1214\t\t\t\n      DUP2 \t\t\t\n      PUSH [tag] 1010\t\t\t\n      JUMP \t\t\t\n    tag 1214\t\t\t\n      JUMPDEST \t\t\t\n      SWAP4 \t\t\t\n      POP \t\t\t\n      PUSH 40\t\t\t\n      DUP7 \t\t\t\n      ADD \t\t\t\n      CALLDATALOAD \t\t\t\n      SWAP3 \t\t\t\n      POP \t\t\t\n      PUSH 60\t\t\t\n      DUP7 \t\t\t\n      ADD \t\t\t\n      CALLDATALOAD \t\t\t\n      SWAP2 \t\t\t\n      POP \t\t\t\n      PUSH 80\t\t\t\n      DUP7 \t\t\t\n      ADD \t\t\t\n      CALLDATALOAD \t\t\t\n      PUSH 1\t\t\t\n      PUSH 1\t\t\t\n      PUSH 40\t\t\t\n      SHL \t\t\t\n      SUB \t\t\t\n      DUP2 \t\t\t\n      GT \t\t\t\n      ISZERO \t\t\t\n      PUSH [tag] 1215\t\t\t\n      JUMPI \t\t\t\n      PUSH 0\t\t\t\n      DUP1 \t\t\t\n      REVERT \t\t\t\n    tag 1215\t\t\t\n      JUMPDEST \t\t\t\n      PUSH [tag] 1142\t\t\t\n      DUP9 \t\t\t\n      DUP3 \t\t\t\n      DUP10 \t\t\t\n      ADD \t\t\t\n      PUSH [tag] 1014\t\t\t\n      JUMP \t\t\t\n    tag 330\t\t\t\n      JUMPDEST \t\t\t\n      PUSH 1\t\t\t\n      DUP2 \t\t\t\n      DUP2 \t\t\t\n      SHR \t\t\t\n      SWAP1 \t\t\t\n      DUP3 \t\t\t\n      AND \t\t\t\n      DUP1 \t\t\t\n      PUSH [tag] 1219\t\t\t\n      JUMPI \t\t\t\n      PUSH 7F\t\t\t\n      DUP3 \t\t\t\n      AND \t\t\t\n      SWAP2 \t\t\t\n      POP \t\t\t\n    tag 1219\t\t\t\n      JUMPDEST \t\t\t\n      PUSH 20\t\t\t\n      DUP3 \t\t\t\n      LT \t\t\t\n      DUP2 \t\t\t\n      SUB \t\t\t\n      PUSH [tag] 1220\t\t\t\n      JUMPI \t\t\t\n      PUSH 4E487B71\t\t\t\n      PUSH E0\t\t\t\n      SHL \t\t\t\n      PUSH 0\t\t\t\n      MSTORE \t\t\t\n      PUSH 22\t\t\t\n      PUSH 4\t\t\t\n      MSTORE \t\t\t\n      PUSH 24\t\t\t\n      PUSH 0\t\t\t\n      REVERT \t\t\t\n    tag 1220\t\t\t\n      JUMPDEST \t\t\t\n      POP \t\t\t\n      SWAP2 \t\t\t\n      SWAP1 \t\t\t\n      POP \t\t\t\n      JUMP \t\t\t\n    tag 363\t\t\t\n      JUMPDEST \t\t\t\n      PUSH 4E487B71\t\t\t\n      PUSH E0\t\t\t\n      SHL \t\t\t\n      PUSH 0\t\t\t\n      MSTORE \t\t\t\n      PUSH 32\t\t\t\n      PUSH 4\t\t\t\n      MSTORE \t\t\t\n      PUSH 24\t\t\t\n      PUSH 0\t\t\t\n      REVERT \t\t\t\n    tag 403\t\t\t\n      JUMPDEST \t\t\t\n      PUSH 0\t\t\t\n      PUSH 20\t\t\t\n      DUP3 \t\t\t\n      DUP5 \t\t\t\n      SUB \t\t\t\n      SLT \t\t\t\n      ISZERO \t\t\t\n      PUSH [tag] 1224\t\t\t\n      JUMPI \t\t\t\n      PUSH 0\t\t\t\n      DUP1 \t\t\t\n      REVERT \t\t\t\n    tag 1224\t\t\t\n      JUMPDEST \t\t\t\n      DUP2 \t\t\t\n      MLOAD \t\t\t\n      PUSH 1\t\t\t\n      PUSH 1\t\t\t\n      PUSH 40\t\t\t\n      SHL \t\t\t\n      SUB \t\t\t\n      DUP2 \t\t\t\n      GT \t\t\t\n      ISZERO \t\t\t\n      PUSH [tag] 1225\t\t\t\n      JUMPI \t\t\t\n      PUSH 0\t\t\t\n      DUP1 \t\t\t\n      REVERT \t\t\t\n    tag 1225\t\t\t\n      JUMPDEST \t\t\t\n      DUP3 \t\t\t\n      ADD \t\t\t\n      PUSH 1F\t\t\t\n      DUP2 \t\t\t\n      ADD \t\t\t\n      DUP5 \t\t\t\n      SGT \t\t\t\n      PUSH [tag] 1226\t\t\t\n      JUMPI \t\t\t\n      PUSH 0\t\t\t\n      DUP1 \t\t\t\n      REVERT \t\t\t\n    tag 1226\t\t\t\n      JUMPDEST \t\t\t\n      DUP1 \t\t\t\n      MLOAD \t\t\t\n      PUSH [tag] 1227\t\t\t\n      PUSH [tag] 1057\t\t\t\n      DUP3 \t\t\t\n      PUSH [tag] 1012\t\t\t\n      JUMP \t\t\t\n    tag 1227\t\t\t\n      JUMPDEST \t\t\t\n      DUP2 \t\t\t\n      DUP2 \t\t\t\n      MSTORE \t\t\t\n      DUP6 \t\t\t\n      PUSH 20\t\t\t\n      DUP4 \t\t\t\n      DUP6 \t\t\t\n      ADD \t\t\t\n      ADD \t\t\t\n      GT \t\t\t\n      ISZERO \t\t\t\n      PUSH [tag] 1229\t\t\t\n      JUMPI \t\t\t\n      PUSH 0\t\t\t\n      DUP1 \t\t\t\n      REVERT \t\t\t\n    tag 1229\t\t\t\n      JUMPDEST \t\t\t\n      PUSH [tag] 633\t\t\t\n      DUP3 \t\t\t\n      PUSH 20\t\t\t\n      DUP4 \t\t\t\n      ADD \t\t\t\n      PUSH 20\t\t\t\n      DUP7 \t\t\t\n      ADD \t\t\t\n      PUSH [tag] 1008\t\t\t\n      JUMP \t\t\t\n    tag 421\t\t\t\n      JUMPDEST \t\t\t\n      DUP2 \t\t\t\n      DUP4 \t\t\t\n      DUP3 \t\t\t\n      CALLDATACOPY \t\t\t\n      PUSH 0\t\t\t\n      SWAP2 \t\t\t\n      ADD \t\t\t\n      SWAP1 \t\t\t\n      DUP2 \t\t\t\n      MSTORE \t\t\t\n      SWAP2 \t\t\t\n      SWAP1 \t\t\t\n      POP \t\t\t\n      JUMP \t\t\t\n    tag 1024\t\t\t\n      JUMPDEST \t\t\t\n      PUSH 4E487B71\t\t\t\n      PUSH E0\t\t\t\n      SHL \t\t\t\n      PUSH 0\t\t\t\n      MSTORE \t\t\t\n      PUSH 11\t\t\t\n      PUSH 4\t\t\t\n      MSTORE \t\t\t\n      PUSH 24\t\t\t\n      PUSH 0\t\t\t\n      REVERT \t\t\t\n    tag 435\t\t\t\n      JUMPDEST \t\t\t\n      DUP2 \t\t\t\n      DUP2 \t\t\t\n      SUB \t\t\t\n      DUP2 \t\t\t\n      DUP2 \t\t\t\n      GT \t\t\t\n      ISZERO \t\t\t\n      PUSH [tag] 317\t\t\t\n      JUMPI \t\t\t\n      PUSH [tag] 317\t\t\t\n      PUSH [tag] 1024\t\t\t\n      JUMP \t\t\t\n    tag 461\t\t\t\n      JUMPDEST \t\t\t\n      PUSH FFFFFFFFFFFF\t\t\t\n      DUP3 \t\t\t\n      DUP2 \t\t\t\n      AND \t\t\t\n      DUP3 \t\t\t\n      DUP3 \t\t\t\n      AND \t\t\t\n      SUB \t\t\t\n      SWAP1 \t\t\t\n      DUP1 \t\t\t\n      DUP3 \t\t\t\n      GT \t\t\t\n      ISZERO \t\t\t\n      PUSH [tag] 1239\t\t\t\n      JUMPI \t\t\t\n      PUSH [tag] 1239\t\t\t\n      PUSH [tag] 1024\t\t\t\n      JUMP \t\t\t\n    tag 1239\t\t\t\n      JUMPDEST \t\t\t\n      POP \t\t\t\n      SWAP3 \t\t\t\n      SWAP2 \t\t\t\n      POP \t\t\t\n      POP \t\t\t\n      JUMP \t\t\t\n    tag 491\t\t\t\n      JUMPDEST \t\t\t\n      PUSH 0\t\t\t\n      PUSH 20\t\t\t\n      DUP3 \t\t\t\n      DUP5 \t\t\t\n      SUB \t\t\t\n      SLT \t\t\t\n      ISZERO \t\t\t\n      PUSH [tag] 1243\t\t\t\n      JUMPI \t\t\t\n      PUSH 0\t\t\t\n      DUP1 \t\t\t\n      REVERT \t\t\t\n    tag 1243\t\t\t\n      JUMPDEST \t\t\t\n      DUP2 \t\t\t\n      MLOAD \t\t\t\n      PUSH [tag] 544\t\t\t\n      DUP2 \t\t\t\n      PUSH [tag] 1022\t\t\t\n      JUMP \t\t\t\n    tag 523\t\t\t\n      JUMPDEST \t\t\t\n      PUSH FFFFFFFFFFFF\t\t\t\n      DUP2 \t\t\t\n      DUP2 \t\t\t\n      AND \t\t\t\n      DUP4 \t\t\t\n      DUP3 \t\t\t\n      AND \t\t\t\n      ADD \t\t\t\n      SWAP1 \t\t\t\n      DUP1 \t\t\t\n      DUP3 \t\t\t\n      GT \t\t\t\n      ISZERO \t\t\t\n      PUSH [tag] 1239\t\t\t\n      JUMPI \t\t\t\n      PUSH [tag] 1239\t\t\t\n      PUSH [tag] 1024\t\t\t\n      JUMP \t\t\t\n    tag 1025\t\t\t\n      JUMPDEST \t\t\t\n      PUSH 0\t\t\t\n      DUP2 \t\t\t\n      MLOAD \t\t\t\n      DUP1 \t\t\t\n      DUP5 \t\t\t\n      MSTORE \t\t\t\n      PUSH 20\t\t\t\n      DUP1 \t\t\t\n      DUP6 \t\t\t\n      ADD \t\t\t\n      SWAP5 \t\t\t\n      POP \t\t\t\n      PUSH 20\t\t\t\n      DUP5 \t\t\t\n      ADD \t\t\t\n      PUSH 0\t\t\t\n    tag 1249\t\t\t\n      JUMPDEST \t\t\t\n      DUP4 \t\t\t\n      DUP2 \t\t\t\n      LT \t\t\t\n      ISZERO \t\t\t\n      PUSH [tag] 1170\t\t\t\n      JUMPI \t\t\t\n      DUP2 \t\t\t\n      MLOAD \t\t\t\n      PUSH 1\t\t\t\n      PUSH 1\t\t\t\n      PUSH A0\t\t\t\n      SHL \t\t\t\n      SUB \t\t\t\n      AND \t\t\t\n      DUP8 \t\t\t\n      MSTORE \t\t\t\n      SWAP6 \t\t\t\n      DUP3 \t\t\t\n      ADD \t\t\t\n      SWAP6 \t\t\t\n      SWAP1 \t\t\t\n      DUP3 \t\t\t\n      ADD \t\t\t\n      SWAP1 \t\t\t\n      PUSH 1\t\t\t\n      ADD \t\t\t\n      PUSH [tag] 1249\t\t\t\n      JUMP \t\t\t\n    tag 1026\t\t\t\n      JUMPDEST \t\t\t\n      PUSH 0\t\t\t\n      DUP3 \t\t\t\n      DUP3 \t\t\t\n      MLOAD \t\t\t\n      DUP1 \t\t\t\n      DUP6 \t\t\t\n      MSTORE \t\t\t\n      PUSH 20\t\t\t\n      DUP1 \t\t\t\n      DUP7 \t\t\t\n      ADD \t\t\t\n      SWAP6 \t\t\t\n      POP \t\t\t\n      PUSH 20\t\t\t\n      DUP3 \t\t\t\n      PUSH 5\t\t\t\n      SHL \t\t\t\n      DUP5 \t\t\t\n      ADD \t\t\t\n      ADD \t\t\t\n      PUSH 20\t\t\t\n      DUP7 \t\t\t\n      ADD \t\t\t\n      PUSH 0\t\t\t\n    tag 1253\t\t\t\n      JUMPDEST \t\t\t\n      DUP5 \t\t\t\n      DUP2 \t\t\t\n      LT \t\t\t\n      ISZERO \t\t\t\n      PUSH [tag] 1255\t\t\t\n      JUMPI \t\t\t\n      PUSH 1F\t\t\t\n      NOT \t\t\t\n      DUP7 \t\t\t\n      DUP5 \t\t\t\n      SUB \t\t\t\n      ADD \t\t\t\n      DUP10 \t\t\t\n      MSTORE \t\t\t\n      PUSH [tag] 1256\t\t\t\n      DUP4 \t\t\t\n      DUP4 \t\t\t\n      MLOAD \t\t\t\n      PUSH [tag] 1009\t\t\t\n      JUMP \t\t\t\n    tag 1256\t\t\t\n      JUMPDEST \t\t\t\n      SWAP9 \t\t\t\n      DUP5 \t\t\t\n      ADD \t\t\t\n      SWAP9 \t\t\t\n      SWAP3 \t\t\t\n      POP \t\t\t\n      SWAP1 \t\t\t\n      DUP4 \t\t\t\n      ADD \t\t\t\n      SWAP1 \t\t\t\n      PUSH 1\t\t\t\n      ADD \t\t\t\n      PUSH [tag] 1253\t\t\t\n      JUMP \t\t\t\n    tag 1255\t\t\t\n      JUMPDEST \t\t\t\n      POP \t\t\t\n      SWAP1 \t\t\t\n      SWAP8 \t\t\t\n      SWAP7 \t\t\t\n      POP \t\t\t\n      POP \t\t\t\n      POP \t\t\t\n      POP \t\t\t\n      POP \t\t\t\n      POP \t\t\t\n      POP \t\t\t\n      JUMP \t\t\t\n    tag 535\t\t\t\n      JUMPDEST \t\t\t\n      PUSH 80\t\t\t\n      DUP2 \t\t\t\n      MSTORE \t\t\t\n      PUSH 0\t\t\t\n      PUSH [tag] 1258\t\t\t\n      PUSH 80\t\t\t\n      DUP4 \t\t\t\n      ADD \t\t\t\n      DUP8 \t\t\t\n      PUSH [tag] 1025\t\t\t\n      JUMP \t\t\t\n    tag 1258\t\t\t\n      JUMPDEST \t\t\t\n      DUP3 \t\t\t\n      DUP2 \t\t\t\n      SUB \t\t\t\n      PUSH 20\t\t\t\n      DUP5 \t\t\t\n      ADD \t\t\t\n      MSTORE \t\t\t\n      PUSH [tag] 1259\t\t\t\n      DUP2 \t\t\t\n      DUP8 \t\t\t\n      PUSH [tag] 1023\t\t\t\n      JUMP \t\t\t\n    tag 1259\t\t\t\n      JUMPDEST \t\t\t\n      SWAP1 \t\t\t\n      POP \t\t\t\n      DUP3 \t\t\t\n      DUP2 \t\t\t\n      SUB \t\t\t\n      PUSH 40\t\t\t\n      DUP5 \t\t\t\n      ADD \t\t\t\n      MSTORE \t\t\t\n      PUSH [tag] 1260\t\t\t\n      DUP2 \t\t\t\n      DUP7 \t\t\t\n      PUSH [tag] 1026\t\t\t\n      JUMP \t\t\t\n    tag 1260\t\t\t\n      JUMPDEST \t\t\t\n      SWAP2 \t\t\t\n      POP \t\t\t\n      POP \t\t\t\n      DUP3 \t\t\t\n      PUSH 60\t\t\t\n      DUP4 \t\t\t\n      ADD \t\t\t\n      MSTORE \t\t\t\n      SWAP6 \t\t\t\n      SWAP5 \t\t\t\n      POP \t\t\t\n      POP \t\t\t\n      POP \t\t\t\n      POP \t\t\t\n      POP \t\t\t\n      JUMP \t\t\t\n    tag 598\t\t\t\n      JUMPDEST \t\t\t\n      DUP4 \t\t\t\n      DUP2 \t\t\t\n      MSTORE \t\t\t\n      PUSH 60\t\t\t\n      DUP2 \t\t\t\n      ADD \t\t\t\n      PUSH [tag] 1263\t\t\t\n      PUSH 20\t\t\t\n      DUP4 \t\t\t\n      ADD \t\t\t\n      DUP6 \t\t\t\n      PUSH [tag] 1019\t\t\t\n      JUMP \t\t\t\n    tag 1263\t\t\t\n      JUMPDEST \t\t\t\n      DUP3 \t\t\t\n      PUSH 40\t\t\t\n      DUP4 \t\t\t\n      ADD \t\t\t\n      MSTORE \t\t\t\n      SWAP5 \t\t\t\n      SWAP4 \t\t\t\n      POP \t\t\t\n      POP \t\t\t\n      POP \t\t\t\n      POP \t\t\t\n      JUMP \t\t\t\n    tag 622\t\t\t\n      JUMPDEST \t\t\t\n      PUSH 0\t\t\t\n      PUSH 20\t\t\t\n      DUP3 \t\t\t\n      DUP5 \t\t\t\n      SUB \t\t\t\n      SLT \t\t\t\n      ISZERO \t\t\t\n      PUSH [tag] 1265\t\t\t\n      JUMPI \t\t\t\n      PUSH 0\t\t\t\n      DUP1 \t\t\t\n      REVERT \t\t\t\n    tag 1265\t\t\t\n      JUMPDEST \t\t\t\n      DUP2 \t\t\t\n      MLOAD \t\t\t\n      DUP1 \t\t\t\n      ISZERO \t\t\t\n      ISZERO \t\t\t\n      DUP2 \t\t\t\n      EQ \t\t\t\n      PUSH [tag] 544\t\t\t\n      JUMPI \t\t\t\n      PUSH 0\t\t\t\n      DUP1 \t\t\t\n      REVERT \t\t\t\n    tag 664\t\t\t\n      JUMPDEST \t\t\t\n      DUP5 \t\t\t\n      DUP2 \t\t\t\n      MSTORE \t\t\t\n      PUSH FF\t\t\t\n      DUP5 \t\t\t\n      AND \t\t\t\n      PUSH 20\t\t\t\n      DUP3 \t\t\t\n      ADD \t\t\t\n      MSTORE \t\t\t\n      DUP3 \t\t\t\n      PUSH 40\t\t\t\n      DUP3 \t\t\t\n      ADD \t\t\t\n      MSTORE \t\t\t\n      PUSH 80\t\t\t\n      PUSH 60\t\t\t\n      DUP3 \t\t\t\n      ADD \t\t\t\n      MSTORE \t\t\t\n      PUSH 0\t\t\t\n      PUSH [tag] 397\t\t\t\n      PUSH 80\t\t\t\n      DUP4 \t\t\t\n      ADD \t\t\t\n      DUP5 \t\t\t\n      PUSH [tag] 1009\t\t\t\n      JUMP \t\t\t\n    tag 667\t\t\t\n      JUMPDEST \t\t\t\n      DUP6 \t\t\t\n      DUP2 \t\t\t\n      MSTORE \t\t\t\n      PUSH FF\t\t\t\n      DUP6 \t\t\t\n      AND \t\t\t\n      PUSH 20\t\t\t\n      DUP3 \t\t\t\n      ADD \t\t\t\n      MSTORE \t\t\t\n      DUP4 \t\t\t\n      PUSH 40\t\t\t\n      DUP3 \t\t\t\n      ADD \t\t\t\n      MSTORE \t\t\t\n      PUSH A0\t\t\t\n      PUSH 60\t\t\t\n      DUP3 \t\t\t\n      ADD \t\t\t\n      MSTORE \t\t\t\n      PUSH 0\t\t\t\n      PUSH [tag] 1270\t\t\t\n      PUSH A0\t\t\t\n      DUP4 \t\t\t\n      ADD \t\t\t\n      DUP6 \t\t\t\n      PUSH [tag] 1009\t\t\t\n      JUMP \t\t\t\n    tag 1270\t\t\t\n      JUMPDEST \t\t\t\n      DUP3 \t\t\t\n      DUP2 \t\t\t\n      SUB \t\t\t\n      PUSH 80\t\t\t\n      DUP5 \t\t\t\n      ADD \t\t\t\n      MSTORE \t\t\t\n      PUSH [tag] 466\t\t\t\n      DUP2 \t\t\t\n      DUP6 \t\t\t\n      PUSH [tag] 1009\t\t\t\n      JUMP \t\t\t\n    tag 682\t\t\t\n      JUMPDEST \t\t\t\n      DUP1 \t\t\t\n      DUP3 \t\t\t\n      ADD \t\t\t\n      DUP1 \t\t\t\n      DUP3 \t\t\t\n      GT \t\t\t\n      ISZERO \t\t\t\n      PUSH [tag] 317\t\t\t\n      JUMPI \t\t\t\n      PUSH [tag] 317\t\t\t\n      PUSH [tag] 1024\t\t\t\n      JUMP \t\t\t\n    tag 726\t\t\t\n      JUMPDEST \t\t\t\n      PUSH 0\t\t\t\n      PUSH 120\t\t\t\n      DUP12 \t\t\t\n      DUP4 \t\t\t\n      MSTORE \t\t\t\n      PUSH 20\t\t\t\n      PUSH 1\t\t\t\n      DUP1 \t\t\t\n      PUSH A0\t\t\t\n      SHL \t\t\t\n      SUB \t\t\t\n      DUP13 \t\t\t\n      AND \t\t\t\n      DUP2 \t\t\t\n      DUP6 \t\t\t\n      ADD \t\t\t\n      MSTORE \t\t\t\n      DUP2 \t\t\t\n      PUSH 40\t\t\t\n      DUP6 \t\t\t\n      ADD \t\t\t\n      MSTORE \t\t\t\n      PUSH [tag] 1278\t\t\t\n      DUP3 \t\t\t\n      DUP6 \t\t\t\n      ADD \t\t\t\n      DUP13 \t\t\t\n      PUSH [tag] 1025\t\t\t\n      JUMP \t\t\t\n    tag 1278\t\t\t\n      JUMPDEST \t\t\t\n      SWAP2 \t\t\t\n      POP \t\t\t\n      DUP4 \t\t\t\n      DUP3 \t\t\t\n      SUB \t\t\t\n      PUSH 60\t\t\t\n      DUP6 \t\t\t\n      ADD \t\t\t\n      MSTORE \t\t\t\n      PUSH [tag] 1279\t\t\t\n      DUP3 \t\t\t\n      DUP12 \t\t\t\n      PUSH [tag] 1023\t\t\t\n      JUMP \t\t\t\n    tag 1279\t\t\t\n      JUMPDEST \t\t\t\n      SWAP2 \t\t\t\n      POP \t\t\t\n      DUP4 \t\t\t\n      DUP3 \t\t\t\n      SUB \t\t\t\n      PUSH 80\t\t\t\n      DUP6 \t\t\t\n      ADD \t\t\t\n      MSTORE \t\t\t\n      DUP2 \t\t\t\n      DUP10 \t\t\t\n      MLOAD \t\t\t\n      DUP1 \t\t\t\n      DUP5 \t\t\t\n      MSTORE \t\t\t\n      DUP3 \t\t\t\n      DUP5 \t\t\t\n      ADD \t\t\t\n      SWAP2 \t\t\t\n      POP \t\t\t\n      DUP3 \t\t\t\n      DUP2 \t\t\t\n      PUSH 5\t\t\t\n      SHL \t\t\t\n      DUP6 \t\t\t\n      ADD \t\t\t\n      ADD \t\t\t\n      DUP4 \t\t\t\n      DUP13 \t\t\t\n      ADD \t\t\t\n      PUSH 0\t\t\t\n    tag 1280\t\t\t\n      JUMPDEST \t\t\t\n      DUP4 \t\t\t\n      DUP2 \t\t\t\n      LT \t\t\t\n      ISZERO \t\t\t\n      PUSH [tag] 1282\t\t\t\n      JUMPI \t\t\t\n      PUSH 1F\t\t\t\n      NOT \t\t\t\n      DUP8 \t\t\t\n      DUP5 \t\t\t\n      SUB \t\t\t\n      ADD \t\t\t\n      DUP6 \t\t\t\n      MSTORE \t\t\t\n      PUSH [tag] 1283\t\t\t\n      DUP4 \t\t\t\n      DUP4 \t\t\t\n      MLOAD \t\t\t\n      PUSH [tag] 1009\t\t\t\n      JUMP \t\t\t\n    tag 1283\t\t\t\n      JUMPDEST \t\t\t\n      SWAP5 \t\t\t\n      DUP7 \t\t\t\n      ADD \t\t\t\n      SWAP5 \t\t\t\n      SWAP3 \t\t\t\n      POP \t\t\t\n      SWAP1 \t\t\t\n      DUP6 \t\t\t\n      ADD \t\t\t\n      SWAP1 \t\t\t\n      PUSH 1\t\t\t\n      ADD \t\t\t\n      PUSH [tag] 1280\t\t\t\n      JUMP \t\t\t\n    tag 1282\t\t\t\n      JUMPDEST \t\t\t\n      POP \t\t\t\n      POP \t\t\t\n      DUP7 \t\t\t\n      DUP2 \t\t\t\n      SUB \t\t\t\n      PUSH A0\t\t\t\n      DUP9 \t\t\t\n      ADD \t\t\t\n      MSTORE \t\t\t\n      PUSH [tag] 1284\t\t\t\n      DUP2 \t\t\t\n      DUP13 \t\t\t\n      PUSH [tag] 1026\t\t\t\n      JUMP \t\t\t\n    tag 1284\t\t\t\n      JUMPDEST \t\t\t\n      SWAP5 \t\t\t\n      POP \t\t\t\n      POP \t\t\t\n      POP \t\t\t\n      POP \t\t\t\n      POP \t\t\t\n      DUP6 \t\t\t\n      PUSH C0\t\t\t\n      DUP5 \t\t\t\n      ADD \t\t\t\n      MSTORE \t\t\t\n      DUP5 \t\t\t\n      PUSH E0\t\t\t\n      DUP5 \t\t\t\n      ADD \t\t\t\n      MSTORE \t\t\t\n      DUP3 \t\t\t\n      DUP2 \t\t\t\n      SUB \t\t\t\n      PUSH 100\t\t\t\n      DUP5 \t\t\t\n      ADD \t\t\t\n      MSTORE \t\t\t\n      PUSH [tag] 1285\t\t\t\n      DUP2 \t\t\t\n      DUP6 \t\t\t\n      PUSH [tag] 1009\t\t\t\n      JUMP \t\t\t\n    tag 1285\t\t\t\n      JUMPDEST \t\t\t\n      SWAP13 \t\t\t\n      SWAP12 \t\t\t\n      POP \t\t\t\n      POP \t\t\t\n      POP \t\t\t\n      POP \t\t\t\n      POP \t\t\t\n      POP \t\t\t\n      POP \t\t\t\n      POP \t\t\t\n      POP \t\t\t\n      POP \t\t\t\n      POP \t\t\t\n      POP \t\t\t\n      JUMP \t\t\t\n    tag 741\t\t\t\n      JUMPDEST \t\t\t\n      PUSH 0\t\t\t\n      PUSH 20\t\t\t\n      DUP3 \t\t\t\n      DUP5 \t\t\t\n      SUB \t\t\t\n      SLT \t\t\t\n      ISZERO \t\t\t\n      PUSH [tag] 1288\t\t\t\n      JUMPI \t\t\t\n      PUSH 0\t\t\t\n      DUP1 \t\t\t\n      REVERT \t\t\t\n    tag 1288\t\t\t\n      JUMPDEST \t\t\t\n      POP \t\t\t\n      MLOAD \t\t\t\n      SWAP2 \t\t\t\n      SWAP1 \t\t\t\n      POP \t\t\t\n      JUMP \t\t\t\n    tag 775\t\t\t\n      JUMPDEST \t\t\t\n      DUP1 \t\t\t\n      DUP3 \t\t\t\n      MUL \t\t\t\n      DUP2 \t\t\t\n      ISZERO \t\t\t\n      DUP3 \t\t\t\n      DUP3 \t\t\t\n      DIV \t\t\t\n      DUP5 \t\t\t\n      EQ \t\t\t\n      OR \t\t\t\n      PUSH [tag] 317\t\t\t\n      JUMPI \t\t\t\n      PUSH [tag] 317\t\t\t\n      PUSH [tag] 1024\t\t\t\n      JUMP \t\t\t\n    tag 889\t\t\t\n      JUMPDEST \t\t\t\n      PUSH 4E487B71\t\t\t\n      PUSH E0\t\t\t\n      SHL \t\t\t\n      PUSH 0\t\t\t\n      MSTORE \t\t\t\n      PUSH 12\t\t\t\n      PUSH 4\t\t\t\n      MSTORE \t\t\t\n      PUSH 24\t\t\t\n      PUSH 0\t\t\t\n      REVERT \t\t\t\n    tag 777\t\t\t\n      JUMPDEST \t\t\t\n      PUSH 0\t\t\t\n      DUP3 \t\t\t\n      PUSH [tag] 1297\t\t\t\n      JUMPI \t\t\t\n      PUSH 4E487B71\t\t\t\n      PUSH E0\t\t\t\n      SHL \t\t\t\n      PUSH 0\t\t\t\n      MSTORE \t\t\t\n      PUSH 12\t\t\t\n      PUSH 4\t\t\t\n      MSTORE \t\t\t\n      PUSH 24\t\t\t\n      PUSH 0\t\t\t\n      REVERT \t\t\t\n    tag 1297\t\t\t\n      JUMPDEST \t\t\t\n      POP \t\t\t\n      DIV \t\t\t\n      SWAP1 \t\t\t\n      JUMP \t\t\t\n    tag 795\t\t\t\n      JUMPDEST \t\t\t\n      PUSH A0\t\t\t\n      DUP2 \t\t\t\n      MSTORE \t\t\t\n      PUSH 0\t\t\t\n      PUSH [tag] 1300\t\t\t\n      PUSH A0\t\t\t\n      DUP4 \t\t\t\n      ADD \t\t\t\n      DUP9 \t\t\t\n      PUSH [tag] 1025\t\t\t\n      JUMP \t\t\t\n    tag 1300\t\t\t\n      JUMPDEST \t\t\t\n      DUP3 \t\t\t\n      DUP2 \t\t\t\n      SUB \t\t\t\n      PUSH 20\t\t\t\n      DUP5 \t\t\t\n      ADD \t\t\t\n      MSTORE \t\t\t\n      PUSH [tag] 1301\t\t\t\n      DUP2 \t\t\t\n      DUP9 \t\t\t\n      PUSH [tag] 1023\t\t\t\n      JUMP \t\t\t\n    tag 1301\t\t\t\n      JUMPDEST \t\t\t\n      SWAP1 \t\t\t\n      POP \t\t\t\n      DUP3 \t\t\t\n      DUP2 \t\t\t\n      SUB \t\t\t\n      PUSH 40\t\t\t\n      DUP5 \t\t\t\n      ADD \t\t\t\n      MSTORE \t\t\t\n      PUSH [tag] 1302\t\t\t\n      DUP2 \t\t\t\n      DUP8 \t\t\t\n      PUSH [tag] 1026\t\t\t\n      JUMP \t\t\t\n    tag 1302\t\t\t\n      JUMPDEST \t\t\t\n      PUSH 60\t\t\t\n      DUP5 \t\t\t\n      ADD \t\t\t\n      SWAP6 \t\t\t\n      SWAP1 \t\t\t\n      SWAP6 \t\t\t\n      MSTORE \t\t\t\n      POP \t\t\t\n      POP \t\t\t\n      PUSH 80\t\t\t\n      ADD \t\t\t\n      MSTORE \t\t\t\n      SWAP4 \t\t\t\n      SWAP3 \t\t\t\n      POP \t\t\t\n      POP \t\t\t\n      POP \t\t\t\n      JUMP \t\t\t\n    tag 801\t\t\t\n      JUMPDEST \t\t\t\n      PUSH C0\t\t\t\n      DUP2 \t\t\t\n      MSTORE \t\t\t\n      PUSH 0\t\t\t\n      PUSH [tag] 1306\t\t\t\n      PUSH C0\t\t\t\n      DUP4 \t\t\t\n      ADD \t\t\t\n      DUP10 \t\t\t\n      PUSH [tag] 1025\t\t\t\n      JUMP \t\t\t\n    tag 1306\t\t\t\n      JUMPDEST \t\t\t\n      DUP3 \t\t\t\n      DUP2 \t\t\t\n      SUB \t\t\t\n      PUSH 20\t\t\t\n      DUP5 \t\t\t\n      ADD \t\t\t\n      MSTORE \t\t\t\n      PUSH [tag] 1307\t\t\t\n      DUP2 \t\t\t\n      DUP10 \t\t\t\n      PUSH [tag] 1023\t\t\t\n      JUMP \t\t\t\n    tag 1307\t\t\t\n      JUMPDEST \t\t\t\n      SWAP1 \t\t\t\n      POP \t\t\t\n      DUP3 \t\t\t\n      DUP2 \t\t\t\n      SUB \t\t\t\n      PUSH 40\t\t\t\n      DUP5 \t\t\t\n      ADD \t\t\t\n      MSTORE \t\t\t\n      PUSH [tag] 1308\t\t\t\n      DUP2 \t\t\t\n      DUP9 \t\t\t\n      PUSH [tag] 1026\t\t\t\n      JUMP \t\t\t\n    tag 1308\t\t\t\n      JUMPDEST \t\t\t\n      PUSH 60\t\t\t\n      DUP5 \t\t\t\n      ADD \t\t\t\n      SWAP7 \t\t\t\n      SWAP1 \t\t\t\n      SWAP7 \t\t\t\n      MSTORE \t\t\t\n      POP \t\t\t\n      POP \t\t\t\n      PUSH 80\t\t\t\n      DUP2 \t\t\t\n      ADD \t\t\t\n      SWAP3 \t\t\t\n      SWAP1 \t\t\t\n      SWAP3 \t\t\t\n      MSTORE \t\t\t\n      PUSH A0\t\t\t\n      SWAP1 \t\t\t\n      SWAP2 \t\t\t\n      ADD \t\t\t\n      MSTORE \t\t\t\n      SWAP4 \t\t\t\n      SWAP3 \t\t\t\n      POP \t\t\t\n      POP \t\t\t\n      POP \t\t\t\n      JUMP \t\t\t\n    tag 856\t\t\t\n      JUMPDEST \t\t\t\n      DUP3 \t\t\t\n      DUP2 \t\t\t\n      MSTORE \t\t\t\n      PUSH 40\t\t\t\n      PUSH 20\t\t\t\n      DUP3 \t\t\t\n      ADD \t\t\t\n      MSTORE \t\t\t\n      PUSH 0\t\t\t\n      PUSH [tag] 413\t\t\t\n      PUSH 40\t\t\t\n      DUP4 \t\t\t\n      ADD \t\t\t\n      DUP5 \t\t\t\n      PUSH [tag] 1009\t\t\t\n      JUMP \t\t\t\n    tag 858\t\t\t\n      JUMPDEST \t\t\t\n      PUSH 0\t\t\t\n      DUP3 \t\t\t\n      MLOAD \t\t\t\n      PUSH [tag] 1312\t\t\t\n      DUP2 \t\t\t\n      DUP5 \t\t\t\n      PUSH 20\t\t\t\n      DUP8 \t\t\t\n      ADD \t\t\t\n      PUSH [tag] 1008\t\t\t\n      JUMP \t\t\t\n    tag 1312\t\t\t\n      JUMPDEST \t\t\t\n      SWAP2 \t\t\t\n      SWAP1 \t\t\t\n      SWAP2 \t\t\t\n      ADD \t\t\t\n      SWAP3 \t\t\t\n      SWAP2 \t\t\t\n      POP \t\t\t\n      POP \t\t\t\n      JUMP \t\t\t\n    tag 970\t\t\t\n      JUMPDEST \t\t\t\n      PUSH FF\t\t\t\n      DUP2 \t\t\t\n      DUP2 \t\t\t\n      AND \t\t\t\n      DUP4 \t\t\t\n      DUP3 \t\t\t\n      AND \t\t\t\n      ADD \t\t\t\n      SWAP1 \t\t\t\n      DUP2 \t\t\t\n      GT \t\t\t\n      ISZERO \t\t\t\n      PUSH [tag] 317\t\t\t\n      JUMPI \t\t\t\n      PUSH [tag] 317\t\t\t\n      PUSH [tag] 1024\t\t\t\n      JUMP \t\t\t\n    tag 1027\t\t\t\n      JUMPDEST \t\t\t\n      PUSH 1\t\t\t\n      DUP2 \t\t\t\n      DUP2 \t\t\t\n    tag 1318\t\t\t\n      JUMPDEST \t\t\t\n      DUP1 \t\t\t\n      DUP6 \t\t\t\n      GT \t\t\t\n      ISZERO \t\t\t\n      PUSH [tag] 1320\t\t\t\n      JUMPI \t\t\t\n      DUP2 \t\t\t\n      PUSH 0\t\t\t\n      NOT \t\t\t\n      DIV \t\t\t\n      DUP3 \t\t\t\n      GT \t\t\t\n      ISZERO \t\t\t\n      PUSH [tag] 1322\t\t\t\n      JUMPI \t\t\t\n      PUSH [tag] 1322\t\t\t\n      PUSH [tag] 1024\t\t\t\n      JUMP \t\t\t\n    tag 1322\t\t\t\n      JUMPDEST \t\t\t\n      DUP1 \t\t\t\n      DUP6 \t\t\t\n      AND \t\t\t\n      ISZERO \t\t\t\n      PUSH [tag] 1323\t\t\t\n      JUMPI \t\t\t\n      SWAP2 \t\t\t\n      DUP2 \t\t\t\n      MUL \t\t\t\n      SWAP2 \t\t\t\n    tag 1323\t\t\t\n      JUMPDEST \t\t\t\n      SWAP4 \t\t\t\n      DUP5 \t\t\t\n      SHR \t\t\t\n      SWAP4 \t\t\t\n      SWAP1 \t\t\t\n      DUP1 \t\t\t\n      MUL \t\t\t\n      SWAP1 \t\t\t\n      PUSH [tag] 1318\t\t\t\n      JUMP \t\t\t\n    tag 1320\t\t\t\n      JUMPDEST \t\t\t\n      POP \t\t\t\n      SWAP3 \t\t\t\n      POP \t\t\t\n      SWAP3 \t\t\t\n      SWAP1 \t\t\t\n      POP \t\t\t\n      JUMP \t\t\t\n    tag 1028\t\t\t\n      JUMPDEST \t\t\t\n      PUSH 0\t\t\t\n      DUP3 \t\t\t\n      PUSH [tag] 1325\t\t\t\n      JUMPI \t\t\t\n      POP \t\t\t\n      PUSH 1\t\t\t\n      PUSH [tag] 317\t\t\t\n      JUMP \t\t\t\n    tag 1325\t\t\t\n      JUMPDEST \t\t\t\n      DUP2 \t\t\t\n      PUSH [tag] 1326\t\t\t\n      JUMPI \t\t\t\n      POP \t\t\t\n      PUSH 0\t\t\t\n      PUSH [tag] 317\t\t\t\n      JUMP \t\t\t\n    tag 1326\t\t\t\n      JUMPDEST \t\t\t\n      DUP2 \t\t\t\n      PUSH 1\t\t\t\n      DUP2 \t\t\t\n      EQ \t\t\t\n      PUSH [tag] 1328\t\t\t\n      JUMPI \t\t\t\n      PUSH 2\t\t\t\n      DUP2 \t\t\t\n      EQ \t\t\t\n      PUSH [tag] 1329\t\t\t\n      JUMPI \t\t\t\n      PUSH [tag] 1327\t\t\t\n      JUMP \t\t\t\n    tag 1328\t\t\t\n      JUMPDEST \t\t\t\n      PUSH 1\t\t\t\n      SWAP2 \t\t\t\n      POP \t\t\t\n      POP \t\t\t\n      PUSH [tag] 317\t\t\t\n      JUMP \t\t\t\n    tag 1329\t\t\t\n      JUMPDEST \t\t\t\n      PUSH FF\t\t\t\n      DUP5 \t\t\t\n      GT \t\t\t\n      ISZERO \t\t\t\n      PUSH [tag] 1331\t\t\t\n      JUMPI \t\t\t\n      PUSH [tag] 1331\t\t\t\n      PUSH [tag] 1024\t\t\t\n      JUMP \t\t\t\n    tag 1331\t\t\t\n      JUMPDEST \t\t\t\n      POP \t\t\t\n      POP \t\t\t\n      PUSH 1\t\t\t\n      DUP3 \t\t\t\n      SHL \t\t\t\n      PUSH [tag] 317\t\t\t\n      JUMP \t\t\t\n    tag 1327\t\t\t\n      JUMPDEST \t\t\t\n      POP \t\t\t\n      PUSH 20\t\t\t\n      DUP4 \t\t\t\n      LT \t\t\t\n      PUSH 133\t\t\t\n      DUP4 \t\t\t\n      LT \t\t\t\n      AND \t\t\t\n      PUSH 4E\t\t\t\n      DUP5 \t\t\t\n      LT \t\t\t\n      PUSH B\t\t\t\n      DUP5 \t\t\t\n      LT \t\t\t\n      AND \t\t\t\n      OR \t\t\t\n      ISZERO \t\t\t\n      PUSH [tag] 1332\t\t\t\n      JUMPI \t\t\t\n      POP \t\t\t\n      DUP2 \t\t\t\n      DUP2 \t\t\t\n      EXP \t\t\t\n      PUSH [tag] 317\t\t\t\n      JUMP \t\t\t\n    tag 1332\t\t\t\n      JUMPDEST \t\t\t\n      PUSH [tag] 1333\t\t\t\n      DUP4 \t\t\t\n      DUP4 \t\t\t\n      PUSH [tag] 1027\t\t\t\n      JUMP \t\t\t\n    tag 1333\t\t\t\n      JUMPDEST \t\t\t\n      DUP1 \t\t\t\n      PUSH 0\t\t\t\n      NOT \t\t\t\n      DIV \t\t\t\n      DUP3 \t\t\t\n      GT \t\t\t\n      ISZERO \t\t\t\n      PUSH [tag] 1335\t\t\t\n      JUMPI \t\t\t\n      PUSH [tag] 1335\t\t\t\n      PUSH [tag] 1024\t\t\t\n      JUMP \t\t\t\n    tag 1335\t\t\t\n      JUMPDEST \t\t\t\n      MUL \t\t\t\n      SWAP4 \t\t\t\n      SWAP3 \t\t\t\n      POP \t\t\t\n      POP \t\t\t\n      POP \t\t\t\n      JUMP \t\t\t\n    tag 972\t\t\t\n      JUMPDEST \t\t\t\n      PUSH 0\t\t\t\n      PUSH [tag] 544\t\t\t\n      PUSH FF\t\t\t\n      DUP5 \t\t\t\n      AND \t\t\t\n      DUP4 \t\t\t\n      PUSH [tag] 1028\t\t\t\n      JUMP \t\t\t\n    .data\n"
}