{
  "compilerInput": "{\"language\":\"Solidity\",\"sources\":{\"TokenContract.sol\":{\"content\":\"// SPDX-License-Identifier: MIT\\npragma solidity ^0.8.20;\\n\\nimport \\\"@openzeppelin/contracts@5.0.1/token/ERC20/ERC20.sol\\\";\\nimport \\\"@openzeppelin/contracts@5.0.1/token/ERC20/extensions/ERC20Permit.sol\\\";\\nimport \\\"@openzeppelin/contracts@5.0.1/token/ERC20/extensions/ERC20Votes.sol\\\";\\n\\ncontract TokenContract is ERC20, ERC20Permit, ERC20Votes {\\n    constructor(string memory name, string memory symbol, uint256 maxSupply) ERC20(name, symbol) ERC20Permit(name) {\\n        _mint(msg.sender, maxSupply);\\n    }\\n\\n    // The following functions are overrides required by Solidity.\\n\\n    function _update(address from, address to, uint256 value)\\n        internal\\n        override(ERC20, ERC20Votes)\\n    {\\n        super._update(from, to, value);\\n    }\\n\\n    function nonces(address owner)\\n        public\\n        view\\n        override(ERC20Permit, Nonces)\\n        returns (uint256)\\n    {\\n        return super.nonces(owner);\\n    }\\n}\\n\\n\"},\"@openzeppelin/contracts@5.0.1/token/ERC20/extensions/ERC20Votes.sol\":{\"content\":\"// SPDX-License-Identifier: MIT\\n// OpenZeppelin Contracts (last updated v5.0.0) (token/ERC20/extensions/ERC20Votes.sol)\\n\\npragma solidity ^0.8.20;\\n\\nimport {ERC20} from \\\"../ERC20.sol\\\";\\nimport {Votes} from \\\"../../../governance/utils/Votes.sol\\\";\\nimport {Checkpoints} from \\\"../../../utils/structs/Checkpoints.sol\\\";\\n\\n/**\\n * @dev Extension of ERC20 to support Compound-like voting and delegation. This version is more generic than Compound's,\\n * and supports token supply up to 2^208^ - 1, while COMP is limited to 2^96^ - 1.\\n *\\n * NOTE: This contract does not provide interface compatibility with Compound's COMP token.\\n *\\n * This extension keeps a history (checkpoints) of each account's vote power. Vote power can be delegated either\\n * by calling the {delegate} function directly, or by providing a signature to be used with {delegateBySig}. Voting\\n * power can be queried through the public accessors {getVotes} and {getPastVotes}.\\n *\\n * By default, token balance does not account for voting power. This makes transfers cheaper. The downside is that it\\n * requires users to delegate to themselves in order to activate checkpoints and have their voting power tracked.\\n */\\nabstract contract ERC20Votes is ERC20, Votes {\\n    /**\\n     * @dev Total supply cap has been exceeded, introducing a risk of votes overflowing.\\n     */\\n    error ERC20ExceededSafeSupply(uint256 increasedSupply, uint256 cap);\\n\\n    /**\\n     * @dev Maximum token supply. Defaults to `type(uint208).max` (2^208^ - 1).\\n     *\\n     * This maximum is enforced in {_update}. It limits the total supply of the token, which is otherwise a uint256,\\n     * so that checkpoints can be stored in the Trace208 structure used by {{Votes}}. Increasing this value will not\\n     * remove the underlying limitation, and will cause {_update} to fail because of a math overflow in\\n     * {_transferVotingUnits}. An override could be used to further restrict the total supply (to a lower value) if\\n     * additional logic requires it. When resolving override conflicts on this function, the minimum should be\\n     * returned.\\n     */\\n    function _maxSupply() internal view virtual returns (uint256) {\\n        return type(uint208).max;\\n    }\\n\\n    /**\\n     * @dev Move voting power when tokens are transferred.\\n     *\\n     * Emits a {IVotes-DelegateVotesChanged} event.\\n     */\\n    function _update(address from, address to, uint256 value) internal virtual override {\\n        super._update(from, to, value);\\n        if (from == address(0)) {\\n            uint256 supply = totalSupply();\\n            uint256 cap = _maxSupply();\\n            if (supply > cap) {\\n                revert ERC20ExceededSafeSupply(supply, cap);\\n            }\\n        }\\n        _transferVotingUnits(from, to, value);\\n    }\\n\\n    /**\\n     * @dev Returns the voting units of an `account`.\\n     *\\n     * WARNING: Overriding this function may compromise the internal vote accounting.\\n     * `ERC20Votes` assumes tokens map to voting units 1:1 and this is not easy to change.\\n     */\\n    function _getVotingUnits(address account) internal view virtual override returns (uint256) {\\n        return balanceOf(account);\\n    }\\n\\n    /**\\n     * @dev Get number of checkpoints for `account`.\\n     */\\n    function numCheckpoints(address account) public view virtual returns (uint32) {\\n        return _numCheckpoints(account);\\n    }\\n\\n    /**\\n     * @dev Get the `pos`-th checkpoint for `account`.\\n     */\\n    function checkpoints(address account, uint32 pos) public view virtual returns (Checkpoints.Checkpoint208 memory) {\\n        return _checkpoints(account, pos);\\n    }\\n}\\n\"},\"@openzeppelin/contracts@5.0.1/token/ERC20/extensions/ERC20Permit.sol\":{\"content\":\"// SPDX-License-Identifier: MIT\\n// OpenZeppelin Contracts (last updated v5.0.0) (token/ERC20/extensions/ERC20Permit.sol)\\n\\npragma solidity ^0.8.20;\\n\\nimport {IERC20Permit} from \\\"./IERC20Permit.sol\\\";\\nimport {ERC20} from \\\"../ERC20.sol\\\";\\nimport {ECDSA} from \\\"../../../utils/cryptography/ECDSA.sol\\\";\\nimport {EIP712} from \\\"../../../utils/cryptography/EIP712.sol\\\";\\nimport {Nonces} from \\\"../../../utils/Nonces.sol\\\";\\n\\n/**\\n * @dev Implementation of the ERC20 Permit extension allowing approvals to be made via signatures, as defined in\\n * https://eips.ethereum.org/EIPS/eip-2612[EIP-2612].\\n *\\n * Adds the {permit} method, which can be used to change an account's ERC20 allowance (see {IERC20-allowance}) by\\n * presenting a message signed by the account. By not relying on `{IERC20-approve}`, the token holder account doesn't\\n * need to send a transaction, and thus is not required to hold Ether at all.\\n */\\nabstract contract ERC20Permit is ERC20, IERC20Permit, EIP712, Nonces {\\n    bytes32 private constant PERMIT_TYPEHASH =\\n        keccak256(\\\"Permit(address owner,address spender,uint256 value,uint256 nonce,uint256 deadline)\\\");\\n\\n    /**\\n     * @dev Permit deadline has expired.\\n     */\\n    error ERC2612ExpiredSignature(uint256 deadline);\\n\\n    /**\\n     * @dev Mismatched signature.\\n     */\\n    error ERC2612InvalidSigner(address signer, address owner);\\n\\n    /**\\n     * @dev Initializes the {EIP712} domain separator using the `name` parameter, and setting `version` to `\\\"1\\\"`.\\n     *\\n     * It's a good idea to use the same `name` that is defined as the ERC20 token name.\\n     */\\n    constructor(string memory name) EIP712(name, \\\"1\\\") {}\\n\\n    /**\\n     * @inheritdoc IERC20Permit\\n     */\\n    function permit(\\n        address owner,\\n        address spender,\\n        uint256 value,\\n        uint256 deadline,\\n        uint8 v,\\n        bytes32 r,\\n        bytes32 s\\n    ) public virtual {\\n        if (block.timestamp > deadline) {\\n            revert ERC2612ExpiredSignature(deadline);\\n        }\\n\\n        bytes32 structHash = keccak256(abi.encode(PERMIT_TYPEHASH, owner, spender, value, _useNonce(owner), deadline));\\n\\n        bytes32 hash = _hashTypedDataV4(structHash);\\n\\n        address signer = ECDSA.recover(hash, v, r, s);\\n        if (signer != owner) {\\n            revert ERC2612InvalidSigner(signer, owner);\\n        }\\n\\n        _approve(owner, spender, value);\\n    }\\n\\n    /**\\n     * @inheritdoc IERC20Permit\\n     */\\n    function nonces(address owner) public view virtual override(IERC20Permit, Nonces) returns (uint256) {\\n        return super.nonces(owner);\\n    }\\n\\n    /**\\n     * @inheritdoc IERC20Permit\\n     */\\n    // solhint-disable-next-line func-name-mixedcase\\n    function DOMAIN_SEPARATOR() external view virtual returns (bytes32) {\\n        return _domainSeparatorV4();\\n    }\\n}\\n\"},\"@openzeppelin/contracts@5.0.1/token/ERC20/ERC20.sol\":{\"content\":\"// SPDX-License-Identifier: MIT\\n// OpenZeppelin Contracts (last updated v5.0.0) (token/ERC20/ERC20.sol)\\n\\npragma solidity ^0.8.20;\\n\\nimport {IERC20} from \\\"./IERC20.sol\\\";\\nimport {IERC20Metadata} from \\\"./extensions/IERC20Metadata.sol\\\";\\nimport {Context} from \\\"../../utils/Context.sol\\\";\\nimport {IERC20Errors} from \\\"../../interfaces/draft-IERC6093.sol\\\";\\n\\n/**\\n * @dev Implementation of the {IERC20} interface.\\n *\\n * This implementation is agnostic to the way tokens are created. This means\\n * that a supply mechanism has to be added in a derived contract using {_mint}.\\n *\\n * TIP: For a detailed writeup see our guide\\n * https://forum.openzeppelin.com/t/how-to-implement-erc20-supply-mechanisms/226[How\\n * to implement supply mechanisms].\\n *\\n * The default value of {decimals} is 18. To change this, you should override\\n * this function so it returns a different value.\\n *\\n * We have followed general OpenZeppelin Contracts guidelines: functions revert\\n * instead returning `false` on failure. This behavior is nonetheless\\n * conventional and does not conflict with the expectations of ERC20\\n * applications.\\n *\\n * Additionally, an {Approval} event is emitted on calls to {transferFrom}.\\n * This allows applications to reconstruct the allowance for all accounts just\\n * by listening to said events. Other implementations of the EIP may not emit\\n * these events, as it isn't required by the specification.\\n */\\nabstract contract ERC20 is Context, IERC20, IERC20Metadata, IERC20Errors {\\n    mapping(address account => uint256) private _balances;\\n\\n    mapping(address account => mapping(address spender => uint256)) private _allowances;\\n\\n    uint256 private _totalSupply;\\n\\n    string private _name;\\n    string private _symbol;\\n\\n    /**\\n     * @dev Sets the values for {name} and {symbol}.\\n     *\\n     * All two of these values are immutable: they can only be set once during\\n     * construction.\\n     */\\n    constructor(string memory name_, string memory symbol_) {\\n        _name = name_;\\n        _symbol = symbol_;\\n    }\\n\\n    /**\\n     * @dev Returns the name of the token.\\n     */\\n    function name() public view virtual returns (string memory) {\\n        return _name;\\n    }\\n\\n    /**\\n     * @dev Returns the symbol of the token, usually a shorter version of the\\n     * name.\\n     */\\n    function symbol() public view virtual returns (string memory) {\\n        return _symbol;\\n    }\\n\\n    /**\\n     * @dev Returns the number of decimals used to get its user representation.\\n     * For example, if `decimals` equals `2`, a balance of `505` tokens should\\n     * be displayed to a user as `5.05` (`505 / 10 ** 2`).\\n     *\\n     * Tokens usually opt for a value of 18, imitating the relationship between\\n     * Ether and Wei. This is the default value returned by this function, unless\\n     * it's overridden.\\n     *\\n     * NOTE: This information is only used for _display_ purposes: it in\\n     * no way affects any of the arithmetic of the contract, including\\n     * {IERC20-balanceOf} and {IERC20-transfer}.\\n     */\\n    function decimals() public view virtual returns (uint8) {\\n        return 18;\\n    }\\n\\n    /**\\n     * @dev See {IERC20-totalSupply}.\\n     */\\n    function totalSupply() public view virtual returns (uint256) {\\n        return _totalSupply;\\n    }\\n\\n    /**\\n     * @dev See {IERC20-balanceOf}.\\n     */\\n    function balanceOf(address account) public view virtual returns (uint256) {\\n        return _balances[account];\\n    }\\n\\n    /**\\n     * @dev See {IERC20-transfer}.\\n     *\\n     * Requirements:\\n     *\\n     * - `to` cannot be the zero address.\\n     * - the caller must have a balance of at least `value`.\\n     */\\n    function transfer(address to, uint256 value) public virtual returns (bool) {\\n        address owner = _msgSender();\\n        _transfer(owner, to, value);\\n        return true;\\n    }\\n\\n    /**\\n     * @dev See {IERC20-allowance}.\\n     */\\n    function allowance(address owner, address spender) public view virtual returns (uint256) {\\n        return _allowances[owner][spender];\\n    }\\n\\n    /**\\n     * @dev See {IERC20-approve}.\\n     *\\n     * NOTE: If `value` is the maximum `uint256`, the allowance is not updated on\\n     * `transferFrom`. This is semantically equivalent to an infinite approval.\\n     *\\n     * Requirements:\\n     *\\n     * - `spender` cannot be the zero address.\\n     */\\n    function approve(address spender, uint256 value) public virtual returns (bool) {\\n        address owner = _msgSender();\\n        _approve(owner, spender, value);\\n        return true;\\n    }\\n\\n    /**\\n     * @dev See {IERC20-transferFrom}.\\n     *\\n     * Emits an {Approval} event indicating the updated allowance. This is not\\n     * required by the EIP. See the note at the beginning of {ERC20}.\\n     *\\n     * NOTE: Does not update the allowance if the current allowance\\n     * is the maximum `uint256`.\\n     *\\n     * Requirements:\\n     *\\n     * - `from` and `to` cannot be the zero address.\\n     * - `from` must have a balance of at least `value`.\\n     * - the caller must have allowance for ``from``'s tokens of at least\\n     * `value`.\\n     */\\n    function transferFrom(address from, address to, uint256 value) public virtual returns (bool) {\\n        address spender = _msgSender();\\n        _spendAllowance(from, spender, value);\\n        _transfer(from, to, value);\\n        return true;\\n    }\\n\\n    /**\\n     * @dev Moves a `value` amount of tokens from `from` to `to`.\\n     *\\n     * This internal function is equivalent to {transfer}, and can be used to\\n     * e.g. implement automatic token fees, slashing mechanisms, etc.\\n     *\\n     * Emits a {Transfer} event.\\n     *\\n     * NOTE: This function is not virtual, {_update} should be overridden instead.\\n     */\\n    function _transfer(address from, address to, uint256 value) internal {\\n        if (from == address(0)) {\\n            revert ERC20InvalidSender(address(0));\\n        }\\n        if (to == address(0)) {\\n            revert ERC20InvalidReceiver(address(0));\\n        }\\n        _update(from, to, value);\\n    }\\n\\n    /**\\n     * @dev Transfers a `value` amount of tokens from `from` to `to`, or alternatively mints (or burns) if `from`\\n     * (or `to`) is the zero address. All customizations to transfers, mints, and burns should be done by overriding\\n     * this function.\\n     *\\n     * Emits a {Transfer} event.\\n     */\\n    function _update(address from, address to, uint256 value) internal virtual {\\n        if (from == address(0)) {\\n            // Overflow check required: The rest of the code assumes that totalSupply never overflows\\n            _totalSupply += value;\\n        } else {\\n            uint256 fromBalance = _balances[from];\\n            if (fromBalance < value) {\\n                revert ERC20InsufficientBalance(from, fromBalance, value);\\n            }\\n            unchecked {\\n                // Overflow not possible: value <= fromBalance <= totalSupply.\\n                _balances[from] = fromBalance - value;\\n            }\\n        }\\n\\n        if (to == address(0)) {\\n            unchecked {\\n                // Overflow not possible: value <= totalSupply or value <= fromBalance <= totalSupply.\\n                _totalSupply -= value;\\n            }\\n        } else {\\n            unchecked {\\n                // Overflow not possible: balance + value is at most totalSupply, which we know fits into a uint256.\\n                _balances[to] += value;\\n            }\\n        }\\n\\n        emit Transfer(from, to, value);\\n    }\\n\\n    /**\\n     * @dev Creates a `value` amount of tokens and assigns them to `account`, by transferring it from address(0).\\n     * Relies on the `_update` mechanism\\n     *\\n     * Emits a {Transfer} event with `from` set to the zero address.\\n     *\\n     * NOTE: This function is not virtual, {_update} should be overridden instead.\\n     */\\n    function _mint(address account, uint256 value) internal {\\n        if (account == address(0)) {\\n            revert ERC20InvalidReceiver(address(0));\\n        }\\n        _update(address(0), account, value);\\n    }\\n\\n    /**\\n     * @dev Destroys a `value` amount of tokens from `account`, lowering the total supply.\\n     * Relies on the `_update` mechanism.\\n     *\\n     * Emits a {Transfer} event with `to` set to the zero address.\\n     *\\n     * NOTE: This function is not virtual, {_update} should be overridden instead\\n     */\\n    function _burn(address account, uint256 value) internal {\\n        if (account == address(0)) {\\n            revert ERC20InvalidSender(address(0));\\n        }\\n        _update(account, address(0), value);\\n    }\\n\\n    /**\\n     * @dev Sets `value` as the allowance of `spender` over the `owner` s tokens.\\n     *\\n     * This internal function is equivalent to `approve`, and can be used to\\n     * e.g. set automatic allowances for certain subsystems, etc.\\n     *\\n     * Emits an {Approval} event.\\n     *\\n     * Requirements:\\n     *\\n     * - `owner` cannot be the zero address.\\n     * - `spender` cannot be the zero address.\\n     *\\n     * Overrides to this logic should be done to the variant with an additional `bool emitEvent` argument.\\n     */\\n    function _approve(address owner, address spender, uint256 value) internal {\\n        _approve(owner, spender, value, true);\\n    }\\n\\n    /**\\n     * @dev Variant of {_approve} with an optional flag to enable or disable the {Approval} event.\\n     *\\n     * By default (when calling {_approve}) the flag is set to true. On the other hand, approval changes made by\\n     * `_spendAllowance` during the `transferFrom` operation set the flag to false. This saves gas by not emitting any\\n     * `Approval` event during `transferFrom` operations.\\n     *\\n     * Anyone who wishes to continue emitting `Approval` events on the`transferFrom` operation can force the flag to\\n     * true using the following override:\\n     * ```\\n     * function _approve(address owner, address spender, uint256 value, bool) internal virtual override {\\n     *     super._approve(owner, spender, value, true);\\n     * }\\n     * ```\\n     *\\n     * Requirements are the same as {_approve}.\\n     */\\n    function _approve(address owner, address spender, uint256 value, bool emitEvent) internal virtual {\\n        if (owner == address(0)) {\\n            revert ERC20InvalidApprover(address(0));\\n        }\\n        if (spender == address(0)) {\\n            revert ERC20InvalidSpender(address(0));\\n        }\\n        _allowances[owner][spender] = value;\\n        if (emitEvent) {\\n            emit Approval(owner, spender, value);\\n        }\\n    }\\n\\n    /**\\n     * @dev Updates `owner` s allowance for `spender` based on spent `value`.\\n     *\\n     * Does not update the allowance value in case of infinite allowance.\\n     * Revert if not enough allowance is available.\\n     *\\n     * Does not emit an {Approval} event.\\n     */\\n    function _spendAllowance(address owner, address spender, uint256 value) internal virtual {\\n        uint256 currentAllowance = allowance(owner, spender);\\n        if (currentAllowance != type(uint256).max) {\\n            if (currentAllowance < value) {\\n                revert ERC20InsufficientAllowance(spender, currentAllowance, value);\\n            }\\n            unchecked {\\n                _approve(owner, spender, currentAllowance - value, false);\\n            }\\n        }\\n    }\\n}\\n\"},\"@openzeppelin/contracts@5.0.1/utils/structs/Checkpoints.sol\":{\"content\":\"// SPDX-License-Identifier: MIT\\n// OpenZeppelin Contracts (last updated v5.0.0) (utils/structs/Checkpoints.sol)\\n// This file was procedurally generated from scripts/generate/templates/Checkpoints.js.\\n\\npragma solidity ^0.8.20;\\n\\nimport {Math} from \\\"../math/Math.sol\\\";\\n\\n/**\\n * @dev This library defines the `Trace*` struct, for checkpointing values as they change at different points in\\n * time, and later looking up past values by block number. See {Votes} as an example.\\n *\\n * To create a history of checkpoints define a variable type `Checkpoints.Trace*` in your contract, and store a new\\n * checkpoint for the current transaction block using the {push} function.\\n */\\nlibrary Checkpoints {\\n    /**\\n     * @dev A value was attempted to be inserted on a past checkpoint.\\n     */\\n    error CheckpointUnorderedInsertion();\\n\\n    struct Trace224 {\\n        Checkpoint224[] _checkpoints;\\n    }\\n\\n    struct Checkpoint224 {\\n        uint32 _key;\\n        uint224 _value;\\n    }\\n\\n    /**\\n     * @dev Pushes a (`key`, `value`) pair into a Trace224 so that it is stored as the checkpoint.\\n     *\\n     * Returns previous value and new value.\\n     *\\n     * IMPORTANT: Never accept `key` as a user input, since an arbitrary `type(uint32).max` key set will disable the\\n     * library.\\n     */\\n    function push(Trace224 storage self, uint32 key, uint224 value) internal returns (uint224, uint224) {\\n        return _insert(self._checkpoints, key, value);\\n    }\\n\\n    /**\\n     * @dev Returns the value in the first (oldest) checkpoint with key greater or equal than the search key, or zero if\\n     * there is none.\\n     */\\n    function lowerLookup(Trace224 storage self, uint32 key) internal view returns (uint224) {\\n        uint256 len = self._checkpoints.length;\\n        uint256 pos = _lowerBinaryLookup(self._checkpoints, key, 0, len);\\n        return pos == len ? 0 : _unsafeAccess(self._checkpoints, pos)._value;\\n    }\\n\\n    /**\\n     * @dev Returns the value in the last (most recent) checkpoint with key lower or equal than the search key, or zero\\n     * if there is none.\\n     */\\n    function upperLookup(Trace224 storage self, uint32 key) internal view returns (uint224) {\\n        uint256 len = self._checkpoints.length;\\n        uint256 pos = _upperBinaryLookup(self._checkpoints, key, 0, len);\\n        return pos == 0 ? 0 : _unsafeAccess(self._checkpoints, pos - 1)._value;\\n    }\\n\\n    /**\\n     * @dev Returns the value in the last (most recent) checkpoint with key lower or equal than the search key, or zero\\n     * if there is none.\\n     *\\n     * NOTE: This is a variant of {upperLookup} that is optimised to find \\\"recent\\\" checkpoint (checkpoints with high\\n     * keys).\\n     */\\n    function upperLookupRecent(Trace224 storage self, uint32 key) internal view returns (uint224) {\\n        uint256 len = self._checkpoints.length;\\n\\n        uint256 low = 0;\\n        uint256 high = len;\\n\\n        if (len > 5) {\\n            uint256 mid = len - Math.sqrt(len);\\n            if (key < _unsafeAccess(self._checkpoints, mid)._key) {\\n                high = mid;\\n            } else {\\n                low = mid + 1;\\n            }\\n        }\\n\\n        uint256 pos = _upperBinaryLookup(self._checkpoints, key, low, high);\\n\\n        return pos == 0 ? 0 : _unsafeAccess(self._checkpoints, pos - 1)._value;\\n    }\\n\\n    /**\\n     * @dev Returns the value in the most recent checkpoint, or zero if there are no checkpoints.\\n     */\\n    function latest(Trace224 storage self) internal view returns (uint224) {\\n        uint256 pos = self._checkpoints.length;\\n        return pos == 0 ? 0 : _unsafeAccess(self._checkpoints, pos - 1)._value;\\n    }\\n\\n    /**\\n     * @dev Returns whether there is a checkpoint in the structure (i.e. it is not empty), and if so the key and value\\n     * in the most recent checkpoint.\\n     */\\n    function latestCheckpoint(Trace224 storage self) internal view returns (bool exists, uint32 _key, uint224 _value) {\\n        uint256 pos = self._checkpoints.length;\\n        if (pos == 0) {\\n            return (false, 0, 0);\\n        } else {\\n            Checkpoint224 memory ckpt = _unsafeAccess(self._checkpoints, pos - 1);\\n            return (true, ckpt._key, ckpt._value);\\n        }\\n    }\\n\\n    /**\\n     * @dev Returns the number of checkpoint.\\n     */\\n    function length(Trace224 storage self) internal view returns (uint256) {\\n        return self._checkpoints.length;\\n    }\\n\\n    /**\\n     * @dev Returns checkpoint at given position.\\n     */\\n    function at(Trace224 storage self, uint32 pos) internal view returns (Checkpoint224 memory) {\\n        return self._checkpoints[pos];\\n    }\\n\\n    /**\\n     * @dev Pushes a (`key`, `value`) pair into an ordered list of checkpoints, either by inserting a new checkpoint,\\n     * or by updating the last one.\\n     */\\n    function _insert(Checkpoint224[] storage self, uint32 key, uint224 value) private returns (uint224, uint224) {\\n        uint256 pos = self.length;\\n\\n        if (pos > 0) {\\n            // Copying to memory is important here.\\n            Checkpoint224 memory last = _unsafeAccess(self, pos - 1);\\n\\n            // Checkpoint keys must be non-decreasing.\\n            if (last._key > key) {\\n                revert CheckpointUnorderedInsertion();\\n            }\\n\\n            // Update or push new checkpoint\\n            if (last._key == key) {\\n                _unsafeAccess(self, pos - 1)._value = value;\\n            } else {\\n                self.push(Checkpoint224({_key: key, _value: value}));\\n            }\\n            return (last._value, value);\\n        } else {\\n            self.push(Checkpoint224({_key: key, _value: value}));\\n            return (0, value);\\n        }\\n    }\\n\\n    /**\\n     * @dev Return the index of the last (most recent) checkpoint with key lower or equal than the search key, or `high`\\n     * if there is none. `low` and `high` define a section where to do the search, with inclusive `low` and exclusive\\n     * `high`.\\n     *\\n     * WARNING: `high` should not be greater than the array's length.\\n     */\\n    function _upperBinaryLookup(\\n        Checkpoint224[] storage self,\\n        uint32 key,\\n        uint256 low,\\n        uint256 high\\n    ) private view returns (uint256) {\\n        while (low < high) {\\n            uint256 mid = Math.average(low, high);\\n            if (_unsafeAccess(self, mid)._key > key) {\\n                high = mid;\\n            } else {\\n                low = mid + 1;\\n            }\\n        }\\n        return high;\\n    }\\n\\n    /**\\n     * @dev Return the index of the first (oldest) checkpoint with key is greater or equal than the search key, or\\n     * `high` if there is none. `low` and `high` define a section where to do the search, with inclusive `low` and\\n     * exclusive `high`.\\n     *\\n     * WARNING: `high` should not be greater than the array's length.\\n     */\\n    function _lowerBinaryLookup(\\n        Checkpoint224[] storage self,\\n        uint32 key,\\n        uint256 low,\\n        uint256 high\\n    ) private view returns (uint256) {\\n        while (low < high) {\\n            uint256 mid = Math.average(low, high);\\n            if (_unsafeAccess(self, mid)._key < key) {\\n                low = mid + 1;\\n            } else {\\n                high = mid;\\n            }\\n        }\\n        return high;\\n    }\\n\\n    /**\\n     * @dev Access an element of the array without performing bounds check. The position is assumed to be within bounds.\\n     */\\n    function _unsafeAccess(\\n        Checkpoint224[] storage self,\\n        uint256 pos\\n    ) private pure returns (Checkpoint224 storage result) {\\n        assembly {\\n            mstore(0, self.slot)\\n            result.slot := add(keccak256(0, 0x20), pos)\\n        }\\n    }\\n\\n    struct Trace208 {\\n        Checkpoint208[] _checkpoints;\\n    }\\n\\n    struct Checkpoint208 {\\n        uint48 _key;\\n        uint208 _value;\\n    }\\n\\n    /**\\n     * @dev Pushes a (`key`, `value`) pair into a Trace208 so that it is stored as the checkpoint.\\n     *\\n     * Returns previous value and new value.\\n     *\\n     * IMPORTANT: Never accept `key` as a user input, since an arbitrary `type(uint48).max` key set will disable the\\n     * library.\\n     */\\n    function push(Trace208 storage self, uint48 key, uint208 value) internal returns (uint208, uint208) {\\n        return _insert(self._checkpoints, key, value);\\n    }\\n\\n    /**\\n     * @dev Returns the value in the first (oldest) checkpoint with key greater or equal than the search key, or zero if\\n     * there is none.\\n     */\\n    function lowerLookup(Trace208 storage self, uint48 key) internal view returns (uint208) {\\n        uint256 len = self._checkpoints.length;\\n        uint256 pos = _lowerBinaryLookup(self._checkpoints, key, 0, len);\\n        return pos == len ? 0 : _unsafeAccess(self._checkpoints, pos)._value;\\n    }\\n\\n    /**\\n     * @dev Returns the value in the last (most recent) checkpoint with key lower or equal than the search key, or zero\\n     * if there is none.\\n     */\\n    function upperLookup(Trace208 storage self, uint48 key) internal view returns (uint208) {\\n        uint256 len = self._checkpoints.length;\\n        uint256 pos = _upperBinaryLookup(self._checkpoints, key, 0, len);\\n        return pos == 0 ? 0 : _unsafeAccess(self._checkpoints, pos - 1)._value;\\n    }\\n\\n    /**\\n     * @dev Returns the value in the last (most recent) checkpoint with key lower or equal than the search key, or zero\\n     * if there is none.\\n     *\\n     * NOTE: This is a variant of {upperLookup} that is optimised to find \\\"recent\\\" checkpoint (checkpoints with high\\n     * keys).\\n     */\\n    function upperLookupRecent(Trace208 storage self, uint48 key) internal view returns (uint208) {\\n        uint256 len = self._checkpoints.length;\\n\\n        uint256 low = 0;\\n        uint256 high = len;\\n\\n        if (len > 5) {\\n            uint256 mid = len - Math.sqrt(len);\\n            if (key < _unsafeAccess(self._checkpoints, mid)._key) {\\n                high = mid;\\n            } else {\\n                low = mid + 1;\\n            }\\n        }\\n\\n        uint256 pos = _upperBinaryLookup(self._checkpoints, key, low, high);\\n\\n        return pos == 0 ? 0 : _unsafeAccess(self._checkpoints, pos - 1)._value;\\n    }\\n\\n    /**\\n     * @dev Returns the value in the most recent checkpoint, or zero if there are no checkpoints.\\n     */\\n    function latest(Trace208 storage self) internal view returns (uint208) {\\n        uint256 pos = self._checkpoints.length;\\n        return pos == 0 ? 0 : _unsafeAccess(self._checkpoints, pos - 1)._value;\\n    }\\n\\n    /**\\n     * @dev Returns whether there is a checkpoint in the structure (i.e. it is not empty), and if so the key and value\\n     * in the most recent checkpoint.\\n     */\\n    function latestCheckpoint(Trace208 storage self) internal view returns (bool exists, uint48 _key, uint208 _value) {\\n        uint256 pos = self._checkpoints.length;\\n        if (pos == 0) {\\n            return (false, 0, 0);\\n        } else {\\n            Checkpoint208 memory ckpt = _unsafeAccess(self._checkpoints, pos - 1);\\n            return (true, ckpt._key, ckpt._value);\\n        }\\n    }\\n\\n    /**\\n     * @dev Returns the number of checkpoint.\\n     */\\n    function length(Trace208 storage self) internal view returns (uint256) {\\n        return self._checkpoints.length;\\n    }\\n\\n    /**\\n     * @dev Returns checkpoint at given position.\\n     */\\n    function at(Trace208 storage self, uint32 pos) internal view returns (Checkpoint208 memory) {\\n        return self._checkpoints[pos];\\n    }\\n\\n    /**\\n     * @dev Pushes a (`key`, `value`) pair into an ordered list of checkpoints, either by inserting a new checkpoint,\\n     * or by updating the last one.\\n     */\\n    function _insert(Checkpoint208[] storage self, uint48 key, uint208 value) private returns (uint208, uint208) {\\n        uint256 pos = self.length;\\n\\n        if (pos > 0) {\\n            // Copying to memory is important here.\\n            Checkpoint208 memory last = _unsafeAccess(self, pos - 1);\\n\\n            // Checkpoint keys must be non-decreasing.\\n            if (last._key > key) {\\n                revert CheckpointUnorderedInsertion();\\n            }\\n\\n            // Update or push new checkpoint\\n            if (last._key == key) {\\n                _unsafeAccess(self, pos - 1)._value = value;\\n            } else {\\n                self.push(Checkpoint208({_key: key, _value: value}));\\n            }\\n            return (last._value, value);\\n        } else {\\n            self.push(Checkpoint208({_key: key, _value: value}));\\n            return (0, value);\\n        }\\n    }\\n\\n    /**\\n     * @dev Return the index of the last (most recent) checkpoint with key lower or equal than the search key, or `high`\\n     * if there is none. `low` and `high` define a section where to do the search, with inclusive `low` and exclusive\\n     * `high`.\\n     *\\n     * WARNING: `high` should not be greater than the array's length.\\n     */\\n    function _upperBinaryLookup(\\n        Checkpoint208[] storage self,\\n        uint48 key,\\n        uint256 low,\\n        uint256 high\\n    ) private view returns (uint256) {\\n        while (low < high) {\\n            uint256 mid = Math.average(low, high);\\n            if (_unsafeAccess(self, mid)._key > key) {\\n                high = mid;\\n            } else {\\n                low = mid + 1;\\n            }\\n        }\\n        return high;\\n    }\\n\\n    /**\\n     * @dev Return the index of the first (oldest) checkpoint with key is greater or equal than the search key, or\\n     * `high` if there is none. `low` and `high` define a section where to do the search, with inclusive `low` and\\n     * exclusive `high`.\\n     *\\n     * WARNING: `high` should not be greater than the array's length.\\n     */\\n    function _lowerBinaryLookup(\\n        Checkpoint208[] storage self,\\n        uint48 key,\\n        uint256 low,\\n        uint256 high\\n    ) private view returns (uint256) {\\n        while (low < high) {\\n            uint256 mid = Math.average(low, high);\\n            if (_unsafeAccess(self, mid)._key < key) {\\n                low = mid + 1;\\n            } else {\\n                high = mid;\\n            }\\n        }\\n        return high;\\n    }\\n\\n    /**\\n     * @dev Access an element of the array without performing bounds check. The position is assumed to be within bounds.\\n     */\\n    function _unsafeAccess(\\n        Checkpoint208[] storage self,\\n        uint256 pos\\n    ) private pure returns (Checkpoint208 storage result) {\\n        assembly {\\n            mstore(0, self.slot)\\n            result.slot := add(keccak256(0, 0x20), pos)\\n        }\\n    }\\n\\n    struct Trace160 {\\n        Checkpoint160[] _checkpoints;\\n    }\\n\\n    struct Checkpoint160 {\\n        uint96 _key;\\n        uint160 _value;\\n    }\\n\\n    /**\\n     * @dev Pushes a (`key`, `value`) pair into a Trace160 so that it is stored as the checkpoint.\\n     *\\n     * Returns previous value and new value.\\n     *\\n     * IMPORTANT: Never accept `key` as a user input, since an arbitrary `type(uint96).max` key set will disable the\\n     * library.\\n     */\\n    function push(Trace160 storage self, uint96 key, uint160 value) internal returns (uint160, uint160) {\\n        return _insert(self._checkpoints, key, value);\\n    }\\n\\n    /**\\n     * @dev Returns the value in the first (oldest) checkpoint with key greater or equal than the search key, or zero if\\n     * there is none.\\n     */\\n    function lowerLookup(Trace160 storage self, uint96 key) internal view returns (uint160) {\\n        uint256 len = self._checkpoints.length;\\n        uint256 pos = _lowerBinaryLookup(self._checkpoints, key, 0, len);\\n        return pos == len ? 0 : _unsafeAccess(self._checkpoints, pos)._value;\\n    }\\n\\n    /**\\n     * @dev Returns the value in the last (most recent) checkpoint with key lower or equal than the search key, or zero\\n     * if there is none.\\n     */\\n    function upperLookup(Trace160 storage self, uint96 key) internal view returns (uint160) {\\n        uint256 len = self._checkpoints.length;\\n        uint256 pos = _upperBinaryLookup(self._checkpoints, key, 0, len);\\n        return pos == 0 ? 0 : _unsafeAccess(self._checkpoints, pos - 1)._value;\\n    }\\n\\n    /**\\n     * @dev Returns the value in the last (most recent) checkpoint with key lower or equal than the search key, or zero\\n     * if there is none.\\n     *\\n     * NOTE: This is a variant of {upperLookup} that is optimised to find \\\"recent\\\" checkpoint (checkpoints with high\\n     * keys).\\n     */\\n    function upperLookupRecent(Trace160 storage self, uint96 key) internal view returns (uint160) {\\n        uint256 len = self._checkpoints.length;\\n\\n        uint256 low = 0;\\n        uint256 high = len;\\n\\n        if (len > 5) {\\n            uint256 mid = len - Math.sqrt(len);\\n            if (key < _unsafeAccess(self._checkpoints, mid)._key) {\\n                high = mid;\\n            } else {\\n                low = mid + 1;\\n            }\\n        }\\n\\n        uint256 pos = _upperBinaryLookup(self._checkpoints, key, low, high);\\n\\n        return pos == 0 ? 0 : _unsafeAccess(self._checkpoints, pos - 1)._value;\\n    }\\n\\n    /**\\n     * @dev Returns the value in the most recent checkpoint, or zero if there are no checkpoints.\\n     */\\n    function latest(Trace160 storage self) internal view returns (uint160) {\\n        uint256 pos = self._checkpoints.length;\\n        return pos == 0 ? 0 : _unsafeAccess(self._checkpoints, pos - 1)._value;\\n    }\\n\\n    /**\\n     * @dev Returns whether there is a checkpoint in the structure (i.e. it is not empty), and if so the key and value\\n     * in the most recent checkpoint.\\n     */\\n    function latestCheckpoint(Trace160 storage self) internal view returns (bool exists, uint96 _key, uint160 _value) {\\n        uint256 pos = self._checkpoints.length;\\n        if (pos == 0) {\\n            return (false, 0, 0);\\n        } else {\\n            Checkpoint160 memory ckpt = _unsafeAccess(self._checkpoints, pos - 1);\\n            return (true, ckpt._key, ckpt._value);\\n        }\\n    }\\n\\n    /**\\n     * @dev Returns the number of checkpoint.\\n     */\\n    function length(Trace160 storage self) internal view returns (uint256) {\\n        return self._checkpoints.length;\\n    }\\n\\n    /**\\n     * @dev Returns checkpoint at given position.\\n     */\\n    function at(Trace160 storage self, uint32 pos) internal view returns (Checkpoint160 memory) {\\n        return self._checkpoints[pos];\\n    }\\n\\n    /**\\n     * @dev Pushes a (`key`, `value`) pair into an ordered list of checkpoints, either by inserting a new checkpoint,\\n     * or by updating the last one.\\n     */\\n    function _insert(Checkpoint160[] storage self, uint96 key, uint160 value) private returns (uint160, uint160) {\\n        uint256 pos = self.length;\\n\\n        if (pos > 0) {\\n            // Copying to memory is important here.\\n            Checkpoint160 memory last = _unsafeAccess(self, pos - 1);\\n\\n            // Checkpoint keys must be non-decreasing.\\n            if (last._key > key) {\\n                revert CheckpointUnorderedInsertion();\\n            }\\n\\n            // Update or push new checkpoint\\n            if (last._key == key) {\\n                _unsafeAccess(self, pos - 1)._value = value;\\n            } else {\\n                self.push(Checkpoint160({_key: key, _value: value}));\\n            }\\n            return (last._value, value);\\n        } else {\\n            self.push(Checkpoint160({_key: key, _value: value}));\\n            return (0, value);\\n        }\\n    }\\n\\n    /**\\n     * @dev Return the index of the last (most recent) checkpoint with key lower or equal than the search key, or `high`\\n     * if there is none. `low` and `high` define a section where to do the search, with inclusive `low` and exclusive\\n     * `high`.\\n     *\\n     * WARNING: `high` should not be greater than the array's length.\\n     */\\n    function _upperBinaryLookup(\\n        Checkpoint160[] storage self,\\n        uint96 key,\\n        uint256 low,\\n        uint256 high\\n    ) private view returns (uint256) {\\n        while (low < high) {\\n            uint256 mid = Math.average(low, high);\\n            if (_unsafeAccess(self, mid)._key > key) {\\n                high = mid;\\n            } else {\\n                low = mid + 1;\\n            }\\n        }\\n        return high;\\n    }\\n\\n    /**\\n     * @dev Return the index of the first (oldest) checkpoint with key is greater or equal than the search key, or\\n     * `high` if there is none. `low` and `high` define a section where to do the search, with inclusive `low` and\\n     * exclusive `high`.\\n     *\\n     * WARNING: `high` should not be greater than the array's length.\\n     */\\n    function _lowerBinaryLookup(\\n        Checkpoint160[] storage self,\\n        uint96 key,\\n        uint256 low,\\n        uint256 high\\n    ) private view returns (uint256) {\\n        while (low < high) {\\n            uint256 mid = Math.average(low, high);\\n            if (_unsafeAccess(self, mid)._key < key) {\\n                low = mid + 1;\\n            } else {\\n                high = mid;\\n            }\\n        }\\n        return high;\\n    }\\n\\n    /**\\n     * @dev Access an element of the array without performing bounds check. The position is assumed to be within bounds.\\n     */\\n    function _unsafeAccess(\\n        Checkpoint160[] storage self,\\n        uint256 pos\\n    ) private pure returns (Checkpoint160 storage result) {\\n        assembly {\\n            mstore(0, self.slot)\\n            result.slot := add(keccak256(0, 0x20), pos)\\n        }\\n    }\\n}\\n\"},\"@openzeppelin/contracts@5.0.1/governance/utils/Votes.sol\":{\"content\":\"// SPDX-License-Identifier: MIT\\n// OpenZeppelin Contracts (last updated v5.0.0) (governance/utils/Votes.sol)\\npragma solidity ^0.8.20;\\n\\nimport {IERC5805} from \\\"../../interfaces/IERC5805.sol\\\";\\nimport {Context} from \\\"../../utils/Context.sol\\\";\\nimport {Nonces} from \\\"../../utils/Nonces.sol\\\";\\nimport {EIP712} from \\\"../../utils/cryptography/EIP712.sol\\\";\\nimport {Checkpoints} from \\\"../../utils/structs/Checkpoints.sol\\\";\\nimport {SafeCast} from \\\"../../utils/math/SafeCast.sol\\\";\\nimport {ECDSA} from \\\"../../utils/cryptography/ECDSA.sol\\\";\\nimport {Time} from \\\"../../utils/types/Time.sol\\\";\\n\\n/**\\n * @dev This is a base abstract contract that tracks voting units, which are a measure of voting power that can be\\n * transferred, and provides a system of vote delegation, where an account can delegate its voting units to a sort of\\n * \\\"representative\\\" that will pool delegated voting units from different accounts and can then use it to vote in\\n * decisions. In fact, voting units _must_ be delegated in order to count as actual votes, and an account has to\\n * delegate those votes to itself if it wishes to participate in decisions and does not have a trusted representative.\\n *\\n * This contract is often combined with a token contract such that voting units correspond to token units. For an\\n * example, see {ERC721Votes}.\\n *\\n * The full history of delegate votes is tracked on-chain so that governance protocols can consider votes as distributed\\n * at a particular block number to protect against flash loans and double voting. The opt-in delegate system makes the\\n * cost of this history tracking optional.\\n *\\n * When using this module the derived contract must implement {_getVotingUnits} (for example, make it return\\n * {ERC721-balanceOf}), and can use {_transferVotingUnits} to track a change in the distribution of those units (in the\\n * previous example, it would be included in {ERC721-_update}).\\n */\\nabstract contract Votes is Context, EIP712, Nonces, IERC5805 {\\n    using Checkpoints for Checkpoints.Trace208;\\n\\n    bytes32 private constant DELEGATION_TYPEHASH =\\n        keccak256(\\\"Delegation(address delegatee,uint256 nonce,uint256 expiry)\\\");\\n\\n    mapping(address account => address) private _delegatee;\\n\\n    mapping(address delegatee => Checkpoints.Trace208) private _delegateCheckpoints;\\n\\n    Checkpoints.Trace208 private _totalCheckpoints;\\n\\n    /**\\n     * @dev The clock was incorrectly modified.\\n     */\\n    error ERC6372InconsistentClock();\\n\\n    /**\\n     * @dev Lookup to future votes is not available.\\n     */\\n    error ERC5805FutureLookup(uint256 timepoint, uint48 clock);\\n\\n    /**\\n     * @dev Clock used for flagging checkpoints. Can be overridden to implement timestamp based\\n     * checkpoints (and voting), in which case {CLOCK_MODE} should be overridden as well to match.\\n     */\\n    function clock() public view virtual returns (uint48) {\\n        return Time.blockNumber();\\n    }\\n\\n    /**\\n     * @dev Machine-readable description of the clock as specified in EIP-6372.\\n     */\\n    // solhint-disable-next-line func-name-mixedcase\\n    function CLOCK_MODE() public view virtual returns (string memory) {\\n        // Check that the clock was not modified\\n        if (clock() != Time.blockNumber()) {\\n            revert ERC6372InconsistentClock();\\n        }\\n        return \\\"mode=blocknumber&from=default\\\";\\n    }\\n\\n    /**\\n     * @dev Returns the current amount of votes that `account` has.\\n     */\\n    function getVotes(address account) public view virtual returns (uint256) {\\n        return _delegateCheckpoints[account].latest();\\n    }\\n\\n    /**\\n     * @dev Returns the amount of votes that `account` had at a specific moment in the past. If the `clock()` is\\n     * configured to use block numbers, this will return the value at the end of the corresponding block.\\n     *\\n     * Requirements:\\n     *\\n     * - `timepoint` must be in the past. If operating using block numbers, the block must be already mined.\\n     */\\n    function getPastVotes(address account, uint256 timepoint) public view virtual returns (uint256) {\\n        uint48 currentTimepoint = clock();\\n        if (timepoint >= currentTimepoint) {\\n            revert ERC5805FutureLookup(timepoint, currentTimepoint);\\n        }\\n        return _delegateCheckpoints[account].upperLookupRecent(SafeCast.toUint48(timepoint));\\n    }\\n\\n    /**\\n     * @dev Returns the total supply of votes available at a specific moment in the past. If the `clock()` is\\n     * configured to use block numbers, this will return the value at the end of the corresponding block.\\n     *\\n     * NOTE: This value is the sum of all available votes, which is not necessarily the sum of all delegated votes.\\n     * Votes that have not been delegated are still part of total supply, even though they would not participate in a\\n     * vote.\\n     *\\n     * Requirements:\\n     *\\n     * - `timepoint` must be in the past. If operating using block numbers, the block must be already mined.\\n     */\\n    function getPastTotalSupply(uint256 timepoint) public view virtual returns (uint256) {\\n        uint48 currentTimepoint = clock();\\n        if (timepoint >= currentTimepoint) {\\n            revert ERC5805FutureLookup(timepoint, currentTimepoint);\\n        }\\n        return _totalCheckpoints.upperLookupRecent(SafeCast.toUint48(timepoint));\\n    }\\n\\n    /**\\n     * @dev Returns the current total supply of votes.\\n     */\\n    function _getTotalSupply() internal view virtual returns (uint256) {\\n        return _totalCheckpoints.latest();\\n    }\\n\\n    /**\\n     * @dev Returns the delegate that `account` has chosen.\\n     */\\n    function delegates(address account) public view virtual returns (address) {\\n        return _delegatee[account];\\n    }\\n\\n    /**\\n     * @dev Delegates votes from the sender to `delegatee`.\\n     */\\n    function delegate(address delegatee) public virtual {\\n        address account = _msgSender();\\n        _delegate(account, delegatee);\\n    }\\n\\n    /**\\n     * @dev Delegates votes from signer to `delegatee`.\\n     */\\n    function delegateBySig(\\n        address delegatee,\\n        uint256 nonce,\\n        uint256 expiry,\\n        uint8 v,\\n        bytes32 r,\\n        bytes32 s\\n    ) public virtual {\\n        if (block.timestamp > expiry) {\\n            revert VotesExpiredSignature(expiry);\\n        }\\n        address signer = ECDSA.recover(\\n            _hashTypedDataV4(keccak256(abi.encode(DELEGATION_TYPEHASH, delegatee, nonce, expiry))),\\n            v,\\n            r,\\n            s\\n        );\\n        _useCheckedNonce(signer, nonce);\\n        _delegate(signer, delegatee);\\n    }\\n\\n    /**\\n     * @dev Delegate all of `account`'s voting units to `delegatee`.\\n     *\\n     * Emits events {IVotes-DelegateChanged} and {IVotes-DelegateVotesChanged}.\\n     */\\n    function _delegate(address account, address delegatee) internal virtual {\\n        address oldDelegate = delegates(account);\\n        _delegatee[account] = delegatee;\\n\\n        emit DelegateChanged(account, oldDelegate, delegatee);\\n        _moveDelegateVotes(oldDelegate, delegatee, _getVotingUnits(account));\\n    }\\n\\n    /**\\n     * @dev Transfers, mints, or burns voting units. To register a mint, `from` should be zero. To register a burn, `to`\\n     * should be zero. Total supply of voting units will be adjusted with mints and burns.\\n     */\\n    function _transferVotingUnits(address from, address to, uint256 amount) internal virtual {\\n        if (from == address(0)) {\\n            _push(_totalCheckpoints, _add, SafeCast.toUint208(amount));\\n        }\\n        if (to == address(0)) {\\n            _push(_totalCheckpoints, _subtract, SafeCast.toUint208(amount));\\n        }\\n        _moveDelegateVotes(delegates(from), delegates(to), amount);\\n    }\\n\\n    /**\\n     * @dev Moves delegated votes from one delegate to another.\\n     */\\n    function _moveDelegateVotes(address from, address to, uint256 amount) private {\\n        if (from != to && amount > 0) {\\n            if (from != address(0)) {\\n                (uint256 oldValue, uint256 newValue) = _push(\\n                    _delegateCheckpoints[from],\\n                    _subtract,\\n                    SafeCast.toUint208(amount)\\n                );\\n                emit DelegateVotesChanged(from, oldValue, newValue);\\n            }\\n            if (to != address(0)) {\\n                (uint256 oldValue, uint256 newValue) = _push(\\n                    _delegateCheckpoints[to],\\n                    _add,\\n                    SafeCast.toUint208(amount)\\n                );\\n                emit DelegateVotesChanged(to, oldValue, newValue);\\n            }\\n        }\\n    }\\n\\n    /**\\n     * @dev Get number of checkpoints for `account`.\\n     */\\n    function _numCheckpoints(address account) internal view virtual returns (uint32) {\\n        return SafeCast.toUint32(_delegateCheckpoints[account].length());\\n    }\\n\\n    /**\\n     * @dev Get the `pos`-th checkpoint for `account`.\\n     */\\n    function _checkpoints(\\n        address account,\\n        uint32 pos\\n    ) internal view virtual returns (Checkpoints.Checkpoint208 memory) {\\n        return _delegateCheckpoints[account].at(pos);\\n    }\\n\\n    function _push(\\n        Checkpoints.Trace208 storage store,\\n        function(uint208, uint208) view returns (uint208) op,\\n        uint208 delta\\n    ) private returns (uint208, uint208) {\\n        return store.push(clock(), op(store.latest(), delta));\\n    }\\n\\n    function _add(uint208 a, uint208 b) private pure returns (uint208) {\\n        return a + b;\\n    }\\n\\n    function _subtract(uint208 a, uint208 b) private pure returns (uint208) {\\n        return a - b;\\n    }\\n\\n    /**\\n     * @dev Must return the voting units held by an account.\\n     */\\n    function _getVotingUnits(address) internal view virtual returns (uint256);\\n}\\n\"},\"@openzeppelin/contracts@5.0.1/utils/Nonces.sol\":{\"content\":\"// SPDX-License-Identifier: MIT\\n// OpenZeppelin Contracts (last updated v5.0.0) (utils/Nonces.sol)\\npragma solidity ^0.8.20;\\n\\n/**\\n * @dev Provides tracking nonces for addresses. Nonces will only increment.\\n */\\nabstract contract Nonces {\\n    /**\\n     * @dev The nonce used for an `account` is not the expected current nonce.\\n     */\\n    error InvalidAccountNonce(address account, uint256 currentNonce);\\n\\n    mapping(address account => uint256) private _nonces;\\n\\n    /**\\n     * @dev Returns the next unused nonce for an address.\\n     */\\n    function nonces(address owner) public view virtual returns (uint256) {\\n        return _nonces[owner];\\n    }\\n\\n    /**\\n     * @dev Consumes a nonce.\\n     *\\n     * Returns the current value and increments nonce.\\n     */\\n    function _useNonce(address owner) internal virtual returns (uint256) {\\n        // For each account, the nonce has an initial value of 0, can only be incremented by one, and cannot be\\n        // decremented or reset. This guarantees that the nonce never overflows.\\n        unchecked {\\n            // It is important to do x++ and not ++x here.\\n            return _nonces[owner]++;\\n        }\\n    }\\n\\n    /**\\n     * @dev Same as {_useNonce} but checking that `nonce` is the next valid for `owner`.\\n     */\\n    function _useCheckedNonce(address owner, uint256 nonce) internal virtual {\\n        uint256 current = _useNonce(owner);\\n        if (nonce != current) {\\n            revert InvalidAccountNonce(owner, current);\\n        }\\n    }\\n}\\n\"},\"@openzeppelin/contracts@5.0.1/utils/cryptography/EIP712.sol\":{\"content\":\"// SPDX-License-Identifier: MIT\\n// OpenZeppelin Contracts (last updated v5.0.0) (utils/cryptography/EIP712.sol)\\n\\npragma solidity ^0.8.20;\\n\\nimport {MessageHashUtils} from \\\"./MessageHashUtils.sol\\\";\\nimport {ShortStrings, ShortString} from \\\"../ShortStrings.sol\\\";\\nimport {IERC5267} from \\\"../../interfaces/IERC5267.sol\\\";\\n\\n/**\\n * @dev https://eips.ethereum.org/EIPS/eip-712[EIP 712] is a standard for hashing and signing of typed structured data.\\n *\\n * The encoding scheme specified in the EIP requires a domain separator and a hash of the typed structured data, whose\\n * encoding is very generic and therefore its implementation in Solidity is not feasible, thus this contract\\n * does not implement the encoding itself. Protocols need to implement the type-specific encoding they need in order to\\n * produce the hash of their typed data using a combination of `abi.encode` and `keccak256`.\\n *\\n * This contract implements the EIP 712 domain separator ({_domainSeparatorV4}) that is used as part of the encoding\\n * scheme, and the final step of the encoding to obtain the message digest that is then signed via ECDSA\\n * ({_hashTypedDataV4}).\\n *\\n * The implementation of the domain separator was designed to be as efficient as possible while still properly updating\\n * the chain id to protect against replay attacks on an eventual fork of the chain.\\n *\\n * NOTE: This contract implements the version of the encoding known as \\\"v4\\\", as implemented by the JSON RPC method\\n * https://docs.metamask.io/guide/signing-data.html[`eth_signTypedDataV4` in MetaMask].\\n *\\n * NOTE: In the upgradeable version of this contract, the cached values will correspond to the address, and the domain\\n * separator of the implementation contract. This will cause the {_domainSeparatorV4} function to always rebuild the\\n * separator from the immutable values, which is cheaper than accessing a cached version in cold storage.\\n *\\n * @custom:oz-upgrades-unsafe-allow state-variable-immutable\\n */\\nabstract contract EIP712 is IERC5267 {\\n    using ShortStrings for *;\\n\\n    bytes32 private constant TYPE_HASH =\\n        keccak256(\\\"EIP712Domain(string name,string version,uint256 chainId,address verifyingContract)\\\");\\n\\n    // Cache the domain separator as an immutable value, but also store the chain id that it corresponds to, in order to\\n    // invalidate the cached domain separator if the chain id changes.\\n    bytes32 private immutable _cachedDomainSeparator;\\n    uint256 private immutable _cachedChainId;\\n    address private immutable _cachedThis;\\n\\n    bytes32 private immutable _hashedName;\\n    bytes32 private immutable _hashedVersion;\\n\\n    ShortString private immutable _name;\\n    ShortString private immutable _version;\\n    string private _nameFallback;\\n    string private _versionFallback;\\n\\n    /**\\n     * @dev Initializes the domain separator and parameter caches.\\n     *\\n     * The meaning of `name` and `version` is specified in\\n     * https://eips.ethereum.org/EIPS/eip-712#definition-of-domainseparator[EIP 712]:\\n     *\\n     * - `name`: the user readable name of the signing domain, i.e. the name of the DApp or the protocol.\\n     * - `version`: the current major version of the signing domain.\\n     *\\n     * NOTE: These parameters cannot be changed except through a xref:learn::upgrading-smart-contracts.adoc[smart\\n     * contract upgrade].\\n     */\\n    constructor(string memory name, string memory version) {\\n        _name = name.toShortStringWithFallback(_nameFallback);\\n        _version = version.toShortStringWithFallback(_versionFallback);\\n        _hashedName = keccak256(bytes(name));\\n        _hashedVersion = keccak256(bytes(version));\\n\\n        _cachedChainId = block.chainid;\\n        _cachedDomainSeparator = _buildDomainSeparator();\\n        _cachedThis = address(this);\\n    }\\n\\n    /**\\n     * @dev Returns the domain separator for the current chain.\\n     */\\n    function _domainSeparatorV4() internal view returns (bytes32) {\\n        if (address(this) == _cachedThis && block.chainid == _cachedChainId) {\\n            return _cachedDomainSeparator;\\n        } else {\\n            return _buildDomainSeparator();\\n        }\\n    }\\n\\n    function _buildDomainSeparator() private view returns (bytes32) {\\n        return keccak256(abi.encode(TYPE_HASH, _hashedName, _hashedVersion, block.chainid, address(this)));\\n    }\\n\\n    /**\\n     * @dev Given an already https://eips.ethereum.org/EIPS/eip-712#definition-of-hashstruct[hashed struct], this\\n     * function returns the hash of the fully encoded EIP712 message for this domain.\\n     *\\n     * This hash can be used together with {ECDSA-recover} to obtain the signer of a message. For example:\\n     *\\n     * ```solidity\\n     * bytes32 digest = _hashTypedDataV4(keccak256(abi.encode(\\n     *     keccak256(\\\"Mail(address to,string contents)\\\"),\\n     *     mailTo,\\n     *     keccak256(bytes(mailContents))\\n     * )));\\n     * address signer = ECDSA.recover(digest, signature);\\n     * ```\\n     */\\n    function _hashTypedDataV4(bytes32 structHash) internal view virtual returns (bytes32) {\\n        return MessageHashUtils.toTypedDataHash(_domainSeparatorV4(), structHash);\\n    }\\n\\n    /**\\n     * @dev See {IERC-5267}.\\n     */\\n    function eip712Domain()\\n        public\\n        view\\n        virtual\\n        returns (\\n            bytes1 fields,\\n            string memory name,\\n            string memory version,\\n            uint256 chainId,\\n            address verifyingContract,\\n            bytes32 salt,\\n            uint256[] memory extensions\\n        )\\n    {\\n        return (\\n            hex\\\"0f\\\", // 01111\\n            _EIP712Name(),\\n            _EIP712Version(),\\n            block.chainid,\\n            address(this),\\n            bytes32(0),\\n            new uint256[](0)\\n        );\\n    }\\n\\n    /**\\n     * @dev The name parameter for the EIP712 domain.\\n     *\\n     * NOTE: By default this function reads _name which is an immutable value.\\n     * It only reads from storage if necessary (in case the value is too large to fit in a ShortString).\\n     */\\n    // solhint-disable-next-line func-name-mixedcase\\n    function _EIP712Name() internal view returns (string memory) {\\n        return _name.toStringWithFallback(_nameFallback);\\n    }\\n\\n    /**\\n     * @dev The version parameter for the EIP712 domain.\\n     *\\n     * NOTE: By default this function reads _version which is an immutable value.\\n     * It only reads from storage if necessary (in case the value is too large to fit in a ShortString).\\n     */\\n    // solhint-disable-next-line func-name-mixedcase\\n    function _EIP712Version() internal view returns (string memory) {\\n        return _version.toStringWithFallback(_versionFallback);\\n    }\\n}\\n\"},\"@openzeppelin/contracts@5.0.1/utils/cryptography/ECDSA.sol\":{\"content\":\"// SPDX-License-Identifier: MIT\\n// OpenZeppelin Contracts (last updated v5.0.0) (utils/cryptography/ECDSA.sol)\\n\\npragma solidity ^0.8.20;\\n\\n/**\\n * @dev Elliptic Curve Digital Signature Algorithm (ECDSA) operations.\\n *\\n * These functions can be used to verify that a message was signed by the holder\\n * of the private keys of a given address.\\n */\\nlibrary ECDSA {\\n    enum RecoverError {\\n        NoError,\\n        InvalidSignature,\\n        InvalidSignatureLength,\\n        InvalidSignatureS\\n    }\\n\\n    /**\\n     * @dev The signature derives the `address(0)`.\\n     */\\n    error ECDSAInvalidSignature();\\n\\n    /**\\n     * @dev The signature has an invalid length.\\n     */\\n    error ECDSAInvalidSignatureLength(uint256 length);\\n\\n    /**\\n     * @dev The signature has an S value that is in the upper half order.\\n     */\\n    error ECDSAInvalidSignatureS(bytes32 s);\\n\\n    /**\\n     * @dev Returns the address that signed a hashed message (`hash`) with `signature` or an error. This will not\\n     * return address(0) without also returning an error description. Errors are documented using an enum (error type)\\n     * and a bytes32 providing additional information about the error.\\n     *\\n     * If no error is returned, then the address can be used for verification purposes.\\n     *\\n     * The `ecrecover` EVM precompile allows for malleable (non-unique) signatures:\\n     * this function rejects them by requiring the `s` value to be in the lower\\n     * half order, and the `v` value to be either 27 or 28.\\n     *\\n     * IMPORTANT: `hash` _must_ be the result of a hash operation for the\\n     * verification to be secure: it is possible to craft signatures that\\n     * recover to arbitrary addresses for non-hashed data. A safe way to ensure\\n     * this is by receiving a hash of the original message (which may otherwise\\n     * be too long), and then calling {MessageHashUtils-toEthSignedMessageHash} on it.\\n     *\\n     * Documentation for signature generation:\\n     * - with https://web3js.readthedocs.io/en/v1.3.4/web3-eth-accounts.html#sign[Web3.js]\\n     * - with https://docs.ethers.io/v5/api/signer/#Signer-signMessage[ethers]\\n     */\\n    function tryRecover(bytes32 hash, bytes memory signature) internal pure returns (address, RecoverError, bytes32) {\\n        if (signature.length == 65) {\\n            bytes32 r;\\n            bytes32 s;\\n            uint8 v;\\n            // ecrecover takes the signature parameters, and the only way to get them\\n            // currently is to use assembly.\\n            /// @solidity memory-safe-assembly\\n            assembly {\\n                r := mload(add(signature, 0x20))\\n                s := mload(add(signature, 0x40))\\n                v := byte(0, mload(add(signature, 0x60)))\\n            }\\n            return tryRecover(hash, v, r, s);\\n        } else {\\n            return (address(0), RecoverError.InvalidSignatureLength, bytes32(signature.length));\\n        }\\n    }\\n\\n    /**\\n     * @dev Returns the address that signed a hashed message (`hash`) with\\n     * `signature`. This address can then be used for verification purposes.\\n     *\\n     * The `ecrecover` EVM precompile allows for malleable (non-unique) signatures:\\n     * this function rejects them by requiring the `s` value to be in the lower\\n     * half order, and the `v` value to be either 27 or 28.\\n     *\\n     * IMPORTANT: `hash` _must_ be the result of a hash operation for the\\n     * verification to be secure: it is possible to craft signatures that\\n     * recover to arbitrary addresses for non-hashed data. A safe way to ensure\\n     * this is by receiving a hash of the original message (which may otherwise\\n     * be too long), and then calling {MessageHashUtils-toEthSignedMessageHash} on it.\\n     */\\n    function recover(bytes32 hash, bytes memory signature) internal pure returns (address) {\\n        (address recovered, RecoverError error, bytes32 errorArg) = tryRecover(hash, signature);\\n        _throwError(error, errorArg);\\n        return recovered;\\n    }\\n\\n    /**\\n     * @dev Overload of {ECDSA-tryRecover} that receives the `r` and `vs` short-signature fields separately.\\n     *\\n     * See https://eips.ethereum.org/EIPS/eip-2098[EIP-2098 short signatures]\\n     */\\n    function tryRecover(bytes32 hash, bytes32 r, bytes32 vs) internal pure returns (address, RecoverError, bytes32) {\\n        unchecked {\\n            bytes32 s = vs & bytes32(0x7fffffffffffffffffffffffffffffffffffffffffffffffffffffffffffffff);\\n            // We do not check for an overflow here since the shift operation results in 0 or 1.\\n            uint8 v = uint8((uint256(vs) >> 255) + 27);\\n            return tryRecover(hash, v, r, s);\\n        }\\n    }\\n\\n    /**\\n     * @dev Overload of {ECDSA-recover} that receives the `r and `vs` short-signature fields separately.\\n     */\\n    function recover(bytes32 hash, bytes32 r, bytes32 vs) internal pure returns (address) {\\n        (address recovered, RecoverError error, bytes32 errorArg) = tryRecover(hash, r, vs);\\n        _throwError(error, errorArg);\\n        return recovered;\\n    }\\n\\n    /**\\n     * @dev Overload of {ECDSA-tryRecover} that receives the `v`,\\n     * `r` and `s` signature fields separately.\\n     */\\n    function tryRecover(\\n        bytes32 hash,\\n        uint8 v,\\n        bytes32 r,\\n        bytes32 s\\n    ) internal pure returns (address, RecoverError, bytes32) {\\n        // EIP-2 still allows signature malleability for ecrecover(). Remove this possibility and make the signature\\n        // unique. Appendix F in the Ethereum Yellow paper (https://ethereum.github.io/yellowpaper/paper.pdf), defines\\n        // the valid range for s in (301): 0 < s < secp256k1n  2 + 1, and for v in (302): v  {27, 28}. Most\\n        // signatures from current libraries generate a unique signature with an s-value in the lower half order.\\n        //\\n        // If your library generates malleable signatures, such as s-values in the upper range, calculate a new s-value\\n        // with 0xFFFFFFFFFFFFFFFFFFFFFFFFFFFFFFFEBAAEDCE6AF48A03BBFD25E8CD0364141 - s1 and flip v from 27 to 28 or\\n        // vice versa. If your library also generates signatures with 0/1 for v instead 27/28, add 27 to v to accept\\n        // these malleable signatures as well.\\n        if (uint256(s) > 0x7FFFFFFFFFFFFFFFFFFFFFFFFFFFFFFF5D576E7357A4501DDFE92F46681B20A0) {\\n            return (address(0), RecoverError.InvalidSignatureS, s);\\n        }\\n\\n        // If the signature is valid (and not malleable), return the signer address\\n        address signer = ecrecover(hash, v, r, s);\\n        if (signer == address(0)) {\\n            return (address(0), RecoverError.InvalidSignature, bytes32(0));\\n        }\\n\\n        return (signer, RecoverError.NoError, bytes32(0));\\n    }\\n\\n    /**\\n     * @dev Overload of {ECDSA-recover} that receives the `v`,\\n     * `r` and `s` signature fields separately.\\n     */\\n    function recover(bytes32 hash, uint8 v, bytes32 r, bytes32 s) internal pure returns (address) {\\n        (address recovered, RecoverError error, bytes32 errorArg) = tryRecover(hash, v, r, s);\\n        _throwError(error, errorArg);\\n        return recovered;\\n    }\\n\\n    /**\\n     * @dev Optionally reverts with the corresponding custom error according to the `error` argument provided.\\n     */\\n    function _throwError(RecoverError error, bytes32 errorArg) private pure {\\n        if (error == RecoverError.NoError) {\\n            return; // no error: do nothing\\n        } else if (error == RecoverError.InvalidSignature) {\\n            revert ECDSAInvalidSignature();\\n        } else if (error == RecoverError.InvalidSignatureLength) {\\n            revert ECDSAInvalidSignatureLength(uint256(errorArg));\\n        } else if (error == RecoverError.InvalidSignatureS) {\\n            revert ECDSAInvalidSignatureS(errorArg);\\n        }\\n    }\\n}\\n\"},\"@openzeppelin/contracts@5.0.1/token/ERC20/extensions/IERC20Permit.sol\":{\"content\":\"// SPDX-License-Identifier: MIT\\n// OpenZeppelin Contracts (last updated v5.0.0) (token/ERC20/extensions/IERC20Permit.sol)\\n\\npragma solidity ^0.8.20;\\n\\n/**\\n * @dev Interface of the ERC20 Permit extension allowing approvals to be made via signatures, as defined in\\n * https://eips.ethereum.org/EIPS/eip-2612[EIP-2612].\\n *\\n * Adds the {permit} method, which can be used to change an account's ERC20 allowance (see {IERC20-allowance}) by\\n * presenting a message signed by the account. By not relying on {IERC20-approve}, the token holder account doesn't\\n * need to send a transaction, and thus is not required to hold Ether at all.\\n *\\n * ==== Security Considerations\\n *\\n * There are two important considerations concerning the use of `permit`. The first is that a valid permit signature\\n * expresses an allowance, and it should not be assumed to convey additional meaning. In particular, it should not be\\n * considered as an intention to spend the allowance in any specific way. The second is that because permits have\\n * built-in replay protection and can be submitted by anyone, they can be frontrun. A protocol that uses permits should\\n * take this into consideration and allow a `permit` call to fail. Combining these two aspects, a pattern that may be\\n * generally recommended is:\\n *\\n * ```solidity\\n * function doThingWithPermit(..., uint256 value, uint256 deadline, uint8 v, bytes32 r, bytes32 s) public {\\n *     try token.permit(msg.sender, address(this), value, deadline, v, r, s) {} catch {}\\n *     doThing(..., value);\\n * }\\n *\\n * function doThing(..., uint256 value) public {\\n *     token.safeTransferFrom(msg.sender, address(this), value);\\n *     ...\\n * }\\n * ```\\n *\\n * Observe that: 1) `msg.sender` is used as the owner, leaving no ambiguity as to the signer intent, and 2) the use of\\n * `try/catch` allows the permit to fail and makes the code tolerant to frontrunning. (See also\\n * {SafeERC20-safeTransferFrom}).\\n *\\n * Additionally, note that smart contract wallets (such as Argent or Safe) are not able to produce permit signatures, so\\n * contracts should have entry points that don't rely on permit.\\n */\\ninterface IERC20Permit {\\n    /**\\n     * @dev Sets `value` as the allowance of `spender` over ``owner``'s tokens,\\n     * given ``owner``'s signed approval.\\n     *\\n     * IMPORTANT: The same issues {IERC20-approve} has related to transaction\\n     * ordering also apply here.\\n     *\\n     * Emits an {Approval} event.\\n     *\\n     * Requirements:\\n     *\\n     * - `spender` cannot be the zero address.\\n     * - `deadline` must be a timestamp in the future.\\n     * - `v`, `r` and `s` must be a valid `secp256k1` signature from `owner`\\n     * over the EIP712-formatted function arguments.\\n     * - the signature must use ``owner``'s current nonce (see {nonces}).\\n     *\\n     * For more information on the signature format, see the\\n     * https://eips.ethereum.org/EIPS/eip-2612#specification[relevant EIP\\n     * section].\\n     *\\n     * CAUTION: See Security Considerations above.\\n     */\\n    function permit(\\n        address owner,\\n        address spender,\\n        uint256 value,\\n        uint256 deadline,\\n        uint8 v,\\n        bytes32 r,\\n        bytes32 s\\n    ) external;\\n\\n    /**\\n     * @dev Returns the current nonce for `owner`. This value must be\\n     * included whenever a signature is generated for {permit}.\\n     *\\n     * Every successful call to {permit} increases ``owner``'s nonce by one. This\\n     * prevents a signature from being used multiple times.\\n     */\\n    function nonces(address owner) external view returns (uint256);\\n\\n    /**\\n     * @dev Returns the domain separator used in the encoding of the signature for {permit}, as defined by {EIP712}.\\n     */\\n    // solhint-disable-next-line func-name-mixedcase\\n    function DOMAIN_SEPARATOR() external view returns (bytes32);\\n}\\n\"},\"@openzeppelin/contracts@5.0.1/interfaces/draft-IERC6093.sol\":{\"content\":\"// SPDX-License-Identifier: MIT\\n// OpenZeppelin Contracts (last updated v5.0.0) (interfaces/draft-IERC6093.sol)\\npragma solidity ^0.8.20;\\n\\n/**\\n * @dev Standard ERC20 Errors\\n * Interface of the https://eips.ethereum.org/EIPS/eip-6093[ERC-6093] custom errors for ERC20 tokens.\\n */\\ninterface IERC20Errors {\\n    /**\\n     * @dev Indicates an error related to the current `balance` of a `sender`. Used in transfers.\\n     * @param sender Address whose tokens are being transferred.\\n     * @param balance Current balance for the interacting account.\\n     * @param needed Minimum amount required to perform a transfer.\\n     */\\n    error ERC20InsufficientBalance(address sender, uint256 balance, uint256 needed);\\n\\n    /**\\n     * @dev Indicates a failure with the token `sender`. Used in transfers.\\n     * @param sender Address whose tokens are being transferred.\\n     */\\n    error ERC20InvalidSender(address sender);\\n\\n    /**\\n     * @dev Indicates a failure with the token `receiver`. Used in transfers.\\n     * @param receiver Address to which tokens are being transferred.\\n     */\\n    error ERC20InvalidReceiver(address receiver);\\n\\n    /**\\n     * @dev Indicates a failure with the `spender`s `allowance`. Used in transfers.\\n     * @param spender Address that may be allowed to operate on tokens without being their owner.\\n     * @param allowance Amount of tokens a `spender` is allowed to operate with.\\n     * @param needed Minimum amount required to perform a transfer.\\n     */\\n    error ERC20InsufficientAllowance(address spender, uint256 allowance, uint256 needed);\\n\\n    /**\\n     * @dev Indicates a failure with the `approver` of a token to be approved. Used in approvals.\\n     * @param approver Address initiating an approval operation.\\n     */\\n    error ERC20InvalidApprover(address approver);\\n\\n    /**\\n     * @dev Indicates a failure with the `spender` to be approved. Used in approvals.\\n     * @param spender Address that may be allowed to operate on tokens without being their owner.\\n     */\\n    error ERC20InvalidSpender(address spender);\\n}\\n\\n/**\\n * @dev Standard ERC721 Errors\\n * Interface of the https://eips.ethereum.org/EIPS/eip-6093[ERC-6093] custom errors for ERC721 tokens.\\n */\\ninterface IERC721Errors {\\n    /**\\n     * @dev Indicates that an address can't be an owner. For example, `address(0)` is a forbidden owner in EIP-20.\\n     * Used in balance queries.\\n     * @param owner Address of the current owner of a token.\\n     */\\n    error ERC721InvalidOwner(address owner);\\n\\n    /**\\n     * @dev Indicates a `tokenId` whose `owner` is the zero address.\\n     * @param tokenId Identifier number of a token.\\n     */\\n    error ERC721NonexistentToken(uint256 tokenId);\\n\\n    /**\\n     * @dev Indicates an error related to the ownership over a particular token. Used in transfers.\\n     * @param sender Address whose tokens are being transferred.\\n     * @param tokenId Identifier number of a token.\\n     * @param owner Address of the current owner of a token.\\n     */\\n    error ERC721IncorrectOwner(address sender, uint256 tokenId, address owner);\\n\\n    /**\\n     * @dev Indicates a failure with the token `sender`. Used in transfers.\\n     * @param sender Address whose tokens are being transferred.\\n     */\\n    error ERC721InvalidSender(address sender);\\n\\n    /**\\n     * @dev Indicates a failure with the token `receiver`. Used in transfers.\\n     * @param receiver Address to which tokens are being transferred.\\n     */\\n    error ERC721InvalidReceiver(address receiver);\\n\\n    /**\\n     * @dev Indicates a failure with the `operator`s approval. Used in transfers.\\n     * @param operator Address that may be allowed to operate on tokens without being their owner.\\n     * @param tokenId Identifier number of a token.\\n     */\\n    error ERC721InsufficientApproval(address operator, uint256 tokenId);\\n\\n    /**\\n     * @dev Indicates a failure with the `approver` of a token to be approved. Used in approvals.\\n     * @param approver Address initiating an approval operation.\\n     */\\n    error ERC721InvalidApprover(address approver);\\n\\n    /**\\n     * @dev Indicates a failure with the `operator` to be approved. Used in approvals.\\n     * @param operator Address that may be allowed to operate on tokens without being their owner.\\n     */\\n    error ERC721InvalidOperator(address operator);\\n}\\n\\n/**\\n * @dev Standard ERC1155 Errors\\n * Interface of the https://eips.ethereum.org/EIPS/eip-6093[ERC-6093] custom errors for ERC1155 tokens.\\n */\\ninterface IERC1155Errors {\\n    /**\\n     * @dev Indicates an error related to the current `balance` of a `sender`. Used in transfers.\\n     * @param sender Address whose tokens are being transferred.\\n     * @param balance Current balance for the interacting account.\\n     * @param needed Minimum amount required to perform a transfer.\\n     * @param tokenId Identifier number of a token.\\n     */\\n    error ERC1155InsufficientBalance(address sender, uint256 balance, uint256 needed, uint256 tokenId);\\n\\n    /**\\n     * @dev Indicates a failure with the token `sender`. Used in transfers.\\n     * @param sender Address whose tokens are being transferred.\\n     */\\n    error ERC1155InvalidSender(address sender);\\n\\n    /**\\n     * @dev Indicates a failure with the token `receiver`. Used in transfers.\\n     * @param receiver Address to which tokens are being transferred.\\n     */\\n    error ERC1155InvalidReceiver(address receiver);\\n\\n    /**\\n     * @dev Indicates a failure with the `operator`s approval. Used in transfers.\\n     * @param operator Address that may be allowed to operate on tokens without being their owner.\\n     * @param owner Address of the current owner of a token.\\n     */\\n    error ERC1155MissingApprovalForAll(address operator, address owner);\\n\\n    /**\\n     * @dev Indicates a failure with the `approver` of a token to be approved. Used in approvals.\\n     * @param approver Address initiating an approval operation.\\n     */\\n    error ERC1155InvalidApprover(address approver);\\n\\n    /**\\n     * @dev Indicates a failure with the `operator` to be approved. Used in approvals.\\n     * @param operator Address that may be allowed to operate on tokens without being their owner.\\n     */\\n    error ERC1155InvalidOperator(address operator);\\n\\n    /**\\n     * @dev Indicates an array length mismatch between ids and values in a safeBatchTransferFrom operation.\\n     * Used in batch transfers.\\n     * @param idsLength Length of the array of token identifiers\\n     * @param valuesLength Length of the array of token amounts\\n     */\\n    error ERC1155InvalidArrayLength(uint256 idsLength, uint256 valuesLength);\\n}\\n\"},\"@openzeppelin/contracts@5.0.1/utils/Context.sol\":{\"content\":\"// SPDX-License-Identifier: MIT\\n// OpenZeppelin Contracts (last updated v5.0.1) (utils/Context.sol)\\n\\npragma solidity ^0.8.20;\\n\\n/**\\n * @dev Provides information about the current execution context, including the\\n * sender of the transaction and its data. While these are generally available\\n * via msg.sender and msg.data, they should not be accessed in such a direct\\n * manner, since when dealing with meta-transactions the account sending and\\n * paying for execution may not be the actual sender (as far as an application\\n * is concerned).\\n *\\n * This contract is only required for intermediate, library-like contracts.\\n */\\nabstract contract Context {\\n    function _msgSender() internal view virtual returns (address) {\\n        return msg.sender;\\n    }\\n\\n    function _msgData() internal view virtual returns (bytes calldata) {\\n        return msg.data;\\n    }\\n\\n    function _contextSuffixLength() internal view virtual returns (uint256) {\\n        return 0;\\n    }\\n}\\n\"},\"@openzeppelin/contracts@5.0.1/token/ERC20/extensions/IERC20Metadata.sol\":{\"content\":\"// SPDX-License-Identifier: MIT\\n// OpenZeppelin Contracts (last updated v5.0.0) (token/ERC20/extensions/IERC20Metadata.sol)\\n\\npragma solidity ^0.8.20;\\n\\nimport {IERC20} from \\\"../IERC20.sol\\\";\\n\\n/**\\n * @dev Interface for the optional metadata functions from the ERC20 standard.\\n */\\ninterface IERC20Metadata is IERC20 {\\n    /**\\n     * @dev Returns the name of the token.\\n     */\\n    function name() external view returns (string memory);\\n\\n    /**\\n     * @dev Returns the symbol of the token.\\n     */\\n    function symbol() external view returns (string memory);\\n\\n    /**\\n     * @dev Returns the decimals places of the token.\\n     */\\n    function decimals() external view returns (uint8);\\n}\\n\"},\"@openzeppelin/contracts@5.0.1/token/ERC20/IERC20.sol\":{\"content\":\"// SPDX-License-Identifier: MIT\\n// OpenZeppelin Contracts (last updated v5.0.0) (token/ERC20/IERC20.sol)\\n\\npragma solidity ^0.8.20;\\n\\n/**\\n * @dev Interface of the ERC20 standard as defined in the EIP.\\n */\\ninterface IERC20 {\\n    /**\\n     * @dev Emitted when `value` tokens are moved from one account (`from`) to\\n     * another (`to`).\\n     *\\n     * Note that `value` may be zero.\\n     */\\n    event Transfer(address indexed from, address indexed to, uint256 value);\\n\\n    /**\\n     * @dev Emitted when the allowance of a `spender` for an `owner` is set by\\n     * a call to {approve}. `value` is the new allowance.\\n     */\\n    event Approval(address indexed owner, address indexed spender, uint256 value);\\n\\n    /**\\n     * @dev Returns the value of tokens in existence.\\n     */\\n    function totalSupply() external view returns (uint256);\\n\\n    /**\\n     * @dev Returns the value of tokens owned by `account`.\\n     */\\n    function balanceOf(address account) external view returns (uint256);\\n\\n    /**\\n     * @dev Moves a `value` amount of tokens from the caller's account to `to`.\\n     *\\n     * Returns a boolean value indicating whether the operation succeeded.\\n     *\\n     * Emits a {Transfer} event.\\n     */\\n    function transfer(address to, uint256 value) external returns (bool);\\n\\n    /**\\n     * @dev Returns the remaining number of tokens that `spender` will be\\n     * allowed to spend on behalf of `owner` through {transferFrom}. This is\\n     * zero by default.\\n     *\\n     * This value changes when {approve} or {transferFrom} are called.\\n     */\\n    function allowance(address owner, address spender) external view returns (uint256);\\n\\n    /**\\n     * @dev Sets a `value` amount of tokens as the allowance of `spender` over the\\n     * caller's tokens.\\n     *\\n     * Returns a boolean value indicating whether the operation succeeded.\\n     *\\n     * IMPORTANT: Beware that changing an allowance with this method brings the risk\\n     * that someone may use both the old and the new allowance by unfortunate\\n     * transaction ordering. One possible solution to mitigate this race\\n     * condition is to first reduce the spender's allowance to 0 and set the\\n     * desired value afterwards:\\n     * https://github.com/ethereum/EIPs/issues/20#issuecomment-263524729\\n     *\\n     * Emits an {Approval} event.\\n     */\\n    function approve(address spender, uint256 value) external returns (bool);\\n\\n    /**\\n     * @dev Moves a `value` amount of tokens from `from` to `to` using the\\n     * allowance mechanism. `value` is then deducted from the caller's\\n     * allowance.\\n     *\\n     * Returns a boolean value indicating whether the operation succeeded.\\n     *\\n     * Emits a {Transfer} event.\\n     */\\n    function transferFrom(address from, address to, uint256 value) external returns (bool);\\n}\\n\"},\"@openzeppelin/contracts@5.0.1/utils/math/Math.sol\":{\"content\":\"// SPDX-License-Identifier: MIT\\n// OpenZeppelin Contracts (last updated v5.0.0) (utils/math/Math.sol)\\n\\npragma solidity ^0.8.20;\\n\\n/**\\n * @dev Standard math utilities missing in the Solidity language.\\n */\\nlibrary Math {\\n    /**\\n     * @dev Muldiv operation overflow.\\n     */\\n    error MathOverflowedMulDiv();\\n\\n    enum Rounding {\\n        Floor, // Toward negative infinity\\n        Ceil, // Toward positive infinity\\n        Trunc, // Toward zero\\n        Expand // Away from zero\\n    }\\n\\n    /**\\n     * @dev Returns the addition of two unsigned integers, with an overflow flag.\\n     */\\n    function tryAdd(uint256 a, uint256 b) internal pure returns (bool, uint256) {\\n        unchecked {\\n            uint256 c = a + b;\\n            if (c < a) return (false, 0);\\n            return (true, c);\\n        }\\n    }\\n\\n    /**\\n     * @dev Returns the subtraction of two unsigned integers, with an overflow flag.\\n     */\\n    function trySub(uint256 a, uint256 b) internal pure returns (bool, uint256) {\\n        unchecked {\\n            if (b > a) return (false, 0);\\n            return (true, a - b);\\n        }\\n    }\\n\\n    /**\\n     * @dev Returns the multiplication of two unsigned integers, with an overflow flag.\\n     */\\n    function tryMul(uint256 a, uint256 b) internal pure returns (bool, uint256) {\\n        unchecked {\\n            // Gas optimization: this is cheaper than requiring 'a' not being zero, but the\\n            // benefit is lost if 'b' is also tested.\\n            // See: https://github.com/OpenZeppelin/openzeppelin-contracts/pull/522\\n            if (a == 0) return (true, 0);\\n            uint256 c = a * b;\\n            if (c / a != b) return (false, 0);\\n            return (true, c);\\n        }\\n    }\\n\\n    /**\\n     * @dev Returns the division of two unsigned integers, with a division by zero flag.\\n     */\\n    function tryDiv(uint256 a, uint256 b) internal pure returns (bool, uint256) {\\n        unchecked {\\n            if (b == 0) return (false, 0);\\n            return (true, a / b);\\n        }\\n    }\\n\\n    /**\\n     * @dev Returns the remainder of dividing two unsigned integers, with a division by zero flag.\\n     */\\n    function tryMod(uint256 a, uint256 b) internal pure returns (bool, uint256) {\\n        unchecked {\\n            if (b == 0) return (false, 0);\\n            return (true, a % b);\\n        }\\n    }\\n\\n    /**\\n     * @dev Returns the largest of two numbers.\\n     */\\n    function max(uint256 a, uint256 b) internal pure returns (uint256) {\\n        return a > b ? a : b;\\n    }\\n\\n    /**\\n     * @dev Returns the smallest of two numbers.\\n     */\\n    function min(uint256 a, uint256 b) internal pure returns (uint256) {\\n        return a < b ? a : b;\\n    }\\n\\n    /**\\n     * @dev Returns the average of two numbers. The result is rounded towards\\n     * zero.\\n     */\\n    function average(uint256 a, uint256 b) internal pure returns (uint256) {\\n        // (a + b) / 2 can overflow.\\n        return (a & b) + (a ^ b) / 2;\\n    }\\n\\n    /**\\n     * @dev Returns the ceiling of the division of two numbers.\\n     *\\n     * This differs from standard division with `/` in that it rounds towards infinity instead\\n     * of rounding towards zero.\\n     */\\n    function ceilDiv(uint256 a, uint256 b) internal pure returns (uint256) {\\n        if (b == 0) {\\n            // Guarantee the same behavior as in a regular Solidity division.\\n            return a / b;\\n        }\\n\\n        // (a + b - 1) / b can overflow on addition, so we distribute.\\n        return a == 0 ? 0 : (a - 1) / b + 1;\\n    }\\n\\n    /**\\n     * @notice Calculates floor(x * y / denominator) with full precision. Throws if result overflows a uint256 or\\n     * denominator == 0.\\n     * @dev Original credit to Remco Bloemen under MIT license (https://xn--2-umb.com/21/muldiv) with further edits by\\n     * Uniswap Labs also under MIT license.\\n     */\\n    function mulDiv(uint256 x, uint256 y, uint256 denominator) internal pure returns (uint256 result) {\\n        unchecked {\\n            // 512-bit multiply [prod1 prod0] = x * y. Compute the product mod 2^256 and mod 2^256 - 1, then use\\n            // use the Chinese Remainder Theorem to reconstruct the 512 bit result. The result is stored in two 256\\n            // variables such that product = prod1 * 2^256 + prod0.\\n            uint256 prod0 = x * y; // Least significant 256 bits of the product\\n            uint256 prod1; // Most significant 256 bits of the product\\n            assembly {\\n                let mm := mulmod(x, y, not(0))\\n                prod1 := sub(sub(mm, prod0), lt(mm, prod0))\\n            }\\n\\n            // Handle non-overflow cases, 256 by 256 division.\\n            if (prod1 == 0) {\\n                // Solidity will revert if denominator == 0, unlike the div opcode on its own.\\n                // The surrounding unchecked block does not change this fact.\\n                // See https://docs.soliditylang.org/en/latest/control-structures.html#checked-or-unchecked-arithmetic.\\n                return prod0 / denominator;\\n            }\\n\\n            // Make sure the result is less than 2^256. Also prevents denominator == 0.\\n            if (denominator <= prod1) {\\n                revert MathOverflowedMulDiv();\\n            }\\n\\n            ///////////////////////////////////////////////\\n            // 512 by 256 division.\\n            ///////////////////////////////////////////////\\n\\n            // Make division exact by subtracting the remainder from [prod1 prod0].\\n            uint256 remainder;\\n            assembly {\\n                // Compute remainder using mulmod.\\n                remainder := mulmod(x, y, denominator)\\n\\n                // Subtract 256 bit number from 512 bit number.\\n                prod1 := sub(prod1, gt(remainder, prod0))\\n                prod0 := sub(prod0, remainder)\\n            }\\n\\n            // Factor powers of two out of denominator and compute largest power of two divisor of denominator.\\n            // Always >= 1. See https://cs.stackexchange.com/q/138556/92363.\\n\\n            uint256 twos = denominator & (0 - denominator);\\n            assembly {\\n                // Divide denominator by twos.\\n                denominator := div(denominator, twos)\\n\\n                // Divide [prod1 prod0] by twos.\\n                prod0 := div(prod0, twos)\\n\\n                // Flip twos such that it is 2^256 / twos. If twos is zero, then it becomes one.\\n                twos := add(div(sub(0, twos), twos), 1)\\n            }\\n\\n            // Shift in bits from prod1 into prod0.\\n            prod0 |= prod1 * twos;\\n\\n            // Invert denominator mod 2^256. Now that denominator is an odd number, it has an inverse modulo 2^256 such\\n            // that denominator * inv = 1 mod 2^256. Compute the inverse by starting with a seed that is correct for\\n            // four bits. That is, denominator * inv = 1 mod 2^4.\\n            uint256 inverse = (3 * denominator) ^ 2;\\n\\n            // Use the Newton-Raphson iteration to improve the precision. Thanks to Hensel's lifting lemma, this also\\n            // works in modular arithmetic, doubling the correct bits in each step.\\n            inverse *= 2 - denominator * inverse; // inverse mod 2^8\\n            inverse *= 2 - denominator * inverse; // inverse mod 2^16\\n            inverse *= 2 - denominator * inverse; // inverse mod 2^32\\n            inverse *= 2 - denominator * inverse; // inverse mod 2^64\\n            inverse *= 2 - denominator * inverse; // inverse mod 2^128\\n            inverse *= 2 - denominator * inverse; // inverse mod 2^256\\n\\n            // Because the division is now exact we can divide by multiplying with the modular inverse of denominator.\\n            // This will give us the correct result modulo 2^256. Since the preconditions guarantee that the outcome is\\n            // less than 2^256, this is the final result. We don't need to compute the high bits of the result and prod1\\n            // is no longer required.\\n            result = prod0 * inverse;\\n            return result;\\n        }\\n    }\\n\\n    /**\\n     * @notice Calculates x * y / denominator with full precision, following the selected rounding direction.\\n     */\\n    function mulDiv(uint256 x, uint256 y, uint256 denominator, Rounding rounding) internal pure returns (uint256) {\\n        uint256 result = mulDiv(x, y, denominator);\\n        if (unsignedRoundsUp(rounding) && mulmod(x, y, denominator) > 0) {\\n            result += 1;\\n        }\\n        return result;\\n    }\\n\\n    /**\\n     * @dev Returns the square root of a number. If the number is not a perfect square, the value is rounded\\n     * towards zero.\\n     *\\n     * Inspired by Henry S. Warren, Jr.'s \\\"Hacker's Delight\\\" (Chapter 11).\\n     */\\n    function sqrt(uint256 a) internal pure returns (uint256) {\\n        if (a == 0) {\\n            return 0;\\n        }\\n\\n        // For our first guess, we get the biggest power of 2 which is smaller than the square root of the target.\\n        //\\n        // We know that the \\\"msb\\\" (most significant bit) of our target number `a` is a power of 2 such that we have\\n        // `msb(a) <= a < 2*msb(a)`. This value can be written `msb(a)=2**k` with `k=log2(a)`.\\n        //\\n        // This can be rewritten `2**log2(a) <= a < 2**(log2(a) + 1)`\\n        //  `sqrt(2**k) <= sqrt(a) < sqrt(2**(k+1))`\\n        //  `2**(k/2) <= sqrt(a) < 2**((k+1)/2) <= 2**(k/2 + 1)`\\n        //\\n        // Consequently, `2**(log2(a) / 2)` is a good first approximation of `sqrt(a)` with at least 1 correct bit.\\n        uint256 result = 1 << (log2(a) >> 1);\\n\\n        // At this point `result` is an estimation with one bit of precision. We know the true value is a uint128,\\n        // since it is the square root of a uint256. Newton's method converges quadratically (precision doubles at\\n        // every iteration). We thus need at most 7 iteration to turn our partial result with one bit of precision\\n        // into the expected uint128 result.\\n        unchecked {\\n            result = (result + a / result) >> 1;\\n            result = (result + a / result) >> 1;\\n            result = (result + a / result) >> 1;\\n            result = (result + a / result) >> 1;\\n            result = (result + a / result) >> 1;\\n            result = (result + a / result) >> 1;\\n            result = (result + a / result) >> 1;\\n            return min(result, a / result);\\n        }\\n    }\\n\\n    /**\\n     * @notice Calculates sqrt(a), following the selected rounding direction.\\n     */\\n    function sqrt(uint256 a, Rounding rounding) internal pure returns (uint256) {\\n        unchecked {\\n            uint256 result = sqrt(a);\\n            return result + (unsignedRoundsUp(rounding) && result * result < a ? 1 : 0);\\n        }\\n    }\\n\\n    /**\\n     * @dev Return the log in base 2 of a positive value rounded towards zero.\\n     * Returns 0 if given 0.\\n     */\\n    function log2(uint256 value) internal pure returns (uint256) {\\n        uint256 result = 0;\\n        unchecked {\\n            if (value >> 128 > 0) {\\n                value >>= 128;\\n                result += 128;\\n            }\\n            if (value >> 64 > 0) {\\n                value >>= 64;\\n                result += 64;\\n            }\\n            if (value >> 32 > 0) {\\n                value >>= 32;\\n                result += 32;\\n            }\\n            if (value >> 16 > 0) {\\n                value >>= 16;\\n                result += 16;\\n            }\\n            if (value >> 8 > 0) {\\n                value >>= 8;\\n                result += 8;\\n            }\\n            if (value >> 4 > 0) {\\n                value >>= 4;\\n                result += 4;\\n            }\\n            if (value >> 2 > 0) {\\n                value >>= 2;\\n                result += 2;\\n            }\\n            if (value >> 1 > 0) {\\n                result += 1;\\n            }\\n        }\\n        return result;\\n    }\\n\\n    /**\\n     * @dev Return the log in base 2, following the selected rounding direction, of a positive value.\\n     * Returns 0 if given 0.\\n     */\\n    function log2(uint256 value, Rounding rounding) internal pure returns (uint256) {\\n        unchecked {\\n            uint256 result = log2(value);\\n            return result + (unsignedRoundsUp(rounding) && 1 << result < value ? 1 : 0);\\n        }\\n    }\\n\\n    /**\\n     * @dev Return the log in base 10 of a positive value rounded towards zero.\\n     * Returns 0 if given 0.\\n     */\\n    function log10(uint256 value) internal pure returns (uint256) {\\n        uint256 result = 0;\\n        unchecked {\\n            if (value >= 10 ** 64) {\\n                value /= 10 ** 64;\\n                result += 64;\\n            }\\n            if (value >= 10 ** 32) {\\n                value /= 10 ** 32;\\n                result += 32;\\n            }\\n            if (value >= 10 ** 16) {\\n                value /= 10 ** 16;\\n                result += 16;\\n            }\\n            if (value >= 10 ** 8) {\\n                value /= 10 ** 8;\\n                result += 8;\\n            }\\n            if (value >= 10 ** 4) {\\n                value /= 10 ** 4;\\n                result += 4;\\n            }\\n            if (value >= 10 ** 2) {\\n                value /= 10 ** 2;\\n                result += 2;\\n            }\\n            if (value >= 10 ** 1) {\\n                result += 1;\\n            }\\n        }\\n        return result;\\n    }\\n\\n    /**\\n     * @dev Return the log in base 10, following the selected rounding direction, of a positive value.\\n     * Returns 0 if given 0.\\n     */\\n    function log10(uint256 value, Rounding rounding) internal pure returns (uint256) {\\n        unchecked {\\n            uint256 result = log10(value);\\n            return result + (unsignedRoundsUp(rounding) && 10 ** result < value ? 1 : 0);\\n        }\\n    }\\n\\n    /**\\n     * @dev Return the log in base 256 of a positive value rounded towards zero.\\n     * Returns 0 if given 0.\\n     *\\n     * Adding one to the result gives the number of pairs of hex symbols needed to represent `value` as a hex string.\\n     */\\n    function log256(uint256 value) internal pure returns (uint256) {\\n        uint256 result = 0;\\n        unchecked {\\n            if (value >> 128 > 0) {\\n                value >>= 128;\\n                result += 16;\\n            }\\n            if (value >> 64 > 0) {\\n                value >>= 64;\\n                result += 8;\\n            }\\n            if (value >> 32 > 0) {\\n                value >>= 32;\\n                result += 4;\\n            }\\n            if (value >> 16 > 0) {\\n                value >>= 16;\\n                result += 2;\\n            }\\n            if (value >> 8 > 0) {\\n                result += 1;\\n            }\\n        }\\n        return result;\\n    }\\n\\n    /**\\n     * @dev Return the log in base 256, following the selected rounding direction, of a positive value.\\n     * Returns 0 if given 0.\\n     */\\n    function log256(uint256 value, Rounding rounding) internal pure returns (uint256) {\\n        unchecked {\\n            uint256 result = log256(value);\\n            return result + (unsignedRoundsUp(rounding) && 1 << (result << 3) < value ? 1 : 0);\\n        }\\n    }\\n\\n    /**\\n     * @dev Returns whether a provided rounding mode is considered rounding up for unsigned integers.\\n     */\\n    function unsignedRoundsUp(Rounding rounding) internal pure returns (bool) {\\n        return uint8(rounding) % 2 == 1;\\n    }\\n}\\n\"},\"@openzeppelin/contracts@5.0.1/interfaces/IERC5267.sol\":{\"content\":\"// SPDX-License-Identifier: MIT\\n// OpenZeppelin Contracts (last updated v5.0.0) (interfaces/IERC5267.sol)\\n\\npragma solidity ^0.8.20;\\n\\ninterface IERC5267 {\\n    /**\\n     * @dev MAY be emitted to signal that the domain could have changed.\\n     */\\n    event EIP712DomainChanged();\\n\\n    /**\\n     * @dev returns the fields and values that describe the domain separator used by this contract for EIP-712\\n     * signature.\\n     */\\n    function eip712Domain()\\n        external\\n        view\\n        returns (\\n            bytes1 fields,\\n            string memory name,\\n            string memory version,\\n            uint256 chainId,\\n            address verifyingContract,\\n            bytes32 salt,\\n            uint256[] memory extensions\\n        );\\n}\\n\"},\"@openzeppelin/contracts@5.0.1/utils/ShortStrings.sol\":{\"content\":\"// SPDX-License-Identifier: MIT\\n// OpenZeppelin Contracts (last updated v5.0.0) (utils/ShortStrings.sol)\\n\\npragma solidity ^0.8.20;\\n\\nimport {StorageSlot} from \\\"./StorageSlot.sol\\\";\\n\\n// | string  | 0xAAAAAAAAAAAAAAAAAAAAAAAAAAAAAAAAAAAAAAAAAAAAAAAAAAAAAAAAAAAAAA   |\\n// | length  | 0x                                                              BB |\\ntype ShortString is bytes32;\\n\\n/**\\n * @dev This library provides functions to convert short memory strings\\n * into a `ShortString` type that can be used as an immutable variable.\\n *\\n * Strings of arbitrary length can be optimized using this library if\\n * they are short enough (up to 31 bytes) by packing them with their\\n * length (1 byte) in a single EVM word (32 bytes). Additionally, a\\n * fallback mechanism can be used for every other case.\\n *\\n * Usage example:\\n *\\n * ```solidity\\n * contract Named {\\n *     using ShortStrings for *;\\n *\\n *     ShortString private immutable _name;\\n *     string private _nameFallback;\\n *\\n *     constructor(string memory contractName) {\\n *         _name = contractName.toShortStringWithFallback(_nameFallback);\\n *     }\\n *\\n *     function name() external view returns (string memory) {\\n *         return _name.toStringWithFallback(_nameFallback);\\n *     }\\n * }\\n * ```\\n */\\nlibrary ShortStrings {\\n    // Used as an identifier for strings longer than 31 bytes.\\n    bytes32 private constant FALLBACK_SENTINEL = 0x00000000000000000000000000000000000000000000000000000000000000FF;\\n\\n    error StringTooLong(string str);\\n    error InvalidShortString();\\n\\n    /**\\n     * @dev Encode a string of at most 31 chars into a `ShortString`.\\n     *\\n     * This will trigger a `StringTooLong` error is the input string is too long.\\n     */\\n    function toShortString(string memory str) internal pure returns (ShortString) {\\n        bytes memory bstr = bytes(str);\\n        if (bstr.length > 31) {\\n            revert StringTooLong(str);\\n        }\\n        return ShortString.wrap(bytes32(uint256(bytes32(bstr)) | bstr.length));\\n    }\\n\\n    /**\\n     * @dev Decode a `ShortString` back to a \\\"normal\\\" string.\\n     */\\n    function toString(ShortString sstr) internal pure returns (string memory) {\\n        uint256 len = byteLength(sstr);\\n        // using `new string(len)` would work locally but is not memory safe.\\n        string memory str = new string(32);\\n        /// @solidity memory-safe-assembly\\n        assembly {\\n            mstore(str, len)\\n            mstore(add(str, 0x20), sstr)\\n        }\\n        return str;\\n    }\\n\\n    /**\\n     * @dev Return the length of a `ShortString`.\\n     */\\n    function byteLength(ShortString sstr) internal pure returns (uint256) {\\n        uint256 result = uint256(ShortString.unwrap(sstr)) & 0xFF;\\n        if (result > 31) {\\n            revert InvalidShortString();\\n        }\\n        return result;\\n    }\\n\\n    /**\\n     * @dev Encode a string into a `ShortString`, or write it to storage if it is too long.\\n     */\\n    function toShortStringWithFallback(string memory value, string storage store) internal returns (ShortString) {\\n        if (bytes(value).length < 32) {\\n            return toShortString(value);\\n        } else {\\n            StorageSlot.getStringSlot(store).value = value;\\n            return ShortString.wrap(FALLBACK_SENTINEL);\\n        }\\n    }\\n\\n    /**\\n     * @dev Decode a string that was encoded to `ShortString` or written to storage using {setWithFallback}.\\n     */\\n    function toStringWithFallback(ShortString value, string storage store) internal pure returns (string memory) {\\n        if (ShortString.unwrap(value) != FALLBACK_SENTINEL) {\\n            return toString(value);\\n        } else {\\n            return store;\\n        }\\n    }\\n\\n    /**\\n     * @dev Return the length of a string that was encoded to `ShortString` or written to storage using\\n     * {setWithFallback}.\\n     *\\n     * WARNING: This will return the \\\"byte length\\\" of the string. This may not reflect the actual length in terms of\\n     * actual characters as the UTF-8 encoding of a single character can span over multiple bytes.\\n     */\\n    function byteLengthWithFallback(ShortString value, string storage store) internal view returns (uint256) {\\n        if (ShortString.unwrap(value) != FALLBACK_SENTINEL) {\\n            return byteLength(value);\\n        } else {\\n            return bytes(store).length;\\n        }\\n    }\\n}\\n\"},\"@openzeppelin/contracts@5.0.1/utils/cryptography/MessageHashUtils.sol\":{\"content\":\"// SPDX-License-Identifier: MIT\\n// OpenZeppelin Contracts (last updated v5.0.0) (utils/cryptography/MessageHashUtils.sol)\\n\\npragma solidity ^0.8.20;\\n\\nimport {Strings} from \\\"../Strings.sol\\\";\\n\\n/**\\n * @dev Signature message hash utilities for producing digests to be consumed by {ECDSA} recovery or signing.\\n *\\n * The library provides methods for generating a hash of a message that conforms to the\\n * https://eips.ethereum.org/EIPS/eip-191[EIP 191] and https://eips.ethereum.org/EIPS/eip-712[EIP 712]\\n * specifications.\\n */\\nlibrary MessageHashUtils {\\n    /**\\n     * @dev Returns the keccak256 digest of an EIP-191 signed data with version\\n     * `0x45` (`personal_sign` messages).\\n     *\\n     * The digest is calculated by prefixing a bytes32 `messageHash` with\\n     * `\\\"\\\\x19Ethereum Signed Message:\\\\n32\\\"` and hashing the result. It corresponds with the\\n     * hash signed when using the https://eth.wiki/json-rpc/API#eth_sign[`eth_sign`] JSON-RPC method.\\n     *\\n     * NOTE: The `messageHash` parameter is intended to be the result of hashing a raw message with\\n     * keccak256, although any bytes32 value can be safely used because the final digest will\\n     * be re-hashed.\\n     *\\n     * See {ECDSA-recover}.\\n     */\\n    function toEthSignedMessageHash(bytes32 messageHash) internal pure returns (bytes32 digest) {\\n        /// @solidity memory-safe-assembly\\n        assembly {\\n            mstore(0x00, \\\"\\\\x19Ethereum Signed Message:\\\\n32\\\") // 32 is the bytes-length of messageHash\\n            mstore(0x1c, messageHash) // 0x1c (28) is the length of the prefix\\n            digest := keccak256(0x00, 0x3c) // 0x3c is the length of the prefix (0x1c) + messageHash (0x20)\\n        }\\n    }\\n\\n    /**\\n     * @dev Returns the keccak256 digest of an EIP-191 signed data with version\\n     * `0x45` (`personal_sign` messages).\\n     *\\n     * The digest is calculated by prefixing an arbitrary `message` with\\n     * `\\\"\\\\x19Ethereum Signed Message:\\\\n\\\" + len(message)` and hashing the result. It corresponds with the\\n     * hash signed when using the https://eth.wiki/json-rpc/API#eth_sign[`eth_sign`] JSON-RPC method.\\n     *\\n     * See {ECDSA-recover}.\\n     */\\n    function toEthSignedMessageHash(bytes memory message) internal pure returns (bytes32) {\\n        return\\n            keccak256(bytes.concat(\\\"\\\\x19Ethereum Signed Message:\\\\n\\\", bytes(Strings.toString(message.length)), message));\\n    }\\n\\n    /**\\n     * @dev Returns the keccak256 digest of an EIP-191 signed data with version\\n     * `0x00` (data with intended validator).\\n     *\\n     * The digest is calculated by prefixing an arbitrary `data` with `\\\"\\\\x19\\\\x00\\\"` and the intended\\n     * `validator` address. Then hashing the result.\\n     *\\n     * See {ECDSA-recover}.\\n     */\\n    function toDataWithIntendedValidatorHash(address validator, bytes memory data) internal pure returns (bytes32) {\\n        return keccak256(abi.encodePacked(hex\\\"19_00\\\", validator, data));\\n    }\\n\\n    /**\\n     * @dev Returns the keccak256 digest of an EIP-712 typed data (EIP-191 version `0x01`).\\n     *\\n     * The digest is calculated from a `domainSeparator` and a `structHash`, by prefixing them with\\n     * `\\\\x19\\\\x01` and hashing the result. It corresponds to the hash signed by the\\n     * https://eips.ethereum.org/EIPS/eip-712[`eth_signTypedData`] JSON-RPC method as part of EIP-712.\\n     *\\n     * See {ECDSA-recover}.\\n     */\\n    function toTypedDataHash(bytes32 domainSeparator, bytes32 structHash) internal pure returns (bytes32 digest) {\\n        /// @solidity memory-safe-assembly\\n        assembly {\\n            let ptr := mload(0x40)\\n            mstore(ptr, hex\\\"19_01\\\")\\n            mstore(add(ptr, 0x02), domainSeparator)\\n            mstore(add(ptr, 0x22), structHash)\\n            digest := keccak256(ptr, 0x42)\\n        }\\n    }\\n}\\n\"},\"@openzeppelin/contracts@5.0.1/utils/types/Time.sol\":{\"content\":\"// SPDX-License-Identifier: MIT\\n// OpenZeppelin Contracts (last updated v5.0.0) (utils/types/Time.sol)\\n\\npragma solidity ^0.8.20;\\n\\nimport {Math} from \\\"../math/Math.sol\\\";\\nimport {SafeCast} from \\\"../math/SafeCast.sol\\\";\\n\\n/**\\n * @dev This library provides helpers for manipulating time-related objects.\\n *\\n * It uses the following types:\\n * - `uint48` for timepoints\\n * - `uint32` for durations\\n *\\n * While the library doesn't provide specific types for timepoints and duration, it does provide:\\n * - a `Delay` type to represent duration that can be programmed to change value automatically at a given point\\n * - additional helper functions\\n */\\nlibrary Time {\\n    using Time for *;\\n\\n    /**\\n     * @dev Get the block timestamp as a Timepoint.\\n     */\\n    function timestamp() internal view returns (uint48) {\\n        return SafeCast.toUint48(block.timestamp);\\n    }\\n\\n    /**\\n     * @dev Get the block number as a Timepoint.\\n     */\\n    function blockNumber() internal view returns (uint48) {\\n        return SafeCast.toUint48(block.number);\\n    }\\n\\n    // ==================================================== Delay =====================================================\\n    /**\\n     * @dev A `Delay` is a uint32 duration that can be programmed to change value automatically at a given point in the\\n     * future. The \\\"effect\\\" timepoint describes when the transitions happens from the \\\"old\\\" value to the \\\"new\\\" value.\\n     * This allows updating the delay applied to some operation while keeping some guarantees.\\n     *\\n     * In particular, the {update} function guarantees that if the delay is reduced, the old delay still applies for\\n     * some time. For example if the delay is currently 7 days to do an upgrade, the admin should not be able to set\\n     * the delay to 0 and upgrade immediately. If the admin wants to reduce the delay, the old delay (7 days) should\\n     * still apply for some time.\\n     *\\n     *\\n     * The `Delay` type is 112 bits long, and packs the following:\\n     *\\n     * ```\\n     *   | [uint48]: effect date (timepoint)\\n     *   |           | [uint32]: value before (duration)\\n     *                      [uint32]: value after (duration)\\n     * 0xAAAAAAAAAAAABBBBBBBBCCCCCCCC\\n     * ```\\n     *\\n     * NOTE: The {get} and {withUpdate} functions operate using timestamps. Block number based delays are not currently\\n     * supported.\\n     */\\n    type Delay is uint112;\\n\\n    /**\\n     * @dev Wrap a duration into a Delay to add the one-step \\\"update in the future\\\" feature\\n     */\\n    function toDelay(uint32 duration) internal pure returns (Delay) {\\n        return Delay.wrap(duration);\\n    }\\n\\n    /**\\n     * @dev Get the value at a given timepoint plus the pending value and effect timepoint if there is a scheduled\\n     * change after this timepoint. If the effect timepoint is 0, then the pending value should not be considered.\\n     */\\n    function _getFullAt(Delay self, uint48 timepoint) private pure returns (uint32, uint32, uint48) {\\n        (uint32 valueBefore, uint32 valueAfter, uint48 effect) = self.unpack();\\n        return effect <= timepoint ? (valueAfter, 0, 0) : (valueBefore, valueAfter, effect);\\n    }\\n\\n    /**\\n     * @dev Get the current value plus the pending value and effect timepoint if there is a scheduled change. If the\\n     * effect timepoint is 0, then the pending value should not be considered.\\n     */\\n    function getFull(Delay self) internal view returns (uint32, uint32, uint48) {\\n        return _getFullAt(self, timestamp());\\n    }\\n\\n    /**\\n     * @dev Get the current value.\\n     */\\n    function get(Delay self) internal view returns (uint32) {\\n        (uint32 delay, , ) = self.getFull();\\n        return delay;\\n    }\\n\\n    /**\\n     * @dev Update a Delay object so that it takes a new duration after a timepoint that is automatically computed to\\n     * enforce the old delay at the moment of the update. Returns the updated Delay object and the timestamp when the\\n     * new delay becomes effective.\\n     */\\n    function withUpdate(\\n        Delay self,\\n        uint32 newValue,\\n        uint32 minSetback\\n    ) internal view returns (Delay updatedDelay, uint48 effect) {\\n        uint32 value = self.get();\\n        uint32 setback = uint32(Math.max(minSetback, value > newValue ? value - newValue : 0));\\n        effect = timestamp() + setback;\\n        return (pack(value, newValue, effect), effect);\\n    }\\n\\n    /**\\n     * @dev Split a delay into its components: valueBefore, valueAfter and effect (transition timepoint).\\n     */\\n    function unpack(Delay self) internal pure returns (uint32 valueBefore, uint32 valueAfter, uint48 effect) {\\n        uint112 raw = Delay.unwrap(self);\\n\\n        valueAfter = uint32(raw);\\n        valueBefore = uint32(raw >> 32);\\n        effect = uint48(raw >> 64);\\n\\n        return (valueBefore, valueAfter, effect);\\n    }\\n\\n    /**\\n     * @dev pack the components into a Delay object.\\n     */\\n    function pack(uint32 valueBefore, uint32 valueAfter, uint48 effect) internal pure returns (Delay) {\\n        return Delay.wrap((uint112(effect) << 64) | (uint112(valueBefore) << 32) | uint112(valueAfter));\\n    }\\n}\\n\"},\"@openzeppelin/contracts@5.0.1/utils/math/SafeCast.sol\":{\"content\":\"// SPDX-License-Identifier: MIT\\n// OpenZeppelin Contracts (last updated v5.0.0) (utils/math/SafeCast.sol)\\n// This file was procedurally generated from scripts/generate/templates/SafeCast.js.\\n\\npragma solidity ^0.8.20;\\n\\n/**\\n * @dev Wrappers over Solidity's uintXX/intXX casting operators with added overflow\\n * checks.\\n *\\n * Downcasting from uint256/int256 in Solidity does not revert on overflow. This can\\n * easily result in undesired exploitation or bugs, since developers usually\\n * assume that overflows raise errors. `SafeCast` restores this intuition by\\n * reverting the transaction when such an operation overflows.\\n *\\n * Using this library instead of the unchecked operations eliminates an entire\\n * class of bugs, so it's recommended to use it always.\\n */\\nlibrary SafeCast {\\n    /**\\n     * @dev Value doesn't fit in an uint of `bits` size.\\n     */\\n    error SafeCastOverflowedUintDowncast(uint8 bits, uint256 value);\\n\\n    /**\\n     * @dev An int value doesn't fit in an uint of `bits` size.\\n     */\\n    error SafeCastOverflowedIntToUint(int256 value);\\n\\n    /**\\n     * @dev Value doesn't fit in an int of `bits` size.\\n     */\\n    error SafeCastOverflowedIntDowncast(uint8 bits, int256 value);\\n\\n    /**\\n     * @dev An uint value doesn't fit in an int of `bits` size.\\n     */\\n    error SafeCastOverflowedUintToInt(uint256 value);\\n\\n    /**\\n     * @dev Returns the downcasted uint248 from uint256, reverting on\\n     * overflow (when the input is greater than largest uint248).\\n     *\\n     * Counterpart to Solidity's `uint248` operator.\\n     *\\n     * Requirements:\\n     *\\n     * - input must fit into 248 bits\\n     */\\n    function toUint248(uint256 value) internal pure returns (uint248) {\\n        if (value > type(uint248).max) {\\n            revert SafeCastOverflowedUintDowncast(248, value);\\n        }\\n        return uint248(value);\\n    }\\n\\n    /**\\n     * @dev Returns the downcasted uint240 from uint256, reverting on\\n     * overflow (when the input is greater than largest uint240).\\n     *\\n     * Counterpart to Solidity's `uint240` operator.\\n     *\\n     * Requirements:\\n     *\\n     * - input must fit into 240 bits\\n     */\\n    function toUint240(uint256 value) internal pure returns (uint240) {\\n        if (value > type(uint240).max) {\\n            revert SafeCastOverflowedUintDowncast(240, value);\\n        }\\n        return uint240(value);\\n    }\\n\\n    /**\\n     * @dev Returns the downcasted uint232 from uint256, reverting on\\n     * overflow (when the input is greater than largest uint232).\\n     *\\n     * Counterpart to Solidity's `uint232` operator.\\n     *\\n     * Requirements:\\n     *\\n     * - input must fit into 232 bits\\n     */\\n    function toUint232(uint256 value) internal pure returns (uint232) {\\n        if (value > type(uint232).max) {\\n            revert SafeCastOverflowedUintDowncast(232, value);\\n        }\\n        return uint232(value);\\n    }\\n\\n    /**\\n     * @dev Returns the downcasted uint224 from uint256, reverting on\\n     * overflow (when the input is greater than largest uint224).\\n     *\\n     * Counterpart to Solidity's `uint224` operator.\\n     *\\n     * Requirements:\\n     *\\n     * - input must fit into 224 bits\\n     */\\n    function toUint224(uint256 value) internal pure returns (uint224) {\\n        if (value > type(uint224).max) {\\n            revert SafeCastOverflowedUintDowncast(224, value);\\n        }\\n        return uint224(value);\\n    }\\n\\n    /**\\n     * @dev Returns the downcasted uint216 from uint256, reverting on\\n     * overflow (when the input is greater than largest uint216).\\n     *\\n     * Counterpart to Solidity's `uint216` operator.\\n     *\\n     * Requirements:\\n     *\\n     * - input must fit into 216 bits\\n     */\\n    function toUint216(uint256 value) internal pure returns (uint216) {\\n        if (value > type(uint216).max) {\\n            revert SafeCastOverflowedUintDowncast(216, value);\\n        }\\n        return uint216(value);\\n    }\\n\\n    /**\\n     * @dev Returns the downcasted uint208 from uint256, reverting on\\n     * overflow (when the input is greater than largest uint208).\\n     *\\n     * Counterpart to Solidity's `uint208` operator.\\n     *\\n     * Requirements:\\n     *\\n     * - input must fit into 208 bits\\n     */\\n    function toUint208(uint256 value) internal pure returns (uint208) {\\n        if (value > type(uint208).max) {\\n            revert SafeCastOverflowedUintDowncast(208, value);\\n        }\\n        return uint208(value);\\n    }\\n\\n    /**\\n     * @dev Returns the downcasted uint200 from uint256, reverting on\\n     * overflow (when the input is greater than largest uint200).\\n     *\\n     * Counterpart to Solidity's `uint200` operator.\\n     *\\n     * Requirements:\\n     *\\n     * - input must fit into 200 bits\\n     */\\n    function toUint200(uint256 value) internal pure returns (uint200) {\\n        if (value > type(uint200).max) {\\n            revert SafeCastOverflowedUintDowncast(200, value);\\n        }\\n        return uint200(value);\\n    }\\n\\n    /**\\n     * @dev Returns the downcasted uint192 from uint256, reverting on\\n     * overflow (when the input is greater than largest uint192).\\n     *\\n     * Counterpart to Solidity's `uint192` operator.\\n     *\\n     * Requirements:\\n     *\\n     * - input must fit into 192 bits\\n     */\\n    function toUint192(uint256 value) internal pure returns (uint192) {\\n        if (value > type(uint192).max) {\\n            revert SafeCastOverflowedUintDowncast(192, value);\\n        }\\n        return uint192(value);\\n    }\\n\\n    /**\\n     * @dev Returns the downcasted uint184 from uint256, reverting on\\n     * overflow (when the input is greater than largest uint184).\\n     *\\n     * Counterpart to Solidity's `uint184` operator.\\n     *\\n     * Requirements:\\n     *\\n     * - input must fit into 184 bits\\n     */\\n    function toUint184(uint256 value) internal pure returns (uint184) {\\n        if (value > type(uint184).max) {\\n            revert SafeCastOverflowedUintDowncast(184, value);\\n        }\\n        return uint184(value);\\n    }\\n\\n    /**\\n     * @dev Returns the downcasted uint176 from uint256, reverting on\\n     * overflow (when the input is greater than largest uint176).\\n     *\\n     * Counterpart to Solidity's `uint176` operator.\\n     *\\n     * Requirements:\\n     *\\n     * - input must fit into 176 bits\\n     */\\n    function toUint176(uint256 value) internal pure returns (uint176) {\\n        if (value > type(uint176).max) {\\n            revert SafeCastOverflowedUintDowncast(176, value);\\n        }\\n        return uint176(value);\\n    }\\n\\n    /**\\n     * @dev Returns the downcasted uint168 from uint256, reverting on\\n     * overflow (when the input is greater than largest uint168).\\n     *\\n     * Counterpart to Solidity's `uint168` operator.\\n     *\\n     * Requirements:\\n     *\\n     * - input must fit into 168 bits\\n     */\\n    function toUint168(uint256 value) internal pure returns (uint168) {\\n        if (value > type(uint168).max) {\\n            revert SafeCastOverflowedUintDowncast(168, value);\\n        }\\n        return uint168(value);\\n    }\\n\\n    /**\\n     * @dev Returns the downcasted uint160 from uint256, reverting on\\n     * overflow (when the input is greater than largest uint160).\\n     *\\n     * Counterpart to Solidity's `uint160` operator.\\n     *\\n     * Requirements:\\n     *\\n     * - input must fit into 160 bits\\n     */\\n    function toUint160(uint256 value) internal pure returns (uint160) {\\n        if (value > type(uint160).max) {\\n            revert SafeCastOverflowedUintDowncast(160, value);\\n        }\\n        return uint160(value);\\n    }\\n\\n    /**\\n     * @dev Returns the downcasted uint152 from uint256, reverting on\\n     * overflow (when the input is greater than largest uint152).\\n     *\\n     * Counterpart to Solidity's `uint152` operator.\\n     *\\n     * Requirements:\\n     *\\n     * - input must fit into 152 bits\\n     */\\n    function toUint152(uint256 value) internal pure returns (uint152) {\\n        if (value > type(uint152).max) {\\n            revert SafeCastOverflowedUintDowncast(152, value);\\n        }\\n        return uint152(value);\\n    }\\n\\n    /**\\n     * @dev Returns the downcasted uint144 from uint256, reverting on\\n     * overflow (when the input is greater than largest uint144).\\n     *\\n     * Counterpart to Solidity's `uint144` operator.\\n     *\\n     * Requirements:\\n     *\\n     * - input must fit into 144 bits\\n     */\\n    function toUint144(uint256 value) internal pure returns (uint144) {\\n        if (value > type(uint144).max) {\\n            revert SafeCastOverflowedUintDowncast(144, value);\\n        }\\n        return uint144(value);\\n    }\\n\\n    /**\\n     * @dev Returns the downcasted uint136 from uint256, reverting on\\n     * overflow (when the input is greater than largest uint136).\\n     *\\n     * Counterpart to Solidity's `uint136` operator.\\n     *\\n     * Requirements:\\n     *\\n     * - input must fit into 136 bits\\n     */\\n    function toUint136(uint256 value) internal pure returns (uint136) {\\n        if (value > type(uint136).max) {\\n            revert SafeCastOverflowedUintDowncast(136, value);\\n        }\\n        return uint136(value);\\n    }\\n\\n    /**\\n     * @dev Returns the downcasted uint128 from uint256, reverting on\\n     * overflow (when the input is greater than largest uint128).\\n     *\\n     * Counterpart to Solidity's `uint128` operator.\\n     *\\n     * Requirements:\\n     *\\n     * - input must fit into 128 bits\\n     */\\n    function toUint128(uint256 value) internal pure returns (uint128) {\\n        if (value > type(uint128).max) {\\n            revert SafeCastOverflowedUintDowncast(128, value);\\n        }\\n        return uint128(value);\\n    }\\n\\n    /**\\n     * @dev Returns the downcasted uint120 from uint256, reverting on\\n     * overflow (when the input is greater than largest uint120).\\n     *\\n     * Counterpart to Solidity's `uint120` operator.\\n     *\\n     * Requirements:\\n     *\\n     * - input must fit into 120 bits\\n     */\\n    function toUint120(uint256 value) internal pure returns (uint120) {\\n        if (value > type(uint120).max) {\\n            revert SafeCastOverflowedUintDowncast(120, value);\\n        }\\n        return uint120(value);\\n    }\\n\\n    /**\\n     * @dev Returns the downcasted uint112 from uint256, reverting on\\n     * overflow (when the input is greater than largest uint112).\\n     *\\n     * Counterpart to Solidity's `uint112` operator.\\n     *\\n     * Requirements:\\n     *\\n     * - input must fit into 112 bits\\n     */\\n    function toUint112(uint256 value) internal pure returns (uint112) {\\n        if (value > type(uint112).max) {\\n            revert SafeCastOverflowedUintDowncast(112, value);\\n        }\\n        return uint112(value);\\n    }\\n\\n    /**\\n     * @dev Returns the downcasted uint104 from uint256, reverting on\\n     * overflow (when the input is greater than largest uint104).\\n     *\\n     * Counterpart to Solidity's `uint104` operator.\\n     *\\n     * Requirements:\\n     *\\n     * - input must fit into 104 bits\\n     */\\n    function toUint104(uint256 value) internal pure returns (uint104) {\\n        if (value > type(uint104).max) {\\n            revert SafeCastOverflowedUintDowncast(104, value);\\n        }\\n        return uint104(value);\\n    }\\n\\n    /**\\n     * @dev Returns the downcasted uint96 from uint256, reverting on\\n     * overflow (when the input is greater than largest uint96).\\n     *\\n     * Counterpart to Solidity's `uint96` operator.\\n     *\\n     * Requirements:\\n     *\\n     * - input must fit into 96 bits\\n     */\\n    function toUint96(uint256 value) internal pure returns (uint96) {\\n        if (value > type(uint96).max) {\\n            revert SafeCastOverflowedUintDowncast(96, value);\\n        }\\n        return uint96(value);\\n    }\\n\\n    /**\\n     * @dev Returns the downcasted uint88 from uint256, reverting on\\n     * overflow (when the input is greater than largest uint88).\\n     *\\n     * Counterpart to Solidity's `uint88` operator.\\n     *\\n     * Requirements:\\n     *\\n     * - input must fit into 88 bits\\n     */\\n    function toUint88(uint256 value) internal pure returns (uint88) {\\n        if (value > type(uint88).max) {\\n            revert SafeCastOverflowedUintDowncast(88, value);\\n        }\\n        return uint88(value);\\n    }\\n\\n    /**\\n     * @dev Returns the downcasted uint80 from uint256, reverting on\\n     * overflow (when the input is greater than largest uint80).\\n     *\\n     * Counterpart to Solidity's `uint80` operator.\\n     *\\n     * Requirements:\\n     *\\n     * - input must fit into 80 bits\\n     */\\n    function toUint80(uint256 value) internal pure returns (uint80) {\\n        if (value > type(uint80).max) {\\n            revert SafeCastOverflowedUintDowncast(80, value);\\n        }\\n        return uint80(value);\\n    }\\n\\n    /**\\n     * @dev Returns the downcasted uint72 from uint256, reverting on\\n     * overflow (when the input is greater than largest uint72).\\n     *\\n     * Counterpart to Solidity's `uint72` operator.\\n     *\\n     * Requirements:\\n     *\\n     * - input must fit into 72 bits\\n     */\\n    function toUint72(uint256 value) internal pure returns (uint72) {\\n        if (value > type(uint72).max) {\\n            revert SafeCastOverflowedUintDowncast(72, value);\\n        }\\n        return uint72(value);\\n    }\\n\\n    /**\\n     * @dev Returns the downcasted uint64 from uint256, reverting on\\n     * overflow (when the input is greater than largest uint64).\\n     *\\n     * Counterpart to Solidity's `uint64` operator.\\n     *\\n     * Requirements:\\n     *\\n     * - input must fit into 64 bits\\n     */\\n    function toUint64(uint256 value) internal pure returns (uint64) {\\n        if (value > type(uint64).max) {\\n            revert SafeCastOverflowedUintDowncast(64, value);\\n        }\\n        return uint64(value);\\n    }\\n\\n    /**\\n     * @dev Returns the downcasted uint56 from uint256, reverting on\\n     * overflow (when the input is greater than largest uint56).\\n     *\\n     * Counterpart to Solidity's `uint56` operator.\\n     *\\n     * Requirements:\\n     *\\n     * - input must fit into 56 bits\\n     */\\n    function toUint56(uint256 value) internal pure returns (uint56) {\\n        if (value > type(uint56).max) {\\n            revert SafeCastOverflowedUintDowncast(56, value);\\n        }\\n        return uint56(value);\\n    }\\n\\n    /**\\n     * @dev Returns the downcasted uint48 from uint256, reverting on\\n     * overflow (when the input is greater than largest uint48).\\n     *\\n     * Counterpart to Solidity's `uint48` operator.\\n     *\\n     * Requirements:\\n     *\\n     * - input must fit into 48 bits\\n     */\\n    function toUint48(uint256 value) internal pure returns (uint48) {\\n        if (value > type(uint48).max) {\\n            revert SafeCastOverflowedUintDowncast(48, value);\\n        }\\n        return uint48(value);\\n    }\\n\\n    /**\\n     * @dev Returns the downcasted uint40 from uint256, reverting on\\n     * overflow (when the input is greater than largest uint40).\\n     *\\n     * Counterpart to Solidity's `uint40` operator.\\n     *\\n     * Requirements:\\n     *\\n     * - input must fit into 40 bits\\n     */\\n    function toUint40(uint256 value) internal pure returns (uint40) {\\n        if (value > type(uint40).max) {\\n            revert SafeCastOverflowedUintDowncast(40, value);\\n        }\\n        return uint40(value);\\n    }\\n\\n    /**\\n     * @dev Returns the downcasted uint32 from uint256, reverting on\\n     * overflow (when the input is greater than largest uint32).\\n     *\\n     * Counterpart to Solidity's `uint32` operator.\\n     *\\n     * Requirements:\\n     *\\n     * - input must fit into 32 bits\\n     */\\n    function toUint32(uint256 value) internal pure returns (uint32) {\\n        if (value > type(uint32).max) {\\n            revert SafeCastOverflowedUintDowncast(32, value);\\n        }\\n        return uint32(value);\\n    }\\n\\n    /**\\n     * @dev Returns the downcasted uint24 from uint256, reverting on\\n     * overflow (when the input is greater than largest uint24).\\n     *\\n     * Counterpart to Solidity's `uint24` operator.\\n     *\\n     * Requirements:\\n     *\\n     * - input must fit into 24 bits\\n     */\\n    function toUint24(uint256 value) internal pure returns (uint24) {\\n        if (value > type(uint24).max) {\\n            revert SafeCastOverflowedUintDowncast(24, value);\\n        }\\n        return uint24(value);\\n    }\\n\\n    /**\\n     * @dev Returns the downcasted uint16 from uint256, reverting on\\n     * overflow (when the input is greater than largest uint16).\\n     *\\n     * Counterpart to Solidity's `uint16` operator.\\n     *\\n     * Requirements:\\n     *\\n     * - input must fit into 16 bits\\n     */\\n    function toUint16(uint256 value) internal pure returns (uint16) {\\n        if (value > type(uint16).max) {\\n            revert SafeCastOverflowedUintDowncast(16, value);\\n        }\\n        return uint16(value);\\n    }\\n\\n    /**\\n     * @dev Returns the downcasted uint8 from uint256, reverting on\\n     * overflow (when the input is greater than largest uint8).\\n     *\\n     * Counterpart to Solidity's `uint8` operator.\\n     *\\n     * Requirements:\\n     *\\n     * - input must fit into 8 bits\\n     */\\n    function toUint8(uint256 value) internal pure returns (uint8) {\\n        if (value > type(uint8).max) {\\n            revert SafeCastOverflowedUintDowncast(8, value);\\n        }\\n        return uint8(value);\\n    }\\n\\n    /**\\n     * @dev Converts a signed int256 into an unsigned uint256.\\n     *\\n     * Requirements:\\n     *\\n     * - input must be greater than or equal to 0.\\n     */\\n    function toUint256(int256 value) internal pure returns (uint256) {\\n        if (value < 0) {\\n            revert SafeCastOverflowedIntToUint(value);\\n        }\\n        return uint256(value);\\n    }\\n\\n    /**\\n     * @dev Returns the downcasted int248 from int256, reverting on\\n     * overflow (when the input is less than smallest int248 or\\n     * greater than largest int248).\\n     *\\n     * Counterpart to Solidity's `int248` operator.\\n     *\\n     * Requirements:\\n     *\\n     * - input must fit into 248 bits\\n     */\\n    function toInt248(int256 value) internal pure returns (int248 downcasted) {\\n        downcasted = int248(value);\\n        if (downcasted != value) {\\n            revert SafeCastOverflowedIntDowncast(248, value);\\n        }\\n    }\\n\\n    /**\\n     * @dev Returns the downcasted int240 from int256, reverting on\\n     * overflow (when the input is less than smallest int240 or\\n     * greater than largest int240).\\n     *\\n     * Counterpart to Solidity's `int240` operator.\\n     *\\n     * Requirements:\\n     *\\n     * - input must fit into 240 bits\\n     */\\n    function toInt240(int256 value) internal pure returns (int240 downcasted) {\\n        downcasted = int240(value);\\n        if (downcasted != value) {\\n            revert SafeCastOverflowedIntDowncast(240, value);\\n        }\\n    }\\n\\n    /**\\n     * @dev Returns the downcasted int232 from int256, reverting on\\n     * overflow (when the input is less than smallest int232 or\\n     * greater than largest int232).\\n     *\\n     * Counterpart to Solidity's `int232` operator.\\n     *\\n     * Requirements:\\n     *\\n     * - input must fit into 232 bits\\n     */\\n    function toInt232(int256 value) internal pure returns (int232 downcasted) {\\n        downcasted = int232(value);\\n        if (downcasted != value) {\\n            revert SafeCastOverflowedIntDowncast(232, value);\\n        }\\n    }\\n\\n    /**\\n     * @dev Returns the downcasted int224 from int256, reverting on\\n     * overflow (when the input is less than smallest int224 or\\n     * greater than largest int224).\\n     *\\n     * Counterpart to Solidity's `int224` operator.\\n     *\\n     * Requirements:\\n     *\\n     * - input must fit into 224 bits\\n     */\\n    function toInt224(int256 value) internal pure returns (int224 downcasted) {\\n        downcasted = int224(value);\\n        if (downcasted != value) {\\n            revert SafeCastOverflowedIntDowncast(224, value);\\n        }\\n    }\\n\\n    /**\\n     * @dev Returns the downcasted int216 from int256, reverting on\\n     * overflow (when the input is less than smallest int216 or\\n     * greater than largest int216).\\n     *\\n     * Counterpart to Solidity's `int216` operator.\\n     *\\n     * Requirements:\\n     *\\n     * - input must fit into 216 bits\\n     */\\n    function toInt216(int256 value) internal pure returns (int216 downcasted) {\\n        downcasted = int216(value);\\n        if (downcasted != value) {\\n            revert SafeCastOverflowedIntDowncast(216, value);\\n        }\\n    }\\n\\n    /**\\n     * @dev Returns the downcasted int208 from int256, reverting on\\n     * overflow (when the input is less than smallest int208 or\\n     * greater than largest int208).\\n     *\\n     * Counterpart to Solidity's `int208` operator.\\n     *\\n     * Requirements:\\n     *\\n     * - input must fit into 208 bits\\n     */\\n    function toInt208(int256 value) internal pure returns (int208 downcasted) {\\n        downcasted = int208(value);\\n        if (downcasted != value) {\\n            revert SafeCastOverflowedIntDowncast(208, value);\\n        }\\n    }\\n\\n    /**\\n     * @dev Returns the downcasted int200 from int256, reverting on\\n     * overflow (when the input is less than smallest int200 or\\n     * greater than largest int200).\\n     *\\n     * Counterpart to Solidity's `int200` operator.\\n     *\\n     * Requirements:\\n     *\\n     * - input must fit into 200 bits\\n     */\\n    function toInt200(int256 value) internal pure returns (int200 downcasted) {\\n        downcasted = int200(value);\\n        if (downcasted != value) {\\n            revert SafeCastOverflowedIntDowncast(200, value);\\n        }\\n    }\\n\\n    /**\\n     * @dev Returns the downcasted int192 from int256, reverting on\\n     * overflow (when the input is less than smallest int192 or\\n     * greater than largest int192).\\n     *\\n     * Counterpart to Solidity's `int192` operator.\\n     *\\n     * Requirements:\\n     *\\n     * - input must fit into 192 bits\\n     */\\n    function toInt192(int256 value) internal pure returns (int192 downcasted) {\\n        downcasted = int192(value);\\n        if (downcasted != value) {\\n            revert SafeCastOverflowedIntDowncast(192, value);\\n        }\\n    }\\n\\n    /**\\n     * @dev Returns the downcasted int184 from int256, reverting on\\n     * overflow (when the input is less than smallest int184 or\\n     * greater than largest int184).\\n     *\\n     * Counterpart to Solidity's `int184` operator.\\n     *\\n     * Requirements:\\n     *\\n     * - input must fit into 184 bits\\n     */\\n    function toInt184(int256 value) internal pure returns (int184 downcasted) {\\n        downcasted = int184(value);\\n        if (downcasted != value) {\\n            revert SafeCastOverflowedIntDowncast(184, value);\\n        }\\n    }\\n\\n    /**\\n     * @dev Returns the downcasted int176 from int256, reverting on\\n     * overflow (when the input is less than smallest int176 or\\n     * greater than largest int176).\\n     *\\n     * Counterpart to Solidity's `int176` operator.\\n     *\\n     * Requirements:\\n     *\\n     * - input must fit into 176 bits\\n     */\\n    function toInt176(int256 value) internal pure returns (int176 downcasted) {\\n        downcasted = int176(value);\\n        if (downcasted != value) {\\n            revert SafeCastOverflowedIntDowncast(176, value);\\n        }\\n    }\\n\\n    /**\\n     * @dev Returns the downcasted int168 from int256, reverting on\\n     * overflow (when the input is less than smallest int168 or\\n     * greater than largest int168).\\n     *\\n     * Counterpart to Solidity's `int168` operator.\\n     *\\n     * Requirements:\\n     *\\n     * - input must fit into 168 bits\\n     */\\n    function toInt168(int256 value) internal pure returns (int168 downcasted) {\\n        downcasted = int168(value);\\n        if (downcasted != value) {\\n            revert SafeCastOverflowedIntDowncast(168, value);\\n        }\\n    }\\n\\n    /**\\n     * @dev Returns the downcasted int160 from int256, reverting on\\n     * overflow (when the input is less than smallest int160 or\\n     * greater than largest int160).\\n     *\\n     * Counterpart to Solidity's `int160` operator.\\n     *\\n     * Requirements:\\n     *\\n     * - input must fit into 160 bits\\n     */\\n    function toInt160(int256 value) internal pure returns (int160 downcasted) {\\n        downcasted = int160(value);\\n        if (downcasted != value) {\\n            revert SafeCastOverflowedIntDowncast(160, value);\\n        }\\n    }\\n\\n    /**\\n     * @dev Returns the downcasted int152 from int256, reverting on\\n     * overflow (when the input is less than smallest int152 or\\n     * greater than largest int152).\\n     *\\n     * Counterpart to Solidity's `int152` operator.\\n     *\\n     * Requirements:\\n     *\\n     * - input must fit into 152 bits\\n     */\\n    function toInt152(int256 value) internal pure returns (int152 downcasted) {\\n        downcasted = int152(value);\\n        if (downcasted != value) {\\n            revert SafeCastOverflowedIntDowncast(152, value);\\n        }\\n    }\\n\\n    /**\\n     * @dev Returns the downcasted int144 from int256, reverting on\\n     * overflow (when the input is less than smallest int144 or\\n     * greater than largest int144).\\n     *\\n     * Counterpart to Solidity's `int144` operator.\\n     *\\n     * Requirements:\\n     *\\n     * - input must fit into 144 bits\\n     */\\n    function toInt144(int256 value) internal pure returns (int144 downcasted) {\\n        downcasted = int144(value);\\n        if (downcasted != value) {\\n            revert SafeCastOverflowedIntDowncast(144, value);\\n        }\\n    }\\n\\n    /**\\n     * @dev Returns the downcasted int136 from int256, reverting on\\n     * overflow (when the input is less than smallest int136 or\\n     * greater than largest int136).\\n     *\\n     * Counterpart to Solidity's `int136` operator.\\n     *\\n     * Requirements:\\n     *\\n     * - input must fit into 136 bits\\n     */\\n    function toInt136(int256 value) internal pure returns (int136 downcasted) {\\n        downcasted = int136(value);\\n        if (downcasted != value) {\\n            revert SafeCastOverflowedIntDowncast(136, value);\\n        }\\n    }\\n\\n    /**\\n     * @dev Returns the downcasted int128 from int256, reverting on\\n     * overflow (when the input is less than smallest int128 or\\n     * greater than largest int128).\\n     *\\n     * Counterpart to Solidity's `int128` operator.\\n     *\\n     * Requirements:\\n     *\\n     * - input must fit into 128 bits\\n     */\\n    function toInt128(int256 value) internal pure returns (int128 downcasted) {\\n        downcasted = int128(value);\\n        if (downcasted != value) {\\n            revert SafeCastOverflowedIntDowncast(128, value);\\n        }\\n    }\\n\\n    /**\\n     * @dev Returns the downcasted int120 from int256, reverting on\\n     * overflow (when the input is less than smallest int120 or\\n     * greater than largest int120).\\n     *\\n     * Counterpart to Solidity's `int120` operator.\\n     *\\n     * Requirements:\\n     *\\n     * - input must fit into 120 bits\\n     */\\n    function toInt120(int256 value) internal pure returns (int120 downcasted) {\\n        downcasted = int120(value);\\n        if (downcasted != value) {\\n            revert SafeCastOverflowedIntDowncast(120, value);\\n        }\\n    }\\n\\n    /**\\n     * @dev Returns the downcasted int112 from int256, reverting on\\n     * overflow (when the input is less than smallest int112 or\\n     * greater than largest int112).\\n     *\\n     * Counterpart to Solidity's `int112` operator.\\n     *\\n     * Requirements:\\n     *\\n     * - input must fit into 112 bits\\n     */\\n    function toInt112(int256 value) internal pure returns (int112 downcasted) {\\n        downcasted = int112(value);\\n        if (downcasted != value) {\\n            revert SafeCastOverflowedIntDowncast(112, value);\\n        }\\n    }\\n\\n    /**\\n     * @dev Returns the downcasted int104 from int256, reverting on\\n     * overflow (when the input is less than smallest int104 or\\n     * greater than largest int104).\\n     *\\n     * Counterpart to Solidity's `int104` operator.\\n     *\\n     * Requirements:\\n     *\\n     * - input must fit into 104 bits\\n     */\\n    function toInt104(int256 value) internal pure returns (int104 downcasted) {\\n        downcasted = int104(value);\\n        if (downcasted != value) {\\n            revert SafeCastOverflowedIntDowncast(104, value);\\n        }\\n    }\\n\\n    /**\\n     * @dev Returns the downcasted int96 from int256, reverting on\\n     * overflow (when the input is less than smallest int96 or\\n     * greater than largest int96).\\n     *\\n     * Counterpart to Solidity's `int96` operator.\\n     *\\n     * Requirements:\\n     *\\n     * - input must fit into 96 bits\\n     */\\n    function toInt96(int256 value) internal pure returns (int96 downcasted) {\\n        downcasted = int96(value);\\n        if (downcasted != value) {\\n            revert SafeCastOverflowedIntDowncast(96, value);\\n        }\\n    }\\n\\n    /**\\n     * @dev Returns the downcasted int88 from int256, reverting on\\n     * overflow (when the input is less than smallest int88 or\\n     * greater than largest int88).\\n     *\\n     * Counterpart to Solidity's `int88` operator.\\n     *\\n     * Requirements:\\n     *\\n     * - input must fit into 88 bits\\n     */\\n    function toInt88(int256 value) internal pure returns (int88 downcasted) {\\n        downcasted = int88(value);\\n        if (downcasted != value) {\\n            revert SafeCastOverflowedIntDowncast(88, value);\\n        }\\n    }\\n\\n    /**\\n     * @dev Returns the downcasted int80 from int256, reverting on\\n     * overflow (when the input is less than smallest int80 or\\n     * greater than largest int80).\\n     *\\n     * Counterpart to Solidity's `int80` operator.\\n     *\\n     * Requirements:\\n     *\\n     * - input must fit into 80 bits\\n     */\\n    function toInt80(int256 value) internal pure returns (int80 downcasted) {\\n        downcasted = int80(value);\\n        if (downcasted != value) {\\n            revert SafeCastOverflowedIntDowncast(80, value);\\n        }\\n    }\\n\\n    /**\\n     * @dev Returns the downcasted int72 from int256, reverting on\\n     * overflow (when the input is less than smallest int72 or\\n     * greater than largest int72).\\n     *\\n     * Counterpart to Solidity's `int72` operator.\\n     *\\n     * Requirements:\\n     *\\n     * - input must fit into 72 bits\\n     */\\n    function toInt72(int256 value) internal pure returns (int72 downcasted) {\\n        downcasted = int72(value);\\n        if (downcasted != value) {\\n            revert SafeCastOverflowedIntDowncast(72, value);\\n        }\\n    }\\n\\n    /**\\n     * @dev Returns the downcasted int64 from int256, reverting on\\n     * overflow (when the input is less than smallest int64 or\\n     * greater than largest int64).\\n     *\\n     * Counterpart to Solidity's `int64` operator.\\n     *\\n     * Requirements:\\n     *\\n     * - input must fit into 64 bits\\n     */\\n    function toInt64(int256 value) internal pure returns (int64 downcasted) {\\n        downcasted = int64(value);\\n        if (downcasted != value) {\\n            revert SafeCastOverflowedIntDowncast(64, value);\\n        }\\n    }\\n\\n    /**\\n     * @dev Returns the downcasted int56 from int256, reverting on\\n     * overflow (when the input is less than smallest int56 or\\n     * greater than largest int56).\\n     *\\n     * Counterpart to Solidity's `int56` operator.\\n     *\\n     * Requirements:\\n     *\\n     * - input must fit into 56 bits\\n     */\\n    function toInt56(int256 value) internal pure returns (int56 downcasted) {\\n        downcasted = int56(value);\\n        if (downcasted != value) {\\n            revert SafeCastOverflowedIntDowncast(56, value);\\n        }\\n    }\\n\\n    /**\\n     * @dev Returns the downcasted int48 from int256, reverting on\\n     * overflow (when the input is less than smallest int48 or\\n     * greater than largest int48).\\n     *\\n     * Counterpart to Solidity's `int48` operator.\\n     *\\n     * Requirements:\\n     *\\n     * - input must fit into 48 bits\\n     */\\n    function toInt48(int256 value) internal pure returns (int48 downcasted) {\\n        downcasted = int48(value);\\n        if (downcasted != value) {\\n            revert SafeCastOverflowedIntDowncast(48, value);\\n        }\\n    }\\n\\n    /**\\n     * @dev Returns the downcasted int40 from int256, reverting on\\n     * overflow (when the input is less than smallest int40 or\\n     * greater than largest int40).\\n     *\\n     * Counterpart to Solidity's `int40` operator.\\n     *\\n     * Requirements:\\n     *\\n     * - input must fit into 40 bits\\n     */\\n    function toInt40(int256 value) internal pure returns (int40 downcasted) {\\n        downcasted = int40(value);\\n        if (downcasted != value) {\\n            revert SafeCastOverflowedIntDowncast(40, value);\\n        }\\n    }\\n\\n    /**\\n     * @dev Returns the downcasted int32 from int256, reverting on\\n     * overflow (when the input is less than smallest int32 or\\n     * greater than largest int32).\\n     *\\n     * Counterpart to Solidity's `int32` operator.\\n     *\\n     * Requirements:\\n     *\\n     * - input must fit into 32 bits\\n     */\\n    function toInt32(int256 value) internal pure returns (int32 downcasted) {\\n        downcasted = int32(value);\\n        if (downcasted != value) {\\n            revert SafeCastOverflowedIntDowncast(32, value);\\n        }\\n    }\\n\\n    /**\\n     * @dev Returns the downcasted int24 from int256, reverting on\\n     * overflow (when the input is less than smallest int24 or\\n     * greater than largest int24).\\n     *\\n     * Counterpart to Solidity's `int24` operator.\\n     *\\n     * Requirements:\\n     *\\n     * - input must fit into 24 bits\\n     */\\n    function toInt24(int256 value) internal pure returns (int24 downcasted) {\\n        downcasted = int24(value);\\n        if (downcasted != value) {\\n            revert SafeCastOverflowedIntDowncast(24, value);\\n        }\\n    }\\n\\n    /**\\n     * @dev Returns the downcasted int16 from int256, reverting on\\n     * overflow (when the input is less than smallest int16 or\\n     * greater than largest int16).\\n     *\\n     * Counterpart to Solidity's `int16` operator.\\n     *\\n     * Requirements:\\n     *\\n     * - input must fit into 16 bits\\n     */\\n    function toInt16(int256 value) internal pure returns (int16 downcasted) {\\n        downcasted = int16(value);\\n        if (downcasted != value) {\\n            revert SafeCastOverflowedIntDowncast(16, value);\\n        }\\n    }\\n\\n    /**\\n     * @dev Returns the downcasted int8 from int256, reverting on\\n     * overflow (when the input is less than smallest int8 or\\n     * greater than largest int8).\\n     *\\n     * Counterpart to Solidity's `int8` operator.\\n     *\\n     * Requirements:\\n     *\\n     * - input must fit into 8 bits\\n     */\\n    function toInt8(int256 value) internal pure returns (int8 downcasted) {\\n        downcasted = int8(value);\\n        if (downcasted != value) {\\n            revert SafeCastOverflowedIntDowncast(8, value);\\n        }\\n    }\\n\\n    /**\\n     * @dev Converts an unsigned uint256 into a signed int256.\\n     *\\n     * Requirements:\\n     *\\n     * - input must be less than or equal to maxInt256.\\n     */\\n    function toInt256(uint256 value) internal pure returns (int256) {\\n        // Note: Unsafe cast below is okay because `type(int256).max` is guaranteed to be positive\\n        if (value > uint256(type(int256).max)) {\\n            revert SafeCastOverflowedUintToInt(value);\\n        }\\n        return int256(value);\\n    }\\n}\\n\"},\"@openzeppelin/contracts@5.0.1/interfaces/IERC5805.sol\":{\"content\":\"// SPDX-License-Identifier: MIT\\n// OpenZeppelin Contracts (last updated v5.0.0) (interfaces/IERC5805.sol)\\n\\npragma solidity ^0.8.20;\\n\\nimport {IVotes} from \\\"../governance/utils/IVotes.sol\\\";\\nimport {IERC6372} from \\\"./IERC6372.sol\\\";\\n\\ninterface IERC5805 is IERC6372, IVotes {}\\n\"},\"@openzeppelin/contracts@5.0.1/utils/Strings.sol\":{\"content\":\"// SPDX-License-Identifier: MIT\\n// OpenZeppelin Contracts (last updated v5.0.0) (utils/Strings.sol)\\n\\npragma solidity ^0.8.20;\\n\\nimport {Math} from \\\"./math/Math.sol\\\";\\nimport {SignedMath} from \\\"./math/SignedMath.sol\\\";\\n\\n/**\\n * @dev String operations.\\n */\\nlibrary Strings {\\n    bytes16 private constant HEX_DIGITS = \\\"0123456789abcdef\\\";\\n    uint8 private constant ADDRESS_LENGTH = 20;\\n\\n    /**\\n     * @dev The `value` string doesn't fit in the specified `length`.\\n     */\\n    error StringsInsufficientHexLength(uint256 value, uint256 length);\\n\\n    /**\\n     * @dev Converts a `uint256` to its ASCII `string` decimal representation.\\n     */\\n    function toString(uint256 value) internal pure returns (string memory) {\\n        unchecked {\\n            uint256 length = Math.log10(value) + 1;\\n            string memory buffer = new string(length);\\n            uint256 ptr;\\n            /// @solidity memory-safe-assembly\\n            assembly {\\n                ptr := add(buffer, add(32, length))\\n            }\\n            while (true) {\\n                ptr--;\\n                /// @solidity memory-safe-assembly\\n                assembly {\\n                    mstore8(ptr, byte(mod(value, 10), HEX_DIGITS))\\n                }\\n                value /= 10;\\n                if (value == 0) break;\\n            }\\n            return buffer;\\n        }\\n    }\\n\\n    /**\\n     * @dev Converts a `int256` to its ASCII `string` decimal representation.\\n     */\\n    function toStringSigned(int256 value) internal pure returns (string memory) {\\n        return string.concat(value < 0 ? \\\"-\\\" : \\\"\\\", toString(SignedMath.abs(value)));\\n    }\\n\\n    /**\\n     * @dev Converts a `uint256` to its ASCII `string` hexadecimal representation.\\n     */\\n    function toHexString(uint256 value) internal pure returns (string memory) {\\n        unchecked {\\n            return toHexString(value, Math.log256(value) + 1);\\n        }\\n    }\\n\\n    /**\\n     * @dev Converts a `uint256` to its ASCII `string` hexadecimal representation with fixed length.\\n     */\\n    function toHexString(uint256 value, uint256 length) internal pure returns (string memory) {\\n        uint256 localValue = value;\\n        bytes memory buffer = new bytes(2 * length + 2);\\n        buffer[0] = \\\"0\\\";\\n        buffer[1] = \\\"x\\\";\\n        for (uint256 i = 2 * length + 1; i > 1; --i) {\\n            buffer[i] = HEX_DIGITS[localValue & 0xf];\\n            localValue >>= 4;\\n        }\\n        if (localValue != 0) {\\n            revert StringsInsufficientHexLength(value, length);\\n        }\\n        return string(buffer);\\n    }\\n\\n    /**\\n     * @dev Converts an `address` with fixed length of 20 bytes to its not checksummed ASCII `string` hexadecimal\\n     * representation.\\n     */\\n    function toHexString(address addr) internal pure returns (string memory) {\\n        return toHexString(uint256(uint160(addr)), ADDRESS_LENGTH);\\n    }\\n\\n    /**\\n     * @dev Returns true if the two strings are equal.\\n     */\\n    function equal(string memory a, string memory b) internal pure returns (bool) {\\n        return bytes(a).length == bytes(b).length && keccak256(bytes(a)) == keccak256(bytes(b));\\n    }\\n}\\n\"},\"@openzeppelin/contracts@5.0.1/utils/StorageSlot.sol\":{\"content\":\"// SPDX-License-Identifier: MIT\\n// OpenZeppelin Contracts (last updated v5.0.0) (utils/StorageSlot.sol)\\n// This file was procedurally generated from scripts/generate/templates/StorageSlot.js.\\n\\npragma solidity ^0.8.20;\\n\\n/**\\n * @dev Library for reading and writing primitive types to specific storage slots.\\n *\\n * Storage slots are often used to avoid storage conflict when dealing with upgradeable contracts.\\n * This library helps with reading and writing to such slots without the need for inline assembly.\\n *\\n * The functions in this library return Slot structs that contain a `value` member that can be used to read or write.\\n *\\n * Example usage to set ERC1967 implementation slot:\\n * ```solidity\\n * contract ERC1967 {\\n *     bytes32 internal constant _IMPLEMENTATION_SLOT = 0x360894a13ba1a3210667c828492db98dca3e2076cc3735a920a3ca505d382bbc;\\n *\\n *     function _getImplementation() internal view returns (address) {\\n *         return StorageSlot.getAddressSlot(_IMPLEMENTATION_SLOT).value;\\n *     }\\n *\\n *     function _setImplementation(address newImplementation) internal {\\n *         require(newImplementation.code.length > 0);\\n *         StorageSlot.getAddressSlot(_IMPLEMENTATION_SLOT).value = newImplementation;\\n *     }\\n * }\\n * ```\\n */\\nlibrary StorageSlot {\\n    struct AddressSlot {\\n        address value;\\n    }\\n\\n    struct BooleanSlot {\\n        bool value;\\n    }\\n\\n    struct Bytes32Slot {\\n        bytes32 value;\\n    }\\n\\n    struct Uint256Slot {\\n        uint256 value;\\n    }\\n\\n    struct StringSlot {\\n        string value;\\n    }\\n\\n    struct BytesSlot {\\n        bytes value;\\n    }\\n\\n    /**\\n     * @dev Returns an `AddressSlot` with member `value` located at `slot`.\\n     */\\n    function getAddressSlot(bytes32 slot) internal pure returns (AddressSlot storage r) {\\n        /// @solidity memory-safe-assembly\\n        assembly {\\n            r.slot := slot\\n        }\\n    }\\n\\n    /**\\n     * @dev Returns an `BooleanSlot` with member `value` located at `slot`.\\n     */\\n    function getBooleanSlot(bytes32 slot) internal pure returns (BooleanSlot storage r) {\\n        /// @solidity memory-safe-assembly\\n        assembly {\\n            r.slot := slot\\n        }\\n    }\\n\\n    /**\\n     * @dev Returns an `Bytes32Slot` with member `value` located at `slot`.\\n     */\\n    function getBytes32Slot(bytes32 slot) internal pure returns (Bytes32Slot storage r) {\\n        /// @solidity memory-safe-assembly\\n        assembly {\\n            r.slot := slot\\n        }\\n    }\\n\\n    /**\\n     * @dev Returns an `Uint256Slot` with member `value` located at `slot`.\\n     */\\n    function getUint256Slot(bytes32 slot) internal pure returns (Uint256Slot storage r) {\\n        /// @solidity memory-safe-assembly\\n        assembly {\\n            r.slot := slot\\n        }\\n    }\\n\\n    /**\\n     * @dev Returns an `StringSlot` with member `value` located at `slot`.\\n     */\\n    function getStringSlot(bytes32 slot) internal pure returns (StringSlot storage r) {\\n        /// @solidity memory-safe-assembly\\n        assembly {\\n            r.slot := slot\\n        }\\n    }\\n\\n    /**\\n     * @dev Returns an `StringSlot` representation of the string storage pointer `store`.\\n     */\\n    function getStringSlot(string storage store) internal pure returns (StringSlot storage r) {\\n        /// @solidity memory-safe-assembly\\n        assembly {\\n            r.slot := store.slot\\n        }\\n    }\\n\\n    /**\\n     * @dev Returns an `BytesSlot` with member `value` located at `slot`.\\n     */\\n    function getBytesSlot(bytes32 slot) internal pure returns (BytesSlot storage r) {\\n        /// @solidity memory-safe-assembly\\n        assembly {\\n            r.slot := slot\\n        }\\n    }\\n\\n    /**\\n     * @dev Returns an `BytesSlot` representation of the bytes storage pointer `store`.\\n     */\\n    function getBytesSlot(bytes storage store) internal pure returns (BytesSlot storage r) {\\n        /// @solidity memory-safe-assembly\\n        assembly {\\n            r.slot := store.slot\\n        }\\n    }\\n}\\n\"},\"@openzeppelin/contracts@5.0.1/interfaces/IERC6372.sol\":{\"content\":\"// SPDX-License-Identifier: MIT\\n// OpenZeppelin Contracts (last updated v5.0.0) (interfaces/IERC6372.sol)\\n\\npragma solidity ^0.8.20;\\n\\ninterface IERC6372 {\\n    /**\\n     * @dev Clock used for flagging checkpoints. Can be overridden to implement timestamp based checkpoints (and voting).\\n     */\\n    function clock() external view returns (uint48);\\n\\n    /**\\n     * @dev Description of the clock\\n     */\\n    // solhint-disable-next-line func-name-mixedcase\\n    function CLOCK_MODE() external view returns (string memory);\\n}\\n\"},\"@openzeppelin/contracts@5.0.1/governance/utils/IVotes.sol\":{\"content\":\"// SPDX-License-Identifier: MIT\\n// OpenZeppelin Contracts (last updated v5.0.0) (governance/utils/IVotes.sol)\\npragma solidity ^0.8.20;\\n\\n/**\\n * @dev Common interface for {ERC20Votes}, {ERC721Votes}, and other {Votes}-enabled contracts.\\n */\\ninterface IVotes {\\n    /**\\n     * @dev The signature used has expired.\\n     */\\n    error VotesExpiredSignature(uint256 expiry);\\n\\n    /**\\n     * @dev Emitted when an account changes their delegate.\\n     */\\n    event DelegateChanged(address indexed delegator, address indexed fromDelegate, address indexed toDelegate);\\n\\n    /**\\n     * @dev Emitted when a token transfer or delegate change results in changes to a delegate's number of voting units.\\n     */\\n    event DelegateVotesChanged(address indexed delegate, uint256 previousVotes, uint256 newVotes);\\n\\n    /**\\n     * @dev Returns the current amount of votes that `account` has.\\n     */\\n    function getVotes(address account) external view returns (uint256);\\n\\n    /**\\n     * @dev Returns the amount of votes that `account` had at a specific moment in the past. If the `clock()` is\\n     * configured to use block numbers, this will return the value at the end of the corresponding block.\\n     */\\n    function getPastVotes(address account, uint256 timepoint) external view returns (uint256);\\n\\n    /**\\n     * @dev Returns the total supply of votes available at a specific moment in the past. If the `clock()` is\\n     * configured to use block numbers, this will return the value at the end of the corresponding block.\\n     *\\n     * NOTE: This value is the sum of all available votes, which is not necessarily the sum of all delegated votes.\\n     * Votes that have not been delegated are still part of total supply, even though they would not participate in a\\n     * vote.\\n     */\\n    function getPastTotalSupply(uint256 timepoint) external view returns (uint256);\\n\\n    /**\\n     * @dev Returns the delegate that `account` has chosen.\\n     */\\n    function delegates(address account) external view returns (address);\\n\\n    /**\\n     * @dev Delegates votes from the sender to `delegatee`.\\n     */\\n    function delegate(address delegatee) external;\\n\\n    /**\\n     * @dev Delegates votes from signer to `delegatee`.\\n     */\\n    function delegateBySig(address delegatee, uint256 nonce, uint256 expiry, uint8 v, bytes32 r, bytes32 s) external;\\n}\\n\"},\"@openzeppelin/contracts@5.0.1/utils/math/SignedMath.sol\":{\"content\":\"// SPDX-License-Identifier: MIT\\n// OpenZeppelin Contracts (last updated v5.0.0) (utils/math/SignedMath.sol)\\n\\npragma solidity ^0.8.20;\\n\\n/**\\n * @dev Standard signed math utilities missing in the Solidity language.\\n */\\nlibrary SignedMath {\\n    /**\\n     * @dev Returns the largest of two signed numbers.\\n     */\\n    function max(int256 a, int256 b) internal pure returns (int256) {\\n        return a > b ? a : b;\\n    }\\n\\n    /**\\n     * @dev Returns the smallest of two signed numbers.\\n     */\\n    function min(int256 a, int256 b) internal pure returns (int256) {\\n        return a < b ? a : b;\\n    }\\n\\n    /**\\n     * @dev Returns the average of two signed numbers without overflow.\\n     * The result is rounded towards zero.\\n     */\\n    function average(int256 a, int256 b) internal pure returns (int256) {\\n        // Formula from the book \\\"Hacker's Delight\\\"\\n        int256 x = (a & b) + ((a ^ b) >> 1);\\n        return x + (int256(uint256(x) >> 255) & (a ^ b));\\n    }\\n\\n    /**\\n     * @dev Returns the absolute unsigned value of a signed value.\\n     */\\n    function abs(int256 n) internal pure returns (uint256) {\\n        unchecked {\\n            // must be unchecked in order to support `n = type(int256).min`\\n            return uint256(n >= 0 ? n : -n);\\n        }\\n    }\\n}\\n\"}},\"settings\":{\"optimizer\":{\"enabled\":false,\"runs\":200},\"outputSelection\":{\"*\":{\"\":[\"ast\"],\"*\":[\"abi\",\"metadata\",\"devdoc\",\"userdoc\",\"storageLayout\",\"evm.legacyAssembly\",\"evm.bytecode\",\"evm.deployedBytecode\",\"evm.methodIdentifiers\",\"evm.gasEstimates\",\"evm.assembly\"]}},\"remappings\":[]}}",
  "name": "TokenContract",
  "bytecode": {
    "linkReferences": {},
    "object": "61016060405234801562000011575f80fd5b5060405162005185380380620051858339818101604052810190620000379190620011b5565b82806040518060400160405280600181526020017f3100000000000000000000000000000000000000000000000000000000000000815250858581600390816200008291906200147a565b5080600490816200009491906200147a565b505050620000ad6005836200016360201b90919060201c565b6101208181525050620000cb6006826200016360201b90919060201c565b6101408181525050818051906020012060e08181525050808051906020012061010081815250504660a081815250506200010a620001b860201b60201c565b608081815250503073ffffffffffffffffffffffffffffffffffffffff1660c08173ffffffffffffffffffffffffffffffffffffffff16815250505050506200015a33826200021460201b60201c565b50505062001a25565b5f602083511015620001885762000180836200029e60201b60201c565b9050620001b2565b826200019a836200030860201b60201c565b5f019081620001aa91906200147a565b5060ff5f1b90505b92915050565b5f7f8b73c3c69bb8fe3d512ecc4cf759cc79239f7b179b0ffacaa9a75d522b39400f60e051610100514630604051602001620001f9959493929190620015cc565b60405160208183030381529060405280519060200120905090565b5f73ffffffffffffffffffffffffffffffffffffffff168273ffffffffffffffffffffffffffffffffffffffff160362000287575f6040517fec442f050000000000000000000000000000000000000000000000000000000081526004016200027e919062001627565b60405180910390fd5b6200029a5f83836200031160201b60201c565b5050565b5f80829050601f81511115620002ed57826040517f305a27a9000000000000000000000000000000000000000000000000000000008152600401620002e4919062001692565b60405180910390fd5b805181620002fb90620016e3565b5f1c175f1b915050919050565b5f819050919050565b620003248383836200032960201b60201c565b505050565b6200033c838383620003fb60201b60201c565b5f73ffffffffffffffffffffffffffffffffffffffff168373ffffffffffffffffffffffffffffffffffffffff1603620003e3575f620003816200061f60201b60201c565b90505f620003946200062860201b60201c565b905080821115620003e05781816040517f1cb15d26000000000000000000000000000000000000000000000000000000008152600401620003d792919062001752565b60405180910390fd5b50505b620003f68383836200064b60201b60201c565b505050565b5f73ffffffffffffffffffffffffffffffffffffffff168373ffffffffffffffffffffffffffffffffffffffff16036200044f578060025f828254620004429190620017aa565b9250508190555062000520565b5f805f8573ffffffffffffffffffffffffffffffffffffffff1673ffffffffffffffffffffffffffffffffffffffff1681526020019081526020015f2054905081811015620004db578381836040517fe450d38c000000000000000000000000000000000000000000000000000000008152600401620004d293929190620017e4565b60405180910390fd5b8181035f808673ffffffffffffffffffffffffffffffffffffffff1673ffffffffffffffffffffffffffffffffffffffff1681526020019081526020015f2081905550505b5f73ffffffffffffffffffffffffffffffffffffffff168273ffffffffffffffffffffffffffffffffffffffff160362000569578060025f8282540392505081905550620005b3565b805f808473ffffffffffffffffffffffffffffffffffffffff1673ffffffffffffffffffffffffffffffffffffffff1681526020019081526020015f205f82825401925050819055505b8173ffffffffffffffffffffffffffffffffffffffff168373ffffffffffffffffffffffffffffffffffffffff167fddf252ad1be2c89b69c2b068fc378daa952ba7f163c4a11628f55a4df523b3ef836040516200061291906200181f565b60405180910390a3505050565b5f600254905090565b5f79ffffffffffffffffffffffffffffffffffffffffffffffffffff8016905090565b5f73ffffffffffffffffffffffffffffffffffffffff168373ffffffffffffffffffffffffffffffffffffffff1603620006b157620006ae600a6200074f60201b62000d3517620006a2846200076660201b60201c565b620007d660201b60201c565b50505b5f73ffffffffffffffffffffffffffffffffffffffff168273ffffffffffffffffffffffffffffffffffffffff1603620007175762000714600a6200082560201b62000d4a1762000708846200076660201b60201c565b620007d660201b60201c565b50505b6200074a6200072c846200083c60201b60201c565b6200073d846200083c60201b60201c565b83620008a160201b60201c565b505050565b5f81836200075e91906200185f565b905092915050565b5f79ffffffffffffffffffffffffffffffffffffffffffffffffffff8016821115620007ce5760d0826040517f6dfcc650000000000000000000000000000000000000000000000000000000008152600401620007c592919062001900565b60405180910390fd5b819050919050565b5f8062000819620007ec62000b4b60201b60201c565b62000808620008018862000b6160201b60201c565b868860201c565b8762000bcf60201b9092919060201c565b91509150935093915050565b5f81836200083491906200192b565b905092915050565b5f60085f8373ffffffffffffffffffffffffffffffffffffffff1673ffffffffffffffffffffffffffffffffffffffff1681526020019081526020015f205f9054906101000a900473ffffffffffffffffffffffffffffffffffffffff169050919050565b8173ffffffffffffffffffffffffffffffffffffffff168373ffffffffffffffffffffffffffffffffffffffff1614158015620008dd57505f81115b1562000b46575f73ffffffffffffffffffffffffffffffffffffffff168373ffffffffffffffffffffffffffffffffffffffff161462000a14575f806200098360095f8773ffffffffffffffffffffffffffffffffffffffff1673ffffffffffffffffffffffffffffffffffffffff1681526020019081526020015f206200082560201b62000d4a1762000977866200076660201b60201c565b620007d660201b60201c565b79ffffffffffffffffffffffffffffffffffffffffffffffffffff16915079ffffffffffffffffffffffffffffffffffffffffffffffffffff1691508473ffffffffffffffffffffffffffffffffffffffff167fdec2bacdd2f05b59de34da9b523dff8be42e5e38e818c82fdb0bae774387a724838360405162000a0992919062001752565b60405180910390a250505b5f73ffffffffffffffffffffffffffffffffffffffff168273ffffffffffffffffffffffffffffffffffffffff161462000b45575f8062000ab460095f8673ffffffffffffffffffffffffffffffffffffffff1673ffffffffffffffffffffffffffffffffffffffff1681526020019081526020015f206200074f60201b62000d351762000aa8866200076660201b60201c565b620007d660201b60201c565b79ffffffffffffffffffffffffffffffffffffffffffffffffffff16915079ffffffffffffffffffffffffffffffffffffffffffffffffffff1691508373ffffffffffffffffffffffffffffffffffffffff167fdec2bacdd2f05b59de34da9b523dff8be42e5e38e818c82fdb0bae774387a724838360405162000b3a92919062001752565b60405180910390a250505b5b505050565b5f62000b5c62000bf260201b60201c565b905090565b5f80825f018054905090505f811462000bc55762000b96835f0160018362000b8a91906200197f565b62000c0960201b60201c565b5f0160069054906101000a900479ffffffffffffffffffffffffffffffffffffffffffffffffffff1662000bc7565b5f5b915050919050565b5f8062000be6855f01858562000c1b60201b60201c565b91509150935093915050565b5f62000c044362000f9c60201b60201c565b905090565b5f825f528160205f2001905092915050565b5f805f858054905090505f81111562000eb4575f62000c4f8760018462000c4391906200197f565b62000c0960201b60201c565b6040518060400160405290815f82015f9054906101000a900465ffffffffffff1665ffffffffffff1665ffffffffffff1681526020015f820160069054906101000a900479ffffffffffffffffffffffffffffffffffffffffffffffffffff1679ffffffffffffffffffffffffffffffffffffffffffffffffffff1679ffffffffffffffffffffffffffffffffffffffffffffffffffff168152505090508565ffffffffffff16815f015165ffffffffffff16111562000d3b576040517f2520601d00000000000000000000000000000000000000000000000000000000815260040160405180910390fd5b8565ffffffffffff16815f015165ffffffffffff160362000dc9578462000d778860018562000d6b91906200197f565b62000c0960201b60201c565b5f0160066101000a81548179ffffffffffffffffffffffffffffffffffffffffffffffffffff021916908379ffffffffffffffffffffffffffffffffffffffffffffffffffff16021790555062000ea2565b8660405180604001604052808865ffffffffffff1681526020018779ffffffffffffffffffffffffffffffffffffffffffffffffffff16815250908060018154018082558091505060019003905f5260205f20015f909190919091505f820151815f015f6101000a81548165ffffffffffff021916908365ffffffffffff1602179055506020820151815f0160066101000a81548179ffffffffffffffffffffffffffffffffffffffffffffffffffff021916908379ffffffffffffffffffffffffffffffffffffffffffffffffffff16021790555050505b80602001518593509350505062000f94565b8560405180604001604052808765ffffffffffff1681526020018679ffffffffffffffffffffffffffffffffffffffffffffffffffff16815250908060018154018082558091505060019003905f5260205f20015f909190919091505f820151815f015f6101000a81548165ffffffffffff021916908365ffffffffffff1602179055506020820151815f0160066101000a81548179ffffffffffffffffffffffffffffffffffffffffffffffffffff021916908379ffffffffffffffffffffffffffffffffffffffffffffffffffff16021790555050505f8492509250505b935093915050565b5f65ffffffffffff801682111562000ff0576030826040517f6dfcc65000000000000000000000000000000000000000000000000000000000815260040162000fe7929190620019fa565b60405180910390fd5b819050919050565b5f604051905090565b5f80fd5b5f80fd5b5f80fd5b5f80fd5b5f601f19601f8301169050919050565b7f4e487b71000000000000000000000000000000000000000000000000000000005f52604160045260245ffd5b620010598262001011565b810181811067ffffffffffffffff821117156200107b576200107a62001021565b5b80604052505050565b5f6200108f62000ff8565b90506200109d82826200104e565b919050565b5f67ffffffffffffffff821115620010bf57620010be62001021565b5b620010ca8262001011565b9050602081019050919050565b5f5b83811015620010f6578082015181840152602081019050620010d9565b5f8484015250505050565b5f620011176200111184620010a2565b62001084565b9050828152602081018484840111156200113657620011356200100d565b5b62001143848285620010d7565b509392505050565b5f82601f83011262001162576200116162001009565b5b81516200117484826020860162001101565b91505092915050565b5f819050919050565b62001191816200117d565b81146200119c575f80fd5b50565b5f81519050620011af8162001186565b92915050565b5f805f60608486031215620011cf57620011ce62001001565b5b5f84015167ffffffffffffffff811115620011ef57620011ee62001005565b5b620011fd868287016200114b565b935050602084015167ffffffffffffffff81111562001221576200122062001005565b5b6200122f868287016200114b565b925050604062001242868287016200119f565b9150509250925092565b5f81519050919050565b7f4e487b71000000000000000000000000000000000000000000000000000000005f52602260045260245ffd5b5f60028204905060018216806200129b57607f821691505b602082108103620012b157620012b062001256565b5b50919050565b5f819050815f5260205f209050919050565b5f6020601f8301049050919050565b5f82821b905092915050565b5f60088302620013157fffffffffffffffffffffffffffffffffffffffffffffffffffffffffffffffff82620012d8565b620013218683620012d8565b95508019841693508086168417925050509392505050565b5f819050919050565b5f620013626200135c62001356846200117d565b62001339565b6200117d565b9050919050565b5f819050919050565b6200137d8362001342565b620013956200138c8262001369565b848454620012e4565b825550505050565b5f90565b620013ab6200139d565b620013b881848462001372565b505050565b5b81811015620013df57620013d35f82620013a1565b600181019050620013be565b5050565b601f8211156200142e57620013f881620012b7565b6200140384620012c9565b8101602085101562001413578190505b6200142b6200142285620012c9565b830182620013bd565b50505b505050565b5f82821c905092915050565b5f620014505f198460080262001433565b1980831691505092915050565b5f6200146a83836200143f565b9150826002028217905092915050565b62001485826200124c565b67ffffffffffffffff811115620014a157620014a062001021565b5b620014ad825462001283565b620014ba828285620013e3565b5f60209050601f831160018114620014f0575f8415620014db578287015190505b620014e785826200145d565b86555062001556565b601f1984166200150086620012b7565b5f5b82811015620015295784890151825560018201915060208501945060208101905062001502565b8683101562001549578489015162001545601f8916826200143f565b8355505b6001600288020188555050505b505050505050565b5f819050919050565b62001572816200155e565b82525050565b62001583816200117d565b82525050565b5f73ffffffffffffffffffffffffffffffffffffffff82169050919050565b5f620015b48262001589565b9050919050565b620015c681620015a8565b82525050565b5f60a082019050620015e15f83018862001567565b620015f0602083018762001567565b620015ff604083018662001567565b6200160e606083018562001578565b6200161d6080830184620015bb565b9695505050505050565b5f6020820190506200163c5f830184620015bb565b92915050565b5f82825260208201905092915050565b5f6200165e826200124c565b6200166a818562001642565b93506200167c818560208601620010d7565b620016878162001011565b840191505092915050565b5f6020820190508181035f830152620016ac818462001652565b905092915050565b5f81519050919050565b5f819050602082019050919050565b5f620016da82516200155e565b80915050919050565b5f620016ef82620016b4565b82620016fb84620016be565b90506200170881620016cd565b925060208210156200174b57620017467fffffffffffffffffffffffffffffffffffffffffffffffffffffffffffffffff83602003600802620012d8565b831692505b5050919050565b5f604082019050620017675f83018562001578565b62001776602083018462001578565b9392505050565b7f4e487b71000000000000000000000000000000000000000000000000000000005f52601160045260245ffd5b5f620017b6826200117d565b9150620017c3836200117d565b9250828201905080821115620017de57620017dd6200177d565b5b92915050565b5f606082019050620017f95f830186620015bb565b62001808602083018562001578565b62001817604083018462001578565b949350505050565b5f602082019050620018345f83018462001578565b92915050565b5f79ffffffffffffffffffffffffffffffffffffffffffffffffffff82169050919050565b5f6200186b826200183a565b915062001878836200183a565b9250828201905079ffffffffffffffffffffffffffffffffffffffffffffffffffff811115620018ad57620018ac6200177d565b5b92915050565b5f819050919050565b5f60ff82169050919050565b5f620018e8620018e2620018dc84620018b3565b62001339565b620018bc565b9050919050565b620018fa81620018c8565b82525050565b5f604082019050620019155f830185620018ef565b62001924602083018462001578565b9392505050565b5f62001937826200183a565b915062001944836200183a565b9250828203905079ffffffffffffffffffffffffffffffffffffffffffffffffffff8111156200197957620019786200177d565b5b92915050565b5f6200198b826200117d565b915062001998836200117d565b9250828203905081811115620019b357620019b26200177d565b5b92915050565b5f819050919050565b5f620019e2620019dc620019d684620019b9565b62001339565b620018bc565b9050919050565b620019f481620019c2565b82525050565b5f60408201905062001a0f5f830185620019e9565b62001a1e602083018462001578565b9392505050565b60805160a05160c05160e05161010051610120516101405161370e62001a775f395f6112bf01525f61128401525f6116c701525f6116a601525f610efd01525f610f5301525f610f7c015261370e5ff3fe608060405234801561000f575f80fd5b506004361061014b575f3560e01c806370a08231116100c15780639ab24eb01161007a5780639ab24eb0146103e1578063a9059cbb14610411578063c3cda52014610441578063d505accf1461045d578063dd62ed3e14610479578063f1127ed8146104a95761014b565b806370a08231146102f15780637ecebe001461032157806384b0196e146103515780638e539e8c1461037557806391ddadf4146103a557806395d89b41146103c35761014b565b80633644e515116101135780633644e515146102095780633a46b1a8146102275780634bf5d7e914610257578063587cde1e146102755780635c19a95c146102a55780636fcfff45146102c15761014b565b806306fdde031461014f578063095ea7b31461016d57806318160ddd1461019d57806323b872dd146101bb578063313ce567146101eb575b5f80fd5b6101576104d9565b6040516101649190612a31565b60405180910390f35b61018760048036038101906101829190612ae2565b610569565b6040516101949190612b3a565b60405180910390f35b6101a561058b565b6040516101b29190612b62565b60405180910390f35b6101d560048036038101906101d09190612b7b565b610594565b6040516101e29190612b3a565b60405180910390f35b6101f36105c2565b6040516102009190612be6565b60405180910390f35b6102116105ca565b60405161021e9190612c17565b60405180910390f35b610241600480360381019061023c9190612ae2565b6105d8565b60405161024e9190612b62565b60405180910390f35b61025f6106ae565b60405161026c9190612a31565b60405180910390f35b61028f600480360381019061028a9190612c30565b610742565b60405161029c9190612c6a565b60405180910390f35b6102bf60048036038101906102ba9190612c30565b6107a7565b005b6102db60048036038101906102d69190612c30565b6107c0565b6040516102e89190612ca1565b60405180910390f35b61030b60048036038101906103069190612c30565b6107d1565b6040516103189190612b62565b60405180910390f35b61033b60048036038101906103369190612c30565b610816565b6040516103489190612b62565b60405180910390f35b610359610827565b60405161036c9796959493929190612dab565b60405180910390f35b61038f600480360381019061038a9190612e2d565b6108cc565b60405161039c9190612b62565b60405180910390f35b6103ad610966565b6040516103ba9190612e78565b60405180910390f35b6103cb610974565b6040516103d89190612a31565b60405180910390f35b6103fb60048036038101906103f69190612c30565b610a04565b6040516104089190612b62565b60405180910390f35b61042b60048036038101906104269190612ae2565b610a6d565b6040516104389190612b3a565b60405180910390f35b61045b60048036038101906104569190612ee5565b610a8f565b005b61047760048036038101906104729190612f6e565b610b54565b005b610493600480360381019061048e919061300b565b610c99565b6040516104a09190612b62565b60405180910390f35b6104c360048036038101906104be9190613073565b610d1b565b6040516104d09190613121565b60405180910390f35b6060600380546104e890613167565b80601f016020809104026020016040519081016040528092919081815260200182805461051490613167565b801561055f5780601f106105365761010080835404028352916020019161055f565b820191905f5260205f20905b81548152906001019060200180831161054257829003601f168201915b5050505050905090565b5f80610573610d5f565b9050610580818585610d66565b600191505092915050565b5f600254905090565b5f8061059e610d5f565b90506105ab858285610d78565b6105b6858585610e0a565b60019150509392505050565b5f6012905090565b5f6105d3610efa565b905090565b5f806105e2610966565b90508065ffffffffffff1683106106325782816040517fecd3f81e000000000000000000000000000000000000000000000000000000008152600401610629929190613197565b60405180910390fd5b61068961063e84610fb0565b60095f8773ffffffffffffffffffffffffffffffffffffffff1673ffffffffffffffffffffffffffffffffffffffff1681526020019081526020015f2061100990919063ffffffff16565b79ffffffffffffffffffffffffffffffffffffffffffffffffffff1691505092915050565b60606106b86110f6565b65ffffffffffff166106c8610966565b65ffffffffffff1614610707576040517f6ff0714000000000000000000000000000000000000000000000000000000000815260040160405180910390fd5b6040518060400160405280601d81526020017f6d6f64653d626c6f636b6e756d6265722666726f6d3d64656661756c74000000815250905090565b5f60085f8373ffffffffffffffffffffffffffffffffffffffff1673ffffffffffffffffffffffffffffffffffffffff1681526020019081526020015f205f9054906101000a900473ffffffffffffffffffffffffffffffffffffffff169050919050565b5f6107b0610d5f565b90506107bc8183611105565b5050565b5f6107ca82611215565b9050919050565b5f805f8373ffffffffffffffffffffffffffffffffffffffff1673ffffffffffffffffffffffffffffffffffffffff1681526020019081526020015f20549050919050565b5f6108208261126a565b9050919050565b5f6060805f805f606061083861127b565b6108406112b6565b46305f801b5f67ffffffffffffffff81111561085f5761085e6131be565b5b60405190808252806020026020018201604052801561088d5781602001602082028036833780820191505090505b507f0f00000000000000000000000000000000000000000000000000000000000000959493929190965096509650965096509650965090919293949596565b5f806108d6610966565b90508065ffffffffffff1683106109265782816040517fecd3f81e00000000000000000000000000000000000000000000000000000000815260040161091d929190613197565b60405180910390fd5b61094261093284610fb0565b600a61100990919063ffffffff16565b79ffffffffffffffffffffffffffffffffffffffffffffffffffff16915050919050565b5f61096f6110f6565b905090565b60606004805461098390613167565b80601f01602080910402602001604051908101604052809291908181526020018280546109af90613167565b80156109fa5780601f106109d1576101008083540402835291602001916109fa565b820191905f5260205f20905b8154815290600101906020018083116109dd57829003601f168201915b5050505050905090565b5f610a4a60095f8473ffffffffffffffffffffffffffffffffffffffff1673ffffffffffffffffffffffffffffffffffffffff1681526020019081526020015f206112f1565b79ffffffffffffffffffffffffffffffffffffffffffffffffffff169050919050565b5f80610a77610d5f565b9050610a84818585610e0a565b600191505092915050565b83421115610ad457836040517f4683af0e000000000000000000000000000000000000000000000000000000008152600401610acb9190612b62565b60405180910390fd5b5f610b35610b2d7fe48329057bfd03d55e49b547132e39cffd9c1820ad7b9d4c5307691425d15adf898989604051602001610b1294939291906131eb565b60405160208183030381529060405280519060200120611353565b85858561136c565b9050610b41818761139a565b610b4b8188611105565b50505050505050565b83421115610b9957836040517f62791302000000000000000000000000000000000000000000000000000000008152600401610b909190612b62565b60405180910390fd5b5f7f6e71edae12b1b97f4d1f60370fef10105fa2faae0126114a169c64845d6126c9888888610bc78c6113f1565b89604051602001610bdd9695949392919061322e565b6040516020818303038152906040528051906020012090505f610bff82611353565b90505f610c0e8287878761136c565b90508973ffffffffffffffffffffffffffffffffffffffff168173ffffffffffffffffffffffffffffffffffffffff1614610c8257808a6040517f4b800e46000000000000000000000000000000000000000000000000000000008152600401610c7992919061328d565b60405180910390fd5b610c8d8a8a8a610d66565b50505050505050505050565b5f60015f8473ffffffffffffffffffffffffffffffffffffffff1673ffffffffffffffffffffffffffffffffffffffff1681526020019081526020015f205f8373ffffffffffffffffffffffffffffffffffffffff1673ffffffffffffffffffffffffffffffffffffffff1681526020019081526020015f2054905092915050565b610d2361296b565b610d2d8383611444565b905092915050565b5f8183610d4291906132e1565b905092915050565b5f8183610d57919061332e565b905092915050565b5f33905090565b610d7383838360016114a3565b505050565b5f610d838484610c99565b90507fffffffffffffffffffffffffffffffffffffffffffffffffffffffffffffffff8114610e045781811015610df5578281836040517ffb8f41b2000000000000000000000000000000000000000000000000000000008152600401610dec9392919061337b565b60405180910390fd5b610e0384848484035f6114a3565b5b50505050565b5f73ffffffffffffffffffffffffffffffffffffffff168373ffffffffffffffffffffffffffffffffffffffff1603610e7a575f6040517f96c6fd1e000000000000000000000000000000000000000000000000000000008152600401610e719190612c6a565b60405180910390fd5b5f73ffffffffffffffffffffffffffffffffffffffff168273ffffffffffffffffffffffffffffffffffffffff1603610eea575f6040517fec442f05000000000000000000000000000000000000000000000000000000008152600401610ee19190612c6a565b60405180910390fd5b610ef5838383611672565b505050565b5f7f000000000000000000000000000000000000000000000000000000000000000073ffffffffffffffffffffffffffffffffffffffff163073ffffffffffffffffffffffffffffffffffffffff16148015610f7557507f000000000000000000000000000000000000000000000000000000000000000046145b15610fa2577f00000000000000000000000000000000000000000000000000000000000000009050610fad565b610faa611682565b90505b90565b5f65ffffffffffff8016821115611001576030826040517f6dfcc650000000000000000000000000000000000000000000000000000000008152600401610ff89291906133f2565b60405180910390fd5b819050919050565b5f80835f018054905090505f80829050600583111561108a575f61102c84611717565b846110379190613419565b9050611045875f018261180d565b5f015f9054906101000a900465ffffffffffff1665ffffffffffff168665ffffffffffff16101561107857809150611088565b600181611085919061344c565b92505b505b5f611099875f0187858561181f565b90505f81146110e8576110ba875f016001836110b59190613419565b61180d565b5f0160069054906101000a900479ffffffffffffffffffffffffffffffffffffffffffffffffffff166110ea565b5f5b94505050505092915050565b5f61110043610fb0565b905090565b5f61110f83610742565b90508160085f8573ffffffffffffffffffffffffffffffffffffffff1673ffffffffffffffffffffffffffffffffffffffff1681526020019081526020015f205f6101000a81548173ffffffffffffffffffffffffffffffffffffffff021916908373ffffffffffffffffffffffffffffffffffffffff1602179055508173ffffffffffffffffffffffffffffffffffffffff168173ffffffffffffffffffffffffffffffffffffffff168473ffffffffffffffffffffffffffffffffffffffff167f3134e8a2e6d97e929a7e54011ea5485d7d196dd5f0ba4d4ef95803e8e3fc257f60405160405180910390a4611210818361120b86611894565b6118a5565b505050565b5f61126361125e60095f8573ffffffffffffffffffffffffffffffffffffffff1673ffffffffffffffffffffffffffffffffffffffff1681526020019081526020015f20611b15565b611b24565b9050919050565b5f61127482611b7b565b9050919050565b60606112b160057f0000000000000000000000000000000000000000000000000000000000000000611bc190919063ffffffff16565b905090565b60606112ec60067f0000000000000000000000000000000000000000000000000000000000000000611bc190919063ffffffff16565b905090565b5f80825f018054905090505f81146113495761131b835f016001836113169190613419565b61180d565b5f0160069054906101000a900479ffffffffffffffffffffffffffffffffffffffffffffffffffff1661134b565b5f5b915050919050565b5f61136561135f610efa565b83611c6e565b9050919050565b5f805f8061137c88888888611cae565b92509250925061138c8282611d95565b829350505050949350505050565b5f6113a4836113f1565b90508082146113ec5782816040517f752d88c00000000000000000000000000000000000000000000000000000000081526004016113e392919061347f565b60405180910390fd5b505050565b5f60075f8373ffffffffffffffffffffffffffffffffffffffff1673ffffffffffffffffffffffffffffffffffffffff1681526020019081526020015f205f815480929190600101919050559050919050565b61144c61296b565b61149b8260095f8673ffffffffffffffffffffffffffffffffffffffff1673ffffffffffffffffffffffffffffffffffffffff1681526020019081526020015f20611ef790919063ffffffff16565b905092915050565b5f73ffffffffffffffffffffffffffffffffffffffff168473ffffffffffffffffffffffffffffffffffffffff1603611513575f6040517fe602df0500000000000000000000000000000000000000000000000000000000815260040161150a9190612c6a565b60405180910390fd5b5f73ffffffffffffffffffffffffffffffffffffffff168373ffffffffffffffffffffffffffffffffffffffff1603611583575f6040517f94280d6200000000000000000000000000000000000000000000000000000000815260040161157a9190612c6a565b60405180910390fd5b8160015f8673ffffffffffffffffffffffffffffffffffffffff1673ffffffffffffffffffffffffffffffffffffffff1681526020019081526020015f205f8573ffffffffffffffffffffffffffffffffffffffff1673ffffffffffffffffffffffffffffffffffffffff1681526020019081526020015f2081905550801561166c578273ffffffffffffffffffffffffffffffffffffffff168473ffffffffffffffffffffffffffffffffffffffff167f8c5be1e5ebec7d5bd14f71427d1e84f3dd0314c0f7b2291e5b200ac8c7c3b925846040516116639190612b62565b60405180910390a35b50505050565b61167d838383611fc6565b505050565b5f7f8b73c3c69bb8fe3d512ecc4cf759cc79239f7b179b0ffacaa9a75d522b39400f7f00000000000000000000000000000000000000000000000000000000000000007f000000000000000000000000000000000000000000000000000000000000000046306040516020016116fc9594939291906134a6565b60405160208183030381529060405280519060200120905090565b5f808203611727575f9050611808565b5f600161173384612074565b901c6001901b9050600181848161174d5761174c6134f7565b5b048201901c90506001818481611766576117656134f7565b5b048201901c9050600181848161177f5761177e6134f7565b5b048201901c90506001818481611798576117976134f7565b5b048201901c905060018184816117b1576117b06134f7565b5b048201901c905060018184816117ca576117c96134f7565b5b048201901c905060018184816117e3576117e26134f7565b5b048201901c9050611804818285816117fe576117fd6134f7565b5b0461214b565b9150505b919050565b5f825f528160205f2001905092915050565b5f5b81831015611889575f6118348484612163565b90508465ffffffffffff16611849878361180d565b5f015f9054906101000a900465ffffffffffff1665ffffffffffff16111561187357809250611883565b600181611880919061344c565b93505b50611821565b819050949350505050565b5f61189e826107d1565b9050919050565b8173ffffffffffffffffffffffffffffffffffffffff168373ffffffffffffffffffffffffffffffffffffffff16141580156118e057505f81115b15611b10575f73ffffffffffffffffffffffffffffffffffffffff168373ffffffffffffffffffffffffffffffffffffffff16146119fa575f8061196b60095f8773ffffffffffffffffffffffffffffffffffffffff1673ffffffffffffffffffffffffffffffffffffffff1681526020019081526020015f20610d4a61196686612188565b6121f5565b79ffffffffffffffffffffffffffffffffffffffffffffffffffff16915079ffffffffffffffffffffffffffffffffffffffffffffffffffff1691508473ffffffffffffffffffffffffffffffffffffffff167fdec2bacdd2f05b59de34da9b523dff8be42e5e38e818c82fdb0bae774387a72483836040516119ef929190613524565b60405180910390a250505b5f73ffffffffffffffffffffffffffffffffffffffff168273ffffffffffffffffffffffffffffffffffffffff1614611b0f575f80611a8060095f8673ffffffffffffffffffffffffffffffffffffffff1673ffffffffffffffffffffffffffffffffffffffff1681526020019081526020015f20610d35611a7b86612188565b6121f5565b79ffffffffffffffffffffffffffffffffffffffffffffffffffff16915079ffffffffffffffffffffffffffffffffffffffffffffffffffff1691508373ffffffffffffffffffffffffffffffffffffffff167fdec2bacdd2f05b59de34da9b523dff8be42e5e38e818c82fdb0bae774387a7248383604051611b04929190613524565b60405180910390a250505b5b505050565b5f815f01805490509050919050565b5f63ffffffff8016821115611b73576020826040517f6dfcc650000000000000000000000000000000000000000000000000000000008152600401611b6a929190613584565b60405180910390fd5b819050919050565b5f60075f8373ffffffffffffffffffffffffffffffffffffffff1673ffffffffffffffffffffffffffffffffffffffff1681526020019081526020015f20549050919050565b606060ff5f1b8314611bdd57611bd683612234565b9050611c68565b818054611be990613167565b80601f0160208091040260200160405190810160405280929190818152602001828054611c1590613167565b8015611c605780601f10611c3757610100808354040283529160200191611c60565b820191905f5260205f20905b815481529060010190602001808311611c4357829003601f168201915b505050505090505b92915050565b5f6040517f190100000000000000000000000000000000000000000000000000000000000081528360028201528260228201526042812091505092915050565b5f805f7f7fffffffffffffffffffffffffffffff5d576e7357a4501ddfe92f46681b20a0845f1c1115611cea575f600385925092509250611d8b565b5f6001888888886040515f8152602001604052604051611d0d94939291906135ab565b6020604051602081039080840390855afa158015611d2d573d5f803e3d5ffd5b5050506020604051035190505f73ffffffffffffffffffffffffffffffffffffffff168173ffffffffffffffffffffffffffffffffffffffff1603611d7e575f60015f801b93509350935050611d8b565b805f805f1b935093509350505b9450945094915050565b5f6003811115611da857611da76135ee565b5b826003811115611dbb57611dba6135ee565b5b0315611ef35760016003811115611dd557611dd46135ee565b5b826003811115611de857611de76135ee565b5b03611e1f576040517ff645eedf00000000000000000000000000000000000000000000000000000000815260040160405180910390fd5b60026003811115611e3357611e326135ee565b5b826003811115611e4657611e456135ee565b5b03611e8a57805f1c6040517ffce698f7000000000000000000000000000000000000000000000000000000008152600401611e819190612b62565b60405180910390fd5b600380811115611e9d57611e9c6135ee565b5b826003811115611eb057611eaf6135ee565b5b03611ef257806040517fd78bce0c000000000000000000000000000000000000000000000000000000008152600401611ee99190612c17565b60405180910390fd5b5b5050565b611eff61296b565b825f018263ffffffff1681548110611f1a57611f1961361b565b5b905f5260205f20016040518060400160405290815f82015f9054906101000a900465ffffffffffff1665ffffffffffff1665ffffffffffff1681526020015f820160069054906101000a900479ffffffffffffffffffffffffffffffffffffffffffffffffffff1679ffffffffffffffffffffffffffffffffffffffffffffffffffff1679ffffffffffffffffffffffffffffffffffffffffffffffffffff1681525050905092915050565b611fd18383836122a6565b5f73ffffffffffffffffffffffffffffffffffffffff168373ffffffffffffffffffffffffffffffffffffffff1603612064575f61200d61058b565b90505f6120186124bf565b9050808211156120615781816040517f1cb15d26000000000000000000000000000000000000000000000000000000008152600401612058929190613524565b60405180910390fd5b50505b61206f8383836124e2565b505050565b5f805f90505f608084901c111561209357608083901c92506080810190505b5f604084901c11156120ad57604083901c92506040810190505b5f602084901c11156120c757602083901c92506020810190505b5f601084901c11156120e157601083901c92506010810190505b5f600884901c11156120fb57600883901c92506008810190505b5f600484901c111561211557600483901c92506004810190505b5f600284901c111561212f57600283901c92506002810190505b5f600184901c1115612142576001810190505b80915050919050565b5f818310612159578161215b565b825b905092915050565b5f60028284186121739190613648565b828416612180919061344c565b905092915050565b5f79ffffffffffffffffffffffffffffffffffffffffffffffffffff80168211156121ed5760d0826040517f6dfcc6500000000000000000000000000000000000000000000000000000000081526004016121e49291906136b1565b60405180910390fd5b819050919050565b5f80612228612202610966565b61221861220e886112f1565b868863ffffffff16565b8761259a9092919063ffffffff16565b91509150935093915050565b60605f612240836125b5565b90505f602067ffffffffffffffff81111561225e5761225d6131be565b5b6040519080825280601f01601f1916602001820160405280156122905781602001600182028036833780820191505090505b5090508181528360208201528092505050919050565b5f73ffffffffffffffffffffffffffffffffffffffff168373ffffffffffffffffffffffffffffffffffffffff16036122f6578060025f8282546122ea919061344c565b925050819055506123c4565b5f805f8573ffffffffffffffffffffffffffffffffffffffff1673ffffffffffffffffffffffffffffffffffffffff1681526020019081526020015f205490508181101561237f578381836040517fe450d38c0000000000000000000000000000000000000000000000000000000081526004016123769392919061337b565b60405180910390fd5b8181035f808673ffffffffffffffffffffffffffffffffffffffff1673ffffffffffffffffffffffffffffffffffffffff1681526020019081526020015f2081905550505b5f73ffffffffffffffffffffffffffffffffffffffff168273ffffffffffffffffffffffffffffffffffffffff160361240b578060025f8282540392505081905550612455565b805f808473ffffffffffffffffffffffffffffffffffffffff1673ffffffffffffffffffffffffffffffffffffffff1681526020019081526020015f205f82825401925050819055505b8173ffffffffffffffffffffffffffffffffffffffff168373ffffffffffffffffffffffffffffffffffffffff167fddf252ad1be2c89b69c2b068fc378daa952ba7f163c4a11628f55a4df523b3ef836040516124b29190612b62565b60405180910390a3505050565b5f79ffffffffffffffffffffffffffffffffffffffffffffffffffff8016905090565b5f73ffffffffffffffffffffffffffffffffffffffff168373ffffffffffffffffffffffffffffffffffffffff160361252e5761252b600a610d3561252684612188565b6121f5565b50505b5f73ffffffffffffffffffffffffffffffffffffffff168273ffffffffffffffffffffffffffffffffffffffff160361257a57612577600a610d4a61257284612188565b6121f5565b50505b61259561258684610742565b61258f84610742565b836118a5565b505050565b5f806125a9855f018585612603565b91509150935093915050565b5f8060ff835f1c169050601f8111156125fa576040517fb3512b0c00000000000000000000000000000000000000000000000000000000815260040160405180910390fd5b80915050919050565b5f805f858054905090505f811115612883575f61262c876001846126279190613419565b61180d565b6040518060400160405290815f82015f9054906101000a900465ffffffffffff1665ffffffffffff1665ffffffffffff1681526020015f820160069054906101000a900479ffffffffffffffffffffffffffffffffffffffffffffffffffff1679ffffffffffffffffffffffffffffffffffffffffffffffffffff1679ffffffffffffffffffffffffffffffffffffffffffffffffffff168152505090508565ffffffffffff16815f015165ffffffffffff161115612717576040517f2520601d00000000000000000000000000000000000000000000000000000000815260040160405180910390fd5b8565ffffffffffff16815f015165ffffffffffff16036127995784612748886001856127439190613419565b61180d565b5f0160066101000a81548179ffffffffffffffffffffffffffffffffffffffffffffffffffff021916908379ffffffffffffffffffffffffffffffffffffffffffffffffffff160217905550612872565b8660405180604001604052808865ffffffffffff1681526020018779ffffffffffffffffffffffffffffffffffffffffffffffffffff16815250908060018154018082558091505060019003905f5260205f20015f909190919091505f820151815f015f6101000a81548165ffffffffffff021916908365ffffffffffff1602179055506020820151815f0160066101000a81548179ffffffffffffffffffffffffffffffffffffffffffffffffffff021916908379ffffffffffffffffffffffffffffffffffffffffffffffffffff16021790555050505b806020015185935093505050612963565b8560405180604001604052808765ffffffffffff1681526020018679ffffffffffffffffffffffffffffffffffffffffffffffffffff16815250908060018154018082558091505060019003905f5260205f20015f909190919091505f820151815f015f6101000a81548165ffffffffffff021916908365ffffffffffff1602179055506020820151815f0160066101000a81548179ffffffffffffffffffffffffffffffffffffffffffffffffffff021916908379ffffffffffffffffffffffffffffffffffffffffffffffffffff16021790555050505f8492509250505b935093915050565b60405180604001604052805f65ffffffffffff1681526020015f79ffffffffffffffffffffffffffffffffffffffffffffffffffff1681525090565b5f81519050919050565b5f82825260208201905092915050565b5f5b838110156129de5780820151818401526020810190506129c3565b5f8484015250505050565b5f601f19601f8301169050919050565b5f612a03826129a7565b612a0d81856129b1565b9350612a1d8185602086016129c1565b612a26816129e9565b840191505092915050565b5f6020820190508181035f830152612a4981846129f9565b905092915050565b5f80fd5b5f73ffffffffffffffffffffffffffffffffffffffff82169050919050565b5f612a7e82612a55565b9050919050565b612a8e81612a74565b8114612a98575f80fd5b50565b5f81359050612aa981612a85565b92915050565b5f819050919050565b612ac181612aaf565b8114612acb575f80fd5b50565b5f81359050612adc81612ab8565b92915050565b5f8060408385031215612af857612af7612a51565b5b5f612b0585828601612a9b565b9250506020612b1685828601612ace565b9150509250929050565b5f8115159050919050565b612b3481612b20565b82525050565b5f602082019050612b4d5f830184612b2b565b92915050565b612b5c81612aaf565b82525050565b5f602082019050612b755f830184612b53565b92915050565b5f805f60608486031215612b9257612b91612a51565b5b5f612b9f86828701612a9b565b9350506020612bb086828701612a9b565b9250506040612bc186828701612ace565b9150509250925092565b5f60ff82169050919050565b612be081612bcb565b82525050565b5f602082019050612bf95f830184612bd7565b92915050565b5f819050919050565b612c1181612bff565b82525050565b5f602082019050612c2a5f830184612c08565b92915050565b5f60208284031215612c4557612c44612a51565b5b5f612c5284828501612a9b565b91505092915050565b612c6481612a74565b82525050565b5f602082019050612c7d5f830184612c5b565b92915050565b5f63ffffffff82169050919050565b612c9b81612c83565b82525050565b5f602082019050612cb45f830184612c92565b92915050565b5f7fff0000000000000000000000000000000000000000000000000000000000000082169050919050565b612cee81612cba565b82525050565b5f81519050919050565b5f82825260208201905092915050565b5f819050602082019050919050565b612d2681612aaf565b82525050565b5f612d378383612d1d565b60208301905092915050565b5f602082019050919050565b5f612d5982612cf4565b612d638185612cfe565b9350612d6e83612d0e565b805f5b83811015612d9e578151612d858882612d2c565b9750612d9083612d43565b925050600181019050612d71565b5085935050505092915050565b5f60e082019050612dbe5f83018a612ce5565b8181036020830152612dd081896129f9565b90508181036040830152612de481886129f9565b9050612df36060830187612b53565b612e006080830186612c5b565b612e0d60a0830185612c08565b81810360c0830152612e1f8184612d4f565b905098975050505050505050565b5f60208284031215612e4257612e41612a51565b5b5f612e4f84828501612ace565b91505092915050565b5f65ffffffffffff82169050919050565b612e7281612e58565b82525050565b5f602082019050612e8b5f830184612e69565b92915050565b612e9a81612bcb565b8114612ea4575f80fd5b50565b5f81359050612eb581612e91565b92915050565b612ec481612bff565b8114612ece575f80fd5b50565b5f81359050612edf81612ebb565b92915050565b5f805f805f8060c08789031215612eff57612efe612a51565b5b5f612f0c89828a01612a9b565b9650506020612f1d89828a01612ace565b9550506040612f2e89828a01612ace565b9450506060612f3f89828a01612ea7565b9350506080612f5089828a01612ed1565b92505060a0612f6189828a01612ed1565b9150509295509295509295565b5f805f805f805f60e0888a031215612f8957612f88612a51565b5b5f612f968a828b01612a9b565b9750506020612fa78a828b01612a9b565b9650506040612fb88a828b01612ace565b9550506060612fc98a828b01612ace565b9450506080612fda8a828b01612ea7565b93505060a0612feb8a828b01612ed1565b92505060c0612ffc8a828b01612ed1565b91505092959891949750929550565b5f806040838503121561302157613020612a51565b5b5f61302e85828601612a9b565b925050602061303f85828601612a9b565b9150509250929050565b61305281612c83565b811461305c575f80fd5b50565b5f8135905061306d81613049565b92915050565b5f806040838503121561308957613088612a51565b5b5f61309685828601612a9b565b92505060206130a78582860161305f565b9150509250929050565b6130ba81612e58565b82525050565b5f79ffffffffffffffffffffffffffffffffffffffffffffffffffff82169050919050565b6130ee816130c0565b82525050565b604082015f8201516131085f8501826130b1565b50602082015161311b60208501826130e5565b50505050565b5f6040820190506131345f8301846130f4565b92915050565b7f4e487b71000000000000000000000000000000000000000000000000000000005f52602260045260245ffd5b5f600282049050600182168061317e57607f821691505b6020821081036131915761319061313a565b5b50919050565b5f6040820190506131aa5f830185612b53565b6131b76020830184612e69565b9392505050565b7f4e487b71000000000000000000000000000000000000000000000000000000005f52604160045260245ffd5b5f6080820190506131fe5f830187612c08565b61320b6020830186612c5b565b6132186040830185612b53565b6132256060830184612b53565b95945050505050565b5f60c0820190506132415f830189612c08565b61324e6020830188612c5b565b61325b6040830187612c5b565b6132686060830186612b53565b6132756080830185612b53565b61328260a0830184612b53565b979650505050505050565b5f6040820190506132a05f830185612c5b565b6132ad6020830184612c5b565b9392505050565b7f4e487b71000000000000000000000000000000000000000000000000000000005f52601160045260245ffd5b5f6132eb826130c0565b91506132f6836130c0565b9250828201905079ffffffffffffffffffffffffffffffffffffffffffffffffffff811115613328576133276132b4565b5b92915050565b5f613338826130c0565b9150613343836130c0565b9250828203905079ffffffffffffffffffffffffffffffffffffffffffffffffffff811115613375576133746132b4565b5b92915050565b5f60608201905061338e5f830186612c5b565b61339b6020830185612b53565b6133a86040830184612b53565b949350505050565b5f819050919050565b5f819050919050565b5f6133dc6133d76133d2846133b0565b6133b9565b612bcb565b9050919050565b6133ec816133c2565b82525050565b5f6040820190506134055f8301856133e3565b6134126020830184612b53565b9392505050565b5f61342382612aaf565b915061342e83612aaf565b9250828203905081811115613446576134456132b4565b5b92915050565b5f61345682612aaf565b915061346183612aaf565b9250828201905080821115613479576134786132b4565b5b92915050565b5f6040820190506134925f830185612c5b565b61349f6020830184612b53565b9392505050565b5f60a0820190506134b95f830188612c08565b6134c66020830187612c08565b6134d36040830186612c08565b6134e06060830185612b53565b6134ed6080830184612c5b565b9695505050505050565b7f4e487b71000000000000000000000000000000000000000000000000000000005f52601260045260245ffd5b5f6040820190506135375f830185612b53565b6135446020830184612b53565b9392505050565b5f819050919050565b5f61356e6135696135648461354b565b6133b9565b612bcb565b9050919050565b61357e81613554565b82525050565b5f6040820190506135975f830185613575565b6135a46020830184612b53565b9392505050565b5f6080820190506135be5f830187612c08565b6135cb6020830186612bd7565b6135d86040830185612c08565b6135e56060830184612c08565b95945050505050565b7f4e487b71000000000000000000000000000000000000000000000000000000005f52602160045260245ffd5b7f4e487b71000000000000000000000000000000000000000000000000000000005f52603260045260245ffd5b5f61365282612aaf565b915061365d83612aaf565b92508261366d5761366c6134f7565b5b828204905092915050565b5f819050919050565b5f61369b61369661369184613678565b6133b9565b612bcb565b9050919050565b6136ab81613681565b82525050565b5f6040820190506136c45f8301856136a2565b6136d16020830184612b53565b939250505056fea2646970667358221220b3b23d39ed635e8810d1d0f423ea4d1e31c6d6197799d69d29f0a8b8a2a2280764736f6c63430008160033",
    "opcodes": "PUSH2 0x160 PUSH1 0x40 MSTORE CALLVALUE DUP1 ISZERO PUSH3 0x11 JUMPI PUSH0 DUP1 REVERT JUMPDEST POP PUSH1 0x40 MLOAD PUSH3 0x5185 CODESIZE SUB DUP1 PUSH3 0x5185 DUP4 CODECOPY DUP2 DUP2 ADD PUSH1 0x40 MSTORE DUP2 ADD SWAP1 PUSH3 0x37 SWAP2 SWAP1 PUSH3 0x11B5 JUMP JUMPDEST DUP3 DUP1 PUSH1 0x40 MLOAD DUP1 PUSH1 0x40 ADD PUSH1 0x40 MSTORE DUP1 PUSH1 0x1 DUP2 MSTORE PUSH1 0x20 ADD PUSH32 0x3100000000000000000000000000000000000000000000000000000000000000 DUP2 MSTORE POP DUP6 DUP6 DUP2 PUSH1 0x3 SWAP1 DUP2 PUSH3 0x82 SWAP2 SWAP1 PUSH3 0x147A JUMP JUMPDEST POP DUP1 PUSH1 0x4 SWAP1 DUP2 PUSH3 0x94 SWAP2 SWAP1 PUSH3 0x147A JUMP JUMPDEST POP POP POP PUSH3 0xAD PUSH1 0x5 DUP4 PUSH3 0x163 PUSH1 0x20 SHL SWAP1 SWAP2 SWAP1 PUSH1 0x20 SHR JUMP JUMPDEST PUSH2 0x120 DUP2 DUP2 MSTORE POP POP PUSH3 0xCB PUSH1 0x6 DUP3 PUSH3 0x163 PUSH1 0x20 SHL SWAP1 SWAP2 SWAP1 PUSH1 0x20 SHR JUMP JUMPDEST PUSH2 0x140 DUP2 DUP2 MSTORE POP POP DUP2 DUP1 MLOAD SWAP1 PUSH1 0x20 ADD KECCAK256 PUSH1 0xE0 DUP2 DUP2 MSTORE POP POP DUP1 DUP1 MLOAD SWAP1 PUSH1 0x20 ADD KECCAK256 PUSH2 0x100 DUP2 DUP2 MSTORE POP POP CHAINID PUSH1 0xA0 DUP2 DUP2 MSTORE POP POP PUSH3 0x10A PUSH3 0x1B8 PUSH1 0x20 SHL PUSH1 0x20 SHR JUMP JUMPDEST PUSH1 0x80 DUP2 DUP2 MSTORE POP POP ADDRESS PUSH20 0xFFFFFFFFFFFFFFFFFFFFFFFFFFFFFFFFFFFFFFFF AND PUSH1 0xC0 DUP2 PUSH20 0xFFFFFFFFFFFFFFFFFFFFFFFFFFFFFFFFFFFFFFFF AND DUP2 MSTORE POP POP POP POP POP PUSH3 0x15A CALLER DUP3 PUSH3 0x214 PUSH1 0x20 SHL PUSH1 0x20 SHR JUMP JUMPDEST POP POP POP PUSH3 0x1A25 JUMP JUMPDEST PUSH0 PUSH1 0x20 DUP4 MLOAD LT ISZERO PUSH3 0x188 JUMPI PUSH3 0x180 DUP4 PUSH3 0x29E PUSH1 0x20 SHL PUSH1 0x20 SHR JUMP JUMPDEST SWAP1 POP PUSH3 0x1B2 JUMP JUMPDEST DUP3 PUSH3 0x19A DUP4 PUSH3 0x308 PUSH1 0x20 SHL PUSH1 0x20 SHR JUMP JUMPDEST PUSH0 ADD SWAP1 DUP2 PUSH3 0x1AA SWAP2 SWAP1 PUSH3 0x147A JUMP JUMPDEST POP PUSH1 0xFF PUSH0 SHL SWAP1 POP JUMPDEST SWAP3 SWAP2 POP POP JUMP JUMPDEST PUSH0 PUSH32 0x8B73C3C69BB8FE3D512ECC4CF759CC79239F7B179B0FFACAA9A75D522B39400F PUSH1 0xE0 MLOAD PUSH2 0x100 MLOAD CHAINID ADDRESS PUSH1 0x40 MLOAD PUSH1 0x20 ADD PUSH3 0x1F9 SWAP6 SWAP5 SWAP4 SWAP3 SWAP2 SWAP1 PUSH3 0x15CC JUMP JUMPDEST PUSH1 0x40 MLOAD PUSH1 0x20 DUP2 DUP4 SUB SUB DUP2 MSTORE SWAP1 PUSH1 0x40 MSTORE DUP1 MLOAD SWAP1 PUSH1 0x20 ADD KECCAK256 SWAP1 POP SWAP1 JUMP JUMPDEST PUSH0 PUSH20 0xFFFFFFFFFFFFFFFFFFFFFFFFFFFFFFFFFFFFFFFF AND DUP3 PUSH20 0xFFFFFFFFFFFFFFFFFFFFFFFFFFFFFFFFFFFFFFFF AND SUB PUSH3 0x287 JUMPI PUSH0 PUSH1 0x40 MLOAD PUSH32 0xEC442F0500000000000000000000000000000000000000000000000000000000 DUP2 MSTORE PUSH1 0x4 ADD PUSH3 0x27E SWAP2 SWAP1 PUSH3 0x1627 JUMP JUMPDEST PUSH1 0x40 MLOAD DUP1 SWAP2 SUB SWAP1 REVERT JUMPDEST PUSH3 0x29A PUSH0 DUP4 DUP4 PUSH3 0x311 PUSH1 0x20 SHL PUSH1 0x20 SHR JUMP JUMPDEST POP POP JUMP JUMPDEST PUSH0 DUP1 DUP3 SWAP1 POP PUSH1 0x1F DUP2 MLOAD GT ISZERO PUSH3 0x2ED JUMPI DUP3 PUSH1 0x40 MLOAD PUSH32 0x305A27A900000000000000000000000000000000000000000000000000000000 DUP2 MSTORE PUSH1 0x4 ADD PUSH3 0x2E4 SWAP2 SWAP1 PUSH3 0x1692 JUMP JUMPDEST PUSH1 0x40 MLOAD DUP1 SWAP2 SUB SWAP1 REVERT JUMPDEST DUP1 MLOAD DUP2 PUSH3 0x2FB SWAP1 PUSH3 0x16E3 JUMP JUMPDEST PUSH0 SHR OR PUSH0 SHL SWAP2 POP POP SWAP2 SWAP1 POP JUMP JUMPDEST PUSH0 DUP2 SWAP1 POP SWAP2 SWAP1 POP JUMP JUMPDEST PUSH3 0x324 DUP4 DUP4 DUP4 PUSH3 0x329 PUSH1 0x20 SHL PUSH1 0x20 SHR JUMP JUMPDEST POP POP POP JUMP JUMPDEST PUSH3 0x33C DUP4 DUP4 DUP4 PUSH3 0x3FB PUSH1 0x20 SHL PUSH1 0x20 SHR JUMP JUMPDEST PUSH0 PUSH20 0xFFFFFFFFFFFFFFFFFFFFFFFFFFFFFFFFFFFFFFFF AND DUP4 PUSH20 0xFFFFFFFFFFFFFFFFFFFFFFFFFFFFFFFFFFFFFFFF AND SUB PUSH3 0x3E3 JUMPI PUSH0 PUSH3 0x381 PUSH3 0x61F PUSH1 0x20 SHL PUSH1 0x20 SHR JUMP JUMPDEST SWAP1 POP PUSH0 PUSH3 0x394 PUSH3 0x628 PUSH1 0x20 SHL PUSH1 0x20 SHR JUMP JUMPDEST SWAP1 POP DUP1 DUP3 GT ISZERO PUSH3 0x3E0 JUMPI DUP2 DUP2 PUSH1 0x40 MLOAD PUSH32 0x1CB15D2600000000000000000000000000000000000000000000000000000000 DUP2 MSTORE PUSH1 0x4 ADD PUSH3 0x3D7 SWAP3 SWAP2 SWAP1 PUSH3 0x1752 JUMP JUMPDEST PUSH1 0x40 MLOAD DUP1 SWAP2 SUB SWAP1 REVERT JUMPDEST POP POP JUMPDEST PUSH3 0x3F6 DUP4 DUP4 DUP4 PUSH3 0x64B PUSH1 0x20 SHL PUSH1 0x20 SHR JUMP JUMPDEST POP POP POP JUMP JUMPDEST PUSH0 PUSH20 0xFFFFFFFFFFFFFFFFFFFFFFFFFFFFFFFFFFFFFFFF AND DUP4 PUSH20 0xFFFFFFFFFFFFFFFFFFFFFFFFFFFFFFFFFFFFFFFF AND SUB PUSH3 0x44F JUMPI DUP1 PUSH1 0x2 PUSH0 DUP3 DUP3 SLOAD PUSH3 0x442 SWAP2 SWAP1 PUSH3 0x17AA JUMP JUMPDEST SWAP3 POP POP DUP2 SWAP1 SSTORE POP PUSH3 0x520 JUMP JUMPDEST PUSH0 DUP1 PUSH0 DUP6 PUSH20 0xFFFFFFFFFFFFFFFFFFFFFFFFFFFFFFFFFFFFFFFF AND PUSH20 0xFFFFFFFFFFFFFFFFFFFFFFFFFFFFFFFFFFFFFFFF AND DUP2 MSTORE PUSH1 0x20 ADD SWAP1 DUP2 MSTORE PUSH1 0x20 ADD PUSH0 KECCAK256 SLOAD SWAP1 POP DUP2 DUP2 LT ISZERO PUSH3 0x4DB JUMPI DUP4 DUP2 DUP4 PUSH1 0x40 MLOAD PUSH32 0xE450D38C00000000000000000000000000000000000000000000000000000000 DUP2 MSTORE PUSH1 0x4 ADD PUSH3 0x4D2 SWAP4 SWAP3 SWAP2 SWAP1 PUSH3 0x17E4 JUMP JUMPDEST PUSH1 0x40 MLOAD DUP1 SWAP2 SUB SWAP1 REVERT JUMPDEST DUP2 DUP2 SUB PUSH0 DUP1 DUP7 PUSH20 0xFFFFFFFFFFFFFFFFFFFFFFFFFFFFFFFFFFFFFFFF AND PUSH20 0xFFFFFFFFFFFFFFFFFFFFFFFFFFFFFFFFFFFFFFFF AND DUP2 MSTORE PUSH1 0x20 ADD SWAP1 DUP2 MSTORE PUSH1 0x20 ADD PUSH0 KECCAK256 DUP2 SWAP1 SSTORE POP POP JUMPDEST PUSH0 PUSH20 0xFFFFFFFFFFFFFFFFFFFFFFFFFFFFFFFFFFFFFFFF AND DUP3 PUSH20 0xFFFFFFFFFFFFFFFFFFFFFFFFFFFFFFFFFFFFFFFF AND SUB PUSH3 0x569 JUMPI DUP1 PUSH1 0x2 PUSH0 DUP3 DUP3 SLOAD SUB SWAP3 POP POP DUP2 SWAP1 SSTORE POP PUSH3 0x5B3 JUMP JUMPDEST DUP1 PUSH0 DUP1 DUP5 PUSH20 0xFFFFFFFFFFFFFFFFFFFFFFFFFFFFFFFFFFFFFFFF AND PUSH20 0xFFFFFFFFFFFFFFFFFFFFFFFFFFFFFFFFFFFFFFFF AND DUP2 MSTORE PUSH1 0x20 ADD SWAP1 DUP2 MSTORE PUSH1 0x20 ADD PUSH0 KECCAK256 PUSH0 DUP3 DUP3 SLOAD ADD SWAP3 POP POP DUP2 SWAP1 SSTORE POP JUMPDEST DUP2 PUSH20 0xFFFFFFFFFFFFFFFFFFFFFFFFFFFFFFFFFFFFFFFF AND DUP4 PUSH20 0xFFFFFFFFFFFFFFFFFFFFFFFFFFFFFFFFFFFFFFFF AND PUSH32 0xDDF252AD1BE2C89B69C2B068FC378DAA952BA7F163C4A11628F55A4DF523B3EF DUP4 PUSH1 0x40 MLOAD PUSH3 0x612 SWAP2 SWAP1 PUSH3 0x181F JUMP JUMPDEST PUSH1 0x40 MLOAD DUP1 SWAP2 SUB SWAP1 LOG3 POP POP POP JUMP JUMPDEST PUSH0 PUSH1 0x2 SLOAD SWAP1 POP SWAP1 JUMP JUMPDEST PUSH0 PUSH26 0xFFFFFFFFFFFFFFFFFFFFFFFFFFFFFFFFFFFFFFFFFFFFFFFFFFFF DUP1 AND SWAP1 POP SWAP1 JUMP JUMPDEST PUSH0 PUSH20 0xFFFFFFFFFFFFFFFFFFFFFFFFFFFFFFFFFFFFFFFF AND DUP4 PUSH20 0xFFFFFFFFFFFFFFFFFFFFFFFFFFFFFFFFFFFFFFFF AND SUB PUSH3 0x6B1 JUMPI PUSH3 0x6AE PUSH1 0xA PUSH3 0x74F PUSH1 0x20 SHL PUSH3 0xD35 OR PUSH3 0x6A2 DUP5 PUSH3 0x766 PUSH1 0x20 SHL PUSH1 0x20 SHR JUMP JUMPDEST PUSH3 0x7D6 PUSH1 0x20 SHL PUSH1 0x20 SHR JUMP JUMPDEST POP POP JUMPDEST PUSH0 PUSH20 0xFFFFFFFFFFFFFFFFFFFFFFFFFFFFFFFFFFFFFFFF AND DUP3 PUSH20 0xFFFFFFFFFFFFFFFFFFFFFFFFFFFFFFFFFFFFFFFF AND SUB PUSH3 0x717 JUMPI PUSH3 0x714 PUSH1 0xA PUSH3 0x825 PUSH1 0x20 SHL PUSH3 0xD4A OR PUSH3 0x708 DUP5 PUSH3 0x766 PUSH1 0x20 SHL PUSH1 0x20 SHR JUMP JUMPDEST PUSH3 0x7D6 PUSH1 0x20 SHL PUSH1 0x20 SHR JUMP JUMPDEST POP POP JUMPDEST PUSH3 0x74A PUSH3 0x72C DUP5 PUSH3 0x83C PUSH1 0x20 SHL PUSH1 0x20 SHR JUMP JUMPDEST PUSH3 0x73D DUP5 PUSH3 0x83C PUSH1 0x20 SHL PUSH1 0x20 SHR JUMP JUMPDEST DUP4 PUSH3 0x8A1 PUSH1 0x20 SHL PUSH1 0x20 SHR JUMP JUMPDEST POP POP POP JUMP JUMPDEST PUSH0 DUP2 DUP4 PUSH3 0x75E SWAP2 SWAP1 PUSH3 0x185F JUMP JUMPDEST SWAP1 POP SWAP3 SWAP2 POP POP JUMP JUMPDEST PUSH0 PUSH26 0xFFFFFFFFFFFFFFFFFFFFFFFFFFFFFFFFFFFFFFFFFFFFFFFFFFFF DUP1 AND DUP3 GT ISZERO PUSH3 0x7CE JUMPI PUSH1 0xD0 DUP3 PUSH1 0x40 MLOAD PUSH32 0x6DFCC65000000000000000000000000000000000000000000000000000000000 DUP2 MSTORE PUSH1 0x4 ADD PUSH3 0x7C5 SWAP3 SWAP2 SWAP1 PUSH3 0x1900 JUMP JUMPDEST PUSH1 0x40 MLOAD DUP1 SWAP2 SUB SWAP1 REVERT JUMPDEST DUP2 SWAP1 POP SWAP2 SWAP1 POP JUMP JUMPDEST PUSH0 DUP1 PUSH3 0x819 PUSH3 0x7EC PUSH3 0xB4B PUSH1 0x20 SHL PUSH1 0x20 SHR JUMP JUMPDEST PUSH3 0x808 PUSH3 0x801 DUP9 PUSH3 0xB61 PUSH1 0x20 SHL PUSH1 0x20 SHR JUMP JUMPDEST DUP7 DUP9 PUSH1 0x20 SHR JUMP JUMPDEST DUP8 PUSH3 0xBCF PUSH1 0x20 SHL SWAP1 SWAP3 SWAP2 SWAP1 PUSH1 0x20 SHR JUMP JUMPDEST SWAP2 POP SWAP2 POP SWAP4 POP SWAP4 SWAP2 POP POP JUMP JUMPDEST PUSH0 DUP2 DUP4 PUSH3 0x834 SWAP2 SWAP1 PUSH3 0x192B JUMP JUMPDEST SWAP1 POP SWAP3 SWAP2 POP POP JUMP JUMPDEST PUSH0 PUSH1 0x8 PUSH0 DUP4 PUSH20 0xFFFFFFFFFFFFFFFFFFFFFFFFFFFFFFFFFFFFFFFF AND PUSH20 0xFFFFFFFFFFFFFFFFFFFFFFFFFFFFFFFFFFFFFFFF AND DUP2 MSTORE PUSH1 0x20 ADD SWAP1 DUP2 MSTORE PUSH1 0x20 ADD PUSH0 KECCAK256 PUSH0 SWAP1 SLOAD SWAP1 PUSH2 0x100 EXP SWAP1 DIV PUSH20 0xFFFFFFFFFFFFFFFFFFFFFFFFFFFFFFFFFFFFFFFF AND SWAP1 POP SWAP2 SWAP1 POP JUMP JUMPDEST DUP2 PUSH20 0xFFFFFFFFFFFFFFFFFFFFFFFFFFFFFFFFFFFFFFFF AND DUP4 PUSH20 0xFFFFFFFFFFFFFFFFFFFFFFFFFFFFFFFFFFFFFFFF AND EQ ISZERO DUP1 ISZERO PUSH3 0x8DD JUMPI POP PUSH0 DUP2 GT JUMPDEST ISZERO PUSH3 0xB46 JUMPI PUSH0 PUSH20 0xFFFFFFFFFFFFFFFFFFFFFFFFFFFFFFFFFFFFFFFF AND DUP4 PUSH20 0xFFFFFFFFFFFFFFFFFFFFFFFFFFFFFFFFFFFFFFFF AND EQ PUSH3 0xA14 JUMPI PUSH0 DUP1 PUSH3 0x983 PUSH1 0x9 PUSH0 DUP8 PUSH20 0xFFFFFFFFFFFFFFFFFFFFFFFFFFFFFFFFFFFFFFFF AND PUSH20 0xFFFFFFFFFFFFFFFFFFFFFFFFFFFFFFFFFFFFFFFF AND DUP2 MSTORE PUSH1 0x20 ADD SWAP1 DUP2 MSTORE PUSH1 0x20 ADD PUSH0 KECCAK256 PUSH3 0x825 PUSH1 0x20 SHL PUSH3 0xD4A OR PUSH3 0x977 DUP7 PUSH3 0x766 PUSH1 0x20 SHL PUSH1 0x20 SHR JUMP JUMPDEST PUSH3 0x7D6 PUSH1 0x20 SHL PUSH1 0x20 SHR JUMP JUMPDEST PUSH26 0xFFFFFFFFFFFFFFFFFFFFFFFFFFFFFFFFFFFFFFFFFFFFFFFFFFFF AND SWAP2 POP PUSH26 0xFFFFFFFFFFFFFFFFFFFFFFFFFFFFFFFFFFFFFFFFFFFFFFFFFFFF AND SWAP2 POP DUP5 PUSH20 0xFFFFFFFFFFFFFFFFFFFFFFFFFFFFFFFFFFFFFFFF AND PUSH32 0xDEC2BACDD2F05B59DE34DA9B523DFF8BE42E5E38E818C82FDB0BAE774387A724 DUP4 DUP4 PUSH1 0x40 MLOAD PUSH3 0xA09 SWAP3 SWAP2 SWAP1 PUSH3 0x1752 JUMP JUMPDEST PUSH1 0x40 MLOAD DUP1 SWAP2 SUB SWAP1 LOG2 POP POP JUMPDEST PUSH0 PUSH20 0xFFFFFFFFFFFFFFFFFFFFFFFFFFFFFFFFFFFFFFFF AND DUP3 PUSH20 0xFFFFFFFFFFFFFFFFFFFFFFFFFFFFFFFFFFFFFFFF AND EQ PUSH3 0xB45 JUMPI PUSH0 DUP1 PUSH3 0xAB4 PUSH1 0x9 PUSH0 DUP7 PUSH20 0xFFFFFFFFFFFFFFFFFFFFFFFFFFFFFFFFFFFFFFFF AND PUSH20 0xFFFFFFFFFFFFFFFFFFFFFFFFFFFFFFFFFFFFFFFF AND DUP2 MSTORE PUSH1 0x20 ADD SWAP1 DUP2 MSTORE PUSH1 0x20 ADD PUSH0 KECCAK256 PUSH3 0x74F PUSH1 0x20 SHL PUSH3 0xD35 OR PUSH3 0xAA8 DUP7 PUSH3 0x766 PUSH1 0x20 SHL PUSH1 0x20 SHR JUMP JUMPDEST PUSH3 0x7D6 PUSH1 0x20 SHL PUSH1 0x20 SHR JUMP JUMPDEST PUSH26 0xFFFFFFFFFFFFFFFFFFFFFFFFFFFFFFFFFFFFFFFFFFFFFFFFFFFF AND SWAP2 POP PUSH26 0xFFFFFFFFFFFFFFFFFFFFFFFFFFFFFFFFFFFFFFFFFFFFFFFFFFFF AND SWAP2 POP DUP4 PUSH20 0xFFFFFFFFFFFFFFFFFFFFFFFFFFFFFFFFFFFFFFFF AND PUSH32 0xDEC2BACDD2F05B59DE34DA9B523DFF8BE42E5E38E818C82FDB0BAE774387A724 DUP4 DUP4 PUSH1 0x40 MLOAD PUSH3 0xB3A SWAP3 SWAP2 SWAP1 PUSH3 0x1752 JUMP JUMPDEST PUSH1 0x40 MLOAD DUP1 SWAP2 SUB SWAP1 LOG2 POP POP JUMPDEST JUMPDEST POP POP POP JUMP JUMPDEST PUSH0 PUSH3 0xB5C PUSH3 0xBF2 PUSH1 0x20 SHL PUSH1 0x20 SHR JUMP JUMPDEST SWAP1 POP SWAP1 JUMP JUMPDEST PUSH0 DUP1 DUP3 PUSH0 ADD DUP1 SLOAD SWAP1 POP SWAP1 POP PUSH0 DUP2 EQ PUSH3 0xBC5 JUMPI PUSH3 0xB96 DUP4 PUSH0 ADD PUSH1 0x1 DUP4 PUSH3 0xB8A SWAP2 SWAP1 PUSH3 0x197F JUMP JUMPDEST PUSH3 0xC09 PUSH1 0x20 SHL PUSH1 0x20 SHR JUMP JUMPDEST PUSH0 ADD PUSH1 0x6 SWAP1 SLOAD SWAP1 PUSH2 0x100 EXP SWAP1 DIV PUSH26 0xFFFFFFFFFFFFFFFFFFFFFFFFFFFFFFFFFFFFFFFFFFFFFFFFFFFF AND PUSH3 0xBC7 JUMP JUMPDEST PUSH0 JUMPDEST SWAP2 POP POP SWAP2 SWAP1 POP JUMP JUMPDEST PUSH0 DUP1 PUSH3 0xBE6 DUP6 PUSH0 ADD DUP6 DUP6 PUSH3 0xC1B PUSH1 0x20 SHL PUSH1 0x20 SHR JUMP JUMPDEST SWAP2 POP SWAP2 POP SWAP4 POP SWAP4 SWAP2 POP POP JUMP JUMPDEST PUSH0 PUSH3 0xC04 NUMBER PUSH3 0xF9C PUSH1 0x20 SHL PUSH1 0x20 SHR JUMP JUMPDEST SWAP1 POP SWAP1 JUMP JUMPDEST PUSH0 DUP3 PUSH0 MSTORE DUP2 PUSH1 0x20 PUSH0 KECCAK256 ADD SWAP1 POP SWAP3 SWAP2 POP POP JUMP JUMPDEST PUSH0 DUP1 PUSH0 DUP6 DUP1 SLOAD SWAP1 POP SWAP1 POP PUSH0 DUP2 GT ISZERO PUSH3 0xEB4 JUMPI PUSH0 PUSH3 0xC4F DUP8 PUSH1 0x1 DUP5 PUSH3 0xC43 SWAP2 SWAP1 PUSH3 0x197F JUMP JUMPDEST PUSH3 0xC09 PUSH1 0x20 SHL PUSH1 0x20 SHR JUMP JUMPDEST PUSH1 0x40 MLOAD DUP1 PUSH1 0x40 ADD PUSH1 0x40 MSTORE SWAP1 DUP2 PUSH0 DUP3 ADD PUSH0 SWAP1 SLOAD SWAP1 PUSH2 0x100 EXP SWAP1 DIV PUSH6 0xFFFFFFFFFFFF AND PUSH6 0xFFFFFFFFFFFF AND PUSH6 0xFFFFFFFFFFFF AND DUP2 MSTORE PUSH1 0x20 ADD PUSH0 DUP3 ADD PUSH1 0x6 SWAP1 SLOAD SWAP1 PUSH2 0x100 EXP SWAP1 DIV PUSH26 0xFFFFFFFFFFFFFFFFFFFFFFFFFFFFFFFFFFFFFFFFFFFFFFFFFFFF AND PUSH26 0xFFFFFFFFFFFFFFFFFFFFFFFFFFFFFFFFFFFFFFFFFFFFFFFFFFFF AND PUSH26 0xFFFFFFFFFFFFFFFFFFFFFFFFFFFFFFFFFFFFFFFFFFFFFFFFFFFF AND DUP2 MSTORE POP POP SWAP1 POP DUP6 PUSH6 0xFFFFFFFFFFFF AND DUP2 PUSH0 ADD MLOAD PUSH6 0xFFFFFFFFFFFF AND GT ISZERO PUSH3 0xD3B JUMPI PUSH1 0x40 MLOAD PUSH32 0x2520601D00000000000000000000000000000000000000000000000000000000 DUP2 MSTORE PUSH1 0x4 ADD PUSH1 0x40 MLOAD DUP1 SWAP2 SUB SWAP1 REVERT JUMPDEST DUP6 PUSH6 0xFFFFFFFFFFFF AND DUP2 PUSH0 ADD MLOAD PUSH6 0xFFFFFFFFFFFF AND SUB PUSH3 0xDC9 JUMPI DUP5 PUSH3 0xD77 DUP9 PUSH1 0x1 DUP6 PUSH3 0xD6B SWAP2 SWAP1 PUSH3 0x197F JUMP JUMPDEST PUSH3 0xC09 PUSH1 0x20 SHL PUSH1 0x20 SHR JUMP JUMPDEST PUSH0 ADD PUSH1 0x6 PUSH2 0x100 EXP DUP2 SLOAD DUP2 PUSH26 0xFFFFFFFFFFFFFFFFFFFFFFFFFFFFFFFFFFFFFFFFFFFFFFFFFFFF MUL NOT AND SWAP1 DUP4 PUSH26 0xFFFFFFFFFFFFFFFFFFFFFFFFFFFFFFFFFFFFFFFFFFFFFFFFFFFF AND MUL OR SWAP1 SSTORE POP PUSH3 0xEA2 JUMP JUMPDEST DUP7 PUSH1 0x40 MLOAD DUP1 PUSH1 0x40 ADD PUSH1 0x40 MSTORE DUP1 DUP9 PUSH6 0xFFFFFFFFFFFF AND DUP2 MSTORE PUSH1 0x20 ADD DUP8 PUSH26 0xFFFFFFFFFFFFFFFFFFFFFFFFFFFFFFFFFFFFFFFFFFFFFFFFFFFF AND DUP2 MSTORE POP SWAP1 DUP1 PUSH1 0x1 DUP2 SLOAD ADD DUP1 DUP3 SSTORE DUP1 SWAP2 POP POP PUSH1 0x1 SWAP1 SUB SWAP1 PUSH0 MSTORE PUSH1 0x20 PUSH0 KECCAK256 ADD PUSH0 SWAP1 SWAP2 SWAP1 SWAP2 SWAP1 SWAP2 POP PUSH0 DUP3 ADD MLOAD DUP2 PUSH0 ADD PUSH0 PUSH2 0x100 EXP DUP2 SLOAD DUP2 PUSH6 0xFFFFFFFFFFFF MUL NOT AND SWAP1 DUP4 PUSH6 0xFFFFFFFFFFFF AND MUL OR SWAP1 SSTORE POP PUSH1 0x20 DUP3 ADD MLOAD DUP2 PUSH0 ADD PUSH1 0x6 PUSH2 0x100 EXP DUP2 SLOAD DUP2 PUSH26 0xFFFFFFFFFFFFFFFFFFFFFFFFFFFFFFFFFFFFFFFFFFFFFFFFFFFF MUL NOT AND SWAP1 DUP4 PUSH26 0xFFFFFFFFFFFFFFFFFFFFFFFFFFFFFFFFFFFFFFFFFFFFFFFFFFFF AND MUL OR SWAP1 SSTORE POP POP POP JUMPDEST DUP1 PUSH1 0x20 ADD MLOAD DUP6 SWAP4 POP SWAP4 POP POP POP PUSH3 0xF94 JUMP JUMPDEST DUP6 PUSH1 0x40 MLOAD DUP1 PUSH1 0x40 ADD PUSH1 0x40 MSTORE DUP1 DUP8 PUSH6 0xFFFFFFFFFFFF AND DUP2 MSTORE PUSH1 0x20 ADD DUP7 PUSH26 0xFFFFFFFFFFFFFFFFFFFFFFFFFFFFFFFFFFFFFFFFFFFFFFFFFFFF AND DUP2 MSTORE POP SWAP1 DUP1 PUSH1 0x1 DUP2 SLOAD ADD DUP1 DUP3 SSTORE DUP1 SWAP2 POP POP PUSH1 0x1 SWAP1 SUB SWAP1 PUSH0 MSTORE PUSH1 0x20 PUSH0 KECCAK256 ADD PUSH0 SWAP1 SWAP2 SWAP1 SWAP2 SWAP1 SWAP2 POP PUSH0 DUP3 ADD MLOAD DUP2 PUSH0 ADD PUSH0 PUSH2 0x100 EXP DUP2 SLOAD DUP2 PUSH6 0xFFFFFFFFFFFF MUL NOT AND SWAP1 DUP4 PUSH6 0xFFFFFFFFFFFF AND MUL OR SWAP1 SSTORE POP PUSH1 0x20 DUP3 ADD MLOAD DUP2 PUSH0 ADD PUSH1 0x6 PUSH2 0x100 EXP DUP2 SLOAD DUP2 PUSH26 0xFFFFFFFFFFFFFFFFFFFFFFFFFFFFFFFFFFFFFFFFFFFFFFFFFFFF MUL NOT AND SWAP1 DUP4 PUSH26 0xFFFFFFFFFFFFFFFFFFFFFFFFFFFFFFFFFFFFFFFFFFFFFFFFFFFF AND MUL OR SWAP1 SSTORE POP POP POP PUSH0 DUP5 SWAP3 POP SWAP3 POP POP JUMPDEST SWAP4 POP SWAP4 SWAP2 POP POP JUMP JUMPDEST PUSH0 PUSH6 0xFFFFFFFFFFFF DUP1 AND DUP3 GT ISZERO PUSH3 0xFF0 JUMPI PUSH1 0x30 DUP3 PUSH1 0x40 MLOAD PUSH32 0x6DFCC65000000000000000000000000000000000000000000000000000000000 DUP2 MSTORE PUSH1 0x4 ADD PUSH3 0xFE7 SWAP3 SWAP2 SWAP1 PUSH3 0x19FA JUMP JUMPDEST PUSH1 0x40 MLOAD DUP1 SWAP2 SUB SWAP1 REVERT JUMPDEST DUP2 SWAP1 POP SWAP2 SWAP1 POP JUMP JUMPDEST PUSH0 PUSH1 0x40 MLOAD SWAP1 POP SWAP1 JUMP JUMPDEST PUSH0 DUP1 REVERT JUMPDEST PUSH0 DUP1 REVERT JUMPDEST PUSH0 DUP1 REVERT JUMPDEST PUSH0 DUP1 REVERT JUMPDEST PUSH0 PUSH1 0x1F NOT PUSH1 0x1F DUP4 ADD AND SWAP1 POP SWAP2 SWAP1 POP JUMP JUMPDEST PUSH32 0x4E487B7100000000000000000000000000000000000000000000000000000000 PUSH0 MSTORE PUSH1 0x41 PUSH1 0x4 MSTORE PUSH1 0x24 PUSH0 REVERT JUMPDEST PUSH3 0x1059 DUP3 PUSH3 0x1011 JUMP JUMPDEST DUP2 ADD DUP2 DUP2 LT PUSH8 0xFFFFFFFFFFFFFFFF DUP3 GT OR ISZERO PUSH3 0x107B JUMPI PUSH3 0x107A PUSH3 0x1021 JUMP JUMPDEST JUMPDEST DUP1 PUSH1 0x40 MSTORE POP POP POP JUMP JUMPDEST PUSH0 PUSH3 0x108F PUSH3 0xFF8 JUMP JUMPDEST SWAP1 POP PUSH3 0x109D DUP3 DUP3 PUSH3 0x104E JUMP JUMPDEST SWAP2 SWAP1 POP JUMP JUMPDEST PUSH0 PUSH8 0xFFFFFFFFFFFFFFFF DUP3 GT ISZERO PUSH3 0x10BF JUMPI PUSH3 0x10BE PUSH3 0x1021 JUMP JUMPDEST JUMPDEST PUSH3 0x10CA DUP3 PUSH3 0x1011 JUMP JUMPDEST SWAP1 POP PUSH1 0x20 DUP2 ADD SWAP1 POP SWAP2 SWAP1 POP JUMP JUMPDEST PUSH0 JUMPDEST DUP4 DUP2 LT ISZERO PUSH3 0x10F6 JUMPI DUP1 DUP3 ADD MLOAD DUP2 DUP5 ADD MSTORE PUSH1 0x20 DUP2 ADD SWAP1 POP PUSH3 0x10D9 JUMP JUMPDEST PUSH0 DUP5 DUP5 ADD MSTORE POP POP POP POP JUMP JUMPDEST PUSH0 PUSH3 0x1117 PUSH3 0x1111 DUP5 PUSH3 0x10A2 JUMP JUMPDEST PUSH3 0x1084 JUMP JUMPDEST SWAP1 POP DUP3 DUP2 MSTORE PUSH1 0x20 DUP2 ADD DUP5 DUP5 DUP5 ADD GT ISZERO PUSH3 0x1136 JUMPI PUSH3 0x1135 PUSH3 0x100D JUMP JUMPDEST JUMPDEST PUSH3 0x1143 DUP5 DUP3 DUP6 PUSH3 0x10D7 JUMP JUMPDEST POP SWAP4 SWAP3 POP POP POP JUMP JUMPDEST PUSH0 DUP3 PUSH1 0x1F DUP4 ADD SLT PUSH3 0x1162 JUMPI PUSH3 0x1161 PUSH3 0x1009 JUMP JUMPDEST JUMPDEST DUP2 MLOAD PUSH3 0x1174 DUP5 DUP3 PUSH1 0x20 DUP7 ADD PUSH3 0x1101 JUMP JUMPDEST SWAP2 POP POP SWAP3 SWAP2 POP POP JUMP JUMPDEST PUSH0 DUP2 SWAP1 POP SWAP2 SWAP1 POP JUMP JUMPDEST PUSH3 0x1191 DUP2 PUSH3 0x117D JUMP JUMPDEST DUP2 EQ PUSH3 0x119C JUMPI PUSH0 DUP1 REVERT JUMPDEST POP JUMP JUMPDEST PUSH0 DUP2 MLOAD SWAP1 POP PUSH3 0x11AF DUP2 PUSH3 0x1186 JUMP JUMPDEST SWAP3 SWAP2 POP POP JUMP JUMPDEST PUSH0 DUP1 PUSH0 PUSH1 0x60 DUP5 DUP7 SUB SLT ISZERO PUSH3 0x11CF JUMPI PUSH3 0x11CE PUSH3 0x1001 JUMP JUMPDEST JUMPDEST PUSH0 DUP5 ADD MLOAD PUSH8 0xFFFFFFFFFFFFFFFF DUP2 GT ISZERO PUSH3 0x11EF JUMPI PUSH3 0x11EE PUSH3 0x1005 JUMP JUMPDEST JUMPDEST PUSH3 0x11FD DUP7 DUP3 DUP8 ADD PUSH3 0x114B JUMP JUMPDEST SWAP4 POP POP PUSH1 0x20 DUP5 ADD MLOAD PUSH8 0xFFFFFFFFFFFFFFFF DUP2 GT ISZERO PUSH3 0x1221 JUMPI PUSH3 0x1220 PUSH3 0x1005 JUMP JUMPDEST JUMPDEST PUSH3 0x122F DUP7 DUP3 DUP8 ADD PUSH3 0x114B JUMP JUMPDEST SWAP3 POP POP PUSH1 0x40 PUSH3 0x1242 DUP7 DUP3 DUP8 ADD PUSH3 0x119F JUMP JUMPDEST SWAP2 POP POP SWAP3 POP SWAP3 POP SWAP3 JUMP JUMPDEST PUSH0 DUP2 MLOAD SWAP1 POP SWAP2 SWAP1 POP JUMP JUMPDEST PUSH32 0x4E487B7100000000000000000000000000000000000000000000000000000000 PUSH0 MSTORE PUSH1 0x22 PUSH1 0x4 MSTORE PUSH1 0x24 PUSH0 REVERT JUMPDEST PUSH0 PUSH1 0x2 DUP3 DIV SWAP1 POP PUSH1 0x1 DUP3 AND DUP1 PUSH3 0x129B JUMPI PUSH1 0x7F DUP3 AND SWAP2 POP JUMPDEST PUSH1 0x20 DUP3 LT DUP2 SUB PUSH3 0x12B1 JUMPI PUSH3 0x12B0 PUSH3 0x1256 JUMP JUMPDEST JUMPDEST POP SWAP2 SWAP1 POP JUMP JUMPDEST PUSH0 DUP2 SWAP1 POP DUP2 PUSH0 MSTORE PUSH1 0x20 PUSH0 KECCAK256 SWAP1 POP SWAP2 SWAP1 POP JUMP JUMPDEST PUSH0 PUSH1 0x20 PUSH1 0x1F DUP4 ADD DIV SWAP1 POP SWAP2 SWAP1 POP JUMP JUMPDEST PUSH0 DUP3 DUP3 SHL SWAP1 POP SWAP3 SWAP2 POP POP JUMP JUMPDEST PUSH0 PUSH1 0x8 DUP4 MUL PUSH3 0x1315 PUSH32 0xFFFFFFFFFFFFFFFFFFFFFFFFFFFFFFFFFFFFFFFFFFFFFFFFFFFFFFFFFFFFFFFF DUP3 PUSH3 0x12D8 JUMP JUMPDEST PUSH3 0x1321 DUP7 DUP4 PUSH3 0x12D8 JUMP JUMPDEST SWAP6 POP DUP1 NOT DUP5 AND SWAP4 POP DUP1 DUP7 AND DUP5 OR SWAP3 POP POP POP SWAP4 SWAP3 POP POP POP JUMP JUMPDEST PUSH0 DUP2 SWAP1 POP SWAP2 SWAP1 POP JUMP JUMPDEST PUSH0 PUSH3 0x1362 PUSH3 0x135C PUSH3 0x1356 DUP5 PUSH3 0x117D JUMP JUMPDEST PUSH3 0x1339 JUMP JUMPDEST PUSH3 0x117D JUMP JUMPDEST SWAP1 POP SWAP2 SWAP1 POP JUMP JUMPDEST PUSH0 DUP2 SWAP1 POP SWAP2 SWAP1 POP JUMP JUMPDEST PUSH3 0x137D DUP4 PUSH3 0x1342 JUMP JUMPDEST PUSH3 0x1395 PUSH3 0x138C DUP3 PUSH3 0x1369 JUMP JUMPDEST DUP5 DUP5 SLOAD PUSH3 0x12E4 JUMP JUMPDEST DUP3 SSTORE POP POP POP POP JUMP JUMPDEST PUSH0 SWAP1 JUMP JUMPDEST PUSH3 0x13AB PUSH3 0x139D JUMP JUMPDEST PUSH3 0x13B8 DUP2 DUP5 DUP5 PUSH3 0x1372 JUMP JUMPDEST POP POP POP JUMP JUMPDEST JUMPDEST DUP2 DUP2 LT ISZERO PUSH3 0x13DF JUMPI PUSH3 0x13D3 PUSH0 DUP3 PUSH3 0x13A1 JUMP JUMPDEST PUSH1 0x1 DUP2 ADD SWAP1 POP PUSH3 0x13BE JUMP JUMPDEST POP POP JUMP JUMPDEST PUSH1 0x1F DUP3 GT ISZERO PUSH3 0x142E JUMPI PUSH3 0x13F8 DUP2 PUSH3 0x12B7 JUMP JUMPDEST PUSH3 0x1403 DUP5 PUSH3 0x12C9 JUMP JUMPDEST DUP2 ADD PUSH1 0x20 DUP6 LT ISZERO PUSH3 0x1413 JUMPI DUP2 SWAP1 POP JUMPDEST PUSH3 0x142B PUSH3 0x1422 DUP6 PUSH3 0x12C9 JUMP JUMPDEST DUP4 ADD DUP3 PUSH3 0x13BD JUMP JUMPDEST POP POP JUMPDEST POP POP POP JUMP JUMPDEST PUSH0 DUP3 DUP3 SHR SWAP1 POP SWAP3 SWAP2 POP POP JUMP JUMPDEST PUSH0 PUSH3 0x1450 PUSH0 NOT DUP5 PUSH1 0x8 MUL PUSH3 0x1433 JUMP JUMPDEST NOT DUP1 DUP4 AND SWAP2 POP POP SWAP3 SWAP2 POP POP JUMP JUMPDEST PUSH0 PUSH3 0x146A DUP4 DUP4 PUSH3 0x143F JUMP JUMPDEST SWAP2 POP DUP3 PUSH1 0x2 MUL DUP3 OR SWAP1 POP SWAP3 SWAP2 POP POP JUMP JUMPDEST PUSH3 0x1485 DUP3 PUSH3 0x124C JUMP JUMPDEST PUSH8 0xFFFFFFFFFFFFFFFF DUP2 GT ISZERO PUSH3 0x14A1 JUMPI PUSH3 0x14A0 PUSH3 0x1021 JUMP JUMPDEST JUMPDEST PUSH3 0x14AD DUP3 SLOAD PUSH3 0x1283 JUMP JUMPDEST PUSH3 0x14BA DUP3 DUP3 DUP6 PUSH3 0x13E3 JUMP JUMPDEST PUSH0 PUSH1 0x20 SWAP1 POP PUSH1 0x1F DUP4 GT PUSH1 0x1 DUP2 EQ PUSH3 0x14F0 JUMPI PUSH0 DUP5 ISZERO PUSH3 0x14DB JUMPI DUP3 DUP8 ADD MLOAD SWAP1 POP JUMPDEST PUSH3 0x14E7 DUP6 DUP3 PUSH3 0x145D JUMP JUMPDEST DUP7 SSTORE POP PUSH3 0x1556 JUMP JUMPDEST PUSH1 0x1F NOT DUP5 AND PUSH3 0x1500 DUP7 PUSH3 0x12B7 JUMP JUMPDEST PUSH0 JUMPDEST DUP3 DUP2 LT ISZERO PUSH3 0x1529 JUMPI DUP5 DUP10 ADD MLOAD DUP3 SSTORE PUSH1 0x1 DUP3 ADD SWAP2 POP PUSH1 0x20 DUP6 ADD SWAP5 POP PUSH1 0x20 DUP2 ADD SWAP1 POP PUSH3 0x1502 JUMP JUMPDEST DUP7 DUP4 LT ISZERO PUSH3 0x1549 JUMPI DUP5 DUP10 ADD MLOAD PUSH3 0x1545 PUSH1 0x1F DUP10 AND DUP3 PUSH3 0x143F JUMP JUMPDEST DUP4 SSTORE POP JUMPDEST PUSH1 0x1 PUSH1 0x2 DUP9 MUL ADD DUP9 SSTORE POP POP POP JUMPDEST POP POP POP POP POP POP JUMP JUMPDEST PUSH0 DUP2 SWAP1 POP SWAP2 SWAP1 POP JUMP JUMPDEST PUSH3 0x1572 DUP2 PUSH3 0x155E JUMP JUMPDEST DUP3 MSTORE POP POP JUMP JUMPDEST PUSH3 0x1583 DUP2 PUSH3 0x117D JUMP JUMPDEST DUP3 MSTORE POP POP JUMP JUMPDEST PUSH0 PUSH20 0xFFFFFFFFFFFFFFFFFFFFFFFFFFFFFFFFFFFFFFFF DUP3 AND SWAP1 POP SWAP2 SWAP1 POP JUMP JUMPDEST PUSH0 PUSH3 0x15B4 DUP3 PUSH3 0x1589 JUMP JUMPDEST SWAP1 POP SWAP2 SWAP1 POP JUMP JUMPDEST PUSH3 0x15C6 DUP2 PUSH3 0x15A8 JUMP JUMPDEST DUP3 MSTORE POP POP JUMP JUMPDEST PUSH0 PUSH1 0xA0 DUP3 ADD SWAP1 POP PUSH3 0x15E1 PUSH0 DUP4 ADD DUP9 PUSH3 0x1567 JUMP JUMPDEST PUSH3 0x15F0 PUSH1 0x20 DUP4 ADD DUP8 PUSH3 0x1567 JUMP JUMPDEST PUSH3 0x15FF PUSH1 0x40 DUP4 ADD DUP7 PUSH3 0x1567 JUMP JUMPDEST PUSH3 0x160E PUSH1 0x60 DUP4 ADD DUP6 PUSH3 0x1578 JUMP JUMPDEST PUSH3 0x161D PUSH1 0x80 DUP4 ADD DUP5 PUSH3 0x15BB JUMP JUMPDEST SWAP7 SWAP6 POP POP POP POP POP POP JUMP JUMPDEST PUSH0 PUSH1 0x20 DUP3 ADD SWAP1 POP PUSH3 0x163C PUSH0 DUP4 ADD DUP5 PUSH3 0x15BB JUMP JUMPDEST SWAP3 SWAP2 POP POP JUMP JUMPDEST PUSH0 DUP3 DUP3 MSTORE PUSH1 0x20 DUP3 ADD SWAP1 POP SWAP3 SWAP2 POP POP JUMP JUMPDEST PUSH0 PUSH3 0x165E DUP3 PUSH3 0x124C JUMP JUMPDEST PUSH3 0x166A DUP2 DUP6 PUSH3 0x1642 JUMP JUMPDEST SWAP4 POP PUSH3 0x167C DUP2 DUP6 PUSH1 0x20 DUP7 ADD PUSH3 0x10D7 JUMP JUMPDEST PUSH3 0x1687 DUP2 PUSH3 0x1011 JUMP JUMPDEST DUP5 ADD SWAP2 POP POP SWAP3 SWAP2 POP POP JUMP JUMPDEST PUSH0 PUSH1 0x20 DUP3 ADD SWAP1 POP DUP2 DUP2 SUB PUSH0 DUP4 ADD MSTORE PUSH3 0x16AC DUP2 DUP5 PUSH3 0x1652 JUMP JUMPDEST SWAP1 POP SWAP3 SWAP2 POP POP JUMP JUMPDEST PUSH0 DUP2 MLOAD SWAP1 POP SWAP2 SWAP1 POP JUMP JUMPDEST PUSH0 DUP2 SWAP1 POP PUSH1 0x20 DUP3 ADD SWAP1 POP SWAP2 SWAP1 POP JUMP JUMPDEST PUSH0 PUSH3 0x16DA DUP3 MLOAD PUSH3 0x155E JUMP JUMPDEST DUP1 SWAP2 POP POP SWAP2 SWAP1 POP JUMP JUMPDEST PUSH0 PUSH3 0x16EF DUP3 PUSH3 0x16B4 JUMP JUMPDEST DUP3 PUSH3 0x16FB DUP5 PUSH3 0x16BE JUMP JUMPDEST SWAP1 POP PUSH3 0x1708 DUP2 PUSH3 0x16CD JUMP JUMPDEST SWAP3 POP PUSH1 0x20 DUP3 LT ISZERO PUSH3 0x174B JUMPI PUSH3 0x1746 PUSH32 0xFFFFFFFFFFFFFFFFFFFFFFFFFFFFFFFFFFFFFFFFFFFFFFFFFFFFFFFFFFFFFFFF DUP4 PUSH1 0x20 SUB PUSH1 0x8 MUL PUSH3 0x12D8 JUMP JUMPDEST DUP4 AND SWAP3 POP JUMPDEST POP POP SWAP2 SWAP1 POP JUMP JUMPDEST PUSH0 PUSH1 0x40 DUP3 ADD SWAP1 POP PUSH3 0x1767 PUSH0 DUP4 ADD DUP6 PUSH3 0x1578 JUMP JUMPDEST PUSH3 0x1776 PUSH1 0x20 DUP4 ADD DUP5 PUSH3 0x1578 JUMP JUMPDEST SWAP4 SWAP3 POP POP POP JUMP JUMPDEST PUSH32 0x4E487B7100000000000000000000000000000000000000000000000000000000 PUSH0 MSTORE PUSH1 0x11 PUSH1 0x4 MSTORE PUSH1 0x24 PUSH0 REVERT JUMPDEST PUSH0 PUSH3 0x17B6 DUP3 PUSH3 0x117D JUMP JUMPDEST SWAP2 POP PUSH3 0x17C3 DUP4 PUSH3 0x117D JUMP JUMPDEST SWAP3 POP DUP3 DUP3 ADD SWAP1 POP DUP1 DUP3 GT ISZERO PUSH3 0x17DE JUMPI PUSH3 0x17DD PUSH3 0x177D JUMP JUMPDEST JUMPDEST SWAP3 SWAP2 POP POP JUMP JUMPDEST PUSH0 PUSH1 0x60 DUP3 ADD SWAP1 POP PUSH3 0x17F9 PUSH0 DUP4 ADD DUP7 PUSH3 0x15BB JUMP JUMPDEST PUSH3 0x1808 PUSH1 0x20 DUP4 ADD DUP6 PUSH3 0x1578 JUMP JUMPDEST PUSH3 0x1817 PUSH1 0x40 DUP4 ADD DUP5 PUSH3 0x1578 JUMP JUMPDEST SWAP5 SWAP4 POP POP POP POP JUMP JUMPDEST PUSH0 PUSH1 0x20 DUP3 ADD SWAP1 POP PUSH3 0x1834 PUSH0 DUP4 ADD DUP5 PUSH3 0x1578 JUMP JUMPDEST SWAP3 SWAP2 POP POP JUMP JUMPDEST PUSH0 PUSH26 0xFFFFFFFFFFFFFFFFFFFFFFFFFFFFFFFFFFFFFFFFFFFFFFFFFFFF DUP3 AND SWAP1 POP SWAP2 SWAP1 POP JUMP JUMPDEST PUSH0 PUSH3 0x186B DUP3 PUSH3 0x183A JUMP JUMPDEST SWAP2 POP PUSH3 0x1878 DUP4 PUSH3 0x183A JUMP JUMPDEST SWAP3 POP DUP3 DUP3 ADD SWAP1 POP PUSH26 0xFFFFFFFFFFFFFFFFFFFFFFFFFFFFFFFFFFFFFFFFFFFFFFFFFFFF DUP2 GT ISZERO PUSH3 0x18AD JUMPI PUSH3 0x18AC PUSH3 0x177D JUMP JUMPDEST JUMPDEST SWAP3 SWAP2 POP POP JUMP JUMPDEST PUSH0 DUP2 SWAP1 POP SWAP2 SWAP1 POP JUMP JUMPDEST PUSH0 PUSH1 0xFF DUP3 AND SWAP1 POP SWAP2 SWAP1 POP JUMP JUMPDEST PUSH0 PUSH3 0x18E8 PUSH3 0x18E2 PUSH3 0x18DC DUP5 PUSH3 0x18B3 JUMP JUMPDEST PUSH3 0x1339 JUMP JUMPDEST PUSH3 0x18BC JUMP JUMPDEST SWAP1 POP SWAP2 SWAP1 POP JUMP JUMPDEST PUSH3 0x18FA DUP2 PUSH3 0x18C8 JUMP JUMPDEST DUP3 MSTORE POP POP JUMP JUMPDEST PUSH0 PUSH1 0x40 DUP3 ADD SWAP1 POP PUSH3 0x1915 PUSH0 DUP4 ADD DUP6 PUSH3 0x18EF JUMP JUMPDEST PUSH3 0x1924 PUSH1 0x20 DUP4 ADD DUP5 PUSH3 0x1578 JUMP JUMPDEST SWAP4 SWAP3 POP POP POP JUMP JUMPDEST PUSH0 PUSH3 0x1937 DUP3 PUSH3 0x183A JUMP JUMPDEST SWAP2 POP PUSH3 0x1944 DUP4 PUSH3 0x183A JUMP JUMPDEST SWAP3 POP DUP3 DUP3 SUB SWAP1 POP PUSH26 0xFFFFFFFFFFFFFFFFFFFFFFFFFFFFFFFFFFFFFFFFFFFFFFFFFFFF DUP2 GT ISZERO PUSH3 0x1979 JUMPI PUSH3 0x1978 PUSH3 0x177D JUMP JUMPDEST JUMPDEST SWAP3 SWAP2 POP POP JUMP JUMPDEST PUSH0 PUSH3 0x198B DUP3 PUSH3 0x117D JUMP JUMPDEST SWAP2 POP PUSH3 0x1998 DUP4 PUSH3 0x117D JUMP JUMPDEST SWAP3 POP DUP3 DUP3 SUB SWAP1 POP DUP2 DUP2 GT ISZERO PUSH3 0x19B3 JUMPI PUSH3 0x19B2 PUSH3 0x177D JUMP JUMPDEST JUMPDEST SWAP3 SWAP2 POP POP JUMP JUMPDEST PUSH0 DUP2 SWAP1 POP SWAP2 SWAP1 POP JUMP JUMPDEST PUSH0 PUSH3 0x19E2 PUSH3 0x19DC PUSH3 0x19D6 DUP5 PUSH3 0x19B9 JUMP JUMPDEST PUSH3 0x1339 JUMP JUMPDEST PUSH3 0x18BC JUMP JUMPDEST SWAP1 POP SWAP2 SWAP1 POP JUMP JUMPDEST PUSH3 0x19F4 DUP2 PUSH3 0x19C2 JUMP JUMPDEST DUP3 MSTORE POP POP JUMP JUMPDEST PUSH0 PUSH1 0x40 DUP3 ADD SWAP1 POP PUSH3 0x1A0F PUSH0 DUP4 ADD DUP6 PUSH3 0x19E9 JUMP JUMPDEST PUSH3 0x1A1E PUSH1 0x20 DUP4 ADD DUP5 PUSH3 0x1578 JUMP JUMPDEST SWAP4 SWAP3 POP POP POP JUMP JUMPDEST PUSH1 0x80 MLOAD PUSH1 0xA0 MLOAD PUSH1 0xC0 MLOAD PUSH1 0xE0 MLOAD PUSH2 0x100 MLOAD PUSH2 0x120 MLOAD PUSH2 0x140 MLOAD PUSH2 0x370E PUSH3 0x1A77 PUSH0 CODECOPY PUSH0 PUSH2 0x12BF ADD MSTORE PUSH0 PUSH2 0x1284 ADD MSTORE PUSH0 PUSH2 0x16C7 ADD MSTORE PUSH0 PUSH2 0x16A6 ADD MSTORE PUSH0 PUSH2 0xEFD ADD MSTORE PUSH0 PUSH2 0xF53 ADD MSTORE PUSH0 PUSH2 0xF7C ADD MSTORE PUSH2 0x370E PUSH0 RETURN INVALID PUSH1 0x80 PUSH1 0x40 MSTORE CALLVALUE DUP1 ISZERO PUSH2 0xF JUMPI PUSH0 DUP1 REVERT JUMPDEST POP PUSH1 0x4 CALLDATASIZE LT PUSH2 0x14B JUMPI PUSH0 CALLDATALOAD PUSH1 0xE0 SHR DUP1 PUSH4 0x70A08231 GT PUSH2 0xC1 JUMPI DUP1 PUSH4 0x9AB24EB0 GT PUSH2 0x7A JUMPI DUP1 PUSH4 0x9AB24EB0 EQ PUSH2 0x3E1 JUMPI DUP1 PUSH4 0xA9059CBB EQ PUSH2 0x411 JUMPI DUP1 PUSH4 0xC3CDA520 EQ PUSH2 0x441 JUMPI DUP1 PUSH4 0xD505ACCF EQ PUSH2 0x45D JUMPI DUP1 PUSH4 0xDD62ED3E EQ PUSH2 0x479 JUMPI DUP1 PUSH4 0xF1127ED8 EQ PUSH2 0x4A9 JUMPI PUSH2 0x14B JUMP JUMPDEST DUP1 PUSH4 0x70A08231 EQ PUSH2 0x2F1 JUMPI DUP1 PUSH4 0x7ECEBE00 EQ PUSH2 0x321 JUMPI DUP1 PUSH4 0x84B0196E EQ PUSH2 0x351 JUMPI DUP1 PUSH4 0x8E539E8C EQ PUSH2 0x375 JUMPI DUP1 PUSH4 0x91DDADF4 EQ PUSH2 0x3A5 JUMPI DUP1 PUSH4 0x95D89B41 EQ PUSH2 0x3C3 JUMPI PUSH2 0x14B JUMP JUMPDEST DUP1 PUSH4 0x3644E515 GT PUSH2 0x113 JUMPI DUP1 PUSH4 0x3644E515 EQ PUSH2 0x209 JUMPI DUP1 PUSH4 0x3A46B1A8 EQ PUSH2 0x227 JUMPI DUP1 PUSH4 0x4BF5D7E9 EQ PUSH2 0x257 JUMPI DUP1 PUSH4 0x587CDE1E EQ PUSH2 0x275 JUMPI DUP1 PUSH4 0x5C19A95C EQ PUSH2 0x2A5 JUMPI DUP1 PUSH4 0x6FCFFF45 EQ PUSH2 0x2C1 JUMPI PUSH2 0x14B JUMP JUMPDEST DUP1 PUSH4 0x6FDDE03 EQ PUSH2 0x14F JUMPI DUP1 PUSH4 0x95EA7B3 EQ PUSH2 0x16D JUMPI DUP1 PUSH4 0x18160DDD EQ PUSH2 0x19D JUMPI DUP1 PUSH4 0x23B872DD EQ PUSH2 0x1BB JUMPI DUP1 PUSH4 0x313CE567 EQ PUSH2 0x1EB JUMPI JUMPDEST PUSH0 DUP1 REVERT JUMPDEST PUSH2 0x157 PUSH2 0x4D9 JUMP JUMPDEST PUSH1 0x40 MLOAD PUSH2 0x164 SWAP2 SWAP1 PUSH2 0x2A31 JUMP JUMPDEST PUSH1 0x40 MLOAD DUP1 SWAP2 SUB SWAP1 RETURN JUMPDEST PUSH2 0x187 PUSH1 0x4 DUP1 CALLDATASIZE SUB DUP2 ADD SWAP1 PUSH2 0x182 SWAP2 SWAP1 PUSH2 0x2AE2 JUMP JUMPDEST PUSH2 0x569 JUMP JUMPDEST PUSH1 0x40 MLOAD PUSH2 0x194 SWAP2 SWAP1 PUSH2 0x2B3A JUMP JUMPDEST PUSH1 0x40 MLOAD DUP1 SWAP2 SUB SWAP1 RETURN JUMPDEST PUSH2 0x1A5 PUSH2 0x58B JUMP JUMPDEST PUSH1 0x40 MLOAD PUSH2 0x1B2 SWAP2 SWAP1 PUSH2 0x2B62 JUMP JUMPDEST PUSH1 0x40 MLOAD DUP1 SWAP2 SUB SWAP1 RETURN JUMPDEST PUSH2 0x1D5 PUSH1 0x4 DUP1 CALLDATASIZE SUB DUP2 ADD SWAP1 PUSH2 0x1D0 SWAP2 SWAP1 PUSH2 0x2B7B JUMP JUMPDEST PUSH2 0x594 JUMP JUMPDEST PUSH1 0x40 MLOAD PUSH2 0x1E2 SWAP2 SWAP1 PUSH2 0x2B3A JUMP JUMPDEST PUSH1 0x40 MLOAD DUP1 SWAP2 SUB SWAP1 RETURN JUMPDEST PUSH2 0x1F3 PUSH2 0x5C2 JUMP JUMPDEST PUSH1 0x40 MLOAD PUSH2 0x200 SWAP2 SWAP1 PUSH2 0x2BE6 JUMP JUMPDEST PUSH1 0x40 MLOAD DUP1 SWAP2 SUB SWAP1 RETURN JUMPDEST PUSH2 0x211 PUSH2 0x5CA JUMP JUMPDEST PUSH1 0x40 MLOAD PUSH2 0x21E SWAP2 SWAP1 PUSH2 0x2C17 JUMP JUMPDEST PUSH1 0x40 MLOAD DUP1 SWAP2 SUB SWAP1 RETURN JUMPDEST PUSH2 0x241 PUSH1 0x4 DUP1 CALLDATASIZE SUB DUP2 ADD SWAP1 PUSH2 0x23C SWAP2 SWAP1 PUSH2 0x2AE2 JUMP JUMPDEST PUSH2 0x5D8 JUMP JUMPDEST PUSH1 0x40 MLOAD PUSH2 0x24E SWAP2 SWAP1 PUSH2 0x2B62 JUMP JUMPDEST PUSH1 0x40 MLOAD DUP1 SWAP2 SUB SWAP1 RETURN JUMPDEST PUSH2 0x25F PUSH2 0x6AE JUMP JUMPDEST PUSH1 0x40 MLOAD PUSH2 0x26C SWAP2 SWAP1 PUSH2 0x2A31 JUMP JUMPDEST PUSH1 0x40 MLOAD DUP1 SWAP2 SUB SWAP1 RETURN JUMPDEST PUSH2 0x28F PUSH1 0x4 DUP1 CALLDATASIZE SUB DUP2 ADD SWAP1 PUSH2 0x28A SWAP2 SWAP1 PUSH2 0x2C30 JUMP JUMPDEST PUSH2 0x742 JUMP JUMPDEST PUSH1 0x40 MLOAD PUSH2 0x29C SWAP2 SWAP1 PUSH2 0x2C6A JUMP JUMPDEST PUSH1 0x40 MLOAD DUP1 SWAP2 SUB SWAP1 RETURN JUMPDEST PUSH2 0x2BF PUSH1 0x4 DUP1 CALLDATASIZE SUB DUP2 ADD SWAP1 PUSH2 0x2BA SWAP2 SWAP1 PUSH2 0x2C30 JUMP JUMPDEST PUSH2 0x7A7 JUMP JUMPDEST STOP JUMPDEST PUSH2 0x2DB PUSH1 0x4 DUP1 CALLDATASIZE SUB DUP2 ADD SWAP1 PUSH2 0x2D6 SWAP2 SWAP1 PUSH2 0x2C30 JUMP JUMPDEST PUSH2 0x7C0 JUMP JUMPDEST PUSH1 0x40 MLOAD PUSH2 0x2E8 SWAP2 SWAP1 PUSH2 0x2CA1 JUMP JUMPDEST PUSH1 0x40 MLOAD DUP1 SWAP2 SUB SWAP1 RETURN JUMPDEST PUSH2 0x30B PUSH1 0x4 DUP1 CALLDATASIZE SUB DUP2 ADD SWAP1 PUSH2 0x306 SWAP2 SWAP1 PUSH2 0x2C30 JUMP JUMPDEST PUSH2 0x7D1 JUMP JUMPDEST PUSH1 0x40 MLOAD PUSH2 0x318 SWAP2 SWAP1 PUSH2 0x2B62 JUMP JUMPDEST PUSH1 0x40 MLOAD DUP1 SWAP2 SUB SWAP1 RETURN JUMPDEST PUSH2 0x33B PUSH1 0x4 DUP1 CALLDATASIZE SUB DUP2 ADD SWAP1 PUSH2 0x336 SWAP2 SWAP1 PUSH2 0x2C30 JUMP JUMPDEST PUSH2 0x816 JUMP JUMPDEST PUSH1 0x40 MLOAD PUSH2 0x348 SWAP2 SWAP1 PUSH2 0x2B62 JUMP JUMPDEST PUSH1 0x40 MLOAD DUP1 SWAP2 SUB SWAP1 RETURN JUMPDEST PUSH2 0x359 PUSH2 0x827 JUMP JUMPDEST PUSH1 0x40 MLOAD PUSH2 0x36C SWAP8 SWAP7 SWAP6 SWAP5 SWAP4 SWAP3 SWAP2 SWAP1 PUSH2 0x2DAB JUMP JUMPDEST PUSH1 0x40 MLOAD DUP1 SWAP2 SUB SWAP1 RETURN JUMPDEST PUSH2 0x38F PUSH1 0x4 DUP1 CALLDATASIZE SUB DUP2 ADD SWAP1 PUSH2 0x38A SWAP2 SWAP1 PUSH2 0x2E2D JUMP JUMPDEST PUSH2 0x8CC JUMP JUMPDEST PUSH1 0x40 MLOAD PUSH2 0x39C SWAP2 SWAP1 PUSH2 0x2B62 JUMP JUMPDEST PUSH1 0x40 MLOAD DUP1 SWAP2 SUB SWAP1 RETURN JUMPDEST PUSH2 0x3AD PUSH2 0x966 JUMP JUMPDEST PUSH1 0x40 MLOAD PUSH2 0x3BA SWAP2 SWAP1 PUSH2 0x2E78 JUMP JUMPDEST PUSH1 0x40 MLOAD DUP1 SWAP2 SUB SWAP1 RETURN JUMPDEST PUSH2 0x3CB PUSH2 0x974 JUMP JUMPDEST PUSH1 0x40 MLOAD PUSH2 0x3D8 SWAP2 SWAP1 PUSH2 0x2A31 JUMP JUMPDEST PUSH1 0x40 MLOAD DUP1 SWAP2 SUB SWAP1 RETURN JUMPDEST PUSH2 0x3FB PUSH1 0x4 DUP1 CALLDATASIZE SUB DUP2 ADD SWAP1 PUSH2 0x3F6 SWAP2 SWAP1 PUSH2 0x2C30 JUMP JUMPDEST PUSH2 0xA04 JUMP JUMPDEST PUSH1 0x40 MLOAD PUSH2 0x408 SWAP2 SWAP1 PUSH2 0x2B62 JUMP JUMPDEST PUSH1 0x40 MLOAD DUP1 SWAP2 SUB SWAP1 RETURN JUMPDEST PUSH2 0x42B PUSH1 0x4 DUP1 CALLDATASIZE SUB DUP2 ADD SWAP1 PUSH2 0x426 SWAP2 SWAP1 PUSH2 0x2AE2 JUMP JUMPDEST PUSH2 0xA6D JUMP JUMPDEST PUSH1 0x40 MLOAD PUSH2 0x438 SWAP2 SWAP1 PUSH2 0x2B3A JUMP JUMPDEST PUSH1 0x40 MLOAD DUP1 SWAP2 SUB SWAP1 RETURN JUMPDEST PUSH2 0x45B PUSH1 0x4 DUP1 CALLDATASIZE SUB DUP2 ADD SWAP1 PUSH2 0x456 SWAP2 SWAP1 PUSH2 0x2EE5 JUMP JUMPDEST PUSH2 0xA8F JUMP JUMPDEST STOP JUMPDEST PUSH2 0x477 PUSH1 0x4 DUP1 CALLDATASIZE SUB DUP2 ADD SWAP1 PUSH2 0x472 SWAP2 SWAP1 PUSH2 0x2F6E JUMP JUMPDEST PUSH2 0xB54 JUMP JUMPDEST STOP JUMPDEST PUSH2 0x493 PUSH1 0x4 DUP1 CALLDATASIZE SUB DUP2 ADD SWAP1 PUSH2 0x48E SWAP2 SWAP1 PUSH2 0x300B JUMP JUMPDEST PUSH2 0xC99 JUMP JUMPDEST PUSH1 0x40 MLOAD PUSH2 0x4A0 SWAP2 SWAP1 PUSH2 0x2B62 JUMP JUMPDEST PUSH1 0x40 MLOAD DUP1 SWAP2 SUB SWAP1 RETURN JUMPDEST PUSH2 0x4C3 PUSH1 0x4 DUP1 CALLDATASIZE SUB DUP2 ADD SWAP1 PUSH2 0x4BE SWAP2 SWAP1 PUSH2 0x3073 JUMP JUMPDEST PUSH2 0xD1B JUMP JUMPDEST PUSH1 0x40 MLOAD PUSH2 0x4D0 SWAP2 SWAP1 PUSH2 0x3121 JUMP JUMPDEST PUSH1 0x40 MLOAD DUP1 SWAP2 SUB SWAP1 RETURN JUMPDEST PUSH1 0x60 PUSH1 0x3 DUP1 SLOAD PUSH2 0x4E8 SWAP1 PUSH2 0x3167 JUMP JUMPDEST DUP1 PUSH1 0x1F ADD PUSH1 0x20 DUP1 SWAP2 DIV MUL PUSH1 0x20 ADD PUSH1 0x40 MLOAD SWAP1 DUP2 ADD PUSH1 0x40 MSTORE DUP1 SWAP3 SWAP2 SWAP1 DUP2 DUP2 MSTORE PUSH1 0x20 ADD DUP3 DUP1 SLOAD PUSH2 0x514 SWAP1 PUSH2 0x3167 JUMP JUMPDEST DUP1 ISZERO PUSH2 0x55F JUMPI DUP1 PUSH1 0x1F LT PUSH2 0x536 JUMPI PUSH2 0x100 DUP1 DUP4 SLOAD DIV MUL DUP4 MSTORE SWAP2 PUSH1 0x20 ADD SWAP2 PUSH2 0x55F JUMP JUMPDEST DUP3 ADD SWAP2 SWAP1 PUSH0 MSTORE PUSH1 0x20 PUSH0 KECCAK256 SWAP1 JUMPDEST DUP2 SLOAD DUP2 MSTORE SWAP1 PUSH1 0x1 ADD SWAP1 PUSH1 0x20 ADD DUP1 DUP4 GT PUSH2 0x542 JUMPI DUP3 SWAP1 SUB PUSH1 0x1F AND DUP3 ADD SWAP2 JUMPDEST POP POP POP POP POP SWAP1 POP SWAP1 JUMP JUMPDEST PUSH0 DUP1 PUSH2 0x573 PUSH2 0xD5F JUMP JUMPDEST SWAP1 POP PUSH2 0x580 DUP2 DUP6 DUP6 PUSH2 0xD66 JUMP JUMPDEST PUSH1 0x1 SWAP2 POP POP SWAP3 SWAP2 POP POP JUMP JUMPDEST PUSH0 PUSH1 0x2 SLOAD SWAP1 POP SWAP1 JUMP JUMPDEST PUSH0 DUP1 PUSH2 0x59E PUSH2 0xD5F JUMP JUMPDEST SWAP1 POP PUSH2 0x5AB DUP6 DUP3 DUP6 PUSH2 0xD78 JUMP JUMPDEST PUSH2 0x5B6 DUP6 DUP6 DUP6 PUSH2 0xE0A JUMP JUMPDEST PUSH1 0x1 SWAP2 POP POP SWAP4 SWAP3 POP POP POP JUMP JUMPDEST PUSH0 PUSH1 0x12 SWAP1 POP SWAP1 JUMP JUMPDEST PUSH0 PUSH2 0x5D3 PUSH2 0xEFA JUMP JUMPDEST SWAP1 POP SWAP1 JUMP JUMPDEST PUSH0 DUP1 PUSH2 0x5E2 PUSH2 0x966 JUMP JUMPDEST SWAP1 POP DUP1 PUSH6 0xFFFFFFFFFFFF AND DUP4 LT PUSH2 0x632 JUMPI DUP3 DUP2 PUSH1 0x40 MLOAD PUSH32 0xECD3F81E00000000000000000000000000000000000000000000000000000000 DUP2 MSTORE PUSH1 0x4 ADD PUSH2 0x629 SWAP3 SWAP2 SWAP1 PUSH2 0x3197 JUMP JUMPDEST PUSH1 0x40 MLOAD DUP1 SWAP2 SUB SWAP1 REVERT JUMPDEST PUSH2 0x689 PUSH2 0x63E DUP5 PUSH2 0xFB0 JUMP JUMPDEST PUSH1 0x9 PUSH0 DUP8 PUSH20 0xFFFFFFFFFFFFFFFFFFFFFFFFFFFFFFFFFFFFFFFF AND PUSH20 0xFFFFFFFFFFFFFFFFFFFFFFFFFFFFFFFFFFFFFFFF AND DUP2 MSTORE PUSH1 0x20 ADD SWAP1 DUP2 MSTORE PUSH1 0x20 ADD PUSH0 KECCAK256 PUSH2 0x1009 SWAP1 SWAP2 SWAP1 PUSH4 0xFFFFFFFF AND JUMP JUMPDEST PUSH26 0xFFFFFFFFFFFFFFFFFFFFFFFFFFFFFFFFFFFFFFFFFFFFFFFFFFFF AND SWAP2 POP POP SWAP3 SWAP2 POP POP JUMP JUMPDEST PUSH1 0x60 PUSH2 0x6B8 PUSH2 0x10F6 JUMP JUMPDEST PUSH6 0xFFFFFFFFFFFF AND PUSH2 0x6C8 PUSH2 0x966 JUMP JUMPDEST PUSH6 0xFFFFFFFFFFFF AND EQ PUSH2 0x707 JUMPI PUSH1 0x40 MLOAD PUSH32 0x6FF0714000000000000000000000000000000000000000000000000000000000 DUP2 MSTORE PUSH1 0x4 ADD PUSH1 0x40 MLOAD DUP1 SWAP2 SUB SWAP1 REVERT JUMPDEST PUSH1 0x40 MLOAD DUP1 PUSH1 0x40 ADD PUSH1 0x40 MSTORE DUP1 PUSH1 0x1D DUP2 MSTORE PUSH1 0x20 ADD PUSH32 0x6D6F64653D626C6F636B6E756D6265722666726F6D3D64656661756C74000000 DUP2 MSTORE POP SWAP1 POP SWAP1 JUMP JUMPDEST PUSH0 PUSH1 0x8 PUSH0 DUP4 PUSH20 0xFFFFFFFFFFFFFFFFFFFFFFFFFFFFFFFFFFFFFFFF AND PUSH20 0xFFFFFFFFFFFFFFFFFFFFFFFFFFFFFFFFFFFFFFFF AND DUP2 MSTORE PUSH1 0x20 ADD SWAP1 DUP2 MSTORE PUSH1 0x20 ADD PUSH0 KECCAK256 PUSH0 SWAP1 SLOAD SWAP1 PUSH2 0x100 EXP SWAP1 DIV PUSH20 0xFFFFFFFFFFFFFFFFFFFFFFFFFFFFFFFFFFFFFFFF AND SWAP1 POP SWAP2 SWAP1 POP JUMP JUMPDEST PUSH0 PUSH2 0x7B0 PUSH2 0xD5F JUMP JUMPDEST SWAP1 POP PUSH2 0x7BC DUP2 DUP4 PUSH2 0x1105 JUMP JUMPDEST POP POP JUMP JUMPDEST PUSH0 PUSH2 0x7CA DUP3 PUSH2 0x1215 JUMP JUMPDEST SWAP1 POP SWAP2 SWAP1 POP JUMP JUMPDEST PUSH0 DUP1 PUSH0 DUP4 PUSH20 0xFFFFFFFFFFFFFFFFFFFFFFFFFFFFFFFFFFFFFFFF AND PUSH20 0xFFFFFFFFFFFFFFFFFFFFFFFFFFFFFFFFFFFFFFFF AND DUP2 MSTORE PUSH1 0x20 ADD SWAP1 DUP2 MSTORE PUSH1 0x20 ADD PUSH0 KECCAK256 SLOAD SWAP1 POP SWAP2 SWAP1 POP JUMP JUMPDEST PUSH0 PUSH2 0x820 DUP3 PUSH2 0x126A JUMP JUMPDEST SWAP1 POP SWAP2 SWAP1 POP JUMP JUMPDEST PUSH0 PUSH1 0x60 DUP1 PUSH0 DUP1 PUSH0 PUSH1 0x60 PUSH2 0x838 PUSH2 0x127B JUMP JUMPDEST PUSH2 0x840 PUSH2 0x12B6 JUMP JUMPDEST CHAINID ADDRESS PUSH0 DUP1 SHL PUSH0 PUSH8 0xFFFFFFFFFFFFFFFF DUP2 GT ISZERO PUSH2 0x85F JUMPI PUSH2 0x85E PUSH2 0x31BE JUMP JUMPDEST JUMPDEST PUSH1 0x40 MLOAD SWAP1 DUP1 DUP3 MSTORE DUP1 PUSH1 0x20 MUL PUSH1 0x20 ADD DUP3 ADD PUSH1 0x40 MSTORE DUP1 ISZERO PUSH2 0x88D JUMPI DUP2 PUSH1 0x20 ADD PUSH1 0x20 DUP3 MUL DUP1 CALLDATASIZE DUP4 CALLDATACOPY DUP1 DUP3 ADD SWAP2 POP POP SWAP1 POP JUMPDEST POP PUSH32 0xF00000000000000000000000000000000000000000000000000000000000000 SWAP6 SWAP5 SWAP4 SWAP3 SWAP2 SWAP1 SWAP7 POP SWAP7 POP SWAP7 POP SWAP7 POP SWAP7 POP SWAP7 POP SWAP7 POP SWAP1 SWAP2 SWAP3 SWAP4 SWAP5 SWAP6 SWAP7 JUMP JUMPDEST PUSH0 DUP1 PUSH2 0x8D6 PUSH2 0x966 JUMP JUMPDEST SWAP1 POP DUP1 PUSH6 0xFFFFFFFFFFFF AND DUP4 LT PUSH2 0x926 JUMPI DUP3 DUP2 PUSH1 0x40 MLOAD PUSH32 0xECD3F81E00000000000000000000000000000000000000000000000000000000 DUP2 MSTORE PUSH1 0x4 ADD PUSH2 0x91D SWAP3 SWAP2 SWAP1 PUSH2 0x3197 JUMP JUMPDEST PUSH1 0x40 MLOAD DUP1 SWAP2 SUB SWAP1 REVERT JUMPDEST PUSH2 0x942 PUSH2 0x932 DUP5 PUSH2 0xFB0 JUMP JUMPDEST PUSH1 0xA PUSH2 0x1009 SWAP1 SWAP2 SWAP1 PUSH4 0xFFFFFFFF AND JUMP JUMPDEST PUSH26 0xFFFFFFFFFFFFFFFFFFFFFFFFFFFFFFFFFFFFFFFFFFFFFFFFFFFF AND SWAP2 POP POP SWAP2 SWAP1 POP JUMP JUMPDEST PUSH0 PUSH2 0x96F PUSH2 0x10F6 JUMP JUMPDEST SWAP1 POP SWAP1 JUMP JUMPDEST PUSH1 0x60 PUSH1 0x4 DUP1 SLOAD PUSH2 0x983 SWAP1 PUSH2 0x3167 JUMP JUMPDEST DUP1 PUSH1 0x1F ADD PUSH1 0x20 DUP1 SWAP2 DIV MUL PUSH1 0x20 ADD PUSH1 0x40 MLOAD SWAP1 DUP2 ADD PUSH1 0x40 MSTORE DUP1 SWAP3 SWAP2 SWAP1 DUP2 DUP2 MSTORE PUSH1 0x20 ADD DUP3 DUP1 SLOAD PUSH2 0x9AF SWAP1 PUSH2 0x3167 JUMP JUMPDEST DUP1 ISZERO PUSH2 0x9FA JUMPI DUP1 PUSH1 0x1F LT PUSH2 0x9D1 JUMPI PUSH2 0x100 DUP1 DUP4 SLOAD DIV MUL DUP4 MSTORE SWAP2 PUSH1 0x20 ADD SWAP2 PUSH2 0x9FA JUMP JUMPDEST DUP3 ADD SWAP2 SWAP1 PUSH0 MSTORE PUSH1 0x20 PUSH0 KECCAK256 SWAP1 JUMPDEST DUP2 SLOAD DUP2 MSTORE SWAP1 PUSH1 0x1 ADD SWAP1 PUSH1 0x20 ADD DUP1 DUP4 GT PUSH2 0x9DD JUMPI DUP3 SWAP1 SUB PUSH1 0x1F AND DUP3 ADD SWAP2 JUMPDEST POP POP POP POP POP SWAP1 POP SWAP1 JUMP JUMPDEST PUSH0 PUSH2 0xA4A PUSH1 0x9 PUSH0 DUP5 PUSH20 0xFFFFFFFFFFFFFFFFFFFFFFFFFFFFFFFFFFFFFFFF AND PUSH20 0xFFFFFFFFFFFFFFFFFFFFFFFFFFFFFFFFFFFFFFFF AND DUP2 MSTORE PUSH1 0x20 ADD SWAP1 DUP2 MSTORE PUSH1 0x20 ADD PUSH0 KECCAK256 PUSH2 0x12F1 JUMP JUMPDEST PUSH26 0xFFFFFFFFFFFFFFFFFFFFFFFFFFFFFFFFFFFFFFFFFFFFFFFFFFFF AND SWAP1 POP SWAP2 SWAP1 POP JUMP JUMPDEST PUSH0 DUP1 PUSH2 0xA77 PUSH2 0xD5F JUMP JUMPDEST SWAP1 POP PUSH2 0xA84 DUP2 DUP6 DUP6 PUSH2 0xE0A JUMP JUMPDEST PUSH1 0x1 SWAP2 POP POP SWAP3 SWAP2 POP POP JUMP JUMPDEST DUP4 TIMESTAMP GT ISZERO PUSH2 0xAD4 JUMPI DUP4 PUSH1 0x40 MLOAD PUSH32 0x4683AF0E00000000000000000000000000000000000000000000000000000000 DUP2 MSTORE PUSH1 0x4 ADD PUSH2 0xACB SWAP2 SWAP1 PUSH2 0x2B62 JUMP JUMPDEST PUSH1 0x40 MLOAD DUP1 SWAP2 SUB SWAP1 REVERT JUMPDEST PUSH0 PUSH2 0xB35 PUSH2 0xB2D PUSH32 0xE48329057BFD03D55E49B547132E39CFFD9C1820AD7B9D4C5307691425D15ADF DUP10 DUP10 DUP10 PUSH1 0x40 MLOAD PUSH1 0x20 ADD PUSH2 0xB12 SWAP5 SWAP4 SWAP3 SWAP2 SWAP1 PUSH2 0x31EB JUMP JUMPDEST PUSH1 0x40 MLOAD PUSH1 0x20 DUP2 DUP4 SUB SUB DUP2 MSTORE SWAP1 PUSH1 0x40 MSTORE DUP1 MLOAD SWAP1 PUSH1 0x20 ADD KECCAK256 PUSH2 0x1353 JUMP JUMPDEST DUP6 DUP6 DUP6 PUSH2 0x136C JUMP JUMPDEST SWAP1 POP PUSH2 0xB41 DUP2 DUP8 PUSH2 0x139A JUMP JUMPDEST PUSH2 0xB4B DUP2 DUP9 PUSH2 0x1105 JUMP JUMPDEST POP POP POP POP POP POP POP JUMP JUMPDEST DUP4 TIMESTAMP GT ISZERO PUSH2 0xB99 JUMPI DUP4 PUSH1 0x40 MLOAD PUSH32 0x6279130200000000000000000000000000000000000000000000000000000000 DUP2 MSTORE PUSH1 0x4 ADD PUSH2 0xB90 SWAP2 SWAP1 PUSH2 0x2B62 JUMP JUMPDEST PUSH1 0x40 MLOAD DUP1 SWAP2 SUB SWAP1 REVERT JUMPDEST PUSH0 PUSH32 0x6E71EDAE12B1B97F4D1F60370FEF10105FA2FAAE0126114A169C64845D6126C9 DUP9 DUP9 DUP9 PUSH2 0xBC7 DUP13 PUSH2 0x13F1 JUMP JUMPDEST DUP10 PUSH1 0x40 MLOAD PUSH1 0x20 ADD PUSH2 0xBDD SWAP7 SWAP6 SWAP5 SWAP4 SWAP3 SWAP2 SWAP1 PUSH2 0x322E JUMP JUMPDEST PUSH1 0x40 MLOAD PUSH1 0x20 DUP2 DUP4 SUB SUB DUP2 MSTORE SWAP1 PUSH1 0x40 MSTORE DUP1 MLOAD SWAP1 PUSH1 0x20 ADD KECCAK256 SWAP1 POP PUSH0 PUSH2 0xBFF DUP3 PUSH2 0x1353 JUMP JUMPDEST SWAP1 POP PUSH0 PUSH2 0xC0E DUP3 DUP8 DUP8 DUP8 PUSH2 0x136C JUMP JUMPDEST SWAP1 POP DUP10 PUSH20 0xFFFFFFFFFFFFFFFFFFFFFFFFFFFFFFFFFFFFFFFF AND DUP2 PUSH20 0xFFFFFFFFFFFFFFFFFFFFFFFFFFFFFFFFFFFFFFFF AND EQ PUSH2 0xC82 JUMPI DUP1 DUP11 PUSH1 0x40 MLOAD PUSH32 0x4B800E4600000000000000000000000000000000000000000000000000000000 DUP2 MSTORE PUSH1 0x4 ADD PUSH2 0xC79 SWAP3 SWAP2 SWAP1 PUSH2 0x328D JUMP JUMPDEST PUSH1 0x40 MLOAD DUP1 SWAP2 SUB SWAP1 REVERT JUMPDEST PUSH2 0xC8D DUP11 DUP11 DUP11 PUSH2 0xD66 JUMP JUMPDEST POP POP POP POP POP POP POP POP POP POP JUMP JUMPDEST PUSH0 PUSH1 0x1 PUSH0 DUP5 PUSH20 0xFFFFFFFFFFFFFFFFFFFFFFFFFFFFFFFFFFFFFFFF AND PUSH20 0xFFFFFFFFFFFFFFFFFFFFFFFFFFFFFFFFFFFFFFFF AND DUP2 MSTORE PUSH1 0x20 ADD SWAP1 DUP2 MSTORE PUSH1 0x20 ADD PUSH0 KECCAK256 PUSH0 DUP4 PUSH20 0xFFFFFFFFFFFFFFFFFFFFFFFFFFFFFFFFFFFFFFFF AND PUSH20 0xFFFFFFFFFFFFFFFFFFFFFFFFFFFFFFFFFFFFFFFF AND DUP2 MSTORE PUSH1 0x20 ADD SWAP1 DUP2 MSTORE PUSH1 0x20 ADD PUSH0 KECCAK256 SLOAD SWAP1 POP SWAP3 SWAP2 POP POP JUMP JUMPDEST PUSH2 0xD23 PUSH2 0x296B JUMP JUMPDEST PUSH2 0xD2D DUP4 DUP4 PUSH2 0x1444 JUMP JUMPDEST SWAP1 POP SWAP3 SWAP2 POP POP JUMP JUMPDEST PUSH0 DUP2 DUP4 PUSH2 0xD42 SWAP2 SWAP1 PUSH2 0x32E1 JUMP JUMPDEST SWAP1 POP SWAP3 SWAP2 POP POP JUMP JUMPDEST PUSH0 DUP2 DUP4 PUSH2 0xD57 SWAP2 SWAP1 PUSH2 0x332E JUMP JUMPDEST SWAP1 POP SWAP3 SWAP2 POP POP JUMP JUMPDEST PUSH0 CALLER SWAP1 POP SWAP1 JUMP JUMPDEST PUSH2 0xD73 DUP4 DUP4 DUP4 PUSH1 0x1 PUSH2 0x14A3 JUMP JUMPDEST POP POP POP JUMP JUMPDEST PUSH0 PUSH2 0xD83 DUP5 DUP5 PUSH2 0xC99 JUMP JUMPDEST SWAP1 POP PUSH32 0xFFFFFFFFFFFFFFFFFFFFFFFFFFFFFFFFFFFFFFFFFFFFFFFFFFFFFFFFFFFFFFFF DUP2 EQ PUSH2 0xE04 JUMPI DUP2 DUP2 LT ISZERO PUSH2 0xDF5 JUMPI DUP3 DUP2 DUP4 PUSH1 0x40 MLOAD PUSH32 0xFB8F41B200000000000000000000000000000000000000000000000000000000 DUP2 MSTORE PUSH1 0x4 ADD PUSH2 0xDEC SWAP4 SWAP3 SWAP2 SWAP1 PUSH2 0x337B JUMP JUMPDEST PUSH1 0x40 MLOAD DUP1 SWAP2 SUB SWAP1 REVERT JUMPDEST PUSH2 0xE03 DUP5 DUP5 DUP5 DUP5 SUB PUSH0 PUSH2 0x14A3 JUMP JUMPDEST JUMPDEST POP POP POP POP JUMP JUMPDEST PUSH0 PUSH20 0xFFFFFFFFFFFFFFFFFFFFFFFFFFFFFFFFFFFFFFFF AND DUP4 PUSH20 0xFFFFFFFFFFFFFFFFFFFFFFFFFFFFFFFFFFFFFFFF AND SUB PUSH2 0xE7A JUMPI PUSH0 PUSH1 0x40 MLOAD PUSH32 0x96C6FD1E00000000000000000000000000000000000000000000000000000000 DUP2 MSTORE PUSH1 0x4 ADD PUSH2 0xE71 SWAP2 SWAP1 PUSH2 0x2C6A JUMP JUMPDEST PUSH1 0x40 MLOAD DUP1 SWAP2 SUB SWAP1 REVERT JUMPDEST PUSH0 PUSH20 0xFFFFFFFFFFFFFFFFFFFFFFFFFFFFFFFFFFFFFFFF AND DUP3 PUSH20 0xFFFFFFFFFFFFFFFFFFFFFFFFFFFFFFFFFFFFFFFF AND SUB PUSH2 0xEEA JUMPI PUSH0 PUSH1 0x40 MLOAD PUSH32 0xEC442F0500000000000000000000000000000000000000000000000000000000 DUP2 MSTORE PUSH1 0x4 ADD PUSH2 0xEE1 SWAP2 SWAP1 PUSH2 0x2C6A JUMP JUMPDEST PUSH1 0x40 MLOAD DUP1 SWAP2 SUB SWAP1 REVERT JUMPDEST PUSH2 0xEF5 DUP4 DUP4 DUP4 PUSH2 0x1672 JUMP JUMPDEST POP POP POP JUMP JUMPDEST PUSH0 PUSH32 0x0 PUSH20 0xFFFFFFFFFFFFFFFFFFFFFFFFFFFFFFFFFFFFFFFF AND ADDRESS PUSH20 0xFFFFFFFFFFFFFFFFFFFFFFFFFFFFFFFFFFFFFFFF AND EQ DUP1 ISZERO PUSH2 0xF75 JUMPI POP PUSH32 0x0 CHAINID EQ JUMPDEST ISZERO PUSH2 0xFA2 JUMPI PUSH32 0x0 SWAP1 POP PUSH2 0xFAD JUMP JUMPDEST PUSH2 0xFAA PUSH2 0x1682 JUMP JUMPDEST SWAP1 POP JUMPDEST SWAP1 JUMP JUMPDEST PUSH0 PUSH6 0xFFFFFFFFFFFF DUP1 AND DUP3 GT ISZERO PUSH2 0x1001 JUMPI PUSH1 0x30 DUP3 PUSH1 0x40 MLOAD PUSH32 0x6DFCC65000000000000000000000000000000000000000000000000000000000 DUP2 MSTORE PUSH1 0x4 ADD PUSH2 0xFF8 SWAP3 SWAP2 SWAP1 PUSH2 0x33F2 JUMP JUMPDEST PUSH1 0x40 MLOAD DUP1 SWAP2 SUB SWAP1 REVERT JUMPDEST DUP2 SWAP1 POP SWAP2 SWAP1 POP JUMP JUMPDEST PUSH0 DUP1 DUP4 PUSH0 ADD DUP1 SLOAD SWAP1 POP SWAP1 POP PUSH0 DUP1 DUP3 SWAP1 POP PUSH1 0x5 DUP4 GT ISZERO PUSH2 0x108A JUMPI PUSH0 PUSH2 0x102C DUP5 PUSH2 0x1717 JUMP JUMPDEST DUP5 PUSH2 0x1037 SWAP2 SWAP1 PUSH2 0x3419 JUMP JUMPDEST SWAP1 POP PUSH2 0x1045 DUP8 PUSH0 ADD DUP3 PUSH2 0x180D JUMP JUMPDEST PUSH0 ADD PUSH0 SWAP1 SLOAD SWAP1 PUSH2 0x100 EXP SWAP1 DIV PUSH6 0xFFFFFFFFFFFF AND PUSH6 0xFFFFFFFFFFFF AND DUP7 PUSH6 0xFFFFFFFFFFFF AND LT ISZERO PUSH2 0x1078 JUMPI DUP1 SWAP2 POP PUSH2 0x1088 JUMP JUMPDEST PUSH1 0x1 DUP2 PUSH2 0x1085 SWAP2 SWAP1 PUSH2 0x344C JUMP JUMPDEST SWAP3 POP JUMPDEST POP JUMPDEST PUSH0 PUSH2 0x1099 DUP8 PUSH0 ADD DUP8 DUP6 DUP6 PUSH2 0x181F JUMP JUMPDEST SWAP1 POP PUSH0 DUP2 EQ PUSH2 0x10E8 JUMPI PUSH2 0x10BA DUP8 PUSH0 ADD PUSH1 0x1 DUP4 PUSH2 0x10B5 SWAP2 SWAP1 PUSH2 0x3419 JUMP JUMPDEST PUSH2 0x180D JUMP JUMPDEST PUSH0 ADD PUSH1 0x6 SWAP1 SLOAD SWAP1 PUSH2 0x100 EXP SWAP1 DIV PUSH26 0xFFFFFFFFFFFFFFFFFFFFFFFFFFFFFFFFFFFFFFFFFFFFFFFFFFFF AND PUSH2 0x10EA JUMP JUMPDEST PUSH0 JUMPDEST SWAP5 POP POP POP POP POP SWAP3 SWAP2 POP POP JUMP JUMPDEST PUSH0 PUSH2 0x1100 NUMBER PUSH2 0xFB0 JUMP JUMPDEST SWAP1 POP SWAP1 JUMP JUMPDEST PUSH0 PUSH2 0x110F DUP4 PUSH2 0x742 JUMP JUMPDEST SWAP1 POP DUP2 PUSH1 0x8 PUSH0 DUP6 PUSH20 0xFFFFFFFFFFFFFFFFFFFFFFFFFFFFFFFFFFFFFFFF AND PUSH20 0xFFFFFFFFFFFFFFFFFFFFFFFFFFFFFFFFFFFFFFFF AND DUP2 MSTORE PUSH1 0x20 ADD SWAP1 DUP2 MSTORE PUSH1 0x20 ADD PUSH0 KECCAK256 PUSH0 PUSH2 0x100 EXP DUP2 SLOAD DUP2 PUSH20 0xFFFFFFFFFFFFFFFFFFFFFFFFFFFFFFFFFFFFFFFF MUL NOT AND SWAP1 DUP4 PUSH20 0xFFFFFFFFFFFFFFFFFFFFFFFFFFFFFFFFFFFFFFFF AND MUL OR SWAP1 SSTORE POP DUP2 PUSH20 0xFFFFFFFFFFFFFFFFFFFFFFFFFFFFFFFFFFFFFFFF AND DUP2 PUSH20 0xFFFFFFFFFFFFFFFFFFFFFFFFFFFFFFFFFFFFFFFF AND DUP5 PUSH20 0xFFFFFFFFFFFFFFFFFFFFFFFFFFFFFFFFFFFFFFFF AND PUSH32 0x3134E8A2E6D97E929A7E54011EA5485D7D196DD5F0BA4D4EF95803E8E3FC257F PUSH1 0x40 MLOAD PUSH1 0x40 MLOAD DUP1 SWAP2 SUB SWAP1 LOG4 PUSH2 0x1210 DUP2 DUP4 PUSH2 0x120B DUP7 PUSH2 0x1894 JUMP JUMPDEST PUSH2 0x18A5 JUMP JUMPDEST POP POP POP JUMP JUMPDEST PUSH0 PUSH2 0x1263 PUSH2 0x125E PUSH1 0x9 PUSH0 DUP6 PUSH20 0xFFFFFFFFFFFFFFFFFFFFFFFFFFFFFFFFFFFFFFFF AND PUSH20 0xFFFFFFFFFFFFFFFFFFFFFFFFFFFFFFFFFFFFFFFF AND DUP2 MSTORE PUSH1 0x20 ADD SWAP1 DUP2 MSTORE PUSH1 0x20 ADD PUSH0 KECCAK256 PUSH2 0x1B15 JUMP JUMPDEST PUSH2 0x1B24 JUMP JUMPDEST SWAP1 POP SWAP2 SWAP1 POP JUMP JUMPDEST PUSH0 PUSH2 0x1274 DUP3 PUSH2 0x1B7B JUMP JUMPDEST SWAP1 POP SWAP2 SWAP1 POP JUMP JUMPDEST PUSH1 0x60 PUSH2 0x12B1 PUSH1 0x5 PUSH32 0x0 PUSH2 0x1BC1 SWAP1 SWAP2 SWAP1 PUSH4 0xFFFFFFFF AND JUMP JUMPDEST SWAP1 POP SWAP1 JUMP JUMPDEST PUSH1 0x60 PUSH2 0x12EC PUSH1 0x6 PUSH32 0x0 PUSH2 0x1BC1 SWAP1 SWAP2 SWAP1 PUSH4 0xFFFFFFFF AND JUMP JUMPDEST SWAP1 POP SWAP1 JUMP JUMPDEST PUSH0 DUP1 DUP3 PUSH0 ADD DUP1 SLOAD SWAP1 POP SWAP1 POP PUSH0 DUP2 EQ PUSH2 0x1349 JUMPI PUSH2 0x131B DUP4 PUSH0 ADD PUSH1 0x1 DUP4 PUSH2 0x1316 SWAP2 SWAP1 PUSH2 0x3419 JUMP JUMPDEST PUSH2 0x180D JUMP JUMPDEST PUSH0 ADD PUSH1 0x6 SWAP1 SLOAD SWAP1 PUSH2 0x100 EXP SWAP1 DIV PUSH26 0xFFFFFFFFFFFFFFFFFFFFFFFFFFFFFFFFFFFFFFFFFFFFFFFFFFFF AND PUSH2 0x134B JUMP JUMPDEST PUSH0 JUMPDEST SWAP2 POP POP SWAP2 SWAP1 POP JUMP JUMPDEST PUSH0 PUSH2 0x1365 PUSH2 0x135F PUSH2 0xEFA JUMP JUMPDEST DUP4 PUSH2 0x1C6E JUMP JUMPDEST SWAP1 POP SWAP2 SWAP1 POP JUMP JUMPDEST PUSH0 DUP1 PUSH0 DUP1 PUSH2 0x137C DUP9 DUP9 DUP9 DUP9 PUSH2 0x1CAE JUMP JUMPDEST SWAP3 POP SWAP3 POP SWAP3 POP PUSH2 0x138C DUP3 DUP3 PUSH2 0x1D95 JUMP JUMPDEST DUP3 SWAP4 POP POP POP POP SWAP5 SWAP4 POP POP POP POP JUMP JUMPDEST PUSH0 PUSH2 0x13A4 DUP4 PUSH2 0x13F1 JUMP JUMPDEST SWAP1 POP DUP1 DUP3 EQ PUSH2 0x13EC JUMPI DUP3 DUP2 PUSH1 0x40 MLOAD PUSH32 0x752D88C000000000000000000000000000000000000000000000000000000000 DUP2 MSTORE PUSH1 0x4 ADD PUSH2 0x13E3 SWAP3 SWAP2 SWAP1 PUSH2 0x347F JUMP JUMPDEST PUSH1 0x40 MLOAD DUP1 SWAP2 SUB SWAP1 REVERT JUMPDEST POP POP POP JUMP JUMPDEST PUSH0 PUSH1 0x7 PUSH0 DUP4 PUSH20 0xFFFFFFFFFFFFFFFFFFFFFFFFFFFFFFFFFFFFFFFF AND PUSH20 0xFFFFFFFFFFFFFFFFFFFFFFFFFFFFFFFFFFFFFFFF AND DUP2 MSTORE PUSH1 0x20 ADD SWAP1 DUP2 MSTORE PUSH1 0x20 ADD PUSH0 KECCAK256 PUSH0 DUP2 SLOAD DUP1 SWAP3 SWAP2 SWAP1 PUSH1 0x1 ADD SWAP2 SWAP1 POP SSTORE SWAP1 POP SWAP2 SWAP1 POP JUMP JUMPDEST PUSH2 0x144C PUSH2 0x296B JUMP JUMPDEST PUSH2 0x149B DUP3 PUSH1 0x9 PUSH0 DUP7 PUSH20 0xFFFFFFFFFFFFFFFFFFFFFFFFFFFFFFFFFFFFFFFF AND PUSH20 0xFFFFFFFFFFFFFFFFFFFFFFFFFFFFFFFFFFFFFFFF AND DUP2 MSTORE PUSH1 0x20 ADD SWAP1 DUP2 MSTORE PUSH1 0x20 ADD PUSH0 KECCAK256 PUSH2 0x1EF7 SWAP1 SWAP2 SWAP1 PUSH4 0xFFFFFFFF AND JUMP JUMPDEST SWAP1 POP SWAP3 SWAP2 POP POP JUMP JUMPDEST PUSH0 PUSH20 0xFFFFFFFFFFFFFFFFFFFFFFFFFFFFFFFFFFFFFFFF AND DUP5 PUSH20 0xFFFFFFFFFFFFFFFFFFFFFFFFFFFFFFFFFFFFFFFF AND SUB PUSH2 0x1513 JUMPI PUSH0 PUSH1 0x40 MLOAD PUSH32 0xE602DF0500000000000000000000000000000000000000000000000000000000 DUP2 MSTORE PUSH1 0x4 ADD PUSH2 0x150A SWAP2 SWAP1 PUSH2 0x2C6A JUMP JUMPDEST PUSH1 0x40 MLOAD DUP1 SWAP2 SUB SWAP1 REVERT JUMPDEST PUSH0 PUSH20 0xFFFFFFFFFFFFFFFFFFFFFFFFFFFFFFFFFFFFFFFF AND DUP4 PUSH20 0xFFFFFFFFFFFFFFFFFFFFFFFFFFFFFFFFFFFFFFFF AND SUB PUSH2 0x1583 JUMPI PUSH0 PUSH1 0x40 MLOAD PUSH32 0x94280D6200000000000000000000000000000000000000000000000000000000 DUP2 MSTORE PUSH1 0x4 ADD PUSH2 0x157A SWAP2 SWAP1 PUSH2 0x2C6A JUMP JUMPDEST PUSH1 0x40 MLOAD DUP1 SWAP2 SUB SWAP1 REVERT JUMPDEST DUP2 PUSH1 0x1 PUSH0 DUP7 PUSH20 0xFFFFFFFFFFFFFFFFFFFFFFFFFFFFFFFFFFFFFFFF AND PUSH20 0xFFFFFFFFFFFFFFFFFFFFFFFFFFFFFFFFFFFFFFFF AND DUP2 MSTORE PUSH1 0x20 ADD SWAP1 DUP2 MSTORE PUSH1 0x20 ADD PUSH0 KECCAK256 PUSH0 DUP6 PUSH20 0xFFFFFFFFFFFFFFFFFFFFFFFFFFFFFFFFFFFFFFFF AND PUSH20 0xFFFFFFFFFFFFFFFFFFFFFFFFFFFFFFFFFFFFFFFF AND DUP2 MSTORE PUSH1 0x20 ADD SWAP1 DUP2 MSTORE PUSH1 0x20 ADD PUSH0 KECCAK256 DUP2 SWAP1 SSTORE POP DUP1 ISZERO PUSH2 0x166C JUMPI DUP3 PUSH20 0xFFFFFFFFFFFFFFFFFFFFFFFFFFFFFFFFFFFFFFFF AND DUP5 PUSH20 0xFFFFFFFFFFFFFFFFFFFFFFFFFFFFFFFFFFFFFFFF AND PUSH32 0x8C5BE1E5EBEC7D5BD14F71427D1E84F3DD0314C0F7B2291E5B200AC8C7C3B925 DUP5 PUSH1 0x40 MLOAD PUSH2 0x1663 SWAP2 SWAP1 PUSH2 0x2B62 JUMP JUMPDEST PUSH1 0x40 MLOAD DUP1 SWAP2 SUB SWAP1 LOG3 JUMPDEST POP POP POP POP JUMP JUMPDEST PUSH2 0x167D DUP4 DUP4 DUP4 PUSH2 0x1FC6 JUMP JUMPDEST POP POP POP JUMP JUMPDEST PUSH0 PUSH32 0x8B73C3C69BB8FE3D512ECC4CF759CC79239F7B179B0FFACAA9A75D522B39400F PUSH32 0x0 PUSH32 0x0 CHAINID ADDRESS PUSH1 0x40 MLOAD PUSH1 0x20 ADD PUSH2 0x16FC SWAP6 SWAP5 SWAP4 SWAP3 SWAP2 SWAP1 PUSH2 0x34A6 JUMP JUMPDEST PUSH1 0x40 MLOAD PUSH1 0x20 DUP2 DUP4 SUB SUB DUP2 MSTORE SWAP1 PUSH1 0x40 MSTORE DUP1 MLOAD SWAP1 PUSH1 0x20 ADD KECCAK256 SWAP1 POP SWAP1 JUMP JUMPDEST PUSH0 DUP1 DUP3 SUB PUSH2 0x1727 JUMPI PUSH0 SWAP1 POP PUSH2 0x1808 JUMP JUMPDEST PUSH0 PUSH1 0x1 PUSH2 0x1733 DUP5 PUSH2 0x2074 JUMP JUMPDEST SWAP1 SHR PUSH1 0x1 SWAP1 SHL SWAP1 POP PUSH1 0x1 DUP2 DUP5 DUP2 PUSH2 0x174D JUMPI PUSH2 0x174C PUSH2 0x34F7 JUMP JUMPDEST JUMPDEST DIV DUP3 ADD SWAP1 SHR SWAP1 POP PUSH1 0x1 DUP2 DUP5 DUP2 PUSH2 0x1766 JUMPI PUSH2 0x1765 PUSH2 0x34F7 JUMP JUMPDEST JUMPDEST DIV DUP3 ADD SWAP1 SHR SWAP1 POP PUSH1 0x1 DUP2 DUP5 DUP2 PUSH2 0x177F JUMPI PUSH2 0x177E PUSH2 0x34F7 JUMP JUMPDEST JUMPDEST DIV DUP3 ADD SWAP1 SHR SWAP1 POP PUSH1 0x1 DUP2 DUP5 DUP2 PUSH2 0x1798 JUMPI PUSH2 0x1797 PUSH2 0x34F7 JUMP JUMPDEST JUMPDEST DIV DUP3 ADD SWAP1 SHR SWAP1 POP PUSH1 0x1 DUP2 DUP5 DUP2 PUSH2 0x17B1 JUMPI PUSH2 0x17B0 PUSH2 0x34F7 JUMP JUMPDEST JUMPDEST DIV DUP3 ADD SWAP1 SHR SWAP1 POP PUSH1 0x1 DUP2 DUP5 DUP2 PUSH2 0x17CA JUMPI PUSH2 0x17C9 PUSH2 0x34F7 JUMP JUMPDEST JUMPDEST DIV DUP3 ADD SWAP1 SHR SWAP1 POP PUSH1 0x1 DUP2 DUP5 DUP2 PUSH2 0x17E3 JUMPI PUSH2 0x17E2 PUSH2 0x34F7 JUMP JUMPDEST JUMPDEST DIV DUP3 ADD SWAP1 SHR SWAP1 POP PUSH2 0x1804 DUP2 DUP3 DUP6 DUP2 PUSH2 0x17FE JUMPI PUSH2 0x17FD PUSH2 0x34F7 JUMP JUMPDEST JUMPDEST DIV PUSH2 0x214B JUMP JUMPDEST SWAP2 POP POP JUMPDEST SWAP2 SWAP1 POP JUMP JUMPDEST PUSH0 DUP3 PUSH0 MSTORE DUP2 PUSH1 0x20 PUSH0 KECCAK256 ADD SWAP1 POP SWAP3 SWAP2 POP POP JUMP JUMPDEST PUSH0 JUMPDEST DUP2 DUP4 LT ISZERO PUSH2 0x1889 JUMPI PUSH0 PUSH2 0x1834 DUP5 DUP5 PUSH2 0x2163 JUMP JUMPDEST SWAP1 POP DUP5 PUSH6 0xFFFFFFFFFFFF AND PUSH2 0x1849 DUP8 DUP4 PUSH2 0x180D JUMP JUMPDEST PUSH0 ADD PUSH0 SWAP1 SLOAD SWAP1 PUSH2 0x100 EXP SWAP1 DIV PUSH6 0xFFFFFFFFFFFF AND PUSH6 0xFFFFFFFFFFFF AND GT ISZERO PUSH2 0x1873 JUMPI DUP1 SWAP3 POP PUSH2 0x1883 JUMP JUMPDEST PUSH1 0x1 DUP2 PUSH2 0x1880 SWAP2 SWAP1 PUSH2 0x344C JUMP JUMPDEST SWAP4 POP JUMPDEST POP PUSH2 0x1821 JUMP JUMPDEST DUP2 SWAP1 POP SWAP5 SWAP4 POP POP POP POP JUMP JUMPDEST PUSH0 PUSH2 0x189E DUP3 PUSH2 0x7D1 JUMP JUMPDEST SWAP1 POP SWAP2 SWAP1 POP JUMP JUMPDEST DUP2 PUSH20 0xFFFFFFFFFFFFFFFFFFFFFFFFFFFFFFFFFFFFFFFF AND DUP4 PUSH20 0xFFFFFFFFFFFFFFFFFFFFFFFFFFFFFFFFFFFFFFFF AND EQ ISZERO DUP1 ISZERO PUSH2 0x18E0 JUMPI POP PUSH0 DUP2 GT JUMPDEST ISZERO PUSH2 0x1B10 JUMPI PUSH0 PUSH20 0xFFFFFFFFFFFFFFFFFFFFFFFFFFFFFFFFFFFFFFFF AND DUP4 PUSH20 0xFFFFFFFFFFFFFFFFFFFFFFFFFFFFFFFFFFFFFFFF AND EQ PUSH2 0x19FA JUMPI PUSH0 DUP1 PUSH2 0x196B PUSH1 0x9 PUSH0 DUP8 PUSH20 0xFFFFFFFFFFFFFFFFFFFFFFFFFFFFFFFFFFFFFFFF AND PUSH20 0xFFFFFFFFFFFFFFFFFFFFFFFFFFFFFFFFFFFFFFFF AND DUP2 MSTORE PUSH1 0x20 ADD SWAP1 DUP2 MSTORE PUSH1 0x20 ADD PUSH0 KECCAK256 PUSH2 0xD4A PUSH2 0x1966 DUP7 PUSH2 0x2188 JUMP JUMPDEST PUSH2 0x21F5 JUMP JUMPDEST PUSH26 0xFFFFFFFFFFFFFFFFFFFFFFFFFFFFFFFFFFFFFFFFFFFFFFFFFFFF AND SWAP2 POP PUSH26 0xFFFFFFFFFFFFFFFFFFFFFFFFFFFFFFFFFFFFFFFFFFFFFFFFFFFF AND SWAP2 POP DUP5 PUSH20 0xFFFFFFFFFFFFFFFFFFFFFFFFFFFFFFFFFFFFFFFF AND PUSH32 0xDEC2BACDD2F05B59DE34DA9B523DFF8BE42E5E38E818C82FDB0BAE774387A724 DUP4 DUP4 PUSH1 0x40 MLOAD PUSH2 0x19EF SWAP3 SWAP2 SWAP1 PUSH2 0x3524 JUMP JUMPDEST PUSH1 0x40 MLOAD DUP1 SWAP2 SUB SWAP1 LOG2 POP POP JUMPDEST PUSH0 PUSH20 0xFFFFFFFFFFFFFFFFFFFFFFFFFFFFFFFFFFFFFFFF AND DUP3 PUSH20 0xFFFFFFFFFFFFFFFFFFFFFFFFFFFFFFFFFFFFFFFF AND EQ PUSH2 0x1B0F JUMPI PUSH0 DUP1 PUSH2 0x1A80 PUSH1 0x9 PUSH0 DUP7 PUSH20 0xFFFFFFFFFFFFFFFFFFFFFFFFFFFFFFFFFFFFFFFF AND PUSH20 0xFFFFFFFFFFFFFFFFFFFFFFFFFFFFFFFFFFFFFFFF AND DUP2 MSTORE PUSH1 0x20 ADD SWAP1 DUP2 MSTORE PUSH1 0x20 ADD PUSH0 KECCAK256 PUSH2 0xD35 PUSH2 0x1A7B DUP7 PUSH2 0x2188 JUMP JUMPDEST PUSH2 0x21F5 JUMP JUMPDEST PUSH26 0xFFFFFFFFFFFFFFFFFFFFFFFFFFFFFFFFFFFFFFFFFFFFFFFFFFFF AND SWAP2 POP PUSH26 0xFFFFFFFFFFFFFFFFFFFFFFFFFFFFFFFFFFFFFFFFFFFFFFFFFFFF AND SWAP2 POP DUP4 PUSH20 0xFFFFFFFFFFFFFFFFFFFFFFFFFFFFFFFFFFFFFFFF AND PUSH32 0xDEC2BACDD2F05B59DE34DA9B523DFF8BE42E5E38E818C82FDB0BAE774387A724 DUP4 DUP4 PUSH1 0x40 MLOAD PUSH2 0x1B04 SWAP3 SWAP2 SWAP1 PUSH2 0x3524 JUMP JUMPDEST PUSH1 0x40 MLOAD DUP1 SWAP2 SUB SWAP1 LOG2 POP POP JUMPDEST JUMPDEST POP POP POP JUMP JUMPDEST PUSH0 DUP2 PUSH0 ADD DUP1 SLOAD SWAP1 POP SWAP1 POP SWAP2 SWAP1 POP JUMP JUMPDEST PUSH0 PUSH4 0xFFFFFFFF DUP1 AND DUP3 GT ISZERO PUSH2 0x1B73 JUMPI PUSH1 0x20 DUP3 PUSH1 0x40 MLOAD PUSH32 0x6DFCC65000000000000000000000000000000000000000000000000000000000 DUP2 MSTORE PUSH1 0x4 ADD PUSH2 0x1B6A SWAP3 SWAP2 SWAP1 PUSH2 0x3584 JUMP JUMPDEST PUSH1 0x40 MLOAD DUP1 SWAP2 SUB SWAP1 REVERT JUMPDEST DUP2 SWAP1 POP SWAP2 SWAP1 POP JUMP JUMPDEST PUSH0 PUSH1 0x7 PUSH0 DUP4 PUSH20 0xFFFFFFFFFFFFFFFFFFFFFFFFFFFFFFFFFFFFFFFF AND PUSH20 0xFFFFFFFFFFFFFFFFFFFFFFFFFFFFFFFFFFFFFFFF AND DUP2 MSTORE PUSH1 0x20 ADD SWAP1 DUP2 MSTORE PUSH1 0x20 ADD PUSH0 KECCAK256 SLOAD SWAP1 POP SWAP2 SWAP1 POP JUMP JUMPDEST PUSH1 0x60 PUSH1 0xFF PUSH0 SHL DUP4 EQ PUSH2 0x1BDD JUMPI PUSH2 0x1BD6 DUP4 PUSH2 0x2234 JUMP JUMPDEST SWAP1 POP PUSH2 0x1C68 JUMP JUMPDEST DUP2 DUP1 SLOAD PUSH2 0x1BE9 SWAP1 PUSH2 0x3167 JUMP JUMPDEST DUP1 PUSH1 0x1F ADD PUSH1 0x20 DUP1 SWAP2 DIV MUL PUSH1 0x20 ADD PUSH1 0x40 MLOAD SWAP1 DUP2 ADD PUSH1 0x40 MSTORE DUP1 SWAP3 SWAP2 SWAP1 DUP2 DUP2 MSTORE PUSH1 0x20 ADD DUP3 DUP1 SLOAD PUSH2 0x1C15 SWAP1 PUSH2 0x3167 JUMP JUMPDEST DUP1 ISZERO PUSH2 0x1C60 JUMPI DUP1 PUSH1 0x1F LT PUSH2 0x1C37 JUMPI PUSH2 0x100 DUP1 DUP4 SLOAD DIV MUL DUP4 MSTORE SWAP2 PUSH1 0x20 ADD SWAP2 PUSH2 0x1C60 JUMP JUMPDEST DUP3 ADD SWAP2 SWAP1 PUSH0 MSTORE PUSH1 0x20 PUSH0 KECCAK256 SWAP1 JUMPDEST DUP2 SLOAD DUP2 MSTORE SWAP1 PUSH1 0x1 ADD SWAP1 PUSH1 0x20 ADD DUP1 DUP4 GT PUSH2 0x1C43 JUMPI DUP3 SWAP1 SUB PUSH1 0x1F AND DUP3 ADD SWAP2 JUMPDEST POP POP POP POP POP SWAP1 POP JUMPDEST SWAP3 SWAP2 POP POP JUMP JUMPDEST PUSH0 PUSH1 0x40 MLOAD PUSH32 0x1901000000000000000000000000000000000000000000000000000000000000 DUP2 MSTORE DUP4 PUSH1 0x2 DUP3 ADD MSTORE DUP3 PUSH1 0x22 DUP3 ADD MSTORE PUSH1 0x42 DUP2 KECCAK256 SWAP2 POP POP SWAP3 SWAP2 POP POP JUMP JUMPDEST PUSH0 DUP1 PUSH0 PUSH32 0x7FFFFFFFFFFFFFFFFFFFFFFFFFFFFFFF5D576E7357A4501DDFE92F46681B20A0 DUP5 PUSH0 SHR GT ISZERO PUSH2 0x1CEA JUMPI PUSH0 PUSH1 0x3 DUP6 SWAP3 POP SWAP3 POP SWAP3 POP PUSH2 0x1D8B JUMP JUMPDEST PUSH0 PUSH1 0x1 DUP9 DUP9 DUP9 DUP9 PUSH1 0x40 MLOAD PUSH0 DUP2 MSTORE PUSH1 0x20 ADD PUSH1 0x40 MSTORE PUSH1 0x40 MLOAD PUSH2 0x1D0D SWAP5 SWAP4 SWAP3 SWAP2 SWAP1 PUSH2 0x35AB JUMP JUMPDEST PUSH1 0x20 PUSH1 0x40 MLOAD PUSH1 0x20 DUP2 SUB SWAP1 DUP1 DUP5 SUB SWAP1 DUP6 GAS STATICCALL ISZERO DUP1 ISZERO PUSH2 0x1D2D JUMPI RETURNDATASIZE PUSH0 DUP1 RETURNDATACOPY RETURNDATASIZE PUSH0 REVERT JUMPDEST POP POP POP PUSH1 0x20 PUSH1 0x40 MLOAD SUB MLOAD SWAP1 POP PUSH0 PUSH20 0xFFFFFFFFFFFFFFFFFFFFFFFFFFFFFFFFFFFFFFFF AND DUP2 PUSH20 0xFFFFFFFFFFFFFFFFFFFFFFFFFFFFFFFFFFFFFFFF AND SUB PUSH2 0x1D7E JUMPI PUSH0 PUSH1 0x1 PUSH0 DUP1 SHL SWAP4 POP SWAP4 POP SWAP4 POP POP PUSH2 0x1D8B JUMP JUMPDEST DUP1 PUSH0 DUP1 PUSH0 SHL SWAP4 POP SWAP4 POP SWAP4 POP POP JUMPDEST SWAP5 POP SWAP5 POP SWAP5 SWAP2 POP POP JUMP JUMPDEST PUSH0 PUSH1 0x3 DUP2 GT ISZERO PUSH2 0x1DA8 JUMPI PUSH2 0x1DA7 PUSH2 0x35EE JUMP JUMPDEST JUMPDEST DUP3 PUSH1 0x3 DUP2 GT ISZERO PUSH2 0x1DBB JUMPI PUSH2 0x1DBA PUSH2 0x35EE JUMP JUMPDEST JUMPDEST SUB ISZERO PUSH2 0x1EF3 JUMPI PUSH1 0x1 PUSH1 0x3 DUP2 GT ISZERO PUSH2 0x1DD5 JUMPI PUSH2 0x1DD4 PUSH2 0x35EE JUMP JUMPDEST JUMPDEST DUP3 PUSH1 0x3 DUP2 GT ISZERO PUSH2 0x1DE8 JUMPI PUSH2 0x1DE7 PUSH2 0x35EE JUMP JUMPDEST JUMPDEST SUB PUSH2 0x1E1F JUMPI PUSH1 0x40 MLOAD PUSH32 0xF645EEDF00000000000000000000000000000000000000000000000000000000 DUP2 MSTORE PUSH1 0x4 ADD PUSH1 0x40 MLOAD DUP1 SWAP2 SUB SWAP1 REVERT JUMPDEST PUSH1 0x2 PUSH1 0x3 DUP2 GT ISZERO PUSH2 0x1E33 JUMPI PUSH2 0x1E32 PUSH2 0x35EE JUMP JUMPDEST JUMPDEST DUP3 PUSH1 0x3 DUP2 GT ISZERO PUSH2 0x1E46 JUMPI PUSH2 0x1E45 PUSH2 0x35EE JUMP JUMPDEST JUMPDEST SUB PUSH2 0x1E8A JUMPI DUP1 PUSH0 SHR PUSH1 0x40 MLOAD PUSH32 0xFCE698F700000000000000000000000000000000000000000000000000000000 DUP2 MSTORE PUSH1 0x4 ADD PUSH2 0x1E81 SWAP2 SWAP1 PUSH2 0x2B62 JUMP JUMPDEST PUSH1 0x40 MLOAD DUP1 SWAP2 SUB SWAP1 REVERT JUMPDEST PUSH1 0x3 DUP1 DUP2 GT ISZERO PUSH2 0x1E9D JUMPI PUSH2 0x1E9C PUSH2 0x35EE JUMP JUMPDEST JUMPDEST DUP3 PUSH1 0x3 DUP2 GT ISZERO PUSH2 0x1EB0 JUMPI PUSH2 0x1EAF PUSH2 0x35EE JUMP JUMPDEST JUMPDEST SUB PUSH2 0x1EF2 JUMPI DUP1 PUSH1 0x40 MLOAD PUSH32 0xD78BCE0C00000000000000000000000000000000000000000000000000000000 DUP2 MSTORE PUSH1 0x4 ADD PUSH2 0x1EE9 SWAP2 SWAP1 PUSH2 0x2C17 JUMP JUMPDEST PUSH1 0x40 MLOAD DUP1 SWAP2 SUB SWAP1 REVERT JUMPDEST JUMPDEST POP POP JUMP JUMPDEST PUSH2 0x1EFF PUSH2 0x296B JUMP JUMPDEST DUP3 PUSH0 ADD DUP3 PUSH4 0xFFFFFFFF AND DUP2 SLOAD DUP2 LT PUSH2 0x1F1A JUMPI PUSH2 0x1F19 PUSH2 0x361B JUMP JUMPDEST JUMPDEST SWAP1 PUSH0 MSTORE PUSH1 0x20 PUSH0 KECCAK256 ADD PUSH1 0x40 MLOAD DUP1 PUSH1 0x40 ADD PUSH1 0x40 MSTORE SWAP1 DUP2 PUSH0 DUP3 ADD PUSH0 SWAP1 SLOAD SWAP1 PUSH2 0x100 EXP SWAP1 DIV PUSH6 0xFFFFFFFFFFFF AND PUSH6 0xFFFFFFFFFFFF AND PUSH6 0xFFFFFFFFFFFF AND DUP2 MSTORE PUSH1 0x20 ADD PUSH0 DUP3 ADD PUSH1 0x6 SWAP1 SLOAD SWAP1 PUSH2 0x100 EXP SWAP1 DIV PUSH26 0xFFFFFFFFFFFFFFFFFFFFFFFFFFFFFFFFFFFFFFFFFFFFFFFFFFFF AND PUSH26 0xFFFFFFFFFFFFFFFFFFFFFFFFFFFFFFFFFFFFFFFFFFFFFFFFFFFF AND PUSH26 0xFFFFFFFFFFFFFFFFFFFFFFFFFFFFFFFFFFFFFFFFFFFFFFFFFFFF AND DUP2 MSTORE POP POP SWAP1 POP SWAP3 SWAP2 POP POP JUMP JUMPDEST PUSH2 0x1FD1 DUP4 DUP4 DUP4 PUSH2 0x22A6 JUMP JUMPDEST PUSH0 PUSH20 0xFFFFFFFFFFFFFFFFFFFFFFFFFFFFFFFFFFFFFFFF AND DUP4 PUSH20 0xFFFFFFFFFFFFFFFFFFFFFFFFFFFFFFFFFFFFFFFF AND SUB PUSH2 0x2064 JUMPI PUSH0 PUSH2 0x200D PUSH2 0x58B JUMP JUMPDEST SWAP1 POP PUSH0 PUSH2 0x2018 PUSH2 0x24BF JUMP JUMPDEST SWAP1 POP DUP1 DUP3 GT ISZERO PUSH2 0x2061 JUMPI DUP2 DUP2 PUSH1 0x40 MLOAD PUSH32 0x1CB15D2600000000000000000000000000000000000000000000000000000000 DUP2 MSTORE PUSH1 0x4 ADD PUSH2 0x2058 SWAP3 SWAP2 SWAP1 PUSH2 0x3524 JUMP JUMPDEST PUSH1 0x40 MLOAD DUP1 SWAP2 SUB SWAP1 REVERT JUMPDEST POP POP JUMPDEST PUSH2 0x206F DUP4 DUP4 DUP4 PUSH2 0x24E2 JUMP JUMPDEST POP POP POP JUMP JUMPDEST PUSH0 DUP1 PUSH0 SWAP1 POP PUSH0 PUSH1 0x80 DUP5 SWAP1 SHR GT ISZERO PUSH2 0x2093 JUMPI PUSH1 0x80 DUP4 SWAP1 SHR SWAP3 POP PUSH1 0x80 DUP2 ADD SWAP1 POP JUMPDEST PUSH0 PUSH1 0x40 DUP5 SWAP1 SHR GT ISZERO PUSH2 0x20AD JUMPI PUSH1 0x40 DUP4 SWAP1 SHR SWAP3 POP PUSH1 0x40 DUP2 ADD SWAP1 POP JUMPDEST PUSH0 PUSH1 0x20 DUP5 SWAP1 SHR GT ISZERO PUSH2 0x20C7 JUMPI PUSH1 0x20 DUP4 SWAP1 SHR SWAP3 POP PUSH1 0x20 DUP2 ADD SWAP1 POP JUMPDEST PUSH0 PUSH1 0x10 DUP5 SWAP1 SHR GT ISZERO PUSH2 0x20E1 JUMPI PUSH1 0x10 DUP4 SWAP1 SHR SWAP3 POP PUSH1 0x10 DUP2 ADD SWAP1 POP JUMPDEST PUSH0 PUSH1 0x8 DUP5 SWAP1 SHR GT ISZERO PUSH2 0x20FB JUMPI PUSH1 0x8 DUP4 SWAP1 SHR SWAP3 POP PUSH1 0x8 DUP2 ADD SWAP1 POP JUMPDEST PUSH0 PUSH1 0x4 DUP5 SWAP1 SHR GT ISZERO PUSH2 0x2115 JUMPI PUSH1 0x4 DUP4 SWAP1 SHR SWAP3 POP PUSH1 0x4 DUP2 ADD SWAP1 POP JUMPDEST PUSH0 PUSH1 0x2 DUP5 SWAP1 SHR GT ISZERO PUSH2 0x212F JUMPI PUSH1 0x2 DUP4 SWAP1 SHR SWAP3 POP PUSH1 0x2 DUP2 ADD SWAP1 POP JUMPDEST PUSH0 PUSH1 0x1 DUP5 SWAP1 SHR GT ISZERO PUSH2 0x2142 JUMPI PUSH1 0x1 DUP2 ADD SWAP1 POP JUMPDEST DUP1 SWAP2 POP POP SWAP2 SWAP1 POP JUMP JUMPDEST PUSH0 DUP2 DUP4 LT PUSH2 0x2159 JUMPI DUP2 PUSH2 0x215B JUMP JUMPDEST DUP3 JUMPDEST SWAP1 POP SWAP3 SWAP2 POP POP JUMP JUMPDEST PUSH0 PUSH1 0x2 DUP3 DUP5 XOR PUSH2 0x2173 SWAP2 SWAP1 PUSH2 0x3648 JUMP JUMPDEST DUP3 DUP5 AND PUSH2 0x2180 SWAP2 SWAP1 PUSH2 0x344C JUMP JUMPDEST SWAP1 POP SWAP3 SWAP2 POP POP JUMP JUMPDEST PUSH0 PUSH26 0xFFFFFFFFFFFFFFFFFFFFFFFFFFFFFFFFFFFFFFFFFFFFFFFFFFFF DUP1 AND DUP3 GT ISZERO PUSH2 0x21ED JUMPI PUSH1 0xD0 DUP3 PUSH1 0x40 MLOAD PUSH32 0x6DFCC65000000000000000000000000000000000000000000000000000000000 DUP2 MSTORE PUSH1 0x4 ADD PUSH2 0x21E4 SWAP3 SWAP2 SWAP1 PUSH2 0x36B1 JUMP JUMPDEST PUSH1 0x40 MLOAD DUP1 SWAP2 SUB SWAP1 REVERT JUMPDEST DUP2 SWAP1 POP SWAP2 SWAP1 POP JUMP JUMPDEST PUSH0 DUP1 PUSH2 0x2228 PUSH2 0x2202 PUSH2 0x966 JUMP JUMPDEST PUSH2 0x2218 PUSH2 0x220E DUP9 PUSH2 0x12F1 JUMP JUMPDEST DUP7 DUP9 PUSH4 0xFFFFFFFF AND JUMP JUMPDEST DUP8 PUSH2 0x259A SWAP1 SWAP3 SWAP2 SWAP1 PUSH4 0xFFFFFFFF AND JUMP JUMPDEST SWAP2 POP SWAP2 POP SWAP4 POP SWAP4 SWAP2 POP POP JUMP JUMPDEST PUSH1 0x60 PUSH0 PUSH2 0x2240 DUP4 PUSH2 0x25B5 JUMP JUMPDEST SWAP1 POP PUSH0 PUSH1 0x20 PUSH8 0xFFFFFFFFFFFFFFFF DUP2 GT ISZERO PUSH2 0x225E JUMPI PUSH2 0x225D PUSH2 0x31BE JUMP JUMPDEST JUMPDEST PUSH1 0x40 MLOAD SWAP1 DUP1 DUP3 MSTORE DUP1 PUSH1 0x1F ADD PUSH1 0x1F NOT AND PUSH1 0x20 ADD DUP3 ADD PUSH1 0x40 MSTORE DUP1 ISZERO PUSH2 0x2290 JUMPI DUP2 PUSH1 0x20 ADD PUSH1 0x1 DUP3 MUL DUP1 CALLDATASIZE DUP4 CALLDATACOPY DUP1 DUP3 ADD SWAP2 POP POP SWAP1 POP JUMPDEST POP SWAP1 POP DUP2 DUP2 MSTORE DUP4 PUSH1 0x20 DUP3 ADD MSTORE DUP1 SWAP3 POP POP POP SWAP2 SWAP1 POP JUMP JUMPDEST PUSH0 PUSH20 0xFFFFFFFFFFFFFFFFFFFFFFFFFFFFFFFFFFFFFFFF AND DUP4 PUSH20 0xFFFFFFFFFFFFFFFFFFFFFFFFFFFFFFFFFFFFFFFF AND SUB PUSH2 0x22F6 JUMPI DUP1 PUSH1 0x2 PUSH0 DUP3 DUP3 SLOAD PUSH2 0x22EA SWAP2 SWAP1 PUSH2 0x344C JUMP JUMPDEST SWAP3 POP POP DUP2 SWAP1 SSTORE POP PUSH2 0x23C4 JUMP JUMPDEST PUSH0 DUP1 PUSH0 DUP6 PUSH20 0xFFFFFFFFFFFFFFFFFFFFFFFFFFFFFFFFFFFFFFFF AND PUSH20 0xFFFFFFFFFFFFFFFFFFFFFFFFFFFFFFFFFFFFFFFF AND DUP2 MSTORE PUSH1 0x20 ADD SWAP1 DUP2 MSTORE PUSH1 0x20 ADD PUSH0 KECCAK256 SLOAD SWAP1 POP DUP2 DUP2 LT ISZERO PUSH2 0x237F JUMPI DUP4 DUP2 DUP4 PUSH1 0x40 MLOAD PUSH32 0xE450D38C00000000000000000000000000000000000000000000000000000000 DUP2 MSTORE PUSH1 0x4 ADD PUSH2 0x2376 SWAP4 SWAP3 SWAP2 SWAP1 PUSH2 0x337B JUMP JUMPDEST PUSH1 0x40 MLOAD DUP1 SWAP2 SUB SWAP1 REVERT JUMPDEST DUP2 DUP2 SUB PUSH0 DUP1 DUP7 PUSH20 0xFFFFFFFFFFFFFFFFFFFFFFFFFFFFFFFFFFFFFFFF AND PUSH20 0xFFFFFFFFFFFFFFFFFFFFFFFFFFFFFFFFFFFFFFFF AND DUP2 MSTORE PUSH1 0x20 ADD SWAP1 DUP2 MSTORE PUSH1 0x20 ADD PUSH0 KECCAK256 DUP2 SWAP1 SSTORE POP POP JUMPDEST PUSH0 PUSH20 0xFFFFFFFFFFFFFFFFFFFFFFFFFFFFFFFFFFFFFFFF AND DUP3 PUSH20 0xFFFFFFFFFFFFFFFFFFFFFFFFFFFFFFFFFFFFFFFF AND SUB PUSH2 0x240B JUMPI DUP1 PUSH1 0x2 PUSH0 DUP3 DUP3 SLOAD SUB SWAP3 POP POP DUP2 SWAP1 SSTORE POP PUSH2 0x2455 JUMP JUMPDEST DUP1 PUSH0 DUP1 DUP5 PUSH20 0xFFFFFFFFFFFFFFFFFFFFFFFFFFFFFFFFFFFFFFFF AND PUSH20 0xFFFFFFFFFFFFFFFFFFFFFFFFFFFFFFFFFFFFFFFF AND DUP2 MSTORE PUSH1 0x20 ADD SWAP1 DUP2 MSTORE PUSH1 0x20 ADD PUSH0 KECCAK256 PUSH0 DUP3 DUP3 SLOAD ADD SWAP3 POP POP DUP2 SWAP1 SSTORE POP JUMPDEST DUP2 PUSH20 0xFFFFFFFFFFFFFFFFFFFFFFFFFFFFFFFFFFFFFFFF AND DUP4 PUSH20 0xFFFFFFFFFFFFFFFFFFFFFFFFFFFFFFFFFFFFFFFF AND PUSH32 0xDDF252AD1BE2C89B69C2B068FC378DAA952BA7F163C4A11628F55A4DF523B3EF DUP4 PUSH1 0x40 MLOAD PUSH2 0x24B2 SWAP2 SWAP1 PUSH2 0x2B62 JUMP JUMPDEST PUSH1 0x40 MLOAD DUP1 SWAP2 SUB SWAP1 LOG3 POP POP POP JUMP JUMPDEST PUSH0 PUSH26 0xFFFFFFFFFFFFFFFFFFFFFFFFFFFFFFFFFFFFFFFFFFFFFFFFFFFF DUP1 AND SWAP1 POP SWAP1 JUMP JUMPDEST PUSH0 PUSH20 0xFFFFFFFFFFFFFFFFFFFFFFFFFFFFFFFFFFFFFFFF AND DUP4 PUSH20 0xFFFFFFFFFFFFFFFFFFFFFFFFFFFFFFFFFFFFFFFF AND SUB PUSH2 0x252E JUMPI PUSH2 0x252B PUSH1 0xA PUSH2 0xD35 PUSH2 0x2526 DUP5 PUSH2 0x2188 JUMP JUMPDEST PUSH2 0x21F5 JUMP JUMPDEST POP POP JUMPDEST PUSH0 PUSH20 0xFFFFFFFFFFFFFFFFFFFFFFFFFFFFFFFFFFFFFFFF AND DUP3 PUSH20 0xFFFFFFFFFFFFFFFFFFFFFFFFFFFFFFFFFFFFFFFF AND SUB PUSH2 0x257A JUMPI PUSH2 0x2577 PUSH1 0xA PUSH2 0xD4A PUSH2 0x2572 DUP5 PUSH2 0x2188 JUMP JUMPDEST PUSH2 0x21F5 JUMP JUMPDEST POP POP JUMPDEST PUSH2 0x2595 PUSH2 0x2586 DUP5 PUSH2 0x742 JUMP JUMPDEST PUSH2 0x258F DUP5 PUSH2 0x742 JUMP JUMPDEST DUP4 PUSH2 0x18A5 JUMP JUMPDEST POP POP POP JUMP JUMPDEST PUSH0 DUP1 PUSH2 0x25A9 DUP6 PUSH0 ADD DUP6 DUP6 PUSH2 0x2603 JUMP JUMPDEST SWAP2 POP SWAP2 POP SWAP4 POP SWAP4 SWAP2 POP POP JUMP JUMPDEST PUSH0 DUP1 PUSH1 0xFF DUP4 PUSH0 SHR AND SWAP1 POP PUSH1 0x1F DUP2 GT ISZERO PUSH2 0x25FA JUMPI PUSH1 0x40 MLOAD PUSH32 0xB3512B0C00000000000000000000000000000000000000000000000000000000 DUP2 MSTORE PUSH1 0x4 ADD PUSH1 0x40 MLOAD DUP1 SWAP2 SUB SWAP1 REVERT JUMPDEST DUP1 SWAP2 POP POP SWAP2 SWAP1 POP JUMP JUMPDEST PUSH0 DUP1 PUSH0 DUP6 DUP1 SLOAD SWAP1 POP SWAP1 POP PUSH0 DUP2 GT ISZERO PUSH2 0x2883 JUMPI PUSH0 PUSH2 0x262C DUP8 PUSH1 0x1 DUP5 PUSH2 0x2627 SWAP2 SWAP1 PUSH2 0x3419 JUMP JUMPDEST PUSH2 0x180D JUMP JUMPDEST PUSH1 0x40 MLOAD DUP1 PUSH1 0x40 ADD PUSH1 0x40 MSTORE SWAP1 DUP2 PUSH0 DUP3 ADD PUSH0 SWAP1 SLOAD SWAP1 PUSH2 0x100 EXP SWAP1 DIV PUSH6 0xFFFFFFFFFFFF AND PUSH6 0xFFFFFFFFFFFF AND PUSH6 0xFFFFFFFFFFFF AND DUP2 MSTORE PUSH1 0x20 ADD PUSH0 DUP3 ADD PUSH1 0x6 SWAP1 SLOAD SWAP1 PUSH2 0x100 EXP SWAP1 DIV PUSH26 0xFFFFFFFFFFFFFFFFFFFFFFFFFFFFFFFFFFFFFFFFFFFFFFFFFFFF AND PUSH26 0xFFFFFFFFFFFFFFFFFFFFFFFFFFFFFFFFFFFFFFFFFFFFFFFFFFFF AND PUSH26 0xFFFFFFFFFFFFFFFFFFFFFFFFFFFFFFFFFFFFFFFFFFFFFFFFFFFF AND DUP2 MSTORE POP POP SWAP1 POP DUP6 PUSH6 0xFFFFFFFFFFFF AND DUP2 PUSH0 ADD MLOAD PUSH6 0xFFFFFFFFFFFF AND GT ISZERO PUSH2 0x2717 JUMPI PUSH1 0x40 MLOAD PUSH32 0x2520601D00000000000000000000000000000000000000000000000000000000 DUP2 MSTORE PUSH1 0x4 ADD PUSH1 0x40 MLOAD DUP1 SWAP2 SUB SWAP1 REVERT JUMPDEST DUP6 PUSH6 0xFFFFFFFFFFFF AND DUP2 PUSH0 ADD MLOAD PUSH6 0xFFFFFFFFFFFF AND SUB PUSH2 0x2799 JUMPI DUP5 PUSH2 0x2748 DUP9 PUSH1 0x1 DUP6 PUSH2 0x2743 SWAP2 SWAP1 PUSH2 0x3419 JUMP JUMPDEST PUSH2 0x180D JUMP JUMPDEST PUSH0 ADD PUSH1 0x6 PUSH2 0x100 EXP DUP2 SLOAD DUP2 PUSH26 0xFFFFFFFFFFFFFFFFFFFFFFFFFFFFFFFFFFFFFFFFFFFFFFFFFFFF MUL NOT AND SWAP1 DUP4 PUSH26 0xFFFFFFFFFFFFFFFFFFFFFFFFFFFFFFFFFFFFFFFFFFFFFFFFFFFF AND MUL OR SWAP1 SSTORE POP PUSH2 0x2872 JUMP JUMPDEST DUP7 PUSH1 0x40 MLOAD DUP1 PUSH1 0x40 ADD PUSH1 0x40 MSTORE DUP1 DUP9 PUSH6 0xFFFFFFFFFFFF AND DUP2 MSTORE PUSH1 0x20 ADD DUP8 PUSH26 0xFFFFFFFFFFFFFFFFFFFFFFFFFFFFFFFFFFFFFFFFFFFFFFFFFFFF AND DUP2 MSTORE POP SWAP1 DUP1 PUSH1 0x1 DUP2 SLOAD ADD DUP1 DUP3 SSTORE DUP1 SWAP2 POP POP PUSH1 0x1 SWAP1 SUB SWAP1 PUSH0 MSTORE PUSH1 0x20 PUSH0 KECCAK256 ADD PUSH0 SWAP1 SWAP2 SWAP1 SWAP2 SWAP1 SWAP2 POP PUSH0 DUP3 ADD MLOAD DUP2 PUSH0 ADD PUSH0 PUSH2 0x100 EXP DUP2 SLOAD DUP2 PUSH6 0xFFFFFFFFFFFF MUL NOT AND SWAP1 DUP4 PUSH6 0xFFFFFFFFFFFF AND MUL OR SWAP1 SSTORE POP PUSH1 0x20 DUP3 ADD MLOAD DUP2 PUSH0 ADD PUSH1 0x6 PUSH2 0x100 EXP DUP2 SLOAD DUP2 PUSH26 0xFFFFFFFFFFFFFFFFFFFFFFFFFFFFFFFFFFFFFFFFFFFFFFFFFFFF MUL NOT AND SWAP1 DUP4 PUSH26 0xFFFFFFFFFFFFFFFFFFFFFFFFFFFFFFFFFFFFFFFFFFFFFFFFFFFF AND MUL OR SWAP1 SSTORE POP POP POP JUMPDEST DUP1 PUSH1 0x20 ADD MLOAD DUP6 SWAP4 POP SWAP4 POP POP POP PUSH2 0x2963 JUMP JUMPDEST DUP6 PUSH1 0x40 MLOAD DUP1 PUSH1 0x40 ADD PUSH1 0x40 MSTORE DUP1 DUP8 PUSH6 0xFFFFFFFFFFFF AND DUP2 MSTORE PUSH1 0x20 ADD DUP7 PUSH26 0xFFFFFFFFFFFFFFFFFFFFFFFFFFFFFFFFFFFFFFFFFFFFFFFFFFFF AND DUP2 MSTORE POP SWAP1 DUP1 PUSH1 0x1 DUP2 SLOAD ADD DUP1 DUP3 SSTORE DUP1 SWAP2 POP POP PUSH1 0x1 SWAP1 SUB SWAP1 PUSH0 MSTORE PUSH1 0x20 PUSH0 KECCAK256 ADD PUSH0 SWAP1 SWAP2 SWAP1 SWAP2 SWAP1 SWAP2 POP PUSH0 DUP3 ADD MLOAD DUP2 PUSH0 ADD PUSH0 PUSH2 0x100 EXP DUP2 SLOAD DUP2 PUSH6 0xFFFFFFFFFFFF MUL NOT AND SWAP1 DUP4 PUSH6 0xFFFFFFFFFFFF AND MUL OR SWAP1 SSTORE POP PUSH1 0x20 DUP3 ADD MLOAD DUP2 PUSH0 ADD PUSH1 0x6 PUSH2 0x100 EXP DUP2 SLOAD DUP2 PUSH26 0xFFFFFFFFFFFFFFFFFFFFFFFFFFFFFFFFFFFFFFFFFFFFFFFFFFFF MUL NOT AND SWAP1 DUP4 PUSH26 0xFFFFFFFFFFFFFFFFFFFFFFFFFFFFFFFFFFFFFFFFFFFFFFFFFFFF AND MUL OR SWAP1 SSTORE POP POP POP PUSH0 DUP5 SWAP3 POP SWAP3 POP POP JUMPDEST SWAP4 POP SWAP4 SWAP2 POP POP JUMP JUMPDEST PUSH1 0x40 MLOAD DUP1 PUSH1 0x40 ADD PUSH1 0x40 MSTORE DUP1 PUSH0 PUSH6 0xFFFFFFFFFFFF AND DUP2 MSTORE PUSH1 0x20 ADD PUSH0 PUSH26 0xFFFFFFFFFFFFFFFFFFFFFFFFFFFFFFFFFFFFFFFFFFFFFFFFFFFF AND DUP2 MSTORE POP SWAP1 JUMP JUMPDEST PUSH0 DUP2 MLOAD SWAP1 POP SWAP2 SWAP1 POP JUMP JUMPDEST PUSH0 DUP3 DUP3 MSTORE PUSH1 0x20 DUP3 ADD SWAP1 POP SWAP3 SWAP2 POP POP JUMP JUMPDEST PUSH0 JUMPDEST DUP4 DUP2 LT ISZERO PUSH2 0x29DE JUMPI DUP1 DUP3 ADD MLOAD DUP2 DUP5 ADD MSTORE PUSH1 0x20 DUP2 ADD SWAP1 POP PUSH2 0x29C3 JUMP JUMPDEST PUSH0 DUP5 DUP5 ADD MSTORE POP POP POP POP JUMP JUMPDEST PUSH0 PUSH1 0x1F NOT PUSH1 0x1F DUP4 ADD AND SWAP1 POP SWAP2 SWAP1 POP JUMP JUMPDEST PUSH0 PUSH2 0x2A03 DUP3 PUSH2 0x29A7 JUMP JUMPDEST PUSH2 0x2A0D DUP2 DUP6 PUSH2 0x29B1 JUMP JUMPDEST SWAP4 POP PUSH2 0x2A1D DUP2 DUP6 PUSH1 0x20 DUP7 ADD PUSH2 0x29C1 JUMP JUMPDEST PUSH2 0x2A26 DUP2 PUSH2 0x29E9 JUMP JUMPDEST DUP5 ADD SWAP2 POP POP SWAP3 SWAP2 POP POP JUMP JUMPDEST PUSH0 PUSH1 0x20 DUP3 ADD SWAP1 POP DUP2 DUP2 SUB PUSH0 DUP4 ADD MSTORE PUSH2 0x2A49 DUP2 DUP5 PUSH2 0x29F9 JUMP JUMPDEST SWAP1 POP SWAP3 SWAP2 POP POP JUMP JUMPDEST PUSH0 DUP1 REVERT JUMPDEST PUSH0 PUSH20 0xFFFFFFFFFFFFFFFFFFFFFFFFFFFFFFFFFFFFFFFF DUP3 AND SWAP1 POP SWAP2 SWAP1 POP JUMP JUMPDEST PUSH0 PUSH2 0x2A7E DUP3 PUSH2 0x2A55 JUMP JUMPDEST SWAP1 POP SWAP2 SWAP1 POP JUMP JUMPDEST PUSH2 0x2A8E DUP2 PUSH2 0x2A74 JUMP JUMPDEST DUP2 EQ PUSH2 0x2A98 JUMPI PUSH0 DUP1 REVERT JUMPDEST POP JUMP JUMPDEST PUSH0 DUP2 CALLDATALOAD SWAP1 POP PUSH2 0x2AA9 DUP2 PUSH2 0x2A85 JUMP JUMPDEST SWAP3 SWAP2 POP POP JUMP JUMPDEST PUSH0 DUP2 SWAP1 POP SWAP2 SWAP1 POP JUMP JUMPDEST PUSH2 0x2AC1 DUP2 PUSH2 0x2AAF JUMP JUMPDEST DUP2 EQ PUSH2 0x2ACB JUMPI PUSH0 DUP1 REVERT JUMPDEST POP JUMP JUMPDEST PUSH0 DUP2 CALLDATALOAD SWAP1 POP PUSH2 0x2ADC DUP2 PUSH2 0x2AB8 JUMP JUMPDEST SWAP3 SWAP2 POP POP JUMP JUMPDEST PUSH0 DUP1 PUSH1 0x40 DUP4 DUP6 SUB SLT ISZERO PUSH2 0x2AF8 JUMPI PUSH2 0x2AF7 PUSH2 0x2A51 JUMP JUMPDEST JUMPDEST PUSH0 PUSH2 0x2B05 DUP6 DUP3 DUP7 ADD PUSH2 0x2A9B JUMP JUMPDEST SWAP3 POP POP PUSH1 0x20 PUSH2 0x2B16 DUP6 DUP3 DUP7 ADD PUSH2 0x2ACE JUMP JUMPDEST SWAP2 POP POP SWAP3 POP SWAP3 SWAP1 POP JUMP JUMPDEST PUSH0 DUP2 ISZERO ISZERO SWAP1 POP SWAP2 SWAP1 POP JUMP JUMPDEST PUSH2 0x2B34 DUP2 PUSH2 0x2B20 JUMP JUMPDEST DUP3 MSTORE POP POP JUMP JUMPDEST PUSH0 PUSH1 0x20 DUP3 ADD SWAP1 POP PUSH2 0x2B4D PUSH0 DUP4 ADD DUP5 PUSH2 0x2B2B JUMP JUMPDEST SWAP3 SWAP2 POP POP JUMP JUMPDEST PUSH2 0x2B5C DUP2 PUSH2 0x2AAF JUMP JUMPDEST DUP3 MSTORE POP POP JUMP JUMPDEST PUSH0 PUSH1 0x20 DUP3 ADD SWAP1 POP PUSH2 0x2B75 PUSH0 DUP4 ADD DUP5 PUSH2 0x2B53 JUMP JUMPDEST SWAP3 SWAP2 POP POP JUMP JUMPDEST PUSH0 DUP1 PUSH0 PUSH1 0x60 DUP5 DUP7 SUB SLT ISZERO PUSH2 0x2B92 JUMPI PUSH2 0x2B91 PUSH2 0x2A51 JUMP JUMPDEST JUMPDEST PUSH0 PUSH2 0x2B9F DUP7 DUP3 DUP8 ADD PUSH2 0x2A9B JUMP JUMPDEST SWAP4 POP POP PUSH1 0x20 PUSH2 0x2BB0 DUP7 DUP3 DUP8 ADD PUSH2 0x2A9B JUMP JUMPDEST SWAP3 POP POP PUSH1 0x40 PUSH2 0x2BC1 DUP7 DUP3 DUP8 ADD PUSH2 0x2ACE JUMP JUMPDEST SWAP2 POP POP SWAP3 POP SWAP3 POP SWAP3 JUMP JUMPDEST PUSH0 PUSH1 0xFF DUP3 AND SWAP1 POP SWAP2 SWAP1 POP JUMP JUMPDEST PUSH2 0x2BE0 DUP2 PUSH2 0x2BCB JUMP JUMPDEST DUP3 MSTORE POP POP JUMP JUMPDEST PUSH0 PUSH1 0x20 DUP3 ADD SWAP1 POP PUSH2 0x2BF9 PUSH0 DUP4 ADD DUP5 PUSH2 0x2BD7 JUMP JUMPDEST SWAP3 SWAP2 POP POP JUMP JUMPDEST PUSH0 DUP2 SWAP1 POP SWAP2 SWAP1 POP JUMP JUMPDEST PUSH2 0x2C11 DUP2 PUSH2 0x2BFF JUMP JUMPDEST DUP3 MSTORE POP POP JUMP JUMPDEST PUSH0 PUSH1 0x20 DUP3 ADD SWAP1 POP PUSH2 0x2C2A PUSH0 DUP4 ADD DUP5 PUSH2 0x2C08 JUMP JUMPDEST SWAP3 SWAP2 POP POP JUMP JUMPDEST PUSH0 PUSH1 0x20 DUP3 DUP5 SUB SLT ISZERO PUSH2 0x2C45 JUMPI PUSH2 0x2C44 PUSH2 0x2A51 JUMP JUMPDEST JUMPDEST PUSH0 PUSH2 0x2C52 DUP5 DUP3 DUP6 ADD PUSH2 0x2A9B JUMP JUMPDEST SWAP2 POP POP SWAP3 SWAP2 POP POP JUMP JUMPDEST PUSH2 0x2C64 DUP2 PUSH2 0x2A74 JUMP JUMPDEST DUP3 MSTORE POP POP JUMP JUMPDEST PUSH0 PUSH1 0x20 DUP3 ADD SWAP1 POP PUSH2 0x2C7D PUSH0 DUP4 ADD DUP5 PUSH2 0x2C5B JUMP JUMPDEST SWAP3 SWAP2 POP POP JUMP JUMPDEST PUSH0 PUSH4 0xFFFFFFFF DUP3 AND SWAP1 POP SWAP2 SWAP1 POP JUMP JUMPDEST PUSH2 0x2C9B DUP2 PUSH2 0x2C83 JUMP JUMPDEST DUP3 MSTORE POP POP JUMP JUMPDEST PUSH0 PUSH1 0x20 DUP3 ADD SWAP1 POP PUSH2 0x2CB4 PUSH0 DUP4 ADD DUP5 PUSH2 0x2C92 JUMP JUMPDEST SWAP3 SWAP2 POP POP JUMP JUMPDEST PUSH0 PUSH32 0xFF00000000000000000000000000000000000000000000000000000000000000 DUP3 AND SWAP1 POP SWAP2 SWAP1 POP JUMP JUMPDEST PUSH2 0x2CEE DUP2 PUSH2 0x2CBA JUMP JUMPDEST DUP3 MSTORE POP POP JUMP JUMPDEST PUSH0 DUP2 MLOAD SWAP1 POP SWAP2 SWAP1 POP JUMP JUMPDEST PUSH0 DUP3 DUP3 MSTORE PUSH1 0x20 DUP3 ADD SWAP1 POP SWAP3 SWAP2 POP POP JUMP JUMPDEST PUSH0 DUP2 SWAP1 POP PUSH1 0x20 DUP3 ADD SWAP1 POP SWAP2 SWAP1 POP JUMP JUMPDEST PUSH2 0x2D26 DUP2 PUSH2 0x2AAF JUMP JUMPDEST DUP3 MSTORE POP POP JUMP JUMPDEST PUSH0 PUSH2 0x2D37 DUP4 DUP4 PUSH2 0x2D1D JUMP JUMPDEST PUSH1 0x20 DUP4 ADD SWAP1 POP SWAP3 SWAP2 POP POP JUMP JUMPDEST PUSH0 PUSH1 0x20 DUP3 ADD SWAP1 POP SWAP2 SWAP1 POP JUMP JUMPDEST PUSH0 PUSH2 0x2D59 DUP3 PUSH2 0x2CF4 JUMP JUMPDEST PUSH2 0x2D63 DUP2 DUP6 PUSH2 0x2CFE JUMP JUMPDEST SWAP4 POP PUSH2 0x2D6E DUP4 PUSH2 0x2D0E JUMP JUMPDEST DUP1 PUSH0 JUMPDEST DUP4 DUP2 LT ISZERO PUSH2 0x2D9E JUMPI DUP2 MLOAD PUSH2 0x2D85 DUP9 DUP3 PUSH2 0x2D2C JUMP JUMPDEST SWAP8 POP PUSH2 0x2D90 DUP4 PUSH2 0x2D43 JUMP JUMPDEST SWAP3 POP POP PUSH1 0x1 DUP2 ADD SWAP1 POP PUSH2 0x2D71 JUMP JUMPDEST POP DUP6 SWAP4 POP POP POP POP SWAP3 SWAP2 POP POP JUMP JUMPDEST PUSH0 PUSH1 0xE0 DUP3 ADD SWAP1 POP PUSH2 0x2DBE PUSH0 DUP4 ADD DUP11 PUSH2 0x2CE5 JUMP JUMPDEST DUP2 DUP2 SUB PUSH1 0x20 DUP4 ADD MSTORE PUSH2 0x2DD0 DUP2 DUP10 PUSH2 0x29F9 JUMP JUMPDEST SWAP1 POP DUP2 DUP2 SUB PUSH1 0x40 DUP4 ADD MSTORE PUSH2 0x2DE4 DUP2 DUP9 PUSH2 0x29F9 JUMP JUMPDEST SWAP1 POP PUSH2 0x2DF3 PUSH1 0x60 DUP4 ADD DUP8 PUSH2 0x2B53 JUMP JUMPDEST PUSH2 0x2E00 PUSH1 0x80 DUP4 ADD DUP7 PUSH2 0x2C5B JUMP JUMPDEST PUSH2 0x2E0D PUSH1 0xA0 DUP4 ADD DUP6 PUSH2 0x2C08 JUMP JUMPDEST DUP2 DUP2 SUB PUSH1 0xC0 DUP4 ADD MSTORE PUSH2 0x2E1F DUP2 DUP5 PUSH2 0x2D4F JUMP JUMPDEST SWAP1 POP SWAP9 SWAP8 POP POP POP POP POP POP POP POP JUMP JUMPDEST PUSH0 PUSH1 0x20 DUP3 DUP5 SUB SLT ISZERO PUSH2 0x2E42 JUMPI PUSH2 0x2E41 PUSH2 0x2A51 JUMP JUMPDEST JUMPDEST PUSH0 PUSH2 0x2E4F DUP5 DUP3 DUP6 ADD PUSH2 0x2ACE JUMP JUMPDEST SWAP2 POP POP SWAP3 SWAP2 POP POP JUMP JUMPDEST PUSH0 PUSH6 0xFFFFFFFFFFFF DUP3 AND SWAP1 POP SWAP2 SWAP1 POP JUMP JUMPDEST PUSH2 0x2E72 DUP2 PUSH2 0x2E58 JUMP JUMPDEST DUP3 MSTORE POP POP JUMP JUMPDEST PUSH0 PUSH1 0x20 DUP3 ADD SWAP1 POP PUSH2 0x2E8B PUSH0 DUP4 ADD DUP5 PUSH2 0x2E69 JUMP JUMPDEST SWAP3 SWAP2 POP POP JUMP JUMPDEST PUSH2 0x2E9A DUP2 PUSH2 0x2BCB JUMP JUMPDEST DUP2 EQ PUSH2 0x2EA4 JUMPI PUSH0 DUP1 REVERT JUMPDEST POP JUMP JUMPDEST PUSH0 DUP2 CALLDATALOAD SWAP1 POP PUSH2 0x2EB5 DUP2 PUSH2 0x2E91 JUMP JUMPDEST SWAP3 SWAP2 POP POP JUMP JUMPDEST PUSH2 0x2EC4 DUP2 PUSH2 0x2BFF JUMP JUMPDEST DUP2 EQ PUSH2 0x2ECE JUMPI PUSH0 DUP1 REVERT JUMPDEST POP JUMP JUMPDEST PUSH0 DUP2 CALLDATALOAD SWAP1 POP PUSH2 0x2EDF DUP2 PUSH2 0x2EBB JUMP JUMPDEST SWAP3 SWAP2 POP POP JUMP JUMPDEST PUSH0 DUP1 PUSH0 DUP1 PUSH0 DUP1 PUSH1 0xC0 DUP8 DUP10 SUB SLT ISZERO PUSH2 0x2EFF JUMPI PUSH2 0x2EFE PUSH2 0x2A51 JUMP JUMPDEST JUMPDEST PUSH0 PUSH2 0x2F0C DUP10 DUP3 DUP11 ADD PUSH2 0x2A9B JUMP JUMPDEST SWAP7 POP POP PUSH1 0x20 PUSH2 0x2F1D DUP10 DUP3 DUP11 ADD PUSH2 0x2ACE JUMP JUMPDEST SWAP6 POP POP PUSH1 0x40 PUSH2 0x2F2E DUP10 DUP3 DUP11 ADD PUSH2 0x2ACE JUMP JUMPDEST SWAP5 POP POP PUSH1 0x60 PUSH2 0x2F3F DUP10 DUP3 DUP11 ADD PUSH2 0x2EA7 JUMP JUMPDEST SWAP4 POP POP PUSH1 0x80 PUSH2 0x2F50 DUP10 DUP3 DUP11 ADD PUSH2 0x2ED1 JUMP JUMPDEST SWAP3 POP POP PUSH1 0xA0 PUSH2 0x2F61 DUP10 DUP3 DUP11 ADD PUSH2 0x2ED1 JUMP JUMPDEST SWAP2 POP POP SWAP3 SWAP6 POP SWAP3 SWAP6 POP SWAP3 SWAP6 JUMP JUMPDEST PUSH0 DUP1 PUSH0 DUP1 PUSH0 DUP1 PUSH0 PUSH1 0xE0 DUP9 DUP11 SUB SLT ISZERO PUSH2 0x2F89 JUMPI PUSH2 0x2F88 PUSH2 0x2A51 JUMP JUMPDEST JUMPDEST PUSH0 PUSH2 0x2F96 DUP11 DUP3 DUP12 ADD PUSH2 0x2A9B JUMP JUMPDEST SWAP8 POP POP PUSH1 0x20 PUSH2 0x2FA7 DUP11 DUP3 DUP12 ADD PUSH2 0x2A9B JUMP JUMPDEST SWAP7 POP POP PUSH1 0x40 PUSH2 0x2FB8 DUP11 DUP3 DUP12 ADD PUSH2 0x2ACE JUMP JUMPDEST SWAP6 POP POP PUSH1 0x60 PUSH2 0x2FC9 DUP11 DUP3 DUP12 ADD PUSH2 0x2ACE JUMP JUMPDEST SWAP5 POP POP PUSH1 0x80 PUSH2 0x2FDA DUP11 DUP3 DUP12 ADD PUSH2 0x2EA7 JUMP JUMPDEST SWAP4 POP POP PUSH1 0xA0 PUSH2 0x2FEB DUP11 DUP3 DUP12 ADD PUSH2 0x2ED1 JUMP JUMPDEST SWAP3 POP POP PUSH1 0xC0 PUSH2 0x2FFC DUP11 DUP3 DUP12 ADD PUSH2 0x2ED1 JUMP JUMPDEST SWAP2 POP POP SWAP3 SWAP6 SWAP9 SWAP2 SWAP5 SWAP8 POP SWAP3 SWAP6 POP JUMP JUMPDEST PUSH0 DUP1 PUSH1 0x40 DUP4 DUP6 SUB SLT ISZERO PUSH2 0x3021 JUMPI PUSH2 0x3020 PUSH2 0x2A51 JUMP JUMPDEST JUMPDEST PUSH0 PUSH2 0x302E DUP6 DUP3 DUP7 ADD PUSH2 0x2A9B JUMP JUMPDEST SWAP3 POP POP PUSH1 0x20 PUSH2 0x303F DUP6 DUP3 DUP7 ADD PUSH2 0x2A9B JUMP JUMPDEST SWAP2 POP POP SWAP3 POP SWAP3 SWAP1 POP JUMP JUMPDEST PUSH2 0x3052 DUP2 PUSH2 0x2C83 JUMP JUMPDEST DUP2 EQ PUSH2 0x305C JUMPI PUSH0 DUP1 REVERT JUMPDEST POP JUMP JUMPDEST PUSH0 DUP2 CALLDATALOAD SWAP1 POP PUSH2 0x306D DUP2 PUSH2 0x3049 JUMP JUMPDEST SWAP3 SWAP2 POP POP JUMP JUMPDEST PUSH0 DUP1 PUSH1 0x40 DUP4 DUP6 SUB SLT ISZERO PUSH2 0x3089 JUMPI PUSH2 0x3088 PUSH2 0x2A51 JUMP JUMPDEST JUMPDEST PUSH0 PUSH2 0x3096 DUP6 DUP3 DUP7 ADD PUSH2 0x2A9B JUMP JUMPDEST SWAP3 POP POP PUSH1 0x20 PUSH2 0x30A7 DUP6 DUP3 DUP7 ADD PUSH2 0x305F JUMP JUMPDEST SWAP2 POP POP SWAP3 POP SWAP3 SWAP1 POP JUMP JUMPDEST PUSH2 0x30BA DUP2 PUSH2 0x2E58 JUMP JUMPDEST DUP3 MSTORE POP POP JUMP JUMPDEST PUSH0 PUSH26 0xFFFFFFFFFFFFFFFFFFFFFFFFFFFFFFFFFFFFFFFFFFFFFFFFFFFF DUP3 AND SWAP1 POP SWAP2 SWAP1 POP JUMP JUMPDEST PUSH2 0x30EE DUP2 PUSH2 0x30C0 JUMP JUMPDEST DUP3 MSTORE POP POP JUMP JUMPDEST PUSH1 0x40 DUP3 ADD PUSH0 DUP3 ADD MLOAD PUSH2 0x3108 PUSH0 DUP6 ADD DUP3 PUSH2 0x30B1 JUMP JUMPDEST POP PUSH1 0x20 DUP3 ADD MLOAD PUSH2 0x311B PUSH1 0x20 DUP6 ADD DUP3 PUSH2 0x30E5 JUMP JUMPDEST POP POP POP POP JUMP JUMPDEST PUSH0 PUSH1 0x40 DUP3 ADD SWAP1 POP PUSH2 0x3134 PUSH0 DUP4 ADD DUP5 PUSH2 0x30F4 JUMP JUMPDEST SWAP3 SWAP2 POP POP JUMP JUMPDEST PUSH32 0x4E487B7100000000000000000000000000000000000000000000000000000000 PUSH0 MSTORE PUSH1 0x22 PUSH1 0x4 MSTORE PUSH1 0x24 PUSH0 REVERT JUMPDEST PUSH0 PUSH1 0x2 DUP3 DIV SWAP1 POP PUSH1 0x1 DUP3 AND DUP1 PUSH2 0x317E JUMPI PUSH1 0x7F DUP3 AND SWAP2 POP JUMPDEST PUSH1 0x20 DUP3 LT DUP2 SUB PUSH2 0x3191 JUMPI PUSH2 0x3190 PUSH2 0x313A JUMP JUMPDEST JUMPDEST POP SWAP2 SWAP1 POP JUMP JUMPDEST PUSH0 PUSH1 0x40 DUP3 ADD SWAP1 POP PUSH2 0x31AA PUSH0 DUP4 ADD DUP6 PUSH2 0x2B53 JUMP JUMPDEST PUSH2 0x31B7 PUSH1 0x20 DUP4 ADD DUP5 PUSH2 0x2E69 JUMP JUMPDEST SWAP4 SWAP3 POP POP POP JUMP JUMPDEST PUSH32 0x4E487B7100000000000000000000000000000000000000000000000000000000 PUSH0 MSTORE PUSH1 0x41 PUSH1 0x4 MSTORE PUSH1 0x24 PUSH0 REVERT JUMPDEST PUSH0 PUSH1 0x80 DUP3 ADD SWAP1 POP PUSH2 0x31FE PUSH0 DUP4 ADD DUP8 PUSH2 0x2C08 JUMP JUMPDEST PUSH2 0x320B PUSH1 0x20 DUP4 ADD DUP7 PUSH2 0x2C5B JUMP JUMPDEST PUSH2 0x3218 PUSH1 0x40 DUP4 ADD DUP6 PUSH2 0x2B53 JUMP JUMPDEST PUSH2 0x3225 PUSH1 0x60 DUP4 ADD DUP5 PUSH2 0x2B53 JUMP JUMPDEST SWAP6 SWAP5 POP POP POP POP POP JUMP JUMPDEST PUSH0 PUSH1 0xC0 DUP3 ADD SWAP1 POP PUSH2 0x3241 PUSH0 DUP4 ADD DUP10 PUSH2 0x2C08 JUMP JUMPDEST PUSH2 0x324E PUSH1 0x20 DUP4 ADD DUP9 PUSH2 0x2C5B JUMP JUMPDEST PUSH2 0x325B PUSH1 0x40 DUP4 ADD DUP8 PUSH2 0x2C5B JUMP JUMPDEST PUSH2 0x3268 PUSH1 0x60 DUP4 ADD DUP7 PUSH2 0x2B53 JUMP JUMPDEST PUSH2 0x3275 PUSH1 0x80 DUP4 ADD DUP6 PUSH2 0x2B53 JUMP JUMPDEST PUSH2 0x3282 PUSH1 0xA0 DUP4 ADD DUP5 PUSH2 0x2B53 JUMP JUMPDEST SWAP8 SWAP7 POP POP POP POP POP POP POP JUMP JUMPDEST PUSH0 PUSH1 0x40 DUP3 ADD SWAP1 POP PUSH2 0x32A0 PUSH0 DUP4 ADD DUP6 PUSH2 0x2C5B JUMP JUMPDEST PUSH2 0x32AD PUSH1 0x20 DUP4 ADD DUP5 PUSH2 0x2C5B JUMP JUMPDEST SWAP4 SWAP3 POP POP POP JUMP JUMPDEST PUSH32 0x4E487B7100000000000000000000000000000000000000000000000000000000 PUSH0 MSTORE PUSH1 0x11 PUSH1 0x4 MSTORE PUSH1 0x24 PUSH0 REVERT JUMPDEST PUSH0 PUSH2 0x32EB DUP3 PUSH2 0x30C0 JUMP JUMPDEST SWAP2 POP PUSH2 0x32F6 DUP4 PUSH2 0x30C0 JUMP JUMPDEST SWAP3 POP DUP3 DUP3 ADD SWAP1 POP PUSH26 0xFFFFFFFFFFFFFFFFFFFFFFFFFFFFFFFFFFFFFFFFFFFFFFFFFFFF DUP2 GT ISZERO PUSH2 0x3328 JUMPI PUSH2 0x3327 PUSH2 0x32B4 JUMP JUMPDEST JUMPDEST SWAP3 SWAP2 POP POP JUMP JUMPDEST PUSH0 PUSH2 0x3338 DUP3 PUSH2 0x30C0 JUMP JUMPDEST SWAP2 POP PUSH2 0x3343 DUP4 PUSH2 0x30C0 JUMP JUMPDEST SWAP3 POP DUP3 DUP3 SUB SWAP1 POP PUSH26 0xFFFFFFFFFFFFFFFFFFFFFFFFFFFFFFFFFFFFFFFFFFFFFFFFFFFF DUP2 GT ISZERO PUSH2 0x3375 JUMPI PUSH2 0x3374 PUSH2 0x32B4 JUMP JUMPDEST JUMPDEST SWAP3 SWAP2 POP POP JUMP JUMPDEST PUSH0 PUSH1 0x60 DUP3 ADD SWAP1 POP PUSH2 0x338E PUSH0 DUP4 ADD DUP7 PUSH2 0x2C5B JUMP JUMPDEST PUSH2 0x339B PUSH1 0x20 DUP4 ADD DUP6 PUSH2 0x2B53 JUMP JUMPDEST PUSH2 0x33A8 PUSH1 0x40 DUP4 ADD DUP5 PUSH2 0x2B53 JUMP JUMPDEST SWAP5 SWAP4 POP POP POP POP JUMP JUMPDEST PUSH0 DUP2 SWAP1 POP SWAP2 SWAP1 POP JUMP JUMPDEST PUSH0 DUP2 SWAP1 POP SWAP2 SWAP1 POP JUMP JUMPDEST PUSH0 PUSH2 0x33DC PUSH2 0x33D7 PUSH2 0x33D2 DUP5 PUSH2 0x33B0 JUMP JUMPDEST PUSH2 0x33B9 JUMP JUMPDEST PUSH2 0x2BCB JUMP JUMPDEST SWAP1 POP SWAP2 SWAP1 POP JUMP JUMPDEST PUSH2 0x33EC DUP2 PUSH2 0x33C2 JUMP JUMPDEST DUP3 MSTORE POP POP JUMP JUMPDEST PUSH0 PUSH1 0x40 DUP3 ADD SWAP1 POP PUSH2 0x3405 PUSH0 DUP4 ADD DUP6 PUSH2 0x33E3 JUMP JUMPDEST PUSH2 0x3412 PUSH1 0x20 DUP4 ADD DUP5 PUSH2 0x2B53 JUMP JUMPDEST SWAP4 SWAP3 POP POP POP JUMP JUMPDEST PUSH0 PUSH2 0x3423 DUP3 PUSH2 0x2AAF JUMP JUMPDEST SWAP2 POP PUSH2 0x342E DUP4 PUSH2 0x2AAF JUMP JUMPDEST SWAP3 POP DUP3 DUP3 SUB SWAP1 POP DUP2 DUP2 GT ISZERO PUSH2 0x3446 JUMPI PUSH2 0x3445 PUSH2 0x32B4 JUMP JUMPDEST JUMPDEST SWAP3 SWAP2 POP POP JUMP JUMPDEST PUSH0 PUSH2 0x3456 DUP3 PUSH2 0x2AAF JUMP JUMPDEST SWAP2 POP PUSH2 0x3461 DUP4 PUSH2 0x2AAF JUMP JUMPDEST SWAP3 POP DUP3 DUP3 ADD SWAP1 POP DUP1 DUP3 GT ISZERO PUSH2 0x3479 JUMPI PUSH2 0x3478 PUSH2 0x32B4 JUMP JUMPDEST JUMPDEST SWAP3 SWAP2 POP POP JUMP JUMPDEST PUSH0 PUSH1 0x40 DUP3 ADD SWAP1 POP PUSH2 0x3492 PUSH0 DUP4 ADD DUP6 PUSH2 0x2C5B JUMP JUMPDEST PUSH2 0x349F PUSH1 0x20 DUP4 ADD DUP5 PUSH2 0x2B53 JUMP JUMPDEST SWAP4 SWAP3 POP POP POP JUMP JUMPDEST PUSH0 PUSH1 0xA0 DUP3 ADD SWAP1 POP PUSH2 0x34B9 PUSH0 DUP4 ADD DUP9 PUSH2 0x2C08 JUMP JUMPDEST PUSH2 0x34C6 PUSH1 0x20 DUP4 ADD DUP8 PUSH2 0x2C08 JUMP JUMPDEST PUSH2 0x34D3 PUSH1 0x40 DUP4 ADD DUP7 PUSH2 0x2C08 JUMP JUMPDEST PUSH2 0x34E0 PUSH1 0x60 DUP4 ADD DUP6 PUSH2 0x2B53 JUMP JUMPDEST PUSH2 0x34ED PUSH1 0x80 DUP4 ADD DUP5 PUSH2 0x2C5B JUMP JUMPDEST SWAP7 SWAP6 POP POP POP POP POP POP JUMP JUMPDEST PUSH32 0x4E487B7100000000000000000000000000000000000000000000000000000000 PUSH0 MSTORE PUSH1 0x12 PUSH1 0x4 MSTORE PUSH1 0x24 PUSH0 REVERT JUMPDEST PUSH0 PUSH1 0x40 DUP3 ADD SWAP1 POP PUSH2 0x3537 PUSH0 DUP4 ADD DUP6 PUSH2 0x2B53 JUMP JUMPDEST PUSH2 0x3544 PUSH1 0x20 DUP4 ADD DUP5 PUSH2 0x2B53 JUMP JUMPDEST SWAP4 SWAP3 POP POP POP JUMP JUMPDEST PUSH0 DUP2 SWAP1 POP SWAP2 SWAP1 POP JUMP JUMPDEST PUSH0 PUSH2 0x356E PUSH2 0x3569 PUSH2 0x3564 DUP5 PUSH2 0x354B JUMP JUMPDEST PUSH2 0x33B9 JUMP JUMPDEST PUSH2 0x2BCB JUMP JUMPDEST SWAP1 POP SWAP2 SWAP1 POP JUMP JUMPDEST PUSH2 0x357E DUP2 PUSH2 0x3554 JUMP JUMPDEST DUP3 MSTORE POP POP JUMP JUMPDEST PUSH0 PUSH1 0x40 DUP3 ADD SWAP1 POP PUSH2 0x3597 PUSH0 DUP4 ADD DUP6 PUSH2 0x3575 JUMP JUMPDEST PUSH2 0x35A4 PUSH1 0x20 DUP4 ADD DUP5 PUSH2 0x2B53 JUMP JUMPDEST SWAP4 SWAP3 POP POP POP JUMP JUMPDEST PUSH0 PUSH1 0x80 DUP3 ADD SWAP1 POP PUSH2 0x35BE PUSH0 DUP4 ADD DUP8 PUSH2 0x2C08 JUMP JUMPDEST PUSH2 0x35CB PUSH1 0x20 DUP4 ADD DUP7 PUSH2 0x2BD7 JUMP JUMPDEST PUSH2 0x35D8 PUSH1 0x40 DUP4 ADD DUP6 PUSH2 0x2C08 JUMP JUMPDEST PUSH2 0x35E5 PUSH1 0x60 DUP4 ADD DUP5 PUSH2 0x2C08 JUMP JUMPDEST SWAP6 SWAP5 POP POP POP POP POP JUMP JUMPDEST PUSH32 0x4E487B7100000000000000000000000000000000000000000000000000000000 PUSH0 MSTORE PUSH1 0x21 PUSH1 0x4 MSTORE PUSH1 0x24 PUSH0 REVERT JUMPDEST PUSH32 0x4E487B7100000000000000000000000000000000000000000000000000000000 PUSH0 MSTORE PUSH1 0x32 PUSH1 0x4 MSTORE PUSH1 0x24 PUSH0 REVERT JUMPDEST PUSH0 PUSH2 0x3652 DUP3 PUSH2 0x2AAF JUMP JUMPDEST SWAP2 POP PUSH2 0x365D DUP4 PUSH2 0x2AAF JUMP JUMPDEST SWAP3 POP DUP3 PUSH2 0x366D JUMPI PUSH2 0x366C PUSH2 0x34F7 JUMP JUMPDEST JUMPDEST DUP3 DUP3 DIV SWAP1 POP SWAP3 SWAP2 POP POP JUMP JUMPDEST PUSH0 DUP2 SWAP1 POP SWAP2 SWAP1 POP JUMP JUMPDEST PUSH0 PUSH2 0x369B PUSH2 0x3696 PUSH2 0x3691 DUP5 PUSH2 0x3678 JUMP JUMPDEST PUSH2 0x33B9 JUMP JUMPDEST PUSH2 0x2BCB JUMP JUMPDEST SWAP1 POP SWAP2 SWAP1 POP JUMP JUMPDEST PUSH2 0x36AB DUP2 PUSH2 0x3681 JUMP JUMPDEST DUP3 MSTORE POP POP JUMP JUMPDEST PUSH0 PUSH1 0x40 DUP3 ADD SWAP1 POP PUSH2 0x36C4 PUSH0 DUP4 ADD DUP6 PUSH2 0x36A2 JUMP JUMPDEST PUSH2 0x36D1 PUSH1 0x20 DUP4 ADD DUP5 PUSH2 0x2B53 JUMP JUMPDEST SWAP4 SWAP3 POP POP POP JUMP INVALID LOG2 PUSH5 0x6970667358 0x22 SLT KECCAK256 0xB3 0xB2 RETURNDATASIZE CODECOPY 0xED PUSH4 0x5E8810D1 0xD0 DELEGATECALL 0x23 0xEA 0x4D 0x1E BALANCE 0xC6 0xD6 NOT PUSH24 0x99D69D29F0A8B8A2A2280764736F6C634300081600330000 "
  },
  "abi": [
    {
      "inputs": [
        {
          "internalType": "string",
          "name": "name",
          "type": "string"
        },
        {
          "internalType": "string",
          "name": "symbol",
          "type": "string"
        },
        {
          "internalType": "uint256",
          "name": "maxSupply",
          "type": "uint256"
        }
      ],
      "stateMutability": "nonpayable",
      "type": "constructor"
    },
    {
      "inputs": [],
      "name": "CheckpointUnorderedInsertion",
      "type": "error"
    },
    {
      "inputs": [],
      "name": "ECDSAInvalidSignature",
      "type": "error"
    },
    {
      "inputs": [
        {
          "internalType": "uint256",
          "name": "length",
          "type": "uint256"
        }
      ],
      "name": "ECDSAInvalidSignatureLength",
      "type": "error"
    },
    {
      "inputs": [
        {
          "internalType": "bytes32",
          "name": "s",
          "type": "bytes32"
        }
      ],
      "name": "ECDSAInvalidSignatureS",
      "type": "error"
    },
    {
      "inputs": [
        {
          "internalType": "uint256",
          "name": "increasedSupply",
          "type": "uint256"
        },
        {
          "internalType": "uint256",
          "name": "cap",
          "type": "uint256"
        }
      ],
      "name": "ERC20ExceededSafeSupply",
      "type": "error"
    },
    {
      "inputs": [
        {
          "internalType": "address",
          "name": "spender",
          "type": "address"
        },
        {
          "internalType": "uint256",
          "name": "allowance",
          "type": "uint256"
        },
        {
          "internalType": "uint256",
          "name": "needed",
          "type": "uint256"
        }
      ],
      "name": "ERC20InsufficientAllowance",
      "type": "error"
    },
    {
      "inputs": [
        {
          "internalType": "address",
          "name": "sender",
          "type": "address"
        },
        {
          "internalType": "uint256",
          "name": "balance",
          "type": "uint256"
        },
        {
          "internalType": "uint256",
          "name": "needed",
          "type": "uint256"
        }
      ],
      "name": "ERC20InsufficientBalance",
      "type": "error"
    },
    {
      "inputs": [
        {
          "internalType": "address",
          "name": "approver",
          "type": "address"
        }
      ],
      "name": "ERC20InvalidApprover",
      "type": "error"
    },
    {
      "inputs": [
        {
          "internalType": "address",
          "name": "receiver",
          "type": "address"
        }
      ],
      "name": "ERC20InvalidReceiver",
      "type": "error"
    },
    {
      "inputs": [
        {
          "internalType": "address",
          "name": "sender",
          "type": "address"
        }
      ],
      "name": "ERC20InvalidSender",
      "type": "error"
    },
    {
      "inputs": [
        {
          "internalType": "address",
          "name": "spender",
          "type": "address"
        }
      ],
      "name": "ERC20InvalidSpender",
      "type": "error"
    },
    {
      "inputs": [
        {
          "internalType": "uint256",
          "name": "deadline",
          "type": "uint256"
        }
      ],
      "name": "ERC2612ExpiredSignature",
      "type": "error"
    },
    {
      "inputs": [
        {
          "internalType": "address",
          "name": "signer",
          "type": "address"
        },
        {
          "internalType": "address",
          "name": "owner",
          "type": "address"
        }
      ],
      "name": "ERC2612InvalidSigner",
      "type": "error"
    },
    {
      "inputs": [
        {
          "internalType": "uint256",
          "name": "timepoint",
          "type": "uint256"
        },
        {
          "internalType": "uint48",
          "name": "clock",
          "type": "uint48"
        }
      ],
      "name": "ERC5805FutureLookup",
      "type": "error"
    },
    {
      "inputs": [],
      "name": "ERC6372InconsistentClock",
      "type": "error"
    },
    {
      "inputs": [
        {
          "internalType": "address",
          "name": "account",
          "type": "address"
        },
        {
          "internalType": "uint256",
          "name": "currentNonce",
          "type": "uint256"
        }
      ],
      "name": "InvalidAccountNonce",
      "type": "error"
    },
    {
      "inputs": [],
      "name": "InvalidShortString",
      "type": "error"
    },
    {
      "inputs": [
        {
          "internalType": "uint8",
          "name": "bits",
          "type": "uint8"
        },
        {
          "internalType": "uint256",
          "name": "value",
          "type": "uint256"
        }
      ],
      "name": "SafeCastOverflowedUintDowncast",
      "type": "error"
    },
    {
      "inputs": [
        {
          "internalType": "string",
          "name": "str",
          "type": "string"
        }
      ],
      "name": "StringTooLong",
      "type": "error"
    },
    {
      "inputs": [
        {
          "internalType": "uint256",
          "name": "expiry",
          "type": "uint256"
        }
      ],
      "name": "VotesExpiredSignature",
      "type": "error"
    },
    {
      "anonymous": false,
      "inputs": [
        {
          "indexed": true,
          "internalType": "address",
          "name": "owner",
          "type": "address"
        },
        {
          "indexed": true,
          "internalType": "address",
          "name": "spender",
          "type": "address"
        },
        {
          "indexed": false,
          "internalType": "uint256",
          "name": "value",
          "type": "uint256"
        }
      ],
      "name": "Approval",
      "type": "event"
    },
    {
      "anonymous": false,
      "inputs": [
        {
          "indexed": true,
          "internalType": "address",
          "name": "delegator",
          "type": "address"
        },
        {
          "indexed": true,
          "internalType": "address",
          "name": "fromDelegate",
          "type": "address"
        },
        {
          "indexed": true,
          "internalType": "address",
          "name": "toDelegate",
          "type": "address"
        }
      ],
      "name": "DelegateChanged",
      "type": "event"
    },
    {
      "anonymous": false,
      "inputs": [
        {
          "indexed": true,
          "internalType": "address",
          "name": "delegate",
          "type": "address"
        },
        {
          "indexed": false,
          "internalType": "uint256",
          "name": "previousVotes",
          "type": "uint256"
        },
        {
          "indexed": false,
          "internalType": "uint256",
          "name": "newVotes",
          "type": "uint256"
        }
      ],
      "name": "DelegateVotesChanged",
      "type": "event"
    },
    {
      "anonymous": false,
      "inputs": [],
      "name": "EIP712DomainChanged",
      "type": "event"
    },
    {
      "anonymous": false,
      "inputs": [
        {
          "indexed": true,
          "internalType": "address",
          "name": "from",
          "type": "address"
        },
        {
          "indexed": true,
          "internalType": "address",
          "name": "to",
          "type": "address"
        },
        {
          "indexed": false,
          "internalType": "uint256",
          "name": "value",
          "type": "uint256"
        }
      ],
      "name": "Transfer",
      "type": "event"
    },
    {
      "inputs": [],
      "name": "CLOCK_MODE",
      "outputs": [
        {
          "internalType": "string",
          "name": "",
          "type": "string"
        }
      ],
      "stateMutability": "view",
      "type": "function"
    },
    {
      "inputs": [],
      "name": "DOMAIN_SEPARATOR",
      "outputs": [
        {
          "internalType": "bytes32",
          "name": "",
          "type": "bytes32"
        }
      ],
      "stateMutability": "view",
      "type": "function"
    },
    {
      "inputs": [
        {
          "internalType": "address",
          "name": "owner",
          "type": "address"
        },
        {
          "internalType": "address",
          "name": "spender",
          "type": "address"
        }
      ],
      "name": "allowance",
      "outputs": [
        {
          "internalType": "uint256",
          "name": "",
          "type": "uint256"
        }
      ],
      "stateMutability": "view",
      "type": "function"
    },
    {
      "inputs": [
        {
          "internalType": "address",
          "name": "spender",
          "type": "address"
        },
        {
          "internalType": "uint256",
          "name": "value",
          "type": "uint256"
        }
      ],
      "name": "approve",
      "outputs": [
        {
          "internalType": "bool",
          "name": "",
          "type": "bool"
        }
      ],
      "stateMutability": "nonpayable",
      "type": "function"
    },
    {
      "inputs": [
        {
          "internalType": "address",
          "name": "account",
          "type": "address"
        }
      ],
      "name": "balanceOf",
      "outputs": [
        {
          "internalType": "uint256",
          "name": "",
          "type": "uint256"
        }
      ],
      "stateMutability": "view",
      "type": "function"
    },
    {
      "inputs": [
        {
          "internalType": "address",
          "name": "account",
          "type": "address"
        },
        {
          "internalType": "uint32",
          "name": "pos",
          "type": "uint32"
        }
      ],
      "name": "checkpoints",
      "outputs": [
        {
          "components": [
            {
              "internalType": "uint48",
              "name": "_key",
              "type": "uint48"
            },
            {
              "internalType": "uint208",
              "name": "_value",
              "type": "uint208"
            }
          ],
          "internalType": "struct Checkpoints.Checkpoint208",
          "name": "",
          "type": "tuple"
        }
      ],
      "stateMutability": "view",
      "type": "function"
    },
    {
      "inputs": [],
      "name": "clock",
      "outputs": [
        {
          "internalType": "uint48",
          "name": "",
          "type": "uint48"
        }
      ],
      "stateMutability": "view",
      "type": "function"
    },
    {
      "inputs": [],
      "name": "decimals",
      "outputs": [
        {
          "internalType": "uint8",
          "name": "",
          "type": "uint8"
        }
      ],
      "stateMutability": "view",
      "type": "function"
    },
    {
      "inputs": [
        {
          "internalType": "address",
          "name": "delegatee",
          "type": "address"
        }
      ],
      "name": "delegate",
      "outputs": [],
      "stateMutability": "nonpayable",
      "type": "function"
    },
    {
      "inputs": [
        {
          "internalType": "address",
          "name": "delegatee",
          "type": "address"
        },
        {
          "internalType": "uint256",
          "name": "nonce",
          "type": "uint256"
        },
        {
          "internalType": "uint256",
          "name": "expiry",
          "type": "uint256"
        },
        {
          "internalType": "uint8",
          "name": "v",
          "type": "uint8"
        },
        {
          "internalType": "bytes32",
          "name": "r",
          "type": "bytes32"
        },
        {
          "internalType": "bytes32",
          "name": "s",
          "type": "bytes32"
        }
      ],
      "name": "delegateBySig",
      "outputs": [],
      "stateMutability": "nonpayable",
      "type": "function"
    },
    {
      "inputs": [
        {
          "internalType": "address",
          "name": "account",
          "type": "address"
        }
      ],
      "name": "delegates",
      "outputs": [
        {
          "internalType": "address",
          "name": "",
          "type": "address"
        }
      ],
      "stateMutability": "view",
      "type": "function"
    },
    {
      "inputs": [],
      "name": "eip712Domain",
      "outputs": [
        {
          "internalType": "bytes1",
          "name": "fields",
          "type": "bytes1"
        },
        {
          "internalType": "string",
          "name": "name",
          "type": "string"
        },
        {
          "internalType": "string",
          "name": "version",
          "type": "string"
        },
        {
          "internalType": "uint256",
          "name": "chainId",
          "type": "uint256"
        },
        {
          "internalType": "address",
          "name": "verifyingContract",
          "type": "address"
        },
        {
          "internalType": "bytes32",
          "name": "salt",
          "type": "bytes32"
        },
        {
          "internalType": "uint256[]",
          "name": "extensions",
          "type": "uint256[]"
        }
      ],
      "stateMutability": "view",
      "type": "function"
    },
    {
      "inputs": [
        {
          "internalType": "uint256",
          "name": "timepoint",
          "type": "uint256"
        }
      ],
      "name": "getPastTotalSupply",
      "outputs": [
        {
          "internalType": "uint256",
          "name": "",
          "type": "uint256"
        }
      ],
      "stateMutability": "view",
      "type": "function"
    },
    {
      "inputs": [
        {
          "internalType": "address",
          "name": "account",
          "type": "address"
        },
        {
          "internalType": "uint256",
          "name": "timepoint",
          "type": "uint256"
        }
      ],
      "name": "getPastVotes",
      "outputs": [
        {
          "internalType": "uint256",
          "name": "",
          "type": "uint256"
        }
      ],
      "stateMutability": "view",
      "type": "function"
    },
    {
      "inputs": [
        {
          "internalType": "address",
          "name": "account",
          "type": "address"
        }
      ],
      "name": "getVotes",
      "outputs": [
        {
          "internalType": "uint256",
          "name": "",
          "type": "uint256"
        }
      ],
      "stateMutability": "view",
      "type": "function"
    },
    {
      "inputs": [],
      "name": "name",
      "outputs": [
        {
          "internalType": "string",
          "name": "",
          "type": "string"
        }
      ],
      "stateMutability": "view",
      "type": "function"
    },
    {
      "inputs": [
        {
          "internalType": "address",
          "name": "owner",
          "type": "address"
        }
      ],
      "name": "nonces",
      "outputs": [
        {
          "internalType": "uint256",
          "name": "",
          "type": "uint256"
        }
      ],
      "stateMutability": "view",
      "type": "function"
    },
    {
      "inputs": [
        {
          "internalType": "address",
          "name": "account",
          "type": "address"
        }
      ],
      "name": "numCheckpoints",
      "outputs": [
        {
          "internalType": "uint32",
          "name": "",
          "type": "uint32"
        }
      ],
      "stateMutability": "view",
      "type": "function"
    },
    {
      "inputs": [
        {
          "internalType": "address",
          "name": "owner",
          "type": "address"
        },
        {
          "internalType": "address",
          "name": "spender",
          "type": "address"
        },
        {
          "internalType": "uint256",
          "name": "value",
          "type": "uint256"
        },
        {
          "internalType": "uint256",
          "name": "deadline",
          "type": "uint256"
        },
        {
          "internalType": "uint8",
          "name": "v",
          "type": "uint8"
        },
        {
          "internalType": "bytes32",
          "name": "r",
          "type": "bytes32"
        },
        {
          "internalType": "bytes32",
          "name": "s",
          "type": "bytes32"
        }
      ],
      "name": "permit",
      "outputs": [],
      "stateMutability": "nonpayable",
      "type": "function"
    },
    {
      "inputs": [],
      "name": "symbol",
      "outputs": [
        {
          "internalType": "string",
          "name": "",
          "type": "string"
        }
      ],
      "stateMutability": "view",
      "type": "function"
    },
    {
      "inputs": [],
      "name": "totalSupply",
      "outputs": [
        {
          "internalType": "uint256",
          "name": "",
          "type": "uint256"
        }
      ],
      "stateMutability": "view",
      "type": "function"
    },
    {
      "inputs": [
        {
          "internalType": "address",
          "name": "to",
          "type": "address"
        },
        {
          "internalType": "uint256",
          "name": "value",
          "type": "uint256"
        }
      ],
      "name": "transfer",
      "outputs": [
        {
          "internalType": "bool",
          "name": "",
          "type": "bool"
        }
      ],
      "stateMutability": "nonpayable",
      "type": "function"
    },
    {
      "inputs": [
        {
          "internalType": "address",
          "name": "from",
          "type": "address"
        },
        {
          "internalType": "address",
          "name": "to",
          "type": "address"
        },
        {
          "internalType": "uint256",
          "name": "value",
          "type": "uint256"
        }
      ],
      "name": "transferFrom",
      "outputs": [
        {
          "internalType": "bool",
          "name": "",
          "type": "bool"
        }
      ],
      "stateMutability": "nonpayable",
      "type": "function"
    }
  ],
  "storageLayout": {
    "storage": [
      {
        "astId": 840,
        "contract": "TokenContract.sol:TokenContract",
        "label": "_balances",
        "offset": 0,
        "slot": "0",
        "type": "t_mapping(t_address,t_uint256)"
      },
      {
        "astId": 846,
        "contract": "TokenContract.sol:TokenContract",
        "label": "_allowances",
        "offset": 0,
        "slot": "1",
        "type": "t_mapping(t_address,t_mapping(t_address,t_uint256))"
      },
      {
        "astId": 848,
        "contract": "TokenContract.sol:TokenContract",
        "label": "_totalSupply",
        "offset": 0,
        "slot": "2",
        "type": "t_uint256"
      },
      {
        "astId": 850,
        "contract": "TokenContract.sol:TokenContract",
        "label": "_name",
        "offset": 0,
        "slot": "3",
        "type": "t_string_storage"
      },
      {
        "astId": 852,
        "contract": "TokenContract.sol:TokenContract",
        "label": "_symbol",
        "offset": 0,
        "slot": "4",
        "type": "t_string_storage"
      },
      {
        "astId": 2823,
        "contract": "TokenContract.sol:TokenContract",
        "label": "_nameFallback",
        "offset": 0,
        "slot": "5",
        "type": "t_string_storage"
      },
      {
        "astId": 2825,
        "contract": "TokenContract.sol:TokenContract",
        "label": "_versionFallback",
        "offset": 0,
        "slot": "6",
        "type": "t_string_storage"
      },
      {
        "astId": 1802,
        "contract": "TokenContract.sol:TokenContract",
        "label": "_nonces",
        "offset": 0,
        "slot": "7",
        "type": "t_mapping(t_address,t_uint256)"
      },
      {
        "astId": 122,
        "contract": "TokenContract.sol:TokenContract",
        "label": "_delegatee",
        "offset": 0,
        "slot": "8",
        "type": "t_mapping(t_address,t_address)"
      },
      {
        "astId": 127,
        "contract": "TokenContract.sol:TokenContract",
        "label": "_delegateCheckpoints",
        "offset": 0,
        "slot": "9",
        "type": "t_mapping(t_address,t_struct(Trace208)6535_storage)"
      },
      {
        "astId": 130,
        "contract": "TokenContract.sol:TokenContract",
        "label": "_totalCheckpoints",
        "offset": 0,
        "slot": "10",
        "type": "t_struct(Trace208)6535_storage"
      }
    ],
    "types": {
      "t_address": {
        "encoding": "inplace",
        "label": "address",
        "numberOfBytes": "20"
      },
      "t_array(t_struct(Checkpoint208)6540_storage)dyn_storage": {
        "base": "t_struct(Checkpoint208)6540_storage",
        "encoding": "dynamic_array",
        "label": "struct Checkpoints.Checkpoint208[]",
        "numberOfBytes": "32"
      },
      "t_mapping(t_address,t_address)": {
        "encoding": "mapping",
        "key": "t_address",
        "label": "mapping(address => address)",
        "numberOfBytes": "32",
        "value": "t_address"
      },
      "t_mapping(t_address,t_mapping(t_address,t_uint256))": {
        "encoding": "mapping",
        "key": "t_address",
        "label": "mapping(address => mapping(address => uint256))",
        "numberOfBytes": "32",
        "value": "t_mapping(t_address,t_uint256)"
      },
      "t_mapping(t_address,t_struct(Trace208)6535_storage)": {
        "encoding": "mapping",
        "key": "t_address",
        "label": "mapping(address => struct Checkpoints.Trace208)",
        "numberOfBytes": "32",
        "value": "t_struct(Trace208)6535_storage"
      },
      "t_mapping(t_address,t_uint256)": {
        "encoding": "mapping",
        "key": "t_address",
        "label": "mapping(address => uint256)",
        "numberOfBytes": "32",
        "value": "t_uint256"
      },
      "t_string_storage": {
        "encoding": "bytes",
        "label": "string",
        "numberOfBytes": "32"
      },
      "t_struct(Checkpoint208)6540_storage": {
        "encoding": "inplace",
        "label": "struct Checkpoints.Checkpoint208",
        "members": [
          {
            "astId": 6537,
            "contract": "TokenContract.sol:TokenContract",
            "label": "_key",
            "offset": 0,
            "slot": "0",
            "type": "t_uint48"
          },
          {
            "astId": 6539,
            "contract": "TokenContract.sol:TokenContract",
            "label": "_value",
            "offset": 6,
            "slot": "0",
            "type": "t_uint208"
          }
        ],
        "numberOfBytes": "32"
      },
      "t_struct(Trace208)6535_storage": {
        "encoding": "inplace",
        "label": "struct Checkpoints.Trace208",
        "members": [
          {
            "astId": 6534,
            "contract": "TokenContract.sol:TokenContract",
            "label": "_checkpoints",
            "offset": 0,
            "slot": "0",
            "type": "t_array(t_struct(Checkpoint208)6540_storage)dyn_storage"
          }
        ],
        "numberOfBytes": "32"
      },
      "t_uint208": {
        "encoding": "inplace",
        "label": "uint208",
        "numberOfBytes": "26"
      },
      "t_uint256": {
        "encoding": "inplace",
        "label": "uint256",
        "numberOfBytes": "32"
      },
      "t_uint48": {
        "encoding": "inplace",
        "label": "uint48",
        "numberOfBytes": "6"
      }
    }
  },
  "web3Deploy": "var name = /* var of type string here */ ;\nvar symbol = /* var of type string here */ ;\nvar maxSupply = /* var of type uint256 here */ ;\nvar tokencontractContract = new web3.eth.Contract([{\"inputs\":[{\"internalType\":\"string\",\"name\":\"name\",\"type\":\"string\"},{\"internalType\":\"string\",\"name\":\"symbol\",\"type\":\"string\"},{\"internalType\":\"uint256\",\"name\":\"maxSupply\",\"type\":\"uint256\"}],\"stateMutability\":\"nonpayable\",\"type\":\"constructor\"},{\"inputs\":[],\"name\":\"CheckpointUnorderedInsertion\",\"type\":\"error\"},{\"inputs\":[],\"name\":\"ECDSAInvalidSignature\",\"type\":\"error\"},{\"inputs\":[{\"internalType\":\"uint256\",\"name\":\"length\",\"type\":\"uint256\"}],\"name\":\"ECDSAInvalidSignatureLength\",\"type\":\"error\"},{\"inputs\":[{\"internalType\":\"bytes32\",\"name\":\"s\",\"type\":\"bytes32\"}],\"name\":\"ECDSAInvalidSignatureS\",\"type\":\"error\"},{\"inputs\":[{\"internalType\":\"uint256\",\"name\":\"increasedSupply\",\"type\":\"uint256\"},{\"internalType\":\"uint256\",\"name\":\"cap\",\"type\":\"uint256\"}],\"name\":\"ERC20ExceededSafeSupply\",\"type\":\"error\"},{\"inputs\":[{\"internalType\":\"address\",\"name\":\"spender\",\"type\":\"address\"},{\"internalType\":\"uint256\",\"name\":\"allowance\",\"type\":\"uint256\"},{\"internalType\":\"uint256\",\"name\":\"needed\",\"type\":\"uint256\"}],\"name\":\"ERC20InsufficientAllowance\",\"type\":\"error\"},{\"inputs\":[{\"internalType\":\"address\",\"name\":\"sender\",\"type\":\"address\"},{\"internalType\":\"uint256\",\"name\":\"balance\",\"type\":\"uint256\"},{\"internalType\":\"uint256\",\"name\":\"needed\",\"type\":\"uint256\"}],\"name\":\"ERC20InsufficientBalance\",\"type\":\"error\"},{\"inputs\":[{\"internalType\":\"address\",\"name\":\"approver\",\"type\":\"address\"}],\"name\":\"ERC20InvalidApprover\",\"type\":\"error\"},{\"inputs\":[{\"internalType\":\"address\",\"name\":\"receiver\",\"type\":\"address\"}],\"name\":\"ERC20InvalidReceiver\",\"type\":\"error\"},{\"inputs\":[{\"internalType\":\"address\",\"name\":\"sender\",\"type\":\"address\"}],\"name\":\"ERC20InvalidSender\",\"type\":\"error\"},{\"inputs\":[{\"internalType\":\"address\",\"name\":\"spender\",\"type\":\"address\"}],\"name\":\"ERC20InvalidSpender\",\"type\":\"error\"},{\"inputs\":[{\"internalType\":\"uint256\",\"name\":\"deadline\",\"type\":\"uint256\"}],\"name\":\"ERC2612ExpiredSignature\",\"type\":\"error\"},{\"inputs\":[{\"internalType\":\"address\",\"name\":\"signer\",\"type\":\"address\"},{\"internalType\":\"address\",\"name\":\"owner\",\"type\":\"address\"}],\"name\":\"ERC2612InvalidSigner\",\"type\":\"error\"},{\"inputs\":[{\"internalType\":\"uint256\",\"name\":\"timepoint\",\"type\":\"uint256\"},{\"internalType\":\"uint48\",\"name\":\"clock\",\"type\":\"uint48\"}],\"name\":\"ERC5805FutureLookup\",\"type\":\"error\"},{\"inputs\":[],\"name\":\"ERC6372InconsistentClock\",\"type\":\"error\"},{\"inputs\":[{\"internalType\":\"address\",\"name\":\"account\",\"type\":\"address\"},{\"internalType\":\"uint256\",\"name\":\"currentNonce\",\"type\":\"uint256\"}],\"name\":\"InvalidAccountNonce\",\"type\":\"error\"},{\"inputs\":[],\"name\":\"InvalidShortString\",\"type\":\"error\"},{\"inputs\":[{\"internalType\":\"uint8\",\"name\":\"bits\",\"type\":\"uint8\"},{\"internalType\":\"uint256\",\"name\":\"value\",\"type\":\"uint256\"}],\"name\":\"SafeCastOverflowedUintDowncast\",\"type\":\"error\"},{\"inputs\":[{\"internalType\":\"string\",\"name\":\"str\",\"type\":\"string\"}],\"name\":\"StringTooLong\",\"type\":\"error\"},{\"inputs\":[{\"internalType\":\"uint256\",\"name\":\"expiry\",\"type\":\"uint256\"}],\"name\":\"VotesExpiredSignature\",\"type\":\"error\"},{\"anonymous\":false,\"inputs\":[{\"indexed\":true,\"internalType\":\"address\",\"name\":\"owner\",\"type\":\"address\"},{\"indexed\":true,\"internalType\":\"address\",\"name\":\"spender\",\"type\":\"address\"},{\"indexed\":false,\"internalType\":\"uint256\",\"name\":\"value\",\"type\":\"uint256\"}],\"name\":\"Approval\",\"type\":\"event\"},{\"anonymous\":false,\"inputs\":[{\"indexed\":true,\"internalType\":\"address\",\"name\":\"delegator\",\"type\":\"address\"},{\"indexed\":true,\"internalType\":\"address\",\"name\":\"fromDelegate\",\"type\":\"address\"},{\"indexed\":true,\"internalType\":\"address\",\"name\":\"toDelegate\",\"type\":\"address\"}],\"name\":\"DelegateChanged\",\"type\":\"event\"},{\"anonymous\":false,\"inputs\":[{\"indexed\":true,\"internalType\":\"address\",\"name\":\"delegate\",\"type\":\"address\"},{\"indexed\":false,\"internalType\":\"uint256\",\"name\":\"previousVotes\",\"type\":\"uint256\"},{\"indexed\":false,\"internalType\":\"uint256\",\"name\":\"newVotes\",\"type\":\"uint256\"}],\"name\":\"DelegateVotesChanged\",\"type\":\"event\"},{\"anonymous\":false,\"inputs\":[],\"name\":\"EIP712DomainChanged\",\"type\":\"event\"},{\"anonymous\":false,\"inputs\":[{\"indexed\":true,\"internalType\":\"address\",\"name\":\"from\",\"type\":\"address\"},{\"indexed\":true,\"internalType\":\"address\",\"name\":\"to\",\"type\":\"address\"},{\"indexed\":false,\"internalType\":\"uint256\",\"name\":\"value\",\"type\":\"uint256\"}],\"name\":\"Transfer\",\"type\":\"event\"},{\"inputs\":[],\"name\":\"CLOCK_MODE\",\"outputs\":[{\"internalType\":\"string\",\"name\":\"\",\"type\":\"string\"}],\"stateMutability\":\"view\",\"type\":\"function\"},{\"inputs\":[],\"name\":\"DOMAIN_SEPARATOR\",\"outputs\":[{\"internalType\":\"bytes32\",\"name\":\"\",\"type\":\"bytes32\"}],\"stateMutability\":\"view\",\"type\":\"function\"},{\"inputs\":[{\"internalType\":\"address\",\"name\":\"owner\",\"type\":\"address\"},{\"internalType\":\"address\",\"name\":\"spender\",\"type\":\"address\"}],\"name\":\"allowance\",\"outputs\":[{\"internalType\":\"uint256\",\"name\":\"\",\"type\":\"uint256\"}],\"stateMutability\":\"view\",\"type\":\"function\"},{\"inputs\":[{\"internalType\":\"address\",\"name\":\"spender\",\"type\":\"address\"},{\"internalType\":\"uint256\",\"name\":\"value\",\"type\":\"uint256\"}],\"name\":\"approve\",\"outputs\":[{\"internalType\":\"bool\",\"name\":\"\",\"type\":\"bool\"}],\"stateMutability\":\"nonpayable\",\"type\":\"function\"},{\"inputs\":[{\"internalType\":\"address\",\"name\":\"account\",\"type\":\"address\"}],\"name\":\"balanceOf\",\"outputs\":[{\"internalType\":\"uint256\",\"name\":\"\",\"type\":\"uint256\"}],\"stateMutability\":\"view\",\"type\":\"function\"},{\"inputs\":[{\"internalType\":\"address\",\"name\":\"account\",\"type\":\"address\"},{\"internalType\":\"uint32\",\"name\":\"pos\",\"type\":\"uint32\"}],\"name\":\"checkpoints\",\"outputs\":[{\"components\":[{\"internalType\":\"uint48\",\"name\":\"_key\",\"type\":\"uint48\"},{\"internalType\":\"uint208\",\"name\":\"_value\",\"type\":\"uint208\"}],\"internalType\":\"struct Checkpoints.Checkpoint208\",\"name\":\"\",\"type\":\"tuple\"}],\"stateMutability\":\"view\",\"type\":\"function\"},{\"inputs\":[],\"name\":\"clock\",\"outputs\":[{\"internalType\":\"uint48\",\"name\":\"\",\"type\":\"uint48\"}],\"stateMutability\":\"view\",\"type\":\"function\"},{\"inputs\":[],\"name\":\"decimals\",\"outputs\":[{\"internalType\":\"uint8\",\"name\":\"\",\"type\":\"uint8\"}],\"stateMutability\":\"view\",\"type\":\"function\"},{\"inputs\":[{\"internalType\":\"address\",\"name\":\"delegatee\",\"type\":\"address\"}],\"name\":\"delegate\",\"outputs\":[],\"stateMutability\":\"nonpayable\",\"type\":\"function\"},{\"inputs\":[{\"internalType\":\"address\",\"name\":\"delegatee\",\"type\":\"address\"},{\"internalType\":\"uint256\",\"name\":\"nonce\",\"type\":\"uint256\"},{\"internalType\":\"uint256\",\"name\":\"expiry\",\"type\":\"uint256\"},{\"internalType\":\"uint8\",\"name\":\"v\",\"type\":\"uint8\"},{\"internalType\":\"bytes32\",\"name\":\"r\",\"type\":\"bytes32\"},{\"internalType\":\"bytes32\",\"name\":\"s\",\"type\":\"bytes32\"}],\"name\":\"delegateBySig\",\"outputs\":[],\"stateMutability\":\"nonpayable\",\"type\":\"function\"},{\"inputs\":[{\"internalType\":\"address\",\"name\":\"account\",\"type\":\"address\"}],\"name\":\"delegates\",\"outputs\":[{\"internalType\":\"address\",\"name\":\"\",\"type\":\"address\"}],\"stateMutability\":\"view\",\"type\":\"function\"},{\"inputs\":[],\"name\":\"eip712Domain\",\"outputs\":[{\"internalType\":\"bytes1\",\"name\":\"fields\",\"type\":\"bytes1\"},{\"internalType\":\"string\",\"name\":\"name\",\"type\":\"string\"},{\"internalType\":\"string\",\"name\":\"version\",\"type\":\"string\"},{\"internalType\":\"uint256\",\"name\":\"chainId\",\"type\":\"uint256\"},{\"internalType\":\"address\",\"name\":\"verifyingContract\",\"type\":\"address\"},{\"internalType\":\"bytes32\",\"name\":\"salt\",\"type\":\"bytes32\"},{\"internalType\":\"uint256[]\",\"name\":\"extensions\",\"type\":\"uint256[]\"}],\"stateMutability\":\"view\",\"type\":\"function\"},{\"inputs\":[{\"internalType\":\"uint256\",\"name\":\"timepoint\",\"type\":\"uint256\"}],\"name\":\"getPastTotalSupply\",\"outputs\":[{\"internalType\":\"uint256\",\"name\":\"\",\"type\":\"uint256\"}],\"stateMutability\":\"view\",\"type\":\"function\"},{\"inputs\":[{\"internalType\":\"address\",\"name\":\"account\",\"type\":\"address\"},{\"internalType\":\"uint256\",\"name\":\"timepoint\",\"type\":\"uint256\"}],\"name\":\"getPastVotes\",\"outputs\":[{\"internalType\":\"uint256\",\"name\":\"\",\"type\":\"uint256\"}],\"stateMutability\":\"view\",\"type\":\"function\"},{\"inputs\":[{\"internalType\":\"address\",\"name\":\"account\",\"type\":\"address\"}],\"name\":\"getVotes\",\"outputs\":[{\"internalType\":\"uint256\",\"name\":\"\",\"type\":\"uint256\"}],\"stateMutability\":\"view\",\"type\":\"function\"},{\"inputs\":[],\"name\":\"name\",\"outputs\":[{\"internalType\":\"string\",\"name\":\"\",\"type\":\"string\"}],\"stateMutability\":\"view\",\"type\":\"function\"},{\"inputs\":[{\"internalType\":\"address\",\"name\":\"owner\",\"type\":\"address\"}],\"name\":\"nonces\",\"outputs\":[{\"internalType\":\"uint256\",\"name\":\"\",\"type\":\"uint256\"}],\"stateMutability\":\"view\",\"type\":\"function\"},{\"inputs\":[{\"internalType\":\"address\",\"name\":\"account\",\"type\":\"address\"}],\"name\":\"numCheckpoints\",\"outputs\":[{\"internalType\":\"uint32\",\"name\":\"\",\"type\":\"uint32\"}],\"stateMutability\":\"view\",\"type\":\"function\"},{\"inputs\":[{\"internalType\":\"address\",\"name\":\"owner\",\"type\":\"address\"},{\"internalType\":\"address\",\"name\":\"spender\",\"type\":\"address\"},{\"internalType\":\"uint256\",\"name\":\"value\",\"type\":\"uint256\"},{\"internalType\":\"uint256\",\"name\":\"deadline\",\"type\":\"uint256\"},{\"internalType\":\"uint8\",\"name\":\"v\",\"type\":\"uint8\"},{\"internalType\":\"bytes32\",\"name\":\"r\",\"type\":\"bytes32\"},{\"internalType\":\"bytes32\",\"name\":\"s\",\"type\":\"bytes32\"}],\"name\":\"permit\",\"outputs\":[],\"stateMutability\":\"nonpayable\",\"type\":\"function\"},{\"inputs\":[],\"name\":\"symbol\",\"outputs\":[{\"internalType\":\"string\",\"name\":\"\",\"type\":\"string\"}],\"stateMutability\":\"view\",\"type\":\"function\"},{\"inputs\":[],\"name\":\"totalSupply\",\"outputs\":[{\"internalType\":\"uint256\",\"name\":\"\",\"type\":\"uint256\"}],\"stateMutability\":\"view\",\"type\":\"function\"},{\"inputs\":[{\"internalType\":\"address\",\"name\":\"to\",\"type\":\"address\"},{\"internalType\":\"uint256\",\"name\":\"value\",\"type\":\"uint256\"}],\"name\":\"transfer\",\"outputs\":[{\"internalType\":\"bool\",\"name\":\"\",\"type\":\"bool\"}],\"stateMutability\":\"nonpayable\",\"type\":\"function\"},{\"inputs\":[{\"internalType\":\"address\",\"name\":\"from\",\"type\":\"address\"},{\"internalType\":\"address\",\"name\":\"to\",\"type\":\"address\"},{\"internalType\":\"uint256\",\"name\":\"value\",\"type\":\"uint256\"}],\"name\":\"transferFrom\",\"outputs\":[{\"internalType\":\"bool\",\"name\":\"\",\"type\":\"bool\"}],\"stateMutability\":\"nonpayable\",\"type\":\"function\"}]);\nvar tokencontract = tokencontractContract.deploy({\n     data: '0x61016060405234801562000011575f80fd5b5060405162005185380380620051858339818101604052810190620000379190620011b5565b82806040518060400160405280600181526020017f3100000000000000000000000000000000000000000000000000000000000000815250858581600390816200008291906200147a565b5080600490816200009491906200147a565b505050620000ad6005836200016360201b90919060201c565b6101208181525050620000cb6006826200016360201b90919060201c565b6101408181525050818051906020012060e08181525050808051906020012061010081815250504660a081815250506200010a620001b860201b60201c565b608081815250503073ffffffffffffffffffffffffffffffffffffffff1660c08173ffffffffffffffffffffffffffffffffffffffff16815250505050506200015a33826200021460201b60201c565b50505062001a25565b5f602083511015620001885762000180836200029e60201b60201c565b9050620001b2565b826200019a836200030860201b60201c565b5f019081620001aa91906200147a565b5060ff5f1b90505b92915050565b5f7f8b73c3c69bb8fe3d512ecc4cf759cc79239f7b179b0ffacaa9a75d522b39400f60e051610100514630604051602001620001f9959493929190620015cc565b60405160208183030381529060405280519060200120905090565b5f73ffffffffffffffffffffffffffffffffffffffff168273ffffffffffffffffffffffffffffffffffffffff160362000287575f6040517fec442f050000000000000000000000000000000000000000000000000000000081526004016200027e919062001627565b60405180910390fd5b6200029a5f83836200031160201b60201c565b5050565b5f80829050601f81511115620002ed57826040517f305a27a9000000000000000000000000000000000000000000000000000000008152600401620002e4919062001692565b60405180910390fd5b805181620002fb90620016e3565b5f1c175f1b915050919050565b5f819050919050565b620003248383836200032960201b60201c565b505050565b6200033c838383620003fb60201b60201c565b5f73ffffffffffffffffffffffffffffffffffffffff168373ffffffffffffffffffffffffffffffffffffffff1603620003e3575f620003816200061f60201b60201c565b90505f620003946200062860201b60201c565b905080821115620003e05781816040517f1cb15d26000000000000000000000000000000000000000000000000000000008152600401620003d792919062001752565b60405180910390fd5b50505b620003f68383836200064b60201b60201c565b505050565b5f73ffffffffffffffffffffffffffffffffffffffff168373ffffffffffffffffffffffffffffffffffffffff16036200044f578060025f828254620004429190620017aa565b9250508190555062000520565b5f805f8573ffffffffffffffffffffffffffffffffffffffff1673ffffffffffffffffffffffffffffffffffffffff1681526020019081526020015f2054905081811015620004db578381836040517fe450d38c000000000000000000000000000000000000000000000000000000008152600401620004d293929190620017e4565b60405180910390fd5b8181035f808673ffffffffffffffffffffffffffffffffffffffff1673ffffffffffffffffffffffffffffffffffffffff1681526020019081526020015f2081905550505b5f73ffffffffffffffffffffffffffffffffffffffff168273ffffffffffffffffffffffffffffffffffffffff160362000569578060025f8282540392505081905550620005b3565b805f808473ffffffffffffffffffffffffffffffffffffffff1673ffffffffffffffffffffffffffffffffffffffff1681526020019081526020015f205f82825401925050819055505b8173ffffffffffffffffffffffffffffffffffffffff168373ffffffffffffffffffffffffffffffffffffffff167fddf252ad1be2c89b69c2b068fc378daa952ba7f163c4a11628f55a4df523b3ef836040516200061291906200181f565b60405180910390a3505050565b5f600254905090565b5f79ffffffffffffffffffffffffffffffffffffffffffffffffffff8016905090565b5f73ffffffffffffffffffffffffffffffffffffffff168373ffffffffffffffffffffffffffffffffffffffff1603620006b157620006ae600a6200074f60201b62000d3517620006a2846200076660201b60201c565b620007d660201b60201c565b50505b5f73ffffffffffffffffffffffffffffffffffffffff168273ffffffffffffffffffffffffffffffffffffffff1603620007175762000714600a6200082560201b62000d4a1762000708846200076660201b60201c565b620007d660201b60201c565b50505b6200074a6200072c846200083c60201b60201c565b6200073d846200083c60201b60201c565b83620008a160201b60201c565b505050565b5f81836200075e91906200185f565b905092915050565b5f79ffffffffffffffffffffffffffffffffffffffffffffffffffff8016821115620007ce5760d0826040517f6dfcc650000000000000000000000000000000000000000000000000000000008152600401620007c592919062001900565b60405180910390fd5b819050919050565b5f8062000819620007ec62000b4b60201b60201c565b62000808620008018862000b6160201b60201c565b868860201c565b8762000bcf60201b9092919060201c565b91509150935093915050565b5f81836200083491906200192b565b905092915050565b5f60085f8373ffffffffffffffffffffffffffffffffffffffff1673ffffffffffffffffffffffffffffffffffffffff1681526020019081526020015f205f9054906101000a900473ffffffffffffffffffffffffffffffffffffffff169050919050565b8173ffffffffffffffffffffffffffffffffffffffff168373ffffffffffffffffffffffffffffffffffffffff1614158015620008dd57505f81115b1562000b46575f73ffffffffffffffffffffffffffffffffffffffff168373ffffffffffffffffffffffffffffffffffffffff161462000a14575f806200098360095f8773ffffffffffffffffffffffffffffffffffffffff1673ffffffffffffffffffffffffffffffffffffffff1681526020019081526020015f206200082560201b62000d4a1762000977866200076660201b60201c565b620007d660201b60201c565b79ffffffffffffffffffffffffffffffffffffffffffffffffffff16915079ffffffffffffffffffffffffffffffffffffffffffffffffffff1691508473ffffffffffffffffffffffffffffffffffffffff167fdec2bacdd2f05b59de34da9b523dff8be42e5e38e818c82fdb0bae774387a724838360405162000a0992919062001752565b60405180910390a250505b5f73ffffffffffffffffffffffffffffffffffffffff168273ffffffffffffffffffffffffffffffffffffffff161462000b45575f8062000ab460095f8673ffffffffffffffffffffffffffffffffffffffff1673ffffffffffffffffffffffffffffffffffffffff1681526020019081526020015f206200074f60201b62000d351762000aa8866200076660201b60201c565b620007d660201b60201c565b79ffffffffffffffffffffffffffffffffffffffffffffffffffff16915079ffffffffffffffffffffffffffffffffffffffffffffffffffff1691508373ffffffffffffffffffffffffffffffffffffffff167fdec2bacdd2f05b59de34da9b523dff8be42e5e38e818c82fdb0bae774387a724838360405162000b3a92919062001752565b60405180910390a250505b5b505050565b5f62000b5c62000bf260201b60201c565b905090565b5f80825f018054905090505f811462000bc55762000b96835f0160018362000b8a91906200197f565b62000c0960201b60201c565b5f0160069054906101000a900479ffffffffffffffffffffffffffffffffffffffffffffffffffff1662000bc7565b5f5b915050919050565b5f8062000be6855f01858562000c1b60201b60201c565b91509150935093915050565b5f62000c044362000f9c60201b60201c565b905090565b5f825f528160205f2001905092915050565b5f805f858054905090505f81111562000eb4575f62000c4f8760018462000c4391906200197f565b62000c0960201b60201c565b6040518060400160405290815f82015f9054906101000a900465ffffffffffff1665ffffffffffff1665ffffffffffff1681526020015f820160069054906101000a900479ffffffffffffffffffffffffffffffffffffffffffffffffffff1679ffffffffffffffffffffffffffffffffffffffffffffffffffff1679ffffffffffffffffffffffffffffffffffffffffffffffffffff168152505090508565ffffffffffff16815f015165ffffffffffff16111562000d3b576040517f2520601d00000000000000000000000000000000000000000000000000000000815260040160405180910390fd5b8565ffffffffffff16815f015165ffffffffffff160362000dc9578462000d778860018562000d6b91906200197f565b62000c0960201b60201c565b5f0160066101000a81548179ffffffffffffffffffffffffffffffffffffffffffffffffffff021916908379ffffffffffffffffffffffffffffffffffffffffffffffffffff16021790555062000ea2565b8660405180604001604052808865ffffffffffff1681526020018779ffffffffffffffffffffffffffffffffffffffffffffffffffff16815250908060018154018082558091505060019003905f5260205f20015f909190919091505f820151815f015f6101000a81548165ffffffffffff021916908365ffffffffffff1602179055506020820151815f0160066101000a81548179ffffffffffffffffffffffffffffffffffffffffffffffffffff021916908379ffffffffffffffffffffffffffffffffffffffffffffffffffff16021790555050505b80602001518593509350505062000f94565b8560405180604001604052808765ffffffffffff1681526020018679ffffffffffffffffffffffffffffffffffffffffffffffffffff16815250908060018154018082558091505060019003905f5260205f20015f909190919091505f820151815f015f6101000a81548165ffffffffffff021916908365ffffffffffff1602179055506020820151815f0160066101000a81548179ffffffffffffffffffffffffffffffffffffffffffffffffffff021916908379ffffffffffffffffffffffffffffffffffffffffffffffffffff16021790555050505f8492509250505b935093915050565b5f65ffffffffffff801682111562000ff0576030826040517f6dfcc65000000000000000000000000000000000000000000000000000000000815260040162000fe7929190620019fa565b60405180910390fd5b819050919050565b5f604051905090565b5f80fd5b5f80fd5b5f80fd5b5f80fd5b5f601f19601f8301169050919050565b7f4e487b71000000000000000000000000000000000000000000000000000000005f52604160045260245ffd5b620010598262001011565b810181811067ffffffffffffffff821117156200107b576200107a62001021565b5b80604052505050565b5f6200108f62000ff8565b90506200109d82826200104e565b919050565b5f67ffffffffffffffff821115620010bf57620010be62001021565b5b620010ca8262001011565b9050602081019050919050565b5f5b83811015620010f6578082015181840152602081019050620010d9565b5f8484015250505050565b5f620011176200111184620010a2565b62001084565b9050828152602081018484840111156200113657620011356200100d565b5b62001143848285620010d7565b509392505050565b5f82601f83011262001162576200116162001009565b5b81516200117484826020860162001101565b91505092915050565b5f819050919050565b62001191816200117d565b81146200119c575f80fd5b50565b5f81519050620011af8162001186565b92915050565b5f805f60608486031215620011cf57620011ce62001001565b5b5f84015167ffffffffffffffff811115620011ef57620011ee62001005565b5b620011fd868287016200114b565b935050602084015167ffffffffffffffff81111562001221576200122062001005565b5b6200122f868287016200114b565b925050604062001242868287016200119f565b9150509250925092565b5f81519050919050565b7f4e487b71000000000000000000000000000000000000000000000000000000005f52602260045260245ffd5b5f60028204905060018216806200129b57607f821691505b602082108103620012b157620012b062001256565b5b50919050565b5f819050815f5260205f209050919050565b5f6020601f8301049050919050565b5f82821b905092915050565b5f60088302620013157fffffffffffffffffffffffffffffffffffffffffffffffffffffffffffffffff82620012d8565b620013218683620012d8565b95508019841693508086168417925050509392505050565b5f819050919050565b5f620013626200135c62001356846200117d565b62001339565b6200117d565b9050919050565b5f819050919050565b6200137d8362001342565b620013956200138c8262001369565b848454620012e4565b825550505050565b5f90565b620013ab6200139d565b620013b881848462001372565b505050565b5b81811015620013df57620013d35f82620013a1565b600181019050620013be565b5050565b601f8211156200142e57620013f881620012b7565b6200140384620012c9565b8101602085101562001413578190505b6200142b6200142285620012c9565b830182620013bd565b50505b505050565b5f82821c905092915050565b5f620014505f198460080262001433565b1980831691505092915050565b5f6200146a83836200143f565b9150826002028217905092915050565b62001485826200124c565b67ffffffffffffffff811115620014a157620014a062001021565b5b620014ad825462001283565b620014ba828285620013e3565b5f60209050601f831160018114620014f0575f8415620014db578287015190505b620014e785826200145d565b86555062001556565b601f1984166200150086620012b7565b5f5b82811015620015295784890151825560018201915060208501945060208101905062001502565b8683101562001549578489015162001545601f8916826200143f565b8355505b6001600288020188555050505b505050505050565b5f819050919050565b62001572816200155e565b82525050565b62001583816200117d565b82525050565b5f73ffffffffffffffffffffffffffffffffffffffff82169050919050565b5f620015b48262001589565b9050919050565b620015c681620015a8565b82525050565b5f60a082019050620015e15f83018862001567565b620015f0602083018762001567565b620015ff604083018662001567565b6200160e606083018562001578565b6200161d6080830184620015bb565b9695505050505050565b5f6020820190506200163c5f830184620015bb565b92915050565b5f82825260208201905092915050565b5f6200165e826200124c565b6200166a818562001642565b93506200167c818560208601620010d7565b620016878162001011565b840191505092915050565b5f6020820190508181035f830152620016ac818462001652565b905092915050565b5f81519050919050565b5f819050602082019050919050565b5f620016da82516200155e565b80915050919050565b5f620016ef82620016b4565b82620016fb84620016be565b90506200170881620016cd565b925060208210156200174b57620017467fffffffffffffffffffffffffffffffffffffffffffffffffffffffffffffffff83602003600802620012d8565b831692505b5050919050565b5f604082019050620017675f83018562001578565b62001776602083018462001578565b9392505050565b7f4e487b71000000000000000000000000000000000000000000000000000000005f52601160045260245ffd5b5f620017b6826200117d565b9150620017c3836200117d565b9250828201905080821115620017de57620017dd6200177d565b5b92915050565b5f606082019050620017f95f830186620015bb565b62001808602083018562001578565b62001817604083018462001578565b949350505050565b5f602082019050620018345f83018462001578565b92915050565b5f79ffffffffffffffffffffffffffffffffffffffffffffffffffff82169050919050565b5f6200186b826200183a565b915062001878836200183a565b9250828201905079ffffffffffffffffffffffffffffffffffffffffffffffffffff811115620018ad57620018ac6200177d565b5b92915050565b5f819050919050565b5f60ff82169050919050565b5f620018e8620018e2620018dc84620018b3565b62001339565b620018bc565b9050919050565b620018fa81620018c8565b82525050565b5f604082019050620019155f830185620018ef565b62001924602083018462001578565b9392505050565b5f62001937826200183a565b915062001944836200183a565b9250828203905079ffffffffffffffffffffffffffffffffffffffffffffffffffff8111156200197957620019786200177d565b5b92915050565b5f6200198b826200117d565b915062001998836200117d565b9250828203905081811115620019b357620019b26200177d565b5b92915050565b5f819050919050565b5f620019e2620019dc620019d684620019b9565b62001339565b620018bc565b9050919050565b620019f481620019c2565b82525050565b5f60408201905062001a0f5f830185620019e9565b62001a1e602083018462001578565b9392505050565b60805160a05160c05160e05161010051610120516101405161370e62001a775f395f6112bf01525f61128401525f6116c701525f6116a601525f610efd01525f610f5301525f610f7c015261370e5ff3fe608060405234801561000f575f80fd5b506004361061014b575f3560e01c806370a08231116100c15780639ab24eb01161007a5780639ab24eb0146103e1578063a9059cbb14610411578063c3cda52014610441578063d505accf1461045d578063dd62ed3e14610479578063f1127ed8146104a95761014b565b806370a08231146102f15780637ecebe001461032157806384b0196e146103515780638e539e8c1461037557806391ddadf4146103a557806395d89b41146103c35761014b565b80633644e515116101135780633644e515146102095780633a46b1a8146102275780634bf5d7e914610257578063587cde1e146102755780635c19a95c146102a55780636fcfff45146102c15761014b565b806306fdde031461014f578063095ea7b31461016d57806318160ddd1461019d57806323b872dd146101bb578063313ce567146101eb575b5f80fd5b6101576104d9565b6040516101649190612a31565b60405180910390f35b61018760048036038101906101829190612ae2565b610569565b6040516101949190612b3a565b60405180910390f35b6101a561058b565b6040516101b29190612b62565b60405180910390f35b6101d560048036038101906101d09190612b7b565b610594565b6040516101e29190612b3a565b60405180910390f35b6101f36105c2565b6040516102009190612be6565b60405180910390f35b6102116105ca565b60405161021e9190612c17565b60405180910390f35b610241600480360381019061023c9190612ae2565b6105d8565b60405161024e9190612b62565b60405180910390f35b61025f6106ae565b60405161026c9190612a31565b60405180910390f35b61028f600480360381019061028a9190612c30565b610742565b60405161029c9190612c6a565b60405180910390f35b6102bf60048036038101906102ba9190612c30565b6107a7565b005b6102db60048036038101906102d69190612c30565b6107c0565b6040516102e89190612ca1565b60405180910390f35b61030b60048036038101906103069190612c30565b6107d1565b6040516103189190612b62565b60405180910390f35b61033b60048036038101906103369190612c30565b610816565b6040516103489190612b62565b60405180910390f35b610359610827565b60405161036c9796959493929190612dab565b60405180910390f35b61038f600480360381019061038a9190612e2d565b6108cc565b60405161039c9190612b62565b60405180910390f35b6103ad610966565b6040516103ba9190612e78565b60405180910390f35b6103cb610974565b6040516103d89190612a31565b60405180910390f35b6103fb60048036038101906103f69190612c30565b610a04565b6040516104089190612b62565b60405180910390f35b61042b60048036038101906104269190612ae2565b610a6d565b6040516104389190612b3a565b60405180910390f35b61045b60048036038101906104569190612ee5565b610a8f565b005b61047760048036038101906104729190612f6e565b610b54565b005b610493600480360381019061048e919061300b565b610c99565b6040516104a09190612b62565b60405180910390f35b6104c360048036038101906104be9190613073565b610d1b565b6040516104d09190613121565b60405180910390f35b6060600380546104e890613167565b80601f016020809104026020016040519081016040528092919081815260200182805461051490613167565b801561055f5780601f106105365761010080835404028352916020019161055f565b820191905f5260205f20905b81548152906001019060200180831161054257829003601f168201915b5050505050905090565b5f80610573610d5f565b9050610580818585610d66565b600191505092915050565b5f600254905090565b5f8061059e610d5f565b90506105ab858285610d78565b6105b6858585610e0a565b60019150509392505050565b5f6012905090565b5f6105d3610efa565b905090565b5f806105e2610966565b90508065ffffffffffff1683106106325782816040517fecd3f81e000000000000000000000000000000000000000000000000000000008152600401610629929190613197565b60405180910390fd5b61068961063e84610fb0565b60095f8773ffffffffffffffffffffffffffffffffffffffff1673ffffffffffffffffffffffffffffffffffffffff1681526020019081526020015f2061100990919063ffffffff16565b79ffffffffffffffffffffffffffffffffffffffffffffffffffff1691505092915050565b60606106b86110f6565b65ffffffffffff166106c8610966565b65ffffffffffff1614610707576040517f6ff0714000000000000000000000000000000000000000000000000000000000815260040160405180910390fd5b6040518060400160405280601d81526020017f6d6f64653d626c6f636b6e756d6265722666726f6d3d64656661756c74000000815250905090565b5f60085f8373ffffffffffffffffffffffffffffffffffffffff1673ffffffffffffffffffffffffffffffffffffffff1681526020019081526020015f205f9054906101000a900473ffffffffffffffffffffffffffffffffffffffff169050919050565b5f6107b0610d5f565b90506107bc8183611105565b5050565b5f6107ca82611215565b9050919050565b5f805f8373ffffffffffffffffffffffffffffffffffffffff1673ffffffffffffffffffffffffffffffffffffffff1681526020019081526020015f20549050919050565b5f6108208261126a565b9050919050565b5f6060805f805f606061083861127b565b6108406112b6565b46305f801b5f67ffffffffffffffff81111561085f5761085e6131be565b5b60405190808252806020026020018201604052801561088d5781602001602082028036833780820191505090505b507f0f00000000000000000000000000000000000000000000000000000000000000959493929190965096509650965096509650965090919293949596565b5f806108d6610966565b90508065ffffffffffff1683106109265782816040517fecd3f81e00000000000000000000000000000000000000000000000000000000815260040161091d929190613197565b60405180910390fd5b61094261093284610fb0565b600a61100990919063ffffffff16565b79ffffffffffffffffffffffffffffffffffffffffffffffffffff16915050919050565b5f61096f6110f6565b905090565b60606004805461098390613167565b80601f01602080910402602001604051908101604052809291908181526020018280546109af90613167565b80156109fa5780601f106109d1576101008083540402835291602001916109fa565b820191905f5260205f20905b8154815290600101906020018083116109dd57829003601f168201915b5050505050905090565b5f610a4a60095f8473ffffffffffffffffffffffffffffffffffffffff1673ffffffffffffffffffffffffffffffffffffffff1681526020019081526020015f206112f1565b79ffffffffffffffffffffffffffffffffffffffffffffffffffff169050919050565b5f80610a77610d5f565b9050610a84818585610e0a565b600191505092915050565b83421115610ad457836040517f4683af0e000000000000000000000000000000000000000000000000000000008152600401610acb9190612b62565b60405180910390fd5b5f610b35610b2d7fe48329057bfd03d55e49b547132e39cffd9c1820ad7b9d4c5307691425d15adf898989604051602001610b1294939291906131eb565b60405160208183030381529060405280519060200120611353565b85858561136c565b9050610b41818761139a565b610b4b8188611105565b50505050505050565b83421115610b9957836040517f62791302000000000000000000000000000000000000000000000000000000008152600401610b909190612b62565b60405180910390fd5b5f7f6e71edae12b1b97f4d1f60370fef10105fa2faae0126114a169c64845d6126c9888888610bc78c6113f1565b89604051602001610bdd9695949392919061322e565b6040516020818303038152906040528051906020012090505f610bff82611353565b90505f610c0e8287878761136c565b90508973ffffffffffffffffffffffffffffffffffffffff168173ffffffffffffffffffffffffffffffffffffffff1614610c8257808a6040517f4b800e46000000000000000000000000000000000000000000000000000000008152600401610c7992919061328d565b60405180910390fd5b610c8d8a8a8a610d66565b50505050505050505050565b5f60015f8473ffffffffffffffffffffffffffffffffffffffff1673ffffffffffffffffffffffffffffffffffffffff1681526020019081526020015f205f8373ffffffffffffffffffffffffffffffffffffffff1673ffffffffffffffffffffffffffffffffffffffff1681526020019081526020015f2054905092915050565b610d2361296b565b610d2d8383611444565b905092915050565b5f8183610d4291906132e1565b905092915050565b5f8183610d57919061332e565b905092915050565b5f33905090565b610d7383838360016114a3565b505050565b5f610d838484610c99565b90507fffffffffffffffffffffffffffffffffffffffffffffffffffffffffffffffff8114610e045781811015610df5578281836040517ffb8f41b2000000000000000000000000000000000000000000000000000000008152600401610dec9392919061337b565b60405180910390fd5b610e0384848484035f6114a3565b5b50505050565b5f73ffffffffffffffffffffffffffffffffffffffff168373ffffffffffffffffffffffffffffffffffffffff1603610e7a575f6040517f96c6fd1e000000000000000000000000000000000000000000000000000000008152600401610e719190612c6a565b60405180910390fd5b5f73ffffffffffffffffffffffffffffffffffffffff168273ffffffffffffffffffffffffffffffffffffffff1603610eea575f6040517fec442f05000000000000000000000000000000000000000000000000000000008152600401610ee19190612c6a565b60405180910390fd5b610ef5838383611672565b505050565b5f7f000000000000000000000000000000000000000000000000000000000000000073ffffffffffffffffffffffffffffffffffffffff163073ffffffffffffffffffffffffffffffffffffffff16148015610f7557507f000000000000000000000000000000000000000000000000000000000000000046145b15610fa2577f00000000000000000000000000000000000000000000000000000000000000009050610fad565b610faa611682565b90505b90565b5f65ffffffffffff8016821115611001576030826040517f6dfcc650000000000000000000000000000000000000000000000000000000008152600401610ff89291906133f2565b60405180910390fd5b819050919050565b5f80835f018054905090505f80829050600583111561108a575f61102c84611717565b846110379190613419565b9050611045875f018261180d565b5f015f9054906101000a900465ffffffffffff1665ffffffffffff168665ffffffffffff16101561107857809150611088565b600181611085919061344c565b92505b505b5f611099875f0187858561181f565b90505f81146110e8576110ba875f016001836110b59190613419565b61180d565b5f0160069054906101000a900479ffffffffffffffffffffffffffffffffffffffffffffffffffff166110ea565b5f5b94505050505092915050565b5f61110043610fb0565b905090565b5f61110f83610742565b90508160085f8573ffffffffffffffffffffffffffffffffffffffff1673ffffffffffffffffffffffffffffffffffffffff1681526020019081526020015f205f6101000a81548173ffffffffffffffffffffffffffffffffffffffff021916908373ffffffffffffffffffffffffffffffffffffffff1602179055508173ffffffffffffffffffffffffffffffffffffffff168173ffffffffffffffffffffffffffffffffffffffff168473ffffffffffffffffffffffffffffffffffffffff167f3134e8a2e6d97e929a7e54011ea5485d7d196dd5f0ba4d4ef95803e8e3fc257f60405160405180910390a4611210818361120b86611894565b6118a5565b505050565b5f61126361125e60095f8573ffffffffffffffffffffffffffffffffffffffff1673ffffffffffffffffffffffffffffffffffffffff1681526020019081526020015f20611b15565b611b24565b9050919050565b5f61127482611b7b565b9050919050565b60606112b160057f0000000000000000000000000000000000000000000000000000000000000000611bc190919063ffffffff16565b905090565b60606112ec60067f0000000000000000000000000000000000000000000000000000000000000000611bc190919063ffffffff16565b905090565b5f80825f018054905090505f81146113495761131b835f016001836113169190613419565b61180d565b5f0160069054906101000a900479ffffffffffffffffffffffffffffffffffffffffffffffffffff1661134b565b5f5b915050919050565b5f61136561135f610efa565b83611c6e565b9050919050565b5f805f8061137c88888888611cae565b92509250925061138c8282611d95565b829350505050949350505050565b5f6113a4836113f1565b90508082146113ec5782816040517f752d88c00000000000000000000000000000000000000000000000000000000081526004016113e392919061347f565b60405180910390fd5b505050565b5f60075f8373ffffffffffffffffffffffffffffffffffffffff1673ffffffffffffffffffffffffffffffffffffffff1681526020019081526020015f205f815480929190600101919050559050919050565b61144c61296b565b61149b8260095f8673ffffffffffffffffffffffffffffffffffffffff1673ffffffffffffffffffffffffffffffffffffffff1681526020019081526020015f20611ef790919063ffffffff16565b905092915050565b5f73ffffffffffffffffffffffffffffffffffffffff168473ffffffffffffffffffffffffffffffffffffffff1603611513575f6040517fe602df0500000000000000000000000000000000000000000000000000000000815260040161150a9190612c6a565b60405180910390fd5b5f73ffffffffffffffffffffffffffffffffffffffff168373ffffffffffffffffffffffffffffffffffffffff1603611583575f6040517f94280d6200000000000000000000000000000000000000000000000000000000815260040161157a9190612c6a565b60405180910390fd5b8160015f8673ffffffffffffffffffffffffffffffffffffffff1673ffffffffffffffffffffffffffffffffffffffff1681526020019081526020015f205f8573ffffffffffffffffffffffffffffffffffffffff1673ffffffffffffffffffffffffffffffffffffffff1681526020019081526020015f2081905550801561166c578273ffffffffffffffffffffffffffffffffffffffff168473ffffffffffffffffffffffffffffffffffffffff167f8c5be1e5ebec7d5bd14f71427d1e84f3dd0314c0f7b2291e5b200ac8c7c3b925846040516116639190612b62565b60405180910390a35b50505050565b61167d838383611fc6565b505050565b5f7f8b73c3c69bb8fe3d512ecc4cf759cc79239f7b179b0ffacaa9a75d522b39400f7f00000000000000000000000000000000000000000000000000000000000000007f000000000000000000000000000000000000000000000000000000000000000046306040516020016116fc9594939291906134a6565b60405160208183030381529060405280519060200120905090565b5f808203611727575f9050611808565b5f600161173384612074565b901c6001901b9050600181848161174d5761174c6134f7565b5b048201901c90506001818481611766576117656134f7565b5b048201901c9050600181848161177f5761177e6134f7565b5b048201901c90506001818481611798576117976134f7565b5b048201901c905060018184816117b1576117b06134f7565b5b048201901c905060018184816117ca576117c96134f7565b5b048201901c905060018184816117e3576117e26134f7565b5b048201901c9050611804818285816117fe576117fd6134f7565b5b0461214b565b9150505b919050565b5f825f528160205f2001905092915050565b5f5b81831015611889575f6118348484612163565b90508465ffffffffffff16611849878361180d565b5f015f9054906101000a900465ffffffffffff1665ffffffffffff16111561187357809250611883565b600181611880919061344c565b93505b50611821565b819050949350505050565b5f61189e826107d1565b9050919050565b8173ffffffffffffffffffffffffffffffffffffffff168373ffffffffffffffffffffffffffffffffffffffff16141580156118e057505f81115b15611b10575f73ffffffffffffffffffffffffffffffffffffffff168373ffffffffffffffffffffffffffffffffffffffff16146119fa575f8061196b60095f8773ffffffffffffffffffffffffffffffffffffffff1673ffffffffffffffffffffffffffffffffffffffff1681526020019081526020015f20610d4a61196686612188565b6121f5565b79ffffffffffffffffffffffffffffffffffffffffffffffffffff16915079ffffffffffffffffffffffffffffffffffffffffffffffffffff1691508473ffffffffffffffffffffffffffffffffffffffff167fdec2bacdd2f05b59de34da9b523dff8be42e5e38e818c82fdb0bae774387a72483836040516119ef929190613524565b60405180910390a250505b5f73ffffffffffffffffffffffffffffffffffffffff168273ffffffffffffffffffffffffffffffffffffffff1614611b0f575f80611a8060095f8673ffffffffffffffffffffffffffffffffffffffff1673ffffffffffffffffffffffffffffffffffffffff1681526020019081526020015f20610d35611a7b86612188565b6121f5565b79ffffffffffffffffffffffffffffffffffffffffffffffffffff16915079ffffffffffffffffffffffffffffffffffffffffffffffffffff1691508373ffffffffffffffffffffffffffffffffffffffff167fdec2bacdd2f05b59de34da9b523dff8be42e5e38e818c82fdb0bae774387a7248383604051611b04929190613524565b60405180910390a250505b5b505050565b5f815f01805490509050919050565b5f63ffffffff8016821115611b73576020826040517f6dfcc650000000000000000000000000000000000000000000000000000000008152600401611b6a929190613584565b60405180910390fd5b819050919050565b5f60075f8373ffffffffffffffffffffffffffffffffffffffff1673ffffffffffffffffffffffffffffffffffffffff1681526020019081526020015f20549050919050565b606060ff5f1b8314611bdd57611bd683612234565b9050611c68565b818054611be990613167565b80601f0160208091040260200160405190810160405280929190818152602001828054611c1590613167565b8015611c605780601f10611c3757610100808354040283529160200191611c60565b820191905f5260205f20905b815481529060010190602001808311611c4357829003601f168201915b505050505090505b92915050565b5f6040517f190100000000000000000000000000000000000000000000000000000000000081528360028201528260228201526042812091505092915050565b5f805f7f7fffffffffffffffffffffffffffffff5d576e7357a4501ddfe92f46681b20a0845f1c1115611cea575f600385925092509250611d8b565b5f6001888888886040515f8152602001604052604051611d0d94939291906135ab565b6020604051602081039080840390855afa158015611d2d573d5f803e3d5ffd5b5050506020604051035190505f73ffffffffffffffffffffffffffffffffffffffff168173ffffffffffffffffffffffffffffffffffffffff1603611d7e575f60015f801b93509350935050611d8b565b805f805f1b935093509350505b9450945094915050565b5f6003811115611da857611da76135ee565b5b826003811115611dbb57611dba6135ee565b5b0315611ef35760016003811115611dd557611dd46135ee565b5b826003811115611de857611de76135ee565b5b03611e1f576040517ff645eedf00000000000000000000000000000000000000000000000000000000815260040160405180910390fd5b60026003811115611e3357611e326135ee565b5b826003811115611e4657611e456135ee565b5b03611e8a57805f1c6040517ffce698f7000000000000000000000000000000000000000000000000000000008152600401611e819190612b62565b60405180910390fd5b600380811115611e9d57611e9c6135ee565b5b826003811115611eb057611eaf6135ee565b5b03611ef257806040517fd78bce0c000000000000000000000000000000000000000000000000000000008152600401611ee99190612c17565b60405180910390fd5b5b5050565b611eff61296b565b825f018263ffffffff1681548110611f1a57611f1961361b565b5b905f5260205f20016040518060400160405290815f82015f9054906101000a900465ffffffffffff1665ffffffffffff1665ffffffffffff1681526020015f820160069054906101000a900479ffffffffffffffffffffffffffffffffffffffffffffffffffff1679ffffffffffffffffffffffffffffffffffffffffffffffffffff1679ffffffffffffffffffffffffffffffffffffffffffffffffffff1681525050905092915050565b611fd18383836122a6565b5f73ffffffffffffffffffffffffffffffffffffffff168373ffffffffffffffffffffffffffffffffffffffff1603612064575f61200d61058b565b90505f6120186124bf565b9050808211156120615781816040517f1cb15d26000000000000000000000000000000000000000000000000000000008152600401612058929190613524565b60405180910390fd5b50505b61206f8383836124e2565b505050565b5f805f90505f608084901c111561209357608083901c92506080810190505b5f604084901c11156120ad57604083901c92506040810190505b5f602084901c11156120c757602083901c92506020810190505b5f601084901c11156120e157601083901c92506010810190505b5f600884901c11156120fb57600883901c92506008810190505b5f600484901c111561211557600483901c92506004810190505b5f600284901c111561212f57600283901c92506002810190505b5f600184901c1115612142576001810190505b80915050919050565b5f818310612159578161215b565b825b905092915050565b5f60028284186121739190613648565b828416612180919061344c565b905092915050565b5f79ffffffffffffffffffffffffffffffffffffffffffffffffffff80168211156121ed5760d0826040517f6dfcc6500000000000000000000000000000000000000000000000000000000081526004016121e49291906136b1565b60405180910390fd5b819050919050565b5f80612228612202610966565b61221861220e886112f1565b868863ffffffff16565b8761259a9092919063ffffffff16565b91509150935093915050565b60605f612240836125b5565b90505f602067ffffffffffffffff81111561225e5761225d6131be565b5b6040519080825280601f01601f1916602001820160405280156122905781602001600182028036833780820191505090505b5090508181528360208201528092505050919050565b5f73ffffffffffffffffffffffffffffffffffffffff168373ffffffffffffffffffffffffffffffffffffffff16036122f6578060025f8282546122ea919061344c565b925050819055506123c4565b5f805f8573ffffffffffffffffffffffffffffffffffffffff1673ffffffffffffffffffffffffffffffffffffffff1681526020019081526020015f205490508181101561237f578381836040517fe450d38c0000000000000000000000000000000000000000000000000000000081526004016123769392919061337b565b60405180910390fd5b8181035f808673ffffffffffffffffffffffffffffffffffffffff1673ffffffffffffffffffffffffffffffffffffffff1681526020019081526020015f2081905550505b5f73ffffffffffffffffffffffffffffffffffffffff168273ffffffffffffffffffffffffffffffffffffffff160361240b578060025f8282540392505081905550612455565b805f808473ffffffffffffffffffffffffffffffffffffffff1673ffffffffffffffffffffffffffffffffffffffff1681526020019081526020015f205f82825401925050819055505b8173ffffffffffffffffffffffffffffffffffffffff168373ffffffffffffffffffffffffffffffffffffffff167fddf252ad1be2c89b69c2b068fc378daa952ba7f163c4a11628f55a4df523b3ef836040516124b29190612b62565b60405180910390a3505050565b5f79ffffffffffffffffffffffffffffffffffffffffffffffffffff8016905090565b5f73ffffffffffffffffffffffffffffffffffffffff168373ffffffffffffffffffffffffffffffffffffffff160361252e5761252b600a610d3561252684612188565b6121f5565b50505b5f73ffffffffffffffffffffffffffffffffffffffff168273ffffffffffffffffffffffffffffffffffffffff160361257a57612577600a610d4a61257284612188565b6121f5565b50505b61259561258684610742565b61258f84610742565b836118a5565b505050565b5f806125a9855f018585612603565b91509150935093915050565b5f8060ff835f1c169050601f8111156125fa576040517fb3512b0c00000000000000000000000000000000000000000000000000000000815260040160405180910390fd5b80915050919050565b5f805f858054905090505f811115612883575f61262c876001846126279190613419565b61180d565b6040518060400160405290815f82015f9054906101000a900465ffffffffffff1665ffffffffffff1665ffffffffffff1681526020015f820160069054906101000a900479ffffffffffffffffffffffffffffffffffffffffffffffffffff1679ffffffffffffffffffffffffffffffffffffffffffffffffffff1679ffffffffffffffffffffffffffffffffffffffffffffffffffff168152505090508565ffffffffffff16815f015165ffffffffffff161115612717576040517f2520601d00000000000000000000000000000000000000000000000000000000815260040160405180910390fd5b8565ffffffffffff16815f015165ffffffffffff16036127995784612748886001856127439190613419565b61180d565b5f0160066101000a81548179ffffffffffffffffffffffffffffffffffffffffffffffffffff021916908379ffffffffffffffffffffffffffffffffffffffffffffffffffff160217905550612872565b8660405180604001604052808865ffffffffffff1681526020018779ffffffffffffffffffffffffffffffffffffffffffffffffffff16815250908060018154018082558091505060019003905f5260205f20015f909190919091505f820151815f015f6101000a81548165ffffffffffff021916908365ffffffffffff1602179055506020820151815f0160066101000a81548179ffffffffffffffffffffffffffffffffffffffffffffffffffff021916908379ffffffffffffffffffffffffffffffffffffffffffffffffffff16021790555050505b806020015185935093505050612963565b8560405180604001604052808765ffffffffffff1681526020018679ffffffffffffffffffffffffffffffffffffffffffffffffffff16815250908060018154018082558091505060019003905f5260205f20015f909190919091505f820151815f015f6101000a81548165ffffffffffff021916908365ffffffffffff1602179055506020820151815f0160066101000a81548179ffffffffffffffffffffffffffffffffffffffffffffffffffff021916908379ffffffffffffffffffffffffffffffffffffffffffffffffffff16021790555050505f8492509250505b935093915050565b60405180604001604052805f65ffffffffffff1681526020015f79ffffffffffffffffffffffffffffffffffffffffffffffffffff1681525090565b5f81519050919050565b5f82825260208201905092915050565b5f5b838110156129de5780820151818401526020810190506129c3565b5f8484015250505050565b5f601f19601f8301169050919050565b5f612a03826129a7565b612a0d81856129b1565b9350612a1d8185602086016129c1565b612a26816129e9565b840191505092915050565b5f6020820190508181035f830152612a4981846129f9565b905092915050565b5f80fd5b5f73ffffffffffffffffffffffffffffffffffffffff82169050919050565b5f612a7e82612a55565b9050919050565b612a8e81612a74565b8114612a98575f80fd5b50565b5f81359050612aa981612a85565b92915050565b5f819050919050565b612ac181612aaf565b8114612acb575f80fd5b50565b5f81359050612adc81612ab8565b92915050565b5f8060408385031215612af857612af7612a51565b5b5f612b0585828601612a9b565b9250506020612b1685828601612ace565b9150509250929050565b5f8115159050919050565b612b3481612b20565b82525050565b5f602082019050612b4d5f830184612b2b565b92915050565b612b5c81612aaf565b82525050565b5f602082019050612b755f830184612b53565b92915050565b5f805f60608486031215612b9257612b91612a51565b5b5f612b9f86828701612a9b565b9350506020612bb086828701612a9b565b9250506040612bc186828701612ace565b9150509250925092565b5f60ff82169050919050565b612be081612bcb565b82525050565b5f602082019050612bf95f830184612bd7565b92915050565b5f819050919050565b612c1181612bff565b82525050565b5f602082019050612c2a5f830184612c08565b92915050565b5f60208284031215612c4557612c44612a51565b5b5f612c5284828501612a9b565b91505092915050565b612c6481612a74565b82525050565b5f602082019050612c7d5f830184612c5b565b92915050565b5f63ffffffff82169050919050565b612c9b81612c83565b82525050565b5f602082019050612cb45f830184612c92565b92915050565b5f7fff0000000000000000000000000000000000000000000000000000000000000082169050919050565b612cee81612cba565b82525050565b5f81519050919050565b5f82825260208201905092915050565b5f819050602082019050919050565b612d2681612aaf565b82525050565b5f612d378383612d1d565b60208301905092915050565b5f602082019050919050565b5f612d5982612cf4565b612d638185612cfe565b9350612d6e83612d0e565b805f5b83811015612d9e578151612d858882612d2c565b9750612d9083612d43565b925050600181019050612d71565b5085935050505092915050565b5f60e082019050612dbe5f83018a612ce5565b8181036020830152612dd081896129f9565b90508181036040830152612de481886129f9565b9050612df36060830187612b53565b612e006080830186612c5b565b612e0d60a0830185612c08565b81810360c0830152612e1f8184612d4f565b905098975050505050505050565b5f60208284031215612e4257612e41612a51565b5b5f612e4f84828501612ace565b91505092915050565b5f65ffffffffffff82169050919050565b612e7281612e58565b82525050565b5f602082019050612e8b5f830184612e69565b92915050565b612e9a81612bcb565b8114612ea4575f80fd5b50565b5f81359050612eb581612e91565b92915050565b612ec481612bff565b8114612ece575f80fd5b50565b5f81359050612edf81612ebb565b92915050565b5f805f805f8060c08789031215612eff57612efe612a51565b5b5f612f0c89828a01612a9b565b9650506020612f1d89828a01612ace565b9550506040612f2e89828a01612ace565b9450506060612f3f89828a01612ea7565b9350506080612f5089828a01612ed1565b92505060a0612f6189828a01612ed1565b9150509295509295509295565b5f805f805f805f60e0888a031215612f8957612f88612a51565b5b5f612f968a828b01612a9b565b9750506020612fa78a828b01612a9b565b9650506040612fb88a828b01612ace565b9550506060612fc98a828b01612ace565b9450506080612fda8a828b01612ea7565b93505060a0612feb8a828b01612ed1565b92505060c0612ffc8a828b01612ed1565b91505092959891949750929550565b5f806040838503121561302157613020612a51565b5b5f61302e85828601612a9b565b925050602061303f85828601612a9b565b9150509250929050565b61305281612c83565b811461305c575f80fd5b50565b5f8135905061306d81613049565b92915050565b5f806040838503121561308957613088612a51565b5b5f61309685828601612a9b565b92505060206130a78582860161305f565b9150509250929050565b6130ba81612e58565b82525050565b5f79ffffffffffffffffffffffffffffffffffffffffffffffffffff82169050919050565b6130ee816130c0565b82525050565b604082015f8201516131085f8501826130b1565b50602082015161311b60208501826130e5565b50505050565b5f6040820190506131345f8301846130f4565b92915050565b7f4e487b71000000000000000000000000000000000000000000000000000000005f52602260045260245ffd5b5f600282049050600182168061317e57607f821691505b6020821081036131915761319061313a565b5b50919050565b5f6040820190506131aa5f830185612b53565b6131b76020830184612e69565b9392505050565b7f4e487b71000000000000000000000000000000000000000000000000000000005f52604160045260245ffd5b5f6080820190506131fe5f830187612c08565b61320b6020830186612c5b565b6132186040830185612b53565b6132256060830184612b53565b95945050505050565b5f60c0820190506132415f830189612c08565b61324e6020830188612c5b565b61325b6040830187612c5b565b6132686060830186612b53565b6132756080830185612b53565b61328260a0830184612b53565b979650505050505050565b5f6040820190506132a05f830185612c5b565b6132ad6020830184612c5b565b9392505050565b7f4e487b71000000000000000000000000000000000000000000000000000000005f52601160045260245ffd5b5f6132eb826130c0565b91506132f6836130c0565b9250828201905079ffffffffffffffffffffffffffffffffffffffffffffffffffff811115613328576133276132b4565b5b92915050565b5f613338826130c0565b9150613343836130c0565b9250828203905079ffffffffffffffffffffffffffffffffffffffffffffffffffff811115613375576133746132b4565b5b92915050565b5f60608201905061338e5f830186612c5b565b61339b6020830185612b53565b6133a86040830184612b53565b949350505050565b5f819050919050565b5f819050919050565b5f6133dc6133d76133d2846133b0565b6133b9565b612bcb565b9050919050565b6133ec816133c2565b82525050565b5f6040820190506134055f8301856133e3565b6134126020830184612b53565b9392505050565b5f61342382612aaf565b915061342e83612aaf565b9250828203905081811115613446576134456132b4565b5b92915050565b5f61345682612aaf565b915061346183612aaf565b9250828201905080821115613479576134786132b4565b5b92915050565b5f6040820190506134925f830185612c5b565b61349f6020830184612b53565b9392505050565b5f60a0820190506134b95f830188612c08565b6134c66020830187612c08565b6134d36040830186612c08565b6134e06060830185612b53565b6134ed6080830184612c5b565b9695505050505050565b7f4e487b71000000000000000000000000000000000000000000000000000000005f52601260045260245ffd5b5f6040820190506135375f830185612b53565b6135446020830184612b53565b9392505050565b5f819050919050565b5f61356e6135696135648461354b565b6133b9565b612bcb565b9050919050565b61357e81613554565b82525050565b5f6040820190506135975f830185613575565b6135a46020830184612b53565b9392505050565b5f6080820190506135be5f830187612c08565b6135cb6020830186612bd7565b6135d86040830185612c08565b6135e56060830184612c08565b95945050505050565b7f4e487b71000000000000000000000000000000000000000000000000000000005f52602160045260245ffd5b7f4e487b71000000000000000000000000000000000000000000000000000000005f52603260045260245ffd5b5f61365282612aaf565b915061365d83612aaf565b92508261366d5761366c6134f7565b5b828204905092915050565b5f819050919050565b5f61369b61369661369184613678565b6133b9565b612bcb565b9050919050565b6136ab81613681565b82525050565b5f6040820190506136c45f8301856136a2565b6136d16020830184612b53565b939250505056fea2646970667358221220b3b23d39ed635e8810d1d0f423ea4d1e31c6d6197799d69d29f0a8b8a2a2280764736f6c63430008160033', \n     arguments: [\n          name,\n          symbol,\n          maxSupply,\n     ]\n}).send({\n     from: web3.eth.accounts[0], \n     gas: '4700000'\n   }, function (e, contract){\n    console.log(e, contract);\n    if (typeof contract.address !== 'undefined') {\n         console.log('Contract mined! address: ' + contract.address + ' transactionHash: ' + contract.transactionHash);\n    }\n })",
  "functionHashes": {
    "4bf5d7e9": "CLOCK_MODE()",
    "3644e515": "DOMAIN_SEPARATOR()",
    "dd62ed3e": "allowance(address,address)",
    "095ea7b3": "approve(address,uint256)",
    "70a08231": "balanceOf(address)",
    "f1127ed8": "checkpoints(address,uint32)",
    "91ddadf4": "clock()",
    "313ce567": "decimals()",
    "5c19a95c": "delegate(address)",
    "c3cda520": "delegateBySig(address,uint256,uint256,uint8,bytes32,bytes32)",
    "587cde1e": "delegates(address)",
    "84b0196e": "eip712Domain()",
    "8e539e8c": "getPastTotalSupply(uint256)",
    "3a46b1a8": "getPastVotes(address,uint256)",
    "9ab24eb0": "getVotes(address)",
    "06fdde03": "name()",
    "7ecebe00": "nonces(address)",
    "6fcfff45": "numCheckpoints(address)",
    "d505accf": "permit(address,address,uint256,uint256,uint8,bytes32,bytes32)",
    "95d89b41": "symbol()",
    "18160ddd": "totalSupply()",
    "a9059cbb": "transfer(address,uint256)",
    "23b872dd": "transferFrom(address,address,uint256)"
  },
  "gasEstimates": {
    "Creation": {
      "codeDepositCost": "2818800",
      "executionCost": "infinite",
      "totalCost": "infinite"
    },
    "External": {
      "CLOCK_MODE()": "infinite",
      "DOMAIN_SEPARATOR()": "infinite",
      "allowance(address,address)": "infinite",
      "approve(address,uint256)": "infinite",
      "balanceOf(address)": "2852",
      "checkpoints(address,uint32)": "infinite",
      "clock()": "745",
      "decimals()": "450",
      "delegate(address)": "infinite",
      "delegateBySig(address,uint256,uint256,uint8,bytes32,bytes32)": "infinite",
      "delegates(address)": "infinite",
      "eip712Domain()": "infinite",
      "getPastTotalSupply(uint256)": "infinite",
      "getPastVotes(address,uint256)": "infinite",
      "getVotes(address)": "infinite",
      "name()": "infinite",
      "nonces(address)": "2958",
      "numCheckpoints(address)": "3318",
      "permit(address,address,uint256,uint256,uint8,bytes32,bytes32)": "infinite",
      "symbol()": "infinite",
      "totalSupply()": "2500",
      "transfer(address,uint256)": "infinite",
      "transferFrom(address,address,uint256)": "infinite"
    },
    "Internal": {
      "_update(address,address,uint256)": "infinite"
    }
  },
  "devdoc": {
    "errors": {
      "CheckpointUnorderedInsertion()": [
        {
          "details": "A value was attempted to be inserted on a past checkpoint."
        }
      ],
      "ECDSAInvalidSignature()": [
        {
          "details": "The signature derives the `address(0)`."
        }
      ],
      "ECDSAInvalidSignatureLength(uint256)": [
        {
          "details": "The signature has an invalid length."
        }
      ],
      "ECDSAInvalidSignatureS(bytes32)": [
        {
          "details": "The signature has an S value that is in the upper half order."
        }
      ],
      "ERC20ExceededSafeSupply(uint256,uint256)": [
        {
          "details": "Total supply cap has been exceeded, introducing a risk of votes overflowing."
        }
      ],
      "ERC20InsufficientAllowance(address,uint256,uint256)": [
        {
          "details": "Indicates a failure with the `spender`s `allowance`. Used in transfers.",
          "params": {
            "allowance": "Amount of tokens a `spender` is allowed to operate with.",
            "needed": "Minimum amount required to perform a transfer.",
            "spender": "Address that may be allowed to operate on tokens without being their owner."
          }
        }
      ],
      "ERC20InsufficientBalance(address,uint256,uint256)": [
        {
          "details": "Indicates an error related to the current `balance` of a `sender`. Used in transfers.",
          "params": {
            "balance": "Current balance for the interacting account.",
            "needed": "Minimum amount required to perform a transfer.",
            "sender": "Address whose tokens are being transferred."
          }
        }
      ],
      "ERC20InvalidApprover(address)": [
        {
          "details": "Indicates a failure with the `approver` of a token to be approved. Used in approvals.",
          "params": {
            "approver": "Address initiating an approval operation."
          }
        }
      ],
      "ERC20InvalidReceiver(address)": [
        {
          "details": "Indicates a failure with the token `receiver`. Used in transfers.",
          "params": {
            "receiver": "Address to which tokens are being transferred."
          }
        }
      ],
      "ERC20InvalidSender(address)": [
        {
          "details": "Indicates a failure with the token `sender`. Used in transfers.",
          "params": {
            "sender": "Address whose tokens are being transferred."
          }
        }
      ],
      "ERC20InvalidSpender(address)": [
        {
          "details": "Indicates a failure with the `spender` to be approved. Used in approvals.",
          "params": {
            "spender": "Address that may be allowed to operate on tokens without being their owner."
          }
        }
      ],
      "ERC2612ExpiredSignature(uint256)": [
        {
          "details": "Permit deadline has expired."
        }
      ],
      "ERC2612InvalidSigner(address,address)": [
        {
          "details": "Mismatched signature."
        }
      ],
      "ERC5805FutureLookup(uint256,uint48)": [
        {
          "details": "Lookup to future votes is not available."
        }
      ],
      "ERC6372InconsistentClock()": [
        {
          "details": "The clock was incorrectly modified."
        }
      ],
      "InvalidAccountNonce(address,uint256)": [
        {
          "details": "The nonce used for an `account` is not the expected current nonce."
        }
      ],
      "SafeCastOverflowedUintDowncast(uint8,uint256)": [
        {
          "details": "Value doesn't fit in an uint of `bits` size."
        }
      ],
      "VotesExpiredSignature(uint256)": [
        {
          "details": "The signature used has expired."
        }
      ]
    },
    "events": {
      "Approval(address,address,uint256)": {
        "details": "Emitted when the allowance of a `spender` for an `owner` is set by a call to {approve}. `value` is the new allowance."
      },
      "DelegateChanged(address,address,address)": {
        "details": "Emitted when an account changes their delegate."
      },
      "DelegateVotesChanged(address,uint256,uint256)": {
        "details": "Emitted when a token transfer or delegate change results in changes to a delegate's number of voting units."
      },
      "EIP712DomainChanged()": {
        "details": "MAY be emitted to signal that the domain could have changed."
      },
      "Transfer(address,address,uint256)": {
        "details": "Emitted when `value` tokens are moved from one account (`from`) to another (`to`). Note that `value` may be zero."
      }
    },
    "kind": "dev",
    "methods": {
      "CLOCK_MODE()": {
        "details": "Machine-readable description of the clock as specified in EIP-6372."
      },
      "DOMAIN_SEPARATOR()": {
        "details": "Returns the domain separator used in the encoding of the signature for {permit}, as defined by {EIP712}."
      },
      "allowance(address,address)": {
        "details": "See {IERC20-allowance}."
      },
      "approve(address,uint256)": {
        "details": "See {IERC20-approve}. NOTE: If `value` is the maximum `uint256`, the allowance is not updated on `transferFrom`. This is semantically equivalent to an infinite approval. Requirements: - `spender` cannot be the zero address."
      },
      "balanceOf(address)": {
        "details": "See {IERC20-balanceOf}."
      },
      "checkpoints(address,uint32)": {
        "details": "Get the `pos`-th checkpoint for `account`."
      },
      "clock()": {
        "details": "Clock used for flagging checkpoints. Can be overridden to implement timestamp based checkpoints (and voting), in which case {CLOCK_MODE} should be overridden as well to match."
      },
      "decimals()": {
        "details": "Returns the number of decimals used to get its user representation. For example, if `decimals` equals `2`, a balance of `505` tokens should be displayed to a user as `5.05` (`505 / 10 ** 2`). Tokens usually opt for a value of 18, imitating the relationship between Ether and Wei. This is the default value returned by this function, unless it's overridden. NOTE: This information is only used for _display_ purposes: it in no way affects any of the arithmetic of the contract, including {IERC20-balanceOf} and {IERC20-transfer}."
      },
      "delegate(address)": {
        "details": "Delegates votes from the sender to `delegatee`."
      },
      "delegateBySig(address,uint256,uint256,uint8,bytes32,bytes32)": {
        "details": "Delegates votes from signer to `delegatee`."
      },
      "delegates(address)": {
        "details": "Returns the delegate that `account` has chosen."
      },
      "eip712Domain()": {
        "details": "See {IERC-5267}."
      },
      "getPastTotalSupply(uint256)": {
        "details": "Returns the total supply of votes available at a specific moment in the past. If the `clock()` is configured to use block numbers, this will return the value at the end of the corresponding block. NOTE: This value is the sum of all available votes, which is not necessarily the sum of all delegated votes. Votes that have not been delegated are still part of total supply, even though they would not participate in a vote. Requirements: - `timepoint` must be in the past. If operating using block numbers, the block must be already mined."
      },
      "getPastVotes(address,uint256)": {
        "details": "Returns the amount of votes that `account` had at a specific moment in the past. If the `clock()` is configured to use block numbers, this will return the value at the end of the corresponding block. Requirements: - `timepoint` must be in the past. If operating using block numbers, the block must be already mined."
      },
      "getVotes(address)": {
        "details": "Returns the current amount of votes that `account` has."
      },
      "name()": {
        "details": "Returns the name of the token."
      },
      "numCheckpoints(address)": {
        "details": "Get number of checkpoints for `account`."
      },
      "permit(address,address,uint256,uint256,uint8,bytes32,bytes32)": {
        "details": "Sets `value` as the allowance of `spender` over ``owner``'s tokens, given ``owner``'s signed approval. IMPORTANT: The same issues {IERC20-approve} has related to transaction ordering also apply here. Emits an {Approval} event. Requirements: - `spender` cannot be the zero address. - `deadline` must be a timestamp in the future. - `v`, `r` and `s` must be a valid `secp256k1` signature from `owner` over the EIP712-formatted function arguments. - the signature must use ``owner``'s current nonce (see {nonces}). For more information on the signature format, see the https://eips.ethereum.org/EIPS/eip-2612#specification[relevant EIP section]. CAUTION: See Security Considerations above."
      },
      "symbol()": {
        "details": "Returns the symbol of the token, usually a shorter version of the name."
      },
      "totalSupply()": {
        "details": "See {IERC20-totalSupply}."
      },
      "transfer(address,uint256)": {
        "details": "See {IERC20-transfer}. Requirements: - `to` cannot be the zero address. - the caller must have a balance of at least `value`."
      },
      "transferFrom(address,address,uint256)": {
        "details": "See {IERC20-transferFrom}. Emits an {Approval} event indicating the updated allowance. This is not required by the EIP. See the note at the beginning of {ERC20}. NOTE: Does not update the allowance if the current allowance is the maximum `uint256`. Requirements: - `from` and `to` cannot be the zero address. - `from` must have a balance of at least `value`. - the caller must have allowance for ``from``'s tokens of at least `value`."
      }
    },
    "version": 1
  },
  "userdoc": {
    "kind": "user",
    "methods": {},
    "version": 1
  },
  "Runtime Bytecode": {
    "immutableReferences": {
      "2807": [
        {
          "length": 32,
          "start": 3964
        }
      ],
      "2809": [
        {
          "length": 32,
          "start": 3923
        }
      ],
      "2811": [
        {
          "length": 32,
          "start": 3837
        }
      ],
      "2813": [
        {
          "length": 32,
          "start": 5798
        }
      ],
      "2815": [
        {
          "length": 32,
          "start": 5831
        }
      ],
      "2818": [
        {
          "length": 32,
          "start": 4740
        }
      ],
      "2821": [
        {
          "length": 32,
          "start": 4799
        }
      ]
    },
    "linkReferences": {},
    "object": "608060405234801561000f575f80fd5b506004361061014b575f3560e01c806370a08231116100c15780639ab24eb01161007a5780639ab24eb0146103e1578063a9059cbb14610411578063c3cda52014610441578063d505accf1461045d578063dd62ed3e14610479578063f1127ed8146104a95761014b565b806370a08231146102f15780637ecebe001461032157806384b0196e146103515780638e539e8c1461037557806391ddadf4146103a557806395d89b41146103c35761014b565b80633644e515116101135780633644e515146102095780633a46b1a8146102275780634bf5d7e914610257578063587cde1e146102755780635c19a95c146102a55780636fcfff45146102c15761014b565b806306fdde031461014f578063095ea7b31461016d57806318160ddd1461019d57806323b872dd146101bb578063313ce567146101eb575b5f80fd5b6101576104d9565b6040516101649190612a31565b60405180910390f35b61018760048036038101906101829190612ae2565b610569565b6040516101949190612b3a565b60405180910390f35b6101a561058b565b6040516101b29190612b62565b60405180910390f35b6101d560048036038101906101d09190612b7b565b610594565b6040516101e29190612b3a565b60405180910390f35b6101f36105c2565b6040516102009190612be6565b60405180910390f35b6102116105ca565b60405161021e9190612c17565b60405180910390f35b610241600480360381019061023c9190612ae2565b6105d8565b60405161024e9190612b62565b60405180910390f35b61025f6106ae565b60405161026c9190612a31565b60405180910390f35b61028f600480360381019061028a9190612c30565b610742565b60405161029c9190612c6a565b60405180910390f35b6102bf60048036038101906102ba9190612c30565b6107a7565b005b6102db60048036038101906102d69190612c30565b6107c0565b6040516102e89190612ca1565b60405180910390f35b61030b60048036038101906103069190612c30565b6107d1565b6040516103189190612b62565b60405180910390f35b61033b60048036038101906103369190612c30565b610816565b6040516103489190612b62565b60405180910390f35b610359610827565b60405161036c9796959493929190612dab565b60405180910390f35b61038f600480360381019061038a9190612e2d565b6108cc565b60405161039c9190612b62565b60405180910390f35b6103ad610966565b6040516103ba9190612e78565b60405180910390f35b6103cb610974565b6040516103d89190612a31565b60405180910390f35b6103fb60048036038101906103f69190612c30565b610a04565b6040516104089190612b62565b60405180910390f35b61042b60048036038101906104269190612ae2565b610a6d565b6040516104389190612b3a565b60405180910390f35b61045b60048036038101906104569190612ee5565b610a8f565b005b61047760048036038101906104729190612f6e565b610b54565b005b610493600480360381019061048e919061300b565b610c99565b6040516104a09190612b62565b60405180910390f35b6104c360048036038101906104be9190613073565b610d1b565b6040516104d09190613121565b60405180910390f35b6060600380546104e890613167565b80601f016020809104026020016040519081016040528092919081815260200182805461051490613167565b801561055f5780601f106105365761010080835404028352916020019161055f565b820191905f5260205f20905b81548152906001019060200180831161054257829003601f168201915b5050505050905090565b5f80610573610d5f565b9050610580818585610d66565b600191505092915050565b5f600254905090565b5f8061059e610d5f565b90506105ab858285610d78565b6105b6858585610e0a565b60019150509392505050565b5f6012905090565b5f6105d3610efa565b905090565b5f806105e2610966565b90508065ffffffffffff1683106106325782816040517fecd3f81e000000000000000000000000000000000000000000000000000000008152600401610629929190613197565b60405180910390fd5b61068961063e84610fb0565b60095f8773ffffffffffffffffffffffffffffffffffffffff1673ffffffffffffffffffffffffffffffffffffffff1681526020019081526020015f2061100990919063ffffffff16565b79ffffffffffffffffffffffffffffffffffffffffffffffffffff1691505092915050565b60606106b86110f6565b65ffffffffffff166106c8610966565b65ffffffffffff1614610707576040517f6ff0714000000000000000000000000000000000000000000000000000000000815260040160405180910390fd5b6040518060400160405280601d81526020017f6d6f64653d626c6f636b6e756d6265722666726f6d3d64656661756c74000000815250905090565b5f60085f8373ffffffffffffffffffffffffffffffffffffffff1673ffffffffffffffffffffffffffffffffffffffff1681526020019081526020015f205f9054906101000a900473ffffffffffffffffffffffffffffffffffffffff169050919050565b5f6107b0610d5f565b90506107bc8183611105565b5050565b5f6107ca82611215565b9050919050565b5f805f8373ffffffffffffffffffffffffffffffffffffffff1673ffffffffffffffffffffffffffffffffffffffff1681526020019081526020015f20549050919050565b5f6108208261126a565b9050919050565b5f6060805f805f606061083861127b565b6108406112b6565b46305f801b5f67ffffffffffffffff81111561085f5761085e6131be565b5b60405190808252806020026020018201604052801561088d5781602001602082028036833780820191505090505b507f0f00000000000000000000000000000000000000000000000000000000000000959493929190965096509650965096509650965090919293949596565b5f806108d6610966565b90508065ffffffffffff1683106109265782816040517fecd3f81e00000000000000000000000000000000000000000000000000000000815260040161091d929190613197565b60405180910390fd5b61094261093284610fb0565b600a61100990919063ffffffff16565b79ffffffffffffffffffffffffffffffffffffffffffffffffffff16915050919050565b5f61096f6110f6565b905090565b60606004805461098390613167565b80601f01602080910402602001604051908101604052809291908181526020018280546109af90613167565b80156109fa5780601f106109d1576101008083540402835291602001916109fa565b820191905f5260205f20905b8154815290600101906020018083116109dd57829003601f168201915b5050505050905090565b5f610a4a60095f8473ffffffffffffffffffffffffffffffffffffffff1673ffffffffffffffffffffffffffffffffffffffff1681526020019081526020015f206112f1565b79ffffffffffffffffffffffffffffffffffffffffffffffffffff169050919050565b5f80610a77610d5f565b9050610a84818585610e0a565b600191505092915050565b83421115610ad457836040517f4683af0e000000000000000000000000000000000000000000000000000000008152600401610acb9190612b62565b60405180910390fd5b5f610b35610b2d7fe48329057bfd03d55e49b547132e39cffd9c1820ad7b9d4c5307691425d15adf898989604051602001610b1294939291906131eb565b60405160208183030381529060405280519060200120611353565b85858561136c565b9050610b41818761139a565b610b4b8188611105565b50505050505050565b83421115610b9957836040517f62791302000000000000000000000000000000000000000000000000000000008152600401610b909190612b62565b60405180910390fd5b5f7f6e71edae12b1b97f4d1f60370fef10105fa2faae0126114a169c64845d6126c9888888610bc78c6113f1565b89604051602001610bdd9695949392919061322e565b6040516020818303038152906040528051906020012090505f610bff82611353565b90505f610c0e8287878761136c565b90508973ffffffffffffffffffffffffffffffffffffffff168173ffffffffffffffffffffffffffffffffffffffff1614610c8257808a6040517f4b800e46000000000000000000000000000000000000000000000000000000008152600401610c7992919061328d565b60405180910390fd5b610c8d8a8a8a610d66565b50505050505050505050565b5f60015f8473ffffffffffffffffffffffffffffffffffffffff1673ffffffffffffffffffffffffffffffffffffffff1681526020019081526020015f205f8373ffffffffffffffffffffffffffffffffffffffff1673ffffffffffffffffffffffffffffffffffffffff1681526020019081526020015f2054905092915050565b610d2361296b565b610d2d8383611444565b905092915050565b5f8183610d4291906132e1565b905092915050565b5f8183610d57919061332e565b905092915050565b5f33905090565b610d7383838360016114a3565b505050565b5f610d838484610c99565b90507fffffffffffffffffffffffffffffffffffffffffffffffffffffffffffffffff8114610e045781811015610df5578281836040517ffb8f41b2000000000000000000000000000000000000000000000000000000008152600401610dec9392919061337b565b60405180910390fd5b610e0384848484035f6114a3565b5b50505050565b5f73ffffffffffffffffffffffffffffffffffffffff168373ffffffffffffffffffffffffffffffffffffffff1603610e7a575f6040517f96c6fd1e000000000000000000000000000000000000000000000000000000008152600401610e719190612c6a565b60405180910390fd5b5f73ffffffffffffffffffffffffffffffffffffffff168273ffffffffffffffffffffffffffffffffffffffff1603610eea575f6040517fec442f05000000000000000000000000000000000000000000000000000000008152600401610ee19190612c6a565b60405180910390fd5b610ef5838383611672565b505050565b5f7f000000000000000000000000000000000000000000000000000000000000000073ffffffffffffffffffffffffffffffffffffffff163073ffffffffffffffffffffffffffffffffffffffff16148015610f7557507f000000000000000000000000000000000000000000000000000000000000000046145b15610fa2577f00000000000000000000000000000000000000000000000000000000000000009050610fad565b610faa611682565b90505b90565b5f65ffffffffffff8016821115611001576030826040517f6dfcc650000000000000000000000000000000000000000000000000000000008152600401610ff89291906133f2565b60405180910390fd5b819050919050565b5f80835f018054905090505f80829050600583111561108a575f61102c84611717565b846110379190613419565b9050611045875f018261180d565b5f015f9054906101000a900465ffffffffffff1665ffffffffffff168665ffffffffffff16101561107857809150611088565b600181611085919061344c565b92505b505b5f611099875f0187858561181f565b90505f81146110e8576110ba875f016001836110b59190613419565b61180d565b5f0160069054906101000a900479ffffffffffffffffffffffffffffffffffffffffffffffffffff166110ea565b5f5b94505050505092915050565b5f61110043610fb0565b905090565b5f61110f83610742565b90508160085f8573ffffffffffffffffffffffffffffffffffffffff1673ffffffffffffffffffffffffffffffffffffffff1681526020019081526020015f205f6101000a81548173ffffffffffffffffffffffffffffffffffffffff021916908373ffffffffffffffffffffffffffffffffffffffff1602179055508173ffffffffffffffffffffffffffffffffffffffff168173ffffffffffffffffffffffffffffffffffffffff168473ffffffffffffffffffffffffffffffffffffffff167f3134e8a2e6d97e929a7e54011ea5485d7d196dd5f0ba4d4ef95803e8e3fc257f60405160405180910390a4611210818361120b86611894565b6118a5565b505050565b5f61126361125e60095f8573ffffffffffffffffffffffffffffffffffffffff1673ffffffffffffffffffffffffffffffffffffffff1681526020019081526020015f20611b15565b611b24565b9050919050565b5f61127482611b7b565b9050919050565b60606112b160057f0000000000000000000000000000000000000000000000000000000000000000611bc190919063ffffffff16565b905090565b60606112ec60067f0000000000000000000000000000000000000000000000000000000000000000611bc190919063ffffffff16565b905090565b5f80825f018054905090505f81146113495761131b835f016001836113169190613419565b61180d565b5f0160069054906101000a900479ffffffffffffffffffffffffffffffffffffffffffffffffffff1661134b565b5f5b915050919050565b5f61136561135f610efa565b83611c6e565b9050919050565b5f805f8061137c88888888611cae565b92509250925061138c8282611d95565b829350505050949350505050565b5f6113a4836113f1565b90508082146113ec5782816040517f752d88c00000000000000000000000000000000000000000000000000000000081526004016113e392919061347f565b60405180910390fd5b505050565b5f60075f8373ffffffffffffffffffffffffffffffffffffffff1673ffffffffffffffffffffffffffffffffffffffff1681526020019081526020015f205f815480929190600101919050559050919050565b61144c61296b565b61149b8260095f8673ffffffffffffffffffffffffffffffffffffffff1673ffffffffffffffffffffffffffffffffffffffff1681526020019081526020015f20611ef790919063ffffffff16565b905092915050565b5f73ffffffffffffffffffffffffffffffffffffffff168473ffffffffffffffffffffffffffffffffffffffff1603611513575f6040517fe602df0500000000000000000000000000000000000000000000000000000000815260040161150a9190612c6a565b60405180910390fd5b5f73ffffffffffffffffffffffffffffffffffffffff168373ffffffffffffffffffffffffffffffffffffffff1603611583575f6040517f94280d6200000000000000000000000000000000000000000000000000000000815260040161157a9190612c6a565b60405180910390fd5b8160015f8673ffffffffffffffffffffffffffffffffffffffff1673ffffffffffffffffffffffffffffffffffffffff1681526020019081526020015f205f8573ffffffffffffffffffffffffffffffffffffffff1673ffffffffffffffffffffffffffffffffffffffff1681526020019081526020015f2081905550801561166c578273ffffffffffffffffffffffffffffffffffffffff168473ffffffffffffffffffffffffffffffffffffffff167f8c5be1e5ebec7d5bd14f71427d1e84f3dd0314c0f7b2291e5b200ac8c7c3b925846040516116639190612b62565b60405180910390a35b50505050565b61167d838383611fc6565b505050565b5f7f8b73c3c69bb8fe3d512ecc4cf759cc79239f7b179b0ffacaa9a75d522b39400f7f00000000000000000000000000000000000000000000000000000000000000007f000000000000000000000000000000000000000000000000000000000000000046306040516020016116fc9594939291906134a6565b60405160208183030381529060405280519060200120905090565b5f808203611727575f9050611808565b5f600161173384612074565b901c6001901b9050600181848161174d5761174c6134f7565b5b048201901c90506001818481611766576117656134f7565b5b048201901c9050600181848161177f5761177e6134f7565b5b048201901c90506001818481611798576117976134f7565b5b048201901c905060018184816117b1576117b06134f7565b5b048201901c905060018184816117ca576117c96134f7565b5b048201901c905060018184816117e3576117e26134f7565b5b048201901c9050611804818285816117fe576117fd6134f7565b5b0461214b565b9150505b919050565b5f825f528160205f2001905092915050565b5f5b81831015611889575f6118348484612163565b90508465ffffffffffff16611849878361180d565b5f015f9054906101000a900465ffffffffffff1665ffffffffffff16111561187357809250611883565b600181611880919061344c565b93505b50611821565b819050949350505050565b5f61189e826107d1565b9050919050565b8173ffffffffffffffffffffffffffffffffffffffff168373ffffffffffffffffffffffffffffffffffffffff16141580156118e057505f81115b15611b10575f73ffffffffffffffffffffffffffffffffffffffff168373ffffffffffffffffffffffffffffffffffffffff16146119fa575f8061196b60095f8773ffffffffffffffffffffffffffffffffffffffff1673ffffffffffffffffffffffffffffffffffffffff1681526020019081526020015f20610d4a61196686612188565b6121f5565b79ffffffffffffffffffffffffffffffffffffffffffffffffffff16915079ffffffffffffffffffffffffffffffffffffffffffffffffffff1691508473ffffffffffffffffffffffffffffffffffffffff167fdec2bacdd2f05b59de34da9b523dff8be42e5e38e818c82fdb0bae774387a72483836040516119ef929190613524565b60405180910390a250505b5f73ffffffffffffffffffffffffffffffffffffffff168273ffffffffffffffffffffffffffffffffffffffff1614611b0f575f80611a8060095f8673ffffffffffffffffffffffffffffffffffffffff1673ffffffffffffffffffffffffffffffffffffffff1681526020019081526020015f20610d35611a7b86612188565b6121f5565b79ffffffffffffffffffffffffffffffffffffffffffffffffffff16915079ffffffffffffffffffffffffffffffffffffffffffffffffffff1691508373ffffffffffffffffffffffffffffffffffffffff167fdec2bacdd2f05b59de34da9b523dff8be42e5e38e818c82fdb0bae774387a7248383604051611b04929190613524565b60405180910390a250505b5b505050565b5f815f01805490509050919050565b5f63ffffffff8016821115611b73576020826040517f6dfcc650000000000000000000000000000000000000000000000000000000008152600401611b6a929190613584565b60405180910390fd5b819050919050565b5f60075f8373ffffffffffffffffffffffffffffffffffffffff1673ffffffffffffffffffffffffffffffffffffffff1681526020019081526020015f20549050919050565b606060ff5f1b8314611bdd57611bd683612234565b9050611c68565b818054611be990613167565b80601f0160208091040260200160405190810160405280929190818152602001828054611c1590613167565b8015611c605780601f10611c3757610100808354040283529160200191611c60565b820191905f5260205f20905b815481529060010190602001808311611c4357829003601f168201915b505050505090505b92915050565b5f6040517f190100000000000000000000000000000000000000000000000000000000000081528360028201528260228201526042812091505092915050565b5f805f7f7fffffffffffffffffffffffffffffff5d576e7357a4501ddfe92f46681b20a0845f1c1115611cea575f600385925092509250611d8b565b5f6001888888886040515f8152602001604052604051611d0d94939291906135ab565b6020604051602081039080840390855afa158015611d2d573d5f803e3d5ffd5b5050506020604051035190505f73ffffffffffffffffffffffffffffffffffffffff168173ffffffffffffffffffffffffffffffffffffffff1603611d7e575f60015f801b93509350935050611d8b565b805f805f1b935093509350505b9450945094915050565b5f6003811115611da857611da76135ee565b5b826003811115611dbb57611dba6135ee565b5b0315611ef35760016003811115611dd557611dd46135ee565b5b826003811115611de857611de76135ee565b5b03611e1f576040517ff645eedf00000000000000000000000000000000000000000000000000000000815260040160405180910390fd5b60026003811115611e3357611e326135ee565b5b826003811115611e4657611e456135ee565b5b03611e8a57805f1c6040517ffce698f7000000000000000000000000000000000000000000000000000000008152600401611e819190612b62565b60405180910390fd5b600380811115611e9d57611e9c6135ee565b5b826003811115611eb057611eaf6135ee565b5b03611ef257806040517fd78bce0c000000000000000000000000000000000000000000000000000000008152600401611ee99190612c17565b60405180910390fd5b5b5050565b611eff61296b565b825f018263ffffffff1681548110611f1a57611f1961361b565b5b905f5260205f20016040518060400160405290815f82015f9054906101000a900465ffffffffffff1665ffffffffffff1665ffffffffffff1681526020015f820160069054906101000a900479ffffffffffffffffffffffffffffffffffffffffffffffffffff1679ffffffffffffffffffffffffffffffffffffffffffffffffffff1679ffffffffffffffffffffffffffffffffffffffffffffffffffff1681525050905092915050565b611fd18383836122a6565b5f73ffffffffffffffffffffffffffffffffffffffff168373ffffffffffffffffffffffffffffffffffffffff1603612064575f61200d61058b565b90505f6120186124bf565b9050808211156120615781816040517f1cb15d26000000000000000000000000000000000000000000000000000000008152600401612058929190613524565b60405180910390fd5b50505b61206f8383836124e2565b505050565b5f805f90505f608084901c111561209357608083901c92506080810190505b5f604084901c11156120ad57604083901c92506040810190505b5f602084901c11156120c757602083901c92506020810190505b5f601084901c11156120e157601083901c92506010810190505b5f600884901c11156120fb57600883901c92506008810190505b5f600484901c111561211557600483901c92506004810190505b5f600284901c111561212f57600283901c92506002810190505b5f600184901c1115612142576001810190505b80915050919050565b5f818310612159578161215b565b825b905092915050565b5f60028284186121739190613648565b828416612180919061344c565b905092915050565b5f79ffffffffffffffffffffffffffffffffffffffffffffffffffff80168211156121ed5760d0826040517f6dfcc6500000000000000000000000000000000000000000000000000000000081526004016121e49291906136b1565b60405180910390fd5b819050919050565b5f80612228612202610966565b61221861220e886112f1565b868863ffffffff16565b8761259a9092919063ffffffff16565b91509150935093915050565b60605f612240836125b5565b90505f602067ffffffffffffffff81111561225e5761225d6131be565b5b6040519080825280601f01601f1916602001820160405280156122905781602001600182028036833780820191505090505b5090508181528360208201528092505050919050565b5f73ffffffffffffffffffffffffffffffffffffffff168373ffffffffffffffffffffffffffffffffffffffff16036122f6578060025f8282546122ea919061344c565b925050819055506123c4565b5f805f8573ffffffffffffffffffffffffffffffffffffffff1673ffffffffffffffffffffffffffffffffffffffff1681526020019081526020015f205490508181101561237f578381836040517fe450d38c0000000000000000000000000000000000000000000000000000000081526004016123769392919061337b565b60405180910390fd5b8181035f808673ffffffffffffffffffffffffffffffffffffffff1673ffffffffffffffffffffffffffffffffffffffff1681526020019081526020015f2081905550505b5f73ffffffffffffffffffffffffffffffffffffffff168273ffffffffffffffffffffffffffffffffffffffff160361240b578060025f8282540392505081905550612455565b805f808473ffffffffffffffffffffffffffffffffffffffff1673ffffffffffffffffffffffffffffffffffffffff1681526020019081526020015f205f82825401925050819055505b8173ffffffffffffffffffffffffffffffffffffffff168373ffffffffffffffffffffffffffffffffffffffff167fddf252ad1be2c89b69c2b068fc378daa952ba7f163c4a11628f55a4df523b3ef836040516124b29190612b62565b60405180910390a3505050565b5f79ffffffffffffffffffffffffffffffffffffffffffffffffffff8016905090565b5f73ffffffffffffffffffffffffffffffffffffffff168373ffffffffffffffffffffffffffffffffffffffff160361252e5761252b600a610d3561252684612188565b6121f5565b50505b5f73ffffffffffffffffffffffffffffffffffffffff168273ffffffffffffffffffffffffffffffffffffffff160361257a57612577600a610d4a61257284612188565b6121f5565b50505b61259561258684610742565b61258f84610742565b836118a5565b505050565b5f806125a9855f018585612603565b91509150935093915050565b5f8060ff835f1c169050601f8111156125fa576040517fb3512b0c00000000000000000000000000000000000000000000000000000000815260040160405180910390fd5b80915050919050565b5f805f858054905090505f811115612883575f61262c876001846126279190613419565b61180d565b6040518060400160405290815f82015f9054906101000a900465ffffffffffff1665ffffffffffff1665ffffffffffff1681526020015f820160069054906101000a900479ffffffffffffffffffffffffffffffffffffffffffffffffffff1679ffffffffffffffffffffffffffffffffffffffffffffffffffff1679ffffffffffffffffffffffffffffffffffffffffffffffffffff168152505090508565ffffffffffff16815f015165ffffffffffff161115612717576040517f2520601d00000000000000000000000000000000000000000000000000000000815260040160405180910390fd5b8565ffffffffffff16815f015165ffffffffffff16036127995784612748886001856127439190613419565b61180d565b5f0160066101000a81548179ffffffffffffffffffffffffffffffffffffffffffffffffffff021916908379ffffffffffffffffffffffffffffffffffffffffffffffffffff160217905550612872565b8660405180604001604052808865ffffffffffff1681526020018779ffffffffffffffffffffffffffffffffffffffffffffffffffff16815250908060018154018082558091505060019003905f5260205f20015f909190919091505f820151815f015f6101000a81548165ffffffffffff021916908365ffffffffffff1602179055506020820151815f0160066101000a81548179ffffffffffffffffffffffffffffffffffffffffffffffffffff021916908379ffffffffffffffffffffffffffffffffffffffffffffffffffff16021790555050505b806020015185935093505050612963565b8560405180604001604052808765ffffffffffff1681526020018679ffffffffffffffffffffffffffffffffffffffffffffffffffff16815250908060018154018082558091505060019003905f5260205f20015f909190919091505f820151815f015f6101000a81548165ffffffffffff021916908365ffffffffffff1602179055506020820151815f0160066101000a81548179ffffffffffffffffffffffffffffffffffffffffffffffffffff021916908379ffffffffffffffffffffffffffffffffffffffffffffffffffff16021790555050505f8492509250505b935093915050565b60405180604001604052805f65ffffffffffff1681526020015f79ffffffffffffffffffffffffffffffffffffffffffffffffffff1681525090565b5f81519050919050565b5f82825260208201905092915050565b5f5b838110156129de5780820151818401526020810190506129c3565b5f8484015250505050565b5f601f19601f8301169050919050565b5f612a03826129a7565b612a0d81856129b1565b9350612a1d8185602086016129c1565b612a26816129e9565b840191505092915050565b5f6020820190508181035f830152612a4981846129f9565b905092915050565b5f80fd5b5f73ffffffffffffffffffffffffffffffffffffffff82169050919050565b5f612a7e82612a55565b9050919050565b612a8e81612a74565b8114612a98575f80fd5b50565b5f81359050612aa981612a85565b92915050565b5f819050919050565b612ac181612aaf565b8114612acb575f80fd5b50565b5f81359050612adc81612ab8565b92915050565b5f8060408385031215612af857612af7612a51565b5b5f612b0585828601612a9b565b9250506020612b1685828601612ace565b9150509250929050565b5f8115159050919050565b612b3481612b20565b82525050565b5f602082019050612b4d5f830184612b2b565b92915050565b612b5c81612aaf565b82525050565b5f602082019050612b755f830184612b53565b92915050565b5f805f60608486031215612b9257612b91612a51565b5b5f612b9f86828701612a9b565b9350506020612bb086828701612a9b565b9250506040612bc186828701612ace565b9150509250925092565b5f60ff82169050919050565b612be081612bcb565b82525050565b5f602082019050612bf95f830184612bd7565b92915050565b5f819050919050565b612c1181612bff565b82525050565b5f602082019050612c2a5f830184612c08565b92915050565b5f60208284031215612c4557612c44612a51565b5b5f612c5284828501612a9b565b91505092915050565b612c6481612a74565b82525050565b5f602082019050612c7d5f830184612c5b565b92915050565b5f63ffffffff82169050919050565b612c9b81612c83565b82525050565b5f602082019050612cb45f830184612c92565b92915050565b5f7fff0000000000000000000000000000000000000000000000000000000000000082169050919050565b612cee81612cba565b82525050565b5f81519050919050565b5f82825260208201905092915050565b5f819050602082019050919050565b612d2681612aaf565b82525050565b5f612d378383612d1d565b60208301905092915050565b5f602082019050919050565b5f612d5982612cf4565b612d638185612cfe565b9350612d6e83612d0e565b805f5b83811015612d9e578151612d858882612d2c565b9750612d9083612d43565b925050600181019050612d71565b5085935050505092915050565b5f60e082019050612dbe5f83018a612ce5565b8181036020830152612dd081896129f9565b90508181036040830152612de481886129f9565b9050612df36060830187612b53565b612e006080830186612c5b565b612e0d60a0830185612c08565b81810360c0830152612e1f8184612d4f565b905098975050505050505050565b5f60208284031215612e4257612e41612a51565b5b5f612e4f84828501612ace565b91505092915050565b5f65ffffffffffff82169050919050565b612e7281612e58565b82525050565b5f602082019050612e8b5f830184612e69565b92915050565b612e9a81612bcb565b8114612ea4575f80fd5b50565b5f81359050612eb581612e91565b92915050565b612ec481612bff565b8114612ece575f80fd5b50565b5f81359050612edf81612ebb565b92915050565b5f805f805f8060c08789031215612eff57612efe612a51565b5b5f612f0c89828a01612a9b565b9650506020612f1d89828a01612ace565b9550506040612f2e89828a01612ace565b9450506060612f3f89828a01612ea7565b9350506080612f5089828a01612ed1565b92505060a0612f6189828a01612ed1565b9150509295509295509295565b5f805f805f805f60e0888a031215612f8957612f88612a51565b5b5f612f968a828b01612a9b565b9750506020612fa78a828b01612a9b565b9650506040612fb88a828b01612ace565b9550506060612fc98a828b01612ace565b9450506080612fda8a828b01612ea7565b93505060a0612feb8a828b01612ed1565b92505060c0612ffc8a828b01612ed1565b91505092959891949750929550565b5f806040838503121561302157613020612a51565b5b5f61302e85828601612a9b565b925050602061303f85828601612a9b565b9150509250929050565b61305281612c83565b811461305c575f80fd5b50565b5f8135905061306d81613049565b92915050565b5f806040838503121561308957613088612a51565b5b5f61309685828601612a9b565b92505060206130a78582860161305f565b9150509250929050565b6130ba81612e58565b82525050565b5f79ffffffffffffffffffffffffffffffffffffffffffffffffffff82169050919050565b6130ee816130c0565b82525050565b604082015f8201516131085f8501826130b1565b50602082015161311b60208501826130e5565b50505050565b5f6040820190506131345f8301846130f4565b92915050565b7f4e487b71000000000000000000000000000000000000000000000000000000005f52602260045260245ffd5b5f600282049050600182168061317e57607f821691505b6020821081036131915761319061313a565b5b50919050565b5f6040820190506131aa5f830185612b53565b6131b76020830184612e69565b9392505050565b7f4e487b71000000000000000000000000000000000000000000000000000000005f52604160045260245ffd5b5f6080820190506131fe5f830187612c08565b61320b6020830186612c5b565b6132186040830185612b53565b6132256060830184612b53565b95945050505050565b5f60c0820190506132415f830189612c08565b61324e6020830188612c5b565b61325b6040830187612c5b565b6132686060830186612b53565b6132756080830185612b53565b61328260a0830184612b53565b979650505050505050565b5f6040820190506132a05f830185612c5b565b6132ad6020830184612c5b565b9392505050565b7f4e487b71000000000000000000000000000000000000000000000000000000005f52601160045260245ffd5b5f6132eb826130c0565b91506132f6836130c0565b9250828201905079ffffffffffffffffffffffffffffffffffffffffffffffffffff811115613328576133276132b4565b5b92915050565b5f613338826130c0565b9150613343836130c0565b9250828203905079ffffffffffffffffffffffffffffffffffffffffffffffffffff811115613375576133746132b4565b5b92915050565b5f60608201905061338e5f830186612c5b565b61339b6020830185612b53565b6133a86040830184612b53565b949350505050565b5f819050919050565b5f819050919050565b5f6133dc6133d76133d2846133b0565b6133b9565b612bcb565b9050919050565b6133ec816133c2565b82525050565b5f6040820190506134055f8301856133e3565b6134126020830184612b53565b9392505050565b5f61342382612aaf565b915061342e83612aaf565b9250828203905081811115613446576134456132b4565b5b92915050565b5f61345682612aaf565b915061346183612aaf565b9250828201905080821115613479576134786132b4565b5b92915050565b5f6040820190506134925f830185612c5b565b61349f6020830184612b53565b9392505050565b5f60a0820190506134b95f830188612c08565b6134c66020830187612c08565b6134d36040830186612c08565b6134e06060830185612b53565b6134ed6080830184612c5b565b9695505050505050565b7f4e487b71000000000000000000000000000000000000000000000000000000005f52601260045260245ffd5b5f6040820190506135375f830185612b53565b6135446020830184612b53565b9392505050565b5f819050919050565b5f61356e6135696135648461354b565b6133b9565b612bcb565b9050919050565b61357e81613554565b82525050565b5f6040820190506135975f830185613575565b6135a46020830184612b53565b9392505050565b5f6080820190506135be5f830187612c08565b6135cb6020830186612bd7565b6135d86040830185612c08565b6135e56060830184612c08565b95945050505050565b7f4e487b71000000000000000000000000000000000000000000000000000000005f52602160045260245ffd5b7f4e487b71000000000000000000000000000000000000000000000000000000005f52603260045260245ffd5b5f61365282612aaf565b915061365d83612aaf565b92508261366d5761366c6134f7565b5b828204905092915050565b5f819050919050565b5f61369b61369661369184613678565b6133b9565b612bcb565b9050919050565b6136ab81613681565b82525050565b5f6040820190506136c45f8301856136a2565b6136d16020830184612b53565b939250505056fea2646970667358221220b3b23d39ed635e8810d1d0f423ea4d1e31c6d6197799d69d29f0a8b8a2a2280764736f6c63430008160033",
    "opcodes": "PUSH1 0x80 PUSH1 0x40 MSTORE CALLVALUE DUP1 ISZERO PUSH2 0xF JUMPI PUSH0 DUP1 REVERT JUMPDEST POP PUSH1 0x4 CALLDATASIZE LT PUSH2 0x14B JUMPI PUSH0 CALLDATALOAD PUSH1 0xE0 SHR DUP1 PUSH4 0x70A08231 GT PUSH2 0xC1 JUMPI DUP1 PUSH4 0x9AB24EB0 GT PUSH2 0x7A JUMPI DUP1 PUSH4 0x9AB24EB0 EQ PUSH2 0x3E1 JUMPI DUP1 PUSH4 0xA9059CBB EQ PUSH2 0x411 JUMPI DUP1 PUSH4 0xC3CDA520 EQ PUSH2 0x441 JUMPI DUP1 PUSH4 0xD505ACCF EQ PUSH2 0x45D JUMPI DUP1 PUSH4 0xDD62ED3E EQ PUSH2 0x479 JUMPI DUP1 PUSH4 0xF1127ED8 EQ PUSH2 0x4A9 JUMPI PUSH2 0x14B JUMP JUMPDEST DUP1 PUSH4 0x70A08231 EQ PUSH2 0x2F1 JUMPI DUP1 PUSH4 0x7ECEBE00 EQ PUSH2 0x321 JUMPI DUP1 PUSH4 0x84B0196E EQ PUSH2 0x351 JUMPI DUP1 PUSH4 0x8E539E8C EQ PUSH2 0x375 JUMPI DUP1 PUSH4 0x91DDADF4 EQ PUSH2 0x3A5 JUMPI DUP1 PUSH4 0x95D89B41 EQ PUSH2 0x3C3 JUMPI PUSH2 0x14B JUMP JUMPDEST DUP1 PUSH4 0x3644E515 GT PUSH2 0x113 JUMPI DUP1 PUSH4 0x3644E515 EQ PUSH2 0x209 JUMPI DUP1 PUSH4 0x3A46B1A8 EQ PUSH2 0x227 JUMPI DUP1 PUSH4 0x4BF5D7E9 EQ PUSH2 0x257 JUMPI DUP1 PUSH4 0x587CDE1E EQ PUSH2 0x275 JUMPI DUP1 PUSH4 0x5C19A95C EQ PUSH2 0x2A5 JUMPI DUP1 PUSH4 0x6FCFFF45 EQ PUSH2 0x2C1 JUMPI PUSH2 0x14B JUMP JUMPDEST DUP1 PUSH4 0x6FDDE03 EQ PUSH2 0x14F JUMPI DUP1 PUSH4 0x95EA7B3 EQ PUSH2 0x16D JUMPI DUP1 PUSH4 0x18160DDD EQ PUSH2 0x19D JUMPI DUP1 PUSH4 0x23B872DD EQ PUSH2 0x1BB JUMPI DUP1 PUSH4 0x313CE567 EQ PUSH2 0x1EB JUMPI JUMPDEST PUSH0 DUP1 REVERT JUMPDEST PUSH2 0x157 PUSH2 0x4D9 JUMP JUMPDEST PUSH1 0x40 MLOAD PUSH2 0x164 SWAP2 SWAP1 PUSH2 0x2A31 JUMP JUMPDEST PUSH1 0x40 MLOAD DUP1 SWAP2 SUB SWAP1 RETURN JUMPDEST PUSH2 0x187 PUSH1 0x4 DUP1 CALLDATASIZE SUB DUP2 ADD SWAP1 PUSH2 0x182 SWAP2 SWAP1 PUSH2 0x2AE2 JUMP JUMPDEST PUSH2 0x569 JUMP JUMPDEST PUSH1 0x40 MLOAD PUSH2 0x194 SWAP2 SWAP1 PUSH2 0x2B3A JUMP JUMPDEST PUSH1 0x40 MLOAD DUP1 SWAP2 SUB SWAP1 RETURN JUMPDEST PUSH2 0x1A5 PUSH2 0x58B JUMP JUMPDEST PUSH1 0x40 MLOAD PUSH2 0x1B2 SWAP2 SWAP1 PUSH2 0x2B62 JUMP JUMPDEST PUSH1 0x40 MLOAD DUP1 SWAP2 SUB SWAP1 RETURN JUMPDEST PUSH2 0x1D5 PUSH1 0x4 DUP1 CALLDATASIZE SUB DUP2 ADD SWAP1 PUSH2 0x1D0 SWAP2 SWAP1 PUSH2 0x2B7B JUMP JUMPDEST PUSH2 0x594 JUMP JUMPDEST PUSH1 0x40 MLOAD PUSH2 0x1E2 SWAP2 SWAP1 PUSH2 0x2B3A JUMP JUMPDEST PUSH1 0x40 MLOAD DUP1 SWAP2 SUB SWAP1 RETURN JUMPDEST PUSH2 0x1F3 PUSH2 0x5C2 JUMP JUMPDEST PUSH1 0x40 MLOAD PUSH2 0x200 SWAP2 SWAP1 PUSH2 0x2BE6 JUMP JUMPDEST PUSH1 0x40 MLOAD DUP1 SWAP2 SUB SWAP1 RETURN JUMPDEST PUSH2 0x211 PUSH2 0x5CA JUMP JUMPDEST PUSH1 0x40 MLOAD PUSH2 0x21E SWAP2 SWAP1 PUSH2 0x2C17 JUMP JUMPDEST PUSH1 0x40 MLOAD DUP1 SWAP2 SUB SWAP1 RETURN JUMPDEST PUSH2 0x241 PUSH1 0x4 DUP1 CALLDATASIZE SUB DUP2 ADD SWAP1 PUSH2 0x23C SWAP2 SWAP1 PUSH2 0x2AE2 JUMP JUMPDEST PUSH2 0x5D8 JUMP JUMPDEST PUSH1 0x40 MLOAD PUSH2 0x24E SWAP2 SWAP1 PUSH2 0x2B62 JUMP JUMPDEST PUSH1 0x40 MLOAD DUP1 SWAP2 SUB SWAP1 RETURN JUMPDEST PUSH2 0x25F PUSH2 0x6AE JUMP JUMPDEST PUSH1 0x40 MLOAD PUSH2 0x26C SWAP2 SWAP1 PUSH2 0x2A31 JUMP JUMPDEST PUSH1 0x40 MLOAD DUP1 SWAP2 SUB SWAP1 RETURN JUMPDEST PUSH2 0x28F PUSH1 0x4 DUP1 CALLDATASIZE SUB DUP2 ADD SWAP1 PUSH2 0x28A SWAP2 SWAP1 PUSH2 0x2C30 JUMP JUMPDEST PUSH2 0x742 JUMP JUMPDEST PUSH1 0x40 MLOAD PUSH2 0x29C SWAP2 SWAP1 PUSH2 0x2C6A JUMP JUMPDEST PUSH1 0x40 MLOAD DUP1 SWAP2 SUB SWAP1 RETURN JUMPDEST PUSH2 0x2BF PUSH1 0x4 DUP1 CALLDATASIZE SUB DUP2 ADD SWAP1 PUSH2 0x2BA SWAP2 SWAP1 PUSH2 0x2C30 JUMP JUMPDEST PUSH2 0x7A7 JUMP JUMPDEST STOP JUMPDEST PUSH2 0x2DB PUSH1 0x4 DUP1 CALLDATASIZE SUB DUP2 ADD SWAP1 PUSH2 0x2D6 SWAP2 SWAP1 PUSH2 0x2C30 JUMP JUMPDEST PUSH2 0x7C0 JUMP JUMPDEST PUSH1 0x40 MLOAD PUSH2 0x2E8 SWAP2 SWAP1 PUSH2 0x2CA1 JUMP JUMPDEST PUSH1 0x40 MLOAD DUP1 SWAP2 SUB SWAP1 RETURN JUMPDEST PUSH2 0x30B PUSH1 0x4 DUP1 CALLDATASIZE SUB DUP2 ADD SWAP1 PUSH2 0x306 SWAP2 SWAP1 PUSH2 0x2C30 JUMP JUMPDEST PUSH2 0x7D1 JUMP JUMPDEST PUSH1 0x40 MLOAD PUSH2 0x318 SWAP2 SWAP1 PUSH2 0x2B62 JUMP JUMPDEST PUSH1 0x40 MLOAD DUP1 SWAP2 SUB SWAP1 RETURN JUMPDEST PUSH2 0x33B PUSH1 0x4 DUP1 CALLDATASIZE SUB DUP2 ADD SWAP1 PUSH2 0x336 SWAP2 SWAP1 PUSH2 0x2C30 JUMP JUMPDEST PUSH2 0x816 JUMP JUMPDEST PUSH1 0x40 MLOAD PUSH2 0x348 SWAP2 SWAP1 PUSH2 0x2B62 JUMP JUMPDEST PUSH1 0x40 MLOAD DUP1 SWAP2 SUB SWAP1 RETURN JUMPDEST PUSH2 0x359 PUSH2 0x827 JUMP JUMPDEST PUSH1 0x40 MLOAD PUSH2 0x36C SWAP8 SWAP7 SWAP6 SWAP5 SWAP4 SWAP3 SWAP2 SWAP1 PUSH2 0x2DAB JUMP JUMPDEST PUSH1 0x40 MLOAD DUP1 SWAP2 SUB SWAP1 RETURN JUMPDEST PUSH2 0x38F PUSH1 0x4 DUP1 CALLDATASIZE SUB DUP2 ADD SWAP1 PUSH2 0x38A SWAP2 SWAP1 PUSH2 0x2E2D JUMP JUMPDEST PUSH2 0x8CC JUMP JUMPDEST PUSH1 0x40 MLOAD PUSH2 0x39C SWAP2 SWAP1 PUSH2 0x2B62 JUMP JUMPDEST PUSH1 0x40 MLOAD DUP1 SWAP2 SUB SWAP1 RETURN JUMPDEST PUSH2 0x3AD PUSH2 0x966 JUMP JUMPDEST PUSH1 0x40 MLOAD PUSH2 0x3BA SWAP2 SWAP1 PUSH2 0x2E78 JUMP JUMPDEST PUSH1 0x40 MLOAD DUP1 SWAP2 SUB SWAP1 RETURN JUMPDEST PUSH2 0x3CB PUSH2 0x974 JUMP JUMPDEST PUSH1 0x40 MLOAD PUSH2 0x3D8 SWAP2 SWAP1 PUSH2 0x2A31 JUMP JUMPDEST PUSH1 0x40 MLOAD DUP1 SWAP2 SUB SWAP1 RETURN JUMPDEST PUSH2 0x3FB PUSH1 0x4 DUP1 CALLDATASIZE SUB DUP2 ADD SWAP1 PUSH2 0x3F6 SWAP2 SWAP1 PUSH2 0x2C30 JUMP JUMPDEST PUSH2 0xA04 JUMP JUMPDEST PUSH1 0x40 MLOAD PUSH2 0x408 SWAP2 SWAP1 PUSH2 0x2B62 JUMP JUMPDEST PUSH1 0x40 MLOAD DUP1 SWAP2 SUB SWAP1 RETURN JUMPDEST PUSH2 0x42B PUSH1 0x4 DUP1 CALLDATASIZE SUB DUP2 ADD SWAP1 PUSH2 0x426 SWAP2 SWAP1 PUSH2 0x2AE2 JUMP JUMPDEST PUSH2 0xA6D JUMP JUMPDEST PUSH1 0x40 MLOAD PUSH2 0x438 SWAP2 SWAP1 PUSH2 0x2B3A JUMP JUMPDEST PUSH1 0x40 MLOAD DUP1 SWAP2 SUB SWAP1 RETURN JUMPDEST PUSH2 0x45B PUSH1 0x4 DUP1 CALLDATASIZE SUB DUP2 ADD SWAP1 PUSH2 0x456 SWAP2 SWAP1 PUSH2 0x2EE5 JUMP JUMPDEST PUSH2 0xA8F JUMP JUMPDEST STOP JUMPDEST PUSH2 0x477 PUSH1 0x4 DUP1 CALLDATASIZE SUB DUP2 ADD SWAP1 PUSH2 0x472 SWAP2 SWAP1 PUSH2 0x2F6E JUMP JUMPDEST PUSH2 0xB54 JUMP JUMPDEST STOP JUMPDEST PUSH2 0x493 PUSH1 0x4 DUP1 CALLDATASIZE SUB DUP2 ADD SWAP1 PUSH2 0x48E SWAP2 SWAP1 PUSH2 0x300B JUMP JUMPDEST PUSH2 0xC99 JUMP JUMPDEST PUSH1 0x40 MLOAD PUSH2 0x4A0 SWAP2 SWAP1 PUSH2 0x2B62 JUMP JUMPDEST PUSH1 0x40 MLOAD DUP1 SWAP2 SUB SWAP1 RETURN JUMPDEST PUSH2 0x4C3 PUSH1 0x4 DUP1 CALLDATASIZE SUB DUP2 ADD SWAP1 PUSH2 0x4BE SWAP2 SWAP1 PUSH2 0x3073 JUMP JUMPDEST PUSH2 0xD1B JUMP JUMPDEST PUSH1 0x40 MLOAD PUSH2 0x4D0 SWAP2 SWAP1 PUSH2 0x3121 JUMP JUMPDEST PUSH1 0x40 MLOAD DUP1 SWAP2 SUB SWAP1 RETURN JUMPDEST PUSH1 0x60 PUSH1 0x3 DUP1 SLOAD PUSH2 0x4E8 SWAP1 PUSH2 0x3167 JUMP JUMPDEST DUP1 PUSH1 0x1F ADD PUSH1 0x20 DUP1 SWAP2 DIV MUL PUSH1 0x20 ADD PUSH1 0x40 MLOAD SWAP1 DUP2 ADD PUSH1 0x40 MSTORE DUP1 SWAP3 SWAP2 SWAP1 DUP2 DUP2 MSTORE PUSH1 0x20 ADD DUP3 DUP1 SLOAD PUSH2 0x514 SWAP1 PUSH2 0x3167 JUMP JUMPDEST DUP1 ISZERO PUSH2 0x55F JUMPI DUP1 PUSH1 0x1F LT PUSH2 0x536 JUMPI PUSH2 0x100 DUP1 DUP4 SLOAD DIV MUL DUP4 MSTORE SWAP2 PUSH1 0x20 ADD SWAP2 PUSH2 0x55F JUMP JUMPDEST DUP3 ADD SWAP2 SWAP1 PUSH0 MSTORE PUSH1 0x20 PUSH0 KECCAK256 SWAP1 JUMPDEST DUP2 SLOAD DUP2 MSTORE SWAP1 PUSH1 0x1 ADD SWAP1 PUSH1 0x20 ADD DUP1 DUP4 GT PUSH2 0x542 JUMPI DUP3 SWAP1 SUB PUSH1 0x1F AND DUP3 ADD SWAP2 JUMPDEST POP POP POP POP POP SWAP1 POP SWAP1 JUMP JUMPDEST PUSH0 DUP1 PUSH2 0x573 PUSH2 0xD5F JUMP JUMPDEST SWAP1 POP PUSH2 0x580 DUP2 DUP6 DUP6 PUSH2 0xD66 JUMP JUMPDEST PUSH1 0x1 SWAP2 POP POP SWAP3 SWAP2 POP POP JUMP JUMPDEST PUSH0 PUSH1 0x2 SLOAD SWAP1 POP SWAP1 JUMP JUMPDEST PUSH0 DUP1 PUSH2 0x59E PUSH2 0xD5F JUMP JUMPDEST SWAP1 POP PUSH2 0x5AB DUP6 DUP3 DUP6 PUSH2 0xD78 JUMP JUMPDEST PUSH2 0x5B6 DUP6 DUP6 DUP6 PUSH2 0xE0A JUMP JUMPDEST PUSH1 0x1 SWAP2 POP POP SWAP4 SWAP3 POP POP POP JUMP JUMPDEST PUSH0 PUSH1 0x12 SWAP1 POP SWAP1 JUMP JUMPDEST PUSH0 PUSH2 0x5D3 PUSH2 0xEFA JUMP JUMPDEST SWAP1 POP SWAP1 JUMP JUMPDEST PUSH0 DUP1 PUSH2 0x5E2 PUSH2 0x966 JUMP JUMPDEST SWAP1 POP DUP1 PUSH6 0xFFFFFFFFFFFF AND DUP4 LT PUSH2 0x632 JUMPI DUP3 DUP2 PUSH1 0x40 MLOAD PUSH32 0xECD3F81E00000000000000000000000000000000000000000000000000000000 DUP2 MSTORE PUSH1 0x4 ADD PUSH2 0x629 SWAP3 SWAP2 SWAP1 PUSH2 0x3197 JUMP JUMPDEST PUSH1 0x40 MLOAD DUP1 SWAP2 SUB SWAP1 REVERT JUMPDEST PUSH2 0x689 PUSH2 0x63E DUP5 PUSH2 0xFB0 JUMP JUMPDEST PUSH1 0x9 PUSH0 DUP8 PUSH20 0xFFFFFFFFFFFFFFFFFFFFFFFFFFFFFFFFFFFFFFFF AND PUSH20 0xFFFFFFFFFFFFFFFFFFFFFFFFFFFFFFFFFFFFFFFF AND DUP2 MSTORE PUSH1 0x20 ADD SWAP1 DUP2 MSTORE PUSH1 0x20 ADD PUSH0 KECCAK256 PUSH2 0x1009 SWAP1 SWAP2 SWAP1 PUSH4 0xFFFFFFFF AND JUMP JUMPDEST PUSH26 0xFFFFFFFFFFFFFFFFFFFFFFFFFFFFFFFFFFFFFFFFFFFFFFFFFFFF AND SWAP2 POP POP SWAP3 SWAP2 POP POP JUMP JUMPDEST PUSH1 0x60 PUSH2 0x6B8 PUSH2 0x10F6 JUMP JUMPDEST PUSH6 0xFFFFFFFFFFFF AND PUSH2 0x6C8 PUSH2 0x966 JUMP JUMPDEST PUSH6 0xFFFFFFFFFFFF AND EQ PUSH2 0x707 JUMPI PUSH1 0x40 MLOAD PUSH32 0x6FF0714000000000000000000000000000000000000000000000000000000000 DUP2 MSTORE PUSH1 0x4 ADD PUSH1 0x40 MLOAD DUP1 SWAP2 SUB SWAP1 REVERT JUMPDEST PUSH1 0x40 MLOAD DUP1 PUSH1 0x40 ADD PUSH1 0x40 MSTORE DUP1 PUSH1 0x1D DUP2 MSTORE PUSH1 0x20 ADD PUSH32 0x6D6F64653D626C6F636B6E756D6265722666726F6D3D64656661756C74000000 DUP2 MSTORE POP SWAP1 POP SWAP1 JUMP JUMPDEST PUSH0 PUSH1 0x8 PUSH0 DUP4 PUSH20 0xFFFFFFFFFFFFFFFFFFFFFFFFFFFFFFFFFFFFFFFF AND PUSH20 0xFFFFFFFFFFFFFFFFFFFFFFFFFFFFFFFFFFFFFFFF AND DUP2 MSTORE PUSH1 0x20 ADD SWAP1 DUP2 MSTORE PUSH1 0x20 ADD PUSH0 KECCAK256 PUSH0 SWAP1 SLOAD SWAP1 PUSH2 0x100 EXP SWAP1 DIV PUSH20 0xFFFFFFFFFFFFFFFFFFFFFFFFFFFFFFFFFFFFFFFF AND SWAP1 POP SWAP2 SWAP1 POP JUMP JUMPDEST PUSH0 PUSH2 0x7B0 PUSH2 0xD5F JUMP JUMPDEST SWAP1 POP PUSH2 0x7BC DUP2 DUP4 PUSH2 0x1105 JUMP JUMPDEST POP POP JUMP JUMPDEST PUSH0 PUSH2 0x7CA DUP3 PUSH2 0x1215 JUMP JUMPDEST SWAP1 POP SWAP2 SWAP1 POP JUMP JUMPDEST PUSH0 DUP1 PUSH0 DUP4 PUSH20 0xFFFFFFFFFFFFFFFFFFFFFFFFFFFFFFFFFFFFFFFF AND PUSH20 0xFFFFFFFFFFFFFFFFFFFFFFFFFFFFFFFFFFFFFFFF AND DUP2 MSTORE PUSH1 0x20 ADD SWAP1 DUP2 MSTORE PUSH1 0x20 ADD PUSH0 KECCAK256 SLOAD SWAP1 POP SWAP2 SWAP1 POP JUMP JUMPDEST PUSH0 PUSH2 0x820 DUP3 PUSH2 0x126A JUMP JUMPDEST SWAP1 POP SWAP2 SWAP1 POP JUMP JUMPDEST PUSH0 PUSH1 0x60 DUP1 PUSH0 DUP1 PUSH0 PUSH1 0x60 PUSH2 0x838 PUSH2 0x127B JUMP JUMPDEST PUSH2 0x840 PUSH2 0x12B6 JUMP JUMPDEST CHAINID ADDRESS PUSH0 DUP1 SHL PUSH0 PUSH8 0xFFFFFFFFFFFFFFFF DUP2 GT ISZERO PUSH2 0x85F JUMPI PUSH2 0x85E PUSH2 0x31BE JUMP JUMPDEST JUMPDEST PUSH1 0x40 MLOAD SWAP1 DUP1 DUP3 MSTORE DUP1 PUSH1 0x20 MUL PUSH1 0x20 ADD DUP3 ADD PUSH1 0x40 MSTORE DUP1 ISZERO PUSH2 0x88D JUMPI DUP2 PUSH1 0x20 ADD PUSH1 0x20 DUP3 MUL DUP1 CALLDATASIZE DUP4 CALLDATACOPY DUP1 DUP3 ADD SWAP2 POP POP SWAP1 POP JUMPDEST POP PUSH32 0xF00000000000000000000000000000000000000000000000000000000000000 SWAP6 SWAP5 SWAP4 SWAP3 SWAP2 SWAP1 SWAP7 POP SWAP7 POP SWAP7 POP SWAP7 POP SWAP7 POP SWAP7 POP SWAP7 POP SWAP1 SWAP2 SWAP3 SWAP4 SWAP5 SWAP6 SWAP7 JUMP JUMPDEST PUSH0 DUP1 PUSH2 0x8D6 PUSH2 0x966 JUMP JUMPDEST SWAP1 POP DUP1 PUSH6 0xFFFFFFFFFFFF AND DUP4 LT PUSH2 0x926 JUMPI DUP3 DUP2 PUSH1 0x40 MLOAD PUSH32 0xECD3F81E00000000000000000000000000000000000000000000000000000000 DUP2 MSTORE PUSH1 0x4 ADD PUSH2 0x91D SWAP3 SWAP2 SWAP1 PUSH2 0x3197 JUMP JUMPDEST PUSH1 0x40 MLOAD DUP1 SWAP2 SUB SWAP1 REVERT JUMPDEST PUSH2 0x942 PUSH2 0x932 DUP5 PUSH2 0xFB0 JUMP JUMPDEST PUSH1 0xA PUSH2 0x1009 SWAP1 SWAP2 SWAP1 PUSH4 0xFFFFFFFF AND JUMP JUMPDEST PUSH26 0xFFFFFFFFFFFFFFFFFFFFFFFFFFFFFFFFFFFFFFFFFFFFFFFFFFFF AND SWAP2 POP POP SWAP2 SWAP1 POP JUMP JUMPDEST PUSH0 PUSH2 0x96F PUSH2 0x10F6 JUMP JUMPDEST SWAP1 POP SWAP1 JUMP JUMPDEST PUSH1 0x60 PUSH1 0x4 DUP1 SLOAD PUSH2 0x983 SWAP1 PUSH2 0x3167 JUMP JUMPDEST DUP1 PUSH1 0x1F ADD PUSH1 0x20 DUP1 SWAP2 DIV MUL PUSH1 0x20 ADD PUSH1 0x40 MLOAD SWAP1 DUP2 ADD PUSH1 0x40 MSTORE DUP1 SWAP3 SWAP2 SWAP1 DUP2 DUP2 MSTORE PUSH1 0x20 ADD DUP3 DUP1 SLOAD PUSH2 0x9AF SWAP1 PUSH2 0x3167 JUMP JUMPDEST DUP1 ISZERO PUSH2 0x9FA JUMPI DUP1 PUSH1 0x1F LT PUSH2 0x9D1 JUMPI PUSH2 0x100 DUP1 DUP4 SLOAD DIV MUL DUP4 MSTORE SWAP2 PUSH1 0x20 ADD SWAP2 PUSH2 0x9FA JUMP JUMPDEST DUP3 ADD SWAP2 SWAP1 PUSH0 MSTORE PUSH1 0x20 PUSH0 KECCAK256 SWAP1 JUMPDEST DUP2 SLOAD DUP2 MSTORE SWAP1 PUSH1 0x1 ADD SWAP1 PUSH1 0x20 ADD DUP1 DUP4 GT PUSH2 0x9DD JUMPI DUP3 SWAP1 SUB PUSH1 0x1F AND DUP3 ADD SWAP2 JUMPDEST POP POP POP POP POP SWAP1 POP SWAP1 JUMP JUMPDEST PUSH0 PUSH2 0xA4A PUSH1 0x9 PUSH0 DUP5 PUSH20 0xFFFFFFFFFFFFFFFFFFFFFFFFFFFFFFFFFFFFFFFF AND PUSH20 0xFFFFFFFFFFFFFFFFFFFFFFFFFFFFFFFFFFFFFFFF AND DUP2 MSTORE PUSH1 0x20 ADD SWAP1 DUP2 MSTORE PUSH1 0x20 ADD PUSH0 KECCAK256 PUSH2 0x12F1 JUMP JUMPDEST PUSH26 0xFFFFFFFFFFFFFFFFFFFFFFFFFFFFFFFFFFFFFFFFFFFFFFFFFFFF AND SWAP1 POP SWAP2 SWAP1 POP JUMP JUMPDEST PUSH0 DUP1 PUSH2 0xA77 PUSH2 0xD5F JUMP JUMPDEST SWAP1 POP PUSH2 0xA84 DUP2 DUP6 DUP6 PUSH2 0xE0A JUMP JUMPDEST PUSH1 0x1 SWAP2 POP POP SWAP3 SWAP2 POP POP JUMP JUMPDEST DUP4 TIMESTAMP GT ISZERO PUSH2 0xAD4 JUMPI DUP4 PUSH1 0x40 MLOAD PUSH32 0x4683AF0E00000000000000000000000000000000000000000000000000000000 DUP2 MSTORE PUSH1 0x4 ADD PUSH2 0xACB SWAP2 SWAP1 PUSH2 0x2B62 JUMP JUMPDEST PUSH1 0x40 MLOAD DUP1 SWAP2 SUB SWAP1 REVERT JUMPDEST PUSH0 PUSH2 0xB35 PUSH2 0xB2D PUSH32 0xE48329057BFD03D55E49B547132E39CFFD9C1820AD7B9D4C5307691425D15ADF DUP10 DUP10 DUP10 PUSH1 0x40 MLOAD PUSH1 0x20 ADD PUSH2 0xB12 SWAP5 SWAP4 SWAP3 SWAP2 SWAP1 PUSH2 0x31EB JUMP JUMPDEST PUSH1 0x40 MLOAD PUSH1 0x20 DUP2 DUP4 SUB SUB DUP2 MSTORE SWAP1 PUSH1 0x40 MSTORE DUP1 MLOAD SWAP1 PUSH1 0x20 ADD KECCAK256 PUSH2 0x1353 JUMP JUMPDEST DUP6 DUP6 DUP6 PUSH2 0x136C JUMP JUMPDEST SWAP1 POP PUSH2 0xB41 DUP2 DUP8 PUSH2 0x139A JUMP JUMPDEST PUSH2 0xB4B DUP2 DUP9 PUSH2 0x1105 JUMP JUMPDEST POP POP POP POP POP POP POP JUMP JUMPDEST DUP4 TIMESTAMP GT ISZERO PUSH2 0xB99 JUMPI DUP4 PUSH1 0x40 MLOAD PUSH32 0x6279130200000000000000000000000000000000000000000000000000000000 DUP2 MSTORE PUSH1 0x4 ADD PUSH2 0xB90 SWAP2 SWAP1 PUSH2 0x2B62 JUMP JUMPDEST PUSH1 0x40 MLOAD DUP1 SWAP2 SUB SWAP1 REVERT JUMPDEST PUSH0 PUSH32 0x6E71EDAE12B1B97F4D1F60370FEF10105FA2FAAE0126114A169C64845D6126C9 DUP9 DUP9 DUP9 PUSH2 0xBC7 DUP13 PUSH2 0x13F1 JUMP JUMPDEST DUP10 PUSH1 0x40 MLOAD PUSH1 0x20 ADD PUSH2 0xBDD SWAP7 SWAP6 SWAP5 SWAP4 SWAP3 SWAP2 SWAP1 PUSH2 0x322E JUMP JUMPDEST PUSH1 0x40 MLOAD PUSH1 0x20 DUP2 DUP4 SUB SUB DUP2 MSTORE SWAP1 PUSH1 0x40 MSTORE DUP1 MLOAD SWAP1 PUSH1 0x20 ADD KECCAK256 SWAP1 POP PUSH0 PUSH2 0xBFF DUP3 PUSH2 0x1353 JUMP JUMPDEST SWAP1 POP PUSH0 PUSH2 0xC0E DUP3 DUP8 DUP8 DUP8 PUSH2 0x136C JUMP JUMPDEST SWAP1 POP DUP10 PUSH20 0xFFFFFFFFFFFFFFFFFFFFFFFFFFFFFFFFFFFFFFFF AND DUP2 PUSH20 0xFFFFFFFFFFFFFFFFFFFFFFFFFFFFFFFFFFFFFFFF AND EQ PUSH2 0xC82 JUMPI DUP1 DUP11 PUSH1 0x40 MLOAD PUSH32 0x4B800E4600000000000000000000000000000000000000000000000000000000 DUP2 MSTORE PUSH1 0x4 ADD PUSH2 0xC79 SWAP3 SWAP2 SWAP1 PUSH2 0x328D JUMP JUMPDEST PUSH1 0x40 MLOAD DUP1 SWAP2 SUB SWAP1 REVERT JUMPDEST PUSH2 0xC8D DUP11 DUP11 DUP11 PUSH2 0xD66 JUMP JUMPDEST POP POP POP POP POP POP POP POP POP POP JUMP JUMPDEST PUSH0 PUSH1 0x1 PUSH0 DUP5 PUSH20 0xFFFFFFFFFFFFFFFFFFFFFFFFFFFFFFFFFFFFFFFF AND PUSH20 0xFFFFFFFFFFFFFFFFFFFFFFFFFFFFFFFFFFFFFFFF AND DUP2 MSTORE PUSH1 0x20 ADD SWAP1 DUP2 MSTORE PUSH1 0x20 ADD PUSH0 KECCAK256 PUSH0 DUP4 PUSH20 0xFFFFFFFFFFFFFFFFFFFFFFFFFFFFFFFFFFFFFFFF AND PUSH20 0xFFFFFFFFFFFFFFFFFFFFFFFFFFFFFFFFFFFFFFFF AND DUP2 MSTORE PUSH1 0x20 ADD SWAP1 DUP2 MSTORE PUSH1 0x20 ADD PUSH0 KECCAK256 SLOAD SWAP1 POP SWAP3 SWAP2 POP POP JUMP JUMPDEST PUSH2 0xD23 PUSH2 0x296B JUMP JUMPDEST PUSH2 0xD2D DUP4 DUP4 PUSH2 0x1444 JUMP JUMPDEST SWAP1 POP SWAP3 SWAP2 POP POP JUMP JUMPDEST PUSH0 DUP2 DUP4 PUSH2 0xD42 SWAP2 SWAP1 PUSH2 0x32E1 JUMP JUMPDEST SWAP1 POP SWAP3 SWAP2 POP POP JUMP JUMPDEST PUSH0 DUP2 DUP4 PUSH2 0xD57 SWAP2 SWAP1 PUSH2 0x332E JUMP JUMPDEST SWAP1 POP SWAP3 SWAP2 POP POP JUMP JUMPDEST PUSH0 CALLER SWAP1 POP SWAP1 JUMP JUMPDEST PUSH2 0xD73 DUP4 DUP4 DUP4 PUSH1 0x1 PUSH2 0x14A3 JUMP JUMPDEST POP POP POP JUMP JUMPDEST PUSH0 PUSH2 0xD83 DUP5 DUP5 PUSH2 0xC99 JUMP JUMPDEST SWAP1 POP PUSH32 0xFFFFFFFFFFFFFFFFFFFFFFFFFFFFFFFFFFFFFFFFFFFFFFFFFFFFFFFFFFFFFFFF DUP2 EQ PUSH2 0xE04 JUMPI DUP2 DUP2 LT ISZERO PUSH2 0xDF5 JUMPI DUP3 DUP2 DUP4 PUSH1 0x40 MLOAD PUSH32 0xFB8F41B200000000000000000000000000000000000000000000000000000000 DUP2 MSTORE PUSH1 0x4 ADD PUSH2 0xDEC SWAP4 SWAP3 SWAP2 SWAP1 PUSH2 0x337B JUMP JUMPDEST PUSH1 0x40 MLOAD DUP1 SWAP2 SUB SWAP1 REVERT JUMPDEST PUSH2 0xE03 DUP5 DUP5 DUP5 DUP5 SUB PUSH0 PUSH2 0x14A3 JUMP JUMPDEST JUMPDEST POP POP POP POP JUMP JUMPDEST PUSH0 PUSH20 0xFFFFFFFFFFFFFFFFFFFFFFFFFFFFFFFFFFFFFFFF AND DUP4 PUSH20 0xFFFFFFFFFFFFFFFFFFFFFFFFFFFFFFFFFFFFFFFF AND SUB PUSH2 0xE7A JUMPI PUSH0 PUSH1 0x40 MLOAD PUSH32 0x96C6FD1E00000000000000000000000000000000000000000000000000000000 DUP2 MSTORE PUSH1 0x4 ADD PUSH2 0xE71 SWAP2 SWAP1 PUSH2 0x2C6A JUMP JUMPDEST PUSH1 0x40 MLOAD DUP1 SWAP2 SUB SWAP1 REVERT JUMPDEST PUSH0 PUSH20 0xFFFFFFFFFFFFFFFFFFFFFFFFFFFFFFFFFFFFFFFF AND DUP3 PUSH20 0xFFFFFFFFFFFFFFFFFFFFFFFFFFFFFFFFFFFFFFFF AND SUB PUSH2 0xEEA JUMPI PUSH0 PUSH1 0x40 MLOAD PUSH32 0xEC442F0500000000000000000000000000000000000000000000000000000000 DUP2 MSTORE PUSH1 0x4 ADD PUSH2 0xEE1 SWAP2 SWAP1 PUSH2 0x2C6A JUMP JUMPDEST PUSH1 0x40 MLOAD DUP1 SWAP2 SUB SWAP1 REVERT JUMPDEST PUSH2 0xEF5 DUP4 DUP4 DUP4 PUSH2 0x1672 JUMP JUMPDEST POP POP POP JUMP JUMPDEST PUSH0 PUSH32 0x0 PUSH20 0xFFFFFFFFFFFFFFFFFFFFFFFFFFFFFFFFFFFFFFFF AND ADDRESS PUSH20 0xFFFFFFFFFFFFFFFFFFFFFFFFFFFFFFFFFFFFFFFF AND EQ DUP1 ISZERO PUSH2 0xF75 JUMPI POP PUSH32 0x0 CHAINID EQ JUMPDEST ISZERO PUSH2 0xFA2 JUMPI PUSH32 0x0 SWAP1 POP PUSH2 0xFAD JUMP JUMPDEST PUSH2 0xFAA PUSH2 0x1682 JUMP JUMPDEST SWAP1 POP JUMPDEST SWAP1 JUMP JUMPDEST PUSH0 PUSH6 0xFFFFFFFFFFFF DUP1 AND DUP3 GT ISZERO PUSH2 0x1001 JUMPI PUSH1 0x30 DUP3 PUSH1 0x40 MLOAD PUSH32 0x6DFCC65000000000000000000000000000000000000000000000000000000000 DUP2 MSTORE PUSH1 0x4 ADD PUSH2 0xFF8 SWAP3 SWAP2 SWAP1 PUSH2 0x33F2 JUMP JUMPDEST PUSH1 0x40 MLOAD DUP1 SWAP2 SUB SWAP1 REVERT JUMPDEST DUP2 SWAP1 POP SWAP2 SWAP1 POP JUMP JUMPDEST PUSH0 DUP1 DUP4 PUSH0 ADD DUP1 SLOAD SWAP1 POP SWAP1 POP PUSH0 DUP1 DUP3 SWAP1 POP PUSH1 0x5 DUP4 GT ISZERO PUSH2 0x108A JUMPI PUSH0 PUSH2 0x102C DUP5 PUSH2 0x1717 JUMP JUMPDEST DUP5 PUSH2 0x1037 SWAP2 SWAP1 PUSH2 0x3419 JUMP JUMPDEST SWAP1 POP PUSH2 0x1045 DUP8 PUSH0 ADD DUP3 PUSH2 0x180D JUMP JUMPDEST PUSH0 ADD PUSH0 SWAP1 SLOAD SWAP1 PUSH2 0x100 EXP SWAP1 DIV PUSH6 0xFFFFFFFFFFFF AND PUSH6 0xFFFFFFFFFFFF AND DUP7 PUSH6 0xFFFFFFFFFFFF AND LT ISZERO PUSH2 0x1078 JUMPI DUP1 SWAP2 POP PUSH2 0x1088 JUMP JUMPDEST PUSH1 0x1 DUP2 PUSH2 0x1085 SWAP2 SWAP1 PUSH2 0x344C JUMP JUMPDEST SWAP3 POP JUMPDEST POP JUMPDEST PUSH0 PUSH2 0x1099 DUP8 PUSH0 ADD DUP8 DUP6 DUP6 PUSH2 0x181F JUMP JUMPDEST SWAP1 POP PUSH0 DUP2 EQ PUSH2 0x10E8 JUMPI PUSH2 0x10BA DUP8 PUSH0 ADD PUSH1 0x1 DUP4 PUSH2 0x10B5 SWAP2 SWAP1 PUSH2 0x3419 JUMP JUMPDEST PUSH2 0x180D JUMP JUMPDEST PUSH0 ADD PUSH1 0x6 SWAP1 SLOAD SWAP1 PUSH2 0x100 EXP SWAP1 DIV PUSH26 0xFFFFFFFFFFFFFFFFFFFFFFFFFFFFFFFFFFFFFFFFFFFFFFFFFFFF AND PUSH2 0x10EA JUMP JUMPDEST PUSH0 JUMPDEST SWAP5 POP POP POP POP POP SWAP3 SWAP2 POP POP JUMP JUMPDEST PUSH0 PUSH2 0x1100 NUMBER PUSH2 0xFB0 JUMP JUMPDEST SWAP1 POP SWAP1 JUMP JUMPDEST PUSH0 PUSH2 0x110F DUP4 PUSH2 0x742 JUMP JUMPDEST SWAP1 POP DUP2 PUSH1 0x8 PUSH0 DUP6 PUSH20 0xFFFFFFFFFFFFFFFFFFFFFFFFFFFFFFFFFFFFFFFF AND PUSH20 0xFFFFFFFFFFFFFFFFFFFFFFFFFFFFFFFFFFFFFFFF AND DUP2 MSTORE PUSH1 0x20 ADD SWAP1 DUP2 MSTORE PUSH1 0x20 ADD PUSH0 KECCAK256 PUSH0 PUSH2 0x100 EXP DUP2 SLOAD DUP2 PUSH20 0xFFFFFFFFFFFFFFFFFFFFFFFFFFFFFFFFFFFFFFFF MUL NOT AND SWAP1 DUP4 PUSH20 0xFFFFFFFFFFFFFFFFFFFFFFFFFFFFFFFFFFFFFFFF AND MUL OR SWAP1 SSTORE POP DUP2 PUSH20 0xFFFFFFFFFFFFFFFFFFFFFFFFFFFFFFFFFFFFFFFF AND DUP2 PUSH20 0xFFFFFFFFFFFFFFFFFFFFFFFFFFFFFFFFFFFFFFFF AND DUP5 PUSH20 0xFFFFFFFFFFFFFFFFFFFFFFFFFFFFFFFFFFFFFFFF AND PUSH32 0x3134E8A2E6D97E929A7E54011EA5485D7D196DD5F0BA4D4EF95803E8E3FC257F PUSH1 0x40 MLOAD PUSH1 0x40 MLOAD DUP1 SWAP2 SUB SWAP1 LOG4 PUSH2 0x1210 DUP2 DUP4 PUSH2 0x120B DUP7 PUSH2 0x1894 JUMP JUMPDEST PUSH2 0x18A5 JUMP JUMPDEST POP POP POP JUMP JUMPDEST PUSH0 PUSH2 0x1263 PUSH2 0x125E PUSH1 0x9 PUSH0 DUP6 PUSH20 0xFFFFFFFFFFFFFFFFFFFFFFFFFFFFFFFFFFFFFFFF AND PUSH20 0xFFFFFFFFFFFFFFFFFFFFFFFFFFFFFFFFFFFFFFFF AND DUP2 MSTORE PUSH1 0x20 ADD SWAP1 DUP2 MSTORE PUSH1 0x20 ADD PUSH0 KECCAK256 PUSH2 0x1B15 JUMP JUMPDEST PUSH2 0x1B24 JUMP JUMPDEST SWAP1 POP SWAP2 SWAP1 POP JUMP JUMPDEST PUSH0 PUSH2 0x1274 DUP3 PUSH2 0x1B7B JUMP JUMPDEST SWAP1 POP SWAP2 SWAP1 POP JUMP JUMPDEST PUSH1 0x60 PUSH2 0x12B1 PUSH1 0x5 PUSH32 0x0 PUSH2 0x1BC1 SWAP1 SWAP2 SWAP1 PUSH4 0xFFFFFFFF AND JUMP JUMPDEST SWAP1 POP SWAP1 JUMP JUMPDEST PUSH1 0x60 PUSH2 0x12EC PUSH1 0x6 PUSH32 0x0 PUSH2 0x1BC1 SWAP1 SWAP2 SWAP1 PUSH4 0xFFFFFFFF AND JUMP JUMPDEST SWAP1 POP SWAP1 JUMP JUMPDEST PUSH0 DUP1 DUP3 PUSH0 ADD DUP1 SLOAD SWAP1 POP SWAP1 POP PUSH0 DUP2 EQ PUSH2 0x1349 JUMPI PUSH2 0x131B DUP4 PUSH0 ADD PUSH1 0x1 DUP4 PUSH2 0x1316 SWAP2 SWAP1 PUSH2 0x3419 JUMP JUMPDEST PUSH2 0x180D JUMP JUMPDEST PUSH0 ADD PUSH1 0x6 SWAP1 SLOAD SWAP1 PUSH2 0x100 EXP SWAP1 DIV PUSH26 0xFFFFFFFFFFFFFFFFFFFFFFFFFFFFFFFFFFFFFFFFFFFFFFFFFFFF AND PUSH2 0x134B JUMP JUMPDEST PUSH0 JUMPDEST SWAP2 POP POP SWAP2 SWAP1 POP JUMP JUMPDEST PUSH0 PUSH2 0x1365 PUSH2 0x135F PUSH2 0xEFA JUMP JUMPDEST DUP4 PUSH2 0x1C6E JUMP JUMPDEST SWAP1 POP SWAP2 SWAP1 POP JUMP JUMPDEST PUSH0 DUP1 PUSH0 DUP1 PUSH2 0x137C DUP9 DUP9 DUP9 DUP9 PUSH2 0x1CAE JUMP JUMPDEST SWAP3 POP SWAP3 POP SWAP3 POP PUSH2 0x138C DUP3 DUP3 PUSH2 0x1D95 JUMP JUMPDEST DUP3 SWAP4 POP POP POP POP SWAP5 SWAP4 POP POP POP POP JUMP JUMPDEST PUSH0 PUSH2 0x13A4 DUP4 PUSH2 0x13F1 JUMP JUMPDEST SWAP1 POP DUP1 DUP3 EQ PUSH2 0x13EC JUMPI DUP3 DUP2 PUSH1 0x40 MLOAD PUSH32 0x752D88C000000000000000000000000000000000000000000000000000000000 DUP2 MSTORE PUSH1 0x4 ADD PUSH2 0x13E3 SWAP3 SWAP2 SWAP1 PUSH2 0x347F JUMP JUMPDEST PUSH1 0x40 MLOAD DUP1 SWAP2 SUB SWAP1 REVERT JUMPDEST POP POP POP JUMP JUMPDEST PUSH0 PUSH1 0x7 PUSH0 DUP4 PUSH20 0xFFFFFFFFFFFFFFFFFFFFFFFFFFFFFFFFFFFFFFFF AND PUSH20 0xFFFFFFFFFFFFFFFFFFFFFFFFFFFFFFFFFFFFFFFF AND DUP2 MSTORE PUSH1 0x20 ADD SWAP1 DUP2 MSTORE PUSH1 0x20 ADD PUSH0 KECCAK256 PUSH0 DUP2 SLOAD DUP1 SWAP3 SWAP2 SWAP1 PUSH1 0x1 ADD SWAP2 SWAP1 POP SSTORE SWAP1 POP SWAP2 SWAP1 POP JUMP JUMPDEST PUSH2 0x144C PUSH2 0x296B JUMP JUMPDEST PUSH2 0x149B DUP3 PUSH1 0x9 PUSH0 DUP7 PUSH20 0xFFFFFFFFFFFFFFFFFFFFFFFFFFFFFFFFFFFFFFFF AND PUSH20 0xFFFFFFFFFFFFFFFFFFFFFFFFFFFFFFFFFFFFFFFF AND DUP2 MSTORE PUSH1 0x20 ADD SWAP1 DUP2 MSTORE PUSH1 0x20 ADD PUSH0 KECCAK256 PUSH2 0x1EF7 SWAP1 SWAP2 SWAP1 PUSH4 0xFFFFFFFF AND JUMP JUMPDEST SWAP1 POP SWAP3 SWAP2 POP POP JUMP JUMPDEST PUSH0 PUSH20 0xFFFFFFFFFFFFFFFFFFFFFFFFFFFFFFFFFFFFFFFF AND DUP5 PUSH20 0xFFFFFFFFFFFFFFFFFFFFFFFFFFFFFFFFFFFFFFFF AND SUB PUSH2 0x1513 JUMPI PUSH0 PUSH1 0x40 MLOAD PUSH32 0xE602DF0500000000000000000000000000000000000000000000000000000000 DUP2 MSTORE PUSH1 0x4 ADD PUSH2 0x150A SWAP2 SWAP1 PUSH2 0x2C6A JUMP JUMPDEST PUSH1 0x40 MLOAD DUP1 SWAP2 SUB SWAP1 REVERT JUMPDEST PUSH0 PUSH20 0xFFFFFFFFFFFFFFFFFFFFFFFFFFFFFFFFFFFFFFFF AND DUP4 PUSH20 0xFFFFFFFFFFFFFFFFFFFFFFFFFFFFFFFFFFFFFFFF AND SUB PUSH2 0x1583 JUMPI PUSH0 PUSH1 0x40 MLOAD PUSH32 0x94280D6200000000000000000000000000000000000000000000000000000000 DUP2 MSTORE PUSH1 0x4 ADD PUSH2 0x157A SWAP2 SWAP1 PUSH2 0x2C6A JUMP JUMPDEST PUSH1 0x40 MLOAD DUP1 SWAP2 SUB SWAP1 REVERT JUMPDEST DUP2 PUSH1 0x1 PUSH0 DUP7 PUSH20 0xFFFFFFFFFFFFFFFFFFFFFFFFFFFFFFFFFFFFFFFF AND PUSH20 0xFFFFFFFFFFFFFFFFFFFFFFFFFFFFFFFFFFFFFFFF AND DUP2 MSTORE PUSH1 0x20 ADD SWAP1 DUP2 MSTORE PUSH1 0x20 ADD PUSH0 KECCAK256 PUSH0 DUP6 PUSH20 0xFFFFFFFFFFFFFFFFFFFFFFFFFFFFFFFFFFFFFFFF AND PUSH20 0xFFFFFFFFFFFFFFFFFFFFFFFFFFFFFFFFFFFFFFFF AND DUP2 MSTORE PUSH1 0x20 ADD SWAP1 DUP2 MSTORE PUSH1 0x20 ADD PUSH0 KECCAK256 DUP2 SWAP1 SSTORE POP DUP1 ISZERO PUSH2 0x166C JUMPI DUP3 PUSH20 0xFFFFFFFFFFFFFFFFFFFFFFFFFFFFFFFFFFFFFFFF AND DUP5 PUSH20 0xFFFFFFFFFFFFFFFFFFFFFFFFFFFFFFFFFFFFFFFF AND PUSH32 0x8C5BE1E5EBEC7D5BD14F71427D1E84F3DD0314C0F7B2291E5B200AC8C7C3B925 DUP5 PUSH1 0x40 MLOAD PUSH2 0x1663 SWAP2 SWAP1 PUSH2 0x2B62 JUMP JUMPDEST PUSH1 0x40 MLOAD DUP1 SWAP2 SUB SWAP1 LOG3 JUMPDEST POP POP POP POP JUMP JUMPDEST PUSH2 0x167D DUP4 DUP4 DUP4 PUSH2 0x1FC6 JUMP JUMPDEST POP POP POP JUMP JUMPDEST PUSH0 PUSH32 0x8B73C3C69BB8FE3D512ECC4CF759CC79239F7B179B0FFACAA9A75D522B39400F PUSH32 0x0 PUSH32 0x0 CHAINID ADDRESS PUSH1 0x40 MLOAD PUSH1 0x20 ADD PUSH2 0x16FC SWAP6 SWAP5 SWAP4 SWAP3 SWAP2 SWAP1 PUSH2 0x34A6 JUMP JUMPDEST PUSH1 0x40 MLOAD PUSH1 0x20 DUP2 DUP4 SUB SUB DUP2 MSTORE SWAP1 PUSH1 0x40 MSTORE DUP1 MLOAD SWAP1 PUSH1 0x20 ADD KECCAK256 SWAP1 POP SWAP1 JUMP JUMPDEST PUSH0 DUP1 DUP3 SUB PUSH2 0x1727 JUMPI PUSH0 SWAP1 POP PUSH2 0x1808 JUMP JUMPDEST PUSH0 PUSH1 0x1 PUSH2 0x1733 DUP5 PUSH2 0x2074 JUMP JUMPDEST SWAP1 SHR PUSH1 0x1 SWAP1 SHL SWAP1 POP PUSH1 0x1 DUP2 DUP5 DUP2 PUSH2 0x174D JUMPI PUSH2 0x174C PUSH2 0x34F7 JUMP JUMPDEST JUMPDEST DIV DUP3 ADD SWAP1 SHR SWAP1 POP PUSH1 0x1 DUP2 DUP5 DUP2 PUSH2 0x1766 JUMPI PUSH2 0x1765 PUSH2 0x34F7 JUMP JUMPDEST JUMPDEST DIV DUP3 ADD SWAP1 SHR SWAP1 POP PUSH1 0x1 DUP2 DUP5 DUP2 PUSH2 0x177F JUMPI PUSH2 0x177E PUSH2 0x34F7 JUMP JUMPDEST JUMPDEST DIV DUP3 ADD SWAP1 SHR SWAP1 POP PUSH1 0x1 DUP2 DUP5 DUP2 PUSH2 0x1798 JUMPI PUSH2 0x1797 PUSH2 0x34F7 JUMP JUMPDEST JUMPDEST DIV DUP3 ADD SWAP1 SHR SWAP1 POP PUSH1 0x1 DUP2 DUP5 DUP2 PUSH2 0x17B1 JUMPI PUSH2 0x17B0 PUSH2 0x34F7 JUMP JUMPDEST JUMPDEST DIV DUP3 ADD SWAP1 SHR SWAP1 POP PUSH1 0x1 DUP2 DUP5 DUP2 PUSH2 0x17CA JUMPI PUSH2 0x17C9 PUSH2 0x34F7 JUMP JUMPDEST JUMPDEST DIV DUP3 ADD SWAP1 SHR SWAP1 POP PUSH1 0x1 DUP2 DUP5 DUP2 PUSH2 0x17E3 JUMPI PUSH2 0x17E2 PUSH2 0x34F7 JUMP JUMPDEST JUMPDEST DIV DUP3 ADD SWAP1 SHR SWAP1 POP PUSH2 0x1804 DUP2 DUP3 DUP6 DUP2 PUSH2 0x17FE JUMPI PUSH2 0x17FD PUSH2 0x34F7 JUMP JUMPDEST JUMPDEST DIV PUSH2 0x214B JUMP JUMPDEST SWAP2 POP POP JUMPDEST SWAP2 SWAP1 POP JUMP JUMPDEST PUSH0 DUP3 PUSH0 MSTORE DUP2 PUSH1 0x20 PUSH0 KECCAK256 ADD SWAP1 POP SWAP3 SWAP2 POP POP JUMP JUMPDEST PUSH0 JUMPDEST DUP2 DUP4 LT ISZERO PUSH2 0x1889 JUMPI PUSH0 PUSH2 0x1834 DUP5 DUP5 PUSH2 0x2163 JUMP JUMPDEST SWAP1 POP DUP5 PUSH6 0xFFFFFFFFFFFF AND PUSH2 0x1849 DUP8 DUP4 PUSH2 0x180D JUMP JUMPDEST PUSH0 ADD PUSH0 SWAP1 SLOAD SWAP1 PUSH2 0x100 EXP SWAP1 DIV PUSH6 0xFFFFFFFFFFFF AND PUSH6 0xFFFFFFFFFFFF AND GT ISZERO PUSH2 0x1873 JUMPI DUP1 SWAP3 POP PUSH2 0x1883 JUMP JUMPDEST PUSH1 0x1 DUP2 PUSH2 0x1880 SWAP2 SWAP1 PUSH2 0x344C JUMP JUMPDEST SWAP4 POP JUMPDEST POP PUSH2 0x1821 JUMP JUMPDEST DUP2 SWAP1 POP SWAP5 SWAP4 POP POP POP POP JUMP JUMPDEST PUSH0 PUSH2 0x189E DUP3 PUSH2 0x7D1 JUMP JUMPDEST SWAP1 POP SWAP2 SWAP1 POP JUMP JUMPDEST DUP2 PUSH20 0xFFFFFFFFFFFFFFFFFFFFFFFFFFFFFFFFFFFFFFFF AND DUP4 PUSH20 0xFFFFFFFFFFFFFFFFFFFFFFFFFFFFFFFFFFFFFFFF AND EQ ISZERO DUP1 ISZERO PUSH2 0x18E0 JUMPI POP PUSH0 DUP2 GT JUMPDEST ISZERO PUSH2 0x1B10 JUMPI PUSH0 PUSH20 0xFFFFFFFFFFFFFFFFFFFFFFFFFFFFFFFFFFFFFFFF AND DUP4 PUSH20 0xFFFFFFFFFFFFFFFFFFFFFFFFFFFFFFFFFFFFFFFF AND EQ PUSH2 0x19FA JUMPI PUSH0 DUP1 PUSH2 0x196B PUSH1 0x9 PUSH0 DUP8 PUSH20 0xFFFFFFFFFFFFFFFFFFFFFFFFFFFFFFFFFFFFFFFF AND PUSH20 0xFFFFFFFFFFFFFFFFFFFFFFFFFFFFFFFFFFFFFFFF AND DUP2 MSTORE PUSH1 0x20 ADD SWAP1 DUP2 MSTORE PUSH1 0x20 ADD PUSH0 KECCAK256 PUSH2 0xD4A PUSH2 0x1966 DUP7 PUSH2 0x2188 JUMP JUMPDEST PUSH2 0x21F5 JUMP JUMPDEST PUSH26 0xFFFFFFFFFFFFFFFFFFFFFFFFFFFFFFFFFFFFFFFFFFFFFFFFFFFF AND SWAP2 POP PUSH26 0xFFFFFFFFFFFFFFFFFFFFFFFFFFFFFFFFFFFFFFFFFFFFFFFFFFFF AND SWAP2 POP DUP5 PUSH20 0xFFFFFFFFFFFFFFFFFFFFFFFFFFFFFFFFFFFFFFFF AND PUSH32 0xDEC2BACDD2F05B59DE34DA9B523DFF8BE42E5E38E818C82FDB0BAE774387A724 DUP4 DUP4 PUSH1 0x40 MLOAD PUSH2 0x19EF SWAP3 SWAP2 SWAP1 PUSH2 0x3524 JUMP JUMPDEST PUSH1 0x40 MLOAD DUP1 SWAP2 SUB SWAP1 LOG2 POP POP JUMPDEST PUSH0 PUSH20 0xFFFFFFFFFFFFFFFFFFFFFFFFFFFFFFFFFFFFFFFF AND DUP3 PUSH20 0xFFFFFFFFFFFFFFFFFFFFFFFFFFFFFFFFFFFFFFFF AND EQ PUSH2 0x1B0F JUMPI PUSH0 DUP1 PUSH2 0x1A80 PUSH1 0x9 PUSH0 DUP7 PUSH20 0xFFFFFFFFFFFFFFFFFFFFFFFFFFFFFFFFFFFFFFFF AND PUSH20 0xFFFFFFFFFFFFFFFFFFFFFFFFFFFFFFFFFFFFFFFF AND DUP2 MSTORE PUSH1 0x20 ADD SWAP1 DUP2 MSTORE PUSH1 0x20 ADD PUSH0 KECCAK256 PUSH2 0xD35 PUSH2 0x1A7B DUP7 PUSH2 0x2188 JUMP JUMPDEST PUSH2 0x21F5 JUMP JUMPDEST PUSH26 0xFFFFFFFFFFFFFFFFFFFFFFFFFFFFFFFFFFFFFFFFFFFFFFFFFFFF AND SWAP2 POP PUSH26 0xFFFFFFFFFFFFFFFFFFFFFFFFFFFFFFFFFFFFFFFFFFFFFFFFFFFF AND SWAP2 POP DUP4 PUSH20 0xFFFFFFFFFFFFFFFFFFFFFFFFFFFFFFFFFFFFFFFF AND PUSH32 0xDEC2BACDD2F05B59DE34DA9B523DFF8BE42E5E38E818C82FDB0BAE774387A724 DUP4 DUP4 PUSH1 0x40 MLOAD PUSH2 0x1B04 SWAP3 SWAP2 SWAP1 PUSH2 0x3524 JUMP JUMPDEST PUSH1 0x40 MLOAD DUP1 SWAP2 SUB SWAP1 LOG2 POP POP JUMPDEST JUMPDEST POP POP POP JUMP JUMPDEST PUSH0 DUP2 PUSH0 ADD DUP1 SLOAD SWAP1 POP SWAP1 POP SWAP2 SWAP1 POP JUMP JUMPDEST PUSH0 PUSH4 0xFFFFFFFF DUP1 AND DUP3 GT ISZERO PUSH2 0x1B73 JUMPI PUSH1 0x20 DUP3 PUSH1 0x40 MLOAD PUSH32 0x6DFCC65000000000000000000000000000000000000000000000000000000000 DUP2 MSTORE PUSH1 0x4 ADD PUSH2 0x1B6A SWAP3 SWAP2 SWAP1 PUSH2 0x3584 JUMP JUMPDEST PUSH1 0x40 MLOAD DUP1 SWAP2 SUB SWAP1 REVERT JUMPDEST DUP2 SWAP1 POP SWAP2 SWAP1 POP JUMP JUMPDEST PUSH0 PUSH1 0x7 PUSH0 DUP4 PUSH20 0xFFFFFFFFFFFFFFFFFFFFFFFFFFFFFFFFFFFFFFFF AND PUSH20 0xFFFFFFFFFFFFFFFFFFFFFFFFFFFFFFFFFFFFFFFF AND DUP2 MSTORE PUSH1 0x20 ADD SWAP1 DUP2 MSTORE PUSH1 0x20 ADD PUSH0 KECCAK256 SLOAD SWAP1 POP SWAP2 SWAP1 POP JUMP JUMPDEST PUSH1 0x60 PUSH1 0xFF PUSH0 SHL DUP4 EQ PUSH2 0x1BDD JUMPI PUSH2 0x1BD6 DUP4 PUSH2 0x2234 JUMP JUMPDEST SWAP1 POP PUSH2 0x1C68 JUMP JUMPDEST DUP2 DUP1 SLOAD PUSH2 0x1BE9 SWAP1 PUSH2 0x3167 JUMP JUMPDEST DUP1 PUSH1 0x1F ADD PUSH1 0x20 DUP1 SWAP2 DIV MUL PUSH1 0x20 ADD PUSH1 0x40 MLOAD SWAP1 DUP2 ADD PUSH1 0x40 MSTORE DUP1 SWAP3 SWAP2 SWAP1 DUP2 DUP2 MSTORE PUSH1 0x20 ADD DUP3 DUP1 SLOAD PUSH2 0x1C15 SWAP1 PUSH2 0x3167 JUMP JUMPDEST DUP1 ISZERO PUSH2 0x1C60 JUMPI DUP1 PUSH1 0x1F LT PUSH2 0x1C37 JUMPI PUSH2 0x100 DUP1 DUP4 SLOAD DIV MUL DUP4 MSTORE SWAP2 PUSH1 0x20 ADD SWAP2 PUSH2 0x1C60 JUMP JUMPDEST DUP3 ADD SWAP2 SWAP1 PUSH0 MSTORE PUSH1 0x20 PUSH0 KECCAK256 SWAP1 JUMPDEST DUP2 SLOAD DUP2 MSTORE SWAP1 PUSH1 0x1 ADD SWAP1 PUSH1 0x20 ADD DUP1 DUP4 GT PUSH2 0x1C43 JUMPI DUP3 SWAP1 SUB PUSH1 0x1F AND DUP3 ADD SWAP2 JUMPDEST POP POP POP POP POP SWAP1 POP JUMPDEST SWAP3 SWAP2 POP POP JUMP JUMPDEST PUSH0 PUSH1 0x40 MLOAD PUSH32 0x1901000000000000000000000000000000000000000000000000000000000000 DUP2 MSTORE DUP4 PUSH1 0x2 DUP3 ADD MSTORE DUP3 PUSH1 0x22 DUP3 ADD MSTORE PUSH1 0x42 DUP2 KECCAK256 SWAP2 POP POP SWAP3 SWAP2 POP POP JUMP JUMPDEST PUSH0 DUP1 PUSH0 PUSH32 0x7FFFFFFFFFFFFFFFFFFFFFFFFFFFFFFF5D576E7357A4501DDFE92F46681B20A0 DUP5 PUSH0 SHR GT ISZERO PUSH2 0x1CEA JUMPI PUSH0 PUSH1 0x3 DUP6 SWAP3 POP SWAP3 POP SWAP3 POP PUSH2 0x1D8B JUMP JUMPDEST PUSH0 PUSH1 0x1 DUP9 DUP9 DUP9 DUP9 PUSH1 0x40 MLOAD PUSH0 DUP2 MSTORE PUSH1 0x20 ADD PUSH1 0x40 MSTORE PUSH1 0x40 MLOAD PUSH2 0x1D0D SWAP5 SWAP4 SWAP3 SWAP2 SWAP1 PUSH2 0x35AB JUMP JUMPDEST PUSH1 0x20 PUSH1 0x40 MLOAD PUSH1 0x20 DUP2 SUB SWAP1 DUP1 DUP5 SUB SWAP1 DUP6 GAS STATICCALL ISZERO DUP1 ISZERO PUSH2 0x1D2D JUMPI RETURNDATASIZE PUSH0 DUP1 RETURNDATACOPY RETURNDATASIZE PUSH0 REVERT JUMPDEST POP POP POP PUSH1 0x20 PUSH1 0x40 MLOAD SUB MLOAD SWAP1 POP PUSH0 PUSH20 0xFFFFFFFFFFFFFFFFFFFFFFFFFFFFFFFFFFFFFFFF AND DUP2 PUSH20 0xFFFFFFFFFFFFFFFFFFFFFFFFFFFFFFFFFFFFFFFF AND SUB PUSH2 0x1D7E JUMPI PUSH0 PUSH1 0x1 PUSH0 DUP1 SHL SWAP4 POP SWAP4 POP SWAP4 POP POP PUSH2 0x1D8B JUMP JUMPDEST DUP1 PUSH0 DUP1 PUSH0 SHL SWAP4 POP SWAP4 POP SWAP4 POP POP JUMPDEST SWAP5 POP SWAP5 POP SWAP5 SWAP2 POP POP JUMP JUMPDEST PUSH0 PUSH1 0x3 DUP2 GT ISZERO PUSH2 0x1DA8 JUMPI PUSH2 0x1DA7 PUSH2 0x35EE JUMP JUMPDEST JUMPDEST DUP3 PUSH1 0x3 DUP2 GT ISZERO PUSH2 0x1DBB JUMPI PUSH2 0x1DBA PUSH2 0x35EE JUMP JUMPDEST JUMPDEST SUB ISZERO PUSH2 0x1EF3 JUMPI PUSH1 0x1 PUSH1 0x3 DUP2 GT ISZERO PUSH2 0x1DD5 JUMPI PUSH2 0x1DD4 PUSH2 0x35EE JUMP JUMPDEST JUMPDEST DUP3 PUSH1 0x3 DUP2 GT ISZERO PUSH2 0x1DE8 JUMPI PUSH2 0x1DE7 PUSH2 0x35EE JUMP JUMPDEST JUMPDEST SUB PUSH2 0x1E1F JUMPI PUSH1 0x40 MLOAD PUSH32 0xF645EEDF00000000000000000000000000000000000000000000000000000000 DUP2 MSTORE PUSH1 0x4 ADD PUSH1 0x40 MLOAD DUP1 SWAP2 SUB SWAP1 REVERT JUMPDEST PUSH1 0x2 PUSH1 0x3 DUP2 GT ISZERO PUSH2 0x1E33 JUMPI PUSH2 0x1E32 PUSH2 0x35EE JUMP JUMPDEST JUMPDEST DUP3 PUSH1 0x3 DUP2 GT ISZERO PUSH2 0x1E46 JUMPI PUSH2 0x1E45 PUSH2 0x35EE JUMP JUMPDEST JUMPDEST SUB PUSH2 0x1E8A JUMPI DUP1 PUSH0 SHR PUSH1 0x40 MLOAD PUSH32 0xFCE698F700000000000000000000000000000000000000000000000000000000 DUP2 MSTORE PUSH1 0x4 ADD PUSH2 0x1E81 SWAP2 SWAP1 PUSH2 0x2B62 JUMP JUMPDEST PUSH1 0x40 MLOAD DUP1 SWAP2 SUB SWAP1 REVERT JUMPDEST PUSH1 0x3 DUP1 DUP2 GT ISZERO PUSH2 0x1E9D JUMPI PUSH2 0x1E9C PUSH2 0x35EE JUMP JUMPDEST JUMPDEST DUP3 PUSH1 0x3 DUP2 GT ISZERO PUSH2 0x1EB0 JUMPI PUSH2 0x1EAF PUSH2 0x35EE JUMP JUMPDEST JUMPDEST SUB PUSH2 0x1EF2 JUMPI DUP1 PUSH1 0x40 MLOAD PUSH32 0xD78BCE0C00000000000000000000000000000000000000000000000000000000 DUP2 MSTORE PUSH1 0x4 ADD PUSH2 0x1EE9 SWAP2 SWAP1 PUSH2 0x2C17 JUMP JUMPDEST PUSH1 0x40 MLOAD DUP1 SWAP2 SUB SWAP1 REVERT JUMPDEST JUMPDEST POP POP JUMP JUMPDEST PUSH2 0x1EFF PUSH2 0x296B JUMP JUMPDEST DUP3 PUSH0 ADD DUP3 PUSH4 0xFFFFFFFF AND DUP2 SLOAD DUP2 LT PUSH2 0x1F1A JUMPI PUSH2 0x1F19 PUSH2 0x361B JUMP JUMPDEST JUMPDEST SWAP1 PUSH0 MSTORE PUSH1 0x20 PUSH0 KECCAK256 ADD PUSH1 0x40 MLOAD DUP1 PUSH1 0x40 ADD PUSH1 0x40 MSTORE SWAP1 DUP2 PUSH0 DUP3 ADD PUSH0 SWAP1 SLOAD SWAP1 PUSH2 0x100 EXP SWAP1 DIV PUSH6 0xFFFFFFFFFFFF AND PUSH6 0xFFFFFFFFFFFF AND PUSH6 0xFFFFFFFFFFFF AND DUP2 MSTORE PUSH1 0x20 ADD PUSH0 DUP3 ADD PUSH1 0x6 SWAP1 SLOAD SWAP1 PUSH2 0x100 EXP SWAP1 DIV PUSH26 0xFFFFFFFFFFFFFFFFFFFFFFFFFFFFFFFFFFFFFFFFFFFFFFFFFFFF AND PUSH26 0xFFFFFFFFFFFFFFFFFFFFFFFFFFFFFFFFFFFFFFFFFFFFFFFFFFFF AND PUSH26 0xFFFFFFFFFFFFFFFFFFFFFFFFFFFFFFFFFFFFFFFFFFFFFFFFFFFF AND DUP2 MSTORE POP POP SWAP1 POP SWAP3 SWAP2 POP POP JUMP JUMPDEST PUSH2 0x1FD1 DUP4 DUP4 DUP4 PUSH2 0x22A6 JUMP JUMPDEST PUSH0 PUSH20 0xFFFFFFFFFFFFFFFFFFFFFFFFFFFFFFFFFFFFFFFF AND DUP4 PUSH20 0xFFFFFFFFFFFFFFFFFFFFFFFFFFFFFFFFFFFFFFFF AND SUB PUSH2 0x2064 JUMPI PUSH0 PUSH2 0x200D PUSH2 0x58B JUMP JUMPDEST SWAP1 POP PUSH0 PUSH2 0x2018 PUSH2 0x24BF JUMP JUMPDEST SWAP1 POP DUP1 DUP3 GT ISZERO PUSH2 0x2061 JUMPI DUP2 DUP2 PUSH1 0x40 MLOAD PUSH32 0x1CB15D2600000000000000000000000000000000000000000000000000000000 DUP2 MSTORE PUSH1 0x4 ADD PUSH2 0x2058 SWAP3 SWAP2 SWAP1 PUSH2 0x3524 JUMP JUMPDEST PUSH1 0x40 MLOAD DUP1 SWAP2 SUB SWAP1 REVERT JUMPDEST POP POP JUMPDEST PUSH2 0x206F DUP4 DUP4 DUP4 PUSH2 0x24E2 JUMP JUMPDEST POP POP POP JUMP JUMPDEST PUSH0 DUP1 PUSH0 SWAP1 POP PUSH0 PUSH1 0x80 DUP5 SWAP1 SHR GT ISZERO PUSH2 0x2093 JUMPI PUSH1 0x80 DUP4 SWAP1 SHR SWAP3 POP PUSH1 0x80 DUP2 ADD SWAP1 POP JUMPDEST PUSH0 PUSH1 0x40 DUP5 SWAP1 SHR GT ISZERO PUSH2 0x20AD JUMPI PUSH1 0x40 DUP4 SWAP1 SHR SWAP3 POP PUSH1 0x40 DUP2 ADD SWAP1 POP JUMPDEST PUSH0 PUSH1 0x20 DUP5 SWAP1 SHR GT ISZERO PUSH2 0x20C7 JUMPI PUSH1 0x20 DUP4 SWAP1 SHR SWAP3 POP PUSH1 0x20 DUP2 ADD SWAP1 POP JUMPDEST PUSH0 PUSH1 0x10 DUP5 SWAP1 SHR GT ISZERO PUSH2 0x20E1 JUMPI PUSH1 0x10 DUP4 SWAP1 SHR SWAP3 POP PUSH1 0x10 DUP2 ADD SWAP1 POP JUMPDEST PUSH0 PUSH1 0x8 DUP5 SWAP1 SHR GT ISZERO PUSH2 0x20FB JUMPI PUSH1 0x8 DUP4 SWAP1 SHR SWAP3 POP PUSH1 0x8 DUP2 ADD SWAP1 POP JUMPDEST PUSH0 PUSH1 0x4 DUP5 SWAP1 SHR GT ISZERO PUSH2 0x2115 JUMPI PUSH1 0x4 DUP4 SWAP1 SHR SWAP3 POP PUSH1 0x4 DUP2 ADD SWAP1 POP JUMPDEST PUSH0 PUSH1 0x2 DUP5 SWAP1 SHR GT ISZERO PUSH2 0x212F JUMPI PUSH1 0x2 DUP4 SWAP1 SHR SWAP3 POP PUSH1 0x2 DUP2 ADD SWAP1 POP JUMPDEST PUSH0 PUSH1 0x1 DUP5 SWAP1 SHR GT ISZERO PUSH2 0x2142 JUMPI PUSH1 0x1 DUP2 ADD SWAP1 POP JUMPDEST DUP1 SWAP2 POP POP SWAP2 SWAP1 POP JUMP JUMPDEST PUSH0 DUP2 DUP4 LT PUSH2 0x2159 JUMPI DUP2 PUSH2 0x215B JUMP JUMPDEST DUP3 JUMPDEST SWAP1 POP SWAP3 SWAP2 POP POP JUMP JUMPDEST PUSH0 PUSH1 0x2 DUP3 DUP5 XOR PUSH2 0x2173 SWAP2 SWAP1 PUSH2 0x3648 JUMP JUMPDEST DUP3 DUP5 AND PUSH2 0x2180 SWAP2 SWAP1 PUSH2 0x344C JUMP JUMPDEST SWAP1 POP SWAP3 SWAP2 POP POP JUMP JUMPDEST PUSH0 PUSH26 0xFFFFFFFFFFFFFFFFFFFFFFFFFFFFFFFFFFFFFFFFFFFFFFFFFFFF DUP1 AND DUP3 GT ISZERO PUSH2 0x21ED JUMPI PUSH1 0xD0 DUP3 PUSH1 0x40 MLOAD PUSH32 0x6DFCC65000000000000000000000000000000000000000000000000000000000 DUP2 MSTORE PUSH1 0x4 ADD PUSH2 0x21E4 SWAP3 SWAP2 SWAP1 PUSH2 0x36B1 JUMP JUMPDEST PUSH1 0x40 MLOAD DUP1 SWAP2 SUB SWAP1 REVERT JUMPDEST DUP2 SWAP1 POP SWAP2 SWAP1 POP JUMP JUMPDEST PUSH0 DUP1 PUSH2 0x2228 PUSH2 0x2202 PUSH2 0x966 JUMP JUMPDEST PUSH2 0x2218 PUSH2 0x220E DUP9 PUSH2 0x12F1 JUMP JUMPDEST DUP7 DUP9 PUSH4 0xFFFFFFFF AND JUMP JUMPDEST DUP8 PUSH2 0x259A SWAP1 SWAP3 SWAP2 SWAP1 PUSH4 0xFFFFFFFF AND JUMP JUMPDEST SWAP2 POP SWAP2 POP SWAP4 POP SWAP4 SWAP2 POP POP JUMP JUMPDEST PUSH1 0x60 PUSH0 PUSH2 0x2240 DUP4 PUSH2 0x25B5 JUMP JUMPDEST SWAP1 POP PUSH0 PUSH1 0x20 PUSH8 0xFFFFFFFFFFFFFFFF DUP2 GT ISZERO PUSH2 0x225E JUMPI PUSH2 0x225D PUSH2 0x31BE JUMP JUMPDEST JUMPDEST PUSH1 0x40 MLOAD SWAP1 DUP1 DUP3 MSTORE DUP1 PUSH1 0x1F ADD PUSH1 0x1F NOT AND PUSH1 0x20 ADD DUP3 ADD PUSH1 0x40 MSTORE DUP1 ISZERO PUSH2 0x2290 JUMPI DUP2 PUSH1 0x20 ADD PUSH1 0x1 DUP3 MUL DUP1 CALLDATASIZE DUP4 CALLDATACOPY DUP1 DUP3 ADD SWAP2 POP POP SWAP1 POP JUMPDEST POP SWAP1 POP DUP2 DUP2 MSTORE DUP4 PUSH1 0x20 DUP3 ADD MSTORE DUP1 SWAP3 POP POP POP SWAP2 SWAP1 POP JUMP JUMPDEST PUSH0 PUSH20 0xFFFFFFFFFFFFFFFFFFFFFFFFFFFFFFFFFFFFFFFF AND DUP4 PUSH20 0xFFFFFFFFFFFFFFFFFFFFFFFFFFFFFFFFFFFFFFFF AND SUB PUSH2 0x22F6 JUMPI DUP1 PUSH1 0x2 PUSH0 DUP3 DUP3 SLOAD PUSH2 0x22EA SWAP2 SWAP1 PUSH2 0x344C JUMP JUMPDEST SWAP3 POP POP DUP2 SWAP1 SSTORE POP PUSH2 0x23C4 JUMP JUMPDEST PUSH0 DUP1 PUSH0 DUP6 PUSH20 0xFFFFFFFFFFFFFFFFFFFFFFFFFFFFFFFFFFFFFFFF AND PUSH20 0xFFFFFFFFFFFFFFFFFFFFFFFFFFFFFFFFFFFFFFFF AND DUP2 MSTORE PUSH1 0x20 ADD SWAP1 DUP2 MSTORE PUSH1 0x20 ADD PUSH0 KECCAK256 SLOAD SWAP1 POP DUP2 DUP2 LT ISZERO PUSH2 0x237F JUMPI DUP4 DUP2 DUP4 PUSH1 0x40 MLOAD PUSH32 0xE450D38C00000000000000000000000000000000000000000000000000000000 DUP2 MSTORE PUSH1 0x4 ADD PUSH2 0x2376 SWAP4 SWAP3 SWAP2 SWAP1 PUSH2 0x337B JUMP JUMPDEST PUSH1 0x40 MLOAD DUP1 SWAP2 SUB SWAP1 REVERT JUMPDEST DUP2 DUP2 SUB PUSH0 DUP1 DUP7 PUSH20 0xFFFFFFFFFFFFFFFFFFFFFFFFFFFFFFFFFFFFFFFF AND PUSH20 0xFFFFFFFFFFFFFFFFFFFFFFFFFFFFFFFFFFFFFFFF AND DUP2 MSTORE PUSH1 0x20 ADD SWAP1 DUP2 MSTORE PUSH1 0x20 ADD PUSH0 KECCAK256 DUP2 SWAP1 SSTORE POP POP JUMPDEST PUSH0 PUSH20 0xFFFFFFFFFFFFFFFFFFFFFFFFFFFFFFFFFFFFFFFF AND DUP3 PUSH20 0xFFFFFFFFFFFFFFFFFFFFFFFFFFFFFFFFFFFFFFFF AND SUB PUSH2 0x240B JUMPI DUP1 PUSH1 0x2 PUSH0 DUP3 DUP3 SLOAD SUB SWAP3 POP POP DUP2 SWAP1 SSTORE POP PUSH2 0x2455 JUMP JUMPDEST DUP1 PUSH0 DUP1 DUP5 PUSH20 0xFFFFFFFFFFFFFFFFFFFFFFFFFFFFFFFFFFFFFFFF AND PUSH20 0xFFFFFFFFFFFFFFFFFFFFFFFFFFFFFFFFFFFFFFFF AND DUP2 MSTORE PUSH1 0x20 ADD SWAP1 DUP2 MSTORE PUSH1 0x20 ADD PUSH0 KECCAK256 PUSH0 DUP3 DUP3 SLOAD ADD SWAP3 POP POP DUP2 SWAP1 SSTORE POP JUMPDEST DUP2 PUSH20 0xFFFFFFFFFFFFFFFFFFFFFFFFFFFFFFFFFFFFFFFF AND DUP4 PUSH20 0xFFFFFFFFFFFFFFFFFFFFFFFFFFFFFFFFFFFFFFFF AND PUSH32 0xDDF252AD1BE2C89B69C2B068FC378DAA952BA7F163C4A11628F55A4DF523B3EF DUP4 PUSH1 0x40 MLOAD PUSH2 0x24B2 SWAP2 SWAP1 PUSH2 0x2B62 JUMP JUMPDEST PUSH1 0x40 MLOAD DUP1 SWAP2 SUB SWAP1 LOG3 POP POP POP JUMP JUMPDEST PUSH0 PUSH26 0xFFFFFFFFFFFFFFFFFFFFFFFFFFFFFFFFFFFFFFFFFFFFFFFFFFFF DUP1 AND SWAP1 POP SWAP1 JUMP JUMPDEST PUSH0 PUSH20 0xFFFFFFFFFFFFFFFFFFFFFFFFFFFFFFFFFFFFFFFF AND DUP4 PUSH20 0xFFFFFFFFFFFFFFFFFFFFFFFFFFFFFFFFFFFFFFFF AND SUB PUSH2 0x252E JUMPI PUSH2 0x252B PUSH1 0xA PUSH2 0xD35 PUSH2 0x2526 DUP5 PUSH2 0x2188 JUMP JUMPDEST PUSH2 0x21F5 JUMP JUMPDEST POP POP JUMPDEST PUSH0 PUSH20 0xFFFFFFFFFFFFFFFFFFFFFFFFFFFFFFFFFFFFFFFF AND DUP3 PUSH20 0xFFFFFFFFFFFFFFFFFFFFFFFFFFFFFFFFFFFFFFFF AND SUB PUSH2 0x257A JUMPI PUSH2 0x2577 PUSH1 0xA PUSH2 0xD4A PUSH2 0x2572 DUP5 PUSH2 0x2188 JUMP JUMPDEST PUSH2 0x21F5 JUMP JUMPDEST POP POP JUMPDEST PUSH2 0x2595 PUSH2 0x2586 DUP5 PUSH2 0x742 JUMP JUMPDEST PUSH2 0x258F DUP5 PUSH2 0x742 JUMP JUMPDEST DUP4 PUSH2 0x18A5 JUMP JUMPDEST POP POP POP JUMP JUMPDEST PUSH0 DUP1 PUSH2 0x25A9 DUP6 PUSH0 ADD DUP6 DUP6 PUSH2 0x2603 JUMP JUMPDEST SWAP2 POP SWAP2 POP SWAP4 POP SWAP4 SWAP2 POP POP JUMP JUMPDEST PUSH0 DUP1 PUSH1 0xFF DUP4 PUSH0 SHR AND SWAP1 POP PUSH1 0x1F DUP2 GT ISZERO PUSH2 0x25FA JUMPI PUSH1 0x40 MLOAD PUSH32 0xB3512B0C00000000000000000000000000000000000000000000000000000000 DUP2 MSTORE PUSH1 0x4 ADD PUSH1 0x40 MLOAD DUP1 SWAP2 SUB SWAP1 REVERT JUMPDEST DUP1 SWAP2 POP POP SWAP2 SWAP1 POP JUMP JUMPDEST PUSH0 DUP1 PUSH0 DUP6 DUP1 SLOAD SWAP1 POP SWAP1 POP PUSH0 DUP2 GT ISZERO PUSH2 0x2883 JUMPI PUSH0 PUSH2 0x262C DUP8 PUSH1 0x1 DUP5 PUSH2 0x2627 SWAP2 SWAP1 PUSH2 0x3419 JUMP JUMPDEST PUSH2 0x180D JUMP JUMPDEST PUSH1 0x40 MLOAD DUP1 PUSH1 0x40 ADD PUSH1 0x40 MSTORE SWAP1 DUP2 PUSH0 DUP3 ADD PUSH0 SWAP1 SLOAD SWAP1 PUSH2 0x100 EXP SWAP1 DIV PUSH6 0xFFFFFFFFFFFF AND PUSH6 0xFFFFFFFFFFFF AND PUSH6 0xFFFFFFFFFFFF AND DUP2 MSTORE PUSH1 0x20 ADD PUSH0 DUP3 ADD PUSH1 0x6 SWAP1 SLOAD SWAP1 PUSH2 0x100 EXP SWAP1 DIV PUSH26 0xFFFFFFFFFFFFFFFFFFFFFFFFFFFFFFFFFFFFFFFFFFFFFFFFFFFF AND PUSH26 0xFFFFFFFFFFFFFFFFFFFFFFFFFFFFFFFFFFFFFFFFFFFFFFFFFFFF AND PUSH26 0xFFFFFFFFFFFFFFFFFFFFFFFFFFFFFFFFFFFFFFFFFFFFFFFFFFFF AND DUP2 MSTORE POP POP SWAP1 POP DUP6 PUSH6 0xFFFFFFFFFFFF AND DUP2 PUSH0 ADD MLOAD PUSH6 0xFFFFFFFFFFFF AND GT ISZERO PUSH2 0x2717 JUMPI PUSH1 0x40 MLOAD PUSH32 0x2520601D00000000000000000000000000000000000000000000000000000000 DUP2 MSTORE PUSH1 0x4 ADD PUSH1 0x40 MLOAD DUP1 SWAP2 SUB SWAP1 REVERT JUMPDEST DUP6 PUSH6 0xFFFFFFFFFFFF AND DUP2 PUSH0 ADD MLOAD PUSH6 0xFFFFFFFFFFFF AND SUB PUSH2 0x2799 JUMPI DUP5 PUSH2 0x2748 DUP9 PUSH1 0x1 DUP6 PUSH2 0x2743 SWAP2 SWAP1 PUSH2 0x3419 JUMP JUMPDEST PUSH2 0x180D JUMP JUMPDEST PUSH0 ADD PUSH1 0x6 PUSH2 0x100 EXP DUP2 SLOAD DUP2 PUSH26 0xFFFFFFFFFFFFFFFFFFFFFFFFFFFFFFFFFFFFFFFFFFFFFFFFFFFF MUL NOT AND SWAP1 DUP4 PUSH26 0xFFFFFFFFFFFFFFFFFFFFFFFFFFFFFFFFFFFFFFFFFFFFFFFFFFFF AND MUL OR SWAP1 SSTORE POP PUSH2 0x2872 JUMP JUMPDEST DUP7 PUSH1 0x40 MLOAD DUP1 PUSH1 0x40 ADD PUSH1 0x40 MSTORE DUP1 DUP9 PUSH6 0xFFFFFFFFFFFF AND DUP2 MSTORE PUSH1 0x20 ADD DUP8 PUSH26 0xFFFFFFFFFFFFFFFFFFFFFFFFFFFFFFFFFFFFFFFFFFFFFFFFFFFF AND DUP2 MSTORE POP SWAP1 DUP1 PUSH1 0x1 DUP2 SLOAD ADD DUP1 DUP3 SSTORE DUP1 SWAP2 POP POP PUSH1 0x1 SWAP1 SUB SWAP1 PUSH0 MSTORE PUSH1 0x20 PUSH0 KECCAK256 ADD PUSH0 SWAP1 SWAP2 SWAP1 SWAP2 SWAP1 SWAP2 POP PUSH0 DUP3 ADD MLOAD DUP2 PUSH0 ADD PUSH0 PUSH2 0x100 EXP DUP2 SLOAD DUP2 PUSH6 0xFFFFFFFFFFFF MUL NOT AND SWAP1 DUP4 PUSH6 0xFFFFFFFFFFFF AND MUL OR SWAP1 SSTORE POP PUSH1 0x20 DUP3 ADD MLOAD DUP2 PUSH0 ADD PUSH1 0x6 PUSH2 0x100 EXP DUP2 SLOAD DUP2 PUSH26 0xFFFFFFFFFFFFFFFFFFFFFFFFFFFFFFFFFFFFFFFFFFFFFFFFFFFF MUL NOT AND SWAP1 DUP4 PUSH26 0xFFFFFFFFFFFFFFFFFFFFFFFFFFFFFFFFFFFFFFFFFFFFFFFFFFFF AND MUL OR SWAP1 SSTORE POP POP POP JUMPDEST DUP1 PUSH1 0x20 ADD MLOAD DUP6 SWAP4 POP SWAP4 POP POP POP PUSH2 0x2963 JUMP JUMPDEST DUP6 PUSH1 0x40 MLOAD DUP1 PUSH1 0x40 ADD PUSH1 0x40 MSTORE DUP1 DUP8 PUSH6 0xFFFFFFFFFFFF AND DUP2 MSTORE PUSH1 0x20 ADD DUP7 PUSH26 0xFFFFFFFFFFFFFFFFFFFFFFFFFFFFFFFFFFFFFFFFFFFFFFFFFFFF AND DUP2 MSTORE POP SWAP1 DUP1 PUSH1 0x1 DUP2 SLOAD ADD DUP1 DUP3 SSTORE DUP1 SWAP2 POP POP PUSH1 0x1 SWAP1 SUB SWAP1 PUSH0 MSTORE PUSH1 0x20 PUSH0 KECCAK256 ADD PUSH0 SWAP1 SWAP2 SWAP1 SWAP2 SWAP1 SWAP2 POP PUSH0 DUP3 ADD MLOAD DUP2 PUSH0 ADD PUSH0 PUSH2 0x100 EXP DUP2 SLOAD DUP2 PUSH6 0xFFFFFFFFFFFF MUL NOT AND SWAP1 DUP4 PUSH6 0xFFFFFFFFFFFF AND MUL OR SWAP1 SSTORE POP PUSH1 0x20 DUP3 ADD MLOAD DUP2 PUSH0 ADD PUSH1 0x6 PUSH2 0x100 EXP DUP2 SLOAD DUP2 PUSH26 0xFFFFFFFFFFFFFFFFFFFFFFFFFFFFFFFFFFFFFFFFFFFFFFFFFFFF MUL NOT AND SWAP1 DUP4 PUSH26 0xFFFFFFFFFFFFFFFFFFFFFFFFFFFFFFFFFFFFFFFFFFFFFFFFFFFF AND MUL OR SWAP1 SSTORE POP POP POP PUSH0 DUP5 SWAP3 POP SWAP3 POP POP JUMPDEST SWAP4 POP SWAP4 SWAP2 POP POP JUMP JUMPDEST PUSH1 0x40 MLOAD DUP1 PUSH1 0x40 ADD PUSH1 0x40 MSTORE DUP1 PUSH0 PUSH6 0xFFFFFFFFFFFF AND DUP2 MSTORE PUSH1 0x20 ADD PUSH0 PUSH26 0xFFFFFFFFFFFFFFFFFFFFFFFFFFFFFFFFFFFFFFFFFFFFFFFFFFFF AND DUP2 MSTORE POP SWAP1 JUMP JUMPDEST PUSH0 DUP2 MLOAD SWAP1 POP SWAP2 SWAP1 POP JUMP JUMPDEST PUSH0 DUP3 DUP3 MSTORE PUSH1 0x20 DUP3 ADD SWAP1 POP SWAP3 SWAP2 POP POP JUMP JUMPDEST PUSH0 JUMPDEST DUP4 DUP2 LT ISZERO PUSH2 0x29DE JUMPI DUP1 DUP3 ADD MLOAD DUP2 DUP5 ADD MSTORE PUSH1 0x20 DUP2 ADD SWAP1 POP PUSH2 0x29C3 JUMP JUMPDEST PUSH0 DUP5 DUP5 ADD MSTORE POP POP POP POP JUMP JUMPDEST PUSH0 PUSH1 0x1F NOT PUSH1 0x1F DUP4 ADD AND SWAP1 POP SWAP2 SWAP1 POP JUMP JUMPDEST PUSH0 PUSH2 0x2A03 DUP3 PUSH2 0x29A7 JUMP JUMPDEST PUSH2 0x2A0D DUP2 DUP6 PUSH2 0x29B1 JUMP JUMPDEST SWAP4 POP PUSH2 0x2A1D DUP2 DUP6 PUSH1 0x20 DUP7 ADD PUSH2 0x29C1 JUMP JUMPDEST PUSH2 0x2A26 DUP2 PUSH2 0x29E9 JUMP JUMPDEST DUP5 ADD SWAP2 POP POP SWAP3 SWAP2 POP POP JUMP JUMPDEST PUSH0 PUSH1 0x20 DUP3 ADD SWAP1 POP DUP2 DUP2 SUB PUSH0 DUP4 ADD MSTORE PUSH2 0x2A49 DUP2 DUP5 PUSH2 0x29F9 JUMP JUMPDEST SWAP1 POP SWAP3 SWAP2 POP POP JUMP JUMPDEST PUSH0 DUP1 REVERT JUMPDEST PUSH0 PUSH20 0xFFFFFFFFFFFFFFFFFFFFFFFFFFFFFFFFFFFFFFFF DUP3 AND SWAP1 POP SWAP2 SWAP1 POP JUMP JUMPDEST PUSH0 PUSH2 0x2A7E DUP3 PUSH2 0x2A55 JUMP JUMPDEST SWAP1 POP SWAP2 SWAP1 POP JUMP JUMPDEST PUSH2 0x2A8E DUP2 PUSH2 0x2A74 JUMP JUMPDEST DUP2 EQ PUSH2 0x2A98 JUMPI PUSH0 DUP1 REVERT JUMPDEST POP JUMP JUMPDEST PUSH0 DUP2 CALLDATALOAD SWAP1 POP PUSH2 0x2AA9 DUP2 PUSH2 0x2A85 JUMP JUMPDEST SWAP3 SWAP2 POP POP JUMP JUMPDEST PUSH0 DUP2 SWAP1 POP SWAP2 SWAP1 POP JUMP JUMPDEST PUSH2 0x2AC1 DUP2 PUSH2 0x2AAF JUMP JUMPDEST DUP2 EQ PUSH2 0x2ACB JUMPI PUSH0 DUP1 REVERT JUMPDEST POP JUMP JUMPDEST PUSH0 DUP2 CALLDATALOAD SWAP1 POP PUSH2 0x2ADC DUP2 PUSH2 0x2AB8 JUMP JUMPDEST SWAP3 SWAP2 POP POP JUMP JUMPDEST PUSH0 DUP1 PUSH1 0x40 DUP4 DUP6 SUB SLT ISZERO PUSH2 0x2AF8 JUMPI PUSH2 0x2AF7 PUSH2 0x2A51 JUMP JUMPDEST JUMPDEST PUSH0 PUSH2 0x2B05 DUP6 DUP3 DUP7 ADD PUSH2 0x2A9B JUMP JUMPDEST SWAP3 POP POP PUSH1 0x20 PUSH2 0x2B16 DUP6 DUP3 DUP7 ADD PUSH2 0x2ACE JUMP JUMPDEST SWAP2 POP POP SWAP3 POP SWAP3 SWAP1 POP JUMP JUMPDEST PUSH0 DUP2 ISZERO ISZERO SWAP1 POP SWAP2 SWAP1 POP JUMP JUMPDEST PUSH2 0x2B34 DUP2 PUSH2 0x2B20 JUMP JUMPDEST DUP3 MSTORE POP POP JUMP JUMPDEST PUSH0 PUSH1 0x20 DUP3 ADD SWAP1 POP PUSH2 0x2B4D PUSH0 DUP4 ADD DUP5 PUSH2 0x2B2B JUMP JUMPDEST SWAP3 SWAP2 POP POP JUMP JUMPDEST PUSH2 0x2B5C DUP2 PUSH2 0x2AAF JUMP JUMPDEST DUP3 MSTORE POP POP JUMP JUMPDEST PUSH0 PUSH1 0x20 DUP3 ADD SWAP1 POP PUSH2 0x2B75 PUSH0 DUP4 ADD DUP5 PUSH2 0x2B53 JUMP JUMPDEST SWAP3 SWAP2 POP POP JUMP JUMPDEST PUSH0 DUP1 PUSH0 PUSH1 0x60 DUP5 DUP7 SUB SLT ISZERO PUSH2 0x2B92 JUMPI PUSH2 0x2B91 PUSH2 0x2A51 JUMP JUMPDEST JUMPDEST PUSH0 PUSH2 0x2B9F DUP7 DUP3 DUP8 ADD PUSH2 0x2A9B JUMP JUMPDEST SWAP4 POP POP PUSH1 0x20 PUSH2 0x2BB0 DUP7 DUP3 DUP8 ADD PUSH2 0x2A9B JUMP JUMPDEST SWAP3 POP POP PUSH1 0x40 PUSH2 0x2BC1 DUP7 DUP3 DUP8 ADD PUSH2 0x2ACE JUMP JUMPDEST SWAP2 POP POP SWAP3 POP SWAP3 POP SWAP3 JUMP JUMPDEST PUSH0 PUSH1 0xFF DUP3 AND SWAP1 POP SWAP2 SWAP1 POP JUMP JUMPDEST PUSH2 0x2BE0 DUP2 PUSH2 0x2BCB JUMP JUMPDEST DUP3 MSTORE POP POP JUMP JUMPDEST PUSH0 PUSH1 0x20 DUP3 ADD SWAP1 POP PUSH2 0x2BF9 PUSH0 DUP4 ADD DUP5 PUSH2 0x2BD7 JUMP JUMPDEST SWAP3 SWAP2 POP POP JUMP JUMPDEST PUSH0 DUP2 SWAP1 POP SWAP2 SWAP1 POP JUMP JUMPDEST PUSH2 0x2C11 DUP2 PUSH2 0x2BFF JUMP JUMPDEST DUP3 MSTORE POP POP JUMP JUMPDEST PUSH0 PUSH1 0x20 DUP3 ADD SWAP1 POP PUSH2 0x2C2A PUSH0 DUP4 ADD DUP5 PUSH2 0x2C08 JUMP JUMPDEST SWAP3 SWAP2 POP POP JUMP JUMPDEST PUSH0 PUSH1 0x20 DUP3 DUP5 SUB SLT ISZERO PUSH2 0x2C45 JUMPI PUSH2 0x2C44 PUSH2 0x2A51 JUMP JUMPDEST JUMPDEST PUSH0 PUSH2 0x2C52 DUP5 DUP3 DUP6 ADD PUSH2 0x2A9B JUMP JUMPDEST SWAP2 POP POP SWAP3 SWAP2 POP POP JUMP JUMPDEST PUSH2 0x2C64 DUP2 PUSH2 0x2A74 JUMP JUMPDEST DUP3 MSTORE POP POP JUMP JUMPDEST PUSH0 PUSH1 0x20 DUP3 ADD SWAP1 POP PUSH2 0x2C7D PUSH0 DUP4 ADD DUP5 PUSH2 0x2C5B JUMP JUMPDEST SWAP3 SWAP2 POP POP JUMP JUMPDEST PUSH0 PUSH4 0xFFFFFFFF DUP3 AND SWAP1 POP SWAP2 SWAP1 POP JUMP JUMPDEST PUSH2 0x2C9B DUP2 PUSH2 0x2C83 JUMP JUMPDEST DUP3 MSTORE POP POP JUMP JUMPDEST PUSH0 PUSH1 0x20 DUP3 ADD SWAP1 POP PUSH2 0x2CB4 PUSH0 DUP4 ADD DUP5 PUSH2 0x2C92 JUMP JUMPDEST SWAP3 SWAP2 POP POP JUMP JUMPDEST PUSH0 PUSH32 0xFF00000000000000000000000000000000000000000000000000000000000000 DUP3 AND SWAP1 POP SWAP2 SWAP1 POP JUMP JUMPDEST PUSH2 0x2CEE DUP2 PUSH2 0x2CBA JUMP JUMPDEST DUP3 MSTORE POP POP JUMP JUMPDEST PUSH0 DUP2 MLOAD SWAP1 POP SWAP2 SWAP1 POP JUMP JUMPDEST PUSH0 DUP3 DUP3 MSTORE PUSH1 0x20 DUP3 ADD SWAP1 POP SWAP3 SWAP2 POP POP JUMP JUMPDEST PUSH0 DUP2 SWAP1 POP PUSH1 0x20 DUP3 ADD SWAP1 POP SWAP2 SWAP1 POP JUMP JUMPDEST PUSH2 0x2D26 DUP2 PUSH2 0x2AAF JUMP JUMPDEST DUP3 MSTORE POP POP JUMP JUMPDEST PUSH0 PUSH2 0x2D37 DUP4 DUP4 PUSH2 0x2D1D JUMP JUMPDEST PUSH1 0x20 DUP4 ADD SWAP1 POP SWAP3 SWAP2 POP POP JUMP JUMPDEST PUSH0 PUSH1 0x20 DUP3 ADD SWAP1 POP SWAP2 SWAP1 POP JUMP JUMPDEST PUSH0 PUSH2 0x2D59 DUP3 PUSH2 0x2CF4 JUMP JUMPDEST PUSH2 0x2D63 DUP2 DUP6 PUSH2 0x2CFE JUMP JUMPDEST SWAP4 POP PUSH2 0x2D6E DUP4 PUSH2 0x2D0E JUMP JUMPDEST DUP1 PUSH0 JUMPDEST DUP4 DUP2 LT ISZERO PUSH2 0x2D9E JUMPI DUP2 MLOAD PUSH2 0x2D85 DUP9 DUP3 PUSH2 0x2D2C JUMP JUMPDEST SWAP8 POP PUSH2 0x2D90 DUP4 PUSH2 0x2D43 JUMP JUMPDEST SWAP3 POP POP PUSH1 0x1 DUP2 ADD SWAP1 POP PUSH2 0x2D71 JUMP JUMPDEST POP DUP6 SWAP4 POP POP POP POP SWAP3 SWAP2 POP POP JUMP JUMPDEST PUSH0 PUSH1 0xE0 DUP3 ADD SWAP1 POP PUSH2 0x2DBE PUSH0 DUP4 ADD DUP11 PUSH2 0x2CE5 JUMP JUMPDEST DUP2 DUP2 SUB PUSH1 0x20 DUP4 ADD MSTORE PUSH2 0x2DD0 DUP2 DUP10 PUSH2 0x29F9 JUMP JUMPDEST SWAP1 POP DUP2 DUP2 SUB PUSH1 0x40 DUP4 ADD MSTORE PUSH2 0x2DE4 DUP2 DUP9 PUSH2 0x29F9 JUMP JUMPDEST SWAP1 POP PUSH2 0x2DF3 PUSH1 0x60 DUP4 ADD DUP8 PUSH2 0x2B53 JUMP JUMPDEST PUSH2 0x2E00 PUSH1 0x80 DUP4 ADD DUP7 PUSH2 0x2C5B JUMP JUMPDEST PUSH2 0x2E0D PUSH1 0xA0 DUP4 ADD DUP6 PUSH2 0x2C08 JUMP JUMPDEST DUP2 DUP2 SUB PUSH1 0xC0 DUP4 ADD MSTORE PUSH2 0x2E1F DUP2 DUP5 PUSH2 0x2D4F JUMP JUMPDEST SWAP1 POP SWAP9 SWAP8 POP POP POP POP POP POP POP POP JUMP JUMPDEST PUSH0 PUSH1 0x20 DUP3 DUP5 SUB SLT ISZERO PUSH2 0x2E42 JUMPI PUSH2 0x2E41 PUSH2 0x2A51 JUMP JUMPDEST JUMPDEST PUSH0 PUSH2 0x2E4F DUP5 DUP3 DUP6 ADD PUSH2 0x2ACE JUMP JUMPDEST SWAP2 POP POP SWAP3 SWAP2 POP POP JUMP JUMPDEST PUSH0 PUSH6 0xFFFFFFFFFFFF DUP3 AND SWAP1 POP SWAP2 SWAP1 POP JUMP JUMPDEST PUSH2 0x2E72 DUP2 PUSH2 0x2E58 JUMP JUMPDEST DUP3 MSTORE POP POP JUMP JUMPDEST PUSH0 PUSH1 0x20 DUP3 ADD SWAP1 POP PUSH2 0x2E8B PUSH0 DUP4 ADD DUP5 PUSH2 0x2E69 JUMP JUMPDEST SWAP3 SWAP2 POP POP JUMP JUMPDEST PUSH2 0x2E9A DUP2 PUSH2 0x2BCB JUMP JUMPDEST DUP2 EQ PUSH2 0x2EA4 JUMPI PUSH0 DUP1 REVERT JUMPDEST POP JUMP JUMPDEST PUSH0 DUP2 CALLDATALOAD SWAP1 POP PUSH2 0x2EB5 DUP2 PUSH2 0x2E91 JUMP JUMPDEST SWAP3 SWAP2 POP POP JUMP JUMPDEST PUSH2 0x2EC4 DUP2 PUSH2 0x2BFF JUMP JUMPDEST DUP2 EQ PUSH2 0x2ECE JUMPI PUSH0 DUP1 REVERT JUMPDEST POP JUMP JUMPDEST PUSH0 DUP2 CALLDATALOAD SWAP1 POP PUSH2 0x2EDF DUP2 PUSH2 0x2EBB JUMP JUMPDEST SWAP3 SWAP2 POP POP JUMP JUMPDEST PUSH0 DUP1 PUSH0 DUP1 PUSH0 DUP1 PUSH1 0xC0 DUP8 DUP10 SUB SLT ISZERO PUSH2 0x2EFF JUMPI PUSH2 0x2EFE PUSH2 0x2A51 JUMP JUMPDEST JUMPDEST PUSH0 PUSH2 0x2F0C DUP10 DUP3 DUP11 ADD PUSH2 0x2A9B JUMP JUMPDEST SWAP7 POP POP PUSH1 0x20 PUSH2 0x2F1D DUP10 DUP3 DUP11 ADD PUSH2 0x2ACE JUMP JUMPDEST SWAP6 POP POP PUSH1 0x40 PUSH2 0x2F2E DUP10 DUP3 DUP11 ADD PUSH2 0x2ACE JUMP JUMPDEST SWAP5 POP POP PUSH1 0x60 PUSH2 0x2F3F DUP10 DUP3 DUP11 ADD PUSH2 0x2EA7 JUMP JUMPDEST SWAP4 POP POP PUSH1 0x80 PUSH2 0x2F50 DUP10 DUP3 DUP11 ADD PUSH2 0x2ED1 JUMP JUMPDEST SWAP3 POP POP PUSH1 0xA0 PUSH2 0x2F61 DUP10 DUP3 DUP11 ADD PUSH2 0x2ED1 JUMP JUMPDEST SWAP2 POP POP SWAP3 SWAP6 POP SWAP3 SWAP6 POP SWAP3 SWAP6 JUMP JUMPDEST PUSH0 DUP1 PUSH0 DUP1 PUSH0 DUP1 PUSH0 PUSH1 0xE0 DUP9 DUP11 SUB SLT ISZERO PUSH2 0x2F89 JUMPI PUSH2 0x2F88 PUSH2 0x2A51 JUMP JUMPDEST JUMPDEST PUSH0 PUSH2 0x2F96 DUP11 DUP3 DUP12 ADD PUSH2 0x2A9B JUMP JUMPDEST SWAP8 POP POP PUSH1 0x20 PUSH2 0x2FA7 DUP11 DUP3 DUP12 ADD PUSH2 0x2A9B JUMP JUMPDEST SWAP7 POP POP PUSH1 0x40 PUSH2 0x2FB8 DUP11 DUP3 DUP12 ADD PUSH2 0x2ACE JUMP JUMPDEST SWAP6 POP POP PUSH1 0x60 PUSH2 0x2FC9 DUP11 DUP3 DUP12 ADD PUSH2 0x2ACE JUMP JUMPDEST SWAP5 POP POP PUSH1 0x80 PUSH2 0x2FDA DUP11 DUP3 DUP12 ADD PUSH2 0x2EA7 JUMP JUMPDEST SWAP4 POP POP PUSH1 0xA0 PUSH2 0x2FEB DUP11 DUP3 DUP12 ADD PUSH2 0x2ED1 JUMP JUMPDEST SWAP3 POP POP PUSH1 0xC0 PUSH2 0x2FFC DUP11 DUP3 DUP12 ADD PUSH2 0x2ED1 JUMP JUMPDEST SWAP2 POP POP SWAP3 SWAP6 SWAP9 SWAP2 SWAP5 SWAP8 POP SWAP3 SWAP6 POP JUMP JUMPDEST PUSH0 DUP1 PUSH1 0x40 DUP4 DUP6 SUB SLT ISZERO PUSH2 0x3021 JUMPI PUSH2 0x3020 PUSH2 0x2A51 JUMP JUMPDEST JUMPDEST PUSH0 PUSH2 0x302E DUP6 DUP3 DUP7 ADD PUSH2 0x2A9B JUMP JUMPDEST SWAP3 POP POP PUSH1 0x20 PUSH2 0x303F DUP6 DUP3 DUP7 ADD PUSH2 0x2A9B JUMP JUMPDEST SWAP2 POP POP SWAP3 POP SWAP3 SWAP1 POP JUMP JUMPDEST PUSH2 0x3052 DUP2 PUSH2 0x2C83 JUMP JUMPDEST DUP2 EQ PUSH2 0x305C JUMPI PUSH0 DUP1 REVERT JUMPDEST POP JUMP JUMPDEST PUSH0 DUP2 CALLDATALOAD SWAP1 POP PUSH2 0x306D DUP2 PUSH2 0x3049 JUMP JUMPDEST SWAP3 SWAP2 POP POP JUMP JUMPDEST PUSH0 DUP1 PUSH1 0x40 DUP4 DUP6 SUB SLT ISZERO PUSH2 0x3089 JUMPI PUSH2 0x3088 PUSH2 0x2A51 JUMP JUMPDEST JUMPDEST PUSH0 PUSH2 0x3096 DUP6 DUP3 DUP7 ADD PUSH2 0x2A9B JUMP JUMPDEST SWAP3 POP POP PUSH1 0x20 PUSH2 0x30A7 DUP6 DUP3 DUP7 ADD PUSH2 0x305F JUMP JUMPDEST SWAP2 POP POP SWAP3 POP SWAP3 SWAP1 POP JUMP JUMPDEST PUSH2 0x30BA DUP2 PUSH2 0x2E58 JUMP JUMPDEST DUP3 MSTORE POP POP JUMP JUMPDEST PUSH0 PUSH26 0xFFFFFFFFFFFFFFFFFFFFFFFFFFFFFFFFFFFFFFFFFFFFFFFFFFFF DUP3 AND SWAP1 POP SWAP2 SWAP1 POP JUMP JUMPDEST PUSH2 0x30EE DUP2 PUSH2 0x30C0 JUMP JUMPDEST DUP3 MSTORE POP POP JUMP JUMPDEST PUSH1 0x40 DUP3 ADD PUSH0 DUP3 ADD MLOAD PUSH2 0x3108 PUSH0 DUP6 ADD DUP3 PUSH2 0x30B1 JUMP JUMPDEST POP PUSH1 0x20 DUP3 ADD MLOAD PUSH2 0x311B PUSH1 0x20 DUP6 ADD DUP3 PUSH2 0x30E5 JUMP JUMPDEST POP POP POP POP JUMP JUMPDEST PUSH0 PUSH1 0x40 DUP3 ADD SWAP1 POP PUSH2 0x3134 PUSH0 DUP4 ADD DUP5 PUSH2 0x30F4 JUMP JUMPDEST SWAP3 SWAP2 POP POP JUMP JUMPDEST PUSH32 0x4E487B7100000000000000000000000000000000000000000000000000000000 PUSH0 MSTORE PUSH1 0x22 PUSH1 0x4 MSTORE PUSH1 0x24 PUSH0 REVERT JUMPDEST PUSH0 PUSH1 0x2 DUP3 DIV SWAP1 POP PUSH1 0x1 DUP3 AND DUP1 PUSH2 0x317E JUMPI PUSH1 0x7F DUP3 AND SWAP2 POP JUMPDEST PUSH1 0x20 DUP3 LT DUP2 SUB PUSH2 0x3191 JUMPI PUSH2 0x3190 PUSH2 0x313A JUMP JUMPDEST JUMPDEST POP SWAP2 SWAP1 POP JUMP JUMPDEST PUSH0 PUSH1 0x40 DUP3 ADD SWAP1 POP PUSH2 0x31AA PUSH0 DUP4 ADD DUP6 PUSH2 0x2B53 JUMP JUMPDEST PUSH2 0x31B7 PUSH1 0x20 DUP4 ADD DUP5 PUSH2 0x2E69 JUMP JUMPDEST SWAP4 SWAP3 POP POP POP JUMP JUMPDEST PUSH32 0x4E487B7100000000000000000000000000000000000000000000000000000000 PUSH0 MSTORE PUSH1 0x41 PUSH1 0x4 MSTORE PUSH1 0x24 PUSH0 REVERT JUMPDEST PUSH0 PUSH1 0x80 DUP3 ADD SWAP1 POP PUSH2 0x31FE PUSH0 DUP4 ADD DUP8 PUSH2 0x2C08 JUMP JUMPDEST PUSH2 0x320B PUSH1 0x20 DUP4 ADD DUP7 PUSH2 0x2C5B JUMP JUMPDEST PUSH2 0x3218 PUSH1 0x40 DUP4 ADD DUP6 PUSH2 0x2B53 JUMP JUMPDEST PUSH2 0x3225 PUSH1 0x60 DUP4 ADD DUP5 PUSH2 0x2B53 JUMP JUMPDEST SWAP6 SWAP5 POP POP POP POP POP JUMP JUMPDEST PUSH0 PUSH1 0xC0 DUP3 ADD SWAP1 POP PUSH2 0x3241 PUSH0 DUP4 ADD DUP10 PUSH2 0x2C08 JUMP JUMPDEST PUSH2 0x324E PUSH1 0x20 DUP4 ADD DUP9 PUSH2 0x2C5B JUMP JUMPDEST PUSH2 0x325B PUSH1 0x40 DUP4 ADD DUP8 PUSH2 0x2C5B JUMP JUMPDEST PUSH2 0x3268 PUSH1 0x60 DUP4 ADD DUP7 PUSH2 0x2B53 JUMP JUMPDEST PUSH2 0x3275 PUSH1 0x80 DUP4 ADD DUP6 PUSH2 0x2B53 JUMP JUMPDEST PUSH2 0x3282 PUSH1 0xA0 DUP4 ADD DUP5 PUSH2 0x2B53 JUMP JUMPDEST SWAP8 SWAP7 POP POP POP POP POP POP POP JUMP JUMPDEST PUSH0 PUSH1 0x40 DUP3 ADD SWAP1 POP PUSH2 0x32A0 PUSH0 DUP4 ADD DUP6 PUSH2 0x2C5B JUMP JUMPDEST PUSH2 0x32AD PUSH1 0x20 DUP4 ADD DUP5 PUSH2 0x2C5B JUMP JUMPDEST SWAP4 SWAP3 POP POP POP JUMP JUMPDEST PUSH32 0x4E487B7100000000000000000000000000000000000000000000000000000000 PUSH0 MSTORE PUSH1 0x11 PUSH1 0x4 MSTORE PUSH1 0x24 PUSH0 REVERT JUMPDEST PUSH0 PUSH2 0x32EB DUP3 PUSH2 0x30C0 JUMP JUMPDEST SWAP2 POP PUSH2 0x32F6 DUP4 PUSH2 0x30C0 JUMP JUMPDEST SWAP3 POP DUP3 DUP3 ADD SWAP1 POP PUSH26 0xFFFFFFFFFFFFFFFFFFFFFFFFFFFFFFFFFFFFFFFFFFFFFFFFFFFF DUP2 GT ISZERO PUSH2 0x3328 JUMPI PUSH2 0x3327 PUSH2 0x32B4 JUMP JUMPDEST JUMPDEST SWAP3 SWAP2 POP POP JUMP JUMPDEST PUSH0 PUSH2 0x3338 DUP3 PUSH2 0x30C0 JUMP JUMPDEST SWAP2 POP PUSH2 0x3343 DUP4 PUSH2 0x30C0 JUMP JUMPDEST SWAP3 POP DUP3 DUP3 SUB SWAP1 POP PUSH26 0xFFFFFFFFFFFFFFFFFFFFFFFFFFFFFFFFFFFFFFFFFFFFFFFFFFFF DUP2 GT ISZERO PUSH2 0x3375 JUMPI PUSH2 0x3374 PUSH2 0x32B4 JUMP JUMPDEST JUMPDEST SWAP3 SWAP2 POP POP JUMP JUMPDEST PUSH0 PUSH1 0x60 DUP3 ADD SWAP1 POP PUSH2 0x338E PUSH0 DUP4 ADD DUP7 PUSH2 0x2C5B JUMP JUMPDEST PUSH2 0x339B PUSH1 0x20 DUP4 ADD DUP6 PUSH2 0x2B53 JUMP JUMPDEST PUSH2 0x33A8 PUSH1 0x40 DUP4 ADD DUP5 PUSH2 0x2B53 JUMP JUMPDEST SWAP5 SWAP4 POP POP POP POP JUMP JUMPDEST PUSH0 DUP2 SWAP1 POP SWAP2 SWAP1 POP JUMP JUMPDEST PUSH0 DUP2 SWAP1 POP SWAP2 SWAP1 POP JUMP JUMPDEST PUSH0 PUSH2 0x33DC PUSH2 0x33D7 PUSH2 0x33D2 DUP5 PUSH2 0x33B0 JUMP JUMPDEST PUSH2 0x33B9 JUMP JUMPDEST PUSH2 0x2BCB JUMP JUMPDEST SWAP1 POP SWAP2 SWAP1 POP JUMP JUMPDEST PUSH2 0x33EC DUP2 PUSH2 0x33C2 JUMP JUMPDEST DUP3 MSTORE POP POP JUMP JUMPDEST PUSH0 PUSH1 0x40 DUP3 ADD SWAP1 POP PUSH2 0x3405 PUSH0 DUP4 ADD DUP6 PUSH2 0x33E3 JUMP JUMPDEST PUSH2 0x3412 PUSH1 0x20 DUP4 ADD DUP5 PUSH2 0x2B53 JUMP JUMPDEST SWAP4 SWAP3 POP POP POP JUMP JUMPDEST PUSH0 PUSH2 0x3423 DUP3 PUSH2 0x2AAF JUMP JUMPDEST SWAP2 POP PUSH2 0x342E DUP4 PUSH2 0x2AAF JUMP JUMPDEST SWAP3 POP DUP3 DUP3 SUB SWAP1 POP DUP2 DUP2 GT ISZERO PUSH2 0x3446 JUMPI PUSH2 0x3445 PUSH2 0x32B4 JUMP JUMPDEST JUMPDEST SWAP3 SWAP2 POP POP JUMP JUMPDEST PUSH0 PUSH2 0x3456 DUP3 PUSH2 0x2AAF JUMP JUMPDEST SWAP2 POP PUSH2 0x3461 DUP4 PUSH2 0x2AAF JUMP JUMPDEST SWAP3 POP DUP3 DUP3 ADD SWAP1 POP DUP1 DUP3 GT ISZERO PUSH2 0x3479 JUMPI PUSH2 0x3478 PUSH2 0x32B4 JUMP JUMPDEST JUMPDEST SWAP3 SWAP2 POP POP JUMP JUMPDEST PUSH0 PUSH1 0x40 DUP3 ADD SWAP1 POP PUSH2 0x3492 PUSH0 DUP4 ADD DUP6 PUSH2 0x2C5B JUMP JUMPDEST PUSH2 0x349F PUSH1 0x20 DUP4 ADD DUP5 PUSH2 0x2B53 JUMP JUMPDEST SWAP4 SWAP3 POP POP POP JUMP JUMPDEST PUSH0 PUSH1 0xA0 DUP3 ADD SWAP1 POP PUSH2 0x34B9 PUSH0 DUP4 ADD DUP9 PUSH2 0x2C08 JUMP JUMPDEST PUSH2 0x34C6 PUSH1 0x20 DUP4 ADD DUP8 PUSH2 0x2C08 JUMP JUMPDEST PUSH2 0x34D3 PUSH1 0x40 DUP4 ADD DUP7 PUSH2 0x2C08 JUMP JUMPDEST PUSH2 0x34E0 PUSH1 0x60 DUP4 ADD DUP6 PUSH2 0x2B53 JUMP JUMPDEST PUSH2 0x34ED PUSH1 0x80 DUP4 ADD DUP5 PUSH2 0x2C5B JUMP JUMPDEST SWAP7 SWAP6 POP POP POP POP POP POP JUMP JUMPDEST PUSH32 0x4E487B7100000000000000000000000000000000000000000000000000000000 PUSH0 MSTORE PUSH1 0x12 PUSH1 0x4 MSTORE PUSH1 0x24 PUSH0 REVERT JUMPDEST PUSH0 PUSH1 0x40 DUP3 ADD SWAP1 POP PUSH2 0x3537 PUSH0 DUP4 ADD DUP6 PUSH2 0x2B53 JUMP JUMPDEST PUSH2 0x3544 PUSH1 0x20 DUP4 ADD DUP5 PUSH2 0x2B53 JUMP JUMPDEST SWAP4 SWAP3 POP POP POP JUMP JUMPDEST PUSH0 DUP2 SWAP1 POP SWAP2 SWAP1 POP JUMP JUMPDEST PUSH0 PUSH2 0x356E PUSH2 0x3569 PUSH2 0x3564 DUP5 PUSH2 0x354B JUMP JUMPDEST PUSH2 0x33B9 JUMP JUMPDEST PUSH2 0x2BCB JUMP JUMPDEST SWAP1 POP SWAP2 SWAP1 POP JUMP JUMPDEST PUSH2 0x357E DUP2 PUSH2 0x3554 JUMP JUMPDEST DUP3 MSTORE POP POP JUMP JUMPDEST PUSH0 PUSH1 0x40 DUP3 ADD SWAP1 POP PUSH2 0x3597 PUSH0 DUP4 ADD DUP6 PUSH2 0x3575 JUMP JUMPDEST PUSH2 0x35A4 PUSH1 0x20 DUP4 ADD DUP5 PUSH2 0x2B53 JUMP JUMPDEST SWAP4 SWAP3 POP POP POP JUMP JUMPDEST PUSH0 PUSH1 0x80 DUP3 ADD SWAP1 POP PUSH2 0x35BE PUSH0 DUP4 ADD DUP8 PUSH2 0x2C08 JUMP JUMPDEST PUSH2 0x35CB PUSH1 0x20 DUP4 ADD DUP7 PUSH2 0x2BD7 JUMP JUMPDEST PUSH2 0x35D8 PUSH1 0x40 DUP4 ADD DUP6 PUSH2 0x2C08 JUMP JUMPDEST PUSH2 0x35E5 PUSH1 0x60 DUP4 ADD DUP5 PUSH2 0x2C08 JUMP JUMPDEST SWAP6 SWAP5 POP POP POP POP POP JUMP JUMPDEST PUSH32 0x4E487B7100000000000000000000000000000000000000000000000000000000 PUSH0 MSTORE PUSH1 0x21 PUSH1 0x4 MSTORE PUSH1 0x24 PUSH0 REVERT JUMPDEST PUSH32 0x4E487B7100000000000000000000000000000000000000000000000000000000 PUSH0 MSTORE PUSH1 0x32 PUSH1 0x4 MSTORE PUSH1 0x24 PUSH0 REVERT JUMPDEST PUSH0 PUSH2 0x3652 DUP3 PUSH2 0x2AAF JUMP JUMPDEST SWAP2 POP PUSH2 0x365D DUP4 PUSH2 0x2AAF JUMP JUMPDEST SWAP3 POP DUP3 PUSH2 0x366D JUMPI PUSH2 0x366C PUSH2 0x34F7 JUMP JUMPDEST JUMPDEST DUP3 DUP3 DIV SWAP1 POP SWAP3 SWAP2 POP POP JUMP JUMPDEST PUSH0 DUP2 SWAP1 POP SWAP2 SWAP1 POP JUMP JUMPDEST PUSH0 PUSH2 0x369B PUSH2 0x3696 PUSH2 0x3691 DUP5 PUSH2 0x3678 JUMP JUMPDEST PUSH2 0x33B9 JUMP JUMPDEST PUSH2 0x2BCB JUMP JUMPDEST SWAP1 POP SWAP2 SWAP1 POP JUMP JUMPDEST PUSH2 0x36AB DUP2 PUSH2 0x3681 JUMP JUMPDEST DUP3 MSTORE POP POP JUMP JUMPDEST PUSH0 PUSH1 0x40 DUP3 ADD SWAP1 POP PUSH2 0x36C4 PUSH0 DUP4 ADD DUP6 PUSH2 0x36A2 JUMP JUMPDEST PUSH2 0x36D1 PUSH1 0x20 DUP4 ADD DUP5 PUSH2 0x2B53 JUMP JUMPDEST SWAP4 SWAP3 POP POP POP JUMP INVALID LOG2 PUSH5 0x6970667358 0x22 SLT KECCAK256 0xB3 0xB2 RETURNDATASIZE CODECOPY 0xED PUSH4 0x5E8810D1 0xD0 DELEGATECALL 0x23 0xEA 0x4D 0x1E BALANCE 0xC6 0xD6 NOT PUSH24 0x99D69D29F0A8B8A2A2280764736F6C634300081600330000 "
  },
  "Assembly": ".code\n  PUSH 160\t\t\tcontract TokenContract is ERC2...\n  PUSH 40\t\t\tcontract TokenContract is ERC2...\n  MSTORE \t\t\tcontract TokenContract is ERC2...\n  CALLVALUE \t\t\tconstructor(string memory name...\n  DUP1 \t\t\tconstructor(string memory name...\n  ISZERO \t\t\tconstructor(string memory name...\n  PUSH [tag] 1\t\t\tconstructor(string memory name...\n  JUMPI \t\t\tconstructor(string memory name...\n  PUSH 0\t\t\tconstructor(string memory name...\n  DUP1 \t\t\tconstructor(string memory name...\n  REVERT \t\t\tconstructor(string memory name...\ntag 1\t\t\tconstructor(string memory name...\n  JUMPDEST \t\t\tconstructor(string memory name...\n  POP \t\t\tconstructor(string memory name...\n  PUSH 40\t\t\tconstructor(string memory name...\n  MLOAD \t\t\tconstructor(string memory name...\n  PUSHSIZE \t\t\tconstructor(string memory name...\n  CODESIZE \t\t\tconstructor(string memory name...\n  SUB \t\t\tconstructor(string memory name...\n  DUP1 \t\t\tconstructor(string memory name...\n  PUSHSIZE \t\t\tconstructor(string memory name...\n  DUP4 \t\t\tconstructor(string memory name...\n  CODECOPY \t\t\tconstructor(string memory name...\n  DUP2 \t\t\tconstructor(string memory name...\n  DUP2 \t\t\tconstructor(string memory name...\n  ADD \t\t\tconstructor(string memory name...\n  PUSH 40\t\t\tconstructor(string memory name...\n  MSTORE \t\t\tconstructor(string memory name...\n  DUP2 \t\t\tconstructor(string memory name...\n  ADD \t\t\tconstructor(string memory name...\n  SWAP1 \t\t\tconstructor(string memory name...\n  PUSH [tag] 2\t\t\tconstructor(string memory name...\n  SWAP2 \t\t\tconstructor(string memory name...\n  SWAP1 \t\t\tconstructor(string memory name...\n  PUSH [tag] 3\t\t\tconstructor(string memory name...\n  JUMP \t\t\tconstructor(string memory name...\ntag 2\t\t\tconstructor(string memory name...\n  JUMPDEST \t\t\tconstructor(string memory name...\n  DUP3 \t\t\tname\n  DUP1 \t\t\t\n  PUSH 40\t\t\t\n  MLOAD \t\t\t\n  DUP1 \t\t\t\n  PUSH 40\t\t\t\n  ADD \t\t\t\n  PUSH 40\t\t\t\n  MSTORE \t\t\t\n  DUP1 \t\t\t\n  PUSH 1\t\t\t\n  DUP2 \t\t\t\n  MSTORE \t\t\t\n  PUSH 20\t\t\t\n  ADD \t\t\t\n  PUSH 3100000000000000000000000000000000000000000000000000000000000000\t\t\t\n  DUP2 \t\t\t\n  MSTORE \t\t\t\n  POP \t\t\t\n  DUP6 \t\t\tname\n  DUP6 \t\t\tsymbol\n  DUP2 \t\t\t\n  PUSH 3\t\t\t\n  SWAP1 \t\t\t\n  DUP2 \t\t\t\n  PUSH [tag] 9\t\t\t\n  SWAP2 \t\t\t\n  SWAP1 \t\t\t\n  PUSH [tag] 10\t\t\t\n  JUMP \t\t\t\ntag 9\t\t\t\n  JUMPDEST \t\t\t\n  POP \t\t\t\n  DUP1 \t\t\t\n  PUSH 4\t\t\t\n  SWAP1 \t\t\t\n  DUP2 \t\t\t\n  PUSH [tag] 11\t\t\t\n  SWAP2 \t\t\t\n  SWAP1 \t\t\t\n  PUSH [tag] 10\t\t\t\n  JUMP \t\t\t\ntag 11\t\t\t\n  JUMPDEST \t\t\t\n  POP \t\t\t\n  POP \t\t\t\n  POP \t\t\t\n  PUSH [tag] 13\t\t\t\n  PUSH 5\t\t\t\n  DUP4 \t\t\t\n  PUSH [tag] 14\t\t\t\n  PUSH 20\t\t\t\n  SHL \t\t\t\n  SWAP1 \t\t\t\n  SWAP2 \t\t\t\n  SWAP1 \t\t\t\n  PUSH 20\t\t\t\n  SHR \t\t\t\n  JUMP \t\t\t\ntag 13\t\t\t\n  JUMPDEST \t\t\t\n  PUSH 120\t\t\t\n  DUP2 \t\t\t\n  DUP2 \t\t\t\n  MSTORE \t\t\t\n  POP \t\t\t\n  POP \t\t\t\n  PUSH [tag] 15\t\t\t\n  PUSH 6\t\t\t\n  DUP3 \t\t\t\n  PUSH [tag] 14\t\t\t\n  PUSH 20\t\t\t\n  SHL \t\t\t\n  SWAP1 \t\t\t\n  SWAP2 \t\t\t\n  SWAP1 \t\t\t\n  PUSH 20\t\t\t\n  SHR \t\t\t\n  JUMP \t\t\t\ntag 15\t\t\t\n  JUMPDEST \t\t\t\n  PUSH 140\t\t\t\n  DUP2 \t\t\t\n  DUP2 \t\t\t\n  MSTORE \t\t\t\n  POP \t\t\t\n  POP \t\t\t\n  DUP2 \t\t\t\n  DUP1 \t\t\t\n  MLOAD \t\t\t\n  SWAP1 \t\t\t\n  PUSH 20\t\t\t\n  ADD \t\t\t\n  KECCAK256 \t\t\t\n  PUSH E0\t\t\t\n  DUP2 \t\t\t\n  DUP2 \t\t\t\n  MSTORE \t\t\t\n  POP \t\t\t\n  POP \t\t\t\n  DUP1 \t\t\t\n  DUP1 \t\t\t\n  MLOAD \t\t\t\n  SWAP1 \t\t\t\n  PUSH 20\t\t\t\n  ADD \t\t\t\n  KECCAK256 \t\t\t\n  PUSH 100\t\t\t\n  DUP2 \t\t\t\n  DUP2 \t\t\t\n  MSTORE \t\t\t\n  POP \t\t\t\n  POP \t\t\t\n  CHAINID \t\t\t\n  PUSH A0\t\t\t\n  DUP2 \t\t\t\n  DUP2 \t\t\t\n  MSTORE \t\t\t\n  POP \t\t\t\n  POP \t\t\t\n  PUSH [tag] 16\t\t\t\n  PUSH [tag] 17\t\t\t\n  PUSH 20\t\t\t\n  SHL \t\t\t\n  PUSH 20\t\t\t\n  SHR \t\t\t\n  JUMP \t\t\t\ntag 16\t\t\t\n  JUMPDEST \t\t\t\n  PUSH 80\t\t\t\n  DUP2 \t\t\t\n  DUP2 \t\t\t\n  MSTORE \t\t\t\n  POP \t\t\t\n  POP \t\t\t\n  ADDRESS \t\t\t\n  PUSH FFFFFFFFFFFFFFFFFFFFFFFFFFFFFFFFFFFFFFFF\t\t\t\n  AND \t\t\t\n  PUSH C0\t\t\t\n  DUP2 \t\t\t\n  PUSH FFFFFFFFFFFFFFFFFFFFFFFFFFFFFFFFFFFFFFFF\t\t\t\n  AND \t\t\t\n  DUP2 \t\t\t\n  MSTORE \t\t\t\n  POP \t\t\t\n  POP \t\t\t\n  POP \t\t\t\n  POP \t\t\t\n  POP \t\t\t\n  PUSH [tag] 20\t\t\t_mint(msg.sender, maxSupply)\n  CALLER \t\t\tmsg.sender\n  DUP3 \t\t\tmaxSupply\n  PUSH [tag] 21\t\t\t_mint\n  PUSH 20\t\t\t_mint\n  SHL \t\t\t_mint\n  PUSH 20\t\t\t_mint(msg.sender, maxSupply)\n  SHR \t\t\t_mint(msg.sender, maxSupply)\n  JUMP \t\t\t_mint(msg.sender, maxSupply)\ntag 20\t\t\t_mint(msg.sender, maxSupply)\n  JUMPDEST \t\t\t_mint(msg.sender, maxSupply)\n  POP \t\t\tconstructor(string memory name...\n  POP \t\t\tconstructor(string memory name...\n  POP \t\t\tconstructor(string memory name...\n  PUSH [tag] 22\t\t\tcontract TokenContract is ERC2...\n  JUMP \t\t\tcontract TokenContract is ERC2...\ntag 14\t\t\t\n  JUMPDEST \t\t\t\n  PUSH 0\t\t\t\n  PUSH 20\t\t\t\n  DUP4 \t\t\t\n  MLOAD \t\t\t\n  LT \t\t\t\n  ISZERO \t\t\t\n  PUSH [tag] 24\t\t\t\n  JUMPI \t\t\t\n  PUSH [tag] 25\t\t\t\n  DUP4 \t\t\t\n  PUSH [tag] 26\t\t\t\n  PUSH 20\t\t\t\n  SHL \t\t\t\n  PUSH 20\t\t\t\n  SHR \t\t\t\n  JUMP \t\t\t\ntag 25\t\t\t\n  JUMPDEST \t\t\t\n  SWAP1 \t\t\t\n  POP \t\t\t\n  PUSH [tag] 23\t\t\t\n  JUMP \t\t\t\ntag 24\t\t\t\n  JUMPDEST \t\t\t\n  DUP3 \t\t\t\n  PUSH [tag] 28\t\t\t\n  DUP4 \t\t\t\n  PUSH [tag] 29\t\t\t\n  PUSH 20\t\t\t\n  SHL \t\t\t\n  PUSH 20\t\t\t\n  SHR \t\t\t\n  JUMP \t\t\t\ntag 28\t\t\t\n  JUMPDEST \t\t\t\n  PUSH 0\t\t\t\n  ADD \t\t\t\n  SWAP1 \t\t\t\n  DUP2 \t\t\t\n  PUSH [tag] 30\t\t\t\n  SWAP2 \t\t\t\n  SWAP1 \t\t\t\n  PUSH [tag] 10\t\t\t\n  JUMP \t\t\t\ntag 30\t\t\t\n  JUMPDEST \t\t\t\n  POP \t\t\t\n  PUSH FF\t\t\t\n  PUSH 0\t\t\t\n  SHL \t\t\t\n  SWAP1 \t\t\t\n  POP \t\t\t\ntag 23\t\t\t\n  JUMPDEST \t\t\t\n  SWAP3 \t\t\t\n  SWAP2 \t\t\t\n  POP \t\t\t\n  POP \t\t\t\n  JUMP \t\t\t\ntag 17\t\t\t\n  JUMPDEST \t\t\t\n  PUSH 0\t\t\t\n  PUSH 8B73C3C69BB8FE3D512ECC4CF759CC79239F7B179B0FFACAA9A75D522B39400F\t\t\t\n  PUSH E0\t\t\t\n  MLOAD \t\t\t\n  PUSH 100\t\t\t\n  MLOAD \t\t\t\n  CHAINID \t\t\t\n  ADDRESS \t\t\t\n  PUSH 40\t\t\t\n  MLOAD \t\t\t\n  PUSH 20\t\t\t\n  ADD \t\t\t\n  PUSH [tag] 32\t\t\t\n  SWAP6 \t\t\t\n  SWAP5 \t\t\t\n  SWAP4 \t\t\t\n  SWAP3 \t\t\t\n  SWAP2 \t\t\t\n  SWAP1 \t\t\t\n  PUSH [tag] 33\t\t\t\n  JUMP \t\t\t\ntag 32\t\t\t\n  JUMPDEST \t\t\t\n  PUSH 40\t\t\t\n  MLOAD \t\t\t\n  PUSH 20\t\t\t\n  DUP2 \t\t\t\n  DUP4 \t\t\t\n  SUB \t\t\t\n  SUB \t\t\t\n  DUP2 \t\t\t\n  MSTORE \t\t\t\n  SWAP1 \t\t\t\n  PUSH 40\t\t\t\n  MSTORE \t\t\t\n  DUP1 \t\t\t\n  MLOAD \t\t\t\n  SWAP1 \t\t\t\n  PUSH 20\t\t\t\n  ADD \t\t\t\n  KECCAK256 \t\t\t\n  SWAP1 \t\t\t\n  POP \t\t\t\n  SWAP1 \t\t\t\n  JUMP \t\t\t\ntag 21\t\t\t\n  JUMPDEST \t\t\t\n  PUSH 0\t\t\t\n  PUSH FFFFFFFFFFFFFFFFFFFFFFFFFFFFFFFFFFFFFFFF\t\t\t\n  AND \t\t\t\n  DUP3 \t\t\t\n  PUSH FFFFFFFFFFFFFFFFFFFFFFFFFFFFFFFFFFFFFFFF\t\t\t\n  AND \t\t\t\n  SUB \t\t\t\n  PUSH [tag] 35\t\t\t\n  JUMPI \t\t\t\n  PUSH 0\t\t\t\n  PUSH 40\t\t\t\n  MLOAD \t\t\t\n  PUSH EC442F0500000000000000000000000000000000000000000000000000000000\t\t\t\n  DUP2 \t\t\t\n  MSTORE \t\t\t\n  PUSH 4\t\t\t\n  ADD \t\t\t\n  PUSH [tag] 36\t\t\t\n  SWAP2 \t\t\t\n  SWAP1 \t\t\t\n  PUSH [tag] 37\t\t\t\n  JUMP \t\t\t\ntag 36\t\t\t\n  JUMPDEST \t\t\t\n  PUSH 40\t\t\t\n  MLOAD \t\t\t\n  DUP1 \t\t\t\n  SWAP2 \t\t\t\n  SUB \t\t\t\n  SWAP1 \t\t\t\n  REVERT \t\t\t\ntag 35\t\t\t\n  JUMPDEST \t\t\t\n  PUSH [tag] 38\t\t\t\n  PUSH 0\t\t\t\n  DUP4 \t\t\t\n  DUP4 \t\t\t\n  PUSH [tag] 39\t\t\t\n  PUSH 20\t\t\t\n  SHL \t\t\t\n  PUSH 20\t\t\t\n  SHR \t\t\t\n  JUMP \t\t\t\ntag 38\t\t\t\n  JUMPDEST \t\t\t\n  POP \t\t\t\n  POP \t\t\t\n  JUMP \t\t\t\ntag 26\t\t\t\n  JUMPDEST \t\t\t\n  PUSH 0\t\t\t\n  DUP1 \t\t\t\n  DUP3 \t\t\t\n  SWAP1 \t\t\t\n  POP \t\t\t\n  PUSH 1F\t\t\t\n  DUP2 \t\t\t\n  MLOAD \t\t\t\n  GT \t\t\t\n  ISZERO \t\t\t\n  PUSH [tag] 41\t\t\t\n  JUMPI \t\t\t\n  DUP3 \t\t\t\n  PUSH 40\t\t\t\n  MLOAD \t\t\t\n  PUSH 305A27A900000000000000000000000000000000000000000000000000000000\t\t\t\n  DUP2 \t\t\t\n  MSTORE \t\t\t\n  PUSH 4\t\t\t\n  ADD \t\t\t\n  PUSH [tag] 42\t\t\t\n  SWAP2 \t\t\t\n  SWAP1 \t\t\t\n  PUSH [tag] 43\t\t\t\n  JUMP \t\t\t\ntag 42\t\t\t\n  JUMPDEST \t\t\t\n  PUSH 40\t\t\t\n  MLOAD \t\t\t\n  DUP1 \t\t\t\n  SWAP2 \t\t\t\n  SUB \t\t\t\n  SWAP1 \t\t\t\n  REVERT \t\t\t\ntag 41\t\t\t\n  JUMPDEST \t\t\t\n  DUP1 \t\t\t\n  MLOAD \t\t\t\n  DUP2 \t\t\t\n  PUSH [tag] 44\t\t\t\n  SWAP1 \t\t\t\n  PUSH [tag] 45\t\t\t\n  JUMP \t\t\t\ntag 44\t\t\t\n  JUMPDEST \t\t\t\n  PUSH 0\t\t\t\n  SHR \t\t\t\n  OR \t\t\t\n  PUSH 0\t\t\t\n  SHL \t\t\t\n  SWAP2 \t\t\t\n  POP \t\t\t\n  POP \t\t\t\n  SWAP2 \t\t\t\n  SWAP1 \t\t\t\n  POP \t\t\t\n  JUMP \t\t\t\ntag 29\t\t\t\n  JUMPDEST \t\t\t\n  PUSH 0\t\t\t\n  DUP2 \t\t\t\n  SWAP1 \t\t\t\n  POP \t\t\t\n  SWAP2 \t\t\t\n  SWAP1 \t\t\t\n  POP \t\t\t\n  JUMP \t\t\t\ntag 39\t\t\tfunction _update(address from,...\n  JUMPDEST \t\t\tfunction _update(address from,...\n  PUSH [tag] 48\t\t\tsuper._update(from, to, value)\n  DUP4 \t\t\tfrom\n  DUP4 \t\t\tto\n  DUP4 \t\t\tvalue\n  PUSH [tag] 49\t\t\tsuper._update\n  PUSH 20\t\t\tsuper._update\n  SHL \t\t\tsuper._update\n  PUSH 20\t\t\tsuper._update(from, to, value)\n  SHR \t\t\tsuper._update(from, to, value)\n  JUMP \t\t\tsuper._update(from, to, value)\ntag 48\t\t\tsuper._update(from, to, value)\n  JUMPDEST \t\t\tsuper._update(from, to, value)\n  POP \t\t\tfunction _update(address from,...\n  POP \t\t\tfunction _update(address from,...\n  POP \t\t\tfunction _update(address from,...\n  JUMP \t\t\tfunction _update(address from,...\ntag 49\t\t\t\n  JUMPDEST \t\t\t\n  PUSH [tag] 51\t\t\t\n  DUP4 \t\t\t\n  DUP4 \t\t\t\n  DUP4 \t\t\t\n  PUSH [tag] 52\t\t\t\n  PUSH 20\t\t\t\n  SHL \t\t\t\n  PUSH 20\t\t\t\n  SHR \t\t\t\n  JUMP \t\t\t\ntag 51\t\t\t\n  JUMPDEST \t\t\t\n  PUSH 0\t\t\t\n  PUSH FFFFFFFFFFFFFFFFFFFFFFFFFFFFFFFFFFFFFFFF\t\t\t\n  AND \t\t\t\n  DUP4 \t\t\t\n  PUSH FFFFFFFFFFFFFFFFFFFFFFFFFFFFFFFFFFFFFFFF\t\t\t\n  AND \t\t\t\n  SUB \t\t\t\n  PUSH [tag] 53\t\t\t\n  JUMPI \t\t\t\n  PUSH 0\t\t\t\n  PUSH [tag] 54\t\t\t\n  PUSH [tag] 55\t\t\t\n  PUSH 20\t\t\t\n  SHL \t\t\t\n  PUSH 20\t\t\t\n  SHR \t\t\t\n  JUMP \t\t\t\ntag 54\t\t\t\n  JUMPDEST \t\t\t\n  SWAP1 \t\t\t\n  POP \t\t\t\n  PUSH 0\t\t\t\n  PUSH [tag] 56\t\t\t\n  PUSH [tag] 57\t\t\t\n  PUSH 20\t\t\t\n  SHL \t\t\t\n  PUSH 20\t\t\t\n  SHR \t\t\t\n  JUMP \t\t\t\ntag 56\t\t\t\n  JUMPDEST \t\t\t\n  SWAP1 \t\t\t\n  POP \t\t\t\n  DUP1 \t\t\t\n  DUP3 \t\t\t\n  GT \t\t\t\n  ISZERO \t\t\t\n  PUSH [tag] 58\t\t\t\n  JUMPI \t\t\t\n  DUP2 \t\t\t\n  DUP2 \t\t\t\n  PUSH 40\t\t\t\n  MLOAD \t\t\t\n  PUSH 1CB15D2600000000000000000000000000000000000000000000000000000000\t\t\t\n  DUP2 \t\t\t\n  MSTORE \t\t\t\n  PUSH 4\t\t\t\n  ADD \t\t\t\n  PUSH [tag] 59\t\t\t\n  SWAP3 \t\t\t\n  SWAP2 \t\t\t\n  SWAP1 \t\t\t\n  PUSH [tag] 60\t\t\t\n  JUMP \t\t\t\ntag 59\t\t\t\n  JUMPDEST \t\t\t\n  PUSH 40\t\t\t\n  MLOAD \t\t\t\n  DUP1 \t\t\t\n  SWAP2 \t\t\t\n  SUB \t\t\t\n  SWAP1 \t\t\t\n  REVERT \t\t\t\ntag 58\t\t\t\n  JUMPDEST \t\t\t\n  POP \t\t\t\n  POP \t\t\t\ntag 53\t\t\t\n  JUMPDEST \t\t\t\n  PUSH [tag] 61\t\t\t\n  DUP4 \t\t\t\n  DUP4 \t\t\t\n  DUP4 \t\t\t\n  PUSH [tag] 62\t\t\t\n  PUSH 20\t\t\t\n  SHL \t\t\t\n  PUSH 20\t\t\t\n  SHR \t\t\t\n  JUMP \t\t\t\ntag 61\t\t\t\n  JUMPDEST \t\t\t\n  POP \t\t\t\n  POP \t\t\t\n  POP \t\t\t\n  JUMP \t\t\t\ntag 52\t\t\t\n  JUMPDEST \t\t\t\n  PUSH 0\t\t\t\n  PUSH FFFFFFFFFFFFFFFFFFFFFFFFFFFFFFFFFFFFFFFF\t\t\t\n  AND \t\t\t\n  DUP4 \t\t\t\n  PUSH FFFFFFFFFFFFFFFFFFFFFFFFFFFFFFFFFFFFFFFF\t\t\t\n  AND \t\t\t\n  SUB \t\t\t\n  PUSH [tag] 64\t\t\t\n  JUMPI \t\t\t\n  DUP1 \t\t\t\n  PUSH 2\t\t\t\n  PUSH 0\t\t\t\n  DUP3 \t\t\t\n  DUP3 \t\t\t\n  SLOAD \t\t\t\n  PUSH [tag] 65\t\t\t\n  SWAP2 \t\t\t\n  SWAP1 \t\t\t\n  PUSH [tag] 66\t\t\t\n  JUMP \t\t\t\ntag 65\t\t\t\n  JUMPDEST \t\t\t\n  SWAP3 \t\t\t\n  POP \t\t\t\n  POP \t\t\t\n  DUP2 \t\t\t\n  SWAP1 \t\t\t\n  SSTORE \t\t\t\n  POP \t\t\t\n  PUSH [tag] 67\t\t\t\n  JUMP \t\t\t\ntag 64\t\t\t\n  JUMPDEST \t\t\t\n  PUSH 0\t\t\t\n  DUP1 \t\t\t\n  PUSH 0\t\t\t\n  DUP6 \t\t\t\n  PUSH FFFFFFFFFFFFFFFFFFFFFFFFFFFFFFFFFFFFFFFF\t\t\t\n  AND \t\t\t\n  PUSH FFFFFFFFFFFFFFFFFFFFFFFFFFFFFFFFFFFFFFFF\t\t\t\n  AND \t\t\t\n  DUP2 \t\t\t\n  MSTORE \t\t\t\n  PUSH 20\t\t\t\n  ADD \t\t\t\n  SWAP1 \t\t\t\n  DUP2 \t\t\t\n  MSTORE \t\t\t\n  PUSH 20\t\t\t\n  ADD \t\t\t\n  PUSH 0\t\t\t\n  KECCAK256 \t\t\t\n  SLOAD \t\t\t\n  SWAP1 \t\t\t\n  POP \t\t\t\n  DUP2 \t\t\t\n  DUP2 \t\t\t\n  LT \t\t\t\n  ISZERO \t\t\t\n  PUSH [tag] 68\t\t\t\n  JUMPI \t\t\t\n  DUP4 \t\t\t\n  DUP2 \t\t\t\n  DUP4 \t\t\t\n  PUSH 40\t\t\t\n  MLOAD \t\t\t\n  PUSH E450D38C00000000000000000000000000000000000000000000000000000000\t\t\t\n  DUP2 \t\t\t\n  MSTORE \t\t\t\n  PUSH 4\t\t\t\n  ADD \t\t\t\n  PUSH [tag] 69\t\t\t\n  SWAP4 \t\t\t\n  SWAP3 \t\t\t\n  SWAP2 \t\t\t\n  SWAP1 \t\t\t\n  PUSH [tag] 70\t\t\t\n  JUMP \t\t\t\ntag 69\t\t\t\n  JUMPDEST \t\t\t\n  PUSH 40\t\t\t\n  MLOAD \t\t\t\n  DUP1 \t\t\t\n  SWAP2 \t\t\t\n  SUB \t\t\t\n  SWAP1 \t\t\t\n  REVERT \t\t\t\ntag 68\t\t\t\n  JUMPDEST \t\t\t\n  DUP2 \t\t\t\n  DUP2 \t\t\t\n  SUB \t\t\t\n  PUSH 0\t\t\t\n  DUP1 \t\t\t\n  DUP7 \t\t\t\n  PUSH FFFFFFFFFFFFFFFFFFFFFFFFFFFFFFFFFFFFFFFF\t\t\t\n  AND \t\t\t\n  PUSH FFFFFFFFFFFFFFFFFFFFFFFFFFFFFFFFFFFFFFFF\t\t\t\n  AND \t\t\t\n  DUP2 \t\t\t\n  MSTORE \t\t\t\n  PUSH 20\t\t\t\n  ADD \t\t\t\n  SWAP1 \t\t\t\n  DUP2 \t\t\t\n  MSTORE \t\t\t\n  PUSH 20\t\t\t\n  ADD \t\t\t\n  PUSH 0\t\t\t\n  KECCAK256 \t\t\t\n  DUP2 \t\t\t\n  SWAP1 \t\t\t\n  SSTORE \t\t\t\n  POP \t\t\t\n  POP \t\t\t\ntag 67\t\t\t\n  JUMPDEST \t\t\t\n  PUSH 0\t\t\t\n  PUSH FFFFFFFFFFFFFFFFFFFFFFFFFFFFFFFFFFFFFFFF\t\t\t\n  AND \t\t\t\n  DUP3 \t\t\t\n  PUSH FFFFFFFFFFFFFFFFFFFFFFFFFFFFFFFFFFFFFFFF\t\t\t\n  AND \t\t\t\n  SUB \t\t\t\n  PUSH [tag] 71\t\t\t\n  JUMPI \t\t\t\n  DUP1 \t\t\t\n  PUSH 2\t\t\t\n  PUSH 0\t\t\t\n  DUP3 \t\t\t\n  DUP3 \t\t\t\n  SLOAD \t\t\t\n  SUB \t\t\t\n  SWAP3 \t\t\t\n  POP \t\t\t\n  POP \t\t\t\n  DUP2 \t\t\t\n  SWAP1 \t\t\t\n  SSTORE \t\t\t\n  POP \t\t\t\n  PUSH [tag] 72\t\t\t\n  JUMP \t\t\t\ntag 71\t\t\t\n  JUMPDEST \t\t\t\n  DUP1 \t\t\t\n  PUSH 0\t\t\t\n  DUP1 \t\t\t\n  DUP5 \t\t\t\n  PUSH FFFFFFFFFFFFFFFFFFFFFFFFFFFFFFFFFFFFFFFF\t\t\t\n  AND \t\t\t\n  PUSH FFFFFFFFFFFFFFFFFFFFFFFFFFFFFFFFFFFFFFFF\t\t\t\n  AND \t\t\t\n  DUP2 \t\t\t\n  MSTORE \t\t\t\n  PUSH 20\t\t\t\n  ADD \t\t\t\n  SWAP1 \t\t\t\n  DUP2 \t\t\t\n  MSTORE \t\t\t\n  PUSH 20\t\t\t\n  ADD \t\t\t\n  PUSH 0\t\t\t\n  KECCAK256 \t\t\t\n  PUSH 0\t\t\t\n  DUP3 \t\t\t\n  DUP3 \t\t\t\n  SLOAD \t\t\t\n  ADD \t\t\t\n  SWAP3 \t\t\t\n  POP \t\t\t\n  POP \t\t\t\n  DUP2 \t\t\t\n  SWAP1 \t\t\t\n  SSTORE \t\t\t\n  POP \t\t\t\ntag 72\t\t\t\n  JUMPDEST \t\t\t\n  DUP2 \t\t\t\n  PUSH FFFFFFFFFFFFFFFFFFFFFFFFFFFFFFFFFFFFFFFF\t\t\t\n  AND \t\t\t\n  DUP4 \t\t\t\n  PUSH FFFFFFFFFFFFFFFFFFFFFFFFFFFFFFFFFFFFFFFF\t\t\t\n  AND \t\t\t\n  PUSH DDF252AD1BE2C89B69C2B068FC378DAA952BA7F163C4A11628F55A4DF523B3EF\t\t\t\n  DUP4 \t\t\t\n  PUSH 40\t\t\t\n  MLOAD \t\t\t\n  PUSH [tag] 73\t\t\t\n  SWAP2 \t\t\t\n  SWAP1 \t\t\t\n  PUSH [tag] 74\t\t\t\n  JUMP \t\t\t\ntag 73\t\t\t\n  JUMPDEST \t\t\t\n  PUSH 40\t\t\t\n  MLOAD \t\t\t\n  DUP1 \t\t\t\n  SWAP2 \t\t\t\n  SUB \t\t\t\n  SWAP1 \t\t\t\n  LOG3 \t\t\t\n  POP \t\t\t\n  POP \t\t\t\n  POP \t\t\t\n  JUMP \t\t\t\ntag 55\t\t\t\n  JUMPDEST \t\t\t\n  PUSH 0\t\t\t\n  PUSH 2\t\t\t\n  SLOAD \t\t\t\n  SWAP1 \t\t\t\n  POP \t\t\t\n  SWAP1 \t\t\t\n  JUMP \t\t\t\ntag 57\t\t\t\n  JUMPDEST \t\t\t\n  PUSH 0\t\t\t\n  PUSH FFFFFFFFFFFFFFFFFFFFFFFFFFFFFFFFFFFFFFFFFFFFFFFFFFFF\t\t\t\n  DUP1 \t\t\t\n  AND \t\t\t\n  SWAP1 \t\t\t\n  POP \t\t\t\n  SWAP1 \t\t\t\n  JUMP \t\t\t\ntag 62\t\t\t\n  JUMPDEST \t\t\t\n  PUSH 0\t\t\t\n  PUSH FFFFFFFFFFFFFFFFFFFFFFFFFFFFFFFFFFFFFFFF\t\t\t\n  AND \t\t\t\n  DUP4 \t\t\t\n  PUSH FFFFFFFFFFFFFFFFFFFFFFFFFFFFFFFFFFFFFFFF\t\t\t\n  AND \t\t\t\n  SUB \t\t\t\n  PUSH [tag] 78\t\t\t\n  JUMPI \t\t\t\n  PUSH [tag] 79\t\t\t\n  PUSH A\t\t\t\n  PUSH [tag] 80\t\t\t\n  PUSH 20\t\t\t\n  SHL \t\t\t\n  PUSH [tag] 18446744073709551744\t\t\t\n  OR \t\t\t\n  PUSH [tag] 81\t\t\t\n  DUP5 \t\t\t\n  PUSH [tag] 82\t\t\t\n  PUSH 20\t\t\t\n  SHL \t\t\t\n  PUSH 20\t\t\t\n  SHR \t\t\t\n  JUMP \t\t\t\ntag 81\t\t\t\n  JUMPDEST \t\t\t\n  PUSH [tag] 83\t\t\t\n  PUSH 20\t\t\t\n  SHL \t\t\t\n  PUSH 20\t\t\t\n  SHR \t\t\t\n  JUMP \t\t\t\ntag 79\t\t\t\n  JUMPDEST \t\t\t\n  POP \t\t\t\n  POP \t\t\t\ntag 78\t\t\t\n  JUMPDEST \t\t\t\n  PUSH 0\t\t\t\n  PUSH FFFFFFFFFFFFFFFFFFFFFFFFFFFFFFFFFFFFFFFF\t\t\t\n  AND \t\t\t\n  DUP3 \t\t\t\n  PUSH FFFFFFFFFFFFFFFFFFFFFFFFFFFFFFFFFFFFFFFF\t\t\t\n  AND \t\t\t\n  SUB \t\t\t\n  PUSH [tag] 84\t\t\t\n  JUMPI \t\t\t\n  PUSH [tag] 85\t\t\t\n  PUSH A\t\t\t\n  PUSH [tag] 86\t\t\t\n  PUSH 20\t\t\t\n  SHL \t\t\t\n  PUSH [tag] 18446744073709551745\t\t\t\n  OR \t\t\t\n  PUSH [tag] 87\t\t\t\n  DUP5 \t\t\t\n  PUSH [tag] 82\t\t\t\n  PUSH 20\t\t\t\n  SHL \t\t\t\n  PUSH 20\t\t\t\n  SHR \t\t\t\n  JUMP \t\t\t\ntag 87\t\t\t\n  JUMPDEST \t\t\t\n  PUSH [tag] 83\t\t\t\n  PUSH 20\t\t\t\n  SHL \t\t\t\n  PUSH 20\t\t\t\n  SHR \t\t\t\n  JUMP \t\t\t\ntag 85\t\t\t\n  JUMPDEST \t\t\t\n  POP \t\t\t\n  POP \t\t\t\ntag 84\t\t\t\n  JUMPDEST \t\t\t\n  PUSH [tag] 88\t\t\t\n  PUSH [tag] 89\t\t\t\n  DUP5 \t\t\t\n  PUSH [tag] 90\t\t\t\n  PUSH 20\t\t\t\n  SHL \t\t\t\n  PUSH 20\t\t\t\n  SHR \t\t\t\n  JUMP \t\t\t\ntag 89\t\t\t\n  JUMPDEST \t\t\t\n  PUSH [tag] 91\t\t\t\n  DUP5 \t\t\t\n  PUSH [tag] 90\t\t\t\n  PUSH 20\t\t\t\n  SHL \t\t\t\n  PUSH 20\t\t\t\n  SHR \t\t\t\n  JUMP \t\t\t\ntag 91\t\t\t\n  JUMPDEST \t\t\t\n  DUP4 \t\t\t\n  PUSH [tag] 92\t\t\t\n  PUSH 20\t\t\t\n  SHL \t\t\t\n  PUSH 20\t\t\t\n  SHR \t\t\t\n  JUMP \t\t\t\ntag 88\t\t\t\n  JUMPDEST \t\t\t\n  POP \t\t\t\n  POP \t\t\t\n  POP \t\t\t\n  JUMP \t\t\t\ntag 80\t\t\t\n  JUMPDEST \t\t\t\n  PUSH 0\t\t\t\n  DUP2 \t\t\t\n  DUP4 \t\t\t\n  PUSH [tag] 94\t\t\t\n  SWAP2 \t\t\t\n  SWAP1 \t\t\t\n  PUSH [tag] 95\t\t\t\n  JUMP \t\t\t\ntag 94\t\t\t\n  JUMPDEST \t\t\t\n  SWAP1 \t\t\t\n  POP \t\t\t\n  SWAP3 \t\t\t\n  SWAP2 \t\t\t\n  POP \t\t\t\n  POP \t\t\t\n  JUMP \t\t\t\ntag 82\t\t\t\n  JUMPDEST \t\t\t\n  PUSH 0\t\t\t\n  PUSH FFFFFFFFFFFFFFFFFFFFFFFFFFFFFFFFFFFFFFFFFFFFFFFFFFFF\t\t\t\n  DUP1 \t\t\t\n  AND \t\t\t\n  DUP3 \t\t\t\n  GT \t\t\t\n  ISZERO \t\t\t\n  PUSH [tag] 97\t\t\t\n  JUMPI \t\t\t\n  PUSH D0\t\t\t\n  DUP3 \t\t\t\n  PUSH 40\t\t\t\n  MLOAD \t\t\t\n  PUSH 6DFCC65000000000000000000000000000000000000000000000000000000000\t\t\t\n  DUP2 \t\t\t\n  MSTORE \t\t\t\n  PUSH 4\t\t\t\n  ADD \t\t\t\n  PUSH [tag] 98\t\t\t\n  SWAP3 \t\t\t\n  SWAP2 \t\t\t\n  SWAP1 \t\t\t\n  PUSH [tag] 99\t\t\t\n  JUMP \t\t\t\ntag 98\t\t\t\n  JUMPDEST \t\t\t\n  PUSH 40\t\t\t\n  MLOAD \t\t\t\n  DUP1 \t\t\t\n  SWAP2 \t\t\t\n  SUB \t\t\t\n  SWAP1 \t\t\t\n  REVERT \t\t\t\ntag 97\t\t\t\n  JUMPDEST \t\t\t\n  DUP2 \t\t\t\n  SWAP1 \t\t\t\n  POP \t\t\t\n  SWAP2 \t\t\t\n  SWAP1 \t\t\t\n  POP \t\t\t\n  JUMP \t\t\t\ntag 83\t\t\t\n  JUMPDEST \t\t\t\n  PUSH 0\t\t\t\n  DUP1 \t\t\t\n  PUSH [tag] 101\t\t\t\n  PUSH [tag] 102\t\t\t\n  PUSH [tag] 103\t\t\t\n  PUSH 20\t\t\t\n  SHL \t\t\t\n  PUSH 20\t\t\t\n  SHR \t\t\t\n  JUMP \t\t\t\ntag 102\t\t\t\n  JUMPDEST \t\t\t\n  PUSH [tag] 104\t\t\t\n  PUSH [tag] 105\t\t\t\n  DUP9 \t\t\t\n  PUSH [tag] 106\t\t\t\n  PUSH 20\t\t\t\n  SHL \t\t\t\n  PUSH 20\t\t\t\n  SHR \t\t\t\n  JUMP \t\t\t\ntag 105\t\t\t\n  JUMPDEST \t\t\t\n  DUP7 \t\t\t\n  DUP9 \t\t\t\n  PUSH 20\t\t\t\n  SHR \t\t\t\n  JUMP \t\t\t\ntag 104\t\t\t\n  JUMPDEST \t\t\t\n  DUP8 \t\t\t\n  PUSH [tag] 107\t\t\t\n  PUSH 20\t\t\t\n  SHL \t\t\t\n  SWAP1 \t\t\t\n  SWAP3 \t\t\t\n  SWAP2 \t\t\t\n  SWAP1 \t\t\t\n  PUSH 20\t\t\t\n  SHR \t\t\t\n  JUMP \t\t\t\ntag 101\t\t\t\n  JUMPDEST \t\t\t\n  SWAP2 \t\t\t\n  POP \t\t\t\n  SWAP2 \t\t\t\n  POP \t\t\t\n  SWAP4 \t\t\t\n  POP \t\t\t\n  SWAP4 \t\t\t\n  SWAP2 \t\t\t\n  POP \t\t\t\n  POP \t\t\t\n  JUMP \t\t\t\ntag 86\t\t\t\n  JUMPDEST \t\t\t\n  PUSH 0\t\t\t\n  DUP2 \t\t\t\n  DUP4 \t\t\t\n  PUSH [tag] 109\t\t\t\n  SWAP2 \t\t\t\n  SWAP1 \t\t\t\n  PUSH [tag] 110\t\t\t\n  JUMP \t\t\t\ntag 109\t\t\t\n  JUMPDEST \t\t\t\n  SWAP1 \t\t\t\n  POP \t\t\t\n  SWAP3 \t\t\t\n  SWAP2 \t\t\t\n  POP \t\t\t\n  POP \t\t\t\n  JUMP \t\t\t\ntag 90\t\t\t\n  JUMPDEST \t\t\t\n  PUSH 0\t\t\t\n  PUSH 8\t\t\t\n  PUSH 0\t\t\t\n  DUP4 \t\t\t\n  PUSH FFFFFFFFFFFFFFFFFFFFFFFFFFFFFFFFFFFFFFFF\t\t\t\n  AND \t\t\t\n  PUSH FFFFFFFFFFFFFFFFFFFFFFFFFFFFFFFFFFFFFFFF\t\t\t\n  AND \t\t\t\n  DUP2 \t\t\t\n  MSTORE \t\t\t\n  PUSH 20\t\t\t\n  ADD \t\t\t\n  SWAP1 \t\t\t\n  DUP2 \t\t\t\n  MSTORE \t\t\t\n  PUSH 20\t\t\t\n  ADD \t\t\t\n  PUSH 0\t\t\t\n  KECCAK256 \t\t\t\n  PUSH 0\t\t\t\n  SWAP1 \t\t\t\n  SLOAD \t\t\t\n  SWAP1 \t\t\t\n  PUSH 100\t\t\t\n  EXP \t\t\t\n  SWAP1 \t\t\t\n  DIV \t\t\t\n  PUSH FFFFFFFFFFFFFFFFFFFFFFFFFFFFFFFFFFFFFFFF\t\t\t\n  AND \t\t\t\n  SWAP1 \t\t\t\n  POP \t\t\t\n  SWAP2 \t\t\t\n  SWAP1 \t\t\t\n  POP \t\t\t\n  JUMP \t\t\t\ntag 92\t\t\t\n  JUMPDEST \t\t\t\n  DUP2 \t\t\t\n  PUSH FFFFFFFFFFFFFFFFFFFFFFFFFFFFFFFFFFFFFFFF\t\t\t\n  AND \t\t\t\n  DUP4 \t\t\t\n  PUSH FFFFFFFFFFFFFFFFFFFFFFFFFFFFFFFFFFFFFFFF\t\t\t\n  AND \t\t\t\n  EQ \t\t\t\n  ISZERO \t\t\t\n  DUP1 \t\t\t\n  ISZERO \t\t\t\n  PUSH [tag] 113\t\t\t\n  JUMPI \t\t\t\n  POP \t\t\t\n  PUSH 0\t\t\t\n  DUP2 \t\t\t\n  GT \t\t\t\ntag 113\t\t\t\n  JUMPDEST \t\t\t\n  ISZERO \t\t\t\n  PUSH [tag] 114\t\t\t\n  JUMPI \t\t\t\n  PUSH 0\t\t\t\n  PUSH FFFFFFFFFFFFFFFFFFFFFFFFFFFFFFFFFFFFFFFF\t\t\t\n  AND \t\t\t\n  DUP4 \t\t\t\n  PUSH FFFFFFFFFFFFFFFFFFFFFFFFFFFFFFFFFFFFFFFF\t\t\t\n  AND \t\t\t\n  EQ \t\t\t\n  PUSH [tag] 115\t\t\t\n  JUMPI \t\t\t\n  PUSH 0\t\t\t\n  DUP1 \t\t\t\n  PUSH [tag] 116\t\t\t\n  PUSH 9\t\t\t\n  PUSH 0\t\t\t\n  DUP8 \t\t\t\n  PUSH FFFFFFFFFFFFFFFFFFFFFFFFFFFFFFFFFFFFFFFF\t\t\t\n  AND \t\t\t\n  PUSH FFFFFFFFFFFFFFFFFFFFFFFFFFFFFFFFFFFFFFFF\t\t\t\n  AND \t\t\t\n  DUP2 \t\t\t\n  MSTORE \t\t\t\n  PUSH 20\t\t\t\n  ADD \t\t\t\n  SWAP1 \t\t\t\n  DUP2 \t\t\t\n  MSTORE \t\t\t\n  PUSH 20\t\t\t\n  ADD \t\t\t\n  PUSH 0\t\t\t\n  KECCAK256 \t\t\t\n  PUSH [tag] 86\t\t\t\n  PUSH 20\t\t\t\n  SHL \t\t\t\n  PUSH [tag] 18446744073709551745\t\t\t\n  OR \t\t\t\n  PUSH [tag] 117\t\t\t\n  DUP7 \t\t\t\n  PUSH [tag] 82\t\t\t\n  PUSH 20\t\t\t\n  SHL \t\t\t\n  PUSH 20\t\t\t\n  SHR \t\t\t\n  JUMP \t\t\t\ntag 117\t\t\t\n  JUMPDEST \t\t\t\n  PUSH [tag] 83\t\t\t\n  PUSH 20\t\t\t\n  SHL \t\t\t\n  PUSH 20\t\t\t\n  SHR \t\t\t\n  JUMP \t\t\t\ntag 116\t\t\t\n  JUMPDEST \t\t\t\n  PUSH FFFFFFFFFFFFFFFFFFFFFFFFFFFFFFFFFFFFFFFFFFFFFFFFFFFF\t\t\t\n  AND \t\t\t\n  SWAP2 \t\t\t\n  POP \t\t\t\n  PUSH FFFFFFFFFFFFFFFFFFFFFFFFFFFFFFFFFFFFFFFFFFFFFFFFFFFF\t\t\t\n  AND \t\t\t\n  SWAP2 \t\t\t\n  POP \t\t\t\n  DUP5 \t\t\t\n  PUSH FFFFFFFFFFFFFFFFFFFFFFFFFFFFFFFFFFFFFFFF\t\t\t\n  AND \t\t\t\n  PUSH DEC2BACDD2F05B59DE34DA9B523DFF8BE42E5E38E818C82FDB0BAE774387A724\t\t\t\n  DUP4 \t\t\t\n  DUP4 \t\t\t\n  PUSH 40\t\t\t\n  MLOAD \t\t\t\n  PUSH [tag] 118\t\t\t\n  SWAP3 \t\t\t\n  SWAP2 \t\t\t\n  SWAP1 \t\t\t\n  PUSH [tag] 60\t\t\t\n  JUMP \t\t\t\ntag 118\t\t\t\n  JUMPDEST \t\t\t\n  PUSH 40\t\t\t\n  MLOAD \t\t\t\n  DUP1 \t\t\t\n  SWAP2 \t\t\t\n  SUB \t\t\t\n  SWAP1 \t\t\t\n  LOG2 \t\t\t\n  POP \t\t\t\n  POP \t\t\t\ntag 115\t\t\t\n  JUMPDEST \t\t\t\n  PUSH 0\t\t\t\n  PUSH FFFFFFFFFFFFFFFFFFFFFFFFFFFFFFFFFFFFFFFF\t\t\t\n  AND \t\t\t\n  DUP3 \t\t\t\n  PUSH FFFFFFFFFFFFFFFFFFFFFFFFFFFFFFFFFFFFFFFF\t\t\t\n  AND \t\t\t\n  EQ \t\t\t\n  PUSH [tag] 119\t\t\t\n  JUMPI \t\t\t\n  PUSH 0\t\t\t\n  DUP1 \t\t\t\n  PUSH [tag] 120\t\t\t\n  PUSH 9\t\t\t\n  PUSH 0\t\t\t\n  DUP7 \t\t\t\n  PUSH FFFFFFFFFFFFFFFFFFFFFFFFFFFFFFFFFFFFFFFF\t\t\t\n  AND \t\t\t\n  PUSH FFFFFFFFFFFFFFFFFFFFFFFFFFFFFFFFFFFFFFFF\t\t\t\n  AND \t\t\t\n  DUP2 \t\t\t\n  MSTORE \t\t\t\n  PUSH 20\t\t\t\n  ADD \t\t\t\n  SWAP1 \t\t\t\n  DUP2 \t\t\t\n  MSTORE \t\t\t\n  PUSH 20\t\t\t\n  ADD \t\t\t\n  PUSH 0\t\t\t\n  KECCAK256 \t\t\t\n  PUSH [tag] 80\t\t\t\n  PUSH 20\t\t\t\n  SHL \t\t\t\n  PUSH [tag] 18446744073709551744\t\t\t\n  OR \t\t\t\n  PUSH [tag] 121\t\t\t\n  DUP7 \t\t\t\n  PUSH [tag] 82\t\t\t\n  PUSH 20\t\t\t\n  SHL \t\t\t\n  PUSH 20\t\t\t\n  SHR \t\t\t\n  JUMP \t\t\t\ntag 121\t\t\t\n  JUMPDEST \t\t\t\n  PUSH [tag] 83\t\t\t\n  PUSH 20\t\t\t\n  SHL \t\t\t\n  PUSH 20\t\t\t\n  SHR \t\t\t\n  JUMP \t\t\t\ntag 120\t\t\t\n  JUMPDEST \t\t\t\n  PUSH FFFFFFFFFFFFFFFFFFFFFFFFFFFFFFFFFFFFFFFFFFFFFFFFFFFF\t\t\t\n  AND \t\t\t\n  SWAP2 \t\t\t\n  POP \t\t\t\n  PUSH FFFFFFFFFFFFFFFFFFFFFFFFFFFFFFFFFFFFFFFFFFFFFFFFFFFF\t\t\t\n  AND \t\t\t\n  SWAP2 \t\t\t\n  POP \t\t\t\n  DUP4 \t\t\t\n  PUSH FFFFFFFFFFFFFFFFFFFFFFFFFFFFFFFFFFFFFFFF\t\t\t\n  AND \t\t\t\n  PUSH DEC2BACDD2F05B59DE34DA9B523DFF8BE42E5E38E818C82FDB0BAE774387A724\t\t\t\n  DUP4 \t\t\t\n  DUP4 \t\t\t\n  PUSH 40\t\t\t\n  MLOAD \t\t\t\n  PUSH [tag] 122\t\t\t\n  SWAP3 \t\t\t\n  SWAP2 \t\t\t\n  SWAP1 \t\t\t\n  PUSH [tag] 60\t\t\t\n  JUMP \t\t\t\ntag 122\t\t\t\n  JUMPDEST \t\t\t\n  PUSH 40\t\t\t\n  MLOAD \t\t\t\n  DUP1 \t\t\t\n  SWAP2 \t\t\t\n  SUB \t\t\t\n  SWAP1 \t\t\t\n  LOG2 \t\t\t\n  POP \t\t\t\n  POP \t\t\t\ntag 119\t\t\t\n  JUMPDEST \t\t\t\ntag 114\t\t\t\n  JUMPDEST \t\t\t\n  POP \t\t\t\n  POP \t\t\t\n  POP \t\t\t\n  JUMP \t\t\t\ntag 103\t\t\t\n  JUMPDEST \t\t\t\n  PUSH 0\t\t\t\n  PUSH [tag] 124\t\t\t\n  PUSH [tag] 125\t\t\t\n  PUSH 20\t\t\t\n  SHL \t\t\t\n  PUSH 20\t\t\t\n  SHR \t\t\t\n  JUMP \t\t\t\ntag 124\t\t\t\n  JUMPDEST \t\t\t\n  SWAP1 \t\t\t\n  POP \t\t\t\n  SWAP1 \t\t\t\n  JUMP \t\t\t\ntag 106\t\t\t\n  JUMPDEST \t\t\t\n  PUSH 0\t\t\t\n  DUP1 \t\t\t\n  DUP3 \t\t\t\n  PUSH 0\t\t\t\n  ADD \t\t\t\n  DUP1 \t\t\t\n  SLOAD \t\t\t\n  SWAP1 \t\t\t\n  POP \t\t\t\n  SWAP1 \t\t\t\n  POP \t\t\t\n  PUSH 0\t\t\t\n  DUP2 \t\t\t\n  EQ \t\t\t\n  PUSH [tag] 127\t\t\t\n  JUMPI \t\t\t\n  PUSH [tag] 128\t\t\t\n  DUP4 \t\t\t\n  PUSH 0\t\t\t\n  ADD \t\t\t\n  PUSH 1\t\t\t\n  DUP4 \t\t\t\n  PUSH [tag] 129\t\t\t\n  SWAP2 \t\t\t\n  SWAP1 \t\t\t\n  PUSH [tag] 130\t\t\t\n  JUMP \t\t\t\ntag 129\t\t\t\n  JUMPDEST \t\t\t\n  PUSH [tag] 131\t\t\t\n  PUSH 20\t\t\t\n  SHL \t\t\t\n  PUSH 20\t\t\t\n  SHR \t\t\t\n  JUMP \t\t\t\ntag 128\t\t\t\n  JUMPDEST \t\t\t\n  PUSH 0\t\t\t\n  ADD \t\t\t\n  PUSH 6\t\t\t\n  SWAP1 \t\t\t\n  SLOAD \t\t\t\n  SWAP1 \t\t\t\n  PUSH 100\t\t\t\n  EXP \t\t\t\n  SWAP1 \t\t\t\n  DIV \t\t\t\n  PUSH FFFFFFFFFFFFFFFFFFFFFFFFFFFFFFFFFFFFFFFFFFFFFFFFFFFF\t\t\t\n  AND \t\t\t\n  PUSH [tag] 132\t\t\t\n  JUMP \t\t\t\ntag 127\t\t\t\n  JUMPDEST \t\t\t\n  PUSH 0\t\t\t\ntag 132\t\t\t\n  JUMPDEST \t\t\t\n  SWAP2 \t\t\t\n  POP \t\t\t\n  POP \t\t\t\n  SWAP2 \t\t\t\n  SWAP1 \t\t\t\n  POP \t\t\t\n  JUMP \t\t\t\ntag 107\t\t\t\n  JUMPDEST \t\t\t\n  PUSH 0\t\t\t\n  DUP1 \t\t\t\n  PUSH [tag] 134\t\t\t\n  DUP6 \t\t\t\n  PUSH 0\t\t\t\n  ADD \t\t\t\n  DUP6 \t\t\t\n  DUP6 \t\t\t\n  PUSH [tag] 135\t\t\t\n  PUSH 20\t\t\t\n  SHL \t\t\t\n  PUSH 20\t\t\t\n  SHR \t\t\t\n  JUMP \t\t\t\ntag 134\t\t\t\n  JUMPDEST \t\t\t\n  SWAP2 \t\t\t\n  POP \t\t\t\n  SWAP2 \t\t\t\n  POP \t\t\t\n  SWAP4 \t\t\t\n  POP \t\t\t\n  SWAP4 \t\t\t\n  SWAP2 \t\t\t\n  POP \t\t\t\n  POP \t\t\t\n  JUMP \t\t\t\ntag 125\t\t\t\n  JUMPDEST \t\t\t\n  PUSH 0\t\t\t\n  PUSH [tag] 137\t\t\t\n  NUMBER \t\t\t\n  PUSH [tag] 138\t\t\t\n  PUSH 20\t\t\t\n  SHL \t\t\t\n  PUSH 20\t\t\t\n  SHR \t\t\t\n  JUMP \t\t\t\ntag 137\t\t\t\n  JUMPDEST \t\t\t\n  SWAP1 \t\t\t\n  POP \t\t\t\n  SWAP1 \t\t\t\n  JUMP \t\t\t\ntag 131\t\t\t\n  JUMPDEST \t\t\t\n  PUSH 0\t\t\t\n  DUP3 \t\t\t\n  PUSH 0\t\t\t\n  MSTORE \t\t\t\n  DUP2 \t\t\t\n  PUSH 20\t\t\t\n  PUSH 0\t\t\t\n  KECCAK256 \t\t\t\n  ADD \t\t\t\n  SWAP1 \t\t\t\n  POP \t\t\t\n  SWAP3 \t\t\t\n  SWAP2 \t\t\t\n  POP \t\t\t\n  POP \t\t\t\n  JUMP \t\t\t\ntag 135\t\t\t\n  JUMPDEST \t\t\t\n  PUSH 0\t\t\t\n  DUP1 \t\t\t\n  PUSH 0\t\t\t\n  DUP6 \t\t\t\n  DUP1 \t\t\t\n  SLOAD \t\t\t\n  SWAP1 \t\t\t\n  POP \t\t\t\n  SWAP1 \t\t\t\n  POP \t\t\t\n  PUSH 0\t\t\t\n  DUP2 \t\t\t\n  GT \t\t\t\n  ISZERO \t\t\t\n  PUSH [tag] 141\t\t\t\n  JUMPI \t\t\t\n  PUSH 0\t\t\t\n  PUSH [tag] 142\t\t\t\n  DUP8 \t\t\t\n  PUSH 1\t\t\t\n  DUP5 \t\t\t\n  PUSH [tag] 143\t\t\t\n  SWAP2 \t\t\t\n  SWAP1 \t\t\t\n  PUSH [tag] 130\t\t\t\n  JUMP \t\t\t\ntag 143\t\t\t\n  JUMPDEST \t\t\t\n  PUSH [tag] 131\t\t\t\n  PUSH 20\t\t\t\n  SHL \t\t\t\n  PUSH 20\t\t\t\n  SHR \t\t\t\n  JUMP \t\t\t\ntag 142\t\t\t\n  JUMPDEST \t\t\t\n  PUSH 40\t\t\t\n  MLOAD \t\t\t\n  DUP1 \t\t\t\n  PUSH 40\t\t\t\n  ADD \t\t\t\n  PUSH 40\t\t\t\n  MSTORE \t\t\t\n  SWAP1 \t\t\t\n  DUP2 \t\t\t\n  PUSH 0\t\t\t\n  DUP3 \t\t\t\n  ADD \t\t\t\n  PUSH 0\t\t\t\n  SWAP1 \t\t\t\n  SLOAD \t\t\t\n  SWAP1 \t\t\t\n  PUSH 100\t\t\t\n  EXP \t\t\t\n  SWAP1 \t\t\t\n  DIV \t\t\t\n  PUSH FFFFFFFFFFFF\t\t\t\n  AND \t\t\t\n  PUSH FFFFFFFFFFFF\t\t\t\n  AND \t\t\t\n  PUSH FFFFFFFFFFFF\t\t\t\n  AND \t\t\t\n  DUP2 \t\t\t\n  MSTORE \t\t\t\n  PUSH 20\t\t\t\n  ADD \t\t\t\n  PUSH 0\t\t\t\n  DUP3 \t\t\t\n  ADD \t\t\t\n  PUSH 6\t\t\t\n  SWAP1 \t\t\t\n  SLOAD \t\t\t\n  SWAP1 \t\t\t\n  PUSH 100\t\t\t\n  EXP \t\t\t\n  SWAP1 \t\t\t\n  DIV \t\t\t\n  PUSH FFFFFFFFFFFFFFFFFFFFFFFFFFFFFFFFFFFFFFFFFFFFFFFFFFFF\t\t\t\n  AND \t\t\t\n  PUSH FFFFFFFFFFFFFFFFFFFFFFFFFFFFFFFFFFFFFFFFFFFFFFFFFFFF\t\t\t\n  AND \t\t\t\n  PUSH FFFFFFFFFFFFFFFFFFFFFFFFFFFFFFFFFFFFFFFFFFFFFFFFFFFF\t\t\t\n  AND \t\t\t\n  DUP2 \t\t\t\n  MSTORE \t\t\t\n  POP \t\t\t\n  POP \t\t\t\n  SWAP1 \t\t\t\n  POP \t\t\t\n  DUP6 \t\t\t\n  PUSH FFFFFFFFFFFF\t\t\t\n  AND \t\t\t\n  DUP2 \t\t\t\n  PUSH 0\t\t\t\n  ADD \t\t\t\n  MLOAD \t\t\t\n  PUSH FFFFFFFFFFFF\t\t\t\n  AND \t\t\t\n  GT \t\t\t\n  ISZERO \t\t\t\n  PUSH [tag] 144\t\t\t\n  JUMPI \t\t\t\n  PUSH 40\t\t\t\n  MLOAD \t\t\t\n  PUSH 2520601D00000000000000000000000000000000000000000000000000000000\t\t\t\n  DUP2 \t\t\t\n  MSTORE \t\t\t\n  PUSH 4\t\t\t\n  ADD \t\t\t\n  PUSH 40\t\t\t\n  MLOAD \t\t\t\n  DUP1 \t\t\t\n  SWAP2 \t\t\t\n  SUB \t\t\t\n  SWAP1 \t\t\t\n  REVERT \t\t\t\ntag 144\t\t\t\n  JUMPDEST \t\t\t\n  DUP6 \t\t\t\n  PUSH FFFFFFFFFFFF\t\t\t\n  AND \t\t\t\n  DUP2 \t\t\t\n  PUSH 0\t\t\t\n  ADD \t\t\t\n  MLOAD \t\t\t\n  PUSH FFFFFFFFFFFF\t\t\t\n  AND \t\t\t\n  SUB \t\t\t\n  PUSH [tag] 145\t\t\t\n  JUMPI \t\t\t\n  DUP5 \t\t\t\n  PUSH [tag] 146\t\t\t\n  DUP9 \t\t\t\n  PUSH 1\t\t\t\n  DUP6 \t\t\t\n  PUSH [tag] 147\t\t\t\n  SWAP2 \t\t\t\n  SWAP1 \t\t\t\n  PUSH [tag] 130\t\t\t\n  JUMP \t\t\t\ntag 147\t\t\t\n  JUMPDEST \t\t\t\n  PUSH [tag] 131\t\t\t\n  PUSH 20\t\t\t\n  SHL \t\t\t\n  PUSH 20\t\t\t\n  SHR \t\t\t\n  JUMP \t\t\t\ntag 146\t\t\t\n  JUMPDEST \t\t\t\n  PUSH 0\t\t\t\n  ADD \t\t\t\n  PUSH 6\t\t\t\n  PUSH 100\t\t\t\n  EXP \t\t\t\n  DUP2 \t\t\t\n  SLOAD \t\t\t\n  DUP2 \t\t\t\n  PUSH FFFFFFFFFFFFFFFFFFFFFFFFFFFFFFFFFFFFFFFFFFFFFFFFFFFF\t\t\t\n  MUL \t\t\t\n  NOT \t\t\t\n  AND \t\t\t\n  SWAP1 \t\t\t\n  DUP4 \t\t\t\n  PUSH FFFFFFFFFFFFFFFFFFFFFFFFFFFFFFFFFFFFFFFFFFFFFFFFFFFF\t\t\t\n  AND \t\t\t\n  MUL \t\t\t\n  OR \t\t\t\n  SWAP1 \t\t\t\n  SSTORE \t\t\t\n  POP \t\t\t\n  PUSH [tag] 148\t\t\t\n  JUMP \t\t\t\ntag 145\t\t\t\n  JUMPDEST \t\t\t\n  DUP7 \t\t\t\n  PUSH 40\t\t\t\n  MLOAD \t\t\t\n  DUP1 \t\t\t\n  PUSH 40\t\t\t\n  ADD \t\t\t\n  PUSH 40\t\t\t\n  MSTORE \t\t\t\n  DUP1 \t\t\t\n  DUP9 \t\t\t\n  PUSH FFFFFFFFFFFF\t\t\t\n  AND \t\t\t\n  DUP2 \t\t\t\n  MSTORE \t\t\t\n  PUSH 20\t\t\t\n  ADD \t\t\t\n  DUP8 \t\t\t\n  PUSH FFFFFFFFFFFFFFFFFFFFFFFFFFFFFFFFFFFFFFFFFFFFFFFFFFFF\t\t\t\n  AND \t\t\t\n  DUP2 \t\t\t\n  MSTORE \t\t\t\n  POP \t\t\t\n  SWAP1 \t\t\t\n  DUP1 \t\t\t\n  PUSH 1\t\t\t\n  DUP2 \t\t\t\n  SLOAD \t\t\t\n  ADD \t\t\t\n  DUP1 \t\t\t\n  DUP3 \t\t\t\n  SSTORE \t\t\t\n  DUP1 \t\t\t\n  SWAP2 \t\t\t\n  POP \t\t\t\n  POP \t\t\t\n  PUSH 1\t\t\t\n  SWAP1 \t\t\t\n  SUB \t\t\t\n  SWAP1 \t\t\t\n  PUSH 0\t\t\t\n  MSTORE \t\t\t\n  PUSH 20\t\t\t\n  PUSH 0\t\t\t\n  KECCAK256 \t\t\t\n  ADD \t\t\t\n  PUSH 0\t\t\t\n  SWAP1 \t\t\t\n  SWAP2 \t\t\t\n  SWAP1 \t\t\t\n  SWAP2 \t\t\t\n  SWAP1 \t\t\t\n  SWAP2 \t\t\t\n  POP \t\t\t\n  PUSH 0\t\t\t\n  DUP3 \t\t\t\n  ADD \t\t\t\n  MLOAD \t\t\t\n  DUP2 \t\t\t\n  PUSH 0\t\t\t\n  ADD \t\t\t\n  PUSH 0\t\t\t\n  PUSH 100\t\t\t\n  EXP \t\t\t\n  DUP2 \t\t\t\n  SLOAD \t\t\t\n  DUP2 \t\t\t\n  PUSH FFFFFFFFFFFF\t\t\t\n  MUL \t\t\t\n  NOT \t\t\t\n  AND \t\t\t\n  SWAP1 \t\t\t\n  DUP4 \t\t\t\n  PUSH FFFFFFFFFFFF\t\t\t\n  AND \t\t\t\n  MUL \t\t\t\n  OR \t\t\t\n  SWAP1 \t\t\t\n  SSTORE \t\t\t\n  POP \t\t\t\n  PUSH 20\t\t\t\n  DUP3 \t\t\t\n  ADD \t\t\t\n  MLOAD \t\t\t\n  DUP2 \t\t\t\n  PUSH 0\t\t\t\n  ADD \t\t\t\n  PUSH 6\t\t\t\n  PUSH 100\t\t\t\n  EXP \t\t\t\n  DUP2 \t\t\t\n  SLOAD \t\t\t\n  DUP2 \t\t\t\n  PUSH FFFFFFFFFFFFFFFFFFFFFFFFFFFFFFFFFFFFFFFFFFFFFFFFFFFF\t\t\t\n  MUL \t\t\t\n  NOT \t\t\t\n  AND \t\t\t\n  SWAP1 \t\t\t\n  DUP4 \t\t\t\n  PUSH FFFFFFFFFFFFFFFFFFFFFFFFFFFFFFFFFFFFFFFFFFFFFFFFFFFF\t\t\t\n  AND \t\t\t\n  MUL \t\t\t\n  OR \t\t\t\n  SWAP1 \t\t\t\n  SSTORE \t\t\t\n  POP \t\t\t\n  POP \t\t\t\n  POP \t\t\t\ntag 148\t\t\t\n  JUMPDEST \t\t\t\n  DUP1 \t\t\t\n  PUSH 20\t\t\t\n  ADD \t\t\t\n  MLOAD \t\t\t\n  DUP6 \t\t\t\n  SWAP4 \t\t\t\n  POP \t\t\t\n  SWAP4 \t\t\t\n  POP \t\t\t\n  POP \t\t\t\n  POP \t\t\t\n  PUSH [tag] 140\t\t\t\n  JUMP \t\t\t\ntag 141\t\t\t\n  JUMPDEST \t\t\t\n  DUP6 \t\t\t\n  PUSH 40\t\t\t\n  MLOAD \t\t\t\n  DUP1 \t\t\t\n  PUSH 40\t\t\t\n  ADD \t\t\t\n  PUSH 40\t\t\t\n  MSTORE \t\t\t\n  DUP1 \t\t\t\n  DUP8 \t\t\t\n  PUSH FFFFFFFFFFFF\t\t\t\n  AND \t\t\t\n  DUP2 \t\t\t\n  MSTORE \t\t\t\n  PUSH 20\t\t\t\n  ADD \t\t\t\n  DUP7 \t\t\t\n  PUSH FFFFFFFFFFFFFFFFFFFFFFFFFFFFFFFFFFFFFFFFFFFFFFFFFFFF\t\t\t\n  AND \t\t\t\n  DUP2 \t\t\t\n  MSTORE \t\t\t\n  POP \t\t\t\n  SWAP1 \t\t\t\n  DUP1 \t\t\t\n  PUSH 1\t\t\t\n  DUP2 \t\t\t\n  SLOAD \t\t\t\n  ADD \t\t\t\n  DUP1 \t\t\t\n  DUP3 \t\t\t\n  SSTORE \t\t\t\n  DUP1 \t\t\t\n  SWAP2 \t\t\t\n  POP \t\t\t\n  POP \t\t\t\n  PUSH 1\t\t\t\n  SWAP1 \t\t\t\n  SUB \t\t\t\n  SWAP1 \t\t\t\n  PUSH 0\t\t\t\n  MSTORE \t\t\t\n  PUSH 20\t\t\t\n  PUSH 0\t\t\t\n  KECCAK256 \t\t\t\n  ADD \t\t\t\n  PUSH 0\t\t\t\n  SWAP1 \t\t\t\n  SWAP2 \t\t\t\n  SWAP1 \t\t\t\n  SWAP2 \t\t\t\n  SWAP1 \t\t\t\n  SWAP2 \t\t\t\n  POP \t\t\t\n  PUSH 0\t\t\t\n  DUP3 \t\t\t\n  ADD \t\t\t\n  MLOAD \t\t\t\n  DUP2 \t\t\t\n  PUSH 0\t\t\t\n  ADD \t\t\t\n  PUSH 0\t\t\t\n  PUSH 100\t\t\t\n  EXP \t\t\t\n  DUP2 \t\t\t\n  SLOAD \t\t\t\n  DUP2 \t\t\t\n  PUSH FFFFFFFFFFFF\t\t\t\n  MUL \t\t\t\n  NOT \t\t\t\n  AND \t\t\t\n  SWAP1 \t\t\t\n  DUP4 \t\t\t\n  PUSH FFFFFFFFFFFF\t\t\t\n  AND \t\t\t\n  MUL \t\t\t\n  OR \t\t\t\n  SWAP1 \t\t\t\n  SSTORE \t\t\t\n  POP \t\t\t\n  PUSH 20\t\t\t\n  DUP3 \t\t\t\n  ADD \t\t\t\n  MLOAD \t\t\t\n  DUP2 \t\t\t\n  PUSH 0\t\t\t\n  ADD \t\t\t\n  PUSH 6\t\t\t\n  PUSH 100\t\t\t\n  EXP \t\t\t\n  DUP2 \t\t\t\n  SLOAD \t\t\t\n  DUP2 \t\t\t\n  PUSH FFFFFFFFFFFFFFFFFFFFFFFFFFFFFFFFFFFFFFFFFFFFFFFFFFFF\t\t\t\n  MUL \t\t\t\n  NOT \t\t\t\n  AND \t\t\t\n  SWAP1 \t\t\t\n  DUP4 \t\t\t\n  PUSH FFFFFFFFFFFFFFFFFFFFFFFFFFFFFFFFFFFFFFFFFFFFFFFFFFFF\t\t\t\n  AND \t\t\t\n  MUL \t\t\t\n  OR \t\t\t\n  SWAP1 \t\t\t\n  SSTORE \t\t\t\n  POP \t\t\t\n  POP \t\t\t\n  POP \t\t\t\n  PUSH 0\t\t\t\n  DUP5 \t\t\t\n  SWAP3 \t\t\t\n  POP \t\t\t\n  SWAP3 \t\t\t\n  POP \t\t\t\n  POP \t\t\t\ntag 140\t\t\t\n  JUMPDEST \t\t\t\n  SWAP4 \t\t\t\n  POP \t\t\t\n  SWAP4 \t\t\t\n  SWAP2 \t\t\t\n  POP \t\t\t\n  POP \t\t\t\n  JUMP \t\t\t\ntag 138\t\t\t\n  JUMPDEST \t\t\t\n  PUSH 0\t\t\t\n  PUSH FFFFFFFFFFFF\t\t\t\n  DUP1 \t\t\t\n  AND \t\t\t\n  DUP3 \t\t\t\n  GT \t\t\t\n  ISZERO \t\t\t\n  PUSH [tag] 153\t\t\t\n  JUMPI \t\t\t\n  PUSH 30\t\t\t\n  DUP3 \t\t\t\n  PUSH 40\t\t\t\n  MLOAD \t\t\t\n  PUSH 6DFCC65000000000000000000000000000000000000000000000000000000000\t\t\t\n  DUP2 \t\t\t\n  MSTORE \t\t\t\n  PUSH 4\t\t\t\n  ADD \t\t\t\n  PUSH [tag] 154\t\t\t\n  SWAP3 \t\t\t\n  SWAP2 \t\t\t\n  SWAP1 \t\t\t\n  PUSH [tag] 155\t\t\t\n  JUMP \t\t\t\ntag 154\t\t\t\n  JUMPDEST \t\t\t\n  PUSH 40\t\t\t\n  MLOAD \t\t\t\n  DUP1 \t\t\t\n  SWAP2 \t\t\t\n  SUB \t\t\t\n  SWAP1 \t\t\t\n  REVERT \t\t\t\ntag 153\t\t\t\n  JUMPDEST \t\t\t\n  DUP2 \t\t\t\n  SWAP1 \t\t\t\n  POP \t\t\t\n  SWAP2 \t\t\t\n  SWAP1 \t\t\t\n  POP \t\t\t\n  JUMP \t\t\t\ntag 156\t\t\t-License-Identifier: MIT\\nprag...\n  JUMPDEST \t\t\t-License-Identifier: MIT\\nprag...\n  PUSH 0\t\t\tolidit\n  PUSH 40\t\t\tpp\n  MLOAD \t\t\topenzeppe\n  SWAP1 \t\t\t\\nimport \"@openzeppe\n  POP \t\t\t\\nimport \"@openzeppe\n  SWAP1 \t\t\t-License-Identifier: MIT\\nprag...\n  JUMP \t\t\t-License-Identifier: MIT\\nprag...\ntag 157\t\t\ts@5.0.1/token/ERC20/ERC20.sol\"...\n  JUMPDEST \t\t\ts@5.0.1/token/ERC20/ERC20.sol\"...\n  PUSH 0\t\t\t;\n  DUP1 \t\t\to\n  REVERT \t\t\termit.sol\";\\n\ntag 158\t\t\tnzeppelin/contracts@5.0.1/toke...\n  JUMPDEST \t\t\tnzeppelin/contracts@5.0.1/toke...\n  PUSH 0\t\t\ti\n  DUP1 \t\t\te\n  REVERT \t\t\t ERC20Permit\ntag 159\t\t\t {\\n    constructor(string mem...\n  JUMPDEST \t\t\t {\\n    constructor(string mem...\n  PUSH 0\t\t\ti\n  DUP1 \t\t\te\n  REVERT \t\t\t ERC20Permit\ntag 160\t\t\t     _mint(msg.sender, maxSupp...\n  JUMPDEST \t\t\t     _mint(msg.sender, maxSupp...\n  PUSH 0\t\t\t\\n\n  DUP1 \t\t\ty\n  REVERT \t\t\tSolidity.\\n\\n \ntag 161\t\t\t_update(address from, address ...\n  JUMPDEST \t\t\t_update(address from, address ...\n  PUSH 0\t\t\t value\n  PUSH 1F\t\t\tC2\n  NOT \t\t\t, ERC20\n  PUSH 1F\t\t\tER\n  DUP4 \t\t\terrid\n  ADD \t\t\t  override(ERC\n  AND \t\t\t      override(ERC20, ERC20V\n  SWAP1 \t\t\tnternal\\n        override(ERC2...\n  POP \t\t\tnternal\\n        override(ERC2...\n  SWAP2 \t\t\t_update(address from, address ...\n  SWAP1 \t\t\t_update(address from, address ...\n  POP \t\t\t_update(address from, address ...\n  JUMP \t\t\t_update(address from, address ...\ntag 162\t\t\t        super._update(from, to...\n  JUMPDEST \t\t\t        super._update(from, to...\n  PUSH 4E487B7100000000000000000000000000000000000000000000000000000000\t\t\t   function nonces(address own...\n  PUSH 0\t\t\t\\n\n  MSTORE \t\t\t;\\n    }\\n\\n    function nonce...\n  PUSH 41\t\t\ts)\\n \n  PUSH 4\t\t\tn\n  MSTORE \t\t\tmit, Nonces)\\n  \n  PUSH 24\t\t\t256)\n  PUSH 0\t\t\ti\n  REVERT \t\t\turns (uint256)\\n\ntag 163\t\t\t  return super.nonces(owner);\\...\n  JUMPDEST \t\t\t  return super.nonces(owner);\\...\n  PUSH [tag] 219\t\t\t\n  DUP3 \t\t\t\n  PUSH [tag] 161\t\t\t\n  JUMP \t\t\t\ntag 219\t\t\t\n  JUMPDEST \t\t\t\n  DUP2 \t\t\t\n  ADD \t\t\t\n  DUP2 \t\t\t\n  DUP2 \t\t\t\n  LT \t\t\t\n  PUSH FFFFFFFFFFFFFFFF\t\t\t\n  DUP3 \t\t\t\n  GT \t\t\t\n  OR \t\t\t\n  ISZERO \t\t\t\n  PUSH [tag] 220\t\t\t\n  JUMPI \t\t\t\n  PUSH [tag] 221\t\t\t\n  PUSH [tag] 162\t\t\t\n  JUMP \t\t\t\ntag 221\t\t\t\n  JUMPDEST \t\t\t\ntag 220\t\t\t\n  JUMPDEST \t\t\t\n  DUP1 \t\t\t\n  PUSH 40\t\t\t\n  MSTORE \t\t\t\n  POP \t\t\t\n  POP \t\t\t  return super.nonces(owner);\\...\n  POP \t\t\t  return super.nonces(owner);\\...\n  JUMP \t\t\t  return super.nonces(owner);\\...\ntag 164\t\t\t\n  JUMPDEST \t\t\t\n  PUSH 0\t\t\t\n  PUSH [tag] 223\t\t\t\n  PUSH [tag] 156\t\t\t\n  JUMP \t\t\t\ntag 223\t\t\t\n  JUMPDEST \t\t\t\n  SWAP1 \t\t\t\n  POP \t\t\t\n  PUSH [tag] 224\t\t\t\n  DUP3 \t\t\t\n  DUP3 \t\t\t\n  PUSH [tag] 163\t\t\t\n  JUMP \t\t\t\ntag 224\t\t\t\n  JUMPDEST \t\t\t\n  SWAP2 \t\t\t\n  SWAP1 \t\t\t\n  POP \t\t\t\n  JUMP \t\t\t\ntag 165\t\t\t\n  JUMPDEST \t\t\t\n  PUSH 0\t\t\t\n  PUSH FFFFFFFFFFFFFFFF\t\t\t\n  DUP3 \t\t\t\n  GT \t\t\t\n  ISZERO \t\t\t\n  PUSH [tag] 226\t\t\t\n  JUMPI \t\t\t\n  PUSH [tag] 227\t\t\t\n  PUSH [tag] 162\t\t\t\n  JUMP \t\t\t\ntag 227\t\t\t\n  JUMPDEST \t\t\t\ntag 226\t\t\t\n  JUMPDEST \t\t\t\n  PUSH [tag] 228\t\t\t\n  DUP3 \t\t\t\n  PUSH [tag] 161\t\t\t\n  JUMP \t\t\t\ntag 228\t\t\t\n  JUMPDEST \t\t\t\n  SWAP1 \t\t\t\n  POP \t\t\t\n  PUSH 20\t\t\t\n  DUP2 \t\t\t\n  ADD \t\t\t\n  SWAP1 \t\t\t\n  POP \t\t\t\n  SWAP2 \t\t\t\n  SWAP1 \t\t\t\n  POP \t\t\t\n  JUMP \t\t\t\ntag 166\t\t\t\n  JUMPDEST \t\t\t\n  PUSH 0\t\t\t\ntag 230\t\t\t\n  JUMPDEST \t\t\t\n  DUP4 \t\t\t\n  DUP2 \t\t\t\n  LT \t\t\t\n  ISZERO \t\t\t\n  PUSH [tag] 232\t\t\t\n  JUMPI \t\t\t\n  DUP1 \t\t\t\n  DUP3 \t\t\t\n  ADD \t\t\t\n  MLOAD \t\t\t\n  DUP2 \t\t\t\n  DUP5 \t\t\t\n  ADD \t\t\t\n  MSTORE \t\t\t\n  PUSH 20\t\t\t\n  DUP2 \t\t\t\n  ADD \t\t\t\n  SWAP1 \t\t\t\n  POP \t\t\t\n  PUSH [tag] 230\t\t\t\n  JUMP \t\t\t\ntag 232\t\t\t\n  JUMPDEST \t\t\t\n  PUSH 0\t\t\t\n  DUP5 \t\t\t\n  DUP5 \t\t\t\n  ADD \t\t\t\n  MSTORE \t\t\t\n  POP \t\t\t\n  POP \t\t\t\n  POP \t\t\t\n  POP \t\t\t\n  JUMP \t\t\t\ntag 167\t\t\t\n  JUMPDEST \t\t\t\n  PUSH 0\t\t\t\n  PUSH [tag] 234\t\t\t\n  PUSH [tag] 235\t\t\t\n  DUP5 \t\t\t\n  PUSH [tag] 165\t\t\t\n  JUMP \t\t\t\ntag 235\t\t\t\n  JUMPDEST \t\t\t\n  PUSH [tag] 164\t\t\t\n  JUMP \t\t\t\ntag 234\t\t\t\n  JUMPDEST \t\t\t\n  SWAP1 \t\t\t\n  POP \t\t\t\n  DUP3 \t\t\t\n  DUP2 \t\t\t\n  MSTORE \t\t\t\n  PUSH 20\t\t\t\n  DUP2 \t\t\t\n  ADD \t\t\t\n  DUP5 \t\t\t\n  DUP5 \t\t\t\n  DUP5 \t\t\t\n  ADD \t\t\t\n  GT \t\t\t\n  ISZERO \t\t\t\n  PUSH [tag] 236\t\t\t\n  JUMPI \t\t\t\n  PUSH [tag] 237\t\t\t\n  PUSH [tag] 160\t\t\t\n  JUMP \t\t\t\ntag 237\t\t\t\n  JUMPDEST \t\t\t\ntag 236\t\t\t\n  JUMPDEST \t\t\t\n  PUSH [tag] 238\t\t\t\n  DUP5 \t\t\t\n  DUP3 \t\t\t\n  DUP6 \t\t\t\n  PUSH [tag] 166\t\t\t\n  JUMP \t\t\t\ntag 238\t\t\t\n  JUMPDEST \t\t\t\n  POP \t\t\t\n  SWAP4 \t\t\t\n  SWAP3 \t\t\t\n  POP \t\t\t\n  POP \t\t\t\n  POP \t\t\t\n  JUMP \t\t\t\ntag 168\t\t\t\n  JUMPDEST \t\t\t\n  PUSH 0\t\t\t\n  DUP3 \t\t\t\n  PUSH 1F\t\t\t\n  DUP4 \t\t\t\n  ADD \t\t\t\n  SLT \t\t\t\n  PUSH [tag] 240\t\t\t\n  JUMPI \t\t\t\n  PUSH [tag] 241\t\t\t\n  PUSH [tag] 159\t\t\t\n  JUMP \t\t\t\ntag 241\t\t\t\n  JUMPDEST \t\t\t\ntag 240\t\t\t\n  JUMPDEST \t\t\t\n  DUP2 \t\t\t\n  MLOAD \t\t\t\n  PUSH [tag] 242\t\t\t\n  DUP5 \t\t\t\n  DUP3 \t\t\t\n  PUSH 20\t\t\t\n  DUP7 \t\t\t\n  ADD \t\t\t\n  PUSH [tag] 167\t\t\t\n  JUMP \t\t\t\ntag 242\t\t\t\n  JUMPDEST \t\t\t\n  SWAP2 \t\t\t\n  POP \t\t\t\n  POP \t\t\t\n  SWAP3 \t\t\t\n  SWAP2 \t\t\t\n  POP \t\t\t\n  POP \t\t\t\n  JUMP \t\t\t\ntag 169\t\t\t\n  JUMPDEST \t\t\t\n  PUSH 0\t\t\t\n  DUP2 \t\t\t\n  SWAP1 \t\t\t\n  POP \t\t\t\n  SWAP2 \t\t\t\n  SWAP1 \t\t\t\n  POP \t\t\t\n  JUMP \t\t\t\ntag 170\t\t\t\n  JUMPDEST \t\t\t\n  PUSH [tag] 245\t\t\t\n  DUP2 \t\t\t\n  PUSH [tag] 169\t\t\t\n  JUMP \t\t\t\ntag 245\t\t\t\n  JUMPDEST \t\t\t\n  DUP2 \t\t\t\n  EQ \t\t\t\n  PUSH [tag] 246\t\t\t\n  JUMPI \t\t\t\n  PUSH 0\t\t\t\n  DUP1 \t\t\t\n  REVERT \t\t\t\ntag 246\t\t\t\n  JUMPDEST \t\t\t\n  POP \t\t\t\n  JUMP \t\t\t\ntag 171\t\t\t\n  JUMPDEST \t\t\t\n  PUSH 0\t\t\t\n  DUP2 \t\t\t\n  MLOAD \t\t\t\n  SWAP1 \t\t\t\n  POP \t\t\t\n  PUSH [tag] 248\t\t\t\n  DUP2 \t\t\t\n  PUSH [tag] 170\t\t\t\n  JUMP \t\t\t\ntag 248\t\t\t\n  JUMPDEST \t\t\t\n  SWAP3 \t\t\t\n  SWAP2 \t\t\t\n  POP \t\t\t\n  POP \t\t\t\n  JUMP \t\t\t\ntag 3\t\t\t\n  JUMPDEST \t\t\t\n  PUSH 0\t\t\t\n  DUP1 \t\t\t\n  PUSH 0\t\t\t\n  PUSH 60\t\t\t\n  DUP5 \t\t\t\n  DUP7 \t\t\t\n  SUB \t\t\t\n  SLT \t\t\t\n  ISZERO \t\t\t\n  PUSH [tag] 250\t\t\t\n  JUMPI \t\t\t\n  PUSH [tag] 251\t\t\t\n  PUSH [tag] 157\t\t\t\n  JUMP \t\t\t\ntag 251\t\t\t\n  JUMPDEST \t\t\t\ntag 250\t\t\t\n  JUMPDEST \t\t\t\n  PUSH 0\t\t\t\n  DUP5 \t\t\t\n  ADD \t\t\t\n  MLOAD \t\t\t\n  PUSH FFFFFFFFFFFFFFFF\t\t\t\n  DUP2 \t\t\t\n  GT \t\t\t\n  ISZERO \t\t\t\n  PUSH [tag] 252\t\t\t\n  JUMPI \t\t\t\n  PUSH [tag] 253\t\t\t\n  PUSH [tag] 158\t\t\t\n  JUMP \t\t\t\ntag 253\t\t\t\n  JUMPDEST \t\t\t\ntag 252\t\t\t\n  JUMPDEST \t\t\t\n  PUSH [tag] 254\t\t\t\n  DUP7 \t\t\t\n  DUP3 \t\t\t\n  DUP8 \t\t\t\n  ADD \t\t\t\n  PUSH [tag] 168\t\t\t\n  JUMP \t\t\t\ntag 254\t\t\t\n  JUMPDEST \t\t\t\n  SWAP4 \t\t\t\n  POP \t\t\t\n  POP \t\t\t\n  PUSH 20\t\t\t\n  DUP5 \t\t\t\n  ADD \t\t\t\n  MLOAD \t\t\t\n  PUSH FFFFFFFFFFFFFFFF\t\t\t\n  DUP2 \t\t\t\n  GT \t\t\t\n  ISZERO \t\t\t\n  PUSH [tag] 255\t\t\t\n  JUMPI \t\t\t\n  PUSH [tag] 256\t\t\t\n  PUSH [tag] 158\t\t\t\n  JUMP \t\t\t\ntag 256\t\t\t\n  JUMPDEST \t\t\t\ntag 255\t\t\t\n  JUMPDEST \t\t\t\n  PUSH [tag] 257\t\t\t\n  DUP7 \t\t\t\n  DUP3 \t\t\t\n  DUP8 \t\t\t\n  ADD \t\t\t\n  PUSH [tag] 168\t\t\t\n  JUMP \t\t\t\ntag 257\t\t\t\n  JUMPDEST \t\t\t\n  SWAP3 \t\t\t\n  POP \t\t\t\n  POP \t\t\t\n  PUSH 40\t\t\t\n  PUSH [tag] 258\t\t\t\n  DUP7 \t\t\t\n  DUP3 \t\t\t\n  DUP8 \t\t\t\n  ADD \t\t\t\n  PUSH [tag] 171\t\t\t\n  JUMP \t\t\t\ntag 258\t\t\t\n  JUMPDEST \t\t\t\n  SWAP2 \t\t\t\n  POP \t\t\t\n  POP \t\t\t\n  SWAP3 \t\t\t\n  POP \t\t\t\n  SWAP3 \t\t\t\n  POP \t\t\t\n  SWAP3 \t\t\t\n  JUMP \t\t\t\ntag 172\t\t\t\n  JUMPDEST \t\t\t\n  PUSH 0\t\t\t\n  DUP2 \t\t\t\n  MLOAD \t\t\t\n  SWAP1 \t\t\t\n  POP \t\t\t\n  SWAP2 \t\t\t\n  SWAP1 \t\t\t\n  POP \t\t\t\n  JUMP \t\t\t\ntag 173\t\t\t\n  JUMPDEST \t\t\t\n  PUSH 4E487B7100000000000000000000000000000000000000000000000000000000\t\t\t\n  PUSH 0\t\t\t\n  MSTORE \t\t\t\n  PUSH 22\t\t\t\n  PUSH 4\t\t\t\n  MSTORE \t\t\t\n  PUSH 24\t\t\t\n  PUSH 0\t\t\t\n  REVERT \t\t\t\ntag 174\t\t\t\n  JUMPDEST \t\t\t\n  PUSH 0\t\t\t\n  PUSH 2\t\t\t\n  DUP3 \t\t\t\n  DIV \t\t\t\n  SWAP1 \t\t\t\n  POP \t\t\t\n  PUSH 1\t\t\t\n  DUP3 \t\t\t\n  AND \t\t\t\n  DUP1 \t\t\t\n  PUSH [tag] 262\t\t\t\n  JUMPI \t\t\t\n  PUSH 7F\t\t\t\n  DUP3 \t\t\t\n  AND \t\t\t\n  SWAP2 \t\t\t\n  POP \t\t\t\ntag 262\t\t\t\n  JUMPDEST \t\t\t\n  PUSH 20\t\t\t\n  DUP3 \t\t\t\n  LT \t\t\t\n  DUP2 \t\t\t\n  SUB \t\t\t\n  PUSH [tag] 263\t\t\t\n  JUMPI \t\t\t\n  PUSH [tag] 264\t\t\t\n  PUSH [tag] 173\t\t\t\n  JUMP \t\t\t\ntag 264\t\t\t\n  JUMPDEST \t\t\t\ntag 263\t\t\t\n  JUMPDEST \t\t\t\n  POP \t\t\t\n  SWAP2 \t\t\t\n  SWAP1 \t\t\t\n  POP \t\t\t\n  JUMP \t\t\t\ntag 175\t\t\t\n  JUMPDEST \t\t\t\n  PUSH 0\t\t\t\n  DUP2 \t\t\t\n  SWAP1 \t\t\t\n  POP \t\t\t\n  DUP2 \t\t\t\n  PUSH 0\t\t\t\n  MSTORE \t\t\t\n  PUSH 20\t\t\t\n  PUSH 0\t\t\t\n  KECCAK256 \t\t\t\n  SWAP1 \t\t\t\n  POP \t\t\t\n  SWAP2 \t\t\t\n  SWAP1 \t\t\t\n  POP \t\t\t\n  JUMP \t\t\t\ntag 176\t\t\t\n  JUMPDEST \t\t\t\n  PUSH 0\t\t\t\n  PUSH 20\t\t\t\n  PUSH 1F\t\t\t\n  DUP4 \t\t\t\n  ADD \t\t\t\n  DIV \t\t\t\n  SWAP1 \t\t\t\n  POP \t\t\t\n  SWAP2 \t\t\t\n  SWAP1 \t\t\t\n  POP \t\t\t\n  JUMP \t\t\t\ntag 177\t\t\t\n  JUMPDEST \t\t\t\n  PUSH 0\t\t\t\n  DUP3 \t\t\t\n  DUP3 \t\t\t\n  SHL \t\t\t\n  SWAP1 \t\t\t\n  POP \t\t\t\n  SWAP3 \t\t\t\n  SWAP2 \t\t\t\n  POP \t\t\t\n  POP \t\t\t\n  JUMP \t\t\t\ntag 178\t\t\t\n  JUMPDEST \t\t\t\n  PUSH 0\t\t\t\n  PUSH 8\t\t\t\n  DUP4 \t\t\t\n  MUL \t\t\t\n  PUSH [tag] 269\t\t\t\n  PUSH FFFFFFFFFFFFFFFFFFFFFFFFFFFFFFFFFFFFFFFFFFFFFFFFFFFFFFFFFFFFFFFF\t\t\t\n  DUP3 \t\t\t\n  PUSH [tag] 177\t\t\t\n  JUMP \t\t\t\ntag 269\t\t\t\n  JUMPDEST \t\t\t\n  PUSH [tag] 270\t\t\t\n  DUP7 \t\t\t\n  DUP4 \t\t\t\n  PUSH [tag] 177\t\t\t\n  JUMP \t\t\t\ntag 270\t\t\t\n  JUMPDEST \t\t\t\n  SWAP6 \t\t\t\n  POP \t\t\t\n  DUP1 \t\t\t\n  NOT \t\t\t\n  DUP5 \t\t\t\n  AND \t\t\t\n  SWAP4 \t\t\t\n  POP \t\t\t\n  DUP1 \t\t\t\n  DUP7 \t\t\t\n  AND \t\t\t\n  DUP5 \t\t\t\n  OR \t\t\t\n  SWAP3 \t\t\t\n  POP \t\t\t\n  POP \t\t\t\n  POP \t\t\t\n  SWAP4 \t\t\t\n  SWAP3 \t\t\t\n  POP \t\t\t\n  POP \t\t\t\n  POP \t\t\t\n  JUMP \t\t\t\ntag 179\t\t\t\n  JUMPDEST \t\t\t\n  PUSH 0\t\t\t\n  DUP2 \t\t\t\n  SWAP1 \t\t\t\n  POP \t\t\t\n  SWAP2 \t\t\t\n  SWAP1 \t\t\t\n  POP \t\t\t\n  JUMP \t\t\t\ntag 180\t\t\t\n  JUMPDEST \t\t\t\n  PUSH 0\t\t\t\n  PUSH [tag] 273\t\t\t\n  PUSH [tag] 274\t\t\t\n  PUSH [tag] 275\t\t\t\n  DUP5 \t\t\t\n  PUSH [tag] 169\t\t\t\n  JUMP \t\t\t\ntag 275\t\t\t\n  JUMPDEST \t\t\t\n  PUSH [tag] 179\t\t\t\n  JUMP \t\t\t\ntag 274\t\t\t\n  JUMPDEST \t\t\t\n  PUSH [tag] 169\t\t\t\n  JUMP \t\t\t\ntag 273\t\t\t\n  JUMPDEST \t\t\t\n  SWAP1 \t\t\t\n  POP \t\t\t\n  SWAP2 \t\t\t\n  SWAP1 \t\t\t\n  POP \t\t\t\n  JUMP \t\t\t\ntag 181\t\t\t\n  JUMPDEST \t\t\t\n  PUSH 0\t\t\t\n  DUP2 \t\t\t\n  SWAP1 \t\t\t\n  POP \t\t\t\n  SWAP2 \t\t\t\n  SWAP1 \t\t\t\n  POP \t\t\t\n  JUMP \t\t\t\ntag 182\t\t\t\n  JUMPDEST \t\t\t\n  PUSH [tag] 278\t\t\t\n  DUP4 \t\t\t\n  PUSH [tag] 180\t\t\t\n  JUMP \t\t\t\ntag 278\t\t\t\n  JUMPDEST \t\t\t\n  PUSH [tag] 279\t\t\t\n  PUSH [tag] 280\t\t\t\n  DUP3 \t\t\t\n  PUSH [tag] 181\t\t\t\n  JUMP \t\t\t\ntag 280\t\t\t\n  JUMPDEST \t\t\t\n  DUP5 \t\t\t\n  DUP5 \t\t\t\n  SLOAD \t\t\t\n  PUSH [tag] 178\t\t\t\n  JUMP \t\t\t\ntag 279\t\t\t\n  JUMPDEST \t\t\t\n  DUP3 \t\t\t\n  SSTORE \t\t\t\n  POP \t\t\t\n  POP \t\t\t\n  POP \t\t\t\n  POP \t\t\t\n  JUMP \t\t\t\ntag 183\t\t\t\n  JUMPDEST \t\t\t\n  PUSH 0\t\t\t\n  SWAP1 \t\t\t\n  JUMP \t\t\t\ntag 184\t\t\t\n  JUMPDEST \t\t\t\n  PUSH [tag] 283\t\t\t\n  PUSH [tag] 183\t\t\t\n  JUMP \t\t\t\ntag 283\t\t\t\n  JUMPDEST \t\t\t\n  PUSH [tag] 284\t\t\t\n  DUP2 \t\t\t\n  DUP5 \t\t\t\n  DUP5 \t\t\t\n  PUSH [tag] 182\t\t\t\n  JUMP \t\t\t\ntag 284\t\t\t\n  JUMPDEST \t\t\t\n  POP \t\t\t\n  POP \t\t\t\n  POP \t\t\t\n  JUMP \t\t\t\ntag 185\t\t\t\n  JUMPDEST \t\t\t\ntag 286\t\t\t\n  JUMPDEST \t\t\t\n  DUP2 \t\t\t\n  DUP2 \t\t\t\n  LT \t\t\t\n  ISZERO \t\t\t\n  PUSH [tag] 288\t\t\t\n  JUMPI \t\t\t\n  PUSH [tag] 289\t\t\t\n  PUSH 0\t\t\t\n  DUP3 \t\t\t\n  PUSH [tag] 184\t\t\t\n  JUMP \t\t\t\ntag 289\t\t\t\n  JUMPDEST \t\t\t\n  PUSH 1\t\t\t\n  DUP2 \t\t\t\n  ADD \t\t\t\n  SWAP1 \t\t\t\n  POP \t\t\t\n  PUSH [tag] 286\t\t\t\n  JUMP \t\t\t\ntag 288\t\t\t\n  JUMPDEST \t\t\t\n  POP \t\t\t\n  POP \t\t\t\n  JUMP \t\t\t\ntag 186\t\t\t\n  JUMPDEST \t\t\t\n  PUSH 1F\t\t\t\n  DUP3 \t\t\t\n  GT \t\t\t\n  ISZERO \t\t\t\n  PUSH [tag] 291\t\t\t\n  JUMPI \t\t\t\n  PUSH [tag] 292\t\t\t\n  DUP2 \t\t\t\n  PUSH [tag] 175\t\t\t\n  JUMP \t\t\t\ntag 292\t\t\t\n  JUMPDEST \t\t\t\n  PUSH [tag] 293\t\t\t\n  DUP5 \t\t\t\n  PUSH [tag] 176\t\t\t\n  JUMP \t\t\t\ntag 293\t\t\t\n  JUMPDEST \t\t\t\n  DUP2 \t\t\t\n  ADD \t\t\t\n  PUSH 20\t\t\t\n  DUP6 \t\t\t\n  LT \t\t\t\n  ISZERO \t\t\t\n  PUSH [tag] 294\t\t\t\n  JUMPI \t\t\t\n  DUP2 \t\t\t\n  SWAP1 \t\t\t\n  POP \t\t\t\ntag 294\t\t\t\n  JUMPDEST \t\t\t\n  PUSH [tag] 295\t\t\t\n  PUSH [tag] 296\t\t\t\n  DUP6 \t\t\t\n  PUSH [tag] 176\t\t\t\n  JUMP \t\t\t\ntag 296\t\t\t\n  JUMPDEST \t\t\t\n  DUP4 \t\t\t\n  ADD \t\t\t\n  DUP3 \t\t\t\n  PUSH [tag] 185\t\t\t\n  JUMP \t\t\t\ntag 295\t\t\t\n  JUMPDEST \t\t\t\n  POP \t\t\t\n  POP \t\t\t\ntag 291\t\t\t\n  JUMPDEST \t\t\t\n  POP \t\t\t\n  POP \t\t\t\n  POP \t\t\t\n  JUMP \t\t\t\ntag 187\t\t\t\n  JUMPDEST \t\t\t\n  PUSH 0\t\t\t\n  DUP3 \t\t\t\n  DUP3 \t\t\t\n  SHR \t\t\t\n  SWAP1 \t\t\t\n  POP \t\t\t\n  SWAP3 \t\t\t\n  SWAP2 \t\t\t\n  POP \t\t\t\n  POP \t\t\t\n  JUMP \t\t\t\ntag 188\t\t\t\n  JUMPDEST \t\t\t\n  PUSH 0\t\t\t\n  PUSH [tag] 299\t\t\t\n  PUSH 0\t\t\t\n  NOT \t\t\t\n  DUP5 \t\t\t\n  PUSH 8\t\t\t\n  MUL \t\t\t\n  PUSH [tag] 187\t\t\t\n  JUMP \t\t\t\ntag 299\t\t\t\n  JUMPDEST \t\t\t\n  NOT \t\t\t\n  DUP1 \t\t\t\n  DUP4 \t\t\t\n  AND \t\t\t\n  SWAP2 \t\t\t\n  POP \t\t\t\n  POP \t\t\t\n  SWAP3 \t\t\t\n  SWAP2 \t\t\t\n  POP \t\t\t\n  POP \t\t\t\n  JUMP \t\t\t\ntag 189\t\t\t\n  JUMPDEST \t\t\t\n  PUSH 0\t\t\t\n  PUSH [tag] 301\t\t\t\n  DUP4 \t\t\t\n  DUP4 \t\t\t\n  PUSH [tag] 188\t\t\t\n  JUMP \t\t\t\ntag 301\t\t\t\n  JUMPDEST \t\t\t\n  SWAP2 \t\t\t\n  POP \t\t\t\n  DUP3 \t\t\t\n  PUSH 2\t\t\t\n  MUL \t\t\t\n  DUP3 \t\t\t\n  OR \t\t\t\n  SWAP1 \t\t\t\n  POP \t\t\t\n  SWAP3 \t\t\t\n  SWAP2 \t\t\t\n  POP \t\t\t\n  POP \t\t\t\n  JUMP \t\t\t\ntag 10\t\t\t\n  JUMPDEST \t\t\t\n  PUSH [tag] 303\t\t\t\n  DUP3 \t\t\t\n  PUSH [tag] 172\t\t\t\n  JUMP \t\t\t\ntag 303\t\t\t\n  JUMPDEST \t\t\t\n  PUSH FFFFFFFFFFFFFFFF\t\t\t\n  DUP2 \t\t\t\n  GT \t\t\t\n  ISZERO \t\t\t\n  PUSH [tag] 304\t\t\t\n  JUMPI \t\t\t\n  PUSH [tag] 305\t\t\t\n  PUSH [tag] 162\t\t\t\n  JUMP \t\t\t\ntag 305\t\t\t\n  JUMPDEST \t\t\t\ntag 304\t\t\t\n  JUMPDEST \t\t\t\n  PUSH [tag] 306\t\t\t\n  DUP3 \t\t\t\n  SLOAD \t\t\t\n  PUSH [tag] 174\t\t\t\n  JUMP \t\t\t\ntag 306\t\t\t\n  JUMPDEST \t\t\t\n  PUSH [tag] 307\t\t\t\n  DUP3 \t\t\t\n  DUP3 \t\t\t\n  DUP6 \t\t\t\n  PUSH [tag] 186\t\t\t\n  JUMP \t\t\t\ntag 307\t\t\t\n  JUMPDEST \t\t\t\n  PUSH 0\t\t\t\n  PUSH 20\t\t\t\n  SWAP1 \t\t\t\n  POP \t\t\t\n  PUSH 1F\t\t\t\n  DUP4 \t\t\t\n  GT \t\t\t\n  PUSH 1\t\t\t\n  DUP2 \t\t\t\n  EQ \t\t\t\n  PUSH [tag] 309\t\t\t\n  JUMPI \t\t\t\n  PUSH 0\t\t\t\n  DUP5 \t\t\t\n  ISZERO \t\t\t\n  PUSH [tag] 310\t\t\t\n  JUMPI \t\t\t\n  DUP3 \t\t\t\n  DUP8 \t\t\t\n  ADD \t\t\t\n  MLOAD \t\t\t\n  SWAP1 \t\t\t\n  POP \t\t\t\ntag 310\t\t\t\n  JUMPDEST \t\t\t\n  PUSH [tag] 311\t\t\t\n  DUP6 \t\t\t\n  DUP3 \t\t\t\n  PUSH [tag] 189\t\t\t\n  JUMP \t\t\t\ntag 311\t\t\t\n  JUMPDEST \t\t\t\n  DUP7 \t\t\t\n  SSTORE \t\t\t\n  POP \t\t\t\n  PUSH [tag] 308\t\t\t\n  JUMP \t\t\t\ntag 309\t\t\t\n  JUMPDEST \t\t\t\n  PUSH 1F\t\t\t\n  NOT \t\t\t\n  DUP5 \t\t\t\n  AND \t\t\t\n  PUSH [tag] 312\t\t\t\n  DUP7 \t\t\t\n  PUSH [tag] 175\t\t\t\n  JUMP \t\t\t\ntag 312\t\t\t\n  JUMPDEST \t\t\t\n  PUSH 0\t\t\t\ntag 313\t\t\t\n  JUMPDEST \t\t\t\n  DUP3 \t\t\t\n  DUP2 \t\t\t\n  LT \t\t\t\n  ISZERO \t\t\t\n  PUSH [tag] 315\t\t\t\n  JUMPI \t\t\t\n  DUP5 \t\t\t\n  DUP10 \t\t\t\n  ADD \t\t\t\n  MLOAD \t\t\t\n  DUP3 \t\t\t\n  SSTORE \t\t\t\n  PUSH 1\t\t\t\n  DUP3 \t\t\t\n  ADD \t\t\t\n  SWAP2 \t\t\t\n  POP \t\t\t\n  PUSH 20\t\t\t\n  DUP6 \t\t\t\n  ADD \t\t\t\n  SWAP5 \t\t\t\n  POP \t\t\t\n  PUSH 20\t\t\t\n  DUP2 \t\t\t\n  ADD \t\t\t\n  SWAP1 \t\t\t\n  POP \t\t\t\n  PUSH [tag] 313\t\t\t\n  JUMP \t\t\t\ntag 315\t\t\t\n  JUMPDEST \t\t\t\n  DUP7 \t\t\t\n  DUP4 \t\t\t\n  LT \t\t\t\n  ISZERO \t\t\t\n  PUSH [tag] 316\t\t\t\n  JUMPI \t\t\t\n  DUP5 \t\t\t\n  DUP10 \t\t\t\n  ADD \t\t\t\n  MLOAD \t\t\t\n  PUSH [tag] 317\t\t\t\n  PUSH 1F\t\t\t\n  DUP10 \t\t\t\n  AND \t\t\t\n  DUP3 \t\t\t\n  PUSH [tag] 188\t\t\t\n  JUMP \t\t\t\ntag 317\t\t\t\n  JUMPDEST \t\t\t\n  DUP4 \t\t\t\n  SSTORE \t\t\t\n  POP \t\t\t\ntag 316\t\t\t\n  JUMPDEST \t\t\t\n  PUSH 1\t\t\t\n  PUSH 2\t\t\t\n  DUP9 \t\t\t\n  MUL \t\t\t\n  ADD \t\t\t\n  DUP9 \t\t\t\n  SSTORE \t\t\t\n  POP \t\t\t\n  POP \t\t\t\n  POP \t\t\t\ntag 308\t\t\t\n  JUMPDEST \t\t\t\n  POP \t\t\t\n  POP \t\t\t\n  POP \t\t\t\n  POP \t\t\t\n  POP \t\t\t\n  POP \t\t\t\n  JUMP \t\t\t\ntag 190\t\t\t\n  JUMPDEST \t\t\t\n  PUSH 0\t\t\t\n  DUP2 \t\t\t\n  SWAP1 \t\t\t\n  POP \t\t\t\n  SWAP2 \t\t\t\n  SWAP1 \t\t\t\n  POP \t\t\t\n  JUMP \t\t\t\ntag 191\t\t\t\n  JUMPDEST \t\t\t\n  PUSH [tag] 320\t\t\t\n  DUP2 \t\t\t\n  PUSH [tag] 190\t\t\t\n  JUMP \t\t\t\ntag 320\t\t\t\n  JUMPDEST \t\t\t\n  DUP3 \t\t\t\n  MSTORE \t\t\t\n  POP \t\t\t\n  POP \t\t\t\n  JUMP \t\t\t\ntag 192\t\t\t\n  JUMPDEST \t\t\t\n  PUSH [tag] 322\t\t\t\n  DUP2 \t\t\t\n  PUSH [tag] 169\t\t\t\n  JUMP \t\t\t\ntag 322\t\t\t\n  JUMPDEST \t\t\t\n  DUP3 \t\t\t\n  MSTORE \t\t\t\n  POP \t\t\t\n  POP \t\t\t\n  JUMP \t\t\t\ntag 193\t\t\t\n  JUMPDEST \t\t\t\n  PUSH 0\t\t\t\n  PUSH FFFFFFFFFFFFFFFFFFFFFFFFFFFFFFFFFFFFFFFF\t\t\t\n  DUP3 \t\t\t\n  AND \t\t\t\n  SWAP1 \t\t\t\n  POP \t\t\t\n  SWAP2 \t\t\t\n  SWAP1 \t\t\t\n  POP \t\t\t\n  JUMP \t\t\t\ntag 194\t\t\t\n  JUMPDEST \t\t\t\n  PUSH 0\t\t\t\n  PUSH [tag] 325\t\t\t\n  DUP3 \t\t\t\n  PUSH [tag] 193\t\t\t\n  JUMP \t\t\t\ntag 325\t\t\t\n  JUMPDEST \t\t\t\n  SWAP1 \t\t\t\n  POP \t\t\t\n  SWAP2 \t\t\t\n  SWAP1 \t\t\t\n  POP \t\t\t\n  JUMP \t\t\t\ntag 195\t\t\t\n  JUMPDEST \t\t\t\n  PUSH [tag] 327\t\t\t\n  DUP2 \t\t\t\n  PUSH [tag] 194\t\t\t\n  JUMP \t\t\t\ntag 327\t\t\t\n  JUMPDEST \t\t\t\n  DUP3 \t\t\t\n  MSTORE \t\t\t\n  POP \t\t\t\n  POP \t\t\t\n  JUMP \t\t\t\ntag 33\t\t\t\n  JUMPDEST \t\t\t\n  PUSH 0\t\t\t\n  PUSH A0\t\t\t\n  DUP3 \t\t\t\n  ADD \t\t\t\n  SWAP1 \t\t\t\n  POP \t\t\t\n  PUSH [tag] 329\t\t\t\n  PUSH 0\t\t\t\n  DUP4 \t\t\t\n  ADD \t\t\t\n  DUP9 \t\t\t\n  PUSH [tag] 191\t\t\t\n  JUMP \t\t\t\ntag 329\t\t\t\n  JUMPDEST \t\t\t\n  PUSH [tag] 330\t\t\t\n  PUSH 20\t\t\t\n  DUP4 \t\t\t\n  ADD \t\t\t\n  DUP8 \t\t\t\n  PUSH [tag] 191\t\t\t\n  JUMP \t\t\t\ntag 330\t\t\t\n  JUMPDEST \t\t\t\n  PUSH [tag] 331\t\t\t\n  PUSH 40\t\t\t\n  DUP4 \t\t\t\n  ADD \t\t\t\n  DUP7 \t\t\t\n  PUSH [tag] 191\t\t\t\n  JUMP \t\t\t\ntag 331\t\t\t\n  JUMPDEST \t\t\t\n  PUSH [tag] 332\t\t\t\n  PUSH 60\t\t\t\n  DUP4 \t\t\t\n  ADD \t\t\t\n  DUP6 \t\t\t\n  PUSH [tag] 192\t\t\t\n  JUMP \t\t\t\ntag 332\t\t\t\n  JUMPDEST \t\t\t\n  PUSH [tag] 333\t\t\t\n  PUSH 80\t\t\t\n  DUP4 \t\t\t\n  ADD \t\t\t\n  DUP5 \t\t\t\n  PUSH [tag] 195\t\t\t\n  JUMP \t\t\t\ntag 333\t\t\t\n  JUMPDEST \t\t\t\n  SWAP7 \t\t\t\n  SWAP6 \t\t\t\n  POP \t\t\t\n  POP \t\t\t\n  POP \t\t\t\n  POP \t\t\t\n  POP \t\t\t\n  POP \t\t\t\n  JUMP \t\t\t\ntag 37\t\t\t\n  JUMPDEST \t\t\t\n  PUSH 0\t\t\t\n  PUSH 20\t\t\t\n  DUP3 \t\t\t\n  ADD \t\t\t\n  SWAP1 \t\t\t\n  POP \t\t\t\n  PUSH [tag] 335\t\t\t\n  PUSH 0\t\t\t\n  DUP4 \t\t\t\n  ADD \t\t\t\n  DUP5 \t\t\t\n  PUSH [tag] 195\t\t\t\n  JUMP \t\t\t\ntag 335\t\t\t\n  JUMPDEST \t\t\t\n  SWAP3 \t\t\t\n  SWAP2 \t\t\t\n  POP \t\t\t\n  POP \t\t\t\n  JUMP \t\t\t\ntag 196\t\t\t\n  JUMPDEST \t\t\t\n  PUSH 0\t\t\t\n  DUP3 \t\t\t\n  DUP3 \t\t\t\n  MSTORE \t\t\t\n  PUSH 20\t\t\t\n  DUP3 \t\t\t\n  ADD \t\t\t\n  SWAP1 \t\t\t\n  POP \t\t\t\n  SWAP3 \t\t\t\n  SWAP2 \t\t\t\n  POP \t\t\t\n  POP \t\t\t\n  JUMP \t\t\t\ntag 197\t\t\t\n  JUMPDEST \t\t\t\n  PUSH 0\t\t\t\n  PUSH [tag] 338\t\t\t\n  DUP3 \t\t\t\n  PUSH [tag] 172\t\t\t\n  JUMP \t\t\t\ntag 338\t\t\t\n  JUMPDEST \t\t\t\n  PUSH [tag] 339\t\t\t\n  DUP2 \t\t\t\n  DUP6 \t\t\t\n  PUSH [tag] 196\t\t\t\n  JUMP \t\t\t\ntag 339\t\t\t\n  JUMPDEST \t\t\t\n  SWAP4 \t\t\t\n  POP \t\t\t\n  PUSH [tag] 340\t\t\t\n  DUP2 \t\t\t\n  DUP6 \t\t\t\n  PUSH 20\t\t\t\n  DUP7 \t\t\t\n  ADD \t\t\t\n  PUSH [tag] 166\t\t\t\n  JUMP \t\t\t\ntag 340\t\t\t\n  JUMPDEST \t\t\t\n  PUSH [tag] 341\t\t\t\n  DUP2 \t\t\t\n  PUSH [tag] 161\t\t\t\n  JUMP \t\t\t\ntag 341\t\t\t\n  JUMPDEST \t\t\t\n  DUP5 \t\t\t\n  ADD \t\t\t\n  SWAP2 \t\t\t\n  POP \t\t\t\n  POP \t\t\t\n  SWAP3 \t\t\t\n  SWAP2 \t\t\t\n  POP \t\t\t\n  POP \t\t\t\n  JUMP \t\t\t\ntag 43\t\t\t\n  JUMPDEST \t\t\t\n  PUSH 0\t\t\t\n  PUSH 20\t\t\t\n  DUP3 \t\t\t\n  ADD \t\t\t\n  SWAP1 \t\t\t\n  POP \t\t\t\n  DUP2 \t\t\t\n  DUP2 \t\t\t\n  SUB \t\t\t\n  PUSH 0\t\t\t\n  DUP4 \t\t\t\n  ADD \t\t\t\n  MSTORE \t\t\t\n  PUSH [tag] 343\t\t\t\n  DUP2 \t\t\t\n  DUP5 \t\t\t\n  PUSH [tag] 197\t\t\t\n  JUMP \t\t\t\ntag 343\t\t\t\n  JUMPDEST \t\t\t\n  SWAP1 \t\t\t\n  POP \t\t\t\n  SWAP3 \t\t\t\n  SWAP2 \t\t\t\n  POP \t\t\t\n  POP \t\t\t\n  JUMP \t\t\t\ntag 198\t\t\t\n  JUMPDEST \t\t\t\n  PUSH 0\t\t\t\n  DUP2 \t\t\t\n  MLOAD \t\t\t\n  SWAP1 \t\t\t\n  POP \t\t\t\n  SWAP2 \t\t\t\n  SWAP1 \t\t\t\n  POP \t\t\t\n  JUMP \t\t\t\ntag 199\t\t\t\n  JUMPDEST \t\t\t\n  PUSH 0\t\t\t\n  DUP2 \t\t\t\n  SWAP1 \t\t\t\n  POP \t\t\t\n  PUSH 20\t\t\t\n  DUP3 \t\t\t\n  ADD \t\t\t\n  SWAP1 \t\t\t\n  POP \t\t\t\n  SWAP2 \t\t\t\n  SWAP1 \t\t\t\n  POP \t\t\t\n  JUMP \t\t\t\ntag 200\t\t\t\n  JUMPDEST \t\t\t\n  PUSH 0\t\t\t\n  PUSH [tag] 347\t\t\t\n  DUP3 \t\t\t\n  MLOAD \t\t\t\n  PUSH [tag] 190\t\t\t\n  JUMP \t\t\t\ntag 347\t\t\t\n  JUMPDEST \t\t\t\n  DUP1 \t\t\t\n  SWAP2 \t\t\t\n  POP \t\t\t\n  POP \t\t\t\n  SWAP2 \t\t\t\n  SWAP1 \t\t\t\n  POP \t\t\t\n  JUMP \t\t\t\ntag 45\t\t\t\n  JUMPDEST \t\t\t\n  PUSH 0\t\t\t\n  PUSH [tag] 349\t\t\t\n  DUP3 \t\t\t\n  PUSH [tag] 198\t\t\t\n  JUMP \t\t\t\ntag 349\t\t\t\n  JUMPDEST \t\t\t\n  DUP3 \t\t\t\n  PUSH [tag] 350\t\t\t\n  DUP5 \t\t\t\n  PUSH [tag] 199\t\t\t\n  JUMP \t\t\t\ntag 350\t\t\t\n  JUMPDEST \t\t\t\n  SWAP1 \t\t\t\n  POP \t\t\t\n  PUSH [tag] 351\t\t\t\n  DUP2 \t\t\t\n  PUSH [tag] 200\t\t\t\n  JUMP \t\t\t\ntag 351\t\t\t\n  JUMPDEST \t\t\t\n  SWAP3 \t\t\t\n  POP \t\t\t\n  PUSH 20\t\t\t\n  DUP3 \t\t\t\n  LT \t\t\t\n  ISZERO \t\t\t\n  PUSH [tag] 352\t\t\t\n  JUMPI \t\t\t\n  PUSH [tag] 353\t\t\t\n  PUSH FFFFFFFFFFFFFFFFFFFFFFFFFFFFFFFFFFFFFFFFFFFFFFFFFFFFFFFFFFFFFFFF\t\t\t\n  DUP4 \t\t\t\n  PUSH 20\t\t\t\n  SUB \t\t\t\n  PUSH 8\t\t\t\n  MUL \t\t\t\n  PUSH [tag] 177\t\t\t\n  JUMP \t\t\t\ntag 353\t\t\t\n  JUMPDEST \t\t\t\n  DUP4 \t\t\t\n  AND \t\t\t\n  SWAP3 \t\t\t\n  POP \t\t\t\ntag 352\t\t\t\n  JUMPDEST \t\t\t\n  POP \t\t\t\n  POP \t\t\t\n  SWAP2 \t\t\t\n  SWAP1 \t\t\t\n  POP \t\t\t\n  JUMP \t\t\t\ntag 60\t\t\t\n  JUMPDEST \t\t\t\n  PUSH 0\t\t\t\n  PUSH 40\t\t\t\n  DUP3 \t\t\t\n  ADD \t\t\t\n  SWAP1 \t\t\t\n  POP \t\t\t\n  PUSH [tag] 355\t\t\t\n  PUSH 0\t\t\t\n  DUP4 \t\t\t\n  ADD \t\t\t\n  DUP6 \t\t\t\n  PUSH [tag] 192\t\t\t\n  JUMP \t\t\t\ntag 355\t\t\t\n  JUMPDEST \t\t\t\n  PUSH [tag] 356\t\t\t\n  PUSH 20\t\t\t\n  DUP4 \t\t\t\n  ADD \t\t\t\n  DUP5 \t\t\t\n  PUSH [tag] 192\t\t\t\n  JUMP \t\t\t\ntag 356\t\t\t\n  JUMPDEST \t\t\t\n  SWAP4 \t\t\t\n  SWAP3 \t\t\t\n  POP \t\t\t\n  POP \t\t\t\n  POP \t\t\t\n  JUMP \t\t\t\ntag 201\t\t\t\n  JUMPDEST \t\t\t\n  PUSH 4E487B7100000000000000000000000000000000000000000000000000000000\t\t\t\n  PUSH 0\t\t\t\n  MSTORE \t\t\t\n  PUSH 11\t\t\t\n  PUSH 4\t\t\t\n  MSTORE \t\t\t\n  PUSH 24\t\t\t\n  PUSH 0\t\t\t\n  REVERT \t\t\t\ntag 66\t\t\t\n  JUMPDEST \t\t\t\n  PUSH 0\t\t\t\n  PUSH [tag] 359\t\t\t\n  DUP3 \t\t\t\n  PUSH [tag] 169\t\t\t\n  JUMP \t\t\t\ntag 359\t\t\t\n  JUMPDEST \t\t\t\n  SWAP2 \t\t\t\n  POP \t\t\t\n  PUSH [tag] 360\t\t\t\n  DUP4 \t\t\t\n  PUSH [tag] 169\t\t\t\n  JUMP \t\t\t\ntag 360\t\t\t\n  JUMPDEST \t\t\t\n  SWAP3 \t\t\t\n  POP \t\t\t\n  DUP3 \t\t\t\n  DUP3 \t\t\t\n  ADD \t\t\t\n  SWAP1 \t\t\t\n  POP \t\t\t\n  DUP1 \t\t\t\n  DUP3 \t\t\t\n  GT \t\t\t\n  ISZERO \t\t\t\n  PUSH [tag] 361\t\t\t\n  JUMPI \t\t\t\n  PUSH [tag] 362\t\t\t\n  PUSH [tag] 201\t\t\t\n  JUMP \t\t\t\ntag 362\t\t\t\n  JUMPDEST \t\t\t\ntag 361\t\t\t\n  JUMPDEST \t\t\t\n  SWAP3 \t\t\t\n  SWAP2 \t\t\t\n  POP \t\t\t\n  POP \t\t\t\n  JUMP \t\t\t\ntag 70\t\t\t\n  JUMPDEST \t\t\t\n  PUSH 0\t\t\t\n  PUSH 60\t\t\t\n  DUP3 \t\t\t\n  ADD \t\t\t\n  SWAP1 \t\t\t\n  POP \t\t\t\n  PUSH [tag] 364\t\t\t\n  PUSH 0\t\t\t\n  DUP4 \t\t\t\n  ADD \t\t\t\n  DUP7 \t\t\t\n  PUSH [tag] 195\t\t\t\n  JUMP \t\t\t\ntag 364\t\t\t\n  JUMPDEST \t\t\t\n  PUSH [tag] 365\t\t\t\n  PUSH 20\t\t\t\n  DUP4 \t\t\t\n  ADD \t\t\t\n  DUP6 \t\t\t\n  PUSH [tag] 192\t\t\t\n  JUMP \t\t\t\ntag 365\t\t\t\n  JUMPDEST \t\t\t\n  PUSH [tag] 366\t\t\t\n  PUSH 40\t\t\t\n  DUP4 \t\t\t\n  ADD \t\t\t\n  DUP5 \t\t\t\n  PUSH [tag] 192\t\t\t\n  JUMP \t\t\t\ntag 366\t\t\t\n  JUMPDEST \t\t\t\n  SWAP5 \t\t\t\n  SWAP4 \t\t\t\n  POP \t\t\t\n  POP \t\t\t\n  POP \t\t\t\n  POP \t\t\t\n  JUMP \t\t\t\ntag 74\t\t\t\n  JUMPDEST \t\t\t\n  PUSH 0\t\t\t\n  PUSH 20\t\t\t\n  DUP3 \t\t\t\n  ADD \t\t\t\n  SWAP1 \t\t\t\n  POP \t\t\t\n  PUSH [tag] 368\t\t\t\n  PUSH 0\t\t\t\n  DUP4 \t\t\t\n  ADD \t\t\t\n  DUP5 \t\t\t\n  PUSH [tag] 192\t\t\t\n  JUMP \t\t\t\ntag 368\t\t\t\n  JUMPDEST \t\t\t\n  SWAP3 \t\t\t\n  SWAP2 \t\t\t\n  POP \t\t\t\n  POP \t\t\t\n  JUMP \t\t\t\ntag 202\t\t\t\n  JUMPDEST \t\t\t\n  PUSH 0\t\t\t\n  PUSH FFFFFFFFFFFFFFFFFFFFFFFFFFFFFFFFFFFFFFFFFFFFFFFFFFFF\t\t\t\n  DUP3 \t\t\t\n  AND \t\t\t\n  SWAP1 \t\t\t\n  POP \t\t\t\n  SWAP2 \t\t\t\n  SWAP1 \t\t\t\n  POP \t\t\t\n  JUMP \t\t\t\ntag 95\t\t\t\n  JUMPDEST \t\t\t\n  PUSH 0\t\t\t\n  PUSH [tag] 371\t\t\t\n  DUP3 \t\t\t\n  PUSH [tag] 202\t\t\t\n  JUMP \t\t\t\ntag 371\t\t\t\n  JUMPDEST \t\t\t\n  SWAP2 \t\t\t\n  POP \t\t\t\n  PUSH [tag] 372\t\t\t\n  DUP4 \t\t\t\n  PUSH [tag] 202\t\t\t\n  JUMP \t\t\t\ntag 372\t\t\t\n  JUMPDEST \t\t\t\n  SWAP3 \t\t\t\n  POP \t\t\t\n  DUP3 \t\t\t\n  DUP3 \t\t\t\n  ADD \t\t\t\n  SWAP1 \t\t\t\n  POP \t\t\t\n  PUSH FFFFFFFFFFFFFFFFFFFFFFFFFFFFFFFFFFFFFFFFFFFFFFFFFFFF\t\t\t\n  DUP2 \t\t\t\n  GT \t\t\t\n  ISZERO \t\t\t\n  PUSH [tag] 373\t\t\t\n  JUMPI \t\t\t\n  PUSH [tag] 374\t\t\t\n  PUSH [tag] 201\t\t\t\n  JUMP \t\t\t\ntag 374\t\t\t\n  JUMPDEST \t\t\t\ntag 373\t\t\t\n  JUMPDEST \t\t\t\n  SWAP3 \t\t\t\n  SWAP2 \t\t\t\n  POP \t\t\t\n  POP \t\t\t\n  JUMP \t\t\t\ntag 203\t\t\t\n  JUMPDEST \t\t\t\n  PUSH 0\t\t\t\n  DUP2 \t\t\t\n  SWAP1 \t\t\t\n  POP \t\t\t\n  SWAP2 \t\t\t\n  SWAP1 \t\t\t\n  POP \t\t\t\n  JUMP \t\t\t\ntag 204\t\t\t\n  JUMPDEST \t\t\t\n  PUSH 0\t\t\t\n  PUSH FF\t\t\t\n  DUP3 \t\t\t\n  AND \t\t\t\n  SWAP1 \t\t\t\n  POP \t\t\t\n  SWAP2 \t\t\t\n  SWAP1 \t\t\t\n  POP \t\t\t\n  JUMP \t\t\t\ntag 205\t\t\t\n  JUMPDEST \t\t\t\n  PUSH 0\t\t\t\n  PUSH [tag] 378\t\t\t\n  PUSH [tag] 379\t\t\t\n  PUSH [tag] 380\t\t\t\n  DUP5 \t\t\t\n  PUSH [tag] 203\t\t\t\n  JUMP \t\t\t\ntag 380\t\t\t\n  JUMPDEST \t\t\t\n  PUSH [tag] 179\t\t\t\n  JUMP \t\t\t\ntag 379\t\t\t\n  JUMPDEST \t\t\t\n  PUSH [tag] 204\t\t\t\n  JUMP \t\t\t\ntag 378\t\t\t\n  JUMPDEST \t\t\t\n  SWAP1 \t\t\t\n  POP \t\t\t\n  SWAP2 \t\t\t\n  SWAP1 \t\t\t\n  POP \t\t\t\n  JUMP \t\t\t\ntag 206\t\t\t\n  JUMPDEST \t\t\t\n  PUSH [tag] 382\t\t\t\n  DUP2 \t\t\t\n  PUSH [tag] 205\t\t\t\n  JUMP \t\t\t\ntag 382\t\t\t\n  JUMPDEST \t\t\t\n  DUP3 \t\t\t\n  MSTORE \t\t\t\n  POP \t\t\t\n  POP \t\t\t\n  JUMP \t\t\t\ntag 99\t\t\t\n  JUMPDEST \t\t\t\n  PUSH 0\t\t\t\n  PUSH 40\t\t\t\n  DUP3 \t\t\t\n  ADD \t\t\t\n  SWAP1 \t\t\t\n  POP \t\t\t\n  PUSH [tag] 384\t\t\t\n  PUSH 0\t\t\t\n  DUP4 \t\t\t\n  ADD \t\t\t\n  DUP6 \t\t\t\n  PUSH [tag] 206\t\t\t\n  JUMP \t\t\t\ntag 384\t\t\t\n  JUMPDEST \t\t\t\n  PUSH [tag] 385\t\t\t\n  PUSH 20\t\t\t\n  DUP4 \t\t\t\n  ADD \t\t\t\n  DUP5 \t\t\t\n  PUSH [tag] 192\t\t\t\n  JUMP \t\t\t\ntag 385\t\t\t\n  JUMPDEST \t\t\t\n  SWAP4 \t\t\t\n  SWAP3 \t\t\t\n  POP \t\t\t\n  POP \t\t\t\n  POP \t\t\t\n  JUMP \t\t\t\ntag 110\t\t\t\n  JUMPDEST \t\t\t\n  PUSH 0\t\t\t\n  PUSH [tag] 387\t\t\t\n  DUP3 \t\t\t\n  PUSH [tag] 202\t\t\t\n  JUMP \t\t\t\ntag 387\t\t\t\n  JUMPDEST \t\t\t\n  SWAP2 \t\t\t\n  POP \t\t\t\n  PUSH [tag] 388\t\t\t\n  DUP4 \t\t\t\n  PUSH [tag] 202\t\t\t\n  JUMP \t\t\t\ntag 388\t\t\t\n  JUMPDEST \t\t\t\n  SWAP3 \t\t\t\n  POP \t\t\t\n  DUP3 \t\t\t\n  DUP3 \t\t\t\n  SUB \t\t\t\n  SWAP1 \t\t\t\n  POP \t\t\t\n  PUSH FFFFFFFFFFFFFFFFFFFFFFFFFFFFFFFFFFFFFFFFFFFFFFFFFFFF\t\t\t\n  DUP2 \t\t\t\n  GT \t\t\t\n  ISZERO \t\t\t\n  PUSH [tag] 389\t\t\t\n  JUMPI \t\t\t\n  PUSH [tag] 390\t\t\t\n  PUSH [tag] 201\t\t\t\n  JUMP \t\t\t\ntag 390\t\t\t\n  JUMPDEST \t\t\t\ntag 389\t\t\t\n  JUMPDEST \t\t\t\n  SWAP3 \t\t\t\n  SWAP2 \t\t\t\n  POP \t\t\t\n  POP \t\t\t\n  JUMP \t\t\t\ntag 130\t\t\t\n  JUMPDEST \t\t\t\n  PUSH 0\t\t\t\n  PUSH [tag] 392\t\t\t\n  DUP3 \t\t\t\n  PUSH [tag] 169\t\t\t\n  JUMP \t\t\t\ntag 392\t\t\t\n  JUMPDEST \t\t\t\n  SWAP2 \t\t\t\n  POP \t\t\t\n  PUSH [tag] 393\t\t\t\n  DUP4 \t\t\t\n  PUSH [tag] 169\t\t\t\n  JUMP \t\t\t\ntag 393\t\t\t\n  JUMPDEST \t\t\t\n  SWAP3 \t\t\t\n  POP \t\t\t\n  DUP3 \t\t\t\n  DUP3 \t\t\t\n  SUB \t\t\t\n  SWAP1 \t\t\t\n  POP \t\t\t\n  DUP2 \t\t\t\n  DUP2 \t\t\t\n  GT \t\t\t\n  ISZERO \t\t\t\n  PUSH [tag] 394\t\t\t\n  JUMPI \t\t\t\n  PUSH [tag] 395\t\t\t\n  PUSH [tag] 201\t\t\t\n  JUMP \t\t\t\ntag 395\t\t\t\n  JUMPDEST \t\t\t\ntag 394\t\t\t\n  JUMPDEST \t\t\t\n  SWAP3 \t\t\t\n  SWAP2 \t\t\t\n  POP \t\t\t\n  POP \t\t\t\n  JUMP \t\t\t\ntag 207\t\t\t\n  JUMPDEST \t\t\t\n  PUSH 0\t\t\t\n  DUP2 \t\t\t\n  SWAP1 \t\t\t\n  POP \t\t\t\n  SWAP2 \t\t\t\n  SWAP1 \t\t\t\n  POP \t\t\t\n  JUMP \t\t\t\ntag 208\t\t\t\n  JUMPDEST \t\t\t\n  PUSH 0\t\t\t\n  PUSH [tag] 398\t\t\t\n  PUSH [tag] 399\t\t\t\n  PUSH [tag] 400\t\t\t\n  DUP5 \t\t\t\n  PUSH [tag] 207\t\t\t\n  JUMP \t\t\t\ntag 400\t\t\t\n  JUMPDEST \t\t\t\n  PUSH [tag] 179\t\t\t\n  JUMP \t\t\t\ntag 399\t\t\t\n  JUMPDEST \t\t\t\n  PUSH [tag] 204\t\t\t\n  JUMP \t\t\t\ntag 398\t\t\t\n  JUMPDEST \t\t\t\n  SWAP1 \t\t\t\n  POP \t\t\t\n  SWAP2 \t\t\t\n  SWAP1 \t\t\t\n  POP \t\t\t\n  JUMP \t\t\t\ntag 209\t\t\t\n  JUMPDEST \t\t\t\n  PUSH [tag] 402\t\t\t\n  DUP2 \t\t\t\n  PUSH [tag] 208\t\t\t\n  JUMP \t\t\t\ntag 402\t\t\t\n  JUMPDEST \t\t\t\n  DUP3 \t\t\t\n  MSTORE \t\t\t\n  POP \t\t\t\n  POP \t\t\t\n  JUMP \t\t\t\ntag 155\t\t\t\n  JUMPDEST \t\t\t\n  PUSH 0\t\t\t\n  PUSH 40\t\t\t\n  DUP3 \t\t\t\n  ADD \t\t\t\n  SWAP1 \t\t\t\n  POP \t\t\t\n  PUSH [tag] 404\t\t\t\n  PUSH 0\t\t\t\n  DUP4 \t\t\t\n  ADD \t\t\t\n  DUP6 \t\t\t\n  PUSH [tag] 209\t\t\t\n  JUMP \t\t\t\ntag 404\t\t\t\n  JUMPDEST \t\t\t\n  PUSH [tag] 405\t\t\t\n  PUSH 20\t\t\t\n  DUP4 \t\t\t\n  ADD \t\t\t\n  DUP5 \t\t\t\n  PUSH [tag] 192\t\t\t\n  JUMP \t\t\t\ntag 405\t\t\t\n  JUMPDEST \t\t\t\n  SWAP4 \t\t\t\n  SWAP3 \t\t\t\n  POP \t\t\t\n  POP \t\t\t\n  POP \t\t\t\n  JUMP \t\t\t\ntag 22\t\t\tcontract TokenContract is ERC2...\n  JUMPDEST \t\t\tcontract TokenContract is ERC2...\n  PUSH 80\t\t\tcontract TokenContract is ERC2...\n  MLOAD \t\t\tcontract TokenContract is ERC2...\n  PUSH A0\t\t\tcontract TokenContract is ERC2...\n  MLOAD \t\t\tcontract TokenContract is ERC2...\n  PUSH C0\t\t\tcontract TokenContract is ERC2...\n  MLOAD \t\t\tcontract TokenContract is ERC2...\n  PUSH E0\t\t\tcontract TokenContract is ERC2...\n  MLOAD \t\t\tcontract TokenContract is ERC2...\n  PUSH 100\t\t\tcontract TokenContract is ERC2...\n  MLOAD \t\t\tcontract TokenContract is ERC2...\n  PUSH 120\t\t\tcontract TokenContract is ERC2...\n  MLOAD \t\t\tcontract TokenContract is ERC2...\n  PUSH 140\t\t\tcontract TokenContract is ERC2...\n  MLOAD \t\t\tcontract TokenContract is ERC2...\n  PUSH #[$] 0000000000000000000000000000000000000000000000000000000000000000\t\t\tcontract TokenContract is ERC2...\n  PUSH [$] 0000000000000000000000000000000000000000000000000000000000000000\t\t\tcontract TokenContract is ERC2...\n  PUSH 0\t\t\tcontract TokenContract is ERC2...\n  CODECOPY \t\t\tcontract TokenContract is ERC2...\n  PUSH 0\t\t\tcontract TokenContract is ERC2...\n  ASSIGNIMMUTABLE 2821\t\t\tcontract TokenContract is ERC2...\n  PUSH 0\t\t\tcontract TokenContract is ERC2...\n  ASSIGNIMMUTABLE 2818\t\t\tcontract TokenContract is ERC2...\n  PUSH 0\t\t\tcontract TokenContract is ERC2...\n  ASSIGNIMMUTABLE 2815\t\t\tcontract TokenContract is ERC2...\n  PUSH 0\t\t\tcontract TokenContract is ERC2...\n  ASSIGNIMMUTABLE 2813\t\t\tcontract TokenContract is ERC2...\n  PUSH 0\t\t\tcontract TokenContract is ERC2...\n  ASSIGNIMMUTABLE 2811\t\t\tcontract TokenContract is ERC2...\n  PUSH 0\t\t\tcontract TokenContract is ERC2...\n  ASSIGNIMMUTABLE 2809\t\t\tcontract TokenContract is ERC2...\n  PUSH 0\t\t\tcontract TokenContract is ERC2...\n  ASSIGNIMMUTABLE 2807\t\t\tcontract TokenContract is ERC2...\n  PUSH #[$] 0000000000000000000000000000000000000000000000000000000000000000\t\t\tcontract TokenContract is ERC2...\n  PUSH 0\t\t\tcontract TokenContract is ERC2...\n  RETURN \t\t\tcontract TokenContract is ERC2...\n.data\n  0:\n    .code\n      PUSH 80\t\t\tcontract TokenContract is ERC2...\n      PUSH 40\t\t\tcontract TokenContract is ERC2...\n      MSTORE \t\t\tcontract TokenContract is ERC2...\n      CALLVALUE \t\t\tcontract TokenContract is ERC2...\n      DUP1 \t\t\tcontract TokenContract is ERC2...\n      ISZERO \t\t\tcontract TokenContract is ERC2...\n      PUSH [tag] 1\t\t\tcontract TokenContract is ERC2...\n      JUMPI \t\t\tcontract TokenContract is ERC2...\n      PUSH 0\t\t\tcontract TokenContract is ERC2...\n      DUP1 \t\t\tcontract TokenContract is ERC2...\n      REVERT \t\t\tcontract TokenContract is ERC2...\n    tag 1\t\t\tcontract TokenContract is ERC2...\n      JUMPDEST \t\t\tcontract TokenContract is ERC2...\n      POP \t\t\tcontract TokenContract is ERC2...\n      PUSH 4\t\t\tcontract TokenContract is ERC2...\n      CALLDATASIZE \t\t\tcontract TokenContract is ERC2...\n      LT \t\t\tcontract TokenContract is ERC2...\n      PUSH [tag] 2\t\t\tcontract TokenContract is ERC2...\n      JUMPI \t\t\tcontract TokenContract is ERC2...\n      PUSH 0\t\t\tcontract TokenContract is ERC2...\n      CALLDATALOAD \t\t\tcontract TokenContract is ERC2...\n      PUSH E0\t\t\tcontract TokenContract is ERC2...\n      SHR \t\t\tcontract TokenContract is ERC2...\n      DUP1 \t\t\tcontract TokenContract is ERC2...\n      PUSH 70A08231\t\t\tcontract TokenContract is ERC2...\n      GT \t\t\tcontract TokenContract is ERC2...\n      PUSH [tag] 26\t\t\tcontract TokenContract is ERC2...\n      JUMPI \t\t\tcontract TokenContract is ERC2...\n      DUP1 \t\t\tcontract TokenContract is ERC2...\n      PUSH 9AB24EB0\t\t\tcontract TokenContract is ERC2...\n      GT \t\t\tcontract TokenContract is ERC2...\n      PUSH [tag] 27\t\t\tcontract TokenContract is ERC2...\n      JUMPI \t\t\tcontract TokenContract is ERC2...\n      DUP1 \t\t\tcontract TokenContract is ERC2...\n      PUSH 9AB24EB0\t\t\tcontract TokenContract is ERC2...\n      EQ \t\t\tcontract TokenContract is ERC2...\n      PUSH [tag] 20\t\t\tcontract TokenContract is ERC2...\n      JUMPI \t\t\tcontract TokenContract is ERC2...\n      DUP1 \t\t\tcontract TokenContract is ERC2...\n      PUSH A9059CBB\t\t\tcontract TokenContract is ERC2...\n      EQ \t\t\tcontract TokenContract is ERC2...\n      PUSH [tag] 21\t\t\tcontract TokenContract is ERC2...\n      JUMPI \t\t\tcontract TokenContract is ERC2...\n      DUP1 \t\t\tcontract TokenContract is ERC2...\n      PUSH C3CDA520\t\t\tcontract TokenContract is ERC2...\n      EQ \t\t\tcontract TokenContract is ERC2...\n      PUSH [tag] 22\t\t\tcontract TokenContract is ERC2...\n      JUMPI \t\t\tcontract TokenContract is ERC2...\n      DUP1 \t\t\tcontract TokenContract is ERC2...\n      PUSH D505ACCF\t\t\tcontract TokenContract is ERC2...\n      EQ \t\t\tcontract TokenContract is ERC2...\n      PUSH [tag] 23\t\t\tcontract TokenContract is ERC2...\n      JUMPI \t\t\tcontract TokenContract is ERC2...\n      DUP1 \t\t\tcontract TokenContract is ERC2...\n      PUSH DD62ED3E\t\t\tcontract TokenContract is ERC2...\n      EQ \t\t\tcontract TokenContract is ERC2...\n      PUSH [tag] 24\t\t\tcontract TokenContract is ERC2...\n      JUMPI \t\t\tcontract TokenContract is ERC2...\n      DUP1 \t\t\tcontract TokenContract is ERC2...\n      PUSH F1127ED8\t\t\tcontract TokenContract is ERC2...\n      EQ \t\t\tcontract TokenContract is ERC2...\n      PUSH [tag] 25\t\t\tcontract TokenContract is ERC2...\n      JUMPI \t\t\tcontract TokenContract is ERC2...\n      PUSH [tag] 2\t\t\tcontract TokenContract is ERC2...\n      JUMP \t\t\tcontract TokenContract is ERC2...\n    tag 27\t\t\tcontract TokenContract is ERC2...\n      JUMPDEST \t\t\tcontract TokenContract is ERC2...\n      DUP1 \t\t\tcontract TokenContract is ERC2...\n      PUSH 70A08231\t\t\tcontract TokenContract is ERC2...\n      EQ \t\t\tcontract TokenContract is ERC2...\n      PUSH [tag] 14\t\t\tcontract TokenContract is ERC2...\n      JUMPI \t\t\tcontract TokenContract is ERC2...\n      DUP1 \t\t\tcontract TokenContract is ERC2...\n      PUSH 7ECEBE00\t\t\tcontract TokenContract is ERC2...\n      EQ \t\t\tcontract TokenContract is ERC2...\n      PUSH [tag] 15\t\t\tcontract TokenContract is ERC2...\n      JUMPI \t\t\tcontract TokenContract is ERC2...\n      DUP1 \t\t\tcontract TokenContract is ERC2...\n      PUSH 84B0196E\t\t\tcontract TokenContract is ERC2...\n      EQ \t\t\tcontract TokenContract is ERC2...\n      PUSH [tag] 16\t\t\tcontract TokenContract is ERC2...\n      JUMPI \t\t\tcontract TokenContract is ERC2...\n      DUP1 \t\t\tcontract TokenContract is ERC2...\n      PUSH 8E539E8C\t\t\tcontract TokenContract is ERC2...\n      EQ \t\t\tcontract TokenContract is ERC2...\n      PUSH [tag] 17\t\t\tcontract TokenContract is ERC2...\n      JUMPI \t\t\tcontract TokenContract is ERC2...\n      DUP1 \t\t\tcontract TokenContract is ERC2...\n      PUSH 91DDADF4\t\t\tcontract TokenContract is ERC2...\n      EQ \t\t\tcontract TokenContract is ERC2...\n      PUSH [tag] 18\t\t\tcontract TokenContract is ERC2...\n      JUMPI \t\t\tcontract TokenContract is ERC2...\n      DUP1 \t\t\tcontract TokenContract is ERC2...\n      PUSH 95D89B41\t\t\tcontract TokenContract is ERC2...\n      EQ \t\t\tcontract TokenContract is ERC2...\n      PUSH [tag] 19\t\t\tcontract TokenContract is ERC2...\n      JUMPI \t\t\tcontract TokenContract is ERC2...\n      PUSH [tag] 2\t\t\tcontract TokenContract is ERC2...\n      JUMP \t\t\tcontract TokenContract is ERC2...\n    tag 26\t\t\tcontract TokenContract is ERC2...\n      JUMPDEST \t\t\tcontract TokenContract is ERC2...\n      DUP1 \t\t\tcontract TokenContract is ERC2...\n      PUSH 3644E515\t\t\tcontract TokenContract is ERC2...\n      GT \t\t\tcontract TokenContract is ERC2...\n      PUSH [tag] 28\t\t\tcontract TokenContract is ERC2...\n      JUMPI \t\t\tcontract TokenContract is ERC2...\n      DUP1 \t\t\tcontract TokenContract is ERC2...\n      PUSH 3644E515\t\t\tcontract TokenContract is ERC2...\n      EQ \t\t\tcontract TokenContract is ERC2...\n      PUSH [tag] 8\t\t\tcontract TokenContract is ERC2...\n      JUMPI \t\t\tcontract TokenContract is ERC2...\n      DUP1 \t\t\tcontract TokenContract is ERC2...\n      PUSH 3A46B1A8\t\t\tcontract TokenContract is ERC2...\n      EQ \t\t\tcontract TokenContract is ERC2...\n      PUSH [tag] 9\t\t\tcontract TokenContract is ERC2...\n      JUMPI \t\t\tcontract TokenContract is ERC2...\n      DUP1 \t\t\tcontract TokenContract is ERC2...\n      PUSH 4BF5D7E9\t\t\tcontract TokenContract is ERC2...\n      EQ \t\t\tcontract TokenContract is ERC2...\n      PUSH [tag] 10\t\t\tcontract TokenContract is ERC2...\n      JUMPI \t\t\tcontract TokenContract is ERC2...\n      DUP1 \t\t\tcontract TokenContract is ERC2...\n      PUSH 587CDE1E\t\t\tcontract TokenContract is ERC2...\n      EQ \t\t\tcontract TokenContract is ERC2...\n      PUSH [tag] 11\t\t\tcontract TokenContract is ERC2...\n      JUMPI \t\t\tcontract TokenContract is ERC2...\n      DUP1 \t\t\tcontract TokenContract is ERC2...\n      PUSH 5C19A95C\t\t\tcontract TokenContract is ERC2...\n      EQ \t\t\tcontract TokenContract is ERC2...\n      PUSH [tag] 12\t\t\tcontract TokenContract is ERC2...\n      JUMPI \t\t\tcontract TokenContract is ERC2...\n      DUP1 \t\t\tcontract TokenContract is ERC2...\n      PUSH 6FCFFF45\t\t\tcontract TokenContract is ERC2...\n      EQ \t\t\tcontract TokenContract is ERC2...\n      PUSH [tag] 13\t\t\tcontract TokenContract is ERC2...\n      JUMPI \t\t\tcontract TokenContract is ERC2...\n      PUSH [tag] 2\t\t\tcontract TokenContract is ERC2...\n      JUMP \t\t\tcontract TokenContract is ERC2...\n    tag 28\t\t\tcontract TokenContract is ERC2...\n      JUMPDEST \t\t\tcontract TokenContract is ERC2...\n      DUP1 \t\t\tcontract TokenContract is ERC2...\n      PUSH 6FDDE03\t\t\tcontract TokenContract is ERC2...\n      EQ \t\t\tcontract TokenContract is ERC2...\n      PUSH [tag] 3\t\t\tcontract TokenContract is ERC2...\n      JUMPI \t\t\tcontract TokenContract is ERC2...\n      DUP1 \t\t\tcontract TokenContract is ERC2...\n      PUSH 95EA7B3\t\t\tcontract TokenContract is ERC2...\n      EQ \t\t\tcontract TokenContract is ERC2...\n      PUSH [tag] 4\t\t\tcontract TokenContract is ERC2...\n      JUMPI \t\t\tcontract TokenContract is ERC2...\n      DUP1 \t\t\tcontract TokenContract is ERC2...\n      PUSH 18160DDD\t\t\tcontract TokenContract is ERC2...\n      EQ \t\t\tcontract TokenContract is ERC2...\n      PUSH [tag] 5\t\t\tcontract TokenContract is ERC2...\n      JUMPI \t\t\tcontract TokenContract is ERC2...\n      DUP1 \t\t\tcontract TokenContract is ERC2...\n      PUSH 23B872DD\t\t\tcontract TokenContract is ERC2...\n      EQ \t\t\tcontract TokenContract is ERC2...\n      PUSH [tag] 6\t\t\tcontract TokenContract is ERC2...\n      JUMPI \t\t\tcontract TokenContract is ERC2...\n      DUP1 \t\t\tcontract TokenContract is ERC2...\n      PUSH 313CE567\t\t\tcontract TokenContract is ERC2...\n      EQ \t\t\tcontract TokenContract is ERC2...\n      PUSH [tag] 7\t\t\tcontract TokenContract is ERC2...\n      JUMPI \t\t\tcontract TokenContract is ERC2...\n    tag 2\t\t\tcontract TokenContract is ERC2...\n      JUMPDEST \t\t\tcontract TokenContract is ERC2...\n      PUSH 0\t\t\tcontract TokenContract is ERC2...\n      DUP1 \t\t\tcontract TokenContract is ERC2...\n      REVERT \t\t\tcontract TokenContract is ERC2...\n    tag 3\t\t\t\n      JUMPDEST \t\t\t\n      PUSH [tag] 29\t\t\t\n      PUSH [tag] 30\t\t\t\n      JUMP \t\t\t\n    tag 29\t\t\t\n      JUMPDEST \t\t\t\n      PUSH 40\t\t\t\n      MLOAD \t\t\t\n      PUSH [tag] 31\t\t\t\n      SWAP2 \t\t\t\n      SWAP1 \t\t\t\n      PUSH [tag] 32\t\t\t\n      JUMP \t\t\t\n    tag 31\t\t\t\n      JUMPDEST \t\t\t\n      PUSH 40\t\t\t\n      MLOAD \t\t\t\n      DUP1 \t\t\t\n      SWAP2 \t\t\t\n      SUB \t\t\t\n      SWAP1 \t\t\t\n      RETURN \t\t\t\n    tag 4\t\t\t\n      JUMPDEST \t\t\t\n      PUSH [tag] 33\t\t\t\n      PUSH 4\t\t\t\n      DUP1 \t\t\t\n      CALLDATASIZE \t\t\t\n      SUB \t\t\t\n      DUP2 \t\t\t\n      ADD \t\t\t\n      SWAP1 \t\t\t\n      PUSH [tag] 34\t\t\t\n      SWAP2 \t\t\t\n      SWAP1 \t\t\t\n      PUSH [tag] 35\t\t\t\n      JUMP \t\t\t\n    tag 34\t\t\t\n      JUMPDEST \t\t\t\n      PUSH [tag] 36\t\t\t\n      JUMP \t\t\t\n    tag 33\t\t\t\n      JUMPDEST \t\t\t\n      PUSH 40\t\t\t\n      MLOAD \t\t\t\n      PUSH [tag] 37\t\t\t\n      SWAP2 \t\t\t\n      SWAP1 \t\t\t\n      PUSH [tag] 38\t\t\t\n      JUMP \t\t\t\n    tag 37\t\t\t\n      JUMPDEST \t\t\t\n      PUSH 40\t\t\t\n      MLOAD \t\t\t\n      DUP1 \t\t\t\n      SWAP2 \t\t\t\n      SUB \t\t\t\n      SWAP1 \t\t\t\n      RETURN \t\t\t\n    tag 5\t\t\t\n      JUMPDEST \t\t\t\n      PUSH [tag] 39\t\t\t\n      PUSH [tag] 40\t\t\t\n      JUMP \t\t\t\n    tag 39\t\t\t\n      JUMPDEST \t\t\t\n      PUSH 40\t\t\t\n      MLOAD \t\t\t\n      PUSH [tag] 41\t\t\t\n      SWAP2 \t\t\t\n      SWAP1 \t\t\t\n      PUSH [tag] 42\t\t\t\n      JUMP \t\t\t\n    tag 41\t\t\t\n      JUMPDEST \t\t\t\n      PUSH 40\t\t\t\n      MLOAD \t\t\t\n      DUP1 \t\t\t\n      SWAP2 \t\t\t\n      SUB \t\t\t\n      SWAP1 \t\t\t\n      RETURN \t\t\t\n    tag 6\t\t\t\n      JUMPDEST \t\t\t\n      PUSH [tag] 43\t\t\t\n      PUSH 4\t\t\t\n      DUP1 \t\t\t\n      CALLDATASIZE \t\t\t\n      SUB \t\t\t\n      DUP2 \t\t\t\n      ADD \t\t\t\n      SWAP1 \t\t\t\n      PUSH [tag] 44\t\t\t\n      SWAP2 \t\t\t\n      SWAP1 \t\t\t\n      PUSH [tag] 45\t\t\t\n      JUMP \t\t\t\n    tag 44\t\t\t\n      JUMPDEST \t\t\t\n      PUSH [tag] 46\t\t\t\n      JUMP \t\t\t\n    tag 43\t\t\t\n      JUMPDEST \t\t\t\n      PUSH 40\t\t\t\n      MLOAD \t\t\t\n      PUSH [tag] 47\t\t\t\n      SWAP2 \t\t\t\n      SWAP1 \t\t\t\n      PUSH [tag] 38\t\t\t\n      JUMP \t\t\t\n    tag 47\t\t\t\n      JUMPDEST \t\t\t\n      PUSH 40\t\t\t\n      MLOAD \t\t\t\n      DUP1 \t\t\t\n      SWAP2 \t\t\t\n      SUB \t\t\t\n      SWAP1 \t\t\t\n      RETURN \t\t\t\n    tag 7\t\t\t\n      JUMPDEST \t\t\t\n      PUSH [tag] 48\t\t\t\n      PUSH [tag] 49\t\t\t\n      JUMP \t\t\t\n    tag 48\t\t\t\n      JUMPDEST \t\t\t\n      PUSH 40\t\t\t\n      MLOAD \t\t\t\n      PUSH [tag] 50\t\t\t\n      SWAP2 \t\t\t\n      SWAP1 \t\t\t\n      PUSH [tag] 51\t\t\t\n      JUMP \t\t\t\n    tag 50\t\t\t\n      JUMPDEST \t\t\t\n      PUSH 40\t\t\t\n      MLOAD \t\t\t\n      DUP1 \t\t\t\n      SWAP2 \t\t\t\n      SUB \t\t\t\n      SWAP1 \t\t\t\n      RETURN \t\t\t\n    tag 8\t\t\t\n      JUMPDEST \t\t\t\n      PUSH [tag] 52\t\t\t\n      PUSH [tag] 53\t\t\t\n      JUMP \t\t\t\n    tag 52\t\t\t\n      JUMPDEST \t\t\t\n      PUSH 40\t\t\t\n      MLOAD \t\t\t\n      PUSH [tag] 54\t\t\t\n      SWAP2 \t\t\t\n      SWAP1 \t\t\t\n      PUSH [tag] 55\t\t\t\n      JUMP \t\t\t\n    tag 54\t\t\t\n      JUMPDEST \t\t\t\n      PUSH 40\t\t\t\n      MLOAD \t\t\t\n      DUP1 \t\t\t\n      SWAP2 \t\t\t\n      SUB \t\t\t\n      SWAP1 \t\t\t\n      RETURN \t\t\t\n    tag 9\t\t\t\n      JUMPDEST \t\t\t\n      PUSH [tag] 56\t\t\t\n      PUSH 4\t\t\t\n      DUP1 \t\t\t\n      CALLDATASIZE \t\t\t\n      SUB \t\t\t\n      DUP2 \t\t\t\n      ADD \t\t\t\n      SWAP1 \t\t\t\n      PUSH [tag] 57\t\t\t\n      SWAP2 \t\t\t\n      SWAP1 \t\t\t\n      PUSH [tag] 35\t\t\t\n      JUMP \t\t\t\n    tag 57\t\t\t\n      JUMPDEST \t\t\t\n      PUSH [tag] 58\t\t\t\n      JUMP \t\t\t\n    tag 56\t\t\t\n      JUMPDEST \t\t\t\n      PUSH 40\t\t\t\n      MLOAD \t\t\t\n      PUSH [tag] 59\t\t\t\n      SWAP2 \t\t\t\n      SWAP1 \t\t\t\n      PUSH [tag] 42\t\t\t\n      JUMP \t\t\t\n    tag 59\t\t\t\n      JUMPDEST \t\t\t\n      PUSH 40\t\t\t\n      MLOAD \t\t\t\n      DUP1 \t\t\t\n      SWAP2 \t\t\t\n      SUB \t\t\t\n      SWAP1 \t\t\t\n      RETURN \t\t\t\n    tag 10\t\t\t\n      JUMPDEST \t\t\t\n      PUSH [tag] 60\t\t\t\n      PUSH [tag] 61\t\t\t\n      JUMP \t\t\t\n    tag 60\t\t\t\n      JUMPDEST \t\t\t\n      PUSH 40\t\t\t\n      MLOAD \t\t\t\n      PUSH [tag] 62\t\t\t\n      SWAP2 \t\t\t\n      SWAP1 \t\t\t\n      PUSH [tag] 32\t\t\t\n      JUMP \t\t\t\n    tag 62\t\t\t\n      JUMPDEST \t\t\t\n      PUSH 40\t\t\t\n      MLOAD \t\t\t\n      DUP1 \t\t\t\n      SWAP2 \t\t\t\n      SUB \t\t\t\n      SWAP1 \t\t\t\n      RETURN \t\t\t\n    tag 11\t\t\t\n      JUMPDEST \t\t\t\n      PUSH [tag] 63\t\t\t\n      PUSH 4\t\t\t\n      DUP1 \t\t\t\n      CALLDATASIZE \t\t\t\n      SUB \t\t\t\n      DUP2 \t\t\t\n      ADD \t\t\t\n      SWAP1 \t\t\t\n      PUSH [tag] 64\t\t\t\n      SWAP2 \t\t\t\n      SWAP1 \t\t\t\n      PUSH [tag] 65\t\t\t\n      JUMP \t\t\t\n    tag 64\t\t\t\n      JUMPDEST \t\t\t\n      PUSH [tag] 66\t\t\t\n      JUMP \t\t\t\n    tag 63\t\t\t\n      JUMPDEST \t\t\t\n      PUSH 40\t\t\t\n      MLOAD \t\t\t\n      PUSH [tag] 67\t\t\t\n      SWAP2 \t\t\t\n      SWAP1 \t\t\t\n      PUSH [tag] 68\t\t\t\n      JUMP \t\t\t\n    tag 67\t\t\t\n      JUMPDEST \t\t\t\n      PUSH 40\t\t\t\n      MLOAD \t\t\t\n      DUP1 \t\t\t\n      SWAP2 \t\t\t\n      SUB \t\t\t\n      SWAP1 \t\t\t\n      RETURN \t\t\t\n    tag 12\t\t\t\n      JUMPDEST \t\t\t\n      PUSH [tag] 69\t\t\t\n      PUSH 4\t\t\t\n      DUP1 \t\t\t\n      CALLDATASIZE \t\t\t\n      SUB \t\t\t\n      DUP2 \t\t\t\n      ADD \t\t\t\n      SWAP1 \t\t\t\n      PUSH [tag] 70\t\t\t\n      SWAP2 \t\t\t\n      SWAP1 \t\t\t\n      PUSH [tag] 65\t\t\t\n      JUMP \t\t\t\n    tag 70\t\t\t\n      JUMPDEST \t\t\t\n      PUSH [tag] 71\t\t\t\n      JUMP \t\t\t\n    tag 69\t\t\t\n      JUMPDEST \t\t\t\n      STOP \t\t\t\n    tag 13\t\t\t\n      JUMPDEST \t\t\t\n      PUSH [tag] 72\t\t\t\n      PUSH 4\t\t\t\n      DUP1 \t\t\t\n      CALLDATASIZE \t\t\t\n      SUB \t\t\t\n      DUP2 \t\t\t\n      ADD \t\t\t\n      SWAP1 \t\t\t\n      PUSH [tag] 73\t\t\t\n      SWAP2 \t\t\t\n      SWAP1 \t\t\t\n      PUSH [tag] 65\t\t\t\n      JUMP \t\t\t\n    tag 73\t\t\t\n      JUMPDEST \t\t\t\n      PUSH [tag] 74\t\t\t\n      JUMP \t\t\t\n    tag 72\t\t\t\n      JUMPDEST \t\t\t\n      PUSH 40\t\t\t\n      MLOAD \t\t\t\n      PUSH [tag] 75\t\t\t\n      SWAP2 \t\t\t\n      SWAP1 \t\t\t\n      PUSH [tag] 76\t\t\t\n      JUMP \t\t\t\n    tag 75\t\t\t\n      JUMPDEST \t\t\t\n      PUSH 40\t\t\t\n      MLOAD \t\t\t\n      DUP1 \t\t\t\n      SWAP2 \t\t\t\n      SUB \t\t\t\n      SWAP1 \t\t\t\n      RETURN \t\t\t\n    tag 14\t\t\t\n      JUMPDEST \t\t\t\n      PUSH [tag] 77\t\t\t\n      PUSH 4\t\t\t\n      DUP1 \t\t\t\n      CALLDATASIZE \t\t\t\n      SUB \t\t\t\n      DUP2 \t\t\t\n      ADD \t\t\t\n      SWAP1 \t\t\t\n      PUSH [tag] 78\t\t\t\n      SWAP2 \t\t\t\n      SWAP1 \t\t\t\n      PUSH [tag] 65\t\t\t\n      JUMP \t\t\t\n    tag 78\t\t\t\n      JUMPDEST \t\t\t\n      PUSH [tag] 79\t\t\t\n      JUMP \t\t\t\n    tag 77\t\t\t\n      JUMPDEST \t\t\t\n      PUSH 40\t\t\t\n      MLOAD \t\t\t\n      PUSH [tag] 80\t\t\t\n      SWAP2 \t\t\t\n      SWAP1 \t\t\t\n      PUSH [tag] 42\t\t\t\n      JUMP \t\t\t\n    tag 80\t\t\t\n      JUMPDEST \t\t\t\n      PUSH 40\t\t\t\n      MLOAD \t\t\t\n      DUP1 \t\t\t\n      SWAP2 \t\t\t\n      SUB \t\t\t\n      SWAP1 \t\t\t\n      RETURN \t\t\t\n    tag 15\t\t\tfunction nonces(address owner)...\n      JUMPDEST \t\t\tfunction nonces(address owner)...\n      PUSH [tag] 81\t\t\tfunction nonces(address owner)...\n      PUSH 4\t\t\tfunction nonces(address owner)...\n      DUP1 \t\t\tfunction nonces(address owner)...\n      CALLDATASIZE \t\t\tfunction nonces(address owner)...\n      SUB \t\t\tfunction nonces(address owner)...\n      DUP2 \t\t\tfunction nonces(address owner)...\n      ADD \t\t\tfunction nonces(address owner)...\n      SWAP1 \t\t\tfunction nonces(address owner)...\n      PUSH [tag] 82\t\t\tfunction nonces(address owner)...\n      SWAP2 \t\t\tfunction nonces(address owner)...\n      SWAP1 \t\t\tfunction nonces(address owner)...\n      PUSH [tag] 65\t\t\tfunction nonces(address owner)...\n      JUMP \t\t\tfunction nonces(address owner)...\n    tag 82\t\t\tfunction nonces(address owner)...\n      JUMPDEST \t\t\tfunction nonces(address owner)...\n      PUSH [tag] 83\t\t\tfunction nonces(address owner)...\n      JUMP \t\t\tfunction nonces(address owner)...\n    tag 81\t\t\tfunction nonces(address owner)...\n      JUMPDEST \t\t\tfunction nonces(address owner)...\n      PUSH 40\t\t\tfunction nonces(address owner)...\n      MLOAD \t\t\tfunction nonces(address owner)...\n      PUSH [tag] 84\t\t\tfunction nonces(address owner)...\n      SWAP2 \t\t\tfunction nonces(address owner)...\n      SWAP1 \t\t\tfunction nonces(address owner)...\n      PUSH [tag] 42\t\t\tfunction nonces(address owner)...\n      JUMP \t\t\tfunction nonces(address owner)...\n    tag 84\t\t\tfunction nonces(address owner)...\n      JUMPDEST \t\t\tfunction nonces(address owner)...\n      PUSH 40\t\t\tfunction nonces(address owner)...\n      MLOAD \t\t\tfunction nonces(address owner)...\n      DUP1 \t\t\tfunction nonces(address owner)...\n      SWAP2 \t\t\tfunction nonces(address owner)...\n      SUB \t\t\tfunction nonces(address owner)...\n      SWAP1 \t\t\tfunction nonces(address owner)...\n      RETURN \t\t\tfunction nonces(address owner)...\n    tag 16\t\t\t\n      JUMPDEST \t\t\t\n      PUSH [tag] 85\t\t\t\n      PUSH [tag] 86\t\t\t\n      JUMP \t\t\t\n    tag 85\t\t\t\n      JUMPDEST \t\t\t\n      PUSH 40\t\t\t\n      MLOAD \t\t\t\n      PUSH [tag] 87\t\t\t\n      SWAP8 \t\t\t\n      SWAP7 \t\t\t\n      SWAP6 \t\t\t\n      SWAP5 \t\t\t\n      SWAP4 \t\t\t\n      SWAP3 \t\t\t\n      SWAP2 \t\t\t\n      SWAP1 \t\t\t\n      PUSH [tag] 88\t\t\t\n      JUMP \t\t\t\n    tag 87\t\t\t\n      JUMPDEST \t\t\t\n      PUSH 40\t\t\t\n      MLOAD \t\t\t\n      DUP1 \t\t\t\n      SWAP2 \t\t\t\n      SUB \t\t\t\n      SWAP1 \t\t\t\n      RETURN \t\t\t\n    tag 17\t\t\t\n      JUMPDEST \t\t\t\n      PUSH [tag] 89\t\t\t\n      PUSH 4\t\t\t\n      DUP1 \t\t\t\n      CALLDATASIZE \t\t\t\n      SUB \t\t\t\n      DUP2 \t\t\t\n      ADD \t\t\t\n      SWAP1 \t\t\t\n      PUSH [tag] 90\t\t\t\n      SWAP2 \t\t\t\n      SWAP1 \t\t\t\n      PUSH [tag] 91\t\t\t\n      JUMP \t\t\t\n    tag 90\t\t\t\n      JUMPDEST \t\t\t\n      PUSH [tag] 92\t\t\t\n      JUMP \t\t\t\n    tag 89\t\t\t\n      JUMPDEST \t\t\t\n      PUSH 40\t\t\t\n      MLOAD \t\t\t\n      PUSH [tag] 93\t\t\t\n      SWAP2 \t\t\t\n      SWAP1 \t\t\t\n      PUSH [tag] 42\t\t\t\n      JUMP \t\t\t\n    tag 93\t\t\t\n      JUMPDEST \t\t\t\n      PUSH 40\t\t\t\n      MLOAD \t\t\t\n      DUP1 \t\t\t\n      SWAP2 \t\t\t\n      SUB \t\t\t\n      SWAP1 \t\t\t\n      RETURN \t\t\t\n    tag 18\t\t\t\n      JUMPDEST \t\t\t\n      PUSH [tag] 94\t\t\t\n      PUSH [tag] 95\t\t\t\n      JUMP \t\t\t\n    tag 94\t\t\t\n      JUMPDEST \t\t\t\n      PUSH 40\t\t\t\n      MLOAD \t\t\t\n      PUSH [tag] 96\t\t\t\n      SWAP2 \t\t\t\n      SWAP1 \t\t\t\n      PUSH [tag] 97\t\t\t\n      JUMP \t\t\t\n    tag 96\t\t\t\n      JUMPDEST \t\t\t\n      PUSH 40\t\t\t\n      MLOAD \t\t\t\n      DUP1 \t\t\t\n      SWAP2 \t\t\t\n      SUB \t\t\t\n      SWAP1 \t\t\t\n      RETURN \t\t\t\n    tag 19\t\t\t\n      JUMPDEST \t\t\t\n      PUSH [tag] 98\t\t\t\n      PUSH [tag] 99\t\t\t\n      JUMP \t\t\t\n    tag 98\t\t\t\n      JUMPDEST \t\t\t\n      PUSH 40\t\t\t\n      MLOAD \t\t\t\n      PUSH [tag] 100\t\t\t\n      SWAP2 \t\t\t\n      SWAP1 \t\t\t\n      PUSH [tag] 32\t\t\t\n      JUMP \t\t\t\n    tag 100\t\t\t\n      JUMPDEST \t\t\t\n      PUSH 40\t\t\t\n      MLOAD \t\t\t\n      DUP1 \t\t\t\n      SWAP2 \t\t\t\n      SUB \t\t\t\n      SWAP1 \t\t\t\n      RETURN \t\t\t\n    tag 20\t\t\t\n      JUMPDEST \t\t\t\n      PUSH [tag] 101\t\t\t\n      PUSH 4\t\t\t\n      DUP1 \t\t\t\n      CALLDATASIZE \t\t\t\n      SUB \t\t\t\n      DUP2 \t\t\t\n      ADD \t\t\t\n      SWAP1 \t\t\t\n      PUSH [tag] 102\t\t\t\n      SWAP2 \t\t\t\n      SWAP1 \t\t\t\n      PUSH [tag] 65\t\t\t\n      JUMP \t\t\t\n    tag 102\t\t\t\n      JUMPDEST \t\t\t\n      PUSH [tag] 103\t\t\t\n      JUMP \t\t\t\n    tag 101\t\t\t\n      JUMPDEST \t\t\t\n      PUSH 40\t\t\t\n      MLOAD \t\t\t\n      PUSH [tag] 104\t\t\t\n      SWAP2 \t\t\t\n      SWAP1 \t\t\t\n      PUSH [tag] 42\t\t\t\n      JUMP \t\t\t\n    tag 104\t\t\t\n      JUMPDEST \t\t\t\n      PUSH 40\t\t\t\n      MLOAD \t\t\t\n      DUP1 \t\t\t\n      SWAP2 \t\t\t\n      SUB \t\t\t\n      SWAP1 \t\t\t\n      RETURN \t\t\t\n    tag 21\t\t\t\n      JUMPDEST \t\t\t\n      PUSH [tag] 105\t\t\t\n      PUSH 4\t\t\t\n      DUP1 \t\t\t\n      CALLDATASIZE \t\t\t\n      SUB \t\t\t\n      DUP2 \t\t\t\n      ADD \t\t\t\n      SWAP1 \t\t\t\n      PUSH [tag] 106\t\t\t\n      SWAP2 \t\t\t\n      SWAP1 \t\t\t\n      PUSH [tag] 35\t\t\t\n      JUMP \t\t\t\n    tag 106\t\t\t\n      JUMPDEST \t\t\t\n      PUSH [tag] 107\t\t\t\n      JUMP \t\t\t\n    tag 105\t\t\t\n      JUMPDEST \t\t\t\n      PUSH 40\t\t\t\n      MLOAD \t\t\t\n      PUSH [tag] 108\t\t\t\n      SWAP2 \t\t\t\n      SWAP1 \t\t\t\n      PUSH [tag] 38\t\t\t\n      JUMP \t\t\t\n    tag 108\t\t\t\n      JUMPDEST \t\t\t\n      PUSH 40\t\t\t\n      MLOAD \t\t\t\n      DUP1 \t\t\t\n      SWAP2 \t\t\t\n      SUB \t\t\t\n      SWAP1 \t\t\t\n      RETURN \t\t\t\n    tag 22\t\t\t\n      JUMPDEST \t\t\t\n      PUSH [tag] 109\t\t\t\n      PUSH 4\t\t\t\n      DUP1 \t\t\t\n      CALLDATASIZE \t\t\t\n      SUB \t\t\t\n      DUP2 \t\t\t\n      ADD \t\t\t\n      SWAP1 \t\t\t\n      PUSH [tag] 110\t\t\t\n      SWAP2 \t\t\t\n      SWAP1 \t\t\t\n      PUSH [tag] 111\t\t\t\n      JUMP \t\t\t\n    tag 110\t\t\t\n      JUMPDEST \t\t\t\n      PUSH [tag] 112\t\t\t\n      JUMP \t\t\t\n    tag 109\t\t\t\n      JUMPDEST \t\t\t\n      STOP \t\t\t\n    tag 23\t\t\t\n      JUMPDEST \t\t\t\n      PUSH [tag] 113\t\t\t\n      PUSH 4\t\t\t\n      DUP1 \t\t\t\n      CALLDATASIZE \t\t\t\n      SUB \t\t\t\n      DUP2 \t\t\t\n      ADD \t\t\t\n      SWAP1 \t\t\t\n      PUSH [tag] 114\t\t\t\n      SWAP2 \t\t\t\n      SWAP1 \t\t\t\n      PUSH [tag] 115\t\t\t\n      JUMP \t\t\t\n    tag 114\t\t\t\n      JUMPDEST \t\t\t\n      PUSH [tag] 116\t\t\t\n      JUMP \t\t\t\n    tag 113\t\t\t\n      JUMPDEST \t\t\t\n      STOP \t\t\t\n    tag 24\t\t\t\n      JUMPDEST \t\t\t\n      PUSH [tag] 117\t\t\t\n      PUSH 4\t\t\t\n      DUP1 \t\t\t\n      CALLDATASIZE \t\t\t\n      SUB \t\t\t\n      DUP2 \t\t\t\n      ADD \t\t\t\n      SWAP1 \t\t\t\n      PUSH [tag] 118\t\t\t\n      SWAP2 \t\t\t\n      SWAP1 \t\t\t\n      PUSH [tag] 119\t\t\t\n      JUMP \t\t\t\n    tag 118\t\t\t\n      JUMPDEST \t\t\t\n      PUSH [tag] 120\t\t\t\n      JUMP \t\t\t\n    tag 117\t\t\t\n      JUMPDEST \t\t\t\n      PUSH 40\t\t\t\n      MLOAD \t\t\t\n      PUSH [tag] 121\t\t\t\n      SWAP2 \t\t\t\n      SWAP1 \t\t\t\n      PUSH [tag] 42\t\t\t\n      JUMP \t\t\t\n    tag 121\t\t\t\n      JUMPDEST \t\t\t\n      PUSH 40\t\t\t\n      MLOAD \t\t\t\n      DUP1 \t\t\t\n      SWAP2 \t\t\t\n      SUB \t\t\t\n      SWAP1 \t\t\t\n      RETURN \t\t\t\n    tag 25\t\t\t\n      JUMPDEST \t\t\t\n      PUSH [tag] 122\t\t\t\n      PUSH 4\t\t\t\n      DUP1 \t\t\t\n      CALLDATASIZE \t\t\t\n      SUB \t\t\t\n      DUP2 \t\t\t\n      ADD \t\t\t\n      SWAP1 \t\t\t\n      PUSH [tag] 123\t\t\t\n      SWAP2 \t\t\t\n      SWAP1 \t\t\t\n      PUSH [tag] 124\t\t\t\n      JUMP \t\t\t\n    tag 123\t\t\t\n      JUMPDEST \t\t\t\n      PUSH [tag] 125\t\t\t\n      JUMP \t\t\t\n    tag 122\t\t\t\n      JUMPDEST \t\t\t\n      PUSH 40\t\t\t\n      MLOAD \t\t\t\n      PUSH [tag] 126\t\t\t\n      SWAP2 \t\t\t\n      SWAP1 \t\t\t\n      PUSH [tag] 127\t\t\t\n      JUMP \t\t\t\n    tag 126\t\t\t\n      JUMPDEST \t\t\t\n      PUSH 40\t\t\t\n      MLOAD \t\t\t\n      DUP1 \t\t\t\n      SWAP2 \t\t\t\n      SUB \t\t\t\n      SWAP1 \t\t\t\n      RETURN \t\t\t\n    tag 30\t\t\t\n      JUMPDEST \t\t\t\n      PUSH 60\t\t\t\n      PUSH 3\t\t\t\n      DUP1 \t\t\t\n      SLOAD \t\t\t\n      PUSH [tag] 131\t\t\t\n      SWAP1 \t\t\t\n      PUSH [tag] 132\t\t\t\n      JUMP \t\t\t\n    tag 131\t\t\t\n      JUMPDEST \t\t\t\n      DUP1 \t\t\t\n      PUSH 1F\t\t\t\n      ADD \t\t\t\n      PUSH 20\t\t\t\n      DUP1 \t\t\t\n      SWAP2 \t\t\t\n      DIV \t\t\t\n      MUL \t\t\t\n      PUSH 20\t\t\t\n      ADD \t\t\t\n      PUSH 40\t\t\t\n      MLOAD \t\t\t\n      SWAP1 \t\t\t\n      DUP2 \t\t\t\n      ADD \t\t\t\n      PUSH 40\t\t\t\n      MSTORE \t\t\t\n      DUP1 \t\t\t\n      SWAP3 \t\t\t\n      SWAP2 \t\t\t\n      SWAP1 \t\t\t\n      DUP2 \t\t\t\n      DUP2 \t\t\t\n      MSTORE \t\t\t\n      PUSH 20\t\t\t\n      ADD \t\t\t\n      DUP3 \t\t\t\n      DUP1 \t\t\t\n      SLOAD \t\t\t\n      PUSH [tag] 133\t\t\t\n      SWAP1 \t\t\t\n      PUSH [tag] 132\t\t\t\n      JUMP \t\t\t\n    tag 133\t\t\t\n      JUMPDEST \t\t\t\n      DUP1 \t\t\t\n      ISZERO \t\t\t\n      PUSH [tag] 134\t\t\t\n      JUMPI \t\t\t\n      DUP1 \t\t\t\n      PUSH 1F\t\t\t\n      LT \t\t\t\n      PUSH [tag] 135\t\t\t\n      JUMPI \t\t\t\n      PUSH 100\t\t\t\n      DUP1 \t\t\t\n      DUP4 \t\t\t\n      SLOAD \t\t\t\n      DIV \t\t\t\n      MUL \t\t\t\n      DUP4 \t\t\t\n      MSTORE \t\t\t\n      SWAP2 \t\t\t\n      PUSH 20\t\t\t\n      ADD \t\t\t\n      SWAP2 \t\t\t\n      PUSH [tag] 134\t\t\t\n      JUMP \t\t\t\n    tag 135\t\t\t\n      JUMPDEST \t\t\t\n      DUP3 \t\t\t\n      ADD \t\t\t\n      SWAP2 \t\t\t\n      SWAP1 \t\t\t\n      PUSH 0\t\t\t\n      MSTORE \t\t\t\n      PUSH 20\t\t\t\n      PUSH 0\t\t\t\n      KECCAK256 \t\t\t\n      SWAP1 \t\t\t\n    tag 136\t\t\t\n      JUMPDEST \t\t\t\n      DUP2 \t\t\t\n      SLOAD \t\t\t\n      DUP2 \t\t\t\n      MSTORE \t\t\t\n      SWAP1 \t\t\t\n      PUSH 1\t\t\t\n      ADD \t\t\t\n      SWAP1 \t\t\t\n      PUSH 20\t\t\t\n      ADD \t\t\t\n      DUP1 \t\t\t\n      DUP4 \t\t\t\n      GT \t\t\t\n      PUSH [tag] 136\t\t\t\n      JUMPI \t\t\t\n      DUP3 \t\t\t\n      SWAP1 \t\t\t\n      SUB \t\t\t\n      PUSH 1F\t\t\t\n      AND \t\t\t\n      DUP3 \t\t\t\n      ADD \t\t\t\n      SWAP2 \t\t\t\n    tag 134\t\t\t\n      JUMPDEST \t\t\t\n      POP \t\t\t\n      POP \t\t\t\n      POP \t\t\t\n      POP \t\t\t\n      POP \t\t\t\n      SWAP1 \t\t\t\n      POP \t\t\t\n      SWAP1 \t\t\t\n      JUMP \t\t\t\n    tag 36\t\t\t\n      JUMPDEST \t\t\t\n      PUSH 0\t\t\t\n      DUP1 \t\t\t\n      PUSH [tag] 138\t\t\t\n      PUSH [tag] 139\t\t\t\n      JUMP \t\t\t\n    tag 138\t\t\t\n      JUMPDEST \t\t\t\n      SWAP1 \t\t\t\n      POP \t\t\t\n      PUSH [tag] 140\t\t\t\n      DUP2 \t\t\t\n      DUP6 \t\t\t\n      DUP6 \t\t\t\n      PUSH [tag] 141\t\t\t\n      JUMP \t\t\t\n    tag 140\t\t\t\n      JUMPDEST \t\t\t\n      PUSH 1\t\t\t\n      SWAP2 \t\t\t\n      POP \t\t\t\n      POP \t\t\t\n      SWAP3 \t\t\t\n      SWAP2 \t\t\t\n      POP \t\t\t\n      POP \t\t\t\n      JUMP \t\t\t\n    tag 40\t\t\t\n      JUMPDEST \t\t\t\n      PUSH 0\t\t\t\n      PUSH 2\t\t\t\n      SLOAD \t\t\t\n      SWAP1 \t\t\t\n      POP \t\t\t\n      SWAP1 \t\t\t\n      JUMP \t\t\t\n    tag 46\t\t\t\n      JUMPDEST \t\t\t\n      PUSH 0\t\t\t\n      DUP1 \t\t\t\n      PUSH [tag] 144\t\t\t\n      PUSH [tag] 139\t\t\t\n      JUMP \t\t\t\n    tag 144\t\t\t\n      JUMPDEST \t\t\t\n      SWAP1 \t\t\t\n      POP \t\t\t\n      PUSH [tag] 145\t\t\t\n      DUP6 \t\t\t\n      DUP3 \t\t\t\n      DUP6 \t\t\t\n      PUSH [tag] 146\t\t\t\n      JUMP \t\t\t\n    tag 145\t\t\t\n      JUMPDEST \t\t\t\n      PUSH [tag] 147\t\t\t\n      DUP6 \t\t\t\n      DUP6 \t\t\t\n      DUP6 \t\t\t\n      PUSH [tag] 148\t\t\t\n      JUMP \t\t\t\n    tag 147\t\t\t\n      JUMPDEST \t\t\t\n      PUSH 1\t\t\t\n      SWAP2 \t\t\t\n      POP \t\t\t\n      POP \t\t\t\n      SWAP4 \t\t\t\n      SWAP3 \t\t\t\n      POP \t\t\t\n      POP \t\t\t\n      POP \t\t\t\n      JUMP \t\t\t\n    tag 49\t\t\t\n      JUMPDEST \t\t\t\n      PUSH 0\t\t\t\n      PUSH 12\t\t\t\n      SWAP1 \t\t\t\n      POP \t\t\t\n      SWAP1 \t\t\t\n      JUMP \t\t\t\n    tag 53\t\t\t\n      JUMPDEST \t\t\t\n      PUSH 0\t\t\t\n      PUSH [tag] 151\t\t\t\n      PUSH [tag] 152\t\t\t\n      JUMP \t\t\t\n    tag 151\t\t\t\n      JUMPDEST \t\t\t\n      SWAP1 \t\t\t\n      POP \t\t\t\n      SWAP1 \t\t\t\n      JUMP \t\t\t\n    tag 58\t\t\t\n      JUMPDEST \t\t\t\n      PUSH 0\t\t\t\n      DUP1 \t\t\t\n      PUSH [tag] 154\t\t\t\n      PUSH [tag] 95\t\t\t\n      JUMP \t\t\t\n    tag 154\t\t\t\n      JUMPDEST \t\t\t\n      SWAP1 \t\t\t\n      POP \t\t\t\n      DUP1 \t\t\t\n      PUSH FFFFFFFFFFFF\t\t\t\n      AND \t\t\t\n      DUP4 \t\t\t\n      LT \t\t\t\n      PUSH [tag] 155\t\t\t\n      JUMPI \t\t\t\n      DUP3 \t\t\t\n      DUP2 \t\t\t\n      PUSH 40\t\t\t\n      MLOAD \t\t\t\n      PUSH ECD3F81E00000000000000000000000000000000000000000000000000000000\t\t\t\n      DUP2 \t\t\t\n      MSTORE \t\t\t\n      PUSH 4\t\t\t\n      ADD \t\t\t\n      PUSH [tag] 156\t\t\t\n      SWAP3 \t\t\t\n      SWAP2 \t\t\t\n      SWAP1 \t\t\t\n      PUSH [tag] 157\t\t\t\n      JUMP \t\t\t\n    tag 156\t\t\t\n      JUMPDEST \t\t\t\n      PUSH 40\t\t\t\n      MLOAD \t\t\t\n      DUP1 \t\t\t\n      SWAP2 \t\t\t\n      SUB \t\t\t\n      SWAP1 \t\t\t\n      REVERT \t\t\t\n    tag 155\t\t\t\n      JUMPDEST \t\t\t\n      PUSH [tag] 158\t\t\t\n      PUSH [tag] 159\t\t\t\n      DUP5 \t\t\t\n      PUSH [tag] 160\t\t\t\n      JUMP \t\t\t\n    tag 159\t\t\t\n      JUMPDEST \t\t\t\n      PUSH 9\t\t\t\n      PUSH 0\t\t\t\n      DUP8 \t\t\t\n      PUSH FFFFFFFFFFFFFFFFFFFFFFFFFFFFFFFFFFFFFFFF\t\t\t\n      AND \t\t\t\n      PUSH FFFFFFFFFFFFFFFFFFFFFFFFFFFFFFFFFFFFFFFF\t\t\t\n      AND \t\t\t\n      DUP2 \t\t\t\n      MSTORE \t\t\t\n      PUSH 20\t\t\t\n      ADD \t\t\t\n      SWAP1 \t\t\t\n      DUP2 \t\t\t\n      MSTORE \t\t\t\n      PUSH 20\t\t\t\n      ADD \t\t\t\n      PUSH 0\t\t\t\n      KECCAK256 \t\t\t\n      PUSH [tag] 161\t\t\t\n      SWAP1 \t\t\t\n      SWAP2 \t\t\t\n      SWAP1 \t\t\t\n      PUSH FFFFFFFF\t\t\t\n      AND \t\t\t\n      JUMP \t\t\t\n    tag 158\t\t\t\n      JUMPDEST \t\t\t\n      PUSH FFFFFFFFFFFFFFFFFFFFFFFFFFFFFFFFFFFFFFFFFFFFFFFFFFFF\t\t\t\n      AND \t\t\t\n      SWAP2 \t\t\t\n      POP \t\t\t\n      POP \t\t\t\n      SWAP3 \t\t\t\n      SWAP2 \t\t\t\n      POP \t\t\t\n      POP \t\t\t\n      JUMP \t\t\t\n    tag 61\t\t\t\n      JUMPDEST \t\t\t\n      PUSH 60\t\t\t\n      PUSH [tag] 163\t\t\t\n      PUSH [tag] 164\t\t\t\n      JUMP \t\t\t\n    tag 163\t\t\t\n      JUMPDEST \t\t\t\n      PUSH FFFFFFFFFFFF\t\t\t\n      AND \t\t\t\n      PUSH [tag] 165\t\t\t\n      PUSH [tag] 95\t\t\t\n      JUMP \t\t\t\n    tag 165\t\t\t\n      JUMPDEST \t\t\t\n      PUSH FFFFFFFFFFFF\t\t\t\n      AND \t\t\t\n      EQ \t\t\t\n      PUSH [tag] 166\t\t\t\n      JUMPI \t\t\t\n      PUSH 40\t\t\t\n      MLOAD \t\t\t\n      PUSH 6FF0714000000000000000000000000000000000000000000000000000000000\t\t\t\n      DUP2 \t\t\t\n      MSTORE \t\t\t\n      PUSH 4\t\t\t\n      ADD \t\t\t\n      PUSH 40\t\t\t\n      MLOAD \t\t\t\n      DUP1 \t\t\t\n      SWAP2 \t\t\t\n      SUB \t\t\t\n      SWAP1 \t\t\t\n      REVERT \t\t\t\n    tag 166\t\t\t\n      JUMPDEST \t\t\t\n      PUSH 40\t\t\t\n      MLOAD \t\t\t\n      DUP1 \t\t\t\n      PUSH 40\t\t\t\n      ADD \t\t\t\n      PUSH 40\t\t\t\n      MSTORE \t\t\t\n      DUP1 \t\t\t\n      PUSH 1D\t\t\t\n      DUP2 \t\t\t\n      MSTORE \t\t\t\n      PUSH 20\t\t\t\n      ADD \t\t\t\n      PUSH 6D6F64653D626C6F636B6E756D6265722666726F6D3D64656661756C74000000\t\t\t\n      DUP2 \t\t\t\n      MSTORE \t\t\t\n      POP \t\t\t\n      SWAP1 \t\t\t\n      POP \t\t\t\n      SWAP1 \t\t\t\n      JUMP \t\t\t\n    tag 66\t\t\t\n      JUMPDEST \t\t\t\n      PUSH 0\t\t\t\n      PUSH 8\t\t\t\n      PUSH 0\t\t\t\n      DUP4 \t\t\t\n      PUSH FFFFFFFFFFFFFFFFFFFFFFFFFFFFFFFFFFFFFFFF\t\t\t\n      AND \t\t\t\n      PUSH FFFFFFFFFFFFFFFFFFFFFFFFFFFFFFFFFFFFFFFF\t\t\t\n      AND \t\t\t\n      DUP2 \t\t\t\n      MSTORE \t\t\t\n      PUSH 20\t\t\t\n      ADD \t\t\t\n      SWAP1 \t\t\t\n      DUP2 \t\t\t\n      MSTORE \t\t\t\n      PUSH 20\t\t\t\n      ADD \t\t\t\n      PUSH 0\t\t\t\n      KECCAK256 \t\t\t\n      PUSH 0\t\t\t\n      SWAP1 \t\t\t\n      SLOAD \t\t\t\n      SWAP1 \t\t\t\n      PUSH 100\t\t\t\n      EXP \t\t\t\n      SWAP1 \t\t\t\n      DIV \t\t\t\n      PUSH FFFFFFFFFFFFFFFFFFFFFFFFFFFFFFFFFFFFFFFF\t\t\t\n      AND \t\t\t\n      SWAP1 \t\t\t\n      POP \t\t\t\n      SWAP2 \t\t\t\n      SWAP1 \t\t\t\n      POP \t\t\t\n      JUMP \t\t\t\n    tag 71\t\t\t\n      JUMPDEST \t\t\t\n      PUSH 0\t\t\t\n      PUSH [tag] 169\t\t\t\n      PUSH [tag] 139\t\t\t\n      JUMP \t\t\t\n    tag 169\t\t\t\n      JUMPDEST \t\t\t\n      SWAP1 \t\t\t\n      POP \t\t\t\n      PUSH [tag] 170\t\t\t\n      DUP2 \t\t\t\n      DUP4 \t\t\t\n      PUSH [tag] 171\t\t\t\n      JUMP \t\t\t\n    tag 170\t\t\t\n      JUMPDEST \t\t\t\n      POP \t\t\t\n      POP \t\t\t\n      JUMP \t\t\t\n    tag 74\t\t\t\n      JUMPDEST \t\t\t\n      PUSH 0\t\t\t\n      PUSH [tag] 173\t\t\t\n      DUP3 \t\t\t\n      PUSH [tag] 174\t\t\t\n      JUMP \t\t\t\n    tag 173\t\t\t\n      JUMPDEST \t\t\t\n      SWAP1 \t\t\t\n      POP \t\t\t\n      SWAP2 \t\t\t\n      SWAP1 \t\t\t\n      POP \t\t\t\n      JUMP \t\t\t\n    tag 79\t\t\t\n      JUMPDEST \t\t\t\n      PUSH 0\t\t\t\n      DUP1 \t\t\t\n      PUSH 0\t\t\t\n      DUP4 \t\t\t\n      PUSH FFFFFFFFFFFFFFFFFFFFFFFFFFFFFFFFFFFFFFFF\t\t\t\n      AND \t\t\t\n      PUSH FFFFFFFFFFFFFFFFFFFFFFFFFFFFFFFFFFFFFFFF\t\t\t\n      AND \t\t\t\n      DUP2 \t\t\t\n      MSTORE \t\t\t\n      PUSH 20\t\t\t\n      ADD \t\t\t\n      SWAP1 \t\t\t\n      DUP2 \t\t\t\n      MSTORE \t\t\t\n      PUSH 20\t\t\t\n      ADD \t\t\t\n      PUSH 0\t\t\t\n      KECCAK256 \t\t\t\n      SLOAD \t\t\t\n      SWAP1 \t\t\t\n      POP \t\t\t\n      SWAP2 \t\t\t\n      SWAP1 \t\t\t\n      POP \t\t\t\n      JUMP \t\t\t\n    tag 83\t\t\tfunction nonces(address owner)...\n      JUMPDEST \t\t\tfunction nonces(address owner)...\n      PUSH 0\t\t\tuint256\n      PUSH [tag] 177\t\t\tsuper.nonces(owner)\n      DUP3 \t\t\towner\n      PUSH [tag] 178\t\t\tsuper.nonces\n      JUMP \t\t\tsuper.nonces(owner)\n    tag 177\t\t\tsuper.nonces(owner)\n      JUMPDEST \t\t\tsuper.nonces(owner)\n      SWAP1 \t\t\treturn super.nonces(owner)\n      POP \t\t\treturn super.nonces(owner)\n      SWAP2 \t\t\tfunction nonces(address owner)...\n      SWAP1 \t\t\tfunction nonces(address owner)...\n      POP \t\t\tfunction nonces(address owner)...\n      JUMP \t\t\tfunction nonces(address owner)...\n    tag 86\t\t\t\n      JUMPDEST \t\t\t\n      PUSH 0\t\t\t\n      PUSH 60\t\t\t\n      DUP1 \t\t\t\n      PUSH 0\t\t\t\n      DUP1 \t\t\t\n      PUSH 0\t\t\t\n      PUSH 60\t\t\t\n      PUSH [tag] 180\t\t\t\n      PUSH [tag] 181\t\t\t\n      JUMP \t\t\t\n    tag 180\t\t\t\n      JUMPDEST \t\t\t\n      PUSH [tag] 182\t\t\t\n      PUSH [tag] 183\t\t\t\n      JUMP \t\t\t\n    tag 182\t\t\t\n      JUMPDEST \t\t\t\n      CHAINID \t\t\t\n      ADDRESS \t\t\t\n      PUSH 0\t\t\t\n      DUP1 \t\t\t\n      SHL \t\t\t\n      PUSH 0\t\t\t\n      PUSH FFFFFFFFFFFFFFFF\t\t\t\n      DUP2 \t\t\t\n      GT \t\t\t\n      ISZERO \t\t\t\n      PUSH [tag] 184\t\t\t\n      JUMPI \t\t\t\n      PUSH [tag] 185\t\t\t\n      PUSH [tag] 186\t\t\t\n      JUMP \t\t\t\n    tag 185\t\t\t\n      JUMPDEST \t\t\t\n    tag 184\t\t\t\n      JUMPDEST \t\t\t\n      PUSH 40\t\t\t\n      MLOAD \t\t\t\n      SWAP1 \t\t\t\n      DUP1 \t\t\t\n      DUP3 \t\t\t\n      MSTORE \t\t\t\n      DUP1 \t\t\t\n      PUSH 20\t\t\t\n      MUL \t\t\t\n      PUSH 20\t\t\t\n      ADD \t\t\t\n      DUP3 \t\t\t\n      ADD \t\t\t\n      PUSH 40\t\t\t\n      MSTORE \t\t\t\n      DUP1 \t\t\t\n      ISZERO \t\t\t\n      PUSH [tag] 187\t\t\t\n      JUMPI \t\t\t\n      DUP2 \t\t\t\n      PUSH 20\t\t\t\n      ADD \t\t\t\n      PUSH 20\t\t\t\n      DUP3 \t\t\t\n      MUL \t\t\t\n      DUP1 \t\t\t\n      CALLDATASIZE \t\t\t\n      DUP4 \t\t\t\n      CALLDATACOPY \t\t\t\n      DUP1 \t\t\t\n      DUP3 \t\t\t\n      ADD \t\t\t\n      SWAP2 \t\t\t\n      POP \t\t\t\n      POP \t\t\t\n      SWAP1 \t\t\t\n      POP \t\t\t\n    tag 187\t\t\t\n      JUMPDEST \t\t\t\n      POP \t\t\t\n      PUSH F00000000000000000000000000000000000000000000000000000000000000\t\t\t\n      SWAP6 \t\t\t\n      SWAP5 \t\t\t\n      SWAP4 \t\t\t\n      SWAP3 \t\t\t\n      SWAP2 \t\t\t\n      SWAP1 \t\t\t\n      SWAP7 \t\t\t\n      POP \t\t\t\n      SWAP7 \t\t\t\n      POP \t\t\t\n      SWAP7 \t\t\t\n      POP \t\t\t\n      SWAP7 \t\t\t\n      POP \t\t\t\n      SWAP7 \t\t\t\n      POP \t\t\t\n      SWAP7 \t\t\t\n      POP \t\t\t\n      SWAP7 \t\t\t\n      POP \t\t\t\n      SWAP1 \t\t\t\n      SWAP2 \t\t\t\n      SWAP3 \t\t\t\n      SWAP4 \t\t\t\n      SWAP5 \t\t\t\n      SWAP6 \t\t\t\n      SWAP7 \t\t\t\n      JUMP \t\t\t\n    tag 92\t\t\t\n      JUMPDEST \t\t\t\n      PUSH 0\t\t\t\n      DUP1 \t\t\t\n      PUSH [tag] 189\t\t\t\n      PUSH [tag] 95\t\t\t\n      JUMP \t\t\t\n    tag 189\t\t\t\n      JUMPDEST \t\t\t\n      SWAP1 \t\t\t\n      POP \t\t\t\n      DUP1 \t\t\t\n      PUSH FFFFFFFFFFFF\t\t\t\n      AND \t\t\t\n      DUP4 \t\t\t\n      LT \t\t\t\n      PUSH [tag] 190\t\t\t\n      JUMPI \t\t\t\n      DUP3 \t\t\t\n      DUP2 \t\t\t\n      PUSH 40\t\t\t\n      MLOAD \t\t\t\n      PUSH ECD3F81E00000000000000000000000000000000000000000000000000000000\t\t\t\n      DUP2 \t\t\t\n      MSTORE \t\t\t\n      PUSH 4\t\t\t\n      ADD \t\t\t\n      PUSH [tag] 191\t\t\t\n      SWAP3 \t\t\t\n      SWAP2 \t\t\t\n      SWAP1 \t\t\t\n      PUSH [tag] 157\t\t\t\n      JUMP \t\t\t\n    tag 191\t\t\t\n      JUMPDEST \t\t\t\n      PUSH 40\t\t\t\n      MLOAD \t\t\t\n      DUP1 \t\t\t\n      SWAP2 \t\t\t\n      SUB \t\t\t\n      SWAP1 \t\t\t\n      REVERT \t\t\t\n    tag 190\t\t\t\n      JUMPDEST \t\t\t\n      PUSH [tag] 192\t\t\t\n      PUSH [tag] 193\t\t\t\n      DUP5 \t\t\t\n      PUSH [tag] 160\t\t\t\n      JUMP \t\t\t\n    tag 193\t\t\t\n      JUMPDEST \t\t\t\n      PUSH A\t\t\t\n      PUSH [tag] 161\t\t\t\n      SWAP1 \t\t\t\n      SWAP2 \t\t\t\n      SWAP1 \t\t\t\n      PUSH FFFFFFFF\t\t\t\n      AND \t\t\t\n      JUMP \t\t\t\n    tag 192\t\t\t\n      JUMPDEST \t\t\t\n      PUSH FFFFFFFFFFFFFFFFFFFFFFFFFFFFFFFFFFFFFFFFFFFFFFFFFFFF\t\t\t\n      AND \t\t\t\n      SWAP2 \t\t\t\n      POP \t\t\t\n      POP \t\t\t\n      SWAP2 \t\t\t\n      SWAP1 \t\t\t\n      POP \t\t\t\n      JUMP \t\t\t\n    tag 95\t\t\t\n      JUMPDEST \t\t\t\n      PUSH 0\t\t\t\n      PUSH [tag] 195\t\t\t\n      PUSH [tag] 164\t\t\t\n      JUMP \t\t\t\n    tag 195\t\t\t\n      JUMPDEST \t\t\t\n      SWAP1 \t\t\t\n      POP \t\t\t\n      SWAP1 \t\t\t\n      JUMP \t\t\t\n    tag 99\t\t\t\n      JUMPDEST \t\t\t\n      PUSH 60\t\t\t\n      PUSH 4\t\t\t\n      DUP1 \t\t\t\n      SLOAD \t\t\t\n      PUSH [tag] 197\t\t\t\n      SWAP1 \t\t\t\n      PUSH [tag] 132\t\t\t\n      JUMP \t\t\t\n    tag 197\t\t\t\n      JUMPDEST \t\t\t\n      DUP1 \t\t\t\n      PUSH 1F\t\t\t\n      ADD \t\t\t\n      PUSH 20\t\t\t\n      DUP1 \t\t\t\n      SWAP2 \t\t\t\n      DIV \t\t\t\n      MUL \t\t\t\n      PUSH 20\t\t\t\n      ADD \t\t\t\n      PUSH 40\t\t\t\n      MLOAD \t\t\t\n      SWAP1 \t\t\t\n      DUP2 \t\t\t\n      ADD \t\t\t\n      PUSH 40\t\t\t\n      MSTORE \t\t\t\n      DUP1 \t\t\t\n      SWAP3 \t\t\t\n      SWAP2 \t\t\t\n      SWAP1 \t\t\t\n      DUP2 \t\t\t\n      DUP2 \t\t\t\n      MSTORE \t\t\t\n      PUSH 20\t\t\t\n      ADD \t\t\t\n      DUP3 \t\t\t\n      DUP1 \t\t\t\n      SLOAD \t\t\t\n      PUSH [tag] 198\t\t\t\n      SWAP1 \t\t\t\n      PUSH [tag] 132\t\t\t\n      JUMP \t\t\t\n    tag 198\t\t\t\n      JUMPDEST \t\t\t\n      DUP1 \t\t\t\n      ISZERO \t\t\t\n      PUSH [tag] 199\t\t\t\n      JUMPI \t\t\t\n      DUP1 \t\t\t\n      PUSH 1F\t\t\t\n      LT \t\t\t\n      PUSH [tag] 200\t\t\t\n      JUMPI \t\t\t\n      PUSH 100\t\t\t\n      DUP1 \t\t\t\n      DUP4 \t\t\t\n      SLOAD \t\t\t\n      DIV \t\t\t\n      MUL \t\t\t\n      DUP4 \t\t\t\n      MSTORE \t\t\t\n      SWAP2 \t\t\t\n      PUSH 20\t\t\t\n      ADD \t\t\t\n      SWAP2 \t\t\t\n      PUSH [tag] 199\t\t\t\n      JUMP \t\t\t\n    tag 200\t\t\t\n      JUMPDEST \t\t\t\n      DUP3 \t\t\t\n      ADD \t\t\t\n      SWAP2 \t\t\t\n      SWAP1 \t\t\t\n      PUSH 0\t\t\t\n      MSTORE \t\t\t\n      PUSH 20\t\t\t\n      PUSH 0\t\t\t\n      KECCAK256 \t\t\t\n      SWAP1 \t\t\t\n    tag 201\t\t\t\n      JUMPDEST \t\t\t\n      DUP2 \t\t\t\n      SLOAD \t\t\t\n      DUP2 \t\t\t\n      MSTORE \t\t\t\n      SWAP1 \t\t\t\n      PUSH 1\t\t\t\n      ADD \t\t\t\n      SWAP1 \t\t\t\n      PUSH 20\t\t\t\n      ADD \t\t\t\n      DUP1 \t\t\t\n      DUP4 \t\t\t\n      GT \t\t\t\n      PUSH [tag] 201\t\t\t\n      JUMPI \t\t\t\n      DUP3 \t\t\t\n      SWAP1 \t\t\t\n      SUB \t\t\t\n      PUSH 1F\t\t\t\n      AND \t\t\t\n      DUP3 \t\t\t\n      ADD \t\t\t\n      SWAP2 \t\t\t\n    tag 199\t\t\t\n      JUMPDEST \t\t\t\n      POP \t\t\t\n      POP \t\t\t\n      POP \t\t\t\n      POP \t\t\t\n      POP \t\t\t\n      SWAP1 \t\t\t\n      POP \t\t\t\n      SWAP1 \t\t\t\n      JUMP \t\t\t\n    tag 103\t\t\t\n      JUMPDEST \t\t\t\n      PUSH 0\t\t\t\n      PUSH [tag] 203\t\t\t\n      PUSH 9\t\t\t\n      PUSH 0\t\t\t\n      DUP5 \t\t\t\n      PUSH FFFFFFFFFFFFFFFFFFFFFFFFFFFFFFFFFFFFFFFF\t\t\t\n      AND \t\t\t\n      PUSH FFFFFFFFFFFFFFFFFFFFFFFFFFFFFFFFFFFFFFFF\t\t\t\n      AND \t\t\t\n      DUP2 \t\t\t\n      MSTORE \t\t\t\n      PUSH 20\t\t\t\n      ADD \t\t\t\n      SWAP1 \t\t\t\n      DUP2 \t\t\t\n      MSTORE \t\t\t\n      PUSH 20\t\t\t\n      ADD \t\t\t\n      PUSH 0\t\t\t\n      KECCAK256 \t\t\t\n      PUSH [tag] 204\t\t\t\n      JUMP \t\t\t\n    tag 203\t\t\t\n      JUMPDEST \t\t\t\n      PUSH FFFFFFFFFFFFFFFFFFFFFFFFFFFFFFFFFFFFFFFFFFFFFFFFFFFF\t\t\t\n      AND \t\t\t\n      SWAP1 \t\t\t\n      POP \t\t\t\n      SWAP2 \t\t\t\n      SWAP1 \t\t\t\n      POP \t\t\t\n      JUMP \t\t\t\n    tag 107\t\t\t\n      JUMPDEST \t\t\t\n      PUSH 0\t\t\t\n      DUP1 \t\t\t\n      PUSH [tag] 206\t\t\t\n      PUSH [tag] 139\t\t\t\n      JUMP \t\t\t\n    tag 206\t\t\t\n      JUMPDEST \t\t\t\n      SWAP1 \t\t\t\n      POP \t\t\t\n      PUSH [tag] 207\t\t\t\n      DUP2 \t\t\t\n      DUP6 \t\t\t\n      DUP6 \t\t\t\n      PUSH [tag] 148\t\t\t\n      JUMP \t\t\t\n    tag 207\t\t\t\n      JUMPDEST \t\t\t\n      PUSH 1\t\t\t\n      SWAP2 \t\t\t\n      POP \t\t\t\n      POP \t\t\t\n      SWAP3 \t\t\t\n      SWAP2 \t\t\t\n      POP \t\t\t\n      POP \t\t\t\n      JUMP \t\t\t\n    tag 112\t\t\t\n      JUMPDEST \t\t\t\n      DUP4 \t\t\t\n      TIMESTAMP \t\t\t\n      GT \t\t\t\n      ISZERO \t\t\t\n      PUSH [tag] 209\t\t\t\n      JUMPI \t\t\t\n      DUP4 \t\t\t\n      PUSH 40\t\t\t\n      MLOAD \t\t\t\n      PUSH 4683AF0E00000000000000000000000000000000000000000000000000000000\t\t\t\n      DUP2 \t\t\t\n      MSTORE \t\t\t\n      PUSH 4\t\t\t\n      ADD \t\t\t\n      PUSH [tag] 210\t\t\t\n      SWAP2 \t\t\t\n      SWAP1 \t\t\t\n      PUSH [tag] 42\t\t\t\n      JUMP \t\t\t\n    tag 210\t\t\t\n      JUMPDEST \t\t\t\n      PUSH 40\t\t\t\n      MLOAD \t\t\t\n      DUP1 \t\t\t\n      SWAP2 \t\t\t\n      SUB \t\t\t\n      SWAP1 \t\t\t\n      REVERT \t\t\t\n    tag 209\t\t\t\n      JUMPDEST \t\t\t\n      PUSH 0\t\t\t\n      PUSH [tag] 211\t\t\t\n      PUSH [tag] 212\t\t\t\n      PUSH E48329057BFD03D55E49B547132E39CFFD9C1820AD7B9D4C5307691425D15ADF\t\t\t\n      DUP10 \t\t\t\n      DUP10 \t\t\t\n      DUP10 \t\t\t\n      PUSH 40\t\t\t\n      MLOAD \t\t\t\n      PUSH 20\t\t\t\n      ADD \t\t\t\n      PUSH [tag] 213\t\t\t\n      SWAP5 \t\t\t\n      SWAP4 \t\t\t\n      SWAP3 \t\t\t\n      SWAP2 \t\t\t\n      SWAP1 \t\t\t\n      PUSH [tag] 214\t\t\t\n      JUMP \t\t\t\n    tag 213\t\t\t\n      JUMPDEST \t\t\t\n      PUSH 40\t\t\t\n      MLOAD \t\t\t\n      PUSH 20\t\t\t\n      DUP2 \t\t\t\n      DUP4 \t\t\t\n      SUB \t\t\t\n      SUB \t\t\t\n      DUP2 \t\t\t\n      MSTORE \t\t\t\n      SWAP1 \t\t\t\n      PUSH 40\t\t\t\n      MSTORE \t\t\t\n      DUP1 \t\t\t\n      MLOAD \t\t\t\n      SWAP1 \t\t\t\n      PUSH 20\t\t\t\n      ADD \t\t\t\n      KECCAK256 \t\t\t\n      PUSH [tag] 215\t\t\t\n      JUMP \t\t\t\n    tag 212\t\t\t\n      JUMPDEST \t\t\t\n      DUP6 \t\t\t\n      DUP6 \t\t\t\n      DUP6 \t\t\t\n      PUSH [tag] 216\t\t\t\n      JUMP \t\t\t\n    tag 211\t\t\t\n      JUMPDEST \t\t\t\n      SWAP1 \t\t\t\n      POP \t\t\t\n      PUSH [tag] 217\t\t\t\n      DUP2 \t\t\t\n      DUP8 \t\t\t\n      PUSH [tag] 218\t\t\t\n      JUMP \t\t\t\n    tag 217\t\t\t\n      JUMPDEST \t\t\t\n      PUSH [tag] 219\t\t\t\n      DUP2 \t\t\t\n      DUP9 \t\t\t\n      PUSH [tag] 171\t\t\t\n      JUMP \t\t\t\n    tag 219\t\t\t\n      JUMPDEST \t\t\t\n      POP \t\t\t\n      POP \t\t\t\n      POP \t\t\t\n      POP \t\t\t\n      POP \t\t\t\n      POP \t\t\t\n      POP \t\t\t\n      JUMP \t\t\t\n    tag 116\t\t\t\n      JUMPDEST \t\t\t\n      DUP4 \t\t\t\n      TIMESTAMP \t\t\t\n      GT \t\t\t\n      ISZERO \t\t\t\n      PUSH [tag] 221\t\t\t\n      JUMPI \t\t\t\n      DUP4 \t\t\t\n      PUSH 40\t\t\t\n      MLOAD \t\t\t\n      PUSH 6279130200000000000000000000000000000000000000000000000000000000\t\t\t\n      DUP2 \t\t\t\n      MSTORE \t\t\t\n      PUSH 4\t\t\t\n      ADD \t\t\t\n      PUSH [tag] 222\t\t\t\n      SWAP2 \t\t\t\n      SWAP1 \t\t\t\n      PUSH [tag] 42\t\t\t\n      JUMP \t\t\t\n    tag 222\t\t\t\n      JUMPDEST \t\t\t\n      PUSH 40\t\t\t\n      MLOAD \t\t\t\n      DUP1 \t\t\t\n      SWAP2 \t\t\t\n      SUB \t\t\t\n      SWAP1 \t\t\t\n      REVERT \t\t\t\n    tag 221\t\t\t\n      JUMPDEST \t\t\t\n      PUSH 0\t\t\t\n      PUSH 6E71EDAE12B1B97F4D1F60370FEF10105FA2FAAE0126114A169C64845D6126C9\t\t\t\n      DUP9 \t\t\t\n      DUP9 \t\t\t\n      DUP9 \t\t\t\n      PUSH [tag] 223\t\t\t\n      DUP13 \t\t\t\n      PUSH [tag] 224\t\t\t\n      JUMP \t\t\t\n    tag 223\t\t\t\n      JUMPDEST \t\t\t\n      DUP10 \t\t\t\n      PUSH 40\t\t\t\n      MLOAD \t\t\t\n      PUSH 20\t\t\t\n      ADD \t\t\t\n      PUSH [tag] 225\t\t\t\n      SWAP7 \t\t\t\n      SWAP6 \t\t\t\n      SWAP5 \t\t\t\n      SWAP4 \t\t\t\n      SWAP3 \t\t\t\n      SWAP2 \t\t\t\n      SWAP1 \t\t\t\n      PUSH [tag] 226\t\t\t\n      JUMP \t\t\t\n    tag 225\t\t\t\n      JUMPDEST \t\t\t\n      PUSH 40\t\t\t\n      MLOAD \t\t\t\n      PUSH 20\t\t\t\n      DUP2 \t\t\t\n      DUP4 \t\t\t\n      SUB \t\t\t\n      SUB \t\t\t\n      DUP2 \t\t\t\n      MSTORE \t\t\t\n      SWAP1 \t\t\t\n      PUSH 40\t\t\t\n      MSTORE \t\t\t\n      DUP1 \t\t\t\n      MLOAD \t\t\t\n      SWAP1 \t\t\t\n      PUSH 20\t\t\t\n      ADD \t\t\t\n      KECCAK256 \t\t\t\n      SWAP1 \t\t\t\n      POP \t\t\t\n      PUSH 0\t\t\t\n      PUSH [tag] 227\t\t\t\n      DUP3 \t\t\t\n      PUSH [tag] 215\t\t\t\n      JUMP \t\t\t\n    tag 227\t\t\t\n      JUMPDEST \t\t\t\n      SWAP1 \t\t\t\n      POP \t\t\t\n      PUSH 0\t\t\t\n      PUSH [tag] 228\t\t\t\n      DUP3 \t\t\t\n      DUP8 \t\t\t\n      DUP8 \t\t\t\n      DUP8 \t\t\t\n      PUSH [tag] 216\t\t\t\n      JUMP \t\t\t\n    tag 228\t\t\t\n      JUMPDEST \t\t\t\n      SWAP1 \t\t\t\n      POP \t\t\t\n      DUP10 \t\t\t\n      PUSH FFFFFFFFFFFFFFFFFFFFFFFFFFFFFFFFFFFFFFFF\t\t\t\n      AND \t\t\t\n      DUP2 \t\t\t\n      PUSH FFFFFFFFFFFFFFFFFFFFFFFFFFFFFFFFFFFFFFFF\t\t\t\n      AND \t\t\t\n      EQ \t\t\t\n      PUSH [tag] 229\t\t\t\n      JUMPI \t\t\t\n      DUP1 \t\t\t\n      DUP11 \t\t\t\n      PUSH 40\t\t\t\n      MLOAD \t\t\t\n      PUSH 4B800E4600000000000000000000000000000000000000000000000000000000\t\t\t\n      DUP2 \t\t\t\n      MSTORE \t\t\t\n      PUSH 4\t\t\t\n      ADD \t\t\t\n      PUSH [tag] 230\t\t\t\n      SWAP3 \t\t\t\n      SWAP2 \t\t\t\n      SWAP1 \t\t\t\n      PUSH [tag] 231\t\t\t\n      JUMP \t\t\t\n    tag 230\t\t\t\n      JUMPDEST \t\t\t\n      PUSH 40\t\t\t\n      MLOAD \t\t\t\n      DUP1 \t\t\t\n      SWAP2 \t\t\t\n      SUB \t\t\t\n      SWAP1 \t\t\t\n      REVERT \t\t\t\n    tag 229\t\t\t\n      JUMPDEST \t\t\t\n      PUSH [tag] 232\t\t\t\n      DUP11 \t\t\t\n      DUP11 \t\t\t\n      DUP11 \t\t\t\n      PUSH [tag] 141\t\t\t\n      JUMP \t\t\t\n    tag 232\t\t\t\n      JUMPDEST \t\t\t\n      POP \t\t\t\n      POP \t\t\t\n      POP \t\t\t\n      POP \t\t\t\n      POP \t\t\t\n      POP \t\t\t\n      POP \t\t\t\n      POP \t\t\t\n      POP \t\t\t\n      POP \t\t\t\n      JUMP \t\t\t\n    tag 120\t\t\t\n      JUMPDEST \t\t\t\n      PUSH 0\t\t\t\n      PUSH 1\t\t\t\n      PUSH 0\t\t\t\n      DUP5 \t\t\t\n      PUSH FFFFFFFFFFFFFFFFFFFFFFFFFFFFFFFFFFFFFFFF\t\t\t\n      AND \t\t\t\n      PUSH FFFFFFFFFFFFFFFFFFFFFFFFFFFFFFFFFFFFFFFF\t\t\t\n      AND \t\t\t\n      DUP2 \t\t\t\n      MSTORE \t\t\t\n      PUSH 20\t\t\t\n      ADD \t\t\t\n      SWAP1 \t\t\t\n      DUP2 \t\t\t\n      MSTORE \t\t\t\n      PUSH 20\t\t\t\n      ADD \t\t\t\n      PUSH 0\t\t\t\n      KECCAK256 \t\t\t\n      PUSH 0\t\t\t\n      DUP4 \t\t\t\n      PUSH FFFFFFFFFFFFFFFFFFFFFFFFFFFFFFFFFFFFFFFF\t\t\t\n      AND \t\t\t\n      PUSH FFFFFFFFFFFFFFFFFFFFFFFFFFFFFFFFFFFFFFFF\t\t\t\n      AND \t\t\t\n      DUP2 \t\t\t\n      MSTORE \t\t\t\n      PUSH 20\t\t\t\n      ADD \t\t\t\n      SWAP1 \t\t\t\n      DUP2 \t\t\t\n      MSTORE \t\t\t\n      PUSH 20\t\t\t\n      ADD \t\t\t\n      PUSH 0\t\t\t\n      KECCAK256 \t\t\t\n      SLOAD \t\t\t\n      SWAP1 \t\t\t\n      POP \t\t\t\n      SWAP3 \t\t\t\n      SWAP2 \t\t\t\n      POP \t\t\t\n      POP \t\t\t\n      JUMP \t\t\t\n    tag 125\t\t\t\n      JUMPDEST \t\t\t\n      PUSH [tag] 234\t\t\t\n      PUSH [tag] 235\t\t\t\n      JUMP \t\t\t\n    tag 234\t\t\t\n      JUMPDEST \t\t\t\n      PUSH [tag] 237\t\t\t\n      DUP4 \t\t\t\n      DUP4 \t\t\t\n      PUSH [tag] 238\t\t\t\n      JUMP \t\t\t\n    tag 237\t\t\t\n      JUMPDEST \t\t\t\n      SWAP1 \t\t\t\n      POP \t\t\t\n      SWAP3 \t\t\t\n      SWAP2 \t\t\t\n      POP \t\t\t\n      POP \t\t\t\n      JUMP \t\t\t\n    tag 128\t\t\t\n      JUMPDEST \t\t\t\n      PUSH 0\t\t\t\n      DUP2 \t\t\t\n      DUP4 \t\t\t\n      PUSH [tag] 240\t\t\t\n      SWAP2 \t\t\t\n      SWAP1 \t\t\t\n      PUSH [tag] 241\t\t\t\n      JUMP \t\t\t\n    tag 240\t\t\t\n      JUMPDEST \t\t\t\n      SWAP1 \t\t\t\n      POP \t\t\t\n      SWAP3 \t\t\t\n      SWAP2 \t\t\t\n      POP \t\t\t\n      POP \t\t\t\n      JUMP \t\t\t\n    tag 129\t\t\t\n      JUMPDEST \t\t\t\n      PUSH 0\t\t\t\n      DUP2 \t\t\t\n      DUP4 \t\t\t\n      PUSH [tag] 243\t\t\t\n      SWAP2 \t\t\t\n      SWAP1 \t\t\t\n      PUSH [tag] 244\t\t\t\n      JUMP \t\t\t\n    tag 243\t\t\t\n      JUMPDEST \t\t\t\n      SWAP1 \t\t\t\n      POP \t\t\t\n      SWAP3 \t\t\t\n      SWAP2 \t\t\t\n      POP \t\t\t\n      POP \t\t\t\n      JUMP \t\t\t\n    tag 139\t\t\terride(ERC20, ERC20Votes)\\n   ...\n      JUMPDEST \t\t\terride(ERC20, ERC20Votes)\\n   ...\n      PUSH 0\t\t\t(from, \n      CALLER \t\t\t    functi\n      SWAP1 \t\t\t    }\\n\\n    functi\n      POP \t\t\t    }\\n\\n    functi\n      SWAP1 \t\t\terride(ERC20, ERC20Votes)\\n   ...\n      JUMP \t\t\terride(ERC20, ERC20Votes)\\n   ...\n    tag 141\t\t\t\n      JUMPDEST \t\t\t\n      PUSH [tag] 247\t\t\t\n      DUP4 \t\t\t\n      DUP4 \t\t\t\n      DUP4 \t\t\t\n      PUSH 1\t\t\t\n      PUSH [tag] 248\t\t\t\n      JUMP \t\t\t\n    tag 247\t\t\t\n      JUMPDEST \t\t\t\n      POP \t\t\t\n      POP \t\t\t\n      POP \t\t\t\n      JUMP \t\t\t\n    tag 146\t\t\t\n      JUMPDEST \t\t\t\n      PUSH 0\t\t\t\n      PUSH [tag] 250\t\t\t\n      DUP5 \t\t\t\n      DUP5 \t\t\t\n      PUSH [tag] 120\t\t\t\n      JUMP \t\t\t\n    tag 250\t\t\t\n      JUMPDEST \t\t\t\n      SWAP1 \t\t\t\n      POP \t\t\t\n      PUSH FFFFFFFFFFFFFFFFFFFFFFFFFFFFFFFFFFFFFFFFFFFFFFFFFFFFFFFFFFFFFFFF\t\t\t\n      DUP2 \t\t\t\n      EQ \t\t\t\n      PUSH [tag] 251\t\t\t\n      JUMPI \t\t\t\n      DUP2 \t\t\t\n      DUP2 \t\t\t\n      LT \t\t\t\n      ISZERO \t\t\t\n      PUSH [tag] 252\t\t\t\n      JUMPI \t\t\t\n      DUP3 \t\t\t\n      DUP2 \t\t\t\n      DUP4 \t\t\t\n      PUSH 40\t\t\t\n      MLOAD \t\t\t\n      PUSH FB8F41B200000000000000000000000000000000000000000000000000000000\t\t\t\n      DUP2 \t\t\t\n      MSTORE \t\t\t\n      PUSH 4\t\t\t\n      ADD \t\t\t\n      PUSH [tag] 253\t\t\t\n      SWAP4 \t\t\t\n      SWAP3 \t\t\t\n      SWAP2 \t\t\t\n      SWAP1 \t\t\t\n      PUSH [tag] 254\t\t\t\n      JUMP \t\t\t\n    tag 253\t\t\t\n      JUMPDEST \t\t\t\n      PUSH 40\t\t\t\n      MLOAD \t\t\t\n      DUP1 \t\t\t\n      SWAP2 \t\t\t\n      SUB \t\t\t\n      SWAP1 \t\t\t\n      REVERT \t\t\t\n    tag 252\t\t\t\n      JUMPDEST \t\t\t\n      PUSH [tag] 255\t\t\t\n      DUP5 \t\t\t\n      DUP5 \t\t\t\n      DUP5 \t\t\t\n      DUP5 \t\t\t\n      SUB \t\t\t\n      PUSH 0\t\t\t\n      PUSH [tag] 248\t\t\t\n      JUMP \t\t\t\n    tag 255\t\t\t\n      JUMPDEST \t\t\t\n    tag 251\t\t\t\n      JUMPDEST \t\t\t\n      POP \t\t\t\n      POP \t\t\t\n      POP \t\t\t\n      POP \t\t\t\n      JUMP \t\t\t\n    tag 148\t\t\t\n      JUMPDEST \t\t\t\n      PUSH 0\t\t\t\n      PUSH FFFFFFFFFFFFFFFFFFFFFFFFFFFFFFFFFFFFFFFF\t\t\t\n      AND \t\t\t\n      DUP4 \t\t\t\n      PUSH FFFFFFFFFFFFFFFFFFFFFFFFFFFFFFFFFFFFFFFF\t\t\t\n      AND \t\t\t\n      SUB \t\t\t\n      PUSH [tag] 257\t\t\t\n      JUMPI \t\t\t\n      PUSH 0\t\t\t\n      PUSH 40\t\t\t\n      MLOAD \t\t\t\n      PUSH 96C6FD1E00000000000000000000000000000000000000000000000000000000\t\t\t\n      DUP2 \t\t\t\n      MSTORE \t\t\t\n      PUSH 4\t\t\t\n      ADD \t\t\t\n      PUSH [tag] 258\t\t\t\n      SWAP2 \t\t\t\n      SWAP1 \t\t\t\n      PUSH [tag] 68\t\t\t\n      JUMP \t\t\t\n    tag 258\t\t\t\n      JUMPDEST \t\t\t\n      PUSH 40\t\t\t\n      MLOAD \t\t\t\n      DUP1 \t\t\t\n      SWAP2 \t\t\t\n      SUB \t\t\t\n      SWAP1 \t\t\t\n      REVERT \t\t\t\n    tag 257\t\t\t\n      JUMPDEST \t\t\t\n      PUSH 0\t\t\t\n      PUSH FFFFFFFFFFFFFFFFFFFFFFFFFFFFFFFFFFFFFFFF\t\t\t\n      AND \t\t\t\n      DUP3 \t\t\t\n      PUSH FFFFFFFFFFFFFFFFFFFFFFFFFFFFFFFFFFFFFFFF\t\t\t\n      AND \t\t\t\n      SUB \t\t\t\n      PUSH [tag] 259\t\t\t\n      JUMPI \t\t\t\n      PUSH 0\t\t\t\n      PUSH 40\t\t\t\n      MLOAD \t\t\t\n      PUSH EC442F0500000000000000000000000000000000000000000000000000000000\t\t\t\n      DUP2 \t\t\t\n      MSTORE \t\t\t\n      PUSH 4\t\t\t\n      ADD \t\t\t\n      PUSH [tag] 260\t\t\t\n      SWAP2 \t\t\t\n      SWAP1 \t\t\t\n      PUSH [tag] 68\t\t\t\n      JUMP \t\t\t\n    tag 260\t\t\t\n      JUMPDEST \t\t\t\n      PUSH 40\t\t\t\n      MLOAD \t\t\t\n      DUP1 \t\t\t\n      SWAP2 \t\t\t\n      SUB \t\t\t\n      SWAP1 \t\t\t\n      REVERT \t\t\t\n    tag 259\t\t\t\n      JUMPDEST \t\t\t\n      PUSH [tag] 261\t\t\t\n      DUP4 \t\t\t\n      DUP4 \t\t\t\n      DUP4 \t\t\t\n      PUSH [tag] 262\t\t\t\n      JUMP \t\t\t\n    tag 261\t\t\t\n      JUMPDEST \t\t\t\n      POP \t\t\t\n      POP \t\t\t\n      POP \t\t\t\n      JUMP \t\t\t\n    tag 152\t\t\t\n      JUMPDEST \t\t\t\n      PUSH 0\t\t\t\n      PUSHIMMUTABLE 2811\t\t\t\n      PUSH FFFFFFFFFFFFFFFFFFFFFFFFFFFFFFFFFFFFFFFF\t\t\t\n      AND \t\t\t\n      ADDRESS \t\t\t\n      PUSH FFFFFFFFFFFFFFFFFFFFFFFFFFFFFFFFFFFFFFFF\t\t\t\n      AND \t\t\t\n      EQ \t\t\t\n      DUP1 \t\t\t\n      ISZERO \t\t\t\n      PUSH [tag] 264\t\t\t\n      JUMPI \t\t\t\n      POP \t\t\t\n      PUSHIMMUTABLE 2809\t\t\t\n      CHAINID \t\t\t\n      EQ \t\t\t\n    tag 264\t\t\t\n      JUMPDEST \t\t\t\n      ISZERO \t\t\t\n      PUSH [tag] 265\t\t\t\n      JUMPI \t\t\t\n      PUSHIMMUTABLE 2807\t\t\t\n      SWAP1 \t\t\t\n      POP \t\t\t\n      PUSH [tag] 263\t\t\t\n      JUMP \t\t\t\n    tag 265\t\t\t\n      JUMPDEST \t\t\t\n      PUSH [tag] 267\t\t\t\n      PUSH [tag] 268\t\t\t\n      JUMP \t\t\t\n    tag 267\t\t\t\n      JUMPDEST \t\t\t\n      SWAP1 \t\t\t\n      POP \t\t\t\n    tag 263\t\t\t\n      JUMPDEST \t\t\t\n      SWAP1 \t\t\t\n      JUMP \t\t\t\n    tag 160\t\t\t\n      JUMPDEST \t\t\t\n      PUSH 0\t\t\t\n      PUSH FFFFFFFFFFFF\t\t\t\n      DUP1 \t\t\t\n      AND \t\t\t\n      DUP3 \t\t\t\n      GT \t\t\t\n      ISZERO \t\t\t\n      PUSH [tag] 270\t\t\t\n      JUMPI \t\t\t\n      PUSH 30\t\t\t\n      DUP3 \t\t\t\n      PUSH 40\t\t\t\n      MLOAD \t\t\t\n      PUSH 6DFCC65000000000000000000000000000000000000000000000000000000000\t\t\t\n      DUP2 \t\t\t\n      MSTORE \t\t\t\n      PUSH 4\t\t\t\n      ADD \t\t\t\n      PUSH [tag] 271\t\t\t\n      SWAP3 \t\t\t\n      SWAP2 \t\t\t\n      SWAP1 \t\t\t\n      PUSH [tag] 272\t\t\t\n      JUMP \t\t\t\n    tag 271\t\t\t\n      JUMPDEST \t\t\t\n      PUSH 40\t\t\t\n      MLOAD \t\t\t\n      DUP1 \t\t\t\n      SWAP2 \t\t\t\n      SUB \t\t\t\n      SWAP1 \t\t\t\n      REVERT \t\t\t\n    tag 270\t\t\t\n      JUMPDEST \t\t\t\n      DUP2 \t\t\t\n      SWAP1 \t\t\t\n      POP \t\t\t\n      SWAP2 \t\t\t\n      SWAP1 \t\t\t\n      POP \t\t\t\n      JUMP \t\t\t\n    tag 161\t\t\t\n      JUMPDEST \t\t\t\n      PUSH 0\t\t\t\n      DUP1 \t\t\t\n      DUP4 \t\t\t\n      PUSH 0\t\t\t\n      ADD \t\t\t\n      DUP1 \t\t\t\n      SLOAD \t\t\t\n      SWAP1 \t\t\t\n      POP \t\t\t\n      SWAP1 \t\t\t\n      POP \t\t\t\n      PUSH 0\t\t\t\n      DUP1 \t\t\t\n      DUP3 \t\t\t\n      SWAP1 \t\t\t\n      POP \t\t\t\n      PUSH 5\t\t\t\n      DUP4 \t\t\t\n      GT \t\t\t\n      ISZERO \t\t\t\n      PUSH [tag] 274\t\t\t\n      JUMPI \t\t\t\n      PUSH 0\t\t\t\n      PUSH [tag] 275\t\t\t\n      DUP5 \t\t\t\n      PUSH [tag] 276\t\t\t\n      JUMP \t\t\t\n    tag 275\t\t\t\n      JUMPDEST \t\t\t\n      DUP5 \t\t\t\n      PUSH [tag] 277\t\t\t\n      SWAP2 \t\t\t\n      SWAP1 \t\t\t\n      PUSH [tag] 278\t\t\t\n      JUMP \t\t\t\n    tag 277\t\t\t\n      JUMPDEST \t\t\t\n      SWAP1 \t\t\t\n      POP \t\t\t\n      PUSH [tag] 279\t\t\t\n      DUP8 \t\t\t\n      PUSH 0\t\t\t\n      ADD \t\t\t\n      DUP3 \t\t\t\n      PUSH [tag] 280\t\t\t\n      JUMP \t\t\t\n    tag 279\t\t\t\n      JUMPDEST \t\t\t\n      PUSH 0\t\t\t\n      ADD \t\t\t\n      PUSH 0\t\t\t\n      SWAP1 \t\t\t\n      SLOAD \t\t\t\n      SWAP1 \t\t\t\n      PUSH 100\t\t\t\n      EXP \t\t\t\n      SWAP1 \t\t\t\n      DIV \t\t\t\n      PUSH FFFFFFFFFFFF\t\t\t\n      AND \t\t\t\n      PUSH FFFFFFFFFFFF\t\t\t\n      AND \t\t\t\n      DUP7 \t\t\t\n      PUSH FFFFFFFFFFFF\t\t\t\n      AND \t\t\t\n      LT \t\t\t\n      ISZERO \t\t\t\n      PUSH [tag] 281\t\t\t\n      JUMPI \t\t\t\n      DUP1 \t\t\t\n      SWAP2 \t\t\t\n      POP \t\t\t\n      PUSH [tag] 282\t\t\t\n      JUMP \t\t\t\n    tag 281\t\t\t\n      JUMPDEST \t\t\t\n      PUSH 1\t\t\t\n      DUP2 \t\t\t\n      PUSH [tag] 283\t\t\t\n      SWAP2 \t\t\t\n      SWAP1 \t\t\t\n      PUSH [tag] 284\t\t\t\n      JUMP \t\t\t\n    tag 283\t\t\t\n      JUMPDEST \t\t\t\n      SWAP3 \t\t\t\n      POP \t\t\t\n    tag 282\t\t\t\n      JUMPDEST \t\t\t\n      POP \t\t\t\n    tag 274\t\t\t\n      JUMPDEST \t\t\t\n      PUSH 0\t\t\t\n      PUSH [tag] 285\t\t\t\n      DUP8 \t\t\t\n      PUSH 0\t\t\t\n      ADD \t\t\t\n      DUP8 \t\t\t\n      DUP6 \t\t\t\n      DUP6 \t\t\t\n      PUSH [tag] 286\t\t\t\n      JUMP \t\t\t\n    tag 285\t\t\t\n      JUMPDEST \t\t\t\n      SWAP1 \t\t\t\n      POP \t\t\t\n      PUSH 0\t\t\t\n      DUP2 \t\t\t\n      EQ \t\t\t\n      PUSH [tag] 287\t\t\t\n      JUMPI \t\t\t\n      PUSH [tag] 288\t\t\t\n      DUP8 \t\t\t\n      PUSH 0\t\t\t\n      ADD \t\t\t\n      PUSH 1\t\t\t\n      DUP4 \t\t\t\n      PUSH [tag] 289\t\t\t\n      SWAP2 \t\t\t\n      SWAP1 \t\t\t\n      PUSH [tag] 278\t\t\t\n      JUMP \t\t\t\n    tag 289\t\t\t\n      JUMPDEST \t\t\t\n      PUSH [tag] 280\t\t\t\n      JUMP \t\t\t\n    tag 288\t\t\t\n      JUMPDEST \t\t\t\n      PUSH 0\t\t\t\n      ADD \t\t\t\n      PUSH 6\t\t\t\n      SWAP1 \t\t\t\n      SLOAD \t\t\t\n      SWAP1 \t\t\t\n      PUSH 100\t\t\t\n      EXP \t\t\t\n      SWAP1 \t\t\t\n      DIV \t\t\t\n      PUSH FFFFFFFFFFFFFFFFFFFFFFFFFFFFFFFFFFFFFFFFFFFFFFFFFFFF\t\t\t\n      AND \t\t\t\n      PUSH [tag] 290\t\t\t\n      JUMP \t\t\t\n    tag 287\t\t\t\n      JUMPDEST \t\t\t\n      PUSH 0\t\t\t\n    tag 290\t\t\t\n      JUMPDEST \t\t\t\n      SWAP5 \t\t\t\n      POP \t\t\t\n      POP \t\t\t\n      POP \t\t\t\n      POP \t\t\t\n      POP \t\t\t\n      SWAP3 \t\t\t\n      SWAP2 \t\t\t\n      POP \t\t\t\n      POP \t\t\t\n      JUMP \t\t\t\n    tag 164\t\t\t\n      JUMPDEST \t\t\t\n      PUSH 0\t\t\t\n      PUSH [tag] 292\t\t\t\n      NUMBER \t\t\t\n      PUSH [tag] 160\t\t\t\n      JUMP \t\t\t\n    tag 292\t\t\t\n      JUMPDEST \t\t\t\n      SWAP1 \t\t\t\n      POP \t\t\t\n      SWAP1 \t\t\t\n      JUMP \t\t\t\n    tag 171\t\t\t\n      JUMPDEST \t\t\t\n      PUSH 0\t\t\t\n      PUSH [tag] 294\t\t\t\n      DUP4 \t\t\t\n      PUSH [tag] 66\t\t\t\n      JUMP \t\t\t\n    tag 294\t\t\t\n      JUMPDEST \t\t\t\n      SWAP1 \t\t\t\n      POP \t\t\t\n      DUP2 \t\t\t\n      PUSH 8\t\t\t\n      PUSH 0\t\t\t\n      DUP6 \t\t\t\n      PUSH FFFFFFFFFFFFFFFFFFFFFFFFFFFFFFFFFFFFFFFF\t\t\t\n      AND \t\t\t\n      PUSH FFFFFFFFFFFFFFFFFFFFFFFFFFFFFFFFFFFFFFFF\t\t\t\n      AND \t\t\t\n      DUP2 \t\t\t\n      MSTORE \t\t\t\n      PUSH 20\t\t\t\n      ADD \t\t\t\n      SWAP1 \t\t\t\n      DUP2 \t\t\t\n      MSTORE \t\t\t\n      PUSH 20\t\t\t\n      ADD \t\t\t\n      PUSH 0\t\t\t\n      KECCAK256 \t\t\t\n      PUSH 0\t\t\t\n      PUSH 100\t\t\t\n      EXP \t\t\t\n      DUP2 \t\t\t\n      SLOAD \t\t\t\n      DUP2 \t\t\t\n      PUSH FFFFFFFFFFFFFFFFFFFFFFFFFFFFFFFFFFFFFFFF\t\t\t\n      MUL \t\t\t\n      NOT \t\t\t\n      AND \t\t\t\n      SWAP1 \t\t\t\n      DUP4 \t\t\t\n      PUSH FFFFFFFFFFFFFFFFFFFFFFFFFFFFFFFFFFFFFFFF\t\t\t\n      AND \t\t\t\n      MUL \t\t\t\n      OR \t\t\t\n      SWAP1 \t\t\t\n      SSTORE \t\t\t\n      POP \t\t\t\n      DUP2 \t\t\t\n      PUSH FFFFFFFFFFFFFFFFFFFFFFFFFFFFFFFFFFFFFFFF\t\t\t\n      AND \t\t\t\n      DUP2 \t\t\t\n      PUSH FFFFFFFFFFFFFFFFFFFFFFFFFFFFFFFFFFFFFFFF\t\t\t\n      AND \t\t\t\n      DUP5 \t\t\t\n      PUSH FFFFFFFFFFFFFFFFFFFFFFFFFFFFFFFFFFFFFFFF\t\t\t\n      AND \t\t\t\n      PUSH 3134E8A2E6D97E929A7E54011EA5485D7D196DD5F0BA4D4EF95803E8E3FC257F\t\t\t\n      PUSH 40\t\t\t\n      MLOAD \t\t\t\n      PUSH 40\t\t\t\n      MLOAD \t\t\t\n      DUP1 \t\t\t\n      SWAP2 \t\t\t\n      SUB \t\t\t\n      SWAP1 \t\t\t\n      LOG4 \t\t\t\n      PUSH [tag] 295\t\t\t\n      DUP2 \t\t\t\n      DUP4 \t\t\t\n      PUSH [tag] 296\t\t\t\n      DUP7 \t\t\t\n      PUSH [tag] 297\t\t\t\n      JUMP \t\t\t\n    tag 296\t\t\t\n      JUMPDEST \t\t\t\n      PUSH [tag] 298\t\t\t\n      JUMP \t\t\t\n    tag 295\t\t\t\n      JUMPDEST \t\t\t\n      POP \t\t\t\n      POP \t\t\t\n      POP \t\t\t\n      JUMP \t\t\t\n    tag 174\t\t\t\n      JUMPDEST \t\t\t\n      PUSH 0\t\t\t\n      PUSH [tag] 300\t\t\t\n      PUSH [tag] 301\t\t\t\n      PUSH 9\t\t\t\n      PUSH 0\t\t\t\n      DUP6 \t\t\t\n      PUSH FFFFFFFFFFFFFFFFFFFFFFFFFFFFFFFFFFFFFFFF\t\t\t\n      AND \t\t\t\n      PUSH FFFFFFFFFFFFFFFFFFFFFFFFFFFFFFFFFFFFFFFF\t\t\t\n      AND \t\t\t\n      DUP2 \t\t\t\n      MSTORE \t\t\t\n      PUSH 20\t\t\t\n      ADD \t\t\t\n      SWAP1 \t\t\t\n      DUP2 \t\t\t\n      MSTORE \t\t\t\n      PUSH 20\t\t\t\n      ADD \t\t\t\n      PUSH 0\t\t\t\n      KECCAK256 \t\t\t\n      PUSH [tag] 302\t\t\t\n      JUMP \t\t\t\n    tag 301\t\t\t\n      JUMPDEST \t\t\t\n      PUSH [tag] 303\t\t\t\n      JUMP \t\t\t\n    tag 300\t\t\t\n      JUMPDEST \t\t\t\n      SWAP1 \t\t\t\n      POP \t\t\t\n      SWAP2 \t\t\t\n      SWAP1 \t\t\t\n      POP \t\t\t\n      JUMP \t\t\t\n    tag 178\t\t\t\n      JUMPDEST \t\t\t\n      PUSH 0\t\t\t\n      PUSH [tag] 305\t\t\t\n      DUP3 \t\t\t\n      PUSH [tag] 306\t\t\t\n      JUMP \t\t\t\n    tag 305\t\t\t\n      JUMPDEST \t\t\t\n      SWAP1 \t\t\t\n      POP \t\t\t\n      SWAP2 \t\t\t\n      SWAP1 \t\t\t\n      POP \t\t\t\n      JUMP \t\t\t\n    tag 181\t\t\t\n      JUMPDEST \t\t\t\n      PUSH 60\t\t\t\n      PUSH [tag] 308\t\t\t\n      PUSH 5\t\t\t\n      PUSHIMMUTABLE 2818\t\t\t\n      PUSH [tag] 309\t\t\t\n      SWAP1 \t\t\t\n      SWAP2 \t\t\t\n      SWAP1 \t\t\t\n      PUSH FFFFFFFF\t\t\t\n      AND \t\t\t\n      JUMP \t\t\t\n    tag 308\t\t\t\n      JUMPDEST \t\t\t\n      SWAP1 \t\t\t\n      POP \t\t\t\n      SWAP1 \t\t\t\n      JUMP \t\t\t\n    tag 183\t\t\t\n      JUMPDEST \t\t\t\n      PUSH 60\t\t\t\n      PUSH [tag] 311\t\t\t\n      PUSH 6\t\t\t\n      PUSHIMMUTABLE 2821\t\t\t\n      PUSH [tag] 309\t\t\t\n      SWAP1 \t\t\t\n      SWAP2 \t\t\t\n      SWAP1 \t\t\t\n      PUSH FFFFFFFF\t\t\t\n      AND \t\t\t\n      JUMP \t\t\t\n    tag 311\t\t\t\n      JUMPDEST \t\t\t\n      SWAP1 \t\t\t\n      POP \t\t\t\n      SWAP1 \t\t\t\n      JUMP \t\t\t\n    tag 204\t\t\t\n      JUMPDEST \t\t\t\n      PUSH 0\t\t\t\n      DUP1 \t\t\t\n      DUP3 \t\t\t\n      PUSH 0\t\t\t\n      ADD \t\t\t\n      DUP1 \t\t\t\n      SLOAD \t\t\t\n      SWAP1 \t\t\t\n      POP \t\t\t\n      SWAP1 \t\t\t\n      POP \t\t\t\n      PUSH 0\t\t\t\n      DUP2 \t\t\t\n      EQ \t\t\t\n      PUSH [tag] 313\t\t\t\n      JUMPI \t\t\t\n      PUSH [tag] 314\t\t\t\n      DUP4 \t\t\t\n      PUSH 0\t\t\t\n      ADD \t\t\t\n      PUSH 1\t\t\t\n      DUP4 \t\t\t\n      PUSH [tag] 315\t\t\t\n      SWAP2 \t\t\t\n      SWAP1 \t\t\t\n      PUSH [tag] 278\t\t\t\n      JUMP \t\t\t\n    tag 315\t\t\t\n      JUMPDEST \t\t\t\n      PUSH [tag] 280\t\t\t\n      JUMP \t\t\t\n    tag 314\t\t\t\n      JUMPDEST \t\t\t\n      PUSH 0\t\t\t\n      ADD \t\t\t\n      PUSH 6\t\t\t\n      SWAP1 \t\t\t\n      SLOAD \t\t\t\n      SWAP1 \t\t\t\n      PUSH 100\t\t\t\n      EXP \t\t\t\n      SWAP1 \t\t\t\n      DIV \t\t\t\n      PUSH FFFFFFFFFFFFFFFFFFFFFFFFFFFFFFFFFFFFFFFFFFFFFFFFFFFF\t\t\t\n      AND \t\t\t\n      PUSH [tag] 316\t\t\t\n      JUMP \t\t\t\n    tag 313\t\t\t\n      JUMPDEST \t\t\t\n      PUSH 0\t\t\t\n    tag 316\t\t\t\n      JUMPDEST \t\t\t\n      SWAP2 \t\t\t\n      POP \t\t\t\n      POP \t\t\t\n      SWAP2 \t\t\t\n      SWAP1 \t\t\t\n      POP \t\t\t\n      JUMP \t\t\t\n    tag 215\t\t\t\n      JUMPDEST \t\t\t\n      PUSH 0\t\t\t\n      PUSH [tag] 318\t\t\t\n      PUSH [tag] 319\t\t\t\n      PUSH [tag] 152\t\t\t\n      JUMP \t\t\t\n    tag 319\t\t\t\n      JUMPDEST \t\t\t\n      DUP4 \t\t\t\n      PUSH [tag] 320\t\t\t\n      JUMP \t\t\t\n    tag 318\t\t\t\n      JUMPDEST \t\t\t\n      SWAP1 \t\t\t\n      POP \t\t\t\n      SWAP2 \t\t\t\n      SWAP1 \t\t\t\n      POP \t\t\t\n      JUMP \t\t\t\n    tag 216\t\t\t\n      JUMPDEST \t\t\t\n      PUSH 0\t\t\t\n      DUP1 \t\t\t\n      PUSH 0\t\t\t\n      DUP1 \t\t\t\n      PUSH [tag] 322\t\t\t\n      DUP9 \t\t\t\n      DUP9 \t\t\t\n      DUP9 \t\t\t\n      DUP9 \t\t\t\n      PUSH [tag] 323\t\t\t\n      JUMP \t\t\t\n    tag 322\t\t\t\n      JUMPDEST \t\t\t\n      SWAP3 \t\t\t\n      POP \t\t\t\n      SWAP3 \t\t\t\n      POP \t\t\t\n      SWAP3 \t\t\t\n      POP \t\t\t\n      PUSH [tag] 324\t\t\t\n      DUP3 \t\t\t\n      DUP3 \t\t\t\n      PUSH [tag] 325\t\t\t\n      JUMP \t\t\t\n    tag 324\t\t\t\n      JUMPDEST \t\t\t\n      DUP3 \t\t\t\n      SWAP4 \t\t\t\n      POP \t\t\t\n      POP \t\t\t\n      POP \t\t\t\n      POP \t\t\t\n      SWAP5 \t\t\t\n      SWAP4 \t\t\t\n      POP \t\t\t\n      POP \t\t\t\n      POP \t\t\t\n      POP \t\t\t\n      JUMP \t\t\t\n    tag 218\t\t\t\n      JUMPDEST \t\t\t\n      PUSH 0\t\t\t\n      PUSH [tag] 327\t\t\t\n      DUP4 \t\t\t\n      PUSH [tag] 224\t\t\t\n      JUMP \t\t\t\n    tag 327\t\t\t\n      JUMPDEST \t\t\t\n      SWAP1 \t\t\t\n      POP \t\t\t\n      DUP1 \t\t\t\n      DUP3 \t\t\t\n      EQ \t\t\t\n      PUSH [tag] 328\t\t\t\n      JUMPI \t\t\t\n      DUP3 \t\t\t\n      DUP2 \t\t\t\n      PUSH 40\t\t\t\n      MLOAD \t\t\t\n      PUSH 752D88C000000000000000000000000000000000000000000000000000000000\t\t\t\n      DUP2 \t\t\t\n      MSTORE \t\t\t\n      PUSH 4\t\t\t\n      ADD \t\t\t\n      PUSH [tag] 329\t\t\t\n      SWAP3 \t\t\t\n      SWAP2 \t\t\t\n      SWAP1 \t\t\t\n      PUSH [tag] 330\t\t\t\n      JUMP \t\t\t\n    tag 329\t\t\t\n      JUMPDEST \t\t\t\n      PUSH 40\t\t\t\n      MLOAD \t\t\t\n      DUP1 \t\t\t\n      SWAP2 \t\t\t\n      SUB \t\t\t\n      SWAP1 \t\t\t\n      REVERT \t\t\t\n    tag 328\t\t\t\n      JUMPDEST \t\t\t\n      POP \t\t\t\n      POP \t\t\t\n      POP \t\t\t\n      JUMP \t\t\t\n    tag 224\t\t\tess owner)\\n        public\\n  ...\n      JUMPDEST \t\t\tess owner)\\n        public\\n  ...\n      PUSH 0\t\t\t0Permit\n      PUSH 7\t\t\t\n      PUSH 0\t\t\t\n      DUP4 \t\t\t\n      PUSH FFFFFFFFFFFFFFFFFFFFFFFFFFFFFFFFFFFFFFFF\t\t\t\n      AND \t\t\t\n      PUSH FFFFFFFFFFFFFFFFFFFFFFFFFFFFFFFFFFFFFFFF\t\t\t\n      AND \t\t\t\n      DUP2 \t\t\t\n      MSTORE \t\t\t\n      PUSH 20\t\t\t\n      ADD \t\t\t\n      SWAP1 \t\t\t\n      DUP2 \t\t\t\n      MSTORE \t\t\t\n      PUSH 20\t\t\t\n      ADD \t\t\t\n      PUSH 0\t\t\t\n      KECCAK256 \t\t\t\n      PUSH 0\t\t\t\n      DUP2 \t\t\t\n      SLOAD \t\t\t\n      DUP1 \t\t\t\n      SWAP3 \t\t\t\n      SWAP2 \t\t\t\n      SWAP1 \t\t\t\n      PUSH 1\t\t\t\n      ADD \t\t\t\n      SWAP2 \t\t\t\n      SWAP1 \t\t\t\n      POP \t\t\t\n      SSTORE \t\t\t\n      SWAP1 \t\t\t\n      POP \t\t\t\n      SWAP2 \t\t\tess owner)\\n        public\\n  ...\n      SWAP1 \t\t\tess owner)\\n        public\\n  ...\n      POP \t\t\tess owner)\\n        public\\n  ...\n      JUMP \t\t\tess owner)\\n        public\\n  ...\n    tag 238\t\t\t\n      JUMPDEST \t\t\t\n      PUSH [tag] 332\t\t\t\n      PUSH [tag] 235\t\t\t\n      JUMP \t\t\t\n    tag 332\t\t\t\n      JUMPDEST \t\t\t\n      PUSH [tag] 334\t\t\t\n      DUP3 \t\t\t\n      PUSH 9\t\t\t\n      PUSH 0\t\t\t\n      DUP7 \t\t\t\n      PUSH FFFFFFFFFFFFFFFFFFFFFFFFFFFFFFFFFFFFFFFF\t\t\t\n      AND \t\t\t\n      PUSH FFFFFFFFFFFFFFFFFFFFFFFFFFFFFFFFFFFFFFFF\t\t\t\n      AND \t\t\t\n      DUP2 \t\t\t\n      MSTORE \t\t\t\n      PUSH 20\t\t\t\n      ADD \t\t\t\n      SWAP1 \t\t\t\n      DUP2 \t\t\t\n      MSTORE \t\t\t\n      PUSH 20\t\t\t\n      ADD \t\t\t\n      PUSH 0\t\t\t\n      KECCAK256 \t\t\t\n      PUSH [tag] 335\t\t\t\n      SWAP1 \t\t\t\n      SWAP2 \t\t\t\n      SWAP1 \t\t\t\n      PUSH FFFFFFFF\t\t\t\n      AND \t\t\t\n      JUMP \t\t\t\n    tag 334\t\t\t\n      JUMPDEST \t\t\t\n      SWAP1 \t\t\t\n      POP \t\t\t\n      SWAP3 \t\t\t\n      SWAP2 \t\t\t\n      POP \t\t\t\n      POP \t\t\t\n      JUMP \t\t\t\n    tag 248\t\t\t\n      JUMPDEST \t\t\t\n      PUSH 0\t\t\t\n      PUSH FFFFFFFFFFFFFFFFFFFFFFFFFFFFFFFFFFFFFFFF\t\t\t\n      AND \t\t\t\n      DUP5 \t\t\t\n      PUSH FFFFFFFFFFFFFFFFFFFFFFFFFFFFFFFFFFFFFFFF\t\t\t\n      AND \t\t\t\n      SUB \t\t\t\n      PUSH [tag] 337\t\t\t\n      JUMPI \t\t\t\n      PUSH 0\t\t\t\n      PUSH 40\t\t\t\n      MLOAD \t\t\t\n      PUSH E602DF0500000000000000000000000000000000000000000000000000000000\t\t\t\n      DUP2 \t\t\t\n      MSTORE \t\t\t\n      PUSH 4\t\t\t\n      ADD \t\t\t\n      PUSH [tag] 338\t\t\t\n      SWAP2 \t\t\t\n      SWAP1 \t\t\t\n      PUSH [tag] 68\t\t\t\n      JUMP \t\t\t\n    tag 338\t\t\t\n      JUMPDEST \t\t\t\n      PUSH 40\t\t\t\n      MLOAD \t\t\t\n      DUP1 \t\t\t\n      SWAP2 \t\t\t\n      SUB \t\t\t\n      SWAP1 \t\t\t\n      REVERT \t\t\t\n    tag 337\t\t\t\n      JUMPDEST \t\t\t\n      PUSH 0\t\t\t\n      PUSH FFFFFFFFFFFFFFFFFFFFFFFFFFFFFFFFFFFFFFFF\t\t\t\n      AND \t\t\t\n      DUP4 \t\t\t\n      PUSH FFFFFFFFFFFFFFFFFFFFFFFFFFFFFFFFFFFFFFFF\t\t\t\n      AND \t\t\t\n      SUB \t\t\t\n      PUSH [tag] 339\t\t\t\n      JUMPI \t\t\t\n      PUSH 0\t\t\t\n      PUSH 40\t\t\t\n      MLOAD \t\t\t\n      PUSH 94280D6200000000000000000000000000000000000000000000000000000000\t\t\t\n      DUP2 \t\t\t\n      MSTORE \t\t\t\n      PUSH 4\t\t\t\n      ADD \t\t\t\n      PUSH [tag] 340\t\t\t\n      SWAP2 \t\t\t\n      SWAP1 \t\t\t\n      PUSH [tag] 68\t\t\t\n      JUMP \t\t\t\n    tag 340\t\t\t\n      JUMPDEST \t\t\t\n      PUSH 40\t\t\t\n      MLOAD \t\t\t\n      DUP1 \t\t\t\n      SWAP2 \t\t\t\n      SUB \t\t\t\n      SWAP1 \t\t\t\n      REVERT \t\t\t\n    tag 339\t\t\t\n      JUMPDEST \t\t\t\n      DUP2 \t\t\t\n      PUSH 1\t\t\t\n      PUSH 0\t\t\t\n      DUP7 \t\t\t\n      PUSH FFFFFFFFFFFFFFFFFFFFFFFFFFFFFFFFFFFFFFFF\t\t\t\n      AND \t\t\t\n      PUSH FFFFFFFFFFFFFFFFFFFFFFFFFFFFFFFFFFFFFFFF\t\t\t\n      AND \t\t\t\n      DUP2 \t\t\t\n      MSTORE \t\t\t\n      PUSH 20\t\t\t\n      ADD \t\t\t\n      SWAP1 \t\t\t\n      DUP2 \t\t\t\n      MSTORE \t\t\t\n      PUSH 20\t\t\t\n      ADD \t\t\t\n      PUSH 0\t\t\t\n      KECCAK256 \t\t\t\n      PUSH 0\t\t\t\n      DUP6 \t\t\t\n      PUSH FFFFFFFFFFFFFFFFFFFFFFFFFFFFFFFFFFFFFFFF\t\t\t\n      AND \t\t\t\n      PUSH FFFFFFFFFFFFFFFFFFFFFFFFFFFFFFFFFFFFFFFF\t\t\t\n      AND \t\t\t\n      DUP2 \t\t\t\n      MSTORE \t\t\t\n      PUSH 20\t\t\t\n      ADD \t\t\t\n      SWAP1 \t\t\t\n      DUP2 \t\t\t\n      MSTORE \t\t\t\n      PUSH 20\t\t\t\n      ADD \t\t\t\n      PUSH 0\t\t\t\n      KECCAK256 \t\t\t\n      DUP2 \t\t\t\n      SWAP1 \t\t\t\n      SSTORE \t\t\t\n      POP \t\t\t\n      DUP1 \t\t\t\n      ISZERO \t\t\t\n      PUSH [tag] 341\t\t\t\n      JUMPI \t\t\t\n      DUP3 \t\t\t\n      PUSH FFFFFFFFFFFFFFFFFFFFFFFFFFFFFFFFFFFFFFFF\t\t\t\n      AND \t\t\t\n      DUP5 \t\t\t\n      PUSH FFFFFFFFFFFFFFFFFFFFFFFFFFFFFFFFFFFFFFFF\t\t\t\n      AND \t\t\t\n      PUSH 8C5BE1E5EBEC7D5BD14F71427D1E84F3DD0314C0F7B2291E5B200AC8C7C3B925\t\t\t\n      DUP5 \t\t\t\n      PUSH 40\t\t\t\n      MLOAD \t\t\t\n      PUSH [tag] 342\t\t\t\n      SWAP2 \t\t\t\n      SWAP1 \t\t\t\n      PUSH [tag] 42\t\t\t\n      JUMP \t\t\t\n    tag 342\t\t\t\n      JUMPDEST \t\t\t\n      PUSH 40\t\t\t\n      MLOAD \t\t\t\n      DUP1 \t\t\t\n      SWAP2 \t\t\t\n      SUB \t\t\t\n      SWAP1 \t\t\t\n      LOG3 \t\t\t\n    tag 341\t\t\t\n      JUMPDEST \t\t\t\n      POP \t\t\t\n      POP \t\t\t\n      POP \t\t\t\n      POP \t\t\t\n      JUMP \t\t\t\n    tag 262\t\t\tfunction _update(address from,...\n      JUMPDEST \t\t\tfunction _update(address from,...\n      PUSH [tag] 344\t\t\tsuper._update(from, to, value)\n      DUP4 \t\t\tfrom\n      DUP4 \t\t\tto\n      DUP4 \t\t\tvalue\n      PUSH [tag] 345\t\t\tsuper._update\n      JUMP \t\t\tsuper._update(from, to, value)\n    tag 344\t\t\tsuper._update(from, to, value)\n      JUMPDEST \t\t\tsuper._update(from, to, value)\n      POP \t\t\tfunction _update(address from,...\n      POP \t\t\tfunction _update(address from,...\n      POP \t\t\tfunction _update(address from,...\n      JUMP \t\t\tfunction _update(address from,...\n    tag 268\t\t\t\n      JUMPDEST \t\t\t\n      PUSH 0\t\t\t\n      PUSH 8B73C3C69BB8FE3D512ECC4CF759CC79239F7B179B0FFACAA9A75D522B39400F\t\t\t\n      PUSHIMMUTABLE 2813\t\t\t\n      PUSHIMMUTABLE 2815\t\t\t\n      CHAINID \t\t\t\n      ADDRESS \t\t\t\n      PUSH 40\t\t\t\n      MLOAD \t\t\t\n      PUSH 20\t\t\t\n      ADD \t\t\t\n      PUSH [tag] 347\t\t\t\n      SWAP6 \t\t\t\n      SWAP5 \t\t\t\n      SWAP4 \t\t\t\n      SWAP3 \t\t\t\n      SWAP2 \t\t\t\n      SWAP1 \t\t\t\n      PUSH [tag] 348\t\t\t\n      JUMP \t\t\t\n    tag 347\t\t\t\n      JUMPDEST \t\t\t\n      PUSH 40\t\t\t\n      MLOAD \t\t\t\n      PUSH 20\t\t\t\n      DUP2 \t\t\t\n      DUP4 \t\t\t\n      SUB \t\t\t\n      SUB \t\t\t\n      DUP2 \t\t\t\n      MSTORE \t\t\t\n      SWAP1 \t\t\t\n      PUSH 40\t\t\t\n      MSTORE \t\t\t\n      DUP1 \t\t\t\n      MLOAD \t\t\t\n      SWAP1 \t\t\t\n      PUSH 20\t\t\t\n      ADD \t\t\t\n      KECCAK256 \t\t\t\n      SWAP1 \t\t\t\n      POP \t\t\t\n      SWAP1 \t\t\t\n      JUMP \t\t\t\n    tag 276\t\t\t\n      JUMPDEST \t\t\t\n      PUSH 0\t\t\t\n      DUP1 \t\t\t\n      DUP3 \t\t\t\n      SUB \t\t\t\n      PUSH [tag] 350\t\t\t\n      JUMPI \t\t\t\n      PUSH 0\t\t\t\n      SWAP1 \t\t\t\n      POP \t\t\t\n      PUSH [tag] 349\t\t\t\n      JUMP \t\t\t\n    tag 350\t\t\t\n      JUMPDEST \t\t\t\n      PUSH 0\t\t\t\n      PUSH 1\t\t\t\n      PUSH [tag] 351\t\t\t\n      DUP5 \t\t\t\n      PUSH [tag] 352\t\t\t\n      JUMP \t\t\t\n    tag 351\t\t\t\n      JUMPDEST \t\t\t\n      SWAP1 \t\t\t\n      SHR \t\t\t\n      PUSH 1\t\t\t\n      SWAP1 \t\t\t\n      SHL \t\t\t\n      SWAP1 \t\t\t\n      POP \t\t\t\n      PUSH 1\t\t\t\n      DUP2 \t\t\t\n      DUP5 \t\t\t\n      DUP2 \t\t\t\n      PUSH [tag] 353\t\t\t\n      JUMPI \t\t\t\n      PUSH [tag] 354\t\t\t\n      PUSH [tag] 355\t\t\t\n      JUMP \t\t\t\n    tag 354\t\t\t\n      JUMPDEST \t\t\t\n    tag 353\t\t\t\n      JUMPDEST \t\t\t\n      DIV \t\t\t\n      DUP3 \t\t\t\n      ADD \t\t\t\n      SWAP1 \t\t\t\n      SHR \t\t\t\n      SWAP1 \t\t\t\n      POP \t\t\t\n      PUSH 1\t\t\t\n      DUP2 \t\t\t\n      DUP5 \t\t\t\n      DUP2 \t\t\t\n      PUSH [tag] 356\t\t\t\n      JUMPI \t\t\t\n      PUSH [tag] 357\t\t\t\n      PUSH [tag] 355\t\t\t\n      JUMP \t\t\t\n    tag 357\t\t\t\n      JUMPDEST \t\t\t\n    tag 356\t\t\t\n      JUMPDEST \t\t\t\n      DIV \t\t\t\n      DUP3 \t\t\t\n      ADD \t\t\t\n      SWAP1 \t\t\t\n      SHR \t\t\t\n      SWAP1 \t\t\t\n      POP \t\t\t\n      PUSH 1\t\t\t\n      DUP2 \t\t\t\n      DUP5 \t\t\t\n      DUP2 \t\t\t\n      PUSH [tag] 358\t\t\t\n      JUMPI \t\t\t\n      PUSH [tag] 359\t\t\t\n      PUSH [tag] 355\t\t\t\n      JUMP \t\t\t\n    tag 359\t\t\t\n      JUMPDEST \t\t\t\n    tag 358\t\t\t\n      JUMPDEST \t\t\t\n      DIV \t\t\t\n      DUP3 \t\t\t\n      ADD \t\t\t\n      SWAP1 \t\t\t\n      SHR \t\t\t\n      SWAP1 \t\t\t\n      POP \t\t\t\n      PUSH 1\t\t\t\n      DUP2 \t\t\t\n      DUP5 \t\t\t\n      DUP2 \t\t\t\n      PUSH [tag] 360\t\t\t\n      JUMPI \t\t\t\n      PUSH [tag] 361\t\t\t\n      PUSH [tag] 355\t\t\t\n      JUMP \t\t\t\n    tag 361\t\t\t\n      JUMPDEST \t\t\t\n    tag 360\t\t\t\n      JUMPDEST \t\t\t\n      DIV \t\t\t\n      DUP3 \t\t\t\n      ADD \t\t\t\n      SWAP1 \t\t\t\n      SHR \t\t\t\n      SWAP1 \t\t\t\n      POP \t\t\t\n      PUSH 1\t\t\t\n      DUP2 \t\t\t\n      DUP5 \t\t\t\n      DUP2 \t\t\t\n      PUSH [tag] 362\t\t\t\n      JUMPI \t\t\t\n      PUSH [tag] 363\t\t\t\n      PUSH [tag] 355\t\t\t\n      JUMP \t\t\t\n    tag 363\t\t\t\n      JUMPDEST \t\t\t\n    tag 362\t\t\t\n      JUMPDEST \t\t\t\n      DIV \t\t\t\n      DUP3 \t\t\t\n      ADD \t\t\t\n      SWAP1 \t\t\t\n      SHR \t\t\t\n      SWAP1 \t\t\t\n      POP \t\t\t\n      PUSH 1\t\t\t\n      DUP2 \t\t\t\n      DUP5 \t\t\t\n      DUP2 \t\t\t\n      PUSH [tag] 364\t\t\t\n      JUMPI \t\t\t\n      PUSH [tag] 365\t\t\t\n      PUSH [tag] 355\t\t\t\n      JUMP \t\t\t\n    tag 365\t\t\t\n      JUMPDEST \t\t\t\n    tag 364\t\t\t\n      JUMPDEST \t\t\t\n      DIV \t\t\t\n      DUP3 \t\t\t\n      ADD \t\t\t\n      SWAP1 \t\t\t\n      SHR \t\t\t\n      SWAP1 \t\t\t\n      POP \t\t\t\n      PUSH 1\t\t\t\n      DUP2 \t\t\t\n      DUP5 \t\t\t\n      DUP2 \t\t\t\n      PUSH [tag] 366\t\t\t\n      JUMPI \t\t\t\n      PUSH [tag] 367\t\t\t\n      PUSH [tag] 355\t\t\t\n      JUMP \t\t\t\n    tag 367\t\t\t\n      JUMPDEST \t\t\t\n    tag 366\t\t\t\n      JUMPDEST \t\t\t\n      DIV \t\t\t\n      DUP3 \t\t\t\n      ADD \t\t\t\n      SWAP1 \t\t\t\n      SHR \t\t\t\n      SWAP1 \t\t\t\n      POP \t\t\t\n      PUSH [tag] 368\t\t\t\n      DUP2 \t\t\t\n      DUP3 \t\t\t\n      DUP6 \t\t\t\n      DUP2 \t\t\t\n      PUSH [tag] 369\t\t\t\n      JUMPI \t\t\t\n      PUSH [tag] 370\t\t\t\n      PUSH [tag] 355\t\t\t\n      JUMP \t\t\t\n    tag 370\t\t\t\n      JUMPDEST \t\t\t\n    tag 369\t\t\t\n      JUMPDEST \t\t\t\n      DIV \t\t\t\n      PUSH [tag] 371\t\t\t\n      JUMP \t\t\t\n    tag 368\t\t\t\n      JUMPDEST \t\t\t\n      SWAP2 \t\t\t\n      POP \t\t\t\n      POP \t\t\t\n    tag 349\t\t\t\n      JUMPDEST \t\t\t\n      SWAP2 \t\t\t\n      SWAP1 \t\t\t\n      POP \t\t\t\n      JUMP \t\t\t\n    tag 280\t\t\t\n      JUMPDEST \t\t\t\n      PUSH 0\t\t\t\n      DUP3 \t\t\t\n      PUSH 0\t\t\t\n      MSTORE \t\t\t\n      DUP2 \t\t\t\n      PUSH 20\t\t\t\n      PUSH 0\t\t\t\n      KECCAK256 \t\t\t\n      ADD \t\t\t\n      SWAP1 \t\t\t\n      POP \t\t\t\n      SWAP3 \t\t\t\n      SWAP2 \t\t\t\n      POP \t\t\t\n      POP \t\t\t\n      JUMP \t\t\t\n    tag 286\t\t\t\n      JUMPDEST \t\t\t\n      PUSH 0\t\t\t\n    tag 374\t\t\t\n      JUMPDEST \t\t\t\n      DUP2 \t\t\t\n      DUP4 \t\t\t\n      LT \t\t\t\n      ISZERO \t\t\t\n      PUSH [tag] 375\t\t\t\n      JUMPI \t\t\t\n      PUSH 0\t\t\t\n      PUSH [tag] 376\t\t\t\n      DUP5 \t\t\t\n      DUP5 \t\t\t\n      PUSH [tag] 377\t\t\t\n      JUMP \t\t\t\n    tag 376\t\t\t\n      JUMPDEST \t\t\t\n      SWAP1 \t\t\t\n      POP \t\t\t\n      DUP5 \t\t\t\n      PUSH FFFFFFFFFFFF\t\t\t\n      AND \t\t\t\n      PUSH [tag] 378\t\t\t\n      DUP8 \t\t\t\n      DUP4 \t\t\t\n      PUSH [tag] 280\t\t\t\n      JUMP \t\t\t\n    tag 378\t\t\t\n      JUMPDEST \t\t\t\n      PUSH 0\t\t\t\n      ADD \t\t\t\n      PUSH 0\t\t\t\n      SWAP1 \t\t\t\n      SLOAD \t\t\t\n      SWAP1 \t\t\t\n      PUSH 100\t\t\t\n      EXP \t\t\t\n      SWAP1 \t\t\t\n      DIV \t\t\t\n      PUSH FFFFFFFFFFFF\t\t\t\n      AND \t\t\t\n      PUSH FFFFFFFFFFFF\t\t\t\n      AND \t\t\t\n      GT \t\t\t\n      ISZERO \t\t\t\n      PUSH [tag] 379\t\t\t\n      JUMPI \t\t\t\n      DUP1 \t\t\t\n      SWAP3 \t\t\t\n      POP \t\t\t\n      PUSH [tag] 380\t\t\t\n      JUMP \t\t\t\n    tag 379\t\t\t\n      JUMPDEST \t\t\t\n      PUSH 1\t\t\t\n      DUP2 \t\t\t\n      PUSH [tag] 381\t\t\t\n      SWAP2 \t\t\t\n      SWAP1 \t\t\t\n      PUSH [tag] 284\t\t\t\n      JUMP \t\t\t\n    tag 381\t\t\t\n      JUMPDEST \t\t\t\n      SWAP4 \t\t\t\n      POP \t\t\t\n    tag 380\t\t\t\n      JUMPDEST \t\t\t\n      POP \t\t\t\n      PUSH [tag] 374\t\t\t\n      JUMP \t\t\t\n    tag 375\t\t\t\n      JUMPDEST \t\t\t\n      DUP2 \t\t\t\n      SWAP1 \t\t\t\n      POP \t\t\t\n      SWAP5 \t\t\t\n      SWAP4 \t\t\t\n      POP \t\t\t\n      POP \t\t\t\n      POP \t\t\t\n      POP \t\t\t\n      JUMP \t\t\t\n    tag 297\t\t\t\n      JUMPDEST \t\t\t\n      PUSH 0\t\t\t\n      PUSH [tag] 383\t\t\t\n      DUP3 \t\t\t\n      PUSH [tag] 79\t\t\t\n      JUMP \t\t\t\n    tag 383\t\t\t\n      JUMPDEST \t\t\t\n      SWAP1 \t\t\t\n      POP \t\t\t\n      SWAP2 \t\t\t\n      SWAP1 \t\t\t\n      POP \t\t\t\n      JUMP \t\t\t\n    tag 298\t\t\t\n      JUMPDEST \t\t\t\n      DUP2 \t\t\t\n      PUSH FFFFFFFFFFFFFFFFFFFFFFFFFFFFFFFFFFFFFFFF\t\t\t\n      AND \t\t\t\n      DUP4 \t\t\t\n      PUSH FFFFFFFFFFFFFFFFFFFFFFFFFFFFFFFFFFFFFFFF\t\t\t\n      AND \t\t\t\n      EQ \t\t\t\n      ISZERO \t\t\t\n      DUP1 \t\t\t\n      ISZERO \t\t\t\n      PUSH [tag] 385\t\t\t\n      JUMPI \t\t\t\n      POP \t\t\t\n      PUSH 0\t\t\t\n      DUP2 \t\t\t\n      GT \t\t\t\n    tag 385\t\t\t\n      JUMPDEST \t\t\t\n      ISZERO \t\t\t\n      PUSH [tag] 386\t\t\t\n      JUMPI \t\t\t\n      PUSH 0\t\t\t\n      PUSH FFFFFFFFFFFFFFFFFFFFFFFFFFFFFFFFFFFFFFFF\t\t\t\n      AND \t\t\t\n      DUP4 \t\t\t\n      PUSH FFFFFFFFFFFFFFFFFFFFFFFFFFFFFFFFFFFFFFFF\t\t\t\n      AND \t\t\t\n      EQ \t\t\t\n      PUSH [tag] 387\t\t\t\n      JUMPI \t\t\t\n      PUSH 0\t\t\t\n      DUP1 \t\t\t\n      PUSH [tag] 388\t\t\t\n      PUSH 9\t\t\t\n      PUSH 0\t\t\t\n      DUP8 \t\t\t\n      PUSH FFFFFFFFFFFFFFFFFFFFFFFFFFFFFFFFFFFFFFFF\t\t\t\n      AND \t\t\t\n      PUSH FFFFFFFFFFFFFFFFFFFFFFFFFFFFFFFFFFFFFFFF\t\t\t\n      AND \t\t\t\n      DUP2 \t\t\t\n      MSTORE \t\t\t\n      PUSH 20\t\t\t\n      ADD \t\t\t\n      SWAP1 \t\t\t\n      DUP2 \t\t\t\n      MSTORE \t\t\t\n      PUSH 20\t\t\t\n      ADD \t\t\t\n      PUSH 0\t\t\t\n      KECCAK256 \t\t\t\n      PUSH [tag] 129\t\t\t\n      PUSH [tag] 389\t\t\t\n      DUP7 \t\t\t\n      PUSH [tag] 390\t\t\t\n      JUMP \t\t\t\n    tag 389\t\t\t\n      JUMPDEST \t\t\t\n      PUSH [tag] 391\t\t\t\n      JUMP \t\t\t\n    tag 388\t\t\t\n      JUMPDEST \t\t\t\n      PUSH FFFFFFFFFFFFFFFFFFFFFFFFFFFFFFFFFFFFFFFFFFFFFFFFFFFF\t\t\t\n      AND \t\t\t\n      SWAP2 \t\t\t\n      POP \t\t\t\n      PUSH FFFFFFFFFFFFFFFFFFFFFFFFFFFFFFFFFFFFFFFFFFFFFFFFFFFF\t\t\t\n      AND \t\t\t\n      SWAP2 \t\t\t\n      POP \t\t\t\n      DUP5 \t\t\t\n      PUSH FFFFFFFFFFFFFFFFFFFFFFFFFFFFFFFFFFFFFFFF\t\t\t\n      AND \t\t\t\n      PUSH DEC2BACDD2F05B59DE34DA9B523DFF8BE42E5E38E818C82FDB0BAE774387A724\t\t\t\n      DUP4 \t\t\t\n      DUP4 \t\t\t\n      PUSH 40\t\t\t\n      MLOAD \t\t\t\n      PUSH [tag] 392\t\t\t\n      SWAP3 \t\t\t\n      SWAP2 \t\t\t\n      SWAP1 \t\t\t\n      PUSH [tag] 393\t\t\t\n      JUMP \t\t\t\n    tag 392\t\t\t\n      JUMPDEST \t\t\t\n      PUSH 40\t\t\t\n      MLOAD \t\t\t\n      DUP1 \t\t\t\n      SWAP2 \t\t\t\n      SUB \t\t\t\n      SWAP1 \t\t\t\n      LOG2 \t\t\t\n      POP \t\t\t\n      POP \t\t\t\n    tag 387\t\t\t\n      JUMPDEST \t\t\t\n      PUSH 0\t\t\t\n      PUSH FFFFFFFFFFFFFFFFFFFFFFFFFFFFFFFFFFFFFFFF\t\t\t\n      AND \t\t\t\n      DUP3 \t\t\t\n      PUSH FFFFFFFFFFFFFFFFFFFFFFFFFFFFFFFFFFFFFFFF\t\t\t\n      AND \t\t\t\n      EQ \t\t\t\n      PUSH [tag] 394\t\t\t\n      JUMPI \t\t\t\n      PUSH 0\t\t\t\n      DUP1 \t\t\t\n      PUSH [tag] 395\t\t\t\n      PUSH 9\t\t\t\n      PUSH 0\t\t\t\n      DUP7 \t\t\t\n      PUSH FFFFFFFFFFFFFFFFFFFFFFFFFFFFFFFFFFFFFFFF\t\t\t\n      AND \t\t\t\n      PUSH FFFFFFFFFFFFFFFFFFFFFFFFFFFFFFFFFFFFFFFF\t\t\t\n      AND \t\t\t\n      DUP2 \t\t\t\n      MSTORE \t\t\t\n      PUSH 20\t\t\t\n      ADD \t\t\t\n      SWAP1 \t\t\t\n      DUP2 \t\t\t\n      MSTORE \t\t\t\n      PUSH 20\t\t\t\n      ADD \t\t\t\n      PUSH 0\t\t\t\n      KECCAK256 \t\t\t\n      PUSH [tag] 128\t\t\t\n      PUSH [tag] 396\t\t\t\n      DUP7 \t\t\t\n      PUSH [tag] 390\t\t\t\n      JUMP \t\t\t\n    tag 396\t\t\t\n      JUMPDEST \t\t\t\n      PUSH [tag] 391\t\t\t\n      JUMP \t\t\t\n    tag 395\t\t\t\n      JUMPDEST \t\t\t\n      PUSH FFFFFFFFFFFFFFFFFFFFFFFFFFFFFFFFFFFFFFFFFFFFFFFFFFFF\t\t\t\n      AND \t\t\t\n      SWAP2 \t\t\t\n      POP \t\t\t\n      PUSH FFFFFFFFFFFFFFFFFFFFFFFFFFFFFFFFFFFFFFFFFFFFFFFFFFFF\t\t\t\n      AND \t\t\t\n      SWAP2 \t\t\t\n      POP \t\t\t\n      DUP4 \t\t\t\n      PUSH FFFFFFFFFFFFFFFFFFFFFFFFFFFFFFFFFFFFFFFF\t\t\t\n      AND \t\t\t\n      PUSH DEC2BACDD2F05B59DE34DA9B523DFF8BE42E5E38E818C82FDB0BAE774387A724\t\t\t\n      DUP4 \t\t\t\n      DUP4 \t\t\t\n      PUSH 40\t\t\t\n      MLOAD \t\t\t\n      PUSH [tag] 397\t\t\t\n      SWAP3 \t\t\t\n      SWAP2 \t\t\t\n      SWAP1 \t\t\t\n      PUSH [tag] 393\t\t\t\n      JUMP \t\t\t\n    tag 397\t\t\t\n      JUMPDEST \t\t\t\n      PUSH 40\t\t\t\n      MLOAD \t\t\t\n      DUP1 \t\t\t\n      SWAP2 \t\t\t\n      SUB \t\t\t\n      SWAP1 \t\t\t\n      LOG2 \t\t\t\n      POP \t\t\t\n      POP \t\t\t\n    tag 394\t\t\t\n      JUMPDEST \t\t\t\n    tag 386\t\t\t\n      JUMPDEST \t\t\t\n      POP \t\t\t\n      POP \t\t\t\n      POP \t\t\t\n      JUMP \t\t\t\n    tag 302\t\t\t\n      JUMPDEST \t\t\t\n      PUSH 0\t\t\t\n      DUP2 \t\t\t\n      PUSH 0\t\t\t\n      ADD \t\t\t\n      DUP1 \t\t\t\n      SLOAD \t\t\t\n      SWAP1 \t\t\t\n      POP \t\t\t\n      SWAP1 \t\t\t\n      POP \t\t\t\n      SWAP2 \t\t\t\n      SWAP1 \t\t\t\n      POP \t\t\t\n      JUMP \t\t\t\n    tag 303\t\t\t\n      JUMPDEST \t\t\t\n      PUSH 0\t\t\t\n      PUSH FFFFFFFF\t\t\t\n      DUP1 \t\t\t\n      AND \t\t\t\n      DUP3 \t\t\t\n      GT \t\t\t\n      ISZERO \t\t\t\n      PUSH [tag] 400\t\t\t\n      JUMPI \t\t\t\n      PUSH 20\t\t\t\n      DUP3 \t\t\t\n      PUSH 40\t\t\t\n      MLOAD \t\t\t\n      PUSH 6DFCC65000000000000000000000000000000000000000000000000000000000\t\t\t\n      DUP2 \t\t\t\n      MSTORE \t\t\t\n      PUSH 4\t\t\t\n      ADD \t\t\t\n      PUSH [tag] 401\t\t\t\n      SWAP3 \t\t\t\n      SWAP2 \t\t\t\n      SWAP1 \t\t\t\n      PUSH [tag] 402\t\t\t\n      JUMP \t\t\t\n    tag 401\t\t\t\n      JUMPDEST \t\t\t\n      PUSH 40\t\t\t\n      MLOAD \t\t\t\n      DUP1 \t\t\t\n      SWAP2 \t\t\t\n      SUB \t\t\t\n      SWAP1 \t\t\t\n      REVERT \t\t\t\n    tag 400\t\t\t\n      JUMPDEST \t\t\t\n      DUP2 \t\t\t\n      SWAP1 \t\t\t\n      POP \t\t\t\n      SWAP2 \t\t\t\n      SWAP1 \t\t\t\n      POP \t\t\t\n      JUMP \t\t\t\n    tag 306\t\t\trides required by Solidity.\\n\\...\n      JUMPDEST \t\t\trides required by Solidity.\\n\\...\n      PUSH 0\t\t\tom, add\n      PUSH 7\t\t\tlue)\\n  \n      PUSH 0\t\t\tlue)\\n        i\n      DUP4 \t\t\t     \n      PUSH FFFFFFFFFFFFFFFFFFFFFFFFFFFFFFFFFFFFFFFF\t\t\tlue)\\n        i\n      AND \t\t\tlue)\\n        i\n      PUSH FFFFFFFFFFFFFFFFFFFFFFFFFFFFFFFFFFFFFFFF\t\t\tlue)\\n        i\n      AND \t\t\tlue)\\n        i\n      DUP2 \t\t\tlue)\\n        i\n      MSTORE \t\t\tlue)\\n        i\n      PUSH 20\t\t\tlue)\\n        i\n      ADD \t\t\tlue)\\n        i\n      SWAP1 \t\t\tlue)\\n        i\n      DUP2 \t\t\tlue)\\n        i\n      MSTORE \t\t\tlue)\\n        i\n      PUSH 20\t\t\tlue)\\n        i\n      ADD \t\t\tlue)\\n        i\n      PUSH 0\t\t\tlue)\\n        i\n      KECCAK256 \t\t\tlue)\\n        i\n      SLOAD \t\t\tlue)\\n        i\n      SWAP1 \t\t\tt256 value)\\n        i\n      POP \t\t\tt256 value)\\n        i\n      SWAP2 \t\t\trides required by Solidity.\\n\\...\n      SWAP1 \t\t\trides required by Solidity.\\n\\...\n      POP \t\t\trides required by Solidity.\\n\\...\n      JUMP \t\t\trides required by Solidity.\\n\\...\n    tag 309\t\t\t\n      JUMPDEST \t\t\t\n      PUSH 60\t\t\t\n      PUSH FF\t\t\t\n      PUSH 0\t\t\t\n      SHL \t\t\t\n      DUP4 \t\t\t\n      EQ \t\t\t\n      PUSH [tag] 405\t\t\t\n      JUMPI \t\t\t\n      PUSH [tag] 406\t\t\t\n      DUP4 \t\t\t\n      PUSH [tag] 407\t\t\t\n      JUMP \t\t\t\n    tag 406\t\t\t\n      JUMPDEST \t\t\t\n      SWAP1 \t\t\t\n      POP \t\t\t\n      PUSH [tag] 404\t\t\t\n      JUMP \t\t\t\n    tag 405\t\t\t\n      JUMPDEST \t\t\t\n      DUP2 \t\t\t\n      DUP1 \t\t\t\n      SLOAD \t\t\t\n      PUSH [tag] 409\t\t\t\n      SWAP1 \t\t\t\n      PUSH [tag] 132\t\t\t\n      JUMP \t\t\t\n    tag 409\t\t\t\n      JUMPDEST \t\t\t\n      DUP1 \t\t\t\n      PUSH 1F\t\t\t\n      ADD \t\t\t\n      PUSH 20\t\t\t\n      DUP1 \t\t\t\n      SWAP2 \t\t\t\n      DIV \t\t\t\n      MUL \t\t\t\n      PUSH 20\t\t\t\n      ADD \t\t\t\n      PUSH 40\t\t\t\n      MLOAD \t\t\t\n      SWAP1 \t\t\t\n      DUP2 \t\t\t\n      ADD \t\t\t\n      PUSH 40\t\t\t\n      MSTORE \t\t\t\n      DUP1 \t\t\t\n      SWAP3 \t\t\t\n      SWAP2 \t\t\t\n      SWAP1 \t\t\t\n      DUP2 \t\t\t\n      DUP2 \t\t\t\n      MSTORE \t\t\t\n      PUSH 20\t\t\t\n      ADD \t\t\t\n      DUP3 \t\t\t\n      DUP1 \t\t\t\n      SLOAD \t\t\t\n      PUSH [tag] 410\t\t\t\n      SWAP1 \t\t\t\n      PUSH [tag] 132\t\t\t\n      JUMP \t\t\t\n    tag 410\t\t\t\n      JUMPDEST \t\t\t\n      DUP1 \t\t\t\n      ISZERO \t\t\t\n      PUSH [tag] 411\t\t\t\n      JUMPI \t\t\t\n      DUP1 \t\t\t\n      PUSH 1F\t\t\t\n      LT \t\t\t\n      PUSH [tag] 412\t\t\t\n      JUMPI \t\t\t\n      PUSH 100\t\t\t\n      DUP1 \t\t\t\n      DUP4 \t\t\t\n      SLOAD \t\t\t\n      DIV \t\t\t\n      MUL \t\t\t\n      DUP4 \t\t\t\n      MSTORE \t\t\t\n      SWAP2 \t\t\t\n      PUSH 20\t\t\t\n      ADD \t\t\t\n      SWAP2 \t\t\t\n      PUSH [tag] 411\t\t\t\n      JUMP \t\t\t\n    tag 412\t\t\t\n      JUMPDEST \t\t\t\n      DUP3 \t\t\t\n      ADD \t\t\t\n      SWAP2 \t\t\t\n      SWAP1 \t\t\t\n      PUSH 0\t\t\t\n      MSTORE \t\t\t\n      PUSH 20\t\t\t\n      PUSH 0\t\t\t\n      KECCAK256 \t\t\t\n      SWAP1 \t\t\t\n    tag 413\t\t\t\n      JUMPDEST \t\t\t\n      DUP2 \t\t\t\n      SLOAD \t\t\t\n      DUP2 \t\t\t\n      MSTORE \t\t\t\n      SWAP1 \t\t\t\n      PUSH 1\t\t\t\n      ADD \t\t\t\n      SWAP1 \t\t\t\n      PUSH 20\t\t\t\n      ADD \t\t\t\n      DUP1 \t\t\t\n      DUP4 \t\t\t\n      GT \t\t\t\n      PUSH [tag] 413\t\t\t\n      JUMPI \t\t\t\n      DUP3 \t\t\t\n      SWAP1 \t\t\t\n      SUB \t\t\t\n      PUSH 1F\t\t\t\n      AND \t\t\t\n      DUP3 \t\t\t\n      ADD \t\t\t\n      SWAP2 \t\t\t\n    tag 411\t\t\t\n      JUMPDEST \t\t\t\n      POP \t\t\t\n      POP \t\t\t\n      POP \t\t\t\n      POP \t\t\t\n      POP \t\t\t\n      SWAP1 \t\t\t\n      POP \t\t\t\n    tag 404\t\t\t\n      JUMPDEST \t\t\t\n      SWAP3 \t\t\t\n      SWAP2 \t\t\t\n      POP \t\t\t\n      POP \t\t\t\n      JUMP \t\t\t\n    tag 320\t\t\t\n      JUMPDEST \t\t\t\n      PUSH 0\t\t\t\n      PUSH 40\t\t\t\n      MLOAD \t\t\t\n      PUSH 1901000000000000000000000000000000000000000000000000000000000000\t\t\t\n      DUP2 \t\t\t\n      MSTORE \t\t\t\n      DUP4 \t\t\t\n      PUSH 2\t\t\t\n      DUP3 \t\t\t\n      ADD \t\t\t\n      MSTORE \t\t\t\n      DUP3 \t\t\t\n      PUSH 22\t\t\t\n      DUP3 \t\t\t\n      ADD \t\t\t\n      MSTORE \t\t\t\n      PUSH 42\t\t\t\n      DUP2 \t\t\t\n      KECCAK256 \t\t\t\n      SWAP2 \t\t\t\n      POP \t\t\t\n      POP \t\t\t\n      SWAP3 \t\t\t\n      SWAP2 \t\t\t\n      POP \t\t\t\n      POP \t\t\t\n      JUMP \t\t\t\n    tag 323\t\t\t\n      JUMPDEST \t\t\t\n      PUSH 0\t\t\t\n      DUP1 \t\t\t\n      PUSH 0\t\t\t\n      PUSH 7FFFFFFFFFFFFFFFFFFFFFFFFFFFFFFF5D576E7357A4501DDFE92F46681B20A0\t\t\t\n      DUP5 \t\t\t\n      PUSH 0\t\t\t\n      SHR \t\t\t\n      GT \t\t\t\n      ISZERO \t\t\t\n      PUSH [tag] 416\t\t\t\n      JUMPI \t\t\t\n      PUSH 0\t\t\t\n      PUSH 3\t\t\t\n      DUP6 \t\t\t\n      SWAP3 \t\t\t\n      POP \t\t\t\n      SWAP3 \t\t\t\n      POP \t\t\t\n      SWAP3 \t\t\t\n      POP \t\t\t\n      PUSH [tag] 415\t\t\t\n      JUMP \t\t\t\n    tag 416\t\t\t\n      JUMPDEST \t\t\t\n      PUSH 0\t\t\t\n      PUSH 1\t\t\t\n      DUP9 \t\t\t\n      DUP9 \t\t\t\n      DUP9 \t\t\t\n      DUP9 \t\t\t\n      PUSH 40\t\t\t\n      MLOAD \t\t\t\n      PUSH 0\t\t\t\n      DUP2 \t\t\t\n      MSTORE \t\t\t\n      PUSH 20\t\t\t\n      ADD \t\t\t\n      PUSH 40\t\t\t\n      MSTORE \t\t\t\n      PUSH 40\t\t\t\n      MLOAD \t\t\t\n      PUSH [tag] 417\t\t\t\n      SWAP5 \t\t\t\n      SWAP4 \t\t\t\n      SWAP3 \t\t\t\n      SWAP2 \t\t\t\n      SWAP1 \t\t\t\n      PUSH [tag] 418\t\t\t\n      JUMP \t\t\t\n    tag 417\t\t\t\n      JUMPDEST \t\t\t\n      PUSH 20\t\t\t\n      PUSH 40\t\t\t\n      MLOAD \t\t\t\n      PUSH 20\t\t\t\n      DUP2 \t\t\t\n      SUB \t\t\t\n      SWAP1 \t\t\t\n      DUP1 \t\t\t\n      DUP5 \t\t\t\n      SUB \t\t\t\n      SWAP1 \t\t\t\n      DUP6 \t\t\t\n      GAS \t\t\t\n      STATICCALL \t\t\t\n      ISZERO \t\t\t\n      DUP1 \t\t\t\n      ISZERO \t\t\t\n      PUSH [tag] 420\t\t\t\n      JUMPI \t\t\t\n      RETURNDATASIZE \t\t\t\n      PUSH 0\t\t\t\n      DUP1 \t\t\t\n      RETURNDATACOPY \t\t\t\n      RETURNDATASIZE \t\t\t\n      PUSH 0\t\t\t\n      REVERT \t\t\t\n    tag 420\t\t\t\n      JUMPDEST \t\t\t\n      POP \t\t\t\n      POP \t\t\t\n      POP \t\t\t\n      PUSH 20\t\t\t\n      PUSH 40\t\t\t\n      MLOAD \t\t\t\n      SUB \t\t\t\n      MLOAD \t\t\t\n      SWAP1 \t\t\t\n      POP \t\t\t\n      PUSH 0\t\t\t\n      PUSH FFFFFFFFFFFFFFFFFFFFFFFFFFFFFFFFFFFFFFFF\t\t\t\n      AND \t\t\t\n      DUP2 \t\t\t\n      PUSH FFFFFFFFFFFFFFFFFFFFFFFFFFFFFFFFFFFFFFFF\t\t\t\n      AND \t\t\t\n      SUB \t\t\t\n      PUSH [tag] 421\t\t\t\n      JUMPI \t\t\t\n      PUSH 0\t\t\t\n      PUSH 1\t\t\t\n      PUSH 0\t\t\t\n      DUP1 \t\t\t\n      SHL \t\t\t\n      SWAP4 \t\t\t\n      POP \t\t\t\n      SWAP4 \t\t\t\n      POP \t\t\t\n      SWAP4 \t\t\t\n      POP \t\t\t\n      POP \t\t\t\n      PUSH [tag] 415\t\t\t\n      JUMP \t\t\t\n    tag 421\t\t\t\n      JUMPDEST \t\t\t\n      DUP1 \t\t\t\n      PUSH 0\t\t\t\n      DUP1 \t\t\t\n      PUSH 0\t\t\t\n      SHL \t\t\t\n      SWAP4 \t\t\t\n      POP \t\t\t\n      SWAP4 \t\t\t\n      POP \t\t\t\n      SWAP4 \t\t\t\n      POP \t\t\t\n      POP \t\t\t\n    tag 415\t\t\t\n      JUMPDEST \t\t\t\n      SWAP5 \t\t\t\n      POP \t\t\t\n      SWAP5 \t\t\t\n      POP \t\t\t\n      SWAP5 \t\t\t\n      SWAP2 \t\t\t\n      POP \t\t\t\n      POP \t\t\t\n      JUMP \t\t\t\n    tag 325\t\t\t\n      JUMPDEST \t\t\t\n      PUSH 0\t\t\t\n      PUSH 3\t\t\t\n      DUP2 \t\t\t\n      GT \t\t\t\n      ISZERO \t\t\t\n      PUSH [tag] 423\t\t\t\n      JUMPI \t\t\t\n      PUSH [tag] 424\t\t\t\n      PUSH [tag] 425\t\t\t\n      JUMP \t\t\t\n    tag 424\t\t\t\n      JUMPDEST \t\t\t\n    tag 423\t\t\t\n      JUMPDEST \t\t\t\n      DUP3 \t\t\t\n      PUSH 3\t\t\t\n      DUP2 \t\t\t\n      GT \t\t\t\n      ISZERO \t\t\t\n      PUSH [tag] 426\t\t\t\n      JUMPI \t\t\t\n      PUSH [tag] 427\t\t\t\n      PUSH [tag] 425\t\t\t\n      JUMP \t\t\t\n    tag 427\t\t\t\n      JUMPDEST \t\t\t\n    tag 426\t\t\t\n      JUMPDEST \t\t\t\n      SUB \t\t\t\n      ISZERO \t\t\t\n      PUSH [tag] 422\t\t\t\n      JUMPI \t\t\t\n      PUSH 1\t\t\t\n      PUSH 3\t\t\t\n      DUP2 \t\t\t\n      GT \t\t\t\n      ISZERO \t\t\t\n      PUSH [tag] 430\t\t\t\n      JUMPI \t\t\t\n      PUSH [tag] 431\t\t\t\n      PUSH [tag] 425\t\t\t\n      JUMP \t\t\t\n    tag 431\t\t\t\n      JUMPDEST \t\t\t\n    tag 430\t\t\t\n      JUMPDEST \t\t\t\n      DUP3 \t\t\t\n      PUSH 3\t\t\t\n      DUP2 \t\t\t\n      GT \t\t\t\n      ISZERO \t\t\t\n      PUSH [tag] 432\t\t\t\n      JUMPI \t\t\t\n      PUSH [tag] 433\t\t\t\n      PUSH [tag] 425\t\t\t\n      JUMP \t\t\t\n    tag 433\t\t\t\n      JUMPDEST \t\t\t\n    tag 432\t\t\t\n      JUMPDEST \t\t\t\n      SUB \t\t\t\n      PUSH [tag] 434\t\t\t\n      JUMPI \t\t\t\n      PUSH 40\t\t\t\n      MLOAD \t\t\t\n      PUSH F645EEDF00000000000000000000000000000000000000000000000000000000\t\t\t\n      DUP2 \t\t\t\n      MSTORE \t\t\t\n      PUSH 4\t\t\t\n      ADD \t\t\t\n      PUSH 40\t\t\t\n      MLOAD \t\t\t\n      DUP1 \t\t\t\n      SWAP2 \t\t\t\n      SUB \t\t\t\n      SWAP1 \t\t\t\n      REVERT \t\t\t\n    tag 434\t\t\t\n      JUMPDEST \t\t\t\n      PUSH 2\t\t\t\n      PUSH 3\t\t\t\n      DUP2 \t\t\t\n      GT \t\t\t\n      ISZERO \t\t\t\n      PUSH [tag] 436\t\t\t\n      JUMPI \t\t\t\n      PUSH [tag] 437\t\t\t\n      PUSH [tag] 425\t\t\t\n      JUMP \t\t\t\n    tag 437\t\t\t\n      JUMPDEST \t\t\t\n    tag 436\t\t\t\n      JUMPDEST \t\t\t\n      DUP3 \t\t\t\n      PUSH 3\t\t\t\n      DUP2 \t\t\t\n      GT \t\t\t\n      ISZERO \t\t\t\n      PUSH [tag] 438\t\t\t\n      JUMPI \t\t\t\n      PUSH [tag] 439\t\t\t\n      PUSH [tag] 425\t\t\t\n      JUMP \t\t\t\n    tag 439\t\t\t\n      JUMPDEST \t\t\t\n    tag 438\t\t\t\n      JUMPDEST \t\t\t\n      SUB \t\t\t\n      PUSH [tag] 440\t\t\t\n      JUMPI \t\t\t\n      DUP1 \t\t\t\n      PUSH 0\t\t\t\n      SHR \t\t\t\n      PUSH 40\t\t\t\n      MLOAD \t\t\t\n      PUSH FCE698F700000000000000000000000000000000000000000000000000000000\t\t\t\n      DUP2 \t\t\t\n      MSTORE \t\t\t\n      PUSH 4\t\t\t\n      ADD \t\t\t\n      PUSH [tag] 441\t\t\t\n      SWAP2 \t\t\t\n      SWAP1 \t\t\t\n      PUSH [tag] 42\t\t\t\n      JUMP \t\t\t\n    tag 441\t\t\t\n      JUMPDEST \t\t\t\n      PUSH 40\t\t\t\n      MLOAD \t\t\t\n      DUP1 \t\t\t\n      SWAP2 \t\t\t\n      SUB \t\t\t\n      SWAP1 \t\t\t\n      REVERT \t\t\t\n    tag 440\t\t\t\n      JUMPDEST \t\t\t\n      PUSH 3\t\t\t\n      DUP1 \t\t\t\n      DUP2 \t\t\t\n      GT \t\t\t\n      ISZERO \t\t\t\n      PUSH [tag] 443\t\t\t\n      JUMPI \t\t\t\n      PUSH [tag] 444\t\t\t\n      PUSH [tag] 425\t\t\t\n      JUMP \t\t\t\n    tag 444\t\t\t\n      JUMPDEST \t\t\t\n    tag 443\t\t\t\n      JUMPDEST \t\t\t\n      DUP3 \t\t\t\n      PUSH 3\t\t\t\n      DUP2 \t\t\t\n      GT \t\t\t\n      ISZERO \t\t\t\n      PUSH [tag] 445\t\t\t\n      JUMPI \t\t\t\n      PUSH [tag] 446\t\t\t\n      PUSH [tag] 425\t\t\t\n      JUMP \t\t\t\n    tag 446\t\t\t\n      JUMPDEST \t\t\t\n    tag 445\t\t\t\n      JUMPDEST \t\t\t\n      SUB \t\t\t\n      PUSH [tag] 447\t\t\t\n      JUMPI \t\t\t\n      DUP1 \t\t\t\n      PUSH 40\t\t\t\n      MLOAD \t\t\t\n      PUSH D78BCE0C00000000000000000000000000000000000000000000000000000000\t\t\t\n      DUP2 \t\t\t\n      MSTORE \t\t\t\n      PUSH 4\t\t\t\n      ADD \t\t\t\n      PUSH [tag] 448\t\t\t\n      SWAP2 \t\t\t\n      SWAP1 \t\t\t\n      PUSH [tag] 55\t\t\t\n      JUMP \t\t\t\n    tag 448\t\t\t\n      JUMPDEST \t\t\t\n      PUSH 40\t\t\t\n      MLOAD \t\t\t\n      DUP1 \t\t\t\n      SWAP2 \t\t\t\n      SUB \t\t\t\n      SWAP1 \t\t\t\n      REVERT \t\t\t\n    tag 447\t\t\t\n      JUMPDEST \t\t\t\n    tag 422\t\t\t\n      JUMPDEST \t\t\t\n      POP \t\t\t\n      POP \t\t\t\n      JUMP \t\t\t\n    tag 335\t\t\t\n      JUMPDEST \t\t\t\n      PUSH [tag] 449\t\t\t\n      PUSH [tag] 235\t\t\t\n      JUMP \t\t\t\n    tag 449\t\t\t\n      JUMPDEST \t\t\t\n      DUP3 \t\t\t\n      PUSH 0\t\t\t\n      ADD \t\t\t\n      DUP3 \t\t\t\n      PUSH FFFFFFFF\t\t\t\n      AND \t\t\t\n      DUP2 \t\t\t\n      SLOAD \t\t\t\n      DUP2 \t\t\t\n      LT \t\t\t\n      PUSH [tag] 451\t\t\t\n      JUMPI \t\t\t\n      PUSH [tag] 452\t\t\t\n      PUSH [tag] 453\t\t\t\n      JUMP \t\t\t\n    tag 452\t\t\t\n      JUMPDEST \t\t\t\n    tag 451\t\t\t\n      JUMPDEST \t\t\t\n      SWAP1 \t\t\t\n      PUSH 0\t\t\t\n      MSTORE \t\t\t\n      PUSH 20\t\t\t\n      PUSH 0\t\t\t\n      KECCAK256 \t\t\t\n      ADD \t\t\t\n      PUSH 40\t\t\t\n      MLOAD \t\t\t\n      DUP1 \t\t\t\n      PUSH 40\t\t\t\n      ADD \t\t\t\n      PUSH 40\t\t\t\n      MSTORE \t\t\t\n      SWAP1 \t\t\t\n      DUP2 \t\t\t\n      PUSH 0\t\t\t\n      DUP3 \t\t\t\n      ADD \t\t\t\n      PUSH 0\t\t\t\n      SWAP1 \t\t\t\n      SLOAD \t\t\t\n      SWAP1 \t\t\t\n      PUSH 100\t\t\t\n      EXP \t\t\t\n      SWAP1 \t\t\t\n      DIV \t\t\t\n      PUSH FFFFFFFFFFFF\t\t\t\n      AND \t\t\t\n      PUSH FFFFFFFFFFFF\t\t\t\n      AND \t\t\t\n      PUSH FFFFFFFFFFFF\t\t\t\n      AND \t\t\t\n      DUP2 \t\t\t\n      MSTORE \t\t\t\n      PUSH 20\t\t\t\n      ADD \t\t\t\n      PUSH 0\t\t\t\n      DUP3 \t\t\t\n      ADD \t\t\t\n      PUSH 6\t\t\t\n      SWAP1 \t\t\t\n      SLOAD \t\t\t\n      SWAP1 \t\t\t\n      PUSH 100\t\t\t\n      EXP \t\t\t\n      SWAP1 \t\t\t\n      DIV \t\t\t\n      PUSH FFFFFFFFFFFFFFFFFFFFFFFFFFFFFFFFFFFFFFFFFFFFFFFFFFFF\t\t\t\n      AND \t\t\t\n      PUSH FFFFFFFFFFFFFFFFFFFFFFFFFFFFFFFFFFFFFFFFFFFFFFFFFFFF\t\t\t\n      AND \t\t\t\n      PUSH FFFFFFFFFFFFFFFFFFFFFFFFFFFFFFFFFFFFFFFFFFFFFFFFFFFF\t\t\t\n      AND \t\t\t\n      DUP2 \t\t\t\n      MSTORE \t\t\t\n      POP \t\t\t\n      POP \t\t\t\n      SWAP1 \t\t\t\n      POP \t\t\t\n      SWAP3 \t\t\t\n      SWAP2 \t\t\t\n      POP \t\t\t\n      POP \t\t\t\n      JUMP \t\t\t\n    tag 345\t\t\t\n      JUMPDEST \t\t\t\n      PUSH [tag] 456\t\t\t\n      DUP4 \t\t\t\n      DUP4 \t\t\t\n      DUP4 \t\t\t\n      PUSH [tag] 457\t\t\t\n      JUMP \t\t\t\n    tag 456\t\t\t\n      JUMPDEST \t\t\t\n      PUSH 0\t\t\t\n      PUSH FFFFFFFFFFFFFFFFFFFFFFFFFFFFFFFFFFFFFFFF\t\t\t\n      AND \t\t\t\n      DUP4 \t\t\t\n      PUSH FFFFFFFFFFFFFFFFFFFFFFFFFFFFFFFFFFFFFFFF\t\t\t\n      AND \t\t\t\n      SUB \t\t\t\n      PUSH [tag] 458\t\t\t\n      JUMPI \t\t\t\n      PUSH 0\t\t\t\n      PUSH [tag] 459\t\t\t\n      PUSH [tag] 40\t\t\t\n      JUMP \t\t\t\n    tag 459\t\t\t\n      JUMPDEST \t\t\t\n      SWAP1 \t\t\t\n      POP \t\t\t\n      PUSH 0\t\t\t\n      PUSH [tag] 460\t\t\t\n      PUSH [tag] 461\t\t\t\n      JUMP \t\t\t\n    tag 460\t\t\t\n      JUMPDEST \t\t\t\n      SWAP1 \t\t\t\n      POP \t\t\t\n      DUP1 \t\t\t\n      DUP3 \t\t\t\n      GT \t\t\t\n      ISZERO \t\t\t\n      PUSH [tag] 462\t\t\t\n      JUMPI \t\t\t\n      DUP2 \t\t\t\n      DUP2 \t\t\t\n      PUSH 40\t\t\t\n      MLOAD \t\t\t\n      PUSH 1CB15D2600000000000000000000000000000000000000000000000000000000\t\t\t\n      DUP2 \t\t\t\n      MSTORE \t\t\t\n      PUSH 4\t\t\t\n      ADD \t\t\t\n      PUSH [tag] 463\t\t\t\n      SWAP3 \t\t\t\n      SWAP2 \t\t\t\n      SWAP1 \t\t\t\n      PUSH [tag] 393\t\t\t\n      JUMP \t\t\t\n    tag 463\t\t\t\n      JUMPDEST \t\t\t\n      PUSH 40\t\t\t\n      MLOAD \t\t\t\n      DUP1 \t\t\t\n      SWAP2 \t\t\t\n      SUB \t\t\t\n      SWAP1 \t\t\t\n      REVERT \t\t\t\n    tag 462\t\t\t\n      JUMPDEST \t\t\t\n      POP \t\t\t\n      POP \t\t\t\n    tag 458\t\t\t\n      JUMPDEST \t\t\t\n      PUSH [tag] 464\t\t\t\n      DUP4 \t\t\t\n      DUP4 \t\t\t\n      DUP4 \t\t\t\n      PUSH [tag] 465\t\t\t\n      JUMP \t\t\t\n    tag 464\t\t\t\n      JUMPDEST \t\t\t\n      POP \t\t\t\n      POP \t\t\t\n      POP \t\t\t\n      JUMP \t\t\t\n    tag 352\t\t\t\n      JUMPDEST \t\t\t\n      PUSH 0\t\t\t\n      DUP1 \t\t\t\n      PUSH 0\t\t\t\n      SWAP1 \t\t\t\n      POP \t\t\t\n      PUSH 0\t\t\t\n      PUSH 80\t\t\t\n      DUP5 \t\t\t\n      SWAP1 \t\t\t\n      SHR \t\t\t\n      GT \t\t\t\n      ISZERO \t\t\t\n      PUSH [tag] 467\t\t\t\n      JUMPI \t\t\t\n      PUSH 80\t\t\t\n      DUP4 \t\t\t\n      SWAP1 \t\t\t\n      SHR \t\t\t\n      SWAP3 \t\t\t\n      POP \t\t\t\n      PUSH 80\t\t\t\n      DUP2 \t\t\t\n      ADD \t\t\t\n      SWAP1 \t\t\t\n      POP \t\t\t\n    tag 467\t\t\t\n      JUMPDEST \t\t\t\n      PUSH 0\t\t\t\n      PUSH 40\t\t\t\n      DUP5 \t\t\t\n      SWAP1 \t\t\t\n      SHR \t\t\t\n      GT \t\t\t\n      ISZERO \t\t\t\n      PUSH [tag] 468\t\t\t\n      JUMPI \t\t\t\n      PUSH 40\t\t\t\n      DUP4 \t\t\t\n      SWAP1 \t\t\t\n      SHR \t\t\t\n      SWAP3 \t\t\t\n      POP \t\t\t\n      PUSH 40\t\t\t\n      DUP2 \t\t\t\n      ADD \t\t\t\n      SWAP1 \t\t\t\n      POP \t\t\t\n    tag 468\t\t\t\n      JUMPDEST \t\t\t\n      PUSH 0\t\t\t\n      PUSH 20\t\t\t\n      DUP5 \t\t\t\n      SWAP1 \t\t\t\n      SHR \t\t\t\n      GT \t\t\t\n      ISZERO \t\t\t\n      PUSH [tag] 469\t\t\t\n      JUMPI \t\t\t\n      PUSH 20\t\t\t\n      DUP4 \t\t\t\n      SWAP1 \t\t\t\n      SHR \t\t\t\n      SWAP3 \t\t\t\n      POP \t\t\t\n      PUSH 20\t\t\t\n      DUP2 \t\t\t\n      ADD \t\t\t\n      SWAP1 \t\t\t\n      POP \t\t\t\n    tag 469\t\t\t\n      JUMPDEST \t\t\t\n      PUSH 0\t\t\t\n      PUSH 10\t\t\t\n      DUP5 \t\t\t\n      SWAP1 \t\t\t\n      SHR \t\t\t\n      GT \t\t\t\n      ISZERO \t\t\t\n      PUSH [tag] 470\t\t\t\n      JUMPI \t\t\t\n      PUSH 10\t\t\t\n      DUP4 \t\t\t\n      SWAP1 \t\t\t\n      SHR \t\t\t\n      SWAP3 \t\t\t\n      POP \t\t\t\n      PUSH 10\t\t\t\n      DUP2 \t\t\t\n      ADD \t\t\t\n      SWAP1 \t\t\t\n      POP \t\t\t\n    tag 470\t\t\t\n      JUMPDEST \t\t\t\n      PUSH 0\t\t\t\n      PUSH 8\t\t\t\n      DUP5 \t\t\t\n      SWAP1 \t\t\t\n      SHR \t\t\t\n      GT \t\t\t\n      ISZERO \t\t\t\n      PUSH [tag] 471\t\t\t\n      JUMPI \t\t\t\n      PUSH 8\t\t\t\n      DUP4 \t\t\t\n      SWAP1 \t\t\t\n      SHR \t\t\t\n      SWAP3 \t\t\t\n      POP \t\t\t\n      PUSH 8\t\t\t\n      DUP2 \t\t\t\n      ADD \t\t\t\n      SWAP1 \t\t\t\n      POP \t\t\t\n    tag 471\t\t\t\n      JUMPDEST \t\t\t\n      PUSH 0\t\t\t\n      PUSH 4\t\t\t\n      DUP5 \t\t\t\n      SWAP1 \t\t\t\n      SHR \t\t\t\n      GT \t\t\t\n      ISZERO \t\t\t\n      PUSH [tag] 472\t\t\t\n      JUMPI \t\t\t\n      PUSH 4\t\t\t\n      DUP4 \t\t\t\n      SWAP1 \t\t\t\n      SHR \t\t\t\n      SWAP3 \t\t\t\n      POP \t\t\t\n      PUSH 4\t\t\t\n      DUP2 \t\t\t\n      ADD \t\t\t\n      SWAP1 \t\t\t\n      POP \t\t\t\n    tag 472\t\t\t\n      JUMPDEST \t\t\t\n      PUSH 0\t\t\t\n      PUSH 2\t\t\t\n      DUP5 \t\t\t\n      SWAP1 \t\t\t\n      SHR \t\t\t\n      GT \t\t\t\n      ISZERO \t\t\t\n      PUSH [tag] 473\t\t\t\n      JUMPI \t\t\t\n      PUSH 2\t\t\t\n      DUP4 \t\t\t\n      SWAP1 \t\t\t\n      SHR \t\t\t\n      SWAP3 \t\t\t\n      POP \t\t\t\n      PUSH 2\t\t\t\n      DUP2 \t\t\t\n      ADD \t\t\t\n      SWAP1 \t\t\t\n      POP \t\t\t\n    tag 473\t\t\t\n      JUMPDEST \t\t\t\n      PUSH 0\t\t\t\n      PUSH 1\t\t\t\n      DUP5 \t\t\t\n      SWAP1 \t\t\t\n      SHR \t\t\t\n      GT \t\t\t\n      ISZERO \t\t\t\n      PUSH [tag] 474\t\t\t\n      JUMPI \t\t\t\n      PUSH 1\t\t\t\n      DUP2 \t\t\t\n      ADD \t\t\t\n      SWAP1 \t\t\t\n      POP \t\t\t\n    tag 474\t\t\t\n      JUMPDEST \t\t\t\n      DUP1 \t\t\t\n      SWAP2 \t\t\t\n      POP \t\t\t\n      POP \t\t\t\n      SWAP2 \t\t\t\n      SWAP1 \t\t\t\n      POP \t\t\t\n      JUMP \t\t\t\n    tag 371\t\t\t\n      JUMPDEST \t\t\t\n      PUSH 0\t\t\t\n      DUP2 \t\t\t\n      DUP4 \t\t\t\n      LT \t\t\t\n      PUSH [tag] 476\t\t\t\n      JUMPI \t\t\t\n      DUP2 \t\t\t\n      PUSH [tag] 477\t\t\t\n      JUMP \t\t\t\n    tag 476\t\t\t\n      JUMPDEST \t\t\t\n      DUP3 \t\t\t\n    tag 477\t\t\t\n      JUMPDEST \t\t\t\n      SWAP1 \t\t\t\n      POP \t\t\t\n      SWAP3 \t\t\t\n      SWAP2 \t\t\t\n      POP \t\t\t\n      POP \t\t\t\n      JUMP \t\t\t\n    tag 377\t\t\t\n      JUMPDEST \t\t\t\n      PUSH 0\t\t\t\n      PUSH 2\t\t\t\n      DUP3 \t\t\t\n      DUP5 \t\t\t\n      XOR \t\t\t\n      PUSH [tag] 479\t\t\t\n      SWAP2 \t\t\t\n      SWAP1 \t\t\t\n      PUSH [tag] 480\t\t\t\n      JUMP \t\t\t\n    tag 479\t\t\t\n      JUMPDEST \t\t\t\n      DUP3 \t\t\t\n      DUP5 \t\t\t\n      AND \t\t\t\n      PUSH [tag] 481\t\t\t\n      SWAP2 \t\t\t\n      SWAP1 \t\t\t\n      PUSH [tag] 284\t\t\t\n      JUMP \t\t\t\n    tag 481\t\t\t\n      JUMPDEST \t\t\t\n      SWAP1 \t\t\t\n      POP \t\t\t\n      SWAP3 \t\t\t\n      SWAP2 \t\t\t\n      POP \t\t\t\n      POP \t\t\t\n      JUMP \t\t\t\n    tag 390\t\t\t\n      JUMPDEST \t\t\t\n      PUSH 0\t\t\t\n      PUSH FFFFFFFFFFFFFFFFFFFFFFFFFFFFFFFFFFFFFFFFFFFFFFFFFFFF\t\t\t\n      DUP1 \t\t\t\n      AND \t\t\t\n      DUP3 \t\t\t\n      GT \t\t\t\n      ISZERO \t\t\t\n      PUSH [tag] 483\t\t\t\n      JUMPI \t\t\t\n      PUSH D0\t\t\t\n      DUP3 \t\t\t\n      PUSH 40\t\t\t\n      MLOAD \t\t\t\n      PUSH 6DFCC65000000000000000000000000000000000000000000000000000000000\t\t\t\n      DUP2 \t\t\t\n      MSTORE \t\t\t\n      PUSH 4\t\t\t\n      ADD \t\t\t\n      PUSH [tag] 484\t\t\t\n      SWAP3 \t\t\t\n      SWAP2 \t\t\t\n      SWAP1 \t\t\t\n      PUSH [tag] 485\t\t\t\n      JUMP \t\t\t\n    tag 484\t\t\t\n      JUMPDEST \t\t\t\n      PUSH 40\t\t\t\n      MLOAD \t\t\t\n      DUP1 \t\t\t\n      SWAP2 \t\t\t\n      SUB \t\t\t\n      SWAP1 \t\t\t\n      REVERT \t\t\t\n    tag 483\t\t\t\n      JUMPDEST \t\t\t\n      DUP2 \t\t\t\n      SWAP1 \t\t\t\n      POP \t\t\t\n      SWAP2 \t\t\t\n      SWAP1 \t\t\t\n      POP \t\t\t\n      JUMP \t\t\t\n    tag 391\t\t\t\n      JUMPDEST \t\t\t\n      PUSH 0\t\t\t\n      DUP1 \t\t\t\n      PUSH [tag] 487\t\t\t\n      PUSH [tag] 488\t\t\t\n      PUSH [tag] 95\t\t\t\n      JUMP \t\t\t\n    tag 488\t\t\t\n      JUMPDEST \t\t\t\n      PUSH [tag] 489\t\t\t\n      PUSH [tag] 490\t\t\t\n      DUP9 \t\t\t\n      PUSH [tag] 204\t\t\t\n      JUMP \t\t\t\n    tag 490\t\t\t\n      JUMPDEST \t\t\t\n      DUP7 \t\t\t\n      DUP9 \t\t\t\n      PUSH FFFFFFFF\t\t\t\n      AND \t\t\t\n      JUMP \t\t\t\n    tag 489\t\t\t\n      JUMPDEST \t\t\t\n      DUP8 \t\t\t\n      PUSH [tag] 491\t\t\t\n      SWAP1 \t\t\t\n      SWAP3 \t\t\t\n      SWAP2 \t\t\t\n      SWAP1 \t\t\t\n      PUSH FFFFFFFF\t\t\t\n      AND \t\t\t\n      JUMP \t\t\t\n    tag 487\t\t\t\n      JUMPDEST \t\t\t\n      SWAP2 \t\t\t\n      POP \t\t\t\n      SWAP2 \t\t\t\n      POP \t\t\t\n      SWAP4 \t\t\t\n      POP \t\t\t\n      SWAP4 \t\t\t\n      SWAP2 \t\t\t\n      POP \t\t\t\n      POP \t\t\t\n      JUMP \t\t\t\n    tag 407\t\t\t\n      JUMPDEST \t\t\t\n      PUSH 60\t\t\t\n      PUSH 0\t\t\t\n      PUSH [tag] 493\t\t\t\n      DUP4 \t\t\t\n      PUSH [tag] 494\t\t\t\n      JUMP \t\t\t\n    tag 493\t\t\t\n      JUMPDEST \t\t\t\n      SWAP1 \t\t\t\n      POP \t\t\t\n      PUSH 0\t\t\t\n      PUSH 20\t\t\t\n      PUSH FFFFFFFFFFFFFFFF\t\t\t\n      DUP2 \t\t\t\n      GT \t\t\t\n      ISZERO \t\t\t\n      PUSH [tag] 495\t\t\t\n      JUMPI \t\t\t\n      PUSH [tag] 496\t\t\t\n      PUSH [tag] 186\t\t\t\n      JUMP \t\t\t\n    tag 496\t\t\t\n      JUMPDEST \t\t\t\n    tag 495\t\t\t\n      JUMPDEST \t\t\t\n      PUSH 40\t\t\t\n      MLOAD \t\t\t\n      SWAP1 \t\t\t\n      DUP1 \t\t\t\n      DUP3 \t\t\t\n      MSTORE \t\t\t\n      DUP1 \t\t\t\n      PUSH 1F\t\t\t\n      ADD \t\t\t\n      PUSH 1F\t\t\t\n      NOT \t\t\t\n      AND \t\t\t\n      PUSH 20\t\t\t\n      ADD \t\t\t\n      DUP3 \t\t\t\n      ADD \t\t\t\n      PUSH 40\t\t\t\n      MSTORE \t\t\t\n      DUP1 \t\t\t\n      ISZERO \t\t\t\n      PUSH [tag] 497\t\t\t\n      JUMPI \t\t\t\n      DUP2 \t\t\t\n      PUSH 20\t\t\t\n      ADD \t\t\t\n      PUSH 1\t\t\t\n      DUP3 \t\t\t\n      MUL \t\t\t\n      DUP1 \t\t\t\n      CALLDATASIZE \t\t\t\n      DUP4 \t\t\t\n      CALLDATACOPY \t\t\t\n      DUP1 \t\t\t\n      DUP3 \t\t\t\n      ADD \t\t\t\n      SWAP2 \t\t\t\n      POP \t\t\t\n      POP \t\t\t\n      SWAP1 \t\t\t\n      POP \t\t\t\n    tag 497\t\t\t\n      JUMPDEST \t\t\t\n      POP \t\t\t\n      SWAP1 \t\t\t\n      POP \t\t\t\n      DUP2 \t\t\t\n      DUP2 \t\t\t\n      MSTORE \t\t\t\n      DUP4 \t\t\t\n      PUSH 20\t\t\t\n      DUP3 \t\t\t\n      ADD \t\t\t\n      MSTORE \t\t\t\n      DUP1 \t\t\t\n      SWAP3 \t\t\t\n      POP \t\t\t\n      POP \t\t\t\n      POP \t\t\t\n      SWAP2 \t\t\t\n      SWAP1 \t\t\t\n      POP \t\t\t\n      JUMP \t\t\t\n    tag 457\t\t\t\n      JUMPDEST \t\t\t\n      PUSH 0\t\t\t\n      PUSH FFFFFFFFFFFFFFFFFFFFFFFFFFFFFFFFFFFFFFFF\t\t\t\n      AND \t\t\t\n      DUP4 \t\t\t\n      PUSH FFFFFFFFFFFFFFFFFFFFFFFFFFFFFFFFFFFFFFFF\t\t\t\n      AND \t\t\t\n      SUB \t\t\t\n      PUSH [tag] 499\t\t\t\n      JUMPI \t\t\t\n      DUP1 \t\t\t\n      PUSH 2\t\t\t\n      PUSH 0\t\t\t\n      DUP3 \t\t\t\n      DUP3 \t\t\t\n      SLOAD \t\t\t\n      PUSH [tag] 500\t\t\t\n      SWAP2 \t\t\t\n      SWAP1 \t\t\t\n      PUSH [tag] 284\t\t\t\n      JUMP \t\t\t\n    tag 500\t\t\t\n      JUMPDEST \t\t\t\n      SWAP3 \t\t\t\n      POP \t\t\t\n      POP \t\t\t\n      DUP2 \t\t\t\n      SWAP1 \t\t\t\n      SSTORE \t\t\t\n      POP \t\t\t\n      PUSH [tag] 501\t\t\t\n      JUMP \t\t\t\n    tag 499\t\t\t\n      JUMPDEST \t\t\t\n      PUSH 0\t\t\t\n      DUP1 \t\t\t\n      PUSH 0\t\t\t\n      DUP6 \t\t\t\n      PUSH FFFFFFFFFFFFFFFFFFFFFFFFFFFFFFFFFFFFFFFF\t\t\t\n      AND \t\t\t\n      PUSH FFFFFFFFFFFFFFFFFFFFFFFFFFFFFFFFFFFFFFFF\t\t\t\n      AND \t\t\t\n      DUP2 \t\t\t\n      MSTORE \t\t\t\n      PUSH 20\t\t\t\n      ADD \t\t\t\n      SWAP1 \t\t\t\n      DUP2 \t\t\t\n      MSTORE \t\t\t\n      PUSH 20\t\t\t\n      ADD \t\t\t\n      PUSH 0\t\t\t\n      KECCAK256 \t\t\t\n      SLOAD \t\t\t\n      SWAP1 \t\t\t\n      POP \t\t\t\n      DUP2 \t\t\t\n      DUP2 \t\t\t\n      LT \t\t\t\n      ISZERO \t\t\t\n      PUSH [tag] 502\t\t\t\n      JUMPI \t\t\t\n      DUP4 \t\t\t\n      DUP2 \t\t\t\n      DUP4 \t\t\t\n      PUSH 40\t\t\t\n      MLOAD \t\t\t\n      PUSH E450D38C00000000000000000000000000000000000000000000000000000000\t\t\t\n      DUP2 \t\t\t\n      MSTORE \t\t\t\n      PUSH 4\t\t\t\n      ADD \t\t\t\n      PUSH [tag] 503\t\t\t\n      SWAP4 \t\t\t\n      SWAP3 \t\t\t\n      SWAP2 \t\t\t\n      SWAP1 \t\t\t\n      PUSH [tag] 254\t\t\t\n      JUMP \t\t\t\n    tag 503\t\t\t\n      JUMPDEST \t\t\t\n      PUSH 40\t\t\t\n      MLOAD \t\t\t\n      DUP1 \t\t\t\n      SWAP2 \t\t\t\n      SUB \t\t\t\n      SWAP1 \t\t\t\n      REVERT \t\t\t\n    tag 502\t\t\t\n      JUMPDEST \t\t\t\n      DUP2 \t\t\t\n      DUP2 \t\t\t\n      SUB \t\t\t\n      PUSH 0\t\t\t\n      DUP1 \t\t\t\n      DUP7 \t\t\t\n      PUSH FFFFFFFFFFFFFFFFFFFFFFFFFFFFFFFFFFFFFFFF\t\t\t\n      AND \t\t\t\n      PUSH FFFFFFFFFFFFFFFFFFFFFFFFFFFFFFFFFFFFFFFF\t\t\t\n      AND \t\t\t\n      DUP2 \t\t\t\n      MSTORE \t\t\t\n      PUSH 20\t\t\t\n      ADD \t\t\t\n      SWAP1 \t\t\t\n      DUP2 \t\t\t\n      MSTORE \t\t\t\n      PUSH 20\t\t\t\n      ADD \t\t\t\n      PUSH 0\t\t\t\n      KECCAK256 \t\t\t\n      DUP2 \t\t\t\n      SWAP1 \t\t\t\n      SSTORE \t\t\t\n      POP \t\t\t\n      POP \t\t\t\n    tag 501\t\t\t\n      JUMPDEST \t\t\t\n      PUSH 0\t\t\t\n      PUSH FFFFFFFFFFFFFFFFFFFFFFFFFFFFFFFFFFFFFFFF\t\t\t\n      AND \t\t\t\n      DUP3 \t\t\t\n      PUSH FFFFFFFFFFFFFFFFFFFFFFFFFFFFFFFFFFFFFFFF\t\t\t\n      AND \t\t\t\n      SUB \t\t\t\n      PUSH [tag] 504\t\t\t\n      JUMPI \t\t\t\n      DUP1 \t\t\t\n      PUSH 2\t\t\t\n      PUSH 0\t\t\t\n      DUP3 \t\t\t\n      DUP3 \t\t\t\n      SLOAD \t\t\t\n      SUB \t\t\t\n      SWAP3 \t\t\t\n      POP \t\t\t\n      POP \t\t\t\n      DUP2 \t\t\t\n      SWAP1 \t\t\t\n      SSTORE \t\t\t\n      POP \t\t\t\n      PUSH [tag] 505\t\t\t\n      JUMP \t\t\t\n    tag 504\t\t\t\n      JUMPDEST \t\t\t\n      DUP1 \t\t\t\n      PUSH 0\t\t\t\n      DUP1 \t\t\t\n      DUP5 \t\t\t\n      PUSH FFFFFFFFFFFFFFFFFFFFFFFFFFFFFFFFFFFFFFFF\t\t\t\n      AND \t\t\t\n      PUSH FFFFFFFFFFFFFFFFFFFFFFFFFFFFFFFFFFFFFFFF\t\t\t\n      AND \t\t\t\n      DUP2 \t\t\t\n      MSTORE \t\t\t\n      PUSH 20\t\t\t\n      ADD \t\t\t\n      SWAP1 \t\t\t\n      DUP2 \t\t\t\n      MSTORE \t\t\t\n      PUSH 20\t\t\t\n      ADD \t\t\t\n      PUSH 0\t\t\t\n      KECCAK256 \t\t\t\n      PUSH 0\t\t\t\n      DUP3 \t\t\t\n      DUP3 \t\t\t\n      SLOAD \t\t\t\n      ADD \t\t\t\n      SWAP3 \t\t\t\n      POP \t\t\t\n      POP \t\t\t\n      DUP2 \t\t\t\n      SWAP1 \t\t\t\n      SSTORE \t\t\t\n      POP \t\t\t\n    tag 505\t\t\t\n      JUMPDEST \t\t\t\n      DUP2 \t\t\t\n      PUSH FFFFFFFFFFFFFFFFFFFFFFFFFFFFFFFFFFFFFFFF\t\t\t\n      AND \t\t\t\n      DUP4 \t\t\t\n      PUSH FFFFFFFFFFFFFFFFFFFFFFFFFFFFFFFFFFFFFFFF\t\t\t\n      AND \t\t\t\n      PUSH DDF252AD1BE2C89B69C2B068FC378DAA952BA7F163C4A11628F55A4DF523B3EF\t\t\t\n      DUP4 \t\t\t\n      PUSH 40\t\t\t\n      MLOAD \t\t\t\n      PUSH [tag] 506\t\t\t\n      SWAP2 \t\t\t\n      SWAP1 \t\t\t\n      PUSH [tag] 42\t\t\t\n      JUMP \t\t\t\n    tag 506\t\t\t\n      JUMPDEST \t\t\t\n      PUSH 40\t\t\t\n      MLOAD \t\t\t\n      DUP1 \t\t\t\n      SWAP2 \t\t\t\n      SUB \t\t\t\n      SWAP1 \t\t\t\n      LOG3 \t\t\t\n      POP \t\t\t\n      POP \t\t\t\n      POP \t\t\t\n      JUMP \t\t\t\n    tag 461\t\t\t\n      JUMPDEST \t\t\t\n      PUSH 0\t\t\t\n      PUSH FFFFFFFFFFFFFFFFFFFFFFFFFFFFFFFFFFFFFFFFFFFFFFFFFFFF\t\t\t\n      DUP1 \t\t\t\n      AND \t\t\t\n      SWAP1 \t\t\t\n      POP \t\t\t\n      SWAP1 \t\t\t\n      JUMP \t\t\t\n    tag 465\t\t\t\n      JUMPDEST \t\t\t\n      PUSH 0\t\t\t\n      PUSH FFFFFFFFFFFFFFFFFFFFFFFFFFFFFFFFFFFFFFFF\t\t\t\n      AND \t\t\t\n      DUP4 \t\t\t\n      PUSH FFFFFFFFFFFFFFFFFFFFFFFFFFFFFFFFFFFFFFFF\t\t\t\n      AND \t\t\t\n      SUB \t\t\t\n      PUSH [tag] 509\t\t\t\n      JUMPI \t\t\t\n      PUSH [tag] 510\t\t\t\n      PUSH A\t\t\t\n      PUSH [tag] 128\t\t\t\n      PUSH [tag] 511\t\t\t\n      DUP5 \t\t\t\n      PUSH [tag] 390\t\t\t\n      JUMP \t\t\t\n    tag 511\t\t\t\n      JUMPDEST \t\t\t\n      PUSH [tag] 391\t\t\t\n      JUMP \t\t\t\n    tag 510\t\t\t\n      JUMPDEST \t\t\t\n      POP \t\t\t\n      POP \t\t\t\n    tag 509\t\t\t\n      JUMPDEST \t\t\t\n      PUSH 0\t\t\t\n      PUSH FFFFFFFFFFFFFFFFFFFFFFFFFFFFFFFFFFFFFFFF\t\t\t\n      AND \t\t\t\n      DUP3 \t\t\t\n      PUSH FFFFFFFFFFFFFFFFFFFFFFFFFFFFFFFFFFFFFFFF\t\t\t\n      AND \t\t\t\n      SUB \t\t\t\n      PUSH [tag] 512\t\t\t\n      JUMPI \t\t\t\n      PUSH [tag] 513\t\t\t\n      PUSH A\t\t\t\n      PUSH [tag] 129\t\t\t\n      PUSH [tag] 514\t\t\t\n      DUP5 \t\t\t\n      PUSH [tag] 390\t\t\t\n      JUMP \t\t\t\n    tag 514\t\t\t\n      JUMPDEST \t\t\t\n      PUSH [tag] 391\t\t\t\n      JUMP \t\t\t\n    tag 513\t\t\t\n      JUMPDEST \t\t\t\n      POP \t\t\t\n      POP \t\t\t\n    tag 512\t\t\t\n      JUMPDEST \t\t\t\n      PUSH [tag] 515\t\t\t\n      PUSH [tag] 516\t\t\t\n      DUP5 \t\t\t\n      PUSH [tag] 66\t\t\t\n      JUMP \t\t\t\n    tag 516\t\t\t\n      JUMPDEST \t\t\t\n      PUSH [tag] 517\t\t\t\n      DUP5 \t\t\t\n      PUSH [tag] 66\t\t\t\n      JUMP \t\t\t\n    tag 517\t\t\t\n      JUMPDEST \t\t\t\n      DUP4 \t\t\t\n      PUSH [tag] 298\t\t\t\n      JUMP \t\t\t\n    tag 515\t\t\t\n      JUMPDEST \t\t\t\n      POP \t\t\t\n      POP \t\t\t\n      POP \t\t\t\n      JUMP \t\t\t\n    tag 491\t\t\t\n      JUMPDEST \t\t\t\n      PUSH 0\t\t\t\n      DUP1 \t\t\t\n      PUSH [tag] 519\t\t\t\n      DUP6 \t\t\t\n      PUSH 0\t\t\t\n      ADD \t\t\t\n      DUP6 \t\t\t\n      DUP6 \t\t\t\n      PUSH [tag] 520\t\t\t\n      JUMP \t\t\t\n    tag 519\t\t\t\n      JUMPDEST \t\t\t\n      SWAP2 \t\t\t\n      POP \t\t\t\n      SWAP2 \t\t\t\n      POP \t\t\t\n      SWAP4 \t\t\t\n      POP \t\t\t\n      SWAP4 \t\t\t\n      SWAP2 \t\t\t\n      POP \t\t\t\n      POP \t\t\t\n      JUMP \t\t\t\n    tag 494\t\t\t\n      JUMPDEST \t\t\t\n      PUSH 0\t\t\t\n      DUP1 \t\t\t\n      PUSH FF\t\t\t\n      DUP4 \t\t\t\n      PUSH 0\t\t\t\n      SHR \t\t\t\n      AND \t\t\t\n      SWAP1 \t\t\t\n      POP \t\t\t\n      PUSH 1F\t\t\t\n      DUP2 \t\t\t\n      GT \t\t\t\n      ISZERO \t\t\t\n      PUSH [tag] 522\t\t\t\n      JUMPI \t\t\t\n      PUSH 40\t\t\t\n      MLOAD \t\t\t\n      PUSH B3512B0C00000000000000000000000000000000000000000000000000000000\t\t\t\n      DUP2 \t\t\t\n      MSTORE \t\t\t\n      PUSH 4\t\t\t\n      ADD \t\t\t\n      PUSH 40\t\t\t\n      MLOAD \t\t\t\n      DUP1 \t\t\t\n      SWAP2 \t\t\t\n      SUB \t\t\t\n      SWAP1 \t\t\t\n      REVERT \t\t\t\n    tag 522\t\t\t\n      JUMPDEST \t\t\t\n      DUP1 \t\t\t\n      SWAP2 \t\t\t\n      POP \t\t\t\n      POP \t\t\t\n      SWAP2 \t\t\t\n      SWAP1 \t\t\t\n      POP \t\t\t\n      JUMP \t\t\t\n    tag 520\t\t\t\n      JUMPDEST \t\t\t\n      PUSH 0\t\t\t\n      DUP1 \t\t\t\n      PUSH 0\t\t\t\n      DUP6 \t\t\t\n      DUP1 \t\t\t\n      SLOAD \t\t\t\n      SWAP1 \t\t\t\n      POP \t\t\t\n      SWAP1 \t\t\t\n      POP \t\t\t\n      PUSH 0\t\t\t\n      DUP2 \t\t\t\n      GT \t\t\t\n      ISZERO \t\t\t\n      PUSH [tag] 524\t\t\t\n      JUMPI \t\t\t\n      PUSH 0\t\t\t\n      PUSH [tag] 525\t\t\t\n      DUP8 \t\t\t\n      PUSH 1\t\t\t\n      DUP5 \t\t\t\n      PUSH [tag] 526\t\t\t\n      SWAP2 \t\t\t\n      SWAP1 \t\t\t\n      PUSH [tag] 278\t\t\t\n      JUMP \t\t\t\n    tag 526\t\t\t\n      JUMPDEST \t\t\t\n      PUSH [tag] 280\t\t\t\n      JUMP \t\t\t\n    tag 525\t\t\t\n      JUMPDEST \t\t\t\n      PUSH 40\t\t\t\n      MLOAD \t\t\t\n      DUP1 \t\t\t\n      PUSH 40\t\t\t\n      ADD \t\t\t\n      PUSH 40\t\t\t\n      MSTORE \t\t\t\n      SWAP1 \t\t\t\n      DUP2 \t\t\t\n      PUSH 0\t\t\t\n      DUP3 \t\t\t\n      ADD \t\t\t\n      PUSH 0\t\t\t\n      SWAP1 \t\t\t\n      SLOAD \t\t\t\n      SWAP1 \t\t\t\n      PUSH 100\t\t\t\n      EXP \t\t\t\n      SWAP1 \t\t\t\n      DIV \t\t\t\n      PUSH FFFFFFFFFFFF\t\t\t\n      AND \t\t\t\n      PUSH FFFFFFFFFFFF\t\t\t\n      AND \t\t\t\n      PUSH FFFFFFFFFFFF\t\t\t\n      AND \t\t\t\n      DUP2 \t\t\t\n      MSTORE \t\t\t\n      PUSH 20\t\t\t\n      ADD \t\t\t\n      PUSH 0\t\t\t\n      DUP3 \t\t\t\n      ADD \t\t\t\n      PUSH 6\t\t\t\n      SWAP1 \t\t\t\n      SLOAD \t\t\t\n      SWAP1 \t\t\t\n      PUSH 100\t\t\t\n      EXP \t\t\t\n      SWAP1 \t\t\t\n      DIV \t\t\t\n      PUSH FFFFFFFFFFFFFFFFFFFFFFFFFFFFFFFFFFFFFFFFFFFFFFFFFFFF\t\t\t\n      AND \t\t\t\n      PUSH FFFFFFFFFFFFFFFFFFFFFFFFFFFFFFFFFFFFFFFFFFFFFFFFFFFF\t\t\t\n      AND \t\t\t\n      PUSH FFFFFFFFFFFFFFFFFFFFFFFFFFFFFFFFFFFFFFFFFFFFFFFFFFFF\t\t\t\n      AND \t\t\t\n      DUP2 \t\t\t\n      MSTORE \t\t\t\n      POP \t\t\t\n      POP \t\t\t\n      SWAP1 \t\t\t\n      POP \t\t\t\n      DUP6 \t\t\t\n      PUSH FFFFFFFFFFFF\t\t\t\n      AND \t\t\t\n      DUP2 \t\t\t\n      PUSH 0\t\t\t\n      ADD \t\t\t\n      MLOAD \t\t\t\n      PUSH FFFFFFFFFFFF\t\t\t\n      AND \t\t\t\n      GT \t\t\t\n      ISZERO \t\t\t\n      PUSH [tag] 527\t\t\t\n      JUMPI \t\t\t\n      PUSH 40\t\t\t\n      MLOAD \t\t\t\n      PUSH 2520601D00000000000000000000000000000000000000000000000000000000\t\t\t\n      DUP2 \t\t\t\n      MSTORE \t\t\t\n      PUSH 4\t\t\t\n      ADD \t\t\t\n      PUSH 40\t\t\t\n      MLOAD \t\t\t\n      DUP1 \t\t\t\n      SWAP2 \t\t\t\n      SUB \t\t\t\n      SWAP1 \t\t\t\n      REVERT \t\t\t\n    tag 527\t\t\t\n      JUMPDEST \t\t\t\n      DUP6 \t\t\t\n      PUSH FFFFFFFFFFFF\t\t\t\n      AND \t\t\t\n      DUP2 \t\t\t\n      PUSH 0\t\t\t\n      ADD \t\t\t\n      MLOAD \t\t\t\n      PUSH FFFFFFFFFFFF\t\t\t\n      AND \t\t\t\n      SUB \t\t\t\n      PUSH [tag] 528\t\t\t\n      JUMPI \t\t\t\n      DUP5 \t\t\t\n      PUSH [tag] 529\t\t\t\n      DUP9 \t\t\t\n      PUSH 1\t\t\t\n      DUP6 \t\t\t\n      PUSH [tag] 530\t\t\t\n      SWAP2 \t\t\t\n      SWAP1 \t\t\t\n      PUSH [tag] 278\t\t\t\n      JUMP \t\t\t\n    tag 530\t\t\t\n      JUMPDEST \t\t\t\n      PUSH [tag] 280\t\t\t\n      JUMP \t\t\t\n    tag 529\t\t\t\n      JUMPDEST \t\t\t\n      PUSH 0\t\t\t\n      ADD \t\t\t\n      PUSH 6\t\t\t\n      PUSH 100\t\t\t\n      EXP \t\t\t\n      DUP2 \t\t\t\n      SLOAD \t\t\t\n      DUP2 \t\t\t\n      PUSH FFFFFFFFFFFFFFFFFFFFFFFFFFFFFFFFFFFFFFFFFFFFFFFFFFFF\t\t\t\n      MUL \t\t\t\n      NOT \t\t\t\n      AND \t\t\t\n      SWAP1 \t\t\t\n      DUP4 \t\t\t\n      PUSH FFFFFFFFFFFFFFFFFFFFFFFFFFFFFFFFFFFFFFFFFFFFFFFFFFFF\t\t\t\n      AND \t\t\t\n      MUL \t\t\t\n      OR \t\t\t\n      SWAP1 \t\t\t\n      SSTORE \t\t\t\n      POP \t\t\t\n      PUSH [tag] 531\t\t\t\n      JUMP \t\t\t\n    tag 528\t\t\t\n      JUMPDEST \t\t\t\n      DUP7 \t\t\t\n      PUSH 40\t\t\t\n      MLOAD \t\t\t\n      DUP1 \t\t\t\n      PUSH 40\t\t\t\n      ADD \t\t\t\n      PUSH 40\t\t\t\n      MSTORE \t\t\t\n      DUP1 \t\t\t\n      DUP9 \t\t\t\n      PUSH FFFFFFFFFFFF\t\t\t\n      AND \t\t\t\n      DUP2 \t\t\t\n      MSTORE \t\t\t\n      PUSH 20\t\t\t\n      ADD \t\t\t\n      DUP8 \t\t\t\n      PUSH FFFFFFFFFFFFFFFFFFFFFFFFFFFFFFFFFFFFFFFFFFFFFFFFFFFF\t\t\t\n      AND \t\t\t\n      DUP2 \t\t\t\n      MSTORE \t\t\t\n      POP \t\t\t\n      SWAP1 \t\t\t\n      DUP1 \t\t\t\n      PUSH 1\t\t\t\n      DUP2 \t\t\t\n      SLOAD \t\t\t\n      ADD \t\t\t\n      DUP1 \t\t\t\n      DUP3 \t\t\t\n      SSTORE \t\t\t\n      DUP1 \t\t\t\n      SWAP2 \t\t\t\n      POP \t\t\t\n      POP \t\t\t\n      PUSH 1\t\t\t\n      SWAP1 \t\t\t\n      SUB \t\t\t\n      SWAP1 \t\t\t\n      PUSH 0\t\t\t\n      MSTORE \t\t\t\n      PUSH 20\t\t\t\n      PUSH 0\t\t\t\n      KECCAK256 \t\t\t\n      ADD \t\t\t\n      PUSH 0\t\t\t\n      SWAP1 \t\t\t\n      SWAP2 \t\t\t\n      SWAP1 \t\t\t\n      SWAP2 \t\t\t\n      SWAP1 \t\t\t\n      SWAP2 \t\t\t\n      POP \t\t\t\n      PUSH 0\t\t\t\n      DUP3 \t\t\t\n      ADD \t\t\t\n      MLOAD \t\t\t\n      DUP2 \t\t\t\n      PUSH 0\t\t\t\n      ADD \t\t\t\n      PUSH 0\t\t\t\n      PUSH 100\t\t\t\n      EXP \t\t\t\n      DUP2 \t\t\t\n      SLOAD \t\t\t\n      DUP2 \t\t\t\n      PUSH FFFFFFFFFFFF\t\t\t\n      MUL \t\t\t\n      NOT \t\t\t\n      AND \t\t\t\n      SWAP1 \t\t\t\n      DUP4 \t\t\t\n      PUSH FFFFFFFFFFFF\t\t\t\n      AND \t\t\t\n      MUL \t\t\t\n      OR \t\t\t\n      SWAP1 \t\t\t\n      SSTORE \t\t\t\n      POP \t\t\t\n      PUSH 20\t\t\t\n      DUP3 \t\t\t\n      ADD \t\t\t\n      MLOAD \t\t\t\n      DUP2 \t\t\t\n      PUSH 0\t\t\t\n      ADD \t\t\t\n      PUSH 6\t\t\t\n      PUSH 100\t\t\t\n      EXP \t\t\t\n      DUP2 \t\t\t\n      SLOAD \t\t\t\n      DUP2 \t\t\t\n      PUSH FFFFFFFFFFFFFFFFFFFFFFFFFFFFFFFFFFFFFFFFFFFFFFFFFFFF\t\t\t\n      MUL \t\t\t\n      NOT \t\t\t\n      AND \t\t\t\n      SWAP1 \t\t\t\n      DUP4 \t\t\t\n      PUSH FFFFFFFFFFFFFFFFFFFFFFFFFFFFFFFFFFFFFFFFFFFFFFFFFFFF\t\t\t\n      AND \t\t\t\n      MUL \t\t\t\n      OR \t\t\t\n      SWAP1 \t\t\t\n      SSTORE \t\t\t\n      POP \t\t\t\n      POP \t\t\t\n      POP \t\t\t\n    tag 531\t\t\t\n      JUMPDEST \t\t\t\n      DUP1 \t\t\t\n      PUSH 20\t\t\t\n      ADD \t\t\t\n      MLOAD \t\t\t\n      DUP6 \t\t\t\n      SWAP4 \t\t\t\n      POP \t\t\t\n      SWAP4 \t\t\t\n      POP \t\t\t\n      POP \t\t\t\n      POP \t\t\t\n      PUSH [tag] 523\t\t\t\n      JUMP \t\t\t\n    tag 524\t\t\t\n      JUMPDEST \t\t\t\n      DUP6 \t\t\t\n      PUSH 40\t\t\t\n      MLOAD \t\t\t\n      DUP1 \t\t\t\n      PUSH 40\t\t\t\n      ADD \t\t\t\n      PUSH 40\t\t\t\n      MSTORE \t\t\t\n      DUP1 \t\t\t\n      DUP8 \t\t\t\n      PUSH FFFFFFFFFFFF\t\t\t\n      AND \t\t\t\n      DUP2 \t\t\t\n      MSTORE \t\t\t\n      PUSH 20\t\t\t\n      ADD \t\t\t\n      DUP7 \t\t\t\n      PUSH FFFFFFFFFFFFFFFFFFFFFFFFFFFFFFFFFFFFFFFFFFFFFFFFFFFF\t\t\t\n      AND \t\t\t\n      DUP2 \t\t\t\n      MSTORE \t\t\t\n      POP \t\t\t\n      SWAP1 \t\t\t\n      DUP1 \t\t\t\n      PUSH 1\t\t\t\n      DUP2 \t\t\t\n      SLOAD \t\t\t\n      ADD \t\t\t\n      DUP1 \t\t\t\n      DUP3 \t\t\t\n      SSTORE \t\t\t\n      DUP1 \t\t\t\n      SWAP2 \t\t\t\n      POP \t\t\t\n      POP \t\t\t\n      PUSH 1\t\t\t\n      SWAP1 \t\t\t\n      SUB \t\t\t\n      SWAP1 \t\t\t\n      PUSH 0\t\t\t\n      MSTORE \t\t\t\n      PUSH 20\t\t\t\n      PUSH 0\t\t\t\n      KECCAK256 \t\t\t\n      ADD \t\t\t\n      PUSH 0\t\t\t\n      SWAP1 \t\t\t\n      SWAP2 \t\t\t\n      SWAP1 \t\t\t\n      SWAP2 \t\t\t\n      SWAP1 \t\t\t\n      SWAP2 \t\t\t\n      POP \t\t\t\n      PUSH 0\t\t\t\n      DUP3 \t\t\t\n      ADD \t\t\t\n      MLOAD \t\t\t\n      DUP2 \t\t\t\n      PUSH 0\t\t\t\n      ADD \t\t\t\n      PUSH 0\t\t\t\n      PUSH 100\t\t\t\n      EXP \t\t\t\n      DUP2 \t\t\t\n      SLOAD \t\t\t\n      DUP2 \t\t\t\n      PUSH FFFFFFFFFFFF\t\t\t\n      MUL \t\t\t\n      NOT \t\t\t\n      AND \t\t\t\n      SWAP1 \t\t\t\n      DUP4 \t\t\t\n      PUSH FFFFFFFFFFFF\t\t\t\n      AND \t\t\t\n      MUL \t\t\t\n      OR \t\t\t\n      SWAP1 \t\t\t\n      SSTORE \t\t\t\n      POP \t\t\t\n      PUSH 20\t\t\t\n      DUP3 \t\t\t\n      ADD \t\t\t\n      MLOAD \t\t\t\n      DUP2 \t\t\t\n      PUSH 0\t\t\t\n      ADD \t\t\t\n      PUSH 6\t\t\t\n      PUSH 100\t\t\t\n      EXP \t\t\t\n      DUP2 \t\t\t\n      SLOAD \t\t\t\n      DUP2 \t\t\t\n      PUSH FFFFFFFFFFFFFFFFFFFFFFFFFFFFFFFFFFFFFFFFFFFFFFFFFFFF\t\t\t\n      MUL \t\t\t\n      NOT \t\t\t\n      AND \t\t\t\n      SWAP1 \t\t\t\n      DUP4 \t\t\t\n      PUSH FFFFFFFFFFFFFFFFFFFFFFFFFFFFFFFFFFFFFFFFFFFFFFFFFFFF\t\t\t\n      AND \t\t\t\n      MUL \t\t\t\n      OR \t\t\t\n      SWAP1 \t\t\t\n      SSTORE \t\t\t\n      POP \t\t\t\n      POP \t\t\t\n      POP \t\t\t\n      PUSH 0\t\t\t\n      DUP5 \t\t\t\n      SWAP3 \t\t\t\n      POP \t\t\t\n      SWAP3 \t\t\t\n      POP \t\t\t\n      POP \t\t\t\n    tag 523\t\t\t\n      JUMPDEST \t\t\t\n      SWAP4 \t\t\t\n      POP \t\t\t\n      SWAP4 \t\t\t\n      SWAP2 \t\t\t\n      POP \t\t\t\n      POP \t\t\t\n      JUMP \t\t\t\n    tag 235\t\t\t\n      JUMPDEST \t\t\t\n      PUSH 40\t\t\t\n      MLOAD \t\t\t\n      DUP1 \t\t\t\n      PUSH 40\t\t\t\n      ADD \t\t\t\n      PUSH 40\t\t\t\n      MSTORE \t\t\t\n      DUP1 \t\t\t\n      PUSH 0\t\t\t\n      PUSH FFFFFFFFFFFF\t\t\t\n      AND \t\t\t\n      DUP2 \t\t\t\n      MSTORE \t\t\t\n      PUSH 20\t\t\t\n      ADD \t\t\t\n      PUSH 0\t\t\t\n      PUSH FFFFFFFFFFFFFFFFFFFFFFFFFFFFFFFFFFFFFFFFFFFFFFFFFFFF\t\t\t\n      AND \t\t\t\n      DUP2 \t\t\t\n      MSTORE \t\t\t\n      POP \t\t\t\n      SWAP1 \t\t\t\n      JUMP \t\t\t\n    tag 535\t\t\t-License-Identifier: MIT\\nprag...\n      JUMPDEST \t\t\t-License-Identifier: MIT\\nprag...\n      PUSH 0\t\t\tmport \n      DUP2 \t\t\t.1/to\n      MLOAD \t\t\tts@5.0.1/tok\n      SWAP1 \t\t\tin/contracts@5.0.1/tok\n      POP \t\t\tin/contracts@5.0.1/tok\n      SWAP2 \t\t\t-License-Identifier: MIT\\nprag...\n      SWAP1 \t\t\t-License-Identifier: MIT\\nprag...\n      POP \t\t\t-License-Identifier: MIT\\nprag...\n      JUMP \t\t\t-License-Identifier: MIT\\nprag...\n    tag 536\t\t\t0.sol\";\\nimport \"@openzeppelin...\n      JUMPDEST \t\t\t0.sol\";\\nimport \"@openzeppelin...\n      PUSH 0\t\t\t\";\\nimport \"\n      DUP3 \t\t\t@5.0.1\n      DUP3 \t\t\trac\n      MSTORE \t\t\tin/contracts@5.0.1/\n      PUSH 20\t\t\t.sol\n      DUP3 \t\t\tVot\n      ADD \t\t\tRC20Votes.sol\"\n      SWAP1 \t\t\t20/extensions/ERC20Votes.sol\"\n      POP \t\t\t20/extensions/ERC20Votes.sol\"\n      SWAP3 \t\t\t0.sol\";\\nimport \"@openzeppelin...\n      SWAP2 \t\t\t0.sol\";\\nimport \"@openzeppelin...\n      POP \t\t\t0.sol\";\\nimport \"@openzeppelin...\n      POP \t\t\t0.sol\";\\nimport \"@openzeppelin...\n      JUMP \t\t\t0.sol\";\\nimport \"@openzeppelin...\n    tag 537\t\t\tTokenContract is ERC20, ERC20P...\n      JUMPDEST \t\t\tTokenContract is ERC20, ERC20P...\n      PUSH 0\t\t\ta\n    tag 597\t\t\tg memory symbol, uint256 maxSu...\n      JUMPDEST \t\t\tg memory symbol, uint256 maxSu...\n      DUP4 \t\t\tl, uin\n      DUP2 \t\t\tm\n      LT \t\t\t symbol, uint\n      ISZERO \t\t\tg memory symbol, uint256 maxSu...\n      PUSH [tag] 599\t\t\tg memory symbol, uint256 maxSu...\n      JUMPI \t\t\tg memory symbol, uint256 maxSu...\n      DUP1 \t\t\tr\n      DUP3 \t\t\tsen\n      ADD \t\t\tmsg.sender,\n      MLOAD \t\t\t_mint(msg.sender, \n      DUP2 \t\t\t \n      DUP5 \t\t\t\\n  \n      ADD \t\t\te) {\\n      \n      MSTORE \t\t\tmit(name) {\\n        _mint(msg...\n      PUSH 20\t\t\tER\n      DUP2 \t\t\ty\n      ADD \t\t\tupply) ERC\n      SWAP1 \t\t\t maxSupply) ERC\n      POP \t\t\t maxSupply) ERC\n      PUSH [tag] 597\t\t\tg memory symbol, uint256 maxSu...\n      JUMP \t\t\tg memory symbol, uint256 maxSu...\n    tag 599\t\t\tg memory symbol, uint256 maxSu...\n      JUMPDEST \t\t\tg memory symbol, uint256 maxSu...\n      PUSH 0\t\t\ti\n      DUP5 \t\t\ting fu\n      DUP5 \t\t\toll\n      ADD \t\t\the following fun\n      MSTORE \t\t\t   // The following functio\n      POP \t\t\ttor(string memory name, string...\n      POP \t\t\tTokenContract is ERC20, ERC20P...\n      POP \t\t\tTokenContract is ERC20, ERC20P...\n      POP \t\t\tTokenContract is ERC20, ERC20P...\n      JUMP \t\t\tTokenContract is ERC20, ERC20P...\n    tag 538\t\t\tides required by Solidity.\\n\\n...\n      JUMPDEST \t\t\tides required by Solidity.\\n\\n...\n      PUSH 0\t\t\t_updat\n      PUSH 1F\t\t\t  \n      NOT \t\t\t)\\n     \n      PUSH 1F\t\t\tva\n      DUP4 \t\t\tint25\n      ADD \t\t\to, uint256 val\n      AND \t\t\tss to, uint256 value)\\n      \n      SWAP1 \t\t\trom, address to, uint256 value...\n      POP \t\t\trom, address to, uint256 value...\n      SWAP2 \t\t\tides required by Solidity.\\n\\n...\n      SWAP1 \t\t\tides required by Solidity.\\n\\n...\n      POP \t\t\tides required by Solidity.\\n\\n...\n      JUMP \t\t\tides required by Solidity.\\n\\n...\n    tag 539\t\t\t       override(ERC20, ERC20Vo...\n      JUMPDEST \t\t\t       override(ERC20, ERC20Vo...\n      PUSH 0\t\t\t   \n      PUSH [tag] 602\t\t\towner)\\n        public\\n      ...\n      DUP3 \t\t\tw\\n   \n      PUSH [tag] 535\t\t\towner)\\n        public\\n      ...\n      JUMP \t\t\towner)\\n        public\\n      ...\n    tag 602\t\t\towner)\\n        public\\n      ...\n      JUMPDEST \t\t\towner)\\n        public\\n      ...\n      PUSH [tag] 603\t\t\t20Permit, Nonces)\\n        ret...\n      DUP2 \t\t\t super\n      DUP6 \t\t\tetu\n      PUSH [tag] 536\t\t\t20Permit, Nonces)\\n        ret...\n      JUMP \t\t\t20Permit, Nonces)\\n        ret...\n    tag 603\t\t\t20Permit, Nonces)\\n        ret...\n      JUMPDEST \t\t\t20Permit, Nonces)\\n        ret...\n      SWAP4 \t\t\tide(ERC20Permit, Nonces)\\n    ...\n      POP \t\t\tide(ERC20Permit, Nonces)\\n    ...\n      PUSH [tag] 604\t\t\tner);\\n    }\\n}\\n\\n\n      DUP2 \t\t\t\n      DUP6 \t\t\t\n      PUSH 20\t\t\t\n      DUP7 \t\t\t\n      ADD \t\t\t\n      PUSH [tag] 537\t\t\tner);\\n    }\\n}\\n\\n\n      JUMP \t\t\tner);\\n    }\\n}\\n\\n\n    tag 604\t\t\tner);\\n    }\\n}\\n\\n\n      JUMPDEST \t\t\tner);\\n    }\\n}\\n\\n\n      PUSH [tag] 605\t\t\t\n      DUP2 \t\t\t\n      PUSH [tag] 538\t\t\t\n      JUMP \t\t\t\n    tag 605\t\t\t\n      JUMPDEST \t\t\t\n      DUP5 \t\t\t\n      ADD \t\t\t\n      SWAP2 \t\t\t\n      POP \t\t\t\n      POP \t\t\tfunction nonces(address owner)...\n      SWAP3 \t\t\t       override(ERC20, ERC20Vo...\n      SWAP2 \t\t\t       override(ERC20, ERC20Vo...\n      POP \t\t\t       override(ERC20, ERC20Vo...\n      POP \t\t\t       override(ERC20, ERC20Vo...\n      JUMP \t\t\t       override(ERC20, ERC20Vo...\n    tag 32\t\t\t\n      JUMPDEST \t\t\t\n      PUSH 0\t\t\t\n      PUSH 20\t\t\t\n      DUP3 \t\t\t\n      ADD \t\t\t\n      SWAP1 \t\t\t\n      POP \t\t\t\n      DUP2 \t\t\t\n      DUP2 \t\t\t\n      SUB \t\t\t\n      PUSH 0\t\t\t\n      DUP4 \t\t\t\n      ADD \t\t\t\n      MSTORE \t\t\t\n      PUSH [tag] 607\t\t\t\n      DUP2 \t\t\t\n      DUP5 \t\t\t\n      PUSH [tag] 539\t\t\t\n      JUMP \t\t\t\n    tag 607\t\t\t\n      JUMPDEST \t\t\t\n      SWAP1 \t\t\t\n      POP \t\t\t\n      SWAP3 \t\t\t\n      SWAP2 \t\t\t\n      POP \t\t\t\n      POP \t\t\t\n      JUMP \t\t\t\n    tag 541\t\t\t\n      JUMPDEST \t\t\t\n      PUSH 0\t\t\t\n      DUP1 \t\t\t\n      REVERT \t\t\t\n    tag 543\t\t\t\n      JUMPDEST \t\t\t\n      PUSH 0\t\t\t\n      PUSH FFFFFFFFFFFFFFFFFFFFFFFFFFFFFFFFFFFFFFFF\t\t\t\n      DUP3 \t\t\t\n      AND \t\t\t\n      SWAP1 \t\t\t\n      POP \t\t\t\n      SWAP2 \t\t\t\n      SWAP1 \t\t\t\n      POP \t\t\t\n      JUMP \t\t\t\n    tag 544\t\t\t\n      JUMPDEST \t\t\t\n      PUSH 0\t\t\t\n      PUSH [tag] 613\t\t\t\n      DUP3 \t\t\t\n      PUSH [tag] 543\t\t\t\n      JUMP \t\t\t\n    tag 613\t\t\t\n      JUMPDEST \t\t\t\n      SWAP1 \t\t\t\n      POP \t\t\t\n      SWAP2 \t\t\t\n      SWAP1 \t\t\t\n      POP \t\t\t\n      JUMP \t\t\t\n    tag 545\t\t\t\n      JUMPDEST \t\t\t\n      PUSH [tag] 615\t\t\t\n      DUP2 \t\t\t\n      PUSH [tag] 544\t\t\t\n      JUMP \t\t\t\n    tag 615\t\t\t\n      JUMPDEST \t\t\t\n      DUP2 \t\t\t\n      EQ \t\t\t\n      PUSH [tag] 616\t\t\t\n      JUMPI \t\t\t\n      PUSH 0\t\t\t\n      DUP1 \t\t\t\n      REVERT \t\t\t\n    tag 616\t\t\t\n      JUMPDEST \t\t\t\n      POP \t\t\t\n      JUMP \t\t\t\n    tag 546\t\t\t\n      JUMPDEST \t\t\t\n      PUSH 0\t\t\t\n      DUP2 \t\t\t\n      CALLDATALOAD \t\t\t\n      SWAP1 \t\t\t\n      POP \t\t\t\n      PUSH [tag] 618\t\t\t\n      DUP2 \t\t\t\n      PUSH [tag] 545\t\t\t\n      JUMP \t\t\t\n    tag 618\t\t\t\n      JUMPDEST \t\t\t\n      SWAP3 \t\t\t\n      SWAP2 \t\t\t\n      POP \t\t\t\n      POP \t\t\t\n      JUMP \t\t\t\n    tag 547\t\t\t\n      JUMPDEST \t\t\t\n      PUSH 0\t\t\t\n      DUP2 \t\t\t\n      SWAP1 \t\t\t\n      POP \t\t\t\n      SWAP2 \t\t\t\n      SWAP1 \t\t\t\n      POP \t\t\t\n      JUMP \t\t\t\n    tag 548\t\t\t\n      JUMPDEST \t\t\t\n      PUSH [tag] 621\t\t\t\n      DUP2 \t\t\t\n      PUSH [tag] 547\t\t\t\n      JUMP \t\t\t\n    tag 621\t\t\t\n      JUMPDEST \t\t\t\n      DUP2 \t\t\t\n      EQ \t\t\t\n      PUSH [tag] 622\t\t\t\n      JUMPI \t\t\t\n      PUSH 0\t\t\t\n      DUP1 \t\t\t\n      REVERT \t\t\t\n    tag 622\t\t\t\n      JUMPDEST \t\t\t\n      POP \t\t\t\n      JUMP \t\t\t\n    tag 549\t\t\t\n      JUMPDEST \t\t\t\n      PUSH 0\t\t\t\n      DUP2 \t\t\t\n      CALLDATALOAD \t\t\t\n      SWAP1 \t\t\t\n      POP \t\t\t\n      PUSH [tag] 624\t\t\t\n      DUP2 \t\t\t\n      PUSH [tag] 548\t\t\t\n      JUMP \t\t\t\n    tag 624\t\t\t\n      JUMPDEST \t\t\t\n      SWAP3 \t\t\t\n      SWAP2 \t\t\t\n      POP \t\t\t\n      POP \t\t\t\n      JUMP \t\t\t\n    tag 35\t\t\t\n      JUMPDEST \t\t\t\n      PUSH 0\t\t\t\n      DUP1 \t\t\t\n      PUSH 40\t\t\t\n      DUP4 \t\t\t\n      DUP6 \t\t\t\n      SUB \t\t\t\n      SLT \t\t\t\n      ISZERO \t\t\t\n      PUSH [tag] 626\t\t\t\n      JUMPI \t\t\t\n      PUSH [tag] 627\t\t\t\n      PUSH [tag] 541\t\t\t\n      JUMP \t\t\t\n    tag 627\t\t\t\n      JUMPDEST \t\t\t\n    tag 626\t\t\t\n      JUMPDEST \t\t\t\n      PUSH 0\t\t\t\n      PUSH [tag] 628\t\t\t\n      DUP6 \t\t\t\n      DUP3 \t\t\t\n      DUP7 \t\t\t\n      ADD \t\t\t\n      PUSH [tag] 546\t\t\t\n      JUMP \t\t\t\n    tag 628\t\t\t\n      JUMPDEST \t\t\t\n      SWAP3 \t\t\t\n      POP \t\t\t\n      POP \t\t\t\n      PUSH 20\t\t\t\n      PUSH [tag] 629\t\t\t\n      DUP6 \t\t\t\n      DUP3 \t\t\t\n      DUP7 \t\t\t\n      ADD \t\t\t\n      PUSH [tag] 549\t\t\t\n      JUMP \t\t\t\n    tag 629\t\t\t\n      JUMPDEST \t\t\t\n      SWAP2 \t\t\t\n      POP \t\t\t\n      POP \t\t\t\n      SWAP3 \t\t\t\n      POP \t\t\t\n      SWAP3 \t\t\t\n      SWAP1 \t\t\t\n      POP \t\t\t\n      JUMP \t\t\t\n    tag 550\t\t\t\n      JUMPDEST \t\t\t\n      PUSH 0\t\t\t\n      DUP2 \t\t\t\n      ISZERO \t\t\t\n      ISZERO \t\t\t\n      SWAP1 \t\t\t\n      POP \t\t\t\n      SWAP2 \t\t\t\n      SWAP1 \t\t\t\n      POP \t\t\t\n      JUMP \t\t\t\n    tag 551\t\t\t\n      JUMPDEST \t\t\t\n      PUSH [tag] 632\t\t\t\n      DUP2 \t\t\t\n      PUSH [tag] 550\t\t\t\n      JUMP \t\t\t\n    tag 632\t\t\t\n      JUMPDEST \t\t\t\n      DUP3 \t\t\t\n      MSTORE \t\t\t\n      POP \t\t\t\n      POP \t\t\t\n      JUMP \t\t\t\n    tag 38\t\t\t\n      JUMPDEST \t\t\t\n      PUSH 0\t\t\t\n      PUSH 20\t\t\t\n      DUP3 \t\t\t\n      ADD \t\t\t\n      SWAP1 \t\t\t\n      POP \t\t\t\n      PUSH [tag] 634\t\t\t\n      PUSH 0\t\t\t\n      DUP4 \t\t\t\n      ADD \t\t\t\n      DUP5 \t\t\t\n      PUSH [tag] 551\t\t\t\n      JUMP \t\t\t\n    tag 634\t\t\t\n      JUMPDEST \t\t\t\n      SWAP3 \t\t\t\n      SWAP2 \t\t\t\n      POP \t\t\t\n      POP \t\t\t\n      JUMP \t\t\t\n    tag 552\t\t\t\n      JUMPDEST \t\t\t\n      PUSH [tag] 636\t\t\t\n      DUP2 \t\t\t\n      PUSH [tag] 547\t\t\t\n      JUMP \t\t\t\n    tag 636\t\t\t\n      JUMPDEST \t\t\t\n      DUP3 \t\t\t\n      MSTORE \t\t\t\n      POP \t\t\t\n      POP \t\t\t\n      JUMP \t\t\t\n    tag 42\t\t\t\n      JUMPDEST \t\t\t\n      PUSH 0\t\t\t\n      PUSH 20\t\t\t\n      DUP3 \t\t\t\n      ADD \t\t\t\n      SWAP1 \t\t\t\n      POP \t\t\t\n      PUSH [tag] 638\t\t\t\n      PUSH 0\t\t\t\n      DUP4 \t\t\t\n      ADD \t\t\t\n      DUP5 \t\t\t\n      PUSH [tag] 552\t\t\t\n      JUMP \t\t\t\n    tag 638\t\t\t\n      JUMPDEST \t\t\t\n      SWAP3 \t\t\t\n      SWAP2 \t\t\t\n      POP \t\t\t\n      POP \t\t\t\n      JUMP \t\t\t\n    tag 45\t\t\t\n      JUMPDEST \t\t\t\n      PUSH 0\t\t\t\n      DUP1 \t\t\t\n      PUSH 0\t\t\t\n      PUSH 60\t\t\t\n      DUP5 \t\t\t\n      DUP7 \t\t\t\n      SUB \t\t\t\n      SLT \t\t\t\n      ISZERO \t\t\t\n      PUSH [tag] 640\t\t\t\n      JUMPI \t\t\t\n      PUSH [tag] 641\t\t\t\n      PUSH [tag] 541\t\t\t\n      JUMP \t\t\t\n    tag 641\t\t\t\n      JUMPDEST \t\t\t\n    tag 640\t\t\t\n      JUMPDEST \t\t\t\n      PUSH 0\t\t\t\n      PUSH [tag] 642\t\t\t\n      DUP7 \t\t\t\n      DUP3 \t\t\t\n      DUP8 \t\t\t\n      ADD \t\t\t\n      PUSH [tag] 546\t\t\t\n      JUMP \t\t\t\n    tag 642\t\t\t\n      JUMPDEST \t\t\t\n      SWAP4 \t\t\t\n      POP \t\t\t\n      POP \t\t\t\n      PUSH 20\t\t\t\n      PUSH [tag] 643\t\t\t\n      DUP7 \t\t\t\n      DUP3 \t\t\t\n      DUP8 \t\t\t\n      ADD \t\t\t\n      PUSH [tag] 546\t\t\t\n      JUMP \t\t\t\n    tag 643\t\t\t\n      JUMPDEST \t\t\t\n      SWAP3 \t\t\t\n      POP \t\t\t\n      POP \t\t\t\n      PUSH 40\t\t\t\n      PUSH [tag] 644\t\t\t\n      DUP7 \t\t\t\n      DUP3 \t\t\t\n      DUP8 \t\t\t\n      ADD \t\t\t\n      PUSH [tag] 549\t\t\t\n      JUMP \t\t\t\n    tag 644\t\t\t\n      JUMPDEST \t\t\t\n      SWAP2 \t\t\t\n      POP \t\t\t\n      POP \t\t\t\n      SWAP3 \t\t\t\n      POP \t\t\t\n      SWAP3 \t\t\t\n      POP \t\t\t\n      SWAP3 \t\t\t\n      JUMP \t\t\t\n    tag 553\t\t\t\n      JUMPDEST \t\t\t\n      PUSH 0\t\t\t\n      PUSH FF\t\t\t\n      DUP3 \t\t\t\n      AND \t\t\t\n      SWAP1 \t\t\t\n      POP \t\t\t\n      SWAP2 \t\t\t\n      SWAP1 \t\t\t\n      POP \t\t\t\n      JUMP \t\t\t\n    tag 554\t\t\t\n      JUMPDEST \t\t\t\n      PUSH [tag] 647\t\t\t\n      DUP2 \t\t\t\n      PUSH [tag] 553\t\t\t\n      JUMP \t\t\t\n    tag 647\t\t\t\n      JUMPDEST \t\t\t\n      DUP3 \t\t\t\n      MSTORE \t\t\t\n      POP \t\t\t\n      POP \t\t\t\n      JUMP \t\t\t\n    tag 51\t\t\t\n      JUMPDEST \t\t\t\n      PUSH 0\t\t\t\n      PUSH 20\t\t\t\n      DUP3 \t\t\t\n      ADD \t\t\t\n      SWAP1 \t\t\t\n      POP \t\t\t\n      PUSH [tag] 649\t\t\t\n      PUSH 0\t\t\t\n      DUP4 \t\t\t\n      ADD \t\t\t\n      DUP5 \t\t\t\n      PUSH [tag] 554\t\t\t\n      JUMP \t\t\t\n    tag 649\t\t\t\n      JUMPDEST \t\t\t\n      SWAP3 \t\t\t\n      SWAP2 \t\t\t\n      POP \t\t\t\n      POP \t\t\t\n      JUMP \t\t\t\n    tag 555\t\t\t\n      JUMPDEST \t\t\t\n      PUSH 0\t\t\t\n      DUP2 \t\t\t\n      SWAP1 \t\t\t\n      POP \t\t\t\n      SWAP2 \t\t\t\n      SWAP1 \t\t\t\n      POP \t\t\t\n      JUMP \t\t\t\n    tag 556\t\t\t\n      JUMPDEST \t\t\t\n      PUSH [tag] 652\t\t\t\n      DUP2 \t\t\t\n      PUSH [tag] 555\t\t\t\n      JUMP \t\t\t\n    tag 652\t\t\t\n      JUMPDEST \t\t\t\n      DUP3 \t\t\t\n      MSTORE \t\t\t\n      POP \t\t\t\n      POP \t\t\t\n      JUMP \t\t\t\n    tag 55\t\t\t\n      JUMPDEST \t\t\t\n      PUSH 0\t\t\t\n      PUSH 20\t\t\t\n      DUP3 \t\t\t\n      ADD \t\t\t\n      SWAP1 \t\t\t\n      POP \t\t\t\n      PUSH [tag] 654\t\t\t\n      PUSH 0\t\t\t\n      DUP4 \t\t\t\n      ADD \t\t\t\n      DUP5 \t\t\t\n      PUSH [tag] 556\t\t\t\n      JUMP \t\t\t\n    tag 654\t\t\t\n      JUMPDEST \t\t\t\n      SWAP3 \t\t\t\n      SWAP2 \t\t\t\n      POP \t\t\t\n      POP \t\t\t\n      JUMP \t\t\t\n    tag 65\t\t\t\n      JUMPDEST \t\t\t\n      PUSH 0\t\t\t\n      PUSH 20\t\t\t\n      DUP3 \t\t\t\n      DUP5 \t\t\t\n      SUB \t\t\t\n      SLT \t\t\t\n      ISZERO \t\t\t\n      PUSH [tag] 656\t\t\t\n      JUMPI \t\t\t\n      PUSH [tag] 657\t\t\t\n      PUSH [tag] 541\t\t\t\n      JUMP \t\t\t\n    tag 657\t\t\t\n      JUMPDEST \t\t\t\n    tag 656\t\t\t\n      JUMPDEST \t\t\t\n      PUSH 0\t\t\t\n      PUSH [tag] 658\t\t\t\n      DUP5 \t\t\t\n      DUP3 \t\t\t\n      DUP6 \t\t\t\n      ADD \t\t\t\n      PUSH [tag] 546\t\t\t\n      JUMP \t\t\t\n    tag 658\t\t\t\n      JUMPDEST \t\t\t\n      SWAP2 \t\t\t\n      POP \t\t\t\n      POP \t\t\t\n      SWAP3 \t\t\t\n      SWAP2 \t\t\t\n      POP \t\t\t\n      POP \t\t\t\n      JUMP \t\t\t\n    tag 557\t\t\t\n      JUMPDEST \t\t\t\n      PUSH [tag] 660\t\t\t\n      DUP2 \t\t\t\n      PUSH [tag] 544\t\t\t\n      JUMP \t\t\t\n    tag 660\t\t\t\n      JUMPDEST \t\t\t\n      DUP3 \t\t\t\n      MSTORE \t\t\t\n      POP \t\t\t\n      POP \t\t\t\n      JUMP \t\t\t\n    tag 68\t\t\t\n      JUMPDEST \t\t\t\n      PUSH 0\t\t\t\n      PUSH 20\t\t\t\n      DUP3 \t\t\t\n      ADD \t\t\t\n      SWAP1 \t\t\t\n      POP \t\t\t\n      PUSH [tag] 662\t\t\t\n      PUSH 0\t\t\t\n      DUP4 \t\t\t\n      ADD \t\t\t\n      DUP5 \t\t\t\n      PUSH [tag] 557\t\t\t\n      JUMP \t\t\t\n    tag 662\t\t\t\n      JUMPDEST \t\t\t\n      SWAP3 \t\t\t\n      SWAP2 \t\t\t\n      POP \t\t\t\n      POP \t\t\t\n      JUMP \t\t\t\n    tag 558\t\t\t\n      JUMPDEST \t\t\t\n      PUSH 0\t\t\t\n      PUSH FFFFFFFF\t\t\t\n      DUP3 \t\t\t\n      AND \t\t\t\n      SWAP1 \t\t\t\n      POP \t\t\t\n      SWAP2 \t\t\t\n      SWAP1 \t\t\t\n      POP \t\t\t\n      JUMP \t\t\t\n    tag 559\t\t\t\n      JUMPDEST \t\t\t\n      PUSH [tag] 665\t\t\t\n      DUP2 \t\t\t\n      PUSH [tag] 558\t\t\t\n      JUMP \t\t\t\n    tag 665\t\t\t\n      JUMPDEST \t\t\t\n      DUP3 \t\t\t\n      MSTORE \t\t\t\n      POP \t\t\t\n      POP \t\t\t\n      JUMP \t\t\t\n    tag 76\t\t\t\n      JUMPDEST \t\t\t\n      PUSH 0\t\t\t\n      PUSH 20\t\t\t\n      DUP3 \t\t\t\n      ADD \t\t\t\n      SWAP1 \t\t\t\n      POP \t\t\t\n      PUSH [tag] 667\t\t\t\n      PUSH 0\t\t\t\n      DUP4 \t\t\t\n      ADD \t\t\t\n      DUP5 \t\t\t\n      PUSH [tag] 559\t\t\t\n      JUMP \t\t\t\n    tag 667\t\t\t\n      JUMPDEST \t\t\t\n      SWAP3 \t\t\t\n      SWAP2 \t\t\t\n      POP \t\t\t\n      POP \t\t\t\n      JUMP \t\t\t\n    tag 560\t\t\t\n      JUMPDEST \t\t\t\n      PUSH 0\t\t\t\n      PUSH FF00000000000000000000000000000000000000000000000000000000000000\t\t\t\n      DUP3 \t\t\t\n      AND \t\t\t\n      SWAP1 \t\t\t\n      POP \t\t\t\n      SWAP2 \t\t\t\n      SWAP1 \t\t\t\n      POP \t\t\t\n      JUMP \t\t\t\n    tag 561\t\t\t\n      JUMPDEST \t\t\t\n      PUSH [tag] 670\t\t\t\n      DUP2 \t\t\t\n      PUSH [tag] 560\t\t\t\n      JUMP \t\t\t\n    tag 670\t\t\t\n      JUMPDEST \t\t\t\n      DUP3 \t\t\t\n      MSTORE \t\t\t\n      POP \t\t\t\n      POP \t\t\t\n      JUMP \t\t\t\n    tag 562\t\t\t\n      JUMPDEST \t\t\t\n      PUSH 0\t\t\t\n      DUP2 \t\t\t\n      MLOAD \t\t\t\n      SWAP1 \t\t\t\n      POP \t\t\t\n      SWAP2 \t\t\t\n      SWAP1 \t\t\t\n      POP \t\t\t\n      JUMP \t\t\t\n    tag 563\t\t\t\n      JUMPDEST \t\t\t\n      PUSH 0\t\t\t\n      DUP3 \t\t\t\n      DUP3 \t\t\t\n      MSTORE \t\t\t\n      PUSH 20\t\t\t\n      DUP3 \t\t\t\n      ADD \t\t\t\n      SWAP1 \t\t\t\n      POP \t\t\t\n      SWAP3 \t\t\t\n      SWAP2 \t\t\t\n      POP \t\t\t\n      POP \t\t\t\n      JUMP \t\t\t\n    tag 564\t\t\t\n      JUMPDEST \t\t\t\n      PUSH 0\t\t\t\n      DUP2 \t\t\t\n      SWAP1 \t\t\t\n      POP \t\t\t\n      PUSH 20\t\t\t\n      DUP3 \t\t\t\n      ADD \t\t\t\n      SWAP1 \t\t\t\n      POP \t\t\t\n      SWAP2 \t\t\t\n      SWAP1 \t\t\t\n      POP \t\t\t\n      JUMP \t\t\t\n    tag 565\t\t\t\n      JUMPDEST \t\t\t\n      PUSH [tag] 675\t\t\t\n      DUP2 \t\t\t\n      PUSH [tag] 547\t\t\t\n      JUMP \t\t\t\n    tag 675\t\t\t\n      JUMPDEST \t\t\t\n      DUP3 \t\t\t\n      MSTORE \t\t\t\n      POP \t\t\t\n      POP \t\t\t\n      JUMP \t\t\t\n    tag 566\t\t\t\n      JUMPDEST \t\t\t\n      PUSH 0\t\t\t\n      PUSH [tag] 677\t\t\t\n      DUP4 \t\t\t\n      DUP4 \t\t\t\n      PUSH [tag] 565\t\t\t\n      JUMP \t\t\t\n    tag 677\t\t\t\n      JUMPDEST \t\t\t\n      PUSH 20\t\t\t\n      DUP4 \t\t\t\n      ADD \t\t\t\n      SWAP1 \t\t\t\n      POP \t\t\t\n      SWAP3 \t\t\t\n      SWAP2 \t\t\t\n      POP \t\t\t\n      POP \t\t\t\n      JUMP \t\t\t\n    tag 567\t\t\t\n      JUMPDEST \t\t\t\n      PUSH 0\t\t\t\n      PUSH 20\t\t\t\n      DUP3 \t\t\t\n      ADD \t\t\t\n      SWAP1 \t\t\t\n      POP \t\t\t\n      SWAP2 \t\t\t\n      SWAP1 \t\t\t\n      POP \t\t\t\n      JUMP \t\t\t\n    tag 568\t\t\t\n      JUMPDEST \t\t\t\n      PUSH 0\t\t\t\n      PUSH [tag] 680\t\t\t\n      DUP3 \t\t\t\n      PUSH [tag] 562\t\t\t\n      JUMP \t\t\t\n    tag 680\t\t\t\n      JUMPDEST \t\t\t\n      PUSH [tag] 681\t\t\t\n      DUP2 \t\t\t\n      DUP6 \t\t\t\n      PUSH [tag] 563\t\t\t\n      JUMP \t\t\t\n    tag 681\t\t\t\n      JUMPDEST \t\t\t\n      SWAP4 \t\t\t\n      POP \t\t\t\n      PUSH [tag] 682\t\t\t\n      DUP4 \t\t\t\n      PUSH [tag] 564\t\t\t\n      JUMP \t\t\t\n    tag 682\t\t\t\n      JUMPDEST \t\t\t\n      DUP1 \t\t\t\n      PUSH 0\t\t\t\n    tag 683\t\t\t\n      JUMPDEST \t\t\t\n      DUP4 \t\t\t\n      DUP2 \t\t\t\n      LT \t\t\t\n      ISZERO \t\t\t\n      PUSH [tag] 685\t\t\t\n      JUMPI \t\t\t\n      DUP2 \t\t\t\n      MLOAD \t\t\t\n      PUSH [tag] 686\t\t\t\n      DUP9 \t\t\t\n      DUP3 \t\t\t\n      PUSH [tag] 566\t\t\t\n      JUMP \t\t\t\n    tag 686\t\t\t\n      JUMPDEST \t\t\t\n      SWAP8 \t\t\t\n      POP \t\t\t\n      PUSH [tag] 687\t\t\t\n      DUP4 \t\t\t\n      PUSH [tag] 567\t\t\t\n      JUMP \t\t\t\n    tag 687\t\t\t\n      JUMPDEST \t\t\t\n      SWAP3 \t\t\t\n      POP \t\t\t\n      POP \t\t\t\n      PUSH 1\t\t\t\n      DUP2 \t\t\t\n      ADD \t\t\t\n      SWAP1 \t\t\t\n      POP \t\t\t\n      PUSH [tag] 683\t\t\t\n      JUMP \t\t\t\n    tag 685\t\t\t\n      JUMPDEST \t\t\t\n      POP \t\t\t\n      DUP6 \t\t\t\n      SWAP4 \t\t\t\n      POP \t\t\t\n      POP \t\t\t\n      POP \t\t\t\n      POP \t\t\t\n      SWAP3 \t\t\t\n      SWAP2 \t\t\t\n      POP \t\t\t\n      POP \t\t\t\n      JUMP \t\t\t\n    tag 88\t\t\t\n      JUMPDEST \t\t\t\n      PUSH 0\t\t\t\n      PUSH E0\t\t\t\n      DUP3 \t\t\t\n      ADD \t\t\t\n      SWAP1 \t\t\t\n      POP \t\t\t\n      PUSH [tag] 689\t\t\t\n      PUSH 0\t\t\t\n      DUP4 \t\t\t\n      ADD \t\t\t\n      DUP11 \t\t\t\n      PUSH [tag] 561\t\t\t\n      JUMP \t\t\t\n    tag 689\t\t\t\n      JUMPDEST \t\t\t\n      DUP2 \t\t\t\n      DUP2 \t\t\t\n      SUB \t\t\t\n      PUSH 20\t\t\t\n      DUP4 \t\t\t\n      ADD \t\t\t\n      MSTORE \t\t\t\n      PUSH [tag] 690\t\t\t\n      DUP2 \t\t\t\n      DUP10 \t\t\t\n      PUSH [tag] 539\t\t\t\n      JUMP \t\t\t\n    tag 690\t\t\t\n      JUMPDEST \t\t\t\n      SWAP1 \t\t\t\n      POP \t\t\t\n      DUP2 \t\t\t\n      DUP2 \t\t\t\n      SUB \t\t\t\n      PUSH 40\t\t\t\n      DUP4 \t\t\t\n      ADD \t\t\t\n      MSTORE \t\t\t\n      PUSH [tag] 691\t\t\t\n      DUP2 \t\t\t\n      DUP9 \t\t\t\n      PUSH [tag] 539\t\t\t\n      JUMP \t\t\t\n    tag 691\t\t\t\n      JUMPDEST \t\t\t\n      SWAP1 \t\t\t\n      POP \t\t\t\n      PUSH [tag] 692\t\t\t\n      PUSH 60\t\t\t\n      DUP4 \t\t\t\n      ADD \t\t\t\n      DUP8 \t\t\t\n      PUSH [tag] 552\t\t\t\n      JUMP \t\t\t\n    tag 692\t\t\t\n      JUMPDEST \t\t\t\n      PUSH [tag] 693\t\t\t\n      PUSH 80\t\t\t\n      DUP4 \t\t\t\n      ADD \t\t\t\n      DUP7 \t\t\t\n      PUSH [tag] 557\t\t\t\n      JUMP \t\t\t\n    tag 693\t\t\t\n      JUMPDEST \t\t\t\n      PUSH [tag] 694\t\t\t\n      PUSH A0\t\t\t\n      DUP4 \t\t\t\n      ADD \t\t\t\n      DUP6 \t\t\t\n      PUSH [tag] 556\t\t\t\n      JUMP \t\t\t\n    tag 694\t\t\t\n      JUMPDEST \t\t\t\n      DUP2 \t\t\t\n      DUP2 \t\t\t\n      SUB \t\t\t\n      PUSH C0\t\t\t\n      DUP4 \t\t\t\n      ADD \t\t\t\n      MSTORE \t\t\t\n      PUSH [tag] 695\t\t\t\n      DUP2 \t\t\t\n      DUP5 \t\t\t\n      PUSH [tag] 568\t\t\t\n      JUMP \t\t\t\n    tag 695\t\t\t\n      JUMPDEST \t\t\t\n      SWAP1 \t\t\t\n      POP \t\t\t\n      SWAP9 \t\t\t\n      SWAP8 \t\t\t\n      POP \t\t\t\n      POP \t\t\t\n      POP \t\t\t\n      POP \t\t\t\n      POP \t\t\t\n      POP \t\t\t\n      POP \t\t\t\n      POP \t\t\t\n      JUMP \t\t\t\n    tag 91\t\t\t\n      JUMPDEST \t\t\t\n      PUSH 0\t\t\t\n      PUSH 20\t\t\t\n      DUP3 \t\t\t\n      DUP5 \t\t\t\n      SUB \t\t\t\n      SLT \t\t\t\n      ISZERO \t\t\t\n      PUSH [tag] 697\t\t\t\n      JUMPI \t\t\t\n      PUSH [tag] 698\t\t\t\n      PUSH [tag] 541\t\t\t\n      JUMP \t\t\t\n    tag 698\t\t\t\n      JUMPDEST \t\t\t\n    tag 697\t\t\t\n      JUMPDEST \t\t\t\n      PUSH 0\t\t\t\n      PUSH [tag] 699\t\t\t\n      DUP5 \t\t\t\n      DUP3 \t\t\t\n      DUP6 \t\t\t\n      ADD \t\t\t\n      PUSH [tag] 549\t\t\t\n      JUMP \t\t\t\n    tag 699\t\t\t\n      JUMPDEST \t\t\t\n      SWAP2 \t\t\t\n      POP \t\t\t\n      POP \t\t\t\n      SWAP3 \t\t\t\n      SWAP2 \t\t\t\n      POP \t\t\t\n      POP \t\t\t\n      JUMP \t\t\t\n    tag 569\t\t\t\n      JUMPDEST \t\t\t\n      PUSH 0\t\t\t\n      PUSH FFFFFFFFFFFF\t\t\t\n      DUP3 \t\t\t\n      AND \t\t\t\n      SWAP1 \t\t\t\n      POP \t\t\t\n      SWAP2 \t\t\t\n      SWAP1 \t\t\t\n      POP \t\t\t\n      JUMP \t\t\t\n    tag 570\t\t\t\n      JUMPDEST \t\t\t\n      PUSH [tag] 702\t\t\t\n      DUP2 \t\t\t\n      PUSH [tag] 569\t\t\t\n      JUMP \t\t\t\n    tag 702\t\t\t\n      JUMPDEST \t\t\t\n      DUP3 \t\t\t\n      MSTORE \t\t\t\n      POP \t\t\t\n      POP \t\t\t\n      JUMP \t\t\t\n    tag 97\t\t\t\n      JUMPDEST \t\t\t\n      PUSH 0\t\t\t\n      PUSH 20\t\t\t\n      DUP3 \t\t\t\n      ADD \t\t\t\n      SWAP1 \t\t\t\n      POP \t\t\t\n      PUSH [tag] 704\t\t\t\n      PUSH 0\t\t\t\n      DUP4 \t\t\t\n      ADD \t\t\t\n      DUP5 \t\t\t\n      PUSH [tag] 570\t\t\t\n      JUMP \t\t\t\n    tag 704\t\t\t\n      JUMPDEST \t\t\t\n      SWAP3 \t\t\t\n      SWAP2 \t\t\t\n      POP \t\t\t\n      POP \t\t\t\n      JUMP \t\t\t\n    tag 571\t\t\t\n      JUMPDEST \t\t\t\n      PUSH [tag] 706\t\t\t\n      DUP2 \t\t\t\n      PUSH [tag] 553\t\t\t\n      JUMP \t\t\t\n    tag 706\t\t\t\n      JUMPDEST \t\t\t\n      DUP2 \t\t\t\n      EQ \t\t\t\n      PUSH [tag] 707\t\t\t\n      JUMPI \t\t\t\n      PUSH 0\t\t\t\n      DUP1 \t\t\t\n      REVERT \t\t\t\n    tag 707\t\t\t\n      JUMPDEST \t\t\t\n      POP \t\t\t\n      JUMP \t\t\t\n    tag 572\t\t\t\n      JUMPDEST \t\t\t\n      PUSH 0\t\t\t\n      DUP2 \t\t\t\n      CALLDATALOAD \t\t\t\n      SWAP1 \t\t\t\n      POP \t\t\t\n      PUSH [tag] 709\t\t\t\n      DUP2 \t\t\t\n      PUSH [tag] 571\t\t\t\n      JUMP \t\t\t\n    tag 709\t\t\t\n      JUMPDEST \t\t\t\n      SWAP3 \t\t\t\n      SWAP2 \t\t\t\n      POP \t\t\t\n      POP \t\t\t\n      JUMP \t\t\t\n    tag 573\t\t\t\n      JUMPDEST \t\t\t\n      PUSH [tag] 711\t\t\t\n      DUP2 \t\t\t\n      PUSH [tag] 555\t\t\t\n      JUMP \t\t\t\n    tag 711\t\t\t\n      JUMPDEST \t\t\t\n      DUP2 \t\t\t\n      EQ \t\t\t\n      PUSH [tag] 712\t\t\t\n      JUMPI \t\t\t\n      PUSH 0\t\t\t\n      DUP1 \t\t\t\n      REVERT \t\t\t\n    tag 712\t\t\t\n      JUMPDEST \t\t\t\n      POP \t\t\t\n      JUMP \t\t\t\n    tag 574\t\t\t\n      JUMPDEST \t\t\t\n      PUSH 0\t\t\t\n      DUP2 \t\t\t\n      CALLDATALOAD \t\t\t\n      SWAP1 \t\t\t\n      POP \t\t\t\n      PUSH [tag] 714\t\t\t\n      DUP2 \t\t\t\n      PUSH [tag] 573\t\t\t\n      JUMP \t\t\t\n    tag 714\t\t\t\n      JUMPDEST \t\t\t\n      SWAP3 \t\t\t\n      SWAP2 \t\t\t\n      POP \t\t\t\n      POP \t\t\t\n      JUMP \t\t\t\n    tag 111\t\t\t\n      JUMPDEST \t\t\t\n      PUSH 0\t\t\t\n      DUP1 \t\t\t\n      PUSH 0\t\t\t\n      DUP1 \t\t\t\n      PUSH 0\t\t\t\n      DUP1 \t\t\t\n      PUSH C0\t\t\t\n      DUP8 \t\t\t\n      DUP10 \t\t\t\n      SUB \t\t\t\n      SLT \t\t\t\n      ISZERO \t\t\t\n      PUSH [tag] 716\t\t\t\n      JUMPI \t\t\t\n      PUSH [tag] 717\t\t\t\n      PUSH [tag] 541\t\t\t\n      JUMP \t\t\t\n    tag 717\t\t\t\n      JUMPDEST \t\t\t\n    tag 716\t\t\t\n      JUMPDEST \t\t\t\n      PUSH 0\t\t\t\n      PUSH [tag] 718\t\t\t\n      DUP10 \t\t\t\n      DUP3 \t\t\t\n      DUP11 \t\t\t\n      ADD \t\t\t\n      PUSH [tag] 546\t\t\t\n      JUMP \t\t\t\n    tag 718\t\t\t\n      JUMPDEST \t\t\t\n      SWAP7 \t\t\t\n      POP \t\t\t\n      POP \t\t\t\n      PUSH 20\t\t\t\n      PUSH [tag] 719\t\t\t\n      DUP10 \t\t\t\n      DUP3 \t\t\t\n      DUP11 \t\t\t\n      ADD \t\t\t\n      PUSH [tag] 549\t\t\t\n      JUMP \t\t\t\n    tag 719\t\t\t\n      JUMPDEST \t\t\t\n      SWAP6 \t\t\t\n      POP \t\t\t\n      POP \t\t\t\n      PUSH 40\t\t\t\n      PUSH [tag] 720\t\t\t\n      DUP10 \t\t\t\n      DUP3 \t\t\t\n      DUP11 \t\t\t\n      ADD \t\t\t\n      PUSH [tag] 549\t\t\t\n      JUMP \t\t\t\n    tag 720\t\t\t\n      JUMPDEST \t\t\t\n      SWAP5 \t\t\t\n      POP \t\t\t\n      POP \t\t\t\n      PUSH 60\t\t\t\n      PUSH [tag] 721\t\t\t\n      DUP10 \t\t\t\n      DUP3 \t\t\t\n      DUP11 \t\t\t\n      ADD \t\t\t\n      PUSH [tag] 572\t\t\t\n      JUMP \t\t\t\n    tag 721\t\t\t\n      JUMPDEST \t\t\t\n      SWAP4 \t\t\t\n      POP \t\t\t\n      POP \t\t\t\n      PUSH 80\t\t\t\n      PUSH [tag] 722\t\t\t\n      DUP10 \t\t\t\n      DUP3 \t\t\t\n      DUP11 \t\t\t\n      ADD \t\t\t\n      PUSH [tag] 574\t\t\t\n      JUMP \t\t\t\n    tag 722\t\t\t\n      JUMPDEST \t\t\t\n      SWAP3 \t\t\t\n      POP \t\t\t\n      POP \t\t\t\n      PUSH A0\t\t\t\n      PUSH [tag] 723\t\t\t\n      DUP10 \t\t\t\n      DUP3 \t\t\t\n      DUP11 \t\t\t\n      ADD \t\t\t\n      PUSH [tag] 574\t\t\t\n      JUMP \t\t\t\n    tag 723\t\t\t\n      JUMPDEST \t\t\t\n      SWAP2 \t\t\t\n      POP \t\t\t\n      POP \t\t\t\n      SWAP3 \t\t\t\n      SWAP6 \t\t\t\n      POP \t\t\t\n      SWAP3 \t\t\t\n      SWAP6 \t\t\t\n      POP \t\t\t\n      SWAP3 \t\t\t\n      SWAP6 \t\t\t\n      JUMP \t\t\t\n    tag 115\t\t\t\n      JUMPDEST \t\t\t\n      PUSH 0\t\t\t\n      DUP1 \t\t\t\n      PUSH 0\t\t\t\n      DUP1 \t\t\t\n      PUSH 0\t\t\t\n      DUP1 \t\t\t\n      PUSH 0\t\t\t\n      PUSH E0\t\t\t\n      DUP9 \t\t\t\n      DUP11 \t\t\t\n      SUB \t\t\t\n      SLT \t\t\t\n      ISZERO \t\t\t\n      PUSH [tag] 725\t\t\t\n      JUMPI \t\t\t\n      PUSH [tag] 726\t\t\t\n      PUSH [tag] 541\t\t\t\n      JUMP \t\t\t\n    tag 726\t\t\t\n      JUMPDEST \t\t\t\n    tag 725\t\t\t\n      JUMPDEST \t\t\t\n      PUSH 0\t\t\t\n      PUSH [tag] 727\t\t\t\n      DUP11 \t\t\t\n      DUP3 \t\t\t\n      DUP12 \t\t\t\n      ADD \t\t\t\n      PUSH [tag] 546\t\t\t\n      JUMP \t\t\t\n    tag 727\t\t\t\n      JUMPDEST \t\t\t\n      SWAP8 \t\t\t\n      POP \t\t\t\n      POP \t\t\t\n      PUSH 20\t\t\t\n      PUSH [tag] 728\t\t\t\n      DUP11 \t\t\t\n      DUP3 \t\t\t\n      DUP12 \t\t\t\n      ADD \t\t\t\n      PUSH [tag] 546\t\t\t\n      JUMP \t\t\t\n    tag 728\t\t\t\n      JUMPDEST \t\t\t\n      SWAP7 \t\t\t\n      POP \t\t\t\n      POP \t\t\t\n      PUSH 40\t\t\t\n      PUSH [tag] 729\t\t\t\n      DUP11 \t\t\t\n      DUP3 \t\t\t\n      DUP12 \t\t\t\n      ADD \t\t\t\n      PUSH [tag] 549\t\t\t\n      JUMP \t\t\t\n    tag 729\t\t\t\n      JUMPDEST \t\t\t\n      SWAP6 \t\t\t\n      POP \t\t\t\n      POP \t\t\t\n      PUSH 60\t\t\t\n      PUSH [tag] 730\t\t\t\n      DUP11 \t\t\t\n      DUP3 \t\t\t\n      DUP12 \t\t\t\n      ADD \t\t\t\n      PUSH [tag] 549\t\t\t\n      JUMP \t\t\t\n    tag 730\t\t\t\n      JUMPDEST \t\t\t\n      SWAP5 \t\t\t\n      POP \t\t\t\n      POP \t\t\t\n      PUSH 80\t\t\t\n      PUSH [tag] 731\t\t\t\n      DUP11 \t\t\t\n      DUP3 \t\t\t\n      DUP12 \t\t\t\n      ADD \t\t\t\n      PUSH [tag] 572\t\t\t\n      JUMP \t\t\t\n    tag 731\t\t\t\n      JUMPDEST \t\t\t\n      SWAP4 \t\t\t\n      POP \t\t\t\n      POP \t\t\t\n      PUSH A0\t\t\t\n      PUSH [tag] 732\t\t\t\n      DUP11 \t\t\t\n      DUP3 \t\t\t\n      DUP12 \t\t\t\n      ADD \t\t\t\n      PUSH [tag] 574\t\t\t\n      JUMP \t\t\t\n    tag 732\t\t\t\n      JUMPDEST \t\t\t\n      SWAP3 \t\t\t\n      POP \t\t\t\n      POP \t\t\t\n      PUSH C0\t\t\t\n      PUSH [tag] 733\t\t\t\n      DUP11 \t\t\t\n      DUP3 \t\t\t\n      DUP12 \t\t\t\n      ADD \t\t\t\n      PUSH [tag] 574\t\t\t\n      JUMP \t\t\t\n    tag 733\t\t\t\n      JUMPDEST \t\t\t\n      SWAP2 \t\t\t\n      POP \t\t\t\n      POP \t\t\t\n      SWAP3 \t\t\t\n      SWAP6 \t\t\t\n      SWAP9 \t\t\t\n      SWAP2 \t\t\t\n      SWAP5 \t\t\t\n      SWAP8 \t\t\t\n      POP \t\t\t\n      SWAP3 \t\t\t\n      SWAP6 \t\t\t\n      POP \t\t\t\n      JUMP \t\t\t\n    tag 119\t\t\t\n      JUMPDEST \t\t\t\n      PUSH 0\t\t\t\n      DUP1 \t\t\t\n      PUSH 40\t\t\t\n      DUP4 \t\t\t\n      DUP6 \t\t\t\n      SUB \t\t\t\n      SLT \t\t\t\n      ISZERO \t\t\t\n      PUSH [tag] 735\t\t\t\n      JUMPI \t\t\t\n      PUSH [tag] 736\t\t\t\n      PUSH [tag] 541\t\t\t\n      JUMP \t\t\t\n    tag 736\t\t\t\n      JUMPDEST \t\t\t\n    tag 735\t\t\t\n      JUMPDEST \t\t\t\n      PUSH 0\t\t\t\n      PUSH [tag] 737\t\t\t\n      DUP6 \t\t\t\n      DUP3 \t\t\t\n      DUP7 \t\t\t\n      ADD \t\t\t\n      PUSH [tag] 546\t\t\t\n      JUMP \t\t\t\n    tag 737\t\t\t\n      JUMPDEST \t\t\t\n      SWAP3 \t\t\t\n      POP \t\t\t\n      POP \t\t\t\n      PUSH 20\t\t\t\n      PUSH [tag] 738\t\t\t\n      DUP6 \t\t\t\n      DUP3 \t\t\t\n      DUP7 \t\t\t\n      ADD \t\t\t\n      PUSH [tag] 546\t\t\t\n      JUMP \t\t\t\n    tag 738\t\t\t\n      JUMPDEST \t\t\t\n      SWAP2 \t\t\t\n      POP \t\t\t\n      POP \t\t\t\n      SWAP3 \t\t\t\n      POP \t\t\t\n      SWAP3 \t\t\t\n      SWAP1 \t\t\t\n      POP \t\t\t\n      JUMP \t\t\t\n    tag 575\t\t\t\n      JUMPDEST \t\t\t\n      PUSH [tag] 740\t\t\t\n      DUP2 \t\t\t\n      PUSH [tag] 558\t\t\t\n      JUMP \t\t\t\n    tag 740\t\t\t\n      JUMPDEST \t\t\t\n      DUP2 \t\t\t\n      EQ \t\t\t\n      PUSH [tag] 741\t\t\t\n      JUMPI \t\t\t\n      PUSH 0\t\t\t\n      DUP1 \t\t\t\n      REVERT \t\t\t\n    tag 741\t\t\t\n      JUMPDEST \t\t\t\n      POP \t\t\t\n      JUMP \t\t\t\n    tag 576\t\t\t\n      JUMPDEST \t\t\t\n      PUSH 0\t\t\t\n      DUP2 \t\t\t\n      CALLDATALOAD \t\t\t\n      SWAP1 \t\t\t\n      POP \t\t\t\n      PUSH [tag] 743\t\t\t\n      DUP2 \t\t\t\n      PUSH [tag] 575\t\t\t\n      JUMP \t\t\t\n    tag 743\t\t\t\n      JUMPDEST \t\t\t\n      SWAP3 \t\t\t\n      SWAP2 \t\t\t\n      POP \t\t\t\n      POP \t\t\t\n      JUMP \t\t\t\n    tag 124\t\t\t\n      JUMPDEST \t\t\t\n      PUSH 0\t\t\t\n      DUP1 \t\t\t\n      PUSH 40\t\t\t\n      DUP4 \t\t\t\n      DUP6 \t\t\t\n      SUB \t\t\t\n      SLT \t\t\t\n      ISZERO \t\t\t\n      PUSH [tag] 745\t\t\t\n      JUMPI \t\t\t\n      PUSH [tag] 746\t\t\t\n      PUSH [tag] 541\t\t\t\n      JUMP \t\t\t\n    tag 746\t\t\t\n      JUMPDEST \t\t\t\n    tag 745\t\t\t\n      JUMPDEST \t\t\t\n      PUSH 0\t\t\t\n      PUSH [tag] 747\t\t\t\n      DUP6 \t\t\t\n      DUP3 \t\t\t\n      DUP7 \t\t\t\n      ADD \t\t\t\n      PUSH [tag] 546\t\t\t\n      JUMP \t\t\t\n    tag 747\t\t\t\n      JUMPDEST \t\t\t\n      SWAP3 \t\t\t\n      POP \t\t\t\n      POP \t\t\t\n      PUSH 20\t\t\t\n      PUSH [tag] 748\t\t\t\n      DUP6 \t\t\t\n      DUP3 \t\t\t\n      DUP7 \t\t\t\n      ADD \t\t\t\n      PUSH [tag] 576\t\t\t\n      JUMP \t\t\t\n    tag 748\t\t\t\n      JUMPDEST \t\t\t\n      SWAP2 \t\t\t\n      POP \t\t\t\n      POP \t\t\t\n      SWAP3 \t\t\t\n      POP \t\t\t\n      SWAP3 \t\t\t\n      SWAP1 \t\t\t\n      POP \t\t\t\n      JUMP \t\t\t\n    tag 577\t\t\t\n      JUMPDEST \t\t\t\n      PUSH [tag] 750\t\t\t\n      DUP2 \t\t\t\n      PUSH [tag] 569\t\t\t\n      JUMP \t\t\t\n    tag 750\t\t\t\n      JUMPDEST \t\t\t\n      DUP3 \t\t\t\n      MSTORE \t\t\t\n      POP \t\t\t\n      POP \t\t\t\n      JUMP \t\t\t\n    tag 578\t\t\t\n      JUMPDEST \t\t\t\n      PUSH 0\t\t\t\n      PUSH FFFFFFFFFFFFFFFFFFFFFFFFFFFFFFFFFFFFFFFFFFFFFFFFFFFF\t\t\t\n      DUP3 \t\t\t\n      AND \t\t\t\n      SWAP1 \t\t\t\n      POP \t\t\t\n      SWAP2 \t\t\t\n      SWAP1 \t\t\t\n      POP \t\t\t\n      JUMP \t\t\t\n    tag 579\t\t\t\n      JUMPDEST \t\t\t\n      PUSH [tag] 753\t\t\t\n      DUP2 \t\t\t\n      PUSH [tag] 578\t\t\t\n      JUMP \t\t\t\n    tag 753\t\t\t\n      JUMPDEST \t\t\t\n      DUP3 \t\t\t\n      MSTORE \t\t\t\n      POP \t\t\t\n      POP \t\t\t\n      JUMP \t\t\t\n    tag 580\t\t\t\n      JUMPDEST \t\t\t\n      PUSH 40\t\t\t\n      DUP3 \t\t\t\n      ADD \t\t\t\n      PUSH 0\t\t\t\n      DUP3 \t\t\t\n      ADD \t\t\t\n      MLOAD \t\t\t\n      PUSH [tag] 755\t\t\t\n      PUSH 0\t\t\t\n      DUP6 \t\t\t\n      ADD \t\t\t\n      DUP3 \t\t\t\n      PUSH [tag] 577\t\t\t\n      JUMP \t\t\t\n    tag 755\t\t\t\n      JUMPDEST \t\t\t\n      POP \t\t\t\n      PUSH 20\t\t\t\n      DUP3 \t\t\t\n      ADD \t\t\t\n      MLOAD \t\t\t\n      PUSH [tag] 756\t\t\t\n      PUSH 20\t\t\t\n      DUP6 \t\t\t\n      ADD \t\t\t\n      DUP3 \t\t\t\n      PUSH [tag] 579\t\t\t\n      JUMP \t\t\t\n    tag 756\t\t\t\n      JUMPDEST \t\t\t\n      POP \t\t\t\n      POP \t\t\t\n      POP \t\t\t\n      POP \t\t\t\n      JUMP \t\t\t\n    tag 127\t\t\t\n      JUMPDEST \t\t\t\n      PUSH 0\t\t\t\n      PUSH 40\t\t\t\n      DUP3 \t\t\t\n      ADD \t\t\t\n      SWAP1 \t\t\t\n      POP \t\t\t\n      PUSH [tag] 758\t\t\t\n      PUSH 0\t\t\t\n      DUP4 \t\t\t\n      ADD \t\t\t\n      DUP5 \t\t\t\n      PUSH [tag] 580\t\t\t\n      JUMP \t\t\t\n    tag 758\t\t\t\n      JUMPDEST \t\t\t\n      SWAP3 \t\t\t\n      SWAP2 \t\t\t\n      POP \t\t\t\n      POP \t\t\t\n      JUMP \t\t\t\n    tag 581\t\t\t\n      JUMPDEST \t\t\t\n      PUSH 4E487B7100000000000000000000000000000000000000000000000000000000\t\t\t\n      PUSH 0\t\t\t\n      MSTORE \t\t\t\n      PUSH 22\t\t\t\n      PUSH 4\t\t\t\n      MSTORE \t\t\t\n      PUSH 24\t\t\t\n      PUSH 0\t\t\t\n      REVERT \t\t\t\n    tag 132\t\t\t\n      JUMPDEST \t\t\t\n      PUSH 0\t\t\t\n      PUSH 2\t\t\t\n      DUP3 \t\t\t\n      DIV \t\t\t\n      SWAP1 \t\t\t\n      POP \t\t\t\n      PUSH 1\t\t\t\n      DUP3 \t\t\t\n      AND \t\t\t\n      DUP1 \t\t\t\n      PUSH [tag] 761\t\t\t\n      JUMPI \t\t\t\n      PUSH 7F\t\t\t\n      DUP3 \t\t\t\n      AND \t\t\t\n      SWAP2 \t\t\t\n      POP \t\t\t\n    tag 761\t\t\t\n      JUMPDEST \t\t\t\n      PUSH 20\t\t\t\n      DUP3 \t\t\t\n      LT \t\t\t\n      DUP2 \t\t\t\n      SUB \t\t\t\n      PUSH [tag] 762\t\t\t\n      JUMPI \t\t\t\n      PUSH [tag] 763\t\t\t\n      PUSH [tag] 581\t\t\t\n      JUMP \t\t\t\n    tag 763\t\t\t\n      JUMPDEST \t\t\t\n    tag 762\t\t\t\n      JUMPDEST \t\t\t\n      POP \t\t\t\n      SWAP2 \t\t\t\n      SWAP1 \t\t\t\n      POP \t\t\t\n      JUMP \t\t\t\n    tag 157\t\t\t\n      JUMPDEST \t\t\t\n      PUSH 0\t\t\t\n      PUSH 40\t\t\t\n      DUP3 \t\t\t\n      ADD \t\t\t\n      SWAP1 \t\t\t\n      POP \t\t\t\n      PUSH [tag] 765\t\t\t\n      PUSH 0\t\t\t\n      DUP4 \t\t\t\n      ADD \t\t\t\n      DUP6 \t\t\t\n      PUSH [tag] 552\t\t\t\n      JUMP \t\t\t\n    tag 765\t\t\t\n      JUMPDEST \t\t\t\n      PUSH [tag] 766\t\t\t\n      PUSH 20\t\t\t\n      DUP4 \t\t\t\n      ADD \t\t\t\n      DUP5 \t\t\t\n      PUSH [tag] 570\t\t\t\n      JUMP \t\t\t\n    tag 766\t\t\t\n      JUMPDEST \t\t\t\n      SWAP4 \t\t\t\n      SWAP3 \t\t\t\n      POP \t\t\t\n      POP \t\t\t\n      POP \t\t\t\n      JUMP \t\t\t\n    tag 186\t\t\t\n      JUMPDEST \t\t\t\n      PUSH 4E487B7100000000000000000000000000000000000000000000000000000000\t\t\t\n      PUSH 0\t\t\t\n      MSTORE \t\t\t\n      PUSH 41\t\t\t\n      PUSH 4\t\t\t\n      MSTORE \t\t\t\n      PUSH 24\t\t\t\n      PUSH 0\t\t\t\n      REVERT \t\t\t\n    tag 214\t\t\t\n      JUMPDEST \t\t\t\n      PUSH 0\t\t\t\n      PUSH 80\t\t\t\n      DUP3 \t\t\t\n      ADD \t\t\t\n      SWAP1 \t\t\t\n      POP \t\t\t\n      PUSH [tag] 769\t\t\t\n      PUSH 0\t\t\t\n      DUP4 \t\t\t\n      ADD \t\t\t\n      DUP8 \t\t\t\n      PUSH [tag] 556\t\t\t\n      JUMP \t\t\t\n    tag 769\t\t\t\n      JUMPDEST \t\t\t\n      PUSH [tag] 770\t\t\t\n      PUSH 20\t\t\t\n      DUP4 \t\t\t\n      ADD \t\t\t\n      DUP7 \t\t\t\n      PUSH [tag] 557\t\t\t\n      JUMP \t\t\t\n    tag 770\t\t\t\n      JUMPDEST \t\t\t\n      PUSH [tag] 771\t\t\t\n      PUSH 40\t\t\t\n      DUP4 \t\t\t\n      ADD \t\t\t\n      DUP6 \t\t\t\n      PUSH [tag] 552\t\t\t\n      JUMP \t\t\t\n    tag 771\t\t\t\n      JUMPDEST \t\t\t\n      PUSH [tag] 772\t\t\t\n      PUSH 60\t\t\t\n      DUP4 \t\t\t\n      ADD \t\t\t\n      DUP5 \t\t\t\n      PUSH [tag] 552\t\t\t\n      JUMP \t\t\t\n    tag 772\t\t\t\n      JUMPDEST \t\t\t\n      SWAP6 \t\t\t\n      SWAP5 \t\t\t\n      POP \t\t\t\n      POP \t\t\t\n      POP \t\t\t\n      POP \t\t\t\n      POP \t\t\t\n      JUMP \t\t\t\n    tag 226\t\t\t\n      JUMPDEST \t\t\t\n      PUSH 0\t\t\t\n      PUSH C0\t\t\t\n      DUP3 \t\t\t\n      ADD \t\t\t\n      SWAP1 \t\t\t\n      POP \t\t\t\n      PUSH [tag] 774\t\t\t\n      PUSH 0\t\t\t\n      DUP4 \t\t\t\n      ADD \t\t\t\n      DUP10 \t\t\t\n      PUSH [tag] 556\t\t\t\n      JUMP \t\t\t\n    tag 774\t\t\t\n      JUMPDEST \t\t\t\n      PUSH [tag] 775\t\t\t\n      PUSH 20\t\t\t\n      DUP4 \t\t\t\n      ADD \t\t\t\n      DUP9 \t\t\t\n      PUSH [tag] 557\t\t\t\n      JUMP \t\t\t\n    tag 775\t\t\t\n      JUMPDEST \t\t\t\n      PUSH [tag] 776\t\t\t\n      PUSH 40\t\t\t\n      DUP4 \t\t\t\n      ADD \t\t\t\n      DUP8 \t\t\t\n      PUSH [tag] 557\t\t\t\n      JUMP \t\t\t\n    tag 776\t\t\t\n      JUMPDEST \t\t\t\n      PUSH [tag] 777\t\t\t\n      PUSH 60\t\t\t\n      DUP4 \t\t\t\n      ADD \t\t\t\n      DUP7 \t\t\t\n      PUSH [tag] 552\t\t\t\n      JUMP \t\t\t\n    tag 777\t\t\t\n      JUMPDEST \t\t\t\n      PUSH [tag] 778\t\t\t\n      PUSH 80\t\t\t\n      DUP4 \t\t\t\n      ADD \t\t\t\n      DUP6 \t\t\t\n      PUSH [tag] 552\t\t\t\n      JUMP \t\t\t\n    tag 778\t\t\t\n      JUMPDEST \t\t\t\n      PUSH [tag] 779\t\t\t\n      PUSH A0\t\t\t\n      DUP4 \t\t\t\n      ADD \t\t\t\n      DUP5 \t\t\t\n      PUSH [tag] 552\t\t\t\n      JUMP \t\t\t\n    tag 779\t\t\t\n      JUMPDEST \t\t\t\n      SWAP8 \t\t\t\n      SWAP7 \t\t\t\n      POP \t\t\t\n      POP \t\t\t\n      POP \t\t\t\n      POP \t\t\t\n      POP \t\t\t\n      POP \t\t\t\n      POP \t\t\t\n      JUMP \t\t\t\n    tag 231\t\t\t\n      JUMPDEST \t\t\t\n      PUSH 0\t\t\t\n      PUSH 40\t\t\t\n      DUP3 \t\t\t\n      ADD \t\t\t\n      SWAP1 \t\t\t\n      POP \t\t\t\n      PUSH [tag] 781\t\t\t\n      PUSH 0\t\t\t\n      DUP4 \t\t\t\n      ADD \t\t\t\n      DUP6 \t\t\t\n      PUSH [tag] 557\t\t\t\n      JUMP \t\t\t\n    tag 781\t\t\t\n      JUMPDEST \t\t\t\n      PUSH [tag] 782\t\t\t\n      PUSH 20\t\t\t\n      DUP4 \t\t\t\n      ADD \t\t\t\n      DUP5 \t\t\t\n      PUSH [tag] 557\t\t\t\n      JUMP \t\t\t\n    tag 782\t\t\t\n      JUMPDEST \t\t\t\n      SWAP4 \t\t\t\n      SWAP3 \t\t\t\n      POP \t\t\t\n      POP \t\t\t\n      POP \t\t\t\n      JUMP \t\t\t\n    tag 582\t\t\t\n      JUMPDEST \t\t\t\n      PUSH 4E487B7100000000000000000000000000000000000000000000000000000000\t\t\t\n      PUSH 0\t\t\t\n      MSTORE \t\t\t\n      PUSH 11\t\t\t\n      PUSH 4\t\t\t\n      MSTORE \t\t\t\n      PUSH 24\t\t\t\n      PUSH 0\t\t\t\n      REVERT \t\t\t\n    tag 241\t\t\t\n      JUMPDEST \t\t\t\n      PUSH 0\t\t\t\n      PUSH [tag] 785\t\t\t\n      DUP3 \t\t\t\n      PUSH [tag] 578\t\t\t\n      JUMP \t\t\t\n    tag 785\t\t\t\n      JUMPDEST \t\t\t\n      SWAP2 \t\t\t\n      POP \t\t\t\n      PUSH [tag] 786\t\t\t\n      DUP4 \t\t\t\n      PUSH [tag] 578\t\t\t\n      JUMP \t\t\t\n    tag 786\t\t\t\n      JUMPDEST \t\t\t\n      SWAP3 \t\t\t\n      POP \t\t\t\n      DUP3 \t\t\t\n      DUP3 \t\t\t\n      ADD \t\t\t\n      SWAP1 \t\t\t\n      POP \t\t\t\n      PUSH FFFFFFFFFFFFFFFFFFFFFFFFFFFFFFFFFFFFFFFFFFFFFFFFFFFF\t\t\t\n      DUP2 \t\t\t\n      GT \t\t\t\n      ISZERO \t\t\t\n      PUSH [tag] 787\t\t\t\n      JUMPI \t\t\t\n      PUSH [tag] 788\t\t\t\n      PUSH [tag] 582\t\t\t\n      JUMP \t\t\t\n    tag 788\t\t\t\n      JUMPDEST \t\t\t\n    tag 787\t\t\t\n      JUMPDEST \t\t\t\n      SWAP3 \t\t\t\n      SWAP2 \t\t\t\n      POP \t\t\t\n      POP \t\t\t\n      JUMP \t\t\t\n    tag 244\t\t\t\n      JUMPDEST \t\t\t\n      PUSH 0\t\t\t\n      PUSH [tag] 790\t\t\t\n      DUP3 \t\t\t\n      PUSH [tag] 578\t\t\t\n      JUMP \t\t\t\n    tag 790\t\t\t\n      JUMPDEST \t\t\t\n      SWAP2 \t\t\t\n      POP \t\t\t\n      PUSH [tag] 791\t\t\t\n      DUP4 \t\t\t\n      PUSH [tag] 578\t\t\t\n      JUMP \t\t\t\n    tag 791\t\t\t\n      JUMPDEST \t\t\t\n      SWAP3 \t\t\t\n      POP \t\t\t\n      DUP3 \t\t\t\n      DUP3 \t\t\t\n      SUB \t\t\t\n      SWAP1 \t\t\t\n      POP \t\t\t\n      PUSH FFFFFFFFFFFFFFFFFFFFFFFFFFFFFFFFFFFFFFFFFFFFFFFFFFFF\t\t\t\n      DUP2 \t\t\t\n      GT \t\t\t\n      ISZERO \t\t\t\n      PUSH [tag] 792\t\t\t\n      JUMPI \t\t\t\n      PUSH [tag] 793\t\t\t\n      PUSH [tag] 582\t\t\t\n      JUMP \t\t\t\n    tag 793\t\t\t\n      JUMPDEST \t\t\t\n    tag 792\t\t\t\n      JUMPDEST \t\t\t\n      SWAP3 \t\t\t\n      SWAP2 \t\t\t\n      POP \t\t\t\n      POP \t\t\t\n      JUMP \t\t\t\n    tag 254\t\t\t\n      JUMPDEST \t\t\t\n      PUSH 0\t\t\t\n      PUSH 60\t\t\t\n      DUP3 \t\t\t\n      ADD \t\t\t\n      SWAP1 \t\t\t\n      POP \t\t\t\n      PUSH [tag] 795\t\t\t\n      PUSH 0\t\t\t\n      DUP4 \t\t\t\n      ADD \t\t\t\n      DUP7 \t\t\t\n      PUSH [tag] 557\t\t\t\n      JUMP \t\t\t\n    tag 795\t\t\t\n      JUMPDEST \t\t\t\n      PUSH [tag] 796\t\t\t\n      PUSH 20\t\t\t\n      DUP4 \t\t\t\n      ADD \t\t\t\n      DUP6 \t\t\t\n      PUSH [tag] 552\t\t\t\n      JUMP \t\t\t\n    tag 796\t\t\t\n      JUMPDEST \t\t\t\n      PUSH [tag] 797\t\t\t\n      PUSH 40\t\t\t\n      DUP4 \t\t\t\n      ADD \t\t\t\n      DUP5 \t\t\t\n      PUSH [tag] 552\t\t\t\n      JUMP \t\t\t\n    tag 797\t\t\t\n      JUMPDEST \t\t\t\n      SWAP5 \t\t\t\n      SWAP4 \t\t\t\n      POP \t\t\t\n      POP \t\t\t\n      POP \t\t\t\n      POP \t\t\t\n      JUMP \t\t\t\n    tag 583\t\t\t\n      JUMPDEST \t\t\t\n      PUSH 0\t\t\t\n      DUP2 \t\t\t\n      SWAP1 \t\t\t\n      POP \t\t\t\n      SWAP2 \t\t\t\n      SWAP1 \t\t\t\n      POP \t\t\t\n      JUMP \t\t\t\n    tag 584\t\t\t\n      JUMPDEST \t\t\t\n      PUSH 0\t\t\t\n      DUP2 \t\t\t\n      SWAP1 \t\t\t\n      POP \t\t\t\n      SWAP2 \t\t\t\n      SWAP1 \t\t\t\n      POP \t\t\t\n      JUMP \t\t\t\n    tag 585\t\t\t\n      JUMPDEST \t\t\t\n      PUSH 0\t\t\t\n      PUSH [tag] 801\t\t\t\n      PUSH [tag] 802\t\t\t\n      PUSH [tag] 803\t\t\t\n      DUP5 \t\t\t\n      PUSH [tag] 583\t\t\t\n      JUMP \t\t\t\n    tag 803\t\t\t\n      JUMPDEST \t\t\t\n      PUSH [tag] 584\t\t\t\n      JUMP \t\t\t\n    tag 802\t\t\t\n      JUMPDEST \t\t\t\n      PUSH [tag] 553\t\t\t\n      JUMP \t\t\t\n    tag 801\t\t\t\n      JUMPDEST \t\t\t\n      SWAP1 \t\t\t\n      POP \t\t\t\n      SWAP2 \t\t\t\n      SWAP1 \t\t\t\n      POP \t\t\t\n      JUMP \t\t\t\n    tag 586\t\t\t\n      JUMPDEST \t\t\t\n      PUSH [tag] 805\t\t\t\n      DUP2 \t\t\t\n      PUSH [tag] 585\t\t\t\n      JUMP \t\t\t\n    tag 805\t\t\t\n      JUMPDEST \t\t\t\n      DUP3 \t\t\t\n      MSTORE \t\t\t\n      POP \t\t\t\n      POP \t\t\t\n      JUMP \t\t\t\n    tag 272\t\t\t\n      JUMPDEST \t\t\t\n      PUSH 0\t\t\t\n      PUSH 40\t\t\t\n      DUP3 \t\t\t\n      ADD \t\t\t\n      SWAP1 \t\t\t\n      POP \t\t\t\n      PUSH [tag] 807\t\t\t\n      PUSH 0\t\t\t\n      DUP4 \t\t\t\n      ADD \t\t\t\n      DUP6 \t\t\t\n      PUSH [tag] 586\t\t\t\n      JUMP \t\t\t\n    tag 807\t\t\t\n      JUMPDEST \t\t\t\n      PUSH [tag] 808\t\t\t\n      PUSH 20\t\t\t\n      DUP4 \t\t\t\n      ADD \t\t\t\n      DUP5 \t\t\t\n      PUSH [tag] 552\t\t\t\n      JUMP \t\t\t\n    tag 808\t\t\t\n      JUMPDEST \t\t\t\n      SWAP4 \t\t\t\n      SWAP3 \t\t\t\n      POP \t\t\t\n      POP \t\t\t\n      POP \t\t\t\n      JUMP \t\t\t\n    tag 278\t\t\t\n      JUMPDEST \t\t\t\n      PUSH 0\t\t\t\n      PUSH [tag] 810\t\t\t\n      DUP3 \t\t\t\n      PUSH [tag] 547\t\t\t\n      JUMP \t\t\t\n    tag 810\t\t\t\n      JUMPDEST \t\t\t\n      SWAP2 \t\t\t\n      POP \t\t\t\n      PUSH [tag] 811\t\t\t\n      DUP4 \t\t\t\n      PUSH [tag] 547\t\t\t\n      JUMP \t\t\t\n    tag 811\t\t\t\n      JUMPDEST \t\t\t\n      SWAP3 \t\t\t\n      POP \t\t\t\n      DUP3 \t\t\t\n      DUP3 \t\t\t\n      SUB \t\t\t\n      SWAP1 \t\t\t\n      POP \t\t\t\n      DUP2 \t\t\t\n      DUP2 \t\t\t\n      GT \t\t\t\n      ISZERO \t\t\t\n      PUSH [tag] 812\t\t\t\n      JUMPI \t\t\t\n      PUSH [tag] 813\t\t\t\n      PUSH [tag] 582\t\t\t\n      JUMP \t\t\t\n    tag 813\t\t\t\n      JUMPDEST \t\t\t\n    tag 812\t\t\t\n      JUMPDEST \t\t\t\n      SWAP3 \t\t\t\n      SWAP2 \t\t\t\n      POP \t\t\t\n      POP \t\t\t\n      JUMP \t\t\t\n    tag 284\t\t\t\n      JUMPDEST \t\t\t\n      PUSH 0\t\t\t\n      PUSH [tag] 815\t\t\t\n      DUP3 \t\t\t\n      PUSH [tag] 547\t\t\t\n      JUMP \t\t\t\n    tag 815\t\t\t\n      JUMPDEST \t\t\t\n      SWAP2 \t\t\t\n      POP \t\t\t\n      PUSH [tag] 816\t\t\t\n      DUP4 \t\t\t\n      PUSH [tag] 547\t\t\t\n      JUMP \t\t\t\n    tag 816\t\t\t\n      JUMPDEST \t\t\t\n      SWAP3 \t\t\t\n      POP \t\t\t\n      DUP3 \t\t\t\n      DUP3 \t\t\t\n      ADD \t\t\t\n      SWAP1 \t\t\t\n      POP \t\t\t\n      DUP1 \t\t\t\n      DUP3 \t\t\t\n      GT \t\t\t\n      ISZERO \t\t\t\n      PUSH [tag] 817\t\t\t\n      JUMPI \t\t\t\n      PUSH [tag] 818\t\t\t\n      PUSH [tag] 582\t\t\t\n      JUMP \t\t\t\n    tag 818\t\t\t\n      JUMPDEST \t\t\t\n    tag 817\t\t\t\n      JUMPDEST \t\t\t\n      SWAP3 \t\t\t\n      SWAP2 \t\t\t\n      POP \t\t\t\n      POP \t\t\t\n      JUMP \t\t\t\n    tag 330\t\t\t\n      JUMPDEST \t\t\t\n      PUSH 0\t\t\t\n      PUSH 40\t\t\t\n      DUP3 \t\t\t\n      ADD \t\t\t\n      SWAP1 \t\t\t\n      POP \t\t\t\n      PUSH [tag] 820\t\t\t\n      PUSH 0\t\t\t\n      DUP4 \t\t\t\n      ADD \t\t\t\n      DUP6 \t\t\t\n      PUSH [tag] 557\t\t\t\n      JUMP \t\t\t\n    tag 820\t\t\t\n      JUMPDEST \t\t\t\n      PUSH [tag] 821\t\t\t\n      PUSH 20\t\t\t\n      DUP4 \t\t\t\n      ADD \t\t\t\n      DUP5 \t\t\t\n      PUSH [tag] 552\t\t\t\n      JUMP \t\t\t\n    tag 821\t\t\t\n      JUMPDEST \t\t\t\n      SWAP4 \t\t\t\n      SWAP3 \t\t\t\n      POP \t\t\t\n      POP \t\t\t\n      POP \t\t\t\n      JUMP \t\t\t\n    tag 348\t\t\t\n      JUMPDEST \t\t\t\n      PUSH 0\t\t\t\n      PUSH A0\t\t\t\n      DUP3 \t\t\t\n      ADD \t\t\t\n      SWAP1 \t\t\t\n      POP \t\t\t\n      PUSH [tag] 823\t\t\t\n      PUSH 0\t\t\t\n      DUP4 \t\t\t\n      ADD \t\t\t\n      DUP9 \t\t\t\n      PUSH [tag] 556\t\t\t\n      JUMP \t\t\t\n    tag 823\t\t\t\n      JUMPDEST \t\t\t\n      PUSH [tag] 824\t\t\t\n      PUSH 20\t\t\t\n      DUP4 \t\t\t\n      ADD \t\t\t\n      DUP8 \t\t\t\n      PUSH [tag] 556\t\t\t\n      JUMP \t\t\t\n    tag 824\t\t\t\n      JUMPDEST \t\t\t\n      PUSH [tag] 825\t\t\t\n      PUSH 40\t\t\t\n      DUP4 \t\t\t\n      ADD \t\t\t\n      DUP7 \t\t\t\n      PUSH [tag] 556\t\t\t\n      JUMP \t\t\t\n    tag 825\t\t\t\n      JUMPDEST \t\t\t\n      PUSH [tag] 826\t\t\t\n      PUSH 60\t\t\t\n      DUP4 \t\t\t\n      ADD \t\t\t\n      DUP6 \t\t\t\n      PUSH [tag] 552\t\t\t\n      JUMP \t\t\t\n    tag 826\t\t\t\n      JUMPDEST \t\t\t\n      PUSH [tag] 827\t\t\t\n      PUSH 80\t\t\t\n      DUP4 \t\t\t\n      ADD \t\t\t\n      DUP5 \t\t\t\n      PUSH [tag] 557\t\t\t\n      JUMP \t\t\t\n    tag 827\t\t\t\n      JUMPDEST \t\t\t\n      SWAP7 \t\t\t\n      SWAP6 \t\t\t\n      POP \t\t\t\n      POP \t\t\t\n      POP \t\t\t\n      POP \t\t\t\n      POP \t\t\t\n      POP \t\t\t\n      JUMP \t\t\t\n    tag 355\t\t\t\n      JUMPDEST \t\t\t\n      PUSH 4E487B7100000000000000000000000000000000000000000000000000000000\t\t\t\n      PUSH 0\t\t\t\n      MSTORE \t\t\t\n      PUSH 12\t\t\t\n      PUSH 4\t\t\t\n      MSTORE \t\t\t\n      PUSH 24\t\t\t\n      PUSH 0\t\t\t\n      REVERT \t\t\t\n    tag 393\t\t\t\n      JUMPDEST \t\t\t\n      PUSH 0\t\t\t\n      PUSH 40\t\t\t\n      DUP3 \t\t\t\n      ADD \t\t\t\n      SWAP1 \t\t\t\n      POP \t\t\t\n      PUSH [tag] 830\t\t\t\n      PUSH 0\t\t\t\n      DUP4 \t\t\t\n      ADD \t\t\t\n      DUP6 \t\t\t\n      PUSH [tag] 552\t\t\t\n      JUMP \t\t\t\n    tag 830\t\t\t\n      JUMPDEST \t\t\t\n      PUSH [tag] 831\t\t\t\n      PUSH 20\t\t\t\n      DUP4 \t\t\t\n      ADD \t\t\t\n      DUP5 \t\t\t\n      PUSH [tag] 552\t\t\t\n      JUMP \t\t\t\n    tag 831\t\t\t\n      JUMPDEST \t\t\t\n      SWAP4 \t\t\t\n      SWAP3 \t\t\t\n      POP \t\t\t\n      POP \t\t\t\n      POP \t\t\t\n      JUMP \t\t\t\n    tag 587\t\t\t\n      JUMPDEST \t\t\t\n      PUSH 0\t\t\t\n      DUP2 \t\t\t\n      SWAP1 \t\t\t\n      POP \t\t\t\n      SWAP2 \t\t\t\n      SWAP1 \t\t\t\n      POP \t\t\t\n      JUMP \t\t\t\n    tag 588\t\t\t\n      JUMPDEST \t\t\t\n      PUSH 0\t\t\t\n      PUSH [tag] 834\t\t\t\n      PUSH [tag] 835\t\t\t\n      PUSH [tag] 836\t\t\t\n      DUP5 \t\t\t\n      PUSH [tag] 587\t\t\t\n      JUMP \t\t\t\n    tag 836\t\t\t\n      JUMPDEST \t\t\t\n      PUSH [tag] 584\t\t\t\n      JUMP \t\t\t\n    tag 835\t\t\t\n      JUMPDEST \t\t\t\n      PUSH [tag] 553\t\t\t\n      JUMP \t\t\t\n    tag 834\t\t\t\n      JUMPDEST \t\t\t\n      SWAP1 \t\t\t\n      POP \t\t\t\n      SWAP2 \t\t\t\n      SWAP1 \t\t\t\n      POP \t\t\t\n      JUMP \t\t\t\n    tag 589\t\t\t\n      JUMPDEST \t\t\t\n      PUSH [tag] 838\t\t\t\n      DUP2 \t\t\t\n      PUSH [tag] 588\t\t\t\n      JUMP \t\t\t\n    tag 838\t\t\t\n      JUMPDEST \t\t\t\n      DUP3 \t\t\t\n      MSTORE \t\t\t\n      POP \t\t\t\n      POP \t\t\t\n      JUMP \t\t\t\n    tag 402\t\t\t\n      JUMPDEST \t\t\t\n      PUSH 0\t\t\t\n      PUSH 40\t\t\t\n      DUP3 \t\t\t\n      ADD \t\t\t\n      SWAP1 \t\t\t\n      POP \t\t\t\n      PUSH [tag] 840\t\t\t\n      PUSH 0\t\t\t\n      DUP4 \t\t\t\n      ADD \t\t\t\n      DUP6 \t\t\t\n      PUSH [tag] 589\t\t\t\n      JUMP \t\t\t\n    tag 840\t\t\t\n      JUMPDEST \t\t\t\n      PUSH [tag] 841\t\t\t\n      PUSH 20\t\t\t\n      DUP4 \t\t\t\n      ADD \t\t\t\n      DUP5 \t\t\t\n      PUSH [tag] 552\t\t\t\n      JUMP \t\t\t\n    tag 841\t\t\t\n      JUMPDEST \t\t\t\n      SWAP4 \t\t\t\n      SWAP3 \t\t\t\n      POP \t\t\t\n      POP \t\t\t\n      POP \t\t\t\n      JUMP \t\t\t\n    tag 418\t\t\t\n      JUMPDEST \t\t\t\n      PUSH 0\t\t\t\n      PUSH 80\t\t\t\n      DUP3 \t\t\t\n      ADD \t\t\t\n      SWAP1 \t\t\t\n      POP \t\t\t\n      PUSH [tag] 843\t\t\t\n      PUSH 0\t\t\t\n      DUP4 \t\t\t\n      ADD \t\t\t\n      DUP8 \t\t\t\n      PUSH [tag] 556\t\t\t\n      JUMP \t\t\t\n    tag 843\t\t\t\n      JUMPDEST \t\t\t\n      PUSH [tag] 844\t\t\t\n      PUSH 20\t\t\t\n      DUP4 \t\t\t\n      ADD \t\t\t\n      DUP7 \t\t\t\n      PUSH [tag] 554\t\t\t\n      JUMP \t\t\t\n    tag 844\t\t\t\n      JUMPDEST \t\t\t\n      PUSH [tag] 845\t\t\t\n      PUSH 40\t\t\t\n      DUP4 \t\t\t\n      ADD \t\t\t\n      DUP6 \t\t\t\n      PUSH [tag] 556\t\t\t\n      JUMP \t\t\t\n    tag 845\t\t\t\n      JUMPDEST \t\t\t\n      PUSH [tag] 846\t\t\t\n      PUSH 60\t\t\t\n      DUP4 \t\t\t\n      ADD \t\t\t\n      DUP5 \t\t\t\n      PUSH [tag] 556\t\t\t\n      JUMP \t\t\t\n    tag 846\t\t\t\n      JUMPDEST \t\t\t\n      SWAP6 \t\t\t\n      SWAP5 \t\t\t\n      POP \t\t\t\n      POP \t\t\t\n      POP \t\t\t\n      POP \t\t\t\n      POP \t\t\t\n      JUMP \t\t\t\n    tag 425\t\t\t\n      JUMPDEST \t\t\t\n      PUSH 4E487B7100000000000000000000000000000000000000000000000000000000\t\t\t\n      PUSH 0\t\t\t\n      MSTORE \t\t\t\n      PUSH 21\t\t\t\n      PUSH 4\t\t\t\n      MSTORE \t\t\t\n      PUSH 24\t\t\t\n      PUSH 0\t\t\t\n      REVERT \t\t\t\n    tag 453\t\t\t\n      JUMPDEST \t\t\t\n      PUSH 4E487B7100000000000000000000000000000000000000000000000000000000\t\t\t\n      PUSH 0\t\t\t\n      MSTORE \t\t\t\n      PUSH 32\t\t\t\n      PUSH 4\t\t\t\n      MSTORE \t\t\t\n      PUSH 24\t\t\t\n      PUSH 0\t\t\t\n      REVERT \t\t\t\n    tag 480\t\t\t\n      JUMPDEST \t\t\t\n      PUSH 0\t\t\t\n      PUSH [tag] 850\t\t\t\n      DUP3 \t\t\t\n      PUSH [tag] 547\t\t\t\n      JUMP \t\t\t\n    tag 850\t\t\t\n      JUMPDEST \t\t\t\n      SWAP2 \t\t\t\n      POP \t\t\t\n      PUSH [tag] 851\t\t\t\n      DUP4 \t\t\t\n      PUSH [tag] 547\t\t\t\n      JUMP \t\t\t\n    tag 851\t\t\t\n      JUMPDEST \t\t\t\n      SWAP3 \t\t\t\n      POP \t\t\t\n      DUP3 \t\t\t\n      PUSH [tag] 852\t\t\t\n      JUMPI \t\t\t\n      PUSH [tag] 853\t\t\t\n      PUSH [tag] 355\t\t\t\n      JUMP \t\t\t\n    tag 853\t\t\t\n      JUMPDEST \t\t\t\n    tag 852\t\t\t\n      JUMPDEST \t\t\t\n      DUP3 \t\t\t\n      DUP3 \t\t\t\n      DIV \t\t\t\n      SWAP1 \t\t\t\n      POP \t\t\t\n      SWAP3 \t\t\t\n      SWAP2 \t\t\t\n      POP \t\t\t\n      POP \t\t\t\n      JUMP \t\t\t\n    tag 590\t\t\t\n      JUMPDEST \t\t\t\n      PUSH 0\t\t\t\n      DUP2 \t\t\t\n      SWAP1 \t\t\t\n      POP \t\t\t\n      SWAP2 \t\t\t\n      SWAP1 \t\t\t\n      POP \t\t\t\n      JUMP \t\t\t\n    tag 591\t\t\t\n      JUMPDEST \t\t\t\n      PUSH 0\t\t\t\n      PUSH [tag] 856\t\t\t\n      PUSH [tag] 857\t\t\t\n      PUSH [tag] 858\t\t\t\n      DUP5 \t\t\t\n      PUSH [tag] 590\t\t\t\n      JUMP \t\t\t\n    tag 858\t\t\t\n      JUMPDEST \t\t\t\n      PUSH [tag] 584\t\t\t\n      JUMP \t\t\t\n    tag 857\t\t\t\n      JUMPDEST \t\t\t\n      PUSH [tag] 553\t\t\t\n      JUMP \t\t\t\n    tag 856\t\t\t\n      JUMPDEST \t\t\t\n      SWAP1 \t\t\t\n      POP \t\t\t\n      SWAP2 \t\t\t\n      SWAP1 \t\t\t\n      POP \t\t\t\n      JUMP \t\t\t\n    tag 592\t\t\t\n      JUMPDEST \t\t\t\n      PUSH [tag] 860\t\t\t\n      DUP2 \t\t\t\n      PUSH [tag] 591\t\t\t\n      JUMP \t\t\t\n    tag 860\t\t\t\n      JUMPDEST \t\t\t\n      DUP3 \t\t\t\n      MSTORE \t\t\t\n      POP \t\t\t\n      POP \t\t\t\n      JUMP \t\t\t\n    tag 485\t\t\t\n      JUMPDEST \t\t\t\n      PUSH 0\t\t\t\n      PUSH 40\t\t\t\n      DUP3 \t\t\t\n      ADD \t\t\t\n      SWAP1 \t\t\t\n      POP \t\t\t\n      PUSH [tag] 862\t\t\t\n      PUSH 0\t\t\t\n      DUP4 \t\t\t\n      ADD \t\t\t\n      DUP6 \t\t\t\n      PUSH [tag] 592\t\t\t\n      JUMP \t\t\t\n    tag 862\t\t\t\n      JUMPDEST \t\t\t\n      PUSH [tag] 863\t\t\t\n      PUSH 20\t\t\t\n      DUP4 \t\t\t\n      ADD \t\t\t\n      DUP5 \t\t\t\n      PUSH [tag] 552\t\t\t\n      JUMP \t\t\t\n    tag 863\t\t\t\n      JUMPDEST \t\t\t\n      SWAP4 \t\t\t\n      SWAP3 \t\t\t\n      POP \t\t\t\n      POP \t\t\t\n      POP \t\t\t\n      JUMP \t\t\t\n    .data\n"
}